{
	"MyProjectSharedWallet.sol": {
		"SharedWallet": {
			"abi": [
				{
					"anonymous": false,
					"inputs": [
						{
							"indexed": true,
							"internalType": "address",
							"name": "previousOwner",
							"type": "address"
						},
						{
							"indexed": true,
							"internalType": "address",
							"name": "newOwner",
							"type": "address"
						}
					],
					"name": "OwnershipTransferred",
					"type": "event"
				},
				{
					"inputs": [
						{
							"internalType": "address payable",
							"name": "_to",
							"type": "address"
						},
						{
							"internalType": "uint256",
							"name": "_amount",
							"type": "uint256"
						}
					],
					"name": "ClaimMoney",
					"outputs": [],
					"stateMutability": "nonpayable",
					"type": "function"
				},
				{
					"inputs": [],
					"name": "SendMoney",
					"outputs": [],
					"stateMutability": "payable",
					"type": "function"
				},
				{
					"inputs": [
						{
							"internalType": "address",
							"name": "_beneficiary",
							"type": "address"
						},
						{
							"internalType": "uint256",
							"name": "_allowancePercentage",
							"type": "uint256"
						}
					],
					"name": "SetAllowance",
					"outputs": [],
					"stateMutability": "nonpayable",
					"type": "function"
				},
				{
					"inputs": [
						{
							"internalType": "address",
							"name": "",
							"type": "address"
						}
					],
					"name": "beneficiaries",
					"outputs": [
						{
							"internalType": "uint256",
							"name": "allowance",
							"type": "uint256"
						},
						{
							"internalType": "uint256",
							"name": "claimsMade",
							"type": "uint256"
						}
					],
					"stateMutability": "view",
					"type": "function"
				},
				{
					"inputs": [],
					"name": "contractBalance",
					"outputs": [
						{
							"internalType": "uint256",
							"name": "",
							"type": "uint256"
						}
					],
					"stateMutability": "view",
					"type": "function"
				},
				{
					"inputs": [],
					"name": "owner",
					"outputs": [
						{
							"internalType": "address",
							"name": "",
							"type": "address"
						}
					],
					"stateMutability": "view",
					"type": "function"
				},
				{
					"inputs": [
						{
							"internalType": "address payable",
							"name": "_to",
							"type": "address"
						},
						{
							"internalType": "uint256",
							"name": "_amount",
							"type": "uint256"
						}
					],
					"name": "ownerWithdraw",
					"outputs": [],
					"stateMutability": "nonpayable",
					"type": "function"
				},
				{
					"inputs": [],
					"name": "renounceOwnership",
					"outputs": [],
					"stateMutability": "nonpayable",
					"type": "function"
				},
				{
					"inputs": [],
					"name": "totalAllowances",
					"outputs": [
						{
							"internalType": "uint256",
							"name": "",
							"type": "uint256"
						}
					],
					"stateMutability": "view",
					"type": "function"
				},
				{
					"inputs": [],
					"name": "totalClaims",
					"outputs": [
						{
							"internalType": "uint256",
							"name": "",
							"type": "uint256"
						}
					],
					"stateMutability": "view",
					"type": "function"
				},
				{
					"inputs": [
						{
							"internalType": "address",
							"name": "newOwner",
							"type": "address"
						}
					],
					"name": "transferOwnership",
					"outputs": [],
					"stateMutability": "nonpayable",
					"type": "function"
				},
				{
					"stateMutability": "payable",
					"type": "receive"
				}
			],
			"devdoc": {
				"kind": "dev",
				"methods": {
					"owner()": {
						"details": "Returns the address of the current owner."
					},
					"renounceOwnership()": {
						"details": "Leaves the contract without owner. It will not be possible to call `onlyOwner` functions anymore. Can only be called by the current owner. NOTE: Renouncing ownership will leave the contract without an owner, thereby removing any functionality that is only available to the owner."
					},
					"transferOwnership(address)": {
						"details": "Transfers ownership of the contract to a new account (`newOwner`). Can only be called by the current owner."
					}
				},
				"version": 1
			},
			"evm": {
				"assembly": "    /* \"MyProjectSharedWallet.sol\":262:3402  contract SharedWallet is Ownable {... */\n  mstore(0x40, 0x80)\n  callvalue\n  dup1\n  iszero\n  tag_1\n  jumpi\n  0x00\n  dup1\n  revert\ntag_1:\n  pop\n    /* \"https://github.com/OpenZeppelin/openzeppelin-contracts/blob/master/contracts/access/Ownable.sol\":936:968  _transferOwnership(_msgSender()) */\n  tag_4\n    /* \"https://github.com/OpenZeppelin/openzeppelin-contracts/blob/master/contracts/access/Ownable.sol\":955:967  _msgSender() */\n  tag_5\n    /* \"https://github.com/OpenZeppelin/openzeppelin-contracts/blob/master/contracts/access/Ownable.sol\":955:965  _msgSender */\n  shl(0x20, tag_6)\n    /* \"https://github.com/OpenZeppelin/openzeppelin-contracts/blob/master/contracts/access/Ownable.sol\":955:967  _msgSender() */\n  0x20\n  shr\n  jump\t// in\ntag_5:\n    /* \"https://github.com/OpenZeppelin/openzeppelin-contracts/blob/master/contracts/access/Ownable.sol\":936:954  _transferOwnership */\n  shl(0x20, tag_7)\n    /* \"https://github.com/OpenZeppelin/openzeppelin-contracts/blob/master/contracts/access/Ownable.sol\":936:968  _transferOwnership(_msgSender()) */\n  0x20\n  shr\n  jump\t// in\ntag_4:\n    /* \"MyProjectSharedWallet.sol\":262:3402  contract SharedWallet is Ownable {... */\n  jump(tag_8)\n    /* \"https://github.com/OpenZeppelin/openzeppelin-contracts/blob/master/contracts/utils/Context.sol\":640:736  function _msgSender() internal view virtual returns (address) {... */\ntag_6:\n    /* \"https://github.com/OpenZeppelin/openzeppelin-contracts/blob/master/contracts/utils/Context.sol\":693:700  address */\n  0x00\n    /* \"https://github.com/OpenZeppelin/openzeppelin-contracts/blob/master/contracts/utils/Context.sol\":719:729  msg.sender */\n  caller\n    /* \"https://github.com/OpenZeppelin/openzeppelin-contracts/blob/master/contracts/utils/Context.sol\":712:729  return msg.sender */\n  swap1\n  pop\n    /* \"https://github.com/OpenZeppelin/openzeppelin-contracts/blob/master/contracts/utils/Context.sol\":640:736  function _msgSender() internal view virtual returns (address) {... */\n  swap1\n  jump\t// out\n    /* \"https://github.com/OpenZeppelin/openzeppelin-contracts/blob/master/contracts/access/Ownable.sol\":2433:2620  function _transferOwnership(address newOwner) internal virtual {... */\ntag_7:\n    /* \"https://github.com/OpenZeppelin/openzeppelin-contracts/blob/master/contracts/access/Ownable.sol\":2506:2522  address oldOwner */\n  0x00\n    /* \"https://github.com/OpenZeppelin/openzeppelin-contracts/blob/master/contracts/access/Ownable.sol\":2525:2531  _owner */\n  dup1\n  0x00\n  swap1\n  sload\n  swap1\n  0x0100\n  exp\n  swap1\n  div\n  0xffffffffffffffffffffffffffffffffffffffff\n  and\n    /* \"https://github.com/OpenZeppelin/openzeppelin-contracts/blob/master/contracts/access/Ownable.sol\":2506:2531  address oldOwner = _owner */\n  swap1\n  pop\n    /* \"https://github.com/OpenZeppelin/openzeppelin-contracts/blob/master/contracts/access/Ownable.sol\":2550:2558  newOwner */\n  dup2\n    /* \"https://github.com/OpenZeppelin/openzeppelin-contracts/blob/master/contracts/access/Ownable.sol\":2541:2547  _owner */\n  0x00\n  dup1\n    /* \"https://github.com/OpenZeppelin/openzeppelin-contracts/blob/master/contracts/access/Ownable.sol\":2541:2558  _owner = newOwner */\n  0x0100\n  exp\n  dup2\n  sload\n  dup2\n  0xffffffffffffffffffffffffffffffffffffffff\n  mul\n  not\n  and\n  swap1\n  dup4\n  0xffffffffffffffffffffffffffffffffffffffff\n  and\n  mul\n  or\n  swap1\n  sstore\n  pop\n    /* \"https://github.com/OpenZeppelin/openzeppelin-contracts/blob/master/contracts/access/Ownable.sol\":2604:2612  newOwner */\n  dup2\n    /* \"https://github.com/OpenZeppelin/openzeppelin-contracts/blob/master/contracts/access/Ownable.sol\":2573:2613  OwnershipTransferred(oldOwner, newOwner) */\n  0xffffffffffffffffffffffffffffffffffffffff\n  and\n    /* \"https://github.com/OpenZeppelin/openzeppelin-contracts/blob/master/contracts/access/Ownable.sol\":2594:2602  oldOwner */\n  dup2\n    /* \"https://github.com/OpenZeppelin/openzeppelin-contracts/blob/master/contracts/access/Ownable.sol\":2573:2613  OwnershipTransferred(oldOwner, newOwner) */\n  0xffffffffffffffffffffffffffffffffffffffff\n  and\n  0x8be0079c531659141344cd1fd0a4f28419497f9722a3daafe3b4186f6b6457e0\n  mload(0x40)\n  mload(0x40)\n  dup1\n  swap2\n  sub\n  swap1\n  log3\n    /* \"https://github.com/OpenZeppelin/openzeppelin-contracts/blob/master/contracts/access/Ownable.sol\":2496:2620  {... */\n  pop\n    /* \"https://github.com/OpenZeppelin/openzeppelin-contracts/blob/master/contracts/access/Ownable.sol\":2433:2620  function _transferOwnership(address newOwner) internal virtual {... */\n  pop\n  jump\t// out\n    /* \"MyProjectSharedWallet.sol\":262:3402  contract SharedWallet is Ownable {... */\ntag_8:\n  dataSize(sub_0)\n  dup1\n  dataOffset(sub_0)\n  0x00\n  codecopy\n  0x00\n  return\nstop\n\nsub_0: assembly {\n        /* \"MyProjectSharedWallet.sol\":262:3402  contract SharedWallet is Ownable {... */\n      mstore(0x40, 0x80)\n      jumpi(tag_1, lt(calldatasize, 0x04))\n      shr(0xe0, calldataload(0x00))\n      dup1\n      0x41c61383\n      gt\n      tag_14\n      jumpi\n      dup1\n      0x41c61383\n      eq\n      tag_8\n      jumpi\n      dup1\n      0x715018a6\n      eq\n      tag_9\n      jumpi\n      dup1\n      0x8b7afe2e\n      eq\n      tag_10\n      jumpi\n      dup1\n      0x8da5cb5b\n      eq\n      tag_11\n      jumpi\n      dup1\n      0xd9c88e14\n      eq\n      tag_12\n      jumpi\n      dup1\n      0xf2fde38b\n      eq\n      tag_13\n      jumpi\n      jump(tag_2)\n    tag_14:\n      dup1\n      0x01567739\n      eq\n      tag_3\n      jumpi\n      dup1\n      0x05737314\n      eq\n      tag_4\n      jumpi\n      dup1\n      0x16a51305\n      eq\n      tag_5\n      jumpi\n      dup1\n      0x2d70db2f\n      eq\n      tag_6\n      jumpi\n      dup1\n      0x3e7279a3\n      eq\n      tag_7\n      jumpi\n      jump(tag_2)\n    tag_1:\n      jumpi(tag_2, calldatasize)\n        /* \"MyProjectSharedWallet.sol\":1271:1282  SendMoney() */\n      tag_17\n        /* \"MyProjectSharedWallet.sol\":1271:1280  SendMoney */\n      tag_18\n        /* \"MyProjectSharedWallet.sol\":1271:1282  SendMoney() */\n      jump\t// in\n    tag_17:\n        /* \"MyProjectSharedWallet.sol\":262:3402  contract SharedWallet is Ownable {... */\n      stop\n    tag_2:\n      0x00\n      dup1\n      revert\n        /* \"MyProjectSharedWallet.sol\":570:629  mapping(address => BeneficiaryDetails) public beneficiaries */\n    tag_3:\n      callvalue\n      dup1\n      iszero\n      tag_19\n      jumpi\n      0x00\n      dup1\n      revert\n    tag_19:\n      pop\n      tag_20\n      0x04\n      dup1\n      calldatasize\n      sub\n      dup2\n      add\n      swap1\n      tag_21\n      swap2\n      swap1\n      tag_22\n      jump\t// in\n    tag_21:\n      tag_23\n      jump\t// in\n    tag_20:\n      mload(0x40)\n      tag_24\n      swap3\n      swap2\n      swap1\n      tag_25\n      jump\t// in\n    tag_24:\n      mload(0x40)\n      dup1\n      swap2\n      sub\n      swap1\n      return\n        /* \"MyProjectSharedWallet.sol\":1327:1419  function SendMoney() public payable {... */\n    tag_4:\n      tag_26\n      tag_18\n      jump\t// in\n    tag_26:\n      stop\n        /* \"MyProjectSharedWallet.sol\":676:703  uint public totalAllowances */\n    tag_5:\n      callvalue\n      dup1\n      iszero\n      tag_27\n      jumpi\n      0x00\n      dup1\n      revert\n    tag_27:\n      pop\n      tag_28\n      tag_29\n      jump\t// in\n    tag_28:\n      mload(0x40)\n      tag_30\n      swap2\n      swap1\n      tag_31\n      jump\t// in\n    tag_30:\n      mload(0x40)\n      dup1\n      swap2\n      sub\n      swap1\n      return\n        /* \"MyProjectSharedWallet.sol\":1517:2427  function ClaimMoney(address payable _to, uint _amount) public {... */\n    tag_6:\n      callvalue\n      dup1\n      iszero\n      tag_32\n      jumpi\n      0x00\n      dup1\n      revert\n    tag_32:\n      pop\n      tag_33\n      0x04\n      dup1\n      calldatasize\n      sub\n      dup2\n      add\n      swap1\n      tag_34\n      swap2\n      swap1\n      tag_35\n      jump\t// in\n    tag_34:\n      tag_36\n      jump\t// in\n    tag_33:\n      stop\n        /* \"MyProjectSharedWallet.sol\":2477:2986  function SetAllowance(address _beneficiary, uint _allowancePercentage) public onlyOwner {... */\n    tag_7:\n      callvalue\n      dup1\n      iszero\n      tag_37\n      jumpi\n      0x00\n      dup1\n      revert\n    tag_37:\n      pop\n      tag_38\n      0x04\n      dup1\n      calldatasize\n      sub\n      dup2\n      add\n      swap1\n      tag_39\n      swap2\n      swap1\n      tag_40\n      jump\t// in\n    tag_39:\n      tag_41\n      jump\t// in\n    tag_38:\n      stop\n        /* \"MyProjectSharedWallet.sol\":748:771  uint public totalClaims */\n    tag_8:\n      callvalue\n      dup1\n      iszero\n      tag_42\n      jumpi\n      0x00\n      dup1\n      revert\n    tag_42:\n      pop\n      tag_43\n      tag_44\n      jump\t// in\n    tag_43:\n      mload(0x40)\n      tag_45\n      swap2\n      swap1\n      tag_31\n      jump\t// in\n    tag_45:\n      mload(0x40)\n      dup1\n      swap2\n      sub\n      swap1\n      return\n        /* \"https://github.com/OpenZeppelin/openzeppelin-contracts/blob/master/contracts/access/Ownable.sol\":1831:1932  function renounceOwnership() public virtual onlyOwner {... */\n    tag_9:\n      callvalue\n      dup1\n      iszero\n      tag_46\n      jumpi\n      0x00\n      dup1\n      revert\n    tag_46:\n      pop\n      tag_47\n      tag_48\n      jump\t// in\n    tag_47:\n      stop\n        /* \"MyProjectSharedWallet.sol\":808:835  uint public contractBalance */\n    tag_10:\n      callvalue\n      dup1\n      iszero\n      tag_49\n      jumpi\n      0x00\n      dup1\n      revert\n    tag_49:\n      pop\n      tag_50\n      tag_51\n      jump\t// in\n    tag_50:\n      mload(0x40)\n      tag_52\n      swap2\n      swap1\n      tag_31\n      jump\t// in\n    tag_52:\n      mload(0x40)\n      dup1\n      swap2\n      sub\n      swap1\n      return\n        /* \"https://github.com/OpenZeppelin/openzeppelin-contracts/blob/master/contracts/access/Ownable.sol\":1201:1286  function owner() public view virtual returns (address) {... */\n    tag_11:\n      callvalue\n      dup1\n      iszero\n      tag_53\n      jumpi\n      0x00\n      dup1\n      revert\n    tag_53:\n      pop\n      tag_54\n      tag_55\n      jump\t// in\n    tag_54:\n      mload(0x40)\n      tag_56\n      swap2\n      swap1\n      tag_57\n      jump\t// in\n    tag_56:\n      mload(0x40)\n      dup1\n      swap2\n      sub\n      swap1\n      return\n        /* \"MyProjectSharedWallet.sol\":3037:3301  function ownerWithdraw(address payable _to, uint _amount) public onlyOwner {... */\n    tag_12:\n      callvalue\n      dup1\n      iszero\n      tag_58\n      jumpi\n      0x00\n      dup1\n      revert\n    tag_58:\n      pop\n      tag_59\n      0x04\n      dup1\n      calldatasize\n      sub\n      dup2\n      add\n      swap1\n      tag_60\n      swap2\n      swap1\n      tag_35\n      jump\t// in\n    tag_60:\n      tag_61\n      jump\t// in\n    tag_59:\n      stop\n        /* \"https://github.com/OpenZeppelin/openzeppelin-contracts/blob/master/contracts/access/Ownable.sol\":2081:2279  function transferOwnership(address newOwner) public virtual onlyOwner {... */\n    tag_13:\n      callvalue\n      dup1\n      iszero\n      tag_62\n      jumpi\n      0x00\n      dup1\n      revert\n    tag_62:\n      pop\n      tag_63\n      0x04\n      dup1\n      calldatasize\n      sub\n      dup2\n      add\n      swap1\n      tag_64\n      swap2\n      swap1\n      tag_22\n      jump\t// in\n    tag_64:\n      tag_65\n      jump\t// in\n    tag_63:\n      stop\n        /* \"MyProjectSharedWallet.sol\":1327:1419  function SendMoney() public payable {... */\n    tag_18:\n        /* \"MyProjectSharedWallet.sol\":1391:1412  address(this).balance */\n      selfbalance\n        /* \"MyProjectSharedWallet.sol\":1373:1388  contractBalance */\n      0x04\n        /* \"MyProjectSharedWallet.sol\":1373:1412  contractBalance = address(this).balance */\n      dup2\n      swap1\n      sstore\n      pop\n        /* \"MyProjectSharedWallet.sol\":1327:1419  function SendMoney() public payable {... */\n      jump\t// out\n        /* \"MyProjectSharedWallet.sol\":570:629  mapping(address => BeneficiaryDetails) public beneficiaries */\n    tag_23:\n      mstore(0x20, 0x01)\n      dup1\n      0x00\n      mstore\n      keccak256(0x00, 0x40)\n      0x00\n      swap2\n      pop\n      swap1\n      pop\n      dup1\n      0x00\n      add\n      sload\n      swap1\n      dup1\n      0x01\n      add\n      sload\n      swap1\n      pop\n      dup3\n      jump\t// out\n        /* \"MyProjectSharedWallet.sol\":676:703  uint public totalAllowances */\n    tag_29:\n      sload(0x02)\n      dup2\n      jump\t// out\n        /* \"MyProjectSharedWallet.sol\":1517:2427  function ClaimMoney(address payable _to, uint _amount) public {... */\n    tag_36:\n        /* \"MyProjectSharedWallet.sol\":1598:1607  isOwner() */\n      tag_68\n        /* \"MyProjectSharedWallet.sol\":1598:1605  isOwner */\n      tag_69\n        /* \"MyProjectSharedWallet.sol\":1598:1607  isOwner() */\n      jump\t// in\n    tag_68:\n        /* \"MyProjectSharedWallet.sol\":1597:1607  !isOwner() */\n      iszero\n        /* \"MyProjectSharedWallet.sol\":1589:1655  require(!isOwner(), \"The owner should use ownerWithdraw function\") */\n      tag_70\n      jumpi\n      mload(0x40)\n      0x08c379a000000000000000000000000000000000000000000000000000000000\n      dup2\n      mstore\n      0x04\n      add\n      tag_71\n      swap1\n      tag_72\n      jump\t// in\n    tag_71:\n      mload(0x40)\n      dup1\n      swap2\n      sub\n      swap1\n      revert\n    tag_70:\n        /* \"MyProjectSharedWallet.sol\":1697:1698  0 */\n      0x00\n        /* \"MyProjectSharedWallet.sol\":1673:1694  address(this).balance */\n      selfbalance\n        /* \"MyProjectSharedWallet.sol\":1673:1698  address(this).balance > 0 */\n      gt\n        /* \"MyProjectSharedWallet.sol\":1665:1743  require(address(this).balance > 0, \"There is no money in the wallet to claim\") */\n      tag_73\n      jumpi\n      mload(0x40)\n      0x08c379a000000000000000000000000000000000000000000000000000000000\n      dup2\n      mstore\n      0x04\n      add\n      tag_74\n      swap1\n      tag_75\n      jump\t// in\n    tag_74:\n      mload(0x40)\n      dup1\n      swap2\n      sub\n      swap1\n      revert\n    tag_73:\n        /* \"MyProjectSharedWallet.sol\":1799:1800  0 */\n      0x00\n        /* \"MyProjectSharedWallet.sol\":1761:1774  beneficiaries */\n      0x01\n        /* \"MyProjectSharedWallet.sol\":1761:1786  beneficiaries[msg.sender] */\n      0x00\n        /* \"MyProjectSharedWallet.sol\":1775:1785  msg.sender */\n      caller\n        /* \"MyProjectSharedWallet.sol\":1761:1786  beneficiaries[msg.sender] */\n      0xffffffffffffffffffffffffffffffffffffffff\n      and\n      0xffffffffffffffffffffffffffffffffffffffff\n      and\n      dup2\n      mstore\n      0x20\n      add\n      swap1\n      dup2\n      mstore\n      0x20\n      add\n      0x00\n      keccak256\n        /* \"MyProjectSharedWallet.sol\":1761:1796  beneficiaries[msg.sender].allowance */\n      0x00\n      add\n      sload\n        /* \"MyProjectSharedWallet.sol\":1761:1800  beneficiaries[msg.sender].allowance > 0 */\n      gt\n        /* \"MyProjectSharedWallet.sol\":1753:1833  require(beneficiaries[msg.sender].allowance > 0,\"You do not have any allowance\") */\n      tag_76\n      jumpi\n      mload(0x40)\n      0x08c379a000000000000000000000000000000000000000000000000000000000\n      dup2\n      mstore\n      0x04\n      add\n      tag_77\n      swap1\n      tag_78\n      jump\t// in\n    tag_77:\n      mload(0x40)\n      dup1\n      swap2\n      sub\n      swap1\n      revert\n    tag_76:\n        /* \"MyProjectSharedWallet.sol\":1843:1861  uint fullAllowance */\n      0x00\n        /* \"MyProjectSharedWallet.sol\":1940:1943  100 */\n      0x64\n        /* \"MyProjectSharedWallet.sol\":1927:1938  totalClaims */\n      sload(0x03)\n        /* \"MyProjectSharedWallet.sol\":1903:1924  address(this).balance */\n      selfbalance\n        /* \"MyProjectSharedWallet.sol\":1903:1938  address(this).balance + totalClaims */\n      tag_79\n      swap2\n      swap1\n      tag_80\n      jump\t// in\n    tag_79:\n        /* \"MyProjectSharedWallet.sol\":1864:1877  beneficiaries */\n      0x01\n        /* \"MyProjectSharedWallet.sol\":1864:1889  beneficiaries[msg.sender] */\n      0x00\n        /* \"MyProjectSharedWallet.sol\":1878:1888  msg.sender */\n      caller\n        /* \"MyProjectSharedWallet.sol\":1864:1889  beneficiaries[msg.sender] */\n      0xffffffffffffffffffffffffffffffffffffffff\n      and\n      0xffffffffffffffffffffffffffffffffffffffff\n      and\n      dup2\n      mstore\n      0x20\n      add\n      swap1\n      dup2\n      mstore\n      0x20\n      add\n      0x00\n      keccak256\n        /* \"MyProjectSharedWallet.sol\":1864:1899  beneficiaries[msg.sender].allowance */\n      0x00\n      add\n      sload\n        /* \"MyProjectSharedWallet.sol\":1864:1939  beneficiaries[msg.sender].allowance * (address(this).balance + totalClaims) */\n      tag_81\n      swap2\n      swap1\n      tag_82\n      jump\t// in\n    tag_81:\n        /* \"MyProjectSharedWallet.sol\":1864:1943  beneficiaries[msg.sender].allowance * (address(this).balance + totalClaims)/100 */\n      tag_83\n      swap2\n      swap1\n      tag_84\n      jump\t// in\n    tag_83:\n        /* \"MyProjectSharedWallet.sol\":1843:1943  uint fullAllowance = beneficiaries[msg.sender].allowance * (address(this).balance + totalClaims)/100 */\n      swap1\n      pop\n        /* \"MyProjectSharedWallet.sol\":1953:1976  uint allowanceRemaining */\n      0x00\n        /* \"MyProjectSharedWallet.sol\":2032:2045  beneficiaries */\n      0x01\n        /* \"MyProjectSharedWallet.sol\":2032:2057  beneficiaries[msg.sender] */\n      0x00\n        /* \"MyProjectSharedWallet.sol\":2046:2056  msg.sender */\n      caller\n        /* \"MyProjectSharedWallet.sol\":2032:2057  beneficiaries[msg.sender] */\n      0xffffffffffffffffffffffffffffffffffffffff\n      and\n      0xffffffffffffffffffffffffffffffffffffffff\n      and\n      dup2\n      mstore\n      0x20\n      add\n      swap1\n      dup2\n      mstore\n      0x20\n      add\n      0x00\n      keccak256\n        /* \"MyProjectSharedWallet.sol\":2032:2068  beneficiaries[msg.sender].claimsMade */\n      0x01\n      add\n      sload\n        /* \"MyProjectSharedWallet.sol\":2016:2029  fullAllowance */\n      dup3\n        /* \"MyProjectSharedWallet.sol\":2016:2068  fullAllowance > beneficiaries[msg.sender].claimsMade */\n      gt\n        /* \"MyProjectSharedWallet.sol\":2012:2168  if (fullAllowance > beneficiaries[msg.sender].claimsMade) {... */\n      iszero\n      tag_85\n      jumpi\n        /* \"MyProjectSharedWallet.sol\":2121:2134  beneficiaries */\n      0x01\n        /* \"MyProjectSharedWallet.sol\":2121:2146  beneficiaries[msg.sender] */\n      0x00\n        /* \"MyProjectSharedWallet.sol\":2135:2145  msg.sender */\n      caller\n        /* \"MyProjectSharedWallet.sol\":2121:2146  beneficiaries[msg.sender] */\n      0xffffffffffffffffffffffffffffffffffffffff\n      and\n      0xffffffffffffffffffffffffffffffffffffffff\n      and\n      dup2\n      mstore\n      0x20\n      add\n      swap1\n      dup2\n      mstore\n      0x20\n      add\n      0x00\n      keccak256\n        /* \"MyProjectSharedWallet.sol\":2121:2157  beneficiaries[msg.sender].claimsMade */\n      0x01\n      add\n      sload\n        /* \"MyProjectSharedWallet.sol\":2105:2118  fullAllowance */\n      dup3\n        /* \"MyProjectSharedWallet.sol\":2105:2157  fullAllowance - beneficiaries[msg.sender].claimsMade */\n      tag_86\n      swap2\n      swap1\n      tag_87\n      jump\t// in\n    tag_86:\n        /* \"MyProjectSharedWallet.sol\":2084:2157  allowanceRemaining = fullAllowance - beneficiaries[msg.sender].claimsMade */\n      swap1\n      pop\n        /* \"MyProjectSharedWallet.sol\":2012:2168  if (fullAllowance > beneficiaries[msg.sender].claimsMade) {... */\n    tag_85:\n        /* \"MyProjectSharedWallet.sol\":2196:2214  allowanceRemaining */\n      dup1\n        /* \"MyProjectSharedWallet.sol\":2185:2192  _amount */\n      dup4\n        /* \"MyProjectSharedWallet.sol\":2185:2214  _amount <= allowanceRemaining */\n      gt\n      iszero\n        /* \"MyProjectSharedWallet.sol\":2177:2241  require(_amount <= allowanceRemaining, \"The amount is too high\") */\n      tag_88\n      jumpi\n      mload(0x40)\n      0x08c379a000000000000000000000000000000000000000000000000000000000\n      dup2\n      mstore\n      0x04\n      add\n      tag_89\n      swap1\n      tag_90\n      jump\t// in\n    tag_89:\n      mload(0x40)\n      dup1\n      swap2\n      sub\n      swap1\n      revert\n    tag_88:\n        /* \"MyProjectSharedWallet.sol\":2291:2298  _amount */\n      dup3\n        /* \"MyProjectSharedWallet.sol\":2251:2264  beneficiaries */\n      0x01\n        /* \"MyProjectSharedWallet.sol\":2251:2276  beneficiaries[msg.sender] */\n      0x00\n        /* \"MyProjectSharedWallet.sol\":2265:2275  msg.sender */\n      caller\n        /* \"MyProjectSharedWallet.sol\":2251:2276  beneficiaries[msg.sender] */\n      0xffffffffffffffffffffffffffffffffffffffff\n      and\n      0xffffffffffffffffffffffffffffffffffffffff\n      and\n      dup2\n      mstore\n      0x20\n      add\n      swap1\n      dup2\n      mstore\n      0x20\n      add\n      0x00\n      keccak256\n        /* \"MyProjectSharedWallet.sol\":2251:2287  beneficiaries[msg.sender].claimsMade */\n      0x01\n      add\n      0x00\n        /* \"MyProjectSharedWallet.sol\":2251:2298  beneficiaries[msg.sender].claimsMade += _amount */\n      dup3\n      dup3\n      sload\n      tag_91\n      swap2\n      swap1\n      tag_80\n      jump\t// in\n    tag_91:\n      swap3\n      pop\n      pop\n      dup2\n      swap1\n      sstore\n      pop\n        /* \"MyProjectSharedWallet.sol\":2323:2330  _amount */\n      dup3\n        /* \"MyProjectSharedWallet.sol\":2308:2319  totalClaims */\n      0x03\n      0x00\n        /* \"MyProjectSharedWallet.sol\":2308:2330  totalClaims += _amount */\n      dup3\n      dup3\n      sload\n      tag_92\n      swap2\n      swap1\n      tag_80\n      jump\t// in\n    tag_92:\n      swap3\n      pop\n      pop\n      dup2\n      swap1\n      sstore\n      pop\n        /* \"MyProjectSharedWallet.sol\":2382:2389  _amount */\n      dup3\n        /* \"MyProjectSharedWallet.sol\":2358:2379  address(this).balance */\n      selfbalance\n        /* \"MyProjectSharedWallet.sol\":2358:2389  address(this).balance - _amount */\n      tag_93\n      swap2\n      swap1\n      tag_87\n      jump\t// in\n    tag_93:\n        /* \"MyProjectSharedWallet.sol\":2340:2355  contractBalance */\n      0x04\n        /* \"MyProjectSharedWallet.sol\":2340:2389  contractBalance = address(this).balance - _amount */\n      dup2\n      swap1\n      sstore\n      pop\n        /* \"MyProjectSharedWallet.sol\":2399:2402  _to */\n      dup4\n        /* \"MyProjectSharedWallet.sol\":2399:2411  _to.transfer */\n      0xffffffffffffffffffffffffffffffffffffffff\n      and\n        /* \"MyProjectSharedWallet.sol\":2399:2420  _to.transfer(_amount) */\n      0x08fc\n        /* \"MyProjectSharedWallet.sol\":2412:2419  _amount */\n      dup5\n        /* \"MyProjectSharedWallet.sol\":2399:2420  _to.transfer(_amount) */\n      swap1\n      dup2\n      iszero\n      mul\n      swap1\n      mload(0x40)\n      0x00\n      mload(0x40)\n      dup1\n      dup4\n      sub\n      dup2\n      dup6\n      dup9\n      dup9\n      call\n      swap4\n      pop\n      pop\n      pop\n      pop\n      iszero\n      dup1\n      iszero\n      tag_95\n      jumpi\n      returndatasize\n      0x00\n      dup1\n      returndatacopy\n      revert(0x00, returndatasize)\n    tag_95:\n      pop\n        /* \"MyProjectSharedWallet.sol\":1579:2427  {... */\n      pop\n      pop\n        /* \"MyProjectSharedWallet.sol\":1517:2427  function ClaimMoney(address payable _to, uint _amount) public {... */\n      pop\n      pop\n      jump\t// out\n        /* \"MyProjectSharedWallet.sol\":2477:2986  function SetAllowance(address _beneficiary, uint _allowancePercentage) public onlyOwner {... */\n    tag_41:\n        /* \"https://github.com/OpenZeppelin/openzeppelin-contracts/blob/master/contracts/access/Ownable.sol\":1094:1107  _checkOwner() */\n      tag_97\n        /* \"https://github.com/OpenZeppelin/openzeppelin-contracts/blob/master/contracts/access/Ownable.sol\":1094:1105  _checkOwner */\n      tag_98\n        /* \"https://github.com/OpenZeppelin/openzeppelin-contracts/blob/master/contracts/access/Ownable.sol\":1094:1107  _checkOwner() */\n      jump\t// in\n    tag_97:\n        /* \"MyProjectSharedWallet.sol\":2599:2606  owner() */\n      tag_100\n        /* \"MyProjectSharedWallet.sol\":2599:2604  owner */\n      tag_55\n        /* \"MyProjectSharedWallet.sol\":2599:2606  owner() */\n      jump\t// in\n    tag_100:\n        /* \"MyProjectSharedWallet.sol\":2583:2606  _beneficiary != owner() */\n      0xffffffffffffffffffffffffffffffffffffffff\n      and\n        /* \"MyProjectSharedWallet.sol\":2583:2595  _beneficiary */\n      dup3\n        /* \"MyProjectSharedWallet.sol\":2583:2606  _beneficiary != owner() */\n      0xffffffffffffffffffffffffffffffffffffffff\n      and\n      eq\n      iszero\n        /* \"MyProjectSharedWallet.sol\":2575:2653  require(_beneficiary != owner(), \"An allowance is not required for the owner\") */\n      tag_101\n      jumpi\n      mload(0x40)\n      0x08c379a000000000000000000000000000000000000000000000000000000000\n      dup2\n      mstore\n      0x04\n      add\n      tag_102\n      swap1\n      tag_103\n      jump\t// in\n    tag_102:\n      mload(0x40)\n      dup1\n      swap2\n      sub\n      swap1\n      revert\n    tag_101:\n        /* \"MyProjectSharedWallet.sol\":2712:2713  0 */\n      0x00\n        /* \"MyProjectSharedWallet.sol\":2671:2684  beneficiaries */\n      0x01\n        /* \"MyProjectSharedWallet.sol\":2671:2698  beneficiaries[_beneficiary] */\n      0x00\n        /* \"MyProjectSharedWallet.sol\":2685:2697  _beneficiary */\n      dup5\n        /* \"MyProjectSharedWallet.sol\":2671:2698  beneficiaries[_beneficiary] */\n      0xffffffffffffffffffffffffffffffffffffffff\n      and\n      0xffffffffffffffffffffffffffffffffffffffff\n      and\n      dup2\n      mstore\n      0x20\n      add\n      swap1\n      dup2\n      mstore\n      0x20\n      add\n      0x00\n      keccak256\n        /* \"MyProjectSharedWallet.sol\":2671:2708  beneficiaries[_beneficiary].allowance */\n      0x00\n      add\n      sload\n        /* \"MyProjectSharedWallet.sol\":2671:2713  beneficiaries[_beneficiary].allowance == 0 */\n      eq\n        /* \"MyProjectSharedWallet.sol\":2663:2754  require(beneficiaries[_beneficiary].allowance == 0, \"The address already has an allowance\") */\n      tag_104\n      jumpi\n      mload(0x40)\n      0x08c379a000000000000000000000000000000000000000000000000000000000\n      dup2\n      mstore\n      0x04\n      add\n      tag_105\n      swap1\n      tag_106\n      jump\t// in\n    tag_105:\n      mload(0x40)\n      dup1\n      swap2\n      sub\n      swap1\n      revert\n    tag_104:\n        /* \"MyProjectSharedWallet.sol\":2814:2817  100 */\n      0x64\n        /* \"MyProjectSharedWallet.sol\":2790:2810  _allowancePercentage */\n      dup2\n        /* \"MyProjectSharedWallet.sol\":2772:2787  totalAllowances */\n      sload(0x02)\n        /* \"MyProjectSharedWallet.sol\":2772:2810  totalAllowances + _allowancePercentage */\n      tag_107\n      swap2\n      swap1\n      tag_80\n      jump\t// in\n    tag_107:\n        /* \"MyProjectSharedWallet.sol\":2772:2817  totalAllowances + _allowancePercentage <= 100 */\n      gt\n      iszero\n        /* \"MyProjectSharedWallet.sol\":2764:2860  require(totalAllowances + _allowancePercentage <= 100,\"This would over-allocate the allowances\") */\n      tag_108\n      jumpi\n      mload(0x40)\n      0x08c379a000000000000000000000000000000000000000000000000000000000\n      dup2\n      mstore\n      0x04\n      add\n      tag_109\n      swap1\n      tag_110\n      jump\t// in\n    tag_109:\n      mload(0x40)\n      dup1\n      swap2\n      sub\n      swap1\n      revert\n    tag_108:\n        /* \"MyProjectSharedWallet.sol\":2910:2930  _allowancePercentage */\n      dup1\n        /* \"MyProjectSharedWallet.sol\":2870:2883  beneficiaries */\n      0x01\n        /* \"MyProjectSharedWallet.sol\":2870:2897  beneficiaries[_beneficiary] */\n      0x00\n        /* \"MyProjectSharedWallet.sol\":2884:2896  _beneficiary */\n      dup5\n        /* \"MyProjectSharedWallet.sol\":2870:2897  beneficiaries[_beneficiary] */\n      0xffffffffffffffffffffffffffffffffffffffff\n      and\n      0xffffffffffffffffffffffffffffffffffffffff\n      and\n      dup2\n      mstore\n      0x20\n      add\n      swap1\n      dup2\n      mstore\n      0x20\n      add\n      0x00\n      keccak256\n        /* \"MyProjectSharedWallet.sol\":2870:2907  beneficiaries[_beneficiary].allowance */\n      0x00\n      add\n        /* \"MyProjectSharedWallet.sol\":2870:2930  beneficiaries[_beneficiary].allowance = _allowancePercentage */\n      dup2\n      swap1\n      sstore\n      pop\n        /* \"MyProjectSharedWallet.sol\":2959:2979  _allowancePercentage */\n      dup1\n        /* \"MyProjectSharedWallet.sol\":2940:2955  totalAllowances */\n      0x02\n      0x00\n        /* \"MyProjectSharedWallet.sol\":2940:2979  totalAllowances += _allowancePercentage */\n      dup3\n      dup3\n      sload\n      tag_111\n      swap2\n      swap1\n      tag_80\n      jump\t// in\n    tag_111:\n      swap3\n      pop\n      pop\n      dup2\n      swap1\n      sstore\n      pop\n        /* \"MyProjectSharedWallet.sol\":2477:2986  function SetAllowance(address _beneficiary, uint _allowancePercentage) public onlyOwner {... */\n      pop\n      pop\n      jump\t// out\n        /* \"MyProjectSharedWallet.sol\":748:771  uint public totalClaims */\n    tag_44:\n      sload(0x03)\n      dup2\n      jump\t// out\n        /* \"https://github.com/OpenZeppelin/openzeppelin-contracts/blob/master/contracts/access/Ownable.sol\":1831:1932  function renounceOwnership() public virtual onlyOwner {... */\n    tag_48:\n        /* \"https://github.com/OpenZeppelin/openzeppelin-contracts/blob/master/contracts/access/Ownable.sol\":1094:1107  _checkOwner() */\n      tag_113\n        /* \"https://github.com/OpenZeppelin/openzeppelin-contracts/blob/master/contracts/access/Ownable.sol\":1094:1105  _checkOwner */\n      tag_98\n        /* \"https://github.com/OpenZeppelin/openzeppelin-contracts/blob/master/contracts/access/Ownable.sol\":1094:1107  _checkOwner() */\n      jump\t// in\n    tag_113:\n        /* \"https://github.com/OpenZeppelin/openzeppelin-contracts/blob/master/contracts/access/Ownable.sol\":1895:1925  _transferOwnership(address(0)) */\n      tag_115\n        /* \"https://github.com/OpenZeppelin/openzeppelin-contracts/blob/master/contracts/access/Ownable.sol\":1922:1923  0 */\n      0x00\n        /* \"https://github.com/OpenZeppelin/openzeppelin-contracts/blob/master/contracts/access/Ownable.sol\":1895:1913  _transferOwnership */\n      tag_116\n        /* \"https://github.com/OpenZeppelin/openzeppelin-contracts/blob/master/contracts/access/Ownable.sol\":1895:1925  _transferOwnership(address(0)) */\n      jump\t// in\n    tag_115:\n        /* \"https://github.com/OpenZeppelin/openzeppelin-contracts/blob/master/contracts/access/Ownable.sol\":1831:1932  function renounceOwnership() public virtual onlyOwner {... */\n      jump\t// out\n        /* \"MyProjectSharedWallet.sol\":808:835  uint public contractBalance */\n    tag_51:\n      sload(0x04)\n      dup2\n      jump\t// out\n        /* \"https://github.com/OpenZeppelin/openzeppelin-contracts/blob/master/contracts/access/Ownable.sol\":1201:1286  function owner() public view virtual returns (address) {... */\n    tag_55:\n        /* \"https://github.com/OpenZeppelin/openzeppelin-contracts/blob/master/contracts/access/Ownable.sol\":1247:1254  address */\n      0x00\n        /* \"https://github.com/OpenZeppelin/openzeppelin-contracts/blob/master/contracts/access/Ownable.sol\":1273:1279  _owner */\n      dup1\n      0x00\n      swap1\n      sload\n      swap1\n      0x0100\n      exp\n      swap1\n      div\n      0xffffffffffffffffffffffffffffffffffffffff\n      and\n        /* \"https://github.com/OpenZeppelin/openzeppelin-contracts/blob/master/contracts/access/Ownable.sol\":1266:1279  return _owner */\n      swap1\n      pop\n        /* \"https://github.com/OpenZeppelin/openzeppelin-contracts/blob/master/contracts/access/Ownable.sol\":1201:1286  function owner() public view virtual returns (address) {... */\n      swap1\n      jump\t// out\n        /* \"MyProjectSharedWallet.sol\":3037:3301  function ownerWithdraw(address payable _to, uint _amount) public onlyOwner {... */\n    tag_61:\n        /* \"https://github.com/OpenZeppelin/openzeppelin-contracts/blob/master/contracts/access/Ownable.sol\":1094:1107  _checkOwner() */\n      tag_119\n        /* \"https://github.com/OpenZeppelin/openzeppelin-contracts/blob/master/contracts/access/Ownable.sol\":1094:1105  _checkOwner */\n      tag_98\n        /* \"https://github.com/OpenZeppelin/openzeppelin-contracts/blob/master/contracts/access/Ownable.sol\":1094:1107  _checkOwner() */\n      jump\t// in\n    tag_119:\n        /* \"MyProjectSharedWallet.sol\":3141:3162  address(this).balance */\n      selfbalance\n        /* \"MyProjectSharedWallet.sol\":3130:3137  _amount */\n      dup2\n        /* \"MyProjectSharedWallet.sol\":3130:3162  _amount <= address(this).balance */\n      gt\n      iszero\n        /* \"MyProjectSharedWallet.sol\":3122:3204  require(_amount <= address(this).balance,\"Amount is larger than contract balance\") */\n      tag_121\n      jumpi\n      mload(0x40)\n      0x08c379a000000000000000000000000000000000000000000000000000000000\n      dup2\n      mstore\n      0x04\n      add\n      tag_122\n      swap1\n      tag_123\n      jump\t// in\n    tag_122:\n      mload(0x40)\n      dup1\n      swap2\n      sub\n      swap1\n      revert\n    tag_121:\n        /* \"MyProjectSharedWallet.sol\":3256:3263  _amount */\n      dup1\n        /* \"MyProjectSharedWallet.sol\":3232:3253  address(this).balance */\n      selfbalance\n        /* \"MyProjectSharedWallet.sol\":3232:3263  address(this).balance - _amount */\n      tag_124\n      swap2\n      swap1\n      tag_87\n      jump\t// in\n    tag_124:\n        /* \"MyProjectSharedWallet.sol\":3214:3229  contractBalance */\n      0x04\n        /* \"MyProjectSharedWallet.sol\":3214:3263  contractBalance = address(this).balance - _amount */\n      dup2\n      swap1\n      sstore\n      pop\n        /* \"MyProjectSharedWallet.sol\":3273:3276  _to */\n      dup2\n        /* \"MyProjectSharedWallet.sol\":3273:3285  _to.transfer */\n      0xffffffffffffffffffffffffffffffffffffffff\n      and\n        /* \"MyProjectSharedWallet.sol\":3273:3294  _to.transfer(_amount) */\n      0x08fc\n        /* \"MyProjectSharedWallet.sol\":3286:3293  _amount */\n      dup3\n        /* \"MyProjectSharedWallet.sol\":3273:3294  _to.transfer(_amount) */\n      swap1\n      dup2\n      iszero\n      mul\n      swap1\n      mload(0x40)\n      0x00\n      mload(0x40)\n      dup1\n      dup4\n      sub\n      dup2\n      dup6\n      dup9\n      dup9\n      call\n      swap4\n      pop\n      pop\n      pop\n      pop\n      iszero\n      dup1\n      iszero\n      tag_126\n      jumpi\n      returndatasize\n      0x00\n      dup1\n      returndatacopy\n      revert(0x00, returndatasize)\n    tag_126:\n      pop\n        /* \"MyProjectSharedWallet.sol\":3037:3301  function ownerWithdraw(address payable _to, uint _amount) public onlyOwner {... */\n      pop\n      pop\n      jump\t// out\n        /* \"https://github.com/OpenZeppelin/openzeppelin-contracts/blob/master/contracts/access/Ownable.sol\":2081:2279  function transferOwnership(address newOwner) public virtual onlyOwner {... */\n    tag_65:\n        /* \"https://github.com/OpenZeppelin/openzeppelin-contracts/blob/master/contracts/access/Ownable.sol\":1094:1107  _checkOwner() */\n      tag_128\n        /* \"https://github.com/OpenZeppelin/openzeppelin-contracts/blob/master/contracts/access/Ownable.sol\":1094:1105  _checkOwner */\n      tag_98\n        /* \"https://github.com/OpenZeppelin/openzeppelin-contracts/blob/master/contracts/access/Ownable.sol\":1094:1107  _checkOwner() */\n      jump\t// in\n    tag_128:\n        /* \"https://github.com/OpenZeppelin/openzeppelin-contracts/blob/master/contracts/access/Ownable.sol\":2189:2190  0 */\n      0x00\n        /* \"https://github.com/OpenZeppelin/openzeppelin-contracts/blob/master/contracts/access/Ownable.sol\":2169:2191  newOwner != address(0) */\n      0xffffffffffffffffffffffffffffffffffffffff\n      and\n        /* \"https://github.com/OpenZeppelin/openzeppelin-contracts/blob/master/contracts/access/Ownable.sol\":2169:2177  newOwner */\n      dup2\n        /* \"https://github.com/OpenZeppelin/openzeppelin-contracts/blob/master/contracts/access/Ownable.sol\":2169:2191  newOwner != address(0) */\n      0xffffffffffffffffffffffffffffffffffffffff\n      and\n      eq\n      iszero\n        /* \"https://github.com/OpenZeppelin/openzeppelin-contracts/blob/master/contracts/access/Ownable.sol\":2161:2234  require(newOwner != address(0), \"Ownable: new owner is the zero address\") */\n      tag_130\n      jumpi\n      mload(0x40)\n      0x08c379a000000000000000000000000000000000000000000000000000000000\n      dup2\n      mstore\n      0x04\n      add\n      tag_131\n      swap1\n      tag_132\n      jump\t// in\n    tag_131:\n      mload(0x40)\n      dup1\n      swap2\n      sub\n      swap1\n      revert\n    tag_130:\n        /* \"https://github.com/OpenZeppelin/openzeppelin-contracts/blob/master/contracts/access/Ownable.sol\":2244:2272  _transferOwnership(newOwner) */\n      tag_133\n        /* \"https://github.com/OpenZeppelin/openzeppelin-contracts/blob/master/contracts/access/Ownable.sol\":2263:2271  newOwner */\n      dup2\n        /* \"https://github.com/OpenZeppelin/openzeppelin-contracts/blob/master/contracts/access/Ownable.sol\":2244:2262  _transferOwnership */\n      tag_116\n        /* \"https://github.com/OpenZeppelin/openzeppelin-contracts/blob/master/contracts/access/Ownable.sol\":2244:2272  _transferOwnership(newOwner) */\n      jump\t// in\n    tag_133:\n        /* \"https://github.com/OpenZeppelin/openzeppelin-contracts/blob/master/contracts/access/Ownable.sol\":2081:2279  function transferOwnership(address newOwner) public virtual onlyOwner {... */\n      pop\n      jump\t// out\n        /* \"MyProjectSharedWallet.sol\":3307:3399  function isOwner() internal view returns(bool) {... */\n    tag_69:\n        /* \"MyProjectSharedWallet.sol\":3348:3352  bool */\n      0x00\n        /* \"MyProjectSharedWallet.sol\":3382:3392  msg.sender */\n      caller\n        /* \"MyProjectSharedWallet.sol\":3371:3392  owner() == msg.sender */\n      0xffffffffffffffffffffffffffffffffffffffff\n      and\n        /* \"MyProjectSharedWallet.sol\":3371:3378  owner() */\n      tag_135\n        /* \"MyProjectSharedWallet.sol\":3371:3376  owner */\n      tag_55\n        /* \"MyProjectSharedWallet.sol\":3371:3378  owner() */\n      jump\t// in\n    tag_135:\n        /* \"MyProjectSharedWallet.sol\":3371:3392  owner() == msg.sender */\n      0xffffffffffffffffffffffffffffffffffffffff\n      and\n      eq\n        /* \"MyProjectSharedWallet.sol\":3364:3392  return owner() == msg.sender */\n      swap1\n      pop\n        /* \"MyProjectSharedWallet.sol\":3307:3399  function isOwner() internal view returns(bool) {... */\n      swap1\n      jump\t// out\n        /* \"https://github.com/OpenZeppelin/openzeppelin-contracts/blob/master/contracts/access/Ownable.sol\":1359:1489  function _checkOwner() internal view virtual {... */\n    tag_98:\n        /* \"https://github.com/OpenZeppelin/openzeppelin-contracts/blob/master/contracts/access/Ownable.sol\":1433:1445  _msgSender() */\n      tag_137\n        /* \"https://github.com/OpenZeppelin/openzeppelin-contracts/blob/master/contracts/access/Ownable.sol\":1433:1443  _msgSender */\n      tag_138\n        /* \"https://github.com/OpenZeppelin/openzeppelin-contracts/blob/master/contracts/access/Ownable.sol\":1433:1445  _msgSender() */\n      jump\t// in\n    tag_137:\n        /* \"https://github.com/OpenZeppelin/openzeppelin-contracts/blob/master/contracts/access/Ownable.sol\":1422:1445  owner() == _msgSender() */\n      0xffffffffffffffffffffffffffffffffffffffff\n      and\n        /* \"https://github.com/OpenZeppelin/openzeppelin-contracts/blob/master/contracts/access/Ownable.sol\":1422:1429  owner() */\n      tag_139\n        /* \"https://github.com/OpenZeppelin/openzeppelin-contracts/blob/master/contracts/access/Ownable.sol\":1422:1427  owner */\n      tag_55\n        /* \"https://github.com/OpenZeppelin/openzeppelin-contracts/blob/master/contracts/access/Ownable.sol\":1422:1429  owner() */\n      jump\t// in\n    tag_139:\n        /* \"https://github.com/OpenZeppelin/openzeppelin-contracts/blob/master/contracts/access/Ownable.sol\":1422:1445  owner() == _msgSender() */\n      0xffffffffffffffffffffffffffffffffffffffff\n      and\n      eq\n        /* \"https://github.com/OpenZeppelin/openzeppelin-contracts/blob/master/contracts/access/Ownable.sol\":1414:1482  require(owner() == _msgSender(), \"Ownable: caller is not the owner\") */\n      tag_140\n      jumpi\n      mload(0x40)\n      0x08c379a000000000000000000000000000000000000000000000000000000000\n      dup2\n      mstore\n      0x04\n      add\n      tag_141\n      swap1\n      tag_142\n      jump\t// in\n    tag_141:\n      mload(0x40)\n      dup1\n      swap2\n      sub\n      swap1\n      revert\n    tag_140:\n        /* \"https://github.com/OpenZeppelin/openzeppelin-contracts/blob/master/contracts/access/Ownable.sol\":1359:1489  function _checkOwner() internal view virtual {... */\n      jump\t// out\n        /* \"https://github.com/OpenZeppelin/openzeppelin-contracts/blob/master/contracts/access/Ownable.sol\":2433:2620  function _transferOwnership(address newOwner) internal virtual {... */\n    tag_116:\n        /* \"https://github.com/OpenZeppelin/openzeppelin-contracts/blob/master/contracts/access/Ownable.sol\":2506:2522  address oldOwner */\n      0x00\n        /* \"https://github.com/OpenZeppelin/openzeppelin-contracts/blob/master/contracts/access/Ownable.sol\":2525:2531  _owner */\n      dup1\n      0x00\n      swap1\n      sload\n      swap1\n      0x0100\n      exp\n      swap1\n      div\n      0xffffffffffffffffffffffffffffffffffffffff\n      and\n        /* \"https://github.com/OpenZeppelin/openzeppelin-contracts/blob/master/contracts/access/Ownable.sol\":2506:2531  address oldOwner = _owner */\n      swap1\n      pop\n        /* \"https://github.com/OpenZeppelin/openzeppelin-contracts/blob/master/contracts/access/Ownable.sol\":2550:2558  newOwner */\n      dup2\n        /* \"https://github.com/OpenZeppelin/openzeppelin-contracts/blob/master/contracts/access/Ownable.sol\":2541:2547  _owner */\n      0x00\n      dup1\n        /* \"https://github.com/OpenZeppelin/openzeppelin-contracts/blob/master/contracts/access/Ownable.sol\":2541:2558  _owner = newOwner */\n      0x0100\n      exp\n      dup2\n      sload\n      dup2\n      0xffffffffffffffffffffffffffffffffffffffff\n      mul\n      not\n      and\n      swap1\n      dup4\n      0xffffffffffffffffffffffffffffffffffffffff\n      and\n      mul\n      or\n      swap1\n      sstore\n      pop\n        /* \"https://github.com/OpenZeppelin/openzeppelin-contracts/blob/master/contracts/access/Ownable.sol\":2604:2612  newOwner */\n      dup2\n        /* \"https://github.com/OpenZeppelin/openzeppelin-contracts/blob/master/contracts/access/Ownable.sol\":2573:2613  OwnershipTransferred(oldOwner, newOwner) */\n      0xffffffffffffffffffffffffffffffffffffffff\n      and\n        /* \"https://github.com/OpenZeppelin/openzeppelin-contracts/blob/master/contracts/access/Ownable.sol\":2594:2602  oldOwner */\n      dup2\n        /* \"https://github.com/OpenZeppelin/openzeppelin-contracts/blob/master/contracts/access/Ownable.sol\":2573:2613  OwnershipTransferred(oldOwner, newOwner) */\n      0xffffffffffffffffffffffffffffffffffffffff\n      and\n      0x8be0079c531659141344cd1fd0a4f28419497f9722a3daafe3b4186f6b6457e0\n      mload(0x40)\n      mload(0x40)\n      dup1\n      swap2\n      sub\n      swap1\n      log3\n        /* \"https://github.com/OpenZeppelin/openzeppelin-contracts/blob/master/contracts/access/Ownable.sol\":2496:2620  {... */\n      pop\n        /* \"https://github.com/OpenZeppelin/openzeppelin-contracts/blob/master/contracts/access/Ownable.sol\":2433:2620  function _transferOwnership(address newOwner) internal virtual {... */\n      pop\n      jump\t// out\n        /* \"https://github.com/OpenZeppelin/openzeppelin-contracts/blob/master/contracts/utils/Context.sol\":640:736  function _msgSender() internal view virtual returns (address) {... */\n    tag_138:\n        /* \"https://github.com/OpenZeppelin/openzeppelin-contracts/blob/master/contracts/utils/Context.sol\":693:700  address */\n      0x00\n        /* \"https://github.com/OpenZeppelin/openzeppelin-contracts/blob/master/contracts/utils/Context.sol\":719:729  msg.sender */\n      caller\n        /* \"https://github.com/OpenZeppelin/openzeppelin-contracts/blob/master/contracts/utils/Context.sol\":712:729  return msg.sender */\n      swap1\n      pop\n        /* \"https://github.com/OpenZeppelin/openzeppelin-contracts/blob/master/contracts/utils/Context.sol\":640:736  function _msgSender() internal view virtual returns (address) {... */\n      swap1\n      jump\t// out\n        /* \"#utility.yul\":7:146   */\n    tag_146:\n        /* \"#utility.yul\":53:58   */\n      0x00\n        /* \"#utility.yul\":91:97   */\n      dup2\n        /* \"#utility.yul\":78:98   */\n      calldataload\n        /* \"#utility.yul\":69:98   */\n      swap1\n      pop\n        /* \"#utility.yul\":107:140   */\n      tag_148\n        /* \"#utility.yul\":134:139   */\n      dup2\n        /* \"#utility.yul\":107:140   */\n      tag_149\n      jump\t// in\n    tag_148:\n        /* \"#utility.yul\":7:146   */\n      swap3\n      swap2\n      pop\n      pop\n      jump\t// out\n        /* \"#utility.yul\":152:307   */\n    tag_150:\n        /* \"#utility.yul\":206:211   */\n      0x00\n        /* \"#utility.yul\":244:250   */\n      dup2\n        /* \"#utility.yul\":231:251   */\n      calldataload\n        /* \"#utility.yul\":222:251   */\n      swap1\n      pop\n        /* \"#utility.yul\":260:301   */\n      tag_152\n        /* \"#utility.yul\":295:300   */\n      dup2\n        /* \"#utility.yul\":260:301   */\n      tag_153\n      jump\t// in\n    tag_152:\n        /* \"#utility.yul\":152:307   */\n      swap3\n      swap2\n      pop\n      pop\n      jump\t// out\n        /* \"#utility.yul\":313:452   */\n    tag_154:\n        /* \"#utility.yul\":359:364   */\n      0x00\n        /* \"#utility.yul\":397:403   */\n      dup2\n        /* \"#utility.yul\":384:404   */\n      calldataload\n        /* \"#utility.yul\":375:404   */\n      swap1\n      pop\n        /* \"#utility.yul\":413:446   */\n      tag_156\n        /* \"#utility.yul\":440:445   */\n      dup2\n        /* \"#utility.yul\":413:446   */\n      tag_157\n      jump\t// in\n    tag_156:\n        /* \"#utility.yul\":313:452   */\n      swap3\n      swap2\n      pop\n      pop\n      jump\t// out\n        /* \"#utility.yul\":458:787   */\n    tag_22:\n        /* \"#utility.yul\":517:523   */\n      0x00\n        /* \"#utility.yul\":566:568   */\n      0x20\n        /* \"#utility.yul\":554:563   */\n      dup3\n        /* \"#utility.yul\":545:552   */\n      dup5\n        /* \"#utility.yul\":541:564   */\n      sub\n        /* \"#utility.yul\":537:569   */\n      slt\n        /* \"#utility.yul\":534:653   */\n      iszero\n      tag_159\n      jumpi\n        /* \"#utility.yul\":572:651   */\n      tag_160\n      tag_161\n      jump\t// in\n    tag_160:\n        /* \"#utility.yul\":534:653   */\n    tag_159:\n        /* \"#utility.yul\":692:693   */\n      0x00\n        /* \"#utility.yul\":717:770   */\n      tag_162\n        /* \"#utility.yul\":762:769   */\n      dup5\n        /* \"#utility.yul\":753:759   */\n      dup3\n        /* \"#utility.yul\":742:751   */\n      dup6\n        /* \"#utility.yul\":738:760   */\n      add\n        /* \"#utility.yul\":717:770   */\n      tag_146\n      jump\t// in\n    tag_162:\n        /* \"#utility.yul\":707:770   */\n      swap2\n      pop\n        /* \"#utility.yul\":663:780   */\n      pop\n        /* \"#utility.yul\":458:787   */\n      swap3\n      swap2\n      pop\n      pop\n      jump\t// out\n        /* \"#utility.yul\":793:1283   */\n    tag_35:\n        /* \"#utility.yul\":869:875   */\n      0x00\n        /* \"#utility.yul\":877:883   */\n      dup1\n        /* \"#utility.yul\":926:928   */\n      0x40\n        /* \"#utility.yul\":914:923   */\n      dup4\n        /* \"#utility.yul\":905:912   */\n      dup6\n        /* \"#utility.yul\":901:924   */\n      sub\n        /* \"#utility.yul\":897:929   */\n      slt\n        /* \"#utility.yul\":894:1013   */\n      iszero\n      tag_164\n      jumpi\n        /* \"#utility.yul\":932:1011   */\n      tag_165\n      tag_161\n      jump\t// in\n    tag_165:\n        /* \"#utility.yul\":894:1013   */\n    tag_164:\n        /* \"#utility.yul\":1052:1053   */\n      0x00\n        /* \"#utility.yul\":1077:1138   */\n      tag_166\n        /* \"#utility.yul\":1130:1137   */\n      dup6\n        /* \"#utility.yul\":1121:1127   */\n      dup3\n        /* \"#utility.yul\":1110:1119   */\n      dup7\n        /* \"#utility.yul\":1106:1128   */\n      add\n        /* \"#utility.yul\":1077:1138   */\n      tag_150\n      jump\t// in\n    tag_166:\n        /* \"#utility.yul\":1067:1138   */\n      swap3\n      pop\n        /* \"#utility.yul\":1023:1148   */\n      pop\n        /* \"#utility.yul\":1187:1189   */\n      0x20\n        /* \"#utility.yul\":1213:1266   */\n      tag_167\n        /* \"#utility.yul\":1258:1265   */\n      dup6\n        /* \"#utility.yul\":1249:1255   */\n      dup3\n        /* \"#utility.yul\":1238:1247   */\n      dup7\n        /* \"#utility.yul\":1234:1256   */\n      add\n        /* \"#utility.yul\":1213:1266   */\n      tag_154\n      jump\t// in\n    tag_167:\n        /* \"#utility.yul\":1203:1266   */\n      swap2\n      pop\n        /* \"#utility.yul\":1158:1276   */\n      pop\n        /* \"#utility.yul\":793:1283   */\n      swap3\n      pop\n      swap3\n      swap1\n      pop\n      jump\t// out\n        /* \"#utility.yul\":1289:1763   */\n    tag_40:\n        /* \"#utility.yul\":1357:1363   */\n      0x00\n        /* \"#utility.yul\":1365:1371   */\n      dup1\n        /* \"#utility.yul\":1414:1416   */\n      0x40\n        /* \"#utility.yul\":1402:1411   */\n      dup4\n        /* \"#utility.yul\":1393:1400   */\n      dup6\n        /* \"#utility.yul\":1389:1412   */\n      sub\n        /* \"#utility.yul\":1385:1417   */\n      slt\n        /* \"#utility.yul\":1382:1501   */\n      iszero\n      tag_169\n      jumpi\n        /* \"#utility.yul\":1420:1499   */\n      tag_170\n      tag_161\n      jump\t// in\n    tag_170:\n        /* \"#utility.yul\":1382:1501   */\n    tag_169:\n        /* \"#utility.yul\":1540:1541   */\n      0x00\n        /* \"#utility.yul\":1565:1618   */\n      tag_171\n        /* \"#utility.yul\":1610:1617   */\n      dup6\n        /* \"#utility.yul\":1601:1607   */\n      dup3\n        /* \"#utility.yul\":1590:1599   */\n      dup7\n        /* \"#utility.yul\":1586:1608   */\n      add\n        /* \"#utility.yul\":1565:1618   */\n      tag_146\n      jump\t// in\n    tag_171:\n        /* \"#utility.yul\":1555:1618   */\n      swap3\n      pop\n        /* \"#utility.yul\":1511:1628   */\n      pop\n        /* \"#utility.yul\":1667:1669   */\n      0x20\n        /* \"#utility.yul\":1693:1746   */\n      tag_172\n        /* \"#utility.yul\":1738:1745   */\n      dup6\n        /* \"#utility.yul\":1729:1735   */\n      dup3\n        /* \"#utility.yul\":1718:1727   */\n      dup7\n        /* \"#utility.yul\":1714:1736   */\n      add\n        /* \"#utility.yul\":1693:1746   */\n      tag_154\n      jump\t// in\n    tag_172:\n        /* \"#utility.yul\":1683:1746   */\n      swap2\n      pop\n        /* \"#utility.yul\":1638:1756   */\n      pop\n        /* \"#utility.yul\":1289:1763   */\n      swap3\n      pop\n      swap3\n      swap1\n      pop\n      jump\t// out\n        /* \"#utility.yul\":1769:1887   */\n    tag_173:\n        /* \"#utility.yul\":1856:1880   */\n      tag_175\n        /* \"#utility.yul\":1874:1879   */\n      dup2\n        /* \"#utility.yul\":1856:1880   */\n      tag_176\n      jump\t// in\n    tag_175:\n        /* \"#utility.yul\":1851:1854   */\n      dup3\n        /* \"#utility.yul\":1844:1881   */\n      mstore\n        /* \"#utility.yul\":1769:1887   */\n      pop\n      pop\n      jump\t// out\n        /* \"#utility.yul\":1893:2259   */\n    tag_177:\n        /* \"#utility.yul\":2035:2038   */\n      0x00\n        /* \"#utility.yul\":2056:2123   */\n      tag_179\n        /* \"#utility.yul\":2120:2122   */\n      0x28\n        /* \"#utility.yul\":2115:2118   */\n      dup4\n        /* \"#utility.yul\":2056:2123   */\n      tag_180\n      jump\t// in\n    tag_179:\n        /* \"#utility.yul\":2049:2123   */\n      swap2\n      pop\n        /* \"#utility.yul\":2132:2225   */\n      tag_181\n        /* \"#utility.yul\":2221:2224   */\n      dup3\n        /* \"#utility.yul\":2132:2225   */\n      tag_182\n      jump\t// in\n    tag_181:\n        /* \"#utility.yul\":2250:2252   */\n      0x40\n        /* \"#utility.yul\":2245:2248   */\n      dup3\n        /* \"#utility.yul\":2241:2253   */\n      add\n        /* \"#utility.yul\":2234:2253   */\n      swap1\n      pop\n        /* \"#utility.yul\":1893:2259   */\n      swap2\n      swap1\n      pop\n      jump\t// out\n        /* \"#utility.yul\":2265:2631   */\n    tag_183:\n        /* \"#utility.yul\":2407:2410   */\n      0x00\n        /* \"#utility.yul\":2428:2495   */\n      tag_185\n        /* \"#utility.yul\":2492:2494   */\n      0x26\n        /* \"#utility.yul\":2487:2490   */\n      dup4\n        /* \"#utility.yul\":2428:2495   */\n      tag_180\n      jump\t// in\n    tag_185:\n        /* \"#utility.yul\":2421:2495   */\n      swap2\n      pop\n        /* \"#utility.yul\":2504:2597   */\n      tag_186\n        /* \"#utility.yul\":2593:2596   */\n      dup3\n        /* \"#utility.yul\":2504:2597   */\n      tag_187\n      jump\t// in\n    tag_186:\n        /* \"#utility.yul\":2622:2624   */\n      0x40\n        /* \"#utility.yul\":2617:2620   */\n      dup3\n        /* \"#utility.yul\":2613:2625   */\n      add\n        /* \"#utility.yul\":2606:2625   */\n      swap1\n      pop\n        /* \"#utility.yul\":2265:2631   */\n      swap2\n      swap1\n      pop\n      jump\t// out\n        /* \"#utility.yul\":2637:3003   */\n    tag_188:\n        /* \"#utility.yul\":2779:2782   */\n      0x00\n        /* \"#utility.yul\":2800:2867   */\n      tag_190\n        /* \"#utility.yul\":2864:2866   */\n      0x2b\n        /* \"#utility.yul\":2859:2862   */\n      dup4\n        /* \"#utility.yul\":2800:2867   */\n      tag_180\n      jump\t// in\n    tag_190:\n        /* \"#utility.yul\":2793:2867   */\n      swap2\n      pop\n        /* \"#utility.yul\":2876:2969   */\n      tag_191\n        /* \"#utility.yul\":2965:2968   */\n      dup3\n        /* \"#utility.yul\":2876:2969   */\n      tag_192\n      jump\t// in\n    tag_191:\n        /* \"#utility.yul\":2994:2996   */\n      0x40\n        /* \"#utility.yul\":2989:2992   */\n      dup3\n        /* \"#utility.yul\":2985:2997   */\n      add\n        /* \"#utility.yul\":2978:2997   */\n      swap1\n      pop\n        /* \"#utility.yul\":2637:3003   */\n      swap2\n      swap1\n      pop\n      jump\t// out\n        /* \"#utility.yul\":3009:3375   */\n    tag_193:\n        /* \"#utility.yul\":3151:3154   */\n      0x00\n        /* \"#utility.yul\":3172:3239   */\n      tag_195\n        /* \"#utility.yul\":3236:3238   */\n      0x16\n        /* \"#utility.yul\":3231:3234   */\n      dup4\n        /* \"#utility.yul\":3172:3239   */\n      tag_180\n      jump\t// in\n    tag_195:\n        /* \"#utility.yul\":3165:3239   */\n      swap2\n      pop\n        /* \"#utility.yul\":3248:3341   */\n      tag_196\n        /* \"#utility.yul\":3337:3340   */\n      dup3\n        /* \"#utility.yul\":3248:3341   */\n      tag_197\n      jump\t// in\n    tag_196:\n        /* \"#utility.yul\":3366:3368   */\n      0x20\n        /* \"#utility.yul\":3361:3364   */\n      dup3\n        /* \"#utility.yul\":3357:3369   */\n      add\n        /* \"#utility.yul\":3350:3369   */\n      swap1\n      pop\n        /* \"#utility.yul\":3009:3375   */\n      swap2\n      swap1\n      pop\n      jump\t// out\n        /* \"#utility.yul\":3381:3747   */\n    tag_198:\n        /* \"#utility.yul\":3523:3526   */\n      0x00\n        /* \"#utility.yul\":3544:3611   */\n      tag_200\n        /* \"#utility.yul\":3608:3610   */\n      0x1d\n        /* \"#utility.yul\":3603:3606   */\n      dup4\n        /* \"#utility.yul\":3544:3611   */\n      tag_180\n      jump\t// in\n    tag_200:\n        /* \"#utility.yul\":3537:3611   */\n      swap2\n      pop\n        /* \"#utility.yul\":3620:3713   */\n      tag_201\n        /* \"#utility.yul\":3709:3712   */\n      dup3\n        /* \"#utility.yul\":3620:3713   */\n      tag_202\n      jump\t// in\n    tag_201:\n        /* \"#utility.yul\":3738:3740   */\n      0x20\n        /* \"#utility.yul\":3733:3736   */\n      dup3\n        /* \"#utility.yul\":3729:3741   */\n      add\n        /* \"#utility.yul\":3722:3741   */\n      swap1\n      pop\n        /* \"#utility.yul\":3381:3747   */\n      swap2\n      swap1\n      pop\n      jump\t// out\n        /* \"#utility.yul\":3753:4119   */\n    tag_203:\n        /* \"#utility.yul\":3895:3898   */\n      0x00\n        /* \"#utility.yul\":3916:3983   */\n      tag_205\n        /* \"#utility.yul\":3980:3982   */\n      0x20\n        /* \"#utility.yul\":3975:3978   */\n      dup4\n        /* \"#utility.yul\":3916:3983   */\n      tag_180\n      jump\t// in\n    tag_205:\n        /* \"#utility.yul\":3909:3983   */\n      swap2\n      pop\n        /* \"#utility.yul\":3992:4085   */\n      tag_206\n        /* \"#utility.yul\":4081:4084   */\n      dup3\n        /* \"#utility.yul\":3992:4085   */\n      tag_207\n      jump\t// in\n    tag_206:\n        /* \"#utility.yul\":4110:4112   */\n      0x20\n        /* \"#utility.yul\":4105:4108   */\n      dup3\n        /* \"#utility.yul\":4101:4113   */\n      add\n        /* \"#utility.yul\":4094:4113   */\n      swap1\n      pop\n        /* \"#utility.yul\":3753:4119   */\n      swap2\n      swap1\n      pop\n      jump\t// out\n        /* \"#utility.yul\":4125:4491   */\n    tag_208:\n        /* \"#utility.yul\":4267:4270   */\n      0x00\n        /* \"#utility.yul\":4288:4355   */\n      tag_210\n        /* \"#utility.yul\":4352:4354   */\n      0x2a\n        /* \"#utility.yul\":4347:4350   */\n      dup4\n        /* \"#utility.yul\":4288:4355   */\n      tag_180\n      jump\t// in\n    tag_210:\n        /* \"#utility.yul\":4281:4355   */\n      swap2\n      pop\n        /* \"#utility.yul\":4364:4457   */\n      tag_211\n        /* \"#utility.yul\":4453:4456   */\n      dup3\n        /* \"#utility.yul\":4364:4457   */\n      tag_212\n      jump\t// in\n    tag_211:\n        /* \"#utility.yul\":4482:4484   */\n      0x40\n        /* \"#utility.yul\":4477:4480   */\n      dup3\n        /* \"#utility.yul\":4473:4485   */\n      add\n        /* \"#utility.yul\":4466:4485   */\n      swap1\n      pop\n        /* \"#utility.yul\":4125:4491   */\n      swap2\n      swap1\n      pop\n      jump\t// out\n        /* \"#utility.yul\":4497:4863   */\n    tag_213:\n        /* \"#utility.yul\":4639:4642   */\n      0x00\n        /* \"#utility.yul\":4660:4727   */\n      tag_215\n        /* \"#utility.yul\":4724:4726   */\n      0x26\n        /* \"#utility.yul\":4719:4722   */\n      dup4\n        /* \"#utility.yul\":4660:4727   */\n      tag_180\n      jump\t// in\n    tag_215:\n        /* \"#utility.yul\":4653:4727   */\n      swap2\n      pop\n        /* \"#utility.yul\":4736:4829   */\n      tag_216\n        /* \"#utility.yul\":4825:4828   */\n      dup3\n        /* \"#utility.yul\":4736:4829   */\n      tag_217\n      jump\t// in\n    tag_216:\n        /* \"#utility.yul\":4854:4856   */\n      0x40\n        /* \"#utility.yul\":4849:4852   */\n      dup3\n        /* \"#utility.yul\":4845:4857   */\n      add\n        /* \"#utility.yul\":4838:4857   */\n      swap1\n      pop\n        /* \"#utility.yul\":4497:4863   */\n      swap2\n      swap1\n      pop\n      jump\t// out\n        /* \"#utility.yul\":4869:5235   */\n    tag_218:\n        /* \"#utility.yul\":5011:5014   */\n      0x00\n        /* \"#utility.yul\":5032:5099   */\n      tag_220\n        /* \"#utility.yul\":5096:5098   */\n      0x27\n        /* \"#utility.yul\":5091:5094   */\n      dup4\n        /* \"#utility.yul\":5032:5099   */\n      tag_180\n      jump\t// in\n    tag_220:\n        /* \"#utility.yul\":5025:5099   */\n      swap2\n      pop\n        /* \"#utility.yul\":5108:5201   */\n      tag_221\n        /* \"#utility.yul\":5197:5200   */\n      dup3\n        /* \"#utility.yul\":5108:5201   */\n      tag_222\n      jump\t// in\n    tag_221:\n        /* \"#utility.yul\":5226:5228   */\n      0x40\n        /* \"#utility.yul\":5221:5224   */\n      dup3\n        /* \"#utility.yul\":5217:5229   */\n      add\n        /* \"#utility.yul\":5210:5229   */\n      swap1\n      pop\n        /* \"#utility.yul\":4869:5235   */\n      swap2\n      swap1\n      pop\n      jump\t// out\n        /* \"#utility.yul\":5241:5607   */\n    tag_223:\n        /* \"#utility.yul\":5383:5386   */\n      0x00\n        /* \"#utility.yul\":5404:5471   */\n      tag_225\n        /* \"#utility.yul\":5468:5470   */\n      0x24\n        /* \"#utility.yul\":5463:5466   */\n      dup4\n        /* \"#utility.yul\":5404:5471   */\n      tag_180\n      jump\t// in\n    tag_225:\n        /* \"#utility.yul\":5397:5471   */\n      swap2\n      pop\n        /* \"#utility.yul\":5480:5573   */\n      tag_226\n        /* \"#utility.yul\":5569:5572   */\n      dup3\n        /* \"#utility.yul\":5480:5573   */\n      tag_227\n      jump\t// in\n    tag_226:\n        /* \"#utility.yul\":5598:5600   */\n      0x40\n        /* \"#utility.yul\":5593:5596   */\n      dup3\n        /* \"#utility.yul\":5589:5601   */\n      add\n        /* \"#utility.yul\":5582:5601   */\n      swap1\n      pop\n        /* \"#utility.yul\":5241:5607   */\n      swap2\n      swap1\n      pop\n      jump\t// out\n        /* \"#utility.yul\":5613:5731   */\n    tag_228:\n        /* \"#utility.yul\":5700:5724   */\n      tag_230\n        /* \"#utility.yul\":5718:5723   */\n      dup2\n        /* \"#utility.yul\":5700:5724   */\n      tag_231\n      jump\t// in\n    tag_230:\n        /* \"#utility.yul\":5695:5698   */\n      dup3\n        /* \"#utility.yul\":5688:5725   */\n      mstore\n        /* \"#utility.yul\":5613:5731   */\n      pop\n      pop\n      jump\t// out\n        /* \"#utility.yul\":5737:5959   */\n    tag_57:\n        /* \"#utility.yul\":5830:5834   */\n      0x00\n        /* \"#utility.yul\":5868:5870   */\n      0x20\n        /* \"#utility.yul\":5857:5866   */\n      dup3\n        /* \"#utility.yul\":5853:5871   */\n      add\n        /* \"#utility.yul\":5845:5871   */\n      swap1\n      pop\n        /* \"#utility.yul\":5881:5952   */\n      tag_233\n        /* \"#utility.yul\":5949:5950   */\n      0x00\n        /* \"#utility.yul\":5938:5947   */\n      dup4\n        /* \"#utility.yul\":5934:5951   */\n      add\n        /* \"#utility.yul\":5925:5931   */\n      dup5\n        /* \"#utility.yul\":5881:5952   */\n      tag_173\n      jump\t// in\n    tag_233:\n        /* \"#utility.yul\":5737:5959   */\n      swap3\n      swap2\n      pop\n      pop\n      jump\t// out\n        /* \"#utility.yul\":5965:6384   */\n    tag_75:\n        /* \"#utility.yul\":6131:6135   */\n      0x00\n        /* \"#utility.yul\":6169:6171   */\n      0x20\n        /* \"#utility.yul\":6158:6167   */\n      dup3\n        /* \"#utility.yul\":6154:6172   */\n      add\n        /* \"#utility.yul\":6146:6172   */\n      swap1\n      pop\n        /* \"#utility.yul\":6218:6227   */\n      dup2\n        /* \"#utility.yul\":6212:6216   */\n      dup2\n        /* \"#utility.yul\":6208:6228   */\n      sub\n        /* \"#utility.yul\":6204:6205   */\n      0x00\n        /* \"#utility.yul\":6193:6202   */\n      dup4\n        /* \"#utility.yul\":6189:6206   */\n      add\n        /* \"#utility.yul\":6182:6229   */\n      mstore\n        /* \"#utility.yul\":6246:6377   */\n      tag_235\n        /* \"#utility.yul\":6372:6376   */\n      dup2\n        /* \"#utility.yul\":6246:6377   */\n      tag_177\n      jump\t// in\n    tag_235:\n        /* \"#utility.yul\":6238:6377   */\n      swap1\n      pop\n        /* \"#utility.yul\":5965:6384   */\n      swap2\n      swap1\n      pop\n      jump\t// out\n        /* \"#utility.yul\":6390:6809   */\n    tag_132:\n        /* \"#utility.yul\":6556:6560   */\n      0x00\n        /* \"#utility.yul\":6594:6596   */\n      0x20\n        /* \"#utility.yul\":6583:6592   */\n      dup3\n        /* \"#utility.yul\":6579:6597   */\n      add\n        /* \"#utility.yul\":6571:6597   */\n      swap1\n      pop\n        /* \"#utility.yul\":6643:6652   */\n      dup2\n        /* \"#utility.yul\":6637:6641   */\n      dup2\n        /* \"#utility.yul\":6633:6653   */\n      sub\n        /* \"#utility.yul\":6629:6630   */\n      0x00\n        /* \"#utility.yul\":6618:6627   */\n      dup4\n        /* \"#utility.yul\":6614:6631   */\n      add\n        /* \"#utility.yul\":6607:6654   */\n      mstore\n        /* \"#utility.yul\":6671:6802   */\n      tag_237\n        /* \"#utility.yul\":6797:6801   */\n      dup2\n        /* \"#utility.yul\":6671:6802   */\n      tag_183\n      jump\t// in\n    tag_237:\n        /* \"#utility.yul\":6663:6802   */\n      swap1\n      pop\n        /* \"#utility.yul\":6390:6809   */\n      swap2\n      swap1\n      pop\n      jump\t// out\n        /* \"#utility.yul\":6815:7234   */\n    tag_72:\n        /* \"#utility.yul\":6981:6985   */\n      0x00\n        /* \"#utility.yul\":7019:7021   */\n      0x20\n        /* \"#utility.yul\":7008:7017   */\n      dup3\n        /* \"#utility.yul\":7004:7022   */\n      add\n        /* \"#utility.yul\":6996:7022   */\n      swap1\n      pop\n        /* \"#utility.yul\":7068:7077   */\n      dup2\n        /* \"#utility.yul\":7062:7066   */\n      dup2\n        /* \"#utility.yul\":7058:7078   */\n      sub\n        /* \"#utility.yul\":7054:7055   */\n      0x00\n        /* \"#utility.yul\":7043:7052   */\n      dup4\n        /* \"#utility.yul\":7039:7056   */\n      add\n        /* \"#utility.yul\":7032:7079   */\n      mstore\n        /* \"#utility.yul\":7096:7227   */\n      tag_239\n        /* \"#utility.yul\":7222:7226   */\n      dup2\n        /* \"#utility.yul\":7096:7227   */\n      tag_188\n      jump\t// in\n    tag_239:\n        /* \"#utility.yul\":7088:7227   */\n      swap1\n      pop\n        /* \"#utility.yul\":6815:7234   */\n      swap2\n      swap1\n      pop\n      jump\t// out\n        /* \"#utility.yul\":7240:7659   */\n    tag_90:\n        /* \"#utility.yul\":7406:7410   */\n      0x00\n        /* \"#utility.yul\":7444:7446   */\n      0x20\n        /* \"#utility.yul\":7433:7442   */\n      dup3\n        /* \"#utility.yul\":7429:7447   */\n      add\n        /* \"#utility.yul\":7421:7447   */\n      swap1\n      pop\n        /* \"#utility.yul\":7493:7502   */\n      dup2\n        /* \"#utility.yul\":7487:7491   */\n      dup2\n        /* \"#utility.yul\":7483:7503   */\n      sub\n        /* \"#utility.yul\":7479:7480   */\n      0x00\n        /* \"#utility.yul\":7468:7477   */\n      dup4\n        /* \"#utility.yul\":7464:7481   */\n      add\n        /* \"#utility.yul\":7457:7504   */\n      mstore\n        /* \"#utility.yul\":7521:7652   */\n      tag_241\n        /* \"#utility.yul\":7647:7651   */\n      dup2\n        /* \"#utility.yul\":7521:7652   */\n      tag_193\n      jump\t// in\n    tag_241:\n        /* \"#utility.yul\":7513:7652   */\n      swap1\n      pop\n        /* \"#utility.yul\":7240:7659   */\n      swap2\n      swap1\n      pop\n      jump\t// out\n        /* \"#utility.yul\":7665:8084   */\n    tag_78:\n        /* \"#utility.yul\":7831:7835   */\n      0x00\n        /* \"#utility.yul\":7869:7871   */\n      0x20\n        /* \"#utility.yul\":7858:7867   */\n      dup3\n        /* \"#utility.yul\":7854:7872   */\n      add\n        /* \"#utility.yul\":7846:7872   */\n      swap1\n      pop\n        /* \"#utility.yul\":7918:7927   */\n      dup2\n        /* \"#utility.yul\":7912:7916   */\n      dup2\n        /* \"#utility.yul\":7908:7928   */\n      sub\n        /* \"#utility.yul\":7904:7905   */\n      0x00\n        /* \"#utility.yul\":7893:7902   */\n      dup4\n        /* \"#utility.yul\":7889:7906   */\n      add\n        /* \"#utility.yul\":7882:7929   */\n      mstore\n        /* \"#utility.yul\":7946:8077   */\n      tag_243\n        /* \"#utility.yul\":8072:8076   */\n      dup2\n        /* \"#utility.yul\":7946:8077   */\n      tag_198\n      jump\t// in\n    tag_243:\n        /* \"#utility.yul\":7938:8077   */\n      swap1\n      pop\n        /* \"#utility.yul\":7665:8084   */\n      swap2\n      swap1\n      pop\n      jump\t// out\n        /* \"#utility.yul\":8090:8509   */\n    tag_142:\n        /* \"#utility.yul\":8256:8260   */\n      0x00\n        /* \"#utility.yul\":8294:8296   */\n      0x20\n        /* \"#utility.yul\":8283:8292   */\n      dup3\n        /* \"#utility.yul\":8279:8297   */\n      add\n        /* \"#utility.yul\":8271:8297   */\n      swap1\n      pop\n        /* \"#utility.yul\":8343:8352   */\n      dup2\n        /* \"#utility.yul\":8337:8341   */\n      dup2\n        /* \"#utility.yul\":8333:8353   */\n      sub\n        /* \"#utility.yul\":8329:8330   */\n      0x00\n        /* \"#utility.yul\":8318:8327   */\n      dup4\n        /* \"#utility.yul\":8314:8331   */\n      add\n        /* \"#utility.yul\":8307:8354   */\n      mstore\n        /* \"#utility.yul\":8371:8502   */\n      tag_245\n        /* \"#utility.yul\":8497:8501   */\n      dup2\n        /* \"#utility.yul\":8371:8502   */\n      tag_203\n      jump\t// in\n    tag_245:\n        /* \"#utility.yul\":8363:8502   */\n      swap1\n      pop\n        /* \"#utility.yul\":8090:8509   */\n      swap2\n      swap1\n      pop\n      jump\t// out\n        /* \"#utility.yul\":8515:8934   */\n    tag_103:\n        /* \"#utility.yul\":8681:8685   */\n      0x00\n        /* \"#utility.yul\":8719:8721   */\n      0x20\n        /* \"#utility.yul\":8708:8717   */\n      dup3\n        /* \"#utility.yul\":8704:8722   */\n      add\n        /* \"#utility.yul\":8696:8722   */\n      swap1\n      pop\n        /* \"#utility.yul\":8768:8777   */\n      dup2\n        /* \"#utility.yul\":8762:8766   */\n      dup2\n        /* \"#utility.yul\":8758:8778   */\n      sub\n        /* \"#utility.yul\":8754:8755   */\n      0x00\n        /* \"#utility.yul\":8743:8752   */\n      dup4\n        /* \"#utility.yul\":8739:8756   */\n      add\n        /* \"#utility.yul\":8732:8779   */\n      mstore\n        /* \"#utility.yul\":8796:8927   */\n      tag_247\n        /* \"#utility.yul\":8922:8926   */\n      dup2\n        /* \"#utility.yul\":8796:8927   */\n      tag_208\n      jump\t// in\n    tag_247:\n        /* \"#utility.yul\":8788:8927   */\n      swap1\n      pop\n        /* \"#utility.yul\":8515:8934   */\n      swap2\n      swap1\n      pop\n      jump\t// out\n        /* \"#utility.yul\":8940:9359   */\n    tag_123:\n        /* \"#utility.yul\":9106:9110   */\n      0x00\n        /* \"#utility.yul\":9144:9146   */\n      0x20\n        /* \"#utility.yul\":9133:9142   */\n      dup3\n        /* \"#utility.yul\":9129:9147   */\n      add\n        /* \"#utility.yul\":9121:9147   */\n      swap1\n      pop\n        /* \"#utility.yul\":9193:9202   */\n      dup2\n        /* \"#utility.yul\":9187:9191   */\n      dup2\n        /* \"#utility.yul\":9183:9203   */\n      sub\n        /* \"#utility.yul\":9179:9180   */\n      0x00\n        /* \"#utility.yul\":9168:9177   */\n      dup4\n        /* \"#utility.yul\":9164:9181   */\n      add\n        /* \"#utility.yul\":9157:9204   */\n      mstore\n        /* \"#utility.yul\":9221:9352   */\n      tag_249\n        /* \"#utility.yul\":9347:9351   */\n      dup2\n        /* \"#utility.yul\":9221:9352   */\n      tag_213\n      jump\t// in\n    tag_249:\n        /* \"#utility.yul\":9213:9352   */\n      swap1\n      pop\n        /* \"#utility.yul\":8940:9359   */\n      swap2\n      swap1\n      pop\n      jump\t// out\n        /* \"#utility.yul\":9365:9784   */\n    tag_110:\n        /* \"#utility.yul\":9531:9535   */\n      0x00\n        /* \"#utility.yul\":9569:9571   */\n      0x20\n        /* \"#utility.yul\":9558:9567   */\n      dup3\n        /* \"#utility.yul\":9554:9572   */\n      add\n        /* \"#utility.yul\":9546:9572   */\n      swap1\n      pop\n        /* \"#utility.yul\":9618:9627   */\n      dup2\n        /* \"#utility.yul\":9612:9616   */\n      dup2\n        /* \"#utility.yul\":9608:9628   */\n      sub\n        /* \"#utility.yul\":9604:9605   */\n      0x00\n        /* \"#utility.yul\":9593:9602   */\n      dup4\n        /* \"#utility.yul\":9589:9606   */\n      add\n        /* \"#utility.yul\":9582:9629   */\n      mstore\n        /* \"#utility.yul\":9646:9777   */\n      tag_251\n        /* \"#utility.yul\":9772:9776   */\n      dup2\n        /* \"#utility.yul\":9646:9777   */\n      tag_218\n      jump\t// in\n    tag_251:\n        /* \"#utility.yul\":9638:9777   */\n      swap1\n      pop\n        /* \"#utility.yul\":9365:9784   */\n      swap2\n      swap1\n      pop\n      jump\t// out\n        /* \"#utility.yul\":9790:10209   */\n    tag_106:\n        /* \"#utility.yul\":9956:9960   */\n      0x00\n        /* \"#utility.yul\":9994:9996   */\n      0x20\n        /* \"#utility.yul\":9983:9992   */\n      dup3\n        /* \"#utility.yul\":9979:9997   */\n      add\n        /* \"#utility.yul\":9971:9997   */\n      swap1\n      pop\n        /* \"#utility.yul\":10043:10052   */\n      dup2\n        /* \"#utility.yul\":10037:10041   */\n      dup2\n        /* \"#utility.yul\":10033:10053   */\n      sub\n        /* \"#utility.yul\":10029:10030   */\n      0x00\n        /* \"#utility.yul\":10018:10027   */\n      dup4\n        /* \"#utility.yul\":10014:10031   */\n      add\n        /* \"#utility.yul\":10007:10054   */\n      mstore\n        /* \"#utility.yul\":10071:10202   */\n      tag_253\n        /* \"#utility.yul\":10197:10201   */\n      dup2\n        /* \"#utility.yul\":10071:10202   */\n      tag_223\n      jump\t// in\n    tag_253:\n        /* \"#utility.yul\":10063:10202   */\n      swap1\n      pop\n        /* \"#utility.yul\":9790:10209   */\n      swap2\n      swap1\n      pop\n      jump\t// out\n        /* \"#utility.yul\":10215:10437   */\n    tag_31:\n        /* \"#utility.yul\":10308:10312   */\n      0x00\n        /* \"#utility.yul\":10346:10348   */\n      0x20\n        /* \"#utility.yul\":10335:10344   */\n      dup3\n        /* \"#utility.yul\":10331:10349   */\n      add\n        /* \"#utility.yul\":10323:10349   */\n      swap1\n      pop\n        /* \"#utility.yul\":10359:10430   */\n      tag_255\n        /* \"#utility.yul\":10427:10428   */\n      0x00\n        /* \"#utility.yul\":10416:10425   */\n      dup4\n        /* \"#utility.yul\":10412:10429   */\n      add\n        /* \"#utility.yul\":10403:10409   */\n      dup5\n        /* \"#utility.yul\":10359:10430   */\n      tag_228\n      jump\t// in\n    tag_255:\n        /* \"#utility.yul\":10215:10437   */\n      swap3\n      swap2\n      pop\n      pop\n      jump\t// out\n        /* \"#utility.yul\":10443:10775   */\n    tag_25:\n        /* \"#utility.yul\":10564:10568   */\n      0x00\n        /* \"#utility.yul\":10602:10604   */\n      0x40\n        /* \"#utility.yul\":10591:10600   */\n      dup3\n        /* \"#utility.yul\":10587:10605   */\n      add\n        /* \"#utility.yul\":10579:10605   */\n      swap1\n      pop\n        /* \"#utility.yul\":10615:10686   */\n      tag_257\n        /* \"#utility.yul\":10683:10684   */\n      0x00\n        /* \"#utility.yul\":10672:10681   */\n      dup4\n        /* \"#utility.yul\":10668:10685   */\n      add\n        /* \"#utility.yul\":10659:10665   */\n      dup6\n        /* \"#utility.yul\":10615:10686   */\n      tag_228\n      jump\t// in\n    tag_257:\n        /* \"#utility.yul\":10696:10768   */\n      tag_258\n        /* \"#utility.yul\":10764:10766   */\n      0x20\n        /* \"#utility.yul\":10753:10762   */\n      dup4\n        /* \"#utility.yul\":10749:10767   */\n      add\n        /* \"#utility.yul\":10740:10746   */\n      dup5\n        /* \"#utility.yul\":10696:10768   */\n      tag_228\n      jump\t// in\n    tag_258:\n        /* \"#utility.yul\":10443:10775   */\n      swap4\n      swap3\n      pop\n      pop\n      pop\n      jump\t// out\n        /* \"#utility.yul\":10862:11031   */\n    tag_180:\n        /* \"#utility.yul\":10946:10957   */\n      0x00\n        /* \"#utility.yul\":10980:10986   */\n      dup3\n        /* \"#utility.yul\":10975:10978   */\n      dup3\n        /* \"#utility.yul\":10968:10987   */\n      mstore\n        /* \"#utility.yul\":11020:11024   */\n      0x20\n        /* \"#utility.yul\":11015:11018   */\n      dup3\n        /* \"#utility.yul\":11011:11025   */\n      add\n        /* \"#utility.yul\":10996:11025   */\n      swap1\n      pop\n        /* \"#utility.yul\":10862:11031   */\n      swap3\n      swap2\n      pop\n      pop\n      jump\t// out\n        /* \"#utility.yul\":11037:11342   */\n    tag_80:\n        /* \"#utility.yul\":11077:11080   */\n      0x00\n        /* \"#utility.yul\":11096:11116   */\n      tag_263\n        /* \"#utility.yul\":11114:11115   */\n      dup3\n        /* \"#utility.yul\":11096:11116   */\n      tag_231\n      jump\t// in\n    tag_263:\n        /* \"#utility.yul\":11091:11116   */\n      swap2\n      pop\n        /* \"#utility.yul\":11130:11150   */\n      tag_264\n        /* \"#utility.yul\":11148:11149   */\n      dup4\n        /* \"#utility.yul\":11130:11150   */\n      tag_231\n      jump\t// in\n    tag_264:\n        /* \"#utility.yul\":11125:11150   */\n      swap3\n      pop\n        /* \"#utility.yul\":11284:11285   */\n      dup3\n        /* \"#utility.yul\":11216:11282   */\n      0xffffffffffffffffffffffffffffffffffffffffffffffffffffffffffffffff\n        /* \"#utility.yul\":11212:11286   */\n      sub\n        /* \"#utility.yul\":11209:11210   */\n      dup3\n        /* \"#utility.yul\":11206:11287   */\n      gt\n        /* \"#utility.yul\":11203:11310   */\n      iszero\n      tag_265\n      jumpi\n        /* \"#utility.yul\":11290:11308   */\n      tag_266\n      tag_267\n      jump\t// in\n    tag_266:\n        /* \"#utility.yul\":11203:11310   */\n    tag_265:\n        /* \"#utility.yul\":11334:11335   */\n      dup3\n        /* \"#utility.yul\":11331:11332   */\n      dup3\n        /* \"#utility.yul\":11327:11336   */\n      add\n        /* \"#utility.yul\":11320:11336   */\n      swap1\n      pop\n        /* \"#utility.yul\":11037:11342   */\n      swap3\n      swap2\n      pop\n      pop\n      jump\t// out\n        /* \"#utility.yul\":11348:11533   */\n    tag_84:\n        /* \"#utility.yul\":11388:11389   */\n      0x00\n        /* \"#utility.yul\":11405:11425   */\n      tag_269\n        /* \"#utility.yul\":11423:11424   */\n      dup3\n        /* \"#utility.yul\":11405:11425   */\n      tag_231\n      jump\t// in\n    tag_269:\n        /* \"#utility.yul\":11400:11425   */\n      swap2\n      pop\n        /* \"#utility.yul\":11439:11459   */\n      tag_270\n        /* \"#utility.yul\":11457:11458   */\n      dup4\n        /* \"#utility.yul\":11439:11459   */\n      tag_231\n      jump\t// in\n    tag_270:\n        /* \"#utility.yul\":11434:11459   */\n      swap3\n      pop\n        /* \"#utility.yul\":11478:11479   */\n      dup3\n        /* \"#utility.yul\":11468:11503   */\n      tag_271\n      jumpi\n        /* \"#utility.yul\":11483:11501   */\n      tag_272\n      tag_273\n      jump\t// in\n    tag_272:\n        /* \"#utility.yul\":11468:11503   */\n    tag_271:\n        /* \"#utility.yul\":11525:11526   */\n      dup3\n        /* \"#utility.yul\":11522:11523   */\n      dup3\n        /* \"#utility.yul\":11518:11527   */\n      div\n        /* \"#utility.yul\":11513:11527   */\n      swap1\n      pop\n        /* \"#utility.yul\":11348:11533   */\n      swap3\n      swap2\n      pop\n      pop\n      jump\t// out\n        /* \"#utility.yul\":11539:11887   */\n    tag_82:\n        /* \"#utility.yul\":11579:11586   */\n      0x00\n        /* \"#utility.yul\":11602:11622   */\n      tag_275\n        /* \"#utility.yul\":11620:11621   */\n      dup3\n        /* \"#utility.yul\":11602:11622   */\n      tag_231\n      jump\t// in\n    tag_275:\n        /* \"#utility.yul\":11597:11622   */\n      swap2\n      pop\n        /* \"#utility.yul\":11636:11656   */\n      tag_276\n        /* \"#utility.yul\":11654:11655   */\n      dup4\n        /* \"#utility.yul\":11636:11656   */\n      tag_231\n      jump\t// in\n    tag_276:\n        /* \"#utility.yul\":11631:11656   */\n      swap3\n      pop\n        /* \"#utility.yul\":11824:11825   */\n      dup2\n        /* \"#utility.yul\":11756:11822   */\n      0xffffffffffffffffffffffffffffffffffffffffffffffffffffffffffffffff\n        /* \"#utility.yul\":11752:11826   */\n      div\n        /* \"#utility.yul\":11749:11750   */\n      dup4\n        /* \"#utility.yul\":11746:11827   */\n      gt\n        /* \"#utility.yul\":11741:11742   */\n      dup3\n        /* \"#utility.yul\":11734:11743   */\n      iszero\n        /* \"#utility.yul\":11727:11744   */\n      iszero\n        /* \"#utility.yul\":11723:11828   */\n      and\n        /* \"#utility.yul\":11720:11851   */\n      iszero\n      tag_277\n      jumpi\n        /* \"#utility.yul\":11831:11849   */\n      tag_278\n      tag_267\n      jump\t// in\n    tag_278:\n        /* \"#utility.yul\":11720:11851   */\n    tag_277:\n        /* \"#utility.yul\":11879:11880   */\n      dup3\n        /* \"#utility.yul\":11876:11877   */\n      dup3\n        /* \"#utility.yul\":11872:11881   */\n      mul\n        /* \"#utility.yul\":11861:11881   */\n      swap1\n      pop\n        /* \"#utility.yul\":11539:11887   */\n      swap3\n      swap2\n      pop\n      pop\n      jump\t// out\n        /* \"#utility.yul\":11893:12084   */\n    tag_87:\n        /* \"#utility.yul\":11933:11937   */\n      0x00\n        /* \"#utility.yul\":11953:11973   */\n      tag_280\n        /* \"#utility.yul\":11971:11972   */\n      dup3\n        /* \"#utility.yul\":11953:11973   */\n      tag_231\n      jump\t// in\n    tag_280:\n        /* \"#utility.yul\":11948:11973   */\n      swap2\n      pop\n        /* \"#utility.yul\":11987:12007   */\n      tag_281\n        /* \"#utility.yul\":12005:12006   */\n      dup4\n        /* \"#utility.yul\":11987:12007   */\n      tag_231\n      jump\t// in\n    tag_281:\n        /* \"#utility.yul\":11982:12007   */\n      swap3\n      pop\n        /* \"#utility.yul\":12026:12027   */\n      dup3\n        /* \"#utility.yul\":12023:12024   */\n      dup3\n        /* \"#utility.yul\":12020:12028   */\n      lt\n        /* \"#utility.yul\":12017:12051   */\n      iszero\n      tag_282\n      jumpi\n        /* \"#utility.yul\":12031:12049   */\n      tag_283\n      tag_267\n      jump\t// in\n    tag_283:\n        /* \"#utility.yul\":12017:12051   */\n    tag_282:\n        /* \"#utility.yul\":12076:12077   */\n      dup3\n        /* \"#utility.yul\":12073:12074   */\n      dup3\n        /* \"#utility.yul\":12069:12078   */\n      sub\n        /* \"#utility.yul\":12061:12078   */\n      swap1\n      pop\n        /* \"#utility.yul\":11893:12084   */\n      swap3\n      swap2\n      pop\n      pop\n      jump\t// out\n        /* \"#utility.yul\":12090:12186   */\n    tag_176:\n        /* \"#utility.yul\":12127:12134   */\n      0x00\n        /* \"#utility.yul\":12156:12180   */\n      tag_285\n        /* \"#utility.yul\":12174:12179   */\n      dup3\n        /* \"#utility.yul\":12156:12180   */\n      tag_286\n      jump\t// in\n    tag_285:\n        /* \"#utility.yul\":12145:12180   */\n      swap1\n      pop\n        /* \"#utility.yul\":12090:12186   */\n      swap2\n      swap1\n      pop\n      jump\t// out\n        /* \"#utility.yul\":12192:12296   */\n    tag_287:\n        /* \"#utility.yul\":12237:12244   */\n      0x00\n        /* \"#utility.yul\":12266:12290   */\n      tag_289\n        /* \"#utility.yul\":12284:12289   */\n      dup3\n        /* \"#utility.yul\":12266:12290   */\n      tag_286\n      jump\t// in\n    tag_289:\n        /* \"#utility.yul\":12255:12290   */\n      swap1\n      pop\n        /* \"#utility.yul\":12192:12296   */\n      swap2\n      swap1\n      pop\n      jump\t// out\n        /* \"#utility.yul\":12302:12428   */\n    tag_286:\n        /* \"#utility.yul\":12339:12346   */\n      0x00\n        /* \"#utility.yul\":12379:12421   */\n      0xffffffffffffffffffffffffffffffffffffffff\n        /* \"#utility.yul\":12372:12377   */\n      dup3\n        /* \"#utility.yul\":12368:12422   */\n      and\n        /* \"#utility.yul\":12357:12422   */\n      swap1\n      pop\n        /* \"#utility.yul\":12302:12428   */\n      swap2\n      swap1\n      pop\n      jump\t// out\n        /* \"#utility.yul\":12434:12511   */\n    tag_231:\n        /* \"#utility.yul\":12471:12478   */\n      0x00\n        /* \"#utility.yul\":12500:12505   */\n      dup2\n        /* \"#utility.yul\":12489:12505   */\n      swap1\n      pop\n        /* \"#utility.yul\":12434:12511   */\n      swap2\n      swap1\n      pop\n      jump\t// out\n        /* \"#utility.yul\":12517:12697   */\n    tag_267:\n        /* \"#utility.yul\":12565:12642   */\n      0x4e487b7100000000000000000000000000000000000000000000000000000000\n        /* \"#utility.yul\":12562:12563   */\n      0x00\n        /* \"#utility.yul\":12555:12643   */\n      mstore\n        /* \"#utility.yul\":12662:12666   */\n      0x11\n        /* \"#utility.yul\":12659:12660   */\n      0x04\n        /* \"#utility.yul\":12652:12667   */\n      mstore\n        /* \"#utility.yul\":12686:12690   */\n      0x24\n        /* \"#utility.yul\":12683:12684   */\n      0x00\n        /* \"#utility.yul\":12676:12691   */\n      revert\n        /* \"#utility.yul\":12703:12883   */\n    tag_273:\n        /* \"#utility.yul\":12751:12828   */\n      0x4e487b7100000000000000000000000000000000000000000000000000000000\n        /* \"#utility.yul\":12748:12749   */\n      0x00\n        /* \"#utility.yul\":12741:12829   */\n      mstore\n        /* \"#utility.yul\":12848:12852   */\n      0x12\n        /* \"#utility.yul\":12845:12846   */\n      0x04\n        /* \"#utility.yul\":12838:12853   */\n      mstore\n        /* \"#utility.yul\":12872:12876   */\n      0x24\n        /* \"#utility.yul\":12869:12870   */\n      0x00\n        /* \"#utility.yul\":12862:12877   */\n      revert\n        /* \"#utility.yul\":13012:13129   */\n    tag_161:\n        /* \"#utility.yul\":13121:13122   */\n      0x00\n        /* \"#utility.yul\":13118:13119   */\n      dup1\n        /* \"#utility.yul\":13111:13123   */\n      revert\n        /* \"#utility.yul\":13135:13362   */\n    tag_182:\n        /* \"#utility.yul\":13275:13309   */\n      0x5468657265206973206e6f206d6f6e657920696e207468652077616c6c657420\n        /* \"#utility.yul\":13271:13272   */\n      0x00\n        /* \"#utility.yul\":13263:13269   */\n      dup3\n        /* \"#utility.yul\":13259:13273   */\n      add\n        /* \"#utility.yul\":13252:13310   */\n      mstore\n        /* \"#utility.yul\":13344:13354   */\n      0x746f20636c61696d000000000000000000000000000000000000000000000000\n        /* \"#utility.yul\":13339:13341   */\n      0x20\n        /* \"#utility.yul\":13331:13337   */\n      dup3\n        /* \"#utility.yul\":13327:13342   */\n      add\n        /* \"#utility.yul\":13320:13355   */\n      mstore\n        /* \"#utility.yul\":13135:13362   */\n      pop\n      jump\t// out\n        /* \"#utility.yul\":13368:13593   */\n    tag_187:\n        /* \"#utility.yul\":13508:13542   */\n      0x4f776e61626c653a206e6577206f776e657220697320746865207a65726f2061\n        /* \"#utility.yul\":13504:13505   */\n      0x00\n        /* \"#utility.yul\":13496:13502   */\n      dup3\n        /* \"#utility.yul\":13492:13506   */\n      add\n        /* \"#utility.yul\":13485:13543   */\n      mstore\n        /* \"#utility.yul\":13577:13585   */\n      0x6464726573730000000000000000000000000000000000000000000000000000\n        /* \"#utility.yul\":13572:13574   */\n      0x20\n        /* \"#utility.yul\":13564:13570   */\n      dup3\n        /* \"#utility.yul\":13560:13575   */\n      add\n        /* \"#utility.yul\":13553:13586   */\n      mstore\n        /* \"#utility.yul\":13368:13593   */\n      pop\n      jump\t// out\n        /* \"#utility.yul\":13599:13829   */\n    tag_192:\n        /* \"#utility.yul\":13739:13773   */\n      0x546865206f776e65722073686f756c6420757365206f776e6572576974686472\n        /* \"#utility.yul\":13735:13736   */\n      0x00\n        /* \"#utility.yul\":13727:13733   */\n      dup3\n        /* \"#utility.yul\":13723:13737   */\n      add\n        /* \"#utility.yul\":13716:13774   */\n      mstore\n        /* \"#utility.yul\":13808:13821   */\n      0x61772066756e6374696f6e000000000000000000000000000000000000000000\n        /* \"#utility.yul\":13803:13805   */\n      0x20\n        /* \"#utility.yul\":13795:13801   */\n      dup3\n        /* \"#utility.yul\":13791:13806   */\n      add\n        /* \"#utility.yul\":13784:13822   */\n      mstore\n        /* \"#utility.yul\":13599:13829   */\n      pop\n      jump\t// out\n        /* \"#utility.yul\":13835:14007   */\n    tag_197:\n        /* \"#utility.yul\":13975:13999   */\n      0x54686520616d6f756e7420697320746f6f206869676800000000000000000000\n        /* \"#utility.yul\":13971:13972   */\n      0x00\n        /* \"#utility.yul\":13963:13969   */\n      dup3\n        /* \"#utility.yul\":13959:13973   */\n      add\n        /* \"#utility.yul\":13952:14000   */\n      mstore\n        /* \"#utility.yul\":13835:14007   */\n      pop\n      jump\t// out\n        /* \"#utility.yul\":14013:14192   */\n    tag_202:\n        /* \"#utility.yul\":14153:14184   */\n      0x596f7520646f206e6f74206861766520616e7920616c6c6f77616e6365000000\n        /* \"#utility.yul\":14149:14150   */\n      0x00\n        /* \"#utility.yul\":14141:14147   */\n      dup3\n        /* \"#utility.yul\":14137:14151   */\n      add\n        /* \"#utility.yul\":14130:14185   */\n      mstore\n        /* \"#utility.yul\":14013:14192   */\n      pop\n      jump\t// out\n        /* \"#utility.yul\":14198:14380   */\n    tag_207:\n        /* \"#utility.yul\":14338:14372   */\n      0x4f776e61626c653a2063616c6c6572206973206e6f7420746865206f776e6572\n        /* \"#utility.yul\":14334:14335   */\n      0x00\n        /* \"#utility.yul\":14326:14332   */\n      dup3\n        /* \"#utility.yul\":14322:14336   */\n      add\n        /* \"#utility.yul\":14315:14373   */\n      mstore\n        /* \"#utility.yul\":14198:14380   */\n      pop\n      jump\t// out\n        /* \"#utility.yul\":14386:14615   */\n    tag_212:\n        /* \"#utility.yul\":14526:14560   */\n      0x416e20616c6c6f77616e6365206973206e6f7420726571756972656420666f72\n        /* \"#utility.yul\":14522:14523   */\n      0x00\n        /* \"#utility.yul\":14514:14520   */\n      dup3\n        /* \"#utility.yul\":14510:14524   */\n      add\n        /* \"#utility.yul\":14503:14561   */\n      mstore\n        /* \"#utility.yul\":14595:14607   */\n      0x20746865206f776e657200000000000000000000000000000000000000000000\n        /* \"#utility.yul\":14590:14592   */\n      0x20\n        /* \"#utility.yul\":14582:14588   */\n      dup3\n        /* \"#utility.yul\":14578:14593   */\n      add\n        /* \"#utility.yul\":14571:14608   */\n      mstore\n        /* \"#utility.yul\":14386:14615   */\n      pop\n      jump\t// out\n        /* \"#utility.yul\":14621:14846   */\n    tag_217:\n        /* \"#utility.yul\":14761:14795   */\n      0x416d6f756e74206973206c6172676572207468616e20636f6e74726163742062\n        /* \"#utility.yul\":14757:14758   */\n      0x00\n        /* \"#utility.yul\":14749:14755   */\n      dup3\n        /* \"#utility.yul\":14745:14759   */\n      add\n        /* \"#utility.yul\":14738:14796   */\n      mstore\n        /* \"#utility.yul\":14830:14838   */\n      0x616c616e63650000000000000000000000000000000000000000000000000000\n        /* \"#utility.yul\":14825:14827   */\n      0x20\n        /* \"#utility.yul\":14817:14823   */\n      dup3\n        /* \"#utility.yul\":14813:14828   */\n      add\n        /* \"#utility.yul\":14806:14839   */\n      mstore\n        /* \"#utility.yul\":14621:14846   */\n      pop\n      jump\t// out\n        /* \"#utility.yul\":14852:15078   */\n    tag_222:\n        /* \"#utility.yul\":14992:15026   */\n      0x5468697320776f756c64206f7665722d616c6c6f636174652074686520616c6c\n        /* \"#utility.yul\":14988:14989   */\n      0x00\n        /* \"#utility.yul\":14980:14986   */\n      dup3\n        /* \"#utility.yul\":14976:14990   */\n      add\n        /* \"#utility.yul\":14969:15027   */\n      mstore\n        /* \"#utility.yul\":15061:15070   */\n      0x6f77616e63657300000000000000000000000000000000000000000000000000\n        /* \"#utility.yul\":15056:15058   */\n      0x20\n        /* \"#utility.yul\":15048:15054   */\n      dup3\n        /* \"#utility.yul\":15044:15059   */\n      add\n        /* \"#utility.yul\":15037:15071   */\n      mstore\n        /* \"#utility.yul\":14852:15078   */\n      pop\n      jump\t// out\n        /* \"#utility.yul\":15084:15307   */\n    tag_227:\n        /* \"#utility.yul\":15224:15258   */\n      0x546865206164647265737320616c72656164792068617320616e20616c6c6f77\n        /* \"#utility.yul\":15220:15221   */\n      0x00\n        /* \"#utility.yul\":15212:15218   */\n      dup3\n        /* \"#utility.yul\":15208:15222   */\n      add\n        /* \"#utility.yul\":15201:15259   */\n      mstore\n        /* \"#utility.yul\":15293:15299   */\n      0x616e636500000000000000000000000000000000000000000000000000000000\n        /* \"#utility.yul\":15288:15290   */\n      0x20\n        /* \"#utility.yul\":15280:15286   */\n      dup3\n        /* \"#utility.yul\":15276:15291   */\n      add\n        /* \"#utility.yul\":15269:15300   */\n      mstore\n        /* \"#utility.yul\":15084:15307   */\n      pop\n      jump\t// out\n        /* \"#utility.yul\":15313:15435   */\n    tag_149:\n        /* \"#utility.yul\":15386:15410   */\n      tag_308\n        /* \"#utility.yul\":15404:15409   */\n      dup2\n        /* \"#utility.yul\":15386:15410   */\n      tag_176\n      jump\t// in\n    tag_308:\n        /* \"#utility.yul\":15379:15384   */\n      dup2\n        /* \"#utility.yul\":15376:15411   */\n      eq\n        /* \"#utility.yul\":15366:15429   */\n      tag_309\n      jumpi\n        /* \"#utility.yul\":15425:15426   */\n      0x00\n        /* \"#utility.yul\":15422:15423   */\n      dup1\n        /* \"#utility.yul\":15415:15427   */\n      revert\n        /* \"#utility.yul\":15366:15429   */\n    tag_309:\n        /* \"#utility.yul\":15313:15435   */\n      pop\n      jump\t// out\n        /* \"#utility.yul\":15441:15579   */\n    tag_153:\n        /* \"#utility.yul\":15522:15554   */\n      tag_311\n        /* \"#utility.yul\":15548:15553   */\n      dup2\n        /* \"#utility.yul\":15522:15554   */\n      tag_287\n      jump\t// in\n    tag_311:\n        /* \"#utility.yul\":15515:15520   */\n      dup2\n        /* \"#utility.yul\":15512:15555   */\n      eq\n        /* \"#utility.yul\":15502:15573   */\n      tag_312\n      jumpi\n        /* \"#utility.yul\":15569:15570   */\n      0x00\n        /* \"#utility.yul\":15566:15567   */\n      dup1\n        /* \"#utility.yul\":15559:15571   */\n      revert\n        /* \"#utility.yul\":15502:15573   */\n    tag_312:\n        /* \"#utility.yul\":15441:15579   */\n      pop\n      jump\t// out\n        /* \"#utility.yul\":15585:15707   */\n    tag_157:\n        /* \"#utility.yul\":15658:15682   */\n      tag_314\n        /* \"#utility.yul\":15676:15681   */\n      dup2\n        /* \"#utility.yul\":15658:15682   */\n      tag_231\n      jump\t// in\n    tag_314:\n        /* \"#utility.yul\":15651:15656   */\n      dup2\n        /* \"#utility.yul\":15648:15683   */\n      eq\n        /* \"#utility.yul\":15638:15701   */\n      tag_315\n      jumpi\n        /* \"#utility.yul\":15697:15698   */\n      0x00\n        /* \"#utility.yul\":15694:15695   */\n      dup1\n        /* \"#utility.yul\":15687:15699   */\n      revert\n        /* \"#utility.yul\":15638:15701   */\n    tag_315:\n        /* \"#utility.yul\":15585:15707   */\n      pop\n      jump\t// out\n\n    auxdata: 0xa2646970667358221220b5dc3116692b74d3c3e5d5f76d32bd1fc4dd280796a9e0152668109a73ed6cab64736f6c63430008070033\n}\n",
				"bytecode": {
					"linkReferences": {},
					"object": "608060405234801561001057600080fd5b5061002d61002261003260201b60201c565b61003a60201b60201c565b6100fe565b600033905090565b60008060009054906101000a900473ffffffffffffffffffffffffffffffffffffffff169050816000806101000a81548173ffffffffffffffffffffffffffffffffffffffff021916908373ffffffffffffffffffffffffffffffffffffffff1602179055508173ffffffffffffffffffffffffffffffffffffffff168173ffffffffffffffffffffffffffffffffffffffff167f8be0079c531659141344cd1fd0a4f28419497f9722a3daafe3b4186f6b6457e060405160405180910390a35050565b6113738061010d6000396000f3fe6080604052600436106100a05760003560e01c806341c613831161006457806341c6138314610179578063715018a6146101a45780638b7afe2e146101bb5780638da5cb5b146101e6578063d9c88e1414610211578063f2fde38b1461023a576100af565b806301567739146100b457806305737314146100f257806316a51305146100fc5780632d70db2f146101275780633e7279a314610150576100af565b366100af576100ad610263565b005b600080fd5b3480156100c057600080fd5b506100db60048036038101906100d69190610ab5565b61026c565b6040516100e9929190610e54565b60405180910390f35b6100fa610263565b005b34801561010857600080fd5b50610111610290565b60405161011e9190610e39565b60405180910390f35b34801561013357600080fd5b5061014e60048036038101906101499190610ae2565b610296565b005b34801561015c57600080fd5b5061017760048036038101906101729190610b22565b6105c2565b005b34801561018557600080fd5b5061018e61077a565b60405161019b9190610e39565b60405180910390f35b3480156101b057600080fd5b506101b9610780565b005b3480156101c757600080fd5b506101d0610794565b6040516101dd9190610e39565b60405180910390f35b3480156101f257600080fd5b506101fb61079a565b6040516102089190610cde565b60405180910390f35b34801561021d57600080fd5b5061023860048036038101906102339190610ae2565b6107c3565b005b34801561024657600080fd5b50610261600480360381019061025c9190610ab5565b61086b565b005b47600481905550565b60016020528060005260406000206000915090508060000154908060010154905082565b60025481565b61029e6108ef565b156102de576040517f08c379a00000000000000000000000000000000000000000000000000000000081526004016102d590610d39565b60405180910390fd5b60004711610321576040517f08c379a000000000000000000000000000000000000000000000000000000000815260040161031890610cf9565b60405180910390fd5b6000600160003373ffffffffffffffffffffffffffffffffffffffff1673ffffffffffffffffffffffffffffffffffffffff16815260200190815260200160002060000154116103a6576040517f08c379a000000000000000000000000000000000000000000000000000000000815260040161039d90610d79565b60405180910390fd5b60006064600354476103b89190610e8e565b600160003373ffffffffffffffffffffffffffffffffffffffff1673ffffffffffffffffffffffffffffffffffffffff168152602001908152602001600020600001546104059190610f15565b61040f9190610ee4565b90506000600160003373ffffffffffffffffffffffffffffffffffffffff1673ffffffffffffffffffffffffffffffffffffffff168152602001908152602001600020600101548211156104ae57600160003373ffffffffffffffffffffffffffffffffffffffff1673ffffffffffffffffffffffffffffffffffffffff16815260200190815260200160002060010154826104ab9190610f6f565b90505b808311156104f1576040517f08c379a00000000000000000000000000000000000000000000000000000000081526004016104e890610d59565b60405180910390fd5b82600160003373ffffffffffffffffffffffffffffffffffffffff1673ffffffffffffffffffffffffffffffffffffffff16815260200190815260200160002060010160008282546105439190610e8e565b92505081905550826003600082825461055c9190610e8e565b92505081905550824761056f9190610f6f565b6004819055508373ffffffffffffffffffffffffffffffffffffffff166108fc849081150290604051600060405180830381858888f193505050501580156105bb573d6000803e3d6000fd5b5050505050565b6105ca61092c565b6105d261079a565b73ffffffffffffffffffffffffffffffffffffffff168273ffffffffffffffffffffffffffffffffffffffff161415610640576040517f08c379a000000000000000000000000000000000000000000000000000000000815260040161063790610db9565b60405180910390fd5b6000600160008473ffffffffffffffffffffffffffffffffffffffff1673ffffffffffffffffffffffffffffffffffffffff16815260200190815260200160002060000154146106c5576040517f08c379a00000000000000000000000000000000000000000000000000000000081526004016106bc90610e19565b60405180910390fd5b6064816002546106d59190610e8e565b1115610716576040517f08c379a000000000000000000000000000000000000000000000000000000000815260040161070d90610df9565b60405180910390fd5b80600160008473ffffffffffffffffffffffffffffffffffffffff1673ffffffffffffffffffffffffffffffffffffffff16815260200190815260200160002060000181905550806002600082825461076f9190610e8e565b925050819055505050565b60035481565b61078861092c565b61079260006109aa565b565b60045481565b60008060009054906101000a900473ffffffffffffffffffffffffffffffffffffffff16905090565b6107cb61092c565b4781111561080e576040517f08c379a000000000000000000000000000000000000000000000000000000000815260040161080590610dd9565b60405180910390fd5b804761081a9190610f6f565b6004819055508173ffffffffffffffffffffffffffffffffffffffff166108fc829081150290604051600060405180830381858888f19350505050158015610866573d6000803e3d6000fd5b505050565b61087361092c565b600073ffffffffffffffffffffffffffffffffffffffff168173ffffffffffffffffffffffffffffffffffffffff1614156108e3576040517f08c379a00000000000000000000000000000000000000000000000000000000081526004016108da90610d19565b60405180910390fd5b6108ec816109aa565b50565b60003373ffffffffffffffffffffffffffffffffffffffff1661091061079a565b73ffffffffffffffffffffffffffffffffffffffff1614905090565b610934610a6e565b73ffffffffffffffffffffffffffffffffffffffff1661095261079a565b73ffffffffffffffffffffffffffffffffffffffff16146109a8576040517f08c379a000000000000000000000000000000000000000000000000000000000815260040161099f90610d99565b60405180910390fd5b565b60008060009054906101000a900473ffffffffffffffffffffffffffffffffffffffff169050816000806101000a81548173ffffffffffffffffffffffffffffffffffffffff021916908373ffffffffffffffffffffffffffffffffffffffff1602179055508173ffffffffffffffffffffffffffffffffffffffff168173ffffffffffffffffffffffffffffffffffffffff167f8be0079c531659141344cd1fd0a4f28419497f9722a3daafe3b4186f6b6457e060405160405180910390a35050565b600033905090565b600081359050610a85816112f8565b92915050565b600081359050610a9a8161130f565b92915050565b600081359050610aaf81611326565b92915050565b600060208284031215610acb57610aca61104f565b5b6000610ad984828501610a76565b91505092915050565b60008060408385031215610af957610af861104f565b5b6000610b0785828601610a8b565b9250506020610b1885828601610aa0565b9150509250929050565b60008060408385031215610b3957610b3861104f565b5b6000610b4785828601610a76565b9250506020610b5885828601610aa0565b9150509250929050565b610b6b81610fa3565b82525050565b6000610b7e602883610e7d565b9150610b8982611054565b604082019050919050565b6000610ba1602683610e7d565b9150610bac826110a3565b604082019050919050565b6000610bc4602b83610e7d565b9150610bcf826110f2565b604082019050919050565b6000610be7601683610e7d565b9150610bf282611141565b602082019050919050565b6000610c0a601d83610e7d565b9150610c158261116a565b602082019050919050565b6000610c2d602083610e7d565b9150610c3882611193565b602082019050919050565b6000610c50602a83610e7d565b9150610c5b826111bc565b604082019050919050565b6000610c73602683610e7d565b9150610c7e8261120b565b604082019050919050565b6000610c96602783610e7d565b9150610ca18261125a565b604082019050919050565b6000610cb9602483610e7d565b9150610cc4826112a9565b604082019050919050565b610cd881610fe7565b82525050565b6000602082019050610cf36000830184610b62565b92915050565b60006020820190508181036000830152610d1281610b71565b9050919050565b60006020820190508181036000830152610d3281610b94565b9050919050565b60006020820190508181036000830152610d5281610bb7565b9050919050565b60006020820190508181036000830152610d7281610bda565b9050919050565b60006020820190508181036000830152610d9281610bfd565b9050919050565b60006020820190508181036000830152610db281610c20565b9050919050565b60006020820190508181036000830152610dd281610c43565b9050919050565b60006020820190508181036000830152610df281610c66565b9050919050565b60006020820190508181036000830152610e1281610c89565b9050919050565b60006020820190508181036000830152610e3281610cac565b9050919050565b6000602082019050610e4e6000830184610ccf565b92915050565b6000604082019050610e696000830185610ccf565b610e766020830184610ccf565b9392505050565b600082825260208201905092915050565b6000610e9982610fe7565b9150610ea483610fe7565b9250827fffffffffffffffffffffffffffffffffffffffffffffffffffffffffffffffff03821115610ed957610ed8610ff1565b5b828201905092915050565b6000610eef82610fe7565b9150610efa83610fe7565b925082610f0a57610f09611020565b5b828204905092915050565b6000610f2082610fe7565b9150610f2b83610fe7565b9250817fffffffffffffffffffffffffffffffffffffffffffffffffffffffffffffffff0483118215151615610f6457610f63610ff1565b5b828202905092915050565b6000610f7a82610fe7565b9150610f8583610fe7565b925082821015610f9857610f97610ff1565b5b828203905092915050565b6000610fae82610fc7565b9050919050565b6000610fc082610fc7565b9050919050565b600073ffffffffffffffffffffffffffffffffffffffff82169050919050565b6000819050919050565b7f4e487b7100000000000000000000000000000000000000000000000000000000600052601160045260246000fd5b7f4e487b7100000000000000000000000000000000000000000000000000000000600052601260045260246000fd5b600080fd5b7f5468657265206973206e6f206d6f6e657920696e207468652077616c6c65742060008201527f746f20636c61696d000000000000000000000000000000000000000000000000602082015250565b7f4f776e61626c653a206e6577206f776e657220697320746865207a65726f206160008201527f6464726573730000000000000000000000000000000000000000000000000000602082015250565b7f546865206f776e65722073686f756c6420757365206f776e657257697468647260008201527f61772066756e6374696f6e000000000000000000000000000000000000000000602082015250565b7f54686520616d6f756e7420697320746f6f206869676800000000000000000000600082015250565b7f596f7520646f206e6f74206861766520616e7920616c6c6f77616e6365000000600082015250565b7f4f776e61626c653a2063616c6c6572206973206e6f7420746865206f776e6572600082015250565b7f416e20616c6c6f77616e6365206973206e6f7420726571756972656420666f7260008201527f20746865206f776e657200000000000000000000000000000000000000000000602082015250565b7f416d6f756e74206973206c6172676572207468616e20636f6e7472616374206260008201527f616c616e63650000000000000000000000000000000000000000000000000000602082015250565b7f5468697320776f756c64206f7665722d616c6c6f636174652074686520616c6c60008201527f6f77616e63657300000000000000000000000000000000000000000000000000602082015250565b7f546865206164647265737320616c72656164792068617320616e20616c6c6f7760008201527f616e636500000000000000000000000000000000000000000000000000000000602082015250565b61130181610fa3565b811461130c57600080fd5b50565b61131881610fb5565b811461132357600080fd5b50565b61132f81610fe7565b811461133a57600080fd5b5056fea2646970667358221220b5dc3116692b74d3c3e5d5f76d32bd1fc4dd280796a9e0152668109a73ed6cab64736f6c63430008070033",
					"opcodes": "PUSH1 0x80 PUSH1 0x40 MSTORE CALLVALUE DUP1 ISZERO PUSH2 0x10 JUMPI PUSH1 0x0 DUP1 REVERT JUMPDEST POP PUSH2 0x2D PUSH2 0x22 PUSH2 0x32 PUSH1 0x20 SHL PUSH1 0x20 SHR JUMP JUMPDEST PUSH2 0x3A PUSH1 0x20 SHL PUSH1 0x20 SHR JUMP JUMPDEST PUSH2 0xFE JUMP JUMPDEST PUSH1 0x0 CALLER SWAP1 POP SWAP1 JUMP JUMPDEST PUSH1 0x0 DUP1 PUSH1 0x0 SWAP1 SLOAD SWAP1 PUSH2 0x100 EXP SWAP1 DIV PUSH20 0xFFFFFFFFFFFFFFFFFFFFFFFFFFFFFFFFFFFFFFFF AND SWAP1 POP DUP2 PUSH1 0x0 DUP1 PUSH2 0x100 EXP DUP2 SLOAD DUP2 PUSH20 0xFFFFFFFFFFFFFFFFFFFFFFFFFFFFFFFFFFFFFFFF MUL NOT AND SWAP1 DUP4 PUSH20 0xFFFFFFFFFFFFFFFFFFFFFFFFFFFFFFFFFFFFFFFF AND MUL OR SWAP1 SSTORE POP DUP2 PUSH20 0xFFFFFFFFFFFFFFFFFFFFFFFFFFFFFFFFFFFFFFFF AND DUP2 PUSH20 0xFFFFFFFFFFFFFFFFFFFFFFFFFFFFFFFFFFFFFFFF AND PUSH32 0x8BE0079C531659141344CD1FD0A4F28419497F9722A3DAAFE3B4186F6B6457E0 PUSH1 0x40 MLOAD PUSH1 0x40 MLOAD DUP1 SWAP2 SUB SWAP1 LOG3 POP POP JUMP JUMPDEST PUSH2 0x1373 DUP1 PUSH2 0x10D PUSH1 0x0 CODECOPY PUSH1 0x0 RETURN INVALID PUSH1 0x80 PUSH1 0x40 MSTORE PUSH1 0x4 CALLDATASIZE LT PUSH2 0xA0 JUMPI PUSH1 0x0 CALLDATALOAD PUSH1 0xE0 SHR DUP1 PUSH4 0x41C61383 GT PUSH2 0x64 JUMPI DUP1 PUSH4 0x41C61383 EQ PUSH2 0x179 JUMPI DUP1 PUSH4 0x715018A6 EQ PUSH2 0x1A4 JUMPI DUP1 PUSH4 0x8B7AFE2E EQ PUSH2 0x1BB JUMPI DUP1 PUSH4 0x8DA5CB5B EQ PUSH2 0x1E6 JUMPI DUP1 PUSH4 0xD9C88E14 EQ PUSH2 0x211 JUMPI DUP1 PUSH4 0xF2FDE38B EQ PUSH2 0x23A JUMPI PUSH2 0xAF JUMP JUMPDEST DUP1 PUSH4 0x1567739 EQ PUSH2 0xB4 JUMPI DUP1 PUSH4 0x5737314 EQ PUSH2 0xF2 JUMPI DUP1 PUSH4 0x16A51305 EQ PUSH2 0xFC JUMPI DUP1 PUSH4 0x2D70DB2F EQ PUSH2 0x127 JUMPI DUP1 PUSH4 0x3E7279A3 EQ PUSH2 0x150 JUMPI PUSH2 0xAF JUMP JUMPDEST CALLDATASIZE PUSH2 0xAF JUMPI PUSH2 0xAD PUSH2 0x263 JUMP JUMPDEST STOP JUMPDEST PUSH1 0x0 DUP1 REVERT JUMPDEST CALLVALUE DUP1 ISZERO PUSH2 0xC0 JUMPI PUSH1 0x0 DUP1 REVERT JUMPDEST POP PUSH2 0xDB PUSH1 0x4 DUP1 CALLDATASIZE SUB DUP2 ADD SWAP1 PUSH2 0xD6 SWAP2 SWAP1 PUSH2 0xAB5 JUMP JUMPDEST PUSH2 0x26C JUMP JUMPDEST PUSH1 0x40 MLOAD PUSH2 0xE9 SWAP3 SWAP2 SWAP1 PUSH2 0xE54 JUMP JUMPDEST PUSH1 0x40 MLOAD DUP1 SWAP2 SUB SWAP1 RETURN JUMPDEST PUSH2 0xFA PUSH2 0x263 JUMP JUMPDEST STOP JUMPDEST CALLVALUE DUP1 ISZERO PUSH2 0x108 JUMPI PUSH1 0x0 DUP1 REVERT JUMPDEST POP PUSH2 0x111 PUSH2 0x290 JUMP JUMPDEST PUSH1 0x40 MLOAD PUSH2 0x11E SWAP2 SWAP1 PUSH2 0xE39 JUMP JUMPDEST PUSH1 0x40 MLOAD DUP1 SWAP2 SUB SWAP1 RETURN JUMPDEST CALLVALUE DUP1 ISZERO PUSH2 0x133 JUMPI PUSH1 0x0 DUP1 REVERT JUMPDEST POP PUSH2 0x14E PUSH1 0x4 DUP1 CALLDATASIZE SUB DUP2 ADD SWAP1 PUSH2 0x149 SWAP2 SWAP1 PUSH2 0xAE2 JUMP JUMPDEST PUSH2 0x296 JUMP JUMPDEST STOP JUMPDEST CALLVALUE DUP1 ISZERO PUSH2 0x15C JUMPI PUSH1 0x0 DUP1 REVERT JUMPDEST POP PUSH2 0x177 PUSH1 0x4 DUP1 CALLDATASIZE SUB DUP2 ADD SWAP1 PUSH2 0x172 SWAP2 SWAP1 PUSH2 0xB22 JUMP JUMPDEST PUSH2 0x5C2 JUMP JUMPDEST STOP JUMPDEST CALLVALUE DUP1 ISZERO PUSH2 0x185 JUMPI PUSH1 0x0 DUP1 REVERT JUMPDEST POP PUSH2 0x18E PUSH2 0x77A JUMP JUMPDEST PUSH1 0x40 MLOAD PUSH2 0x19B SWAP2 SWAP1 PUSH2 0xE39 JUMP JUMPDEST PUSH1 0x40 MLOAD DUP1 SWAP2 SUB SWAP1 RETURN JUMPDEST CALLVALUE DUP1 ISZERO PUSH2 0x1B0 JUMPI PUSH1 0x0 DUP1 REVERT JUMPDEST POP PUSH2 0x1B9 PUSH2 0x780 JUMP JUMPDEST STOP JUMPDEST CALLVALUE DUP1 ISZERO PUSH2 0x1C7 JUMPI PUSH1 0x0 DUP1 REVERT JUMPDEST POP PUSH2 0x1D0 PUSH2 0x794 JUMP JUMPDEST PUSH1 0x40 MLOAD PUSH2 0x1DD SWAP2 SWAP1 PUSH2 0xE39 JUMP JUMPDEST PUSH1 0x40 MLOAD DUP1 SWAP2 SUB SWAP1 RETURN JUMPDEST CALLVALUE DUP1 ISZERO PUSH2 0x1F2 JUMPI PUSH1 0x0 DUP1 REVERT JUMPDEST POP PUSH2 0x1FB PUSH2 0x79A JUMP JUMPDEST PUSH1 0x40 MLOAD PUSH2 0x208 SWAP2 SWAP1 PUSH2 0xCDE JUMP JUMPDEST PUSH1 0x40 MLOAD DUP1 SWAP2 SUB SWAP1 RETURN JUMPDEST CALLVALUE DUP1 ISZERO PUSH2 0x21D JUMPI PUSH1 0x0 DUP1 REVERT JUMPDEST POP PUSH2 0x238 PUSH1 0x4 DUP1 CALLDATASIZE SUB DUP2 ADD SWAP1 PUSH2 0x233 SWAP2 SWAP1 PUSH2 0xAE2 JUMP JUMPDEST PUSH2 0x7C3 JUMP JUMPDEST STOP JUMPDEST CALLVALUE DUP1 ISZERO PUSH2 0x246 JUMPI PUSH1 0x0 DUP1 REVERT JUMPDEST POP PUSH2 0x261 PUSH1 0x4 DUP1 CALLDATASIZE SUB DUP2 ADD SWAP1 PUSH2 0x25C SWAP2 SWAP1 PUSH2 0xAB5 JUMP JUMPDEST PUSH2 0x86B JUMP JUMPDEST STOP JUMPDEST SELFBALANCE PUSH1 0x4 DUP2 SWAP1 SSTORE POP JUMP JUMPDEST PUSH1 0x1 PUSH1 0x20 MSTORE DUP1 PUSH1 0x0 MSTORE PUSH1 0x40 PUSH1 0x0 KECCAK256 PUSH1 0x0 SWAP2 POP SWAP1 POP DUP1 PUSH1 0x0 ADD SLOAD SWAP1 DUP1 PUSH1 0x1 ADD SLOAD SWAP1 POP DUP3 JUMP JUMPDEST PUSH1 0x2 SLOAD DUP2 JUMP JUMPDEST PUSH2 0x29E PUSH2 0x8EF JUMP JUMPDEST ISZERO PUSH2 0x2DE JUMPI PUSH1 0x40 MLOAD PUSH32 0x8C379A000000000000000000000000000000000000000000000000000000000 DUP2 MSTORE PUSH1 0x4 ADD PUSH2 0x2D5 SWAP1 PUSH2 0xD39 JUMP JUMPDEST PUSH1 0x40 MLOAD DUP1 SWAP2 SUB SWAP1 REVERT JUMPDEST PUSH1 0x0 SELFBALANCE GT PUSH2 0x321 JUMPI PUSH1 0x40 MLOAD PUSH32 0x8C379A000000000000000000000000000000000000000000000000000000000 DUP2 MSTORE PUSH1 0x4 ADD PUSH2 0x318 SWAP1 PUSH2 0xCF9 JUMP JUMPDEST PUSH1 0x40 MLOAD DUP1 SWAP2 SUB SWAP1 REVERT JUMPDEST PUSH1 0x0 PUSH1 0x1 PUSH1 0x0 CALLER PUSH20 0xFFFFFFFFFFFFFFFFFFFFFFFFFFFFFFFFFFFFFFFF AND PUSH20 0xFFFFFFFFFFFFFFFFFFFFFFFFFFFFFFFFFFFFFFFF AND DUP2 MSTORE PUSH1 0x20 ADD SWAP1 DUP2 MSTORE PUSH1 0x20 ADD PUSH1 0x0 KECCAK256 PUSH1 0x0 ADD SLOAD GT PUSH2 0x3A6 JUMPI PUSH1 0x40 MLOAD PUSH32 0x8C379A000000000000000000000000000000000000000000000000000000000 DUP2 MSTORE PUSH1 0x4 ADD PUSH2 0x39D SWAP1 PUSH2 0xD79 JUMP JUMPDEST PUSH1 0x40 MLOAD DUP1 SWAP2 SUB SWAP1 REVERT JUMPDEST PUSH1 0x0 PUSH1 0x64 PUSH1 0x3 SLOAD SELFBALANCE PUSH2 0x3B8 SWAP2 SWAP1 PUSH2 0xE8E JUMP JUMPDEST PUSH1 0x1 PUSH1 0x0 CALLER PUSH20 0xFFFFFFFFFFFFFFFFFFFFFFFFFFFFFFFFFFFFFFFF AND PUSH20 0xFFFFFFFFFFFFFFFFFFFFFFFFFFFFFFFFFFFFFFFF AND DUP2 MSTORE PUSH1 0x20 ADD SWAP1 DUP2 MSTORE PUSH1 0x20 ADD PUSH1 0x0 KECCAK256 PUSH1 0x0 ADD SLOAD PUSH2 0x405 SWAP2 SWAP1 PUSH2 0xF15 JUMP JUMPDEST PUSH2 0x40F SWAP2 SWAP1 PUSH2 0xEE4 JUMP JUMPDEST SWAP1 POP PUSH1 0x0 PUSH1 0x1 PUSH1 0x0 CALLER PUSH20 0xFFFFFFFFFFFFFFFFFFFFFFFFFFFFFFFFFFFFFFFF AND PUSH20 0xFFFFFFFFFFFFFFFFFFFFFFFFFFFFFFFFFFFFFFFF AND DUP2 MSTORE PUSH1 0x20 ADD SWAP1 DUP2 MSTORE PUSH1 0x20 ADD PUSH1 0x0 KECCAK256 PUSH1 0x1 ADD SLOAD DUP3 GT ISZERO PUSH2 0x4AE JUMPI PUSH1 0x1 PUSH1 0x0 CALLER PUSH20 0xFFFFFFFFFFFFFFFFFFFFFFFFFFFFFFFFFFFFFFFF AND PUSH20 0xFFFFFFFFFFFFFFFFFFFFFFFFFFFFFFFFFFFFFFFF AND DUP2 MSTORE PUSH1 0x20 ADD SWAP1 DUP2 MSTORE PUSH1 0x20 ADD PUSH1 0x0 KECCAK256 PUSH1 0x1 ADD SLOAD DUP3 PUSH2 0x4AB SWAP2 SWAP1 PUSH2 0xF6F JUMP JUMPDEST SWAP1 POP JUMPDEST DUP1 DUP4 GT ISZERO PUSH2 0x4F1 JUMPI PUSH1 0x40 MLOAD PUSH32 0x8C379A000000000000000000000000000000000000000000000000000000000 DUP2 MSTORE PUSH1 0x4 ADD PUSH2 0x4E8 SWAP1 PUSH2 0xD59 JUMP JUMPDEST PUSH1 0x40 MLOAD DUP1 SWAP2 SUB SWAP1 REVERT JUMPDEST DUP3 PUSH1 0x1 PUSH1 0x0 CALLER PUSH20 0xFFFFFFFFFFFFFFFFFFFFFFFFFFFFFFFFFFFFFFFF AND PUSH20 0xFFFFFFFFFFFFFFFFFFFFFFFFFFFFFFFFFFFFFFFF AND DUP2 MSTORE PUSH1 0x20 ADD SWAP1 DUP2 MSTORE PUSH1 0x20 ADD PUSH1 0x0 KECCAK256 PUSH1 0x1 ADD PUSH1 0x0 DUP3 DUP3 SLOAD PUSH2 0x543 SWAP2 SWAP1 PUSH2 0xE8E JUMP JUMPDEST SWAP3 POP POP DUP2 SWAP1 SSTORE POP DUP3 PUSH1 0x3 PUSH1 0x0 DUP3 DUP3 SLOAD PUSH2 0x55C SWAP2 SWAP1 PUSH2 0xE8E JUMP JUMPDEST SWAP3 POP POP DUP2 SWAP1 SSTORE POP DUP3 SELFBALANCE PUSH2 0x56F SWAP2 SWAP1 PUSH2 0xF6F JUMP JUMPDEST PUSH1 0x4 DUP2 SWAP1 SSTORE POP DUP4 PUSH20 0xFFFFFFFFFFFFFFFFFFFFFFFFFFFFFFFFFFFFFFFF AND PUSH2 0x8FC DUP5 SWAP1 DUP2 ISZERO MUL SWAP1 PUSH1 0x40 MLOAD PUSH1 0x0 PUSH1 0x40 MLOAD DUP1 DUP4 SUB DUP2 DUP6 DUP9 DUP9 CALL SWAP4 POP POP POP POP ISZERO DUP1 ISZERO PUSH2 0x5BB JUMPI RETURNDATASIZE PUSH1 0x0 DUP1 RETURNDATACOPY RETURNDATASIZE PUSH1 0x0 REVERT JUMPDEST POP POP POP POP POP JUMP JUMPDEST PUSH2 0x5CA PUSH2 0x92C JUMP JUMPDEST PUSH2 0x5D2 PUSH2 0x79A JUMP JUMPDEST PUSH20 0xFFFFFFFFFFFFFFFFFFFFFFFFFFFFFFFFFFFFFFFF AND DUP3 PUSH20 0xFFFFFFFFFFFFFFFFFFFFFFFFFFFFFFFFFFFFFFFF AND EQ ISZERO PUSH2 0x640 JUMPI PUSH1 0x40 MLOAD PUSH32 0x8C379A000000000000000000000000000000000000000000000000000000000 DUP2 MSTORE PUSH1 0x4 ADD PUSH2 0x637 SWAP1 PUSH2 0xDB9 JUMP JUMPDEST PUSH1 0x40 MLOAD DUP1 SWAP2 SUB SWAP1 REVERT JUMPDEST PUSH1 0x0 PUSH1 0x1 PUSH1 0x0 DUP5 PUSH20 0xFFFFFFFFFFFFFFFFFFFFFFFFFFFFFFFFFFFFFFFF AND PUSH20 0xFFFFFFFFFFFFFFFFFFFFFFFFFFFFFFFFFFFFFFFF AND DUP2 MSTORE PUSH1 0x20 ADD SWAP1 DUP2 MSTORE PUSH1 0x20 ADD PUSH1 0x0 KECCAK256 PUSH1 0x0 ADD SLOAD EQ PUSH2 0x6C5 JUMPI PUSH1 0x40 MLOAD PUSH32 0x8C379A000000000000000000000000000000000000000000000000000000000 DUP2 MSTORE PUSH1 0x4 ADD PUSH2 0x6BC SWAP1 PUSH2 0xE19 JUMP JUMPDEST PUSH1 0x40 MLOAD DUP1 SWAP2 SUB SWAP1 REVERT JUMPDEST PUSH1 0x64 DUP2 PUSH1 0x2 SLOAD PUSH2 0x6D5 SWAP2 SWAP1 PUSH2 0xE8E JUMP JUMPDEST GT ISZERO PUSH2 0x716 JUMPI PUSH1 0x40 MLOAD PUSH32 0x8C379A000000000000000000000000000000000000000000000000000000000 DUP2 MSTORE PUSH1 0x4 ADD PUSH2 0x70D SWAP1 PUSH2 0xDF9 JUMP JUMPDEST PUSH1 0x40 MLOAD DUP1 SWAP2 SUB SWAP1 REVERT JUMPDEST DUP1 PUSH1 0x1 PUSH1 0x0 DUP5 PUSH20 0xFFFFFFFFFFFFFFFFFFFFFFFFFFFFFFFFFFFFFFFF AND PUSH20 0xFFFFFFFFFFFFFFFFFFFFFFFFFFFFFFFFFFFFFFFF AND DUP2 MSTORE PUSH1 0x20 ADD SWAP1 DUP2 MSTORE PUSH1 0x20 ADD PUSH1 0x0 KECCAK256 PUSH1 0x0 ADD DUP2 SWAP1 SSTORE POP DUP1 PUSH1 0x2 PUSH1 0x0 DUP3 DUP3 SLOAD PUSH2 0x76F SWAP2 SWAP1 PUSH2 0xE8E JUMP JUMPDEST SWAP3 POP POP DUP2 SWAP1 SSTORE POP POP POP JUMP JUMPDEST PUSH1 0x3 SLOAD DUP2 JUMP JUMPDEST PUSH2 0x788 PUSH2 0x92C JUMP JUMPDEST PUSH2 0x792 PUSH1 0x0 PUSH2 0x9AA JUMP JUMPDEST JUMP JUMPDEST PUSH1 0x4 SLOAD DUP2 JUMP JUMPDEST PUSH1 0x0 DUP1 PUSH1 0x0 SWAP1 SLOAD SWAP1 PUSH2 0x100 EXP SWAP1 DIV PUSH20 0xFFFFFFFFFFFFFFFFFFFFFFFFFFFFFFFFFFFFFFFF AND SWAP1 POP SWAP1 JUMP JUMPDEST PUSH2 0x7CB PUSH2 0x92C JUMP JUMPDEST SELFBALANCE DUP2 GT ISZERO PUSH2 0x80E JUMPI PUSH1 0x40 MLOAD PUSH32 0x8C379A000000000000000000000000000000000000000000000000000000000 DUP2 MSTORE PUSH1 0x4 ADD PUSH2 0x805 SWAP1 PUSH2 0xDD9 JUMP JUMPDEST PUSH1 0x40 MLOAD DUP1 SWAP2 SUB SWAP1 REVERT JUMPDEST DUP1 SELFBALANCE PUSH2 0x81A SWAP2 SWAP1 PUSH2 0xF6F JUMP JUMPDEST PUSH1 0x4 DUP2 SWAP1 SSTORE POP DUP2 PUSH20 0xFFFFFFFFFFFFFFFFFFFFFFFFFFFFFFFFFFFFFFFF AND PUSH2 0x8FC DUP3 SWAP1 DUP2 ISZERO MUL SWAP1 PUSH1 0x40 MLOAD PUSH1 0x0 PUSH1 0x40 MLOAD DUP1 DUP4 SUB DUP2 DUP6 DUP9 DUP9 CALL SWAP4 POP POP POP POP ISZERO DUP1 ISZERO PUSH2 0x866 JUMPI RETURNDATASIZE PUSH1 0x0 DUP1 RETURNDATACOPY RETURNDATASIZE PUSH1 0x0 REVERT JUMPDEST POP POP POP JUMP JUMPDEST PUSH2 0x873 PUSH2 0x92C JUMP JUMPDEST PUSH1 0x0 PUSH20 0xFFFFFFFFFFFFFFFFFFFFFFFFFFFFFFFFFFFFFFFF AND DUP2 PUSH20 0xFFFFFFFFFFFFFFFFFFFFFFFFFFFFFFFFFFFFFFFF AND EQ ISZERO PUSH2 0x8E3 JUMPI PUSH1 0x40 MLOAD PUSH32 0x8C379A000000000000000000000000000000000000000000000000000000000 DUP2 MSTORE PUSH1 0x4 ADD PUSH2 0x8DA SWAP1 PUSH2 0xD19 JUMP JUMPDEST PUSH1 0x40 MLOAD DUP1 SWAP2 SUB SWAP1 REVERT JUMPDEST PUSH2 0x8EC DUP2 PUSH2 0x9AA JUMP JUMPDEST POP JUMP JUMPDEST PUSH1 0x0 CALLER PUSH20 0xFFFFFFFFFFFFFFFFFFFFFFFFFFFFFFFFFFFFFFFF AND PUSH2 0x910 PUSH2 0x79A JUMP JUMPDEST PUSH20 0xFFFFFFFFFFFFFFFFFFFFFFFFFFFFFFFFFFFFFFFF AND EQ SWAP1 POP SWAP1 JUMP JUMPDEST PUSH2 0x934 PUSH2 0xA6E JUMP JUMPDEST PUSH20 0xFFFFFFFFFFFFFFFFFFFFFFFFFFFFFFFFFFFFFFFF AND PUSH2 0x952 PUSH2 0x79A JUMP JUMPDEST PUSH20 0xFFFFFFFFFFFFFFFFFFFFFFFFFFFFFFFFFFFFFFFF AND EQ PUSH2 0x9A8 JUMPI PUSH1 0x40 MLOAD PUSH32 0x8C379A000000000000000000000000000000000000000000000000000000000 DUP2 MSTORE PUSH1 0x4 ADD PUSH2 0x99F SWAP1 PUSH2 0xD99 JUMP JUMPDEST PUSH1 0x40 MLOAD DUP1 SWAP2 SUB SWAP1 REVERT JUMPDEST JUMP JUMPDEST PUSH1 0x0 DUP1 PUSH1 0x0 SWAP1 SLOAD SWAP1 PUSH2 0x100 EXP SWAP1 DIV PUSH20 0xFFFFFFFFFFFFFFFFFFFFFFFFFFFFFFFFFFFFFFFF AND SWAP1 POP DUP2 PUSH1 0x0 DUP1 PUSH2 0x100 EXP DUP2 SLOAD DUP2 PUSH20 0xFFFFFFFFFFFFFFFFFFFFFFFFFFFFFFFFFFFFFFFF MUL NOT AND SWAP1 DUP4 PUSH20 0xFFFFFFFFFFFFFFFFFFFFFFFFFFFFFFFFFFFFFFFF AND MUL OR SWAP1 SSTORE POP DUP2 PUSH20 0xFFFFFFFFFFFFFFFFFFFFFFFFFFFFFFFFFFFFFFFF AND DUP2 PUSH20 0xFFFFFFFFFFFFFFFFFFFFFFFFFFFFFFFFFFFFFFFF AND PUSH32 0x8BE0079C531659141344CD1FD0A4F28419497F9722A3DAAFE3B4186F6B6457E0 PUSH1 0x40 MLOAD PUSH1 0x40 MLOAD DUP1 SWAP2 SUB SWAP1 LOG3 POP POP JUMP JUMPDEST PUSH1 0x0 CALLER SWAP1 POP SWAP1 JUMP JUMPDEST PUSH1 0x0 DUP2 CALLDATALOAD SWAP1 POP PUSH2 0xA85 DUP2 PUSH2 0x12F8 JUMP JUMPDEST SWAP3 SWAP2 POP POP JUMP JUMPDEST PUSH1 0x0 DUP2 CALLDATALOAD SWAP1 POP PUSH2 0xA9A DUP2 PUSH2 0x130F JUMP JUMPDEST SWAP3 SWAP2 POP POP JUMP JUMPDEST PUSH1 0x0 DUP2 CALLDATALOAD SWAP1 POP PUSH2 0xAAF DUP2 PUSH2 0x1326 JUMP JUMPDEST SWAP3 SWAP2 POP POP JUMP JUMPDEST PUSH1 0x0 PUSH1 0x20 DUP3 DUP5 SUB SLT ISZERO PUSH2 0xACB JUMPI PUSH2 0xACA PUSH2 0x104F JUMP JUMPDEST JUMPDEST PUSH1 0x0 PUSH2 0xAD9 DUP5 DUP3 DUP6 ADD PUSH2 0xA76 JUMP JUMPDEST SWAP2 POP POP SWAP3 SWAP2 POP POP JUMP JUMPDEST PUSH1 0x0 DUP1 PUSH1 0x40 DUP4 DUP6 SUB SLT ISZERO PUSH2 0xAF9 JUMPI PUSH2 0xAF8 PUSH2 0x104F JUMP JUMPDEST JUMPDEST PUSH1 0x0 PUSH2 0xB07 DUP6 DUP3 DUP7 ADD PUSH2 0xA8B JUMP JUMPDEST SWAP3 POP POP PUSH1 0x20 PUSH2 0xB18 DUP6 DUP3 DUP7 ADD PUSH2 0xAA0 JUMP JUMPDEST SWAP2 POP POP SWAP3 POP SWAP3 SWAP1 POP JUMP JUMPDEST PUSH1 0x0 DUP1 PUSH1 0x40 DUP4 DUP6 SUB SLT ISZERO PUSH2 0xB39 JUMPI PUSH2 0xB38 PUSH2 0x104F JUMP JUMPDEST JUMPDEST PUSH1 0x0 PUSH2 0xB47 DUP6 DUP3 DUP7 ADD PUSH2 0xA76 JUMP JUMPDEST SWAP3 POP POP PUSH1 0x20 PUSH2 0xB58 DUP6 DUP3 DUP7 ADD PUSH2 0xAA0 JUMP JUMPDEST SWAP2 POP POP SWAP3 POP SWAP3 SWAP1 POP JUMP JUMPDEST PUSH2 0xB6B DUP2 PUSH2 0xFA3 JUMP JUMPDEST DUP3 MSTORE POP POP JUMP JUMPDEST PUSH1 0x0 PUSH2 0xB7E PUSH1 0x28 DUP4 PUSH2 0xE7D JUMP JUMPDEST SWAP2 POP PUSH2 0xB89 DUP3 PUSH2 0x1054 JUMP JUMPDEST PUSH1 0x40 DUP3 ADD SWAP1 POP SWAP2 SWAP1 POP JUMP JUMPDEST PUSH1 0x0 PUSH2 0xBA1 PUSH1 0x26 DUP4 PUSH2 0xE7D JUMP JUMPDEST SWAP2 POP PUSH2 0xBAC DUP3 PUSH2 0x10A3 JUMP JUMPDEST PUSH1 0x40 DUP3 ADD SWAP1 POP SWAP2 SWAP1 POP JUMP JUMPDEST PUSH1 0x0 PUSH2 0xBC4 PUSH1 0x2B DUP4 PUSH2 0xE7D JUMP JUMPDEST SWAP2 POP PUSH2 0xBCF DUP3 PUSH2 0x10F2 JUMP JUMPDEST PUSH1 0x40 DUP3 ADD SWAP1 POP SWAP2 SWAP1 POP JUMP JUMPDEST PUSH1 0x0 PUSH2 0xBE7 PUSH1 0x16 DUP4 PUSH2 0xE7D JUMP JUMPDEST SWAP2 POP PUSH2 0xBF2 DUP3 PUSH2 0x1141 JUMP JUMPDEST PUSH1 0x20 DUP3 ADD SWAP1 POP SWAP2 SWAP1 POP JUMP JUMPDEST PUSH1 0x0 PUSH2 0xC0A PUSH1 0x1D DUP4 PUSH2 0xE7D JUMP JUMPDEST SWAP2 POP PUSH2 0xC15 DUP3 PUSH2 0x116A JUMP JUMPDEST PUSH1 0x20 DUP3 ADD SWAP1 POP SWAP2 SWAP1 POP JUMP JUMPDEST PUSH1 0x0 PUSH2 0xC2D PUSH1 0x20 DUP4 PUSH2 0xE7D JUMP JUMPDEST SWAP2 POP PUSH2 0xC38 DUP3 PUSH2 0x1193 JUMP JUMPDEST PUSH1 0x20 DUP3 ADD SWAP1 POP SWAP2 SWAP1 POP JUMP JUMPDEST PUSH1 0x0 PUSH2 0xC50 PUSH1 0x2A DUP4 PUSH2 0xE7D JUMP JUMPDEST SWAP2 POP PUSH2 0xC5B DUP3 PUSH2 0x11BC JUMP JUMPDEST PUSH1 0x40 DUP3 ADD SWAP1 POP SWAP2 SWAP1 POP JUMP JUMPDEST PUSH1 0x0 PUSH2 0xC73 PUSH1 0x26 DUP4 PUSH2 0xE7D JUMP JUMPDEST SWAP2 POP PUSH2 0xC7E DUP3 PUSH2 0x120B JUMP JUMPDEST PUSH1 0x40 DUP3 ADD SWAP1 POP SWAP2 SWAP1 POP JUMP JUMPDEST PUSH1 0x0 PUSH2 0xC96 PUSH1 0x27 DUP4 PUSH2 0xE7D JUMP JUMPDEST SWAP2 POP PUSH2 0xCA1 DUP3 PUSH2 0x125A JUMP JUMPDEST PUSH1 0x40 DUP3 ADD SWAP1 POP SWAP2 SWAP1 POP JUMP JUMPDEST PUSH1 0x0 PUSH2 0xCB9 PUSH1 0x24 DUP4 PUSH2 0xE7D JUMP JUMPDEST SWAP2 POP PUSH2 0xCC4 DUP3 PUSH2 0x12A9 JUMP JUMPDEST PUSH1 0x40 DUP3 ADD SWAP1 POP SWAP2 SWAP1 POP JUMP JUMPDEST PUSH2 0xCD8 DUP2 PUSH2 0xFE7 JUMP JUMPDEST DUP3 MSTORE POP POP JUMP JUMPDEST PUSH1 0x0 PUSH1 0x20 DUP3 ADD SWAP1 POP PUSH2 0xCF3 PUSH1 0x0 DUP4 ADD DUP5 PUSH2 0xB62 JUMP JUMPDEST SWAP3 SWAP2 POP POP JUMP JUMPDEST PUSH1 0x0 PUSH1 0x20 DUP3 ADD SWAP1 POP DUP2 DUP2 SUB PUSH1 0x0 DUP4 ADD MSTORE PUSH2 0xD12 DUP2 PUSH2 0xB71 JUMP JUMPDEST SWAP1 POP SWAP2 SWAP1 POP JUMP JUMPDEST PUSH1 0x0 PUSH1 0x20 DUP3 ADD SWAP1 POP DUP2 DUP2 SUB PUSH1 0x0 DUP4 ADD MSTORE PUSH2 0xD32 DUP2 PUSH2 0xB94 JUMP JUMPDEST SWAP1 POP SWAP2 SWAP1 POP JUMP JUMPDEST PUSH1 0x0 PUSH1 0x20 DUP3 ADD SWAP1 POP DUP2 DUP2 SUB PUSH1 0x0 DUP4 ADD MSTORE PUSH2 0xD52 DUP2 PUSH2 0xBB7 JUMP JUMPDEST SWAP1 POP SWAP2 SWAP1 POP JUMP JUMPDEST PUSH1 0x0 PUSH1 0x20 DUP3 ADD SWAP1 POP DUP2 DUP2 SUB PUSH1 0x0 DUP4 ADD MSTORE PUSH2 0xD72 DUP2 PUSH2 0xBDA JUMP JUMPDEST SWAP1 POP SWAP2 SWAP1 POP JUMP JUMPDEST PUSH1 0x0 PUSH1 0x20 DUP3 ADD SWAP1 POP DUP2 DUP2 SUB PUSH1 0x0 DUP4 ADD MSTORE PUSH2 0xD92 DUP2 PUSH2 0xBFD JUMP JUMPDEST SWAP1 POP SWAP2 SWAP1 POP JUMP JUMPDEST PUSH1 0x0 PUSH1 0x20 DUP3 ADD SWAP1 POP DUP2 DUP2 SUB PUSH1 0x0 DUP4 ADD MSTORE PUSH2 0xDB2 DUP2 PUSH2 0xC20 JUMP JUMPDEST SWAP1 POP SWAP2 SWAP1 POP JUMP JUMPDEST PUSH1 0x0 PUSH1 0x20 DUP3 ADD SWAP1 POP DUP2 DUP2 SUB PUSH1 0x0 DUP4 ADD MSTORE PUSH2 0xDD2 DUP2 PUSH2 0xC43 JUMP JUMPDEST SWAP1 POP SWAP2 SWAP1 POP JUMP JUMPDEST PUSH1 0x0 PUSH1 0x20 DUP3 ADD SWAP1 POP DUP2 DUP2 SUB PUSH1 0x0 DUP4 ADD MSTORE PUSH2 0xDF2 DUP2 PUSH2 0xC66 JUMP JUMPDEST SWAP1 POP SWAP2 SWAP1 POP JUMP JUMPDEST PUSH1 0x0 PUSH1 0x20 DUP3 ADD SWAP1 POP DUP2 DUP2 SUB PUSH1 0x0 DUP4 ADD MSTORE PUSH2 0xE12 DUP2 PUSH2 0xC89 JUMP JUMPDEST SWAP1 POP SWAP2 SWAP1 POP JUMP JUMPDEST PUSH1 0x0 PUSH1 0x20 DUP3 ADD SWAP1 POP DUP2 DUP2 SUB PUSH1 0x0 DUP4 ADD MSTORE PUSH2 0xE32 DUP2 PUSH2 0xCAC JUMP JUMPDEST SWAP1 POP SWAP2 SWAP1 POP JUMP JUMPDEST PUSH1 0x0 PUSH1 0x20 DUP3 ADD SWAP1 POP PUSH2 0xE4E PUSH1 0x0 DUP4 ADD DUP5 PUSH2 0xCCF JUMP JUMPDEST SWAP3 SWAP2 POP POP JUMP JUMPDEST PUSH1 0x0 PUSH1 0x40 DUP3 ADD SWAP1 POP PUSH2 0xE69 PUSH1 0x0 DUP4 ADD DUP6 PUSH2 0xCCF JUMP JUMPDEST PUSH2 0xE76 PUSH1 0x20 DUP4 ADD DUP5 PUSH2 0xCCF JUMP JUMPDEST SWAP4 SWAP3 POP POP POP JUMP JUMPDEST PUSH1 0x0 DUP3 DUP3 MSTORE PUSH1 0x20 DUP3 ADD SWAP1 POP SWAP3 SWAP2 POP POP JUMP JUMPDEST PUSH1 0x0 PUSH2 0xE99 DUP3 PUSH2 0xFE7 JUMP JUMPDEST SWAP2 POP PUSH2 0xEA4 DUP4 PUSH2 0xFE7 JUMP JUMPDEST SWAP3 POP DUP3 PUSH32 0xFFFFFFFFFFFFFFFFFFFFFFFFFFFFFFFFFFFFFFFFFFFFFFFFFFFFFFFFFFFFFFFF SUB DUP3 GT ISZERO PUSH2 0xED9 JUMPI PUSH2 0xED8 PUSH2 0xFF1 JUMP JUMPDEST JUMPDEST DUP3 DUP3 ADD SWAP1 POP SWAP3 SWAP2 POP POP JUMP JUMPDEST PUSH1 0x0 PUSH2 0xEEF DUP3 PUSH2 0xFE7 JUMP JUMPDEST SWAP2 POP PUSH2 0xEFA DUP4 PUSH2 0xFE7 JUMP JUMPDEST SWAP3 POP DUP3 PUSH2 0xF0A JUMPI PUSH2 0xF09 PUSH2 0x1020 JUMP JUMPDEST JUMPDEST DUP3 DUP3 DIV SWAP1 POP SWAP3 SWAP2 POP POP JUMP JUMPDEST PUSH1 0x0 PUSH2 0xF20 DUP3 PUSH2 0xFE7 JUMP JUMPDEST SWAP2 POP PUSH2 0xF2B DUP4 PUSH2 0xFE7 JUMP JUMPDEST SWAP3 POP DUP2 PUSH32 0xFFFFFFFFFFFFFFFFFFFFFFFFFFFFFFFFFFFFFFFFFFFFFFFFFFFFFFFFFFFFFFFF DIV DUP4 GT DUP3 ISZERO ISZERO AND ISZERO PUSH2 0xF64 JUMPI PUSH2 0xF63 PUSH2 0xFF1 JUMP JUMPDEST JUMPDEST DUP3 DUP3 MUL SWAP1 POP SWAP3 SWAP2 POP POP JUMP JUMPDEST PUSH1 0x0 PUSH2 0xF7A DUP3 PUSH2 0xFE7 JUMP JUMPDEST SWAP2 POP PUSH2 0xF85 DUP4 PUSH2 0xFE7 JUMP JUMPDEST SWAP3 POP DUP3 DUP3 LT ISZERO PUSH2 0xF98 JUMPI PUSH2 0xF97 PUSH2 0xFF1 JUMP JUMPDEST JUMPDEST DUP3 DUP3 SUB SWAP1 POP SWAP3 SWAP2 POP POP JUMP JUMPDEST PUSH1 0x0 PUSH2 0xFAE DUP3 PUSH2 0xFC7 JUMP JUMPDEST SWAP1 POP SWAP2 SWAP1 POP JUMP JUMPDEST PUSH1 0x0 PUSH2 0xFC0 DUP3 PUSH2 0xFC7 JUMP JUMPDEST SWAP1 POP SWAP2 SWAP1 POP JUMP JUMPDEST PUSH1 0x0 PUSH20 0xFFFFFFFFFFFFFFFFFFFFFFFFFFFFFFFFFFFFFFFF DUP3 AND SWAP1 POP SWAP2 SWAP1 POP JUMP JUMPDEST PUSH1 0x0 DUP2 SWAP1 POP SWAP2 SWAP1 POP JUMP JUMPDEST PUSH32 0x4E487B7100000000000000000000000000000000000000000000000000000000 PUSH1 0x0 MSTORE PUSH1 0x11 PUSH1 0x4 MSTORE PUSH1 0x24 PUSH1 0x0 REVERT JUMPDEST PUSH32 0x4E487B7100000000000000000000000000000000000000000000000000000000 PUSH1 0x0 MSTORE PUSH1 0x12 PUSH1 0x4 MSTORE PUSH1 0x24 PUSH1 0x0 REVERT JUMPDEST PUSH1 0x0 DUP1 REVERT JUMPDEST PUSH32 0x5468657265206973206E6F206D6F6E657920696E207468652077616C6C657420 PUSH1 0x0 DUP3 ADD MSTORE PUSH32 0x746F20636C61696D000000000000000000000000000000000000000000000000 PUSH1 0x20 DUP3 ADD MSTORE POP JUMP JUMPDEST PUSH32 0x4F776E61626C653A206E6577206F776E657220697320746865207A65726F2061 PUSH1 0x0 DUP3 ADD MSTORE PUSH32 0x6464726573730000000000000000000000000000000000000000000000000000 PUSH1 0x20 DUP3 ADD MSTORE POP JUMP JUMPDEST PUSH32 0x546865206F776E65722073686F756C6420757365206F776E6572576974686472 PUSH1 0x0 DUP3 ADD MSTORE PUSH32 0x61772066756E6374696F6E000000000000000000000000000000000000000000 PUSH1 0x20 DUP3 ADD MSTORE POP JUMP JUMPDEST PUSH32 0x54686520616D6F756E7420697320746F6F206869676800000000000000000000 PUSH1 0x0 DUP3 ADD MSTORE POP JUMP JUMPDEST PUSH32 0x596F7520646F206E6F74206861766520616E7920616C6C6F77616E6365000000 PUSH1 0x0 DUP3 ADD MSTORE POP JUMP JUMPDEST PUSH32 0x4F776E61626C653A2063616C6C6572206973206E6F7420746865206F776E6572 PUSH1 0x0 DUP3 ADD MSTORE POP JUMP JUMPDEST PUSH32 0x416E20616C6C6F77616E6365206973206E6F7420726571756972656420666F72 PUSH1 0x0 DUP3 ADD MSTORE PUSH32 0x20746865206F776E657200000000000000000000000000000000000000000000 PUSH1 0x20 DUP3 ADD MSTORE POP JUMP JUMPDEST PUSH32 0x416D6F756E74206973206C6172676572207468616E20636F6E74726163742062 PUSH1 0x0 DUP3 ADD MSTORE PUSH32 0x616C616E63650000000000000000000000000000000000000000000000000000 PUSH1 0x20 DUP3 ADD MSTORE POP JUMP JUMPDEST PUSH32 0x5468697320776F756C64206F7665722D616C6C6F636174652074686520616C6C PUSH1 0x0 DUP3 ADD MSTORE PUSH32 0x6F77616E63657300000000000000000000000000000000000000000000000000 PUSH1 0x20 DUP3 ADD MSTORE POP JUMP JUMPDEST PUSH32 0x546865206164647265737320616C72656164792068617320616E20616C6C6F77 PUSH1 0x0 DUP3 ADD MSTORE PUSH32 0x616E636500000000000000000000000000000000000000000000000000000000 PUSH1 0x20 DUP3 ADD MSTORE POP JUMP JUMPDEST PUSH2 0x1301 DUP2 PUSH2 0xFA3 JUMP JUMPDEST DUP2 EQ PUSH2 0x130C JUMPI PUSH1 0x0 DUP1 REVERT JUMPDEST POP JUMP JUMPDEST PUSH2 0x1318 DUP2 PUSH2 0xFB5 JUMP JUMPDEST DUP2 EQ PUSH2 0x1323 JUMPI PUSH1 0x0 DUP1 REVERT JUMPDEST POP JUMP JUMPDEST PUSH2 0x132F DUP2 PUSH2 0xFE7 JUMP JUMPDEST DUP2 EQ PUSH2 0x133A JUMPI PUSH1 0x0 DUP1 REVERT JUMPDEST POP JUMP INVALID LOG2 PUSH5 0x6970667358 0x22 SLT KECCAK256 0xB5 0xDC BALANCE AND PUSH10 0x2B74D3C3E5D5F76D32BD 0x1F 0xC4 0xDD 0x28 SMOD SWAP7 0xA9 0xE0 ISZERO 0x26 PUSH9 0x109A73ED6CAB64736F PUSH13 0x63430008070033000000000000 "
				},
				"gasEstimates": {
					"creation": {
						"codeDepositCost": "995800",
						"executionCost": "infinite",
						"totalCost": "infinite"
					},
					"external": {
						"ClaimMoney(address,uint256)": "infinite",
						"SendMoney()": "22259",
						"SetAllowance(address,uint256)": "infinite",
						"beneficiaries(address)": "infinite",
						"contractBalance()": "2473",
						"owner()": "2588",
						"ownerWithdraw(address,uint256)": "infinite",
						"renounceOwnership()": "30420",
						"totalAllowances()": "2474",
						"totalClaims()": "2429",
						"transferOwnership(address)": "30857"
					},
					"internal": {
						"isOwner()": "2211"
					}
				},
				"methodIdentifiers": {
					"ClaimMoney(address,uint256)": "2d70db2f",
					"SendMoney()": "05737314",
					"SetAllowance(address,uint256)": "3e7279a3",
					"beneficiaries(address)": "01567739",
					"contractBalance()": "8b7afe2e",
					"owner()": "8da5cb5b",
					"ownerWithdraw(address,uint256)": "d9c88e14",
					"renounceOwnership()": "715018a6",
					"totalAllowances()": "16a51305",
					"totalClaims()": "41c61383",
					"transferOwnership(address)": "f2fde38b"
				}
			},
			"storageLayout": {
				"storage": [
					{
						"astId": 259,
						"contract": "MyProjectSharedWallet.sol:SharedWallet",
						"label": "_owner",
						"offset": 0,
						"slot": "0",
						"type": "t_address"
					},
					{
						"astId": 14,
						"contract": "MyProjectSharedWallet.sol:SharedWallet",
						"label": "beneficiaries",
						"offset": 0,
						"slot": "1",
						"type": "t_mapping(t_address,t_struct(BeneficiaryDetails)9_storage)"
					},
					{
						"astId": 16,
						"contract": "MyProjectSharedWallet.sol:SharedWallet",
						"label": "totalAllowances",
						"offset": 0,
						"slot": "2",
						"type": "t_uint256"
					},
					{
						"astId": 18,
						"contract": "MyProjectSharedWallet.sol:SharedWallet",
						"label": "totalClaims",
						"offset": 0,
						"slot": "3",
						"type": "t_uint256"
					},
					{
						"astId": 20,
						"contract": "MyProjectSharedWallet.sol:SharedWallet",
						"label": "contractBalance",
						"offset": 0,
						"slot": "4",
						"type": "t_uint256"
					}
				],
				"types": {
					"t_address": {
						"encoding": "inplace",
						"label": "address",
						"numberOfBytes": "20"
					},
					"t_mapping(t_address,t_struct(BeneficiaryDetails)9_storage)": {
						"encoding": "mapping",
						"key": "t_address",
						"label": "mapping(address => struct SharedWallet.BeneficiaryDetails)",
						"numberOfBytes": "32",
						"value": "t_struct(BeneficiaryDetails)9_storage"
					},
					"t_struct(BeneficiaryDetails)9_storage": {
						"encoding": "inplace",
						"label": "struct SharedWallet.BeneficiaryDetails",
						"members": [
							{
								"astId": 6,
								"contract": "MyProjectSharedWallet.sol:SharedWallet",
								"label": "allowance",
								"offset": 0,
								"slot": "0",
								"type": "t_uint256"
							},
							{
								"astId": 8,
								"contract": "MyProjectSharedWallet.sol:SharedWallet",
								"label": "claimsMade",
								"offset": 0,
								"slot": "1",
								"type": "t_uint256"
							}
						],
						"numberOfBytes": "64"
					},
					"t_uint256": {
						"encoding": "inplace",
						"label": "uint256",
						"numberOfBytes": "32"
					}
				}
			},
			"userdoc": {
				"kind": "user",
				"methods": {},
				"version": 1
			}
		}
	}
}