{
	"MyContractAsClassExample.sol": {
		"Fabric": {
			"abi": [
				{
					"inputs": [],
					"name": "newSum",
					"outputs": [],
					"stateMutability": "nonpayable",
					"type": "function"
				},
				{
					"inputs": [
						{
							"internalType": "uint256",
							"name": "",
							"type": "uint256"
						}
					],
					"name": "sums",
					"outputs": [
						{
							"internalType": "address",
							"name": "",
							"type": "address"
						}
					],
					"stateMutability": "view",
					"type": "function"
				}
			],
			"devdoc": {
				"kind": "dev",
				"methods": {},
				"version": 1
			},
			"evm": {
				"assembly": "    /* \"MyContractAsClassExample.sol\":165:303  contract Fabric {... */\n  mstore(0x40, 0x80)\n  callvalue\n  dup1\n  iszero\n  tag_1\n  jumpi\n  0x00\n  dup1\n  revert\ntag_1:\n  pop\n  dataSize(sub_0)\n  dup1\n  dataOffset(sub_0)\n  0x00\n  codecopy\n  0x00\n  return\nstop\n\nsub_0: assembly {\n        /* \"MyContractAsClassExample.sol\":165:303  contract Fabric {... */\n      mstore(0x40, 0x80)\n      callvalue\n      dup1\n      iszero\n      tag_1\n      jumpi\n      0x00\n      dup1\n      revert\n    tag_1:\n      pop\n      jumpi(tag_2, lt(calldatasize, 0x04))\n      shr(0xe0, calldataload(0x00))\n      dup1\n      0x1f564a45\n      eq\n      tag_3\n      jumpi\n      dup1\n      0xef150f9c\n      eq\n      tag_4\n      jumpi\n    tag_2:\n      0x00\n      dup1\n      revert\n        /* \"MyContractAsClassExample.sol\":186:207  address[] public sums */\n    tag_3:\n      tag_5\n      0x04\n      dup1\n      calldatasize\n      sub\n      dup2\n      add\n      swap1\n      tag_6\n      swap2\n      swap1\n      tag_7\n      jump\t// in\n    tag_6:\n      tag_8\n      jump\t// in\n    tag_5:\n      mload(0x40)\n      tag_9\n      swap2\n      swap1\n      tag_10\n      jump\t// in\n    tag_9:\n      mload(0x40)\n      dup1\n      swap2\n      sub\n      swap1\n      return\n        /* \"MyContractAsClassExample.sol\":212:301  function newSum() public {... */\n    tag_4:\n      tag_11\n      tag_12\n      jump\t// in\n    tag_11:\n      stop\n        /* \"MyContractAsClassExample.sol\":186:207  address[] public sums */\n    tag_8:\n      0x00\n      dup2\n      dup2\n      sload\n      dup2\n      lt\n      tag_13\n      jumpi\n      0x00\n      dup1\n      revert\n    tag_13:\n      swap1\n      0x00\n      mstore\n      keccak256(0x00, 0x20)\n      add\n      0x00\n      swap2\n      pop\n      sload\n      swap1\n      0x0100\n      exp\n      swap1\n      div\n      0xffffffffffffffffffffffffffffffffffffffff\n      and\n      dup2\n      jump\t// out\n        /* \"MyContractAsClassExample.sol\":212:301  function newSum() public {... */\n    tag_12:\n        /* \"MyContractAsClassExample.sol\":245:252  Sum sum */\n      0x00\n        /* \"MyContractAsClassExample.sol\":255:264  new Sum() */\n      mload(0x40)\n      tag_16\n      swap1\n      tag_17\n      jump\t// in\n    tag_16:\n      mload(0x40)\n      dup1\n      swap2\n      sub\n      swap1\n      0x00\n      create\n      dup1\n      iszero\n      dup1\n      iszero\n      tag_18\n      jumpi\n      returndatasize\n      0x00\n      dup1\n      returndatacopy\n      revert(0x00, returndatasize)\n    tag_18:\n      pop\n        /* \"MyContractAsClassExample.sol\":245:264  Sum sum = new Sum() */\n      swap1\n      pop\n        /* \"MyContractAsClassExample.sol\":272:276  sums */\n      0x00\n        /* \"MyContractAsClassExample.sol\":290:293  sum */\n      dup2\n        /* \"MyContractAsClassExample.sol\":272:295  sums.push(address(sum)) */\n      swap1\n      dup1\n      0x01\n      dup2\n      sload\n      add\n      dup1\n      dup3\n      sstore\n      dup1\n      swap2\n      pop\n      pop\n      0x01\n      swap1\n      sub\n      swap1\n      0x00\n      mstore\n      keccak256(0x00, 0x20)\n      add\n      0x00\n      swap1\n      swap2\n      swap1\n      swap2\n      swap1\n      swap2\n      0x0100\n      exp\n      dup2\n      sload\n      dup2\n      0xffffffffffffffffffffffffffffffffffffffff\n      mul\n      not\n      and\n      swap1\n      dup4\n      0xffffffffffffffffffffffffffffffffffffffff\n      and\n      mul\n      or\n      swap1\n      sstore\n      pop\n        /* \"MyContractAsClassExample.sol\":237:301  {... */\n      pop\n        /* \"MyContractAsClassExample.sol\":212:301  function newSum() public {... */\n      jump\t// out\n    tag_17:\n      dataSize(sub_0)\n      dup1\n      dataOffset(sub_0)\n      dup4\n      codecopy\n      add\n      swap1\n      jump\t// out\n        /* \"#utility.yul\":88:205   */\n    tag_21:\n        /* \"#utility.yul\":197:198   */\n      0x00\n        /* \"#utility.yul\":194:195   */\n      dup1\n        /* \"#utility.yul\":187:199   */\n      revert\n        /* \"#utility.yul\":334:411   */\n    tag_23:\n        /* \"#utility.yul\":371:378   */\n      0x00\n        /* \"#utility.yul\":400:405   */\n      dup2\n        /* \"#utility.yul\":389:405   */\n      swap1\n      pop\n        /* \"#utility.yul\":334:411   */\n      swap2\n      swap1\n      pop\n      jump\t// out\n        /* \"#utility.yul\":417:539   */\n    tag_24:\n        /* \"#utility.yul\":490:514   */\n      tag_35\n        /* \"#utility.yul\":508:513   */\n      dup2\n        /* \"#utility.yul\":490:514   */\n      tag_23\n      jump\t// in\n    tag_35:\n        /* \"#utility.yul\":483:488   */\n      dup2\n        /* \"#utility.yul\":480:515   */\n      eq\n        /* \"#utility.yul\":470:533   */\n      tag_36\n      jumpi\n        /* \"#utility.yul\":529:530   */\n      0x00\n        /* \"#utility.yul\":526:527   */\n      dup1\n        /* \"#utility.yul\":519:531   */\n      revert\n        /* \"#utility.yul\":470:533   */\n    tag_36:\n        /* \"#utility.yul\":417:539   */\n      pop\n      jump\t// out\n        /* \"#utility.yul\":545:684   */\n    tag_25:\n        /* \"#utility.yul\":591:596   */\n      0x00\n        /* \"#utility.yul\":629:635   */\n      dup2\n        /* \"#utility.yul\":616:636   */\n      calldataload\n        /* \"#utility.yul\":607:636   */\n      swap1\n      pop\n        /* \"#utility.yul\":645:678   */\n      tag_38\n        /* \"#utility.yul\":672:677   */\n      dup2\n        /* \"#utility.yul\":645:678   */\n      tag_24\n      jump\t// in\n    tag_38:\n        /* \"#utility.yul\":545:684   */\n      swap3\n      swap2\n      pop\n      pop\n      jump\t// out\n        /* \"#utility.yul\":690:1019   */\n    tag_7:\n        /* \"#utility.yul\":749:755   */\n      0x00\n        /* \"#utility.yul\":798:800   */\n      0x20\n        /* \"#utility.yul\":786:795   */\n      dup3\n        /* \"#utility.yul\":777:784   */\n      dup5\n        /* \"#utility.yul\":773:796   */\n      sub\n        /* \"#utility.yul\":769:801   */\n      slt\n        /* \"#utility.yul\":766:885   */\n      iszero\n      tag_40\n      jumpi\n        /* \"#utility.yul\":804:883   */\n      tag_41\n      tag_21\n      jump\t// in\n    tag_41:\n        /* \"#utility.yul\":766:885   */\n    tag_40:\n        /* \"#utility.yul\":924:925   */\n      0x00\n        /* \"#utility.yul\":949:1002   */\n      tag_42\n        /* \"#utility.yul\":994:1001   */\n      dup5\n        /* \"#utility.yul\":985:991   */\n      dup3\n        /* \"#utility.yul\":974:983   */\n      dup6\n        /* \"#utility.yul\":970:992   */\n      add\n        /* \"#utility.yul\":949:1002   */\n      tag_25\n      jump\t// in\n    tag_42:\n        /* \"#utility.yul\":939:1002   */\n      swap2\n      pop\n        /* \"#utility.yul\":895:1012   */\n      pop\n        /* \"#utility.yul\":690:1019   */\n      swap3\n      swap2\n      pop\n      pop\n      jump\t// out\n        /* \"#utility.yul\":1025:1151   */\n    tag_26:\n        /* \"#utility.yul\":1062:1069   */\n      0x00\n        /* \"#utility.yul\":1102:1144   */\n      0xffffffffffffffffffffffffffffffffffffffff\n        /* \"#utility.yul\":1095:1100   */\n      dup3\n        /* \"#utility.yul\":1091:1145   */\n      and\n        /* \"#utility.yul\":1080:1145   */\n      swap1\n      pop\n        /* \"#utility.yul\":1025:1151   */\n      swap2\n      swap1\n      pop\n      jump\t// out\n        /* \"#utility.yul\":1157:1253   */\n    tag_27:\n        /* \"#utility.yul\":1194:1201   */\n      0x00\n        /* \"#utility.yul\":1223:1247   */\n      tag_45\n        /* \"#utility.yul\":1241:1246   */\n      dup3\n        /* \"#utility.yul\":1223:1247   */\n      tag_26\n      jump\t// in\n    tag_45:\n        /* \"#utility.yul\":1212:1247   */\n      swap1\n      pop\n        /* \"#utility.yul\":1157:1253   */\n      swap2\n      swap1\n      pop\n      jump\t// out\n        /* \"#utility.yul\":1259:1377   */\n    tag_28:\n        /* \"#utility.yul\":1346:1370   */\n      tag_47\n        /* \"#utility.yul\":1364:1369   */\n      dup2\n        /* \"#utility.yul\":1346:1370   */\n      tag_27\n      jump\t// in\n    tag_47:\n        /* \"#utility.yul\":1341:1344   */\n      dup3\n        /* \"#utility.yul\":1334:1371   */\n      mstore\n        /* \"#utility.yul\":1259:1377   */\n      pop\n      pop\n      jump\t// out\n        /* \"#utility.yul\":1383:1605   */\n    tag_10:\n        /* \"#utility.yul\":1476:1480   */\n      0x00\n        /* \"#utility.yul\":1514:1516   */\n      0x20\n        /* \"#utility.yul\":1503:1512   */\n      dup3\n        /* \"#utility.yul\":1499:1517   */\n      add\n        /* \"#utility.yul\":1491:1517   */\n      swap1\n      pop\n        /* \"#utility.yul\":1527:1598   */\n      tag_49\n        /* \"#utility.yul\":1595:1596   */\n      0x00\n        /* \"#utility.yul\":1584:1593   */\n      dup4\n        /* \"#utility.yul\":1580:1597   */\n      add\n        /* \"#utility.yul\":1571:1577   */\n      dup5\n        /* \"#utility.yul\":1527:1598   */\n      tag_28\n      jump\t// in\n    tag_49:\n        /* \"#utility.yul\":1383:1605   */\n      swap3\n      swap2\n      pop\n      pop\n      jump\t// out\n    stop\n\n    sub_0: assembly {\n            /* \"MyContractAsClassExample.sol\":62:164  contract Sum {... */\n          mstore(0x40, 0x80)\n          callvalue\n          dup1\n          iszero\n          tag_1\n          jumpi\n          0x00\n          dup1\n          revert\n        tag_1:\n          pop\n          dataSize(sub_0)\n          dup1\n          dataOffset(sub_0)\n          0x00\n          codecopy\n          0x00\n          return\n        stop\n\n        sub_0: assembly {\n                /* \"MyContractAsClassExample.sol\":62:164  contract Sum {... */\n              mstore(0x40, 0x80)\n              callvalue\n              dup1\n              iszero\n              tag_1\n              jumpi\n              0x00\n              dup1\n              revert\n            tag_1:\n              pop\n              jumpi(tag_2, lt(calldatasize, 0x04))\n              shr(0xe0, calldataload(0x00))\n              dup1\n              0xcad0899b\n              eq\n              tag_3\n              jumpi\n            tag_2:\n              0x00\n              dup1\n              revert\n                /* \"MyContractAsClassExample.sol\":80:162  function sum(uint x, uint y) public pure returns (uint) {... */\n            tag_3:\n              tag_4\n              0x04\n              dup1\n              calldatasize\n              sub\n              dup2\n              add\n              swap1\n              tag_5\n              swap2\n              swap1\n              tag_6\n              jump\t// in\n            tag_5:\n              tag_7\n              jump\t// in\n            tag_4:\n              mload(0x40)\n              tag_8\n              swap2\n              swap1\n              tag_9\n              jump\t// in\n            tag_8:\n              mload(0x40)\n              dup1\n              swap2\n              sub\n              swap1\n              return\n            tag_7:\n                /* \"MyContractAsClassExample.sol\":130:134  uint */\n              0x00\n                /* \"MyContractAsClassExample.sol\":155:156  y */\n              dup2\n                /* \"MyContractAsClassExample.sol\":151:152  x */\n              dup4\n                /* \"MyContractAsClassExample.sol\":151:156  x + y */\n              tag_11\n              swap2\n              swap1\n              tag_12\n              jump\t// in\n            tag_11:\n                /* \"MyContractAsClassExample.sol\":144:156  return x + y */\n              swap1\n              pop\n                /* \"MyContractAsClassExample.sol\":80:162  function sum(uint x, uint y) public pure returns (uint) {... */\n              swap3\n              swap2\n              pop\n              pop\n              jump\t// out\n                /* \"#utility.yul\":88:205   */\n            tag_14:\n                /* \"#utility.yul\":197:198   */\n              0x00\n                /* \"#utility.yul\":194:195   */\n              dup1\n                /* \"#utility.yul\":187:199   */\n              revert\n                /* \"#utility.yul\":334:411   */\n            tag_16:\n                /* \"#utility.yul\":371:378   */\n              0x00\n                /* \"#utility.yul\":400:405   */\n              dup2\n                /* \"#utility.yul\":389:405   */\n              swap1\n              pop\n                /* \"#utility.yul\":334:411   */\n              swap2\n              swap1\n              pop\n              jump\t// out\n                /* \"#utility.yul\":417:539   */\n            tag_17:\n                /* \"#utility.yul\":490:514   */\n              tag_27\n                /* \"#utility.yul\":508:513   */\n              dup2\n                /* \"#utility.yul\":490:514   */\n              tag_16\n              jump\t// in\n            tag_27:\n                /* \"#utility.yul\":483:488   */\n              dup2\n                /* \"#utility.yul\":480:515   */\n              eq\n                /* \"#utility.yul\":470:533   */\n              tag_28\n              jumpi\n                /* \"#utility.yul\":529:530   */\n              0x00\n                /* \"#utility.yul\":526:527   */\n              dup1\n                /* \"#utility.yul\":519:531   */\n              revert\n                /* \"#utility.yul\":470:533   */\n            tag_28:\n                /* \"#utility.yul\":417:539   */\n              pop\n              jump\t// out\n                /* \"#utility.yul\":545:684   */\n            tag_18:\n                /* \"#utility.yul\":591:596   */\n              0x00\n                /* \"#utility.yul\":629:635   */\n              dup2\n                /* \"#utility.yul\":616:636   */\n              calldataload\n                /* \"#utility.yul\":607:636   */\n              swap1\n              pop\n                /* \"#utility.yul\":645:678   */\n              tag_30\n                /* \"#utility.yul\":672:677   */\n              dup2\n                /* \"#utility.yul\":645:678   */\n              tag_17\n              jump\t// in\n            tag_30:\n                /* \"#utility.yul\":545:684   */\n              swap3\n              swap2\n              pop\n              pop\n              jump\t// out\n                /* \"#utility.yul\":690:1164   */\n            tag_6:\n                /* \"#utility.yul\":758:764   */\n              0x00\n                /* \"#utility.yul\":766:772   */\n              dup1\n                /* \"#utility.yul\":815:817   */\n              0x40\n                /* \"#utility.yul\":803:812   */\n              dup4\n                /* \"#utility.yul\":794:801   */\n              dup6\n                /* \"#utility.yul\":790:813   */\n              sub\n                /* \"#utility.yul\":786:818   */\n              slt\n                /* \"#utility.yul\":783:902   */\n              iszero\n              tag_32\n              jumpi\n                /* \"#utility.yul\":821:900   */\n              tag_33\n              tag_14\n              jump\t// in\n            tag_33:\n                /* \"#utility.yul\":783:902   */\n            tag_32:\n                /* \"#utility.yul\":941:942   */\n              0x00\n                /* \"#utility.yul\":966:1019   */\n              tag_34\n                /* \"#utility.yul\":1011:1018   */\n              dup6\n                /* \"#utility.yul\":1002:1008   */\n              dup3\n                /* \"#utility.yul\":991:1000   */\n              dup7\n                /* \"#utility.yul\":987:1009   */\n              add\n                /* \"#utility.yul\":966:1019   */\n              tag_18\n              jump\t// in\n            tag_34:\n                /* \"#utility.yul\":956:1019   */\n              swap3\n              pop\n                /* \"#utility.yul\":912:1029   */\n              pop\n                /* \"#utility.yul\":1068:1070   */\n              0x20\n                /* \"#utility.yul\":1094:1147   */\n              tag_35\n                /* \"#utility.yul\":1139:1146   */\n              dup6\n                /* \"#utility.yul\":1130:1136   */\n              dup3\n                /* \"#utility.yul\":1119:1128   */\n              dup7\n                /* \"#utility.yul\":1115:1137   */\n              add\n                /* \"#utility.yul\":1094:1147   */\n              tag_18\n              jump\t// in\n            tag_35:\n                /* \"#utility.yul\":1084:1147   */\n              swap2\n              pop\n                /* \"#utility.yul\":1039:1157   */\n              pop\n                /* \"#utility.yul\":690:1164   */\n              swap3\n              pop\n              swap3\n              swap1\n              pop\n              jump\t// out\n                /* \"#utility.yul\":1170:1288   */\n            tag_19:\n                /* \"#utility.yul\":1257:1281   */\n              tag_37\n                /* \"#utility.yul\":1275:1280   */\n              dup2\n                /* \"#utility.yul\":1257:1281   */\n              tag_16\n              jump\t// in\n            tag_37:\n                /* \"#utility.yul\":1252:1255   */\n              dup3\n                /* \"#utility.yul\":1245:1282   */\n              mstore\n                /* \"#utility.yul\":1170:1288   */\n              pop\n              pop\n              jump\t// out\n                /* \"#utility.yul\":1294:1516   */\n            tag_9:\n                /* \"#utility.yul\":1387:1391   */\n              0x00\n                /* \"#utility.yul\":1425:1427   */\n              0x20\n                /* \"#utility.yul\":1414:1423   */\n              dup3\n                /* \"#utility.yul\":1410:1428   */\n              add\n                /* \"#utility.yul\":1402:1428   */\n              swap1\n              pop\n                /* \"#utility.yul\":1438:1509   */\n              tag_39\n                /* \"#utility.yul\":1506:1507   */\n              0x00\n                /* \"#utility.yul\":1495:1504   */\n              dup4\n                /* \"#utility.yul\":1491:1508   */\n              add\n                /* \"#utility.yul\":1482:1488   */\n              dup5\n                /* \"#utility.yul\":1438:1509   */\n              tag_19\n              jump\t// in\n            tag_39:\n                /* \"#utility.yul\":1294:1516   */\n              swap3\n              swap2\n              pop\n              pop\n              jump\t// out\n                /* \"#utility.yul\":1522:1702   */\n            tag_20:\n                /* \"#utility.yul\":1570:1647   */\n              0x4e487b7100000000000000000000000000000000000000000000000000000000\n                /* \"#utility.yul\":1567:1568   */\n              0x00\n                /* \"#utility.yul\":1560:1648   */\n              mstore\n                /* \"#utility.yul\":1667:1671   */\n              0x11\n                /* \"#utility.yul\":1664:1665   */\n              0x04\n                /* \"#utility.yul\":1657:1672   */\n              mstore\n                /* \"#utility.yul\":1691:1695   */\n              0x24\n                /* \"#utility.yul\":1688:1689   */\n              0x00\n                /* \"#utility.yul\":1681:1696   */\n              revert\n                /* \"#utility.yul\":1708:2013   */\n            tag_12:\n                /* \"#utility.yul\":1748:1751   */\n              0x00\n                /* \"#utility.yul\":1767:1787   */\n              tag_42\n                /* \"#utility.yul\":1785:1786   */\n              dup3\n                /* \"#utility.yul\":1767:1787   */\n              tag_16\n              jump\t// in\n            tag_42:\n                /* \"#utility.yul\":1762:1787   */\n              swap2\n              pop\n                /* \"#utility.yul\":1801:1821   */\n              tag_43\n                /* \"#utility.yul\":1819:1820   */\n              dup4\n                /* \"#utility.yul\":1801:1821   */\n              tag_16\n              jump\t// in\n            tag_43:\n                /* \"#utility.yul\":1796:1821   */\n              swap3\n              pop\n                /* \"#utility.yul\":1955:1956   */\n              dup3\n                /* \"#utility.yul\":1887:1953   */\n              0xffffffffffffffffffffffffffffffffffffffffffffffffffffffffffffffff\n                /* \"#utility.yul\":1883:1957   */\n              sub\n                /* \"#utility.yul\":1880:1881   */\n              dup3\n                /* \"#utility.yul\":1877:1958   */\n              gt\n                /* \"#utility.yul\":1874:1981   */\n              iszero\n              tag_44\n              jumpi\n                /* \"#utility.yul\":1961:1979   */\n              tag_45\n              tag_20\n              jump\t// in\n            tag_45:\n                /* \"#utility.yul\":1874:1981   */\n            tag_44:\n                /* \"#utility.yul\":2005:2006   */\n              dup3\n                /* \"#utility.yul\":2002:2003   */\n              dup3\n                /* \"#utility.yul\":1998:2007   */\n              add\n                /* \"#utility.yul\":1991:2007   */\n              swap1\n              pop\n                /* \"#utility.yul\":1708:2013   */\n              swap3\n              swap2\n              pop\n              pop\n              jump\t// out\n\n            auxdata: 0xa2646970667358221220f5fc8f90c5f0d4831b653754624e1a4b7e4dcea15846904a06cc0c62fe70f8cd64736f6c634300080d0033\n        }\n    }\n\n    auxdata: 0xa2646970667358221220d5aef3c8ab35475ddfba0e9c79d089044d2f636980fc2078a0accab9a609ae2364736f6c634300080d0033\n}\n",
				"bytecode": {
					"linkReferences": {},
					"object": "608060405234801561001057600080fd5b50610444806100206000396000f3fe608060405234801561001057600080fd5b50600436106100365760003560e01c80631f564a451461003b578063ef150f9c1461006b575b600080fd5b6100556004803603810190610050919061018f565b610075565b60405161006291906101fd565b60405180910390f35b6100736100b4565b005b6000818154811061008557600080fd5b906000526020600020016000915054906101000a900473ffffffffffffffffffffffffffffffffffffffff1681565b60006040516100c290610147565b604051809103906000f0801580156100de573d6000803e3d6000fd5b5090506000819080600181540180825580915050600190039060005260206000200160009091909190916101000a81548173ffffffffffffffffffffffffffffffffffffffff021916908373ffffffffffffffffffffffffffffffffffffffff16021790555050565b6101f68061021983390190565b600080fd5b6000819050919050565b61016c81610159565b811461017757600080fd5b50565b60008135905061018981610163565b92915050565b6000602082840312156101a5576101a4610154565b5b60006101b38482850161017a565b91505092915050565b600073ffffffffffffffffffffffffffffffffffffffff82169050919050565b60006101e7826101bc565b9050919050565b6101f7816101dc565b82525050565b600060208201905061021260008301846101ee565b9291505056fe608060405234801561001057600080fd5b506101d6806100206000396000f3fe608060405234801561001057600080fd5b506004361061002b5760003560e01c8063cad0899b14610030575b600080fd5b61004a600480360381019061004591906100b1565b610060565b6040516100579190610100565b60405180910390f35b6000818361006e919061014a565b905092915050565b600080fd5b6000819050919050565b61008e8161007b565b811461009957600080fd5b50565b6000813590506100ab81610085565b92915050565b600080604083850312156100c8576100c7610076565b5b60006100d68582860161009c565b92505060206100e78582860161009c565b9150509250929050565b6100fa8161007b565b82525050565b600060208201905061011560008301846100f1565b92915050565b7f4e487b7100000000000000000000000000000000000000000000000000000000600052601160045260246000fd5b60006101558261007b565b91506101608361007b565b9250827fffffffffffffffffffffffffffffffffffffffffffffffffffffffffffffffff038211156101955761019461011b565b5b82820190509291505056fea2646970667358221220f5fc8f90c5f0d4831b653754624e1a4b7e4dcea15846904a06cc0c62fe70f8cd64736f6c634300080d0033a2646970667358221220d5aef3c8ab35475ddfba0e9c79d089044d2f636980fc2078a0accab9a609ae2364736f6c634300080d0033",
					"opcodes": "PUSH1 0x80 PUSH1 0x40 MSTORE CALLVALUE DUP1 ISZERO PUSH2 0x10 JUMPI PUSH1 0x0 DUP1 REVERT JUMPDEST POP PUSH2 0x444 DUP1 PUSH2 0x20 PUSH1 0x0 CODECOPY PUSH1 0x0 RETURN INVALID PUSH1 0x80 PUSH1 0x40 MSTORE CALLVALUE DUP1 ISZERO PUSH2 0x10 JUMPI PUSH1 0x0 DUP1 REVERT JUMPDEST POP PUSH1 0x4 CALLDATASIZE LT PUSH2 0x36 JUMPI PUSH1 0x0 CALLDATALOAD PUSH1 0xE0 SHR DUP1 PUSH4 0x1F564A45 EQ PUSH2 0x3B JUMPI DUP1 PUSH4 0xEF150F9C EQ PUSH2 0x6B JUMPI JUMPDEST PUSH1 0x0 DUP1 REVERT JUMPDEST PUSH2 0x55 PUSH1 0x4 DUP1 CALLDATASIZE SUB DUP2 ADD SWAP1 PUSH2 0x50 SWAP2 SWAP1 PUSH2 0x18F JUMP JUMPDEST PUSH2 0x75 JUMP JUMPDEST PUSH1 0x40 MLOAD PUSH2 0x62 SWAP2 SWAP1 PUSH2 0x1FD JUMP JUMPDEST PUSH1 0x40 MLOAD DUP1 SWAP2 SUB SWAP1 RETURN JUMPDEST PUSH2 0x73 PUSH2 0xB4 JUMP JUMPDEST STOP JUMPDEST PUSH1 0x0 DUP2 DUP2 SLOAD DUP2 LT PUSH2 0x85 JUMPI PUSH1 0x0 DUP1 REVERT JUMPDEST SWAP1 PUSH1 0x0 MSTORE PUSH1 0x20 PUSH1 0x0 KECCAK256 ADD PUSH1 0x0 SWAP2 POP SLOAD SWAP1 PUSH2 0x100 EXP SWAP1 DIV PUSH20 0xFFFFFFFFFFFFFFFFFFFFFFFFFFFFFFFFFFFFFFFF AND DUP2 JUMP JUMPDEST PUSH1 0x0 PUSH1 0x40 MLOAD PUSH2 0xC2 SWAP1 PUSH2 0x147 JUMP JUMPDEST PUSH1 0x40 MLOAD DUP1 SWAP2 SUB SWAP1 PUSH1 0x0 CREATE DUP1 ISZERO DUP1 ISZERO PUSH2 0xDE JUMPI RETURNDATASIZE PUSH1 0x0 DUP1 RETURNDATACOPY RETURNDATASIZE PUSH1 0x0 REVERT JUMPDEST POP SWAP1 POP PUSH1 0x0 DUP2 SWAP1 DUP1 PUSH1 0x1 DUP2 SLOAD ADD DUP1 DUP3 SSTORE DUP1 SWAP2 POP POP PUSH1 0x1 SWAP1 SUB SWAP1 PUSH1 0x0 MSTORE PUSH1 0x20 PUSH1 0x0 KECCAK256 ADD PUSH1 0x0 SWAP1 SWAP2 SWAP1 SWAP2 SWAP1 SWAP2 PUSH2 0x100 EXP DUP2 SLOAD DUP2 PUSH20 0xFFFFFFFFFFFFFFFFFFFFFFFFFFFFFFFFFFFFFFFF MUL NOT AND SWAP1 DUP4 PUSH20 0xFFFFFFFFFFFFFFFFFFFFFFFFFFFFFFFFFFFFFFFF AND MUL OR SWAP1 SSTORE POP POP JUMP JUMPDEST PUSH2 0x1F6 DUP1 PUSH2 0x219 DUP4 CODECOPY ADD SWAP1 JUMP JUMPDEST PUSH1 0x0 DUP1 REVERT JUMPDEST PUSH1 0x0 DUP2 SWAP1 POP SWAP2 SWAP1 POP JUMP JUMPDEST PUSH2 0x16C DUP2 PUSH2 0x159 JUMP JUMPDEST DUP2 EQ PUSH2 0x177 JUMPI PUSH1 0x0 DUP1 REVERT JUMPDEST POP JUMP JUMPDEST PUSH1 0x0 DUP2 CALLDATALOAD SWAP1 POP PUSH2 0x189 DUP2 PUSH2 0x163 JUMP JUMPDEST SWAP3 SWAP2 POP POP JUMP JUMPDEST PUSH1 0x0 PUSH1 0x20 DUP3 DUP5 SUB SLT ISZERO PUSH2 0x1A5 JUMPI PUSH2 0x1A4 PUSH2 0x154 JUMP JUMPDEST JUMPDEST PUSH1 0x0 PUSH2 0x1B3 DUP5 DUP3 DUP6 ADD PUSH2 0x17A JUMP JUMPDEST SWAP2 POP POP SWAP3 SWAP2 POP POP JUMP JUMPDEST PUSH1 0x0 PUSH20 0xFFFFFFFFFFFFFFFFFFFFFFFFFFFFFFFFFFFFFFFF DUP3 AND SWAP1 POP SWAP2 SWAP1 POP JUMP JUMPDEST PUSH1 0x0 PUSH2 0x1E7 DUP3 PUSH2 0x1BC JUMP JUMPDEST SWAP1 POP SWAP2 SWAP1 POP JUMP JUMPDEST PUSH2 0x1F7 DUP2 PUSH2 0x1DC JUMP JUMPDEST DUP3 MSTORE POP POP JUMP JUMPDEST PUSH1 0x0 PUSH1 0x20 DUP3 ADD SWAP1 POP PUSH2 0x212 PUSH1 0x0 DUP4 ADD DUP5 PUSH2 0x1EE JUMP JUMPDEST SWAP3 SWAP2 POP POP JUMP INVALID PUSH1 0x80 PUSH1 0x40 MSTORE CALLVALUE DUP1 ISZERO PUSH2 0x10 JUMPI PUSH1 0x0 DUP1 REVERT JUMPDEST POP PUSH2 0x1D6 DUP1 PUSH2 0x20 PUSH1 0x0 CODECOPY PUSH1 0x0 RETURN INVALID PUSH1 0x80 PUSH1 0x40 MSTORE CALLVALUE DUP1 ISZERO PUSH2 0x10 JUMPI PUSH1 0x0 DUP1 REVERT JUMPDEST POP PUSH1 0x4 CALLDATASIZE LT PUSH2 0x2B JUMPI PUSH1 0x0 CALLDATALOAD PUSH1 0xE0 SHR DUP1 PUSH4 0xCAD0899B EQ PUSH2 0x30 JUMPI JUMPDEST PUSH1 0x0 DUP1 REVERT JUMPDEST PUSH2 0x4A PUSH1 0x4 DUP1 CALLDATASIZE SUB DUP2 ADD SWAP1 PUSH2 0x45 SWAP2 SWAP1 PUSH2 0xB1 JUMP JUMPDEST PUSH2 0x60 JUMP JUMPDEST PUSH1 0x40 MLOAD PUSH2 0x57 SWAP2 SWAP1 PUSH2 0x100 JUMP JUMPDEST PUSH1 0x40 MLOAD DUP1 SWAP2 SUB SWAP1 RETURN JUMPDEST PUSH1 0x0 DUP2 DUP4 PUSH2 0x6E SWAP2 SWAP1 PUSH2 0x14A JUMP JUMPDEST SWAP1 POP SWAP3 SWAP2 POP POP JUMP JUMPDEST PUSH1 0x0 DUP1 REVERT JUMPDEST PUSH1 0x0 DUP2 SWAP1 POP SWAP2 SWAP1 POP JUMP JUMPDEST PUSH2 0x8E DUP2 PUSH2 0x7B JUMP JUMPDEST DUP2 EQ PUSH2 0x99 JUMPI PUSH1 0x0 DUP1 REVERT JUMPDEST POP JUMP JUMPDEST PUSH1 0x0 DUP2 CALLDATALOAD SWAP1 POP PUSH2 0xAB DUP2 PUSH2 0x85 JUMP JUMPDEST SWAP3 SWAP2 POP POP JUMP JUMPDEST PUSH1 0x0 DUP1 PUSH1 0x40 DUP4 DUP6 SUB SLT ISZERO PUSH2 0xC8 JUMPI PUSH2 0xC7 PUSH2 0x76 JUMP JUMPDEST JUMPDEST PUSH1 0x0 PUSH2 0xD6 DUP6 DUP3 DUP7 ADD PUSH2 0x9C JUMP JUMPDEST SWAP3 POP POP PUSH1 0x20 PUSH2 0xE7 DUP6 DUP3 DUP7 ADD PUSH2 0x9C JUMP JUMPDEST SWAP2 POP POP SWAP3 POP SWAP3 SWAP1 POP JUMP JUMPDEST PUSH2 0xFA DUP2 PUSH2 0x7B JUMP JUMPDEST DUP3 MSTORE POP POP JUMP JUMPDEST PUSH1 0x0 PUSH1 0x20 DUP3 ADD SWAP1 POP PUSH2 0x115 PUSH1 0x0 DUP4 ADD DUP5 PUSH2 0xF1 JUMP JUMPDEST SWAP3 SWAP2 POP POP JUMP JUMPDEST PUSH32 0x4E487B7100000000000000000000000000000000000000000000000000000000 PUSH1 0x0 MSTORE PUSH1 0x11 PUSH1 0x4 MSTORE PUSH1 0x24 PUSH1 0x0 REVERT JUMPDEST PUSH1 0x0 PUSH2 0x155 DUP3 PUSH2 0x7B JUMP JUMPDEST SWAP2 POP PUSH2 0x160 DUP4 PUSH2 0x7B JUMP JUMPDEST SWAP3 POP DUP3 PUSH32 0xFFFFFFFFFFFFFFFFFFFFFFFFFFFFFFFFFFFFFFFFFFFFFFFFFFFFFFFFFFFFFFFF SUB DUP3 GT ISZERO PUSH2 0x195 JUMPI PUSH2 0x194 PUSH2 0x11B JUMP JUMPDEST JUMPDEST DUP3 DUP3 ADD SWAP1 POP SWAP3 SWAP2 POP POP JUMP INVALID LOG2 PUSH5 0x6970667358 0x22 SLT KECCAK256 CREATE2 0xFC DUP16 SWAP1 0xC5 CREATE 0xD4 DUP4 SHL PUSH6 0x3754624E1A4B PUSH31 0x4DCEA15846904A06CC0C62FE70F8CD64736F6C634300080D0033A264697066 PUSH20 0x58221220D5AEF3C8AB35475DDFBA0E9C79D08904 0x4D 0x2F PUSH4 0x6980FC20 PUSH25 0xA0ACCAB9A609AE2364736F6C634300080D0033000000000000 "
				},
				"gasEstimates": {
					"creation": {
						"codeDepositCost": "218400",
						"executionCost": "263",
						"totalCost": "218663"
					},
					"external": {
						"newSum()": "infinite",
						"sums(uint256)": "4934"
					}
				},
				"methodIdentifiers": {
					"newSum()": "ef150f9c",
					"sums(uint256)": "1f564a45"
				}
			},
			"storageLayout": {
				"storage": [
					{
						"astId": 19,
						"contract": "MyContractAsClassExample.sol:Fabric",
						"label": "sums",
						"offset": 0,
						"slot": "0",
						"type": "t_array(t_address)dyn_storage"
					}
				],
				"types": {
					"t_address": {
						"encoding": "inplace",
						"label": "address",
						"numberOfBytes": "20"
					},
					"t_array(t_address)dyn_storage": {
						"base": "t_address",
						"encoding": "dynamic_array",
						"label": "address[]",
						"numberOfBytes": "32"
					}
				}
			},
			"userdoc": {
				"kind": "user",
				"methods": {},
				"version": 1
			}
		}
	}
}