{
	"ItemManager.sol": {
		"ItemManager": {
			"abi": [
				{
					"anonymous": false,
					"inputs": [
						{
							"indexed": false,
							"internalType": "uint256",
							"name": "_itemIndex",
							"type": "uint256"
						},
						{
							"indexed": false,
							"internalType": "uint256",
							"name": "_step",
							"type": "uint256"
						}
					],
					"name": "SupplyChainStep",
					"type": "event"
				},
				{
					"inputs": [
						{
							"internalType": "string",
							"name": "_identifier",
							"type": "string"
						},
						{
							"internalType": "uint256",
							"name": "_itemPrice",
							"type": "uint256"
						}
					],
					"name": "createItem",
					"outputs": [],
					"stateMutability": "nonpayable",
					"type": "function"
				},
				{
					"inputs": [
						{
							"internalType": "uint256",
							"name": "",
							"type": "uint256"
						}
					],
					"name": "items",
					"outputs": [
						{
							"internalType": "contract Item",
							"name": "_item",
							"type": "address"
						},
						{
							"internalType": "string",
							"name": "_identifier",
							"type": "string"
						},
						{
							"internalType": "uint256",
							"name": "_itemPrice",
							"type": "uint256"
						},
						{
							"internalType": "enum ItemManager.SupplyChainState",
							"name": "_state",
							"type": "uint8"
						}
					],
					"stateMutability": "view",
					"type": "function"
				},
				{
					"inputs": [
						{
							"internalType": "uint256",
							"name": "_itemIndex",
							"type": "uint256"
						}
					],
					"name": "triggerDelivery",
					"outputs": [],
					"stateMutability": "nonpayable",
					"type": "function"
				},
				{
					"inputs": [
						{
							"internalType": "uint256",
							"name": "_itemIndex",
							"type": "uint256"
						}
					],
					"name": "triggerPayment",
					"outputs": [],
					"stateMutability": "payable",
					"type": "function"
				}
			],
			"devdoc": {
				"kind": "dev",
				"methods": {},
				"version": 1
			},
			"evm": {
				"assembly": "    /* \"ItemManager.sol\":447:2116  contract ItemManager {... */\n  mstore(0x40, 0x80)\n  callvalue\n  dup1\n  iszero\n  tag_1\n  jumpi\n  0x00\n  dup1\n  revert\ntag_1:\n  pop\n  dataSize(sub_0)\n  dup1\n  dataOffset(sub_0)\n  0x00\n  codecopy\n  0x00\n  return\nstop\n\nsub_0: assembly {\n        /* \"ItemManager.sol\":447:2116  contract ItemManager {... */\n      mstore(0x40, 0x80)\n      jumpi(tag_1, lt(calldatasize, 0x04))\n      shr(0xe0, calldataload(0x00))\n      dup1\n      0x800fb83f\n      eq\n      tag_2\n      jumpi\n      dup1\n      0x8c551742\n      eq\n      tag_3\n      jumpi\n      dup1\n      0xbfb231d2\n      eq\n      tag_4\n      jumpi\n      dup1\n      0xcd31831e\n      eq\n      tag_5\n      jumpi\n    tag_1:\n      0x00\n      dup1\n      revert\n        /* \"ItemManager.sol\":1356:1765  function triggerPayment(uint _itemIndex) public payable {... */\n    tag_2:\n      tag_6\n      0x04\n      dup1\n      calldatasize\n      sub\n      dup2\n      add\n      swap1\n      tag_7\n      swap2\n      swap1\n      tag_8\n      jump\t// in\n    tag_7:\n      tag_9\n      jump\t// in\n    tag_6:\n      stop\n        /* \"ItemManager.sol\":921:1350  function createItem(string memory _identifier, uint _itemPrice) public {... */\n    tag_3:\n      callvalue\n      dup1\n      iszero\n      tag_10\n      jumpi\n      0x00\n      dup1\n      revert\n    tag_10:\n      pop\n      tag_11\n      0x04\n      dup1\n      calldatasize\n      sub\n      dup2\n      add\n      swap1\n      tag_12\n      swap2\n      swap1\n      tag_13\n      jump\t// in\n    tag_12:\n      tag_14\n      jump\t// in\n    tag_11:\n      stop\n        /* \"ItemManager.sol\":695:731  mapping(uint => S_Item) public items */\n    tag_4:\n      callvalue\n      dup1\n      iszero\n      tag_15\n      jumpi\n      0x00\n      dup1\n      revert\n    tag_15:\n      pop\n      tag_16\n      0x04\n      dup1\n      calldatasize\n      sub\n      dup2\n      add\n      swap1\n      tag_17\n      swap2\n      swap1\n      tag_8\n      jump\t// in\n    tag_17:\n      tag_18\n      jump\t// in\n    tag_16:\n      mload(0x40)\n      tag_19\n      swap5\n      swap4\n      swap3\n      swap2\n      swap1\n      tag_20\n      jump\t// in\n    tag_19:\n      mload(0x40)\n      dup1\n      swap2\n      sub\n      swap1\n      return\n        /* \"ItemManager.sol\":1771:2091  function triggerDelivery(uint _itemIndex) public {... */\n    tag_5:\n      callvalue\n      dup1\n      iszero\n      tag_21\n      jumpi\n      0x00\n      dup1\n      revert\n    tag_21:\n      pop\n      tag_22\n      0x04\n      dup1\n      calldatasize\n      sub\n      dup2\n      add\n      swap1\n      tag_23\n      swap2\n      swap1\n      tag_8\n      jump\t// in\n    tag_23:\n      tag_24\n      jump\t// in\n    tag_22:\n      stop\n        /* \"ItemManager.sol\":1356:1765  function triggerPayment(uint _itemIndex) public payable {... */\n    tag_9:\n        /* \"ItemManager.sol\":1462:1471  msg.value */\n      callvalue\n        /* \"ItemManager.sol\":1430:1435  items */\n      0x00\n        /* \"ItemManager.sol\":1430:1447  items[_itemIndex] */\n      dup1\n        /* \"ItemManager.sol\":1436:1446  _itemIndex */\n      dup4\n        /* \"ItemManager.sol\":1430:1447  items[_itemIndex] */\n      dup2\n      mstore\n      0x20\n      add\n      swap1\n      dup2\n      mstore\n      0x20\n      add\n      0x00\n      keccak256\n        /* \"ItemManager.sol\":1430:1458  items[_itemIndex]._itemPrice */\n      0x02\n      add\n      sload\n        /* \"ItemManager.sol\":1430:1471  items[_itemIndex]._itemPrice == msg.value */\n      eq\n        /* \"ItemManager.sol\":1422:1504  require(items[_itemIndex]._itemPrice == msg.value, \"Only exact payments accepted\") */\n      tag_26\n      jumpi\n      mload(0x40)\n      0x08c379a000000000000000000000000000000000000000000000000000000000\n      dup2\n      mstore\n      0x04\n      add\n      tag_27\n      swap1\n      tag_28\n      jump\t// in\n    tag_27:\n      mload(0x40)\n      dup1\n      swap2\n      sub\n      swap1\n      revert\n    tag_26:\n        /* \"ItemManager.sol\":1550:1574  SupplyChainState.Created */\n      0x00\n        /* \"ItemManager.sol\":1522:1574  items[_itemIndex]._state == SupplyChainState.Created */\n      0x02\n      dup2\n      gt\n      iszero\n      tag_29\n      jumpi\n      tag_30\n      tag_31\n      jump\t// in\n    tag_30:\n    tag_29:\n        /* \"ItemManager.sol\":1522:1527  items */\n      0x00\n        /* \"ItemManager.sol\":1522:1539  items[_itemIndex] */\n      dup1\n        /* \"ItemManager.sol\":1528:1538  _itemIndex */\n      dup4\n        /* \"ItemManager.sol\":1522:1539  items[_itemIndex] */\n      dup2\n      mstore\n      0x20\n      add\n      swap1\n      dup2\n      mstore\n      0x20\n      add\n      0x00\n      keccak256\n        /* \"ItemManager.sol\":1522:1546  items[_itemIndex]._state */\n      0x03\n      add\n      0x00\n      swap1\n      sload\n      swap1\n      0x0100\n      exp\n      swap1\n      div\n      0xff\n      and\n        /* \"ItemManager.sol\":1522:1574  items[_itemIndex]._state == SupplyChainState.Created */\n      0x02\n      dup2\n      gt\n      iszero\n      tag_32\n      jumpi\n      tag_33\n      tag_31\n      jump\t// in\n    tag_33:\n    tag_32:\n      eq\n        /* \"ItemManager.sol\":1514:1626  require(items[_itemIndex]._state == SupplyChainState.Created, \"The item is already further in the supply chain\") */\n      tag_34\n      jumpi\n      mload(0x40)\n      0x08c379a000000000000000000000000000000000000000000000000000000000\n      dup2\n      mstore\n      0x04\n      add\n      tag_35\n      swap1\n      tag_36\n      jump\t// in\n    tag_35:\n      mload(0x40)\n      dup1\n      swap2\n      sub\n      swap1\n      revert\n    tag_34:\n        /* \"ItemManager.sol\":1663:1684  SupplyChainState.Paid */\n      0x01\n        /* \"ItemManager.sol\":1636:1641  items */\n      0x00\n        /* \"ItemManager.sol\":1636:1653  items[_itemIndex] */\n      dup1\n        /* \"ItemManager.sol\":1642:1652  _itemIndex */\n      dup4\n        /* \"ItemManager.sol\":1636:1653  items[_itemIndex] */\n      dup2\n      mstore\n      0x20\n      add\n      swap1\n      dup2\n      mstore\n      0x20\n      add\n      0x00\n      keccak256\n        /* \"ItemManager.sol\":1636:1660  items[_itemIndex]._state */\n      0x03\n      add\n      0x00\n        /* \"ItemManager.sol\":1636:1684  items[_itemIndex]._state = SupplyChainState.Paid */\n      0x0100\n      exp\n      dup2\n      sload\n      dup2\n      0xff\n      mul\n      not\n      and\n      swap1\n      dup4\n      0x02\n      dup2\n      gt\n      iszero\n      tag_37\n      jumpi\n      tag_38\n      tag_31\n      jump\t// in\n    tag_38:\n    tag_37:\n      mul\n      or\n      swap1\n      sstore\n      pop\n        /* \"ItemManager.sol\":1699:1758  SupplyChainStep(_itemIndex, uint(items[_itemIndex]._state)) */\n      0x8c198761ba3d324d155cbaf96f0ac38a531c085089e49106d95352535a1110c2\n        /* \"ItemManager.sol\":1715:1725  _itemIndex */\n      dup2\n        /* \"ItemManager.sol\":1732:1737  items */\n      0x00\n        /* \"ItemManager.sol\":1732:1749  items[_itemIndex] */\n      dup1\n        /* \"ItemManager.sol\":1738:1748  _itemIndex */\n      dup5\n        /* \"ItemManager.sol\":1732:1749  items[_itemIndex] */\n      dup2\n      mstore\n      0x20\n      add\n      swap1\n      dup2\n      mstore\n      0x20\n      add\n      0x00\n      keccak256\n        /* \"ItemManager.sol\":1732:1756  items[_itemIndex]._state */\n      0x03\n      add\n      0x00\n      swap1\n      sload\n      swap1\n      0x0100\n      exp\n      swap1\n      div\n      0xff\n      and\n        /* \"ItemManager.sol\":1727:1757  uint(items[_itemIndex]._state) */\n      0x02\n      dup2\n      gt\n      iszero\n      tag_39\n      jumpi\n      tag_40\n      tag_31\n      jump\t// in\n    tag_40:\n    tag_39:\n        /* \"ItemManager.sol\":1699:1758  SupplyChainStep(_itemIndex, uint(items[_itemIndex]._state)) */\n      mload(0x40)\n      tag_41\n      swap3\n      swap2\n      swap1\n      tag_42\n      jump\t// in\n    tag_41:\n      mload(0x40)\n      dup1\n      swap2\n      sub\n      swap1\n      log1\n        /* \"ItemManager.sol\":1356:1765  function triggerPayment(uint _itemIndex) public payable {... */\n      pop\n      jump\t// out\n        /* \"ItemManager.sol\":921:1350  function createItem(string memory _identifier, uint _itemPrice) public {... */\n    tag_14:\n        /* \"ItemManager.sol\":1002:1011  Item item */\n      0x00\n        /* \"ItemManager.sol\":1023:1027  this */\n      address\n        /* \"ItemManager.sol\":1029:1039  _itemPrice */\n      dup3\n        /* \"ItemManager.sol\":1041:1050  itemIndex */\n      sload(0x01)\n        /* \"ItemManager.sol\":1014:1051  new Item(this, _itemPrice, itemIndex) */\n      mload(0x40)\n      tag_44\n      swap1\n      tag_45\n      jump\t// in\n    tag_44:\n      tag_46\n      swap4\n      swap3\n      swap2\n      swap1\n      tag_47\n      jump\t// in\n    tag_46:\n      mload(0x40)\n      dup1\n      swap2\n      sub\n      swap1\n      0x00\n      create\n      dup1\n      iszero\n      dup1\n      iszero\n      tag_48\n      jumpi\n      returndatasize\n      0x00\n      dup1\n      returndatacopy\n      revert(0x00, returndatasize)\n    tag_48:\n      pop\n        /* \"ItemManager.sol\":1002:1051  Item item = new Item(this, _itemPrice, itemIndex) */\n      swap1\n      pop\n        /* \"ItemManager.sol\":1086:1090  item */\n      dup1\n        /* \"ItemManager.sol\":1061:1066  items */\n      0x00\n        /* \"ItemManager.sol\":1061:1077  items[itemIndex] */\n      dup1\n        /* \"ItemManager.sol\":1067:1076  itemIndex */\n      sload(0x01)\n        /* \"ItemManager.sol\":1061:1077  items[itemIndex] */\n      dup2\n      mstore\n      0x20\n      add\n      swap1\n      dup2\n      mstore\n      0x20\n      add\n      0x00\n      keccak256\n        /* \"ItemManager.sol\":1061:1083  items[itemIndex]._item */\n      0x00\n      add\n      0x00\n        /* \"ItemManager.sol\":1061:1090  items[itemIndex]._item = item */\n      0x0100\n      exp\n      dup2\n      sload\n      dup2\n      0xffffffffffffffffffffffffffffffffffffffff\n      mul\n      not\n      and\n      swap1\n      dup4\n      0xffffffffffffffffffffffffffffffffffffffff\n      and\n      mul\n      or\n      swap1\n      sstore\n      pop\n        /* \"ItemManager.sol\":1130:1141  _identifier */\n      dup3\n        /* \"ItemManager.sol\":1100:1105  items */\n      0x00\n        /* \"ItemManager.sol\":1100:1116  items[itemIndex] */\n      dup1\n        /* \"ItemManager.sol\":1106:1115  itemIndex */\n      sload(0x01)\n        /* \"ItemManager.sol\":1100:1116  items[itemIndex] */\n      dup2\n      mstore\n      0x20\n      add\n      swap1\n      dup2\n      mstore\n      0x20\n      add\n      0x00\n      keccak256\n        /* \"ItemManager.sol\":1100:1128  items[itemIndex]._identifier */\n      0x01\n      add\n        /* \"ItemManager.sol\":1100:1141  items[itemIndex]._identifier =_identifier */\n      swap1\n      dup1\n      mload\n      swap1\n      0x20\n      add\n      swap1\n      tag_49\n      swap3\n      swap2\n      swap1\n      tag_50\n      jump\t// in\n    tag_49:\n      pop\n        /* \"ItemManager.sol\":1180:1190  _itemPrice */\n      dup2\n        /* \"ItemManager.sol\":1151:1156  items */\n      0x00\n        /* \"ItemManager.sol\":1151:1167  items[itemIndex] */\n      dup1\n        /* \"ItemManager.sol\":1157:1166  itemIndex */\n      sload(0x01)\n        /* \"ItemManager.sol\":1151:1167  items[itemIndex] */\n      dup2\n      mstore\n      0x20\n      add\n      swap1\n      dup2\n      mstore\n      0x20\n      add\n      0x00\n      keccak256\n        /* \"ItemManager.sol\":1151:1178  items[itemIndex]._itemPrice */\n      0x02\n      add\n        /* \"ItemManager.sol\":1151:1190  items[itemIndex]._itemPrice =_itemPrice */\n      dup2\n      swap1\n      sstore\n      pop\n        /* \"ItemManager.sol\":1226:1250  SupplyChainState.Created */\n      0x00\n        /* \"ItemManager.sol\":1200:1205  items */\n      dup1\n        /* \"ItemManager.sol\":1200:1216  items[itemIndex] */\n      0x00\n        /* \"ItemManager.sol\":1206:1215  itemIndex */\n      sload(0x01)\n        /* \"ItemManager.sol\":1200:1216  items[itemIndex] */\n      dup2\n      mstore\n      0x20\n      add\n      swap1\n      dup2\n      mstore\n      0x20\n      add\n      0x00\n      keccak256\n        /* \"ItemManager.sol\":1200:1223  items[itemIndex]._state */\n      0x03\n      add\n      0x00\n        /* \"ItemManager.sol\":1200:1250  items[itemIndex]._state = SupplyChainState.Created */\n      0x0100\n      exp\n      dup2\n      sload\n      dup2\n      0xff\n      mul\n      not\n      and\n      swap1\n      dup4\n      0x02\n      dup2\n      gt\n      iszero\n      tag_51\n      jumpi\n      tag_52\n      tag_31\n      jump\t// in\n    tag_52:\n    tag_51:\n      mul\n      or\n      swap1\n      sstore\n      pop\n        /* \"ItemManager.sol\":1265:1322  SupplyChainStep(itemIndex, uint(items[itemIndex]._state)) */\n      0x8c198761ba3d324d155cbaf96f0ac38a531c085089e49106d95352535a1110c2\n        /* \"ItemManager.sol\":1281:1290  itemIndex */\n      sload(0x01)\n        /* \"ItemManager.sol\":1297:1302  items */\n      0x00\n        /* \"ItemManager.sol\":1297:1313  items[itemIndex] */\n      dup1\n        /* \"ItemManager.sol\":1303:1312  itemIndex */\n      sload(0x01)\n        /* \"ItemManager.sol\":1297:1313  items[itemIndex] */\n      dup2\n      mstore\n      0x20\n      add\n      swap1\n      dup2\n      mstore\n      0x20\n      add\n      0x00\n      keccak256\n        /* \"ItemManager.sol\":1297:1320  items[itemIndex]._state */\n      0x03\n      add\n      0x00\n      swap1\n      sload\n      swap1\n      0x0100\n      exp\n      swap1\n      div\n      0xff\n      and\n        /* \"ItemManager.sol\":1292:1321  uint(items[itemIndex]._state) */\n      0x02\n      dup2\n      gt\n      iszero\n      tag_53\n      jumpi\n      tag_54\n      tag_31\n      jump\t// in\n    tag_54:\n    tag_53:\n        /* \"ItemManager.sol\":1265:1322  SupplyChainStep(itemIndex, uint(items[itemIndex]._state)) */\n      mload(0x40)\n      tag_55\n      swap3\n      swap2\n      swap1\n      tag_42\n      jump\t// in\n    tag_55:\n      mload(0x40)\n      dup1\n      swap2\n      sub\n      swap1\n      log1\n        /* \"ItemManager.sol\":1332:1341  itemIndex */\n      0x01\n      0x00\n        /* \"ItemManager.sol\":1332:1343  itemIndex++ */\n      dup2\n      sload\n      dup1\n      swap3\n      swap2\n      swap1\n      tag_56\n      swap1\n      tag_57\n      jump\t// in\n    tag_56:\n      swap2\n      swap1\n      pop\n      sstore\n      pop\n        /* \"ItemManager.sol\":992:1350  {... */\n      pop\n        /* \"ItemManager.sol\":921:1350  function createItem(string memory _identifier, uint _itemPrice) public {... */\n      pop\n      pop\n      jump\t// out\n        /* \"ItemManager.sol\":695:731  mapping(uint => S_Item) public items */\n    tag_18:\n      mstore(0x20, 0x00)\n      dup1\n      0x00\n      mstore\n      keccak256(0x00, 0x40)\n      0x00\n      swap2\n      pop\n      swap1\n      pop\n      dup1\n      0x00\n      add\n      0x00\n      swap1\n      sload\n      swap1\n      0x0100\n      exp\n      swap1\n      div\n      0xffffffffffffffffffffffffffffffffffffffff\n      and\n      swap1\n      dup1\n      0x01\n      add\n      dup1\n      sload\n      tag_58\n      swap1\n      tag_59\n      jump\t// in\n    tag_58:\n      dup1\n      0x1f\n      add\n      0x20\n      dup1\n      swap2\n      div\n      mul\n      0x20\n      add\n      mload(0x40)\n      swap1\n      dup2\n      add\n      0x40\n      mstore\n      dup1\n      swap3\n      swap2\n      swap1\n      dup2\n      dup2\n      mstore\n      0x20\n      add\n      dup3\n      dup1\n      sload\n      tag_60\n      swap1\n      tag_59\n      jump\t// in\n    tag_60:\n      dup1\n      iszero\n      tag_61\n      jumpi\n      dup1\n      0x1f\n      lt\n      tag_62\n      jumpi\n      0x0100\n      dup1\n      dup4\n      sload\n      div\n      mul\n      dup4\n      mstore\n      swap2\n      0x20\n      add\n      swap2\n      jump(tag_61)\n    tag_62:\n      dup3\n      add\n      swap2\n      swap1\n      0x00\n      mstore\n      keccak256(0x00, 0x20)\n      swap1\n    tag_63:\n      dup2\n      sload\n      dup2\n      mstore\n      swap1\n      0x01\n      add\n      swap1\n      0x20\n      add\n      dup1\n      dup4\n      gt\n      tag_63\n      jumpi\n      dup3\n      swap1\n      sub\n      0x1f\n      and\n      dup3\n      add\n      swap2\n    tag_61:\n      pop\n      pop\n      pop\n      pop\n      pop\n      swap1\n      dup1\n      0x02\n      add\n      sload\n      swap1\n      dup1\n      0x03\n      add\n      0x00\n      swap1\n      sload\n      swap1\n      0x0100\n      exp\n      swap1\n      div\n      0xff\n      and\n      swap1\n      pop\n      dup5\n      jump\t// out\n        /* \"ItemManager.sol\":1771:2091  function triggerDelivery(uint _itemIndex) public {... */\n    tag_24:\n        /* \"ItemManager.sol\":1866:1887  SupplyChainState.Paid */\n      0x01\n        /* \"ItemManager.sol\":1838:1887  items[_itemIndex]._state == SupplyChainState.Paid */\n      0x02\n      dup2\n      gt\n      iszero\n      tag_65\n      jumpi\n      tag_66\n      tag_31\n      jump\t// in\n    tag_66:\n    tag_65:\n        /* \"ItemManager.sol\":1838:1843  items */\n      0x00\n        /* \"ItemManager.sol\":1838:1855  items[_itemIndex] */\n      dup1\n        /* \"ItemManager.sol\":1844:1854  _itemIndex */\n      dup4\n        /* \"ItemManager.sol\":1838:1855  items[_itemIndex] */\n      dup2\n      mstore\n      0x20\n      add\n      swap1\n      dup2\n      mstore\n      0x20\n      add\n      0x00\n      keccak256\n        /* \"ItemManager.sol\":1838:1862  items[_itemIndex]._state */\n      0x03\n      add\n      0x00\n      swap1\n      sload\n      swap1\n      0x0100\n      exp\n      swap1\n      div\n      0xff\n      and\n        /* \"ItemManager.sol\":1838:1887  items[_itemIndex]._state == SupplyChainState.Paid */\n      0x02\n      dup2\n      gt\n      iszero\n      tag_67\n      jumpi\n      tag_68\n      tag_31\n      jump\t// in\n    tag_68:\n    tag_67:\n      eq\n        /* \"ItemManager.sol\":1830:1947  require(items[_itemIndex]._state == SupplyChainState.Paid, \"The item is in a different position in the supply chain\") */\n      tag_69\n      jumpi\n      mload(0x40)\n      0x08c379a000000000000000000000000000000000000000000000000000000000\n      dup2\n      mstore\n      0x04\n      add\n      tag_70\n      swap1\n      tag_71\n      jump\t// in\n    tag_70:\n      mload(0x40)\n      dup1\n      swap2\n      sub\n      swap1\n      revert\n    tag_69:\n        /* \"ItemManager.sol\":1984:2010  SupplyChainState.Delivered */\n      0x02\n        /* \"ItemManager.sol\":1957:1962  items */\n      0x00\n        /* \"ItemManager.sol\":1957:1974  items[_itemIndex] */\n      dup1\n        /* \"ItemManager.sol\":1963:1973  _itemIndex */\n      dup4\n        /* \"ItemManager.sol\":1957:1974  items[_itemIndex] */\n      dup2\n      mstore\n      0x20\n      add\n      swap1\n      dup2\n      mstore\n      0x20\n      add\n      0x00\n      keccak256\n        /* \"ItemManager.sol\":1957:1981  items[_itemIndex]._state */\n      0x03\n      add\n      0x00\n        /* \"ItemManager.sol\":1957:2010  items[_itemIndex]._state = SupplyChainState.Delivered */\n      0x0100\n      exp\n      dup2\n      sload\n      dup2\n      0xff\n      mul\n      not\n      and\n      swap1\n      dup4\n      0x02\n      dup2\n      gt\n      iszero\n      tag_72\n      jumpi\n      tag_73\n      tag_31\n      jump\t// in\n    tag_73:\n    tag_72:\n      mul\n      or\n      swap1\n      sstore\n      pop\n        /* \"ItemManager.sol\":2025:2084  SupplyChainStep(_itemIndex, uint(items[_itemIndex]._state)) */\n      0x8c198761ba3d324d155cbaf96f0ac38a531c085089e49106d95352535a1110c2\n        /* \"ItemManager.sol\":2041:2051  _itemIndex */\n      dup2\n        /* \"ItemManager.sol\":2058:2063  items */\n      0x00\n        /* \"ItemManager.sol\":2058:2075  items[_itemIndex] */\n      dup1\n        /* \"ItemManager.sol\":2064:2074  _itemIndex */\n      dup5\n        /* \"ItemManager.sol\":2058:2075  items[_itemIndex] */\n      dup2\n      mstore\n      0x20\n      add\n      swap1\n      dup2\n      mstore\n      0x20\n      add\n      0x00\n      keccak256\n        /* \"ItemManager.sol\":2058:2082  items[_itemIndex]._state */\n      0x03\n      add\n      0x00\n      swap1\n      sload\n      swap1\n      0x0100\n      exp\n      swap1\n      div\n      0xff\n      and\n        /* \"ItemManager.sol\":2053:2083  uint(items[_itemIndex]._state) */\n      0x02\n      dup2\n      gt\n      iszero\n      tag_74\n      jumpi\n      tag_75\n      tag_31\n      jump\t// in\n    tag_75:\n    tag_74:\n        /* \"ItemManager.sol\":2025:2084  SupplyChainStep(_itemIndex, uint(items[_itemIndex]._state)) */\n      mload(0x40)\n      tag_76\n      swap3\n      swap2\n      swap1\n      tag_42\n      jump\t// in\n    tag_76:\n      mload(0x40)\n      dup1\n      swap2\n      sub\n      swap1\n      log1\n        /* \"ItemManager.sol\":1771:2091  function triggerDelivery(uint _itemIndex) public {... */\n      pop\n      jump\t// out\n    tag_45:\n      dataSize(sub_0)\n      dup1\n      dataOffset(sub_0)\n      dup4\n      codecopy\n      add\n      swap1\n      jump\t// out\n    tag_50:\n      dup3\n      dup1\n      sload\n      tag_77\n      swap1\n      tag_59\n      jump\t// in\n    tag_77:\n      swap1\n      0x00\n      mstore\n      keccak256(0x00, 0x20)\n      swap1\n      0x1f\n      add\n      0x20\n      swap1\n      div\n      dup2\n      add\n      swap3\n      dup3\n      tag_79\n      jumpi\n      0x00\n      dup6\n      sstore\n      jump(tag_78)\n    tag_79:\n      dup3\n      0x1f\n      lt\n      tag_80\n      jumpi\n      dup1\n      mload\n      not(0xff)\n      and\n      dup4\n      dup1\n      add\n      or\n      dup6\n      sstore\n      jump(tag_78)\n    tag_80:\n      dup3\n      dup1\n      add\n      0x01\n      add\n      dup6\n      sstore\n      dup3\n      iszero\n      tag_78\n      jumpi\n      swap2\n      dup3\n      add\n    tag_81:\n      dup3\n      dup2\n      gt\n      iszero\n      tag_82\n      jumpi\n      dup3\n      mload\n      dup3\n      sstore\n      swap2\n      0x20\n      add\n      swap2\n      swap1\n      0x01\n      add\n      swap1\n      jump(tag_81)\n    tag_82:\n    tag_78:\n      pop\n      swap1\n      pop\n      tag_83\n      swap2\n      swap1\n      tag_84\n      jump\t// in\n    tag_83:\n      pop\n      swap1\n      jump\t// out\n    tag_84:\n    tag_85:\n      dup1\n      dup3\n      gt\n      iszero\n      tag_86\n      jumpi\n      0x00\n      dup2\n      0x00\n      swap1\n      sstore\n      pop\n      0x01\n      add\n      jump(tag_85)\n    tag_86:\n      pop\n      swap1\n      jump\t// out\n        /* \"#utility.yul\":7:82   */\n    tag_87:\n        /* \"#utility.yul\":40:46   */\n      0x00\n        /* \"#utility.yul\":73:75   */\n      0x40\n        /* \"#utility.yul\":67:76   */\n      mload\n        /* \"#utility.yul\":57:76   */\n      swap1\n      pop\n        /* \"#utility.yul\":7:82   */\n      swap1\n      jump\t// out\n        /* \"#utility.yul\":88:205   */\n    tag_88:\n        /* \"#utility.yul\":197:198   */\n      0x00\n        /* \"#utility.yul\":194:195   */\n      dup1\n        /* \"#utility.yul\":187:199   */\n      revert\n        /* \"#utility.yul\":211:328   */\n    tag_89:\n        /* \"#utility.yul\":320:321   */\n      0x00\n        /* \"#utility.yul\":317:318   */\n      dup1\n        /* \"#utility.yul\":310:322   */\n      revert\n        /* \"#utility.yul\":334:411   */\n    tag_90:\n        /* \"#utility.yul\":371:378   */\n      0x00\n        /* \"#utility.yul\":400:405   */\n      dup2\n        /* \"#utility.yul\":389:405   */\n      swap1\n      pop\n        /* \"#utility.yul\":334:411   */\n      swap2\n      swap1\n      pop\n      jump\t// out\n        /* \"#utility.yul\":417:539   */\n    tag_91:\n        /* \"#utility.yul\":490:514   */\n      tag_135\n        /* \"#utility.yul\":508:513   */\n      dup2\n        /* \"#utility.yul\":490:514   */\n      tag_90\n      jump\t// in\n    tag_135:\n        /* \"#utility.yul\":483:488   */\n      dup2\n        /* \"#utility.yul\":480:515   */\n      eq\n        /* \"#utility.yul\":470:533   */\n      tag_136\n      jumpi\n        /* \"#utility.yul\":529:530   */\n      0x00\n        /* \"#utility.yul\":526:527   */\n      dup1\n        /* \"#utility.yul\":519:531   */\n      revert\n        /* \"#utility.yul\":470:533   */\n    tag_136:\n        /* \"#utility.yul\":417:539   */\n      pop\n      jump\t// out\n        /* \"#utility.yul\":545:684   */\n    tag_92:\n        /* \"#utility.yul\":591:596   */\n      0x00\n        /* \"#utility.yul\":629:635   */\n      dup2\n        /* \"#utility.yul\":616:636   */\n      calldataload\n        /* \"#utility.yul\":607:636   */\n      swap1\n      pop\n        /* \"#utility.yul\":645:678   */\n      tag_138\n        /* \"#utility.yul\":672:677   */\n      dup2\n        /* \"#utility.yul\":645:678   */\n      tag_91\n      jump\t// in\n    tag_138:\n        /* \"#utility.yul\":545:684   */\n      swap3\n      swap2\n      pop\n      pop\n      jump\t// out\n        /* \"#utility.yul\":690:1019   */\n    tag_8:\n        /* \"#utility.yul\":749:755   */\n      0x00\n        /* \"#utility.yul\":798:800   */\n      0x20\n        /* \"#utility.yul\":786:795   */\n      dup3\n        /* \"#utility.yul\":777:784   */\n      dup5\n        /* \"#utility.yul\":773:796   */\n      sub\n        /* \"#utility.yul\":769:801   */\n      slt\n        /* \"#utility.yul\":766:885   */\n      iszero\n      tag_140\n      jumpi\n        /* \"#utility.yul\":804:883   */\n      tag_141\n      tag_88\n      jump\t// in\n    tag_141:\n        /* \"#utility.yul\":766:885   */\n    tag_140:\n        /* \"#utility.yul\":924:925   */\n      0x00\n        /* \"#utility.yul\":949:1002   */\n      tag_142\n        /* \"#utility.yul\":994:1001   */\n      dup5\n        /* \"#utility.yul\":985:991   */\n      dup3\n        /* \"#utility.yul\":974:983   */\n      dup6\n        /* \"#utility.yul\":970:992   */\n      add\n        /* \"#utility.yul\":949:1002   */\n      tag_92\n      jump\t// in\n    tag_142:\n        /* \"#utility.yul\":939:1002   */\n      swap2\n      pop\n        /* \"#utility.yul\":895:1012   */\n      pop\n        /* \"#utility.yul\":690:1019   */\n      swap3\n      swap2\n      pop\n      pop\n      jump\t// out\n        /* \"#utility.yul\":1025:1142   */\n    tag_93:\n        /* \"#utility.yul\":1134:1135   */\n      0x00\n        /* \"#utility.yul\":1131:1132   */\n      dup1\n        /* \"#utility.yul\":1124:1136   */\n      revert\n        /* \"#utility.yul\":1148:1265   */\n    tag_94:\n        /* \"#utility.yul\":1257:1258   */\n      0x00\n        /* \"#utility.yul\":1254:1255   */\n      dup1\n        /* \"#utility.yul\":1247:1259   */\n      revert\n        /* \"#utility.yul\":1271:1373   */\n    tag_95:\n        /* \"#utility.yul\":1312:1318   */\n      0x00\n        /* \"#utility.yul\":1363:1365   */\n      0x1f\n        /* \"#utility.yul\":1359:1366   */\n      not\n        /* \"#utility.yul\":1354:1356   */\n      0x1f\n        /* \"#utility.yul\":1347:1352   */\n      dup4\n        /* \"#utility.yul\":1343:1357   */\n      add\n        /* \"#utility.yul\":1339:1367   */\n      and\n        /* \"#utility.yul\":1329:1367   */\n      swap1\n      pop\n        /* \"#utility.yul\":1271:1373   */\n      swap2\n      swap1\n      pop\n      jump\t// out\n        /* \"#utility.yul\":1379:1559   */\n    tag_96:\n        /* \"#utility.yul\":1427:1504   */\n      0x4e487b7100000000000000000000000000000000000000000000000000000000\n        /* \"#utility.yul\":1424:1425   */\n      0x00\n        /* \"#utility.yul\":1417:1505   */\n      mstore\n        /* \"#utility.yul\":1524:1528   */\n      0x41\n        /* \"#utility.yul\":1521:1522   */\n      0x04\n        /* \"#utility.yul\":1514:1529   */\n      mstore\n        /* \"#utility.yul\":1548:1552   */\n      0x24\n        /* \"#utility.yul\":1545:1546   */\n      0x00\n        /* \"#utility.yul\":1538:1553   */\n      revert\n        /* \"#utility.yul\":1565:1846   */\n    tag_97:\n        /* \"#utility.yul\":1648:1675   */\n      tag_148\n        /* \"#utility.yul\":1670:1674   */\n      dup3\n        /* \"#utility.yul\":1648:1675   */\n      tag_95\n      jump\t// in\n    tag_148:\n        /* \"#utility.yul\":1640:1646   */\n      dup2\n        /* \"#utility.yul\":1636:1676   */\n      add\n        /* \"#utility.yul\":1778:1784   */\n      dup2\n        /* \"#utility.yul\":1766:1776   */\n      dup2\n        /* \"#utility.yul\":1763:1785   */\n      lt\n        /* \"#utility.yul\":1742:1760   */\n      0xffffffffffffffff\n        /* \"#utility.yul\":1730:1740   */\n      dup3\n        /* \"#utility.yul\":1727:1761   */\n      gt\n        /* \"#utility.yul\":1724:1786   */\n      or\n        /* \"#utility.yul\":1721:1809   */\n      iszero\n      tag_149\n      jumpi\n        /* \"#utility.yul\":1789:1807   */\n      tag_150\n      tag_96\n      jump\t// in\n    tag_150:\n        /* \"#utility.yul\":1721:1809   */\n    tag_149:\n        /* \"#utility.yul\":1829:1839   */\n      dup1\n        /* \"#utility.yul\":1825:1827   */\n      0x40\n        /* \"#utility.yul\":1818:1840   */\n      mstore\n        /* \"#utility.yul\":1608:1846   */\n      pop\n        /* \"#utility.yul\":1565:1846   */\n      pop\n      pop\n      jump\t// out\n        /* \"#utility.yul\":1852:1981   */\n    tag_98:\n        /* \"#utility.yul\":1886:1892   */\n      0x00\n        /* \"#utility.yul\":1913:1933   */\n      tag_152\n      tag_87\n      jump\t// in\n    tag_152:\n        /* \"#utility.yul\":1903:1933   */\n      swap1\n      pop\n        /* \"#utility.yul\":1942:1975   */\n      tag_153\n        /* \"#utility.yul\":1970:1974   */\n      dup3\n        /* \"#utility.yul\":1962:1968   */\n      dup3\n        /* \"#utility.yul\":1942:1975   */\n      tag_97\n      jump\t// in\n    tag_153:\n        /* \"#utility.yul\":1852:1981   */\n      swap2\n      swap1\n      pop\n      jump\t// out\n        /* \"#utility.yul\":1987:2295   */\n    tag_99:\n        /* \"#utility.yul\":2049:2053   */\n      0x00\n        /* \"#utility.yul\":2139:2157   */\n      0xffffffffffffffff\n        /* \"#utility.yul\":2131:2137   */\n      dup3\n        /* \"#utility.yul\":2128:2158   */\n      gt\n        /* \"#utility.yul\":2125:2181   */\n      iszero\n      tag_155\n      jumpi\n        /* \"#utility.yul\":2161:2179   */\n      tag_156\n      tag_96\n      jump\t// in\n    tag_156:\n        /* \"#utility.yul\":2125:2181   */\n    tag_155:\n        /* \"#utility.yul\":2199:2228   */\n      tag_157\n        /* \"#utility.yul\":2221:2227   */\n      dup3\n        /* \"#utility.yul\":2199:2228   */\n      tag_95\n      jump\t// in\n    tag_157:\n        /* \"#utility.yul\":2191:2228   */\n      swap1\n      pop\n        /* \"#utility.yul\":2283:2287   */\n      0x20\n        /* \"#utility.yul\":2277:2281   */\n      dup2\n        /* \"#utility.yul\":2273:2288   */\n      add\n        /* \"#utility.yul\":2265:2288   */\n      swap1\n      pop\n        /* \"#utility.yul\":1987:2295   */\n      swap2\n      swap1\n      pop\n      jump\t// out\n        /* \"#utility.yul\":2301:2455   */\n    tag_100:\n        /* \"#utility.yul\":2385:2391   */\n      dup3\n        /* \"#utility.yul\":2380:2383   */\n      dup2\n        /* \"#utility.yul\":2375:2378   */\n      dup4\n        /* \"#utility.yul\":2362:2392   */\n      calldatacopy\n        /* \"#utility.yul\":2447:2448   */\n      0x00\n        /* \"#utility.yul\":2438:2444   */\n      dup4\n        /* \"#utility.yul\":2433:2436   */\n      dup4\n        /* \"#utility.yul\":2429:2445   */\n      add\n        /* \"#utility.yul\":2422:2449   */\n      mstore\n        /* \"#utility.yul\":2301:2455   */\n      pop\n      pop\n      pop\n      jump\t// out\n        /* \"#utility.yul\":2461:2873   */\n    tag_101:\n        /* \"#utility.yul\":2539:2544   */\n      0x00\n        /* \"#utility.yul\":2564:2630   */\n      tag_160\n        /* \"#utility.yul\":2580:2629   */\n      tag_161\n        /* \"#utility.yul\":2622:2628   */\n      dup5\n        /* \"#utility.yul\":2580:2629   */\n      tag_99\n      jump\t// in\n    tag_161:\n        /* \"#utility.yul\":2564:2630   */\n      tag_98\n      jump\t// in\n    tag_160:\n        /* \"#utility.yul\":2555:2630   */\n      swap1\n      pop\n        /* \"#utility.yul\":2653:2659   */\n      dup3\n        /* \"#utility.yul\":2646:2651   */\n      dup2\n        /* \"#utility.yul\":2639:2660   */\n      mstore\n        /* \"#utility.yul\":2691:2695   */\n      0x20\n        /* \"#utility.yul\":2684:2689   */\n      dup2\n        /* \"#utility.yul\":2680:2696   */\n      add\n        /* \"#utility.yul\":2729:2732   */\n      dup5\n        /* \"#utility.yul\":2720:2726   */\n      dup5\n        /* \"#utility.yul\":2715:2718   */\n      dup5\n        /* \"#utility.yul\":2711:2727   */\n      add\n        /* \"#utility.yul\":2708:2733   */\n      gt\n        /* \"#utility.yul\":2705:2817   */\n      iszero\n      tag_162\n      jumpi\n        /* \"#utility.yul\":2736:2815   */\n      tag_163\n      tag_94\n      jump\t// in\n    tag_163:\n        /* \"#utility.yul\":2705:2817   */\n    tag_162:\n        /* \"#utility.yul\":2826:2867   */\n      tag_164\n        /* \"#utility.yul\":2860:2866   */\n      dup5\n        /* \"#utility.yul\":2855:2858   */\n      dup3\n        /* \"#utility.yul\":2850:2853   */\n      dup6\n        /* \"#utility.yul\":2826:2867   */\n      tag_100\n      jump\t// in\n    tag_164:\n        /* \"#utility.yul\":2545:2873   */\n      pop\n        /* \"#utility.yul\":2461:2873   */\n      swap4\n      swap3\n      pop\n      pop\n      pop\n      jump\t// out\n        /* \"#utility.yul\":2893:3233   */\n    tag_102:\n        /* \"#utility.yul\":2949:2954   */\n      0x00\n        /* \"#utility.yul\":2998:3001   */\n      dup3\n        /* \"#utility.yul\":2991:2995   */\n      0x1f\n        /* \"#utility.yul\":2983:2989   */\n      dup4\n        /* \"#utility.yul\":2979:2996   */\n      add\n        /* \"#utility.yul\":2975:3002   */\n      slt\n        /* \"#utility.yul\":2965:3087   */\n      tag_166\n      jumpi\n        /* \"#utility.yul\":3006:3085   */\n      tag_167\n      tag_93\n      jump\t// in\n    tag_167:\n        /* \"#utility.yul\":2965:3087   */\n    tag_166:\n        /* \"#utility.yul\":3123:3129   */\n      dup2\n        /* \"#utility.yul\":3110:3130   */\n      calldataload\n        /* \"#utility.yul\":3148:3227   */\n      tag_168\n        /* \"#utility.yul\":3223:3226   */\n      dup5\n        /* \"#utility.yul\":3215:3221   */\n      dup3\n        /* \"#utility.yul\":3208:3212   */\n      0x20\n        /* \"#utility.yul\":3200:3206   */\n      dup7\n        /* \"#utility.yul\":3196:3213   */\n      add\n        /* \"#utility.yul\":3148:3227   */\n      tag_101\n      jump\t// in\n    tag_168:\n        /* \"#utility.yul\":3139:3227   */\n      swap2\n      pop\n        /* \"#utility.yul\":2955:3233   */\n      pop\n        /* \"#utility.yul\":2893:3233   */\n      swap3\n      swap2\n      pop\n      pop\n      jump\t// out\n        /* \"#utility.yul\":3239:3893   */\n    tag_13:\n        /* \"#utility.yul\":3317:3323   */\n      0x00\n        /* \"#utility.yul\":3325:3331   */\n      dup1\n        /* \"#utility.yul\":3374:3376   */\n      0x40\n        /* \"#utility.yul\":3362:3371   */\n      dup4\n        /* \"#utility.yul\":3353:3360   */\n      dup6\n        /* \"#utility.yul\":3349:3372   */\n      sub\n        /* \"#utility.yul\":3345:3377   */\n      slt\n        /* \"#utility.yul\":3342:3461   */\n      iszero\n      tag_170\n      jumpi\n        /* \"#utility.yul\":3380:3459   */\n      tag_171\n      tag_88\n      jump\t// in\n    tag_171:\n        /* \"#utility.yul\":3342:3461   */\n    tag_170:\n        /* \"#utility.yul\":3528:3529   */\n      0x00\n        /* \"#utility.yul\":3517:3526   */\n      dup4\n        /* \"#utility.yul\":3513:3530   */\n      add\n        /* \"#utility.yul\":3500:3531   */\n      calldataload\n        /* \"#utility.yul\":3558:3576   */\n      0xffffffffffffffff\n        /* \"#utility.yul\":3550:3556   */\n      dup2\n        /* \"#utility.yul\":3547:3577   */\n      gt\n        /* \"#utility.yul\":3544:3661   */\n      iszero\n      tag_172\n      jumpi\n        /* \"#utility.yul\":3580:3659   */\n      tag_173\n      tag_89\n      jump\t// in\n    tag_173:\n        /* \"#utility.yul\":3544:3661   */\n    tag_172:\n        /* \"#utility.yul\":3685:3748   */\n      tag_174\n        /* \"#utility.yul\":3740:3747   */\n      dup6\n        /* \"#utility.yul\":3731:3737   */\n      dup3\n        /* \"#utility.yul\":3720:3729   */\n      dup7\n        /* \"#utility.yul\":3716:3738   */\n      add\n        /* \"#utility.yul\":3685:3748   */\n      tag_102\n      jump\t// in\n    tag_174:\n        /* \"#utility.yul\":3675:3748   */\n      swap3\n      pop\n        /* \"#utility.yul\":3471:3758   */\n      pop\n        /* \"#utility.yul\":3797:3799   */\n      0x20\n        /* \"#utility.yul\":3823:3876   */\n      tag_175\n        /* \"#utility.yul\":3868:3875   */\n      dup6\n        /* \"#utility.yul\":3859:3865   */\n      dup3\n        /* \"#utility.yul\":3848:3857   */\n      dup7\n        /* \"#utility.yul\":3844:3866   */\n      add\n        /* \"#utility.yul\":3823:3876   */\n      tag_92\n      jump\t// in\n    tag_175:\n        /* \"#utility.yul\":3813:3876   */\n      swap2\n      pop\n        /* \"#utility.yul\":3768:3886   */\n      pop\n        /* \"#utility.yul\":3239:3893   */\n      swap3\n      pop\n      swap3\n      swap1\n      pop\n      jump\t// out\n        /* \"#utility.yul\":3899:4025   */\n    tag_103:\n        /* \"#utility.yul\":3936:3943   */\n      0x00\n        /* \"#utility.yul\":3976:4018   */\n      0xffffffffffffffffffffffffffffffffffffffff\n        /* \"#utility.yul\":3969:3974   */\n      dup3\n        /* \"#utility.yul\":3965:4019   */\n      and\n        /* \"#utility.yul\":3954:4019   */\n      swap1\n      pop\n        /* \"#utility.yul\":3899:4025   */\n      swap2\n      swap1\n      pop\n      jump\t// out\n        /* \"#utility.yul\":4031:4091   */\n    tag_104:\n        /* \"#utility.yul\":4059:4062   */\n      0x00\n        /* \"#utility.yul\":4080:4085   */\n      dup2\n        /* \"#utility.yul\":4073:4085   */\n      swap1\n      pop\n        /* \"#utility.yul\":4031:4091   */\n      swap2\n      swap1\n      pop\n      jump\t// out\n        /* \"#utility.yul\":4097:4239   */\n    tag_105:\n        /* \"#utility.yul\":4147:4156   */\n      0x00\n        /* \"#utility.yul\":4180:4233   */\n      tag_179\n        /* \"#utility.yul\":4198:4232   */\n      tag_180\n        /* \"#utility.yul\":4207:4231   */\n      tag_181\n        /* \"#utility.yul\":4225:4230   */\n      dup5\n        /* \"#utility.yul\":4207:4231   */\n      tag_103\n      jump\t// in\n    tag_181:\n        /* \"#utility.yul\":4198:4232   */\n      tag_104\n      jump\t// in\n    tag_180:\n        /* \"#utility.yul\":4180:4233   */\n      tag_103\n      jump\t// in\n    tag_179:\n        /* \"#utility.yul\":4167:4233   */\n      swap1\n      pop\n        /* \"#utility.yul\":4097:4239   */\n      swap2\n      swap1\n      pop\n      jump\t// out\n        /* \"#utility.yul\":4245:4379   */\n    tag_106:\n        /* \"#utility.yul\":4303:4312   */\n      0x00\n        /* \"#utility.yul\":4336:4373   */\n      tag_183\n        /* \"#utility.yul\":4367:4372   */\n      dup3\n        /* \"#utility.yul\":4336:4373   */\n      tag_105\n      jump\t// in\n    tag_183:\n        /* \"#utility.yul\":4323:4373   */\n      swap1\n      pop\n        /* \"#utility.yul\":4245:4379   */\n      swap2\n      swap1\n      pop\n      jump\t// out\n        /* \"#utility.yul\":4385:4538   */\n    tag_107:\n        /* \"#utility.yul\":4454:4463   */\n      0x00\n        /* \"#utility.yul\":4487:4532   */\n      tag_185\n        /* \"#utility.yul\":4526:4531   */\n      dup3\n        /* \"#utility.yul\":4487:4532   */\n      tag_106\n      jump\t// in\n    tag_185:\n        /* \"#utility.yul\":4474:4532   */\n      swap1\n      pop\n        /* \"#utility.yul\":4385:4538   */\n      swap2\n      swap1\n      pop\n      jump\t// out\n        /* \"#utility.yul\":4544:4713   */\n    tag_108:\n        /* \"#utility.yul\":4650:4706   */\n      tag_187\n        /* \"#utility.yul\":4700:4705   */\n      dup2\n        /* \"#utility.yul\":4650:4706   */\n      tag_107\n      jump\t// in\n    tag_187:\n        /* \"#utility.yul\":4645:4648   */\n      dup3\n        /* \"#utility.yul\":4638:4707   */\n      mstore\n        /* \"#utility.yul\":4544:4713   */\n      pop\n      pop\n      jump\t// out\n        /* \"#utility.yul\":4719:4818   */\n    tag_109:\n        /* \"#utility.yul\":4771:4777   */\n      0x00\n        /* \"#utility.yul\":4805:4810   */\n      dup2\n        /* \"#utility.yul\":4799:4811   */\n      mload\n        /* \"#utility.yul\":4789:4811   */\n      swap1\n      pop\n        /* \"#utility.yul\":4719:4818   */\n      swap2\n      swap1\n      pop\n      jump\t// out\n        /* \"#utility.yul\":4824:4993   */\n    tag_110:\n        /* \"#utility.yul\":4908:4919   */\n      0x00\n        /* \"#utility.yul\":4942:4948   */\n      dup3\n        /* \"#utility.yul\":4937:4940   */\n      dup3\n        /* \"#utility.yul\":4930:4949   */\n      mstore\n        /* \"#utility.yul\":4982:4986   */\n      0x20\n        /* \"#utility.yul\":4977:4980   */\n      dup3\n        /* \"#utility.yul\":4973:4987   */\n      add\n        /* \"#utility.yul\":4958:4987   */\n      swap1\n      pop\n        /* \"#utility.yul\":4824:4993   */\n      swap3\n      swap2\n      pop\n      pop\n      jump\t// out\n        /* \"#utility.yul\":4999:5306   */\n    tag_111:\n        /* \"#utility.yul\":5067:5068   */\n      0x00\n        /* \"#utility.yul\":5077:5190   */\n    tag_191:\n        /* \"#utility.yul\":5091:5097   */\n      dup4\n        /* \"#utility.yul\":5088:5089   */\n      dup2\n        /* \"#utility.yul\":5085:5098   */\n      lt\n        /* \"#utility.yul\":5077:5190   */\n      iszero\n      tag_193\n      jumpi\n        /* \"#utility.yul\":5176:5177   */\n      dup1\n        /* \"#utility.yul\":5171:5174   */\n      dup3\n        /* \"#utility.yul\":5167:5178   */\n      add\n        /* \"#utility.yul\":5161:5179   */\n      mload\n        /* \"#utility.yul\":5157:5158   */\n      dup2\n        /* \"#utility.yul\":5152:5155   */\n      dup5\n        /* \"#utility.yul\":5148:5159   */\n      add\n        /* \"#utility.yul\":5141:5180   */\n      mstore\n        /* \"#utility.yul\":5113:5115   */\n      0x20\n        /* \"#utility.yul\":5110:5111   */\n      dup2\n        /* \"#utility.yul\":5106:5116   */\n      add\n        /* \"#utility.yul\":5101:5116   */\n      swap1\n      pop\n        /* \"#utility.yul\":5077:5190   */\n      jump(tag_191)\n    tag_193:\n        /* \"#utility.yul\":5208:5214   */\n      dup4\n        /* \"#utility.yul\":5205:5206   */\n      dup2\n        /* \"#utility.yul\":5202:5215   */\n      gt\n        /* \"#utility.yul\":5199:5300   */\n      iszero\n      tag_194\n      jumpi\n        /* \"#utility.yul\":5288:5289   */\n      0x00\n        /* \"#utility.yul\":5279:5285   */\n      dup5\n        /* \"#utility.yul\":5274:5277   */\n      dup5\n        /* \"#utility.yul\":5270:5286   */\n      add\n        /* \"#utility.yul\":5263:5290   */\n      mstore\n        /* \"#utility.yul\":5199:5300   */\n    tag_194:\n        /* \"#utility.yul\":5048:5306   */\n      pop\n        /* \"#utility.yul\":4999:5306   */\n      pop\n      pop\n      pop\n      jump\t// out\n        /* \"#utility.yul\":5312:5676   */\n    tag_112:\n        /* \"#utility.yul\":5400:5403   */\n      0x00\n        /* \"#utility.yul\":5428:5467   */\n      tag_196\n        /* \"#utility.yul\":5461:5466   */\n      dup3\n        /* \"#utility.yul\":5428:5467   */\n      tag_109\n      jump\t// in\n    tag_196:\n        /* \"#utility.yul\":5483:5554   */\n      tag_197\n        /* \"#utility.yul\":5547:5553   */\n      dup2\n        /* \"#utility.yul\":5542:5545   */\n      dup6\n        /* \"#utility.yul\":5483:5554   */\n      tag_110\n      jump\t// in\n    tag_197:\n        /* \"#utility.yul\":5476:5554   */\n      swap4\n      pop\n        /* \"#utility.yul\":5563:5615   */\n      tag_198\n        /* \"#utility.yul\":5608:5614   */\n      dup2\n        /* \"#utility.yul\":5603:5606   */\n      dup6\n        /* \"#utility.yul\":5596:5600   */\n      0x20\n        /* \"#utility.yul\":5589:5594   */\n      dup7\n        /* \"#utility.yul\":5585:5601   */\n      add\n        /* \"#utility.yul\":5563:5615   */\n      tag_111\n      jump\t// in\n    tag_198:\n        /* \"#utility.yul\":5640:5669   */\n      tag_199\n        /* \"#utility.yul\":5662:5668   */\n      dup2\n        /* \"#utility.yul\":5640:5669   */\n      tag_95\n      jump\t// in\n    tag_199:\n        /* \"#utility.yul\":5635:5638   */\n      dup5\n        /* \"#utility.yul\":5631:5670   */\n      add\n        /* \"#utility.yul\":5624:5670   */\n      swap2\n      pop\n        /* \"#utility.yul\":5404:5676   */\n      pop\n        /* \"#utility.yul\":5312:5676   */\n      swap3\n      swap2\n      pop\n      pop\n      jump\t// out\n        /* \"#utility.yul\":5682:5800   */\n    tag_113:\n        /* \"#utility.yul\":5769:5793   */\n      tag_201\n        /* \"#utility.yul\":5787:5792   */\n      dup2\n        /* \"#utility.yul\":5769:5793   */\n      tag_90\n      jump\t// in\n    tag_201:\n        /* \"#utility.yul\":5764:5767   */\n      dup3\n        /* \"#utility.yul\":5757:5794   */\n      mstore\n        /* \"#utility.yul\":5682:5800   */\n      pop\n      pop\n      jump\t// out\n        /* \"#utility.yul\":5806:5986   */\n    tag_31:\n        /* \"#utility.yul\":5854:5931   */\n      0x4e487b7100000000000000000000000000000000000000000000000000000000\n        /* \"#utility.yul\":5851:5852   */\n      0x00\n        /* \"#utility.yul\":5844:5932   */\n      mstore\n        /* \"#utility.yul\":5951:5955   */\n      0x21\n        /* \"#utility.yul\":5948:5949   */\n      0x04\n        /* \"#utility.yul\":5941:5956   */\n      mstore\n        /* \"#utility.yul\":5975:5979   */\n      0x24\n        /* \"#utility.yul\":5972:5973   */\n      0x00\n        /* \"#utility.yul\":5965:5980   */\n      revert\n        /* \"#utility.yul\":5992:6116   */\n    tag_114:\n        /* \"#utility.yul\":6084:6085   */\n      0x03\n        /* \"#utility.yul\":6077:6082   */\n      dup2\n        /* \"#utility.yul\":6074:6086   */\n      lt\n        /* \"#utility.yul\":6064:6110   */\n      tag_204\n      jumpi\n        /* \"#utility.yul\":6090:6108   */\n      tag_205\n      tag_31\n      jump\t// in\n    tag_205:\n        /* \"#utility.yul\":6064:6110   */\n    tag_204:\n        /* \"#utility.yul\":5992:6116   */\n      pop\n      jump\t// out\n        /* \"#utility.yul\":6122:6271   */\n    tag_115:\n        /* \"#utility.yul\":6178:6185   */\n      0x00\n        /* \"#utility.yul\":6207:6212   */\n      dup2\n        /* \"#utility.yul\":6196:6212   */\n      swap1\n      pop\n        /* \"#utility.yul\":6213:6265   */\n      tag_207\n        /* \"#utility.yul\":6259:6264   */\n      dup3\n        /* \"#utility.yul\":6213:6265   */\n      tag_114\n      jump\t// in\n    tag_207:\n        /* \"#utility.yul\":6122:6271   */\n      swap2\n      swap1\n      pop\n      jump\t// out\n        /* \"#utility.yul\":6277:6426   */\n    tag_116:\n        /* \"#utility.yul\":6344:6353   */\n      0x00\n        /* \"#utility.yul\":6377:6420   */\n      tag_209\n        /* \"#utility.yul\":6414:6419   */\n      dup3\n        /* \"#utility.yul\":6377:6420   */\n      tag_115\n      jump\t// in\n    tag_209:\n        /* \"#utility.yul\":6364:6420   */\n      swap1\n      pop\n        /* \"#utility.yul\":6277:6426   */\n      swap2\n      swap1\n      pop\n      jump\t// out\n        /* \"#utility.yul\":6432:6597   */\n    tag_117:\n        /* \"#utility.yul\":6536:6590   */\n      tag_211\n        /* \"#utility.yul\":6584:6589   */\n      dup2\n        /* \"#utility.yul\":6536:6590   */\n      tag_116\n      jump\t// in\n    tag_211:\n        /* \"#utility.yul\":6531:6534   */\n      dup3\n        /* \"#utility.yul\":6524:6591   */\n      mstore\n        /* \"#utility.yul\":6432:6597   */\n      pop\n      pop\n      jump\t// out\n        /* \"#utility.yul\":6603:7319   */\n    tag_20:\n        /* \"#utility.yul\":6836:6840   */\n      0x00\n        /* \"#utility.yul\":6874:6877   */\n      0x80\n        /* \"#utility.yul\":6863:6872   */\n      dup3\n        /* \"#utility.yul\":6859:6878   */\n      add\n        /* \"#utility.yul\":6851:6878   */\n      swap1\n      pop\n        /* \"#utility.yul\":6888:6978   */\n      tag_213\n        /* \"#utility.yul\":6975:6976   */\n      0x00\n        /* \"#utility.yul\":6964:6973   */\n      dup4\n        /* \"#utility.yul\":6960:6977   */\n      add\n        /* \"#utility.yul\":6951:6957   */\n      dup8\n        /* \"#utility.yul\":6888:6978   */\n      tag_108\n      jump\t// in\n    tag_213:\n        /* \"#utility.yul\":7025:7034   */\n      dup2\n        /* \"#utility.yul\":7019:7023   */\n      dup2\n        /* \"#utility.yul\":7015:7035   */\n      sub\n        /* \"#utility.yul\":7010:7012   */\n      0x20\n        /* \"#utility.yul\":6999:7008   */\n      dup4\n        /* \"#utility.yul\":6995:7013   */\n      add\n        /* \"#utility.yul\":6988:7036   */\n      mstore\n        /* \"#utility.yul\":7053:7131   */\n      tag_214\n        /* \"#utility.yul\":7126:7130   */\n      dup2\n        /* \"#utility.yul\":7117:7123   */\n      dup7\n        /* \"#utility.yul\":7053:7131   */\n      tag_112\n      jump\t// in\n    tag_214:\n        /* \"#utility.yul\":7045:7131   */\n      swap1\n      pop\n        /* \"#utility.yul\":7141:7213   */\n      tag_215\n        /* \"#utility.yul\":7209:7211   */\n      0x40\n        /* \"#utility.yul\":7198:7207   */\n      dup4\n        /* \"#utility.yul\":7194:7212   */\n      add\n        /* \"#utility.yul\":7185:7191   */\n      dup6\n        /* \"#utility.yul\":7141:7213   */\n      tag_113\n      jump\t// in\n    tag_215:\n        /* \"#utility.yul\":7223:7312   */\n      tag_216\n        /* \"#utility.yul\":7308:7310   */\n      0x60\n        /* \"#utility.yul\":7297:7306   */\n      dup4\n        /* \"#utility.yul\":7293:7311   */\n      add\n        /* \"#utility.yul\":7284:7290   */\n      dup5\n        /* \"#utility.yul\":7223:7312   */\n      tag_117\n      jump\t// in\n    tag_216:\n        /* \"#utility.yul\":6603:7319   */\n      swap6\n      swap5\n      pop\n      pop\n      pop\n      pop\n      pop\n      jump\t// out\n        /* \"#utility.yul\":7325:7503   */\n    tag_118:\n        /* \"#utility.yul\":7465:7495   */\n      0x4f6e6c79206578616374207061796d656e747320616363657074656400000000\n        /* \"#utility.yul\":7461:7462   */\n      0x00\n        /* \"#utility.yul\":7453:7459   */\n      dup3\n        /* \"#utility.yul\":7449:7463   */\n      add\n        /* \"#utility.yul\":7442:7496   */\n      mstore\n        /* \"#utility.yul\":7325:7503   */\n      pop\n      jump\t// out\n        /* \"#utility.yul\":7509:7875   */\n    tag_119:\n        /* \"#utility.yul\":7651:7654   */\n      0x00\n        /* \"#utility.yul\":7672:7739   */\n      tag_219\n        /* \"#utility.yul\":7736:7738   */\n      0x1c\n        /* \"#utility.yul\":7731:7734   */\n      dup4\n        /* \"#utility.yul\":7672:7739   */\n      tag_110\n      jump\t// in\n    tag_219:\n        /* \"#utility.yul\":7665:7739   */\n      swap2\n      pop\n        /* \"#utility.yul\":7748:7841   */\n      tag_220\n        /* \"#utility.yul\":7837:7840   */\n      dup3\n        /* \"#utility.yul\":7748:7841   */\n      tag_118\n      jump\t// in\n    tag_220:\n        /* \"#utility.yul\":7866:7868   */\n      0x20\n        /* \"#utility.yul\":7861:7864   */\n      dup3\n        /* \"#utility.yul\":7857:7869   */\n      add\n        /* \"#utility.yul\":7850:7869   */\n      swap1\n      pop\n        /* \"#utility.yul\":7509:7875   */\n      swap2\n      swap1\n      pop\n      jump\t// out\n        /* \"#utility.yul\":7881:8300   */\n    tag_28:\n        /* \"#utility.yul\":8047:8051   */\n      0x00\n        /* \"#utility.yul\":8085:8087   */\n      0x20\n        /* \"#utility.yul\":8074:8083   */\n      dup3\n        /* \"#utility.yul\":8070:8088   */\n      add\n        /* \"#utility.yul\":8062:8088   */\n      swap1\n      pop\n        /* \"#utility.yul\":8134:8143   */\n      dup2\n        /* \"#utility.yul\":8128:8132   */\n      dup2\n        /* \"#utility.yul\":8124:8144   */\n      sub\n        /* \"#utility.yul\":8120:8121   */\n      0x00\n        /* \"#utility.yul\":8109:8118   */\n      dup4\n        /* \"#utility.yul\":8105:8122   */\n      add\n        /* \"#utility.yul\":8098:8145   */\n      mstore\n        /* \"#utility.yul\":8162:8293   */\n      tag_222\n        /* \"#utility.yul\":8288:8292   */\n      dup2\n        /* \"#utility.yul\":8162:8293   */\n      tag_119\n      jump\t// in\n    tag_222:\n        /* \"#utility.yul\":8154:8293   */\n      swap1\n      pop\n        /* \"#utility.yul\":7881:8300   */\n      swap2\n      swap1\n      pop\n      jump\t// out\n        /* \"#utility.yul\":8306:8540   */\n    tag_120:\n        /* \"#utility.yul\":8446:8480   */\n      0x546865206974656d20697320616c7265616479206675727468657220696e2074\n        /* \"#utility.yul\":8442:8443   */\n      0x00\n        /* \"#utility.yul\":8434:8440   */\n      dup3\n        /* \"#utility.yul\":8430:8444   */\n      add\n        /* \"#utility.yul\":8423:8481   */\n      mstore\n        /* \"#utility.yul\":8515:8532   */\n      0x686520737570706c7920636861696e0000000000000000000000000000000000\n        /* \"#utility.yul\":8510:8512   */\n      0x20\n        /* \"#utility.yul\":8502:8508   */\n      dup3\n        /* \"#utility.yul\":8498:8513   */\n      add\n        /* \"#utility.yul\":8491:8533   */\n      mstore\n        /* \"#utility.yul\":8306:8540   */\n      pop\n      jump\t// out\n        /* \"#utility.yul\":8546:8912   */\n    tag_121:\n        /* \"#utility.yul\":8688:8691   */\n      0x00\n        /* \"#utility.yul\":8709:8776   */\n      tag_225\n        /* \"#utility.yul\":8773:8775   */\n      0x2f\n        /* \"#utility.yul\":8768:8771   */\n      dup4\n        /* \"#utility.yul\":8709:8776   */\n      tag_110\n      jump\t// in\n    tag_225:\n        /* \"#utility.yul\":8702:8776   */\n      swap2\n      pop\n        /* \"#utility.yul\":8785:8878   */\n      tag_226\n        /* \"#utility.yul\":8874:8877   */\n      dup3\n        /* \"#utility.yul\":8785:8878   */\n      tag_120\n      jump\t// in\n    tag_226:\n        /* \"#utility.yul\":8903:8905   */\n      0x40\n        /* \"#utility.yul\":8898:8901   */\n      dup3\n        /* \"#utility.yul\":8894:8906   */\n      add\n        /* \"#utility.yul\":8887:8906   */\n      swap1\n      pop\n        /* \"#utility.yul\":8546:8912   */\n      swap2\n      swap1\n      pop\n      jump\t// out\n        /* \"#utility.yul\":8918:9337   */\n    tag_36:\n        /* \"#utility.yul\":9084:9088   */\n      0x00\n        /* \"#utility.yul\":9122:9124   */\n      0x20\n        /* \"#utility.yul\":9111:9120   */\n      dup3\n        /* \"#utility.yul\":9107:9125   */\n      add\n        /* \"#utility.yul\":9099:9125   */\n      swap1\n      pop\n        /* \"#utility.yul\":9171:9180   */\n      dup2\n        /* \"#utility.yul\":9165:9169   */\n      dup2\n        /* \"#utility.yul\":9161:9181   */\n      sub\n        /* \"#utility.yul\":9157:9158   */\n      0x00\n        /* \"#utility.yul\":9146:9155   */\n      dup4\n        /* \"#utility.yul\":9142:9159   */\n      add\n        /* \"#utility.yul\":9135:9182   */\n      mstore\n        /* \"#utility.yul\":9199:9330   */\n      tag_228\n        /* \"#utility.yul\":9325:9329   */\n      dup2\n        /* \"#utility.yul\":9199:9330   */\n      tag_121\n      jump\t// in\n    tag_228:\n        /* \"#utility.yul\":9191:9330   */\n      swap1\n      pop\n        /* \"#utility.yul\":8918:9337   */\n      swap2\n      swap1\n      pop\n      jump\t// out\n        /* \"#utility.yul\":9343:9675   */\n    tag_42:\n        /* \"#utility.yul\":9464:9468   */\n      0x00\n        /* \"#utility.yul\":9502:9504   */\n      0x40\n        /* \"#utility.yul\":9491:9500   */\n      dup3\n        /* \"#utility.yul\":9487:9505   */\n      add\n        /* \"#utility.yul\":9479:9505   */\n      swap1\n      pop\n        /* \"#utility.yul\":9515:9586   */\n      tag_230\n        /* \"#utility.yul\":9583:9584   */\n      0x00\n        /* \"#utility.yul\":9572:9581   */\n      dup4\n        /* \"#utility.yul\":9568:9585   */\n      add\n        /* \"#utility.yul\":9559:9565   */\n      dup6\n        /* \"#utility.yul\":9515:9586   */\n      tag_113\n      jump\t// in\n    tag_230:\n        /* \"#utility.yul\":9596:9668   */\n      tag_231\n        /* \"#utility.yul\":9664:9666   */\n      0x20\n        /* \"#utility.yul\":9653:9662   */\n      dup4\n        /* \"#utility.yul\":9649:9667   */\n      add\n        /* \"#utility.yul\":9640:9646   */\n      dup5\n        /* \"#utility.yul\":9596:9668   */\n      tag_113\n      jump\t// in\n    tag_231:\n        /* \"#utility.yul\":9343:9675   */\n      swap4\n      swap3\n      pop\n      pop\n      pop\n      jump\t// out\n        /* \"#utility.yul\":9681:9807   */\n    tag_122:\n        /* \"#utility.yul\":9731:9740   */\n      0x00\n        /* \"#utility.yul\":9764:9801   */\n      tag_233\n        /* \"#utility.yul\":9795:9800   */\n      dup3\n        /* \"#utility.yul\":9764:9801   */\n      tag_105\n      jump\t// in\n    tag_233:\n        /* \"#utility.yul\":9751:9801   */\n      swap1\n      pop\n        /* \"#utility.yul\":9681:9807   */\n      swap2\n      swap1\n      pop\n      jump\t// out\n        /* \"#utility.yul\":9813:9958   */\n    tag_123:\n        /* \"#utility.yul\":9882:9891   */\n      0x00\n        /* \"#utility.yul\":9915:9952   */\n      tag_235\n        /* \"#utility.yul\":9946:9951   */\n      dup3\n        /* \"#utility.yul\":9915:9952   */\n      tag_122\n      jump\t// in\n    tag_235:\n        /* \"#utility.yul\":9902:9952   */\n      swap1\n      pop\n        /* \"#utility.yul\":9813:9958   */\n      swap2\n      swap1\n      pop\n      jump\t// out\n        /* \"#utility.yul\":9964:10133   */\n    tag_124:\n        /* \"#utility.yul\":10070:10126   */\n      tag_237\n        /* \"#utility.yul\":10120:10125   */\n      dup2\n        /* \"#utility.yul\":10070:10126   */\n      tag_123\n      jump\t// in\n    tag_237:\n        /* \"#utility.yul\":10065:10068   */\n      dup3\n        /* \"#utility.yul\":10058:10127   */\n      mstore\n        /* \"#utility.yul\":9964:10133   */\n      pop\n      pop\n      jump\t// out\n        /* \"#utility.yul\":10139:10619   */\n    tag_47:\n        /* \"#utility.yul\":10307:10311   */\n      0x00\n        /* \"#utility.yul\":10345:10347   */\n      0x60\n        /* \"#utility.yul\":10334:10343   */\n      dup3\n        /* \"#utility.yul\":10330:10348   */\n      add\n        /* \"#utility.yul\":10322:10348   */\n      swap1\n      pop\n        /* \"#utility.yul\":10358:10448   */\n      tag_239\n        /* \"#utility.yul\":10445:10446   */\n      0x00\n        /* \"#utility.yul\":10434:10443   */\n      dup4\n        /* \"#utility.yul\":10430:10447   */\n      add\n        /* \"#utility.yul\":10421:10427   */\n      dup7\n        /* \"#utility.yul\":10358:10448   */\n      tag_124\n      jump\t// in\n    tag_239:\n        /* \"#utility.yul\":10458:10530   */\n      tag_240\n        /* \"#utility.yul\":10526:10528   */\n      0x20\n        /* \"#utility.yul\":10515:10524   */\n      dup4\n        /* \"#utility.yul\":10511:10529   */\n      add\n        /* \"#utility.yul\":10502:10508   */\n      dup6\n        /* \"#utility.yul\":10458:10530   */\n      tag_113\n      jump\t// in\n    tag_240:\n        /* \"#utility.yul\":10540:10612   */\n      tag_241\n        /* \"#utility.yul\":10608:10610   */\n      0x40\n        /* \"#utility.yul\":10597:10606   */\n      dup4\n        /* \"#utility.yul\":10593:10611   */\n      add\n        /* \"#utility.yul\":10584:10590   */\n      dup5\n        /* \"#utility.yul\":10540:10612   */\n      tag_113\n      jump\t// in\n    tag_241:\n        /* \"#utility.yul\":10139:10619   */\n      swap5\n      swap4\n      pop\n      pop\n      pop\n      pop\n      jump\t// out\n        /* \"#utility.yul\":10625:10805   */\n    tag_125:\n        /* \"#utility.yul\":10673:10750   */\n      0x4e487b7100000000000000000000000000000000000000000000000000000000\n        /* \"#utility.yul\":10670:10671   */\n      0x00\n        /* \"#utility.yul\":10663:10751   */\n      mstore\n        /* \"#utility.yul\":10770:10774   */\n      0x11\n        /* \"#utility.yul\":10767:10768   */\n      0x04\n        /* \"#utility.yul\":10760:10775   */\n      mstore\n        /* \"#utility.yul\":10794:10798   */\n      0x24\n        /* \"#utility.yul\":10791:10792   */\n      0x00\n        /* \"#utility.yul\":10784:10799   */\n      revert\n        /* \"#utility.yul\":10811:11044   */\n    tag_57:\n        /* \"#utility.yul\":10850:10853   */\n      0x00\n        /* \"#utility.yul\":10873:10897   */\n      tag_244\n        /* \"#utility.yul\":10891:10896   */\n      dup3\n        /* \"#utility.yul\":10873:10897   */\n      tag_90\n      jump\t// in\n    tag_244:\n        /* \"#utility.yul\":10864:10897   */\n      swap2\n      pop\n        /* \"#utility.yul\":10919:10985   */\n      0xffffffffffffffffffffffffffffffffffffffffffffffffffffffffffffffff\n        /* \"#utility.yul\":10912:10917   */\n      dup3\n        /* \"#utility.yul\":10909:10986   */\n      sub\n        /* \"#utility.yul\":10906:11009   */\n      tag_245\n      jumpi\n        /* \"#utility.yul\":10989:11007   */\n      tag_246\n      tag_125\n      jump\t// in\n    tag_246:\n        /* \"#utility.yul\":10906:11009   */\n    tag_245:\n        /* \"#utility.yul\":11036:11037   */\n      0x01\n        /* \"#utility.yul\":11029:11034   */\n      dup3\n        /* \"#utility.yul\":11025:11038   */\n      add\n        /* \"#utility.yul\":11018:11038   */\n      swap1\n      pop\n        /* \"#utility.yul\":10811:11044   */\n      swap2\n      swap1\n      pop\n      jump\t// out\n        /* \"#utility.yul\":11050:11230   */\n    tag_126:\n        /* \"#utility.yul\":11098:11175   */\n      0x4e487b7100000000000000000000000000000000000000000000000000000000\n        /* \"#utility.yul\":11095:11096   */\n      0x00\n        /* \"#utility.yul\":11088:11176   */\n      mstore\n        /* \"#utility.yul\":11195:11199   */\n      0x22\n        /* \"#utility.yul\":11192:11193   */\n      0x04\n        /* \"#utility.yul\":11185:11200   */\n      mstore\n        /* \"#utility.yul\":11219:11223   */\n      0x24\n        /* \"#utility.yul\":11216:11217   */\n      0x00\n        /* \"#utility.yul\":11209:11224   */\n      revert\n        /* \"#utility.yul\":11236:11556   */\n    tag_59:\n        /* \"#utility.yul\":11280:11286   */\n      0x00\n        /* \"#utility.yul\":11317:11318   */\n      0x02\n        /* \"#utility.yul\":11311:11315   */\n      dup3\n        /* \"#utility.yul\":11307:11319   */\n      div\n        /* \"#utility.yul\":11297:11319   */\n      swap1\n      pop\n        /* \"#utility.yul\":11364:11365   */\n      0x01\n        /* \"#utility.yul\":11358:11362   */\n      dup3\n        /* \"#utility.yul\":11354:11366   */\n      and\n        /* \"#utility.yul\":11385:11403   */\n      dup1\n        /* \"#utility.yul\":11375:11456   */\n      tag_249\n      jumpi\n        /* \"#utility.yul\":11441:11445   */\n      0x7f\n        /* \"#utility.yul\":11433:11439   */\n      dup3\n        /* \"#utility.yul\":11429:11446   */\n      and\n        /* \"#utility.yul\":11419:11446   */\n      swap2\n      pop\n        /* \"#utility.yul\":11375:11456   */\n    tag_249:\n        /* \"#utility.yul\":11503:11505   */\n      0x20\n        /* \"#utility.yul\":11495:11501   */\n      dup3\n        /* \"#utility.yul\":11492:11506   */\n      lt\n        /* \"#utility.yul\":11472:11490   */\n      dup2\n        /* \"#utility.yul\":11469:11507   */\n      sub\n        /* \"#utility.yul\":11466:11550   */\n      tag_250\n      jumpi\n        /* \"#utility.yul\":11522:11540   */\n      tag_251\n      tag_126\n      jump\t// in\n    tag_251:\n        /* \"#utility.yul\":11466:11550   */\n    tag_250:\n        /* \"#utility.yul\":11287:11556   */\n      pop\n        /* \"#utility.yul\":11236:11556   */\n      swap2\n      swap1\n      pop\n      jump\t// out\n        /* \"#utility.yul\":11562:11804   */\n    tag_127:\n        /* \"#utility.yul\":11702:11736   */\n      0x546865206974656d20697320696e206120646966666572656e7420706f736974\n        /* \"#utility.yul\":11698:11699   */\n      0x00\n        /* \"#utility.yul\":11690:11696   */\n      dup3\n        /* \"#utility.yul\":11686:11700   */\n      add\n        /* \"#utility.yul\":11679:11737   */\n      mstore\n        /* \"#utility.yul\":11771:11796   */\n      0x696f6e20696e2074686520737570706c7920636861696e000000000000000000\n        /* \"#utility.yul\":11766:11768   */\n      0x20\n        /* \"#utility.yul\":11758:11764   */\n      dup3\n        /* \"#utility.yul\":11754:11769   */\n      add\n        /* \"#utility.yul\":11747:11797   */\n      mstore\n        /* \"#utility.yul\":11562:11804   */\n      pop\n      jump\t// out\n        /* \"#utility.yul\":11810:12176   */\n    tag_128:\n        /* \"#utility.yul\":11952:11955   */\n      0x00\n        /* \"#utility.yul\":11973:12040   */\n      tag_254\n        /* \"#utility.yul\":12037:12039   */\n      0x37\n        /* \"#utility.yul\":12032:12035   */\n      dup4\n        /* \"#utility.yul\":11973:12040   */\n      tag_110\n      jump\t// in\n    tag_254:\n        /* \"#utility.yul\":11966:12040   */\n      swap2\n      pop\n        /* \"#utility.yul\":12049:12142   */\n      tag_255\n        /* \"#utility.yul\":12138:12141   */\n      dup3\n        /* \"#utility.yul\":12049:12142   */\n      tag_127\n      jump\t// in\n    tag_255:\n        /* \"#utility.yul\":12167:12169   */\n      0x40\n        /* \"#utility.yul\":12162:12165   */\n      dup3\n        /* \"#utility.yul\":12158:12170   */\n      add\n        /* \"#utility.yul\":12151:12170   */\n      swap1\n      pop\n        /* \"#utility.yul\":11810:12176   */\n      swap2\n      swap1\n      pop\n      jump\t// out\n        /* \"#utility.yul\":12182:12601   */\n    tag_71:\n        /* \"#utility.yul\":12348:12352   */\n      0x00\n        /* \"#utility.yul\":12386:12388   */\n      0x20\n        /* \"#utility.yul\":12375:12384   */\n      dup3\n        /* \"#utility.yul\":12371:12389   */\n      add\n        /* \"#utility.yul\":12363:12389   */\n      swap1\n      pop\n        /* \"#utility.yul\":12435:12444   */\n      dup2\n        /* \"#utility.yul\":12429:12433   */\n      dup2\n        /* \"#utility.yul\":12425:12445   */\n      sub\n        /* \"#utility.yul\":12421:12422   */\n      0x00\n        /* \"#utility.yul\":12410:12419   */\n      dup4\n        /* \"#utility.yul\":12406:12423   */\n      add\n        /* \"#utility.yul\":12399:12446   */\n      mstore\n        /* \"#utility.yul\":12463:12594   */\n      tag_257\n        /* \"#utility.yul\":12589:12593   */\n      dup2\n        /* \"#utility.yul\":12463:12594   */\n      tag_128\n      jump\t// in\n    tag_257:\n        /* \"#utility.yul\":12455:12594   */\n      swap1\n      pop\n        /* \"#utility.yul\":12182:12601   */\n      swap2\n      swap1\n      pop\n      jump\t// out\n    stop\n\n    sub_0: assembly {\n            /* \"ItemManager.sol\":112:445  contract Item{... */\n          mstore(0x40, 0x80)\n            /* \"ItemManager.sol\":216:402  constructor(ItemManager _parentContract, uint _priceInWei, uint _index) public {... */\n          callvalue\n          dup1\n          iszero\n          tag_1\n          jumpi\n          0x00\n          dup1\n          revert\n        tag_1:\n          pop\n          mload(0x40)\n          sub(codesize, bytecodeSize)\n          dup1\n          bytecodeSize\n          dup4\n          codecopy\n          dup2\n          dup2\n          add\n          0x40\n          mstore\n          dup2\n          add\n          swap1\n          tag_2\n          swap2\n          swap1\n          tag_3\n          jump\t// in\n        tag_2:\n            /* \"ItemManager.sol\":318:329  _priceInWei */\n          dup2\n            /* \"ItemManager.sol\":305:315  priceInWei */\n          0x00\n            /* \"ItemManager.sol\":305:329  priceInWei = _priceInWei */\n          dup2\n          swap1\n          sstore\n          pop\n            /* \"ItemManager.sol\":347:353  _index */\n          dup1\n            /* \"ItemManager.sol\":339:344  index */\n          0x01\n            /* \"ItemManager.sol\":339:353  index = _index */\n          dup2\n          swap1\n          sstore\n          pop\n            /* \"ItemManager.sol\":380:395  _parentContract */\n          dup3\n            /* \"ItemManager.sol\":363:377  parentContract */\n          0x02\n          0x00\n            /* \"ItemManager.sol\":363:395  parentContract = _parentContract */\n          0x0100\n          exp\n          dup2\n          sload\n          dup2\n          0xffffffffffffffffffffffffffffffffffffffff\n          mul\n          not\n          and\n          swap1\n          dup4\n          0xffffffffffffffffffffffffffffffffffffffff\n          and\n          mul\n          or\n          swap1\n          sstore\n          pop\n            /* \"ItemManager.sol\":216:402  constructor(ItemManager _parentContract, uint _priceInWei, uint _index) public {... */\n          pop\n          pop\n          pop\n            /* \"ItemManager.sol\":112:445  contract Item{... */\n          jump(tag_6)\n            /* \"#utility.yul\":88:205   */\n        tag_8:\n            /* \"#utility.yul\":197:198   */\n          0x00\n            /* \"#utility.yul\":194:195   */\n          dup1\n            /* \"#utility.yul\":187:199   */\n          revert\n            /* \"#utility.yul\":334:460   */\n        tag_10:\n            /* \"#utility.yul\":371:378   */\n          0x00\n            /* \"#utility.yul\":411:453   */\n          0xffffffffffffffffffffffffffffffffffffffff\n            /* \"#utility.yul\":404:409   */\n          dup3\n            /* \"#utility.yul\":400:454   */\n          and\n            /* \"#utility.yul\":389:454   */\n          swap1\n          pop\n            /* \"#utility.yul\":334:460   */\n          swap2\n          swap1\n          pop\n          jump\t// out\n            /* \"#utility.yul\":466:562   */\n        tag_11:\n            /* \"#utility.yul\":503:510   */\n          0x00\n            /* \"#utility.yul\":532:556   */\n          tag_24\n            /* \"#utility.yul\":550:555   */\n          dup3\n            /* \"#utility.yul\":532:556   */\n          tag_10\n          jump\t// in\n        tag_24:\n            /* \"#utility.yul\":521:556   */\n          swap1\n          pop\n            /* \"#utility.yul\":466:562   */\n          swap2\n          swap1\n          pop\n          jump\t// out\n            /* \"#utility.yul\":568:683   */\n        tag_12:\n            /* \"#utility.yul\":624:631   */\n          0x00\n            /* \"#utility.yul\":653:677   */\n          tag_26\n            /* \"#utility.yul\":671:676   */\n          dup3\n            /* \"#utility.yul\":653:677   */\n          tag_11\n          jump\t// in\n        tag_26:\n            /* \"#utility.yul\":642:677   */\n          swap1\n          pop\n            /* \"#utility.yul\":568:683   */\n          swap2\n          swap1\n          pop\n          jump\t// out\n            /* \"#utility.yul\":689:849   */\n        tag_13:\n            /* \"#utility.yul\":781:824   */\n          tag_28\n            /* \"#utility.yul\":818:823   */\n          dup2\n            /* \"#utility.yul\":781:824   */\n          tag_12\n          jump\t// in\n        tag_28:\n            /* \"#utility.yul\":774:779   */\n          dup2\n            /* \"#utility.yul\":771:825   */\n          eq\n            /* \"#utility.yul\":761:843   */\n          tag_29\n          jumpi\n            /* \"#utility.yul\":839:840   */\n          0x00\n            /* \"#utility.yul\":836:837   */\n          dup1\n            /* \"#utility.yul\":829:841   */\n          revert\n            /* \"#utility.yul\":761:843   */\n        tag_29:\n            /* \"#utility.yul\":689:849   */\n          pop\n          jump\t// out\n            /* \"#utility.yul\":855:1036   */\n        tag_14:\n            /* \"#utility.yul\":931:936   */\n          0x00\n            /* \"#utility.yul\":962:968   */\n          dup2\n            /* \"#utility.yul\":956:969   */\n          mload\n            /* \"#utility.yul\":947:969   */\n          swap1\n          pop\n            /* \"#utility.yul\":978:1030   */\n          tag_31\n            /* \"#utility.yul\":1024:1029   */\n          dup2\n            /* \"#utility.yul\":978:1030   */\n          tag_13\n          jump\t// in\n        tag_31:\n            /* \"#utility.yul\":855:1036   */\n          swap3\n          swap2\n          pop\n          pop\n          jump\t// out\n            /* \"#utility.yul\":1042:1119   */\n        tag_15:\n            /* \"#utility.yul\":1079:1086   */\n          0x00\n            /* \"#utility.yul\":1108:1113   */\n          dup2\n            /* \"#utility.yul\":1097:1113   */\n          swap1\n          pop\n            /* \"#utility.yul\":1042:1119   */\n          swap2\n          swap1\n          pop\n          jump\t// out\n            /* \"#utility.yul\":1125:1247   */\n        tag_16:\n            /* \"#utility.yul\":1198:1222   */\n          tag_34\n            /* \"#utility.yul\":1216:1221   */\n          dup2\n            /* \"#utility.yul\":1198:1222   */\n          tag_15\n          jump\t// in\n        tag_34:\n            /* \"#utility.yul\":1191:1196   */\n          dup2\n            /* \"#utility.yul\":1188:1223   */\n          eq\n            /* \"#utility.yul\":1178:1241   */\n          tag_35\n          jumpi\n            /* \"#utility.yul\":1237:1238   */\n          0x00\n            /* \"#utility.yul\":1234:1235   */\n          dup1\n            /* \"#utility.yul\":1227:1239   */\n          revert\n            /* \"#utility.yul\":1178:1241   */\n        tag_35:\n            /* \"#utility.yul\":1125:1247   */\n          pop\n          jump\t// out\n            /* \"#utility.yul\":1253:1396   */\n        tag_17:\n            /* \"#utility.yul\":1310:1315   */\n          0x00\n            /* \"#utility.yul\":1341:1347   */\n          dup2\n            /* \"#utility.yul\":1335:1348   */\n          mload\n            /* \"#utility.yul\":1326:1348   */\n          swap1\n          pop\n            /* \"#utility.yul\":1357:1390   */\n          tag_37\n            /* \"#utility.yul\":1384:1389   */\n          dup2\n            /* \"#utility.yul\":1357:1390   */\n          tag_16\n          jump\t// in\n        tag_37:\n            /* \"#utility.yul\":1253:1396   */\n          swap3\n          swap2\n          pop\n          pop\n          jump\t// out\n            /* \"#utility.yul\":1402:2103   */\n        tag_3:\n            /* \"#utility.yul\":1509:1515   */\n          0x00\n            /* \"#utility.yul\":1517:1523   */\n          dup1\n            /* \"#utility.yul\":1525:1531   */\n          0x00\n            /* \"#utility.yul\":1574:1576   */\n          0x60\n            /* \"#utility.yul\":1562:1571   */\n          dup5\n            /* \"#utility.yul\":1553:1560   */\n          dup7\n            /* \"#utility.yul\":1549:1572   */\n          sub\n            /* \"#utility.yul\":1545:1577   */\n          slt\n            /* \"#utility.yul\":1542:1661   */\n          iszero\n          tag_39\n          jumpi\n            /* \"#utility.yul\":1580:1659   */\n          tag_40\n          tag_8\n          jump\t// in\n        tag_40:\n            /* \"#utility.yul\":1542:1661   */\n        tag_39:\n            /* \"#utility.yul\":1700:1701   */\n          0x00\n            /* \"#utility.yul\":1725:1808   */\n          tag_41\n            /* \"#utility.yul\":1800:1807   */\n          dup7\n            /* \"#utility.yul\":1791:1797   */\n          dup3\n            /* \"#utility.yul\":1780:1789   */\n          dup8\n            /* \"#utility.yul\":1776:1798   */\n          add\n            /* \"#utility.yul\":1725:1808   */\n          tag_14\n          jump\t// in\n        tag_41:\n            /* \"#utility.yul\":1715:1808   */\n          swap4\n          pop\n            /* \"#utility.yul\":1671:1818   */\n          pop\n            /* \"#utility.yul\":1857:1859   */\n          0x20\n            /* \"#utility.yul\":1883:1947   */\n          tag_42\n            /* \"#utility.yul\":1939:1946   */\n          dup7\n            /* \"#utility.yul\":1930:1936   */\n          dup3\n            /* \"#utility.yul\":1919:1928   */\n          dup8\n            /* \"#utility.yul\":1915:1937   */\n          add\n            /* \"#utility.yul\":1883:1947   */\n          tag_17\n          jump\t// in\n        tag_42:\n            /* \"#utility.yul\":1873:1947   */\n          swap3\n          pop\n            /* \"#utility.yul\":1828:1957   */\n          pop\n            /* \"#utility.yul\":1996:1998   */\n          0x40\n            /* \"#utility.yul\":2022:2086   */\n          tag_43\n            /* \"#utility.yul\":2078:2085   */\n          dup7\n            /* \"#utility.yul\":2069:2075   */\n          dup3\n            /* \"#utility.yul\":2058:2067   */\n          dup8\n            /* \"#utility.yul\":2054:2076   */\n          add\n            /* \"#utility.yul\":2022:2086   */\n          tag_17\n          jump\t// in\n        tag_43:\n            /* \"#utility.yul\":2012:2086   */\n          swap2\n          pop\n            /* \"#utility.yul\":1967:2096   */\n          pop\n            /* \"#utility.yul\":1402:2103   */\n          swap3\n          pop\n          swap3\n          pop\n          swap3\n          jump\t// out\n            /* \"ItemManager.sol\":112:445  contract Item{... */\n        tag_6:\n          dataSize(sub_0)\n          dup1\n          dataOffset(sub_0)\n          0x00\n          codecopy\n          0x00\n          return\n        stop\n\n        sub_0: assembly {\n                /* \"ItemManager.sol\":112:445  contract Item{... */\n              mstore(0x40, 0x80)\n              jumpi(tag_1, lt(calldatasize, 0x04))\n              shr(0xe0, calldataload(0x00))\n              dup1\n              0x2986c0e5\n              eq\n              tag_3\n              jumpi\n              dup1\n              0x3c8da588\n              eq\n              tag_4\n              jumpi\n              jump(tag_2)\n            tag_1:\n              jumpi(tag_2, calldatasize)\n              stop\n            tag_2:\n              0x00\n              dup1\n              revert\n                /* \"ItemManager.sol\":159:176  uint public index */\n            tag_3:\n              callvalue\n              dup1\n              iszero\n              tag_7\n              jumpi\n              0x00\n              dup1\n              revert\n            tag_7:\n              pop\n              tag_8\n              tag_9\n              jump\t// in\n            tag_8:\n              mload(0x40)\n              tag_10\n              swap2\n              swap1\n              tag_11\n              jump\t// in\n            tag_10:\n              mload(0x40)\n              dup1\n              swap2\n              sub\n              swap1\n              return\n                /* \"ItemManager.sol\":131:153  uint public priceInWei */\n            tag_4:\n              callvalue\n              dup1\n              iszero\n              tag_12\n              jumpi\n              0x00\n              dup1\n              revert\n            tag_12:\n              pop\n              tag_13\n              tag_14\n              jump\t// in\n            tag_13:\n              mload(0x40)\n              tag_15\n              swap2\n              swap1\n              tag_11\n              jump\t// in\n            tag_15:\n              mload(0x40)\n              dup1\n              swap2\n              sub\n              swap1\n              return\n                /* \"ItemManager.sol\":159:176  uint public index */\n            tag_9:\n              sload(0x01)\n              dup2\n              jump\t// out\n                /* \"ItemManager.sol\":131:153  uint public priceInWei */\n            tag_14:\n              sload(0x00)\n              dup2\n              jump\t// out\n                /* \"#utility.yul\":7:84   */\n            tag_16:\n                /* \"#utility.yul\":44:51   */\n              0x00\n                /* \"#utility.yul\":73:78   */\n              dup2\n                /* \"#utility.yul\":62:78   */\n              swap1\n              pop\n                /* \"#utility.yul\":7:84   */\n              swap2\n              swap1\n              pop\n              jump\t// out\n                /* \"#utility.yul\":90:208   */\n            tag_17:\n                /* \"#utility.yul\":177:201   */\n              tag_21\n                /* \"#utility.yul\":195:200   */\n              dup2\n                /* \"#utility.yul\":177:201   */\n              tag_16\n              jump\t// in\n            tag_21:\n                /* \"#utility.yul\":172:175   */\n              dup3\n                /* \"#utility.yul\":165:202   */\n              mstore\n                /* \"#utility.yul\":90:208   */\n              pop\n              pop\n              jump\t// out\n                /* \"#utility.yul\":214:436   */\n            tag_11:\n                /* \"#utility.yul\":307:311   */\n              0x00\n                /* \"#utility.yul\":345:347   */\n              0x20\n                /* \"#utility.yul\":334:343   */\n              dup3\n                /* \"#utility.yul\":330:348   */\n              add\n                /* \"#utility.yul\":322:348   */\n              swap1\n              pop\n                /* \"#utility.yul\":358:429   */\n              tag_23\n                /* \"#utility.yul\":426:427   */\n              0x00\n                /* \"#utility.yul\":415:424   */\n              dup4\n                /* \"#utility.yul\":411:428   */\n              add\n                /* \"#utility.yul\":402:408   */\n              dup5\n                /* \"#utility.yul\":358:429   */\n              tag_17\n              jump\t// in\n            tag_23:\n                /* \"#utility.yul\":214:436   */\n              swap3\n              swap2\n              pop\n              pop\n              jump\t// out\n\n            auxdata: 0xa2646970667358221220dc1ebb7b4ee1aa90e2dd88640c248c9fae73e3b41fafe3fee6318cb96be49ad864736f6c634300080d0033\n        }\n    }\n\n    auxdata: 0xa2646970667358221220c4b7188e231142fc2c313df781a894bf06d26d7831658595e64ec9c10d1ea31a64736f6c634300080d0033\n}\n",
				"bytecode": {
					"linkReferences": {},
					"object": "608060405234801561001057600080fd5b5061118a806100206000396000f3fe608060405260043610620000445760003560e01c8063800fb83f14620000495780638c5517421462000069578063bfb231d21462000097578063cd31831e14620000de575b600080fd5b620000676004803603810190620000619190620007ab565b6200010c565b005b3480156200007657600080fd5b506200009560048036038101906200008f91906200093f565b620002ae565b005b348015620000a457600080fd5b50620000c36004803603810190620000bd9190620007ab565b62000469565b604051620000d5949392919062000b54565b60405180910390f35b348015620000eb57600080fd5b506200010a6004803603810190620001049190620007ab565b62000556565b005b34600080838152602001908152602001600020600201541462000166576040517f08c379a00000000000000000000000000000000000000000000000000000000081526004016200015d9062000bf8565b60405180910390fd5b600060028111156200017d576200017c62000ad4565b5b60008083815260200190815260200160002060030160009054906101000a900460ff166002811115620001b557620001b462000ad4565b5b14620001f8576040517f08c379a0000000000000000000000000000000000000000000000000000000008152600401620001ef9062000c90565b60405180910390fd5b600160008083815260200190815260200160002060030160006101000a81548160ff0219169083600281111562000234576200023362000ad4565b5b02179055507f8c198761ba3d324d155cbaf96f0ac38a531c085089e49106d95352535a1110c28160008084815260200190815260200160002060030160009054906101000a900460ff16600281111562000293576200029262000ad4565b5b604051620002a392919062000cb2565b60405180910390a150565b60003082600154604051620002c3906200069e565b620002d19392919062000d18565b604051809103906000f080158015620002ee573d6000803e3d6000fd5b50905080600080600154815260200190815260200160002060000160006101000a81548173ffffffffffffffffffffffffffffffffffffffff021916908373ffffffffffffffffffffffffffffffffffffffff160217905550826000806001548152602001908152602001600020600101908051906020019062000374929190620006ac565b50816000806001548152602001908152602001600020600201819055506000806000600154815260200190815260200160002060030160006101000a81548160ff02191690836002811115620003cf57620003ce62000ad4565b5b02179055507f8c198761ba3d324d155cbaf96f0ac38a531c085089e49106d95352535a1110c2600154600080600154815260200190815260200160002060030160009054906101000a900460ff16600281111562000432576200043162000ad4565b5b6040516200044292919062000cb2565b60405180910390a1600160008154809291906200045f9062000d84565b9190505550505050565b60006020528060005260406000206000915090508060000160009054906101000a900473ffffffffffffffffffffffffffffffffffffffff1690806001018054620004b49062000e00565b80601f0160208091040260200160405190810160405280929190818152602001828054620004e29062000e00565b8015620005335780601f10620005075761010080835404028352916020019162000533565b820191906000526020600020905b8154815290600101906020018083116200051557829003601f168201915b5050505050908060020154908060030160009054906101000a900460ff16905084565b600160028111156200056d576200056c62000ad4565b5b60008083815260200190815260200160002060030160009054906101000a900460ff166002811115620005a557620005a462000ad4565b5b14620005e8576040517f08c379a0000000000000000000000000000000000000000000000000000000008152600401620005df9062000eab565b60405180910390fd5b600260008083815260200190815260200160002060030160006101000a81548160ff0219169083600281111562000624576200062362000ad4565b5b02179055507f8c198761ba3d324d155cbaf96f0ac38a531c085089e49106d95352535a1110c28160008084815260200190815260200160002060030160009054906101000a900460ff16600281111562000683576200068262000ad4565b5b6040516200069392919062000cb2565b60405180910390a150565b6102878062000ece83390190565b828054620006ba9062000e00565b90600052602060002090601f016020900481019282620006de57600085556200072a565b82601f10620006f957805160ff19168380011785556200072a565b828001600101855582156200072a579182015b82811115620007295782518255916020019190600101906200070c565b5b5090506200073991906200073d565b5090565b5b80821115620007585760008160009055506001016200073e565b5090565b6000604051905090565b600080fd5b600080fd5b6000819050919050565b620007858162000770565b81146200079157600080fd5b50565b600081359050620007a5816200077a565b92915050565b600060208284031215620007c457620007c362000766565b5b6000620007d48482850162000794565b91505092915050565b600080fd5b600080fd5b6000601f19601f8301169050919050565b7f4e487b7100000000000000000000000000000000000000000000000000000000600052604160045260246000fd5b6200083282620007e7565b810181811067ffffffffffffffff82111715620008545762000853620007f8565b5b80604052505050565b6000620008696200075c565b905062000877828262000827565b919050565b600067ffffffffffffffff8211156200089a5762000899620007f8565b5b620008a582620007e7565b9050602081019050919050565b82818337600083830152505050565b6000620008d8620008d2846200087c565b6200085d565b905082815260208101848484011115620008f757620008f6620007e2565b5b62000904848285620008b2565b509392505050565b600082601f830112620009245762000923620007dd565b5b813562000936848260208601620008c1565b91505092915050565b6000806040838503121562000959576200095862000766565b5b600083013567ffffffffffffffff8111156200097a57620009796200076b565b5b62000988858286016200090c565b92505060206200099b8582860162000794565b9150509250929050565b600073ffffffffffffffffffffffffffffffffffffffff82169050919050565b6000819050919050565b6000620009f0620009ea620009e484620009a5565b620009c5565b620009a5565b9050919050565b600062000a0482620009cf565b9050919050565b600062000a1882620009f7565b9050919050565b62000a2a8162000a0b565b82525050565b600081519050919050565b600082825260208201905092915050565b60005b8381101562000a6c57808201518184015260208101905062000a4f565b8381111562000a7c576000848401525b50505050565b600062000a8f8262000a30565b62000a9b818562000a3b565b935062000aad81856020860162000a4c565b62000ab881620007e7565b840191505092915050565b62000ace8162000770565b82525050565b7f4e487b7100000000000000000000000000000000000000000000000000000000600052602160045260246000fd5b6003811062000b175762000b1662000ad4565b5b50565b600081905062000b2a8262000b03565b919050565b600062000b3c8262000b1a565b9050919050565b62000b4e8162000b2f565b82525050565b600060808201905062000b6b600083018762000a1f565b818103602083015262000b7f818662000a82565b905062000b90604083018562000ac3565b62000b9f606083018462000b43565b95945050505050565b7f4f6e6c79206578616374207061796d656e747320616363657074656400000000600082015250565b600062000be0601c8362000a3b565b915062000bed8262000ba8565b602082019050919050565b6000602082019050818103600083015262000c138162000bd1565b9050919050565b7f546865206974656d20697320616c7265616479206675727468657220696e207460008201527f686520737570706c7920636861696e0000000000000000000000000000000000602082015250565b600062000c78602f8362000a3b565b915062000c858262000c1a565b604082019050919050565b6000602082019050818103600083015262000cab8162000c69565b9050919050565b600060408201905062000cc9600083018562000ac3565b62000cd8602083018462000ac3565b9392505050565b600062000cec82620009cf565b9050919050565b600062000d008262000cdf565b9050919050565b62000d128162000cf3565b82525050565b600060608201905062000d2f600083018662000d07565b62000d3e602083018562000ac3565b62000d4d604083018462000ac3565b949350505050565b7f4e487b7100000000000000000000000000000000000000000000000000000000600052601160045260246000fd5b600062000d918262000770565b91507fffffffffffffffffffffffffffffffffffffffffffffffffffffffffffffffff820362000dc65762000dc562000d55565b5b600182019050919050565b7f4e487b7100000000000000000000000000000000000000000000000000000000600052602260045260246000fd5b6000600282049050600182168062000e1957607f821691505b60208210810362000e2f5762000e2e62000dd1565b5b50919050565b7f546865206974656d20697320696e206120646966666572656e7420706f73697460008201527f696f6e20696e2074686520737570706c7920636861696e000000000000000000602082015250565b600062000e9360378362000a3b565b915062000ea08262000e35565b604082019050919050565b6000602082019050818103600083015262000ec68162000e84565b905091905056fe608060405234801561001057600080fd5b5060405161028738038061028783398181016040528101906100329190610134565b816000819055508060018190555082600260006101000a81548173ffffffffffffffffffffffffffffffffffffffff021916908373ffffffffffffffffffffffffffffffffffffffff160217905550505050610187565b600080fd5b600073ffffffffffffffffffffffffffffffffffffffff82169050919050565b60006100b98261008e565b9050919050565b60006100cb826100ae565b9050919050565b6100db816100c0565b81146100e657600080fd5b50565b6000815190506100f8816100d2565b92915050565b6000819050919050565b610111816100fe565b811461011c57600080fd5b50565b60008151905061012e81610108565b92915050565b60008060006060848603121561014d5761014c610089565b5b600061015b868287016100e9565b935050602061016c8682870161011f565b925050604061017d8682870161011f565b9150509250925092565b60f2806101956000396000f3fe60806040526004361060295760003560e01c80632986c0e51460345780633c8da58814605a57602f565b36602f57005b600080fd5b348015603f57600080fd5b5060466080565b6040516051919060a3565b60405180910390f35b348015606557600080fd5b50606c6086565b6040516077919060a3565b60405180910390f35b60015481565b60005481565b6000819050919050565b609d81608c565b82525050565b600060208201905060b660008301846096565b9291505056fea2646970667358221220dc1ebb7b4ee1aa90e2dd88640c248c9fae73e3b41fafe3fee6318cb96be49ad864736f6c634300080d0033a2646970667358221220c4b7188e231142fc2c313df781a894bf06d26d7831658595e64ec9c10d1ea31a64736f6c634300080d0033",
					"opcodes": "PUSH1 0x80 PUSH1 0x40 MSTORE CALLVALUE DUP1 ISZERO PUSH2 0x10 JUMPI PUSH1 0x0 DUP1 REVERT JUMPDEST POP PUSH2 0x118A DUP1 PUSH2 0x20 PUSH1 0x0 CODECOPY PUSH1 0x0 RETURN INVALID PUSH1 0x80 PUSH1 0x40 MSTORE PUSH1 0x4 CALLDATASIZE LT PUSH3 0x44 JUMPI PUSH1 0x0 CALLDATALOAD PUSH1 0xE0 SHR DUP1 PUSH4 0x800FB83F EQ PUSH3 0x49 JUMPI DUP1 PUSH4 0x8C551742 EQ PUSH3 0x69 JUMPI DUP1 PUSH4 0xBFB231D2 EQ PUSH3 0x97 JUMPI DUP1 PUSH4 0xCD31831E EQ PUSH3 0xDE JUMPI JUMPDEST PUSH1 0x0 DUP1 REVERT JUMPDEST PUSH3 0x67 PUSH1 0x4 DUP1 CALLDATASIZE SUB DUP2 ADD SWAP1 PUSH3 0x61 SWAP2 SWAP1 PUSH3 0x7AB JUMP JUMPDEST PUSH3 0x10C JUMP JUMPDEST STOP JUMPDEST CALLVALUE DUP1 ISZERO PUSH3 0x76 JUMPI PUSH1 0x0 DUP1 REVERT JUMPDEST POP PUSH3 0x95 PUSH1 0x4 DUP1 CALLDATASIZE SUB DUP2 ADD SWAP1 PUSH3 0x8F SWAP2 SWAP1 PUSH3 0x93F JUMP JUMPDEST PUSH3 0x2AE JUMP JUMPDEST STOP JUMPDEST CALLVALUE DUP1 ISZERO PUSH3 0xA4 JUMPI PUSH1 0x0 DUP1 REVERT JUMPDEST POP PUSH3 0xC3 PUSH1 0x4 DUP1 CALLDATASIZE SUB DUP2 ADD SWAP1 PUSH3 0xBD SWAP2 SWAP1 PUSH3 0x7AB JUMP JUMPDEST PUSH3 0x469 JUMP JUMPDEST PUSH1 0x40 MLOAD PUSH3 0xD5 SWAP5 SWAP4 SWAP3 SWAP2 SWAP1 PUSH3 0xB54 JUMP JUMPDEST PUSH1 0x40 MLOAD DUP1 SWAP2 SUB SWAP1 RETURN JUMPDEST CALLVALUE DUP1 ISZERO PUSH3 0xEB JUMPI PUSH1 0x0 DUP1 REVERT JUMPDEST POP PUSH3 0x10A PUSH1 0x4 DUP1 CALLDATASIZE SUB DUP2 ADD SWAP1 PUSH3 0x104 SWAP2 SWAP1 PUSH3 0x7AB JUMP JUMPDEST PUSH3 0x556 JUMP JUMPDEST STOP JUMPDEST CALLVALUE PUSH1 0x0 DUP1 DUP4 DUP2 MSTORE PUSH1 0x20 ADD SWAP1 DUP2 MSTORE PUSH1 0x20 ADD PUSH1 0x0 KECCAK256 PUSH1 0x2 ADD SLOAD EQ PUSH3 0x166 JUMPI PUSH1 0x40 MLOAD PUSH32 0x8C379A000000000000000000000000000000000000000000000000000000000 DUP2 MSTORE PUSH1 0x4 ADD PUSH3 0x15D SWAP1 PUSH3 0xBF8 JUMP JUMPDEST PUSH1 0x40 MLOAD DUP1 SWAP2 SUB SWAP1 REVERT JUMPDEST PUSH1 0x0 PUSH1 0x2 DUP2 GT ISZERO PUSH3 0x17D JUMPI PUSH3 0x17C PUSH3 0xAD4 JUMP JUMPDEST JUMPDEST PUSH1 0x0 DUP1 DUP4 DUP2 MSTORE PUSH1 0x20 ADD SWAP1 DUP2 MSTORE PUSH1 0x20 ADD PUSH1 0x0 KECCAK256 PUSH1 0x3 ADD PUSH1 0x0 SWAP1 SLOAD SWAP1 PUSH2 0x100 EXP SWAP1 DIV PUSH1 0xFF AND PUSH1 0x2 DUP2 GT ISZERO PUSH3 0x1B5 JUMPI PUSH3 0x1B4 PUSH3 0xAD4 JUMP JUMPDEST JUMPDEST EQ PUSH3 0x1F8 JUMPI PUSH1 0x40 MLOAD PUSH32 0x8C379A000000000000000000000000000000000000000000000000000000000 DUP2 MSTORE PUSH1 0x4 ADD PUSH3 0x1EF SWAP1 PUSH3 0xC90 JUMP JUMPDEST PUSH1 0x40 MLOAD DUP1 SWAP2 SUB SWAP1 REVERT JUMPDEST PUSH1 0x1 PUSH1 0x0 DUP1 DUP4 DUP2 MSTORE PUSH1 0x20 ADD SWAP1 DUP2 MSTORE PUSH1 0x20 ADD PUSH1 0x0 KECCAK256 PUSH1 0x3 ADD PUSH1 0x0 PUSH2 0x100 EXP DUP2 SLOAD DUP2 PUSH1 0xFF MUL NOT AND SWAP1 DUP4 PUSH1 0x2 DUP2 GT ISZERO PUSH3 0x234 JUMPI PUSH3 0x233 PUSH3 0xAD4 JUMP JUMPDEST JUMPDEST MUL OR SWAP1 SSTORE POP PUSH32 0x8C198761BA3D324D155CBAF96F0AC38A531C085089E49106D95352535A1110C2 DUP2 PUSH1 0x0 DUP1 DUP5 DUP2 MSTORE PUSH1 0x20 ADD SWAP1 DUP2 MSTORE PUSH1 0x20 ADD PUSH1 0x0 KECCAK256 PUSH1 0x3 ADD PUSH1 0x0 SWAP1 SLOAD SWAP1 PUSH2 0x100 EXP SWAP1 DIV PUSH1 0xFF AND PUSH1 0x2 DUP2 GT ISZERO PUSH3 0x293 JUMPI PUSH3 0x292 PUSH3 0xAD4 JUMP JUMPDEST JUMPDEST PUSH1 0x40 MLOAD PUSH3 0x2A3 SWAP3 SWAP2 SWAP1 PUSH3 0xCB2 JUMP JUMPDEST PUSH1 0x40 MLOAD DUP1 SWAP2 SUB SWAP1 LOG1 POP JUMP JUMPDEST PUSH1 0x0 ADDRESS DUP3 PUSH1 0x1 SLOAD PUSH1 0x40 MLOAD PUSH3 0x2C3 SWAP1 PUSH3 0x69E JUMP JUMPDEST PUSH3 0x2D1 SWAP4 SWAP3 SWAP2 SWAP1 PUSH3 0xD18 JUMP JUMPDEST PUSH1 0x40 MLOAD DUP1 SWAP2 SUB SWAP1 PUSH1 0x0 CREATE DUP1 ISZERO DUP1 ISZERO PUSH3 0x2EE JUMPI RETURNDATASIZE PUSH1 0x0 DUP1 RETURNDATACOPY RETURNDATASIZE PUSH1 0x0 REVERT JUMPDEST POP SWAP1 POP DUP1 PUSH1 0x0 DUP1 PUSH1 0x1 SLOAD DUP2 MSTORE PUSH1 0x20 ADD SWAP1 DUP2 MSTORE PUSH1 0x20 ADD PUSH1 0x0 KECCAK256 PUSH1 0x0 ADD PUSH1 0x0 PUSH2 0x100 EXP DUP2 SLOAD DUP2 PUSH20 0xFFFFFFFFFFFFFFFFFFFFFFFFFFFFFFFFFFFFFFFF MUL NOT AND SWAP1 DUP4 PUSH20 0xFFFFFFFFFFFFFFFFFFFFFFFFFFFFFFFFFFFFFFFF AND MUL OR SWAP1 SSTORE POP DUP3 PUSH1 0x0 DUP1 PUSH1 0x1 SLOAD DUP2 MSTORE PUSH1 0x20 ADD SWAP1 DUP2 MSTORE PUSH1 0x20 ADD PUSH1 0x0 KECCAK256 PUSH1 0x1 ADD SWAP1 DUP1 MLOAD SWAP1 PUSH1 0x20 ADD SWAP1 PUSH3 0x374 SWAP3 SWAP2 SWAP1 PUSH3 0x6AC JUMP JUMPDEST POP DUP2 PUSH1 0x0 DUP1 PUSH1 0x1 SLOAD DUP2 MSTORE PUSH1 0x20 ADD SWAP1 DUP2 MSTORE PUSH1 0x20 ADD PUSH1 0x0 KECCAK256 PUSH1 0x2 ADD DUP2 SWAP1 SSTORE POP PUSH1 0x0 DUP1 PUSH1 0x0 PUSH1 0x1 SLOAD DUP2 MSTORE PUSH1 0x20 ADD SWAP1 DUP2 MSTORE PUSH1 0x20 ADD PUSH1 0x0 KECCAK256 PUSH1 0x3 ADD PUSH1 0x0 PUSH2 0x100 EXP DUP2 SLOAD DUP2 PUSH1 0xFF MUL NOT AND SWAP1 DUP4 PUSH1 0x2 DUP2 GT ISZERO PUSH3 0x3CF JUMPI PUSH3 0x3CE PUSH3 0xAD4 JUMP JUMPDEST JUMPDEST MUL OR SWAP1 SSTORE POP PUSH32 0x8C198761BA3D324D155CBAF96F0AC38A531C085089E49106D95352535A1110C2 PUSH1 0x1 SLOAD PUSH1 0x0 DUP1 PUSH1 0x1 SLOAD DUP2 MSTORE PUSH1 0x20 ADD SWAP1 DUP2 MSTORE PUSH1 0x20 ADD PUSH1 0x0 KECCAK256 PUSH1 0x3 ADD PUSH1 0x0 SWAP1 SLOAD SWAP1 PUSH2 0x100 EXP SWAP1 DIV PUSH1 0xFF AND PUSH1 0x2 DUP2 GT ISZERO PUSH3 0x432 JUMPI PUSH3 0x431 PUSH3 0xAD4 JUMP JUMPDEST JUMPDEST PUSH1 0x40 MLOAD PUSH3 0x442 SWAP3 SWAP2 SWAP1 PUSH3 0xCB2 JUMP JUMPDEST PUSH1 0x40 MLOAD DUP1 SWAP2 SUB SWAP1 LOG1 PUSH1 0x1 PUSH1 0x0 DUP2 SLOAD DUP1 SWAP3 SWAP2 SWAP1 PUSH3 0x45F SWAP1 PUSH3 0xD84 JUMP JUMPDEST SWAP2 SWAP1 POP SSTORE POP POP POP POP JUMP JUMPDEST PUSH1 0x0 PUSH1 0x20 MSTORE DUP1 PUSH1 0x0 MSTORE PUSH1 0x40 PUSH1 0x0 KECCAK256 PUSH1 0x0 SWAP2 POP SWAP1 POP DUP1 PUSH1 0x0 ADD PUSH1 0x0 SWAP1 SLOAD SWAP1 PUSH2 0x100 EXP SWAP1 DIV PUSH20 0xFFFFFFFFFFFFFFFFFFFFFFFFFFFFFFFFFFFFFFFF AND SWAP1 DUP1 PUSH1 0x1 ADD DUP1 SLOAD PUSH3 0x4B4 SWAP1 PUSH3 0xE00 JUMP JUMPDEST DUP1 PUSH1 0x1F ADD PUSH1 0x20 DUP1 SWAP2 DIV MUL PUSH1 0x20 ADD PUSH1 0x40 MLOAD SWAP1 DUP2 ADD PUSH1 0x40 MSTORE DUP1 SWAP3 SWAP2 SWAP1 DUP2 DUP2 MSTORE PUSH1 0x20 ADD DUP3 DUP1 SLOAD PUSH3 0x4E2 SWAP1 PUSH3 0xE00 JUMP JUMPDEST DUP1 ISZERO PUSH3 0x533 JUMPI DUP1 PUSH1 0x1F LT PUSH3 0x507 JUMPI PUSH2 0x100 DUP1 DUP4 SLOAD DIV MUL DUP4 MSTORE SWAP2 PUSH1 0x20 ADD SWAP2 PUSH3 0x533 JUMP JUMPDEST DUP3 ADD SWAP2 SWAP1 PUSH1 0x0 MSTORE PUSH1 0x20 PUSH1 0x0 KECCAK256 SWAP1 JUMPDEST DUP2 SLOAD DUP2 MSTORE SWAP1 PUSH1 0x1 ADD SWAP1 PUSH1 0x20 ADD DUP1 DUP4 GT PUSH3 0x515 JUMPI DUP3 SWAP1 SUB PUSH1 0x1F AND DUP3 ADD SWAP2 JUMPDEST POP POP POP POP POP SWAP1 DUP1 PUSH1 0x2 ADD SLOAD SWAP1 DUP1 PUSH1 0x3 ADD PUSH1 0x0 SWAP1 SLOAD SWAP1 PUSH2 0x100 EXP SWAP1 DIV PUSH1 0xFF AND SWAP1 POP DUP5 JUMP JUMPDEST PUSH1 0x1 PUSH1 0x2 DUP2 GT ISZERO PUSH3 0x56D JUMPI PUSH3 0x56C PUSH3 0xAD4 JUMP JUMPDEST JUMPDEST PUSH1 0x0 DUP1 DUP4 DUP2 MSTORE PUSH1 0x20 ADD SWAP1 DUP2 MSTORE PUSH1 0x20 ADD PUSH1 0x0 KECCAK256 PUSH1 0x3 ADD PUSH1 0x0 SWAP1 SLOAD SWAP1 PUSH2 0x100 EXP SWAP1 DIV PUSH1 0xFF AND PUSH1 0x2 DUP2 GT ISZERO PUSH3 0x5A5 JUMPI PUSH3 0x5A4 PUSH3 0xAD4 JUMP JUMPDEST JUMPDEST EQ PUSH3 0x5E8 JUMPI PUSH1 0x40 MLOAD PUSH32 0x8C379A000000000000000000000000000000000000000000000000000000000 DUP2 MSTORE PUSH1 0x4 ADD PUSH3 0x5DF SWAP1 PUSH3 0xEAB JUMP JUMPDEST PUSH1 0x40 MLOAD DUP1 SWAP2 SUB SWAP1 REVERT JUMPDEST PUSH1 0x2 PUSH1 0x0 DUP1 DUP4 DUP2 MSTORE PUSH1 0x20 ADD SWAP1 DUP2 MSTORE PUSH1 0x20 ADD PUSH1 0x0 KECCAK256 PUSH1 0x3 ADD PUSH1 0x0 PUSH2 0x100 EXP DUP2 SLOAD DUP2 PUSH1 0xFF MUL NOT AND SWAP1 DUP4 PUSH1 0x2 DUP2 GT ISZERO PUSH3 0x624 JUMPI PUSH3 0x623 PUSH3 0xAD4 JUMP JUMPDEST JUMPDEST MUL OR SWAP1 SSTORE POP PUSH32 0x8C198761BA3D324D155CBAF96F0AC38A531C085089E49106D95352535A1110C2 DUP2 PUSH1 0x0 DUP1 DUP5 DUP2 MSTORE PUSH1 0x20 ADD SWAP1 DUP2 MSTORE PUSH1 0x20 ADD PUSH1 0x0 KECCAK256 PUSH1 0x3 ADD PUSH1 0x0 SWAP1 SLOAD SWAP1 PUSH2 0x100 EXP SWAP1 DIV PUSH1 0xFF AND PUSH1 0x2 DUP2 GT ISZERO PUSH3 0x683 JUMPI PUSH3 0x682 PUSH3 0xAD4 JUMP JUMPDEST JUMPDEST PUSH1 0x40 MLOAD PUSH3 0x693 SWAP3 SWAP2 SWAP1 PUSH3 0xCB2 JUMP JUMPDEST PUSH1 0x40 MLOAD DUP1 SWAP2 SUB SWAP1 LOG1 POP JUMP JUMPDEST PUSH2 0x287 DUP1 PUSH3 0xECE DUP4 CODECOPY ADD SWAP1 JUMP JUMPDEST DUP3 DUP1 SLOAD PUSH3 0x6BA SWAP1 PUSH3 0xE00 JUMP JUMPDEST SWAP1 PUSH1 0x0 MSTORE PUSH1 0x20 PUSH1 0x0 KECCAK256 SWAP1 PUSH1 0x1F ADD PUSH1 0x20 SWAP1 DIV DUP2 ADD SWAP3 DUP3 PUSH3 0x6DE JUMPI PUSH1 0x0 DUP6 SSTORE PUSH3 0x72A JUMP JUMPDEST DUP3 PUSH1 0x1F LT PUSH3 0x6F9 JUMPI DUP1 MLOAD PUSH1 0xFF NOT AND DUP4 DUP1 ADD OR DUP6 SSTORE PUSH3 0x72A JUMP JUMPDEST DUP3 DUP1 ADD PUSH1 0x1 ADD DUP6 SSTORE DUP3 ISZERO PUSH3 0x72A JUMPI SWAP2 DUP3 ADD JUMPDEST DUP3 DUP2 GT ISZERO PUSH3 0x729 JUMPI DUP3 MLOAD DUP3 SSTORE SWAP2 PUSH1 0x20 ADD SWAP2 SWAP1 PUSH1 0x1 ADD SWAP1 PUSH3 0x70C JUMP JUMPDEST JUMPDEST POP SWAP1 POP PUSH3 0x739 SWAP2 SWAP1 PUSH3 0x73D JUMP JUMPDEST POP SWAP1 JUMP JUMPDEST JUMPDEST DUP1 DUP3 GT ISZERO PUSH3 0x758 JUMPI PUSH1 0x0 DUP2 PUSH1 0x0 SWAP1 SSTORE POP PUSH1 0x1 ADD PUSH3 0x73E JUMP JUMPDEST POP SWAP1 JUMP JUMPDEST PUSH1 0x0 PUSH1 0x40 MLOAD SWAP1 POP SWAP1 JUMP JUMPDEST PUSH1 0x0 DUP1 REVERT JUMPDEST PUSH1 0x0 DUP1 REVERT JUMPDEST PUSH1 0x0 DUP2 SWAP1 POP SWAP2 SWAP1 POP JUMP JUMPDEST PUSH3 0x785 DUP2 PUSH3 0x770 JUMP JUMPDEST DUP2 EQ PUSH3 0x791 JUMPI PUSH1 0x0 DUP1 REVERT JUMPDEST POP JUMP JUMPDEST PUSH1 0x0 DUP2 CALLDATALOAD SWAP1 POP PUSH3 0x7A5 DUP2 PUSH3 0x77A JUMP JUMPDEST SWAP3 SWAP2 POP POP JUMP JUMPDEST PUSH1 0x0 PUSH1 0x20 DUP3 DUP5 SUB SLT ISZERO PUSH3 0x7C4 JUMPI PUSH3 0x7C3 PUSH3 0x766 JUMP JUMPDEST JUMPDEST PUSH1 0x0 PUSH3 0x7D4 DUP5 DUP3 DUP6 ADD PUSH3 0x794 JUMP JUMPDEST SWAP2 POP POP SWAP3 SWAP2 POP POP JUMP JUMPDEST PUSH1 0x0 DUP1 REVERT JUMPDEST PUSH1 0x0 DUP1 REVERT JUMPDEST PUSH1 0x0 PUSH1 0x1F NOT PUSH1 0x1F DUP4 ADD AND SWAP1 POP SWAP2 SWAP1 POP JUMP JUMPDEST PUSH32 0x4E487B7100000000000000000000000000000000000000000000000000000000 PUSH1 0x0 MSTORE PUSH1 0x41 PUSH1 0x4 MSTORE PUSH1 0x24 PUSH1 0x0 REVERT JUMPDEST PUSH3 0x832 DUP3 PUSH3 0x7E7 JUMP JUMPDEST DUP2 ADD DUP2 DUP2 LT PUSH8 0xFFFFFFFFFFFFFFFF DUP3 GT OR ISZERO PUSH3 0x854 JUMPI PUSH3 0x853 PUSH3 0x7F8 JUMP JUMPDEST JUMPDEST DUP1 PUSH1 0x40 MSTORE POP POP POP JUMP JUMPDEST PUSH1 0x0 PUSH3 0x869 PUSH3 0x75C JUMP JUMPDEST SWAP1 POP PUSH3 0x877 DUP3 DUP3 PUSH3 0x827 JUMP JUMPDEST SWAP2 SWAP1 POP JUMP JUMPDEST PUSH1 0x0 PUSH8 0xFFFFFFFFFFFFFFFF DUP3 GT ISZERO PUSH3 0x89A JUMPI PUSH3 0x899 PUSH3 0x7F8 JUMP JUMPDEST JUMPDEST PUSH3 0x8A5 DUP3 PUSH3 0x7E7 JUMP JUMPDEST SWAP1 POP PUSH1 0x20 DUP2 ADD SWAP1 POP SWAP2 SWAP1 POP JUMP JUMPDEST DUP3 DUP2 DUP4 CALLDATACOPY PUSH1 0x0 DUP4 DUP4 ADD MSTORE POP POP POP JUMP JUMPDEST PUSH1 0x0 PUSH3 0x8D8 PUSH3 0x8D2 DUP5 PUSH3 0x87C JUMP JUMPDEST PUSH3 0x85D JUMP JUMPDEST SWAP1 POP DUP3 DUP2 MSTORE PUSH1 0x20 DUP2 ADD DUP5 DUP5 DUP5 ADD GT ISZERO PUSH3 0x8F7 JUMPI PUSH3 0x8F6 PUSH3 0x7E2 JUMP JUMPDEST JUMPDEST PUSH3 0x904 DUP5 DUP3 DUP6 PUSH3 0x8B2 JUMP JUMPDEST POP SWAP4 SWAP3 POP POP POP JUMP JUMPDEST PUSH1 0x0 DUP3 PUSH1 0x1F DUP4 ADD SLT PUSH3 0x924 JUMPI PUSH3 0x923 PUSH3 0x7DD JUMP JUMPDEST JUMPDEST DUP2 CALLDATALOAD PUSH3 0x936 DUP5 DUP3 PUSH1 0x20 DUP7 ADD PUSH3 0x8C1 JUMP JUMPDEST SWAP2 POP POP SWAP3 SWAP2 POP POP JUMP JUMPDEST PUSH1 0x0 DUP1 PUSH1 0x40 DUP4 DUP6 SUB SLT ISZERO PUSH3 0x959 JUMPI PUSH3 0x958 PUSH3 0x766 JUMP JUMPDEST JUMPDEST PUSH1 0x0 DUP4 ADD CALLDATALOAD PUSH8 0xFFFFFFFFFFFFFFFF DUP2 GT ISZERO PUSH3 0x97A JUMPI PUSH3 0x979 PUSH3 0x76B JUMP JUMPDEST JUMPDEST PUSH3 0x988 DUP6 DUP3 DUP7 ADD PUSH3 0x90C JUMP JUMPDEST SWAP3 POP POP PUSH1 0x20 PUSH3 0x99B DUP6 DUP3 DUP7 ADD PUSH3 0x794 JUMP JUMPDEST SWAP2 POP POP SWAP3 POP SWAP3 SWAP1 POP JUMP JUMPDEST PUSH1 0x0 PUSH20 0xFFFFFFFFFFFFFFFFFFFFFFFFFFFFFFFFFFFFFFFF DUP3 AND SWAP1 POP SWAP2 SWAP1 POP JUMP JUMPDEST PUSH1 0x0 DUP2 SWAP1 POP SWAP2 SWAP1 POP JUMP JUMPDEST PUSH1 0x0 PUSH3 0x9F0 PUSH3 0x9EA PUSH3 0x9E4 DUP5 PUSH3 0x9A5 JUMP JUMPDEST PUSH3 0x9C5 JUMP JUMPDEST PUSH3 0x9A5 JUMP JUMPDEST SWAP1 POP SWAP2 SWAP1 POP JUMP JUMPDEST PUSH1 0x0 PUSH3 0xA04 DUP3 PUSH3 0x9CF JUMP JUMPDEST SWAP1 POP SWAP2 SWAP1 POP JUMP JUMPDEST PUSH1 0x0 PUSH3 0xA18 DUP3 PUSH3 0x9F7 JUMP JUMPDEST SWAP1 POP SWAP2 SWAP1 POP JUMP JUMPDEST PUSH3 0xA2A DUP2 PUSH3 0xA0B JUMP JUMPDEST DUP3 MSTORE POP POP JUMP JUMPDEST PUSH1 0x0 DUP2 MLOAD SWAP1 POP SWAP2 SWAP1 POP JUMP JUMPDEST PUSH1 0x0 DUP3 DUP3 MSTORE PUSH1 0x20 DUP3 ADD SWAP1 POP SWAP3 SWAP2 POP POP JUMP JUMPDEST PUSH1 0x0 JUMPDEST DUP4 DUP2 LT ISZERO PUSH3 0xA6C JUMPI DUP1 DUP3 ADD MLOAD DUP2 DUP5 ADD MSTORE PUSH1 0x20 DUP2 ADD SWAP1 POP PUSH3 0xA4F JUMP JUMPDEST DUP4 DUP2 GT ISZERO PUSH3 0xA7C JUMPI PUSH1 0x0 DUP5 DUP5 ADD MSTORE JUMPDEST POP POP POP POP JUMP JUMPDEST PUSH1 0x0 PUSH3 0xA8F DUP3 PUSH3 0xA30 JUMP JUMPDEST PUSH3 0xA9B DUP2 DUP6 PUSH3 0xA3B JUMP JUMPDEST SWAP4 POP PUSH3 0xAAD DUP2 DUP6 PUSH1 0x20 DUP7 ADD PUSH3 0xA4C JUMP JUMPDEST PUSH3 0xAB8 DUP2 PUSH3 0x7E7 JUMP JUMPDEST DUP5 ADD SWAP2 POP POP SWAP3 SWAP2 POP POP JUMP JUMPDEST PUSH3 0xACE DUP2 PUSH3 0x770 JUMP JUMPDEST DUP3 MSTORE POP POP JUMP JUMPDEST PUSH32 0x4E487B7100000000000000000000000000000000000000000000000000000000 PUSH1 0x0 MSTORE PUSH1 0x21 PUSH1 0x4 MSTORE PUSH1 0x24 PUSH1 0x0 REVERT JUMPDEST PUSH1 0x3 DUP2 LT PUSH3 0xB17 JUMPI PUSH3 0xB16 PUSH3 0xAD4 JUMP JUMPDEST JUMPDEST POP JUMP JUMPDEST PUSH1 0x0 DUP2 SWAP1 POP PUSH3 0xB2A DUP3 PUSH3 0xB03 JUMP JUMPDEST SWAP2 SWAP1 POP JUMP JUMPDEST PUSH1 0x0 PUSH3 0xB3C DUP3 PUSH3 0xB1A JUMP JUMPDEST SWAP1 POP SWAP2 SWAP1 POP JUMP JUMPDEST PUSH3 0xB4E DUP2 PUSH3 0xB2F JUMP JUMPDEST DUP3 MSTORE POP POP JUMP JUMPDEST PUSH1 0x0 PUSH1 0x80 DUP3 ADD SWAP1 POP PUSH3 0xB6B PUSH1 0x0 DUP4 ADD DUP8 PUSH3 0xA1F JUMP JUMPDEST DUP2 DUP2 SUB PUSH1 0x20 DUP4 ADD MSTORE PUSH3 0xB7F DUP2 DUP7 PUSH3 0xA82 JUMP JUMPDEST SWAP1 POP PUSH3 0xB90 PUSH1 0x40 DUP4 ADD DUP6 PUSH3 0xAC3 JUMP JUMPDEST PUSH3 0xB9F PUSH1 0x60 DUP4 ADD DUP5 PUSH3 0xB43 JUMP JUMPDEST SWAP6 SWAP5 POP POP POP POP POP JUMP JUMPDEST PUSH32 0x4F6E6C79206578616374207061796D656E747320616363657074656400000000 PUSH1 0x0 DUP3 ADD MSTORE POP JUMP JUMPDEST PUSH1 0x0 PUSH3 0xBE0 PUSH1 0x1C DUP4 PUSH3 0xA3B JUMP JUMPDEST SWAP2 POP PUSH3 0xBED DUP3 PUSH3 0xBA8 JUMP JUMPDEST PUSH1 0x20 DUP3 ADD SWAP1 POP SWAP2 SWAP1 POP JUMP JUMPDEST PUSH1 0x0 PUSH1 0x20 DUP3 ADD SWAP1 POP DUP2 DUP2 SUB PUSH1 0x0 DUP4 ADD MSTORE PUSH3 0xC13 DUP2 PUSH3 0xBD1 JUMP JUMPDEST SWAP1 POP SWAP2 SWAP1 POP JUMP JUMPDEST PUSH32 0x546865206974656D20697320616C7265616479206675727468657220696E2074 PUSH1 0x0 DUP3 ADD MSTORE PUSH32 0x686520737570706C7920636861696E0000000000000000000000000000000000 PUSH1 0x20 DUP3 ADD MSTORE POP JUMP JUMPDEST PUSH1 0x0 PUSH3 0xC78 PUSH1 0x2F DUP4 PUSH3 0xA3B JUMP JUMPDEST SWAP2 POP PUSH3 0xC85 DUP3 PUSH3 0xC1A JUMP JUMPDEST PUSH1 0x40 DUP3 ADD SWAP1 POP SWAP2 SWAP1 POP JUMP JUMPDEST PUSH1 0x0 PUSH1 0x20 DUP3 ADD SWAP1 POP DUP2 DUP2 SUB PUSH1 0x0 DUP4 ADD MSTORE PUSH3 0xCAB DUP2 PUSH3 0xC69 JUMP JUMPDEST SWAP1 POP SWAP2 SWAP1 POP JUMP JUMPDEST PUSH1 0x0 PUSH1 0x40 DUP3 ADD SWAP1 POP PUSH3 0xCC9 PUSH1 0x0 DUP4 ADD DUP6 PUSH3 0xAC3 JUMP JUMPDEST PUSH3 0xCD8 PUSH1 0x20 DUP4 ADD DUP5 PUSH3 0xAC3 JUMP JUMPDEST SWAP4 SWAP3 POP POP POP JUMP JUMPDEST PUSH1 0x0 PUSH3 0xCEC DUP3 PUSH3 0x9CF JUMP JUMPDEST SWAP1 POP SWAP2 SWAP1 POP JUMP JUMPDEST PUSH1 0x0 PUSH3 0xD00 DUP3 PUSH3 0xCDF JUMP JUMPDEST SWAP1 POP SWAP2 SWAP1 POP JUMP JUMPDEST PUSH3 0xD12 DUP2 PUSH3 0xCF3 JUMP JUMPDEST DUP3 MSTORE POP POP JUMP JUMPDEST PUSH1 0x0 PUSH1 0x60 DUP3 ADD SWAP1 POP PUSH3 0xD2F PUSH1 0x0 DUP4 ADD DUP7 PUSH3 0xD07 JUMP JUMPDEST PUSH3 0xD3E PUSH1 0x20 DUP4 ADD DUP6 PUSH3 0xAC3 JUMP JUMPDEST PUSH3 0xD4D PUSH1 0x40 DUP4 ADD DUP5 PUSH3 0xAC3 JUMP JUMPDEST SWAP5 SWAP4 POP POP POP POP JUMP JUMPDEST PUSH32 0x4E487B7100000000000000000000000000000000000000000000000000000000 PUSH1 0x0 MSTORE PUSH1 0x11 PUSH1 0x4 MSTORE PUSH1 0x24 PUSH1 0x0 REVERT JUMPDEST PUSH1 0x0 PUSH3 0xD91 DUP3 PUSH3 0x770 JUMP JUMPDEST SWAP2 POP PUSH32 0xFFFFFFFFFFFFFFFFFFFFFFFFFFFFFFFFFFFFFFFFFFFFFFFFFFFFFFFFFFFFFFFF DUP3 SUB PUSH3 0xDC6 JUMPI PUSH3 0xDC5 PUSH3 0xD55 JUMP JUMPDEST JUMPDEST PUSH1 0x1 DUP3 ADD SWAP1 POP SWAP2 SWAP1 POP JUMP JUMPDEST PUSH32 0x4E487B7100000000000000000000000000000000000000000000000000000000 PUSH1 0x0 MSTORE PUSH1 0x22 PUSH1 0x4 MSTORE PUSH1 0x24 PUSH1 0x0 REVERT JUMPDEST PUSH1 0x0 PUSH1 0x2 DUP3 DIV SWAP1 POP PUSH1 0x1 DUP3 AND DUP1 PUSH3 0xE19 JUMPI PUSH1 0x7F DUP3 AND SWAP2 POP JUMPDEST PUSH1 0x20 DUP3 LT DUP2 SUB PUSH3 0xE2F JUMPI PUSH3 0xE2E PUSH3 0xDD1 JUMP JUMPDEST JUMPDEST POP SWAP2 SWAP1 POP JUMP JUMPDEST PUSH32 0x546865206974656D20697320696E206120646966666572656E7420706F736974 PUSH1 0x0 DUP3 ADD MSTORE PUSH32 0x696F6E20696E2074686520737570706C7920636861696E000000000000000000 PUSH1 0x20 DUP3 ADD MSTORE POP JUMP JUMPDEST PUSH1 0x0 PUSH3 0xE93 PUSH1 0x37 DUP4 PUSH3 0xA3B JUMP JUMPDEST SWAP2 POP PUSH3 0xEA0 DUP3 PUSH3 0xE35 JUMP JUMPDEST PUSH1 0x40 DUP3 ADD SWAP1 POP SWAP2 SWAP1 POP JUMP JUMPDEST PUSH1 0x0 PUSH1 0x20 DUP3 ADD SWAP1 POP DUP2 DUP2 SUB PUSH1 0x0 DUP4 ADD MSTORE PUSH3 0xEC6 DUP2 PUSH3 0xE84 JUMP JUMPDEST SWAP1 POP SWAP2 SWAP1 POP JUMP INVALID PUSH1 0x80 PUSH1 0x40 MSTORE CALLVALUE DUP1 ISZERO PUSH2 0x10 JUMPI PUSH1 0x0 DUP1 REVERT JUMPDEST POP PUSH1 0x40 MLOAD PUSH2 0x287 CODESIZE SUB DUP1 PUSH2 0x287 DUP4 CODECOPY DUP2 DUP2 ADD PUSH1 0x40 MSTORE DUP2 ADD SWAP1 PUSH2 0x32 SWAP2 SWAP1 PUSH2 0x134 JUMP JUMPDEST DUP2 PUSH1 0x0 DUP2 SWAP1 SSTORE POP DUP1 PUSH1 0x1 DUP2 SWAP1 SSTORE POP DUP3 PUSH1 0x2 PUSH1 0x0 PUSH2 0x100 EXP DUP2 SLOAD DUP2 PUSH20 0xFFFFFFFFFFFFFFFFFFFFFFFFFFFFFFFFFFFFFFFF MUL NOT AND SWAP1 DUP4 PUSH20 0xFFFFFFFFFFFFFFFFFFFFFFFFFFFFFFFFFFFFFFFF AND MUL OR SWAP1 SSTORE POP POP POP POP PUSH2 0x187 JUMP JUMPDEST PUSH1 0x0 DUP1 REVERT JUMPDEST PUSH1 0x0 PUSH20 0xFFFFFFFFFFFFFFFFFFFFFFFFFFFFFFFFFFFFFFFF DUP3 AND SWAP1 POP SWAP2 SWAP1 POP JUMP JUMPDEST PUSH1 0x0 PUSH2 0xB9 DUP3 PUSH2 0x8E JUMP JUMPDEST SWAP1 POP SWAP2 SWAP1 POP JUMP JUMPDEST PUSH1 0x0 PUSH2 0xCB DUP3 PUSH2 0xAE JUMP JUMPDEST SWAP1 POP SWAP2 SWAP1 POP JUMP JUMPDEST PUSH2 0xDB DUP2 PUSH2 0xC0 JUMP JUMPDEST DUP2 EQ PUSH2 0xE6 JUMPI PUSH1 0x0 DUP1 REVERT JUMPDEST POP JUMP JUMPDEST PUSH1 0x0 DUP2 MLOAD SWAP1 POP PUSH2 0xF8 DUP2 PUSH2 0xD2 JUMP JUMPDEST SWAP3 SWAP2 POP POP JUMP JUMPDEST PUSH1 0x0 DUP2 SWAP1 POP SWAP2 SWAP1 POP JUMP JUMPDEST PUSH2 0x111 DUP2 PUSH2 0xFE JUMP JUMPDEST DUP2 EQ PUSH2 0x11C JUMPI PUSH1 0x0 DUP1 REVERT JUMPDEST POP JUMP JUMPDEST PUSH1 0x0 DUP2 MLOAD SWAP1 POP PUSH2 0x12E DUP2 PUSH2 0x108 JUMP JUMPDEST SWAP3 SWAP2 POP POP JUMP JUMPDEST PUSH1 0x0 DUP1 PUSH1 0x0 PUSH1 0x60 DUP5 DUP7 SUB SLT ISZERO PUSH2 0x14D JUMPI PUSH2 0x14C PUSH2 0x89 JUMP JUMPDEST JUMPDEST PUSH1 0x0 PUSH2 0x15B DUP7 DUP3 DUP8 ADD PUSH2 0xE9 JUMP JUMPDEST SWAP4 POP POP PUSH1 0x20 PUSH2 0x16C DUP7 DUP3 DUP8 ADD PUSH2 0x11F JUMP JUMPDEST SWAP3 POP POP PUSH1 0x40 PUSH2 0x17D DUP7 DUP3 DUP8 ADD PUSH2 0x11F JUMP JUMPDEST SWAP2 POP POP SWAP3 POP SWAP3 POP SWAP3 JUMP JUMPDEST PUSH1 0xF2 DUP1 PUSH2 0x195 PUSH1 0x0 CODECOPY PUSH1 0x0 RETURN INVALID PUSH1 0x80 PUSH1 0x40 MSTORE PUSH1 0x4 CALLDATASIZE LT PUSH1 0x29 JUMPI PUSH1 0x0 CALLDATALOAD PUSH1 0xE0 SHR DUP1 PUSH4 0x2986C0E5 EQ PUSH1 0x34 JUMPI DUP1 PUSH4 0x3C8DA588 EQ PUSH1 0x5A JUMPI PUSH1 0x2F JUMP JUMPDEST CALLDATASIZE PUSH1 0x2F JUMPI STOP JUMPDEST PUSH1 0x0 DUP1 REVERT JUMPDEST CALLVALUE DUP1 ISZERO PUSH1 0x3F JUMPI PUSH1 0x0 DUP1 REVERT JUMPDEST POP PUSH1 0x46 PUSH1 0x80 JUMP JUMPDEST PUSH1 0x40 MLOAD PUSH1 0x51 SWAP2 SWAP1 PUSH1 0xA3 JUMP JUMPDEST PUSH1 0x40 MLOAD DUP1 SWAP2 SUB SWAP1 RETURN JUMPDEST CALLVALUE DUP1 ISZERO PUSH1 0x65 JUMPI PUSH1 0x0 DUP1 REVERT JUMPDEST POP PUSH1 0x6C PUSH1 0x86 JUMP JUMPDEST PUSH1 0x40 MLOAD PUSH1 0x77 SWAP2 SWAP1 PUSH1 0xA3 JUMP JUMPDEST PUSH1 0x40 MLOAD DUP1 SWAP2 SUB SWAP1 RETURN JUMPDEST PUSH1 0x1 SLOAD DUP2 JUMP JUMPDEST PUSH1 0x0 SLOAD DUP2 JUMP JUMPDEST PUSH1 0x0 DUP2 SWAP1 POP SWAP2 SWAP1 POP JUMP JUMPDEST PUSH1 0x9D DUP2 PUSH1 0x8C JUMP JUMPDEST DUP3 MSTORE POP POP JUMP JUMPDEST PUSH1 0x0 PUSH1 0x20 DUP3 ADD SWAP1 POP PUSH1 0xB6 PUSH1 0x0 DUP4 ADD DUP5 PUSH1 0x96 JUMP JUMPDEST SWAP3 SWAP2 POP POP JUMP INVALID LOG2 PUSH5 0x6970667358 0x22 SLT KECCAK256 0xDC 0x1E 0xBB PUSH28 0x4EE1AA90E2DD88640C248C9FAE73E3B41FAFE3FEE6318CB96BE49AD8 PUSH5 0x736F6C6343 STOP ADDMOD 0xD STOP CALLER LOG2 PUSH5 0x6970667358 0x22 SLT KECCAK256 0xC4 0xB7 XOR DUP15 0x23 GT TIMESTAMP 0xFC 0x2C BALANCE RETURNDATASIZE 0xF7 DUP2 0xA8 SWAP5 0xBF MOD 0xD2 PUSH14 0x7831658595E64EC9C10D1EA31A64 PUSH20 0x6F6C634300080D00330000000000000000000000 "
				},
				"gasEstimates": {
					"creation": {
						"codeDepositCost": "898000",
						"executionCost": "935",
						"totalCost": "898935"
					},
					"external": {
						"createItem(string,uint256)": "infinite",
						"items(uint256)": "infinite",
						"triggerDelivery(uint256)": "infinite",
						"triggerPayment(uint256)": "infinite"
					}
				},
				"methodIdentifiers": {
					"createItem(string,uint256)": "8c551742",
					"items(uint256)": "bfb231d2",
					"triggerDelivery(uint256)": "cd31831e",
					"triggerPayment(uint256)": "800fb83f"
				}
			},
			"storageLayout": {
				"storage": [
					{
						"astId": 56,
						"contract": "ItemManager.sol:ItemManager",
						"label": "items",
						"offset": 0,
						"slot": "0",
						"type": "t_mapping(t_uint256,t_struct(S_Item)51_storage)"
					},
					{
						"astId": 64,
						"contract": "ItemManager.sol:ItemManager",
						"label": "itemIndex",
						"offset": 0,
						"slot": "1",
						"type": "t_uint256"
					}
				],
				"types": {
					"t_contract(Item)36": {
						"encoding": "inplace",
						"label": "contract Item",
						"numberOfBytes": "20"
					},
					"t_enum(SupplyChainState)40": {
						"encoding": "inplace",
						"label": "enum ItemManager.SupplyChainState",
						"numberOfBytes": "1"
					},
					"t_mapping(t_uint256,t_struct(S_Item)51_storage)": {
						"encoding": "mapping",
						"key": "t_uint256",
						"label": "mapping(uint256 => struct ItemManager.S_Item)",
						"numberOfBytes": "32",
						"value": "t_struct(S_Item)51_storage"
					},
					"t_string_storage": {
						"encoding": "bytes",
						"label": "string",
						"numberOfBytes": "32"
					},
					"t_struct(S_Item)51_storage": {
						"encoding": "inplace",
						"label": "struct ItemManager.S_Item",
						"members": [
							{
								"astId": 43,
								"contract": "ItemManager.sol:ItemManager",
								"label": "_item",
								"offset": 0,
								"slot": "0",
								"type": "t_contract(Item)36"
							},
							{
								"astId": 45,
								"contract": "ItemManager.sol:ItemManager",
								"label": "_identifier",
								"offset": 0,
								"slot": "1",
								"type": "t_string_storage"
							},
							{
								"astId": 47,
								"contract": "ItemManager.sol:ItemManager",
								"label": "_itemPrice",
								"offset": 0,
								"slot": "2",
								"type": "t_uint256"
							},
							{
								"astId": 50,
								"contract": "ItemManager.sol:ItemManager",
								"label": "_state",
								"offset": 0,
								"slot": "3",
								"type": "t_enum(SupplyChainState)40"
							}
						],
						"numberOfBytes": "128"
					},
					"t_uint256": {
						"encoding": "inplace",
						"label": "uint256",
						"numberOfBytes": "32"
					}
				}
			},
			"userdoc": {
				"kind": "user",
				"methods": {},
				"version": 1
			}
		}
	}
}