{
	"MyProjectSharedWallet.sol": {
		"SharedWallet": {
			"abi": [
				{
					"inputs": [],
					"stateMutability": "nonpayable",
					"type": "constructor"
				},
				{
					"inputs": [
						{
							"internalType": "uint256",
							"name": "_amount",
							"type": "uint256"
						}
					],
					"name": "ClaimMoney",
					"outputs": [],
					"stateMutability": "nonpayable",
					"type": "function"
				},
				{
					"inputs": [],
					"name": "SendMoney",
					"outputs": [],
					"stateMutability": "payable",
					"type": "function"
				},
				{
					"inputs": [
						{
							"internalType": "address",
							"name": "_beneficiary",
							"type": "address"
						},
						{
							"internalType": "uint256",
							"name": "_allowancePercentage",
							"type": "uint256"
						}
					],
					"name": "SetAllowance",
					"outputs": [],
					"stateMutability": "nonpayable",
					"type": "function"
				},
				{
					"inputs": [
						{
							"internalType": "address",
							"name": "",
							"type": "address"
						}
					],
					"name": "beneficiaries",
					"outputs": [
						{
							"internalType": "uint256",
							"name": "allowance",
							"type": "uint256"
						},
						{
							"internalType": "uint256",
							"name": "claimsMade",
							"type": "uint256"
						}
					],
					"stateMutability": "view",
					"type": "function"
				},
				{
					"inputs": [],
					"name": "owner",
					"outputs": [
						{
							"internalType": "address",
							"name": "",
							"type": "address"
						}
					],
					"stateMutability": "view",
					"type": "function"
				},
				{
					"inputs": [],
					"name": "totalAllowances",
					"outputs": [
						{
							"internalType": "uint256",
							"name": "",
							"type": "uint256"
						}
					],
					"stateMutability": "view",
					"type": "function"
				},
				{
					"inputs": [],
					"name": "totalClaims",
					"outputs": [
						{
							"internalType": "uint256",
							"name": "",
							"type": "uint256"
						}
					],
					"stateMutability": "view",
					"type": "function"
				}
			],
			"devdoc": {
				"kind": "dev",
				"methods": {},
				"version": 1
			},
			"evm": {
				"assembly": "    /* \"MyProjectSharedWallet.sol\":156:2134  contract SharedWallet {... */\n  mstore(0x40, 0x80)\n    /* \"MyProjectSharedWallet.sol\":700:749  constructor() {... */\n  callvalue\n  dup1\n  iszero\n  tag_1\n  jumpi\n  0x00\n  dup1\n  revert\ntag_1:\n  pop\n    /* \"MyProjectSharedWallet.sol\":732:742  msg.sender */\n  caller\n    /* \"MyProjectSharedWallet.sol\":724:729  owner */\n  0x00\n  dup1\n    /* \"MyProjectSharedWallet.sol\":724:742  owner = msg.sender */\n  0x0100\n  exp\n  dup2\n  sload\n  dup2\n  0xffffffffffffffffffffffffffffffffffffffff\n  mul\n  not\n  and\n  swap1\n  dup4\n  0xffffffffffffffffffffffffffffffffffffffff\n  and\n  mul\n  or\n  swap1\n  sstore\n  pop\n    /* \"MyProjectSharedWallet.sol\":156:2134  contract SharedWallet {... */\n  dataSize(sub_0)\n  dup1\n  dataOffset(sub_0)\n  0x00\n  codecopy\n  0x00\n  return\nstop\n\nsub_0: assembly {\n        /* \"MyProjectSharedWallet.sol\":156:2134  contract SharedWallet {... */\n      mstore(0x40, 0x80)\n      jumpi(tag_1, lt(calldatasize, 0x04))\n      shr(0xe0, calldataload(0x00))\n      dup1\n      0x3e7279a3\n      gt\n      tag_9\n      jumpi\n      dup1\n      0x3e7279a3\n      eq\n      tag_5\n      jumpi\n      dup1\n      0x41c61383\n      eq\n      tag_6\n      jumpi\n      dup1\n      0x45f3c405\n      eq\n      tag_7\n      jumpi\n      dup1\n      0x8da5cb5b\n      eq\n      tag_8\n      jumpi\n      jump(tag_1)\n    tag_9:\n      dup1\n      0x01567739\n      eq\n      tag_2\n      jumpi\n      dup1\n      0x05737314\n      eq\n      tag_3\n      jumpi\n      dup1\n      0x16a51305\n      eq\n      tag_4\n      jumpi\n    tag_1:\n      0x00\n      dup1\n      revert\n        /* \"MyProjectSharedWallet.sol\":445:504  mapping(address => BeneficiaryDetails) public beneficiaries */\n    tag_2:\n      callvalue\n      dup1\n      iszero\n      tag_10\n      jumpi\n      0x00\n      dup1\n      revert\n    tag_10:\n      pop\n      tag_11\n      0x04\n      dup1\n      calldatasize\n      sub\n      dup2\n      add\n      swap1\n      tag_12\n      swap2\n      swap1\n      tag_13\n      jump\t// in\n    tag_12:\n      tag_14\n      jump\t// in\n    tag_11:\n      mload(0x40)\n      tag_15\n      swap3\n      swap2\n      swap1\n      tag_16\n      jump\t// in\n    tag_15:\n      mload(0x40)\n      dup1\n      swap2\n      sub\n      swap1\n      return\n        /* \"MyProjectSharedWallet.sol\":1490:1533  function SendMoney() public payable {... */\n    tag_3:\n      tag_17\n      tag_18\n      jump\t// in\n    tag_17:\n      stop\n        /* \"MyProjectSharedWallet.sol\":551:578  uint public totalAllowances */\n    tag_4:\n      callvalue\n      dup1\n      iszero\n      tag_19\n      jumpi\n      0x00\n      dup1\n      revert\n    tag_19:\n      pop\n      tag_20\n      tag_21\n      jump\t// in\n    tag_20:\n      mload(0x40)\n      tag_22\n      swap2\n      swap1\n      tag_23\n      jump\t// in\n    tag_22:\n      mload(0x40)\n      dup1\n      swap2\n      sub\n      swap1\n      return\n        /* \"MyProjectSharedWallet.sol\":946:1452  function SetAllowance(address _beneficiary, uint _allowancePercentage) public onlyOwner {... */\n    tag_5:\n      callvalue\n      dup1\n      iszero\n      tag_24\n      jumpi\n      0x00\n      dup1\n      revert\n    tag_24:\n      pop\n      tag_25\n      0x04\n      dup1\n      calldatasize\n      sub\n      dup2\n      add\n      swap1\n      tag_26\n      swap2\n      swap1\n      tag_27\n      jump\t// in\n    tag_26:\n      tag_28\n      jump\t// in\n    tag_25:\n      stop\n        /* \"MyProjectSharedWallet.sol\":623:646  uint public totalClaims */\n    tag_6:\n      callvalue\n      dup1\n      iszero\n      tag_29\n      jumpi\n      0x00\n      dup1\n      revert\n    tag_29:\n      pop\n      tag_30\n      tag_31\n      jump\t// in\n    tag_30:\n      mload(0x40)\n      tag_32\n      swap2\n      swap1\n      tag_23\n      jump\t// in\n    tag_32:\n      mload(0x40)\n      dup1\n      swap2\n      sub\n      swap1\n      return\n        /* \"MyProjectSharedWallet.sol\":1539:2132  function ClaimMoney(uint _amount) public {... */\n    tag_7:\n      callvalue\n      dup1\n      iszero\n      tag_33\n      jumpi\n      0x00\n      dup1\n      revert\n    tag_33:\n      pop\n      tag_34\n      0x04\n      dup1\n      calldatasize\n      sub\n      dup2\n      add\n      swap1\n      tag_35\n      swap2\n      swap1\n      tag_36\n      jump\t// in\n    tag_35:\n      tag_37\n      jump\t// in\n    tag_34:\n      stop\n        /* \"MyProjectSharedWallet.sol\":370:390  address public owner */\n    tag_8:\n      callvalue\n      dup1\n      iszero\n      tag_38\n      jumpi\n      0x00\n      dup1\n      revert\n    tag_38:\n      pop\n      tag_39\n      tag_40\n      jump\t// in\n    tag_39:\n      mload(0x40)\n      tag_41\n      swap2\n      swap1\n      tag_42\n      jump\t// in\n    tag_41:\n      mload(0x40)\n      dup1\n      swap2\n      sub\n      swap1\n      return\n        /* \"MyProjectSharedWallet.sol\":445:504  mapping(address => BeneficiaryDetails) public beneficiaries */\n    tag_14:\n      mstore(0x20, 0x01)\n      dup1\n      0x00\n      mstore\n      keccak256(0x00, 0x40)\n      0x00\n      swap2\n      pop\n      swap1\n      pop\n      dup1\n      0x00\n      add\n      sload\n      swap1\n      dup1\n      0x01\n      add\n      sload\n      swap1\n      pop\n      dup3\n      jump\t// out\n        /* \"MyProjectSharedWallet.sol\":1490:1533  function SendMoney() public payable {... */\n    tag_18:\n      jump\t// out\n        /* \"MyProjectSharedWallet.sol\":551:578  uint public totalAllowances */\n    tag_21:\n      sload(0x02)\n      dup2\n      jump\t// out\n        /* \"MyProjectSharedWallet.sol\":946:1452  function SetAllowance(address _beneficiary, uint _allowancePercentage) public onlyOwner {... */\n    tag_28:\n        /* \"MyProjectSharedWallet.sol\":808:813  owner */\n      0x00\n      dup1\n      sload\n      swap1\n      0x0100\n      exp\n      swap1\n      div\n      0xffffffffffffffffffffffffffffffffffffffff\n      and\n        /* \"MyProjectSharedWallet.sol\":794:813  msg.sender == owner */\n      0xffffffffffffffffffffffffffffffffffffffff\n      and\n        /* \"MyProjectSharedWallet.sol\":794:804  msg.sender */\n      caller\n        /* \"MyProjectSharedWallet.sol\":794:813  msg.sender == owner */\n      0xffffffffffffffffffffffffffffffffffffffff\n      and\n      eq\n        /* \"MyProjectSharedWallet.sol\":786:867  require(msg.sender == owner, \"You are not allowed - only the owner can do this.\") */\n      tag_45\n      jumpi\n      mload(0x40)\n      0x08c379a000000000000000000000000000000000000000000000000000000000\n      dup2\n      mstore\n      0x04\n      add\n      tag_46\n      swap1\n      tag_47\n      jump\t// in\n    tag_46:\n      mload(0x40)\n      dup1\n      swap2\n      sub\n      swap1\n      revert\n    tag_45:\n        /* \"MyProjectSharedWallet.sol\":1068:1073  owner */\n      0x00\n      dup1\n      sload\n      swap1\n      0x0100\n      exp\n      swap1\n      div\n      0xffffffffffffffffffffffffffffffffffffffff\n      and\n        /* \"MyProjectSharedWallet.sol\":1052:1073  _beneficiary != owner */\n      0xffffffffffffffffffffffffffffffffffffffff\n      and\n        /* \"MyProjectSharedWallet.sol\":1052:1064  _beneficiary */\n      dup3\n        /* \"MyProjectSharedWallet.sol\":1052:1073  _beneficiary != owner */\n      0xffffffffffffffffffffffffffffffffffffffff\n      and\n      sub\n        /* \"MyProjectSharedWallet.sol\":1044:1120  require(_beneficiary != owner, \"An allowance is not required for the owner\") */\n      tag_49\n      jumpi\n      mload(0x40)\n      0x08c379a000000000000000000000000000000000000000000000000000000000\n      dup2\n      mstore\n      0x04\n      add\n      tag_50\n      swap1\n      tag_51\n      jump\t// in\n    tag_50:\n      mload(0x40)\n      dup1\n      swap2\n      sub\n      swap1\n      revert\n    tag_49:\n        /* \"MyProjectSharedWallet.sol\":1179:1180  0 */\n      0x00\n        /* \"MyProjectSharedWallet.sol\":1138:1151  beneficiaries */\n      0x01\n        /* \"MyProjectSharedWallet.sol\":1138:1165  beneficiaries[_beneficiary] */\n      0x00\n        /* \"MyProjectSharedWallet.sol\":1152:1164  _beneficiary */\n      dup5\n        /* \"MyProjectSharedWallet.sol\":1138:1165  beneficiaries[_beneficiary] */\n      0xffffffffffffffffffffffffffffffffffffffff\n      and\n      0xffffffffffffffffffffffffffffffffffffffff\n      and\n      dup2\n      mstore\n      0x20\n      add\n      swap1\n      dup2\n      mstore\n      0x20\n      add\n      0x00\n      keccak256\n        /* \"MyProjectSharedWallet.sol\":1138:1175  beneficiaries[_beneficiary].allowance */\n      0x00\n      add\n      sload\n        /* \"MyProjectSharedWallet.sol\":1138:1180  beneficiaries[_beneficiary].allowance == 0 */\n      eq\n        /* \"MyProjectSharedWallet.sol\":1130:1221  require(beneficiaries[_beneficiary].allowance == 0, \"The address already has an allowance\") */\n      tag_52\n      jumpi\n      mload(0x40)\n      0x08c379a000000000000000000000000000000000000000000000000000000000\n      dup2\n      mstore\n      0x04\n      add\n      tag_53\n      swap1\n      tag_54\n      jump\t// in\n    tag_53:\n      mload(0x40)\n      dup1\n      swap2\n      sub\n      swap1\n      revert\n    tag_52:\n        /* \"MyProjectSharedWallet.sol\":1280:1283  100 */\n      0x64\n        /* \"MyProjectSharedWallet.sol\":1257:1277  _allowancePercentage */\n      dup2\n        /* \"MyProjectSharedWallet.sol\":1239:1254  totalAllowances */\n      sload(0x02)\n        /* \"MyProjectSharedWallet.sol\":1239:1277  totalAllowances + _allowancePercentage */\n      tag_55\n      swap2\n      swap1\n      tag_56\n      jump\t// in\n    tag_55:\n        /* \"MyProjectSharedWallet.sol\":1239:1283  totalAllowances + _allowancePercentage < 100 */\n      lt\n        /* \"MyProjectSharedWallet.sol\":1231:1326  require(totalAllowances + _allowancePercentage < 100,\"This would over-allocate the allowances\") */\n      tag_57\n      jumpi\n      mload(0x40)\n      0x08c379a000000000000000000000000000000000000000000000000000000000\n      dup2\n      mstore\n      0x04\n      add\n      tag_58\n      swap1\n      tag_59\n      jump\t// in\n    tag_58:\n      mload(0x40)\n      dup1\n      swap2\n      sub\n      swap1\n      revert\n    tag_57:\n        /* \"MyProjectSharedWallet.sol\":1376:1396  _allowancePercentage */\n      dup1\n        /* \"MyProjectSharedWallet.sol\":1336:1349  beneficiaries */\n      0x01\n        /* \"MyProjectSharedWallet.sol\":1336:1363  beneficiaries[_beneficiary] */\n      0x00\n        /* \"MyProjectSharedWallet.sol\":1350:1362  _beneficiary */\n      dup5\n        /* \"MyProjectSharedWallet.sol\":1336:1363  beneficiaries[_beneficiary] */\n      0xffffffffffffffffffffffffffffffffffffffff\n      and\n      0xffffffffffffffffffffffffffffffffffffffff\n      and\n      dup2\n      mstore\n      0x20\n      add\n      swap1\n      dup2\n      mstore\n      0x20\n      add\n      0x00\n      keccak256\n        /* \"MyProjectSharedWallet.sol\":1336:1373  beneficiaries[_beneficiary].allowance */\n      0x00\n      add\n        /* \"MyProjectSharedWallet.sol\":1336:1396  beneficiaries[_beneficiary].allowance = _allowancePercentage */\n      dup2\n      swap1\n      sstore\n      pop\n        /* \"MyProjectSharedWallet.sol\":1425:1445  _allowancePercentage */\n      dup1\n        /* \"MyProjectSharedWallet.sol\":1406:1421  totalAllowances */\n      0x02\n      0x00\n        /* \"MyProjectSharedWallet.sol\":1406:1445  totalAllowances += _allowancePercentage */\n      dup3\n      dup3\n      sload\n      tag_60\n      swap2\n      swap1\n      tag_56\n      jump\t// in\n    tag_60:\n      swap3\n      pop\n      pop\n      dup2\n      swap1\n      sstore\n      pop\n        /* \"MyProjectSharedWallet.sol\":946:1452  function SetAllowance(address _beneficiary, uint _allowancePercentage) public onlyOwner {... */\n      pop\n      pop\n      jump\t// out\n        /* \"MyProjectSharedWallet.sol\":623:646  uint public totalClaims */\n    tag_31:\n      sload(0x03)\n      dup2\n      jump\t// out\n        /* \"MyProjectSharedWallet.sol\":1539:2132  function ClaimMoney(uint _amount) public {... */\n    tag_37:\n        /* \"MyProjectSharedWallet.sol\":1612:1617  owner */\n      0x00\n      dup1\n      sload\n      swap1\n      0x0100\n      exp\n      swap1\n      div\n      0xffffffffffffffffffffffffffffffffffffffff\n      and\n        /* \"MyProjectSharedWallet.sol\":1598:1617  msg.sender != owner */\n      0xffffffffffffffffffffffffffffffffffffffff\n      and\n        /* \"MyProjectSharedWallet.sol\":1598:1608  msg.sender */\n      caller\n        /* \"MyProjectSharedWallet.sol\":1598:1617  msg.sender != owner */\n      0xffffffffffffffffffffffffffffffffffffffff\n      and\n      sub\n        /* \"MyProjectSharedWallet.sol\":1590:1665  require(msg.sender != owner, \"The owner should use OwnerWithdraw function\") */\n      tag_62\n      jumpi\n      mload(0x40)\n      0x08c379a000000000000000000000000000000000000000000000000000000000\n      dup2\n      mstore\n      0x04\n      add\n      tag_63\n      swap1\n      tag_64\n      jump\t// in\n    tag_63:\n      mload(0x40)\n      dup1\n      swap2\n      sub\n      swap1\n      revert\n    tag_62:\n        /* \"MyProjectSharedWallet.sol\":1707:1708  0 */\n      0x00\n        /* \"MyProjectSharedWallet.sol\":1683:1704  address(this).balance */\n      selfbalance\n        /* \"MyProjectSharedWallet.sol\":1683:1708  address(this).balance > 0 */\n      gt\n        /* \"MyProjectSharedWallet.sol\":1675:1753  require(address(this).balance > 0, \"There is no money in the wallet to claim\") */\n      tag_65\n      jumpi\n      mload(0x40)\n      0x08c379a000000000000000000000000000000000000000000000000000000000\n      dup2\n      mstore\n      0x04\n      add\n      tag_66\n      swap1\n      tag_67\n      jump\t// in\n    tag_66:\n      mload(0x40)\n      dup1\n      swap2\n      sub\n      swap1\n      revert\n    tag_65:\n        /* \"MyProjectSharedWallet.sol\":1809:1810  0 */\n      0x00\n        /* \"MyProjectSharedWallet.sol\":1771:1784  beneficiaries */\n      0x01\n        /* \"MyProjectSharedWallet.sol\":1771:1796  beneficiaries[msg.sender] */\n      0x00\n        /* \"MyProjectSharedWallet.sol\":1785:1795  msg.sender */\n      caller\n        /* \"MyProjectSharedWallet.sol\":1771:1796  beneficiaries[msg.sender] */\n      0xffffffffffffffffffffffffffffffffffffffff\n      and\n      0xffffffffffffffffffffffffffffffffffffffff\n      and\n      dup2\n      mstore\n      0x20\n      add\n      swap1\n      dup2\n      mstore\n      0x20\n      add\n      0x00\n      keccak256\n        /* \"MyProjectSharedWallet.sol\":1771:1806  beneficiaries[msg.sender].allowance */\n      0x00\n      add\n      sload\n        /* \"MyProjectSharedWallet.sol\":1771:1810  beneficiaries[msg.sender].allowance > 0 */\n      gt\n        /* \"MyProjectSharedWallet.sol\":1763:1843  require(beneficiaries[msg.sender].allowance > 0,\"You do not have any allowance\") */\n      tag_68\n      jumpi\n      mload(0x40)\n      0x08c379a000000000000000000000000000000000000000000000000000000000\n      dup2\n      mstore\n      0x04\n      add\n      tag_69\n      swap1\n      tag_70\n      jump\t// in\n    tag_69:\n      mload(0x40)\n      dup1\n      swap2\n      sub\n      swap1\n      revert\n    tag_68:\n        /* \"MyProjectSharedWallet.sol\":1853:1867  uint allowance */\n      0x00\n        /* \"MyProjectSharedWallet.sol\":1870:1883  beneficiaries */\n      0x01\n        /* \"MyProjectSharedWallet.sol\":1870:1895  beneficiaries[msg.sender] */\n      0x00\n        /* \"MyProjectSharedWallet.sol\":1884:1894  msg.sender */\n      caller\n        /* \"MyProjectSharedWallet.sol\":1870:1895  beneficiaries[msg.sender] */\n      0xffffffffffffffffffffffffffffffffffffffff\n      and\n      0xffffffffffffffffffffffffffffffffffffffff\n      and\n      dup2\n      mstore\n      0x20\n      add\n      swap1\n      dup2\n      mstore\n      0x20\n      add\n      0x00\n      keccak256\n        /* \"MyProjectSharedWallet.sol\":1870:1905  beneficiaries[msg.sender].allowance */\n      0x00\n      add\n      sload\n        /* \"MyProjectSharedWallet.sol\":1853:1905  uint allowance = beneficiaries[msg.sender].allowance */\n      swap1\n      pop\n        /* \"MyProjectSharedWallet.sol\":1915:1938  uint allowanceRemaining */\n      0x00\n        /* \"MyProjectSharedWallet.sol\":2005:2018  beneficiaries */\n      0x01\n        /* \"MyProjectSharedWallet.sol\":2005:2030  beneficiaries[msg.sender] */\n      0x00\n        /* \"MyProjectSharedWallet.sol\":2019:2029  msg.sender */\n      caller\n        /* \"MyProjectSharedWallet.sol\":2005:2030  beneficiaries[msg.sender] */\n      0xffffffffffffffffffffffffffffffffffffffff\n      and\n      0xffffffffffffffffffffffffffffffffffffffff\n      and\n      dup2\n      mstore\n      0x20\n      add\n      swap1\n      dup2\n      mstore\n      0x20\n      add\n      0x00\n      keccak256\n        /* \"MyProjectSharedWallet.sol\":2005:2041  beneficiaries[msg.sender].claimsMade */\n      0x01\n      add\n      sload\n        /* \"MyProjectSharedWallet.sol\":1978:1989  totalClaims */\n      sload(0x03)\n        /* \"MyProjectSharedWallet.sol\":1954:1975  address(this).balance */\n      selfbalance\n        /* \"MyProjectSharedWallet.sol\":1954:1989  address(this).balance + totalClaims */\n      tag_71\n      swap2\n      swap1\n      tag_56\n      jump\t// in\n    tag_71:\n        /* \"MyProjectSharedWallet.sol\":1941:1950  allowance */\n      dup4\n        /* \"MyProjectSharedWallet.sol\":1941:1990  allowance * (address(this).balance + totalClaims) */\n      tag_72\n      swap2\n      swap1\n      tag_73\n      jump\t// in\n    tag_72:\n        /* \"MyProjectSharedWallet.sol\":1941:2041  allowance * (address(this).balance + totalClaims)... */\n      tag_74\n      swap2\n      swap1\n      tag_75\n      jump\t// in\n    tag_74:\n        /* \"MyProjectSharedWallet.sol\":1915:2041  uint allowanceRemaining = allowance * (address(this).balance + totalClaims)... */\n      swap1\n      pop\n        /* \"MyProjectSharedWallet.sol\":2070:2088  allowanceRemaining */\n      dup1\n        /* \"MyProjectSharedWallet.sol\":2059:2066  _amount */\n      dup4\n        /* \"MyProjectSharedWallet.sol\":2059:2088  _amount <= allowanceRemaining */\n      gt\n      iszero\n        /* \"MyProjectSharedWallet.sol\":2051:2115  require(_amount <= allowanceRemaining, \"The amount is too high\") */\n      tag_76\n      jumpi\n      mload(0x40)\n      0x08c379a000000000000000000000000000000000000000000000000000000000\n      dup2\n      mstore\n      0x04\n      add\n      tag_77\n      swap1\n      tag_78\n      jump\t// in\n    tag_77:\n      mload(0x40)\n      dup1\n      swap2\n      sub\n      swap1\n      revert\n    tag_76:\n        /* \"MyProjectSharedWallet.sol\":1580:2132  {... */\n      pop\n      pop\n        /* \"MyProjectSharedWallet.sol\":1539:2132  function ClaimMoney(uint _amount) public {... */\n      pop\n      jump\t// out\n        /* \"MyProjectSharedWallet.sol\":370:390  address public owner */\n    tag_40:\n      0x00\n      dup1\n      sload\n      swap1\n      0x0100\n      exp\n      swap1\n      div\n      0xffffffffffffffffffffffffffffffffffffffff\n      and\n      dup2\n      jump\t// out\n        /* \"#utility.yul\":88:205   */\n    tag_80:\n        /* \"#utility.yul\":197:198   */\n      0x00\n        /* \"#utility.yul\":194:195   */\n      dup1\n        /* \"#utility.yul\":187:199   */\n      revert\n        /* \"#utility.yul\":334:460   */\n    tag_82:\n        /* \"#utility.yul\":371:378   */\n      0x00\n        /* \"#utility.yul\":411:453   */\n      0xffffffffffffffffffffffffffffffffffffffff\n        /* \"#utility.yul\":404:409   */\n      dup3\n        /* \"#utility.yul\":400:454   */\n      and\n        /* \"#utility.yul\":389:454   */\n      swap1\n      pop\n        /* \"#utility.yul\":334:460   */\n      swap2\n      swap1\n      pop\n      jump\t// out\n        /* \"#utility.yul\":466:562   */\n    tag_83:\n        /* \"#utility.yul\":503:510   */\n      0x00\n        /* \"#utility.yul\":532:556   */\n      tag_115\n        /* \"#utility.yul\":550:555   */\n      dup3\n        /* \"#utility.yul\":532:556   */\n      tag_82\n      jump\t// in\n    tag_115:\n        /* \"#utility.yul\":521:556   */\n      swap1\n      pop\n        /* \"#utility.yul\":466:562   */\n      swap2\n      swap1\n      pop\n      jump\t// out\n        /* \"#utility.yul\":568:690   */\n    tag_84:\n        /* \"#utility.yul\":641:665   */\n      tag_117\n        /* \"#utility.yul\":659:664   */\n      dup2\n        /* \"#utility.yul\":641:665   */\n      tag_83\n      jump\t// in\n    tag_117:\n        /* \"#utility.yul\":634:639   */\n      dup2\n        /* \"#utility.yul\":631:666   */\n      eq\n        /* \"#utility.yul\":621:684   */\n      tag_118\n      jumpi\n        /* \"#utility.yul\":680:681   */\n      0x00\n        /* \"#utility.yul\":677:678   */\n      dup1\n        /* \"#utility.yul\":670:682   */\n      revert\n        /* \"#utility.yul\":621:684   */\n    tag_118:\n        /* \"#utility.yul\":568:690   */\n      pop\n      jump\t// out\n        /* \"#utility.yul\":696:835   */\n    tag_85:\n        /* \"#utility.yul\":742:747   */\n      0x00\n        /* \"#utility.yul\":780:786   */\n      dup2\n        /* \"#utility.yul\":767:787   */\n      calldataload\n        /* \"#utility.yul\":758:787   */\n      swap1\n      pop\n        /* \"#utility.yul\":796:829   */\n      tag_120\n        /* \"#utility.yul\":823:828   */\n      dup2\n        /* \"#utility.yul\":796:829   */\n      tag_84\n      jump\t// in\n    tag_120:\n        /* \"#utility.yul\":696:835   */\n      swap3\n      swap2\n      pop\n      pop\n      jump\t// out\n        /* \"#utility.yul\":841:1170   */\n    tag_13:\n        /* \"#utility.yul\":900:906   */\n      0x00\n        /* \"#utility.yul\":949:951   */\n      0x20\n        /* \"#utility.yul\":937:946   */\n      dup3\n        /* \"#utility.yul\":928:935   */\n      dup5\n        /* \"#utility.yul\":924:947   */\n      sub\n        /* \"#utility.yul\":920:952   */\n      slt\n        /* \"#utility.yul\":917:1036   */\n      iszero\n      tag_122\n      jumpi\n        /* \"#utility.yul\":955:1034   */\n      tag_123\n      tag_80\n      jump\t// in\n    tag_123:\n        /* \"#utility.yul\":917:1036   */\n    tag_122:\n        /* \"#utility.yul\":1075:1076   */\n      0x00\n        /* \"#utility.yul\":1100:1153   */\n      tag_124\n        /* \"#utility.yul\":1145:1152   */\n      dup5\n        /* \"#utility.yul\":1136:1142   */\n      dup3\n        /* \"#utility.yul\":1125:1134   */\n      dup6\n        /* \"#utility.yul\":1121:1143   */\n      add\n        /* \"#utility.yul\":1100:1153   */\n      tag_85\n      jump\t// in\n    tag_124:\n        /* \"#utility.yul\":1090:1153   */\n      swap2\n      pop\n        /* \"#utility.yul\":1046:1163   */\n      pop\n        /* \"#utility.yul\":841:1170   */\n      swap3\n      swap2\n      pop\n      pop\n      jump\t// out\n        /* \"#utility.yul\":1176:1253   */\n    tag_86:\n        /* \"#utility.yul\":1213:1220   */\n      0x00\n        /* \"#utility.yul\":1242:1247   */\n      dup2\n        /* \"#utility.yul\":1231:1247   */\n      swap1\n      pop\n        /* \"#utility.yul\":1176:1253   */\n      swap2\n      swap1\n      pop\n      jump\t// out\n        /* \"#utility.yul\":1259:1377   */\n    tag_87:\n        /* \"#utility.yul\":1346:1370   */\n      tag_127\n        /* \"#utility.yul\":1364:1369   */\n      dup2\n        /* \"#utility.yul\":1346:1370   */\n      tag_86\n      jump\t// in\n    tag_127:\n        /* \"#utility.yul\":1341:1344   */\n      dup3\n        /* \"#utility.yul\":1334:1371   */\n      mstore\n        /* \"#utility.yul\":1259:1377   */\n      pop\n      pop\n      jump\t// out\n        /* \"#utility.yul\":1383:1715   */\n    tag_16:\n        /* \"#utility.yul\":1504:1508   */\n      0x00\n        /* \"#utility.yul\":1542:1544   */\n      0x40\n        /* \"#utility.yul\":1531:1540   */\n      dup3\n        /* \"#utility.yul\":1527:1545   */\n      add\n        /* \"#utility.yul\":1519:1545   */\n      swap1\n      pop\n        /* \"#utility.yul\":1555:1626   */\n      tag_129\n        /* \"#utility.yul\":1623:1624   */\n      0x00\n        /* \"#utility.yul\":1612:1621   */\n      dup4\n        /* \"#utility.yul\":1608:1625   */\n      add\n        /* \"#utility.yul\":1599:1605   */\n      dup6\n        /* \"#utility.yul\":1555:1626   */\n      tag_87\n      jump\t// in\n    tag_129:\n        /* \"#utility.yul\":1636:1708   */\n      tag_130\n        /* \"#utility.yul\":1704:1706   */\n      0x20\n        /* \"#utility.yul\":1693:1702   */\n      dup4\n        /* \"#utility.yul\":1689:1707   */\n      add\n        /* \"#utility.yul\":1680:1686   */\n      dup5\n        /* \"#utility.yul\":1636:1708   */\n      tag_87\n      jump\t// in\n    tag_130:\n        /* \"#utility.yul\":1383:1715   */\n      swap4\n      swap3\n      pop\n      pop\n      pop\n      jump\t// out\n        /* \"#utility.yul\":1721:1943   */\n    tag_23:\n        /* \"#utility.yul\":1814:1818   */\n      0x00\n        /* \"#utility.yul\":1852:1854   */\n      0x20\n        /* \"#utility.yul\":1841:1850   */\n      dup3\n        /* \"#utility.yul\":1837:1855   */\n      add\n        /* \"#utility.yul\":1829:1855   */\n      swap1\n      pop\n        /* \"#utility.yul\":1865:1936   */\n      tag_132\n        /* \"#utility.yul\":1933:1934   */\n      0x00\n        /* \"#utility.yul\":1922:1931   */\n      dup4\n        /* \"#utility.yul\":1918:1935   */\n      add\n        /* \"#utility.yul\":1909:1915   */\n      dup5\n        /* \"#utility.yul\":1865:1936   */\n      tag_87\n      jump\t// in\n    tag_132:\n        /* \"#utility.yul\":1721:1943   */\n      swap3\n      swap2\n      pop\n      pop\n      jump\t// out\n        /* \"#utility.yul\":1949:2071   */\n    tag_88:\n        /* \"#utility.yul\":2022:2046   */\n      tag_134\n        /* \"#utility.yul\":2040:2045   */\n      dup2\n        /* \"#utility.yul\":2022:2046   */\n      tag_86\n      jump\t// in\n    tag_134:\n        /* \"#utility.yul\":2015:2020   */\n      dup2\n        /* \"#utility.yul\":2012:2047   */\n      eq\n        /* \"#utility.yul\":2002:2065   */\n      tag_135\n      jumpi\n        /* \"#utility.yul\":2061:2062   */\n      0x00\n        /* \"#utility.yul\":2058:2059   */\n      dup1\n        /* \"#utility.yul\":2051:2063   */\n      revert\n        /* \"#utility.yul\":2002:2065   */\n    tag_135:\n        /* \"#utility.yul\":1949:2071   */\n      pop\n      jump\t// out\n        /* \"#utility.yul\":2077:2216   */\n    tag_89:\n        /* \"#utility.yul\":2123:2128   */\n      0x00\n        /* \"#utility.yul\":2161:2167   */\n      dup2\n        /* \"#utility.yul\":2148:2168   */\n      calldataload\n        /* \"#utility.yul\":2139:2168   */\n      swap1\n      pop\n        /* \"#utility.yul\":2177:2210   */\n      tag_137\n        /* \"#utility.yul\":2204:2209   */\n      dup2\n        /* \"#utility.yul\":2177:2210   */\n      tag_88\n      jump\t// in\n    tag_137:\n        /* \"#utility.yul\":2077:2216   */\n      swap3\n      swap2\n      pop\n      pop\n      jump\t// out\n        /* \"#utility.yul\":2222:2696   */\n    tag_27:\n        /* \"#utility.yul\":2290:2296   */\n      0x00\n        /* \"#utility.yul\":2298:2304   */\n      dup1\n        /* \"#utility.yul\":2347:2349   */\n      0x40\n        /* \"#utility.yul\":2335:2344   */\n      dup4\n        /* \"#utility.yul\":2326:2333   */\n      dup6\n        /* \"#utility.yul\":2322:2345   */\n      sub\n        /* \"#utility.yul\":2318:2350   */\n      slt\n        /* \"#utility.yul\":2315:2434   */\n      iszero\n      tag_139\n      jumpi\n        /* \"#utility.yul\":2353:2432   */\n      tag_140\n      tag_80\n      jump\t// in\n    tag_140:\n        /* \"#utility.yul\":2315:2434   */\n    tag_139:\n        /* \"#utility.yul\":2473:2474   */\n      0x00\n        /* \"#utility.yul\":2498:2551   */\n      tag_141\n        /* \"#utility.yul\":2543:2550   */\n      dup6\n        /* \"#utility.yul\":2534:2540   */\n      dup3\n        /* \"#utility.yul\":2523:2532   */\n      dup7\n        /* \"#utility.yul\":2519:2541   */\n      add\n        /* \"#utility.yul\":2498:2551   */\n      tag_85\n      jump\t// in\n    tag_141:\n        /* \"#utility.yul\":2488:2551   */\n      swap3\n      pop\n        /* \"#utility.yul\":2444:2561   */\n      pop\n        /* \"#utility.yul\":2600:2602   */\n      0x20\n        /* \"#utility.yul\":2626:2679   */\n      tag_142\n        /* \"#utility.yul\":2671:2678   */\n      dup6\n        /* \"#utility.yul\":2662:2668   */\n      dup3\n        /* \"#utility.yul\":2651:2660   */\n      dup7\n        /* \"#utility.yul\":2647:2669   */\n      add\n        /* \"#utility.yul\":2626:2679   */\n      tag_89\n      jump\t// in\n    tag_142:\n        /* \"#utility.yul\":2616:2679   */\n      swap2\n      pop\n        /* \"#utility.yul\":2571:2689   */\n      pop\n        /* \"#utility.yul\":2222:2696   */\n      swap3\n      pop\n      swap3\n      swap1\n      pop\n      jump\t// out\n        /* \"#utility.yul\":2702:3031   */\n    tag_36:\n        /* \"#utility.yul\":2761:2767   */\n      0x00\n        /* \"#utility.yul\":2810:2812   */\n      0x20\n        /* \"#utility.yul\":2798:2807   */\n      dup3\n        /* \"#utility.yul\":2789:2796   */\n      dup5\n        /* \"#utility.yul\":2785:2808   */\n      sub\n        /* \"#utility.yul\":2781:2813   */\n      slt\n        /* \"#utility.yul\":2778:2897   */\n      iszero\n      tag_144\n      jumpi\n        /* \"#utility.yul\":2816:2895   */\n      tag_145\n      tag_80\n      jump\t// in\n    tag_145:\n        /* \"#utility.yul\":2778:2897   */\n    tag_144:\n        /* \"#utility.yul\":2936:2937   */\n      0x00\n        /* \"#utility.yul\":2961:3014   */\n      tag_146\n        /* \"#utility.yul\":3006:3013   */\n      dup5\n        /* \"#utility.yul\":2997:3003   */\n      dup3\n        /* \"#utility.yul\":2986:2995   */\n      dup6\n        /* \"#utility.yul\":2982:3004   */\n      add\n        /* \"#utility.yul\":2961:3014   */\n      tag_89\n      jump\t// in\n    tag_146:\n        /* \"#utility.yul\":2951:3014   */\n      swap2\n      pop\n        /* \"#utility.yul\":2907:3024   */\n      pop\n        /* \"#utility.yul\":2702:3031   */\n      swap3\n      swap2\n      pop\n      pop\n      jump\t// out\n        /* \"#utility.yul\":3037:3155   */\n    tag_90:\n        /* \"#utility.yul\":3124:3148   */\n      tag_148\n        /* \"#utility.yul\":3142:3147   */\n      dup2\n        /* \"#utility.yul\":3124:3148   */\n      tag_83\n      jump\t// in\n    tag_148:\n        /* \"#utility.yul\":3119:3122   */\n      dup3\n        /* \"#utility.yul\":3112:3149   */\n      mstore\n        /* \"#utility.yul\":3037:3155   */\n      pop\n      pop\n      jump\t// out\n        /* \"#utility.yul\":3161:3383   */\n    tag_42:\n        /* \"#utility.yul\":3254:3258   */\n      0x00\n        /* \"#utility.yul\":3292:3294   */\n      0x20\n        /* \"#utility.yul\":3281:3290   */\n      dup3\n        /* \"#utility.yul\":3277:3295   */\n      add\n        /* \"#utility.yul\":3269:3295   */\n      swap1\n      pop\n        /* \"#utility.yul\":3305:3376   */\n      tag_150\n        /* \"#utility.yul\":3373:3374   */\n      0x00\n        /* \"#utility.yul\":3362:3371   */\n      dup4\n        /* \"#utility.yul\":3358:3375   */\n      add\n        /* \"#utility.yul\":3349:3355   */\n      dup5\n        /* \"#utility.yul\":3305:3376   */\n      tag_90\n      jump\t// in\n    tag_150:\n        /* \"#utility.yul\":3161:3383   */\n      swap3\n      swap2\n      pop\n      pop\n      jump\t// out\n        /* \"#utility.yul\":3389:3558   */\n    tag_91:\n        /* \"#utility.yul\":3473:3484   */\n      0x00\n        /* \"#utility.yul\":3507:3513   */\n      dup3\n        /* \"#utility.yul\":3502:3505   */\n      dup3\n        /* \"#utility.yul\":3495:3514   */\n      mstore\n        /* \"#utility.yul\":3547:3551   */\n      0x20\n        /* \"#utility.yul\":3542:3545   */\n      dup3\n        /* \"#utility.yul\":3538:3552   */\n      add\n        /* \"#utility.yul\":3523:3552   */\n      swap1\n      pop\n        /* \"#utility.yul\":3389:3558   */\n      swap3\n      swap2\n      pop\n      pop\n      jump\t// out\n        /* \"#utility.yul\":3564:3800   */\n    tag_92:\n        /* \"#utility.yul\":3704:3738   */\n      0x596f7520617265206e6f7420616c6c6f776564202d206f6e6c7920746865206f\n        /* \"#utility.yul\":3700:3701   */\n      0x00\n        /* \"#utility.yul\":3692:3698   */\n      dup3\n        /* \"#utility.yul\":3688:3702   */\n      add\n        /* \"#utility.yul\":3681:3739   */\n      mstore\n        /* \"#utility.yul\":3773:3792   */\n      0x776e65722063616e20646f20746869732e000000000000000000000000000000\n        /* \"#utility.yul\":3768:3770   */\n      0x20\n        /* \"#utility.yul\":3760:3766   */\n      dup3\n        /* \"#utility.yul\":3756:3771   */\n      add\n        /* \"#utility.yul\":3749:3793   */\n      mstore\n        /* \"#utility.yul\":3564:3800   */\n      pop\n      jump\t// out\n        /* \"#utility.yul\":3806:4172   */\n    tag_93:\n        /* \"#utility.yul\":3948:3951   */\n      0x00\n        /* \"#utility.yul\":3969:4036   */\n      tag_154\n        /* \"#utility.yul\":4033:4035   */\n      0x31\n        /* \"#utility.yul\":4028:4031   */\n      dup4\n        /* \"#utility.yul\":3969:4036   */\n      tag_91\n      jump\t// in\n    tag_154:\n        /* \"#utility.yul\":3962:4036   */\n      swap2\n      pop\n        /* \"#utility.yul\":4045:4138   */\n      tag_155\n        /* \"#utility.yul\":4134:4137   */\n      dup3\n        /* \"#utility.yul\":4045:4138   */\n      tag_92\n      jump\t// in\n    tag_155:\n        /* \"#utility.yul\":4163:4165   */\n      0x40\n        /* \"#utility.yul\":4158:4161   */\n      dup3\n        /* \"#utility.yul\":4154:4166   */\n      add\n        /* \"#utility.yul\":4147:4166   */\n      swap1\n      pop\n        /* \"#utility.yul\":3806:4172   */\n      swap2\n      swap1\n      pop\n      jump\t// out\n        /* \"#utility.yul\":4178:4597   */\n    tag_47:\n        /* \"#utility.yul\":4344:4348   */\n      0x00\n        /* \"#utility.yul\":4382:4384   */\n      0x20\n        /* \"#utility.yul\":4371:4380   */\n      dup3\n        /* \"#utility.yul\":4367:4385   */\n      add\n        /* \"#utility.yul\":4359:4385   */\n      swap1\n      pop\n        /* \"#utility.yul\":4431:4440   */\n      dup2\n        /* \"#utility.yul\":4425:4429   */\n      dup2\n        /* \"#utility.yul\":4421:4441   */\n      sub\n        /* \"#utility.yul\":4417:4418   */\n      0x00\n        /* \"#utility.yul\":4406:4415   */\n      dup4\n        /* \"#utility.yul\":4402:4419   */\n      add\n        /* \"#utility.yul\":4395:4442   */\n      mstore\n        /* \"#utility.yul\":4459:4590   */\n      tag_157\n        /* \"#utility.yul\":4585:4589   */\n      dup2\n        /* \"#utility.yul\":4459:4590   */\n      tag_93\n      jump\t// in\n    tag_157:\n        /* \"#utility.yul\":4451:4590   */\n      swap1\n      pop\n        /* \"#utility.yul\":4178:4597   */\n      swap2\n      swap1\n      pop\n      jump\t// out\n        /* \"#utility.yul\":4603:4832   */\n    tag_94:\n        /* \"#utility.yul\":4743:4777   */\n      0x416e20616c6c6f77616e6365206973206e6f7420726571756972656420666f72\n        /* \"#utility.yul\":4739:4740   */\n      0x00\n        /* \"#utility.yul\":4731:4737   */\n      dup3\n        /* \"#utility.yul\":4727:4741   */\n      add\n        /* \"#utility.yul\":4720:4778   */\n      mstore\n        /* \"#utility.yul\":4812:4824   */\n      0x20746865206f776e657200000000000000000000000000000000000000000000\n        /* \"#utility.yul\":4807:4809   */\n      0x20\n        /* \"#utility.yul\":4799:4805   */\n      dup3\n        /* \"#utility.yul\":4795:4810   */\n      add\n        /* \"#utility.yul\":4788:4825   */\n      mstore\n        /* \"#utility.yul\":4603:4832   */\n      pop\n      jump\t// out\n        /* \"#utility.yul\":4838:5204   */\n    tag_95:\n        /* \"#utility.yul\":4980:4983   */\n      0x00\n        /* \"#utility.yul\":5001:5068   */\n      tag_160\n        /* \"#utility.yul\":5065:5067   */\n      0x2a\n        /* \"#utility.yul\":5060:5063   */\n      dup4\n        /* \"#utility.yul\":5001:5068   */\n      tag_91\n      jump\t// in\n    tag_160:\n        /* \"#utility.yul\":4994:5068   */\n      swap2\n      pop\n        /* \"#utility.yul\":5077:5170   */\n      tag_161\n        /* \"#utility.yul\":5166:5169   */\n      dup3\n        /* \"#utility.yul\":5077:5170   */\n      tag_94\n      jump\t// in\n    tag_161:\n        /* \"#utility.yul\":5195:5197   */\n      0x40\n        /* \"#utility.yul\":5190:5193   */\n      dup3\n        /* \"#utility.yul\":5186:5198   */\n      add\n        /* \"#utility.yul\":5179:5198   */\n      swap1\n      pop\n        /* \"#utility.yul\":4838:5204   */\n      swap2\n      swap1\n      pop\n      jump\t// out\n        /* \"#utility.yul\":5210:5629   */\n    tag_51:\n        /* \"#utility.yul\":5376:5380   */\n      0x00\n        /* \"#utility.yul\":5414:5416   */\n      0x20\n        /* \"#utility.yul\":5403:5412   */\n      dup3\n        /* \"#utility.yul\":5399:5417   */\n      add\n        /* \"#utility.yul\":5391:5417   */\n      swap1\n      pop\n        /* \"#utility.yul\":5463:5472   */\n      dup2\n        /* \"#utility.yul\":5457:5461   */\n      dup2\n        /* \"#utility.yul\":5453:5473   */\n      sub\n        /* \"#utility.yul\":5449:5450   */\n      0x00\n        /* \"#utility.yul\":5438:5447   */\n      dup4\n        /* \"#utility.yul\":5434:5451   */\n      add\n        /* \"#utility.yul\":5427:5474   */\n      mstore\n        /* \"#utility.yul\":5491:5622   */\n      tag_163\n        /* \"#utility.yul\":5617:5621   */\n      dup2\n        /* \"#utility.yul\":5491:5622   */\n      tag_95\n      jump\t// in\n    tag_163:\n        /* \"#utility.yul\":5483:5622   */\n      swap1\n      pop\n        /* \"#utility.yul\":5210:5629   */\n      swap2\n      swap1\n      pop\n      jump\t// out\n        /* \"#utility.yul\":5635:5858   */\n    tag_96:\n        /* \"#utility.yul\":5775:5809   */\n      0x546865206164647265737320616c72656164792068617320616e20616c6c6f77\n        /* \"#utility.yul\":5771:5772   */\n      0x00\n        /* \"#utility.yul\":5763:5769   */\n      dup3\n        /* \"#utility.yul\":5759:5773   */\n      add\n        /* \"#utility.yul\":5752:5810   */\n      mstore\n        /* \"#utility.yul\":5844:5850   */\n      0x616e636500000000000000000000000000000000000000000000000000000000\n        /* \"#utility.yul\":5839:5841   */\n      0x20\n        /* \"#utility.yul\":5831:5837   */\n      dup3\n        /* \"#utility.yul\":5827:5842   */\n      add\n        /* \"#utility.yul\":5820:5851   */\n      mstore\n        /* \"#utility.yul\":5635:5858   */\n      pop\n      jump\t// out\n        /* \"#utility.yul\":5864:6230   */\n    tag_97:\n        /* \"#utility.yul\":6006:6009   */\n      0x00\n        /* \"#utility.yul\":6027:6094   */\n      tag_166\n        /* \"#utility.yul\":6091:6093   */\n      0x24\n        /* \"#utility.yul\":6086:6089   */\n      dup4\n        /* \"#utility.yul\":6027:6094   */\n      tag_91\n      jump\t// in\n    tag_166:\n        /* \"#utility.yul\":6020:6094   */\n      swap2\n      pop\n        /* \"#utility.yul\":6103:6196   */\n      tag_167\n        /* \"#utility.yul\":6192:6195   */\n      dup3\n        /* \"#utility.yul\":6103:6196   */\n      tag_96\n      jump\t// in\n    tag_167:\n        /* \"#utility.yul\":6221:6223   */\n      0x40\n        /* \"#utility.yul\":6216:6219   */\n      dup3\n        /* \"#utility.yul\":6212:6224   */\n      add\n        /* \"#utility.yul\":6205:6224   */\n      swap1\n      pop\n        /* \"#utility.yul\":5864:6230   */\n      swap2\n      swap1\n      pop\n      jump\t// out\n        /* \"#utility.yul\":6236:6655   */\n    tag_54:\n        /* \"#utility.yul\":6402:6406   */\n      0x00\n        /* \"#utility.yul\":6440:6442   */\n      0x20\n        /* \"#utility.yul\":6429:6438   */\n      dup3\n        /* \"#utility.yul\":6425:6443   */\n      add\n        /* \"#utility.yul\":6417:6443   */\n      swap1\n      pop\n        /* \"#utility.yul\":6489:6498   */\n      dup2\n        /* \"#utility.yul\":6483:6487   */\n      dup2\n        /* \"#utility.yul\":6479:6499   */\n      sub\n        /* \"#utility.yul\":6475:6476   */\n      0x00\n        /* \"#utility.yul\":6464:6473   */\n      dup4\n        /* \"#utility.yul\":6460:6477   */\n      add\n        /* \"#utility.yul\":6453:6500   */\n      mstore\n        /* \"#utility.yul\":6517:6648   */\n      tag_169\n        /* \"#utility.yul\":6643:6647   */\n      dup2\n        /* \"#utility.yul\":6517:6648   */\n      tag_97\n      jump\t// in\n    tag_169:\n        /* \"#utility.yul\":6509:6648   */\n      swap1\n      pop\n        /* \"#utility.yul\":6236:6655   */\n      swap2\n      swap1\n      pop\n      jump\t// out\n        /* \"#utility.yul\":6661:6841   */\n    tag_98:\n        /* \"#utility.yul\":6709:6786   */\n      0x4e487b7100000000000000000000000000000000000000000000000000000000\n        /* \"#utility.yul\":6706:6707   */\n      0x00\n        /* \"#utility.yul\":6699:6787   */\n      mstore\n        /* \"#utility.yul\":6806:6810   */\n      0x11\n        /* \"#utility.yul\":6803:6804   */\n      0x04\n        /* \"#utility.yul\":6796:6811   */\n      mstore\n        /* \"#utility.yul\":6830:6834   */\n      0x24\n        /* \"#utility.yul\":6827:6828   */\n      0x00\n        /* \"#utility.yul\":6820:6835   */\n      revert\n        /* \"#utility.yul\":6847:7038   */\n    tag_56:\n        /* \"#utility.yul\":6887:6890   */\n      0x00\n        /* \"#utility.yul\":6906:6926   */\n      tag_172\n        /* \"#utility.yul\":6924:6925   */\n      dup3\n        /* \"#utility.yul\":6906:6926   */\n      tag_86\n      jump\t// in\n    tag_172:\n        /* \"#utility.yul\":6901:6926   */\n      swap2\n      pop\n        /* \"#utility.yul\":6940:6960   */\n      tag_173\n        /* \"#utility.yul\":6958:6959   */\n      dup4\n        /* \"#utility.yul\":6940:6960   */\n      tag_86\n      jump\t// in\n    tag_173:\n        /* \"#utility.yul\":6935:6960   */\n      swap3\n      pop\n        /* \"#utility.yul\":6983:6984   */\n      dup3\n        /* \"#utility.yul\":6980:6981   */\n      dup3\n        /* \"#utility.yul\":6976:6985   */\n      add\n        /* \"#utility.yul\":6969:6985   */\n      swap1\n      pop\n        /* \"#utility.yul\":7004:7007   */\n      dup1\n        /* \"#utility.yul\":7001:7002   */\n      dup3\n        /* \"#utility.yul\":6998:7008   */\n      gt\n        /* \"#utility.yul\":6995:7031   */\n      iszero\n      tag_174\n      jumpi\n        /* \"#utility.yul\":7011:7029   */\n      tag_175\n      tag_98\n      jump\t// in\n    tag_175:\n        /* \"#utility.yul\":6995:7031   */\n    tag_174:\n        /* \"#utility.yul\":6847:7038   */\n      swap3\n      swap2\n      pop\n      pop\n      jump\t// out\n        /* \"#utility.yul\":7044:7270   */\n    tag_99:\n        /* \"#utility.yul\":7184:7218   */\n      0x5468697320776f756c64206f7665722d616c6c6f636174652074686520616c6c\n        /* \"#utility.yul\":7180:7181   */\n      0x00\n        /* \"#utility.yul\":7172:7178   */\n      dup3\n        /* \"#utility.yul\":7168:7182   */\n      add\n        /* \"#utility.yul\":7161:7219   */\n      mstore\n        /* \"#utility.yul\":7253:7262   */\n      0x6f77616e63657300000000000000000000000000000000000000000000000000\n        /* \"#utility.yul\":7248:7250   */\n      0x20\n        /* \"#utility.yul\":7240:7246   */\n      dup3\n        /* \"#utility.yul\":7236:7251   */\n      add\n        /* \"#utility.yul\":7229:7263   */\n      mstore\n        /* \"#utility.yul\":7044:7270   */\n      pop\n      jump\t// out\n        /* \"#utility.yul\":7276:7642   */\n    tag_100:\n        /* \"#utility.yul\":7418:7421   */\n      0x00\n        /* \"#utility.yul\":7439:7506   */\n      tag_178\n        /* \"#utility.yul\":7503:7505   */\n      0x27\n        /* \"#utility.yul\":7498:7501   */\n      dup4\n        /* \"#utility.yul\":7439:7506   */\n      tag_91\n      jump\t// in\n    tag_178:\n        /* \"#utility.yul\":7432:7506   */\n      swap2\n      pop\n        /* \"#utility.yul\":7515:7608   */\n      tag_179\n        /* \"#utility.yul\":7604:7607   */\n      dup3\n        /* \"#utility.yul\":7515:7608   */\n      tag_99\n      jump\t// in\n    tag_179:\n        /* \"#utility.yul\":7633:7635   */\n      0x40\n        /* \"#utility.yul\":7628:7631   */\n      dup3\n        /* \"#utility.yul\":7624:7636   */\n      add\n        /* \"#utility.yul\":7617:7636   */\n      swap1\n      pop\n        /* \"#utility.yul\":7276:7642   */\n      swap2\n      swap1\n      pop\n      jump\t// out\n        /* \"#utility.yul\":7648:8067   */\n    tag_59:\n        /* \"#utility.yul\":7814:7818   */\n      0x00\n        /* \"#utility.yul\":7852:7854   */\n      0x20\n        /* \"#utility.yul\":7841:7850   */\n      dup3\n        /* \"#utility.yul\":7837:7855   */\n      add\n        /* \"#utility.yul\":7829:7855   */\n      swap1\n      pop\n        /* \"#utility.yul\":7901:7910   */\n      dup2\n        /* \"#utility.yul\":7895:7899   */\n      dup2\n        /* \"#utility.yul\":7891:7911   */\n      sub\n        /* \"#utility.yul\":7887:7888   */\n      0x00\n        /* \"#utility.yul\":7876:7885   */\n      dup4\n        /* \"#utility.yul\":7872:7889   */\n      add\n        /* \"#utility.yul\":7865:7912   */\n      mstore\n        /* \"#utility.yul\":7929:8060   */\n      tag_181\n        /* \"#utility.yul\":8055:8059   */\n      dup2\n        /* \"#utility.yul\":7929:8060   */\n      tag_100\n      jump\t// in\n    tag_181:\n        /* \"#utility.yul\":7921:8060   */\n      swap1\n      pop\n        /* \"#utility.yul\":7648:8067   */\n      swap2\n      swap1\n      pop\n      jump\t// out\n        /* \"#utility.yul\":8073:8303   */\n    tag_101:\n        /* \"#utility.yul\":8213:8247   */\n      0x546865206f776e65722073686f756c6420757365204f776e6572576974686472\n        /* \"#utility.yul\":8209:8210   */\n      0x00\n        /* \"#utility.yul\":8201:8207   */\n      dup3\n        /* \"#utility.yul\":8197:8211   */\n      add\n        /* \"#utility.yul\":8190:8248   */\n      mstore\n        /* \"#utility.yul\":8282:8295   */\n      0x61772066756e6374696f6e000000000000000000000000000000000000000000\n        /* \"#utility.yul\":8277:8279   */\n      0x20\n        /* \"#utility.yul\":8269:8275   */\n      dup3\n        /* \"#utility.yul\":8265:8280   */\n      add\n        /* \"#utility.yul\":8258:8296   */\n      mstore\n        /* \"#utility.yul\":8073:8303   */\n      pop\n      jump\t// out\n        /* \"#utility.yul\":8309:8675   */\n    tag_102:\n        /* \"#utility.yul\":8451:8454   */\n      0x00\n        /* \"#utility.yul\":8472:8539   */\n      tag_184\n        /* \"#utility.yul\":8536:8538   */\n      0x2b\n        /* \"#utility.yul\":8531:8534   */\n      dup4\n        /* \"#utility.yul\":8472:8539   */\n      tag_91\n      jump\t// in\n    tag_184:\n        /* \"#utility.yul\":8465:8539   */\n      swap2\n      pop\n        /* \"#utility.yul\":8548:8641   */\n      tag_185\n        /* \"#utility.yul\":8637:8640   */\n      dup3\n        /* \"#utility.yul\":8548:8641   */\n      tag_101\n      jump\t// in\n    tag_185:\n        /* \"#utility.yul\":8666:8668   */\n      0x40\n        /* \"#utility.yul\":8661:8664   */\n      dup3\n        /* \"#utility.yul\":8657:8669   */\n      add\n        /* \"#utility.yul\":8650:8669   */\n      swap1\n      pop\n        /* \"#utility.yul\":8309:8675   */\n      swap2\n      swap1\n      pop\n      jump\t// out\n        /* \"#utility.yul\":8681:9100   */\n    tag_64:\n        /* \"#utility.yul\":8847:8851   */\n      0x00\n        /* \"#utility.yul\":8885:8887   */\n      0x20\n        /* \"#utility.yul\":8874:8883   */\n      dup3\n        /* \"#utility.yul\":8870:8888   */\n      add\n        /* \"#utility.yul\":8862:8888   */\n      swap1\n      pop\n        /* \"#utility.yul\":8934:8943   */\n      dup2\n        /* \"#utility.yul\":8928:8932   */\n      dup2\n        /* \"#utility.yul\":8924:8944   */\n      sub\n        /* \"#utility.yul\":8920:8921   */\n      0x00\n        /* \"#utility.yul\":8909:8918   */\n      dup4\n        /* \"#utility.yul\":8905:8922   */\n      add\n        /* \"#utility.yul\":8898:8945   */\n      mstore\n        /* \"#utility.yul\":8962:9093   */\n      tag_187\n        /* \"#utility.yul\":9088:9092   */\n      dup2\n        /* \"#utility.yul\":8962:9093   */\n      tag_102\n      jump\t// in\n    tag_187:\n        /* \"#utility.yul\":8954:9093   */\n      swap1\n      pop\n        /* \"#utility.yul\":8681:9100   */\n      swap2\n      swap1\n      pop\n      jump\t// out\n        /* \"#utility.yul\":9106:9333   */\n    tag_103:\n        /* \"#utility.yul\":9246:9280   */\n      0x5468657265206973206e6f206d6f6e657920696e207468652077616c6c657420\n        /* \"#utility.yul\":9242:9243   */\n      0x00\n        /* \"#utility.yul\":9234:9240   */\n      dup3\n        /* \"#utility.yul\":9230:9244   */\n      add\n        /* \"#utility.yul\":9223:9281   */\n      mstore\n        /* \"#utility.yul\":9315:9325   */\n      0x746f20636c61696d000000000000000000000000000000000000000000000000\n        /* \"#utility.yul\":9310:9312   */\n      0x20\n        /* \"#utility.yul\":9302:9308   */\n      dup3\n        /* \"#utility.yul\":9298:9313   */\n      add\n        /* \"#utility.yul\":9291:9326   */\n      mstore\n        /* \"#utility.yul\":9106:9333   */\n      pop\n      jump\t// out\n        /* \"#utility.yul\":9339:9705   */\n    tag_104:\n        /* \"#utility.yul\":9481:9484   */\n      0x00\n        /* \"#utility.yul\":9502:9569   */\n      tag_190\n        /* \"#utility.yul\":9566:9568   */\n      0x28\n        /* \"#utility.yul\":9561:9564   */\n      dup4\n        /* \"#utility.yul\":9502:9569   */\n      tag_91\n      jump\t// in\n    tag_190:\n        /* \"#utility.yul\":9495:9569   */\n      swap2\n      pop\n        /* \"#utility.yul\":9578:9671   */\n      tag_191\n        /* \"#utility.yul\":9667:9670   */\n      dup3\n        /* \"#utility.yul\":9578:9671   */\n      tag_103\n      jump\t// in\n    tag_191:\n        /* \"#utility.yul\":9696:9698   */\n      0x40\n        /* \"#utility.yul\":9691:9694   */\n      dup3\n        /* \"#utility.yul\":9687:9699   */\n      add\n        /* \"#utility.yul\":9680:9699   */\n      swap1\n      pop\n        /* \"#utility.yul\":9339:9705   */\n      swap2\n      swap1\n      pop\n      jump\t// out\n        /* \"#utility.yul\":9711:10130   */\n    tag_67:\n        /* \"#utility.yul\":9877:9881   */\n      0x00\n        /* \"#utility.yul\":9915:9917   */\n      0x20\n        /* \"#utility.yul\":9904:9913   */\n      dup3\n        /* \"#utility.yul\":9900:9918   */\n      add\n        /* \"#utility.yul\":9892:9918   */\n      swap1\n      pop\n        /* \"#utility.yul\":9964:9973   */\n      dup2\n        /* \"#utility.yul\":9958:9962   */\n      dup2\n        /* \"#utility.yul\":9954:9974   */\n      sub\n        /* \"#utility.yul\":9950:9951   */\n      0x00\n        /* \"#utility.yul\":9939:9948   */\n      dup4\n        /* \"#utility.yul\":9935:9952   */\n      add\n        /* \"#utility.yul\":9928:9975   */\n      mstore\n        /* \"#utility.yul\":9992:10123   */\n      tag_193\n        /* \"#utility.yul\":10118:10122   */\n      dup2\n        /* \"#utility.yul\":9992:10123   */\n      tag_104\n      jump\t// in\n    tag_193:\n        /* \"#utility.yul\":9984:10123   */\n      swap1\n      pop\n        /* \"#utility.yul\":9711:10130   */\n      swap2\n      swap1\n      pop\n      jump\t// out\n        /* \"#utility.yul\":10136:10315   */\n    tag_105:\n        /* \"#utility.yul\":10276:10307   */\n      0x596f7520646f206e6f74206861766520616e7920616c6c6f77616e6365000000\n        /* \"#utility.yul\":10272:10273   */\n      0x00\n        /* \"#utility.yul\":10264:10270   */\n      dup3\n        /* \"#utility.yul\":10260:10274   */\n      add\n        /* \"#utility.yul\":10253:10308   */\n      mstore\n        /* \"#utility.yul\":10136:10315   */\n      pop\n      jump\t// out\n        /* \"#utility.yul\":10321:10687   */\n    tag_106:\n        /* \"#utility.yul\":10463:10466   */\n      0x00\n        /* \"#utility.yul\":10484:10551   */\n      tag_196\n        /* \"#utility.yul\":10548:10550   */\n      0x1d\n        /* \"#utility.yul\":10543:10546   */\n      dup4\n        /* \"#utility.yul\":10484:10551   */\n      tag_91\n      jump\t// in\n    tag_196:\n        /* \"#utility.yul\":10477:10551   */\n      swap2\n      pop\n        /* \"#utility.yul\":10560:10653   */\n      tag_197\n        /* \"#utility.yul\":10649:10652   */\n      dup3\n        /* \"#utility.yul\":10560:10653   */\n      tag_105\n      jump\t// in\n    tag_197:\n        /* \"#utility.yul\":10678:10680   */\n      0x20\n        /* \"#utility.yul\":10673:10676   */\n      dup3\n        /* \"#utility.yul\":10669:10681   */\n      add\n        /* \"#utility.yul\":10662:10681   */\n      swap1\n      pop\n        /* \"#utility.yul\":10321:10687   */\n      swap2\n      swap1\n      pop\n      jump\t// out\n        /* \"#utility.yul\":10693:11112   */\n    tag_70:\n        /* \"#utility.yul\":10859:10863   */\n      0x00\n        /* \"#utility.yul\":10897:10899   */\n      0x20\n        /* \"#utility.yul\":10886:10895   */\n      dup3\n        /* \"#utility.yul\":10882:10900   */\n      add\n        /* \"#utility.yul\":10874:10900   */\n      swap1\n      pop\n        /* \"#utility.yul\":10946:10955   */\n      dup2\n        /* \"#utility.yul\":10940:10944   */\n      dup2\n        /* \"#utility.yul\":10936:10956   */\n      sub\n        /* \"#utility.yul\":10932:10933   */\n      0x00\n        /* \"#utility.yul\":10921:10930   */\n      dup4\n        /* \"#utility.yul\":10917:10934   */\n      add\n        /* \"#utility.yul\":10910:10957   */\n      mstore\n        /* \"#utility.yul\":10974:11105   */\n      tag_199\n        /* \"#utility.yul\":11100:11104   */\n      dup2\n        /* \"#utility.yul\":10974:11105   */\n      tag_106\n      jump\t// in\n    tag_199:\n        /* \"#utility.yul\":10966:11105   */\n      swap1\n      pop\n        /* \"#utility.yul\":10693:11112   */\n      swap2\n      swap1\n      pop\n      jump\t// out\n        /* \"#utility.yul\":11118:11466   */\n    tag_73:\n        /* \"#utility.yul\":11158:11165   */\n      0x00\n        /* \"#utility.yul\":11181:11201   */\n      tag_201\n        /* \"#utility.yul\":11199:11200   */\n      dup3\n        /* \"#utility.yul\":11181:11201   */\n      tag_86\n      jump\t// in\n    tag_201:\n        /* \"#utility.yul\":11176:11201   */\n      swap2\n      pop\n        /* \"#utility.yul\":11215:11235   */\n      tag_202\n        /* \"#utility.yul\":11233:11234   */\n      dup4\n        /* \"#utility.yul\":11215:11235   */\n      tag_86\n      jump\t// in\n    tag_202:\n        /* \"#utility.yul\":11210:11235   */\n      swap3\n      pop\n        /* \"#utility.yul\":11403:11404   */\n      dup2\n        /* \"#utility.yul\":11335:11401   */\n      0xffffffffffffffffffffffffffffffffffffffffffffffffffffffffffffffff\n        /* \"#utility.yul\":11331:11405   */\n      div\n        /* \"#utility.yul\":11328:11329   */\n      dup4\n        /* \"#utility.yul\":11325:11406   */\n      gt\n        /* \"#utility.yul\":11320:11321   */\n      dup3\n        /* \"#utility.yul\":11313:11322   */\n      iszero\n        /* \"#utility.yul\":11306:11323   */\n      iszero\n        /* \"#utility.yul\":11302:11407   */\n      and\n        /* \"#utility.yul\":11299:11430   */\n      iszero\n      tag_203\n      jumpi\n        /* \"#utility.yul\":11410:11428   */\n      tag_204\n      tag_98\n      jump\t// in\n    tag_204:\n        /* \"#utility.yul\":11299:11430   */\n    tag_203:\n        /* \"#utility.yul\":11458:11459   */\n      dup3\n        /* \"#utility.yul\":11455:11456   */\n      dup3\n        /* \"#utility.yul\":11451:11460   */\n      mul\n        /* \"#utility.yul\":11440:11460   */\n      swap1\n      pop\n        /* \"#utility.yul\":11118:11466   */\n      swap3\n      swap2\n      pop\n      pop\n      jump\t// out\n        /* \"#utility.yul\":11472:11666   */\n    tag_75:\n        /* \"#utility.yul\":11512:11516   */\n      0x00\n        /* \"#utility.yul\":11532:11552   */\n      tag_206\n        /* \"#utility.yul\":11550:11551   */\n      dup3\n        /* \"#utility.yul\":11532:11552   */\n      tag_86\n      jump\t// in\n    tag_206:\n        /* \"#utility.yul\":11527:11552   */\n      swap2\n      pop\n        /* \"#utility.yul\":11566:11586   */\n      tag_207\n        /* \"#utility.yul\":11584:11585   */\n      dup4\n        /* \"#utility.yul\":11566:11586   */\n      tag_86\n      jump\t// in\n    tag_207:\n        /* \"#utility.yul\":11561:11586   */\n      swap3\n      pop\n        /* \"#utility.yul\":11610:11611   */\n      dup3\n        /* \"#utility.yul\":11607:11608   */\n      dup3\n        /* \"#utility.yul\":11603:11612   */\n      sub\n        /* \"#utility.yul\":11595:11612   */\n      swap1\n      pop\n        /* \"#utility.yul\":11634:11635   */\n      dup2\n        /* \"#utility.yul\":11628:11632   */\n      dup2\n        /* \"#utility.yul\":11625:11636   */\n      gt\n        /* \"#utility.yul\":11622:11659   */\n      iszero\n      tag_208\n      jumpi\n        /* \"#utility.yul\":11639:11657   */\n      tag_209\n      tag_98\n      jump\t// in\n    tag_209:\n        /* \"#utility.yul\":11622:11659   */\n    tag_208:\n        /* \"#utility.yul\":11472:11666   */\n      swap3\n      swap2\n      pop\n      pop\n      jump\t// out\n        /* \"#utility.yul\":11672:11844   */\n    tag_107:\n        /* \"#utility.yul\":11812:11836   */\n      0x54686520616d6f756e7420697320746f6f206869676800000000000000000000\n        /* \"#utility.yul\":11808:11809   */\n      0x00\n        /* \"#utility.yul\":11800:11806   */\n      dup3\n        /* \"#utility.yul\":11796:11810   */\n      add\n        /* \"#utility.yul\":11789:11837   */\n      mstore\n        /* \"#utility.yul\":11672:11844   */\n      pop\n      jump\t// out\n        /* \"#utility.yul\":11850:12216   */\n    tag_108:\n        /* \"#utility.yul\":11992:11995   */\n      0x00\n        /* \"#utility.yul\":12013:12080   */\n      tag_212\n        /* \"#utility.yul\":12077:12079   */\n      0x16\n        /* \"#utility.yul\":12072:12075   */\n      dup4\n        /* \"#utility.yul\":12013:12080   */\n      tag_91\n      jump\t// in\n    tag_212:\n        /* \"#utility.yul\":12006:12080   */\n      swap2\n      pop\n        /* \"#utility.yul\":12089:12182   */\n      tag_213\n        /* \"#utility.yul\":12178:12181   */\n      dup3\n        /* \"#utility.yul\":12089:12182   */\n      tag_107\n      jump\t// in\n    tag_213:\n        /* \"#utility.yul\":12207:12209   */\n      0x20\n        /* \"#utility.yul\":12202:12205   */\n      dup3\n        /* \"#utility.yul\":12198:12210   */\n      add\n        /* \"#utility.yul\":12191:12210   */\n      swap1\n      pop\n        /* \"#utility.yul\":11850:12216   */\n      swap2\n      swap1\n      pop\n      jump\t// out\n        /* \"#utility.yul\":12222:12641   */\n    tag_78:\n        /* \"#utility.yul\":12388:12392   */\n      0x00\n        /* \"#utility.yul\":12426:12428   */\n      0x20\n        /* \"#utility.yul\":12415:12424   */\n      dup3\n        /* \"#utility.yul\":12411:12429   */\n      add\n        /* \"#utility.yul\":12403:12429   */\n      swap1\n      pop\n        /* \"#utility.yul\":12475:12484   */\n      dup2\n        /* \"#utility.yul\":12469:12473   */\n      dup2\n        /* \"#utility.yul\":12465:12485   */\n      sub\n        /* \"#utility.yul\":12461:12462   */\n      0x00\n        /* \"#utility.yul\":12450:12459   */\n      dup4\n        /* \"#utility.yul\":12446:12463   */\n      add\n        /* \"#utility.yul\":12439:12486   */\n      mstore\n        /* \"#utility.yul\":12503:12634   */\n      tag_215\n        /* \"#utility.yul\":12629:12633   */\n      dup2\n        /* \"#utility.yul\":12503:12634   */\n      tag_108\n      jump\t// in\n    tag_215:\n        /* \"#utility.yul\":12495:12634   */\n      swap1\n      pop\n        /* \"#utility.yul\":12222:12641   */\n      swap2\n      swap1\n      pop\n      jump\t// out\n\n    auxdata: 0xa26469706673582212203d08ac39809bb69307576280fcb0b1039d028cbbeaca7904478e5566e2a44bb564736f6c63430008100033\n}\n",
				"bytecode": {
					"linkReferences": {},
					"object": "608060405234801561001057600080fd5b50336000806101000a81548173ffffffffffffffffffffffffffffffffffffffff021916908373ffffffffffffffffffffffffffffffffffffffff160217905550610db6806100606000396000f3fe6080604052600436106100705760003560e01c80633e7279a31161004e5780633e7279a3146100e857806341c613831461011157806345f3c4051461013c5780638da5cb5b1461016557610070565b8063015677391461007557806305737314146100b357806316a51305146100bd575b600080fd5b34801561008157600080fd5b5061009c600480360381019061009791906106ed565b610190565b6040516100aa929190610733565b60405180910390f35b6100bb6101b4565b005b3480156100c957600080fd5b506100d26101b6565b6040516100df919061075c565b60405180910390f35b3480156100f457600080fd5b5061010f600480360381019061010a91906107a3565b6101bc565b005b34801561011d57600080fd5b50610126610411565b604051610133919061075c565b60405180910390f35b34801561014857600080fd5b50610163600480360381019061015e91906107e3565b610417565b005b34801561017157600080fd5b5061017a610666565b604051610187919061081f565b60405180910390f35b60016020528060005260406000206000915090508060000154908060010154905082565b565b60025481565b60008054906101000a900473ffffffffffffffffffffffffffffffffffffffff1673ffffffffffffffffffffffffffffffffffffffff163373ffffffffffffffffffffffffffffffffffffffff161461024a576040517f08c379a0000000000000000000000000000000000000000000000000000000008152600401610241906108bd565b60405180910390fd5b60008054906101000a900473ffffffffffffffffffffffffffffffffffffffff1673ffffffffffffffffffffffffffffffffffffffff168273ffffffffffffffffffffffffffffffffffffffff16036102d8576040517f08c379a00000000000000000000000000000000000000000000000000000000081526004016102cf9061094f565b60405180910390fd5b6000600160008473ffffffffffffffffffffffffffffffffffffffff1673ffffffffffffffffffffffffffffffffffffffff168152602001908152602001600020600001541461035d576040517f08c379a0000000000000000000000000000000000000000000000000000000008152600401610354906109e1565b60405180910390fd5b60648160025461036d9190610a30565b106103ad576040517f08c379a00000000000000000000000000000000000000000000000000000000081526004016103a490610ad6565b60405180910390fd5b80600160008473ffffffffffffffffffffffffffffffffffffffff1673ffffffffffffffffffffffffffffffffffffffff1681526020019081526020016000206000018190555080600260008282546104069190610a30565b925050819055505050565b60035481565b60008054906101000a900473ffffffffffffffffffffffffffffffffffffffff1673ffffffffffffffffffffffffffffffffffffffff163373ffffffffffffffffffffffffffffffffffffffff16036104a5576040517f08c379a000000000000000000000000000000000000000000000000000000000815260040161049c90610b68565b60405180910390fd5b600047116104e8576040517f08c379a00000000000000000000000000000000000000000000000000000000081526004016104df90610bfa565b60405180910390fd5b6000600160003373ffffffffffffffffffffffffffffffffffffffff1673ffffffffffffffffffffffffffffffffffffffff168152602001908152602001600020600001541161056d576040517f08c379a000000000000000000000000000000000000000000000000000000000815260040161056490610c66565b60405180910390fd5b6000600160003373ffffffffffffffffffffffffffffffffffffffff1673ffffffffffffffffffffffffffffffffffffffff1681526020019081526020016000206000015490506000600160003373ffffffffffffffffffffffffffffffffffffffff1673ffffffffffffffffffffffffffffffffffffffff16815260200190815260200160002060010154600354476106079190610a30565b836106129190610c86565b61061c9190610ce0565b905080831115610661576040517f08c379a000000000000000000000000000000000000000000000000000000000815260040161065890610d60565b60405180910390fd5b505050565b60008054906101000a900473ffffffffffffffffffffffffffffffffffffffff1681565b600080fd5b600073ffffffffffffffffffffffffffffffffffffffff82169050919050565b60006106ba8261068f565b9050919050565b6106ca816106af565b81146106d557600080fd5b50565b6000813590506106e7816106c1565b92915050565b6000602082840312156107035761070261068a565b5b6000610711848285016106d8565b91505092915050565b6000819050919050565b61072d8161071a565b82525050565b60006040820190506107486000830185610724565b6107556020830184610724565b9392505050565b60006020820190506107716000830184610724565b92915050565b6107808161071a565b811461078b57600080fd5b50565b60008135905061079d81610777565b92915050565b600080604083850312156107ba576107b961068a565b5b60006107c8858286016106d8565b92505060206107d98582860161078e565b9150509250929050565b6000602082840312156107f9576107f861068a565b5b60006108078482850161078e565b91505092915050565b610819816106af565b82525050565b60006020820190506108346000830184610810565b92915050565b600082825260208201905092915050565b7f596f7520617265206e6f7420616c6c6f776564202d206f6e6c7920746865206f60008201527f776e65722063616e20646f20746869732e000000000000000000000000000000602082015250565b60006108a760318361083a565b91506108b28261084b565b604082019050919050565b600060208201905081810360008301526108d68161089a565b9050919050565b7f416e20616c6c6f77616e6365206973206e6f7420726571756972656420666f7260008201527f20746865206f776e657200000000000000000000000000000000000000000000602082015250565b6000610939602a8361083a565b9150610944826108dd565b604082019050919050565b600060208201905081810360008301526109688161092c565b9050919050565b7f546865206164647265737320616c72656164792068617320616e20616c6c6f7760008201527f616e636500000000000000000000000000000000000000000000000000000000602082015250565b60006109cb60248361083a565b91506109d68261096f565b604082019050919050565b600060208201905081810360008301526109fa816109be565b9050919050565b7f4e487b7100000000000000000000000000000000000000000000000000000000600052601160045260246000fd5b6000610a3b8261071a565b9150610a468361071a565b9250828201905080821115610a5e57610a5d610a01565b5b92915050565b7f5468697320776f756c64206f7665722d616c6c6f636174652074686520616c6c60008201527f6f77616e63657300000000000000000000000000000000000000000000000000602082015250565b6000610ac060278361083a565b9150610acb82610a64565b604082019050919050565b60006020820190508181036000830152610aef81610ab3565b9050919050565b7f546865206f776e65722073686f756c6420757365204f776e657257697468647260008201527f61772066756e6374696f6e000000000000000000000000000000000000000000602082015250565b6000610b52602b8361083a565b9150610b5d82610af6565b604082019050919050565b60006020820190508181036000830152610b8181610b45565b9050919050565b7f5468657265206973206e6f206d6f6e657920696e207468652077616c6c65742060008201527f746f20636c61696d000000000000000000000000000000000000000000000000602082015250565b6000610be460288361083a565b9150610bef82610b88565b604082019050919050565b60006020820190508181036000830152610c1381610bd7565b9050919050565b7f596f7520646f206e6f74206861766520616e7920616c6c6f77616e6365000000600082015250565b6000610c50601d8361083a565b9150610c5b82610c1a565b602082019050919050565b60006020820190508181036000830152610c7f81610c43565b9050919050565b6000610c918261071a565b9150610c9c8361071a565b9250817fffffffffffffffffffffffffffffffffffffffffffffffffffffffffffffffff0483118215151615610cd557610cd4610a01565b5b828202905092915050565b6000610ceb8261071a565b9150610cf68361071a565b9250828203905081811115610d0e57610d0d610a01565b5b92915050565b7f54686520616d6f756e7420697320746f6f206869676800000000000000000000600082015250565b6000610d4a60168361083a565b9150610d5582610d14565b602082019050919050565b60006020820190508181036000830152610d7981610d3d565b905091905056fea26469706673582212203d08ac39809bb69307576280fcb0b1039d028cbbeaca7904478e5566e2a44bb564736f6c63430008100033",
					"opcodes": "PUSH1 0x80 PUSH1 0x40 MSTORE CALLVALUE DUP1 ISZERO PUSH2 0x10 JUMPI PUSH1 0x0 DUP1 REVERT JUMPDEST POP CALLER PUSH1 0x0 DUP1 PUSH2 0x100 EXP DUP2 SLOAD DUP2 PUSH20 0xFFFFFFFFFFFFFFFFFFFFFFFFFFFFFFFFFFFFFFFF MUL NOT AND SWAP1 DUP4 PUSH20 0xFFFFFFFFFFFFFFFFFFFFFFFFFFFFFFFFFFFFFFFF AND MUL OR SWAP1 SSTORE POP PUSH2 0xDB6 DUP1 PUSH2 0x60 PUSH1 0x0 CODECOPY PUSH1 0x0 RETURN INVALID PUSH1 0x80 PUSH1 0x40 MSTORE PUSH1 0x4 CALLDATASIZE LT PUSH2 0x70 JUMPI PUSH1 0x0 CALLDATALOAD PUSH1 0xE0 SHR DUP1 PUSH4 0x3E7279A3 GT PUSH2 0x4E JUMPI DUP1 PUSH4 0x3E7279A3 EQ PUSH2 0xE8 JUMPI DUP1 PUSH4 0x41C61383 EQ PUSH2 0x111 JUMPI DUP1 PUSH4 0x45F3C405 EQ PUSH2 0x13C JUMPI DUP1 PUSH4 0x8DA5CB5B EQ PUSH2 0x165 JUMPI PUSH2 0x70 JUMP JUMPDEST DUP1 PUSH4 0x1567739 EQ PUSH2 0x75 JUMPI DUP1 PUSH4 0x5737314 EQ PUSH2 0xB3 JUMPI DUP1 PUSH4 0x16A51305 EQ PUSH2 0xBD JUMPI JUMPDEST PUSH1 0x0 DUP1 REVERT JUMPDEST CALLVALUE DUP1 ISZERO PUSH2 0x81 JUMPI PUSH1 0x0 DUP1 REVERT JUMPDEST POP PUSH2 0x9C PUSH1 0x4 DUP1 CALLDATASIZE SUB DUP2 ADD SWAP1 PUSH2 0x97 SWAP2 SWAP1 PUSH2 0x6ED JUMP JUMPDEST PUSH2 0x190 JUMP JUMPDEST PUSH1 0x40 MLOAD PUSH2 0xAA SWAP3 SWAP2 SWAP1 PUSH2 0x733 JUMP JUMPDEST PUSH1 0x40 MLOAD DUP1 SWAP2 SUB SWAP1 RETURN JUMPDEST PUSH2 0xBB PUSH2 0x1B4 JUMP JUMPDEST STOP JUMPDEST CALLVALUE DUP1 ISZERO PUSH2 0xC9 JUMPI PUSH1 0x0 DUP1 REVERT JUMPDEST POP PUSH2 0xD2 PUSH2 0x1B6 JUMP JUMPDEST PUSH1 0x40 MLOAD PUSH2 0xDF SWAP2 SWAP1 PUSH2 0x75C JUMP JUMPDEST PUSH1 0x40 MLOAD DUP1 SWAP2 SUB SWAP1 RETURN JUMPDEST CALLVALUE DUP1 ISZERO PUSH2 0xF4 JUMPI PUSH1 0x0 DUP1 REVERT JUMPDEST POP PUSH2 0x10F PUSH1 0x4 DUP1 CALLDATASIZE SUB DUP2 ADD SWAP1 PUSH2 0x10A SWAP2 SWAP1 PUSH2 0x7A3 JUMP JUMPDEST PUSH2 0x1BC JUMP JUMPDEST STOP JUMPDEST CALLVALUE DUP1 ISZERO PUSH2 0x11D JUMPI PUSH1 0x0 DUP1 REVERT JUMPDEST POP PUSH2 0x126 PUSH2 0x411 JUMP JUMPDEST PUSH1 0x40 MLOAD PUSH2 0x133 SWAP2 SWAP1 PUSH2 0x75C JUMP JUMPDEST PUSH1 0x40 MLOAD DUP1 SWAP2 SUB SWAP1 RETURN JUMPDEST CALLVALUE DUP1 ISZERO PUSH2 0x148 JUMPI PUSH1 0x0 DUP1 REVERT JUMPDEST POP PUSH2 0x163 PUSH1 0x4 DUP1 CALLDATASIZE SUB DUP2 ADD SWAP1 PUSH2 0x15E SWAP2 SWAP1 PUSH2 0x7E3 JUMP JUMPDEST PUSH2 0x417 JUMP JUMPDEST STOP JUMPDEST CALLVALUE DUP1 ISZERO PUSH2 0x171 JUMPI PUSH1 0x0 DUP1 REVERT JUMPDEST POP PUSH2 0x17A PUSH2 0x666 JUMP JUMPDEST PUSH1 0x40 MLOAD PUSH2 0x187 SWAP2 SWAP1 PUSH2 0x81F JUMP JUMPDEST PUSH1 0x40 MLOAD DUP1 SWAP2 SUB SWAP1 RETURN JUMPDEST PUSH1 0x1 PUSH1 0x20 MSTORE DUP1 PUSH1 0x0 MSTORE PUSH1 0x40 PUSH1 0x0 KECCAK256 PUSH1 0x0 SWAP2 POP SWAP1 POP DUP1 PUSH1 0x0 ADD SLOAD SWAP1 DUP1 PUSH1 0x1 ADD SLOAD SWAP1 POP DUP3 JUMP JUMPDEST JUMP JUMPDEST PUSH1 0x2 SLOAD DUP2 JUMP JUMPDEST PUSH1 0x0 DUP1 SLOAD SWAP1 PUSH2 0x100 EXP SWAP1 DIV PUSH20 0xFFFFFFFFFFFFFFFFFFFFFFFFFFFFFFFFFFFFFFFF AND PUSH20 0xFFFFFFFFFFFFFFFFFFFFFFFFFFFFFFFFFFFFFFFF AND CALLER PUSH20 0xFFFFFFFFFFFFFFFFFFFFFFFFFFFFFFFFFFFFFFFF AND EQ PUSH2 0x24A JUMPI PUSH1 0x40 MLOAD PUSH32 0x8C379A000000000000000000000000000000000000000000000000000000000 DUP2 MSTORE PUSH1 0x4 ADD PUSH2 0x241 SWAP1 PUSH2 0x8BD JUMP JUMPDEST PUSH1 0x40 MLOAD DUP1 SWAP2 SUB SWAP1 REVERT JUMPDEST PUSH1 0x0 DUP1 SLOAD SWAP1 PUSH2 0x100 EXP SWAP1 DIV PUSH20 0xFFFFFFFFFFFFFFFFFFFFFFFFFFFFFFFFFFFFFFFF AND PUSH20 0xFFFFFFFFFFFFFFFFFFFFFFFFFFFFFFFFFFFFFFFF AND DUP3 PUSH20 0xFFFFFFFFFFFFFFFFFFFFFFFFFFFFFFFFFFFFFFFF AND SUB PUSH2 0x2D8 JUMPI PUSH1 0x40 MLOAD PUSH32 0x8C379A000000000000000000000000000000000000000000000000000000000 DUP2 MSTORE PUSH1 0x4 ADD PUSH2 0x2CF SWAP1 PUSH2 0x94F JUMP JUMPDEST PUSH1 0x40 MLOAD DUP1 SWAP2 SUB SWAP1 REVERT JUMPDEST PUSH1 0x0 PUSH1 0x1 PUSH1 0x0 DUP5 PUSH20 0xFFFFFFFFFFFFFFFFFFFFFFFFFFFFFFFFFFFFFFFF AND PUSH20 0xFFFFFFFFFFFFFFFFFFFFFFFFFFFFFFFFFFFFFFFF AND DUP2 MSTORE PUSH1 0x20 ADD SWAP1 DUP2 MSTORE PUSH1 0x20 ADD PUSH1 0x0 KECCAK256 PUSH1 0x0 ADD SLOAD EQ PUSH2 0x35D JUMPI PUSH1 0x40 MLOAD PUSH32 0x8C379A000000000000000000000000000000000000000000000000000000000 DUP2 MSTORE PUSH1 0x4 ADD PUSH2 0x354 SWAP1 PUSH2 0x9E1 JUMP JUMPDEST PUSH1 0x40 MLOAD DUP1 SWAP2 SUB SWAP1 REVERT JUMPDEST PUSH1 0x64 DUP2 PUSH1 0x2 SLOAD PUSH2 0x36D SWAP2 SWAP1 PUSH2 0xA30 JUMP JUMPDEST LT PUSH2 0x3AD JUMPI PUSH1 0x40 MLOAD PUSH32 0x8C379A000000000000000000000000000000000000000000000000000000000 DUP2 MSTORE PUSH1 0x4 ADD PUSH2 0x3A4 SWAP1 PUSH2 0xAD6 JUMP JUMPDEST PUSH1 0x40 MLOAD DUP1 SWAP2 SUB SWAP1 REVERT JUMPDEST DUP1 PUSH1 0x1 PUSH1 0x0 DUP5 PUSH20 0xFFFFFFFFFFFFFFFFFFFFFFFFFFFFFFFFFFFFFFFF AND PUSH20 0xFFFFFFFFFFFFFFFFFFFFFFFFFFFFFFFFFFFFFFFF AND DUP2 MSTORE PUSH1 0x20 ADD SWAP1 DUP2 MSTORE PUSH1 0x20 ADD PUSH1 0x0 KECCAK256 PUSH1 0x0 ADD DUP2 SWAP1 SSTORE POP DUP1 PUSH1 0x2 PUSH1 0x0 DUP3 DUP3 SLOAD PUSH2 0x406 SWAP2 SWAP1 PUSH2 0xA30 JUMP JUMPDEST SWAP3 POP POP DUP2 SWAP1 SSTORE POP POP POP JUMP JUMPDEST PUSH1 0x3 SLOAD DUP2 JUMP JUMPDEST PUSH1 0x0 DUP1 SLOAD SWAP1 PUSH2 0x100 EXP SWAP1 DIV PUSH20 0xFFFFFFFFFFFFFFFFFFFFFFFFFFFFFFFFFFFFFFFF AND PUSH20 0xFFFFFFFFFFFFFFFFFFFFFFFFFFFFFFFFFFFFFFFF AND CALLER PUSH20 0xFFFFFFFFFFFFFFFFFFFFFFFFFFFFFFFFFFFFFFFF AND SUB PUSH2 0x4A5 JUMPI PUSH1 0x40 MLOAD PUSH32 0x8C379A000000000000000000000000000000000000000000000000000000000 DUP2 MSTORE PUSH1 0x4 ADD PUSH2 0x49C SWAP1 PUSH2 0xB68 JUMP JUMPDEST PUSH1 0x40 MLOAD DUP1 SWAP2 SUB SWAP1 REVERT JUMPDEST PUSH1 0x0 SELFBALANCE GT PUSH2 0x4E8 JUMPI PUSH1 0x40 MLOAD PUSH32 0x8C379A000000000000000000000000000000000000000000000000000000000 DUP2 MSTORE PUSH1 0x4 ADD PUSH2 0x4DF SWAP1 PUSH2 0xBFA JUMP JUMPDEST PUSH1 0x40 MLOAD DUP1 SWAP2 SUB SWAP1 REVERT JUMPDEST PUSH1 0x0 PUSH1 0x1 PUSH1 0x0 CALLER PUSH20 0xFFFFFFFFFFFFFFFFFFFFFFFFFFFFFFFFFFFFFFFF AND PUSH20 0xFFFFFFFFFFFFFFFFFFFFFFFFFFFFFFFFFFFFFFFF AND DUP2 MSTORE PUSH1 0x20 ADD SWAP1 DUP2 MSTORE PUSH1 0x20 ADD PUSH1 0x0 KECCAK256 PUSH1 0x0 ADD SLOAD GT PUSH2 0x56D JUMPI PUSH1 0x40 MLOAD PUSH32 0x8C379A000000000000000000000000000000000000000000000000000000000 DUP2 MSTORE PUSH1 0x4 ADD PUSH2 0x564 SWAP1 PUSH2 0xC66 JUMP JUMPDEST PUSH1 0x40 MLOAD DUP1 SWAP2 SUB SWAP1 REVERT JUMPDEST PUSH1 0x0 PUSH1 0x1 PUSH1 0x0 CALLER PUSH20 0xFFFFFFFFFFFFFFFFFFFFFFFFFFFFFFFFFFFFFFFF AND PUSH20 0xFFFFFFFFFFFFFFFFFFFFFFFFFFFFFFFFFFFFFFFF AND DUP2 MSTORE PUSH1 0x20 ADD SWAP1 DUP2 MSTORE PUSH1 0x20 ADD PUSH1 0x0 KECCAK256 PUSH1 0x0 ADD SLOAD SWAP1 POP PUSH1 0x0 PUSH1 0x1 PUSH1 0x0 CALLER PUSH20 0xFFFFFFFFFFFFFFFFFFFFFFFFFFFFFFFFFFFFFFFF AND PUSH20 0xFFFFFFFFFFFFFFFFFFFFFFFFFFFFFFFFFFFFFFFF AND DUP2 MSTORE PUSH1 0x20 ADD SWAP1 DUP2 MSTORE PUSH1 0x20 ADD PUSH1 0x0 KECCAK256 PUSH1 0x1 ADD SLOAD PUSH1 0x3 SLOAD SELFBALANCE PUSH2 0x607 SWAP2 SWAP1 PUSH2 0xA30 JUMP JUMPDEST DUP4 PUSH2 0x612 SWAP2 SWAP1 PUSH2 0xC86 JUMP JUMPDEST PUSH2 0x61C SWAP2 SWAP1 PUSH2 0xCE0 JUMP JUMPDEST SWAP1 POP DUP1 DUP4 GT ISZERO PUSH2 0x661 JUMPI PUSH1 0x40 MLOAD PUSH32 0x8C379A000000000000000000000000000000000000000000000000000000000 DUP2 MSTORE PUSH1 0x4 ADD PUSH2 0x658 SWAP1 PUSH2 0xD60 JUMP JUMPDEST PUSH1 0x40 MLOAD DUP1 SWAP2 SUB SWAP1 REVERT JUMPDEST POP POP POP JUMP JUMPDEST PUSH1 0x0 DUP1 SLOAD SWAP1 PUSH2 0x100 EXP SWAP1 DIV PUSH20 0xFFFFFFFFFFFFFFFFFFFFFFFFFFFFFFFFFFFFFFFF AND DUP2 JUMP JUMPDEST PUSH1 0x0 DUP1 REVERT JUMPDEST PUSH1 0x0 PUSH20 0xFFFFFFFFFFFFFFFFFFFFFFFFFFFFFFFFFFFFFFFF DUP3 AND SWAP1 POP SWAP2 SWAP1 POP JUMP JUMPDEST PUSH1 0x0 PUSH2 0x6BA DUP3 PUSH2 0x68F JUMP JUMPDEST SWAP1 POP SWAP2 SWAP1 POP JUMP JUMPDEST PUSH2 0x6CA DUP2 PUSH2 0x6AF JUMP JUMPDEST DUP2 EQ PUSH2 0x6D5 JUMPI PUSH1 0x0 DUP1 REVERT JUMPDEST POP JUMP JUMPDEST PUSH1 0x0 DUP2 CALLDATALOAD SWAP1 POP PUSH2 0x6E7 DUP2 PUSH2 0x6C1 JUMP JUMPDEST SWAP3 SWAP2 POP POP JUMP JUMPDEST PUSH1 0x0 PUSH1 0x20 DUP3 DUP5 SUB SLT ISZERO PUSH2 0x703 JUMPI PUSH2 0x702 PUSH2 0x68A JUMP JUMPDEST JUMPDEST PUSH1 0x0 PUSH2 0x711 DUP5 DUP3 DUP6 ADD PUSH2 0x6D8 JUMP JUMPDEST SWAP2 POP POP SWAP3 SWAP2 POP POP JUMP JUMPDEST PUSH1 0x0 DUP2 SWAP1 POP SWAP2 SWAP1 POP JUMP JUMPDEST PUSH2 0x72D DUP2 PUSH2 0x71A JUMP JUMPDEST DUP3 MSTORE POP POP JUMP JUMPDEST PUSH1 0x0 PUSH1 0x40 DUP3 ADD SWAP1 POP PUSH2 0x748 PUSH1 0x0 DUP4 ADD DUP6 PUSH2 0x724 JUMP JUMPDEST PUSH2 0x755 PUSH1 0x20 DUP4 ADD DUP5 PUSH2 0x724 JUMP JUMPDEST SWAP4 SWAP3 POP POP POP JUMP JUMPDEST PUSH1 0x0 PUSH1 0x20 DUP3 ADD SWAP1 POP PUSH2 0x771 PUSH1 0x0 DUP4 ADD DUP5 PUSH2 0x724 JUMP JUMPDEST SWAP3 SWAP2 POP POP JUMP JUMPDEST PUSH2 0x780 DUP2 PUSH2 0x71A JUMP JUMPDEST DUP2 EQ PUSH2 0x78B JUMPI PUSH1 0x0 DUP1 REVERT JUMPDEST POP JUMP JUMPDEST PUSH1 0x0 DUP2 CALLDATALOAD SWAP1 POP PUSH2 0x79D DUP2 PUSH2 0x777 JUMP JUMPDEST SWAP3 SWAP2 POP POP JUMP JUMPDEST PUSH1 0x0 DUP1 PUSH1 0x40 DUP4 DUP6 SUB SLT ISZERO PUSH2 0x7BA JUMPI PUSH2 0x7B9 PUSH2 0x68A JUMP JUMPDEST JUMPDEST PUSH1 0x0 PUSH2 0x7C8 DUP6 DUP3 DUP7 ADD PUSH2 0x6D8 JUMP JUMPDEST SWAP3 POP POP PUSH1 0x20 PUSH2 0x7D9 DUP6 DUP3 DUP7 ADD PUSH2 0x78E JUMP JUMPDEST SWAP2 POP POP SWAP3 POP SWAP3 SWAP1 POP JUMP JUMPDEST PUSH1 0x0 PUSH1 0x20 DUP3 DUP5 SUB SLT ISZERO PUSH2 0x7F9 JUMPI PUSH2 0x7F8 PUSH2 0x68A JUMP JUMPDEST JUMPDEST PUSH1 0x0 PUSH2 0x807 DUP5 DUP3 DUP6 ADD PUSH2 0x78E JUMP JUMPDEST SWAP2 POP POP SWAP3 SWAP2 POP POP JUMP JUMPDEST PUSH2 0x819 DUP2 PUSH2 0x6AF JUMP JUMPDEST DUP3 MSTORE POP POP JUMP JUMPDEST PUSH1 0x0 PUSH1 0x20 DUP3 ADD SWAP1 POP PUSH2 0x834 PUSH1 0x0 DUP4 ADD DUP5 PUSH2 0x810 JUMP JUMPDEST SWAP3 SWAP2 POP POP JUMP JUMPDEST PUSH1 0x0 DUP3 DUP3 MSTORE PUSH1 0x20 DUP3 ADD SWAP1 POP SWAP3 SWAP2 POP POP JUMP JUMPDEST PUSH32 0x596F7520617265206E6F7420616C6C6F776564202D206F6E6C7920746865206F PUSH1 0x0 DUP3 ADD MSTORE PUSH32 0x776E65722063616E20646F20746869732E000000000000000000000000000000 PUSH1 0x20 DUP3 ADD MSTORE POP JUMP JUMPDEST PUSH1 0x0 PUSH2 0x8A7 PUSH1 0x31 DUP4 PUSH2 0x83A JUMP JUMPDEST SWAP2 POP PUSH2 0x8B2 DUP3 PUSH2 0x84B JUMP JUMPDEST PUSH1 0x40 DUP3 ADD SWAP1 POP SWAP2 SWAP1 POP JUMP JUMPDEST PUSH1 0x0 PUSH1 0x20 DUP3 ADD SWAP1 POP DUP2 DUP2 SUB PUSH1 0x0 DUP4 ADD MSTORE PUSH2 0x8D6 DUP2 PUSH2 0x89A JUMP JUMPDEST SWAP1 POP SWAP2 SWAP1 POP JUMP JUMPDEST PUSH32 0x416E20616C6C6F77616E6365206973206E6F7420726571756972656420666F72 PUSH1 0x0 DUP3 ADD MSTORE PUSH32 0x20746865206F776E657200000000000000000000000000000000000000000000 PUSH1 0x20 DUP3 ADD MSTORE POP JUMP JUMPDEST PUSH1 0x0 PUSH2 0x939 PUSH1 0x2A DUP4 PUSH2 0x83A JUMP JUMPDEST SWAP2 POP PUSH2 0x944 DUP3 PUSH2 0x8DD JUMP JUMPDEST PUSH1 0x40 DUP3 ADD SWAP1 POP SWAP2 SWAP1 POP JUMP JUMPDEST PUSH1 0x0 PUSH1 0x20 DUP3 ADD SWAP1 POP DUP2 DUP2 SUB PUSH1 0x0 DUP4 ADD MSTORE PUSH2 0x968 DUP2 PUSH2 0x92C JUMP JUMPDEST SWAP1 POP SWAP2 SWAP1 POP JUMP JUMPDEST PUSH32 0x546865206164647265737320616C72656164792068617320616E20616C6C6F77 PUSH1 0x0 DUP3 ADD MSTORE PUSH32 0x616E636500000000000000000000000000000000000000000000000000000000 PUSH1 0x20 DUP3 ADD MSTORE POP JUMP JUMPDEST PUSH1 0x0 PUSH2 0x9CB PUSH1 0x24 DUP4 PUSH2 0x83A JUMP JUMPDEST SWAP2 POP PUSH2 0x9D6 DUP3 PUSH2 0x96F JUMP JUMPDEST PUSH1 0x40 DUP3 ADD SWAP1 POP SWAP2 SWAP1 POP JUMP JUMPDEST PUSH1 0x0 PUSH1 0x20 DUP3 ADD SWAP1 POP DUP2 DUP2 SUB PUSH1 0x0 DUP4 ADD MSTORE PUSH2 0x9FA DUP2 PUSH2 0x9BE JUMP JUMPDEST SWAP1 POP SWAP2 SWAP1 POP JUMP JUMPDEST PUSH32 0x4E487B7100000000000000000000000000000000000000000000000000000000 PUSH1 0x0 MSTORE PUSH1 0x11 PUSH1 0x4 MSTORE PUSH1 0x24 PUSH1 0x0 REVERT JUMPDEST PUSH1 0x0 PUSH2 0xA3B DUP3 PUSH2 0x71A JUMP JUMPDEST SWAP2 POP PUSH2 0xA46 DUP4 PUSH2 0x71A JUMP JUMPDEST SWAP3 POP DUP3 DUP3 ADD SWAP1 POP DUP1 DUP3 GT ISZERO PUSH2 0xA5E JUMPI PUSH2 0xA5D PUSH2 0xA01 JUMP JUMPDEST JUMPDEST SWAP3 SWAP2 POP POP JUMP JUMPDEST PUSH32 0x5468697320776F756C64206F7665722D616C6C6F636174652074686520616C6C PUSH1 0x0 DUP3 ADD MSTORE PUSH32 0x6F77616E63657300000000000000000000000000000000000000000000000000 PUSH1 0x20 DUP3 ADD MSTORE POP JUMP JUMPDEST PUSH1 0x0 PUSH2 0xAC0 PUSH1 0x27 DUP4 PUSH2 0x83A JUMP JUMPDEST SWAP2 POP PUSH2 0xACB DUP3 PUSH2 0xA64 JUMP JUMPDEST PUSH1 0x40 DUP3 ADD SWAP1 POP SWAP2 SWAP1 POP JUMP JUMPDEST PUSH1 0x0 PUSH1 0x20 DUP3 ADD SWAP1 POP DUP2 DUP2 SUB PUSH1 0x0 DUP4 ADD MSTORE PUSH2 0xAEF DUP2 PUSH2 0xAB3 JUMP JUMPDEST SWAP1 POP SWAP2 SWAP1 POP JUMP JUMPDEST PUSH32 0x546865206F776E65722073686F756C6420757365204F776E6572576974686472 PUSH1 0x0 DUP3 ADD MSTORE PUSH32 0x61772066756E6374696F6E000000000000000000000000000000000000000000 PUSH1 0x20 DUP3 ADD MSTORE POP JUMP JUMPDEST PUSH1 0x0 PUSH2 0xB52 PUSH1 0x2B DUP4 PUSH2 0x83A JUMP JUMPDEST SWAP2 POP PUSH2 0xB5D DUP3 PUSH2 0xAF6 JUMP JUMPDEST PUSH1 0x40 DUP3 ADD SWAP1 POP SWAP2 SWAP1 POP JUMP JUMPDEST PUSH1 0x0 PUSH1 0x20 DUP3 ADD SWAP1 POP DUP2 DUP2 SUB PUSH1 0x0 DUP4 ADD MSTORE PUSH2 0xB81 DUP2 PUSH2 0xB45 JUMP JUMPDEST SWAP1 POP SWAP2 SWAP1 POP JUMP JUMPDEST PUSH32 0x5468657265206973206E6F206D6F6E657920696E207468652077616C6C657420 PUSH1 0x0 DUP3 ADD MSTORE PUSH32 0x746F20636C61696D000000000000000000000000000000000000000000000000 PUSH1 0x20 DUP3 ADD MSTORE POP JUMP JUMPDEST PUSH1 0x0 PUSH2 0xBE4 PUSH1 0x28 DUP4 PUSH2 0x83A JUMP JUMPDEST SWAP2 POP PUSH2 0xBEF DUP3 PUSH2 0xB88 JUMP JUMPDEST PUSH1 0x40 DUP3 ADD SWAP1 POP SWAP2 SWAP1 POP JUMP JUMPDEST PUSH1 0x0 PUSH1 0x20 DUP3 ADD SWAP1 POP DUP2 DUP2 SUB PUSH1 0x0 DUP4 ADD MSTORE PUSH2 0xC13 DUP2 PUSH2 0xBD7 JUMP JUMPDEST SWAP1 POP SWAP2 SWAP1 POP JUMP JUMPDEST PUSH32 0x596F7520646F206E6F74206861766520616E7920616C6C6F77616E6365000000 PUSH1 0x0 DUP3 ADD MSTORE POP JUMP JUMPDEST PUSH1 0x0 PUSH2 0xC50 PUSH1 0x1D DUP4 PUSH2 0x83A JUMP JUMPDEST SWAP2 POP PUSH2 0xC5B DUP3 PUSH2 0xC1A JUMP JUMPDEST PUSH1 0x20 DUP3 ADD SWAP1 POP SWAP2 SWAP1 POP JUMP JUMPDEST PUSH1 0x0 PUSH1 0x20 DUP3 ADD SWAP1 POP DUP2 DUP2 SUB PUSH1 0x0 DUP4 ADD MSTORE PUSH2 0xC7F DUP2 PUSH2 0xC43 JUMP JUMPDEST SWAP1 POP SWAP2 SWAP1 POP JUMP JUMPDEST PUSH1 0x0 PUSH2 0xC91 DUP3 PUSH2 0x71A JUMP JUMPDEST SWAP2 POP PUSH2 0xC9C DUP4 PUSH2 0x71A JUMP JUMPDEST SWAP3 POP DUP2 PUSH32 0xFFFFFFFFFFFFFFFFFFFFFFFFFFFFFFFFFFFFFFFFFFFFFFFFFFFFFFFFFFFFFFFF DIV DUP4 GT DUP3 ISZERO ISZERO AND ISZERO PUSH2 0xCD5 JUMPI PUSH2 0xCD4 PUSH2 0xA01 JUMP JUMPDEST JUMPDEST DUP3 DUP3 MUL SWAP1 POP SWAP3 SWAP2 POP POP JUMP JUMPDEST PUSH1 0x0 PUSH2 0xCEB DUP3 PUSH2 0x71A JUMP JUMPDEST SWAP2 POP PUSH2 0xCF6 DUP4 PUSH2 0x71A JUMP JUMPDEST SWAP3 POP DUP3 DUP3 SUB SWAP1 POP DUP2 DUP2 GT ISZERO PUSH2 0xD0E JUMPI PUSH2 0xD0D PUSH2 0xA01 JUMP JUMPDEST JUMPDEST SWAP3 SWAP2 POP POP JUMP JUMPDEST PUSH32 0x54686520616D6F756E7420697320746F6F206869676800000000000000000000 PUSH1 0x0 DUP3 ADD MSTORE POP JUMP JUMPDEST PUSH1 0x0 PUSH2 0xD4A PUSH1 0x16 DUP4 PUSH2 0x83A JUMP JUMPDEST SWAP2 POP PUSH2 0xD55 DUP3 PUSH2 0xD14 JUMP JUMPDEST PUSH1 0x20 DUP3 ADD SWAP1 POP SWAP2 SWAP1 POP JUMP JUMPDEST PUSH1 0x0 PUSH1 0x20 DUP3 ADD SWAP1 POP DUP2 DUP2 SUB PUSH1 0x0 DUP4 ADD MSTORE PUSH2 0xD79 DUP2 PUSH2 0xD3D JUMP JUMPDEST SWAP1 POP SWAP2 SWAP1 POP JUMP INVALID LOG2 PUSH5 0x6970667358 0x22 SLT KECCAK256 RETURNDATASIZE ADDMOD 0xAC CODECOPY DUP1 SWAP12 0xB6 SWAP4 SMOD JUMPI PUSH3 0x80FCB0 0xB1 SUB SWAP14 MUL DUP13 0xBB 0xEA 0xCA PUSH26 0x4478E5566E2A44BB564736F6C63430008100033000000000000 "
				},
				"gasEstimates": {
					"creation": {
						"codeDepositCost": "702000",
						"executionCost": "25000",
						"totalCost": "727000"
					},
					"external": {
						"ClaimMoney(uint256)": "infinite",
						"SendMoney()": "143",
						"SetAllowance(address,uint256)": "infinite",
						"beneficiaries(address)": "infinite",
						"owner()": "2577",
						"totalAllowances()": "2474",
						"totalClaims()": "2451"
					}
				},
				"methodIdentifiers": {
					"ClaimMoney(uint256)": "45f3c405",
					"SendMoney()": "05737314",
					"SetAllowance(address,uint256)": "3e7279a3",
					"beneficiaries(address)": "01567739",
					"owner()": "8da5cb5b",
					"totalAllowances()": "16a51305",
					"totalClaims()": "41c61383"
				}
			},
			"storageLayout": {
				"storage": [
					{
						"astId": 8,
						"contract": "MyProjectSharedWallet.sol:SharedWallet",
						"label": "owner",
						"offset": 0,
						"slot": "0",
						"type": "t_address"
					},
					{
						"astId": 13,
						"contract": "MyProjectSharedWallet.sol:SharedWallet",
						"label": "beneficiaries",
						"offset": 0,
						"slot": "1",
						"type": "t_mapping(t_address,t_struct(BeneficiaryDetails)6_storage)"
					},
					{
						"astId": 15,
						"contract": "MyProjectSharedWallet.sol:SharedWallet",
						"label": "totalAllowances",
						"offset": 0,
						"slot": "2",
						"type": "t_uint256"
					},
					{
						"astId": 17,
						"contract": "MyProjectSharedWallet.sol:SharedWallet",
						"label": "totalClaims",
						"offset": 0,
						"slot": "3",
						"type": "t_uint256"
					}
				],
				"types": {
					"t_address": {
						"encoding": "inplace",
						"label": "address",
						"numberOfBytes": "20"
					},
					"t_mapping(t_address,t_struct(BeneficiaryDetails)6_storage)": {
						"encoding": "mapping",
						"key": "t_address",
						"label": "mapping(address => struct SharedWallet.BeneficiaryDetails)",
						"numberOfBytes": "32",
						"value": "t_struct(BeneficiaryDetails)6_storage"
					},
					"t_struct(BeneficiaryDetails)6_storage": {
						"encoding": "inplace",
						"label": "struct SharedWallet.BeneficiaryDetails",
						"members": [
							{
								"astId": 3,
								"contract": "MyProjectSharedWallet.sol:SharedWallet",
								"label": "allowance",
								"offset": 0,
								"slot": "0",
								"type": "t_uint256"
							},
							{
								"astId": 5,
								"contract": "MyProjectSharedWallet.sol:SharedWallet",
								"label": "claimsMade",
								"offset": 0,
								"slot": "1",
								"type": "t_uint256"
							}
						],
						"numberOfBytes": "64"
					},
					"t_uint256": {
						"encoding": "inplace",
						"label": "uint256",
						"numberOfBytes": "32"
					}
				}
			},
			"userdoc": {
				"kind": "user",
				"methods": {},
				"version": 1
			}
		}
	}
}