{
	"MyProjectSharedWallet.sol": {
		"SharedWallet": {
			"abi": [
				{
					"inputs": [],
					"stateMutability": "nonpayable",
					"type": "constructor"
				},
				{
					"inputs": [
						{
							"internalType": "address payable",
							"name": "_to",
							"type": "address"
						},
						{
							"internalType": "uint256",
							"name": "_amount",
							"type": "uint256"
						}
					],
					"name": "ClaimMoney",
					"outputs": [],
					"stateMutability": "nonpayable",
					"type": "function"
				},
				{
					"inputs": [],
					"name": "SendMoney",
					"outputs": [],
					"stateMutability": "payable",
					"type": "function"
				},
				{
					"inputs": [
						{
							"internalType": "address",
							"name": "_beneficiary",
							"type": "address"
						},
						{
							"internalType": "uint256",
							"name": "_allowancePercentage",
							"type": "uint256"
						}
					],
					"name": "SetAllowance",
					"outputs": [],
					"stateMutability": "nonpayable",
					"type": "function"
				},
				{
					"inputs": [
						{
							"internalType": "address",
							"name": "",
							"type": "address"
						}
					],
					"name": "beneficiaries",
					"outputs": [
						{
							"internalType": "uint256",
							"name": "allowance",
							"type": "uint256"
						},
						{
							"internalType": "uint256",
							"name": "claimsMade",
							"type": "uint256"
						}
					],
					"stateMutability": "view",
					"type": "function"
				},
				{
					"inputs": [],
					"name": "contractBalance",
					"outputs": [
						{
							"internalType": "uint256",
							"name": "",
							"type": "uint256"
						}
					],
					"stateMutability": "view",
					"type": "function"
				},
				{
					"inputs": [],
					"name": "owner",
					"outputs": [
						{
							"internalType": "address",
							"name": "",
							"type": "address"
						}
					],
					"stateMutability": "view",
					"type": "function"
				},
				{
					"inputs": [
						{
							"internalType": "address payable",
							"name": "_to",
							"type": "address"
						},
						{
							"internalType": "uint256",
							"name": "_amount",
							"type": "uint256"
						}
					],
					"name": "ownerWithdraw",
					"outputs": [],
					"stateMutability": "nonpayable",
					"type": "function"
				},
				{
					"inputs": [],
					"name": "totalAllowances",
					"outputs": [
						{
							"internalType": "uint256",
							"name": "",
							"type": "uint256"
						}
					],
					"stateMutability": "view",
					"type": "function"
				},
				{
					"inputs": [],
					"name": "totalClaims",
					"outputs": [
						{
							"internalType": "uint256",
							"name": "",
							"type": "uint256"
						}
					],
					"stateMutability": "view",
					"type": "function"
				}
			],
			"devdoc": {
				"kind": "dev",
				"methods": {},
				"version": 1
			},
			"evm": {
				"assembly": "    /* \"MyProjectSharedWallet.sol\":156:2829  contract SharedWallet {... */\n  mstore(0x40, 0x80)\n    /* \"MyProjectSharedWallet.sol\":765:814  constructor() {... */\n  callvalue\n  dup1\n  iszero\n  tag_1\n  jumpi\n  0x00\n  dup1\n  revert\ntag_1:\n  pop\n    /* \"MyProjectSharedWallet.sol\":797:807  msg.sender */\n  caller\n    /* \"MyProjectSharedWallet.sol\":789:794  owner */\n  0x00\n  dup1\n    /* \"MyProjectSharedWallet.sol\":789:807  owner = msg.sender */\n  0x0100\n  exp\n  dup2\n  sload\n  dup2\n  0xffffffffffffffffffffffffffffffffffffffff\n  mul\n  not\n  and\n  swap1\n  dup4\n  0xffffffffffffffffffffffffffffffffffffffff\n  and\n  mul\n  or\n  swap1\n  sstore\n  pop\n    /* \"MyProjectSharedWallet.sol\":156:2829  contract SharedWallet {... */\n  dataSize(sub_0)\n  dup1\n  dataOffset(sub_0)\n  0x00\n  codecopy\n  0x00\n  return\nstop\n\nsub_0: assembly {\n        /* \"MyProjectSharedWallet.sol\":156:2829  contract SharedWallet {... */\n      mstore(0x40, 0x80)\n      jumpi(tag_1, lt(calldatasize, 0x04))\n      shr(0xe0, calldataload(0x00))\n      dup1\n      0x3e7279a3\n      gt\n      tag_11\n      jumpi\n      dup1\n      0x3e7279a3\n      eq\n      tag_6\n      jumpi\n      dup1\n      0x41c61383\n      eq\n      tag_7\n      jumpi\n      dup1\n      0x8b7afe2e\n      eq\n      tag_8\n      jumpi\n      dup1\n      0x8da5cb5b\n      eq\n      tag_9\n      jumpi\n      dup1\n      0xd9c88e14\n      eq\n      tag_10\n      jumpi\n      jump(tag_1)\n    tag_11:\n      dup1\n      0x01567739\n      eq\n      tag_2\n      jumpi\n      dup1\n      0x05737314\n      eq\n      tag_3\n      jumpi\n      dup1\n      0x16a51305\n      eq\n      tag_4\n      jumpi\n      dup1\n      0x2d70db2f\n      eq\n      tag_5\n      jumpi\n    tag_1:\n      0x00\n      dup1\n      revert\n        /* \"MyProjectSharedWallet.sol\":449:508  mapping(address => BeneficiaryDetails) public beneficiaries */\n    tag_2:\n      callvalue\n      dup1\n      iszero\n      tag_12\n      jumpi\n      0x00\n      dup1\n      revert\n    tag_12:\n      pop\n      tag_13\n      0x04\n      dup1\n      calldatasize\n      sub\n      dup2\n      add\n      swap1\n      tag_14\n      swap2\n      swap1\n      tag_15\n      jump\t// in\n    tag_14:\n      tag_16\n      jump\t// in\n    tag_13:\n      mload(0x40)\n      tag_17\n      swap3\n      swap2\n      swap1\n      tag_18\n      jump\t// in\n    tag_17:\n      mload(0x40)\n      dup1\n      swap2\n      sub\n      swap1\n      return\n        /* \"MyProjectSharedWallet.sol\":1001:1093  function SendMoney() public payable {... */\n    tag_3:\n      tag_19\n      tag_20\n      jump\t// in\n    tag_19:\n      stop\n        /* \"MyProjectSharedWallet.sol\":555:582  uint public totalAllowances */\n    tag_4:\n      callvalue\n      dup1\n      iszero\n      tag_21\n      jumpi\n      0x00\n      dup1\n      revert\n    tag_21:\n      pop\n      tag_22\n      tag_23\n      jump\t// in\n    tag_22:\n      mload(0x40)\n      tag_24\n      swap2\n      swap1\n      tag_25\n      jump\t// in\n    tag_24:\n      mload(0x40)\n      dup1\n      swap2\n      sub\n      swap1\n      return\n        /* \"MyProjectSharedWallet.sol\":1191:1955  function ClaimMoney(address payable _to, uint _amount) public {... */\n    tag_5:\n      callvalue\n      dup1\n      iszero\n      tag_26\n      jumpi\n      0x00\n      dup1\n      revert\n    tag_26:\n      pop\n      tag_27\n      0x04\n      dup1\n      calldatasize\n      sub\n      dup2\n      add\n      swap1\n      tag_28\n      swap2\n      swap1\n      tag_29\n      jump\t// in\n    tag_28:\n      tag_30\n      jump\t// in\n    tag_27:\n      stop\n        /* \"MyProjectSharedWallet.sol\":2005:2512  function SetAllowance(address _beneficiary, uint _allowancePercentage) public onlyOwner {... */\n    tag_6:\n      callvalue\n      dup1\n      iszero\n      tag_31\n      jumpi\n      0x00\n      dup1\n      revert\n    tag_31:\n      pop\n      tag_32\n      0x04\n      dup1\n      calldatasize\n      sub\n      dup2\n      add\n      swap1\n      tag_33\n      swap2\n      swap1\n      tag_34\n      jump\t// in\n    tag_33:\n      tag_35\n      jump\t// in\n    tag_32:\n      stop\n        /* \"MyProjectSharedWallet.sol\":627:650  uint public totalClaims */\n    tag_7:\n      callvalue\n      dup1\n      iszero\n      tag_36\n      jumpi\n      0x00\n      dup1\n      revert\n    tag_36:\n      pop\n      tag_37\n      tag_38\n      jump\t// in\n    tag_37:\n      mload(0x40)\n      tag_39\n      swap2\n      swap1\n      tag_25\n      jump\t// in\n    tag_39:\n      mload(0x40)\n      dup1\n      swap2\n      sub\n      swap1\n      return\n        /* \"MyProjectSharedWallet.sol\":687:714  uint public contractBalance */\n    tag_8:\n      callvalue\n      dup1\n      iszero\n      tag_40\n      jumpi\n      0x00\n      dup1\n      revert\n    tag_40:\n      pop\n      tag_41\n      tag_42\n      jump\t// in\n    tag_41:\n      mload(0x40)\n      tag_43\n      swap2\n      swap1\n      tag_25\n      jump\t// in\n    tag_43:\n      mload(0x40)\n      dup1\n      swap2\n      sub\n      swap1\n      return\n        /* \"MyProjectSharedWallet.sol\":374:394  address public owner */\n    tag_9:\n      callvalue\n      dup1\n      iszero\n      tag_44\n      jumpi\n      0x00\n      dup1\n      revert\n    tag_44:\n      pop\n      tag_45\n      tag_46\n      jump\t// in\n    tag_45:\n      mload(0x40)\n      tag_47\n      swap2\n      swap1\n      tag_48\n      jump\t// in\n    tag_47:\n      mload(0x40)\n      dup1\n      swap2\n      sub\n      swap1\n      return\n        /* \"MyProjectSharedWallet.sol\":2563:2827  function ownerWithdraw(address payable _to, uint _amount) public onlyOwner {... */\n    tag_10:\n      callvalue\n      dup1\n      iszero\n      tag_49\n      jumpi\n      0x00\n      dup1\n      revert\n    tag_49:\n      pop\n      tag_50\n      0x04\n      dup1\n      calldatasize\n      sub\n      dup2\n      add\n      swap1\n      tag_51\n      swap2\n      swap1\n      tag_29\n      jump\t// in\n    tag_51:\n      tag_52\n      jump\t// in\n    tag_50:\n      stop\n        /* \"MyProjectSharedWallet.sol\":449:508  mapping(address => BeneficiaryDetails) public beneficiaries */\n    tag_16:\n      mstore(0x20, 0x01)\n      dup1\n      0x00\n      mstore\n      keccak256(0x00, 0x40)\n      0x00\n      swap2\n      pop\n      swap1\n      pop\n      dup1\n      0x00\n      add\n      sload\n      swap1\n      dup1\n      0x01\n      add\n      sload\n      swap1\n      pop\n      dup3\n      jump\t// out\n        /* \"MyProjectSharedWallet.sol\":1001:1093  function SendMoney() public payable {... */\n    tag_20:\n        /* \"MyProjectSharedWallet.sol\":1065:1086  address(this).balance */\n      selfbalance\n        /* \"MyProjectSharedWallet.sol\":1047:1062  contractBalance */\n      0x04\n        /* \"MyProjectSharedWallet.sol\":1047:1086  contractBalance = address(this).balance */\n      dup2\n      swap1\n      sstore\n      pop\n        /* \"MyProjectSharedWallet.sol\":1001:1093  function SendMoney() public payable {... */\n      jump\t// out\n        /* \"MyProjectSharedWallet.sol\":555:582  uint public totalAllowances */\n    tag_23:\n      sload(0x02)\n      dup2\n      jump\t// out\n        /* \"MyProjectSharedWallet.sol\":1191:1955  function ClaimMoney(address payable _to, uint _amount) public {... */\n    tag_30:\n        /* \"MyProjectSharedWallet.sol\":1285:1290  owner */\n      0x00\n      dup1\n      sload\n      swap1\n      0x0100\n      exp\n      swap1\n      div\n      0xffffffffffffffffffffffffffffffffffffffff\n      and\n        /* \"MyProjectSharedWallet.sol\":1271:1290  msg.sender != owner */\n      0xffffffffffffffffffffffffffffffffffffffff\n      and\n        /* \"MyProjectSharedWallet.sol\":1271:1281  msg.sender */\n      caller\n        /* \"MyProjectSharedWallet.sol\":1271:1290  msg.sender != owner */\n      0xffffffffffffffffffffffffffffffffffffffff\n      and\n      sub\n        /* \"MyProjectSharedWallet.sol\":1263:1338  require(msg.sender != owner, \"The owner should use ownerWithdraw function\") */\n      tag_55\n      jumpi\n      mload(0x40)\n      0x08c379a000000000000000000000000000000000000000000000000000000000\n      dup2\n      mstore\n      0x04\n      add\n      tag_56\n      swap1\n      tag_57\n      jump\t// in\n    tag_56:\n      mload(0x40)\n      dup1\n      swap2\n      sub\n      swap1\n      revert\n    tag_55:\n        /* \"MyProjectSharedWallet.sol\":1380:1381  0 */\n      0x00\n        /* \"MyProjectSharedWallet.sol\":1356:1377  address(this).balance */\n      selfbalance\n        /* \"MyProjectSharedWallet.sol\":1356:1381  address(this).balance > 0 */\n      gt\n        /* \"MyProjectSharedWallet.sol\":1348:1426  require(address(this).balance > 0, \"There is no money in the wallet to claim\") */\n      tag_58\n      jumpi\n      mload(0x40)\n      0x08c379a000000000000000000000000000000000000000000000000000000000\n      dup2\n      mstore\n      0x04\n      add\n      tag_59\n      swap1\n      tag_60\n      jump\t// in\n    tag_59:\n      mload(0x40)\n      dup1\n      swap2\n      sub\n      swap1\n      revert\n    tag_58:\n        /* \"MyProjectSharedWallet.sol\":1482:1483  0 */\n      0x00\n        /* \"MyProjectSharedWallet.sol\":1444:1457  beneficiaries */\n      0x01\n        /* \"MyProjectSharedWallet.sol\":1444:1469  beneficiaries[msg.sender] */\n      0x00\n        /* \"MyProjectSharedWallet.sol\":1458:1468  msg.sender */\n      caller\n        /* \"MyProjectSharedWallet.sol\":1444:1469  beneficiaries[msg.sender] */\n      0xffffffffffffffffffffffffffffffffffffffff\n      and\n      0xffffffffffffffffffffffffffffffffffffffff\n      and\n      dup2\n      mstore\n      0x20\n      add\n      swap1\n      dup2\n      mstore\n      0x20\n      add\n      0x00\n      keccak256\n        /* \"MyProjectSharedWallet.sol\":1444:1479  beneficiaries[msg.sender].allowance */\n      0x00\n      add\n      sload\n        /* \"MyProjectSharedWallet.sol\":1444:1483  beneficiaries[msg.sender].allowance > 0 */\n      gt\n        /* \"MyProjectSharedWallet.sol\":1436:1516  require(beneficiaries[msg.sender].allowance > 0,\"You do not have any allowance\") */\n      tag_61\n      jumpi\n      mload(0x40)\n      0x08c379a000000000000000000000000000000000000000000000000000000000\n      dup2\n      mstore\n      0x04\n      add\n      tag_62\n      swap1\n      tag_63\n      jump\t// in\n    tag_62:\n      mload(0x40)\n      dup1\n      swap2\n      sub\n      swap1\n      revert\n    tag_61:\n        /* \"MyProjectSharedWallet.sol\":1526:1549  uint allowanceRemaining */\n      0x00\n        /* \"MyProjectSharedWallet.sol\":1659:1672  beneficiaries */\n      0x01\n        /* \"MyProjectSharedWallet.sol\":1659:1684  beneficiaries[msg.sender] */\n      0x00\n        /* \"MyProjectSharedWallet.sol\":1673:1683  msg.sender */\n      caller\n        /* \"MyProjectSharedWallet.sol\":1659:1684  beneficiaries[msg.sender] */\n      0xffffffffffffffffffffffffffffffffffffffff\n      and\n      0xffffffffffffffffffffffffffffffffffffffff\n      and\n      dup2\n      mstore\n      0x20\n      add\n      swap1\n      dup2\n      mstore\n      0x20\n      add\n      0x00\n      keccak256\n        /* \"MyProjectSharedWallet.sol\":1659:1695  beneficiaries[msg.sender].claimsMade */\n      0x01\n      add\n      sload\n        /* \"MyProjectSharedWallet.sol\":1641:1644  100 */\n      0x64\n        /* \"MyProjectSharedWallet.sol\":1615:1626  totalClaims */\n      sload(0x03)\n        /* \"MyProjectSharedWallet.sol\":1591:1612  address(this).balance */\n      selfbalance\n        /* \"MyProjectSharedWallet.sol\":1591:1626  address(this).balance + totalClaims */\n      tag_64\n      swap2\n      swap1\n      tag_65\n      jump\t// in\n    tag_64:\n        /* \"MyProjectSharedWallet.sol\":1552:1565  beneficiaries */\n      0x01\n        /* \"MyProjectSharedWallet.sol\":1552:1577  beneficiaries[msg.sender] */\n      0x00\n        /* \"MyProjectSharedWallet.sol\":1566:1576  msg.sender */\n      caller\n        /* \"MyProjectSharedWallet.sol\":1552:1577  beneficiaries[msg.sender] */\n      0xffffffffffffffffffffffffffffffffffffffff\n      and\n      0xffffffffffffffffffffffffffffffffffffffff\n      and\n      dup2\n      mstore\n      0x20\n      add\n      swap1\n      dup2\n      mstore\n      0x20\n      add\n      0x00\n      keccak256\n        /* \"MyProjectSharedWallet.sol\":1552:1587  beneficiaries[msg.sender].allowance */\n      0x00\n      add\n      sload\n        /* \"MyProjectSharedWallet.sol\":1552:1627  beneficiaries[msg.sender].allowance * (address(this).balance + totalClaims) */\n      tag_66\n      swap2\n      swap1\n      tag_67\n      jump\t// in\n    tag_66:\n        /* \"MyProjectSharedWallet.sol\":1552:1644  beneficiaries[msg.sender].allowance * (address(this).balance + totalClaims)... */\n      tag_68\n      swap2\n      swap1\n      tag_69\n      jump\t// in\n    tag_68:\n        /* \"MyProjectSharedWallet.sol\":1552:1695  beneficiaries[msg.sender].allowance * (address(this).balance + totalClaims)... */\n      tag_70\n      swap2\n      swap1\n      tag_71\n      jump\t// in\n    tag_70:\n        /* \"MyProjectSharedWallet.sol\":1526:1695  uint allowanceRemaining = beneficiaries[msg.sender].allowance * (address(this).balance + totalClaims)... */\n      swap1\n      pop\n        /* \"MyProjectSharedWallet.sol\":1724:1742  allowanceRemaining */\n      dup1\n        /* \"MyProjectSharedWallet.sol\":1713:1720  _amount */\n      dup3\n        /* \"MyProjectSharedWallet.sol\":1713:1742  _amount <= allowanceRemaining */\n      gt\n      iszero\n        /* \"MyProjectSharedWallet.sol\":1705:1769  require(_amount <= allowanceRemaining, \"The amount is too high\") */\n      tag_72\n      jumpi\n      mload(0x40)\n      0x08c379a000000000000000000000000000000000000000000000000000000000\n      dup2\n      mstore\n      0x04\n      add\n      tag_73\n      swap1\n      tag_74\n      jump\t// in\n    tag_73:\n      mload(0x40)\n      dup1\n      swap2\n      sub\n      swap1\n      revert\n    tag_72:\n        /* \"MyProjectSharedWallet.sol\":1819:1826  _amount */\n      dup2\n        /* \"MyProjectSharedWallet.sol\":1779:1792  beneficiaries */\n      0x01\n        /* \"MyProjectSharedWallet.sol\":1779:1804  beneficiaries[msg.sender] */\n      0x00\n        /* \"MyProjectSharedWallet.sol\":1793:1803  msg.sender */\n      caller\n        /* \"MyProjectSharedWallet.sol\":1779:1804  beneficiaries[msg.sender] */\n      0xffffffffffffffffffffffffffffffffffffffff\n      and\n      0xffffffffffffffffffffffffffffffffffffffff\n      and\n      dup2\n      mstore\n      0x20\n      add\n      swap1\n      dup2\n      mstore\n      0x20\n      add\n      0x00\n      keccak256\n        /* \"MyProjectSharedWallet.sol\":1779:1815  beneficiaries[msg.sender].claimsMade */\n      0x01\n      add\n      0x00\n        /* \"MyProjectSharedWallet.sol\":1779:1826  beneficiaries[msg.sender].claimsMade += _amount */\n      dup3\n      dup3\n      sload\n      tag_75\n      swap2\n      swap1\n      tag_65\n      jump\t// in\n    tag_75:\n      swap3\n      pop\n      pop\n      dup2\n      swap1\n      sstore\n      pop\n        /* \"MyProjectSharedWallet.sol\":1851:1858  _amount */\n      dup2\n        /* \"MyProjectSharedWallet.sol\":1836:1847  totalClaims */\n      0x03\n      0x00\n        /* \"MyProjectSharedWallet.sol\":1836:1858  totalClaims += _amount */\n      dup3\n      dup3\n      sload\n      tag_76\n      swap2\n      swap1\n      tag_65\n      jump\t// in\n    tag_76:\n      swap3\n      pop\n      pop\n      dup2\n      swap1\n      sstore\n      pop\n        /* \"MyProjectSharedWallet.sol\":1910:1917  _amount */\n      dup2\n        /* \"MyProjectSharedWallet.sol\":1886:1907  address(this).balance */\n      selfbalance\n        /* \"MyProjectSharedWallet.sol\":1886:1917  address(this).balance - _amount */\n      tag_77\n      swap2\n      swap1\n      tag_71\n      jump\t// in\n    tag_77:\n        /* \"MyProjectSharedWallet.sol\":1868:1883  contractBalance */\n      0x04\n        /* \"MyProjectSharedWallet.sol\":1868:1917  contractBalance = address(this).balance - _amount */\n      dup2\n      swap1\n      sstore\n      pop\n        /* \"MyProjectSharedWallet.sol\":1927:1930  _to */\n      dup3\n        /* \"MyProjectSharedWallet.sol\":1927:1939  _to.transfer */\n      0xffffffffffffffffffffffffffffffffffffffff\n      and\n        /* \"MyProjectSharedWallet.sol\":1927:1948  _to.transfer(_amount) */\n      0x08fc\n        /* \"MyProjectSharedWallet.sol\":1940:1947  _amount */\n      dup4\n        /* \"MyProjectSharedWallet.sol\":1927:1948  _to.transfer(_amount) */\n      swap1\n      dup2\n      iszero\n      mul\n      swap1\n      mload(0x40)\n      0x00\n      mload(0x40)\n      dup1\n      dup4\n      sub\n      dup2\n      dup6\n      dup9\n      dup9\n      call\n      swap4\n      pop\n      pop\n      pop\n      pop\n      iszero\n      dup1\n      iszero\n      tag_79\n      jumpi\n      returndatasize\n      0x00\n      dup1\n      returndatacopy\n      revert(0x00, returndatasize)\n    tag_79:\n      pop\n        /* \"MyProjectSharedWallet.sol\":1253:1955  {... */\n      pop\n        /* \"MyProjectSharedWallet.sol\":1191:1955  function ClaimMoney(address payable _to, uint _amount) public {... */\n      pop\n      pop\n      jump\t// out\n        /* \"MyProjectSharedWallet.sol\":2005:2512  function SetAllowance(address _beneficiary, uint _allowancePercentage) public onlyOwner {... */\n    tag_35:\n        /* \"MyProjectSharedWallet.sol\":873:878  owner */\n      0x00\n      dup1\n      sload\n      swap1\n      0x0100\n      exp\n      swap1\n      div\n      0xffffffffffffffffffffffffffffffffffffffff\n      and\n        /* \"MyProjectSharedWallet.sol\":859:878  msg.sender == owner */\n      0xffffffffffffffffffffffffffffffffffffffff\n      and\n        /* \"MyProjectSharedWallet.sol\":859:869  msg.sender */\n      caller\n        /* \"MyProjectSharedWallet.sol\":859:878  msg.sender == owner */\n      0xffffffffffffffffffffffffffffffffffffffff\n      and\n      eq\n        /* \"MyProjectSharedWallet.sol\":851:932  require(msg.sender == owner, \"You are not allowed - only the owner can do this.\") */\n      tag_81\n      jumpi\n      mload(0x40)\n      0x08c379a000000000000000000000000000000000000000000000000000000000\n      dup2\n      mstore\n      0x04\n      add\n      tag_82\n      swap1\n      tag_83\n      jump\t// in\n    tag_82:\n      mload(0x40)\n      dup1\n      swap2\n      sub\n      swap1\n      revert\n    tag_81:\n        /* \"MyProjectSharedWallet.sol\":2127:2132  owner */\n      0x00\n      dup1\n      sload\n      swap1\n      0x0100\n      exp\n      swap1\n      div\n      0xffffffffffffffffffffffffffffffffffffffff\n      and\n        /* \"MyProjectSharedWallet.sol\":2111:2132  _beneficiary != owner */\n      0xffffffffffffffffffffffffffffffffffffffff\n      and\n        /* \"MyProjectSharedWallet.sol\":2111:2123  _beneficiary */\n      dup3\n        /* \"MyProjectSharedWallet.sol\":2111:2132  _beneficiary != owner */\n      0xffffffffffffffffffffffffffffffffffffffff\n      and\n      sub\n        /* \"MyProjectSharedWallet.sol\":2103:2179  require(_beneficiary != owner, \"An allowance is not required for the owner\") */\n      tag_85\n      jumpi\n      mload(0x40)\n      0x08c379a000000000000000000000000000000000000000000000000000000000\n      dup2\n      mstore\n      0x04\n      add\n      tag_86\n      swap1\n      tag_87\n      jump\t// in\n    tag_86:\n      mload(0x40)\n      dup1\n      swap2\n      sub\n      swap1\n      revert\n    tag_85:\n        /* \"MyProjectSharedWallet.sol\":2238:2239  0 */\n      0x00\n        /* \"MyProjectSharedWallet.sol\":2197:2210  beneficiaries */\n      0x01\n        /* \"MyProjectSharedWallet.sol\":2197:2224  beneficiaries[_beneficiary] */\n      0x00\n        /* \"MyProjectSharedWallet.sol\":2211:2223  _beneficiary */\n      dup5\n        /* \"MyProjectSharedWallet.sol\":2197:2224  beneficiaries[_beneficiary] */\n      0xffffffffffffffffffffffffffffffffffffffff\n      and\n      0xffffffffffffffffffffffffffffffffffffffff\n      and\n      dup2\n      mstore\n      0x20\n      add\n      swap1\n      dup2\n      mstore\n      0x20\n      add\n      0x00\n      keccak256\n        /* \"MyProjectSharedWallet.sol\":2197:2234  beneficiaries[_beneficiary].allowance */\n      0x00\n      add\n      sload\n        /* \"MyProjectSharedWallet.sol\":2197:2239  beneficiaries[_beneficiary].allowance == 0 */\n      eq\n        /* \"MyProjectSharedWallet.sol\":2189:2280  require(beneficiaries[_beneficiary].allowance == 0, \"The address already has an allowance\") */\n      tag_88\n      jumpi\n      mload(0x40)\n      0x08c379a000000000000000000000000000000000000000000000000000000000\n      dup2\n      mstore\n      0x04\n      add\n      tag_89\n      swap1\n      tag_90\n      jump\t// in\n    tag_89:\n      mload(0x40)\n      dup1\n      swap2\n      sub\n      swap1\n      revert\n    tag_88:\n        /* \"MyProjectSharedWallet.sol\":2340:2343  100 */\n      0x64\n        /* \"MyProjectSharedWallet.sol\":2316:2336  _allowancePercentage */\n      dup2\n        /* \"MyProjectSharedWallet.sol\":2298:2313  totalAllowances */\n      sload(0x02)\n        /* \"MyProjectSharedWallet.sol\":2298:2336  totalAllowances + _allowancePercentage */\n      tag_91\n      swap2\n      swap1\n      tag_65\n      jump\t// in\n    tag_91:\n        /* \"MyProjectSharedWallet.sol\":2298:2343  totalAllowances + _allowancePercentage <= 100 */\n      gt\n      iszero\n        /* \"MyProjectSharedWallet.sol\":2290:2386  require(totalAllowances + _allowancePercentage <= 100,\"This would over-allocate the allowances\") */\n      tag_92\n      jumpi\n      mload(0x40)\n      0x08c379a000000000000000000000000000000000000000000000000000000000\n      dup2\n      mstore\n      0x04\n      add\n      tag_93\n      swap1\n      tag_94\n      jump\t// in\n    tag_93:\n      mload(0x40)\n      dup1\n      swap2\n      sub\n      swap1\n      revert\n    tag_92:\n        /* \"MyProjectSharedWallet.sol\":2436:2456  _allowancePercentage */\n      dup1\n        /* \"MyProjectSharedWallet.sol\":2396:2409  beneficiaries */\n      0x01\n        /* \"MyProjectSharedWallet.sol\":2396:2423  beneficiaries[_beneficiary] */\n      0x00\n        /* \"MyProjectSharedWallet.sol\":2410:2422  _beneficiary */\n      dup5\n        /* \"MyProjectSharedWallet.sol\":2396:2423  beneficiaries[_beneficiary] */\n      0xffffffffffffffffffffffffffffffffffffffff\n      and\n      0xffffffffffffffffffffffffffffffffffffffff\n      and\n      dup2\n      mstore\n      0x20\n      add\n      swap1\n      dup2\n      mstore\n      0x20\n      add\n      0x00\n      keccak256\n        /* \"MyProjectSharedWallet.sol\":2396:2433  beneficiaries[_beneficiary].allowance */\n      0x00\n      add\n        /* \"MyProjectSharedWallet.sol\":2396:2456  beneficiaries[_beneficiary].allowance = _allowancePercentage */\n      dup2\n      swap1\n      sstore\n      pop\n        /* \"MyProjectSharedWallet.sol\":2485:2505  _allowancePercentage */\n      dup1\n        /* \"MyProjectSharedWallet.sol\":2466:2481  totalAllowances */\n      0x02\n      0x00\n        /* \"MyProjectSharedWallet.sol\":2466:2505  totalAllowances += _allowancePercentage */\n      dup3\n      dup3\n      sload\n      tag_95\n      swap2\n      swap1\n      tag_65\n      jump\t// in\n    tag_95:\n      swap3\n      pop\n      pop\n      dup2\n      swap1\n      sstore\n      pop\n        /* \"MyProjectSharedWallet.sol\":2005:2512  function SetAllowance(address _beneficiary, uint _allowancePercentage) public onlyOwner {... */\n      pop\n      pop\n      jump\t// out\n        /* \"MyProjectSharedWallet.sol\":627:650  uint public totalClaims */\n    tag_38:\n      sload(0x03)\n      dup2\n      jump\t// out\n        /* \"MyProjectSharedWallet.sol\":687:714  uint public contractBalance */\n    tag_42:\n      sload(0x04)\n      dup2\n      jump\t// out\n        /* \"MyProjectSharedWallet.sol\":374:394  address public owner */\n    tag_46:\n      0x00\n      dup1\n      sload\n      swap1\n      0x0100\n      exp\n      swap1\n      div\n      0xffffffffffffffffffffffffffffffffffffffff\n      and\n      dup2\n      jump\t// out\n        /* \"MyProjectSharedWallet.sol\":2563:2827  function ownerWithdraw(address payable _to, uint _amount) public onlyOwner {... */\n    tag_52:\n        /* \"MyProjectSharedWallet.sol\":873:878  owner */\n      0x00\n      dup1\n      sload\n      swap1\n      0x0100\n      exp\n      swap1\n      div\n      0xffffffffffffffffffffffffffffffffffffffff\n      and\n        /* \"MyProjectSharedWallet.sol\":859:878  msg.sender == owner */\n      0xffffffffffffffffffffffffffffffffffffffff\n      and\n        /* \"MyProjectSharedWallet.sol\":859:869  msg.sender */\n      caller\n        /* \"MyProjectSharedWallet.sol\":859:878  msg.sender == owner */\n      0xffffffffffffffffffffffffffffffffffffffff\n      and\n      eq\n        /* \"MyProjectSharedWallet.sol\":851:932  require(msg.sender == owner, \"You are not allowed - only the owner can do this.\") */\n      tag_97\n      jumpi\n      mload(0x40)\n      0x08c379a000000000000000000000000000000000000000000000000000000000\n      dup2\n      mstore\n      0x04\n      add\n      tag_98\n      swap1\n      tag_83\n      jump\t// in\n    tag_98:\n      mload(0x40)\n      dup1\n      swap2\n      sub\n      swap1\n      revert\n    tag_97:\n        /* \"MyProjectSharedWallet.sol\":2667:2688  address(this).balance */\n      selfbalance\n        /* \"MyProjectSharedWallet.sol\":2656:2663  _amount */\n      dup2\n        /* \"MyProjectSharedWallet.sol\":2656:2688  _amount <= address(this).balance */\n      gt\n      iszero\n        /* \"MyProjectSharedWallet.sol\":2648:2730  require(_amount <= address(this).balance,\"Amount is larger than contract balance\") */\n      tag_100\n      jumpi\n      mload(0x40)\n      0x08c379a000000000000000000000000000000000000000000000000000000000\n      dup2\n      mstore\n      0x04\n      add\n      tag_101\n      swap1\n      tag_102\n      jump\t// in\n    tag_101:\n      mload(0x40)\n      dup1\n      swap2\n      sub\n      swap1\n      revert\n    tag_100:\n        /* \"MyProjectSharedWallet.sol\":2782:2789  _amount */\n      dup1\n        /* \"MyProjectSharedWallet.sol\":2758:2779  address(this).balance */\n      selfbalance\n        /* \"MyProjectSharedWallet.sol\":2758:2789  address(this).balance - _amount */\n      tag_103\n      swap2\n      swap1\n      tag_71\n      jump\t// in\n    tag_103:\n        /* \"MyProjectSharedWallet.sol\":2740:2755  contractBalance */\n      0x04\n        /* \"MyProjectSharedWallet.sol\":2740:2789  contractBalance = address(this).balance - _amount */\n      dup2\n      swap1\n      sstore\n      pop\n        /* \"MyProjectSharedWallet.sol\":2799:2802  _to */\n      dup2\n        /* \"MyProjectSharedWallet.sol\":2799:2811  _to.transfer */\n      0xffffffffffffffffffffffffffffffffffffffff\n      and\n        /* \"MyProjectSharedWallet.sol\":2799:2820  _to.transfer(_amount) */\n      0x08fc\n        /* \"MyProjectSharedWallet.sol\":2812:2819  _amount */\n      dup3\n        /* \"MyProjectSharedWallet.sol\":2799:2820  _to.transfer(_amount) */\n      swap1\n      dup2\n      iszero\n      mul\n      swap1\n      mload(0x40)\n      0x00\n      mload(0x40)\n      dup1\n      dup4\n      sub\n      dup2\n      dup6\n      dup9\n      dup9\n      call\n      swap4\n      pop\n      pop\n      pop\n      pop\n      iszero\n      dup1\n      iszero\n      tag_105\n      jumpi\n      returndatasize\n      0x00\n      dup1\n      returndatacopy\n      revert(0x00, returndatasize)\n    tag_105:\n      pop\n        /* \"MyProjectSharedWallet.sol\":2563:2827  function ownerWithdraw(address payable _to, uint _amount) public onlyOwner {... */\n      pop\n      pop\n      jump\t// out\n        /* \"#utility.yul\":88:205   */\n    tag_107:\n        /* \"#utility.yul\":197:198   */\n      0x00\n        /* \"#utility.yul\":194:195   */\n      dup1\n        /* \"#utility.yul\":187:199   */\n      revert\n        /* \"#utility.yul\":334:460   */\n    tag_109:\n        /* \"#utility.yul\":371:378   */\n      0x00\n        /* \"#utility.yul\":411:453   */\n      0xffffffffffffffffffffffffffffffffffffffff\n        /* \"#utility.yul\":404:409   */\n      dup3\n        /* \"#utility.yul\":400:454   */\n      and\n        /* \"#utility.yul\":389:454   */\n      swap1\n      pop\n        /* \"#utility.yul\":334:460   */\n      swap2\n      swap1\n      pop\n      jump\t// out\n        /* \"#utility.yul\":466:562   */\n    tag_110:\n        /* \"#utility.yul\":503:510   */\n      0x00\n        /* \"#utility.yul\":532:556   */\n      tag_148\n        /* \"#utility.yul\":550:555   */\n      dup3\n        /* \"#utility.yul\":532:556   */\n      tag_109\n      jump\t// in\n    tag_148:\n        /* \"#utility.yul\":521:556   */\n      swap1\n      pop\n        /* \"#utility.yul\":466:562   */\n      swap2\n      swap1\n      pop\n      jump\t// out\n        /* \"#utility.yul\":568:690   */\n    tag_111:\n        /* \"#utility.yul\":641:665   */\n      tag_150\n        /* \"#utility.yul\":659:664   */\n      dup2\n        /* \"#utility.yul\":641:665   */\n      tag_110\n      jump\t// in\n    tag_150:\n        /* \"#utility.yul\":634:639   */\n      dup2\n        /* \"#utility.yul\":631:666   */\n      eq\n        /* \"#utility.yul\":621:684   */\n      tag_151\n      jumpi\n        /* \"#utility.yul\":680:681   */\n      0x00\n        /* \"#utility.yul\":677:678   */\n      dup1\n        /* \"#utility.yul\":670:682   */\n      revert\n        /* \"#utility.yul\":621:684   */\n    tag_151:\n        /* \"#utility.yul\":568:690   */\n      pop\n      jump\t// out\n        /* \"#utility.yul\":696:835   */\n    tag_112:\n        /* \"#utility.yul\":742:747   */\n      0x00\n        /* \"#utility.yul\":780:786   */\n      dup2\n        /* \"#utility.yul\":767:787   */\n      calldataload\n        /* \"#utility.yul\":758:787   */\n      swap1\n      pop\n        /* \"#utility.yul\":796:829   */\n      tag_153\n        /* \"#utility.yul\":823:828   */\n      dup2\n        /* \"#utility.yul\":796:829   */\n      tag_111\n      jump\t// in\n    tag_153:\n        /* \"#utility.yul\":696:835   */\n      swap3\n      swap2\n      pop\n      pop\n      jump\t// out\n        /* \"#utility.yul\":841:1170   */\n    tag_15:\n        /* \"#utility.yul\":900:906   */\n      0x00\n        /* \"#utility.yul\":949:951   */\n      0x20\n        /* \"#utility.yul\":937:946   */\n      dup3\n        /* \"#utility.yul\":928:935   */\n      dup5\n        /* \"#utility.yul\":924:947   */\n      sub\n        /* \"#utility.yul\":920:952   */\n      slt\n        /* \"#utility.yul\":917:1036   */\n      iszero\n      tag_155\n      jumpi\n        /* \"#utility.yul\":955:1034   */\n      tag_156\n      tag_107\n      jump\t// in\n    tag_156:\n        /* \"#utility.yul\":917:1036   */\n    tag_155:\n        /* \"#utility.yul\":1075:1076   */\n      0x00\n        /* \"#utility.yul\":1100:1153   */\n      tag_157\n        /* \"#utility.yul\":1145:1152   */\n      dup5\n        /* \"#utility.yul\":1136:1142   */\n      dup3\n        /* \"#utility.yul\":1125:1134   */\n      dup6\n        /* \"#utility.yul\":1121:1143   */\n      add\n        /* \"#utility.yul\":1100:1153   */\n      tag_112\n      jump\t// in\n    tag_157:\n        /* \"#utility.yul\":1090:1153   */\n      swap2\n      pop\n        /* \"#utility.yul\":1046:1163   */\n      pop\n        /* \"#utility.yul\":841:1170   */\n      swap3\n      swap2\n      pop\n      pop\n      jump\t// out\n        /* \"#utility.yul\":1176:1253   */\n    tag_113:\n        /* \"#utility.yul\":1213:1220   */\n      0x00\n        /* \"#utility.yul\":1242:1247   */\n      dup2\n        /* \"#utility.yul\":1231:1247   */\n      swap1\n      pop\n        /* \"#utility.yul\":1176:1253   */\n      swap2\n      swap1\n      pop\n      jump\t// out\n        /* \"#utility.yul\":1259:1377   */\n    tag_114:\n        /* \"#utility.yul\":1346:1370   */\n      tag_160\n        /* \"#utility.yul\":1364:1369   */\n      dup2\n        /* \"#utility.yul\":1346:1370   */\n      tag_113\n      jump\t// in\n    tag_160:\n        /* \"#utility.yul\":1341:1344   */\n      dup3\n        /* \"#utility.yul\":1334:1371   */\n      mstore\n        /* \"#utility.yul\":1259:1377   */\n      pop\n      pop\n      jump\t// out\n        /* \"#utility.yul\":1383:1715   */\n    tag_18:\n        /* \"#utility.yul\":1504:1508   */\n      0x00\n        /* \"#utility.yul\":1542:1544   */\n      0x40\n        /* \"#utility.yul\":1531:1540   */\n      dup3\n        /* \"#utility.yul\":1527:1545   */\n      add\n        /* \"#utility.yul\":1519:1545   */\n      swap1\n      pop\n        /* \"#utility.yul\":1555:1626   */\n      tag_162\n        /* \"#utility.yul\":1623:1624   */\n      0x00\n        /* \"#utility.yul\":1612:1621   */\n      dup4\n        /* \"#utility.yul\":1608:1625   */\n      add\n        /* \"#utility.yul\":1599:1605   */\n      dup6\n        /* \"#utility.yul\":1555:1626   */\n      tag_114\n      jump\t// in\n    tag_162:\n        /* \"#utility.yul\":1636:1708   */\n      tag_163\n        /* \"#utility.yul\":1704:1706   */\n      0x20\n        /* \"#utility.yul\":1693:1702   */\n      dup4\n        /* \"#utility.yul\":1689:1707   */\n      add\n        /* \"#utility.yul\":1680:1686   */\n      dup5\n        /* \"#utility.yul\":1636:1708   */\n      tag_114\n      jump\t// in\n    tag_163:\n        /* \"#utility.yul\":1383:1715   */\n      swap4\n      swap3\n      pop\n      pop\n      pop\n      jump\t// out\n        /* \"#utility.yul\":1721:1943   */\n    tag_25:\n        /* \"#utility.yul\":1814:1818   */\n      0x00\n        /* \"#utility.yul\":1852:1854   */\n      0x20\n        /* \"#utility.yul\":1841:1850   */\n      dup3\n        /* \"#utility.yul\":1837:1855   */\n      add\n        /* \"#utility.yul\":1829:1855   */\n      swap1\n      pop\n        /* \"#utility.yul\":1865:1936   */\n      tag_165\n        /* \"#utility.yul\":1933:1934   */\n      0x00\n        /* \"#utility.yul\":1922:1931   */\n      dup4\n        /* \"#utility.yul\":1918:1935   */\n      add\n        /* \"#utility.yul\":1909:1915   */\n      dup5\n        /* \"#utility.yul\":1865:1936   */\n      tag_114\n      jump\t// in\n    tag_165:\n        /* \"#utility.yul\":1721:1943   */\n      swap3\n      swap2\n      pop\n      pop\n      jump\t// out\n        /* \"#utility.yul\":1949:2053   */\n    tag_115:\n        /* \"#utility.yul\":1994:2001   */\n      0x00\n        /* \"#utility.yul\":2023:2047   */\n      tag_167\n        /* \"#utility.yul\":2041:2046   */\n      dup3\n        /* \"#utility.yul\":2023:2047   */\n      tag_109\n      jump\t// in\n    tag_167:\n        /* \"#utility.yul\":2012:2047   */\n      swap1\n      pop\n        /* \"#utility.yul\":1949:2053   */\n      swap2\n      swap1\n      pop\n      jump\t// out\n        /* \"#utility.yul\":2059:2197   */\n    tag_116:\n        /* \"#utility.yul\":2140:2172   */\n      tag_169\n        /* \"#utility.yul\":2166:2171   */\n      dup2\n        /* \"#utility.yul\":2140:2172   */\n      tag_115\n      jump\t// in\n    tag_169:\n        /* \"#utility.yul\":2133:2138   */\n      dup2\n        /* \"#utility.yul\":2130:2173   */\n      eq\n        /* \"#utility.yul\":2120:2191   */\n      tag_170\n      jumpi\n        /* \"#utility.yul\":2187:2188   */\n      0x00\n        /* \"#utility.yul\":2184:2185   */\n      dup1\n        /* \"#utility.yul\":2177:2189   */\n      revert\n        /* \"#utility.yul\":2120:2191   */\n    tag_170:\n        /* \"#utility.yul\":2059:2197   */\n      pop\n      jump\t// out\n        /* \"#utility.yul\":2203:2358   */\n    tag_117:\n        /* \"#utility.yul\":2257:2262   */\n      0x00\n        /* \"#utility.yul\":2295:2301   */\n      dup2\n        /* \"#utility.yul\":2282:2302   */\n      calldataload\n        /* \"#utility.yul\":2273:2302   */\n      swap1\n      pop\n        /* \"#utility.yul\":2311:2352   */\n      tag_172\n        /* \"#utility.yul\":2346:2351   */\n      dup2\n        /* \"#utility.yul\":2311:2352   */\n      tag_116\n      jump\t// in\n    tag_172:\n        /* \"#utility.yul\":2203:2358   */\n      swap3\n      swap2\n      pop\n      pop\n      jump\t// out\n        /* \"#utility.yul\":2364:2486   */\n    tag_118:\n        /* \"#utility.yul\":2437:2461   */\n      tag_174\n        /* \"#utility.yul\":2455:2460   */\n      dup2\n        /* \"#utility.yul\":2437:2461   */\n      tag_113\n      jump\t// in\n    tag_174:\n        /* \"#utility.yul\":2430:2435   */\n      dup2\n        /* \"#utility.yul\":2427:2462   */\n      eq\n        /* \"#utility.yul\":2417:2480   */\n      tag_175\n      jumpi\n        /* \"#utility.yul\":2476:2477   */\n      0x00\n        /* \"#utility.yul\":2473:2474   */\n      dup1\n        /* \"#utility.yul\":2466:2478   */\n      revert\n        /* \"#utility.yul\":2417:2480   */\n    tag_175:\n        /* \"#utility.yul\":2364:2486   */\n      pop\n      jump\t// out\n        /* \"#utility.yul\":2492:2631   */\n    tag_119:\n        /* \"#utility.yul\":2538:2543   */\n      0x00\n        /* \"#utility.yul\":2576:2582   */\n      dup2\n        /* \"#utility.yul\":2563:2583   */\n      calldataload\n        /* \"#utility.yul\":2554:2583   */\n      swap1\n      pop\n        /* \"#utility.yul\":2592:2625   */\n      tag_177\n        /* \"#utility.yul\":2619:2624   */\n      dup2\n        /* \"#utility.yul\":2592:2625   */\n      tag_118\n      jump\t// in\n    tag_177:\n        /* \"#utility.yul\":2492:2631   */\n      swap3\n      swap2\n      pop\n      pop\n      jump\t// out\n        /* \"#utility.yul\":2637:3127   */\n    tag_29:\n        /* \"#utility.yul\":2713:2719   */\n      0x00\n        /* \"#utility.yul\":2721:2727   */\n      dup1\n        /* \"#utility.yul\":2770:2772   */\n      0x40\n        /* \"#utility.yul\":2758:2767   */\n      dup4\n        /* \"#utility.yul\":2749:2756   */\n      dup6\n        /* \"#utility.yul\":2745:2768   */\n      sub\n        /* \"#utility.yul\":2741:2773   */\n      slt\n        /* \"#utility.yul\":2738:2857   */\n      iszero\n      tag_179\n      jumpi\n        /* \"#utility.yul\":2776:2855   */\n      tag_180\n      tag_107\n      jump\t// in\n    tag_180:\n        /* \"#utility.yul\":2738:2857   */\n    tag_179:\n        /* \"#utility.yul\":2896:2897   */\n      0x00\n        /* \"#utility.yul\":2921:2982   */\n      tag_181\n        /* \"#utility.yul\":2974:2981   */\n      dup6\n        /* \"#utility.yul\":2965:2971   */\n      dup3\n        /* \"#utility.yul\":2954:2963   */\n      dup7\n        /* \"#utility.yul\":2950:2972   */\n      add\n        /* \"#utility.yul\":2921:2982   */\n      tag_117\n      jump\t// in\n    tag_181:\n        /* \"#utility.yul\":2911:2982   */\n      swap3\n      pop\n        /* \"#utility.yul\":2867:2992   */\n      pop\n        /* \"#utility.yul\":3031:3033   */\n      0x20\n        /* \"#utility.yul\":3057:3110   */\n      tag_182\n        /* \"#utility.yul\":3102:3109   */\n      dup6\n        /* \"#utility.yul\":3093:3099   */\n      dup3\n        /* \"#utility.yul\":3082:3091   */\n      dup7\n        /* \"#utility.yul\":3078:3100   */\n      add\n        /* \"#utility.yul\":3057:3110   */\n      tag_119\n      jump\t// in\n    tag_182:\n        /* \"#utility.yul\":3047:3110   */\n      swap2\n      pop\n        /* \"#utility.yul\":3002:3120   */\n      pop\n        /* \"#utility.yul\":2637:3127   */\n      swap3\n      pop\n      swap3\n      swap1\n      pop\n      jump\t// out\n        /* \"#utility.yul\":3133:3607   */\n    tag_34:\n        /* \"#utility.yul\":3201:3207   */\n      0x00\n        /* \"#utility.yul\":3209:3215   */\n      dup1\n        /* \"#utility.yul\":3258:3260   */\n      0x40\n        /* \"#utility.yul\":3246:3255   */\n      dup4\n        /* \"#utility.yul\":3237:3244   */\n      dup6\n        /* \"#utility.yul\":3233:3256   */\n      sub\n        /* \"#utility.yul\":3229:3261   */\n      slt\n        /* \"#utility.yul\":3226:3345   */\n      iszero\n      tag_184\n      jumpi\n        /* \"#utility.yul\":3264:3343   */\n      tag_185\n      tag_107\n      jump\t// in\n    tag_185:\n        /* \"#utility.yul\":3226:3345   */\n    tag_184:\n        /* \"#utility.yul\":3384:3385   */\n      0x00\n        /* \"#utility.yul\":3409:3462   */\n      tag_186\n        /* \"#utility.yul\":3454:3461   */\n      dup6\n        /* \"#utility.yul\":3445:3451   */\n      dup3\n        /* \"#utility.yul\":3434:3443   */\n      dup7\n        /* \"#utility.yul\":3430:3452   */\n      add\n        /* \"#utility.yul\":3409:3462   */\n      tag_112\n      jump\t// in\n    tag_186:\n        /* \"#utility.yul\":3399:3462   */\n      swap3\n      pop\n        /* \"#utility.yul\":3355:3472   */\n      pop\n        /* \"#utility.yul\":3511:3513   */\n      0x20\n        /* \"#utility.yul\":3537:3590   */\n      tag_187\n        /* \"#utility.yul\":3582:3589   */\n      dup6\n        /* \"#utility.yul\":3573:3579   */\n      dup3\n        /* \"#utility.yul\":3562:3571   */\n      dup7\n        /* \"#utility.yul\":3558:3580   */\n      add\n        /* \"#utility.yul\":3537:3590   */\n      tag_119\n      jump\t// in\n    tag_187:\n        /* \"#utility.yul\":3527:3590   */\n      swap2\n      pop\n        /* \"#utility.yul\":3482:3600   */\n      pop\n        /* \"#utility.yul\":3133:3607   */\n      swap3\n      pop\n      swap3\n      swap1\n      pop\n      jump\t// out\n        /* \"#utility.yul\":3613:3731   */\n    tag_120:\n        /* \"#utility.yul\":3700:3724   */\n      tag_189\n        /* \"#utility.yul\":3718:3723   */\n      dup2\n        /* \"#utility.yul\":3700:3724   */\n      tag_110\n      jump\t// in\n    tag_189:\n        /* \"#utility.yul\":3695:3698   */\n      dup3\n        /* \"#utility.yul\":3688:3725   */\n      mstore\n        /* \"#utility.yul\":3613:3731   */\n      pop\n      pop\n      jump\t// out\n        /* \"#utility.yul\":3737:3959   */\n    tag_48:\n        /* \"#utility.yul\":3830:3834   */\n      0x00\n        /* \"#utility.yul\":3868:3870   */\n      0x20\n        /* \"#utility.yul\":3857:3866   */\n      dup3\n        /* \"#utility.yul\":3853:3871   */\n      add\n        /* \"#utility.yul\":3845:3871   */\n      swap1\n      pop\n        /* \"#utility.yul\":3881:3952   */\n      tag_191\n        /* \"#utility.yul\":3949:3950   */\n      0x00\n        /* \"#utility.yul\":3938:3947   */\n      dup4\n        /* \"#utility.yul\":3934:3951   */\n      add\n        /* \"#utility.yul\":3925:3931   */\n      dup5\n        /* \"#utility.yul\":3881:3952   */\n      tag_120\n      jump\t// in\n    tag_191:\n        /* \"#utility.yul\":3737:3959   */\n      swap3\n      swap2\n      pop\n      pop\n      jump\t// out\n        /* \"#utility.yul\":3965:4134   */\n    tag_121:\n        /* \"#utility.yul\":4049:4060   */\n      0x00\n        /* \"#utility.yul\":4083:4089   */\n      dup3\n        /* \"#utility.yul\":4078:4081   */\n      dup3\n        /* \"#utility.yul\":4071:4090   */\n      mstore\n        /* \"#utility.yul\":4123:4127   */\n      0x20\n        /* \"#utility.yul\":4118:4121   */\n      dup3\n        /* \"#utility.yul\":4114:4128   */\n      add\n        /* \"#utility.yul\":4099:4128   */\n      swap1\n      pop\n        /* \"#utility.yul\":3965:4134   */\n      swap3\n      swap2\n      pop\n      pop\n      jump\t// out\n        /* \"#utility.yul\":4140:4370   */\n    tag_122:\n        /* \"#utility.yul\":4280:4314   */\n      0x546865206f776e65722073686f756c6420757365206f776e6572576974686472\n        /* \"#utility.yul\":4276:4277   */\n      0x00\n        /* \"#utility.yul\":4268:4274   */\n      dup3\n        /* \"#utility.yul\":4264:4278   */\n      add\n        /* \"#utility.yul\":4257:4315   */\n      mstore\n        /* \"#utility.yul\":4349:4362   */\n      0x61772066756e6374696f6e000000000000000000000000000000000000000000\n        /* \"#utility.yul\":4344:4346   */\n      0x20\n        /* \"#utility.yul\":4336:4342   */\n      dup3\n        /* \"#utility.yul\":4332:4347   */\n      add\n        /* \"#utility.yul\":4325:4363   */\n      mstore\n        /* \"#utility.yul\":4140:4370   */\n      pop\n      jump\t// out\n        /* \"#utility.yul\":4376:4742   */\n    tag_123:\n        /* \"#utility.yul\":4518:4521   */\n      0x00\n        /* \"#utility.yul\":4539:4606   */\n      tag_195\n        /* \"#utility.yul\":4603:4605   */\n      0x2b\n        /* \"#utility.yul\":4598:4601   */\n      dup4\n        /* \"#utility.yul\":4539:4606   */\n      tag_121\n      jump\t// in\n    tag_195:\n        /* \"#utility.yul\":4532:4606   */\n      swap2\n      pop\n        /* \"#utility.yul\":4615:4708   */\n      tag_196\n        /* \"#utility.yul\":4704:4707   */\n      dup3\n        /* \"#utility.yul\":4615:4708   */\n      tag_122\n      jump\t// in\n    tag_196:\n        /* \"#utility.yul\":4733:4735   */\n      0x40\n        /* \"#utility.yul\":4728:4731   */\n      dup3\n        /* \"#utility.yul\":4724:4736   */\n      add\n        /* \"#utility.yul\":4717:4736   */\n      swap1\n      pop\n        /* \"#utility.yul\":4376:4742   */\n      swap2\n      swap1\n      pop\n      jump\t// out\n        /* \"#utility.yul\":4748:5167   */\n    tag_57:\n        /* \"#utility.yul\":4914:4918   */\n      0x00\n        /* \"#utility.yul\":4952:4954   */\n      0x20\n        /* \"#utility.yul\":4941:4950   */\n      dup3\n        /* \"#utility.yul\":4937:4955   */\n      add\n        /* \"#utility.yul\":4929:4955   */\n      swap1\n      pop\n        /* \"#utility.yul\":5001:5010   */\n      dup2\n        /* \"#utility.yul\":4995:4999   */\n      dup2\n        /* \"#utility.yul\":4991:5011   */\n      sub\n        /* \"#utility.yul\":4987:4988   */\n      0x00\n        /* \"#utility.yul\":4976:4985   */\n      dup4\n        /* \"#utility.yul\":4972:4989   */\n      add\n        /* \"#utility.yul\":4965:5012   */\n      mstore\n        /* \"#utility.yul\":5029:5160   */\n      tag_198\n        /* \"#utility.yul\":5155:5159   */\n      dup2\n        /* \"#utility.yul\":5029:5160   */\n      tag_123\n      jump\t// in\n    tag_198:\n        /* \"#utility.yul\":5021:5160   */\n      swap1\n      pop\n        /* \"#utility.yul\":4748:5167   */\n      swap2\n      swap1\n      pop\n      jump\t// out\n        /* \"#utility.yul\":5173:5400   */\n    tag_124:\n        /* \"#utility.yul\":5313:5347   */\n      0x5468657265206973206e6f206d6f6e657920696e207468652077616c6c657420\n        /* \"#utility.yul\":5309:5310   */\n      0x00\n        /* \"#utility.yul\":5301:5307   */\n      dup3\n        /* \"#utility.yul\":5297:5311   */\n      add\n        /* \"#utility.yul\":5290:5348   */\n      mstore\n        /* \"#utility.yul\":5382:5392   */\n      0x746f20636c61696d000000000000000000000000000000000000000000000000\n        /* \"#utility.yul\":5377:5379   */\n      0x20\n        /* \"#utility.yul\":5369:5375   */\n      dup3\n        /* \"#utility.yul\":5365:5380   */\n      add\n        /* \"#utility.yul\":5358:5393   */\n      mstore\n        /* \"#utility.yul\":5173:5400   */\n      pop\n      jump\t// out\n        /* \"#utility.yul\":5406:5772   */\n    tag_125:\n        /* \"#utility.yul\":5548:5551   */\n      0x00\n        /* \"#utility.yul\":5569:5636   */\n      tag_201\n        /* \"#utility.yul\":5633:5635   */\n      0x28\n        /* \"#utility.yul\":5628:5631   */\n      dup4\n        /* \"#utility.yul\":5569:5636   */\n      tag_121\n      jump\t// in\n    tag_201:\n        /* \"#utility.yul\":5562:5636   */\n      swap2\n      pop\n        /* \"#utility.yul\":5645:5738   */\n      tag_202\n        /* \"#utility.yul\":5734:5737   */\n      dup3\n        /* \"#utility.yul\":5645:5738   */\n      tag_124\n      jump\t// in\n    tag_202:\n        /* \"#utility.yul\":5763:5765   */\n      0x40\n        /* \"#utility.yul\":5758:5761   */\n      dup3\n        /* \"#utility.yul\":5754:5766   */\n      add\n        /* \"#utility.yul\":5747:5766   */\n      swap1\n      pop\n        /* \"#utility.yul\":5406:5772   */\n      swap2\n      swap1\n      pop\n      jump\t// out\n        /* \"#utility.yul\":5778:6197   */\n    tag_60:\n        /* \"#utility.yul\":5944:5948   */\n      0x00\n        /* \"#utility.yul\":5982:5984   */\n      0x20\n        /* \"#utility.yul\":5971:5980   */\n      dup3\n        /* \"#utility.yul\":5967:5985   */\n      add\n        /* \"#utility.yul\":5959:5985   */\n      swap1\n      pop\n        /* \"#utility.yul\":6031:6040   */\n      dup2\n        /* \"#utility.yul\":6025:6029   */\n      dup2\n        /* \"#utility.yul\":6021:6041   */\n      sub\n        /* \"#utility.yul\":6017:6018   */\n      0x00\n        /* \"#utility.yul\":6006:6015   */\n      dup4\n        /* \"#utility.yul\":6002:6019   */\n      add\n        /* \"#utility.yul\":5995:6042   */\n      mstore\n        /* \"#utility.yul\":6059:6190   */\n      tag_204\n        /* \"#utility.yul\":6185:6189   */\n      dup2\n        /* \"#utility.yul\":6059:6190   */\n      tag_125\n      jump\t// in\n    tag_204:\n        /* \"#utility.yul\":6051:6190   */\n      swap1\n      pop\n        /* \"#utility.yul\":5778:6197   */\n      swap2\n      swap1\n      pop\n      jump\t// out\n        /* \"#utility.yul\":6203:6382   */\n    tag_126:\n        /* \"#utility.yul\":6343:6374   */\n      0x596f7520646f206e6f74206861766520616e7920616c6c6f77616e6365000000\n        /* \"#utility.yul\":6339:6340   */\n      0x00\n        /* \"#utility.yul\":6331:6337   */\n      dup3\n        /* \"#utility.yul\":6327:6341   */\n      add\n        /* \"#utility.yul\":6320:6375   */\n      mstore\n        /* \"#utility.yul\":6203:6382   */\n      pop\n      jump\t// out\n        /* \"#utility.yul\":6388:6754   */\n    tag_127:\n        /* \"#utility.yul\":6530:6533   */\n      0x00\n        /* \"#utility.yul\":6551:6618   */\n      tag_207\n        /* \"#utility.yul\":6615:6617   */\n      0x1d\n        /* \"#utility.yul\":6610:6613   */\n      dup4\n        /* \"#utility.yul\":6551:6618   */\n      tag_121\n      jump\t// in\n    tag_207:\n        /* \"#utility.yul\":6544:6618   */\n      swap2\n      pop\n        /* \"#utility.yul\":6627:6720   */\n      tag_208\n        /* \"#utility.yul\":6716:6719   */\n      dup3\n        /* \"#utility.yul\":6627:6720   */\n      tag_126\n      jump\t// in\n    tag_208:\n        /* \"#utility.yul\":6745:6747   */\n      0x20\n        /* \"#utility.yul\":6740:6743   */\n      dup3\n        /* \"#utility.yul\":6736:6748   */\n      add\n        /* \"#utility.yul\":6729:6748   */\n      swap1\n      pop\n        /* \"#utility.yul\":6388:6754   */\n      swap2\n      swap1\n      pop\n      jump\t// out\n        /* \"#utility.yul\":6760:7179   */\n    tag_63:\n        /* \"#utility.yul\":6926:6930   */\n      0x00\n        /* \"#utility.yul\":6964:6966   */\n      0x20\n        /* \"#utility.yul\":6953:6962   */\n      dup3\n        /* \"#utility.yul\":6949:6967   */\n      add\n        /* \"#utility.yul\":6941:6967   */\n      swap1\n      pop\n        /* \"#utility.yul\":7013:7022   */\n      dup2\n        /* \"#utility.yul\":7007:7011   */\n      dup2\n        /* \"#utility.yul\":7003:7023   */\n      sub\n        /* \"#utility.yul\":6999:7000   */\n      0x00\n        /* \"#utility.yul\":6988:6997   */\n      dup4\n        /* \"#utility.yul\":6984:7001   */\n      add\n        /* \"#utility.yul\":6977:7024   */\n      mstore\n        /* \"#utility.yul\":7041:7172   */\n      tag_210\n        /* \"#utility.yul\":7167:7171   */\n      dup2\n        /* \"#utility.yul\":7041:7172   */\n      tag_127\n      jump\t// in\n    tag_210:\n        /* \"#utility.yul\":7033:7172   */\n      swap1\n      pop\n        /* \"#utility.yul\":6760:7179   */\n      swap2\n      swap1\n      pop\n      jump\t// out\n        /* \"#utility.yul\":7185:7365   */\n    tag_128:\n        /* \"#utility.yul\":7233:7310   */\n      0x4e487b7100000000000000000000000000000000000000000000000000000000\n        /* \"#utility.yul\":7230:7231   */\n      0x00\n        /* \"#utility.yul\":7223:7311   */\n      mstore\n        /* \"#utility.yul\":7330:7334   */\n      0x11\n        /* \"#utility.yul\":7327:7328   */\n      0x04\n        /* \"#utility.yul\":7320:7335   */\n      mstore\n        /* \"#utility.yul\":7354:7358   */\n      0x24\n        /* \"#utility.yul\":7351:7352   */\n      0x00\n        /* \"#utility.yul\":7344:7359   */\n      revert\n        /* \"#utility.yul\":7371:7676   */\n    tag_65:\n        /* \"#utility.yul\":7411:7414   */\n      0x00\n        /* \"#utility.yul\":7430:7450   */\n      tag_213\n        /* \"#utility.yul\":7448:7449   */\n      dup3\n        /* \"#utility.yul\":7430:7450   */\n      tag_113\n      jump\t// in\n    tag_213:\n        /* \"#utility.yul\":7425:7450   */\n      swap2\n      pop\n        /* \"#utility.yul\":7464:7484   */\n      tag_214\n        /* \"#utility.yul\":7482:7483   */\n      dup4\n        /* \"#utility.yul\":7464:7484   */\n      tag_113\n      jump\t// in\n    tag_214:\n        /* \"#utility.yul\":7459:7484   */\n      swap3\n      pop\n        /* \"#utility.yul\":7618:7619   */\n      dup3\n        /* \"#utility.yul\":7550:7616   */\n      0xffffffffffffffffffffffffffffffffffffffffffffffffffffffffffffffff\n        /* \"#utility.yul\":7546:7620   */\n      sub\n        /* \"#utility.yul\":7543:7544   */\n      dup3\n        /* \"#utility.yul\":7540:7621   */\n      gt\n        /* \"#utility.yul\":7537:7644   */\n      iszero\n      tag_215\n      jumpi\n        /* \"#utility.yul\":7624:7642   */\n      tag_216\n      tag_128\n      jump\t// in\n    tag_216:\n        /* \"#utility.yul\":7537:7644   */\n    tag_215:\n        /* \"#utility.yul\":7668:7669   */\n      dup3\n        /* \"#utility.yul\":7665:7666   */\n      dup3\n        /* \"#utility.yul\":7661:7670   */\n      add\n        /* \"#utility.yul\":7654:7670   */\n      swap1\n      pop\n        /* \"#utility.yul\":7371:7676   */\n      swap3\n      swap2\n      pop\n      pop\n      jump\t// out\n        /* \"#utility.yul\":7682:8030   */\n    tag_67:\n        /* \"#utility.yul\":7722:7729   */\n      0x00\n        /* \"#utility.yul\":7745:7765   */\n      tag_218\n        /* \"#utility.yul\":7763:7764   */\n      dup3\n        /* \"#utility.yul\":7745:7765   */\n      tag_113\n      jump\t// in\n    tag_218:\n        /* \"#utility.yul\":7740:7765   */\n      swap2\n      pop\n        /* \"#utility.yul\":7779:7799   */\n      tag_219\n        /* \"#utility.yul\":7797:7798   */\n      dup4\n        /* \"#utility.yul\":7779:7799   */\n      tag_113\n      jump\t// in\n    tag_219:\n        /* \"#utility.yul\":7774:7799   */\n      swap3\n      pop\n        /* \"#utility.yul\":7967:7968   */\n      dup2\n        /* \"#utility.yul\":7899:7965   */\n      0xffffffffffffffffffffffffffffffffffffffffffffffffffffffffffffffff\n        /* \"#utility.yul\":7895:7969   */\n      div\n        /* \"#utility.yul\":7892:7893   */\n      dup4\n        /* \"#utility.yul\":7889:7970   */\n      gt\n        /* \"#utility.yul\":7884:7885   */\n      dup3\n        /* \"#utility.yul\":7877:7886   */\n      iszero\n        /* \"#utility.yul\":7870:7887   */\n      iszero\n        /* \"#utility.yul\":7866:7971   */\n      and\n        /* \"#utility.yul\":7863:7994   */\n      iszero\n      tag_220\n      jumpi\n        /* \"#utility.yul\":7974:7992   */\n      tag_221\n      tag_128\n      jump\t// in\n    tag_221:\n        /* \"#utility.yul\":7863:7994   */\n    tag_220:\n        /* \"#utility.yul\":8022:8023   */\n      dup3\n        /* \"#utility.yul\":8019:8020   */\n      dup3\n        /* \"#utility.yul\":8015:8024   */\n      mul\n        /* \"#utility.yul\":8004:8024   */\n      swap1\n      pop\n        /* \"#utility.yul\":7682:8030   */\n      swap3\n      swap2\n      pop\n      pop\n      jump\t// out\n        /* \"#utility.yul\":8036:8216   */\n    tag_129:\n        /* \"#utility.yul\":8084:8161   */\n      0x4e487b7100000000000000000000000000000000000000000000000000000000\n        /* \"#utility.yul\":8081:8082   */\n      0x00\n        /* \"#utility.yul\":8074:8162   */\n      mstore\n        /* \"#utility.yul\":8181:8185   */\n      0x12\n        /* \"#utility.yul\":8178:8179   */\n      0x04\n        /* \"#utility.yul\":8171:8186   */\n      mstore\n        /* \"#utility.yul\":8205:8209   */\n      0x24\n        /* \"#utility.yul\":8202:8203   */\n      0x00\n        /* \"#utility.yul\":8195:8210   */\n      revert\n        /* \"#utility.yul\":8222:8407   */\n    tag_69:\n        /* \"#utility.yul\":8262:8263   */\n      0x00\n        /* \"#utility.yul\":8279:8299   */\n      tag_224\n        /* \"#utility.yul\":8297:8298   */\n      dup3\n        /* \"#utility.yul\":8279:8299   */\n      tag_113\n      jump\t// in\n    tag_224:\n        /* \"#utility.yul\":8274:8299   */\n      swap2\n      pop\n        /* \"#utility.yul\":8313:8333   */\n      tag_225\n        /* \"#utility.yul\":8331:8332   */\n      dup4\n        /* \"#utility.yul\":8313:8333   */\n      tag_113\n      jump\t// in\n    tag_225:\n        /* \"#utility.yul\":8308:8333   */\n      swap3\n      pop\n        /* \"#utility.yul\":8352:8353   */\n      dup3\n        /* \"#utility.yul\":8342:8377   */\n      tag_226\n      jumpi\n        /* \"#utility.yul\":8357:8375   */\n      tag_227\n      tag_129\n      jump\t// in\n    tag_227:\n        /* \"#utility.yul\":8342:8377   */\n    tag_226:\n        /* \"#utility.yul\":8399:8400   */\n      dup3\n        /* \"#utility.yul\":8396:8397   */\n      dup3\n        /* \"#utility.yul\":8392:8401   */\n      div\n        /* \"#utility.yul\":8387:8401   */\n      swap1\n      pop\n        /* \"#utility.yul\":8222:8407   */\n      swap3\n      swap2\n      pop\n      pop\n      jump\t// out\n        /* \"#utility.yul\":8413:8604   */\n    tag_71:\n        /* \"#utility.yul\":8453:8457   */\n      0x00\n        /* \"#utility.yul\":8473:8493   */\n      tag_229\n        /* \"#utility.yul\":8491:8492   */\n      dup3\n        /* \"#utility.yul\":8473:8493   */\n      tag_113\n      jump\t// in\n    tag_229:\n        /* \"#utility.yul\":8468:8493   */\n      swap2\n      pop\n        /* \"#utility.yul\":8507:8527   */\n      tag_230\n        /* \"#utility.yul\":8525:8526   */\n      dup4\n        /* \"#utility.yul\":8507:8527   */\n      tag_113\n      jump\t// in\n    tag_230:\n        /* \"#utility.yul\":8502:8527   */\n      swap3\n      pop\n        /* \"#utility.yul\":8546:8547   */\n      dup3\n        /* \"#utility.yul\":8543:8544   */\n      dup3\n        /* \"#utility.yul\":8540:8548   */\n      lt\n        /* \"#utility.yul\":8537:8571   */\n      iszero\n      tag_231\n      jumpi\n        /* \"#utility.yul\":8551:8569   */\n      tag_232\n      tag_128\n      jump\t// in\n    tag_232:\n        /* \"#utility.yul\":8537:8571   */\n    tag_231:\n        /* \"#utility.yul\":8596:8597   */\n      dup3\n        /* \"#utility.yul\":8593:8594   */\n      dup3\n        /* \"#utility.yul\":8589:8598   */\n      sub\n        /* \"#utility.yul\":8581:8598   */\n      swap1\n      pop\n        /* \"#utility.yul\":8413:8604   */\n      swap3\n      swap2\n      pop\n      pop\n      jump\t// out\n        /* \"#utility.yul\":8610:8782   */\n    tag_130:\n        /* \"#utility.yul\":8750:8774   */\n      0x54686520616d6f756e7420697320746f6f206869676800000000000000000000\n        /* \"#utility.yul\":8746:8747   */\n      0x00\n        /* \"#utility.yul\":8738:8744   */\n      dup3\n        /* \"#utility.yul\":8734:8748   */\n      add\n        /* \"#utility.yul\":8727:8775   */\n      mstore\n        /* \"#utility.yul\":8610:8782   */\n      pop\n      jump\t// out\n        /* \"#utility.yul\":8788:9154   */\n    tag_131:\n        /* \"#utility.yul\":8930:8933   */\n      0x00\n        /* \"#utility.yul\":8951:9018   */\n      tag_235\n        /* \"#utility.yul\":9015:9017   */\n      0x16\n        /* \"#utility.yul\":9010:9013   */\n      dup4\n        /* \"#utility.yul\":8951:9018   */\n      tag_121\n      jump\t// in\n    tag_235:\n        /* \"#utility.yul\":8944:9018   */\n      swap2\n      pop\n        /* \"#utility.yul\":9027:9120   */\n      tag_236\n        /* \"#utility.yul\":9116:9119   */\n      dup3\n        /* \"#utility.yul\":9027:9120   */\n      tag_130\n      jump\t// in\n    tag_236:\n        /* \"#utility.yul\":9145:9147   */\n      0x20\n        /* \"#utility.yul\":9140:9143   */\n      dup3\n        /* \"#utility.yul\":9136:9148   */\n      add\n        /* \"#utility.yul\":9129:9148   */\n      swap1\n      pop\n        /* \"#utility.yul\":8788:9154   */\n      swap2\n      swap1\n      pop\n      jump\t// out\n        /* \"#utility.yul\":9160:9579   */\n    tag_74:\n        /* \"#utility.yul\":9326:9330   */\n      0x00\n        /* \"#utility.yul\":9364:9366   */\n      0x20\n        /* \"#utility.yul\":9353:9362   */\n      dup3\n        /* \"#utility.yul\":9349:9367   */\n      add\n        /* \"#utility.yul\":9341:9367   */\n      swap1\n      pop\n        /* \"#utility.yul\":9413:9422   */\n      dup2\n        /* \"#utility.yul\":9407:9411   */\n      dup2\n        /* \"#utility.yul\":9403:9423   */\n      sub\n        /* \"#utility.yul\":9399:9400   */\n      0x00\n        /* \"#utility.yul\":9388:9397   */\n      dup4\n        /* \"#utility.yul\":9384:9401   */\n      add\n        /* \"#utility.yul\":9377:9424   */\n      mstore\n        /* \"#utility.yul\":9441:9572   */\n      tag_238\n        /* \"#utility.yul\":9567:9571   */\n      dup2\n        /* \"#utility.yul\":9441:9572   */\n      tag_131\n      jump\t// in\n    tag_238:\n        /* \"#utility.yul\":9433:9572   */\n      swap1\n      pop\n        /* \"#utility.yul\":9160:9579   */\n      swap2\n      swap1\n      pop\n      jump\t// out\n        /* \"#utility.yul\":9585:9821   */\n    tag_132:\n        /* \"#utility.yul\":9725:9759   */\n      0x596f7520617265206e6f7420616c6c6f776564202d206f6e6c7920746865206f\n        /* \"#utility.yul\":9721:9722   */\n      0x00\n        /* \"#utility.yul\":9713:9719   */\n      dup3\n        /* \"#utility.yul\":9709:9723   */\n      add\n        /* \"#utility.yul\":9702:9760   */\n      mstore\n        /* \"#utility.yul\":9794:9813   */\n      0x776e65722063616e20646f20746869732e000000000000000000000000000000\n        /* \"#utility.yul\":9789:9791   */\n      0x20\n        /* \"#utility.yul\":9781:9787   */\n      dup3\n        /* \"#utility.yul\":9777:9792   */\n      add\n        /* \"#utility.yul\":9770:9814   */\n      mstore\n        /* \"#utility.yul\":9585:9821   */\n      pop\n      jump\t// out\n        /* \"#utility.yul\":9827:10193   */\n    tag_133:\n        /* \"#utility.yul\":9969:9972   */\n      0x00\n        /* \"#utility.yul\":9990:10057   */\n      tag_241\n        /* \"#utility.yul\":10054:10056   */\n      0x31\n        /* \"#utility.yul\":10049:10052   */\n      dup4\n        /* \"#utility.yul\":9990:10057   */\n      tag_121\n      jump\t// in\n    tag_241:\n        /* \"#utility.yul\":9983:10057   */\n      swap2\n      pop\n        /* \"#utility.yul\":10066:10159   */\n      tag_242\n        /* \"#utility.yul\":10155:10158   */\n      dup3\n        /* \"#utility.yul\":10066:10159   */\n      tag_132\n      jump\t// in\n    tag_242:\n        /* \"#utility.yul\":10184:10186   */\n      0x40\n        /* \"#utility.yul\":10179:10182   */\n      dup3\n        /* \"#utility.yul\":10175:10187   */\n      add\n        /* \"#utility.yul\":10168:10187   */\n      swap1\n      pop\n        /* \"#utility.yul\":9827:10193   */\n      swap2\n      swap1\n      pop\n      jump\t// out\n        /* \"#utility.yul\":10199:10618   */\n    tag_83:\n        /* \"#utility.yul\":10365:10369   */\n      0x00\n        /* \"#utility.yul\":10403:10405   */\n      0x20\n        /* \"#utility.yul\":10392:10401   */\n      dup3\n        /* \"#utility.yul\":10388:10406   */\n      add\n        /* \"#utility.yul\":10380:10406   */\n      swap1\n      pop\n        /* \"#utility.yul\":10452:10461   */\n      dup2\n        /* \"#utility.yul\":10446:10450   */\n      dup2\n        /* \"#utility.yul\":10442:10462   */\n      sub\n        /* \"#utility.yul\":10438:10439   */\n      0x00\n        /* \"#utility.yul\":10427:10436   */\n      dup4\n        /* \"#utility.yul\":10423:10440   */\n      add\n        /* \"#utility.yul\":10416:10463   */\n      mstore\n        /* \"#utility.yul\":10480:10611   */\n      tag_244\n        /* \"#utility.yul\":10606:10610   */\n      dup2\n        /* \"#utility.yul\":10480:10611   */\n      tag_133\n      jump\t// in\n    tag_244:\n        /* \"#utility.yul\":10472:10611   */\n      swap1\n      pop\n        /* \"#utility.yul\":10199:10618   */\n      swap2\n      swap1\n      pop\n      jump\t// out\n        /* \"#utility.yul\":10624:10853   */\n    tag_134:\n        /* \"#utility.yul\":10764:10798   */\n      0x416e20616c6c6f77616e6365206973206e6f7420726571756972656420666f72\n        /* \"#utility.yul\":10760:10761   */\n      0x00\n        /* \"#utility.yul\":10752:10758   */\n      dup3\n        /* \"#utility.yul\":10748:10762   */\n      add\n        /* \"#utility.yul\":10741:10799   */\n      mstore\n        /* \"#utility.yul\":10833:10845   */\n      0x20746865206f776e657200000000000000000000000000000000000000000000\n        /* \"#utility.yul\":10828:10830   */\n      0x20\n        /* \"#utility.yul\":10820:10826   */\n      dup3\n        /* \"#utility.yul\":10816:10831   */\n      add\n        /* \"#utility.yul\":10809:10846   */\n      mstore\n        /* \"#utility.yul\":10624:10853   */\n      pop\n      jump\t// out\n        /* \"#utility.yul\":10859:11225   */\n    tag_135:\n        /* \"#utility.yul\":11001:11004   */\n      0x00\n        /* \"#utility.yul\":11022:11089   */\n      tag_247\n        /* \"#utility.yul\":11086:11088   */\n      0x2a\n        /* \"#utility.yul\":11081:11084   */\n      dup4\n        /* \"#utility.yul\":11022:11089   */\n      tag_121\n      jump\t// in\n    tag_247:\n        /* \"#utility.yul\":11015:11089   */\n      swap2\n      pop\n        /* \"#utility.yul\":11098:11191   */\n      tag_248\n        /* \"#utility.yul\":11187:11190   */\n      dup3\n        /* \"#utility.yul\":11098:11191   */\n      tag_134\n      jump\t// in\n    tag_248:\n        /* \"#utility.yul\":11216:11218   */\n      0x40\n        /* \"#utility.yul\":11211:11214   */\n      dup3\n        /* \"#utility.yul\":11207:11219   */\n      add\n        /* \"#utility.yul\":11200:11219   */\n      swap1\n      pop\n        /* \"#utility.yul\":10859:11225   */\n      swap2\n      swap1\n      pop\n      jump\t// out\n        /* \"#utility.yul\":11231:11650   */\n    tag_87:\n        /* \"#utility.yul\":11397:11401   */\n      0x00\n        /* \"#utility.yul\":11435:11437   */\n      0x20\n        /* \"#utility.yul\":11424:11433   */\n      dup3\n        /* \"#utility.yul\":11420:11438   */\n      add\n        /* \"#utility.yul\":11412:11438   */\n      swap1\n      pop\n        /* \"#utility.yul\":11484:11493   */\n      dup2\n        /* \"#utility.yul\":11478:11482   */\n      dup2\n        /* \"#utility.yul\":11474:11494   */\n      sub\n        /* \"#utility.yul\":11470:11471   */\n      0x00\n        /* \"#utility.yul\":11459:11468   */\n      dup4\n        /* \"#utility.yul\":11455:11472   */\n      add\n        /* \"#utility.yul\":11448:11495   */\n      mstore\n        /* \"#utility.yul\":11512:11643   */\n      tag_250\n        /* \"#utility.yul\":11638:11642   */\n      dup2\n        /* \"#utility.yul\":11512:11643   */\n      tag_135\n      jump\t// in\n    tag_250:\n        /* \"#utility.yul\":11504:11643   */\n      swap1\n      pop\n        /* \"#utility.yul\":11231:11650   */\n      swap2\n      swap1\n      pop\n      jump\t// out\n        /* \"#utility.yul\":11656:11879   */\n    tag_136:\n        /* \"#utility.yul\":11796:11830   */\n      0x546865206164647265737320616c72656164792068617320616e20616c6c6f77\n        /* \"#utility.yul\":11792:11793   */\n      0x00\n        /* \"#utility.yul\":11784:11790   */\n      dup3\n        /* \"#utility.yul\":11780:11794   */\n      add\n        /* \"#utility.yul\":11773:11831   */\n      mstore\n        /* \"#utility.yul\":11865:11871   */\n      0x616e636500000000000000000000000000000000000000000000000000000000\n        /* \"#utility.yul\":11860:11862   */\n      0x20\n        /* \"#utility.yul\":11852:11858   */\n      dup3\n        /* \"#utility.yul\":11848:11863   */\n      add\n        /* \"#utility.yul\":11841:11872   */\n      mstore\n        /* \"#utility.yul\":11656:11879   */\n      pop\n      jump\t// out\n        /* \"#utility.yul\":11885:12251   */\n    tag_137:\n        /* \"#utility.yul\":12027:12030   */\n      0x00\n        /* \"#utility.yul\":12048:12115   */\n      tag_253\n        /* \"#utility.yul\":12112:12114   */\n      0x24\n        /* \"#utility.yul\":12107:12110   */\n      dup4\n        /* \"#utility.yul\":12048:12115   */\n      tag_121\n      jump\t// in\n    tag_253:\n        /* \"#utility.yul\":12041:12115   */\n      swap2\n      pop\n        /* \"#utility.yul\":12124:12217   */\n      tag_254\n        /* \"#utility.yul\":12213:12216   */\n      dup3\n        /* \"#utility.yul\":12124:12217   */\n      tag_136\n      jump\t// in\n    tag_254:\n        /* \"#utility.yul\":12242:12244   */\n      0x40\n        /* \"#utility.yul\":12237:12240   */\n      dup3\n        /* \"#utility.yul\":12233:12245   */\n      add\n        /* \"#utility.yul\":12226:12245   */\n      swap1\n      pop\n        /* \"#utility.yul\":11885:12251   */\n      swap2\n      swap1\n      pop\n      jump\t// out\n        /* \"#utility.yul\":12257:12676   */\n    tag_90:\n        /* \"#utility.yul\":12423:12427   */\n      0x00\n        /* \"#utility.yul\":12461:12463   */\n      0x20\n        /* \"#utility.yul\":12450:12459   */\n      dup3\n        /* \"#utility.yul\":12446:12464   */\n      add\n        /* \"#utility.yul\":12438:12464   */\n      swap1\n      pop\n        /* \"#utility.yul\":12510:12519   */\n      dup2\n        /* \"#utility.yul\":12504:12508   */\n      dup2\n        /* \"#utility.yul\":12500:12520   */\n      sub\n        /* \"#utility.yul\":12496:12497   */\n      0x00\n        /* \"#utility.yul\":12485:12494   */\n      dup4\n        /* \"#utility.yul\":12481:12498   */\n      add\n        /* \"#utility.yul\":12474:12521   */\n      mstore\n        /* \"#utility.yul\":12538:12669   */\n      tag_256\n        /* \"#utility.yul\":12664:12668   */\n      dup2\n        /* \"#utility.yul\":12538:12669   */\n      tag_137\n      jump\t// in\n    tag_256:\n        /* \"#utility.yul\":12530:12669   */\n      swap1\n      pop\n        /* \"#utility.yul\":12257:12676   */\n      swap2\n      swap1\n      pop\n      jump\t// out\n        /* \"#utility.yul\":12682:12908   */\n    tag_138:\n        /* \"#utility.yul\":12822:12856   */\n      0x5468697320776f756c64206f7665722d616c6c6f636174652074686520616c6c\n        /* \"#utility.yul\":12818:12819   */\n      0x00\n        /* \"#utility.yul\":12810:12816   */\n      dup3\n        /* \"#utility.yul\":12806:12820   */\n      add\n        /* \"#utility.yul\":12799:12857   */\n      mstore\n        /* \"#utility.yul\":12891:12900   */\n      0x6f77616e63657300000000000000000000000000000000000000000000000000\n        /* \"#utility.yul\":12886:12888   */\n      0x20\n        /* \"#utility.yul\":12878:12884   */\n      dup3\n        /* \"#utility.yul\":12874:12889   */\n      add\n        /* \"#utility.yul\":12867:12901   */\n      mstore\n        /* \"#utility.yul\":12682:12908   */\n      pop\n      jump\t// out\n        /* \"#utility.yul\":12914:13280   */\n    tag_139:\n        /* \"#utility.yul\":13056:13059   */\n      0x00\n        /* \"#utility.yul\":13077:13144   */\n      tag_259\n        /* \"#utility.yul\":13141:13143   */\n      0x27\n        /* \"#utility.yul\":13136:13139   */\n      dup4\n        /* \"#utility.yul\":13077:13144   */\n      tag_121\n      jump\t// in\n    tag_259:\n        /* \"#utility.yul\":13070:13144   */\n      swap2\n      pop\n        /* \"#utility.yul\":13153:13246   */\n      tag_260\n        /* \"#utility.yul\":13242:13245   */\n      dup3\n        /* \"#utility.yul\":13153:13246   */\n      tag_138\n      jump\t// in\n    tag_260:\n        /* \"#utility.yul\":13271:13273   */\n      0x40\n        /* \"#utility.yul\":13266:13269   */\n      dup3\n        /* \"#utility.yul\":13262:13274   */\n      add\n        /* \"#utility.yul\":13255:13274   */\n      swap1\n      pop\n        /* \"#utility.yul\":12914:13280   */\n      swap2\n      swap1\n      pop\n      jump\t// out\n        /* \"#utility.yul\":13286:13705   */\n    tag_94:\n        /* \"#utility.yul\":13452:13456   */\n      0x00\n        /* \"#utility.yul\":13490:13492   */\n      0x20\n        /* \"#utility.yul\":13479:13488   */\n      dup3\n        /* \"#utility.yul\":13475:13493   */\n      add\n        /* \"#utility.yul\":13467:13493   */\n      swap1\n      pop\n        /* \"#utility.yul\":13539:13548   */\n      dup2\n        /* \"#utility.yul\":13533:13537   */\n      dup2\n        /* \"#utility.yul\":13529:13549   */\n      sub\n        /* \"#utility.yul\":13525:13526   */\n      0x00\n        /* \"#utility.yul\":13514:13523   */\n      dup4\n        /* \"#utility.yul\":13510:13527   */\n      add\n        /* \"#utility.yul\":13503:13550   */\n      mstore\n        /* \"#utility.yul\":13567:13698   */\n      tag_262\n        /* \"#utility.yul\":13693:13697   */\n      dup2\n        /* \"#utility.yul\":13567:13698   */\n      tag_139\n      jump\t// in\n    tag_262:\n        /* \"#utility.yul\":13559:13698   */\n      swap1\n      pop\n        /* \"#utility.yul\":13286:13705   */\n      swap2\n      swap1\n      pop\n      jump\t// out\n        /* \"#utility.yul\":13711:13936   */\n    tag_140:\n        /* \"#utility.yul\":13851:13885   */\n      0x416d6f756e74206973206c6172676572207468616e20636f6e74726163742062\n        /* \"#utility.yul\":13847:13848   */\n      0x00\n        /* \"#utility.yul\":13839:13845   */\n      dup3\n        /* \"#utility.yul\":13835:13849   */\n      add\n        /* \"#utility.yul\":13828:13886   */\n      mstore\n        /* \"#utility.yul\":13920:13928   */\n      0x616c616e63650000000000000000000000000000000000000000000000000000\n        /* \"#utility.yul\":13915:13917   */\n      0x20\n        /* \"#utility.yul\":13907:13913   */\n      dup3\n        /* \"#utility.yul\":13903:13918   */\n      add\n        /* \"#utility.yul\":13896:13929   */\n      mstore\n        /* \"#utility.yul\":13711:13936   */\n      pop\n      jump\t// out\n        /* \"#utility.yul\":13942:14308   */\n    tag_141:\n        /* \"#utility.yul\":14084:14087   */\n      0x00\n        /* \"#utility.yul\":14105:14172   */\n      tag_265\n        /* \"#utility.yul\":14169:14171   */\n      0x26\n        /* \"#utility.yul\":14164:14167   */\n      dup4\n        /* \"#utility.yul\":14105:14172   */\n      tag_121\n      jump\t// in\n    tag_265:\n        /* \"#utility.yul\":14098:14172   */\n      swap2\n      pop\n        /* \"#utility.yul\":14181:14274   */\n      tag_266\n        /* \"#utility.yul\":14270:14273   */\n      dup3\n        /* \"#utility.yul\":14181:14274   */\n      tag_140\n      jump\t// in\n    tag_266:\n        /* \"#utility.yul\":14299:14301   */\n      0x40\n        /* \"#utility.yul\":14294:14297   */\n      dup3\n        /* \"#utility.yul\":14290:14302   */\n      add\n        /* \"#utility.yul\":14283:14302   */\n      swap1\n      pop\n        /* \"#utility.yul\":13942:14308   */\n      swap2\n      swap1\n      pop\n      jump\t// out\n        /* \"#utility.yul\":14314:14733   */\n    tag_102:\n        /* \"#utility.yul\":14480:14484   */\n      0x00\n        /* \"#utility.yul\":14518:14520   */\n      0x20\n        /* \"#utility.yul\":14507:14516   */\n      dup3\n        /* \"#utility.yul\":14503:14521   */\n      add\n        /* \"#utility.yul\":14495:14521   */\n      swap1\n      pop\n        /* \"#utility.yul\":14567:14576   */\n      dup2\n        /* \"#utility.yul\":14561:14565   */\n      dup2\n        /* \"#utility.yul\":14557:14577   */\n      sub\n        /* \"#utility.yul\":14553:14554   */\n      0x00\n        /* \"#utility.yul\":14542:14551   */\n      dup4\n        /* \"#utility.yul\":14538:14555   */\n      add\n        /* \"#utility.yul\":14531:14578   */\n      mstore\n        /* \"#utility.yul\":14595:14726   */\n      tag_268\n        /* \"#utility.yul\":14721:14725   */\n      dup2\n        /* \"#utility.yul\":14595:14726   */\n      tag_141\n      jump\t// in\n    tag_268:\n        /* \"#utility.yul\":14587:14726   */\n      swap1\n      pop\n        /* \"#utility.yul\":14314:14733   */\n      swap2\n      swap1\n      pop\n      jump\t// out\n\n    auxdata: 0xa2646970667358221220caed2601c7333653e3942dd910faa1d36b7ff8982887a4390a57db3571edb87f64736f6c634300080d0033\n}\n",
				"bytecode": {
					"linkReferences": {},
					"object": "608060405234801561001057600080fd5b50336000806101000a81548173ffffffffffffffffffffffffffffffffffffffff021916908373ffffffffffffffffffffffffffffffffffffffff160217905550611193806100606000396000f3fe6080604052600436106100865760003560e01c80633e7279a3116100595780633e7279a31461012757806341c61383146101505780638b7afe2e1461017b5780638da5cb5b146101a6578063d9c88e14146101d157610086565b8063015677391461008b57806305737314146100c957806316a51305146100d35780632d70db2f146100fe575b600080fd5b34801561009757600080fd5b506100b260048036038101906100ad9190610965565b6101fa565b6040516100c09291906109ab565b60405180910390f35b6100d161021e565b005b3480156100df57600080fd5b506100e8610227565b6040516100f591906109d4565b60405180910390f35b34801561010a57600080fd5b5061012560048036038101906101209190610a59565b61022d565b005b34801561013357600080fd5b5061014e60048036038101906101499190610a99565b61054e565b005b34801561015c57600080fd5b506101656107a4565b60405161017291906109d4565b60405180910390f35b34801561018757600080fd5b506101906107aa565b60405161019d91906109d4565b60405180910390f35b3480156101b257600080fd5b506101bb6107b0565b6040516101c89190610ae8565b60405180910390f35b3480156101dd57600080fd5b506101f860048036038101906101f39190610a59565b6107d4565b005b60016020528060005260406000206000915090508060000154908060010154905082565b47600481905550565b60025481565b60008054906101000a900473ffffffffffffffffffffffffffffffffffffffff1673ffffffffffffffffffffffffffffffffffffffff163373ffffffffffffffffffffffffffffffffffffffff16036102bb576040517f08c379a00000000000000000000000000000000000000000000000000000000081526004016102b290610b86565b60405180910390fd5b600047116102fe576040517f08c379a00000000000000000000000000000000000000000000000000000000081526004016102f590610c18565b60405180910390fd5b6000600160003373ffffffffffffffffffffffffffffffffffffffff1673ffffffffffffffffffffffffffffffffffffffff1681526020019081526020016000206000015411610383576040517f08c379a000000000000000000000000000000000000000000000000000000000815260040161037a90610c84565b60405180910390fd5b6000600160003373ffffffffffffffffffffffffffffffffffffffff1673ffffffffffffffffffffffffffffffffffffffff168152602001908152602001600020600101546064600354476103d89190610cd3565b600160003373ffffffffffffffffffffffffffffffffffffffff1673ffffffffffffffffffffffffffffffffffffffff168152602001908152602001600020600001546104259190610d29565b61042f9190610db2565b6104399190610de3565b90508082111561047e576040517f08c379a000000000000000000000000000000000000000000000000000000000815260040161047590610e63565b60405180910390fd5b81600160003373ffffffffffffffffffffffffffffffffffffffff1673ffffffffffffffffffffffffffffffffffffffff16815260200190815260200160002060010160008282546104d09190610cd3565b9250508190555081600360008282546104e99190610cd3565b9250508190555081476104fc9190610de3565b6004819055508273ffffffffffffffffffffffffffffffffffffffff166108fc839081150290604051600060405180830381858888f19350505050158015610548573d6000803e3d6000fd5b50505050565b60008054906101000a900473ffffffffffffffffffffffffffffffffffffffff1673ffffffffffffffffffffffffffffffffffffffff163373ffffffffffffffffffffffffffffffffffffffff16146105dc576040517f08c379a00000000000000000000000000000000000000000000000000000000081526004016105d390610ef5565b60405180910390fd5b60008054906101000a900473ffffffffffffffffffffffffffffffffffffffff1673ffffffffffffffffffffffffffffffffffffffff168273ffffffffffffffffffffffffffffffffffffffff160361066a576040517f08c379a000000000000000000000000000000000000000000000000000000000815260040161066190610f87565b60405180910390fd5b6000600160008473ffffffffffffffffffffffffffffffffffffffff1673ffffffffffffffffffffffffffffffffffffffff16815260200190815260200160002060000154146106ef576040517f08c379a00000000000000000000000000000000000000000000000000000000081526004016106e690611019565b60405180910390fd5b6064816002546106ff9190610cd3565b1115610740576040517f08c379a0000000000000000000000000000000000000000000000000000000008152600401610737906110ab565b60405180910390fd5b80600160008473ffffffffffffffffffffffffffffffffffffffff1673ffffffffffffffffffffffffffffffffffffffff1681526020019081526020016000206000018190555080600260008282546107999190610cd3565b925050819055505050565b60035481565b60045481565b60008054906101000a900473ffffffffffffffffffffffffffffffffffffffff1681565b60008054906101000a900473ffffffffffffffffffffffffffffffffffffffff1673ffffffffffffffffffffffffffffffffffffffff163373ffffffffffffffffffffffffffffffffffffffff1614610862576040517f08c379a000000000000000000000000000000000000000000000000000000000815260040161085990610ef5565b60405180910390fd5b478111156108a5576040517f08c379a000000000000000000000000000000000000000000000000000000000815260040161089c9061113d565b60405180910390fd5b80476108b19190610de3565b6004819055508173ffffffffffffffffffffffffffffffffffffffff166108fc829081150290604051600060405180830381858888f193505050501580156108fd573d6000803e3d6000fd5b505050565b600080fd5b600073ffffffffffffffffffffffffffffffffffffffff82169050919050565b600061093282610907565b9050919050565b61094281610927565b811461094d57600080fd5b50565b60008135905061095f81610939565b92915050565b60006020828403121561097b5761097a610902565b5b600061098984828501610950565b91505092915050565b6000819050919050565b6109a581610992565b82525050565b60006040820190506109c0600083018561099c565b6109cd602083018461099c565b9392505050565b60006020820190506109e9600083018461099c565b92915050565b60006109fa82610907565b9050919050565b610a0a816109ef565b8114610a1557600080fd5b50565b600081359050610a2781610a01565b92915050565b610a3681610992565b8114610a4157600080fd5b50565b600081359050610a5381610a2d565b92915050565b60008060408385031215610a7057610a6f610902565b5b6000610a7e85828601610a18565b9250506020610a8f85828601610a44565b9150509250929050565b60008060408385031215610ab057610aaf610902565b5b6000610abe85828601610950565b9250506020610acf85828601610a44565b9150509250929050565b610ae281610927565b82525050565b6000602082019050610afd6000830184610ad9565b92915050565b600082825260208201905092915050565b7f546865206f776e65722073686f756c6420757365206f776e657257697468647260008201527f61772066756e6374696f6e000000000000000000000000000000000000000000602082015250565b6000610b70602b83610b03565b9150610b7b82610b14565b604082019050919050565b60006020820190508181036000830152610b9f81610b63565b9050919050565b7f5468657265206973206e6f206d6f6e657920696e207468652077616c6c65742060008201527f746f20636c61696d000000000000000000000000000000000000000000000000602082015250565b6000610c02602883610b03565b9150610c0d82610ba6565b604082019050919050565b60006020820190508181036000830152610c3181610bf5565b9050919050565b7f596f7520646f206e6f74206861766520616e7920616c6c6f77616e6365000000600082015250565b6000610c6e601d83610b03565b9150610c7982610c38565b602082019050919050565b60006020820190508181036000830152610c9d81610c61565b9050919050565b7f4e487b7100000000000000000000000000000000000000000000000000000000600052601160045260246000fd5b6000610cde82610992565b9150610ce983610992565b9250827fffffffffffffffffffffffffffffffffffffffffffffffffffffffffffffffff03821115610d1e57610d1d610ca4565b5b828201905092915050565b6000610d3482610992565b9150610d3f83610992565b9250817fffffffffffffffffffffffffffffffffffffffffffffffffffffffffffffffff0483118215151615610d7857610d77610ca4565b5b828202905092915050565b7f4e487b7100000000000000000000000000000000000000000000000000000000600052601260045260246000fd5b6000610dbd82610992565b9150610dc883610992565b925082610dd857610dd7610d83565b5b828204905092915050565b6000610dee82610992565b9150610df983610992565b925082821015610e0c57610e0b610ca4565b5b828203905092915050565b7f54686520616d6f756e7420697320746f6f206869676800000000000000000000600082015250565b6000610e4d601683610b03565b9150610e5882610e17565b602082019050919050565b60006020820190508181036000830152610e7c81610e40565b9050919050565b7f596f7520617265206e6f7420616c6c6f776564202d206f6e6c7920746865206f60008201527f776e65722063616e20646f20746869732e000000000000000000000000000000602082015250565b6000610edf603183610b03565b9150610eea82610e83565b604082019050919050565b60006020820190508181036000830152610f0e81610ed2565b9050919050565b7f416e20616c6c6f77616e6365206973206e6f7420726571756972656420666f7260008201527f20746865206f776e657200000000000000000000000000000000000000000000602082015250565b6000610f71602a83610b03565b9150610f7c82610f15565b604082019050919050565b60006020820190508181036000830152610fa081610f64565b9050919050565b7f546865206164647265737320616c72656164792068617320616e20616c6c6f7760008201527f616e636500000000000000000000000000000000000000000000000000000000602082015250565b6000611003602483610b03565b915061100e82610fa7565b604082019050919050565b6000602082019050818103600083015261103281610ff6565b9050919050565b7f5468697320776f756c64206f7665722d616c6c6f636174652074686520616c6c60008201527f6f77616e63657300000000000000000000000000000000000000000000000000602082015250565b6000611095602783610b03565b91506110a082611039565b604082019050919050565b600060208201905081810360008301526110c481611088565b9050919050565b7f416d6f756e74206973206c6172676572207468616e20636f6e7472616374206260008201527f616c616e63650000000000000000000000000000000000000000000000000000602082015250565b6000611127602683610b03565b9150611132826110cb565b604082019050919050565b600060208201905081810360008301526111568161111a565b905091905056fea2646970667358221220caed2601c7333653e3942dd910faa1d36b7ff8982887a4390a57db3571edb87f64736f6c634300080d0033",
					"opcodes": "PUSH1 0x80 PUSH1 0x40 MSTORE CALLVALUE DUP1 ISZERO PUSH2 0x10 JUMPI PUSH1 0x0 DUP1 REVERT JUMPDEST POP CALLER PUSH1 0x0 DUP1 PUSH2 0x100 EXP DUP2 SLOAD DUP2 PUSH20 0xFFFFFFFFFFFFFFFFFFFFFFFFFFFFFFFFFFFFFFFF MUL NOT AND SWAP1 DUP4 PUSH20 0xFFFFFFFFFFFFFFFFFFFFFFFFFFFFFFFFFFFFFFFF AND MUL OR SWAP1 SSTORE POP PUSH2 0x1193 DUP1 PUSH2 0x60 PUSH1 0x0 CODECOPY PUSH1 0x0 RETURN INVALID PUSH1 0x80 PUSH1 0x40 MSTORE PUSH1 0x4 CALLDATASIZE LT PUSH2 0x86 JUMPI PUSH1 0x0 CALLDATALOAD PUSH1 0xE0 SHR DUP1 PUSH4 0x3E7279A3 GT PUSH2 0x59 JUMPI DUP1 PUSH4 0x3E7279A3 EQ PUSH2 0x127 JUMPI DUP1 PUSH4 0x41C61383 EQ PUSH2 0x150 JUMPI DUP1 PUSH4 0x8B7AFE2E EQ PUSH2 0x17B JUMPI DUP1 PUSH4 0x8DA5CB5B EQ PUSH2 0x1A6 JUMPI DUP1 PUSH4 0xD9C88E14 EQ PUSH2 0x1D1 JUMPI PUSH2 0x86 JUMP JUMPDEST DUP1 PUSH4 0x1567739 EQ PUSH2 0x8B JUMPI DUP1 PUSH4 0x5737314 EQ PUSH2 0xC9 JUMPI DUP1 PUSH4 0x16A51305 EQ PUSH2 0xD3 JUMPI DUP1 PUSH4 0x2D70DB2F EQ PUSH2 0xFE JUMPI JUMPDEST PUSH1 0x0 DUP1 REVERT JUMPDEST CALLVALUE DUP1 ISZERO PUSH2 0x97 JUMPI PUSH1 0x0 DUP1 REVERT JUMPDEST POP PUSH2 0xB2 PUSH1 0x4 DUP1 CALLDATASIZE SUB DUP2 ADD SWAP1 PUSH2 0xAD SWAP2 SWAP1 PUSH2 0x965 JUMP JUMPDEST PUSH2 0x1FA JUMP JUMPDEST PUSH1 0x40 MLOAD PUSH2 0xC0 SWAP3 SWAP2 SWAP1 PUSH2 0x9AB JUMP JUMPDEST PUSH1 0x40 MLOAD DUP1 SWAP2 SUB SWAP1 RETURN JUMPDEST PUSH2 0xD1 PUSH2 0x21E JUMP JUMPDEST STOP JUMPDEST CALLVALUE DUP1 ISZERO PUSH2 0xDF JUMPI PUSH1 0x0 DUP1 REVERT JUMPDEST POP PUSH2 0xE8 PUSH2 0x227 JUMP JUMPDEST PUSH1 0x40 MLOAD PUSH2 0xF5 SWAP2 SWAP1 PUSH2 0x9D4 JUMP JUMPDEST PUSH1 0x40 MLOAD DUP1 SWAP2 SUB SWAP1 RETURN JUMPDEST CALLVALUE DUP1 ISZERO PUSH2 0x10A JUMPI PUSH1 0x0 DUP1 REVERT JUMPDEST POP PUSH2 0x125 PUSH1 0x4 DUP1 CALLDATASIZE SUB DUP2 ADD SWAP1 PUSH2 0x120 SWAP2 SWAP1 PUSH2 0xA59 JUMP JUMPDEST PUSH2 0x22D JUMP JUMPDEST STOP JUMPDEST CALLVALUE DUP1 ISZERO PUSH2 0x133 JUMPI PUSH1 0x0 DUP1 REVERT JUMPDEST POP PUSH2 0x14E PUSH1 0x4 DUP1 CALLDATASIZE SUB DUP2 ADD SWAP1 PUSH2 0x149 SWAP2 SWAP1 PUSH2 0xA99 JUMP JUMPDEST PUSH2 0x54E JUMP JUMPDEST STOP JUMPDEST CALLVALUE DUP1 ISZERO PUSH2 0x15C JUMPI PUSH1 0x0 DUP1 REVERT JUMPDEST POP PUSH2 0x165 PUSH2 0x7A4 JUMP JUMPDEST PUSH1 0x40 MLOAD PUSH2 0x172 SWAP2 SWAP1 PUSH2 0x9D4 JUMP JUMPDEST PUSH1 0x40 MLOAD DUP1 SWAP2 SUB SWAP1 RETURN JUMPDEST CALLVALUE DUP1 ISZERO PUSH2 0x187 JUMPI PUSH1 0x0 DUP1 REVERT JUMPDEST POP PUSH2 0x190 PUSH2 0x7AA JUMP JUMPDEST PUSH1 0x40 MLOAD PUSH2 0x19D SWAP2 SWAP1 PUSH2 0x9D4 JUMP JUMPDEST PUSH1 0x40 MLOAD DUP1 SWAP2 SUB SWAP1 RETURN JUMPDEST CALLVALUE DUP1 ISZERO PUSH2 0x1B2 JUMPI PUSH1 0x0 DUP1 REVERT JUMPDEST POP PUSH2 0x1BB PUSH2 0x7B0 JUMP JUMPDEST PUSH1 0x40 MLOAD PUSH2 0x1C8 SWAP2 SWAP1 PUSH2 0xAE8 JUMP JUMPDEST PUSH1 0x40 MLOAD DUP1 SWAP2 SUB SWAP1 RETURN JUMPDEST CALLVALUE DUP1 ISZERO PUSH2 0x1DD JUMPI PUSH1 0x0 DUP1 REVERT JUMPDEST POP PUSH2 0x1F8 PUSH1 0x4 DUP1 CALLDATASIZE SUB DUP2 ADD SWAP1 PUSH2 0x1F3 SWAP2 SWAP1 PUSH2 0xA59 JUMP JUMPDEST PUSH2 0x7D4 JUMP JUMPDEST STOP JUMPDEST PUSH1 0x1 PUSH1 0x20 MSTORE DUP1 PUSH1 0x0 MSTORE PUSH1 0x40 PUSH1 0x0 KECCAK256 PUSH1 0x0 SWAP2 POP SWAP1 POP DUP1 PUSH1 0x0 ADD SLOAD SWAP1 DUP1 PUSH1 0x1 ADD SLOAD SWAP1 POP DUP3 JUMP JUMPDEST SELFBALANCE PUSH1 0x4 DUP2 SWAP1 SSTORE POP JUMP JUMPDEST PUSH1 0x2 SLOAD DUP2 JUMP JUMPDEST PUSH1 0x0 DUP1 SLOAD SWAP1 PUSH2 0x100 EXP SWAP1 DIV PUSH20 0xFFFFFFFFFFFFFFFFFFFFFFFFFFFFFFFFFFFFFFFF AND PUSH20 0xFFFFFFFFFFFFFFFFFFFFFFFFFFFFFFFFFFFFFFFF AND CALLER PUSH20 0xFFFFFFFFFFFFFFFFFFFFFFFFFFFFFFFFFFFFFFFF AND SUB PUSH2 0x2BB JUMPI PUSH1 0x40 MLOAD PUSH32 0x8C379A000000000000000000000000000000000000000000000000000000000 DUP2 MSTORE PUSH1 0x4 ADD PUSH2 0x2B2 SWAP1 PUSH2 0xB86 JUMP JUMPDEST PUSH1 0x40 MLOAD DUP1 SWAP2 SUB SWAP1 REVERT JUMPDEST PUSH1 0x0 SELFBALANCE GT PUSH2 0x2FE JUMPI PUSH1 0x40 MLOAD PUSH32 0x8C379A000000000000000000000000000000000000000000000000000000000 DUP2 MSTORE PUSH1 0x4 ADD PUSH2 0x2F5 SWAP1 PUSH2 0xC18 JUMP JUMPDEST PUSH1 0x40 MLOAD DUP1 SWAP2 SUB SWAP1 REVERT JUMPDEST PUSH1 0x0 PUSH1 0x1 PUSH1 0x0 CALLER PUSH20 0xFFFFFFFFFFFFFFFFFFFFFFFFFFFFFFFFFFFFFFFF AND PUSH20 0xFFFFFFFFFFFFFFFFFFFFFFFFFFFFFFFFFFFFFFFF AND DUP2 MSTORE PUSH1 0x20 ADD SWAP1 DUP2 MSTORE PUSH1 0x20 ADD PUSH1 0x0 KECCAK256 PUSH1 0x0 ADD SLOAD GT PUSH2 0x383 JUMPI PUSH1 0x40 MLOAD PUSH32 0x8C379A000000000000000000000000000000000000000000000000000000000 DUP2 MSTORE PUSH1 0x4 ADD PUSH2 0x37A SWAP1 PUSH2 0xC84 JUMP JUMPDEST PUSH1 0x40 MLOAD DUP1 SWAP2 SUB SWAP1 REVERT JUMPDEST PUSH1 0x0 PUSH1 0x1 PUSH1 0x0 CALLER PUSH20 0xFFFFFFFFFFFFFFFFFFFFFFFFFFFFFFFFFFFFFFFF AND PUSH20 0xFFFFFFFFFFFFFFFFFFFFFFFFFFFFFFFFFFFFFFFF AND DUP2 MSTORE PUSH1 0x20 ADD SWAP1 DUP2 MSTORE PUSH1 0x20 ADD PUSH1 0x0 KECCAK256 PUSH1 0x1 ADD SLOAD PUSH1 0x64 PUSH1 0x3 SLOAD SELFBALANCE PUSH2 0x3D8 SWAP2 SWAP1 PUSH2 0xCD3 JUMP JUMPDEST PUSH1 0x1 PUSH1 0x0 CALLER PUSH20 0xFFFFFFFFFFFFFFFFFFFFFFFFFFFFFFFFFFFFFFFF AND PUSH20 0xFFFFFFFFFFFFFFFFFFFFFFFFFFFFFFFFFFFFFFFF AND DUP2 MSTORE PUSH1 0x20 ADD SWAP1 DUP2 MSTORE PUSH1 0x20 ADD PUSH1 0x0 KECCAK256 PUSH1 0x0 ADD SLOAD PUSH2 0x425 SWAP2 SWAP1 PUSH2 0xD29 JUMP JUMPDEST PUSH2 0x42F SWAP2 SWAP1 PUSH2 0xDB2 JUMP JUMPDEST PUSH2 0x439 SWAP2 SWAP1 PUSH2 0xDE3 JUMP JUMPDEST SWAP1 POP DUP1 DUP3 GT ISZERO PUSH2 0x47E JUMPI PUSH1 0x40 MLOAD PUSH32 0x8C379A000000000000000000000000000000000000000000000000000000000 DUP2 MSTORE PUSH1 0x4 ADD PUSH2 0x475 SWAP1 PUSH2 0xE63 JUMP JUMPDEST PUSH1 0x40 MLOAD DUP1 SWAP2 SUB SWAP1 REVERT JUMPDEST DUP2 PUSH1 0x1 PUSH1 0x0 CALLER PUSH20 0xFFFFFFFFFFFFFFFFFFFFFFFFFFFFFFFFFFFFFFFF AND PUSH20 0xFFFFFFFFFFFFFFFFFFFFFFFFFFFFFFFFFFFFFFFF AND DUP2 MSTORE PUSH1 0x20 ADD SWAP1 DUP2 MSTORE PUSH1 0x20 ADD PUSH1 0x0 KECCAK256 PUSH1 0x1 ADD PUSH1 0x0 DUP3 DUP3 SLOAD PUSH2 0x4D0 SWAP2 SWAP1 PUSH2 0xCD3 JUMP JUMPDEST SWAP3 POP POP DUP2 SWAP1 SSTORE POP DUP2 PUSH1 0x3 PUSH1 0x0 DUP3 DUP3 SLOAD PUSH2 0x4E9 SWAP2 SWAP1 PUSH2 0xCD3 JUMP JUMPDEST SWAP3 POP POP DUP2 SWAP1 SSTORE POP DUP2 SELFBALANCE PUSH2 0x4FC SWAP2 SWAP1 PUSH2 0xDE3 JUMP JUMPDEST PUSH1 0x4 DUP2 SWAP1 SSTORE POP DUP3 PUSH20 0xFFFFFFFFFFFFFFFFFFFFFFFFFFFFFFFFFFFFFFFF AND PUSH2 0x8FC DUP4 SWAP1 DUP2 ISZERO MUL SWAP1 PUSH1 0x40 MLOAD PUSH1 0x0 PUSH1 0x40 MLOAD DUP1 DUP4 SUB DUP2 DUP6 DUP9 DUP9 CALL SWAP4 POP POP POP POP ISZERO DUP1 ISZERO PUSH2 0x548 JUMPI RETURNDATASIZE PUSH1 0x0 DUP1 RETURNDATACOPY RETURNDATASIZE PUSH1 0x0 REVERT JUMPDEST POP POP POP POP JUMP JUMPDEST PUSH1 0x0 DUP1 SLOAD SWAP1 PUSH2 0x100 EXP SWAP1 DIV PUSH20 0xFFFFFFFFFFFFFFFFFFFFFFFFFFFFFFFFFFFFFFFF AND PUSH20 0xFFFFFFFFFFFFFFFFFFFFFFFFFFFFFFFFFFFFFFFF AND CALLER PUSH20 0xFFFFFFFFFFFFFFFFFFFFFFFFFFFFFFFFFFFFFFFF AND EQ PUSH2 0x5DC JUMPI PUSH1 0x40 MLOAD PUSH32 0x8C379A000000000000000000000000000000000000000000000000000000000 DUP2 MSTORE PUSH1 0x4 ADD PUSH2 0x5D3 SWAP1 PUSH2 0xEF5 JUMP JUMPDEST PUSH1 0x40 MLOAD DUP1 SWAP2 SUB SWAP1 REVERT JUMPDEST PUSH1 0x0 DUP1 SLOAD SWAP1 PUSH2 0x100 EXP SWAP1 DIV PUSH20 0xFFFFFFFFFFFFFFFFFFFFFFFFFFFFFFFFFFFFFFFF AND PUSH20 0xFFFFFFFFFFFFFFFFFFFFFFFFFFFFFFFFFFFFFFFF AND DUP3 PUSH20 0xFFFFFFFFFFFFFFFFFFFFFFFFFFFFFFFFFFFFFFFF AND SUB PUSH2 0x66A JUMPI PUSH1 0x40 MLOAD PUSH32 0x8C379A000000000000000000000000000000000000000000000000000000000 DUP2 MSTORE PUSH1 0x4 ADD PUSH2 0x661 SWAP1 PUSH2 0xF87 JUMP JUMPDEST PUSH1 0x40 MLOAD DUP1 SWAP2 SUB SWAP1 REVERT JUMPDEST PUSH1 0x0 PUSH1 0x1 PUSH1 0x0 DUP5 PUSH20 0xFFFFFFFFFFFFFFFFFFFFFFFFFFFFFFFFFFFFFFFF AND PUSH20 0xFFFFFFFFFFFFFFFFFFFFFFFFFFFFFFFFFFFFFFFF AND DUP2 MSTORE PUSH1 0x20 ADD SWAP1 DUP2 MSTORE PUSH1 0x20 ADD PUSH1 0x0 KECCAK256 PUSH1 0x0 ADD SLOAD EQ PUSH2 0x6EF JUMPI PUSH1 0x40 MLOAD PUSH32 0x8C379A000000000000000000000000000000000000000000000000000000000 DUP2 MSTORE PUSH1 0x4 ADD PUSH2 0x6E6 SWAP1 PUSH2 0x1019 JUMP JUMPDEST PUSH1 0x40 MLOAD DUP1 SWAP2 SUB SWAP1 REVERT JUMPDEST PUSH1 0x64 DUP2 PUSH1 0x2 SLOAD PUSH2 0x6FF SWAP2 SWAP1 PUSH2 0xCD3 JUMP JUMPDEST GT ISZERO PUSH2 0x740 JUMPI PUSH1 0x40 MLOAD PUSH32 0x8C379A000000000000000000000000000000000000000000000000000000000 DUP2 MSTORE PUSH1 0x4 ADD PUSH2 0x737 SWAP1 PUSH2 0x10AB JUMP JUMPDEST PUSH1 0x40 MLOAD DUP1 SWAP2 SUB SWAP1 REVERT JUMPDEST DUP1 PUSH1 0x1 PUSH1 0x0 DUP5 PUSH20 0xFFFFFFFFFFFFFFFFFFFFFFFFFFFFFFFFFFFFFFFF AND PUSH20 0xFFFFFFFFFFFFFFFFFFFFFFFFFFFFFFFFFFFFFFFF AND DUP2 MSTORE PUSH1 0x20 ADD SWAP1 DUP2 MSTORE PUSH1 0x20 ADD PUSH1 0x0 KECCAK256 PUSH1 0x0 ADD DUP2 SWAP1 SSTORE POP DUP1 PUSH1 0x2 PUSH1 0x0 DUP3 DUP3 SLOAD PUSH2 0x799 SWAP2 SWAP1 PUSH2 0xCD3 JUMP JUMPDEST SWAP3 POP POP DUP2 SWAP1 SSTORE POP POP POP JUMP JUMPDEST PUSH1 0x3 SLOAD DUP2 JUMP JUMPDEST PUSH1 0x4 SLOAD DUP2 JUMP JUMPDEST PUSH1 0x0 DUP1 SLOAD SWAP1 PUSH2 0x100 EXP SWAP1 DIV PUSH20 0xFFFFFFFFFFFFFFFFFFFFFFFFFFFFFFFFFFFFFFFF AND DUP2 JUMP JUMPDEST PUSH1 0x0 DUP1 SLOAD SWAP1 PUSH2 0x100 EXP SWAP1 DIV PUSH20 0xFFFFFFFFFFFFFFFFFFFFFFFFFFFFFFFFFFFFFFFF AND PUSH20 0xFFFFFFFFFFFFFFFFFFFFFFFFFFFFFFFFFFFFFFFF AND CALLER PUSH20 0xFFFFFFFFFFFFFFFFFFFFFFFFFFFFFFFFFFFFFFFF AND EQ PUSH2 0x862 JUMPI PUSH1 0x40 MLOAD PUSH32 0x8C379A000000000000000000000000000000000000000000000000000000000 DUP2 MSTORE PUSH1 0x4 ADD PUSH2 0x859 SWAP1 PUSH2 0xEF5 JUMP JUMPDEST PUSH1 0x40 MLOAD DUP1 SWAP2 SUB SWAP1 REVERT JUMPDEST SELFBALANCE DUP2 GT ISZERO PUSH2 0x8A5 JUMPI PUSH1 0x40 MLOAD PUSH32 0x8C379A000000000000000000000000000000000000000000000000000000000 DUP2 MSTORE PUSH1 0x4 ADD PUSH2 0x89C SWAP1 PUSH2 0x113D JUMP JUMPDEST PUSH1 0x40 MLOAD DUP1 SWAP2 SUB SWAP1 REVERT JUMPDEST DUP1 SELFBALANCE PUSH2 0x8B1 SWAP2 SWAP1 PUSH2 0xDE3 JUMP JUMPDEST PUSH1 0x4 DUP2 SWAP1 SSTORE POP DUP2 PUSH20 0xFFFFFFFFFFFFFFFFFFFFFFFFFFFFFFFFFFFFFFFF AND PUSH2 0x8FC DUP3 SWAP1 DUP2 ISZERO MUL SWAP1 PUSH1 0x40 MLOAD PUSH1 0x0 PUSH1 0x40 MLOAD DUP1 DUP4 SUB DUP2 DUP6 DUP9 DUP9 CALL SWAP4 POP POP POP POP ISZERO DUP1 ISZERO PUSH2 0x8FD JUMPI RETURNDATASIZE PUSH1 0x0 DUP1 RETURNDATACOPY RETURNDATASIZE PUSH1 0x0 REVERT JUMPDEST POP POP POP JUMP JUMPDEST PUSH1 0x0 DUP1 REVERT JUMPDEST PUSH1 0x0 PUSH20 0xFFFFFFFFFFFFFFFFFFFFFFFFFFFFFFFFFFFFFFFF DUP3 AND SWAP1 POP SWAP2 SWAP1 POP JUMP JUMPDEST PUSH1 0x0 PUSH2 0x932 DUP3 PUSH2 0x907 JUMP JUMPDEST SWAP1 POP SWAP2 SWAP1 POP JUMP JUMPDEST PUSH2 0x942 DUP2 PUSH2 0x927 JUMP JUMPDEST DUP2 EQ PUSH2 0x94D JUMPI PUSH1 0x0 DUP1 REVERT JUMPDEST POP JUMP JUMPDEST PUSH1 0x0 DUP2 CALLDATALOAD SWAP1 POP PUSH2 0x95F DUP2 PUSH2 0x939 JUMP JUMPDEST SWAP3 SWAP2 POP POP JUMP JUMPDEST PUSH1 0x0 PUSH1 0x20 DUP3 DUP5 SUB SLT ISZERO PUSH2 0x97B JUMPI PUSH2 0x97A PUSH2 0x902 JUMP JUMPDEST JUMPDEST PUSH1 0x0 PUSH2 0x989 DUP5 DUP3 DUP6 ADD PUSH2 0x950 JUMP JUMPDEST SWAP2 POP POP SWAP3 SWAP2 POP POP JUMP JUMPDEST PUSH1 0x0 DUP2 SWAP1 POP SWAP2 SWAP1 POP JUMP JUMPDEST PUSH2 0x9A5 DUP2 PUSH2 0x992 JUMP JUMPDEST DUP3 MSTORE POP POP JUMP JUMPDEST PUSH1 0x0 PUSH1 0x40 DUP3 ADD SWAP1 POP PUSH2 0x9C0 PUSH1 0x0 DUP4 ADD DUP6 PUSH2 0x99C JUMP JUMPDEST PUSH2 0x9CD PUSH1 0x20 DUP4 ADD DUP5 PUSH2 0x99C JUMP JUMPDEST SWAP4 SWAP3 POP POP POP JUMP JUMPDEST PUSH1 0x0 PUSH1 0x20 DUP3 ADD SWAP1 POP PUSH2 0x9E9 PUSH1 0x0 DUP4 ADD DUP5 PUSH2 0x99C JUMP JUMPDEST SWAP3 SWAP2 POP POP JUMP JUMPDEST PUSH1 0x0 PUSH2 0x9FA DUP3 PUSH2 0x907 JUMP JUMPDEST SWAP1 POP SWAP2 SWAP1 POP JUMP JUMPDEST PUSH2 0xA0A DUP2 PUSH2 0x9EF JUMP JUMPDEST DUP2 EQ PUSH2 0xA15 JUMPI PUSH1 0x0 DUP1 REVERT JUMPDEST POP JUMP JUMPDEST PUSH1 0x0 DUP2 CALLDATALOAD SWAP1 POP PUSH2 0xA27 DUP2 PUSH2 0xA01 JUMP JUMPDEST SWAP3 SWAP2 POP POP JUMP JUMPDEST PUSH2 0xA36 DUP2 PUSH2 0x992 JUMP JUMPDEST DUP2 EQ PUSH2 0xA41 JUMPI PUSH1 0x0 DUP1 REVERT JUMPDEST POP JUMP JUMPDEST PUSH1 0x0 DUP2 CALLDATALOAD SWAP1 POP PUSH2 0xA53 DUP2 PUSH2 0xA2D JUMP JUMPDEST SWAP3 SWAP2 POP POP JUMP JUMPDEST PUSH1 0x0 DUP1 PUSH1 0x40 DUP4 DUP6 SUB SLT ISZERO PUSH2 0xA70 JUMPI PUSH2 0xA6F PUSH2 0x902 JUMP JUMPDEST JUMPDEST PUSH1 0x0 PUSH2 0xA7E DUP6 DUP3 DUP7 ADD PUSH2 0xA18 JUMP JUMPDEST SWAP3 POP POP PUSH1 0x20 PUSH2 0xA8F DUP6 DUP3 DUP7 ADD PUSH2 0xA44 JUMP JUMPDEST SWAP2 POP POP SWAP3 POP SWAP3 SWAP1 POP JUMP JUMPDEST PUSH1 0x0 DUP1 PUSH1 0x40 DUP4 DUP6 SUB SLT ISZERO PUSH2 0xAB0 JUMPI PUSH2 0xAAF PUSH2 0x902 JUMP JUMPDEST JUMPDEST PUSH1 0x0 PUSH2 0xABE DUP6 DUP3 DUP7 ADD PUSH2 0x950 JUMP JUMPDEST SWAP3 POP POP PUSH1 0x20 PUSH2 0xACF DUP6 DUP3 DUP7 ADD PUSH2 0xA44 JUMP JUMPDEST SWAP2 POP POP SWAP3 POP SWAP3 SWAP1 POP JUMP JUMPDEST PUSH2 0xAE2 DUP2 PUSH2 0x927 JUMP JUMPDEST DUP3 MSTORE POP POP JUMP JUMPDEST PUSH1 0x0 PUSH1 0x20 DUP3 ADD SWAP1 POP PUSH2 0xAFD PUSH1 0x0 DUP4 ADD DUP5 PUSH2 0xAD9 JUMP JUMPDEST SWAP3 SWAP2 POP POP JUMP JUMPDEST PUSH1 0x0 DUP3 DUP3 MSTORE PUSH1 0x20 DUP3 ADD SWAP1 POP SWAP3 SWAP2 POP POP JUMP JUMPDEST PUSH32 0x546865206F776E65722073686F756C6420757365206F776E6572576974686472 PUSH1 0x0 DUP3 ADD MSTORE PUSH32 0x61772066756E6374696F6E000000000000000000000000000000000000000000 PUSH1 0x20 DUP3 ADD MSTORE POP JUMP JUMPDEST PUSH1 0x0 PUSH2 0xB70 PUSH1 0x2B DUP4 PUSH2 0xB03 JUMP JUMPDEST SWAP2 POP PUSH2 0xB7B DUP3 PUSH2 0xB14 JUMP JUMPDEST PUSH1 0x40 DUP3 ADD SWAP1 POP SWAP2 SWAP1 POP JUMP JUMPDEST PUSH1 0x0 PUSH1 0x20 DUP3 ADD SWAP1 POP DUP2 DUP2 SUB PUSH1 0x0 DUP4 ADD MSTORE PUSH2 0xB9F DUP2 PUSH2 0xB63 JUMP JUMPDEST SWAP1 POP SWAP2 SWAP1 POP JUMP JUMPDEST PUSH32 0x5468657265206973206E6F206D6F6E657920696E207468652077616C6C657420 PUSH1 0x0 DUP3 ADD MSTORE PUSH32 0x746F20636C61696D000000000000000000000000000000000000000000000000 PUSH1 0x20 DUP3 ADD MSTORE POP JUMP JUMPDEST PUSH1 0x0 PUSH2 0xC02 PUSH1 0x28 DUP4 PUSH2 0xB03 JUMP JUMPDEST SWAP2 POP PUSH2 0xC0D DUP3 PUSH2 0xBA6 JUMP JUMPDEST PUSH1 0x40 DUP3 ADD SWAP1 POP SWAP2 SWAP1 POP JUMP JUMPDEST PUSH1 0x0 PUSH1 0x20 DUP3 ADD SWAP1 POP DUP2 DUP2 SUB PUSH1 0x0 DUP4 ADD MSTORE PUSH2 0xC31 DUP2 PUSH2 0xBF5 JUMP JUMPDEST SWAP1 POP SWAP2 SWAP1 POP JUMP JUMPDEST PUSH32 0x596F7520646F206E6F74206861766520616E7920616C6C6F77616E6365000000 PUSH1 0x0 DUP3 ADD MSTORE POP JUMP JUMPDEST PUSH1 0x0 PUSH2 0xC6E PUSH1 0x1D DUP4 PUSH2 0xB03 JUMP JUMPDEST SWAP2 POP PUSH2 0xC79 DUP3 PUSH2 0xC38 JUMP JUMPDEST PUSH1 0x20 DUP3 ADD SWAP1 POP SWAP2 SWAP1 POP JUMP JUMPDEST PUSH1 0x0 PUSH1 0x20 DUP3 ADD SWAP1 POP DUP2 DUP2 SUB PUSH1 0x0 DUP4 ADD MSTORE PUSH2 0xC9D DUP2 PUSH2 0xC61 JUMP JUMPDEST SWAP1 POP SWAP2 SWAP1 POP JUMP JUMPDEST PUSH32 0x4E487B7100000000000000000000000000000000000000000000000000000000 PUSH1 0x0 MSTORE PUSH1 0x11 PUSH1 0x4 MSTORE PUSH1 0x24 PUSH1 0x0 REVERT JUMPDEST PUSH1 0x0 PUSH2 0xCDE DUP3 PUSH2 0x992 JUMP JUMPDEST SWAP2 POP PUSH2 0xCE9 DUP4 PUSH2 0x992 JUMP JUMPDEST SWAP3 POP DUP3 PUSH32 0xFFFFFFFFFFFFFFFFFFFFFFFFFFFFFFFFFFFFFFFFFFFFFFFFFFFFFFFFFFFFFFFF SUB DUP3 GT ISZERO PUSH2 0xD1E JUMPI PUSH2 0xD1D PUSH2 0xCA4 JUMP JUMPDEST JUMPDEST DUP3 DUP3 ADD SWAP1 POP SWAP3 SWAP2 POP POP JUMP JUMPDEST PUSH1 0x0 PUSH2 0xD34 DUP3 PUSH2 0x992 JUMP JUMPDEST SWAP2 POP PUSH2 0xD3F DUP4 PUSH2 0x992 JUMP JUMPDEST SWAP3 POP DUP2 PUSH32 0xFFFFFFFFFFFFFFFFFFFFFFFFFFFFFFFFFFFFFFFFFFFFFFFFFFFFFFFFFFFFFFFF DIV DUP4 GT DUP3 ISZERO ISZERO AND ISZERO PUSH2 0xD78 JUMPI PUSH2 0xD77 PUSH2 0xCA4 JUMP JUMPDEST JUMPDEST DUP3 DUP3 MUL SWAP1 POP SWAP3 SWAP2 POP POP JUMP JUMPDEST PUSH32 0x4E487B7100000000000000000000000000000000000000000000000000000000 PUSH1 0x0 MSTORE PUSH1 0x12 PUSH1 0x4 MSTORE PUSH1 0x24 PUSH1 0x0 REVERT JUMPDEST PUSH1 0x0 PUSH2 0xDBD DUP3 PUSH2 0x992 JUMP JUMPDEST SWAP2 POP PUSH2 0xDC8 DUP4 PUSH2 0x992 JUMP JUMPDEST SWAP3 POP DUP3 PUSH2 0xDD8 JUMPI PUSH2 0xDD7 PUSH2 0xD83 JUMP JUMPDEST JUMPDEST DUP3 DUP3 DIV SWAP1 POP SWAP3 SWAP2 POP POP JUMP JUMPDEST PUSH1 0x0 PUSH2 0xDEE DUP3 PUSH2 0x992 JUMP JUMPDEST SWAP2 POP PUSH2 0xDF9 DUP4 PUSH2 0x992 JUMP JUMPDEST SWAP3 POP DUP3 DUP3 LT ISZERO PUSH2 0xE0C JUMPI PUSH2 0xE0B PUSH2 0xCA4 JUMP JUMPDEST JUMPDEST DUP3 DUP3 SUB SWAP1 POP SWAP3 SWAP2 POP POP JUMP JUMPDEST PUSH32 0x54686520616D6F756E7420697320746F6F206869676800000000000000000000 PUSH1 0x0 DUP3 ADD MSTORE POP JUMP JUMPDEST PUSH1 0x0 PUSH2 0xE4D PUSH1 0x16 DUP4 PUSH2 0xB03 JUMP JUMPDEST SWAP2 POP PUSH2 0xE58 DUP3 PUSH2 0xE17 JUMP JUMPDEST PUSH1 0x20 DUP3 ADD SWAP1 POP SWAP2 SWAP1 POP JUMP JUMPDEST PUSH1 0x0 PUSH1 0x20 DUP3 ADD SWAP1 POP DUP2 DUP2 SUB PUSH1 0x0 DUP4 ADD MSTORE PUSH2 0xE7C DUP2 PUSH2 0xE40 JUMP JUMPDEST SWAP1 POP SWAP2 SWAP1 POP JUMP JUMPDEST PUSH32 0x596F7520617265206E6F7420616C6C6F776564202D206F6E6C7920746865206F PUSH1 0x0 DUP3 ADD MSTORE PUSH32 0x776E65722063616E20646F20746869732E000000000000000000000000000000 PUSH1 0x20 DUP3 ADD MSTORE POP JUMP JUMPDEST PUSH1 0x0 PUSH2 0xEDF PUSH1 0x31 DUP4 PUSH2 0xB03 JUMP JUMPDEST SWAP2 POP PUSH2 0xEEA DUP3 PUSH2 0xE83 JUMP JUMPDEST PUSH1 0x40 DUP3 ADD SWAP1 POP SWAP2 SWAP1 POP JUMP JUMPDEST PUSH1 0x0 PUSH1 0x20 DUP3 ADD SWAP1 POP DUP2 DUP2 SUB PUSH1 0x0 DUP4 ADD MSTORE PUSH2 0xF0E DUP2 PUSH2 0xED2 JUMP JUMPDEST SWAP1 POP SWAP2 SWAP1 POP JUMP JUMPDEST PUSH32 0x416E20616C6C6F77616E6365206973206E6F7420726571756972656420666F72 PUSH1 0x0 DUP3 ADD MSTORE PUSH32 0x20746865206F776E657200000000000000000000000000000000000000000000 PUSH1 0x20 DUP3 ADD MSTORE POP JUMP JUMPDEST PUSH1 0x0 PUSH2 0xF71 PUSH1 0x2A DUP4 PUSH2 0xB03 JUMP JUMPDEST SWAP2 POP PUSH2 0xF7C DUP3 PUSH2 0xF15 JUMP JUMPDEST PUSH1 0x40 DUP3 ADD SWAP1 POP SWAP2 SWAP1 POP JUMP JUMPDEST PUSH1 0x0 PUSH1 0x20 DUP3 ADD SWAP1 POP DUP2 DUP2 SUB PUSH1 0x0 DUP4 ADD MSTORE PUSH2 0xFA0 DUP2 PUSH2 0xF64 JUMP JUMPDEST SWAP1 POP SWAP2 SWAP1 POP JUMP JUMPDEST PUSH32 0x546865206164647265737320616C72656164792068617320616E20616C6C6F77 PUSH1 0x0 DUP3 ADD MSTORE PUSH32 0x616E636500000000000000000000000000000000000000000000000000000000 PUSH1 0x20 DUP3 ADD MSTORE POP JUMP JUMPDEST PUSH1 0x0 PUSH2 0x1003 PUSH1 0x24 DUP4 PUSH2 0xB03 JUMP JUMPDEST SWAP2 POP PUSH2 0x100E DUP3 PUSH2 0xFA7 JUMP JUMPDEST PUSH1 0x40 DUP3 ADD SWAP1 POP SWAP2 SWAP1 POP JUMP JUMPDEST PUSH1 0x0 PUSH1 0x20 DUP3 ADD SWAP1 POP DUP2 DUP2 SUB PUSH1 0x0 DUP4 ADD MSTORE PUSH2 0x1032 DUP2 PUSH2 0xFF6 JUMP JUMPDEST SWAP1 POP SWAP2 SWAP1 POP JUMP JUMPDEST PUSH32 0x5468697320776F756C64206F7665722D616C6C6F636174652074686520616C6C PUSH1 0x0 DUP3 ADD MSTORE PUSH32 0x6F77616E63657300000000000000000000000000000000000000000000000000 PUSH1 0x20 DUP3 ADD MSTORE POP JUMP JUMPDEST PUSH1 0x0 PUSH2 0x1095 PUSH1 0x27 DUP4 PUSH2 0xB03 JUMP JUMPDEST SWAP2 POP PUSH2 0x10A0 DUP3 PUSH2 0x1039 JUMP JUMPDEST PUSH1 0x40 DUP3 ADD SWAP1 POP SWAP2 SWAP1 POP JUMP JUMPDEST PUSH1 0x0 PUSH1 0x20 DUP3 ADD SWAP1 POP DUP2 DUP2 SUB PUSH1 0x0 DUP4 ADD MSTORE PUSH2 0x10C4 DUP2 PUSH2 0x1088 JUMP JUMPDEST SWAP1 POP SWAP2 SWAP1 POP JUMP JUMPDEST PUSH32 0x416D6F756E74206973206C6172676572207468616E20636F6E74726163742062 PUSH1 0x0 DUP3 ADD MSTORE PUSH32 0x616C616E63650000000000000000000000000000000000000000000000000000 PUSH1 0x20 DUP3 ADD MSTORE POP JUMP JUMPDEST PUSH1 0x0 PUSH2 0x1127 PUSH1 0x26 DUP4 PUSH2 0xB03 JUMP JUMPDEST SWAP2 POP PUSH2 0x1132 DUP3 PUSH2 0x10CB JUMP JUMPDEST PUSH1 0x40 DUP3 ADD SWAP1 POP SWAP2 SWAP1 POP JUMP JUMPDEST PUSH1 0x0 PUSH1 0x20 DUP3 ADD SWAP1 POP DUP2 DUP2 SUB PUSH1 0x0 DUP4 ADD MSTORE PUSH2 0x1156 DUP2 PUSH2 0x111A JUMP JUMPDEST SWAP1 POP SWAP2 SWAP1 POP JUMP INVALID LOG2 PUSH5 0x6970667358 0x22 SLT KECCAK256 0xCA 0xED 0x26 ADD 0xC7 CALLER CALLDATASIZE MSTORE8 0xE3 SWAP5 0x2D 0xD9 LT STATICCALL LOG1 0xD3 PUSH12 0x7FF8982887A4390A57DB3571 0xED 0xB8 PUSH32 0x64736F6C634300080D0033000000000000000000000000000000000000000000 "
				},
				"gasEstimates": {
					"creation": {
						"codeDepositCost": "899800",
						"executionCost": "25201",
						"totalCost": "925001"
					},
					"external": {
						"ClaimMoney(address,uint256)": "infinite",
						"SendMoney()": "22259",
						"SetAllowance(address,uint256)": "infinite",
						"beneficiaries(address)": "infinite",
						"contractBalance()": "2473",
						"owner()": "2577",
						"ownerWithdraw(address,uint256)": "infinite",
						"totalAllowances()": "2474",
						"totalClaims()": "2451"
					}
				},
				"methodIdentifiers": {
					"ClaimMoney(address,uint256)": "2d70db2f",
					"SendMoney()": "05737314",
					"SetAllowance(address,uint256)": "3e7279a3",
					"beneficiaries(address)": "01567739",
					"contractBalance()": "8b7afe2e",
					"owner()": "8da5cb5b",
					"ownerWithdraw(address,uint256)": "d9c88e14",
					"totalAllowances()": "16a51305",
					"totalClaims()": "41c61383"
				}
			},
			"storageLayout": {
				"storage": [
					{
						"astId": 8,
						"contract": "MyProjectSharedWallet.sol:SharedWallet",
						"label": "owner",
						"offset": 0,
						"slot": "0",
						"type": "t_address"
					},
					{
						"astId": 13,
						"contract": "MyProjectSharedWallet.sol:SharedWallet",
						"label": "beneficiaries",
						"offset": 0,
						"slot": "1",
						"type": "t_mapping(t_address,t_struct(BeneficiaryDetails)6_storage)"
					},
					{
						"astId": 15,
						"contract": "MyProjectSharedWallet.sol:SharedWallet",
						"label": "totalAllowances",
						"offset": 0,
						"slot": "2",
						"type": "t_uint256"
					},
					{
						"astId": 17,
						"contract": "MyProjectSharedWallet.sol:SharedWallet",
						"label": "totalClaims",
						"offset": 0,
						"slot": "3",
						"type": "t_uint256"
					},
					{
						"astId": 19,
						"contract": "MyProjectSharedWallet.sol:SharedWallet",
						"label": "contractBalance",
						"offset": 0,
						"slot": "4",
						"type": "t_uint256"
					}
				],
				"types": {
					"t_address": {
						"encoding": "inplace",
						"label": "address",
						"numberOfBytes": "20"
					},
					"t_mapping(t_address,t_struct(BeneficiaryDetails)6_storage)": {
						"encoding": "mapping",
						"key": "t_address",
						"label": "mapping(address => struct SharedWallet.BeneficiaryDetails)",
						"numberOfBytes": "32",
						"value": "t_struct(BeneficiaryDetails)6_storage"
					},
					"t_struct(BeneficiaryDetails)6_storage": {
						"encoding": "inplace",
						"label": "struct SharedWallet.BeneficiaryDetails",
						"members": [
							{
								"astId": 3,
								"contract": "MyProjectSharedWallet.sol:SharedWallet",
								"label": "allowance",
								"offset": 0,
								"slot": "0",
								"type": "t_uint256"
							},
							{
								"astId": 5,
								"contract": "MyProjectSharedWallet.sol:SharedWallet",
								"label": "claimsMade",
								"offset": 0,
								"slot": "1",
								"type": "t_uint256"
							}
						],
						"numberOfBytes": "64"
					},
					"t_uint256": {
						"encoding": "inplace",
						"label": "uint256",
						"numberOfBytes": "32"
					}
				}
			},
			"userdoc": {
				"kind": "user",
				"methods": {},
				"version": 1
			}
		}
	}
}