{
	"CompileVariables.sol": {
		"WorkingWithVariables": {
			"abi": [
				{
					"inputs": [],
					"name": "getBalanceOfAddress",
					"outputs": [
						{
							"internalType": "uint256",
							"name": "",
							"type": "uint256"
						}
					],
					"stateMutability": "view",
					"type": "function"
				},
				{
					"inputs": [],
					"name": "myAddress",
					"outputs": [
						{
							"internalType": "address",
							"name": "",
							"type": "address"
						}
					],
					"stateMutability": "view",
					"type": "function"
				},
				{
					"inputs": [],
					"name": "myString",
					"outputs": [
						{
							"internalType": "string",
							"name": "",
							"type": "string"
						}
					],
					"stateMutability": "view",
					"type": "function"
				},
				{
					"inputs": [],
					"name": "myUint",
					"outputs": [
						{
							"internalType": "uint256",
							"name": "",
							"type": "uint256"
						}
					],
					"stateMutability": "view",
					"type": "function"
				},
				{
					"inputs": [
						{
							"internalType": "address",
							"name": "_address",
							"type": "address"
						}
					],
					"name": "setMyAddress",
					"outputs": [],
					"stateMutability": "nonpayable",
					"type": "function"
				},
				{
					"inputs": [
						{
							"internalType": "string",
							"name": "_myString",
							"type": "string"
						}
					],
					"name": "setMyString",
					"outputs": [],
					"stateMutability": "nonpayable",
					"type": "function"
				},
				{
					"inputs": [
						{
							"internalType": "uint256",
							"name": "_myUint",
							"type": "uint256"
						}
					],
					"name": "setMyUint",
					"outputs": [],
					"stateMutability": "nonpayable",
					"type": "function"
				}
			],
			"devdoc": {
				"kind": "dev",
				"methods": {},
				"version": 1
			},
			"evm": {
				"assembly": "    /* \"CompileVariables.sol\":25:505  contract WorkingWithVariables {... */\n  mstore(0x40, 0x80)\n  callvalue\n  dup1\n  iszero\n  tag_1\n  jumpi\n  0x00\n  dup1\n  revert\ntag_1:\n  pop\n  dataSize(sub_0)\n  dup1\n  dataOffset(sub_0)\n  0x00\n  codecopy\n  0x00\n  return\nstop\n\nsub_0: assembly {\n        /* \"CompileVariables.sol\":25:505  contract WorkingWithVariables {... */\n      mstore(0x40, 0x80)\n      callvalue\n      dup1\n      iszero\n      tag_1\n      jumpi\n      0x00\n      dup1\n      revert\n    tag_1:\n      pop\n      jumpi(tag_2, lt(calldatasize, 0x04))\n      shr(0xe0, calldataload(0x00))\n      dup1\n      0x492bfa18\n      gt\n      tag_10\n      jumpi\n      dup1\n      0x492bfa18\n      eq\n      tag_6\n      jumpi\n      dup1\n      0x82180568\n      eq\n      tag_7\n      jumpi\n      dup1\n      0xa8a7b895\n      eq\n      tag_8\n      jumpi\n      dup1\n      0xe492fd84\n      eq\n      tag_9\n      jumpi\n      jump(tag_2)\n    tag_10:\n      dup1\n      0x06540f7e\n      eq\n      tag_3\n      jumpi\n      dup1\n      0x15502612\n      eq\n      tag_4\n      jumpi\n      dup1\n      0x26b85ee1\n      eq\n      tag_5\n      jumpi\n    tag_2:\n      0x00\n      dup1\n      revert\n        /* \"CompileVariables.sol\":61:82  uint256 public myUint */\n    tag_3:\n      tag_11\n      tag_12\n      jump\t// in\n    tag_11:\n      mload(0x40)\n      tag_13\n      swap2\n      swap1\n      tag_14\n      jump\t// in\n    tag_13:\n      mload(0x40)\n      dup1\n      swap2\n      sub\n      swap1\n      return\n        /* \"CompileVariables.sol\":283:381  function getBalanceOfAddress() public view returns(uint) {... */\n    tag_4:\n      tag_15\n      tag_16\n      jump\t// in\n    tag_15:\n      mload(0x40)\n      tag_17\n      swap2\n      swap1\n      tag_14\n      jump\t// in\n    tag_17:\n      mload(0x40)\n      dup1\n      swap2\n      sub\n      swap1\n      return\n        /* \"CompileVariables.sol\":165:189  address public myAddress */\n    tag_5:\n      tag_18\n      tag_19\n      jump\t// in\n    tag_18:\n      mload(0x40)\n      tag_20\n      swap2\n      swap1\n      tag_21\n      jump\t// in\n    tag_20:\n      mload(0x40)\n      dup1\n      swap2\n      sub\n      swap1\n      return\n        /* \"CompileVariables.sol\":387:409  string public myString */\n    tag_6:\n      tag_22\n      tag_23\n      jump\t// in\n    tag_22:\n      mload(0x40)\n      tag_24\n      swap2\n      swap1\n      tag_25\n      jump\t// in\n    tag_24:\n      mload(0x40)\n      dup1\n      swap2\n      sub\n      swap1\n      return\n        /* \"CompileVariables.sol\":415:503  function setMyString(string memory _myString) public {... */\n    tag_7:\n      tag_26\n      0x04\n      dup1\n      calldatasize\n      sub\n      dup2\n      add\n      swap1\n      tag_27\n      swap2\n      swap1\n      tag_28\n      jump\t// in\n    tag_27:\n      tag_29\n      jump\t// in\n    tag_26:\n      stop\n        /* \"CompileVariables.sol\":195:277  function setMyAddress(address _address) public {... */\n    tag_8:\n      tag_30\n      0x04\n      dup1\n      calldatasize\n      sub\n      dup2\n      add\n      swap1\n      tag_31\n      swap2\n      swap1\n      tag_32\n      jump\t// in\n    tag_31:\n      tag_33\n      jump\t// in\n    tag_30:\n      stop\n        /* \"CompileVariables.sol\":88:159  function setMyUint(uint _myUint) public {... */\n    tag_9:\n      tag_34\n      0x04\n      dup1\n      calldatasize\n      sub\n      dup2\n      add\n      swap1\n      tag_35\n      swap2\n      swap1\n      tag_36\n      jump\t// in\n    tag_35:\n      tag_37\n      jump\t// in\n    tag_34:\n      stop\n        /* \"CompileVariables.sol\":61:82  uint256 public myUint */\n    tag_12:\n      sload(0x00)\n      dup2\n      jump\t// out\n        /* \"CompileVariables.sol\":283:381  function getBalanceOfAddress() public view returns(uint) {... */\n    tag_16:\n        /* \"CompileVariables.sol\":334:338  uint */\n      0x00\n        /* \"CompileVariables.sol\":357:366  myAddress */\n      0x01\n      0x00\n      swap1\n      sload\n      swap1\n      0x0100\n      exp\n      swap1\n      div\n      0xffffffffffffffffffffffffffffffffffffffff\n      and\n        /* \"CompileVariables.sol\":357:374  myAddress.balance */\n      0xffffffffffffffffffffffffffffffffffffffff\n      and\n      balance\n        /* \"CompileVariables.sol\":350:374  return myAddress.balance */\n      swap1\n      pop\n        /* \"CompileVariables.sol\":283:381  function getBalanceOfAddress() public view returns(uint) {... */\n      swap1\n      jump\t// out\n        /* \"CompileVariables.sol\":165:189  address public myAddress */\n    tag_19:\n      0x01\n      0x00\n      swap1\n      sload\n      swap1\n      0x0100\n      exp\n      swap1\n      div\n      0xffffffffffffffffffffffffffffffffffffffff\n      and\n      dup2\n      jump\t// out\n        /* \"CompileVariables.sol\":387:409  string public myString */\n    tag_23:\n      0x02\n      dup1\n      sload\n      tag_39\n      swap1\n      tag_40\n      jump\t// in\n    tag_39:\n      dup1\n      0x1f\n      add\n      0x20\n      dup1\n      swap2\n      div\n      mul\n      0x20\n      add\n      mload(0x40)\n      swap1\n      dup2\n      add\n      0x40\n      mstore\n      dup1\n      swap3\n      swap2\n      swap1\n      dup2\n      dup2\n      mstore\n      0x20\n      add\n      dup3\n      dup1\n      sload\n      tag_41\n      swap1\n      tag_40\n      jump\t// in\n    tag_41:\n      dup1\n      iszero\n      tag_42\n      jumpi\n      dup1\n      0x1f\n      lt\n      tag_43\n      jumpi\n      0x0100\n      dup1\n      dup4\n      sload\n      div\n      mul\n      dup4\n      mstore\n      swap2\n      0x20\n      add\n      swap2\n      jump(tag_42)\n    tag_43:\n      dup3\n      add\n      swap2\n      swap1\n      0x00\n      mstore\n      keccak256(0x00, 0x20)\n      swap1\n    tag_44:\n      dup2\n      sload\n      dup2\n      mstore\n      swap1\n      0x01\n      add\n      swap1\n      0x20\n      add\n      dup1\n      dup4\n      gt\n      tag_44\n      jumpi\n      dup3\n      swap1\n      sub\n      0x1f\n      and\n      dup3\n      add\n      swap2\n    tag_42:\n      pop\n      pop\n      pop\n      pop\n      pop\n      dup2\n      jump\t// out\n        /* \"CompileVariables.sol\":415:503  function setMyString(string memory _myString) public {... */\n    tag_29:\n        /* \"CompileVariables.sol\":487:496  _myString */\n      dup1\n        /* \"CompileVariables.sol\":478:486  myString */\n      0x02\n        /* \"CompileVariables.sol\":478:496  myString=_myString */\n      swap1\n      dup1\n      mload\n      swap1\n      0x20\n      add\n      swap1\n      tag_46\n      swap3\n      swap2\n      swap1\n      tag_47\n      jump\t// in\n    tag_46:\n      pop\n        /* \"CompileVariables.sol\":415:503  function setMyString(string memory _myString) public {... */\n      pop\n      jump\t// out\n        /* \"CompileVariables.sol\":195:277  function setMyAddress(address _address) public {... */\n    tag_33:\n        /* \"CompileVariables.sol\":262:270  _address */\n      dup1\n        /* \"CompileVariables.sol\":252:261  myAddress */\n      0x01\n      0x00\n        /* \"CompileVariables.sol\":252:270  myAddress=_address */\n      0x0100\n      exp\n      dup2\n      sload\n      dup2\n      0xffffffffffffffffffffffffffffffffffffffff\n      mul\n      not\n      and\n      swap1\n      dup4\n      0xffffffffffffffffffffffffffffffffffffffff\n      and\n      mul\n      or\n      swap1\n      sstore\n      pop\n        /* \"CompileVariables.sol\":195:277  function setMyAddress(address _address) public {... */\n      pop\n      jump\t// out\n        /* \"CompileVariables.sol\":88:159  function setMyUint(uint _myUint) public {... */\n    tag_37:\n        /* \"CompileVariables.sol\":145:152  _myUint */\n      dup1\n        /* \"CompileVariables.sol\":138:144  myUint */\n      0x00\n        /* \"CompileVariables.sol\":138:152  myUint=_myUint */\n      dup2\n      swap1\n      sstore\n      pop\n        /* \"CompileVariables.sol\":88:159  function setMyUint(uint _myUint) public {... */\n      pop\n      jump\t// out\n    tag_47:\n      dup3\n      dup1\n      sload\n      tag_50\n      swap1\n      tag_40\n      jump\t// in\n    tag_50:\n      swap1\n      0x00\n      mstore\n      keccak256(0x00, 0x20)\n      swap1\n      0x1f\n      add\n      0x20\n      swap1\n      div\n      dup2\n      add\n      swap3\n      dup3\n      tag_52\n      jumpi\n      0x00\n      dup6\n      sstore\n      jump(tag_51)\n    tag_52:\n      dup3\n      0x1f\n      lt\n      tag_53\n      jumpi\n      dup1\n      mload\n      not(0xff)\n      and\n      dup4\n      dup1\n      add\n      or\n      dup6\n      sstore\n      jump(tag_51)\n    tag_53:\n      dup3\n      dup1\n      add\n      0x01\n      add\n      dup6\n      sstore\n      dup3\n      iszero\n      tag_51\n      jumpi\n      swap2\n      dup3\n      add\n    tag_54:\n      dup3\n      dup2\n      gt\n      iszero\n      tag_55\n      jumpi\n      dup3\n      mload\n      dup3\n      sstore\n      swap2\n      0x20\n      add\n      swap2\n      swap1\n      0x01\n      add\n      swap1\n      jump(tag_54)\n    tag_55:\n    tag_51:\n      pop\n      swap1\n      pop\n      tag_56\n      swap2\n      swap1\n      tag_57\n      jump\t// in\n    tag_56:\n      pop\n      swap1\n      jump\t// out\n    tag_57:\n    tag_58:\n      dup1\n      dup3\n      gt\n      iszero\n      tag_59\n      jumpi\n      0x00\n      dup2\n      0x00\n      swap1\n      sstore\n      pop\n      0x01\n      add\n      jump(tag_58)\n    tag_59:\n      pop\n      swap1\n      jump\t// out\n        /* \"#utility.yul\":7:84   */\n    tag_60:\n        /* \"#utility.yul\":44:51   */\n      0x00\n        /* \"#utility.yul\":73:78   */\n      dup2\n        /* \"#utility.yul\":62:78   */\n      swap1\n      pop\n        /* \"#utility.yul\":7:84   */\n      swap2\n      swap1\n      pop\n      jump\t// out\n        /* \"#utility.yul\":90:208   */\n    tag_61:\n        /* \"#utility.yul\":177:201   */\n      tag_90\n        /* \"#utility.yul\":195:200   */\n      dup2\n        /* \"#utility.yul\":177:201   */\n      tag_60\n      jump\t// in\n    tag_90:\n        /* \"#utility.yul\":172:175   */\n      dup3\n        /* \"#utility.yul\":165:202   */\n      mstore\n        /* \"#utility.yul\":90:208   */\n      pop\n      pop\n      jump\t// out\n        /* \"#utility.yul\":214:436   */\n    tag_14:\n        /* \"#utility.yul\":307:311   */\n      0x00\n        /* \"#utility.yul\":345:347   */\n      0x20\n        /* \"#utility.yul\":334:343   */\n      dup3\n        /* \"#utility.yul\":330:348   */\n      add\n        /* \"#utility.yul\":322:348   */\n      swap1\n      pop\n        /* \"#utility.yul\":358:429   */\n      tag_92\n        /* \"#utility.yul\":426:427   */\n      0x00\n        /* \"#utility.yul\":415:424   */\n      dup4\n        /* \"#utility.yul\":411:428   */\n      add\n        /* \"#utility.yul\":402:408   */\n      dup5\n        /* \"#utility.yul\":358:429   */\n      tag_61\n      jump\t// in\n    tag_92:\n        /* \"#utility.yul\":214:436   */\n      swap3\n      swap2\n      pop\n      pop\n      jump\t// out\n        /* \"#utility.yul\":442:568   */\n    tag_62:\n        /* \"#utility.yul\":479:486   */\n      0x00\n        /* \"#utility.yul\":519:561   */\n      0xffffffffffffffffffffffffffffffffffffffff\n        /* \"#utility.yul\":512:517   */\n      dup3\n        /* \"#utility.yul\":508:562   */\n      and\n        /* \"#utility.yul\":497:562   */\n      swap1\n      pop\n        /* \"#utility.yul\":442:568   */\n      swap2\n      swap1\n      pop\n      jump\t// out\n        /* \"#utility.yul\":574:670   */\n    tag_63:\n        /* \"#utility.yul\":611:618   */\n      0x00\n        /* \"#utility.yul\":640:664   */\n      tag_95\n        /* \"#utility.yul\":658:663   */\n      dup3\n        /* \"#utility.yul\":640:664   */\n      tag_62\n      jump\t// in\n    tag_95:\n        /* \"#utility.yul\":629:664   */\n      swap1\n      pop\n        /* \"#utility.yul\":574:670   */\n      swap2\n      swap1\n      pop\n      jump\t// out\n        /* \"#utility.yul\":676:794   */\n    tag_64:\n        /* \"#utility.yul\":763:787   */\n      tag_97\n        /* \"#utility.yul\":781:786   */\n      dup2\n        /* \"#utility.yul\":763:787   */\n      tag_63\n      jump\t// in\n    tag_97:\n        /* \"#utility.yul\":758:761   */\n      dup3\n        /* \"#utility.yul\":751:788   */\n      mstore\n        /* \"#utility.yul\":676:794   */\n      pop\n      pop\n      jump\t// out\n        /* \"#utility.yul\":800:1022   */\n    tag_21:\n        /* \"#utility.yul\":893:897   */\n      0x00\n        /* \"#utility.yul\":931:933   */\n      0x20\n        /* \"#utility.yul\":920:929   */\n      dup3\n        /* \"#utility.yul\":916:934   */\n      add\n        /* \"#utility.yul\":908:934   */\n      swap1\n      pop\n        /* \"#utility.yul\":944:1015   */\n      tag_99\n        /* \"#utility.yul\":1012:1013   */\n      0x00\n        /* \"#utility.yul\":1001:1010   */\n      dup4\n        /* \"#utility.yul\":997:1014   */\n      add\n        /* \"#utility.yul\":988:994   */\n      dup5\n        /* \"#utility.yul\":944:1015   */\n      tag_64\n      jump\t// in\n    tag_99:\n        /* \"#utility.yul\":800:1022   */\n      swap3\n      swap2\n      pop\n      pop\n      jump\t// out\n        /* \"#utility.yul\":1028:1127   */\n    tag_65:\n        /* \"#utility.yul\":1080:1086   */\n      0x00\n        /* \"#utility.yul\":1114:1119   */\n      dup2\n        /* \"#utility.yul\":1108:1120   */\n      mload\n        /* \"#utility.yul\":1098:1120   */\n      swap1\n      pop\n        /* \"#utility.yul\":1028:1127   */\n      swap2\n      swap1\n      pop\n      jump\t// out\n        /* \"#utility.yul\":1133:1302   */\n    tag_66:\n        /* \"#utility.yul\":1217:1228   */\n      0x00\n        /* \"#utility.yul\":1251:1257   */\n      dup3\n        /* \"#utility.yul\":1246:1249   */\n      dup3\n        /* \"#utility.yul\":1239:1258   */\n      mstore\n        /* \"#utility.yul\":1291:1295   */\n      0x20\n        /* \"#utility.yul\":1286:1289   */\n      dup3\n        /* \"#utility.yul\":1282:1296   */\n      add\n        /* \"#utility.yul\":1267:1296   */\n      swap1\n      pop\n        /* \"#utility.yul\":1133:1302   */\n      swap3\n      swap2\n      pop\n      pop\n      jump\t// out\n        /* \"#utility.yul\":1308:1615   */\n    tag_67:\n        /* \"#utility.yul\":1376:1377   */\n      0x00\n        /* \"#utility.yul\":1386:1499   */\n    tag_103:\n        /* \"#utility.yul\":1400:1406   */\n      dup4\n        /* \"#utility.yul\":1397:1398   */\n      dup2\n        /* \"#utility.yul\":1394:1407   */\n      lt\n        /* \"#utility.yul\":1386:1499   */\n      iszero\n      tag_105\n      jumpi\n        /* \"#utility.yul\":1485:1486   */\n      dup1\n        /* \"#utility.yul\":1480:1483   */\n      dup3\n        /* \"#utility.yul\":1476:1487   */\n      add\n        /* \"#utility.yul\":1470:1488   */\n      mload\n        /* \"#utility.yul\":1466:1467   */\n      dup2\n        /* \"#utility.yul\":1461:1464   */\n      dup5\n        /* \"#utility.yul\":1457:1468   */\n      add\n        /* \"#utility.yul\":1450:1489   */\n      mstore\n        /* \"#utility.yul\":1422:1424   */\n      0x20\n        /* \"#utility.yul\":1419:1420   */\n      dup2\n        /* \"#utility.yul\":1415:1425   */\n      add\n        /* \"#utility.yul\":1410:1425   */\n      swap1\n      pop\n        /* \"#utility.yul\":1386:1499   */\n      jump(tag_103)\n    tag_105:\n        /* \"#utility.yul\":1517:1523   */\n      dup4\n        /* \"#utility.yul\":1514:1515   */\n      dup2\n        /* \"#utility.yul\":1511:1524   */\n      gt\n        /* \"#utility.yul\":1508:1609   */\n      iszero\n      tag_106\n      jumpi\n        /* \"#utility.yul\":1597:1598   */\n      0x00\n        /* \"#utility.yul\":1588:1594   */\n      dup5\n        /* \"#utility.yul\":1583:1586   */\n      dup5\n        /* \"#utility.yul\":1579:1595   */\n      add\n        /* \"#utility.yul\":1572:1599   */\n      mstore\n        /* \"#utility.yul\":1508:1609   */\n    tag_106:\n        /* \"#utility.yul\":1357:1615   */\n      pop\n        /* \"#utility.yul\":1308:1615   */\n      pop\n      pop\n      pop\n      jump\t// out\n        /* \"#utility.yul\":1621:1723   */\n    tag_68:\n        /* \"#utility.yul\":1662:1668   */\n      0x00\n        /* \"#utility.yul\":1713:1715   */\n      0x1f\n        /* \"#utility.yul\":1709:1716   */\n      not\n        /* \"#utility.yul\":1704:1706   */\n      0x1f\n        /* \"#utility.yul\":1697:1702   */\n      dup4\n        /* \"#utility.yul\":1693:1707   */\n      add\n        /* \"#utility.yul\":1689:1717   */\n      and\n        /* \"#utility.yul\":1679:1717   */\n      swap1\n      pop\n        /* \"#utility.yul\":1621:1723   */\n      swap2\n      swap1\n      pop\n      jump\t// out\n        /* \"#utility.yul\":1729:2093   */\n    tag_69:\n        /* \"#utility.yul\":1817:1820   */\n      0x00\n        /* \"#utility.yul\":1845:1884   */\n      tag_109\n        /* \"#utility.yul\":1878:1883   */\n      dup3\n        /* \"#utility.yul\":1845:1884   */\n      tag_65\n      jump\t// in\n    tag_109:\n        /* \"#utility.yul\":1900:1971   */\n      tag_110\n        /* \"#utility.yul\":1964:1970   */\n      dup2\n        /* \"#utility.yul\":1959:1962   */\n      dup6\n        /* \"#utility.yul\":1900:1971   */\n      tag_66\n      jump\t// in\n    tag_110:\n        /* \"#utility.yul\":1893:1971   */\n      swap4\n      pop\n        /* \"#utility.yul\":1980:2032   */\n      tag_111\n        /* \"#utility.yul\":2025:2031   */\n      dup2\n        /* \"#utility.yul\":2020:2023   */\n      dup6\n        /* \"#utility.yul\":2013:2017   */\n      0x20\n        /* \"#utility.yul\":2006:2011   */\n      dup7\n        /* \"#utility.yul\":2002:2018   */\n      add\n        /* \"#utility.yul\":1980:2032   */\n      tag_67\n      jump\t// in\n    tag_111:\n        /* \"#utility.yul\":2057:2086   */\n      tag_112\n        /* \"#utility.yul\":2079:2085   */\n      dup2\n        /* \"#utility.yul\":2057:2086   */\n      tag_68\n      jump\t// in\n    tag_112:\n        /* \"#utility.yul\":2052:2055   */\n      dup5\n        /* \"#utility.yul\":2048:2087   */\n      add\n        /* \"#utility.yul\":2041:2087   */\n      swap2\n      pop\n        /* \"#utility.yul\":1821:2093   */\n      pop\n        /* \"#utility.yul\":1729:2093   */\n      swap3\n      swap2\n      pop\n      pop\n      jump\t// out\n        /* \"#utility.yul\":2099:2412   */\n    tag_25:\n        /* \"#utility.yul\":2212:2216   */\n      0x00\n        /* \"#utility.yul\":2250:2252   */\n      0x20\n        /* \"#utility.yul\":2239:2248   */\n      dup3\n        /* \"#utility.yul\":2235:2253   */\n      add\n        /* \"#utility.yul\":2227:2253   */\n      swap1\n      pop\n        /* \"#utility.yul\":2299:2308   */\n      dup2\n        /* \"#utility.yul\":2293:2297   */\n      dup2\n        /* \"#utility.yul\":2289:2309   */\n      sub\n        /* \"#utility.yul\":2285:2286   */\n      0x00\n        /* \"#utility.yul\":2274:2283   */\n      dup4\n        /* \"#utility.yul\":2270:2287   */\n      add\n        /* \"#utility.yul\":2263:2310   */\n      mstore\n        /* \"#utility.yul\":2327:2405   */\n      tag_114\n        /* \"#utility.yul\":2400:2404   */\n      dup2\n        /* \"#utility.yul\":2391:2397   */\n      dup5\n        /* \"#utility.yul\":2327:2405   */\n      tag_69\n      jump\t// in\n    tag_114:\n        /* \"#utility.yul\":2319:2405   */\n      swap1\n      pop\n        /* \"#utility.yul\":2099:2412   */\n      swap3\n      swap2\n      pop\n      pop\n      jump\t// out\n        /* \"#utility.yul\":2418:2493   */\n    tag_70:\n        /* \"#utility.yul\":2451:2457   */\n      0x00\n        /* \"#utility.yul\":2484:2486   */\n      0x40\n        /* \"#utility.yul\":2478:2487   */\n      mload\n        /* \"#utility.yul\":2468:2487   */\n      swap1\n      pop\n        /* \"#utility.yul\":2418:2493   */\n      swap1\n      jump\t// out\n        /* \"#utility.yul\":2499:2616   */\n    tag_71:\n        /* \"#utility.yul\":2608:2609   */\n      0x00\n        /* \"#utility.yul\":2605:2606   */\n      dup1\n        /* \"#utility.yul\":2598:2610   */\n      revert\n        /* \"#utility.yul\":2622:2739   */\n    tag_72:\n        /* \"#utility.yul\":2731:2732   */\n      0x00\n        /* \"#utility.yul\":2728:2729   */\n      dup1\n        /* \"#utility.yul\":2721:2733   */\n      revert\n        /* \"#utility.yul\":2745:2862   */\n    tag_73:\n        /* \"#utility.yul\":2854:2855   */\n      0x00\n        /* \"#utility.yul\":2851:2852   */\n      dup1\n        /* \"#utility.yul\":2844:2856   */\n      revert\n        /* \"#utility.yul\":2868:2985   */\n    tag_74:\n        /* \"#utility.yul\":2977:2978   */\n      0x00\n        /* \"#utility.yul\":2974:2975   */\n      dup1\n        /* \"#utility.yul\":2967:2979   */\n      revert\n        /* \"#utility.yul\":2991:3171   */\n    tag_75:\n        /* \"#utility.yul\":3039:3116   */\n      0x4e487b7100000000000000000000000000000000000000000000000000000000\n        /* \"#utility.yul\":3036:3037   */\n      0x00\n        /* \"#utility.yul\":3029:3117   */\n      mstore\n        /* \"#utility.yul\":3136:3140   */\n      0x41\n        /* \"#utility.yul\":3133:3134   */\n      0x04\n        /* \"#utility.yul\":3126:3141   */\n      mstore\n        /* \"#utility.yul\":3160:3164   */\n      0x24\n        /* \"#utility.yul\":3157:3158   */\n      0x00\n        /* \"#utility.yul\":3150:3165   */\n      revert\n        /* \"#utility.yul\":3177:3458   */\n    tag_76:\n        /* \"#utility.yul\":3260:3287   */\n      tag_122\n        /* \"#utility.yul\":3282:3286   */\n      dup3\n        /* \"#utility.yul\":3260:3287   */\n      tag_68\n      jump\t// in\n    tag_122:\n        /* \"#utility.yul\":3252:3258   */\n      dup2\n        /* \"#utility.yul\":3248:3288   */\n      add\n        /* \"#utility.yul\":3390:3396   */\n      dup2\n        /* \"#utility.yul\":3378:3388   */\n      dup2\n        /* \"#utility.yul\":3375:3397   */\n      lt\n        /* \"#utility.yul\":3354:3372   */\n      0xffffffffffffffff\n        /* \"#utility.yul\":3342:3352   */\n      dup3\n        /* \"#utility.yul\":3339:3373   */\n      gt\n        /* \"#utility.yul\":3336:3398   */\n      or\n        /* \"#utility.yul\":3333:3421   */\n      iszero\n      tag_123\n      jumpi\n        /* \"#utility.yul\":3401:3419   */\n      tag_124\n      tag_75\n      jump\t// in\n    tag_124:\n        /* \"#utility.yul\":3333:3421   */\n    tag_123:\n        /* \"#utility.yul\":3441:3451   */\n      dup1\n        /* \"#utility.yul\":3437:3439   */\n      0x40\n        /* \"#utility.yul\":3430:3452   */\n      mstore\n        /* \"#utility.yul\":3220:3458   */\n      pop\n        /* \"#utility.yul\":3177:3458   */\n      pop\n      pop\n      jump\t// out\n        /* \"#utility.yul\":3464:3593   */\n    tag_77:\n        /* \"#utility.yul\":3498:3504   */\n      0x00\n        /* \"#utility.yul\":3525:3545   */\n      tag_126\n      tag_70\n      jump\t// in\n    tag_126:\n        /* \"#utility.yul\":3515:3545   */\n      swap1\n      pop\n        /* \"#utility.yul\":3554:3587   */\n      tag_127\n        /* \"#utility.yul\":3582:3586   */\n      dup3\n        /* \"#utility.yul\":3574:3580   */\n      dup3\n        /* \"#utility.yul\":3554:3587   */\n      tag_76\n      jump\t// in\n    tag_127:\n        /* \"#utility.yul\":3464:3593   */\n      swap2\n      swap1\n      pop\n      jump\t// out\n        /* \"#utility.yul\":3599:3907   */\n    tag_78:\n        /* \"#utility.yul\":3661:3665   */\n      0x00\n        /* \"#utility.yul\":3751:3769   */\n      0xffffffffffffffff\n        /* \"#utility.yul\":3743:3749   */\n      dup3\n        /* \"#utility.yul\":3740:3770   */\n      gt\n        /* \"#utility.yul\":3737:3793   */\n      iszero\n      tag_129\n      jumpi\n        /* \"#utility.yul\":3773:3791   */\n      tag_130\n      tag_75\n      jump\t// in\n    tag_130:\n        /* \"#utility.yul\":3737:3793   */\n    tag_129:\n        /* \"#utility.yul\":3811:3840   */\n      tag_131\n        /* \"#utility.yul\":3833:3839   */\n      dup3\n        /* \"#utility.yul\":3811:3840   */\n      tag_68\n      jump\t// in\n    tag_131:\n        /* \"#utility.yul\":3803:3840   */\n      swap1\n      pop\n        /* \"#utility.yul\":3895:3899   */\n      0x20\n        /* \"#utility.yul\":3889:3893   */\n      dup2\n        /* \"#utility.yul\":3885:3900   */\n      add\n        /* \"#utility.yul\":3877:3900   */\n      swap1\n      pop\n        /* \"#utility.yul\":3599:3907   */\n      swap2\n      swap1\n      pop\n      jump\t// out\n        /* \"#utility.yul\":3913:4067   */\n    tag_79:\n        /* \"#utility.yul\":3997:4003   */\n      dup3\n        /* \"#utility.yul\":3992:3995   */\n      dup2\n        /* \"#utility.yul\":3987:3990   */\n      dup4\n        /* \"#utility.yul\":3974:4004   */\n      calldatacopy\n        /* \"#utility.yul\":4059:4060   */\n      0x00\n        /* \"#utility.yul\":4050:4056   */\n      dup4\n        /* \"#utility.yul\":4045:4048   */\n      dup4\n        /* \"#utility.yul\":4041:4057   */\n      add\n        /* \"#utility.yul\":4034:4061   */\n      mstore\n        /* \"#utility.yul\":3913:4067   */\n      pop\n      pop\n      pop\n      jump\t// out\n        /* \"#utility.yul\":4073:4485   */\n    tag_80:\n        /* \"#utility.yul\":4151:4156   */\n      0x00\n        /* \"#utility.yul\":4176:4242   */\n      tag_134\n        /* \"#utility.yul\":4192:4241   */\n      tag_135\n        /* \"#utility.yul\":4234:4240   */\n      dup5\n        /* \"#utility.yul\":4192:4241   */\n      tag_78\n      jump\t// in\n    tag_135:\n        /* \"#utility.yul\":4176:4242   */\n      tag_77\n      jump\t// in\n    tag_134:\n        /* \"#utility.yul\":4167:4242   */\n      swap1\n      pop\n        /* \"#utility.yul\":4265:4271   */\n      dup3\n        /* \"#utility.yul\":4258:4263   */\n      dup2\n        /* \"#utility.yul\":4251:4272   */\n      mstore\n        /* \"#utility.yul\":4303:4307   */\n      0x20\n        /* \"#utility.yul\":4296:4301   */\n      dup2\n        /* \"#utility.yul\":4292:4308   */\n      add\n        /* \"#utility.yul\":4341:4344   */\n      dup5\n        /* \"#utility.yul\":4332:4338   */\n      dup5\n        /* \"#utility.yul\":4327:4330   */\n      dup5\n        /* \"#utility.yul\":4323:4339   */\n      add\n        /* \"#utility.yul\":4320:4345   */\n      gt\n        /* \"#utility.yul\":4317:4429   */\n      iszero\n      tag_136\n      jumpi\n        /* \"#utility.yul\":4348:4427   */\n      tag_137\n      tag_74\n      jump\t// in\n    tag_137:\n        /* \"#utility.yul\":4317:4429   */\n    tag_136:\n        /* \"#utility.yul\":4438:4479   */\n      tag_138\n        /* \"#utility.yul\":4472:4478   */\n      dup5\n        /* \"#utility.yul\":4467:4470   */\n      dup3\n        /* \"#utility.yul\":4462:4465   */\n      dup6\n        /* \"#utility.yul\":4438:4479   */\n      tag_79\n      jump\t// in\n    tag_138:\n        /* \"#utility.yul\":4157:4485   */\n      pop\n        /* \"#utility.yul\":4073:4485   */\n      swap4\n      swap3\n      pop\n      pop\n      pop\n      jump\t// out\n        /* \"#utility.yul\":4505:4845   */\n    tag_81:\n        /* \"#utility.yul\":4561:4566   */\n      0x00\n        /* \"#utility.yul\":4610:4613   */\n      dup3\n        /* \"#utility.yul\":4603:4607   */\n      0x1f\n        /* \"#utility.yul\":4595:4601   */\n      dup4\n        /* \"#utility.yul\":4591:4608   */\n      add\n        /* \"#utility.yul\":4587:4614   */\n      slt\n        /* \"#utility.yul\":4577:4699   */\n      tag_140\n      jumpi\n        /* \"#utility.yul\":4618:4697   */\n      tag_141\n      tag_73\n      jump\t// in\n    tag_141:\n        /* \"#utility.yul\":4577:4699   */\n    tag_140:\n        /* \"#utility.yul\":4735:4741   */\n      dup2\n        /* \"#utility.yul\":4722:4742   */\n      calldataload\n        /* \"#utility.yul\":4760:4839   */\n      tag_142\n        /* \"#utility.yul\":4835:4838   */\n      dup5\n        /* \"#utility.yul\":4827:4833   */\n      dup3\n        /* \"#utility.yul\":4820:4824   */\n      0x20\n        /* \"#utility.yul\":4812:4818   */\n      dup7\n        /* \"#utility.yul\":4808:4825   */\n      add\n        /* \"#utility.yul\":4760:4839   */\n      tag_80\n      jump\t// in\n    tag_142:\n        /* \"#utility.yul\":4751:4839   */\n      swap2\n      pop\n        /* \"#utility.yul\":4567:4845   */\n      pop\n        /* \"#utility.yul\":4505:4845   */\n      swap3\n      swap2\n      pop\n      pop\n      jump\t// out\n        /* \"#utility.yul\":4851:5360   */\n    tag_28:\n        /* \"#utility.yul\":4920:4926   */\n      0x00\n        /* \"#utility.yul\":4969:4971   */\n      0x20\n        /* \"#utility.yul\":4957:4966   */\n      dup3\n        /* \"#utility.yul\":4948:4955   */\n      dup5\n        /* \"#utility.yul\":4944:4967   */\n      sub\n        /* \"#utility.yul\":4940:4972   */\n      slt\n        /* \"#utility.yul\":4937:5056   */\n      iszero\n      tag_144\n      jumpi\n        /* \"#utility.yul\":4975:5054   */\n      tag_145\n      tag_71\n      jump\t// in\n    tag_145:\n        /* \"#utility.yul\":4937:5056   */\n    tag_144:\n        /* \"#utility.yul\":5123:5124   */\n      0x00\n        /* \"#utility.yul\":5112:5121   */\n      dup3\n        /* \"#utility.yul\":5108:5125   */\n      add\n        /* \"#utility.yul\":5095:5126   */\n      calldataload\n        /* \"#utility.yul\":5153:5171   */\n      0xffffffffffffffff\n        /* \"#utility.yul\":5145:5151   */\n      dup2\n        /* \"#utility.yul\":5142:5172   */\n      gt\n        /* \"#utility.yul\":5139:5256   */\n      iszero\n      tag_146\n      jumpi\n        /* \"#utility.yul\":5175:5254   */\n      tag_147\n      tag_72\n      jump\t// in\n    tag_147:\n        /* \"#utility.yul\":5139:5256   */\n    tag_146:\n        /* \"#utility.yul\":5280:5343   */\n      tag_148\n        /* \"#utility.yul\":5335:5342   */\n      dup5\n        /* \"#utility.yul\":5326:5332   */\n      dup3\n        /* \"#utility.yul\":5315:5324   */\n      dup6\n        /* \"#utility.yul\":5311:5333   */\n      add\n        /* \"#utility.yul\":5280:5343   */\n      tag_81\n      jump\t// in\n    tag_148:\n        /* \"#utility.yul\":5270:5343   */\n      swap2\n      pop\n        /* \"#utility.yul\":5066:5353   */\n      pop\n        /* \"#utility.yul\":4851:5360   */\n      swap3\n      swap2\n      pop\n      pop\n      jump\t// out\n        /* \"#utility.yul\":5366:5488   */\n    tag_82:\n        /* \"#utility.yul\":5439:5463   */\n      tag_150\n        /* \"#utility.yul\":5457:5462   */\n      dup2\n        /* \"#utility.yul\":5439:5463   */\n      tag_63\n      jump\t// in\n    tag_150:\n        /* \"#utility.yul\":5432:5437   */\n      dup2\n        /* \"#utility.yul\":5429:5464   */\n      eq\n        /* \"#utility.yul\":5419:5482   */\n      tag_151\n      jumpi\n        /* \"#utility.yul\":5478:5479   */\n      0x00\n        /* \"#utility.yul\":5475:5476   */\n      dup1\n        /* \"#utility.yul\":5468:5480   */\n      revert\n        /* \"#utility.yul\":5419:5482   */\n    tag_151:\n        /* \"#utility.yul\":5366:5488   */\n      pop\n      jump\t// out\n        /* \"#utility.yul\":5494:5633   */\n    tag_83:\n        /* \"#utility.yul\":5540:5545   */\n      0x00\n        /* \"#utility.yul\":5578:5584   */\n      dup2\n        /* \"#utility.yul\":5565:5585   */\n      calldataload\n        /* \"#utility.yul\":5556:5585   */\n      swap1\n      pop\n        /* \"#utility.yul\":5594:5627   */\n      tag_153\n        /* \"#utility.yul\":5621:5626   */\n      dup2\n        /* \"#utility.yul\":5594:5627   */\n      tag_82\n      jump\t// in\n    tag_153:\n        /* \"#utility.yul\":5494:5633   */\n      swap3\n      swap2\n      pop\n      pop\n      jump\t// out\n        /* \"#utility.yul\":5639:5968   */\n    tag_32:\n        /* \"#utility.yul\":5698:5704   */\n      0x00\n        /* \"#utility.yul\":5747:5749   */\n      0x20\n        /* \"#utility.yul\":5735:5744   */\n      dup3\n        /* \"#utility.yul\":5726:5733   */\n      dup5\n        /* \"#utility.yul\":5722:5745   */\n      sub\n        /* \"#utility.yul\":5718:5750   */\n      slt\n        /* \"#utility.yul\":5715:5834   */\n      iszero\n      tag_155\n      jumpi\n        /* \"#utility.yul\":5753:5832   */\n      tag_156\n      tag_71\n      jump\t// in\n    tag_156:\n        /* \"#utility.yul\":5715:5834   */\n    tag_155:\n        /* \"#utility.yul\":5873:5874   */\n      0x00\n        /* \"#utility.yul\":5898:5951   */\n      tag_157\n        /* \"#utility.yul\":5943:5950   */\n      dup5\n        /* \"#utility.yul\":5934:5940   */\n      dup3\n        /* \"#utility.yul\":5923:5932   */\n      dup6\n        /* \"#utility.yul\":5919:5941   */\n      add\n        /* \"#utility.yul\":5898:5951   */\n      tag_83\n      jump\t// in\n    tag_157:\n        /* \"#utility.yul\":5888:5951   */\n      swap2\n      pop\n        /* \"#utility.yul\":5844:5961   */\n      pop\n        /* \"#utility.yul\":5639:5968   */\n      swap3\n      swap2\n      pop\n      pop\n      jump\t// out\n        /* \"#utility.yul\":5974:6096   */\n    tag_84:\n        /* \"#utility.yul\":6047:6071   */\n      tag_159\n        /* \"#utility.yul\":6065:6070   */\n      dup2\n        /* \"#utility.yul\":6047:6071   */\n      tag_60\n      jump\t// in\n    tag_159:\n        /* \"#utility.yul\":6040:6045   */\n      dup2\n        /* \"#utility.yul\":6037:6072   */\n      eq\n        /* \"#utility.yul\":6027:6090   */\n      tag_160\n      jumpi\n        /* \"#utility.yul\":6086:6087   */\n      0x00\n        /* \"#utility.yul\":6083:6084   */\n      dup1\n        /* \"#utility.yul\":6076:6088   */\n      revert\n        /* \"#utility.yul\":6027:6090   */\n    tag_160:\n        /* \"#utility.yul\":5974:6096   */\n      pop\n      jump\t// out\n        /* \"#utility.yul\":6102:6241   */\n    tag_85:\n        /* \"#utility.yul\":6148:6153   */\n      0x00\n        /* \"#utility.yul\":6186:6192   */\n      dup2\n        /* \"#utility.yul\":6173:6193   */\n      calldataload\n        /* \"#utility.yul\":6164:6193   */\n      swap1\n      pop\n        /* \"#utility.yul\":6202:6235   */\n      tag_162\n        /* \"#utility.yul\":6229:6234   */\n      dup2\n        /* \"#utility.yul\":6202:6235   */\n      tag_84\n      jump\t// in\n    tag_162:\n        /* \"#utility.yul\":6102:6241   */\n      swap3\n      swap2\n      pop\n      pop\n      jump\t// out\n        /* \"#utility.yul\":6247:6576   */\n    tag_36:\n        /* \"#utility.yul\":6306:6312   */\n      0x00\n        /* \"#utility.yul\":6355:6357   */\n      0x20\n        /* \"#utility.yul\":6343:6352   */\n      dup3\n        /* \"#utility.yul\":6334:6341   */\n      dup5\n        /* \"#utility.yul\":6330:6353   */\n      sub\n        /* \"#utility.yul\":6326:6358   */\n      slt\n        /* \"#utility.yul\":6323:6442   */\n      iszero\n      tag_164\n      jumpi\n        /* \"#utility.yul\":6361:6440   */\n      tag_165\n      tag_71\n      jump\t// in\n    tag_165:\n        /* \"#utility.yul\":6323:6442   */\n    tag_164:\n        /* \"#utility.yul\":6481:6482   */\n      0x00\n        /* \"#utility.yul\":6506:6559   */\n      tag_166\n        /* \"#utility.yul\":6551:6558   */\n      dup5\n        /* \"#utility.yul\":6542:6548   */\n      dup3\n        /* \"#utility.yul\":6531:6540   */\n      dup6\n        /* \"#utility.yul\":6527:6549   */\n      add\n        /* \"#utility.yul\":6506:6559   */\n      tag_85\n      jump\t// in\n    tag_166:\n        /* \"#utility.yul\":6496:6559   */\n      swap2\n      pop\n        /* \"#utility.yul\":6452:6569   */\n      pop\n        /* \"#utility.yul\":6247:6576   */\n      swap3\n      swap2\n      pop\n      pop\n      jump\t// out\n        /* \"#utility.yul\":6582:6762   */\n    tag_86:\n        /* \"#utility.yul\":6630:6707   */\n      0x4e487b7100000000000000000000000000000000000000000000000000000000\n        /* \"#utility.yul\":6627:6628   */\n      0x00\n        /* \"#utility.yul\":6620:6708   */\n      mstore\n        /* \"#utility.yul\":6727:6731   */\n      0x22\n        /* \"#utility.yul\":6724:6725   */\n      0x04\n        /* \"#utility.yul\":6717:6732   */\n      mstore\n        /* \"#utility.yul\":6751:6755   */\n      0x24\n        /* \"#utility.yul\":6748:6749   */\n      0x00\n        /* \"#utility.yul\":6741:6756   */\n      revert\n        /* \"#utility.yul\":6768:7088   */\n    tag_40:\n        /* \"#utility.yul\":6812:6818   */\n      0x00\n        /* \"#utility.yul\":6849:6850   */\n      0x02\n        /* \"#utility.yul\":6843:6847   */\n      dup3\n        /* \"#utility.yul\":6839:6851   */\n      div\n        /* \"#utility.yul\":6829:6851   */\n      swap1\n      pop\n        /* \"#utility.yul\":6896:6897   */\n      0x01\n        /* \"#utility.yul\":6890:6894   */\n      dup3\n        /* \"#utility.yul\":6886:6898   */\n      and\n        /* \"#utility.yul\":6917:6935   */\n      dup1\n        /* \"#utility.yul\":6907:6988   */\n      tag_169\n      jumpi\n        /* \"#utility.yul\":6973:6977   */\n      0x7f\n        /* \"#utility.yul\":6965:6971   */\n      dup3\n        /* \"#utility.yul\":6961:6978   */\n      and\n        /* \"#utility.yul\":6951:6978   */\n      swap2\n      pop\n        /* \"#utility.yul\":6907:6988   */\n    tag_169:\n        /* \"#utility.yul\":7035:7037   */\n      0x20\n        /* \"#utility.yul\":7027:7033   */\n      dup3\n        /* \"#utility.yul\":7024:7038   */\n      lt\n        /* \"#utility.yul\":7004:7022   */\n      dup2\n        /* \"#utility.yul\":7001:7039   */\n      sub\n        /* \"#utility.yul\":6998:7082   */\n      tag_170\n      jumpi\n        /* \"#utility.yul\":7054:7072   */\n      tag_171\n      tag_86\n      jump\t// in\n    tag_171:\n        /* \"#utility.yul\":6998:7082   */\n    tag_170:\n        /* \"#utility.yul\":6819:7088   */\n      pop\n        /* \"#utility.yul\":6768:7088   */\n      swap2\n      swap1\n      pop\n      jump\t// out\n\n    auxdata: 0xa26469706673582212208f68e0d0b930704eb51d7ba45ca6fa2b0b62842df49a910a8e75a43c838e7bda64736f6c634300080d0033\n}\n",
				"bytecode": {
					"linkReferences": {},
					"object": "608060405234801561001057600080fd5b50610779806100206000396000f3fe608060405234801561001057600080fd5b506004361061007d5760003560e01c8063492bfa181161005b578063492bfa18146100dc57806382180568146100fa578063a8a7b89514610116578063e492fd84146101325761007d565b806306540f7e1461008257806315502612146100a057806326b85ee1146100be575b600080fd5b61008a61014e565b604051610097919061036d565b60405180910390f35b6100a8610154565b6040516100b5919061036d565b60405180910390f35b6100c6610195565b6040516100d391906103c9565b60405180910390f35b6100e46101bb565b6040516100f1919061047d565b60405180910390f35b610114600480360381019061010f91906105e8565b610249565b005b610130600480360381019061012b919061065d565b610263565b005b61014c600480360381019061014791906106b6565b6102a7565b005b60005481565b6000600160009054906101000a900473ffffffffffffffffffffffffffffffffffffffff1673ffffffffffffffffffffffffffffffffffffffff1631905090565b600160009054906101000a900473ffffffffffffffffffffffffffffffffffffffff1681565b600280546101c890610712565b80601f01602080910402602001604051908101604052809291908181526020018280546101f490610712565b80156102415780601f1061021657610100808354040283529160200191610241565b820191906000526020600020905b81548152906001019060200180831161022457829003601f168201915b505050505081565b806002908051906020019061025f9291906102b1565b5050565b80600160006101000a81548173ffffffffffffffffffffffffffffffffffffffff021916908373ffffffffffffffffffffffffffffffffffffffff16021790555050565b8060008190555050565b8280546102bd90610712565b90600052602060002090601f0160209004810192826102df5760008555610326565b82601f106102f857805160ff1916838001178555610326565b82800160010185558215610326579182015b8281111561032557825182559160200191906001019061030a565b5b5090506103339190610337565b5090565b5b80821115610350576000816000905550600101610338565b5090565b6000819050919050565b61036781610354565b82525050565b6000602082019050610382600083018461035e565b92915050565b600073ffffffffffffffffffffffffffffffffffffffff82169050919050565b60006103b382610388565b9050919050565b6103c3816103a8565b82525050565b60006020820190506103de60008301846103ba565b92915050565b600081519050919050565b600082825260208201905092915050565b60005b8381101561041e578082015181840152602081019050610403565b8381111561042d576000848401525b50505050565b6000601f19601f8301169050919050565b600061044f826103e4565b61045981856103ef565b9350610469818560208601610400565b61047281610433565b840191505092915050565b600060208201905081810360008301526104978184610444565b905092915050565b6000604051905090565b600080fd5b600080fd5b600080fd5b600080fd5b7f4e487b7100000000000000000000000000000000000000000000000000000000600052604160045260246000fd5b6104f582610433565b810181811067ffffffffffffffff82111715610514576105136104bd565b5b80604052505050565b600061052761049f565b905061053382826104ec565b919050565b600067ffffffffffffffff821115610553576105526104bd565b5b61055c82610433565b9050602081019050919050565b82818337600083830152505050565b600061058b61058684610538565b61051d565b9050828152602081018484840111156105a7576105a66104b8565b5b6105b2848285610569565b509392505050565b600082601f8301126105cf576105ce6104b3565b5b81356105df848260208601610578565b91505092915050565b6000602082840312156105fe576105fd6104a9565b5b600082013567ffffffffffffffff81111561061c5761061b6104ae565b5b610628848285016105ba565b91505092915050565b61063a816103a8565b811461064557600080fd5b50565b60008135905061065781610631565b92915050565b600060208284031215610673576106726104a9565b5b600061068184828501610648565b91505092915050565b61069381610354565b811461069e57600080fd5b50565b6000813590506106b08161068a565b92915050565b6000602082840312156106cc576106cb6104a9565b5b60006106da848285016106a1565b91505092915050565b7f4e487b7100000000000000000000000000000000000000000000000000000000600052602260045260246000fd5b6000600282049050600182168061072a57607f821691505b60208210810361073d5761073c6106e3565b5b5091905056fea26469706673582212208f68e0d0b930704eb51d7ba45ca6fa2b0b62842df49a910a8e75a43c838e7bda64736f6c634300080d0033",
					"opcodes": "PUSH1 0x80 PUSH1 0x40 MSTORE CALLVALUE DUP1 ISZERO PUSH2 0x10 JUMPI PUSH1 0x0 DUP1 REVERT JUMPDEST POP PUSH2 0x779 DUP1 PUSH2 0x20 PUSH1 0x0 CODECOPY PUSH1 0x0 RETURN INVALID PUSH1 0x80 PUSH1 0x40 MSTORE CALLVALUE DUP1 ISZERO PUSH2 0x10 JUMPI PUSH1 0x0 DUP1 REVERT JUMPDEST POP PUSH1 0x4 CALLDATASIZE LT PUSH2 0x7D JUMPI PUSH1 0x0 CALLDATALOAD PUSH1 0xE0 SHR DUP1 PUSH4 0x492BFA18 GT PUSH2 0x5B JUMPI DUP1 PUSH4 0x492BFA18 EQ PUSH2 0xDC JUMPI DUP1 PUSH4 0x82180568 EQ PUSH2 0xFA JUMPI DUP1 PUSH4 0xA8A7B895 EQ PUSH2 0x116 JUMPI DUP1 PUSH4 0xE492FD84 EQ PUSH2 0x132 JUMPI PUSH2 0x7D JUMP JUMPDEST DUP1 PUSH4 0x6540F7E EQ PUSH2 0x82 JUMPI DUP1 PUSH4 0x15502612 EQ PUSH2 0xA0 JUMPI DUP1 PUSH4 0x26B85EE1 EQ PUSH2 0xBE JUMPI JUMPDEST PUSH1 0x0 DUP1 REVERT JUMPDEST PUSH2 0x8A PUSH2 0x14E JUMP JUMPDEST PUSH1 0x40 MLOAD PUSH2 0x97 SWAP2 SWAP1 PUSH2 0x36D JUMP JUMPDEST PUSH1 0x40 MLOAD DUP1 SWAP2 SUB SWAP1 RETURN JUMPDEST PUSH2 0xA8 PUSH2 0x154 JUMP JUMPDEST PUSH1 0x40 MLOAD PUSH2 0xB5 SWAP2 SWAP1 PUSH2 0x36D JUMP JUMPDEST PUSH1 0x40 MLOAD DUP1 SWAP2 SUB SWAP1 RETURN JUMPDEST PUSH2 0xC6 PUSH2 0x195 JUMP JUMPDEST PUSH1 0x40 MLOAD PUSH2 0xD3 SWAP2 SWAP1 PUSH2 0x3C9 JUMP JUMPDEST PUSH1 0x40 MLOAD DUP1 SWAP2 SUB SWAP1 RETURN JUMPDEST PUSH2 0xE4 PUSH2 0x1BB JUMP JUMPDEST PUSH1 0x40 MLOAD PUSH2 0xF1 SWAP2 SWAP1 PUSH2 0x47D JUMP JUMPDEST PUSH1 0x40 MLOAD DUP1 SWAP2 SUB SWAP1 RETURN JUMPDEST PUSH2 0x114 PUSH1 0x4 DUP1 CALLDATASIZE SUB DUP2 ADD SWAP1 PUSH2 0x10F SWAP2 SWAP1 PUSH2 0x5E8 JUMP JUMPDEST PUSH2 0x249 JUMP JUMPDEST STOP JUMPDEST PUSH2 0x130 PUSH1 0x4 DUP1 CALLDATASIZE SUB DUP2 ADD SWAP1 PUSH2 0x12B SWAP2 SWAP1 PUSH2 0x65D JUMP JUMPDEST PUSH2 0x263 JUMP JUMPDEST STOP JUMPDEST PUSH2 0x14C PUSH1 0x4 DUP1 CALLDATASIZE SUB DUP2 ADD SWAP1 PUSH2 0x147 SWAP2 SWAP1 PUSH2 0x6B6 JUMP JUMPDEST PUSH2 0x2A7 JUMP JUMPDEST STOP JUMPDEST PUSH1 0x0 SLOAD DUP2 JUMP JUMPDEST PUSH1 0x0 PUSH1 0x1 PUSH1 0x0 SWAP1 SLOAD SWAP1 PUSH2 0x100 EXP SWAP1 DIV PUSH20 0xFFFFFFFFFFFFFFFFFFFFFFFFFFFFFFFFFFFFFFFF AND PUSH20 0xFFFFFFFFFFFFFFFFFFFFFFFFFFFFFFFFFFFFFFFF AND BALANCE SWAP1 POP SWAP1 JUMP JUMPDEST PUSH1 0x1 PUSH1 0x0 SWAP1 SLOAD SWAP1 PUSH2 0x100 EXP SWAP1 DIV PUSH20 0xFFFFFFFFFFFFFFFFFFFFFFFFFFFFFFFFFFFFFFFF AND DUP2 JUMP JUMPDEST PUSH1 0x2 DUP1 SLOAD PUSH2 0x1C8 SWAP1 PUSH2 0x712 JUMP JUMPDEST DUP1 PUSH1 0x1F ADD PUSH1 0x20 DUP1 SWAP2 DIV MUL PUSH1 0x20 ADD PUSH1 0x40 MLOAD SWAP1 DUP2 ADD PUSH1 0x40 MSTORE DUP1 SWAP3 SWAP2 SWAP1 DUP2 DUP2 MSTORE PUSH1 0x20 ADD DUP3 DUP1 SLOAD PUSH2 0x1F4 SWAP1 PUSH2 0x712 JUMP JUMPDEST DUP1 ISZERO PUSH2 0x241 JUMPI DUP1 PUSH1 0x1F LT PUSH2 0x216 JUMPI PUSH2 0x100 DUP1 DUP4 SLOAD DIV MUL DUP4 MSTORE SWAP2 PUSH1 0x20 ADD SWAP2 PUSH2 0x241 JUMP JUMPDEST DUP3 ADD SWAP2 SWAP1 PUSH1 0x0 MSTORE PUSH1 0x20 PUSH1 0x0 KECCAK256 SWAP1 JUMPDEST DUP2 SLOAD DUP2 MSTORE SWAP1 PUSH1 0x1 ADD SWAP1 PUSH1 0x20 ADD DUP1 DUP4 GT PUSH2 0x224 JUMPI DUP3 SWAP1 SUB PUSH1 0x1F AND DUP3 ADD SWAP2 JUMPDEST POP POP POP POP POP DUP2 JUMP JUMPDEST DUP1 PUSH1 0x2 SWAP1 DUP1 MLOAD SWAP1 PUSH1 0x20 ADD SWAP1 PUSH2 0x25F SWAP3 SWAP2 SWAP1 PUSH2 0x2B1 JUMP JUMPDEST POP POP JUMP JUMPDEST DUP1 PUSH1 0x1 PUSH1 0x0 PUSH2 0x100 EXP DUP2 SLOAD DUP2 PUSH20 0xFFFFFFFFFFFFFFFFFFFFFFFFFFFFFFFFFFFFFFFF MUL NOT AND SWAP1 DUP4 PUSH20 0xFFFFFFFFFFFFFFFFFFFFFFFFFFFFFFFFFFFFFFFF AND MUL OR SWAP1 SSTORE POP POP JUMP JUMPDEST DUP1 PUSH1 0x0 DUP2 SWAP1 SSTORE POP POP JUMP JUMPDEST DUP3 DUP1 SLOAD PUSH2 0x2BD SWAP1 PUSH2 0x712 JUMP JUMPDEST SWAP1 PUSH1 0x0 MSTORE PUSH1 0x20 PUSH1 0x0 KECCAK256 SWAP1 PUSH1 0x1F ADD PUSH1 0x20 SWAP1 DIV DUP2 ADD SWAP3 DUP3 PUSH2 0x2DF JUMPI PUSH1 0x0 DUP6 SSTORE PUSH2 0x326 JUMP JUMPDEST DUP3 PUSH1 0x1F LT PUSH2 0x2F8 JUMPI DUP1 MLOAD PUSH1 0xFF NOT AND DUP4 DUP1 ADD OR DUP6 SSTORE PUSH2 0x326 JUMP JUMPDEST DUP3 DUP1 ADD PUSH1 0x1 ADD DUP6 SSTORE DUP3 ISZERO PUSH2 0x326 JUMPI SWAP2 DUP3 ADD JUMPDEST DUP3 DUP2 GT ISZERO PUSH2 0x325 JUMPI DUP3 MLOAD DUP3 SSTORE SWAP2 PUSH1 0x20 ADD SWAP2 SWAP1 PUSH1 0x1 ADD SWAP1 PUSH2 0x30A JUMP JUMPDEST JUMPDEST POP SWAP1 POP PUSH2 0x333 SWAP2 SWAP1 PUSH2 0x337 JUMP JUMPDEST POP SWAP1 JUMP JUMPDEST JUMPDEST DUP1 DUP3 GT ISZERO PUSH2 0x350 JUMPI PUSH1 0x0 DUP2 PUSH1 0x0 SWAP1 SSTORE POP PUSH1 0x1 ADD PUSH2 0x338 JUMP JUMPDEST POP SWAP1 JUMP JUMPDEST PUSH1 0x0 DUP2 SWAP1 POP SWAP2 SWAP1 POP JUMP JUMPDEST PUSH2 0x367 DUP2 PUSH2 0x354 JUMP JUMPDEST DUP3 MSTORE POP POP JUMP JUMPDEST PUSH1 0x0 PUSH1 0x20 DUP3 ADD SWAP1 POP PUSH2 0x382 PUSH1 0x0 DUP4 ADD DUP5 PUSH2 0x35E JUMP JUMPDEST SWAP3 SWAP2 POP POP JUMP JUMPDEST PUSH1 0x0 PUSH20 0xFFFFFFFFFFFFFFFFFFFFFFFFFFFFFFFFFFFFFFFF DUP3 AND SWAP1 POP SWAP2 SWAP1 POP JUMP JUMPDEST PUSH1 0x0 PUSH2 0x3B3 DUP3 PUSH2 0x388 JUMP JUMPDEST SWAP1 POP SWAP2 SWAP1 POP JUMP JUMPDEST PUSH2 0x3C3 DUP2 PUSH2 0x3A8 JUMP JUMPDEST DUP3 MSTORE POP POP JUMP JUMPDEST PUSH1 0x0 PUSH1 0x20 DUP3 ADD SWAP1 POP PUSH2 0x3DE PUSH1 0x0 DUP4 ADD DUP5 PUSH2 0x3BA JUMP JUMPDEST SWAP3 SWAP2 POP POP JUMP JUMPDEST PUSH1 0x0 DUP2 MLOAD SWAP1 POP SWAP2 SWAP1 POP JUMP JUMPDEST PUSH1 0x0 DUP3 DUP3 MSTORE PUSH1 0x20 DUP3 ADD SWAP1 POP SWAP3 SWAP2 POP POP JUMP JUMPDEST PUSH1 0x0 JUMPDEST DUP4 DUP2 LT ISZERO PUSH2 0x41E JUMPI DUP1 DUP3 ADD MLOAD DUP2 DUP5 ADD MSTORE PUSH1 0x20 DUP2 ADD SWAP1 POP PUSH2 0x403 JUMP JUMPDEST DUP4 DUP2 GT ISZERO PUSH2 0x42D JUMPI PUSH1 0x0 DUP5 DUP5 ADD MSTORE JUMPDEST POP POP POP POP JUMP JUMPDEST PUSH1 0x0 PUSH1 0x1F NOT PUSH1 0x1F DUP4 ADD AND SWAP1 POP SWAP2 SWAP1 POP JUMP JUMPDEST PUSH1 0x0 PUSH2 0x44F DUP3 PUSH2 0x3E4 JUMP JUMPDEST PUSH2 0x459 DUP2 DUP6 PUSH2 0x3EF JUMP JUMPDEST SWAP4 POP PUSH2 0x469 DUP2 DUP6 PUSH1 0x20 DUP7 ADD PUSH2 0x400 JUMP JUMPDEST PUSH2 0x472 DUP2 PUSH2 0x433 JUMP JUMPDEST DUP5 ADD SWAP2 POP POP SWAP3 SWAP2 POP POP JUMP JUMPDEST PUSH1 0x0 PUSH1 0x20 DUP3 ADD SWAP1 POP DUP2 DUP2 SUB PUSH1 0x0 DUP4 ADD MSTORE PUSH2 0x497 DUP2 DUP5 PUSH2 0x444 JUMP JUMPDEST SWAP1 POP SWAP3 SWAP2 POP POP JUMP JUMPDEST PUSH1 0x0 PUSH1 0x40 MLOAD SWAP1 POP SWAP1 JUMP JUMPDEST PUSH1 0x0 DUP1 REVERT JUMPDEST PUSH1 0x0 DUP1 REVERT JUMPDEST PUSH1 0x0 DUP1 REVERT JUMPDEST PUSH1 0x0 DUP1 REVERT JUMPDEST PUSH32 0x4E487B7100000000000000000000000000000000000000000000000000000000 PUSH1 0x0 MSTORE PUSH1 0x41 PUSH1 0x4 MSTORE PUSH1 0x24 PUSH1 0x0 REVERT JUMPDEST PUSH2 0x4F5 DUP3 PUSH2 0x433 JUMP JUMPDEST DUP2 ADD DUP2 DUP2 LT PUSH8 0xFFFFFFFFFFFFFFFF DUP3 GT OR ISZERO PUSH2 0x514 JUMPI PUSH2 0x513 PUSH2 0x4BD JUMP JUMPDEST JUMPDEST DUP1 PUSH1 0x40 MSTORE POP POP POP JUMP JUMPDEST PUSH1 0x0 PUSH2 0x527 PUSH2 0x49F JUMP JUMPDEST SWAP1 POP PUSH2 0x533 DUP3 DUP3 PUSH2 0x4EC JUMP JUMPDEST SWAP2 SWAP1 POP JUMP JUMPDEST PUSH1 0x0 PUSH8 0xFFFFFFFFFFFFFFFF DUP3 GT ISZERO PUSH2 0x553 JUMPI PUSH2 0x552 PUSH2 0x4BD JUMP JUMPDEST JUMPDEST PUSH2 0x55C DUP3 PUSH2 0x433 JUMP JUMPDEST SWAP1 POP PUSH1 0x20 DUP2 ADD SWAP1 POP SWAP2 SWAP1 POP JUMP JUMPDEST DUP3 DUP2 DUP4 CALLDATACOPY PUSH1 0x0 DUP4 DUP4 ADD MSTORE POP POP POP JUMP JUMPDEST PUSH1 0x0 PUSH2 0x58B PUSH2 0x586 DUP5 PUSH2 0x538 JUMP JUMPDEST PUSH2 0x51D JUMP JUMPDEST SWAP1 POP DUP3 DUP2 MSTORE PUSH1 0x20 DUP2 ADD DUP5 DUP5 DUP5 ADD GT ISZERO PUSH2 0x5A7 JUMPI PUSH2 0x5A6 PUSH2 0x4B8 JUMP JUMPDEST JUMPDEST PUSH2 0x5B2 DUP5 DUP3 DUP6 PUSH2 0x569 JUMP JUMPDEST POP SWAP4 SWAP3 POP POP POP JUMP JUMPDEST PUSH1 0x0 DUP3 PUSH1 0x1F DUP4 ADD SLT PUSH2 0x5CF JUMPI PUSH2 0x5CE PUSH2 0x4B3 JUMP JUMPDEST JUMPDEST DUP2 CALLDATALOAD PUSH2 0x5DF DUP5 DUP3 PUSH1 0x20 DUP7 ADD PUSH2 0x578 JUMP JUMPDEST SWAP2 POP POP SWAP3 SWAP2 POP POP JUMP JUMPDEST PUSH1 0x0 PUSH1 0x20 DUP3 DUP5 SUB SLT ISZERO PUSH2 0x5FE JUMPI PUSH2 0x5FD PUSH2 0x4A9 JUMP JUMPDEST JUMPDEST PUSH1 0x0 DUP3 ADD CALLDATALOAD PUSH8 0xFFFFFFFFFFFFFFFF DUP2 GT ISZERO PUSH2 0x61C JUMPI PUSH2 0x61B PUSH2 0x4AE JUMP JUMPDEST JUMPDEST PUSH2 0x628 DUP5 DUP3 DUP6 ADD PUSH2 0x5BA JUMP JUMPDEST SWAP2 POP POP SWAP3 SWAP2 POP POP JUMP JUMPDEST PUSH2 0x63A DUP2 PUSH2 0x3A8 JUMP JUMPDEST DUP2 EQ PUSH2 0x645 JUMPI PUSH1 0x0 DUP1 REVERT JUMPDEST POP JUMP JUMPDEST PUSH1 0x0 DUP2 CALLDATALOAD SWAP1 POP PUSH2 0x657 DUP2 PUSH2 0x631 JUMP JUMPDEST SWAP3 SWAP2 POP POP JUMP JUMPDEST PUSH1 0x0 PUSH1 0x20 DUP3 DUP5 SUB SLT ISZERO PUSH2 0x673 JUMPI PUSH2 0x672 PUSH2 0x4A9 JUMP JUMPDEST JUMPDEST PUSH1 0x0 PUSH2 0x681 DUP5 DUP3 DUP6 ADD PUSH2 0x648 JUMP JUMPDEST SWAP2 POP POP SWAP3 SWAP2 POP POP JUMP JUMPDEST PUSH2 0x693 DUP2 PUSH2 0x354 JUMP JUMPDEST DUP2 EQ PUSH2 0x69E JUMPI PUSH1 0x0 DUP1 REVERT JUMPDEST POP JUMP JUMPDEST PUSH1 0x0 DUP2 CALLDATALOAD SWAP1 POP PUSH2 0x6B0 DUP2 PUSH2 0x68A JUMP JUMPDEST SWAP3 SWAP2 POP POP JUMP JUMPDEST PUSH1 0x0 PUSH1 0x20 DUP3 DUP5 SUB SLT ISZERO PUSH2 0x6CC JUMPI PUSH2 0x6CB PUSH2 0x4A9 JUMP JUMPDEST JUMPDEST PUSH1 0x0 PUSH2 0x6DA DUP5 DUP3 DUP6 ADD PUSH2 0x6A1 JUMP JUMPDEST SWAP2 POP POP SWAP3 SWAP2 POP POP JUMP JUMPDEST PUSH32 0x4E487B7100000000000000000000000000000000000000000000000000000000 PUSH1 0x0 MSTORE PUSH1 0x22 PUSH1 0x4 MSTORE PUSH1 0x24 PUSH1 0x0 REVERT JUMPDEST PUSH1 0x0 PUSH1 0x2 DUP3 DIV SWAP1 POP PUSH1 0x1 DUP3 AND DUP1 PUSH2 0x72A JUMPI PUSH1 0x7F DUP3 AND SWAP2 POP JUMPDEST PUSH1 0x20 DUP3 LT DUP2 SUB PUSH2 0x73D JUMPI PUSH2 0x73C PUSH2 0x6E3 JUMP JUMPDEST JUMPDEST POP SWAP2 SWAP1 POP JUMP INVALID LOG2 PUSH5 0x6970667358 0x22 SLT KECCAK256 DUP16 PUSH9 0xE0D0B930704EB51D7B LOG4 0x5C 0xA6 STATICCALL 0x2B SIGNEXTEND PUSH3 0x842DF4 SWAP11 SWAP2 EXP DUP15 PUSH22 0xA43C838E7BDA64736F6C634300080D00330000000000 "
				},
				"gasEstimates": {
					"creation": {
						"codeDepositCost": "382600",
						"executionCost": "418",
						"totalCost": "383018"
					},
					"external": {
						"getBalanceOfAddress()": "5102",
						"myAddress()": "2559",
						"myString()": "infinite",
						"myUint()": "2430",
						"setMyAddress(address)": "24766",
						"setMyString(string)": "infinite",
						"setMyUint(uint256)": "22586"
					}
				},
				"methodIdentifiers": {
					"getBalanceOfAddress()": "15502612",
					"myAddress()": "26b85ee1",
					"myString()": "492bfa18",
					"myUint()": "06540f7e",
					"setMyAddress(address)": "a8a7b895",
					"setMyString(string)": "82180568",
					"setMyUint(uint256)": "e492fd84"
				}
			},
			"storageLayout": {
				"storage": [
					{
						"astId": 3,
						"contract": "CompileVariables.sol:WorkingWithVariables",
						"label": "myUint",
						"offset": 0,
						"slot": "0",
						"type": "t_uint256"
					},
					{
						"astId": 15,
						"contract": "CompileVariables.sol:WorkingWithVariables",
						"label": "myAddress",
						"offset": 0,
						"slot": "1",
						"type": "t_address"
					},
					{
						"astId": 36,
						"contract": "CompileVariables.sol:WorkingWithVariables",
						"label": "myString",
						"offset": 0,
						"slot": "2",
						"type": "t_string_storage"
					}
				],
				"types": {
					"t_address": {
						"encoding": "inplace",
						"label": "address",
						"numberOfBytes": "20"
					},
					"t_string_storage": {
						"encoding": "bytes",
						"label": "string",
						"numberOfBytes": "32"
					},
					"t_uint256": {
						"encoding": "inplace",
						"label": "uint256",
						"numberOfBytes": "32"
					}
				}
			},
			"userdoc": {
				"kind": "user",
				"methods": {},
				"version": 1
			}
		}
	}
}