{
	"ItemManager.sol": {
		"ItemManager": {
			"abi": [
				{
					"inputs": [
						{
							"internalType": "string",
							"name": "_itemName",
							"type": "string"
						},
						{
							"internalType": "uint256",
							"name": "_itemPrice",
							"type": "uint256"
						}
					],
					"name": "createItem",
					"outputs": [],
					"stateMutability": "nonpayable",
					"type": "function"
				},
				{
					"inputs": [
						{
							"internalType": "uint256",
							"name": "",
							"type": "uint256"
						}
					],
					"name": "items",
					"outputs": [
						{
							"internalType": "string",
							"name": "_itemName",
							"type": "string"
						},
						{
							"internalType": "uint256",
							"name": "_itemPrice",
							"type": "uint256"
						},
						{
							"internalType": "enum ItemManager.SupplyChainState",
							"name": "_state",
							"type": "uint8"
						}
					],
					"stateMutability": "view",
					"type": "function"
				}
			],
			"devdoc": {
				"kind": "dev",
				"methods": {},
				"version": 1
			},
			"evm": {
				"assembly": "    /* \"ItemManager.sol\":112:773  contract ItemManager {... */\n  mstore(0x40, 0x80)\n  callvalue\n  dup1\n  iszero\n  tag_1\n  jumpi\n  0x00\n  dup1\n  revert\ntag_1:\n  pop\n  dataSize(sub_0)\n  dup1\n  dataOffset(sub_0)\n  0x00\n  codecopy\n  0x00\n  return\nstop\n\nsub_0: assembly {\n        /* \"ItemManager.sol\":112:773  contract ItemManager {... */\n      mstore(0x40, 0x80)\n      callvalue\n      dup1\n      iszero\n      tag_1\n      jumpi\n      0x00\n      dup1\n      revert\n    tag_1:\n      pop\n      jumpi(tag_2, lt(calldatasize, 0x04))\n      shr(0xe0, calldataload(0x00))\n      dup1\n      0x8c551742\n      eq\n      tag_3\n      jumpi\n      dup1\n      0xbfb231d2\n      eq\n      tag_4\n      jumpi\n    tag_2:\n      0x00\n      dup1\n      revert\n        /* \"ItemManager.sol\":507:748  function createItem(string memory _itemName, uint _itemPrice) public {... */\n    tag_3:\n      tag_5\n      0x04\n      dup1\n      calldatasize\n      sub\n      dup2\n      add\n      swap1\n      tag_6\n      swap2\n      swap1\n      tag_7\n      jump\t// in\n    tag_6:\n      tag_8\n      jump\t// in\n    tag_5:\n      stop\n        /* \"ItemManager.sol\":338:374  mapping(uint => S_Item) public items */\n    tag_4:\n      tag_9\n      0x04\n      dup1\n      calldatasize\n      sub\n      dup2\n      add\n      swap1\n      tag_10\n      swap2\n      swap1\n      tag_11\n      jump\t// in\n    tag_10:\n      tag_12\n      jump\t// in\n    tag_9:\n      mload(0x40)\n      tag_13\n      swap4\n      swap3\n      swap2\n      swap1\n      tag_14\n      jump\t// in\n    tag_13:\n      mload(0x40)\n      dup1\n      swap2\n      sub\n      swap1\n      return\n        /* \"ItemManager.sol\":507:748  function createItem(string memory _itemName, uint _itemPrice) public {... */\n    tag_8:\n        /* \"ItemManager.sol\":614:623  _itemName */\n      dup2\n        /* \"ItemManager.sol\":586:591  items */\n      0x00\n        /* \"ItemManager.sol\":586:602  items[itemIndex] */\n      dup1\n        /* \"ItemManager.sol\":592:601  itemIndex */\n      sload(0x01)\n        /* \"ItemManager.sol\":586:602  items[itemIndex] */\n      dup2\n      mstore\n      0x20\n      add\n      swap1\n      dup2\n      mstore\n      0x20\n      add\n      0x00\n      keccak256\n        /* \"ItemManager.sol\":586:612  items[itemIndex]._itemName */\n      0x00\n      add\n        /* \"ItemManager.sol\":586:623  items[itemIndex]._itemName =_itemName */\n      swap1\n      dup2\n      tag_16\n      swap2\n      swap1\n      tag_17\n      jump\t// in\n    tag_16:\n      pop\n        /* \"ItemManager.sol\":662:672  _itemPrice */\n      dup1\n        /* \"ItemManager.sol\":633:638  items */\n      0x00\n        /* \"ItemManager.sol\":633:649  items[itemIndex] */\n      dup1\n        /* \"ItemManager.sol\":639:648  itemIndex */\n      sload(0x01)\n        /* \"ItemManager.sol\":633:649  items[itemIndex] */\n      dup2\n      mstore\n      0x20\n      add\n      swap1\n      dup2\n      mstore\n      0x20\n      add\n      0x00\n      keccak256\n        /* \"ItemManager.sol\":633:660  items[itemIndex]._itemPrice */\n      0x01\n      add\n        /* \"ItemManager.sol\":633:672  items[itemIndex]._itemPrice =_itemPrice */\n      dup2\n      swap1\n      sstore\n      pop\n        /* \"ItemManager.sol\":708:732  SupplyChainState.Created */\n      0x00\n        /* \"ItemManager.sol\":682:687  items */\n      dup1\n        /* \"ItemManager.sol\":682:698  items[itemIndex] */\n      0x00\n        /* \"ItemManager.sol\":688:697  itemIndex */\n      sload(0x01)\n        /* \"ItemManager.sol\":682:698  items[itemIndex] */\n      dup2\n      mstore\n      0x20\n      add\n      swap1\n      dup2\n      mstore\n      0x20\n      add\n      0x00\n      keccak256\n        /* \"ItemManager.sol\":682:705  items[itemIndex]._state */\n      0x02\n      add\n      0x00\n        /* \"ItemManager.sol\":682:732  items[itemIndex]._state = SupplyChainState.Created */\n      0x0100\n      exp\n      dup2\n      sload\n      dup2\n      0xff\n      mul\n      not\n      and\n      swap1\n      dup4\n      0x02\n      dup2\n      gt\n      iszero\n      tag_18\n      jumpi\n      tag_19\n      tag_20\n      jump\t// in\n    tag_19:\n    tag_18:\n      mul\n      or\n      swap1\n      sstore\n      pop\n        /* \"ItemManager.sol\":507:748  function createItem(string memory _itemName, uint _itemPrice) public {... */\n      pop\n      pop\n      jump\t// out\n        /* \"ItemManager.sol\":338:374  mapping(uint => S_Item) public items */\n    tag_12:\n      mstore(0x20, 0x00)\n      dup1\n      0x00\n      mstore\n      keccak256(0x00, 0x40)\n      0x00\n      swap2\n      pop\n      swap1\n      pop\n      dup1\n      0x00\n      add\n      dup1\n      sload\n      tag_21\n      swap1\n      tag_22\n      jump\t// in\n    tag_21:\n      dup1\n      0x1f\n      add\n      0x20\n      dup1\n      swap2\n      div\n      mul\n      0x20\n      add\n      mload(0x40)\n      swap1\n      dup2\n      add\n      0x40\n      mstore\n      dup1\n      swap3\n      swap2\n      swap1\n      dup2\n      dup2\n      mstore\n      0x20\n      add\n      dup3\n      dup1\n      sload\n      tag_23\n      swap1\n      tag_22\n      jump\t// in\n    tag_23:\n      dup1\n      iszero\n      tag_24\n      jumpi\n      dup1\n      0x1f\n      lt\n      tag_25\n      jumpi\n      0x0100\n      dup1\n      dup4\n      sload\n      div\n      mul\n      dup4\n      mstore\n      swap2\n      0x20\n      add\n      swap2\n      jump(tag_24)\n    tag_25:\n      dup3\n      add\n      swap2\n      swap1\n      0x00\n      mstore\n      keccak256(0x00, 0x20)\n      swap1\n    tag_26:\n      dup2\n      sload\n      dup2\n      mstore\n      swap1\n      0x01\n      add\n      swap1\n      0x20\n      add\n      dup1\n      dup4\n      gt\n      tag_26\n      jumpi\n      dup3\n      swap1\n      sub\n      0x1f\n      and\n      dup3\n      add\n      swap2\n    tag_24:\n      pop\n      pop\n      pop\n      pop\n      pop\n      swap1\n      dup1\n      0x01\n      add\n      sload\n      swap1\n      dup1\n      0x02\n      add\n      0x00\n      swap1\n      sload\n      swap1\n      0x0100\n      exp\n      swap1\n      div\n      0xff\n      and\n      swap1\n      pop\n      dup4\n      jump\t// out\n        /* \"#utility.yul\":7:82   */\n    tag_27:\n        /* \"#utility.yul\":40:46   */\n      0x00\n        /* \"#utility.yul\":73:75   */\n      0x40\n        /* \"#utility.yul\":67:76   */\n      mload\n        /* \"#utility.yul\":57:76   */\n      swap1\n      pop\n        /* \"#utility.yul\":7:82   */\n      swap1\n      jump\t// out\n        /* \"#utility.yul\":88:205   */\n    tag_28:\n        /* \"#utility.yul\":197:198   */\n      0x00\n        /* \"#utility.yul\":194:195   */\n      dup1\n        /* \"#utility.yul\":187:199   */\n      revert\n        /* \"#utility.yul\":211:328   */\n    tag_29:\n        /* \"#utility.yul\":320:321   */\n      0x00\n        /* \"#utility.yul\":317:318   */\n      dup1\n        /* \"#utility.yul\":310:322   */\n      revert\n        /* \"#utility.yul\":334:451   */\n    tag_30:\n        /* \"#utility.yul\":443:444   */\n      0x00\n        /* \"#utility.yul\":440:441   */\n      dup1\n        /* \"#utility.yul\":433:445   */\n      revert\n        /* \"#utility.yul\":457:574   */\n    tag_31:\n        /* \"#utility.yul\":566:567   */\n      0x00\n        /* \"#utility.yul\":563:564   */\n      dup1\n        /* \"#utility.yul\":556:568   */\n      revert\n        /* \"#utility.yul\":580:682   */\n    tag_32:\n        /* \"#utility.yul\":621:627   */\n      0x00\n        /* \"#utility.yul\":672:674   */\n      0x1f\n        /* \"#utility.yul\":668:675   */\n      not\n        /* \"#utility.yul\":663:665   */\n      0x1f\n        /* \"#utility.yul\":656:661   */\n      dup4\n        /* \"#utility.yul\":652:666   */\n      add\n        /* \"#utility.yul\":648:676   */\n      and\n        /* \"#utility.yul\":638:676   */\n      swap1\n      pop\n        /* \"#utility.yul\":580:682   */\n      swap2\n      swap1\n      pop\n      jump\t// out\n        /* \"#utility.yul\":688:868   */\n    tag_33:\n        /* \"#utility.yul\":736:813   */\n      0x4e487b7100000000000000000000000000000000000000000000000000000000\n        /* \"#utility.yul\":733:734   */\n      0x00\n        /* \"#utility.yul\":726:814   */\n      mstore\n        /* \"#utility.yul\":833:837   */\n      0x41\n        /* \"#utility.yul\":830:831   */\n      0x04\n        /* \"#utility.yul\":823:838   */\n      mstore\n        /* \"#utility.yul\":857:861   */\n      0x24\n        /* \"#utility.yul\":854:855   */\n      0x00\n        /* \"#utility.yul\":847:862   */\n      revert\n        /* \"#utility.yul\":874:1155   */\n    tag_34:\n        /* \"#utility.yul\":957:984   */\n      tag_77\n        /* \"#utility.yul\":979:983   */\n      dup3\n        /* \"#utility.yul\":957:984   */\n      tag_32\n      jump\t// in\n    tag_77:\n        /* \"#utility.yul\":949:955   */\n      dup2\n        /* \"#utility.yul\":945:985   */\n      add\n        /* \"#utility.yul\":1087:1093   */\n      dup2\n        /* \"#utility.yul\":1075:1085   */\n      dup2\n        /* \"#utility.yul\":1072:1094   */\n      lt\n        /* \"#utility.yul\":1051:1069   */\n      0xffffffffffffffff\n        /* \"#utility.yul\":1039:1049   */\n      dup3\n        /* \"#utility.yul\":1036:1070   */\n      gt\n        /* \"#utility.yul\":1033:1095   */\n      or\n        /* \"#utility.yul\":1030:1118   */\n      iszero\n      tag_78\n      jumpi\n        /* \"#utility.yul\":1098:1116   */\n      tag_79\n      tag_33\n      jump\t// in\n    tag_79:\n        /* \"#utility.yul\":1030:1118   */\n    tag_78:\n        /* \"#utility.yul\":1138:1148   */\n      dup1\n        /* \"#utility.yul\":1134:1136   */\n      0x40\n        /* \"#utility.yul\":1127:1149   */\n      mstore\n        /* \"#utility.yul\":917:1155   */\n      pop\n        /* \"#utility.yul\":874:1155   */\n      pop\n      pop\n      jump\t// out\n        /* \"#utility.yul\":1161:1290   */\n    tag_35:\n        /* \"#utility.yul\":1195:1201   */\n      0x00\n        /* \"#utility.yul\":1222:1242   */\n      tag_81\n      tag_27\n      jump\t// in\n    tag_81:\n        /* \"#utility.yul\":1212:1242   */\n      swap1\n      pop\n        /* \"#utility.yul\":1251:1284   */\n      tag_82\n        /* \"#utility.yul\":1279:1283   */\n      dup3\n        /* \"#utility.yul\":1271:1277   */\n      dup3\n        /* \"#utility.yul\":1251:1284   */\n      tag_34\n      jump\t// in\n    tag_82:\n        /* \"#utility.yul\":1161:1290   */\n      swap2\n      swap1\n      pop\n      jump\t// out\n        /* \"#utility.yul\":1296:1604   */\n    tag_36:\n        /* \"#utility.yul\":1358:1362   */\n      0x00\n        /* \"#utility.yul\":1448:1466   */\n      0xffffffffffffffff\n        /* \"#utility.yul\":1440:1446   */\n      dup3\n        /* \"#utility.yul\":1437:1467   */\n      gt\n        /* \"#utility.yul\":1434:1490   */\n      iszero\n      tag_84\n      jumpi\n        /* \"#utility.yul\":1470:1488   */\n      tag_85\n      tag_33\n      jump\t// in\n    tag_85:\n        /* \"#utility.yul\":1434:1490   */\n    tag_84:\n        /* \"#utility.yul\":1508:1537   */\n      tag_86\n        /* \"#utility.yul\":1530:1536   */\n      dup3\n        /* \"#utility.yul\":1508:1537   */\n      tag_32\n      jump\t// in\n    tag_86:\n        /* \"#utility.yul\":1500:1537   */\n      swap1\n      pop\n        /* \"#utility.yul\":1592:1596   */\n      0x20\n        /* \"#utility.yul\":1586:1590   */\n      dup2\n        /* \"#utility.yul\":1582:1597   */\n      add\n        /* \"#utility.yul\":1574:1597   */\n      swap1\n      pop\n        /* \"#utility.yul\":1296:1604   */\n      swap2\n      swap1\n      pop\n      jump\t// out\n        /* \"#utility.yul\":1610:1756   */\n    tag_37:\n        /* \"#utility.yul\":1707:1713   */\n      dup3\n        /* \"#utility.yul\":1702:1705   */\n      dup2\n        /* \"#utility.yul\":1697:1700   */\n      dup4\n        /* \"#utility.yul\":1684:1714   */\n      calldatacopy\n        /* \"#utility.yul\":1748:1749   */\n      0x00\n        /* \"#utility.yul\":1739:1745   */\n      dup4\n        /* \"#utility.yul\":1734:1737   */\n      dup4\n        /* \"#utility.yul\":1730:1746   */\n      add\n        /* \"#utility.yul\":1723:1750   */\n      mstore\n        /* \"#utility.yul\":1610:1756   */\n      pop\n      pop\n      pop\n      jump\t// out\n        /* \"#utility.yul\":1762:2187   */\n    tag_38:\n        /* \"#utility.yul\":1840:1845   */\n      0x00\n        /* \"#utility.yul\":1865:1931   */\n      tag_89\n        /* \"#utility.yul\":1881:1930   */\n      tag_90\n        /* \"#utility.yul\":1923:1929   */\n      dup5\n        /* \"#utility.yul\":1881:1930   */\n      tag_36\n      jump\t// in\n    tag_90:\n        /* \"#utility.yul\":1865:1931   */\n      tag_35\n      jump\t// in\n    tag_89:\n        /* \"#utility.yul\":1856:1931   */\n      swap1\n      pop\n        /* \"#utility.yul\":1954:1960   */\n      dup3\n        /* \"#utility.yul\":1947:1952   */\n      dup2\n        /* \"#utility.yul\":1940:1961   */\n      mstore\n        /* \"#utility.yul\":1992:1996   */\n      0x20\n        /* \"#utility.yul\":1985:1990   */\n      dup2\n        /* \"#utility.yul\":1981:1997   */\n      add\n        /* \"#utility.yul\":2030:2033   */\n      dup5\n        /* \"#utility.yul\":2021:2027   */\n      dup5\n        /* \"#utility.yul\":2016:2019   */\n      dup5\n        /* \"#utility.yul\":2012:2028   */\n      add\n        /* \"#utility.yul\":2009:2034   */\n      gt\n        /* \"#utility.yul\":2006:2118   */\n      iszero\n      tag_91\n      jumpi\n        /* \"#utility.yul\":2037:2116   */\n      tag_92\n      tag_31\n      jump\t// in\n    tag_92:\n        /* \"#utility.yul\":2006:2118   */\n    tag_91:\n        /* \"#utility.yul\":2127:2181   */\n      tag_93\n        /* \"#utility.yul\":2174:2180   */\n      dup5\n        /* \"#utility.yul\":2169:2172   */\n      dup3\n        /* \"#utility.yul\":2164:2167   */\n      dup6\n        /* \"#utility.yul\":2127:2181   */\n      tag_37\n      jump\t// in\n    tag_93:\n        /* \"#utility.yul\":1846:2187   */\n      pop\n        /* \"#utility.yul\":1762:2187   */\n      swap4\n      swap3\n      pop\n      pop\n      pop\n      jump\t// out\n        /* \"#utility.yul\":2207:2547   */\n    tag_39:\n        /* \"#utility.yul\":2263:2268   */\n      0x00\n        /* \"#utility.yul\":2312:2315   */\n      dup3\n        /* \"#utility.yul\":2305:2309   */\n      0x1f\n        /* \"#utility.yul\":2297:2303   */\n      dup4\n        /* \"#utility.yul\":2293:2310   */\n      add\n        /* \"#utility.yul\":2289:2316   */\n      slt\n        /* \"#utility.yul\":2279:2401   */\n      tag_95\n      jumpi\n        /* \"#utility.yul\":2320:2399   */\n      tag_96\n      tag_30\n      jump\t// in\n    tag_96:\n        /* \"#utility.yul\":2279:2401   */\n    tag_95:\n        /* \"#utility.yul\":2437:2443   */\n      dup2\n        /* \"#utility.yul\":2424:2444   */\n      calldataload\n        /* \"#utility.yul\":2462:2541   */\n      tag_97\n        /* \"#utility.yul\":2537:2540   */\n      dup5\n        /* \"#utility.yul\":2529:2535   */\n      dup3\n        /* \"#utility.yul\":2522:2526   */\n      0x20\n        /* \"#utility.yul\":2514:2520   */\n      dup7\n        /* \"#utility.yul\":2510:2527   */\n      add\n        /* \"#utility.yul\":2462:2541   */\n      tag_38\n      jump\t// in\n    tag_97:\n        /* \"#utility.yul\":2453:2541   */\n      swap2\n      pop\n        /* \"#utility.yul\":2269:2547   */\n      pop\n        /* \"#utility.yul\":2207:2547   */\n      swap3\n      swap2\n      pop\n      pop\n      jump\t// out\n        /* \"#utility.yul\":2553:2630   */\n    tag_40:\n        /* \"#utility.yul\":2590:2597   */\n      0x00\n        /* \"#utility.yul\":2619:2624   */\n      dup2\n        /* \"#utility.yul\":2608:2624   */\n      swap1\n      pop\n        /* \"#utility.yul\":2553:2630   */\n      swap2\n      swap1\n      pop\n      jump\t// out\n        /* \"#utility.yul\":2636:2758   */\n    tag_41:\n        /* \"#utility.yul\":2709:2733   */\n      tag_100\n        /* \"#utility.yul\":2727:2732   */\n      dup2\n        /* \"#utility.yul\":2709:2733   */\n      tag_40\n      jump\t// in\n    tag_100:\n        /* \"#utility.yul\":2702:2707   */\n      dup2\n        /* \"#utility.yul\":2699:2734   */\n      eq\n        /* \"#utility.yul\":2689:2752   */\n      tag_101\n      jumpi\n        /* \"#utility.yul\":2748:2749   */\n      0x00\n        /* \"#utility.yul\":2745:2746   */\n      dup1\n        /* \"#utility.yul\":2738:2750   */\n      revert\n        /* \"#utility.yul\":2689:2752   */\n    tag_101:\n        /* \"#utility.yul\":2636:2758   */\n      pop\n      jump\t// out\n        /* \"#utility.yul\":2764:2903   */\n    tag_42:\n        /* \"#utility.yul\":2810:2815   */\n      0x00\n        /* \"#utility.yul\":2848:2854   */\n      dup2\n        /* \"#utility.yul\":2835:2855   */\n      calldataload\n        /* \"#utility.yul\":2826:2855   */\n      swap1\n      pop\n        /* \"#utility.yul\":2864:2897   */\n      tag_103\n        /* \"#utility.yul\":2891:2896   */\n      dup2\n        /* \"#utility.yul\":2864:2897   */\n      tag_41\n      jump\t// in\n    tag_103:\n        /* \"#utility.yul\":2764:2903   */\n      swap3\n      swap2\n      pop\n      pop\n      jump\t// out\n        /* \"#utility.yul\":2909:3563   */\n    tag_7:\n        /* \"#utility.yul\":2987:2993   */\n      0x00\n        /* \"#utility.yul\":2995:3001   */\n      dup1\n        /* \"#utility.yul\":3044:3046   */\n      0x40\n        /* \"#utility.yul\":3032:3041   */\n      dup4\n        /* \"#utility.yul\":3023:3030   */\n      dup6\n        /* \"#utility.yul\":3019:3042   */\n      sub\n        /* \"#utility.yul\":3015:3047   */\n      slt\n        /* \"#utility.yul\":3012:3131   */\n      iszero\n      tag_105\n      jumpi\n        /* \"#utility.yul\":3050:3129   */\n      tag_106\n      tag_28\n      jump\t// in\n    tag_106:\n        /* \"#utility.yul\":3012:3131   */\n    tag_105:\n        /* \"#utility.yul\":3198:3199   */\n      0x00\n        /* \"#utility.yul\":3187:3196   */\n      dup4\n        /* \"#utility.yul\":3183:3200   */\n      add\n        /* \"#utility.yul\":3170:3201   */\n      calldataload\n        /* \"#utility.yul\":3228:3246   */\n      0xffffffffffffffff\n        /* \"#utility.yul\":3220:3226   */\n      dup2\n        /* \"#utility.yul\":3217:3247   */\n      gt\n        /* \"#utility.yul\":3214:3331   */\n      iszero\n      tag_107\n      jumpi\n        /* \"#utility.yul\":3250:3329   */\n      tag_108\n      tag_29\n      jump\t// in\n    tag_108:\n        /* \"#utility.yul\":3214:3331   */\n    tag_107:\n        /* \"#utility.yul\":3355:3418   */\n      tag_109\n        /* \"#utility.yul\":3410:3417   */\n      dup6\n        /* \"#utility.yul\":3401:3407   */\n      dup3\n        /* \"#utility.yul\":3390:3399   */\n      dup7\n        /* \"#utility.yul\":3386:3408   */\n      add\n        /* \"#utility.yul\":3355:3418   */\n      tag_39\n      jump\t// in\n    tag_109:\n        /* \"#utility.yul\":3345:3418   */\n      swap3\n      pop\n        /* \"#utility.yul\":3141:3428   */\n      pop\n        /* \"#utility.yul\":3467:3469   */\n      0x20\n        /* \"#utility.yul\":3493:3546   */\n      tag_110\n        /* \"#utility.yul\":3538:3545   */\n      dup6\n        /* \"#utility.yul\":3529:3535   */\n      dup3\n        /* \"#utility.yul\":3518:3527   */\n      dup7\n        /* \"#utility.yul\":3514:3536   */\n      add\n        /* \"#utility.yul\":3493:3546   */\n      tag_42\n      jump\t// in\n    tag_110:\n        /* \"#utility.yul\":3483:3546   */\n      swap2\n      pop\n        /* \"#utility.yul\":3438:3556   */\n      pop\n        /* \"#utility.yul\":2909:3563   */\n      swap3\n      pop\n      swap3\n      swap1\n      pop\n      jump\t// out\n        /* \"#utility.yul\":3569:3898   */\n    tag_11:\n        /* \"#utility.yul\":3628:3634   */\n      0x00\n        /* \"#utility.yul\":3677:3679   */\n      0x20\n        /* \"#utility.yul\":3665:3674   */\n      dup3\n        /* \"#utility.yul\":3656:3663   */\n      dup5\n        /* \"#utility.yul\":3652:3675   */\n      sub\n        /* \"#utility.yul\":3648:3680   */\n      slt\n        /* \"#utility.yul\":3645:3764   */\n      iszero\n      tag_112\n      jumpi\n        /* \"#utility.yul\":3683:3762   */\n      tag_113\n      tag_28\n      jump\t// in\n    tag_113:\n        /* \"#utility.yul\":3645:3764   */\n    tag_112:\n        /* \"#utility.yul\":3803:3804   */\n      0x00\n        /* \"#utility.yul\":3828:3881   */\n      tag_114\n        /* \"#utility.yul\":3873:3880   */\n      dup5\n        /* \"#utility.yul\":3864:3870   */\n      dup3\n        /* \"#utility.yul\":3853:3862   */\n      dup6\n        /* \"#utility.yul\":3849:3871   */\n      add\n        /* \"#utility.yul\":3828:3881   */\n      tag_42\n      jump\t// in\n    tag_114:\n        /* \"#utility.yul\":3818:3881   */\n      swap2\n      pop\n        /* \"#utility.yul\":3774:3891   */\n      pop\n        /* \"#utility.yul\":3569:3898   */\n      swap3\n      swap2\n      pop\n      pop\n      jump\t// out\n        /* \"#utility.yul\":3904:4003   */\n    tag_43:\n        /* \"#utility.yul\":3956:3962   */\n      0x00\n        /* \"#utility.yul\":3990:3995   */\n      dup2\n        /* \"#utility.yul\":3984:3996   */\n      mload\n        /* \"#utility.yul\":3974:3996   */\n      swap1\n      pop\n        /* \"#utility.yul\":3904:4003   */\n      swap2\n      swap1\n      pop\n      jump\t// out\n        /* \"#utility.yul\":4009:4178   */\n    tag_44:\n        /* \"#utility.yul\":4093:4104   */\n      0x00\n        /* \"#utility.yul\":4127:4133   */\n      dup3\n        /* \"#utility.yul\":4122:4125   */\n      dup3\n        /* \"#utility.yul\":4115:4134   */\n      mstore\n        /* \"#utility.yul\":4167:4171   */\n      0x20\n        /* \"#utility.yul\":4162:4165   */\n      dup3\n        /* \"#utility.yul\":4158:4172   */\n      add\n        /* \"#utility.yul\":4143:4172   */\n      swap1\n      pop\n        /* \"#utility.yul\":4009:4178   */\n      swap3\n      swap2\n      pop\n      pop\n      jump\t// out\n        /* \"#utility.yul\":4184:4430   */\n    tag_45:\n        /* \"#utility.yul\":4265:4266   */\n      0x00\n        /* \"#utility.yul\":4275:4388   */\n    tag_118:\n        /* \"#utility.yul\":4289:4295   */\n      dup4\n        /* \"#utility.yul\":4286:4287   */\n      dup2\n        /* \"#utility.yul\":4283:4296   */\n      lt\n        /* \"#utility.yul\":4275:4388   */\n      iszero\n      tag_120\n      jumpi\n        /* \"#utility.yul\":4374:4375   */\n      dup1\n        /* \"#utility.yul\":4369:4372   */\n      dup3\n        /* \"#utility.yul\":4365:4376   */\n      add\n        /* \"#utility.yul\":4359:4377   */\n      mload\n        /* \"#utility.yul\":4355:4356   */\n      dup2\n        /* \"#utility.yul\":4350:4353   */\n      dup5\n        /* \"#utility.yul\":4346:4357   */\n      add\n        /* \"#utility.yul\":4339:4378   */\n      mstore\n        /* \"#utility.yul\":4311:4313   */\n      0x20\n        /* \"#utility.yul\":4308:4309   */\n      dup2\n        /* \"#utility.yul\":4304:4314   */\n      add\n        /* \"#utility.yul\":4299:4314   */\n      swap1\n      pop\n        /* \"#utility.yul\":4275:4388   */\n      jump(tag_118)\n    tag_120:\n        /* \"#utility.yul\":4422:4423   */\n      0x00\n        /* \"#utility.yul\":4413:4419   */\n      dup5\n        /* \"#utility.yul\":4408:4411   */\n      dup5\n        /* \"#utility.yul\":4404:4420   */\n      add\n        /* \"#utility.yul\":4397:4424   */\n      mstore\n        /* \"#utility.yul\":4246:4430   */\n      pop\n        /* \"#utility.yul\":4184:4430   */\n      pop\n      pop\n      pop\n      jump\t// out\n        /* \"#utility.yul\":4436:4813   */\n    tag_46:\n        /* \"#utility.yul\":4524:4527   */\n      0x00\n        /* \"#utility.yul\":4552:4591   */\n      tag_122\n        /* \"#utility.yul\":4585:4590   */\n      dup3\n        /* \"#utility.yul\":4552:4591   */\n      tag_43\n      jump\t// in\n    tag_122:\n        /* \"#utility.yul\":4607:4678   */\n      tag_123\n        /* \"#utility.yul\":4671:4677   */\n      dup2\n        /* \"#utility.yul\":4666:4669   */\n      dup6\n        /* \"#utility.yul\":4607:4678   */\n      tag_44\n      jump\t// in\n    tag_123:\n        /* \"#utility.yul\":4600:4678   */\n      swap4\n      pop\n        /* \"#utility.yul\":4687:4752   */\n      tag_124\n        /* \"#utility.yul\":4745:4751   */\n      dup2\n        /* \"#utility.yul\":4740:4743   */\n      dup6\n        /* \"#utility.yul\":4733:4737   */\n      0x20\n        /* \"#utility.yul\":4726:4731   */\n      dup7\n        /* \"#utility.yul\":4722:4738   */\n      add\n        /* \"#utility.yul\":4687:4752   */\n      tag_45\n      jump\t// in\n    tag_124:\n        /* \"#utility.yul\":4777:4806   */\n      tag_125\n        /* \"#utility.yul\":4799:4805   */\n      dup2\n        /* \"#utility.yul\":4777:4806   */\n      tag_32\n      jump\t// in\n    tag_125:\n        /* \"#utility.yul\":4772:4775   */\n      dup5\n        /* \"#utility.yul\":4768:4807   */\n      add\n        /* \"#utility.yul\":4761:4807   */\n      swap2\n      pop\n        /* \"#utility.yul\":4528:4813   */\n      pop\n        /* \"#utility.yul\":4436:4813   */\n      swap3\n      swap2\n      pop\n      pop\n      jump\t// out\n        /* \"#utility.yul\":4819:4937   */\n    tag_47:\n        /* \"#utility.yul\":4906:4930   */\n      tag_127\n        /* \"#utility.yul\":4924:4929   */\n      dup2\n        /* \"#utility.yul\":4906:4930   */\n      tag_40\n      jump\t// in\n    tag_127:\n        /* \"#utility.yul\":4901:4904   */\n      dup3\n        /* \"#utility.yul\":4894:4931   */\n      mstore\n        /* \"#utility.yul\":4819:4937   */\n      pop\n      pop\n      jump\t// out\n        /* \"#utility.yul\":4943:5123   */\n    tag_20:\n        /* \"#utility.yul\":4991:5068   */\n      0x4e487b7100000000000000000000000000000000000000000000000000000000\n        /* \"#utility.yul\":4988:4989   */\n      0x00\n        /* \"#utility.yul\":4981:5069   */\n      mstore\n        /* \"#utility.yul\":5088:5092   */\n      0x21\n        /* \"#utility.yul\":5085:5086   */\n      0x04\n        /* \"#utility.yul\":5078:5093   */\n      mstore\n        /* \"#utility.yul\":5112:5116   */\n      0x24\n        /* \"#utility.yul\":5109:5110   */\n      0x00\n        /* \"#utility.yul\":5102:5117   */\n      revert\n        /* \"#utility.yul\":5129:5252   */\n    tag_48:\n        /* \"#utility.yul\":5220:5221   */\n      0x03\n        /* \"#utility.yul\":5213:5218   */\n      dup2\n        /* \"#utility.yul\":5210:5222   */\n      lt\n        /* \"#utility.yul\":5200:5246   */\n      tag_130\n      jumpi\n        /* \"#utility.yul\":5226:5244   */\n      tag_131\n      tag_20\n      jump\t// in\n    tag_131:\n        /* \"#utility.yul\":5200:5246   */\n    tag_130:\n        /* \"#utility.yul\":5129:5252   */\n      pop\n      jump\t// out\n        /* \"#utility.yul\":5258:5405   */\n    tag_49:\n        /* \"#utility.yul\":5313:5320   */\n      0x00\n        /* \"#utility.yul\":5342:5347   */\n      dup2\n        /* \"#utility.yul\":5331:5347   */\n      swap1\n      pop\n        /* \"#utility.yul\":5348:5399   */\n      tag_133\n        /* \"#utility.yul\":5393:5398   */\n      dup3\n        /* \"#utility.yul\":5348:5399   */\n      tag_48\n      jump\t// in\n    tag_133:\n        /* \"#utility.yul\":5258:5405   */\n      swap2\n      swap1\n      pop\n      jump\t// out\n        /* \"#utility.yul\":5411:5558   */\n    tag_50:\n        /* \"#utility.yul\":5477:5486   */\n      0x00\n        /* \"#utility.yul\":5510:5552   */\n      tag_135\n        /* \"#utility.yul\":5546:5551   */\n      dup3\n        /* \"#utility.yul\":5510:5552   */\n      tag_49\n      jump\t// in\n    tag_135:\n        /* \"#utility.yul\":5497:5552   */\n      swap1\n      pop\n        /* \"#utility.yul\":5411:5558   */\n      swap2\n      swap1\n      pop\n      jump\t// out\n        /* \"#utility.yul\":5564:5727   */\n    tag_51:\n        /* \"#utility.yul\":5667:5720   */\n      tag_137\n        /* \"#utility.yul\":5714:5719   */\n      dup2\n        /* \"#utility.yul\":5667:5720   */\n      tag_50\n      jump\t// in\n    tag_137:\n        /* \"#utility.yul\":5662:5665   */\n      dup3\n        /* \"#utility.yul\":5655:5721   */\n      mstore\n        /* \"#utility.yul\":5564:5727   */\n      pop\n      pop\n      jump\t// out\n        /* \"#utility.yul\":5733:6298   */\n    tag_14:\n        /* \"#utility.yul\":5918:5922   */\n      0x00\n        /* \"#utility.yul\":5956:5958   */\n      0x60\n        /* \"#utility.yul\":5945:5954   */\n      dup3\n        /* \"#utility.yul\":5941:5959   */\n      add\n        /* \"#utility.yul\":5933:5959   */\n      swap1\n      pop\n        /* \"#utility.yul\":6005:6014   */\n      dup2\n        /* \"#utility.yul\":5999:6003   */\n      dup2\n        /* \"#utility.yul\":5995:6015   */\n      sub\n        /* \"#utility.yul\":5991:5992   */\n      0x00\n        /* \"#utility.yul\":5980:5989   */\n      dup4\n        /* \"#utility.yul\":5976:5993   */\n      add\n        /* \"#utility.yul\":5969:6016   */\n      mstore\n        /* \"#utility.yul\":6033:6111   */\n      tag_139\n        /* \"#utility.yul\":6106:6110   */\n      dup2\n        /* \"#utility.yul\":6097:6103   */\n      dup7\n        /* \"#utility.yul\":6033:6111   */\n      tag_46\n      jump\t// in\n    tag_139:\n        /* \"#utility.yul\":6025:6111   */\n      swap1\n      pop\n        /* \"#utility.yul\":6121:6193   */\n      tag_140\n        /* \"#utility.yul\":6189:6191   */\n      0x20\n        /* \"#utility.yul\":6178:6187   */\n      dup4\n        /* \"#utility.yul\":6174:6192   */\n      add\n        /* \"#utility.yul\":6165:6171   */\n      dup6\n        /* \"#utility.yul\":6121:6193   */\n      tag_47\n      jump\t// in\n    tag_140:\n        /* \"#utility.yul\":6203:6291   */\n      tag_141\n        /* \"#utility.yul\":6287:6289   */\n      0x40\n        /* \"#utility.yul\":6276:6285   */\n      dup4\n        /* \"#utility.yul\":6272:6290   */\n      add\n        /* \"#utility.yul\":6263:6269   */\n      dup5\n        /* \"#utility.yul\":6203:6291   */\n      tag_51\n      jump\t// in\n    tag_141:\n        /* \"#utility.yul\":5733:6298   */\n      swap5\n      swap4\n      pop\n      pop\n      pop\n      pop\n      jump\t// out\n        /* \"#utility.yul\":6304:6484   */\n    tag_52:\n        /* \"#utility.yul\":6352:6429   */\n      0x4e487b7100000000000000000000000000000000000000000000000000000000\n        /* \"#utility.yul\":6349:6350   */\n      0x00\n        /* \"#utility.yul\":6342:6430   */\n      mstore\n        /* \"#utility.yul\":6449:6453   */\n      0x22\n        /* \"#utility.yul\":6446:6447   */\n      0x04\n        /* \"#utility.yul\":6439:6454   */\n      mstore\n        /* \"#utility.yul\":6473:6477   */\n      0x24\n        /* \"#utility.yul\":6470:6471   */\n      0x00\n        /* \"#utility.yul\":6463:6478   */\n      revert\n        /* \"#utility.yul\":6490:6810   */\n    tag_22:\n        /* \"#utility.yul\":6534:6540   */\n      0x00\n        /* \"#utility.yul\":6571:6572   */\n      0x02\n        /* \"#utility.yul\":6565:6569   */\n      dup3\n        /* \"#utility.yul\":6561:6573   */\n      div\n        /* \"#utility.yul\":6551:6573   */\n      swap1\n      pop\n        /* \"#utility.yul\":6618:6619   */\n      0x01\n        /* \"#utility.yul\":6612:6616   */\n      dup3\n        /* \"#utility.yul\":6608:6620   */\n      and\n        /* \"#utility.yul\":6639:6657   */\n      dup1\n        /* \"#utility.yul\":6629:6710   */\n      tag_144\n      jumpi\n        /* \"#utility.yul\":6695:6699   */\n      0x7f\n        /* \"#utility.yul\":6687:6693   */\n      dup3\n        /* \"#utility.yul\":6683:6700   */\n      and\n        /* \"#utility.yul\":6673:6700   */\n      swap2\n      pop\n        /* \"#utility.yul\":6629:6710   */\n    tag_144:\n        /* \"#utility.yul\":6757:6759   */\n      0x20\n        /* \"#utility.yul\":6749:6755   */\n      dup3\n        /* \"#utility.yul\":6746:6760   */\n      lt\n        /* \"#utility.yul\":6726:6744   */\n      dup2\n        /* \"#utility.yul\":6723:6761   */\n      sub\n        /* \"#utility.yul\":6720:6804   */\n      tag_145\n      jumpi\n        /* \"#utility.yul\":6776:6794   */\n      tag_146\n      tag_52\n      jump\t// in\n    tag_146:\n        /* \"#utility.yul\":6720:6804   */\n    tag_145:\n        /* \"#utility.yul\":6541:6810   */\n      pop\n        /* \"#utility.yul\":6490:6810   */\n      swap2\n      swap1\n      pop\n      jump\t// out\n        /* \"#utility.yul\":6816:6957   */\n    tag_53:\n        /* \"#utility.yul\":6865:6869   */\n      0x00\n        /* \"#utility.yul\":6888:6891   */\n      dup2\n        /* \"#utility.yul\":6880:6891   */\n      swap1\n      pop\n        /* \"#utility.yul\":6911:6914   */\n      dup2\n        /* \"#utility.yul\":6908:6909   */\n      0x00\n        /* \"#utility.yul\":6901:6915   */\n      mstore\n        /* \"#utility.yul\":6945:6949   */\n      0x20\n        /* \"#utility.yul\":6942:6943   */\n      0x00\n        /* \"#utility.yul\":6932:6950   */\n      keccak256\n        /* \"#utility.yul\":6924:6950   */\n      swap1\n      pop\n        /* \"#utility.yul\":6816:6957   */\n      swap2\n      swap1\n      pop\n      jump\t// out\n        /* \"#utility.yul\":6963:7056   */\n    tag_54:\n        /* \"#utility.yul\":7000:7006   */\n      0x00\n        /* \"#utility.yul\":7047:7049   */\n      0x20\n        /* \"#utility.yul\":7042:7044   */\n      0x1f\n        /* \"#utility.yul\":7035:7040   */\n      dup4\n        /* \"#utility.yul\":7031:7045   */\n      add\n        /* \"#utility.yul\":7027:7050   */\n      div\n        /* \"#utility.yul\":7017:7050   */\n      swap1\n      pop\n        /* \"#utility.yul\":6963:7056   */\n      swap2\n      swap1\n      pop\n      jump\t// out\n        /* \"#utility.yul\":7062:7169   */\n    tag_55:\n        /* \"#utility.yul\":7106:7114   */\n      0x00\n        /* \"#utility.yul\":7156:7161   */\n      dup3\n        /* \"#utility.yul\":7150:7154   */\n      dup3\n        /* \"#utility.yul\":7146:7162   */\n      shl\n        /* \"#utility.yul\":7125:7162   */\n      swap1\n      pop\n        /* \"#utility.yul\":7062:7169   */\n      swap3\n      swap2\n      pop\n      pop\n      jump\t// out\n        /* \"#utility.yul\":7175:7568   */\n    tag_56:\n        /* \"#utility.yul\":7244:7250   */\n      0x00\n        /* \"#utility.yul\":7294:7295   */\n      0x08\n        /* \"#utility.yul\":7282:7292   */\n      dup4\n        /* \"#utility.yul\":7278:7296   */\n      mul\n        /* \"#utility.yul\":7317:7414   */\n      tag_151\n        /* \"#utility.yul\":7347:7413   */\n      0xffffffffffffffffffffffffffffffffffffffffffffffffffffffffffffffff\n        /* \"#utility.yul\":7336:7345   */\n      dup3\n        /* \"#utility.yul\":7317:7414   */\n      tag_55\n      jump\t// in\n    tag_151:\n        /* \"#utility.yul\":7435:7474   */\n      tag_152\n        /* \"#utility.yul\":7465:7473   */\n      dup7\n        /* \"#utility.yul\":7454:7463   */\n      dup4\n        /* \"#utility.yul\":7435:7474   */\n      tag_55\n      jump\t// in\n    tag_152:\n        /* \"#utility.yul\":7423:7474   */\n      swap6\n      pop\n        /* \"#utility.yul\":7507:7511   */\n      dup1\n        /* \"#utility.yul\":7503:7512   */\n      not\n        /* \"#utility.yul\":7496:7501   */\n      dup5\n        /* \"#utility.yul\":7492:7513   */\n      and\n        /* \"#utility.yul\":7483:7513   */\n      swap4\n      pop\n        /* \"#utility.yul\":7556:7560   */\n      dup1\n        /* \"#utility.yul\":7546:7554   */\n      dup7\n        /* \"#utility.yul\":7542:7561   */\n      and\n        /* \"#utility.yul\":7535:7540   */\n      dup5\n        /* \"#utility.yul\":7532:7562   */\n      or\n        /* \"#utility.yul\":7522:7562   */\n      swap3\n      pop\n        /* \"#utility.yul\":7251:7568   */\n      pop\n      pop\n        /* \"#utility.yul\":7175:7568   */\n      swap4\n      swap3\n      pop\n      pop\n      pop\n      jump\t// out\n        /* \"#utility.yul\":7574:7634   */\n    tag_57:\n        /* \"#utility.yul\":7602:7605   */\n      0x00\n        /* \"#utility.yul\":7623:7628   */\n      dup2\n        /* \"#utility.yul\":7616:7628   */\n      swap1\n      pop\n        /* \"#utility.yul\":7574:7634   */\n      swap2\n      swap1\n      pop\n      jump\t// out\n        /* \"#utility.yul\":7640:7782   */\n    tag_58:\n        /* \"#utility.yul\":7690:7699   */\n      0x00\n        /* \"#utility.yul\":7723:7776   */\n      tag_155\n        /* \"#utility.yul\":7741:7775   */\n      tag_156\n        /* \"#utility.yul\":7750:7774   */\n      tag_157\n        /* \"#utility.yul\":7768:7773   */\n      dup5\n        /* \"#utility.yul\":7750:7774   */\n      tag_40\n      jump\t// in\n    tag_157:\n        /* \"#utility.yul\":7741:7775   */\n      tag_57\n      jump\t// in\n    tag_156:\n        /* \"#utility.yul\":7723:7776   */\n      tag_40\n      jump\t// in\n    tag_155:\n        /* \"#utility.yul\":7710:7776   */\n      swap1\n      pop\n        /* \"#utility.yul\":7640:7782   */\n      swap2\n      swap1\n      pop\n      jump\t// out\n        /* \"#utility.yul\":7788:7863   */\n    tag_59:\n        /* \"#utility.yul\":7831:7834   */\n      0x00\n        /* \"#utility.yul\":7852:7857   */\n      dup2\n        /* \"#utility.yul\":7845:7857   */\n      swap1\n      pop\n        /* \"#utility.yul\":7788:7863   */\n      swap2\n      swap1\n      pop\n      jump\t// out\n        /* \"#utility.yul\":7869:8138   */\n    tag_60:\n        /* \"#utility.yul\":7979:8018   */\n      tag_160\n        /* \"#utility.yul\":8010:8017   */\n      dup4\n        /* \"#utility.yul\":7979:8018   */\n      tag_58\n      jump\t// in\n    tag_160:\n        /* \"#utility.yul\":8040:8131   */\n      tag_161\n        /* \"#utility.yul\":8089:8130   */\n      tag_162\n        /* \"#utility.yul\":8113:8129   */\n      dup3\n        /* \"#utility.yul\":8089:8130   */\n      tag_59\n      jump\t// in\n    tag_162:\n        /* \"#utility.yul\":8081:8087   */\n      dup5\n        /* \"#utility.yul\":8074:8078   */\n      dup5\n        /* \"#utility.yul\":8068:8079   */\n      sload\n        /* \"#utility.yul\":8040:8131   */\n      tag_56\n      jump\t// in\n    tag_161:\n        /* \"#utility.yul\":8034:8038   */\n      dup3\n        /* \"#utility.yul\":8027:8132   */\n      sstore\n        /* \"#utility.yul\":7945:8138   */\n      pop\n        /* \"#utility.yul\":7869:8138   */\n      pop\n      pop\n      pop\n      jump\t// out\n        /* \"#utility.yul\":8144:8217   */\n    tag_61:\n        /* \"#utility.yul\":8189:8192   */\n      0x00\n        /* \"#utility.yul\":8144:8217   */\n      swap1\n      jump\t// out\n        /* \"#utility.yul\":8223:8412   */\n    tag_62:\n        /* \"#utility.yul\":8300:8332   */\n      tag_165\n      tag_61\n      jump\t// in\n    tag_165:\n        /* \"#utility.yul\":8341:8406   */\n      tag_166\n        /* \"#utility.yul\":8399:8405   */\n      dup2\n        /* \"#utility.yul\":8391:8397   */\n      dup5\n        /* \"#utility.yul\":8385:8389   */\n      dup5\n        /* \"#utility.yul\":8341:8406   */\n      tag_60\n      jump\t// in\n    tag_166:\n        /* \"#utility.yul\":8276:8412   */\n      pop\n        /* \"#utility.yul\":8223:8412   */\n      pop\n      pop\n      jump\t// out\n        /* \"#utility.yul\":8418:8604   */\n    tag_63:\n        /* \"#utility.yul\":8478:8598   */\n    tag_168:\n        /* \"#utility.yul\":8495:8498   */\n      dup2\n        /* \"#utility.yul\":8488:8493   */\n      dup2\n        /* \"#utility.yul\":8485:8499   */\n      lt\n        /* \"#utility.yul\":8478:8598   */\n      iszero\n      tag_170\n      jumpi\n        /* \"#utility.yul\":8549:8588   */\n      tag_171\n        /* \"#utility.yul\":8586:8587   */\n      0x00\n        /* \"#utility.yul\":8579:8584   */\n      dup3\n        /* \"#utility.yul\":8549:8588   */\n      tag_62\n      jump\t// in\n    tag_171:\n        /* \"#utility.yul\":8522:8523   */\n      0x01\n        /* \"#utility.yul\":8515:8520   */\n      dup2\n        /* \"#utility.yul\":8511:8524   */\n      add\n        /* \"#utility.yul\":8502:8524   */\n      swap1\n      pop\n        /* \"#utility.yul\":8478:8598   */\n      jump(tag_168)\n    tag_170:\n        /* \"#utility.yul\":8418:8604   */\n      pop\n      pop\n      jump\t// out\n        /* \"#utility.yul\":8610:9153   */\n    tag_64:\n        /* \"#utility.yul\":8711:8713   */\n      0x1f\n        /* \"#utility.yul\":8706:8709   */\n      dup3\n        /* \"#utility.yul\":8703:8714   */\n      gt\n        /* \"#utility.yul\":8700:9146   */\n      iszero\n      tag_173\n      jumpi\n        /* \"#utility.yul\":8745:8783   */\n      tag_174\n        /* \"#utility.yul\":8777:8782   */\n      dup2\n        /* \"#utility.yul\":8745:8783   */\n      tag_53\n      jump\t// in\n    tag_174:\n        /* \"#utility.yul\":8829:8858   */\n      tag_175\n        /* \"#utility.yul\":8847:8857   */\n      dup5\n        /* \"#utility.yul\":8829:8858   */\n      tag_54\n      jump\t// in\n    tag_175:\n        /* \"#utility.yul\":8819:8827   */\n      dup2\n        /* \"#utility.yul\":8815:8859   */\n      add\n        /* \"#utility.yul\":9012:9014   */\n      0x20\n        /* \"#utility.yul\":9000:9010   */\n      dup6\n        /* \"#utility.yul\":8997:9015   */\n      lt\n        /* \"#utility.yul\":8994:9043   */\n      iszero\n      tag_176\n      jumpi\n        /* \"#utility.yul\":9033:9041   */\n      dup2\n        /* \"#utility.yul\":9018:9041   */\n      swap1\n      pop\n        /* \"#utility.yul\":8994:9043   */\n    tag_176:\n        /* \"#utility.yul\":9056:9136   */\n      tag_177\n        /* \"#utility.yul\":9112:9134   */\n      tag_178\n        /* \"#utility.yul\":9130:9133   */\n      dup6\n        /* \"#utility.yul\":9112:9134   */\n      tag_54\n      jump\t// in\n    tag_178:\n        /* \"#utility.yul\":9102:9110   */\n      dup4\n        /* \"#utility.yul\":9098:9135   */\n      add\n        /* \"#utility.yul\":9085:9096   */\n      dup3\n        /* \"#utility.yul\":9056:9136   */\n      tag_63\n      jump\t// in\n    tag_177:\n        /* \"#utility.yul\":8715:9146   */\n      pop\n      pop\n        /* \"#utility.yul\":8700:9146   */\n    tag_173:\n        /* \"#utility.yul\":8610:9153   */\n      pop\n      pop\n      pop\n      jump\t// out\n        /* \"#utility.yul\":9159:9276   */\n    tag_65:\n        /* \"#utility.yul\":9213:9221   */\n      0x00\n        /* \"#utility.yul\":9263:9268   */\n      dup3\n        /* \"#utility.yul\":9257:9261   */\n      dup3\n        /* \"#utility.yul\":9253:9269   */\n      shr\n        /* \"#utility.yul\":9232:9269   */\n      swap1\n      pop\n        /* \"#utility.yul\":9159:9276   */\n      swap3\n      swap2\n      pop\n      pop\n      jump\t// out\n        /* \"#utility.yul\":9282:9451   */\n    tag_66:\n        /* \"#utility.yul\":9326:9332   */\n      0x00\n        /* \"#utility.yul\":9359:9410   */\n      tag_181\n        /* \"#utility.yul\":9407:9408   */\n      0x00\n        /* \"#utility.yul\":9403:9409   */\n      not\n        /* \"#utility.yul\":9395:9400   */\n      dup5\n        /* \"#utility.yul\":9392:9393   */\n      0x08\n        /* \"#utility.yul\":9388:9401   */\n      mul\n        /* \"#utility.yul\":9359:9410   */\n      tag_65\n      jump\t// in\n    tag_181:\n        /* \"#utility.yul\":9355:9411   */\n      not\n        /* \"#utility.yul\":9440:9444   */\n      dup1\n        /* \"#utility.yul\":9434:9438   */\n      dup4\n        /* \"#utility.yul\":9430:9445   */\n      and\n        /* \"#utility.yul\":9420:9445   */\n      swap2\n      pop\n        /* \"#utility.yul\":9333:9451   */\n      pop\n        /* \"#utility.yul\":9282:9451   */\n      swap3\n      swap2\n      pop\n      pop\n      jump\t// out\n        /* \"#utility.yul\":9456:9751   */\n    tag_67:\n        /* \"#utility.yul\":9532:9536   */\n      0x00\n        /* \"#utility.yul\":9678:9707   */\n      tag_183\n        /* \"#utility.yul\":9703:9706   */\n      dup4\n        /* \"#utility.yul\":9697:9701   */\n      dup4\n        /* \"#utility.yul\":9678:9707   */\n      tag_66\n      jump\t// in\n    tag_183:\n        /* \"#utility.yul\":9670:9707   */\n      swap2\n      pop\n        /* \"#utility.yul\":9740:9743   */\n      dup3\n        /* \"#utility.yul\":9737:9738   */\n      0x02\n        /* \"#utility.yul\":9733:9744   */\n      mul\n        /* \"#utility.yul\":9727:9731   */\n      dup3\n        /* \"#utility.yul\":9724:9745   */\n      or\n        /* \"#utility.yul\":9716:9745   */\n      swap1\n      pop\n        /* \"#utility.yul\":9456:9751   */\n      swap3\n      swap2\n      pop\n      pop\n      jump\t// out\n        /* \"#utility.yul\":9756:11151   */\n    tag_17:\n        /* \"#utility.yul\":9873:9910   */\n      tag_185\n        /* \"#utility.yul\":9906:9909   */\n      dup3\n        /* \"#utility.yul\":9873:9910   */\n      tag_43\n      jump\t// in\n    tag_185:\n        /* \"#utility.yul\":9975:9993   */\n      0xffffffffffffffff\n        /* \"#utility.yul\":9967:9973   */\n      dup2\n        /* \"#utility.yul\":9964:9994   */\n      gt\n        /* \"#utility.yul\":9961:10017   */\n      iszero\n      tag_186\n      jumpi\n        /* \"#utility.yul\":9997:10015   */\n      tag_187\n      tag_33\n      jump\t// in\n    tag_187:\n        /* \"#utility.yul\":9961:10017   */\n    tag_186:\n        /* \"#utility.yul\":10041:10079   */\n      tag_188\n        /* \"#utility.yul\":10073:10077   */\n      dup3\n        /* \"#utility.yul\":10067:10078   */\n      sload\n        /* \"#utility.yul\":10041:10079   */\n      tag_22\n      jump\t// in\n    tag_188:\n        /* \"#utility.yul\":10126:10193   */\n      tag_189\n        /* \"#utility.yul\":10186:10192   */\n      dup3\n        /* \"#utility.yul\":10178:10184   */\n      dup3\n        /* \"#utility.yul\":10172:10176   */\n      dup6\n        /* \"#utility.yul\":10126:10193   */\n      tag_64\n      jump\t// in\n    tag_189:\n        /* \"#utility.yul\":10220:10221   */\n      0x00\n        /* \"#utility.yul\":10244:10248   */\n      0x20\n        /* \"#utility.yul\":10231:10248   */\n      swap1\n      pop\n        /* \"#utility.yul\":10276:10278   */\n      0x1f\n        /* \"#utility.yul\":10268:10274   */\n      dup4\n        /* \"#utility.yul\":10265:10279   */\n      gt\n        /* \"#utility.yul\":10293:10294   */\n      0x01\n        /* \"#utility.yul\":10288:10906   */\n      dup2\n      eq\n      tag_191\n      jumpi\n        /* \"#utility.yul\":10950:10951   */\n      0x00\n        /* \"#utility.yul\":10967:10973   */\n      dup5\n        /* \"#utility.yul\":10964:11041   */\n      iszero\n      tag_192\n      jumpi\n        /* \"#utility.yul\":11016:11025   */\n      dup3\n        /* \"#utility.yul\":11011:11014   */\n      dup8\n        /* \"#utility.yul\":11007:11026   */\n      add\n        /* \"#utility.yul\":11001:11027   */\n      mload\n        /* \"#utility.yul\":10992:11027   */\n      swap1\n      pop\n        /* \"#utility.yul\":10964:11041   */\n    tag_192:\n        /* \"#utility.yul\":11067:11134   */\n      tag_193\n        /* \"#utility.yul\":11127:11133   */\n      dup6\n        /* \"#utility.yul\":11120:11125   */\n      dup3\n        /* \"#utility.yul\":11067:11134   */\n      tag_67\n      jump\t// in\n    tag_193:\n        /* \"#utility.yul\":11061:11065   */\n      dup7\n        /* \"#utility.yul\":11054:11135   */\n      sstore\n        /* \"#utility.yul\":10923:11145   */\n      pop\n        /* \"#utility.yul\":10258:11145   */\n      jump(tag_190)\n        /* \"#utility.yul\":10288:10906   */\n    tag_191:\n        /* \"#utility.yul\":10340:10344   */\n      0x1f\n        /* \"#utility.yul\":10336:10345   */\n      not\n        /* \"#utility.yul\":10328:10334   */\n      dup5\n        /* \"#utility.yul\":10324:10346   */\n      and\n        /* \"#utility.yul\":10374:10411   */\n      tag_194\n        /* \"#utility.yul\":10406:10410   */\n      dup7\n        /* \"#utility.yul\":10374:10411   */\n      tag_53\n      jump\t// in\n    tag_194:\n        /* \"#utility.yul\":10433:10434   */\n      0x00\n        /* \"#utility.yul\":10447:10655   */\n    tag_195:\n        /* \"#utility.yul\":10461:10468   */\n      dup3\n        /* \"#utility.yul\":10458:10459   */\n      dup2\n        /* \"#utility.yul\":10455:10469   */\n      lt\n        /* \"#utility.yul\":10447:10655   */\n      iszero\n      tag_197\n      jumpi\n        /* \"#utility.yul\":10540:10549   */\n      dup5\n        /* \"#utility.yul\":10535:10538   */\n      dup10\n        /* \"#utility.yul\":10531:10550   */\n      add\n        /* \"#utility.yul\":10525:10551   */\n      mload\n        /* \"#utility.yul\":10517:10523   */\n      dup3\n        /* \"#utility.yul\":10510:10552   */\n      sstore\n        /* \"#utility.yul\":10591:10592   */\n      0x01\n        /* \"#utility.yul\":10583:10589   */\n      dup3\n        /* \"#utility.yul\":10579:10593   */\n      add\n        /* \"#utility.yul\":10569:10593   */\n      swap2\n      pop\n        /* \"#utility.yul\":10638:10640   */\n      0x20\n        /* \"#utility.yul\":10627:10636   */\n      dup6\n        /* \"#utility.yul\":10623:10641   */\n      add\n        /* \"#utility.yul\":10610:10641   */\n      swap5\n      pop\n        /* \"#utility.yul\":10484:10488   */\n      0x20\n        /* \"#utility.yul\":10481:10482   */\n      dup2\n        /* \"#utility.yul\":10477:10489   */\n      add\n        /* \"#utility.yul\":10472:10489   */\n      swap1\n      pop\n        /* \"#utility.yul\":10447:10655   */\n      jump(tag_195)\n    tag_197:\n        /* \"#utility.yul\":10683:10689   */\n      dup7\n        /* \"#utility.yul\":10674:10681   */\n      dup4\n        /* \"#utility.yul\":10671:10690   */\n      lt\n        /* \"#utility.yul\":10668:10847   */\n      iszero\n      tag_198\n      jumpi\n        /* \"#utility.yul\":10741:10750   */\n      dup5\n        /* \"#utility.yul\":10736:10739   */\n      dup10\n        /* \"#utility.yul\":10732:10751   */\n      add\n        /* \"#utility.yul\":10726:10752   */\n      mload\n        /* \"#utility.yul\":10784:10832   */\n      tag_199\n        /* \"#utility.yul\":10826:10830   */\n      0x1f\n        /* \"#utility.yul\":10818:10824   */\n      dup10\n        /* \"#utility.yul\":10814:10831   */\n      and\n        /* \"#utility.yul\":10803:10812   */\n      dup3\n        /* \"#utility.yul\":10784:10832   */\n      tag_66\n      jump\t// in\n    tag_199:\n        /* \"#utility.yul\":10776:10782   */\n      dup4\n        /* \"#utility.yul\":10769:10833   */\n      sstore\n        /* \"#utility.yul\":10691:10847   */\n      pop\n        /* \"#utility.yul\":10668:10847   */\n    tag_198:\n        /* \"#utility.yul\":10893:10894   */\n      0x01\n        /* \"#utility.yul\":10889:10890   */\n      0x02\n        /* \"#utility.yul\":10881:10887   */\n      dup9\n        /* \"#utility.yul\":10877:10891   */\n      mul\n        /* \"#utility.yul\":10873:10895   */\n      add\n        /* \"#utility.yul\":10867:10871   */\n      dup9\n        /* \"#utility.yul\":10860:10896   */\n      sstore\n        /* \"#utility.yul\":10295:10906   */\n      pop\n      pop\n      pop\n        /* \"#utility.yul\":10258:11145   */\n    tag_190:\n      pop\n        /* \"#utility.yul\":9848:11151   */\n      pop\n      pop\n      pop\n        /* \"#utility.yul\":9756:11151   */\n      pop\n      pop\n      jump\t// out\n\n    auxdata: 0xa2646970667358221220852cf6ffd4ec91d8b42d9d87c7fdaad9996167a1ed69c258e70c86272b3ecd6964736f6c63430008100033\n}\n",
				"bytecode": {
					"linkReferences": {},
					"object": "608060405234801561001057600080fd5b5061083d806100206000396000f3fe608060405234801561001057600080fd5b50600436106100365760003560e01c80638c5517421461003b578063bfb231d214610057575b600080fd5b6100556004803603810190610050919061035d565b610089565b005b610071600480360381019061006c91906103b9565b61010e565b604051610080939291906104eb565b60405180910390f35b81600080600154815260200190815260200160002060000190816100ad9190610735565b50806000806001548152602001908152602001600020600101819055506000806000600154815260200190815260200160002060020160006101000a81548160ff0219169083600281111561010557610104610474565b5b02179055505050565b600060205280600052604060002060009150905080600001805461013190610558565b80601f016020809104026020016040519081016040528092919081815260200182805461015d90610558565b80156101aa5780601f1061017f576101008083540402835291602001916101aa565b820191906000526020600020905b81548152906001019060200180831161018d57829003601f168201915b5050505050908060010154908060020160009054906101000a900460ff16905083565b6000604051905090565b600080fd5b600080fd5b600080fd5b600080fd5b6000601f19601f8301169050919050565b7f4e487b7100000000000000000000000000000000000000000000000000000000600052604160045260246000fd5b610234826101eb565b810181811067ffffffffffffffff82111715610253576102526101fc565b5b80604052505050565b60006102666101cd565b9050610272828261022b565b919050565b600067ffffffffffffffff821115610292576102916101fc565b5b61029b826101eb565b9050602081019050919050565b82818337600083830152505050565b60006102ca6102c584610277565b61025c565b9050828152602081018484840111156102e6576102e56101e6565b5b6102f18482856102a8565b509392505050565b600082601f83011261030e5761030d6101e1565b5b813561031e8482602086016102b7565b91505092915050565b6000819050919050565b61033a81610327565b811461034557600080fd5b50565b60008135905061035781610331565b92915050565b60008060408385031215610374576103736101d7565b5b600083013567ffffffffffffffff811115610392576103916101dc565b5b61039e858286016102f9565b92505060206103af85828601610348565b9150509250929050565b6000602082840312156103cf576103ce6101d7565b5b60006103dd84828501610348565b91505092915050565b600081519050919050565b600082825260208201905092915050565b60005b83811015610420578082015181840152602081019050610405565b60008484015250505050565b6000610437826103e6565b61044181856103f1565b9350610451818560208601610402565b61045a816101eb565b840191505092915050565b61046e81610327565b82525050565b7f4e487b7100000000000000000000000000000000000000000000000000000000600052602160045260246000fd5b600381106104b4576104b3610474565b5b50565b60008190506104c5826104a3565b919050565b60006104d5826104b7565b9050919050565b6104e5816104ca565b82525050565b60006060820190508181036000830152610505818661042c565b90506105146020830185610465565b61052160408301846104dc565b949350505050565b7f4e487b7100000000000000000000000000000000000000000000000000000000600052602260045260246000fd5b6000600282049050600182168061057057607f821691505b60208210810361058357610582610529565b5b50919050565b60008190508160005260206000209050919050565b60006020601f8301049050919050565b600082821b905092915050565b6000600883026105eb7fffffffffffffffffffffffffffffffffffffffffffffffffffffffffffffffff826105ae565b6105f586836105ae565b95508019841693508086168417925050509392505050565b6000819050919050565b600061063261062d61062884610327565b61060d565b610327565b9050919050565b6000819050919050565b61064c83610617565b61066061065882610639565b8484546105bb565b825550505050565b600090565b610675610668565b610680818484610643565b505050565b5b818110156106a45761069960008261066d565b600181019050610686565b5050565b601f8211156106e9576106ba81610589565b6106c38461059e565b810160208510156106d2578190505b6106e66106de8561059e565b830182610685565b50505b505050565b600082821c905092915050565b600061070c600019846008026106ee565b1980831691505092915050565b600061072583836106fb565b9150826002028217905092915050565b61073e826103e6565b67ffffffffffffffff811115610757576107566101fc565b5b6107618254610558565b61076c8282856106a8565b600060209050601f83116001811461079f576000841561078d578287015190505b6107978582610719565b8655506107ff565b601f1984166107ad86610589565b60005b828110156107d5578489015182556001820191506020850194506020810190506107b0565b868310156107f257848901516107ee601f8916826106fb565b8355505b6001600288020188555050505b50505050505056fea2646970667358221220852cf6ffd4ec91d8b42d9d87c7fdaad9996167a1ed69c258e70c86272b3ecd6964736f6c63430008100033",
					"opcodes": "PUSH1 0x80 PUSH1 0x40 MSTORE CALLVALUE DUP1 ISZERO PUSH2 0x10 JUMPI PUSH1 0x0 DUP1 REVERT JUMPDEST POP PUSH2 0x83D DUP1 PUSH2 0x20 PUSH1 0x0 CODECOPY PUSH1 0x0 RETURN INVALID PUSH1 0x80 PUSH1 0x40 MSTORE CALLVALUE DUP1 ISZERO PUSH2 0x10 JUMPI PUSH1 0x0 DUP1 REVERT JUMPDEST POP PUSH1 0x4 CALLDATASIZE LT PUSH2 0x36 JUMPI PUSH1 0x0 CALLDATALOAD PUSH1 0xE0 SHR DUP1 PUSH4 0x8C551742 EQ PUSH2 0x3B JUMPI DUP1 PUSH4 0xBFB231D2 EQ PUSH2 0x57 JUMPI JUMPDEST PUSH1 0x0 DUP1 REVERT JUMPDEST PUSH2 0x55 PUSH1 0x4 DUP1 CALLDATASIZE SUB DUP2 ADD SWAP1 PUSH2 0x50 SWAP2 SWAP1 PUSH2 0x35D JUMP JUMPDEST PUSH2 0x89 JUMP JUMPDEST STOP JUMPDEST PUSH2 0x71 PUSH1 0x4 DUP1 CALLDATASIZE SUB DUP2 ADD SWAP1 PUSH2 0x6C SWAP2 SWAP1 PUSH2 0x3B9 JUMP JUMPDEST PUSH2 0x10E JUMP JUMPDEST PUSH1 0x40 MLOAD PUSH2 0x80 SWAP4 SWAP3 SWAP2 SWAP1 PUSH2 0x4EB JUMP JUMPDEST PUSH1 0x40 MLOAD DUP1 SWAP2 SUB SWAP1 RETURN JUMPDEST DUP2 PUSH1 0x0 DUP1 PUSH1 0x1 SLOAD DUP2 MSTORE PUSH1 0x20 ADD SWAP1 DUP2 MSTORE PUSH1 0x20 ADD PUSH1 0x0 KECCAK256 PUSH1 0x0 ADD SWAP1 DUP2 PUSH2 0xAD SWAP2 SWAP1 PUSH2 0x735 JUMP JUMPDEST POP DUP1 PUSH1 0x0 DUP1 PUSH1 0x1 SLOAD DUP2 MSTORE PUSH1 0x20 ADD SWAP1 DUP2 MSTORE PUSH1 0x20 ADD PUSH1 0x0 KECCAK256 PUSH1 0x1 ADD DUP2 SWAP1 SSTORE POP PUSH1 0x0 DUP1 PUSH1 0x0 PUSH1 0x1 SLOAD DUP2 MSTORE PUSH1 0x20 ADD SWAP1 DUP2 MSTORE PUSH1 0x20 ADD PUSH1 0x0 KECCAK256 PUSH1 0x2 ADD PUSH1 0x0 PUSH2 0x100 EXP DUP2 SLOAD DUP2 PUSH1 0xFF MUL NOT AND SWAP1 DUP4 PUSH1 0x2 DUP2 GT ISZERO PUSH2 0x105 JUMPI PUSH2 0x104 PUSH2 0x474 JUMP JUMPDEST JUMPDEST MUL OR SWAP1 SSTORE POP POP POP JUMP JUMPDEST PUSH1 0x0 PUSH1 0x20 MSTORE DUP1 PUSH1 0x0 MSTORE PUSH1 0x40 PUSH1 0x0 KECCAK256 PUSH1 0x0 SWAP2 POP SWAP1 POP DUP1 PUSH1 0x0 ADD DUP1 SLOAD PUSH2 0x131 SWAP1 PUSH2 0x558 JUMP JUMPDEST DUP1 PUSH1 0x1F ADD PUSH1 0x20 DUP1 SWAP2 DIV MUL PUSH1 0x20 ADD PUSH1 0x40 MLOAD SWAP1 DUP2 ADD PUSH1 0x40 MSTORE DUP1 SWAP3 SWAP2 SWAP1 DUP2 DUP2 MSTORE PUSH1 0x20 ADD DUP3 DUP1 SLOAD PUSH2 0x15D SWAP1 PUSH2 0x558 JUMP JUMPDEST DUP1 ISZERO PUSH2 0x1AA JUMPI DUP1 PUSH1 0x1F LT PUSH2 0x17F JUMPI PUSH2 0x100 DUP1 DUP4 SLOAD DIV MUL DUP4 MSTORE SWAP2 PUSH1 0x20 ADD SWAP2 PUSH2 0x1AA JUMP JUMPDEST DUP3 ADD SWAP2 SWAP1 PUSH1 0x0 MSTORE PUSH1 0x20 PUSH1 0x0 KECCAK256 SWAP1 JUMPDEST DUP2 SLOAD DUP2 MSTORE SWAP1 PUSH1 0x1 ADD SWAP1 PUSH1 0x20 ADD DUP1 DUP4 GT PUSH2 0x18D JUMPI DUP3 SWAP1 SUB PUSH1 0x1F AND DUP3 ADD SWAP2 JUMPDEST POP POP POP POP POP SWAP1 DUP1 PUSH1 0x1 ADD SLOAD SWAP1 DUP1 PUSH1 0x2 ADD PUSH1 0x0 SWAP1 SLOAD SWAP1 PUSH2 0x100 EXP SWAP1 DIV PUSH1 0xFF AND SWAP1 POP DUP4 JUMP JUMPDEST PUSH1 0x0 PUSH1 0x40 MLOAD SWAP1 POP SWAP1 JUMP JUMPDEST PUSH1 0x0 DUP1 REVERT JUMPDEST PUSH1 0x0 DUP1 REVERT JUMPDEST PUSH1 0x0 DUP1 REVERT JUMPDEST PUSH1 0x0 DUP1 REVERT JUMPDEST PUSH1 0x0 PUSH1 0x1F NOT PUSH1 0x1F DUP4 ADD AND SWAP1 POP SWAP2 SWAP1 POP JUMP JUMPDEST PUSH32 0x4E487B7100000000000000000000000000000000000000000000000000000000 PUSH1 0x0 MSTORE PUSH1 0x41 PUSH1 0x4 MSTORE PUSH1 0x24 PUSH1 0x0 REVERT JUMPDEST PUSH2 0x234 DUP3 PUSH2 0x1EB JUMP JUMPDEST DUP2 ADD DUP2 DUP2 LT PUSH8 0xFFFFFFFFFFFFFFFF DUP3 GT OR ISZERO PUSH2 0x253 JUMPI PUSH2 0x252 PUSH2 0x1FC JUMP JUMPDEST JUMPDEST DUP1 PUSH1 0x40 MSTORE POP POP POP JUMP JUMPDEST PUSH1 0x0 PUSH2 0x266 PUSH2 0x1CD JUMP JUMPDEST SWAP1 POP PUSH2 0x272 DUP3 DUP3 PUSH2 0x22B JUMP JUMPDEST SWAP2 SWAP1 POP JUMP JUMPDEST PUSH1 0x0 PUSH8 0xFFFFFFFFFFFFFFFF DUP3 GT ISZERO PUSH2 0x292 JUMPI PUSH2 0x291 PUSH2 0x1FC JUMP JUMPDEST JUMPDEST PUSH2 0x29B DUP3 PUSH2 0x1EB JUMP JUMPDEST SWAP1 POP PUSH1 0x20 DUP2 ADD SWAP1 POP SWAP2 SWAP1 POP JUMP JUMPDEST DUP3 DUP2 DUP4 CALLDATACOPY PUSH1 0x0 DUP4 DUP4 ADD MSTORE POP POP POP JUMP JUMPDEST PUSH1 0x0 PUSH2 0x2CA PUSH2 0x2C5 DUP5 PUSH2 0x277 JUMP JUMPDEST PUSH2 0x25C JUMP JUMPDEST SWAP1 POP DUP3 DUP2 MSTORE PUSH1 0x20 DUP2 ADD DUP5 DUP5 DUP5 ADD GT ISZERO PUSH2 0x2E6 JUMPI PUSH2 0x2E5 PUSH2 0x1E6 JUMP JUMPDEST JUMPDEST PUSH2 0x2F1 DUP5 DUP3 DUP6 PUSH2 0x2A8 JUMP JUMPDEST POP SWAP4 SWAP3 POP POP POP JUMP JUMPDEST PUSH1 0x0 DUP3 PUSH1 0x1F DUP4 ADD SLT PUSH2 0x30E JUMPI PUSH2 0x30D PUSH2 0x1E1 JUMP JUMPDEST JUMPDEST DUP2 CALLDATALOAD PUSH2 0x31E DUP5 DUP3 PUSH1 0x20 DUP7 ADD PUSH2 0x2B7 JUMP JUMPDEST SWAP2 POP POP SWAP3 SWAP2 POP POP JUMP JUMPDEST PUSH1 0x0 DUP2 SWAP1 POP SWAP2 SWAP1 POP JUMP JUMPDEST PUSH2 0x33A DUP2 PUSH2 0x327 JUMP JUMPDEST DUP2 EQ PUSH2 0x345 JUMPI PUSH1 0x0 DUP1 REVERT JUMPDEST POP JUMP JUMPDEST PUSH1 0x0 DUP2 CALLDATALOAD SWAP1 POP PUSH2 0x357 DUP2 PUSH2 0x331 JUMP JUMPDEST SWAP3 SWAP2 POP POP JUMP JUMPDEST PUSH1 0x0 DUP1 PUSH1 0x40 DUP4 DUP6 SUB SLT ISZERO PUSH2 0x374 JUMPI PUSH2 0x373 PUSH2 0x1D7 JUMP JUMPDEST JUMPDEST PUSH1 0x0 DUP4 ADD CALLDATALOAD PUSH8 0xFFFFFFFFFFFFFFFF DUP2 GT ISZERO PUSH2 0x392 JUMPI PUSH2 0x391 PUSH2 0x1DC JUMP JUMPDEST JUMPDEST PUSH2 0x39E DUP6 DUP3 DUP7 ADD PUSH2 0x2F9 JUMP JUMPDEST SWAP3 POP POP PUSH1 0x20 PUSH2 0x3AF DUP6 DUP3 DUP7 ADD PUSH2 0x348 JUMP JUMPDEST SWAP2 POP POP SWAP3 POP SWAP3 SWAP1 POP JUMP JUMPDEST PUSH1 0x0 PUSH1 0x20 DUP3 DUP5 SUB SLT ISZERO PUSH2 0x3CF JUMPI PUSH2 0x3CE PUSH2 0x1D7 JUMP JUMPDEST JUMPDEST PUSH1 0x0 PUSH2 0x3DD DUP5 DUP3 DUP6 ADD PUSH2 0x348 JUMP JUMPDEST SWAP2 POP POP SWAP3 SWAP2 POP POP JUMP JUMPDEST PUSH1 0x0 DUP2 MLOAD SWAP1 POP SWAP2 SWAP1 POP JUMP JUMPDEST PUSH1 0x0 DUP3 DUP3 MSTORE PUSH1 0x20 DUP3 ADD SWAP1 POP SWAP3 SWAP2 POP POP JUMP JUMPDEST PUSH1 0x0 JUMPDEST DUP4 DUP2 LT ISZERO PUSH2 0x420 JUMPI DUP1 DUP3 ADD MLOAD DUP2 DUP5 ADD MSTORE PUSH1 0x20 DUP2 ADD SWAP1 POP PUSH2 0x405 JUMP JUMPDEST PUSH1 0x0 DUP5 DUP5 ADD MSTORE POP POP POP POP JUMP JUMPDEST PUSH1 0x0 PUSH2 0x437 DUP3 PUSH2 0x3E6 JUMP JUMPDEST PUSH2 0x441 DUP2 DUP6 PUSH2 0x3F1 JUMP JUMPDEST SWAP4 POP PUSH2 0x451 DUP2 DUP6 PUSH1 0x20 DUP7 ADD PUSH2 0x402 JUMP JUMPDEST PUSH2 0x45A DUP2 PUSH2 0x1EB JUMP JUMPDEST DUP5 ADD SWAP2 POP POP SWAP3 SWAP2 POP POP JUMP JUMPDEST PUSH2 0x46E DUP2 PUSH2 0x327 JUMP JUMPDEST DUP3 MSTORE POP POP JUMP JUMPDEST PUSH32 0x4E487B7100000000000000000000000000000000000000000000000000000000 PUSH1 0x0 MSTORE PUSH1 0x21 PUSH1 0x4 MSTORE PUSH1 0x24 PUSH1 0x0 REVERT JUMPDEST PUSH1 0x3 DUP2 LT PUSH2 0x4B4 JUMPI PUSH2 0x4B3 PUSH2 0x474 JUMP JUMPDEST JUMPDEST POP JUMP JUMPDEST PUSH1 0x0 DUP2 SWAP1 POP PUSH2 0x4C5 DUP3 PUSH2 0x4A3 JUMP JUMPDEST SWAP2 SWAP1 POP JUMP JUMPDEST PUSH1 0x0 PUSH2 0x4D5 DUP3 PUSH2 0x4B7 JUMP JUMPDEST SWAP1 POP SWAP2 SWAP1 POP JUMP JUMPDEST PUSH2 0x4E5 DUP2 PUSH2 0x4CA JUMP JUMPDEST DUP3 MSTORE POP POP JUMP JUMPDEST PUSH1 0x0 PUSH1 0x60 DUP3 ADD SWAP1 POP DUP2 DUP2 SUB PUSH1 0x0 DUP4 ADD MSTORE PUSH2 0x505 DUP2 DUP7 PUSH2 0x42C JUMP JUMPDEST SWAP1 POP PUSH2 0x514 PUSH1 0x20 DUP4 ADD DUP6 PUSH2 0x465 JUMP JUMPDEST PUSH2 0x521 PUSH1 0x40 DUP4 ADD DUP5 PUSH2 0x4DC JUMP JUMPDEST SWAP5 SWAP4 POP POP POP POP JUMP JUMPDEST PUSH32 0x4E487B7100000000000000000000000000000000000000000000000000000000 PUSH1 0x0 MSTORE PUSH1 0x22 PUSH1 0x4 MSTORE PUSH1 0x24 PUSH1 0x0 REVERT JUMPDEST PUSH1 0x0 PUSH1 0x2 DUP3 DIV SWAP1 POP PUSH1 0x1 DUP3 AND DUP1 PUSH2 0x570 JUMPI PUSH1 0x7F DUP3 AND SWAP2 POP JUMPDEST PUSH1 0x20 DUP3 LT DUP2 SUB PUSH2 0x583 JUMPI PUSH2 0x582 PUSH2 0x529 JUMP JUMPDEST JUMPDEST POP SWAP2 SWAP1 POP JUMP JUMPDEST PUSH1 0x0 DUP2 SWAP1 POP DUP2 PUSH1 0x0 MSTORE PUSH1 0x20 PUSH1 0x0 KECCAK256 SWAP1 POP SWAP2 SWAP1 POP JUMP JUMPDEST PUSH1 0x0 PUSH1 0x20 PUSH1 0x1F DUP4 ADD DIV SWAP1 POP SWAP2 SWAP1 POP JUMP JUMPDEST PUSH1 0x0 DUP3 DUP3 SHL SWAP1 POP SWAP3 SWAP2 POP POP JUMP JUMPDEST PUSH1 0x0 PUSH1 0x8 DUP4 MUL PUSH2 0x5EB PUSH32 0xFFFFFFFFFFFFFFFFFFFFFFFFFFFFFFFFFFFFFFFFFFFFFFFFFFFFFFFFFFFFFFFF DUP3 PUSH2 0x5AE JUMP JUMPDEST PUSH2 0x5F5 DUP7 DUP4 PUSH2 0x5AE JUMP JUMPDEST SWAP6 POP DUP1 NOT DUP5 AND SWAP4 POP DUP1 DUP7 AND DUP5 OR SWAP3 POP POP POP SWAP4 SWAP3 POP POP POP JUMP JUMPDEST PUSH1 0x0 DUP2 SWAP1 POP SWAP2 SWAP1 POP JUMP JUMPDEST PUSH1 0x0 PUSH2 0x632 PUSH2 0x62D PUSH2 0x628 DUP5 PUSH2 0x327 JUMP JUMPDEST PUSH2 0x60D JUMP JUMPDEST PUSH2 0x327 JUMP JUMPDEST SWAP1 POP SWAP2 SWAP1 POP JUMP JUMPDEST PUSH1 0x0 DUP2 SWAP1 POP SWAP2 SWAP1 POP JUMP JUMPDEST PUSH2 0x64C DUP4 PUSH2 0x617 JUMP JUMPDEST PUSH2 0x660 PUSH2 0x658 DUP3 PUSH2 0x639 JUMP JUMPDEST DUP5 DUP5 SLOAD PUSH2 0x5BB JUMP JUMPDEST DUP3 SSTORE POP POP POP POP JUMP JUMPDEST PUSH1 0x0 SWAP1 JUMP JUMPDEST PUSH2 0x675 PUSH2 0x668 JUMP JUMPDEST PUSH2 0x680 DUP2 DUP5 DUP5 PUSH2 0x643 JUMP JUMPDEST POP POP POP JUMP JUMPDEST JUMPDEST DUP2 DUP2 LT ISZERO PUSH2 0x6A4 JUMPI PUSH2 0x699 PUSH1 0x0 DUP3 PUSH2 0x66D JUMP JUMPDEST PUSH1 0x1 DUP2 ADD SWAP1 POP PUSH2 0x686 JUMP JUMPDEST POP POP JUMP JUMPDEST PUSH1 0x1F DUP3 GT ISZERO PUSH2 0x6E9 JUMPI PUSH2 0x6BA DUP2 PUSH2 0x589 JUMP JUMPDEST PUSH2 0x6C3 DUP5 PUSH2 0x59E JUMP JUMPDEST DUP2 ADD PUSH1 0x20 DUP6 LT ISZERO PUSH2 0x6D2 JUMPI DUP2 SWAP1 POP JUMPDEST PUSH2 0x6E6 PUSH2 0x6DE DUP6 PUSH2 0x59E JUMP JUMPDEST DUP4 ADD DUP3 PUSH2 0x685 JUMP JUMPDEST POP POP JUMPDEST POP POP POP JUMP JUMPDEST PUSH1 0x0 DUP3 DUP3 SHR SWAP1 POP SWAP3 SWAP2 POP POP JUMP JUMPDEST PUSH1 0x0 PUSH2 0x70C PUSH1 0x0 NOT DUP5 PUSH1 0x8 MUL PUSH2 0x6EE JUMP JUMPDEST NOT DUP1 DUP4 AND SWAP2 POP POP SWAP3 SWAP2 POP POP JUMP JUMPDEST PUSH1 0x0 PUSH2 0x725 DUP4 DUP4 PUSH2 0x6FB JUMP JUMPDEST SWAP2 POP DUP3 PUSH1 0x2 MUL DUP3 OR SWAP1 POP SWAP3 SWAP2 POP POP JUMP JUMPDEST PUSH2 0x73E DUP3 PUSH2 0x3E6 JUMP JUMPDEST PUSH8 0xFFFFFFFFFFFFFFFF DUP2 GT ISZERO PUSH2 0x757 JUMPI PUSH2 0x756 PUSH2 0x1FC JUMP JUMPDEST JUMPDEST PUSH2 0x761 DUP3 SLOAD PUSH2 0x558 JUMP JUMPDEST PUSH2 0x76C DUP3 DUP3 DUP6 PUSH2 0x6A8 JUMP JUMPDEST PUSH1 0x0 PUSH1 0x20 SWAP1 POP PUSH1 0x1F DUP4 GT PUSH1 0x1 DUP2 EQ PUSH2 0x79F JUMPI PUSH1 0x0 DUP5 ISZERO PUSH2 0x78D JUMPI DUP3 DUP8 ADD MLOAD SWAP1 POP JUMPDEST PUSH2 0x797 DUP6 DUP3 PUSH2 0x719 JUMP JUMPDEST DUP7 SSTORE POP PUSH2 0x7FF JUMP JUMPDEST PUSH1 0x1F NOT DUP5 AND PUSH2 0x7AD DUP7 PUSH2 0x589 JUMP JUMPDEST PUSH1 0x0 JUMPDEST DUP3 DUP2 LT ISZERO PUSH2 0x7D5 JUMPI DUP5 DUP10 ADD MLOAD DUP3 SSTORE PUSH1 0x1 DUP3 ADD SWAP2 POP PUSH1 0x20 DUP6 ADD SWAP5 POP PUSH1 0x20 DUP2 ADD SWAP1 POP PUSH2 0x7B0 JUMP JUMPDEST DUP7 DUP4 LT ISZERO PUSH2 0x7F2 JUMPI DUP5 DUP10 ADD MLOAD PUSH2 0x7EE PUSH1 0x1F DUP10 AND DUP3 PUSH2 0x6FB JUMP JUMPDEST DUP4 SSTORE POP JUMPDEST PUSH1 0x1 PUSH1 0x2 DUP9 MUL ADD DUP9 SSTORE POP POP POP JUMPDEST POP POP POP POP POP POP JUMP INVALID LOG2 PUSH5 0x6970667358 0x22 SLT KECCAK256 DUP6 0x2C 0xF6 SELFDESTRUCT 0xD4 0xEC SWAP2 0xD8 0xB4 0x2D SWAP14 DUP8 0xC7 REVERT 0xAA 0xD9 SWAP10 PUSH2 0x67A1 0xED PUSH10 0xC258E70C86272B3ECD69 PUSH5 0x736F6C6343 STOP ADDMOD LT STOP CALLER "
				},
				"gasEstimates": {
					"creation": {
						"codeDepositCost": "421800",
						"executionCost": "455",
						"totalCost": "422255"
					},
					"external": {
						"createItem(string,uint256)": "infinite",
						"items(uint256)": "infinite"
					}
				},
				"methodIdentifiers": {
					"createItem(string,uint256)": "8c551742",
					"items(uint256)": "bfb231d2"
				}
			},
			"storageLayout": {
				"storage": [
					{
						"astId": 18,
						"contract": "ItemManager.sol:ItemManager",
						"label": "items",
						"offset": 0,
						"slot": "0",
						"type": "t_mapping(t_uint256,t_struct(S_Item)13_storage)"
					},
					{
						"astId": 20,
						"contract": "ItemManager.sol:ItemManager",
						"label": "itemIndex",
						"offset": 0,
						"slot": "1",
						"type": "t_uint256"
					}
				],
				"types": {
					"t_enum(SupplyChainState)5": {
						"encoding": "inplace",
						"label": "enum ItemManager.SupplyChainState",
						"numberOfBytes": "1"
					},
					"t_mapping(t_uint256,t_struct(S_Item)13_storage)": {
						"encoding": "mapping",
						"key": "t_uint256",
						"label": "mapping(uint256 => struct ItemManager.S_Item)",
						"numberOfBytes": "32",
						"value": "t_struct(S_Item)13_storage"
					},
					"t_string_storage": {
						"encoding": "bytes",
						"label": "string",
						"numberOfBytes": "32"
					},
					"t_struct(S_Item)13_storage": {
						"encoding": "inplace",
						"label": "struct ItemManager.S_Item",
						"members": [
							{
								"astId": 7,
								"contract": "ItemManager.sol:ItemManager",
								"label": "_itemName",
								"offset": 0,
								"slot": "0",
								"type": "t_string_storage"
							},
							{
								"astId": 9,
								"contract": "ItemManager.sol:ItemManager",
								"label": "_itemPrice",
								"offset": 0,
								"slot": "1",
								"type": "t_uint256"
							},
							{
								"astId": 12,
								"contract": "ItemManager.sol:ItemManager",
								"label": "_state",
								"offset": 0,
								"slot": "2",
								"type": "t_enum(SupplyChainState)5"
							}
						],
						"numberOfBytes": "96"
					},
					"t_uint256": {
						"encoding": "inplace",
						"label": "uint256",
						"numberOfBytes": "32"
					}
				}
			},
			"userdoc": {
				"kind": "user",
				"methods": {},
				"version": 1
			}
		}
	}
}