{
	"MyStructExamples2.sol": {
		"MappingsStructExample": {
			"abi": [
				{
					"inputs": [],
					"name": "getBalance",
					"outputs": [
						{
							"internalType": "uint256",
							"name": "",
							"type": "uint256"
						}
					],
					"stateMutability": "view",
					"type": "function"
				},
				{
					"inputs": [
						{
							"internalType": "address",
							"name": "",
							"type": "address"
						}
					],
					"name": "myAddressMapping",
					"outputs": [
						{
							"internalType": "bool",
							"name": "",
							"type": "bool"
						}
					],
					"stateMutability": "view",
					"type": "function"
				},
				{
					"inputs": [],
					"name": "sendMoney",
					"outputs": [],
					"stateMutability": "payable",
					"type": "function"
				},
				{
					"inputs": [
						{
							"internalType": "address payable",
							"name": "_to",
							"type": "address"
						}
					],
					"name": "withdrawAllMoney",
					"outputs": [],
					"stateMutability": "nonpayable",
					"type": "function"
				}
			],
			"devdoc": {
				"kind": "dev",
				"methods": {},
				"version": 1
			},
			"evm": {
				"assembly": "    /* \"MyStructExamples2.sol\":64:414  contract MappingsStructExample {... */\n  mstore(0x40, 0x80)\n  callvalue\n  dup1\n  iszero\n  tag_1\n  jumpi\n  0x00\n  dup1\n  revert\ntag_1:\n  pop\n  dataSize(sub_0)\n  dup1\n  dataOffset(sub_0)\n  0x00\n  codecopy\n  0x00\n  return\nstop\n\nsub_0: assembly {\n        /* \"MyStructExamples2.sol\":64:414  contract MappingsStructExample {... */\n      mstore(0x40, 0x80)\n      jumpi(tag_1, lt(calldatasize, 0x04))\n      shr(0xe0, calldataload(0x00))\n      dup1\n      0x0adec93c\n      eq\n      tag_2\n      jumpi\n      dup1\n      0x12065fe0\n      eq\n      tag_3\n      jumpi\n      dup1\n      0xb92ba3b8\n      eq\n      tag_4\n      jumpi\n      dup1\n      0xcbedbf5a\n      eq\n      tag_5\n      jumpi\n    tag_1:\n      0x00\n      dup1\n      revert\n        /* \"MyStructExamples2.sol\":306:412  function withdrawAllMoney(address payable _to) public {... */\n    tag_2:\n      callvalue\n      dup1\n      iszero\n      tag_6\n      jumpi\n      0x00\n      dup1\n      revert\n    tag_6:\n      pop\n      tag_7\n      0x04\n      dup1\n      calldatasize\n      sub\n      dup2\n      add\n      swap1\n      tag_8\n      swap2\n      swap1\n      tag_9\n      jump\t// in\n    tag_8:\n      tag_10\n      jump\t// in\n    tag_7:\n      stop\n        /* \"MyStructExamples2.sol\":157:250  function getBalance() public view returns(uint) {... */\n    tag_3:\n      callvalue\n      dup1\n      iszero\n      tag_11\n      jumpi\n      0x00\n      dup1\n      revert\n    tag_11:\n      pop\n      tag_12\n      tag_13\n      jump\t// in\n    tag_12:\n      mload(0x40)\n      tag_14\n      swap2\n      swap1\n      tag_15\n      jump\t// in\n    tag_14:\n      mload(0x40)\n      dup1\n      swap2\n      sub\n      swap1\n      return\n        /* \"MyStructExamples2.sol\":102:150  mapping(address => bool) public myAddressMapping */\n    tag_4:\n      callvalue\n      dup1\n      iszero\n      tag_16\n      jumpi\n      0x00\n      dup1\n      revert\n    tag_16:\n      pop\n      tag_17\n      0x04\n      dup1\n      calldatasize\n      sub\n      dup2\n      add\n      swap1\n      tag_18\n      swap2\n      swap1\n      tag_19\n      jump\t// in\n    tag_18:\n      tag_20\n      jump\t// in\n    tag_17:\n      mload(0x40)\n      tag_21\n      swap2\n      swap1\n      tag_22\n      jump\t// in\n    tag_21:\n      mload(0x40)\n      dup1\n      swap2\n      sub\n      swap1\n      return\n        /* \"MyStructExamples2.sol\":256:300  function sendMoney() public payable {... */\n    tag_5:\n      tag_23\n      tag_24\n      jump\t// in\n    tag_23:\n      stop\n        /* \"MyStructExamples2.sol\":306:412  function withdrawAllMoney(address payable _to) public {... */\n    tag_10:\n        /* \"MyStructExamples2.sol\":370:373  _to */\n      dup1\n        /* \"MyStructExamples2.sol\":370:382  _to.transfer */\n      0xffffffffffffffffffffffffffffffffffffffff\n      and\n        /* \"MyStructExamples2.sol\":370:405  _to.transfer(address(this).balance) */\n      0x08fc\n        /* \"MyStructExamples2.sol\":383:404  address(this).balance */\n      selfbalance\n        /* \"MyStructExamples2.sol\":370:405  _to.transfer(address(this).balance) */\n      swap1\n      dup2\n      iszero\n      mul\n      swap1\n      mload(0x40)\n      0x00\n      mload(0x40)\n      dup1\n      dup4\n      sub\n      dup2\n      dup6\n      dup9\n      dup9\n      call\n      swap4\n      pop\n      pop\n      pop\n      pop\n      iszero\n      dup1\n      iszero\n      tag_27\n      jumpi\n      returndatasize\n      0x00\n      dup1\n      returndatacopy\n      revert(0x00, returndatasize)\n    tag_27:\n      pop\n        /* \"MyStructExamples2.sol\":306:412  function withdrawAllMoney(address payable _to) public {... */\n      pop\n      jump\t// out\n        /* \"MyStructExamples2.sol\":157:250  function getBalance() public view returns(uint) {... */\n    tag_13:\n        /* \"MyStructExamples2.sol\":199:203  uint */\n      0x00\n        /* \"MyStructExamples2.sol\":222:243  address(this).balance */\n      selfbalance\n        /* \"MyStructExamples2.sol\":215:243  return address(this).balance */\n      swap1\n      pop\n        /* \"MyStructExamples2.sol\":157:250  function getBalance() public view returns(uint) {... */\n      swap1\n      jump\t// out\n        /* \"MyStructExamples2.sol\":102:150  mapping(address => bool) public myAddressMapping */\n    tag_20:\n      mstore(0x20, 0x00)\n      dup1\n      0x00\n      mstore\n      keccak256(0x00, 0x40)\n      0x00\n      swap2\n      pop\n      sload\n      swap1\n      0x0100\n      exp\n      swap1\n      div\n      0xff\n      and\n      dup2\n      jump\t// out\n        /* \"MyStructExamples2.sol\":256:300  function sendMoney() public payable {... */\n    tag_24:\n      jump\t// out\n        /* \"#utility.yul\":88:205   */\n    tag_31:\n        /* \"#utility.yul\":197:198   */\n      0x00\n        /* \"#utility.yul\":194:195   */\n      dup1\n        /* \"#utility.yul\":187:199   */\n      revert\n        /* \"#utility.yul\":334:460   */\n    tag_33:\n        /* \"#utility.yul\":371:378   */\n      0x00\n        /* \"#utility.yul\":411:453   */\n      0xffffffffffffffffffffffffffffffffffffffff\n        /* \"#utility.yul\":404:409   */\n      dup3\n        /* \"#utility.yul\":400:454   */\n      and\n        /* \"#utility.yul\":389:454   */\n      swap1\n      pop\n        /* \"#utility.yul\":334:460   */\n      swap2\n      swap1\n      pop\n      jump\t// out\n        /* \"#utility.yul\":466:570   */\n    tag_34:\n        /* \"#utility.yul\":511:518   */\n      0x00\n        /* \"#utility.yul\":540:564   */\n      tag_50\n        /* \"#utility.yul\":558:563   */\n      dup3\n        /* \"#utility.yul\":540:564   */\n      tag_33\n      jump\t// in\n    tag_50:\n        /* \"#utility.yul\":529:564   */\n      swap1\n      pop\n        /* \"#utility.yul\":466:570   */\n      swap2\n      swap1\n      pop\n      jump\t// out\n        /* \"#utility.yul\":576:714   */\n    tag_35:\n        /* \"#utility.yul\":657:689   */\n      tag_52\n        /* \"#utility.yul\":683:688   */\n      dup2\n        /* \"#utility.yul\":657:689   */\n      tag_34\n      jump\t// in\n    tag_52:\n        /* \"#utility.yul\":650:655   */\n      dup2\n        /* \"#utility.yul\":647:690   */\n      eq\n        /* \"#utility.yul\":637:708   */\n      tag_53\n      jumpi\n        /* \"#utility.yul\":704:705   */\n      0x00\n        /* \"#utility.yul\":701:702   */\n      dup1\n        /* \"#utility.yul\":694:706   */\n      revert\n        /* \"#utility.yul\":637:708   */\n    tag_53:\n        /* \"#utility.yul\":576:714   */\n      pop\n      jump\t// out\n        /* \"#utility.yul\":720:875   */\n    tag_36:\n        /* \"#utility.yul\":774:779   */\n      0x00\n        /* \"#utility.yul\":812:818   */\n      dup2\n        /* \"#utility.yul\":799:819   */\n      calldataload\n        /* \"#utility.yul\":790:819   */\n      swap1\n      pop\n        /* \"#utility.yul\":828:869   */\n      tag_55\n        /* \"#utility.yul\":863:868   */\n      dup2\n        /* \"#utility.yul\":828:869   */\n      tag_35\n      jump\t// in\n    tag_55:\n        /* \"#utility.yul\":720:875   */\n      swap3\n      swap2\n      pop\n      pop\n      jump\t// out\n        /* \"#utility.yul\":881:1226   */\n    tag_9:\n        /* \"#utility.yul\":948:954   */\n      0x00\n        /* \"#utility.yul\":997:999   */\n      0x20\n        /* \"#utility.yul\":985:994   */\n      dup3\n        /* \"#utility.yul\":976:983   */\n      dup5\n        /* \"#utility.yul\":972:995   */\n      sub\n        /* \"#utility.yul\":968:1000   */\n      slt\n        /* \"#utility.yul\":965:1084   */\n      iszero\n      tag_57\n      jumpi\n        /* \"#utility.yul\":1003:1082   */\n      tag_58\n      tag_31\n      jump\t// in\n    tag_58:\n        /* \"#utility.yul\":965:1084   */\n    tag_57:\n        /* \"#utility.yul\":1123:1124   */\n      0x00\n        /* \"#utility.yul\":1148:1209   */\n      tag_59\n        /* \"#utility.yul\":1201:1208   */\n      dup5\n        /* \"#utility.yul\":1192:1198   */\n      dup3\n        /* \"#utility.yul\":1181:1190   */\n      dup6\n        /* \"#utility.yul\":1177:1199   */\n      add\n        /* \"#utility.yul\":1148:1209   */\n      tag_36\n      jump\t// in\n    tag_59:\n        /* \"#utility.yul\":1138:1209   */\n      swap2\n      pop\n        /* \"#utility.yul\":1094:1219   */\n      pop\n        /* \"#utility.yul\":881:1226   */\n      swap3\n      swap2\n      pop\n      pop\n      jump\t// out\n        /* \"#utility.yul\":1232:1309   */\n    tag_37:\n        /* \"#utility.yul\":1269:1276   */\n      0x00\n        /* \"#utility.yul\":1298:1303   */\n      dup2\n        /* \"#utility.yul\":1287:1303   */\n      swap1\n      pop\n        /* \"#utility.yul\":1232:1309   */\n      swap2\n      swap1\n      pop\n      jump\t// out\n        /* \"#utility.yul\":1315:1433   */\n    tag_38:\n        /* \"#utility.yul\":1402:1426   */\n      tag_62\n        /* \"#utility.yul\":1420:1425   */\n      dup2\n        /* \"#utility.yul\":1402:1426   */\n      tag_37\n      jump\t// in\n    tag_62:\n        /* \"#utility.yul\":1397:1400   */\n      dup3\n        /* \"#utility.yul\":1390:1427   */\n      mstore\n        /* \"#utility.yul\":1315:1433   */\n      pop\n      pop\n      jump\t// out\n        /* \"#utility.yul\":1439:1661   */\n    tag_15:\n        /* \"#utility.yul\":1532:1536   */\n      0x00\n        /* \"#utility.yul\":1570:1572   */\n      0x20\n        /* \"#utility.yul\":1559:1568   */\n      dup3\n        /* \"#utility.yul\":1555:1573   */\n      add\n        /* \"#utility.yul\":1547:1573   */\n      swap1\n      pop\n        /* \"#utility.yul\":1583:1654   */\n      tag_64\n        /* \"#utility.yul\":1651:1652   */\n      0x00\n        /* \"#utility.yul\":1640:1649   */\n      dup4\n        /* \"#utility.yul\":1636:1653   */\n      add\n        /* \"#utility.yul\":1627:1633   */\n      dup5\n        /* \"#utility.yul\":1583:1654   */\n      tag_38\n      jump\t// in\n    tag_64:\n        /* \"#utility.yul\":1439:1661   */\n      swap3\n      swap2\n      pop\n      pop\n      jump\t// out\n        /* \"#utility.yul\":1667:1763   */\n    tag_39:\n        /* \"#utility.yul\":1704:1711   */\n      0x00\n        /* \"#utility.yul\":1733:1757   */\n      tag_66\n        /* \"#utility.yul\":1751:1756   */\n      dup3\n        /* \"#utility.yul\":1733:1757   */\n      tag_33\n      jump\t// in\n    tag_66:\n        /* \"#utility.yul\":1722:1757   */\n      swap1\n      pop\n        /* \"#utility.yul\":1667:1763   */\n      swap2\n      swap1\n      pop\n      jump\t// out\n        /* \"#utility.yul\":1769:1891   */\n    tag_40:\n        /* \"#utility.yul\":1842:1866   */\n      tag_68\n        /* \"#utility.yul\":1860:1865   */\n      dup2\n        /* \"#utility.yul\":1842:1866   */\n      tag_39\n      jump\t// in\n    tag_68:\n        /* \"#utility.yul\":1835:1840   */\n      dup2\n        /* \"#utility.yul\":1832:1867   */\n      eq\n        /* \"#utility.yul\":1822:1885   */\n      tag_69\n      jumpi\n        /* \"#utility.yul\":1881:1882   */\n      0x00\n        /* \"#utility.yul\":1878:1879   */\n      dup1\n        /* \"#utility.yul\":1871:1883   */\n      revert\n        /* \"#utility.yul\":1822:1885   */\n    tag_69:\n        /* \"#utility.yul\":1769:1891   */\n      pop\n      jump\t// out\n        /* \"#utility.yul\":1897:2036   */\n    tag_41:\n        /* \"#utility.yul\":1943:1948   */\n      0x00\n        /* \"#utility.yul\":1981:1987   */\n      dup2\n        /* \"#utility.yul\":1968:1988   */\n      calldataload\n        /* \"#utility.yul\":1959:1988   */\n      swap1\n      pop\n        /* \"#utility.yul\":1997:2030   */\n      tag_71\n        /* \"#utility.yul\":2024:2029   */\n      dup2\n        /* \"#utility.yul\":1997:2030   */\n      tag_40\n      jump\t// in\n    tag_71:\n        /* \"#utility.yul\":1897:2036   */\n      swap3\n      swap2\n      pop\n      pop\n      jump\t// out\n        /* \"#utility.yul\":2042:2371   */\n    tag_19:\n        /* \"#utility.yul\":2101:2107   */\n      0x00\n        /* \"#utility.yul\":2150:2152   */\n      0x20\n        /* \"#utility.yul\":2138:2147   */\n      dup3\n        /* \"#utility.yul\":2129:2136   */\n      dup5\n        /* \"#utility.yul\":2125:2148   */\n      sub\n        /* \"#utility.yul\":2121:2153   */\n      slt\n        /* \"#utility.yul\":2118:2237   */\n      iszero\n      tag_73\n      jumpi\n        /* \"#utility.yul\":2156:2235   */\n      tag_74\n      tag_31\n      jump\t// in\n    tag_74:\n        /* \"#utility.yul\":2118:2237   */\n    tag_73:\n        /* \"#utility.yul\":2276:2277   */\n      0x00\n        /* \"#utility.yul\":2301:2354   */\n      tag_75\n        /* \"#utility.yul\":2346:2353   */\n      dup5\n        /* \"#utility.yul\":2337:2343   */\n      dup3\n        /* \"#utility.yul\":2326:2335   */\n      dup6\n        /* \"#utility.yul\":2322:2344   */\n      add\n        /* \"#utility.yul\":2301:2354   */\n      tag_41\n      jump\t// in\n    tag_75:\n        /* \"#utility.yul\":2291:2354   */\n      swap2\n      pop\n        /* \"#utility.yul\":2247:2364   */\n      pop\n        /* \"#utility.yul\":2042:2371   */\n      swap3\n      swap2\n      pop\n      pop\n      jump\t// out\n        /* \"#utility.yul\":2377:2467   */\n    tag_42:\n        /* \"#utility.yul\":2411:2418   */\n      0x00\n        /* \"#utility.yul\":2454:2459   */\n      dup2\n        /* \"#utility.yul\":2447:2460   */\n      iszero\n        /* \"#utility.yul\":2440:2461   */\n      iszero\n        /* \"#utility.yul\":2429:2461   */\n      swap1\n      pop\n        /* \"#utility.yul\":2377:2467   */\n      swap2\n      swap1\n      pop\n      jump\t// out\n        /* \"#utility.yul\":2473:2582   */\n    tag_43:\n        /* \"#utility.yul\":2554:2575   */\n      tag_78\n        /* \"#utility.yul\":2569:2574   */\n      dup2\n        /* \"#utility.yul\":2554:2575   */\n      tag_42\n      jump\t// in\n    tag_78:\n        /* \"#utility.yul\":2549:2552   */\n      dup3\n        /* \"#utility.yul\":2542:2576   */\n      mstore\n        /* \"#utility.yul\":2473:2582   */\n      pop\n      pop\n      jump\t// out\n        /* \"#utility.yul\":2588:2798   */\n    tag_22:\n        /* \"#utility.yul\":2675:2679   */\n      0x00\n        /* \"#utility.yul\":2713:2715   */\n      0x20\n        /* \"#utility.yul\":2702:2711   */\n      dup3\n        /* \"#utility.yul\":2698:2716   */\n      add\n        /* \"#utility.yul\":2690:2716   */\n      swap1\n      pop\n        /* \"#utility.yul\":2726:2791   */\n      tag_80\n        /* \"#utility.yul\":2788:2789   */\n      0x00\n        /* \"#utility.yul\":2777:2786   */\n      dup4\n        /* \"#utility.yul\":2773:2790   */\n      add\n        /* \"#utility.yul\":2764:2770   */\n      dup5\n        /* \"#utility.yul\":2726:2791   */\n      tag_43\n      jump\t// in\n    tag_80:\n        /* \"#utility.yul\":2588:2798   */\n      swap3\n      swap2\n      pop\n      pop\n      jump\t// out\n\n    auxdata: 0xa2646970667358221220ca6d64216d7b42fe3b2b436a01dee4bdfaa38287fa26c09de82af4f338690f5d64736f6c63430008100033\n}\n",
				"bytecode": {
					"linkReferences": {},
					"object": "608060405234801561001057600080fd5b506102ee806100206000396000f3fe60806040526004361061003f5760003560e01c80630adec93c1461004457806312065fe01461006d578063b92ba3b814610098578063cbedbf5a146100d5575b600080fd5b34801561005057600080fd5b5061006b600480360381019061006691906101b6565b6100df565b005b34801561007957600080fd5b50610082610129565b60405161008f91906101fc565b60405180910390f35b3480156100a457600080fd5b506100bf60048036038101906100ba9190610255565b610131565b6040516100cc919061029d565b60405180910390f35b6100dd610151565b005b8073ffffffffffffffffffffffffffffffffffffffff166108fc479081150290604051600060405180830381858888f19350505050158015610125573d6000803e3d6000fd5b5050565b600047905090565b60006020528060005260406000206000915054906101000a900460ff1681565b565b600080fd5b600073ffffffffffffffffffffffffffffffffffffffff82169050919050565b600061018382610158565b9050919050565b61019381610178565b811461019e57600080fd5b50565b6000813590506101b08161018a565b92915050565b6000602082840312156101cc576101cb610153565b5b60006101da848285016101a1565b91505092915050565b6000819050919050565b6101f6816101e3565b82525050565b600060208201905061021160008301846101ed565b92915050565b600061022282610158565b9050919050565b61023281610217565b811461023d57600080fd5b50565b60008135905061024f81610229565b92915050565b60006020828403121561026b5761026a610153565b5b600061027984828501610240565b91505092915050565b60008115159050919050565b61029781610282565b82525050565b60006020820190506102b2600083018461028e565b9291505056fea2646970667358221220ca6d64216d7b42fe3b2b436a01dee4bdfaa38287fa26c09de82af4f338690f5d64736f6c63430008100033",
					"opcodes": "PUSH1 0x80 PUSH1 0x40 MSTORE CALLVALUE DUP1 ISZERO PUSH2 0x10 JUMPI PUSH1 0x0 DUP1 REVERT JUMPDEST POP PUSH2 0x2EE DUP1 PUSH2 0x20 PUSH1 0x0 CODECOPY PUSH1 0x0 RETURN INVALID PUSH1 0x80 PUSH1 0x40 MSTORE PUSH1 0x4 CALLDATASIZE LT PUSH2 0x3F JUMPI PUSH1 0x0 CALLDATALOAD PUSH1 0xE0 SHR DUP1 PUSH4 0xADEC93C EQ PUSH2 0x44 JUMPI DUP1 PUSH4 0x12065FE0 EQ PUSH2 0x6D JUMPI DUP1 PUSH4 0xB92BA3B8 EQ PUSH2 0x98 JUMPI DUP1 PUSH4 0xCBEDBF5A EQ PUSH2 0xD5 JUMPI JUMPDEST PUSH1 0x0 DUP1 REVERT JUMPDEST CALLVALUE DUP1 ISZERO PUSH2 0x50 JUMPI PUSH1 0x0 DUP1 REVERT JUMPDEST POP PUSH2 0x6B PUSH1 0x4 DUP1 CALLDATASIZE SUB DUP2 ADD SWAP1 PUSH2 0x66 SWAP2 SWAP1 PUSH2 0x1B6 JUMP JUMPDEST PUSH2 0xDF JUMP JUMPDEST STOP JUMPDEST CALLVALUE DUP1 ISZERO PUSH2 0x79 JUMPI PUSH1 0x0 DUP1 REVERT JUMPDEST POP PUSH2 0x82 PUSH2 0x129 JUMP JUMPDEST PUSH1 0x40 MLOAD PUSH2 0x8F SWAP2 SWAP1 PUSH2 0x1FC JUMP JUMPDEST PUSH1 0x40 MLOAD DUP1 SWAP2 SUB SWAP1 RETURN JUMPDEST CALLVALUE DUP1 ISZERO PUSH2 0xA4 JUMPI PUSH1 0x0 DUP1 REVERT JUMPDEST POP PUSH2 0xBF PUSH1 0x4 DUP1 CALLDATASIZE SUB DUP2 ADD SWAP1 PUSH2 0xBA SWAP2 SWAP1 PUSH2 0x255 JUMP JUMPDEST PUSH2 0x131 JUMP JUMPDEST PUSH1 0x40 MLOAD PUSH2 0xCC SWAP2 SWAP1 PUSH2 0x29D JUMP JUMPDEST PUSH1 0x40 MLOAD DUP1 SWAP2 SUB SWAP1 RETURN JUMPDEST PUSH2 0xDD PUSH2 0x151 JUMP JUMPDEST STOP JUMPDEST DUP1 PUSH20 0xFFFFFFFFFFFFFFFFFFFFFFFFFFFFFFFFFFFFFFFF AND PUSH2 0x8FC SELFBALANCE SWAP1 DUP2 ISZERO MUL SWAP1 PUSH1 0x40 MLOAD PUSH1 0x0 PUSH1 0x40 MLOAD DUP1 DUP4 SUB DUP2 DUP6 DUP9 DUP9 CALL SWAP4 POP POP POP POP ISZERO DUP1 ISZERO PUSH2 0x125 JUMPI RETURNDATASIZE PUSH1 0x0 DUP1 RETURNDATACOPY RETURNDATASIZE PUSH1 0x0 REVERT JUMPDEST POP POP JUMP JUMPDEST PUSH1 0x0 SELFBALANCE SWAP1 POP SWAP1 JUMP JUMPDEST PUSH1 0x0 PUSH1 0x20 MSTORE DUP1 PUSH1 0x0 MSTORE PUSH1 0x40 PUSH1 0x0 KECCAK256 PUSH1 0x0 SWAP2 POP SLOAD SWAP1 PUSH2 0x100 EXP SWAP1 DIV PUSH1 0xFF AND DUP2 JUMP JUMPDEST JUMP JUMPDEST PUSH1 0x0 DUP1 REVERT JUMPDEST PUSH1 0x0 PUSH20 0xFFFFFFFFFFFFFFFFFFFFFFFFFFFFFFFFFFFFFFFF DUP3 AND SWAP1 POP SWAP2 SWAP1 POP JUMP JUMPDEST PUSH1 0x0 PUSH2 0x183 DUP3 PUSH2 0x158 JUMP JUMPDEST SWAP1 POP SWAP2 SWAP1 POP JUMP JUMPDEST PUSH2 0x193 DUP2 PUSH2 0x178 JUMP JUMPDEST DUP2 EQ PUSH2 0x19E JUMPI PUSH1 0x0 DUP1 REVERT JUMPDEST POP JUMP JUMPDEST PUSH1 0x0 DUP2 CALLDATALOAD SWAP1 POP PUSH2 0x1B0 DUP2 PUSH2 0x18A JUMP JUMPDEST SWAP3 SWAP2 POP POP JUMP JUMPDEST PUSH1 0x0 PUSH1 0x20 DUP3 DUP5 SUB SLT ISZERO PUSH2 0x1CC JUMPI PUSH2 0x1CB PUSH2 0x153 JUMP JUMPDEST JUMPDEST PUSH1 0x0 PUSH2 0x1DA DUP5 DUP3 DUP6 ADD PUSH2 0x1A1 JUMP JUMPDEST SWAP2 POP POP SWAP3 SWAP2 POP POP JUMP JUMPDEST PUSH1 0x0 DUP2 SWAP1 POP SWAP2 SWAP1 POP JUMP JUMPDEST PUSH2 0x1F6 DUP2 PUSH2 0x1E3 JUMP JUMPDEST DUP3 MSTORE POP POP JUMP JUMPDEST PUSH1 0x0 PUSH1 0x20 DUP3 ADD SWAP1 POP PUSH2 0x211 PUSH1 0x0 DUP4 ADD DUP5 PUSH2 0x1ED JUMP JUMPDEST SWAP3 SWAP2 POP POP JUMP JUMPDEST PUSH1 0x0 PUSH2 0x222 DUP3 PUSH2 0x158 JUMP JUMPDEST SWAP1 POP SWAP2 SWAP1 POP JUMP JUMPDEST PUSH2 0x232 DUP2 PUSH2 0x217 JUMP JUMPDEST DUP2 EQ PUSH2 0x23D JUMPI PUSH1 0x0 DUP1 REVERT JUMPDEST POP JUMP JUMPDEST PUSH1 0x0 DUP2 CALLDATALOAD SWAP1 POP PUSH2 0x24F DUP2 PUSH2 0x229 JUMP JUMPDEST SWAP3 SWAP2 POP POP JUMP JUMPDEST PUSH1 0x0 PUSH1 0x20 DUP3 DUP5 SUB SLT ISZERO PUSH2 0x26B JUMPI PUSH2 0x26A PUSH2 0x153 JUMP JUMPDEST JUMPDEST PUSH1 0x0 PUSH2 0x279 DUP5 DUP3 DUP6 ADD PUSH2 0x240 JUMP JUMPDEST SWAP2 POP POP SWAP3 SWAP2 POP POP JUMP JUMPDEST PUSH1 0x0 DUP2 ISZERO ISZERO SWAP1 POP SWAP2 SWAP1 POP JUMP JUMPDEST PUSH2 0x297 DUP2 PUSH2 0x282 JUMP JUMPDEST DUP3 MSTORE POP POP JUMP JUMPDEST PUSH1 0x0 PUSH1 0x20 DUP3 ADD SWAP1 POP PUSH2 0x2B2 PUSH1 0x0 DUP4 ADD DUP5 PUSH2 0x28E JUMP JUMPDEST SWAP3 SWAP2 POP POP JUMP INVALID LOG2 PUSH5 0x6970667358 0x22 SLT KECCAK256 0xCA PUSH14 0x64216D7B42FE3B2B436A01DEE4BD STATICCALL LOG3 DUP3 DUP8 STATICCALL 0x26 0xC0 SWAP14 0xE8 0x2A DELEGATECALL RETURN CODESIZE PUSH10 0xF5D64736F6C63430008 LT STOP CALLER "
				},
				"gasEstimates": {
					"creation": {
						"codeDepositCost": "150000",
						"executionCost": "196",
						"totalCost": "150196"
					},
					"external": {
						"getBalance()": "339",
						"myAddressMapping(address)": "2867",
						"sendMoney()": "164",
						"withdrawAllMoney(address)": "infinite"
					}
				},
				"methodIdentifiers": {
					"getBalance()": "12065fe0",
					"myAddressMapping(address)": "b92ba3b8",
					"sendMoney()": "cbedbf5a",
					"withdrawAllMoney(address)": "0adec93c"
				}
			},
			"storageLayout": {
				"storage": [
					{
						"astId": 5,
						"contract": "MyStructExamples2.sol:MappingsStructExample",
						"label": "myAddressMapping",
						"offset": 0,
						"slot": "0",
						"type": "t_mapping(t_address,t_bool)"
					}
				],
				"types": {
					"t_address": {
						"encoding": "inplace",
						"label": "address",
						"numberOfBytes": "20"
					},
					"t_bool": {
						"encoding": "inplace",
						"label": "bool",
						"numberOfBytes": "1"
					},
					"t_mapping(t_address,t_bool)": {
						"encoding": "mapping",
						"key": "t_address",
						"label": "mapping(address => bool)",
						"numberOfBytes": "32",
						"value": "t_bool"
					}
				}
			},
			"userdoc": {
				"kind": "user",
				"methods": {},
				"version": 1
			}
		}
	}
}