{
	"MyProjectSharedWallet.sol": {
		"SharedWallet": {
			"abi": [
				{
					"inputs": [],
					"stateMutability": "nonpayable",
					"type": "constructor"
				},
				{
					"inputs": [],
					"name": "ReceiveMoney",
					"outputs": [],
					"stateMutability": "payable",
					"type": "function"
				},
				{
					"inputs": [
						{
							"internalType": "address",
							"name": "_beneficiary",
							"type": "address"
						},
						{
							"internalType": "uint256",
							"name": "_all",
							"type": "uint256"
						}
					],
					"name": "SetAllowance",
					"outputs": [],
					"stateMutability": "nonpayable",
					"type": "function"
				},
				{
					"inputs": [],
					"name": "owner",
					"outputs": [
						{
							"internalType": "address",
							"name": "",
							"type": "address"
						}
					],
					"stateMutability": "view",
					"type": "function"
				},
				{
					"inputs": [],
					"name": "walletBalance",
					"outputs": [
						{
							"internalType": "uint256",
							"name": "",
							"type": "uint256"
						}
					],
					"stateMutability": "view",
					"type": "function"
				}
			],
			"devdoc": {
				"kind": "dev",
				"methods": {},
				"version": 1
			},
			"evm": {
				"assembly": "    /* \"MyProjectSharedWallet.sol\":156:927  contract SharedWallet {... */\n  mstore(0x40, 0x80)\n    /* \"MyProjectSharedWallet.sol\":421:470  constructor() {... */\n  callvalue\n  dup1\n  iszero\n  tag_1\n  jumpi\n  0x00\n  dup1\n  revert\ntag_1:\n  pop\n    /* \"MyProjectSharedWallet.sol\":453:463  msg.sender */\n  caller\n    /* \"MyProjectSharedWallet.sol\":445:450  owner */\n  0x01\n  0x00\n    /* \"MyProjectSharedWallet.sol\":445:463  owner = msg.sender */\n  0x0100\n  exp\n  dup2\n  sload\n  dup2\n  0xffffffffffffffffffffffffffffffffffffffff\n  mul\n  not\n  and\n  swap1\n  dup4\n  0xffffffffffffffffffffffffffffffffffffffff\n  and\n  mul\n  or\n  swap1\n  sstore\n  pop\n    /* \"MyProjectSharedWallet.sol\":156:927  contract SharedWallet {... */\n  dataSize(sub_0)\n  dup1\n  dataOffset(sub_0)\n  0x00\n  codecopy\n  0x00\n  return\nstop\n\nsub_0: assembly {\n        /* \"MyProjectSharedWallet.sol\":156:927  contract SharedWallet {... */\n      mstore(0x40, 0x80)\n      jumpi(tag_1, lt(calldatasize, 0x04))\n      shr(0xe0, calldataload(0x00))\n      dup1\n      0x3e7279a3\n      eq\n      tag_2\n      jumpi\n      dup1\n      0x8da5cb5b\n      eq\n      tag_3\n      jumpi\n      dup1\n      0xa29e0a94\n      eq\n      tag_4\n      jumpi\n      dup1\n      0xcd0a314b\n      eq\n      tag_5\n      jumpi\n    tag_1:\n      0x00\n      dup1\n      revert\n        /* \"MyProjectSharedWallet.sol\":667:747  function SetAllowance(address _beneficiary, uint _all) public onlyOwner {... */\n    tag_2:\n      callvalue\n      dup1\n      iszero\n      tag_6\n      jumpi\n      0x00\n      dup1\n      revert\n    tag_6:\n      pop\n      tag_7\n      0x04\n      dup1\n      calldatasize\n      sub\n      dup2\n      add\n      swap1\n      tag_8\n      swap2\n      swap1\n      tag_9\n      jump\t// in\n    tag_8:\n      tag_10\n      jump\t// in\n    tag_7:\n      stop\n        /* \"MyProjectSharedWallet.sol\":285:305  address public owner */\n    tag_3:\n      callvalue\n      dup1\n      iszero\n      tag_11\n      jumpi\n      0x00\n      dup1\n      revert\n    tag_11:\n      pop\n      tag_12\n      tag_13\n      jump\t// in\n    tag_12:\n      mload(0x40)\n      tag_14\n      swap2\n      swap1\n      tag_15\n      jump\t// in\n    tag_14:\n      mload(0x40)\n      dup1\n      swap2\n      sub\n      swap1\n      return\n        /* \"MyProjectSharedWallet.sol\":785:924  function ReceiveMoney() public payable {... */\n    tag_4:\n      tag_16\n      tag_17\n      jump\t// in\n    tag_16:\n      stop\n        /* \"MyProjectSharedWallet.sol\":224:249  uint public walletBalance */\n    tag_5:\n      callvalue\n      dup1\n      iszero\n      tag_18\n      jumpi\n      0x00\n      dup1\n      revert\n    tag_18:\n      pop\n      tag_19\n      tag_20\n      jump\t// in\n    tag_19:\n      mload(0x40)\n      tag_21\n      swap2\n      swap1\n      tag_22\n      jump\t// in\n    tag_21:\n      mload(0x40)\n      dup1\n      swap2\n      sub\n      swap1\n      return\n        /* \"MyProjectSharedWallet.sol\":667:747  function SetAllowance(address _beneficiary, uint _all) public onlyOwner {... */\n    tag_10:\n        /* \"MyProjectSharedWallet.sol\":529:534  owner */\n      0x01\n      0x00\n      swap1\n      sload\n      swap1\n      0x0100\n      exp\n      swap1\n      div\n      0xffffffffffffffffffffffffffffffffffffffff\n      and\n        /* \"MyProjectSharedWallet.sol\":515:534  msg.sender == owner */\n      0xffffffffffffffffffffffffffffffffffffffff\n      and\n        /* \"MyProjectSharedWallet.sol\":515:525  msg.sender */\n      caller\n        /* \"MyProjectSharedWallet.sol\":515:534  msg.sender == owner */\n      0xffffffffffffffffffffffffffffffffffffffff\n      and\n      eq\n        /* \"MyProjectSharedWallet.sol\":507:588  require(msg.sender == owner, \"You are not allowed - only the owner can do this.\") */\n      tag_24\n      jumpi\n      mload(0x40)\n      0x08c379a000000000000000000000000000000000000000000000000000000000\n      dup2\n      mstore\n      0x04\n      add\n      tag_25\n      swap1\n      tag_26\n      jump\t// in\n    tag_25:\n      mload(0x40)\n      dup1\n      swap2\n      sub\n      swap1\n      revert\n    tag_24:\n        /* \"MyProjectSharedWallet.sol\":667:747  function SetAllowance(address _beneficiary, uint _all) public onlyOwner {... */\n      pop\n      pop\n      jump\t// out\n        /* \"MyProjectSharedWallet.sol\":285:305  address public owner */\n    tag_13:\n      0x01\n      0x00\n      swap1\n      sload\n      swap1\n      0x0100\n      exp\n      swap1\n      div\n      0xffffffffffffffffffffffffffffffffffffffff\n      and\n      dup2\n      jump\t// out\n        /* \"MyProjectSharedWallet.sol\":785:924  function ReceiveMoney() public payable {... */\n    tag_17:\n        /* \"MyProjectSharedWallet.sol\":851:860  msg.value */\n      callvalue\n        /* \"MyProjectSharedWallet.sol\":834:847  walletBalance */\n      0x00\n      dup1\n        /* \"MyProjectSharedWallet.sol\":834:860  walletBalance += msg.value */\n      dup3\n      dup3\n      sload\n      tag_29\n      swap2\n      swap1\n      tag_30\n      jump\t// in\n    tag_29:\n      swap3\n      pop\n      pop\n      dup2\n      swap1\n      sstore\n      pop\n        /* \"MyProjectSharedWallet.sol\":785:924  function ReceiveMoney() public payable {... */\n      jump\t// out\n        /* \"MyProjectSharedWallet.sol\":224:249  uint public walletBalance */\n    tag_20:\n      sload(0x00)\n      dup2\n      jump\t// out\n        /* \"#utility.yul\":88:205   */\n    tag_32:\n        /* \"#utility.yul\":197:198   */\n      0x00\n        /* \"#utility.yul\":194:195   */\n      dup1\n        /* \"#utility.yul\":187:199   */\n      revert\n        /* \"#utility.yul\":334:460   */\n    tag_34:\n        /* \"#utility.yul\":371:378   */\n      0x00\n        /* \"#utility.yul\":411:453   */\n      0xffffffffffffffffffffffffffffffffffffffff\n        /* \"#utility.yul\":404:409   */\n      dup3\n        /* \"#utility.yul\":400:454   */\n      and\n        /* \"#utility.yul\":389:454   */\n      swap1\n      pop\n        /* \"#utility.yul\":334:460   */\n      swap2\n      swap1\n      pop\n      jump\t// out\n        /* \"#utility.yul\":466:562   */\n    tag_35:\n        /* \"#utility.yul\":503:510   */\n      0x00\n        /* \"#utility.yul\":532:556   */\n      tag_53\n        /* \"#utility.yul\":550:555   */\n      dup3\n        /* \"#utility.yul\":532:556   */\n      tag_34\n      jump\t// in\n    tag_53:\n        /* \"#utility.yul\":521:556   */\n      swap1\n      pop\n        /* \"#utility.yul\":466:562   */\n      swap2\n      swap1\n      pop\n      jump\t// out\n        /* \"#utility.yul\":568:690   */\n    tag_36:\n        /* \"#utility.yul\":641:665   */\n      tag_55\n        /* \"#utility.yul\":659:664   */\n      dup2\n        /* \"#utility.yul\":641:665   */\n      tag_35\n      jump\t// in\n    tag_55:\n        /* \"#utility.yul\":634:639   */\n      dup2\n        /* \"#utility.yul\":631:666   */\n      eq\n        /* \"#utility.yul\":621:684   */\n      tag_56\n      jumpi\n        /* \"#utility.yul\":680:681   */\n      0x00\n        /* \"#utility.yul\":677:678   */\n      dup1\n        /* \"#utility.yul\":670:682   */\n      revert\n        /* \"#utility.yul\":621:684   */\n    tag_56:\n        /* \"#utility.yul\":568:690   */\n      pop\n      jump\t// out\n        /* \"#utility.yul\":696:835   */\n    tag_37:\n        /* \"#utility.yul\":742:747   */\n      0x00\n        /* \"#utility.yul\":780:786   */\n      dup2\n        /* \"#utility.yul\":767:787   */\n      calldataload\n        /* \"#utility.yul\":758:787   */\n      swap1\n      pop\n        /* \"#utility.yul\":796:829   */\n      tag_58\n        /* \"#utility.yul\":823:828   */\n      dup2\n        /* \"#utility.yul\":796:829   */\n      tag_36\n      jump\t// in\n    tag_58:\n        /* \"#utility.yul\":696:835   */\n      swap3\n      swap2\n      pop\n      pop\n      jump\t// out\n        /* \"#utility.yul\":841:918   */\n    tag_38:\n        /* \"#utility.yul\":878:885   */\n      0x00\n        /* \"#utility.yul\":907:912   */\n      dup2\n        /* \"#utility.yul\":896:912   */\n      swap1\n      pop\n        /* \"#utility.yul\":841:918   */\n      swap2\n      swap1\n      pop\n      jump\t// out\n        /* \"#utility.yul\":924:1046   */\n    tag_39:\n        /* \"#utility.yul\":997:1021   */\n      tag_61\n        /* \"#utility.yul\":1015:1020   */\n      dup2\n        /* \"#utility.yul\":997:1021   */\n      tag_38\n      jump\t// in\n    tag_61:\n        /* \"#utility.yul\":990:995   */\n      dup2\n        /* \"#utility.yul\":987:1022   */\n      eq\n        /* \"#utility.yul\":977:1040   */\n      tag_62\n      jumpi\n        /* \"#utility.yul\":1036:1037   */\n      0x00\n        /* \"#utility.yul\":1033:1034   */\n      dup1\n        /* \"#utility.yul\":1026:1038   */\n      revert\n        /* \"#utility.yul\":977:1040   */\n    tag_62:\n        /* \"#utility.yul\":924:1046   */\n      pop\n      jump\t// out\n        /* \"#utility.yul\":1052:1191   */\n    tag_40:\n        /* \"#utility.yul\":1098:1103   */\n      0x00\n        /* \"#utility.yul\":1136:1142   */\n      dup2\n        /* \"#utility.yul\":1123:1143   */\n      calldataload\n        /* \"#utility.yul\":1114:1143   */\n      swap1\n      pop\n        /* \"#utility.yul\":1152:1185   */\n      tag_64\n        /* \"#utility.yul\":1179:1184   */\n      dup2\n        /* \"#utility.yul\":1152:1185   */\n      tag_39\n      jump\t// in\n    tag_64:\n        /* \"#utility.yul\":1052:1191   */\n      swap3\n      swap2\n      pop\n      pop\n      jump\t// out\n        /* \"#utility.yul\":1197:1671   */\n    tag_9:\n        /* \"#utility.yul\":1265:1271   */\n      0x00\n        /* \"#utility.yul\":1273:1279   */\n      dup1\n        /* \"#utility.yul\":1322:1324   */\n      0x40\n        /* \"#utility.yul\":1310:1319   */\n      dup4\n        /* \"#utility.yul\":1301:1308   */\n      dup6\n        /* \"#utility.yul\":1297:1320   */\n      sub\n        /* \"#utility.yul\":1293:1325   */\n      slt\n        /* \"#utility.yul\":1290:1409   */\n      iszero\n      tag_66\n      jumpi\n        /* \"#utility.yul\":1328:1407   */\n      tag_67\n      tag_32\n      jump\t// in\n    tag_67:\n        /* \"#utility.yul\":1290:1409   */\n    tag_66:\n        /* \"#utility.yul\":1448:1449   */\n      0x00\n        /* \"#utility.yul\":1473:1526   */\n      tag_68\n        /* \"#utility.yul\":1518:1525   */\n      dup6\n        /* \"#utility.yul\":1509:1515   */\n      dup3\n        /* \"#utility.yul\":1498:1507   */\n      dup7\n        /* \"#utility.yul\":1494:1516   */\n      add\n        /* \"#utility.yul\":1473:1526   */\n      tag_37\n      jump\t// in\n    tag_68:\n        /* \"#utility.yul\":1463:1526   */\n      swap3\n      pop\n        /* \"#utility.yul\":1419:1536   */\n      pop\n        /* \"#utility.yul\":1575:1577   */\n      0x20\n        /* \"#utility.yul\":1601:1654   */\n      tag_69\n        /* \"#utility.yul\":1646:1653   */\n      dup6\n        /* \"#utility.yul\":1637:1643   */\n      dup3\n        /* \"#utility.yul\":1626:1635   */\n      dup7\n        /* \"#utility.yul\":1622:1644   */\n      add\n        /* \"#utility.yul\":1601:1654   */\n      tag_40\n      jump\t// in\n    tag_69:\n        /* \"#utility.yul\":1591:1654   */\n      swap2\n      pop\n        /* \"#utility.yul\":1546:1664   */\n      pop\n        /* \"#utility.yul\":1197:1671   */\n      swap3\n      pop\n      swap3\n      swap1\n      pop\n      jump\t// out\n        /* \"#utility.yul\":1677:1795   */\n    tag_41:\n        /* \"#utility.yul\":1764:1788   */\n      tag_71\n        /* \"#utility.yul\":1782:1787   */\n      dup2\n        /* \"#utility.yul\":1764:1788   */\n      tag_35\n      jump\t// in\n    tag_71:\n        /* \"#utility.yul\":1759:1762   */\n      dup3\n        /* \"#utility.yul\":1752:1789   */\n      mstore\n        /* \"#utility.yul\":1677:1795   */\n      pop\n      pop\n      jump\t// out\n        /* \"#utility.yul\":1801:2023   */\n    tag_15:\n        /* \"#utility.yul\":1894:1898   */\n      0x00\n        /* \"#utility.yul\":1932:1934   */\n      0x20\n        /* \"#utility.yul\":1921:1930   */\n      dup3\n        /* \"#utility.yul\":1917:1935   */\n      add\n        /* \"#utility.yul\":1909:1935   */\n      swap1\n      pop\n        /* \"#utility.yul\":1945:2016   */\n      tag_73\n        /* \"#utility.yul\":2013:2014   */\n      0x00\n        /* \"#utility.yul\":2002:2011   */\n      dup4\n        /* \"#utility.yul\":1998:2015   */\n      add\n        /* \"#utility.yul\":1989:1995   */\n      dup5\n        /* \"#utility.yul\":1945:2016   */\n      tag_41\n      jump\t// in\n    tag_73:\n        /* \"#utility.yul\":1801:2023   */\n      swap3\n      swap2\n      pop\n      pop\n      jump\t// out\n        /* \"#utility.yul\":2029:2147   */\n    tag_42:\n        /* \"#utility.yul\":2116:2140   */\n      tag_75\n        /* \"#utility.yul\":2134:2139   */\n      dup2\n        /* \"#utility.yul\":2116:2140   */\n      tag_38\n      jump\t// in\n    tag_75:\n        /* \"#utility.yul\":2111:2114   */\n      dup3\n        /* \"#utility.yul\":2104:2141   */\n      mstore\n        /* \"#utility.yul\":2029:2147   */\n      pop\n      pop\n      jump\t// out\n        /* \"#utility.yul\":2153:2375   */\n    tag_22:\n        /* \"#utility.yul\":2246:2250   */\n      0x00\n        /* \"#utility.yul\":2284:2286   */\n      0x20\n        /* \"#utility.yul\":2273:2282   */\n      dup3\n        /* \"#utility.yul\":2269:2287   */\n      add\n        /* \"#utility.yul\":2261:2287   */\n      swap1\n      pop\n        /* \"#utility.yul\":2297:2368   */\n      tag_77\n        /* \"#utility.yul\":2365:2366   */\n      0x00\n        /* \"#utility.yul\":2354:2363   */\n      dup4\n        /* \"#utility.yul\":2350:2367   */\n      add\n        /* \"#utility.yul\":2341:2347   */\n      dup5\n        /* \"#utility.yul\":2297:2368   */\n      tag_42\n      jump\t// in\n    tag_77:\n        /* \"#utility.yul\":2153:2375   */\n      swap3\n      swap2\n      pop\n      pop\n      jump\t// out\n        /* \"#utility.yul\":2381:2550   */\n    tag_43:\n        /* \"#utility.yul\":2465:2476   */\n      0x00\n        /* \"#utility.yul\":2499:2505   */\n      dup3\n        /* \"#utility.yul\":2494:2497   */\n      dup3\n        /* \"#utility.yul\":2487:2506   */\n      mstore\n        /* \"#utility.yul\":2539:2543   */\n      0x20\n        /* \"#utility.yul\":2534:2537   */\n      dup3\n        /* \"#utility.yul\":2530:2544   */\n      add\n        /* \"#utility.yul\":2515:2544   */\n      swap1\n      pop\n        /* \"#utility.yul\":2381:2550   */\n      swap3\n      swap2\n      pop\n      pop\n      jump\t// out\n        /* \"#utility.yul\":2556:2792   */\n    tag_44:\n        /* \"#utility.yul\":2696:2730   */\n      0x596f7520617265206e6f7420616c6c6f776564202d206f6e6c7920746865206f\n        /* \"#utility.yul\":2692:2693   */\n      0x00\n        /* \"#utility.yul\":2684:2690   */\n      dup3\n        /* \"#utility.yul\":2680:2694   */\n      add\n        /* \"#utility.yul\":2673:2731   */\n      mstore\n        /* \"#utility.yul\":2765:2784   */\n      0x776e65722063616e20646f20746869732e000000000000000000000000000000\n        /* \"#utility.yul\":2760:2762   */\n      0x20\n        /* \"#utility.yul\":2752:2758   */\n      dup3\n        /* \"#utility.yul\":2748:2763   */\n      add\n        /* \"#utility.yul\":2741:2785   */\n      mstore\n        /* \"#utility.yul\":2556:2792   */\n      pop\n      jump\t// out\n        /* \"#utility.yul\":2798:3164   */\n    tag_45:\n        /* \"#utility.yul\":2940:2943   */\n      0x00\n        /* \"#utility.yul\":2961:3028   */\n      tag_81\n        /* \"#utility.yul\":3025:3027   */\n      0x31\n        /* \"#utility.yul\":3020:3023   */\n      dup4\n        /* \"#utility.yul\":2961:3028   */\n      tag_43\n      jump\t// in\n    tag_81:\n        /* \"#utility.yul\":2954:3028   */\n      swap2\n      pop\n        /* \"#utility.yul\":3037:3130   */\n      tag_82\n        /* \"#utility.yul\":3126:3129   */\n      dup3\n        /* \"#utility.yul\":3037:3130   */\n      tag_44\n      jump\t// in\n    tag_82:\n        /* \"#utility.yul\":3155:3157   */\n      0x40\n        /* \"#utility.yul\":3150:3153   */\n      dup3\n        /* \"#utility.yul\":3146:3158   */\n      add\n        /* \"#utility.yul\":3139:3158   */\n      swap1\n      pop\n        /* \"#utility.yul\":2798:3164   */\n      swap2\n      swap1\n      pop\n      jump\t// out\n        /* \"#utility.yul\":3170:3589   */\n    tag_26:\n        /* \"#utility.yul\":3336:3340   */\n      0x00\n        /* \"#utility.yul\":3374:3376   */\n      0x20\n        /* \"#utility.yul\":3363:3372   */\n      dup3\n        /* \"#utility.yul\":3359:3377   */\n      add\n        /* \"#utility.yul\":3351:3377   */\n      swap1\n      pop\n        /* \"#utility.yul\":3423:3432   */\n      dup2\n        /* \"#utility.yul\":3417:3421   */\n      dup2\n        /* \"#utility.yul\":3413:3433   */\n      sub\n        /* \"#utility.yul\":3409:3410   */\n      0x00\n        /* \"#utility.yul\":3398:3407   */\n      dup4\n        /* \"#utility.yul\":3394:3411   */\n      add\n        /* \"#utility.yul\":3387:3434   */\n      mstore\n        /* \"#utility.yul\":3451:3582   */\n      tag_84\n        /* \"#utility.yul\":3577:3581   */\n      dup2\n        /* \"#utility.yul\":3451:3582   */\n      tag_45\n      jump\t// in\n    tag_84:\n        /* \"#utility.yul\":3443:3582   */\n      swap1\n      pop\n        /* \"#utility.yul\":3170:3589   */\n      swap2\n      swap1\n      pop\n      jump\t// out\n        /* \"#utility.yul\":3595:3775   */\n    tag_46:\n        /* \"#utility.yul\":3643:3720   */\n      0x4e487b7100000000000000000000000000000000000000000000000000000000\n        /* \"#utility.yul\":3640:3641   */\n      0x00\n        /* \"#utility.yul\":3633:3721   */\n      mstore\n        /* \"#utility.yul\":3740:3744   */\n      0x11\n        /* \"#utility.yul\":3737:3738   */\n      0x04\n        /* \"#utility.yul\":3730:3745   */\n      mstore\n        /* \"#utility.yul\":3764:3768   */\n      0x24\n        /* \"#utility.yul\":3761:3762   */\n      0x00\n        /* \"#utility.yul\":3754:3769   */\n      revert\n        /* \"#utility.yul\":3781:3972   */\n    tag_30:\n        /* \"#utility.yul\":3821:3824   */\n      0x00\n        /* \"#utility.yul\":3840:3860   */\n      tag_87\n        /* \"#utility.yul\":3858:3859   */\n      dup3\n        /* \"#utility.yul\":3840:3860   */\n      tag_38\n      jump\t// in\n    tag_87:\n        /* \"#utility.yul\":3835:3860   */\n      swap2\n      pop\n        /* \"#utility.yul\":3874:3894   */\n      tag_88\n        /* \"#utility.yul\":3892:3893   */\n      dup4\n        /* \"#utility.yul\":3874:3894   */\n      tag_38\n      jump\t// in\n    tag_88:\n        /* \"#utility.yul\":3869:3894   */\n      swap3\n      pop\n        /* \"#utility.yul\":3917:3918   */\n      dup3\n        /* \"#utility.yul\":3914:3915   */\n      dup3\n        /* \"#utility.yul\":3910:3919   */\n      add\n        /* \"#utility.yul\":3903:3919   */\n      swap1\n      pop\n        /* \"#utility.yul\":3938:3941   */\n      dup1\n        /* \"#utility.yul\":3935:3936   */\n      dup3\n        /* \"#utility.yul\":3932:3942   */\n      gt\n        /* \"#utility.yul\":3929:3965   */\n      iszero\n      tag_89\n      jumpi\n        /* \"#utility.yul\":3945:3963   */\n      tag_90\n      tag_46\n      jump\t// in\n    tag_90:\n        /* \"#utility.yul\":3929:3965   */\n    tag_89:\n        /* \"#utility.yul\":3781:3972   */\n      swap3\n      swap2\n      pop\n      pop\n      jump\t// out\n\n    auxdata: 0xa2646970667358221220cc7b8dc000a61bfdd1a411593a7c64ecbc0f0a332db333fd9d4d742b6d869fbd64736f6c63430008100033\n}\n",
				"bytecode": {
					"linkReferences": {},
					"object": "608060405234801561001057600080fd5b5033600160006101000a81548173ffffffffffffffffffffffffffffffffffffffff021916908373ffffffffffffffffffffffffffffffffffffffff160217905550610410806100616000396000f3fe60806040526004361061003f5760003560e01c80633e7279a3146100445780638da5cb5b1461006d578063a29e0a9414610098578063cd0a314b146100a2575b600080fd5b34801561005057600080fd5b5061006b60048036038101906100669190610240565b6100cd565b005b34801561007957600080fd5b50610082610161565b60405161008f919061028f565b60405180910390f35b6100a0610187565b005b3480156100ae57600080fd5b506100b76101a1565b6040516100c491906102b9565b60405180910390f35b600160009054906101000a900473ffffffffffffffffffffffffffffffffffffffff1673ffffffffffffffffffffffffffffffffffffffff163373ffffffffffffffffffffffffffffffffffffffff161461015d576040517f08c379a000000000000000000000000000000000000000000000000000000000815260040161015490610357565b60405180910390fd5b5050565b600160009054906101000a900473ffffffffffffffffffffffffffffffffffffffff1681565b3460008082825461019891906103a6565b92505081905550565b60005481565b600080fd5b600073ffffffffffffffffffffffffffffffffffffffff82169050919050565b60006101d7826101ac565b9050919050565b6101e7816101cc565b81146101f257600080fd5b50565b600081359050610204816101de565b92915050565b6000819050919050565b61021d8161020a565b811461022857600080fd5b50565b60008135905061023a81610214565b92915050565b60008060408385031215610257576102566101a7565b5b6000610265858286016101f5565b92505060206102768582860161022b565b9150509250929050565b610289816101cc565b82525050565b60006020820190506102a46000830184610280565b92915050565b6102b38161020a565b82525050565b60006020820190506102ce60008301846102aa565b92915050565b600082825260208201905092915050565b7f596f7520617265206e6f7420616c6c6f776564202d206f6e6c7920746865206f60008201527f776e65722063616e20646f20746869732e000000000000000000000000000000602082015250565b60006103416031836102d4565b915061034c826102e5565b604082019050919050565b6000602082019050818103600083015261037081610334565b9050919050565b7f4e487b7100000000000000000000000000000000000000000000000000000000600052601160045260246000fd5b60006103b18261020a565b91506103bc8361020a565b92508282019050808211156103d4576103d3610377565b5b9291505056fea2646970667358221220cc7b8dc000a61bfdd1a411593a7c64ecbc0f0a332db333fd9d4d742b6d869fbd64736f6c63430008100033",
					"opcodes": "PUSH1 0x80 PUSH1 0x40 MSTORE CALLVALUE DUP1 ISZERO PUSH2 0x10 JUMPI PUSH1 0x0 DUP1 REVERT JUMPDEST POP CALLER PUSH1 0x1 PUSH1 0x0 PUSH2 0x100 EXP DUP2 SLOAD DUP2 PUSH20 0xFFFFFFFFFFFFFFFFFFFFFFFFFFFFFFFFFFFFFFFF MUL NOT AND SWAP1 DUP4 PUSH20 0xFFFFFFFFFFFFFFFFFFFFFFFFFFFFFFFFFFFFFFFF AND MUL OR SWAP1 SSTORE POP PUSH2 0x410 DUP1 PUSH2 0x61 PUSH1 0x0 CODECOPY PUSH1 0x0 RETURN INVALID PUSH1 0x80 PUSH1 0x40 MSTORE PUSH1 0x4 CALLDATASIZE LT PUSH2 0x3F JUMPI PUSH1 0x0 CALLDATALOAD PUSH1 0xE0 SHR DUP1 PUSH4 0x3E7279A3 EQ PUSH2 0x44 JUMPI DUP1 PUSH4 0x8DA5CB5B EQ PUSH2 0x6D JUMPI DUP1 PUSH4 0xA29E0A94 EQ PUSH2 0x98 JUMPI DUP1 PUSH4 0xCD0A314B EQ PUSH2 0xA2 JUMPI JUMPDEST PUSH1 0x0 DUP1 REVERT JUMPDEST CALLVALUE DUP1 ISZERO PUSH2 0x50 JUMPI PUSH1 0x0 DUP1 REVERT JUMPDEST POP PUSH2 0x6B PUSH1 0x4 DUP1 CALLDATASIZE SUB DUP2 ADD SWAP1 PUSH2 0x66 SWAP2 SWAP1 PUSH2 0x240 JUMP JUMPDEST PUSH2 0xCD JUMP JUMPDEST STOP JUMPDEST CALLVALUE DUP1 ISZERO PUSH2 0x79 JUMPI PUSH1 0x0 DUP1 REVERT JUMPDEST POP PUSH2 0x82 PUSH2 0x161 JUMP JUMPDEST PUSH1 0x40 MLOAD PUSH2 0x8F SWAP2 SWAP1 PUSH2 0x28F JUMP JUMPDEST PUSH1 0x40 MLOAD DUP1 SWAP2 SUB SWAP1 RETURN JUMPDEST PUSH2 0xA0 PUSH2 0x187 JUMP JUMPDEST STOP JUMPDEST CALLVALUE DUP1 ISZERO PUSH2 0xAE JUMPI PUSH1 0x0 DUP1 REVERT JUMPDEST POP PUSH2 0xB7 PUSH2 0x1A1 JUMP JUMPDEST PUSH1 0x40 MLOAD PUSH2 0xC4 SWAP2 SWAP1 PUSH2 0x2B9 JUMP JUMPDEST PUSH1 0x40 MLOAD DUP1 SWAP2 SUB SWAP1 RETURN JUMPDEST PUSH1 0x1 PUSH1 0x0 SWAP1 SLOAD SWAP1 PUSH2 0x100 EXP SWAP1 DIV PUSH20 0xFFFFFFFFFFFFFFFFFFFFFFFFFFFFFFFFFFFFFFFF AND PUSH20 0xFFFFFFFFFFFFFFFFFFFFFFFFFFFFFFFFFFFFFFFF AND CALLER PUSH20 0xFFFFFFFFFFFFFFFFFFFFFFFFFFFFFFFFFFFFFFFF AND EQ PUSH2 0x15D JUMPI PUSH1 0x40 MLOAD PUSH32 0x8C379A000000000000000000000000000000000000000000000000000000000 DUP2 MSTORE PUSH1 0x4 ADD PUSH2 0x154 SWAP1 PUSH2 0x357 JUMP JUMPDEST PUSH1 0x40 MLOAD DUP1 SWAP2 SUB SWAP1 REVERT JUMPDEST POP POP JUMP JUMPDEST PUSH1 0x1 PUSH1 0x0 SWAP1 SLOAD SWAP1 PUSH2 0x100 EXP SWAP1 DIV PUSH20 0xFFFFFFFFFFFFFFFFFFFFFFFFFFFFFFFFFFFFFFFF AND DUP2 JUMP JUMPDEST CALLVALUE PUSH1 0x0 DUP1 DUP3 DUP3 SLOAD PUSH2 0x198 SWAP2 SWAP1 PUSH2 0x3A6 JUMP JUMPDEST SWAP3 POP POP DUP2 SWAP1 SSTORE POP JUMP JUMPDEST PUSH1 0x0 SLOAD DUP2 JUMP JUMPDEST PUSH1 0x0 DUP1 REVERT JUMPDEST PUSH1 0x0 PUSH20 0xFFFFFFFFFFFFFFFFFFFFFFFFFFFFFFFFFFFFFFFF DUP3 AND SWAP1 POP SWAP2 SWAP1 POP JUMP JUMPDEST PUSH1 0x0 PUSH2 0x1D7 DUP3 PUSH2 0x1AC JUMP JUMPDEST SWAP1 POP SWAP2 SWAP1 POP JUMP JUMPDEST PUSH2 0x1E7 DUP2 PUSH2 0x1CC JUMP JUMPDEST DUP2 EQ PUSH2 0x1F2 JUMPI PUSH1 0x0 DUP1 REVERT JUMPDEST POP JUMP JUMPDEST PUSH1 0x0 DUP2 CALLDATALOAD SWAP1 POP PUSH2 0x204 DUP2 PUSH2 0x1DE JUMP JUMPDEST SWAP3 SWAP2 POP POP JUMP JUMPDEST PUSH1 0x0 DUP2 SWAP1 POP SWAP2 SWAP1 POP JUMP JUMPDEST PUSH2 0x21D DUP2 PUSH2 0x20A JUMP JUMPDEST DUP2 EQ PUSH2 0x228 JUMPI PUSH1 0x0 DUP1 REVERT JUMPDEST POP JUMP JUMPDEST PUSH1 0x0 DUP2 CALLDATALOAD SWAP1 POP PUSH2 0x23A DUP2 PUSH2 0x214 JUMP JUMPDEST SWAP3 SWAP2 POP POP JUMP JUMPDEST PUSH1 0x0 DUP1 PUSH1 0x40 DUP4 DUP6 SUB SLT ISZERO PUSH2 0x257 JUMPI PUSH2 0x256 PUSH2 0x1A7 JUMP JUMPDEST JUMPDEST PUSH1 0x0 PUSH2 0x265 DUP6 DUP3 DUP7 ADD PUSH2 0x1F5 JUMP JUMPDEST SWAP3 POP POP PUSH1 0x20 PUSH2 0x276 DUP6 DUP3 DUP7 ADD PUSH2 0x22B JUMP JUMPDEST SWAP2 POP POP SWAP3 POP SWAP3 SWAP1 POP JUMP JUMPDEST PUSH2 0x289 DUP2 PUSH2 0x1CC JUMP JUMPDEST DUP3 MSTORE POP POP JUMP JUMPDEST PUSH1 0x0 PUSH1 0x20 DUP3 ADD SWAP1 POP PUSH2 0x2A4 PUSH1 0x0 DUP4 ADD DUP5 PUSH2 0x280 JUMP JUMPDEST SWAP3 SWAP2 POP POP JUMP JUMPDEST PUSH2 0x2B3 DUP2 PUSH2 0x20A JUMP JUMPDEST DUP3 MSTORE POP POP JUMP JUMPDEST PUSH1 0x0 PUSH1 0x20 DUP3 ADD SWAP1 POP PUSH2 0x2CE PUSH1 0x0 DUP4 ADD DUP5 PUSH2 0x2AA JUMP JUMPDEST SWAP3 SWAP2 POP POP JUMP JUMPDEST PUSH1 0x0 DUP3 DUP3 MSTORE PUSH1 0x20 DUP3 ADD SWAP1 POP SWAP3 SWAP2 POP POP JUMP JUMPDEST PUSH32 0x596F7520617265206E6F7420616C6C6F776564202D206F6E6C7920746865206F PUSH1 0x0 DUP3 ADD MSTORE PUSH32 0x776E65722063616E20646F20746869732E000000000000000000000000000000 PUSH1 0x20 DUP3 ADD MSTORE POP JUMP JUMPDEST PUSH1 0x0 PUSH2 0x341 PUSH1 0x31 DUP4 PUSH2 0x2D4 JUMP JUMPDEST SWAP2 POP PUSH2 0x34C DUP3 PUSH2 0x2E5 JUMP JUMPDEST PUSH1 0x40 DUP3 ADD SWAP1 POP SWAP2 SWAP1 POP JUMP JUMPDEST PUSH1 0x0 PUSH1 0x20 DUP3 ADD SWAP1 POP DUP2 DUP2 SUB PUSH1 0x0 DUP4 ADD MSTORE PUSH2 0x370 DUP2 PUSH2 0x334 JUMP JUMPDEST SWAP1 POP SWAP2 SWAP1 POP JUMP JUMPDEST PUSH32 0x4E487B7100000000000000000000000000000000000000000000000000000000 PUSH1 0x0 MSTORE PUSH1 0x11 PUSH1 0x4 MSTORE PUSH1 0x24 PUSH1 0x0 REVERT JUMPDEST PUSH1 0x0 PUSH2 0x3B1 DUP3 PUSH2 0x20A JUMP JUMPDEST SWAP2 POP PUSH2 0x3BC DUP4 PUSH2 0x20A JUMP JUMPDEST SWAP3 POP DUP3 DUP3 ADD SWAP1 POP DUP1 DUP3 GT ISZERO PUSH2 0x3D4 JUMPI PUSH2 0x3D3 PUSH2 0x377 JUMP JUMPDEST JUMPDEST SWAP3 SWAP2 POP POP JUMP INVALID LOG2 PUSH5 0x6970667358 0x22 SLT KECCAK256 0xCC PUSH28 0x8DC000A61BFDD1A411593A7C64ECBC0F0A332DB333FD9D4D742B6D86 SWAP16 0xBD PUSH5 0x736F6C6343 STOP ADDMOD LT STOP CALLER "
				},
				"gasEstimates": {
					"creation": {
						"codeDepositCost": "208000",
						"executionCost": "24517",
						"totalCost": "232517"
					},
					"external": {
						"ReceiveMoney()": "infinite",
						"SetAllowance(address,uint256)": "3079",
						"owner()": "2514",
						"walletBalance()": "2473"
					}
				},
				"methodIdentifiers": {
					"ReceiveMoney()": "a29e0a94",
					"SetAllowance(address,uint256)": "3e7279a3",
					"owner()": "8da5cb5b",
					"walletBalance()": "cd0a314b"
				}
			},
			"storageLayout": {
				"storage": [
					{
						"astId": 3,
						"contract": "MyProjectSharedWallet.sol:SharedWallet",
						"label": "walletBalance",
						"offset": 0,
						"slot": "0",
						"type": "t_uint256"
					},
					{
						"astId": 5,
						"contract": "MyProjectSharedWallet.sol:SharedWallet",
						"label": "owner",
						"offset": 0,
						"slot": "1",
						"type": "t_address"
					}
				],
				"types": {
					"t_address": {
						"encoding": "inplace",
						"label": "address",
						"numberOfBytes": "20"
					},
					"t_uint256": {
						"encoding": "inplace",
						"label": "uint256",
						"numberOfBytes": "32"
					}
				}
			},
			"userdoc": {
				"kind": "user",
				"methods": {},
				"version": 1
			}
		}
	}
}