{
	"MyEnumEample.sol": {
		"CardDeck": {
			"abi": [
				{
					"inputs": [],
					"name": "myCard",
					"outputs": [
						{
							"internalType": "enum CardDeck.Suit",
							"name": "suit",
							"type": "uint8"
						},
						{
							"internalType": "enum CardDeck.Value",
							"name": "value",
							"type": "uint8"
						}
					],
					"stateMutability": "view",
					"type": "function"
				},
				{
					"inputs": [
						{
							"internalType": "enum CardDeck.Suit",
							"name": "_suit",
							"type": "uint8"
						},
						{
							"internalType": "enum CardDeck.Value",
							"name": "_value",
							"type": "uint8"
						}
					],
					"name": "pick_a_card",
					"outputs": [
						{
							"internalType": "enum CardDeck.Suit",
							"name": "",
							"type": "uint8"
						},
						{
							"internalType": "enum CardDeck.Value",
							"name": "",
							"type": "uint8"
						}
					],
					"stateMutability": "nonpayable",
					"type": "function"
				}
			],
			"devdoc": {
				"kind": "dev",
				"methods": {},
				"version": 1
			},
			"evm": {
				"assembly": "    /* \"MyEnumEample.sol\":486:974  contract CardDeck {... */\n  mstore(0x40, 0x80)\n  callvalue\n  dup1\n  iszero\n  tag_1\n  jumpi\n  0x00\n  dup1\n  revert\ntag_1:\n  pop\n  dataSize(sub_0)\n  dup1\n  dataOffset(sub_0)\n  0x00\n  codecopy\n  0x00\n  return\nstop\n\nsub_0: assembly {\n        /* \"MyEnumEample.sol\":486:974  contract CardDeck {... */\n      mstore(0x40, 0x80)\n      callvalue\n      dup1\n      iszero\n      tag_1\n      jumpi\n      0x00\n      dup1\n      revert\n    tag_1:\n      pop\n      jumpi(tag_2, lt(calldatasize, 0x04))\n      shr(0xe0, calldataload(0x00))\n      dup1\n      0x211527ee\n      eq\n      tag_3\n      jumpi\n      dup1\n      0xc7624c26\n      eq\n      tag_4\n      jumpi\n    tag_2:\n      0x00\n      dup1\n      revert\n        /* \"MyEnumEample.sol\":785:972  function pick_a_card(Suit _suit, Value _value) public returns (Suit, Value) {... */\n    tag_3:\n      tag_5\n      0x04\n      dup1\n      calldatasize\n      sub\n      dup2\n      add\n      swap1\n      tag_6\n      swap2\n      swap1\n      tag_7\n      jump\t// in\n    tag_6:\n      tag_8\n      jump\t// in\n    tag_5:\n      mload(0x40)\n      tag_9\n      swap3\n      swap2\n      swap1\n      tag_10\n      jump\t// in\n    tag_9:\n      mload(0x40)\n      dup1\n      swap2\n      sub\n      swap1\n      return\n        /* \"MyEnumEample.sol\":756:774  Card public myCard */\n    tag_4:\n      tag_11\n      tag_12\n      jump\t// in\n    tag_11:\n      mload(0x40)\n      tag_13\n      swap3\n      swap2\n      swap1\n      tag_10\n      jump\t// in\n    tag_13:\n      mload(0x40)\n      dup1\n      swap2\n      sub\n      swap1\n      return\n        /* \"MyEnumEample.sol\":785:972  function pick_a_card(Suit _suit, Value _value) public returns (Suit, Value) {... */\n    tag_8:\n        /* \"MyEnumEample.sol\":848:852  Suit */\n      0x00\n        /* \"MyEnumEample.sol\":854:859  Value */\n      dup1\n        /* \"MyEnumEample.sol\":885:890  _suit */\n      dup4\n        /* \"MyEnumEample.sol\":871:877  myCard */\n      0x00\n        /* \"MyEnumEample.sol\":871:882  myCard.suit */\n      dup1\n      add\n      0x00\n        /* \"MyEnumEample.sol\":871:890  myCard.suit = _suit */\n      0x0100\n      exp\n      dup2\n      sload\n      dup2\n      0xff\n      mul\n      not\n      and\n      swap1\n      dup4\n      0x03\n      dup2\n      gt\n      iszero\n      tag_15\n      jumpi\n      tag_16\n      tag_17\n      jump\t// in\n    tag_16:\n    tag_15:\n      mul\n      or\n      swap1\n      sstore\n      pop\n        /* \"MyEnumEample.sol\":915:921  _value */\n      dup3\n        /* \"MyEnumEample.sol\":900:906  myCard */\n      0x00\n        /* \"MyEnumEample.sol\":900:912  myCard.value */\n      dup1\n      add\n      0x01\n        /* \"MyEnumEample.sol\":900:921  myCard.value = _value */\n      0x0100\n      exp\n      dup2\n      sload\n      dup2\n      0xff\n      mul\n      not\n      and\n      swap1\n      dup4\n      0x0c\n      dup2\n      gt\n      iszero\n      tag_18\n      jumpi\n      tag_19\n      tag_17\n      jump\t// in\n    tag_19:\n    tag_18:\n      mul\n      or\n      swap1\n      sstore\n      pop\n        /* \"MyEnumEample.sol\":939:945  myCard */\n      0x00\n        /* \"MyEnumEample.sol\":939:950  myCard.suit */\n      dup1\n      add\n      0x00\n      swap1\n      sload\n      swap1\n      0x0100\n      exp\n      swap1\n      div\n      0xff\n      and\n        /* \"MyEnumEample.sol\":952:958  myCard */\n      0x00\n        /* \"MyEnumEample.sol\":952:964  myCard.value */\n      dup1\n      add\n      0x01\n      swap1\n      sload\n      swap1\n      0x0100\n      exp\n      swap1\n      div\n      0xff\n      and\n        /* \"MyEnumEample.sol\":931:965  return (myCard.suit, myCard.value) */\n      swap2\n      pop\n      swap2\n      pop\n        /* \"MyEnumEample.sol\":785:972  function pick_a_card(Suit _suit, Value _value) public returns (Suit, Value) {... */\n      swap3\n      pop\n      swap3\n      swap1\n      pop\n      jump\t// out\n        /* \"MyEnumEample.sol\":756:774  Card public myCard */\n    tag_12:\n      0x00\n      dup1\n      0x00\n      add\n      0x00\n      swap1\n      sload\n      swap1\n      0x0100\n      exp\n      swap1\n      div\n      0xff\n      and\n      swap1\n      dup1\n      0x00\n      add\n      0x01\n      swap1\n      sload\n      swap1\n      0x0100\n      exp\n      swap1\n      div\n      0xff\n      and\n      swap1\n      pop\n      dup3\n      jump\t// out\n        /* \"#utility.yul\":88:205   */\n    tag_21:\n        /* \"#utility.yul\":197:198   */\n      0x00\n        /* \"#utility.yul\":194:195   */\n      dup1\n        /* \"#utility.yul\":187:199   */\n      revert\n        /* \"#utility.yul\":334:440   */\n    tag_23:\n        /* \"#utility.yul\":414:415   */\n      0x04\n        /* \"#utility.yul\":407:412   */\n      dup2\n        /* \"#utility.yul\":404:416   */\n      lt\n        /* \"#utility.yul\":394:434   */\n      tag_40\n      jumpi\n        /* \"#utility.yul\":430:431   */\n      0x00\n        /* \"#utility.yul\":427:428   */\n      dup1\n        /* \"#utility.yul\":420:432   */\n      revert\n        /* \"#utility.yul\":394:434   */\n    tag_40:\n        /* \"#utility.yul\":334:440   */\n      pop\n      jump\t// out\n        /* \"#utility.yul\":446:599   */\n    tag_24:\n        /* \"#utility.yul\":499:504   */\n      0x00\n        /* \"#utility.yul\":537:543   */\n      dup2\n        /* \"#utility.yul\":524:544   */\n      calldataload\n        /* \"#utility.yul\":515:544   */\n      swap1\n      pop\n        /* \"#utility.yul\":553:593   */\n      tag_42\n        /* \"#utility.yul\":587:592   */\n      dup2\n        /* \"#utility.yul\":553:593   */\n      tag_23\n      jump\t// in\n    tag_42:\n        /* \"#utility.yul\":446:599   */\n      swap3\n      swap2\n      pop\n      pop\n      jump\t// out\n        /* \"#utility.yul\":605:713   */\n    tag_25:\n        /* \"#utility.yul\":686:688   */\n      0x0d\n        /* \"#utility.yul\":679:684   */\n      dup2\n        /* \"#utility.yul\":676:689   */\n      lt\n        /* \"#utility.yul\":666:707   */\n      tag_44\n      jumpi\n        /* \"#utility.yul\":703:704   */\n      0x00\n        /* \"#utility.yul\":700:701   */\n      dup1\n        /* \"#utility.yul\":693:705   */\n      revert\n        /* \"#utility.yul\":666:707   */\n    tag_44:\n        /* \"#utility.yul\":605:713   */\n      pop\n      jump\t// out\n        /* \"#utility.yul\":719:874   */\n    tag_26:\n        /* \"#utility.yul\":773:778   */\n      0x00\n        /* \"#utility.yul\":811:817   */\n      dup2\n        /* \"#utility.yul\":798:818   */\n      calldataload\n        /* \"#utility.yul\":789:818   */\n      swap1\n      pop\n        /* \"#utility.yul\":827:868   */\n      tag_46\n        /* \"#utility.yul\":862:867   */\n      dup2\n        /* \"#utility.yul\":827:868   */\n      tag_25\n      jump\t// in\n    tag_46:\n        /* \"#utility.yul\":719:874   */\n      swap3\n      swap2\n      pop\n      pop\n      jump\t// out\n        /* \"#utility.yul\":880:1384   */\n    tag_7:\n        /* \"#utility.yul\":963:969   */\n      0x00\n        /* \"#utility.yul\":971:977   */\n      dup1\n        /* \"#utility.yul\":1020:1022   */\n      0x40\n        /* \"#utility.yul\":1008:1017   */\n      dup4\n        /* \"#utility.yul\":999:1006   */\n      dup6\n        /* \"#utility.yul\":995:1018   */\n      sub\n        /* \"#utility.yul\":991:1023   */\n      slt\n        /* \"#utility.yul\":988:1107   */\n      iszero\n      tag_48\n      jumpi\n        /* \"#utility.yul\":1026:1105   */\n      tag_49\n      tag_21\n      jump\t// in\n    tag_49:\n        /* \"#utility.yul\":988:1107   */\n    tag_48:\n        /* \"#utility.yul\":1146:1147   */\n      0x00\n        /* \"#utility.yul\":1171:1231   */\n      tag_50\n        /* \"#utility.yul\":1223:1230   */\n      dup6\n        /* \"#utility.yul\":1214:1220   */\n      dup3\n        /* \"#utility.yul\":1203:1212   */\n      dup7\n        /* \"#utility.yul\":1199:1221   */\n      add\n        /* \"#utility.yul\":1171:1231   */\n      tag_24\n      jump\t// in\n    tag_50:\n        /* \"#utility.yul\":1161:1231   */\n      swap3\n      pop\n        /* \"#utility.yul\":1117:1241   */\n      pop\n        /* \"#utility.yul\":1280:1282   */\n      0x20\n        /* \"#utility.yul\":1306:1367   */\n      tag_51\n        /* \"#utility.yul\":1359:1366   */\n      dup6\n        /* \"#utility.yul\":1350:1356   */\n      dup3\n        /* \"#utility.yul\":1339:1348   */\n      dup7\n        /* \"#utility.yul\":1335:1357   */\n      add\n        /* \"#utility.yul\":1306:1367   */\n      tag_26\n      jump\t// in\n    tag_51:\n        /* \"#utility.yul\":1296:1367   */\n      swap2\n      pop\n        /* \"#utility.yul\":1251:1377   */\n      pop\n        /* \"#utility.yul\":880:1384   */\n      swap3\n      pop\n      swap3\n      swap1\n      pop\n      jump\t// out\n        /* \"#utility.yul\":1390:1570   */\n    tag_17:\n        /* \"#utility.yul\":1438:1515   */\n      0x4e487b7100000000000000000000000000000000000000000000000000000000\n        /* \"#utility.yul\":1435:1436   */\n      0x00\n        /* \"#utility.yul\":1428:1516   */\n      mstore\n        /* \"#utility.yul\":1535:1539   */\n      0x21\n        /* \"#utility.yul\":1532:1533   */\n      0x04\n        /* \"#utility.yul\":1525:1540   */\n      mstore\n        /* \"#utility.yul\":1559:1563   */\n      0x24\n        /* \"#utility.yul\":1556:1557   */\n      0x00\n        /* \"#utility.yul\":1549:1564   */\n      revert\n        /* \"#utility.yul\":1576:1688   */\n    tag_27:\n        /* \"#utility.yul\":1656:1657   */\n      0x04\n        /* \"#utility.yul\":1649:1654   */\n      dup2\n        /* \"#utility.yul\":1646:1658   */\n      lt\n        /* \"#utility.yul\":1636:1682   */\n      tag_54\n      jumpi\n        /* \"#utility.yul\":1662:1680   */\n      tag_55\n      tag_17\n      jump\t// in\n    tag_55:\n        /* \"#utility.yul\":1636:1682   */\n    tag_54:\n        /* \"#utility.yul\":1576:1688   */\n      pop\n      jump\t// out\n        /* \"#utility.yul\":1694:1819   */\n    tag_28:\n        /* \"#utility.yul\":1738:1745   */\n      0x00\n        /* \"#utility.yul\":1767:1772   */\n      dup2\n        /* \"#utility.yul\":1756:1772   */\n      swap1\n      pop\n        /* \"#utility.yul\":1773:1813   */\n      tag_57\n        /* \"#utility.yul\":1807:1812   */\n      dup3\n        /* \"#utility.yul\":1773:1813   */\n      tag_27\n      jump\t// in\n    tag_57:\n        /* \"#utility.yul\":1694:1819   */\n      swap2\n      swap1\n      pop\n      jump\t// out\n        /* \"#utility.yul\":1825:1950   */\n    tag_29:\n        /* \"#utility.yul\":1880:1889   */\n      0x00\n        /* \"#utility.yul\":1913:1944   */\n      tag_59\n        /* \"#utility.yul\":1938:1943   */\n      dup3\n        /* \"#utility.yul\":1913:1944   */\n      tag_28\n      jump\t// in\n    tag_59:\n        /* \"#utility.yul\":1900:1944   */\n      swap1\n      pop\n        /* \"#utility.yul\":1825:1950   */\n      swap2\n      swap1\n      pop\n      jump\t// out\n        /* \"#utility.yul\":1956:2097   */\n    tag_30:\n        /* \"#utility.yul\":2048:2090   */\n      tag_61\n        /* \"#utility.yul\":2084:2089   */\n      dup2\n        /* \"#utility.yul\":2048:2090   */\n      tag_29\n      jump\t// in\n    tag_61:\n        /* \"#utility.yul\":2043:2046   */\n      dup3\n        /* \"#utility.yul\":2036:2091   */\n      mstore\n        /* \"#utility.yul\":1956:2097   */\n      pop\n      pop\n      jump\t// out\n        /* \"#utility.yul\":2103:2217   */\n    tag_31:\n        /* \"#utility.yul\":2184:2186   */\n      0x0d\n        /* \"#utility.yul\":2177:2182   */\n      dup2\n        /* \"#utility.yul\":2174:2187   */\n      lt\n        /* \"#utility.yul\":2164:2211   */\n      tag_63\n      jumpi\n        /* \"#utility.yul\":2191:2209   */\n      tag_64\n      tag_17\n      jump\t// in\n    tag_64:\n        /* \"#utility.yul\":2164:2211   */\n    tag_63:\n        /* \"#utility.yul\":2103:2217   */\n      pop\n      jump\t// out\n        /* \"#utility.yul\":2223:2350   */\n    tag_32:\n        /* \"#utility.yul\":2268:2275   */\n      0x00\n        /* \"#utility.yul\":2297:2302   */\n      dup2\n        /* \"#utility.yul\":2286:2302   */\n      swap1\n      pop\n        /* \"#utility.yul\":2303:2344   */\n      tag_66\n        /* \"#utility.yul\":2338:2343   */\n      dup3\n        /* \"#utility.yul\":2303:2344   */\n      tag_31\n      jump\t// in\n    tag_66:\n        /* \"#utility.yul\":2223:2350   */\n      swap2\n      swap1\n      pop\n      jump\t// out\n        /* \"#utility.yul\":2356:2483   */\n    tag_33:\n        /* \"#utility.yul\":2412:2421   */\n      0x00\n        /* \"#utility.yul\":2445:2477   */\n      tag_68\n        /* \"#utility.yul\":2471:2476   */\n      dup3\n        /* \"#utility.yul\":2445:2477   */\n      tag_32\n      jump\t// in\n    tag_68:\n        /* \"#utility.yul\":2432:2477   */\n      swap1\n      pop\n        /* \"#utility.yul\":2356:2483   */\n      swap2\n      swap1\n      pop\n      jump\t// out\n        /* \"#utility.yul\":2489:2632   */\n    tag_34:\n        /* \"#utility.yul\":2582:2625   */\n      tag_70\n        /* \"#utility.yul\":2619:2624   */\n      dup2\n        /* \"#utility.yul\":2582:2625   */\n      tag_33\n      jump\t// in\n    tag_70:\n        /* \"#utility.yul\":2577:2580   */\n      dup3\n        /* \"#utility.yul\":2570:2626   */\n      mstore\n        /* \"#utility.yul\":2489:2632   */\n      pop\n      pop\n      jump\t// out\n        /* \"#utility.yul\":2638:2992   */\n    tag_10:\n        /* \"#utility.yul\":2770:2774   */\n      0x00\n        /* \"#utility.yul\":2808:2810   */\n      0x40\n        /* \"#utility.yul\":2797:2806   */\n      dup3\n        /* \"#utility.yul\":2793:2811   */\n      add\n        /* \"#utility.yul\":2785:2811   */\n      swap1\n      pop\n        /* \"#utility.yul\":2821:2897   */\n      tag_72\n        /* \"#utility.yul\":2894:2895   */\n      0x00\n        /* \"#utility.yul\":2883:2892   */\n      dup4\n        /* \"#utility.yul\":2879:2896   */\n      add\n        /* \"#utility.yul\":2870:2876   */\n      dup6\n        /* \"#utility.yul\":2821:2897   */\n      tag_30\n      jump\t// in\n    tag_72:\n        /* \"#utility.yul\":2907:2985   */\n      tag_73\n        /* \"#utility.yul\":2981:2983   */\n      0x20\n        /* \"#utility.yul\":2970:2979   */\n      dup4\n        /* \"#utility.yul\":2966:2984   */\n      add\n        /* \"#utility.yul\":2957:2963   */\n      dup5\n        /* \"#utility.yul\":2907:2985   */\n      tag_34\n      jump\t// in\n    tag_73:\n        /* \"#utility.yul\":2638:2992   */\n      swap4\n      swap3\n      pop\n      pop\n      pop\n      jump\t// out\n\n    auxdata: 0xa26469706673582212200f2fb8e4174b03dd98d91f9dfe0203428b556e20dd934a2a9d4c77c9f326da3864736f6c63430008100033\n}\n",
				"bytecode": {
					"linkReferences": {},
					"object": "608060405234801561001057600080fd5b506102ee806100206000396000f3fe608060405234801561001057600080fd5b50600436106100365760003560e01c8063211527ee1461003b578063c7624c261461006c575b600080fd5b61005560048036038101906100509190610190565b61008b565b60405161006392919061028f565b60405180910390f35b610074610115565b60405161008292919061028f565b60405180910390f35b600080836000800160006101000a81548160ff021916908360038111156100b5576100b46101d0565b5b0217905550826000800160016101000a81548160ff0219169083600c8111156100e1576100e06101d0565b5b02179055506000800160009054906101000a900460ff166000800160019054906101000a900460ff16915091509250929050565b60008060000160009054906101000a900460ff16908060000160019054906101000a900460ff16905082565b600080fd5b6004811061015357600080fd5b50565b60008135905061016581610146565b92915050565b600d811061017857600080fd5b50565b60008135905061018a8161016b565b92915050565b600080604083850312156101a7576101a6610141565b5b60006101b585828601610156565b92505060206101c68582860161017b565b9150509250929050565b7f4e487b7100000000000000000000000000000000000000000000000000000000600052602160045260246000fd5b600481106102105761020f6101d0565b5b50565b6000819050610221826101ff565b919050565b600061023182610213565b9050919050565b61024181610226565b82525050565b600d8110610258576102576101d0565b5b50565b600081905061026982610247565b919050565b60006102798261025b565b9050919050565b6102898161026e565b82525050565b60006040820190506102a46000830185610238565b6102b16020830184610280565b939250505056fea26469706673582212200f2fb8e4174b03dd98d91f9dfe0203428b556e20dd934a2a9d4c77c9f326da3864736f6c63430008100033",
					"opcodes": "PUSH1 0x80 PUSH1 0x40 MSTORE CALLVALUE DUP1 ISZERO PUSH2 0x10 JUMPI PUSH1 0x0 DUP1 REVERT JUMPDEST POP PUSH2 0x2EE DUP1 PUSH2 0x20 PUSH1 0x0 CODECOPY PUSH1 0x0 RETURN INVALID PUSH1 0x80 PUSH1 0x40 MSTORE CALLVALUE DUP1 ISZERO PUSH2 0x10 JUMPI PUSH1 0x0 DUP1 REVERT JUMPDEST POP PUSH1 0x4 CALLDATASIZE LT PUSH2 0x36 JUMPI PUSH1 0x0 CALLDATALOAD PUSH1 0xE0 SHR DUP1 PUSH4 0x211527EE EQ PUSH2 0x3B JUMPI DUP1 PUSH4 0xC7624C26 EQ PUSH2 0x6C JUMPI JUMPDEST PUSH1 0x0 DUP1 REVERT JUMPDEST PUSH2 0x55 PUSH1 0x4 DUP1 CALLDATASIZE SUB DUP2 ADD SWAP1 PUSH2 0x50 SWAP2 SWAP1 PUSH2 0x190 JUMP JUMPDEST PUSH2 0x8B JUMP JUMPDEST PUSH1 0x40 MLOAD PUSH2 0x63 SWAP3 SWAP2 SWAP1 PUSH2 0x28F JUMP JUMPDEST PUSH1 0x40 MLOAD DUP1 SWAP2 SUB SWAP1 RETURN JUMPDEST PUSH2 0x74 PUSH2 0x115 JUMP JUMPDEST PUSH1 0x40 MLOAD PUSH2 0x82 SWAP3 SWAP2 SWAP1 PUSH2 0x28F JUMP JUMPDEST PUSH1 0x40 MLOAD DUP1 SWAP2 SUB SWAP1 RETURN JUMPDEST PUSH1 0x0 DUP1 DUP4 PUSH1 0x0 DUP1 ADD PUSH1 0x0 PUSH2 0x100 EXP DUP2 SLOAD DUP2 PUSH1 0xFF MUL NOT AND SWAP1 DUP4 PUSH1 0x3 DUP2 GT ISZERO PUSH2 0xB5 JUMPI PUSH2 0xB4 PUSH2 0x1D0 JUMP JUMPDEST JUMPDEST MUL OR SWAP1 SSTORE POP DUP3 PUSH1 0x0 DUP1 ADD PUSH1 0x1 PUSH2 0x100 EXP DUP2 SLOAD DUP2 PUSH1 0xFF MUL NOT AND SWAP1 DUP4 PUSH1 0xC DUP2 GT ISZERO PUSH2 0xE1 JUMPI PUSH2 0xE0 PUSH2 0x1D0 JUMP JUMPDEST JUMPDEST MUL OR SWAP1 SSTORE POP PUSH1 0x0 DUP1 ADD PUSH1 0x0 SWAP1 SLOAD SWAP1 PUSH2 0x100 EXP SWAP1 DIV PUSH1 0xFF AND PUSH1 0x0 DUP1 ADD PUSH1 0x1 SWAP1 SLOAD SWAP1 PUSH2 0x100 EXP SWAP1 DIV PUSH1 0xFF AND SWAP2 POP SWAP2 POP SWAP3 POP SWAP3 SWAP1 POP JUMP JUMPDEST PUSH1 0x0 DUP1 PUSH1 0x0 ADD PUSH1 0x0 SWAP1 SLOAD SWAP1 PUSH2 0x100 EXP SWAP1 DIV PUSH1 0xFF AND SWAP1 DUP1 PUSH1 0x0 ADD PUSH1 0x1 SWAP1 SLOAD SWAP1 PUSH2 0x100 EXP SWAP1 DIV PUSH1 0xFF AND SWAP1 POP DUP3 JUMP JUMPDEST PUSH1 0x0 DUP1 REVERT JUMPDEST PUSH1 0x4 DUP2 LT PUSH2 0x153 JUMPI PUSH1 0x0 DUP1 REVERT JUMPDEST POP JUMP JUMPDEST PUSH1 0x0 DUP2 CALLDATALOAD SWAP1 POP PUSH2 0x165 DUP2 PUSH2 0x146 JUMP JUMPDEST SWAP3 SWAP2 POP POP JUMP JUMPDEST PUSH1 0xD DUP2 LT PUSH2 0x178 JUMPI PUSH1 0x0 DUP1 REVERT JUMPDEST POP JUMP JUMPDEST PUSH1 0x0 DUP2 CALLDATALOAD SWAP1 POP PUSH2 0x18A DUP2 PUSH2 0x16B JUMP JUMPDEST SWAP3 SWAP2 POP POP JUMP JUMPDEST PUSH1 0x0 DUP1 PUSH1 0x40 DUP4 DUP6 SUB SLT ISZERO PUSH2 0x1A7 JUMPI PUSH2 0x1A6 PUSH2 0x141 JUMP JUMPDEST JUMPDEST PUSH1 0x0 PUSH2 0x1B5 DUP6 DUP3 DUP7 ADD PUSH2 0x156 JUMP JUMPDEST SWAP3 POP POP PUSH1 0x20 PUSH2 0x1C6 DUP6 DUP3 DUP7 ADD PUSH2 0x17B JUMP JUMPDEST SWAP2 POP POP SWAP3 POP SWAP3 SWAP1 POP JUMP JUMPDEST PUSH32 0x4E487B7100000000000000000000000000000000000000000000000000000000 PUSH1 0x0 MSTORE PUSH1 0x21 PUSH1 0x4 MSTORE PUSH1 0x24 PUSH1 0x0 REVERT JUMPDEST PUSH1 0x4 DUP2 LT PUSH2 0x210 JUMPI PUSH2 0x20F PUSH2 0x1D0 JUMP JUMPDEST JUMPDEST POP JUMP JUMPDEST PUSH1 0x0 DUP2 SWAP1 POP PUSH2 0x221 DUP3 PUSH2 0x1FF JUMP JUMPDEST SWAP2 SWAP1 POP JUMP JUMPDEST PUSH1 0x0 PUSH2 0x231 DUP3 PUSH2 0x213 JUMP JUMPDEST SWAP1 POP SWAP2 SWAP1 POP JUMP JUMPDEST PUSH2 0x241 DUP2 PUSH2 0x226 JUMP JUMPDEST DUP3 MSTORE POP POP JUMP JUMPDEST PUSH1 0xD DUP2 LT PUSH2 0x258 JUMPI PUSH2 0x257 PUSH2 0x1D0 JUMP JUMPDEST JUMPDEST POP JUMP JUMPDEST PUSH1 0x0 DUP2 SWAP1 POP PUSH2 0x269 DUP3 PUSH2 0x247 JUMP JUMPDEST SWAP2 SWAP1 POP JUMP JUMPDEST PUSH1 0x0 PUSH2 0x279 DUP3 PUSH2 0x25B JUMP JUMPDEST SWAP1 POP SWAP2 SWAP1 POP JUMP JUMPDEST PUSH2 0x289 DUP2 PUSH2 0x26E JUMP JUMPDEST DUP3 MSTORE POP POP JUMP JUMPDEST PUSH1 0x0 PUSH1 0x40 DUP3 ADD SWAP1 POP PUSH2 0x2A4 PUSH1 0x0 DUP4 ADD DUP6 PUSH2 0x238 JUMP JUMPDEST PUSH2 0x2B1 PUSH1 0x20 DUP4 ADD DUP5 PUSH2 0x280 JUMP JUMPDEST SWAP4 SWAP3 POP POP POP JUMP INVALID LOG2 PUSH5 0x6970667358 0x22 SLT KECCAK256 0xF 0x2F 0xB8 0xE4 OR 0x4B SUB 0xDD SWAP9 0xD9 0x1F SWAP14 INVALID MUL SUB TIMESTAMP DUP12 SSTORE PUSH15 0x20DD934A2A9D4C77C9F326DA386473 PUSH16 0x6C634300081000330000000000000000 "
				},
				"gasEstimates": {
					"creation": {
						"codeDepositCost": "150000",
						"executionCost": "196",
						"totalCost": "150196"
					},
					"external": {
						"myCard()": "4967",
						"pick_a_card(uint8,uint8)": "53941"
					}
				},
				"methodIdentifiers": {
					"myCard()": "c7624c26",
					"pick_a_card(uint8,uint8)": "211527ee"
				}
			},
			"storageLayout": {
				"storage": [
					{
						"astId": 72,
						"contract": "MyEnumEample.sol:CardDeck",
						"label": "myCard",
						"offset": 0,
						"slot": "0",
						"type": "t_struct(Card)69_storage"
					}
				],
				"types": {
					"t_enum(Suit)48": {
						"encoding": "inplace",
						"label": "enum CardDeck.Suit",
						"numberOfBytes": "1"
					},
					"t_enum(Value)62": {
						"encoding": "inplace",
						"label": "enum CardDeck.Value",
						"numberOfBytes": "1"
					},
					"t_struct(Card)69_storage": {
						"encoding": "inplace",
						"label": "struct CardDeck.Card",
						"members": [
							{
								"astId": 65,
								"contract": "MyEnumEample.sol:CardDeck",
								"label": "suit",
								"offset": 0,
								"slot": "0",
								"type": "t_enum(Suit)48"
							},
							{
								"astId": 68,
								"contract": "MyEnumEample.sol:CardDeck",
								"label": "value",
								"offset": 1,
								"slot": "0",
								"type": "t_enum(Value)62"
							}
						],
						"numberOfBytes": "32"
					}
				}
			},
			"userdoc": {
				"kind": "user",
				"methods": {},
				"version": 1
			}
		}
	}
}