{
	"StartingStopping.sol": {
		"StartStopUpdateExample": {
			"abi": [
				{
					"inputs": [],
					"stateMutability": "nonpayable",
					"type": "constructor"
				},
				{
					"inputs": [],
					"name": "owner",
					"outputs": [
						{
							"internalType": "address",
							"name": "",
							"type": "address"
						}
					],
					"stateMutability": "view",
					"type": "function"
				},
				{
					"inputs": [],
					"name": "sendMoney",
					"outputs": [],
					"stateMutability": "payable",
					"type": "function"
				},
				{
					"inputs": [
						{
							"internalType": "address payable",
							"name": "_to",
							"type": "address"
						}
					],
					"name": "withdrawAllMoney",
					"outputs": [],
					"stateMutability": "nonpayable",
					"type": "function"
				}
			],
			"devdoc": {
				"kind": "dev",
				"methods": {},
				"version": 1
			},
			"evm": {
				"assembly": "    /* \"StartingStopping.sol\":64:405  contract StartStopUpdateExample {... */\n  mstore(0x40, 0x80)\n    /* \"StartingStopping.sol\":130:179  constructor() {... */\n  callvalue\n  dup1\n  iszero\n  tag_1\n  jumpi\n  0x00\n  dup1\n  revert\ntag_1:\n  pop\n    /* \"StartingStopping.sol\":162:172  msg.sender */\n  caller\n    /* \"StartingStopping.sol\":154:159  owner */\n  0x00\n  dup1\n    /* \"StartingStopping.sol\":154:172  owner = msg.sender */\n  0x0100\n  exp\n  dup2\n  sload\n  dup2\n  0xffffffffffffffffffffffffffffffffffffffff\n  mul\n  not\n  and\n  swap1\n  dup4\n  0xffffffffffffffffffffffffffffffffffffffff\n  and\n  mul\n  or\n  swap1\n  sstore\n  pop\n    /* \"StartingStopping.sol\":64:405  contract StartStopUpdateExample {... */\n  dataSize(sub_0)\n  dup1\n  dataOffset(sub_0)\n  0x00\n  codecopy\n  0x00\n  return\nstop\n\nsub_0: assembly {\n        /* \"StartingStopping.sol\":64:405  contract StartStopUpdateExample {... */\n      mstore(0x40, 0x80)\n      jumpi(tag_1, lt(calldatasize, 0x04))\n      shr(0xe0, calldataload(0x00))\n      dup1\n      0x0adec93c\n      eq\n      tag_2\n      jumpi\n      dup1\n      0x8da5cb5b\n      eq\n      tag_3\n      jumpi\n      dup1\n      0xcbedbf5a\n      eq\n      tag_4\n      jumpi\n    tag_1:\n      0x00\n      dup1\n      revert\n        /* \"StartingStopping.sol\":235:403  function withdrawAllMoney(address payable _to) public {... */\n    tag_2:\n      callvalue\n      dup1\n      iszero\n      tag_5\n      jumpi\n      0x00\n      dup1\n      revert\n    tag_5:\n      pop\n      tag_6\n      0x04\n      dup1\n      calldatasize\n      sub\n      dup2\n      add\n      swap1\n      tag_7\n      swap2\n      swap1\n      tag_8\n      jump\t// in\n    tag_7:\n      tag_9\n      jump\t// in\n    tag_6:\n      stop\n        /* \"StartingStopping.sol\":103:123  address public owner */\n    tag_3:\n      callvalue\n      dup1\n      iszero\n      tag_10\n      jumpi\n      0x00\n      dup1\n      revert\n    tag_10:\n      pop\n      tag_11\n      tag_12\n      jump\t// in\n    tag_11:\n      mload(0x40)\n      tag_13\n      swap2\n      swap1\n      tag_14\n      jump\t// in\n    tag_13:\n      mload(0x40)\n      dup1\n      swap2\n      sub\n      swap1\n      return\n        /* \"StartingStopping.sol\":185:229  function sendMoney() public payable {... */\n    tag_4:\n      tag_15\n      tag_16\n      jump\t// in\n    tag_15:\n      stop\n        /* \"StartingStopping.sol\":235:403  function withdrawAllMoney(address payable _to) public {... */\n    tag_9:\n        /* \"StartingStopping.sol\":316:326  msg.sender */\n      caller\n        /* \"StartingStopping.sol\":307:326  owner == msg.sender */\n      0xffffffffffffffffffffffffffffffffffffffff\n      and\n        /* \"StartingStopping.sol\":307:312  owner */\n      0x00\n      dup1\n      sload\n      swap1\n      0x0100\n      exp\n      swap1\n      div\n      0xffffffffffffffffffffffffffffffffffffffff\n      and\n        /* \"StartingStopping.sol\":307:326  owner == msg.sender */\n      0xffffffffffffffffffffffffffffffffffffffff\n      and\n      eq\n        /* \"StartingStopping.sol\":299:351  require(owner == msg.sender, \"You cannot withdraw.\") */\n      tag_18\n      jumpi\n      mload(0x40)\n      0x08c379a000000000000000000000000000000000000000000000000000000000\n      dup2\n      mstore\n      0x04\n      add\n      tag_19\n      swap1\n      tag_20\n      jump\t// in\n    tag_19:\n      mload(0x40)\n      dup1\n      swap2\n      sub\n      swap1\n      revert\n    tag_18:\n        /* \"StartingStopping.sol\":361:364  _to */\n      dup1\n        /* \"StartingStopping.sol\":361:373  _to.transfer */\n      0xffffffffffffffffffffffffffffffffffffffff\n      and\n        /* \"StartingStopping.sol\":361:396  _to.transfer(address(this).balance) */\n      0x08fc\n        /* \"StartingStopping.sol\":374:395  address(this).balance */\n      selfbalance\n        /* \"StartingStopping.sol\":361:396  _to.transfer(address(this).balance) */\n      swap1\n      dup2\n      iszero\n      mul\n      swap1\n      mload(0x40)\n      0x00\n      mload(0x40)\n      dup1\n      dup4\n      sub\n      dup2\n      dup6\n      dup9\n      dup9\n      call\n      swap4\n      pop\n      pop\n      pop\n      pop\n      iszero\n      dup1\n      iszero\n      tag_22\n      jumpi\n      returndatasize\n      0x00\n      dup1\n      returndatacopy\n      revert(0x00, returndatasize)\n    tag_22:\n      pop\n        /* \"StartingStopping.sol\":235:403  function withdrawAllMoney(address payable _to) public {... */\n      pop\n      jump\t// out\n        /* \"StartingStopping.sol\":103:123  address public owner */\n    tag_12:\n      0x00\n      dup1\n      sload\n      swap1\n      0x0100\n      exp\n      swap1\n      div\n      0xffffffffffffffffffffffffffffffffffffffff\n      and\n      dup2\n      jump\t// out\n        /* \"StartingStopping.sol\":185:229  function sendMoney() public payable {... */\n    tag_16:\n      jump\t// out\n        /* \"#utility.yul\":7:162   */\n    tag_25:\n        /* \"#utility.yul\":61:66   */\n      0x00\n        /* \"#utility.yul\":99:105   */\n      dup2\n        /* \"#utility.yul\":86:106   */\n      calldataload\n        /* \"#utility.yul\":77:106   */\n      swap1\n      pop\n        /* \"#utility.yul\":115:156   */\n      tag_27\n        /* \"#utility.yul\":150:155   */\n      dup2\n        /* \"#utility.yul\":115:156   */\n      tag_28\n      jump\t// in\n    tag_27:\n        /* \"#utility.yul\":7:162   */\n      swap3\n      swap2\n      pop\n      pop\n      jump\t// out\n        /* \"#utility.yul\":168:513   */\n    tag_8:\n        /* \"#utility.yul\":235:241   */\n      0x00\n        /* \"#utility.yul\":284:286   */\n      0x20\n        /* \"#utility.yul\":272:281   */\n      dup3\n        /* \"#utility.yul\":263:270   */\n      dup5\n        /* \"#utility.yul\":259:282   */\n      sub\n        /* \"#utility.yul\":255:287   */\n      slt\n        /* \"#utility.yul\":252:371   */\n      iszero\n      tag_30\n      jumpi\n        /* \"#utility.yul\":290:369   */\n      tag_31\n      tag_32\n      jump\t// in\n    tag_31:\n        /* \"#utility.yul\":252:371   */\n    tag_30:\n        /* \"#utility.yul\":410:411   */\n      0x00\n        /* \"#utility.yul\":435:496   */\n      tag_33\n        /* \"#utility.yul\":488:495   */\n      dup5\n        /* \"#utility.yul\":479:485   */\n      dup3\n        /* \"#utility.yul\":468:477   */\n      dup6\n        /* \"#utility.yul\":464:486   */\n      add\n        /* \"#utility.yul\":435:496   */\n      tag_25\n      jump\t// in\n    tag_33:\n        /* \"#utility.yul\":425:496   */\n      swap2\n      pop\n        /* \"#utility.yul\":381:506   */\n      pop\n        /* \"#utility.yul\":168:513   */\n      swap3\n      swap2\n      pop\n      pop\n      jump\t// out\n        /* \"#utility.yul\":519:637   */\n    tag_34:\n        /* \"#utility.yul\":606:630   */\n      tag_36\n        /* \"#utility.yul\":624:629   */\n      dup2\n        /* \"#utility.yul\":606:630   */\n      tag_37\n      jump\t// in\n    tag_36:\n        /* \"#utility.yul\":601:604   */\n      dup3\n        /* \"#utility.yul\":594:631   */\n      mstore\n        /* \"#utility.yul\":519:637   */\n      pop\n      pop\n      jump\t// out\n        /* \"#utility.yul\":643:1009   */\n    tag_38:\n        /* \"#utility.yul\":785:788   */\n      0x00\n        /* \"#utility.yul\":806:873   */\n      tag_40\n        /* \"#utility.yul\":870:872   */\n      0x14\n        /* \"#utility.yul\":865:868   */\n      dup4\n        /* \"#utility.yul\":806:873   */\n      tag_41\n      jump\t// in\n    tag_40:\n        /* \"#utility.yul\":799:873   */\n      swap2\n      pop\n        /* \"#utility.yul\":882:975   */\n      tag_42\n        /* \"#utility.yul\":971:974   */\n      dup3\n        /* \"#utility.yul\":882:975   */\n      tag_43\n      jump\t// in\n    tag_42:\n        /* \"#utility.yul\":1000:1002   */\n      0x20\n        /* \"#utility.yul\":995:998   */\n      dup3\n        /* \"#utility.yul\":991:1003   */\n      add\n        /* \"#utility.yul\":984:1003   */\n      swap1\n      pop\n        /* \"#utility.yul\":643:1009   */\n      swap2\n      swap1\n      pop\n      jump\t// out\n        /* \"#utility.yul\":1015:1237   */\n    tag_14:\n        /* \"#utility.yul\":1108:1112   */\n      0x00\n        /* \"#utility.yul\":1146:1148   */\n      0x20\n        /* \"#utility.yul\":1135:1144   */\n      dup3\n        /* \"#utility.yul\":1131:1149   */\n      add\n        /* \"#utility.yul\":1123:1149   */\n      swap1\n      pop\n        /* \"#utility.yul\":1159:1230   */\n      tag_45\n        /* \"#utility.yul\":1227:1228   */\n      0x00\n        /* \"#utility.yul\":1216:1225   */\n      dup4\n        /* \"#utility.yul\":1212:1229   */\n      add\n        /* \"#utility.yul\":1203:1209   */\n      dup5\n        /* \"#utility.yul\":1159:1230   */\n      tag_34\n      jump\t// in\n    tag_45:\n        /* \"#utility.yul\":1015:1237   */\n      swap3\n      swap2\n      pop\n      pop\n      jump\t// out\n        /* \"#utility.yul\":1243:1662   */\n    tag_20:\n        /* \"#utility.yul\":1409:1413   */\n      0x00\n        /* \"#utility.yul\":1447:1449   */\n      0x20\n        /* \"#utility.yul\":1436:1445   */\n      dup3\n        /* \"#utility.yul\":1432:1450   */\n      add\n        /* \"#utility.yul\":1424:1450   */\n      swap1\n      pop\n        /* \"#utility.yul\":1496:1505   */\n      dup2\n        /* \"#utility.yul\":1490:1494   */\n      dup2\n        /* \"#utility.yul\":1486:1506   */\n      sub\n        /* \"#utility.yul\":1482:1483   */\n      0x00\n        /* \"#utility.yul\":1471:1480   */\n      dup4\n        /* \"#utility.yul\":1467:1484   */\n      add\n        /* \"#utility.yul\":1460:1507   */\n      mstore\n        /* \"#utility.yul\":1524:1655   */\n      tag_47\n        /* \"#utility.yul\":1650:1654   */\n      dup2\n        /* \"#utility.yul\":1524:1655   */\n      tag_38\n      jump\t// in\n    tag_47:\n        /* \"#utility.yul\":1516:1655   */\n      swap1\n      pop\n        /* \"#utility.yul\":1243:1662   */\n      swap2\n      swap1\n      pop\n      jump\t// out\n        /* \"#utility.yul\":1749:1918   */\n    tag_41:\n        /* \"#utility.yul\":1833:1844   */\n      0x00\n        /* \"#utility.yul\":1867:1873   */\n      dup3\n        /* \"#utility.yul\":1862:1865   */\n      dup3\n        /* \"#utility.yul\":1855:1874   */\n      mstore\n        /* \"#utility.yul\":1907:1911   */\n      0x20\n        /* \"#utility.yul\":1902:1905   */\n      dup3\n        /* \"#utility.yul\":1898:1912   */\n      add\n        /* \"#utility.yul\":1883:1912   */\n      swap1\n      pop\n        /* \"#utility.yul\":1749:1918   */\n      swap3\n      swap2\n      pop\n      pop\n      jump\t// out\n        /* \"#utility.yul\":1924:2020   */\n    tag_37:\n        /* \"#utility.yul\":1961:1968   */\n      0x00\n        /* \"#utility.yul\":1990:2014   */\n      tag_52\n        /* \"#utility.yul\":2008:2013   */\n      dup3\n        /* \"#utility.yul\":1990:2014   */\n      tag_53\n      jump\t// in\n    tag_52:\n        /* \"#utility.yul\":1979:2014   */\n      swap1\n      pop\n        /* \"#utility.yul\":1924:2020   */\n      swap2\n      swap1\n      pop\n      jump\t// out\n        /* \"#utility.yul\":2026:2130   */\n    tag_54:\n        /* \"#utility.yul\":2071:2078   */\n      0x00\n        /* \"#utility.yul\":2100:2124   */\n      tag_56\n        /* \"#utility.yul\":2118:2123   */\n      dup3\n        /* \"#utility.yul\":2100:2124   */\n      tag_53\n      jump\t// in\n    tag_56:\n        /* \"#utility.yul\":2089:2124   */\n      swap1\n      pop\n        /* \"#utility.yul\":2026:2130   */\n      swap2\n      swap1\n      pop\n      jump\t// out\n        /* \"#utility.yul\":2136:2262   */\n    tag_53:\n        /* \"#utility.yul\":2173:2180   */\n      0x00\n        /* \"#utility.yul\":2213:2255   */\n      0xffffffffffffffffffffffffffffffffffffffff\n        /* \"#utility.yul\":2206:2211   */\n      dup3\n        /* \"#utility.yul\":2202:2256   */\n      and\n        /* \"#utility.yul\":2191:2256   */\n      swap1\n      pop\n        /* \"#utility.yul\":2136:2262   */\n      swap2\n      swap1\n      pop\n      jump\t// out\n        /* \"#utility.yul\":2391:2508   */\n    tag_32:\n        /* \"#utility.yul\":2500:2501   */\n      0x00\n        /* \"#utility.yul\":2497:2498   */\n      dup1\n        /* \"#utility.yul\":2490:2502   */\n      revert\n        /* \"#utility.yul\":2514:2684   */\n    tag_43:\n        /* \"#utility.yul\":2654:2676   */\n      0x596f752063616e6e6f742077697468647261772e000000000000000000000000\n        /* \"#utility.yul\":2650:2651   */\n      0x00\n        /* \"#utility.yul\":2642:2648   */\n      dup3\n        /* \"#utility.yul\":2638:2652   */\n      add\n        /* \"#utility.yul\":2631:2677   */\n      mstore\n        /* \"#utility.yul\":2514:2684   */\n      pop\n      jump\t// out\n        /* \"#utility.yul\":2690:2828   */\n    tag_28:\n        /* \"#utility.yul\":2771:2803   */\n      tag_63\n        /* \"#utility.yul\":2797:2802   */\n      dup2\n        /* \"#utility.yul\":2771:2803   */\n      tag_54\n      jump\t// in\n    tag_63:\n        /* \"#utility.yul\":2764:2769   */\n      dup2\n        /* \"#utility.yul\":2761:2804   */\n      eq\n        /* \"#utility.yul\":2751:2822   */\n      tag_64\n      jumpi\n        /* \"#utility.yul\":2818:2819   */\n      0x00\n        /* \"#utility.yul\":2815:2816   */\n      dup1\n        /* \"#utility.yul\":2808:2820   */\n      revert\n        /* \"#utility.yul\":2751:2822   */\n    tag_64:\n        /* \"#utility.yul\":2690:2828   */\n      pop\n      jump\t// out\n\n    auxdata: 0xa264697066735822122001e09f9f80d9c4e88784f57a9c85d92f0bee7ce83ff54973d3c544fde4509a3e64736f6c63430008070033\n}\n",
				"bytecode": {
					"linkReferences": {},
					"object": "608060405234801561001057600080fd5b50336000806101000a81548173ffffffffffffffffffffffffffffffffffffffff021916908373ffffffffffffffffffffffffffffffffffffffff160217905550610314806100606000396000f3fe6080604052600436106100345760003560e01c80630adec93c146100395780638da5cb5b14610062578063cbedbf5a1461008d575b600080fd5b34801561004557600080fd5b50610060600480360381019061005b91906101aa565b610097565b005b34801561006e57600080fd5b5061007761016f565b6040516100849190610209565b60405180910390f35b610095610193565b005b3373ffffffffffffffffffffffffffffffffffffffff1660008054906101000a900473ffffffffffffffffffffffffffffffffffffffff1673ffffffffffffffffffffffffffffffffffffffff1614610125576040517f08c379a000000000000000000000000000000000000000000000000000000000815260040161011c90610224565b60405180910390fd5b8073ffffffffffffffffffffffffffffffffffffffff166108fc479081150290604051600060405180830381858888f1935050505015801561016b573d6000803e3d6000fd5b5050565b60008054906101000a900473ffffffffffffffffffffffffffffffffffffffff1681565b565b6000813590506101a4816102c7565b92915050565b6000602082840312156101c0576101bf610299565b5b60006101ce84828501610195565b91505092915050565b6101e081610255565b82525050565b60006101f3601483610244565b91506101fe8261029e565b602082019050919050565b600060208201905061021e60008301846101d7565b92915050565b6000602082019050818103600083015261023d816101e6565b9050919050565b600082825260208201905092915050565b600061026082610279565b9050919050565b600061027282610279565b9050919050565b600073ffffffffffffffffffffffffffffffffffffffff82169050919050565b600080fd5b7f596f752063616e6e6f742077697468647261772e000000000000000000000000600082015250565b6102d081610267565b81146102db57600080fd5b5056fea264697066735822122001e09f9f80d9c4e88784f57a9c85d92f0bee7ce83ff54973d3c544fde4509a3e64736f6c63430008070033",
					"opcodes": "PUSH1 0x80 PUSH1 0x40 MSTORE CALLVALUE DUP1 ISZERO PUSH2 0x10 JUMPI PUSH1 0x0 DUP1 REVERT JUMPDEST POP CALLER PUSH1 0x0 DUP1 PUSH2 0x100 EXP DUP2 SLOAD DUP2 PUSH20 0xFFFFFFFFFFFFFFFFFFFFFFFFFFFFFFFFFFFFFFFF MUL NOT AND SWAP1 DUP4 PUSH20 0xFFFFFFFFFFFFFFFFFFFFFFFFFFFFFFFFFFFFFFFF AND MUL OR SWAP1 SSTORE POP PUSH2 0x314 DUP1 PUSH2 0x60 PUSH1 0x0 CODECOPY PUSH1 0x0 RETURN INVALID PUSH1 0x80 PUSH1 0x40 MSTORE PUSH1 0x4 CALLDATASIZE LT PUSH2 0x34 JUMPI PUSH1 0x0 CALLDATALOAD PUSH1 0xE0 SHR DUP1 PUSH4 0xADEC93C EQ PUSH2 0x39 JUMPI DUP1 PUSH4 0x8DA5CB5B EQ PUSH2 0x62 JUMPI DUP1 PUSH4 0xCBEDBF5A EQ PUSH2 0x8D JUMPI JUMPDEST PUSH1 0x0 DUP1 REVERT JUMPDEST CALLVALUE DUP1 ISZERO PUSH2 0x45 JUMPI PUSH1 0x0 DUP1 REVERT JUMPDEST POP PUSH2 0x60 PUSH1 0x4 DUP1 CALLDATASIZE SUB DUP2 ADD SWAP1 PUSH2 0x5B SWAP2 SWAP1 PUSH2 0x1AA JUMP JUMPDEST PUSH2 0x97 JUMP JUMPDEST STOP JUMPDEST CALLVALUE DUP1 ISZERO PUSH2 0x6E JUMPI PUSH1 0x0 DUP1 REVERT JUMPDEST POP PUSH2 0x77 PUSH2 0x16F JUMP JUMPDEST PUSH1 0x40 MLOAD PUSH2 0x84 SWAP2 SWAP1 PUSH2 0x209 JUMP JUMPDEST PUSH1 0x40 MLOAD DUP1 SWAP2 SUB SWAP1 RETURN JUMPDEST PUSH2 0x95 PUSH2 0x193 JUMP JUMPDEST STOP JUMPDEST CALLER PUSH20 0xFFFFFFFFFFFFFFFFFFFFFFFFFFFFFFFFFFFFFFFF AND PUSH1 0x0 DUP1 SLOAD SWAP1 PUSH2 0x100 EXP SWAP1 DIV PUSH20 0xFFFFFFFFFFFFFFFFFFFFFFFFFFFFFFFFFFFFFFFF AND PUSH20 0xFFFFFFFFFFFFFFFFFFFFFFFFFFFFFFFFFFFFFFFF AND EQ PUSH2 0x125 JUMPI PUSH1 0x40 MLOAD PUSH32 0x8C379A000000000000000000000000000000000000000000000000000000000 DUP2 MSTORE PUSH1 0x4 ADD PUSH2 0x11C SWAP1 PUSH2 0x224 JUMP JUMPDEST PUSH1 0x40 MLOAD DUP1 SWAP2 SUB SWAP1 REVERT JUMPDEST DUP1 PUSH20 0xFFFFFFFFFFFFFFFFFFFFFFFFFFFFFFFFFFFFFFFF AND PUSH2 0x8FC SELFBALANCE SWAP1 DUP2 ISZERO MUL SWAP1 PUSH1 0x40 MLOAD PUSH1 0x0 PUSH1 0x40 MLOAD DUP1 DUP4 SUB DUP2 DUP6 DUP9 DUP9 CALL SWAP4 POP POP POP POP ISZERO DUP1 ISZERO PUSH2 0x16B JUMPI RETURNDATASIZE PUSH1 0x0 DUP1 RETURNDATACOPY RETURNDATASIZE PUSH1 0x0 REVERT JUMPDEST POP POP JUMP JUMPDEST PUSH1 0x0 DUP1 SLOAD SWAP1 PUSH2 0x100 EXP SWAP1 DIV PUSH20 0xFFFFFFFFFFFFFFFFFFFFFFFFFFFFFFFFFFFFFFFF AND DUP2 JUMP JUMPDEST JUMP JUMPDEST PUSH1 0x0 DUP2 CALLDATALOAD SWAP1 POP PUSH2 0x1A4 DUP2 PUSH2 0x2C7 JUMP JUMPDEST SWAP3 SWAP2 POP POP JUMP JUMPDEST PUSH1 0x0 PUSH1 0x20 DUP3 DUP5 SUB SLT ISZERO PUSH2 0x1C0 JUMPI PUSH2 0x1BF PUSH2 0x299 JUMP JUMPDEST JUMPDEST PUSH1 0x0 PUSH2 0x1CE DUP5 DUP3 DUP6 ADD PUSH2 0x195 JUMP JUMPDEST SWAP2 POP POP SWAP3 SWAP2 POP POP JUMP JUMPDEST PUSH2 0x1E0 DUP2 PUSH2 0x255 JUMP JUMPDEST DUP3 MSTORE POP POP JUMP JUMPDEST PUSH1 0x0 PUSH2 0x1F3 PUSH1 0x14 DUP4 PUSH2 0x244 JUMP JUMPDEST SWAP2 POP PUSH2 0x1FE DUP3 PUSH2 0x29E JUMP JUMPDEST PUSH1 0x20 DUP3 ADD SWAP1 POP SWAP2 SWAP1 POP JUMP JUMPDEST PUSH1 0x0 PUSH1 0x20 DUP3 ADD SWAP1 POP PUSH2 0x21E PUSH1 0x0 DUP4 ADD DUP5 PUSH2 0x1D7 JUMP JUMPDEST SWAP3 SWAP2 POP POP JUMP JUMPDEST PUSH1 0x0 PUSH1 0x20 DUP3 ADD SWAP1 POP DUP2 DUP2 SUB PUSH1 0x0 DUP4 ADD MSTORE PUSH2 0x23D DUP2 PUSH2 0x1E6 JUMP JUMPDEST SWAP1 POP SWAP2 SWAP1 POP JUMP JUMPDEST PUSH1 0x0 DUP3 DUP3 MSTORE PUSH1 0x20 DUP3 ADD SWAP1 POP SWAP3 SWAP2 POP POP JUMP JUMPDEST PUSH1 0x0 PUSH2 0x260 DUP3 PUSH2 0x279 JUMP JUMPDEST SWAP1 POP SWAP2 SWAP1 POP JUMP JUMPDEST PUSH1 0x0 PUSH2 0x272 DUP3 PUSH2 0x279 JUMP JUMPDEST SWAP1 POP SWAP2 SWAP1 POP JUMP JUMPDEST PUSH1 0x0 PUSH20 0xFFFFFFFFFFFFFFFFFFFFFFFFFFFFFFFFFFFFFFFF DUP3 AND SWAP1 POP SWAP2 SWAP1 POP JUMP JUMPDEST PUSH1 0x0 DUP1 REVERT JUMPDEST PUSH32 0x596F752063616E6E6F742077697468647261772E000000000000000000000000 PUSH1 0x0 DUP3 ADD MSTORE POP JUMP JUMPDEST PUSH2 0x2D0 DUP2 PUSH2 0x267 JUMP JUMPDEST DUP2 EQ PUSH2 0x2DB JUMPI PUSH1 0x0 DUP1 REVERT JUMPDEST POP JUMP INVALID LOG2 PUSH5 0x6970667358 0x22 SLT KECCAK256 ADD 0xE0 SWAP16 SWAP16 DUP1 0xD9 0xC4 0xE8 DUP8 DUP5 CREATE2 PUSH27 0x9C85D92F0BEE7CE83FF54973D3C544FDE4509A3E64736F6C634300 ADDMOD SMOD STOP CALLER "
				},
				"gasEstimates": {
					"creation": {
						"codeDepositCost": "157600",
						"executionCost": "24468",
						"totalCost": "182068"
					},
					"external": {
						"owner()": "2511",
						"sendMoney()": "142",
						"withdrawAllMoney(address)": "infinite"
					}
				},
				"methodIdentifiers": {
					"owner()": "8da5cb5b",
					"sendMoney()": "cbedbf5a",
					"withdrawAllMoney(address)": "0adec93c"
				}
			},
			"storageLayout": {
				"storage": [
					{
						"astId": 3,
						"contract": "StartingStopping.sol:StartStopUpdateExample",
						"label": "owner",
						"offset": 0,
						"slot": "0",
						"type": "t_address"
					}
				],
				"types": {
					"t_address": {
						"encoding": "inplace",
						"label": "address",
						"numberOfBytes": "20"
					}
				}
			},
			"userdoc": {
				"kind": "user",
				"methods": {},
				"version": 1
			}
		}
	}
}