{
	"MyStructExamples2.sol": {
		"MappingsStructExample": {
			"abi": [
				{
					"inputs": [
						{
							"internalType": "address",
							"name": "",
							"type": "address"
						}
					],
					"name": "AddressBalance",
					"outputs": [
						{
							"internalType": "uint256",
							"name": "",
							"type": "uint256"
						}
					],
					"stateMutability": "view",
					"type": "function"
				},
				{
					"inputs": [],
					"name": "getBalance",
					"outputs": [
						{
							"internalType": "uint256",
							"name": "",
							"type": "uint256"
						}
					],
					"stateMutability": "view",
					"type": "function"
				},
				{
					"inputs": [],
					"name": "sendMoney",
					"outputs": [],
					"stateMutability": "payable",
					"type": "function"
				},
				{
					"inputs": [
						{
							"internalType": "address payable",
							"name": "_to",
							"type": "address"
						}
					],
					"name": "withdrawAllMoney",
					"outputs": [],
					"stateMutability": "nonpayable",
					"type": "function"
				}
			],
			"devdoc": {
				"kind": "dev",
				"methods": {},
				"version": 1
			},
			"evm": {
				"assembly": "    /* \"MyStructExamples2.sol\":64:543  contract MappingsStructExample {... */\n  mstore(0x40, 0x80)\n  callvalue\n  dup1\n  iszero\n  tag_1\n  jumpi\n  0x00\n  dup1\n  revert\ntag_1:\n  pop\n  dataSize(sub_0)\n  dup1\n  dataOffset(sub_0)\n  0x00\n  codecopy\n  0x00\n  return\nstop\n\nsub_0: assembly {\n        /* \"MyStructExamples2.sol\":64:543  contract MappingsStructExample {... */\n      mstore(0x40, 0x80)\n      jumpi(tag_1, lt(calldatasize, 0x04))\n      shr(0xe0, calldataload(0x00))\n      dup1\n      0x0adec93c\n      eq\n      tag_2\n      jumpi\n      dup1\n      0x12065fe0\n      eq\n      tag_3\n      jumpi\n      dup1\n      0x145f48be\n      eq\n      tag_4\n      jumpi\n      dup1\n      0xcbedbf5a\n      eq\n      tag_5\n      jumpi\n    tag_1:\n      0x00\n      dup1\n      revert\n        /* \"MyStructExamples2.sol\":371:541  function withdrawAllMoney(address payable _to) public {... */\n    tag_2:\n      callvalue\n      dup1\n      iszero\n      tag_6\n      jumpi\n      0x00\n      dup1\n      revert\n    tag_6:\n      pop\n      tag_7\n      0x04\n      dup1\n      calldatasize\n      sub\n      dup2\n      add\n      swap1\n      tag_8\n      swap2\n      swap1\n      tag_9\n      jump\t// in\n    tag_8:\n      tag_10\n      jump\t// in\n    tag_7:\n      stop\n        /* \"MyStructExamples2.sol\":179:272  function getBalance() public view returns(uint) {... */\n    tag_3:\n      callvalue\n      dup1\n      iszero\n      tag_11\n      jumpi\n      0x00\n      dup1\n      revert\n    tag_11:\n      pop\n      tag_12\n      tag_13\n      jump\t// in\n    tag_12:\n      mload(0x40)\n      tag_14\n      swap2\n      swap1\n      tag_15\n      jump\t// in\n    tag_14:\n      mload(0x40)\n      dup1\n      swap2\n      sub\n      swap1\n      return\n        /* \"MyStructExamples2.sol\":102:148  mapping(address => uint) public AddressBalance */\n    tag_4:\n      callvalue\n      dup1\n      iszero\n      tag_16\n      jumpi\n      0x00\n      dup1\n      revert\n    tag_16:\n      pop\n      tag_17\n      0x04\n      dup1\n      calldatasize\n      sub\n      dup2\n      add\n      swap1\n      tag_18\n      swap2\n      swap1\n      tag_19\n      jump\t// in\n    tag_18:\n      tag_20\n      jump\t// in\n    tag_17:\n      mload(0x40)\n      tag_21\n      swap2\n      swap1\n      tag_15\n      jump\t// in\n    tag_21:\n      mload(0x40)\n      dup1\n      swap2\n      sub\n      swap1\n      return\n        /* \"MyStructExamples2.sol\":278:365  function sendMoney() public payable {... */\n    tag_5:\n      tag_22\n      tag_23\n      jump\t// in\n    tag_22:\n      stop\n        /* \"MyStructExamples2.sol\":371:541  function withdrawAllMoney(address payable _to) public {... */\n    tag_10:\n        /* \"MyStructExamples2.sol\":449:463  AddressBalance */\n      0x00\n        /* \"MyStructExamples2.sol\":449:475  AddressBalance[msg.sender] */\n      dup1\n        /* \"MyStructExamples2.sol\":464:474  msg.sender */\n      caller\n        /* \"MyStructExamples2.sol\":449:475  AddressBalance[msg.sender] */\n      0xffffffffffffffffffffffffffffffffffffffff\n      and\n      0xffffffffffffffffffffffffffffffffffffffff\n      and\n      dup2\n      mstore\n      0x20\n      add\n      swap1\n      dup2\n      mstore\n      0x20\n      add\n      0x00\n      keccak256\n      sload\n        /* \"MyStructExamples2.sol\":435:448  BalanceToSend */\n      0x01\n        /* \"MyStructExamples2.sol\":435:475  BalanceToSend=AddressBalance[msg.sender] */\n      dup2\n      swap1\n      sstore\n      pop\n        /* \"MyStructExamples2.sol\":494:497  _to */\n      dup1\n        /* \"MyStructExamples2.sol\":494:506  _to.transfer */\n      0xffffffffffffffffffffffffffffffffffffffff\n      and\n        /* \"MyStructExamples2.sol\":494:534  _to.transfer(AddressBalance[msg.sender]) */\n      0x08fc\n        /* \"MyStructExamples2.sol\":507:521  AddressBalance */\n      0x00\n        /* \"MyStructExamples2.sol\":507:533  AddressBalance[msg.sender] */\n      dup1\n        /* \"MyStructExamples2.sol\":522:532  msg.sender */\n      caller\n        /* \"MyStructExamples2.sol\":507:533  AddressBalance[msg.sender] */\n      0xffffffffffffffffffffffffffffffffffffffff\n      and\n      0xffffffffffffffffffffffffffffffffffffffff\n      and\n      dup2\n      mstore\n      0x20\n      add\n      swap1\n      dup2\n      mstore\n      0x20\n      add\n      0x00\n      keccak256\n      sload\n        /* \"MyStructExamples2.sol\":494:534  _to.transfer(AddressBalance[msg.sender]) */\n      swap1\n      dup2\n      iszero\n      mul\n      swap1\n      mload(0x40)\n      0x00\n      mload(0x40)\n      dup1\n      dup4\n      sub\n      dup2\n      dup6\n      dup9\n      dup9\n      call\n      swap4\n      pop\n      pop\n      pop\n      pop\n      iszero\n      dup1\n      iszero\n      tag_26\n      jumpi\n      returndatasize\n      0x00\n      dup1\n      returndatacopy\n      revert(0x00, returndatasize)\n    tag_26:\n      pop\n        /* \"MyStructExamples2.sol\":371:541  function withdrawAllMoney(address payable _to) public {... */\n      pop\n      jump\t// out\n        /* \"MyStructExamples2.sol\":179:272  function getBalance() public view returns(uint) {... */\n    tag_13:\n        /* \"MyStructExamples2.sol\":221:225  uint */\n      0x00\n        /* \"MyStructExamples2.sol\":244:265  address(this).balance */\n      selfbalance\n        /* \"MyStructExamples2.sol\":237:265  return address(this).balance */\n      swap1\n      pop\n        /* \"MyStructExamples2.sol\":179:272  function getBalance() public view returns(uint) {... */\n      swap1\n      jump\t// out\n        /* \"MyStructExamples2.sol\":102:148  mapping(address => uint) public AddressBalance */\n    tag_20:\n      mstore(0x20, 0x00)\n      dup1\n      0x00\n      mstore\n      keccak256(0x00, 0x40)\n      0x00\n      swap2\n      pop\n      swap1\n      pop\n      sload\n      dup2\n      jump\t// out\n        /* \"MyStructExamples2.sol\":278:365  function sendMoney() public payable {... */\n    tag_23:\n        /* \"MyStructExamples2.sol\":349:358  msg.value */\n      callvalue\n        /* \"MyStructExamples2.sol\":321:335  AddressBalance */\n      0x00\n        /* \"MyStructExamples2.sol\":321:347  AddressBalance[msg.sender] */\n      dup1\n        /* \"MyStructExamples2.sol\":336:346  msg.sender */\n      caller\n        /* \"MyStructExamples2.sol\":321:347  AddressBalance[msg.sender] */\n      0xffffffffffffffffffffffffffffffffffffffff\n      and\n      0xffffffffffffffffffffffffffffffffffffffff\n      and\n      dup2\n      mstore\n      0x20\n      add\n      swap1\n      dup2\n      mstore\n      0x20\n      add\n      0x00\n      keccak256\n      0x00\n        /* \"MyStructExamples2.sol\":321:358  AddressBalance[msg.sender]+=msg.value */\n      dup3\n      dup3\n      sload\n      tag_29\n      swap2\n      swap1\n      tag_30\n      jump\t// in\n    tag_29:\n      swap3\n      pop\n      pop\n      dup2\n      swap1\n      sstore\n      pop\n        /* \"MyStructExamples2.sol\":278:365  function sendMoney() public payable {... */\n      jump\t// out\n        /* \"#utility.yul\":88:205   */\n    tag_32:\n        /* \"#utility.yul\":197:198   */\n      0x00\n        /* \"#utility.yul\":194:195   */\n      dup1\n        /* \"#utility.yul\":187:199   */\n      revert\n        /* \"#utility.yul\":334:460   */\n    tag_34:\n        /* \"#utility.yul\":371:378   */\n      0x00\n        /* \"#utility.yul\":411:453   */\n      0xffffffffffffffffffffffffffffffffffffffff\n        /* \"#utility.yul\":404:409   */\n      dup3\n        /* \"#utility.yul\":400:454   */\n      and\n        /* \"#utility.yul\":389:454   */\n      swap1\n      pop\n        /* \"#utility.yul\":334:460   */\n      swap2\n      swap1\n      pop\n      jump\t// out\n        /* \"#utility.yul\":466:570   */\n    tag_35:\n        /* \"#utility.yul\":511:518   */\n      0x00\n        /* \"#utility.yul\":540:564   */\n      tag_50\n        /* \"#utility.yul\":558:563   */\n      dup3\n        /* \"#utility.yul\":540:564   */\n      tag_34\n      jump\t// in\n    tag_50:\n        /* \"#utility.yul\":529:564   */\n      swap1\n      pop\n        /* \"#utility.yul\":466:570   */\n      swap2\n      swap1\n      pop\n      jump\t// out\n        /* \"#utility.yul\":576:714   */\n    tag_36:\n        /* \"#utility.yul\":657:689   */\n      tag_52\n        /* \"#utility.yul\":683:688   */\n      dup2\n        /* \"#utility.yul\":657:689   */\n      tag_35\n      jump\t// in\n    tag_52:\n        /* \"#utility.yul\":650:655   */\n      dup2\n        /* \"#utility.yul\":647:690   */\n      eq\n        /* \"#utility.yul\":637:708   */\n      tag_53\n      jumpi\n        /* \"#utility.yul\":704:705   */\n      0x00\n        /* \"#utility.yul\":701:702   */\n      dup1\n        /* \"#utility.yul\":694:706   */\n      revert\n        /* \"#utility.yul\":637:708   */\n    tag_53:\n        /* \"#utility.yul\":576:714   */\n      pop\n      jump\t// out\n        /* \"#utility.yul\":720:875   */\n    tag_37:\n        /* \"#utility.yul\":774:779   */\n      0x00\n        /* \"#utility.yul\":812:818   */\n      dup2\n        /* \"#utility.yul\":799:819   */\n      calldataload\n        /* \"#utility.yul\":790:819   */\n      swap1\n      pop\n        /* \"#utility.yul\":828:869   */\n      tag_55\n        /* \"#utility.yul\":863:868   */\n      dup2\n        /* \"#utility.yul\":828:869   */\n      tag_36\n      jump\t// in\n    tag_55:\n        /* \"#utility.yul\":720:875   */\n      swap3\n      swap2\n      pop\n      pop\n      jump\t// out\n        /* \"#utility.yul\":881:1226   */\n    tag_9:\n        /* \"#utility.yul\":948:954   */\n      0x00\n        /* \"#utility.yul\":997:999   */\n      0x20\n        /* \"#utility.yul\":985:994   */\n      dup3\n        /* \"#utility.yul\":976:983   */\n      dup5\n        /* \"#utility.yul\":972:995   */\n      sub\n        /* \"#utility.yul\":968:1000   */\n      slt\n        /* \"#utility.yul\":965:1084   */\n      iszero\n      tag_57\n      jumpi\n        /* \"#utility.yul\":1003:1082   */\n      tag_58\n      tag_32\n      jump\t// in\n    tag_58:\n        /* \"#utility.yul\":965:1084   */\n    tag_57:\n        /* \"#utility.yul\":1123:1124   */\n      0x00\n        /* \"#utility.yul\":1148:1209   */\n      tag_59\n        /* \"#utility.yul\":1201:1208   */\n      dup5\n        /* \"#utility.yul\":1192:1198   */\n      dup3\n        /* \"#utility.yul\":1181:1190   */\n      dup6\n        /* \"#utility.yul\":1177:1199   */\n      add\n        /* \"#utility.yul\":1148:1209   */\n      tag_37\n      jump\t// in\n    tag_59:\n        /* \"#utility.yul\":1138:1209   */\n      swap2\n      pop\n        /* \"#utility.yul\":1094:1219   */\n      pop\n        /* \"#utility.yul\":881:1226   */\n      swap3\n      swap2\n      pop\n      pop\n      jump\t// out\n        /* \"#utility.yul\":1232:1309   */\n    tag_38:\n        /* \"#utility.yul\":1269:1276   */\n      0x00\n        /* \"#utility.yul\":1298:1303   */\n      dup2\n        /* \"#utility.yul\":1287:1303   */\n      swap1\n      pop\n        /* \"#utility.yul\":1232:1309   */\n      swap2\n      swap1\n      pop\n      jump\t// out\n        /* \"#utility.yul\":1315:1433   */\n    tag_39:\n        /* \"#utility.yul\":1402:1426   */\n      tag_62\n        /* \"#utility.yul\":1420:1425   */\n      dup2\n        /* \"#utility.yul\":1402:1426   */\n      tag_38\n      jump\t// in\n    tag_62:\n        /* \"#utility.yul\":1397:1400   */\n      dup3\n        /* \"#utility.yul\":1390:1427   */\n      mstore\n        /* \"#utility.yul\":1315:1433   */\n      pop\n      pop\n      jump\t// out\n        /* \"#utility.yul\":1439:1661   */\n    tag_15:\n        /* \"#utility.yul\":1532:1536   */\n      0x00\n        /* \"#utility.yul\":1570:1572   */\n      0x20\n        /* \"#utility.yul\":1559:1568   */\n      dup3\n        /* \"#utility.yul\":1555:1573   */\n      add\n        /* \"#utility.yul\":1547:1573   */\n      swap1\n      pop\n        /* \"#utility.yul\":1583:1654   */\n      tag_64\n        /* \"#utility.yul\":1651:1652   */\n      0x00\n        /* \"#utility.yul\":1640:1649   */\n      dup4\n        /* \"#utility.yul\":1636:1653   */\n      add\n        /* \"#utility.yul\":1627:1633   */\n      dup5\n        /* \"#utility.yul\":1583:1654   */\n      tag_39\n      jump\t// in\n    tag_64:\n        /* \"#utility.yul\":1439:1661   */\n      swap3\n      swap2\n      pop\n      pop\n      jump\t// out\n        /* \"#utility.yul\":1667:1763   */\n    tag_40:\n        /* \"#utility.yul\":1704:1711   */\n      0x00\n        /* \"#utility.yul\":1733:1757   */\n      tag_66\n        /* \"#utility.yul\":1751:1756   */\n      dup3\n        /* \"#utility.yul\":1733:1757   */\n      tag_34\n      jump\t// in\n    tag_66:\n        /* \"#utility.yul\":1722:1757   */\n      swap1\n      pop\n        /* \"#utility.yul\":1667:1763   */\n      swap2\n      swap1\n      pop\n      jump\t// out\n        /* \"#utility.yul\":1769:1891   */\n    tag_41:\n        /* \"#utility.yul\":1842:1866   */\n      tag_68\n        /* \"#utility.yul\":1860:1865   */\n      dup2\n        /* \"#utility.yul\":1842:1866   */\n      tag_40\n      jump\t// in\n    tag_68:\n        /* \"#utility.yul\":1835:1840   */\n      dup2\n        /* \"#utility.yul\":1832:1867   */\n      eq\n        /* \"#utility.yul\":1822:1885   */\n      tag_69\n      jumpi\n        /* \"#utility.yul\":1881:1882   */\n      0x00\n        /* \"#utility.yul\":1878:1879   */\n      dup1\n        /* \"#utility.yul\":1871:1883   */\n      revert\n        /* \"#utility.yul\":1822:1885   */\n    tag_69:\n        /* \"#utility.yul\":1769:1891   */\n      pop\n      jump\t// out\n        /* \"#utility.yul\":1897:2036   */\n    tag_42:\n        /* \"#utility.yul\":1943:1948   */\n      0x00\n        /* \"#utility.yul\":1981:1987   */\n      dup2\n        /* \"#utility.yul\":1968:1988   */\n      calldataload\n        /* \"#utility.yul\":1959:1988   */\n      swap1\n      pop\n        /* \"#utility.yul\":1997:2030   */\n      tag_71\n        /* \"#utility.yul\":2024:2029   */\n      dup2\n        /* \"#utility.yul\":1997:2030   */\n      tag_41\n      jump\t// in\n    tag_71:\n        /* \"#utility.yul\":1897:2036   */\n      swap3\n      swap2\n      pop\n      pop\n      jump\t// out\n        /* \"#utility.yul\":2042:2371   */\n    tag_19:\n        /* \"#utility.yul\":2101:2107   */\n      0x00\n        /* \"#utility.yul\":2150:2152   */\n      0x20\n        /* \"#utility.yul\":2138:2147   */\n      dup3\n        /* \"#utility.yul\":2129:2136   */\n      dup5\n        /* \"#utility.yul\":2125:2148   */\n      sub\n        /* \"#utility.yul\":2121:2153   */\n      slt\n        /* \"#utility.yul\":2118:2237   */\n      iszero\n      tag_73\n      jumpi\n        /* \"#utility.yul\":2156:2235   */\n      tag_74\n      tag_32\n      jump\t// in\n    tag_74:\n        /* \"#utility.yul\":2118:2237   */\n    tag_73:\n        /* \"#utility.yul\":2276:2277   */\n      0x00\n        /* \"#utility.yul\":2301:2354   */\n      tag_75\n        /* \"#utility.yul\":2346:2353   */\n      dup5\n        /* \"#utility.yul\":2337:2343   */\n      dup3\n        /* \"#utility.yul\":2326:2335   */\n      dup6\n        /* \"#utility.yul\":2322:2344   */\n      add\n        /* \"#utility.yul\":2301:2354   */\n      tag_42\n      jump\t// in\n    tag_75:\n        /* \"#utility.yul\":2291:2354   */\n      swap2\n      pop\n        /* \"#utility.yul\":2247:2364   */\n      pop\n        /* \"#utility.yul\":2042:2371   */\n      swap3\n      swap2\n      pop\n      pop\n      jump\t// out\n        /* \"#utility.yul\":2377:2557   */\n    tag_43:\n        /* \"#utility.yul\":2425:2502   */\n      0x4e487b7100000000000000000000000000000000000000000000000000000000\n        /* \"#utility.yul\":2422:2423   */\n      0x00\n        /* \"#utility.yul\":2415:2503   */\n      mstore\n        /* \"#utility.yul\":2522:2526   */\n      0x11\n        /* \"#utility.yul\":2519:2520   */\n      0x04\n        /* \"#utility.yul\":2512:2527   */\n      mstore\n        /* \"#utility.yul\":2546:2550   */\n      0x24\n        /* \"#utility.yul\":2543:2544   */\n      0x00\n        /* \"#utility.yul\":2536:2551   */\n      revert\n        /* \"#utility.yul\":2563:2754   */\n    tag_30:\n        /* \"#utility.yul\":2603:2606   */\n      0x00\n        /* \"#utility.yul\":2622:2642   */\n      tag_78\n        /* \"#utility.yul\":2640:2641   */\n      dup3\n        /* \"#utility.yul\":2622:2642   */\n      tag_38\n      jump\t// in\n    tag_78:\n        /* \"#utility.yul\":2617:2642   */\n      swap2\n      pop\n        /* \"#utility.yul\":2656:2676   */\n      tag_79\n        /* \"#utility.yul\":2674:2675   */\n      dup4\n        /* \"#utility.yul\":2656:2676   */\n      tag_38\n      jump\t// in\n    tag_79:\n        /* \"#utility.yul\":2651:2676   */\n      swap3\n      pop\n        /* \"#utility.yul\":2699:2700   */\n      dup3\n        /* \"#utility.yul\":2696:2697   */\n      dup3\n        /* \"#utility.yul\":2692:2701   */\n      add\n        /* \"#utility.yul\":2685:2701   */\n      swap1\n      pop\n        /* \"#utility.yul\":2720:2723   */\n      dup1\n        /* \"#utility.yul\":2717:2718   */\n      dup3\n        /* \"#utility.yul\":2714:2724   */\n      gt\n        /* \"#utility.yul\":2711:2747   */\n      iszero\n      tag_80\n      jumpi\n        /* \"#utility.yul\":2727:2745   */\n      tag_81\n      tag_43\n      jump\t// in\n    tag_81:\n        /* \"#utility.yul\":2711:2747   */\n    tag_80:\n        /* \"#utility.yul\":2563:2754   */\n      swap3\n      swap2\n      pop\n      pop\n      jump\t// out\n\n    auxdata: 0xa2646970667358221220c96ac9f4adf33c1505435bcb5fcfa90ac3ec6dbd369f7da5d7b7207a6e49f81364736f6c63430008100033\n}\n",
				"bytecode": {
					"linkReferences": {},
					"object": "608060405234801561001057600080fd5b506103eb806100206000396000f3fe60806040526004361061003f5760003560e01c80630adec93c1461004457806312065fe01461006d578063145f48be14610098578063cbedbf5a146100d5575b600080fd5b34801561005057600080fd5b5061006b60048036038101906100669190610286565b6100df565b005b34801561007957600080fd5b506100826101ac565b60405161008f91906102cc565b60405180910390f35b3480156100a457600080fd5b506100bf60048036038101906100ba9190610325565b6101b4565b6040516100cc91906102cc565b60405180910390f35b6100dd6101cc565b005b6000803373ffffffffffffffffffffffffffffffffffffffff1673ffffffffffffffffffffffffffffffffffffffff168152602001908152602001600020546001819055508073ffffffffffffffffffffffffffffffffffffffff166108fc6000803373ffffffffffffffffffffffffffffffffffffffff1673ffffffffffffffffffffffffffffffffffffffff168152602001908152602001600020549081150290604051600060405180830381858888f193505050501580156101a8573d6000803e3d6000fd5b5050565b600047905090565b60006020528060005260406000206000915090505481565b346000803373ffffffffffffffffffffffffffffffffffffffff1673ffffffffffffffffffffffffffffffffffffffff168152602001908152602001600020600082825461021a9190610381565b92505081905550565b600080fd5b600073ffffffffffffffffffffffffffffffffffffffff82169050919050565b600061025382610228565b9050919050565b61026381610248565b811461026e57600080fd5b50565b6000813590506102808161025a565b92915050565b60006020828403121561029c5761029b610223565b5b60006102aa84828501610271565b91505092915050565b6000819050919050565b6102c6816102b3565b82525050565b60006020820190506102e160008301846102bd565b92915050565b60006102f282610228565b9050919050565b610302816102e7565b811461030d57600080fd5b50565b60008135905061031f816102f9565b92915050565b60006020828403121561033b5761033a610223565b5b600061034984828501610310565b91505092915050565b7f4e487b7100000000000000000000000000000000000000000000000000000000600052601160045260246000fd5b600061038c826102b3565b9150610397836102b3565b92508282019050808211156103af576103ae610352565b5b9291505056fea2646970667358221220c96ac9f4adf33c1505435bcb5fcfa90ac3ec6dbd369f7da5d7b7207a6e49f81364736f6c63430008100033",
					"opcodes": "PUSH1 0x80 PUSH1 0x40 MSTORE CALLVALUE DUP1 ISZERO PUSH2 0x10 JUMPI PUSH1 0x0 DUP1 REVERT JUMPDEST POP PUSH2 0x3EB DUP1 PUSH2 0x20 PUSH1 0x0 CODECOPY PUSH1 0x0 RETURN INVALID PUSH1 0x80 PUSH1 0x40 MSTORE PUSH1 0x4 CALLDATASIZE LT PUSH2 0x3F JUMPI PUSH1 0x0 CALLDATALOAD PUSH1 0xE0 SHR DUP1 PUSH4 0xADEC93C EQ PUSH2 0x44 JUMPI DUP1 PUSH4 0x12065FE0 EQ PUSH2 0x6D JUMPI DUP1 PUSH4 0x145F48BE EQ PUSH2 0x98 JUMPI DUP1 PUSH4 0xCBEDBF5A EQ PUSH2 0xD5 JUMPI JUMPDEST PUSH1 0x0 DUP1 REVERT JUMPDEST CALLVALUE DUP1 ISZERO PUSH2 0x50 JUMPI PUSH1 0x0 DUP1 REVERT JUMPDEST POP PUSH2 0x6B PUSH1 0x4 DUP1 CALLDATASIZE SUB DUP2 ADD SWAP1 PUSH2 0x66 SWAP2 SWAP1 PUSH2 0x286 JUMP JUMPDEST PUSH2 0xDF JUMP JUMPDEST STOP JUMPDEST CALLVALUE DUP1 ISZERO PUSH2 0x79 JUMPI PUSH1 0x0 DUP1 REVERT JUMPDEST POP PUSH2 0x82 PUSH2 0x1AC JUMP JUMPDEST PUSH1 0x40 MLOAD PUSH2 0x8F SWAP2 SWAP1 PUSH2 0x2CC JUMP JUMPDEST PUSH1 0x40 MLOAD DUP1 SWAP2 SUB SWAP1 RETURN JUMPDEST CALLVALUE DUP1 ISZERO PUSH2 0xA4 JUMPI PUSH1 0x0 DUP1 REVERT JUMPDEST POP PUSH2 0xBF PUSH1 0x4 DUP1 CALLDATASIZE SUB DUP2 ADD SWAP1 PUSH2 0xBA SWAP2 SWAP1 PUSH2 0x325 JUMP JUMPDEST PUSH2 0x1B4 JUMP JUMPDEST PUSH1 0x40 MLOAD PUSH2 0xCC SWAP2 SWAP1 PUSH2 0x2CC JUMP JUMPDEST PUSH1 0x40 MLOAD DUP1 SWAP2 SUB SWAP1 RETURN JUMPDEST PUSH2 0xDD PUSH2 0x1CC JUMP JUMPDEST STOP JUMPDEST PUSH1 0x0 DUP1 CALLER PUSH20 0xFFFFFFFFFFFFFFFFFFFFFFFFFFFFFFFFFFFFFFFF AND PUSH20 0xFFFFFFFFFFFFFFFFFFFFFFFFFFFFFFFFFFFFFFFF AND DUP2 MSTORE PUSH1 0x20 ADD SWAP1 DUP2 MSTORE PUSH1 0x20 ADD PUSH1 0x0 KECCAK256 SLOAD PUSH1 0x1 DUP2 SWAP1 SSTORE POP DUP1 PUSH20 0xFFFFFFFFFFFFFFFFFFFFFFFFFFFFFFFFFFFFFFFF AND PUSH2 0x8FC PUSH1 0x0 DUP1 CALLER PUSH20 0xFFFFFFFFFFFFFFFFFFFFFFFFFFFFFFFFFFFFFFFF AND PUSH20 0xFFFFFFFFFFFFFFFFFFFFFFFFFFFFFFFFFFFFFFFF AND DUP2 MSTORE PUSH1 0x20 ADD SWAP1 DUP2 MSTORE PUSH1 0x20 ADD PUSH1 0x0 KECCAK256 SLOAD SWAP1 DUP2 ISZERO MUL SWAP1 PUSH1 0x40 MLOAD PUSH1 0x0 PUSH1 0x40 MLOAD DUP1 DUP4 SUB DUP2 DUP6 DUP9 DUP9 CALL SWAP4 POP POP POP POP ISZERO DUP1 ISZERO PUSH2 0x1A8 JUMPI RETURNDATASIZE PUSH1 0x0 DUP1 RETURNDATACOPY RETURNDATASIZE PUSH1 0x0 REVERT JUMPDEST POP POP JUMP JUMPDEST PUSH1 0x0 SELFBALANCE SWAP1 POP SWAP1 JUMP JUMPDEST PUSH1 0x0 PUSH1 0x20 MSTORE DUP1 PUSH1 0x0 MSTORE PUSH1 0x40 PUSH1 0x0 KECCAK256 PUSH1 0x0 SWAP2 POP SWAP1 POP SLOAD DUP2 JUMP JUMPDEST CALLVALUE PUSH1 0x0 DUP1 CALLER PUSH20 0xFFFFFFFFFFFFFFFFFFFFFFFFFFFFFFFFFFFFFFFF AND PUSH20 0xFFFFFFFFFFFFFFFFFFFFFFFFFFFFFFFFFFFFFFFF AND DUP2 MSTORE PUSH1 0x20 ADD SWAP1 DUP2 MSTORE PUSH1 0x20 ADD PUSH1 0x0 KECCAK256 PUSH1 0x0 DUP3 DUP3 SLOAD PUSH2 0x21A SWAP2 SWAP1 PUSH2 0x381 JUMP JUMPDEST SWAP3 POP POP DUP2 SWAP1 SSTORE POP JUMP JUMPDEST PUSH1 0x0 DUP1 REVERT JUMPDEST PUSH1 0x0 PUSH20 0xFFFFFFFFFFFFFFFFFFFFFFFFFFFFFFFFFFFFFFFF DUP3 AND SWAP1 POP SWAP2 SWAP1 POP JUMP JUMPDEST PUSH1 0x0 PUSH2 0x253 DUP3 PUSH2 0x228 JUMP JUMPDEST SWAP1 POP SWAP2 SWAP1 POP JUMP JUMPDEST PUSH2 0x263 DUP2 PUSH2 0x248 JUMP JUMPDEST DUP2 EQ PUSH2 0x26E JUMPI PUSH1 0x0 DUP1 REVERT JUMPDEST POP JUMP JUMPDEST PUSH1 0x0 DUP2 CALLDATALOAD SWAP1 POP PUSH2 0x280 DUP2 PUSH2 0x25A JUMP JUMPDEST SWAP3 SWAP2 POP POP JUMP JUMPDEST PUSH1 0x0 PUSH1 0x20 DUP3 DUP5 SUB SLT ISZERO PUSH2 0x29C JUMPI PUSH2 0x29B PUSH2 0x223 JUMP JUMPDEST JUMPDEST PUSH1 0x0 PUSH2 0x2AA DUP5 DUP3 DUP6 ADD PUSH2 0x271 JUMP JUMPDEST SWAP2 POP POP SWAP3 SWAP2 POP POP JUMP JUMPDEST PUSH1 0x0 DUP2 SWAP1 POP SWAP2 SWAP1 POP JUMP JUMPDEST PUSH2 0x2C6 DUP2 PUSH2 0x2B3 JUMP JUMPDEST DUP3 MSTORE POP POP JUMP JUMPDEST PUSH1 0x0 PUSH1 0x20 DUP3 ADD SWAP1 POP PUSH2 0x2E1 PUSH1 0x0 DUP4 ADD DUP5 PUSH2 0x2BD JUMP JUMPDEST SWAP3 SWAP2 POP POP JUMP JUMPDEST PUSH1 0x0 PUSH2 0x2F2 DUP3 PUSH2 0x228 JUMP JUMPDEST SWAP1 POP SWAP2 SWAP1 POP JUMP JUMPDEST PUSH2 0x302 DUP2 PUSH2 0x2E7 JUMP JUMPDEST DUP2 EQ PUSH2 0x30D JUMPI PUSH1 0x0 DUP1 REVERT JUMPDEST POP JUMP JUMPDEST PUSH1 0x0 DUP2 CALLDATALOAD SWAP1 POP PUSH2 0x31F DUP2 PUSH2 0x2F9 JUMP JUMPDEST SWAP3 SWAP2 POP POP JUMP JUMPDEST PUSH1 0x0 PUSH1 0x20 DUP3 DUP5 SUB SLT ISZERO PUSH2 0x33B JUMPI PUSH2 0x33A PUSH2 0x223 JUMP JUMPDEST JUMPDEST PUSH1 0x0 PUSH2 0x349 DUP5 DUP3 DUP6 ADD PUSH2 0x310 JUMP JUMPDEST SWAP2 POP POP SWAP3 SWAP2 POP POP JUMP JUMPDEST PUSH32 0x4E487B7100000000000000000000000000000000000000000000000000000000 PUSH1 0x0 MSTORE PUSH1 0x11 PUSH1 0x4 MSTORE PUSH1 0x24 PUSH1 0x0 REVERT JUMPDEST PUSH1 0x0 PUSH2 0x38C DUP3 PUSH2 0x2B3 JUMP JUMPDEST SWAP2 POP PUSH2 0x397 DUP4 PUSH2 0x2B3 JUMP JUMPDEST SWAP3 POP DUP3 DUP3 ADD SWAP1 POP DUP1 DUP3 GT ISZERO PUSH2 0x3AF JUMPI PUSH2 0x3AE PUSH2 0x352 JUMP JUMPDEST JUMPDEST SWAP3 SWAP2 POP POP JUMP INVALID LOG2 PUSH5 0x6970667358 0x22 SLT KECCAK256 0xC9 PUSH11 0xC9F4ADF33C1505435BCB5F 0xCF 0xA9 EXP 0xC3 0xEC PUSH14 0xBD369F7DA5D7B7207A6E49F81364 PUSH20 0x6F6C634300081000330000000000000000000000 "
				},
				"gasEstimates": {
					"creation": {
						"codeDepositCost": "200600",
						"executionCost": "245",
						"totalCost": "200845"
					},
					"external": {
						"AddressBalance(address)": "2836",
						"getBalance()": "339",
						"sendMoney()": "infinite",
						"withdrawAllMoney(address)": "infinite"
					}
				},
				"methodIdentifiers": {
					"AddressBalance(address)": "145f48be",
					"getBalance()": "12065fe0",
					"sendMoney()": "cbedbf5a",
					"withdrawAllMoney(address)": "0adec93c"
				}
			},
			"storageLayout": {
				"storage": [
					{
						"astId": 5,
						"contract": "MyStructExamples2.sol:MappingsStructExample",
						"label": "AddressBalance",
						"offset": 0,
						"slot": "0",
						"type": "t_mapping(t_address,t_uint256)"
					},
					{
						"astId": 7,
						"contract": "MyStructExamples2.sol:MappingsStructExample",
						"label": "BalanceToSend",
						"offset": 0,
						"slot": "1",
						"type": "t_uint256"
					}
				],
				"types": {
					"t_address": {
						"encoding": "inplace",
						"label": "address",
						"numberOfBytes": "20"
					},
					"t_mapping(t_address,t_uint256)": {
						"encoding": "mapping",
						"key": "t_address",
						"label": "mapping(address => uint256)",
						"numberOfBytes": "32",
						"value": "t_uint256"
					},
					"t_uint256": {
						"encoding": "inplace",
						"label": "uint256",
						"numberOfBytes": "32"
					}
				}
			},
			"userdoc": {
				"kind": "user",
				"methods": {},
				"version": 1
			}
		}
	}
}