{
	"ItemManager.sol": {
		"ItemManager": {
			"abi": [
				{
					"anonymous": false,
					"inputs": [
						{
							"indexed": false,
							"internalType": "uint256",
							"name": "_itemIndex",
							"type": "uint256"
						},
						{
							"indexed": false,
							"internalType": "uint256",
							"name": "_step",
							"type": "uint256"
						}
					],
					"name": "SupplyChainStep",
					"type": "event"
				},
				{
					"inputs": [
						{
							"internalType": "string",
							"name": "_identifier",
							"type": "string"
						},
						{
							"internalType": "uint256",
							"name": "_itemPrice",
							"type": "uint256"
						}
					],
					"name": "createItem",
					"outputs": [],
					"stateMutability": "nonpayable",
					"type": "function"
				},
				{
					"inputs": [
						{
							"internalType": "uint256",
							"name": "",
							"type": "uint256"
						}
					],
					"name": "items",
					"outputs": [
						{
							"internalType": "string",
							"name": "_identifier",
							"type": "string"
						},
						{
							"internalType": "uint256",
							"name": "_itemPrice",
							"type": "uint256"
						},
						{
							"internalType": "enum ItemManager.SupplyChainState",
							"name": "_state",
							"type": "uint8"
						}
					],
					"stateMutability": "view",
					"type": "function"
				},
				{
					"inputs": [
						{
							"internalType": "uint256",
							"name": "_itemIndex",
							"type": "uint256"
						}
					],
					"name": "triggerDelivery",
					"outputs": [],
					"stateMutability": "nonpayable",
					"type": "function"
				},
				{
					"inputs": [
						{
							"internalType": "uint256",
							"name": "_itemIndex",
							"type": "uint256"
						}
					],
					"name": "triggerPayment",
					"outputs": [],
					"stateMutability": "payable",
					"type": "function"
				}
			],
			"devdoc": {
				"kind": "dev",
				"methods": {},
				"version": 1
			},
			"evm": {
				"assembly": "    /* \"ItemManager.sol\":163:1714  contract ItemManager {... */\n  mstore(0x40, 0x80)\n  callvalue\n  dup1\n  iszero\n  tag_1\n  jumpi\n  0x00\n  dup1\n  revert\ntag_1:\n  pop\n  dataSize(sub_0)\n  dup1\n  dataOffset(sub_0)\n  0x00\n  codecopy\n  0x00\n  return\nstop\n\nsub_0: assembly {\n        /* \"ItemManager.sol\":163:1714  contract ItemManager {... */\n      mstore(0x40, 0x80)\n      jumpi(tag_1, lt(calldatasize, 0x04))\n      shr(0xe0, calldataload(0x00))\n      dup1\n      0x800fb83f\n      eq\n      tag_2\n      jumpi\n      dup1\n      0x8c551742\n      eq\n      tag_3\n      jumpi\n      dup1\n      0xbfb231d2\n      eq\n      tag_4\n      jumpi\n      dup1\n      0xcd31831e\n      eq\n      tag_5\n      jumpi\n    tag_1:\n      0x00\n      dup1\n      revert\n        /* \"ItemManager.sol\":954:1363  function triggerPayment(uint _itemIndex) public payable {... */\n    tag_2:\n      tag_6\n      0x04\n      dup1\n      calldatasize\n      sub\n      dup2\n      add\n      swap1\n      tag_7\n      swap2\n      swap1\n      tag_8\n      jump\t// in\n    tag_7:\n      tag_9\n      jump\t// in\n    tag_6:\n      stop\n        /* \"ItemManager.sol\":617:948  function createItem(string memory _identifier, uint _itemPrice) public {... */\n    tag_3:\n      callvalue\n      dup1\n      iszero\n      tag_10\n      jumpi\n      0x00\n      dup1\n      revert\n    tag_10:\n      pop\n      tag_11\n      0x04\n      dup1\n      calldatasize\n      sub\n      dup2\n      add\n      swap1\n      tag_12\n      swap2\n      swap1\n      tag_13\n      jump\t// in\n    tag_12:\n      tag_14\n      jump\t// in\n    tag_11:\n      stop\n        /* \"ItemManager.sol\":391:427  mapping(uint => S_Item) public items */\n    tag_4:\n      callvalue\n      dup1\n      iszero\n      tag_15\n      jumpi\n      0x00\n      dup1\n      revert\n    tag_15:\n      pop\n      tag_16\n      0x04\n      dup1\n      calldatasize\n      sub\n      dup2\n      add\n      swap1\n      tag_17\n      swap2\n      swap1\n      tag_8\n      jump\t// in\n    tag_17:\n      tag_18\n      jump\t// in\n    tag_16:\n      mload(0x40)\n      tag_19\n      swap4\n      swap3\n      swap2\n      swap1\n      tag_20\n      jump\t// in\n    tag_19:\n      mload(0x40)\n      dup1\n      swap2\n      sub\n      swap1\n      return\n        /* \"ItemManager.sol\":1369:1689  function triggerDelivery(uint _itemIndex) public {... */\n    tag_5:\n      callvalue\n      dup1\n      iszero\n      tag_21\n      jumpi\n      0x00\n      dup1\n      revert\n    tag_21:\n      pop\n      tag_22\n      0x04\n      dup1\n      calldatasize\n      sub\n      dup2\n      add\n      swap1\n      tag_23\n      swap2\n      swap1\n      tag_8\n      jump\t// in\n    tag_23:\n      tag_24\n      jump\t// in\n    tag_22:\n      stop\n        /* \"ItemManager.sol\":954:1363  function triggerPayment(uint _itemIndex) public payable {... */\n    tag_9:\n        /* \"ItemManager.sol\":1060:1069  msg.value */\n      callvalue\n        /* \"ItemManager.sol\":1028:1033  items */\n      0x00\n        /* \"ItemManager.sol\":1028:1045  items[_itemIndex] */\n      dup1\n        /* \"ItemManager.sol\":1034:1044  _itemIndex */\n      dup4\n        /* \"ItemManager.sol\":1028:1045  items[_itemIndex] */\n      dup2\n      mstore\n      0x20\n      add\n      swap1\n      dup2\n      mstore\n      0x20\n      add\n      0x00\n      keccak256\n        /* \"ItemManager.sol\":1028:1056  items[_itemIndex]._itemPrice */\n      0x01\n      add\n      sload\n        /* \"ItemManager.sol\":1028:1069  items[_itemIndex]._itemPrice == msg.value */\n      eq\n        /* \"ItemManager.sol\":1020:1102  require(items[_itemIndex]._itemPrice == msg.value, \"Only exact payments accepted\") */\n      tag_26\n      jumpi\n      mload(0x40)\n      0x08c379a000000000000000000000000000000000000000000000000000000000\n      dup2\n      mstore\n      0x04\n      add\n      tag_27\n      swap1\n      tag_28\n      jump\t// in\n    tag_27:\n      mload(0x40)\n      dup1\n      swap2\n      sub\n      swap1\n      revert\n    tag_26:\n        /* \"ItemManager.sol\":1148:1172  SupplyChainState.Created */\n      0x00\n        /* \"ItemManager.sol\":1120:1172  items[_itemIndex]._state == SupplyChainState.Created */\n      0x02\n      dup2\n      gt\n      iszero\n      tag_29\n      jumpi\n      tag_30\n      tag_31\n      jump\t// in\n    tag_30:\n    tag_29:\n        /* \"ItemManager.sol\":1120:1125  items */\n      0x00\n        /* \"ItemManager.sol\":1120:1137  items[_itemIndex] */\n      dup1\n        /* \"ItemManager.sol\":1126:1136  _itemIndex */\n      dup4\n        /* \"ItemManager.sol\":1120:1137  items[_itemIndex] */\n      dup2\n      mstore\n      0x20\n      add\n      swap1\n      dup2\n      mstore\n      0x20\n      add\n      0x00\n      keccak256\n        /* \"ItemManager.sol\":1120:1144  items[_itemIndex]._state */\n      0x02\n      add\n      0x00\n      swap1\n      sload\n      swap1\n      0x0100\n      exp\n      swap1\n      div\n      0xff\n      and\n        /* \"ItemManager.sol\":1120:1172  items[_itemIndex]._state == SupplyChainState.Created */\n      0x02\n      dup2\n      gt\n      iszero\n      tag_32\n      jumpi\n      tag_33\n      tag_31\n      jump\t// in\n    tag_33:\n    tag_32:\n      eq\n        /* \"ItemManager.sol\":1112:1224  require(items[_itemIndex]._state == SupplyChainState.Created, \"The item is already further in the supply chain\") */\n      tag_34\n      jumpi\n      mload(0x40)\n      0x08c379a000000000000000000000000000000000000000000000000000000000\n      dup2\n      mstore\n      0x04\n      add\n      tag_35\n      swap1\n      tag_36\n      jump\t// in\n    tag_35:\n      mload(0x40)\n      dup1\n      swap2\n      sub\n      swap1\n      revert\n    tag_34:\n        /* \"ItemManager.sol\":1261:1282  SupplyChainState.Paid */\n      0x01\n        /* \"ItemManager.sol\":1234:1239  items */\n      0x00\n        /* \"ItemManager.sol\":1234:1251  items[_itemIndex] */\n      dup1\n        /* \"ItemManager.sol\":1240:1250  _itemIndex */\n      dup4\n        /* \"ItemManager.sol\":1234:1251  items[_itemIndex] */\n      dup2\n      mstore\n      0x20\n      add\n      swap1\n      dup2\n      mstore\n      0x20\n      add\n      0x00\n      keccak256\n        /* \"ItemManager.sol\":1234:1258  items[_itemIndex]._state */\n      0x02\n      add\n      0x00\n        /* \"ItemManager.sol\":1234:1282  items[_itemIndex]._state = SupplyChainState.Paid */\n      0x0100\n      exp\n      dup2\n      sload\n      dup2\n      0xff\n      mul\n      not\n      and\n      swap1\n      dup4\n      0x02\n      dup2\n      gt\n      iszero\n      tag_37\n      jumpi\n      tag_38\n      tag_31\n      jump\t// in\n    tag_38:\n    tag_37:\n      mul\n      or\n      swap1\n      sstore\n      pop\n        /* \"ItemManager.sol\":1297:1356  SupplyChainStep(_itemIndex, uint(items[_itemIndex]._state)) */\n      0x8c198761ba3d324d155cbaf96f0ac38a531c085089e49106d95352535a1110c2\n        /* \"ItemManager.sol\":1313:1323  _itemIndex */\n      dup2\n        /* \"ItemManager.sol\":1330:1335  items */\n      0x00\n        /* \"ItemManager.sol\":1330:1347  items[_itemIndex] */\n      dup1\n        /* \"ItemManager.sol\":1336:1346  _itemIndex */\n      dup5\n        /* \"ItemManager.sol\":1330:1347  items[_itemIndex] */\n      dup2\n      mstore\n      0x20\n      add\n      swap1\n      dup2\n      mstore\n      0x20\n      add\n      0x00\n      keccak256\n        /* \"ItemManager.sol\":1330:1354  items[_itemIndex]._state */\n      0x02\n      add\n      0x00\n      swap1\n      sload\n      swap1\n      0x0100\n      exp\n      swap1\n      div\n      0xff\n      and\n        /* \"ItemManager.sol\":1325:1355  uint(items[_itemIndex]._state) */\n      0x02\n      dup2\n      gt\n      iszero\n      tag_39\n      jumpi\n      tag_40\n      tag_31\n      jump\t// in\n    tag_40:\n    tag_39:\n        /* \"ItemManager.sol\":1297:1356  SupplyChainStep(_itemIndex, uint(items[_itemIndex]._state)) */\n      mload(0x40)\n      tag_41\n      swap3\n      swap2\n      swap1\n      tag_42\n      jump\t// in\n    tag_41:\n      mload(0x40)\n      dup1\n      swap2\n      sub\n      swap1\n      log1\n        /* \"ItemManager.sol\":954:1363  function triggerPayment(uint _itemIndex) public payable {... */\n      pop\n      jump\t// out\n        /* \"ItemManager.sol\":617:948  function createItem(string memory _identifier, uint _itemPrice) public {... */\n    tag_14:\n        /* \"ItemManager.sol\":728:739  _identifier */\n      dup2\n        /* \"ItemManager.sol\":698:703  items */\n      0x00\n        /* \"ItemManager.sol\":698:714  items[itemIndex] */\n      dup1\n        /* \"ItemManager.sol\":704:713  itemIndex */\n      sload(0x01)\n        /* \"ItemManager.sol\":698:714  items[itemIndex] */\n      dup2\n      mstore\n      0x20\n      add\n      swap1\n      dup2\n      mstore\n      0x20\n      add\n      0x00\n      keccak256\n        /* \"ItemManager.sol\":698:726  items[itemIndex]._identifier */\n      0x00\n      add\n        /* \"ItemManager.sol\":698:739  items[itemIndex]._identifier =_identifier */\n      swap1\n      dup1\n      mload\n      swap1\n      0x20\n      add\n      swap1\n      tag_44\n      swap3\n      swap2\n      swap1\n      tag_45\n      jump\t// in\n    tag_44:\n      pop\n        /* \"ItemManager.sol\":778:788  _itemPrice */\n      dup1\n        /* \"ItemManager.sol\":749:754  items */\n      0x00\n        /* \"ItemManager.sol\":749:765  items[itemIndex] */\n      dup1\n        /* \"ItemManager.sol\":755:764  itemIndex */\n      sload(0x01)\n        /* \"ItemManager.sol\":749:765  items[itemIndex] */\n      dup2\n      mstore\n      0x20\n      add\n      swap1\n      dup2\n      mstore\n      0x20\n      add\n      0x00\n      keccak256\n        /* \"ItemManager.sol\":749:776  items[itemIndex]._itemPrice */\n      0x01\n      add\n        /* \"ItemManager.sol\":749:788  items[itemIndex]._itemPrice =_itemPrice */\n      dup2\n      swap1\n      sstore\n      pop\n        /* \"ItemManager.sol\":824:848  SupplyChainState.Created */\n      0x00\n        /* \"ItemManager.sol\":798:803  items */\n      dup1\n        /* \"ItemManager.sol\":798:814  items[itemIndex] */\n      0x00\n        /* \"ItemManager.sol\":804:813  itemIndex */\n      sload(0x01)\n        /* \"ItemManager.sol\":798:814  items[itemIndex] */\n      dup2\n      mstore\n      0x20\n      add\n      swap1\n      dup2\n      mstore\n      0x20\n      add\n      0x00\n      keccak256\n        /* \"ItemManager.sol\":798:821  items[itemIndex]._state */\n      0x02\n      add\n      0x00\n        /* \"ItemManager.sol\":798:848  items[itemIndex]._state = SupplyChainState.Created */\n      0x0100\n      exp\n      dup2\n      sload\n      dup2\n      0xff\n      mul\n      not\n      and\n      swap1\n      dup4\n      0x02\n      dup2\n      gt\n      iszero\n      tag_46\n      jumpi\n      tag_47\n      tag_31\n      jump\t// in\n    tag_47:\n    tag_46:\n      mul\n      or\n      swap1\n      sstore\n      pop\n        /* \"ItemManager.sol\":863:920  SupplyChainStep(itemIndex, uint(items[itemIndex]._state)) */\n      0x8c198761ba3d324d155cbaf96f0ac38a531c085089e49106d95352535a1110c2\n        /* \"ItemManager.sol\":879:888  itemIndex */\n      sload(0x01)\n        /* \"ItemManager.sol\":895:900  items */\n      0x00\n        /* \"ItemManager.sol\":895:911  items[itemIndex] */\n      dup1\n        /* \"ItemManager.sol\":901:910  itemIndex */\n      sload(0x01)\n        /* \"ItemManager.sol\":895:911  items[itemIndex] */\n      dup2\n      mstore\n      0x20\n      add\n      swap1\n      dup2\n      mstore\n      0x20\n      add\n      0x00\n      keccak256\n        /* \"ItemManager.sol\":895:918  items[itemIndex]._state */\n      0x02\n      add\n      0x00\n      swap1\n      sload\n      swap1\n      0x0100\n      exp\n      swap1\n      div\n      0xff\n      and\n        /* \"ItemManager.sol\":890:919  uint(items[itemIndex]._state) */\n      0x02\n      dup2\n      gt\n      iszero\n      tag_48\n      jumpi\n      tag_49\n      tag_31\n      jump\t// in\n    tag_49:\n    tag_48:\n        /* \"ItemManager.sol\":863:920  SupplyChainStep(itemIndex, uint(items[itemIndex]._state)) */\n      mload(0x40)\n      tag_50\n      swap3\n      swap2\n      swap1\n      tag_42\n      jump\t// in\n    tag_50:\n      mload(0x40)\n      dup1\n      swap2\n      sub\n      swap1\n      log1\n        /* \"ItemManager.sol\":930:939  itemIndex */\n      0x01\n      0x00\n        /* \"ItemManager.sol\":930:941  itemIndex++ */\n      dup2\n      sload\n      dup1\n      swap3\n      swap2\n      swap1\n      tag_51\n      swap1\n      tag_52\n      jump\t// in\n    tag_51:\n      swap2\n      swap1\n      pop\n      sstore\n      pop\n        /* \"ItemManager.sol\":617:948  function createItem(string memory _identifier, uint _itemPrice) public {... */\n      pop\n      pop\n      jump\t// out\n        /* \"ItemManager.sol\":391:427  mapping(uint => S_Item) public items */\n    tag_18:\n      mstore(0x20, 0x00)\n      dup1\n      0x00\n      mstore\n      keccak256(0x00, 0x40)\n      0x00\n      swap2\n      pop\n      swap1\n      pop\n      dup1\n      0x00\n      add\n      dup1\n      sload\n      tag_53\n      swap1\n      tag_54\n      jump\t// in\n    tag_53:\n      dup1\n      0x1f\n      add\n      0x20\n      dup1\n      swap2\n      div\n      mul\n      0x20\n      add\n      mload(0x40)\n      swap1\n      dup2\n      add\n      0x40\n      mstore\n      dup1\n      swap3\n      swap2\n      swap1\n      dup2\n      dup2\n      mstore\n      0x20\n      add\n      dup3\n      dup1\n      sload\n      tag_55\n      swap1\n      tag_54\n      jump\t// in\n    tag_55:\n      dup1\n      iszero\n      tag_56\n      jumpi\n      dup1\n      0x1f\n      lt\n      tag_57\n      jumpi\n      0x0100\n      dup1\n      dup4\n      sload\n      div\n      mul\n      dup4\n      mstore\n      swap2\n      0x20\n      add\n      swap2\n      jump(tag_56)\n    tag_57:\n      dup3\n      add\n      swap2\n      swap1\n      0x00\n      mstore\n      keccak256(0x00, 0x20)\n      swap1\n    tag_58:\n      dup2\n      sload\n      dup2\n      mstore\n      swap1\n      0x01\n      add\n      swap1\n      0x20\n      add\n      dup1\n      dup4\n      gt\n      tag_58\n      jumpi\n      dup3\n      swap1\n      sub\n      0x1f\n      and\n      dup3\n      add\n      swap2\n    tag_56:\n      pop\n      pop\n      pop\n      pop\n      pop\n      swap1\n      dup1\n      0x01\n      add\n      sload\n      swap1\n      dup1\n      0x02\n      add\n      0x00\n      swap1\n      sload\n      swap1\n      0x0100\n      exp\n      swap1\n      div\n      0xff\n      and\n      swap1\n      pop\n      dup4\n      jump\t// out\n        /* \"ItemManager.sol\":1369:1689  function triggerDelivery(uint _itemIndex) public {... */\n    tag_24:\n        /* \"ItemManager.sol\":1464:1485  SupplyChainState.Paid */\n      0x01\n        /* \"ItemManager.sol\":1436:1485  items[_itemIndex]._state == SupplyChainState.Paid */\n      0x02\n      dup2\n      gt\n      iszero\n      tag_60\n      jumpi\n      tag_61\n      tag_31\n      jump\t// in\n    tag_61:\n    tag_60:\n        /* \"ItemManager.sol\":1436:1441  items */\n      0x00\n        /* \"ItemManager.sol\":1436:1453  items[_itemIndex] */\n      dup1\n        /* \"ItemManager.sol\":1442:1452  _itemIndex */\n      dup4\n        /* \"ItemManager.sol\":1436:1453  items[_itemIndex] */\n      dup2\n      mstore\n      0x20\n      add\n      swap1\n      dup2\n      mstore\n      0x20\n      add\n      0x00\n      keccak256\n        /* \"ItemManager.sol\":1436:1460  items[_itemIndex]._state */\n      0x02\n      add\n      0x00\n      swap1\n      sload\n      swap1\n      0x0100\n      exp\n      swap1\n      div\n      0xff\n      and\n        /* \"ItemManager.sol\":1436:1485  items[_itemIndex]._state == SupplyChainState.Paid */\n      0x02\n      dup2\n      gt\n      iszero\n      tag_62\n      jumpi\n      tag_63\n      tag_31\n      jump\t// in\n    tag_63:\n    tag_62:\n      eq\n        /* \"ItemManager.sol\":1428:1545  require(items[_itemIndex]._state == SupplyChainState.Paid, \"The item is in a different position in the supply chain\") */\n      tag_64\n      jumpi\n      mload(0x40)\n      0x08c379a000000000000000000000000000000000000000000000000000000000\n      dup2\n      mstore\n      0x04\n      add\n      tag_65\n      swap1\n      tag_66\n      jump\t// in\n    tag_65:\n      mload(0x40)\n      dup1\n      swap2\n      sub\n      swap1\n      revert\n    tag_64:\n        /* \"ItemManager.sol\":1582:1608  SupplyChainState.Delivered */\n      0x02\n        /* \"ItemManager.sol\":1555:1560  items */\n      0x00\n        /* \"ItemManager.sol\":1555:1572  items[_itemIndex] */\n      dup1\n        /* \"ItemManager.sol\":1561:1571  _itemIndex */\n      dup4\n        /* \"ItemManager.sol\":1555:1572  items[_itemIndex] */\n      dup2\n      mstore\n      0x20\n      add\n      swap1\n      dup2\n      mstore\n      0x20\n      add\n      0x00\n      keccak256\n        /* \"ItemManager.sol\":1555:1579  items[_itemIndex]._state */\n      0x02\n      add\n      0x00\n        /* \"ItemManager.sol\":1555:1608  items[_itemIndex]._state = SupplyChainState.Delivered */\n      0x0100\n      exp\n      dup2\n      sload\n      dup2\n      0xff\n      mul\n      not\n      and\n      swap1\n      dup4\n      0x02\n      dup2\n      gt\n      iszero\n      tag_67\n      jumpi\n      tag_68\n      tag_31\n      jump\t// in\n    tag_68:\n    tag_67:\n      mul\n      or\n      swap1\n      sstore\n      pop\n        /* \"ItemManager.sol\":1623:1682  SupplyChainStep(_itemIndex, uint(items[_itemIndex]._state)) */\n      0x8c198761ba3d324d155cbaf96f0ac38a531c085089e49106d95352535a1110c2\n        /* \"ItemManager.sol\":1639:1649  _itemIndex */\n      dup2\n        /* \"ItemManager.sol\":1656:1661  items */\n      0x00\n        /* \"ItemManager.sol\":1656:1673  items[_itemIndex] */\n      dup1\n        /* \"ItemManager.sol\":1662:1672  _itemIndex */\n      dup5\n        /* \"ItemManager.sol\":1656:1673  items[_itemIndex] */\n      dup2\n      mstore\n      0x20\n      add\n      swap1\n      dup2\n      mstore\n      0x20\n      add\n      0x00\n      keccak256\n        /* \"ItemManager.sol\":1656:1680  items[_itemIndex]._state */\n      0x02\n      add\n      0x00\n      swap1\n      sload\n      swap1\n      0x0100\n      exp\n      swap1\n      div\n      0xff\n      and\n        /* \"ItemManager.sol\":1651:1681  uint(items[_itemIndex]._state) */\n      0x02\n      dup2\n      gt\n      iszero\n      tag_69\n      jumpi\n      tag_70\n      tag_31\n      jump\t// in\n    tag_70:\n    tag_69:\n        /* \"ItemManager.sol\":1623:1682  SupplyChainStep(_itemIndex, uint(items[_itemIndex]._state)) */\n      mload(0x40)\n      tag_71\n      swap3\n      swap2\n      swap1\n      tag_42\n      jump\t// in\n    tag_71:\n      mload(0x40)\n      dup1\n      swap2\n      sub\n      swap1\n      log1\n        /* \"ItemManager.sol\":1369:1689  function triggerDelivery(uint _itemIndex) public {... */\n      pop\n      jump\t// out\n    tag_45:\n      dup3\n      dup1\n      sload\n      tag_72\n      swap1\n      tag_54\n      jump\t// in\n    tag_72:\n      swap1\n      0x00\n      mstore\n      keccak256(0x00, 0x20)\n      swap1\n      0x1f\n      add\n      0x20\n      swap1\n      div\n      dup2\n      add\n      swap3\n      dup3\n      tag_74\n      jumpi\n      0x00\n      dup6\n      sstore\n      jump(tag_73)\n    tag_74:\n      dup3\n      0x1f\n      lt\n      tag_75\n      jumpi\n      dup1\n      mload\n      not(0xff)\n      and\n      dup4\n      dup1\n      add\n      or\n      dup6\n      sstore\n      jump(tag_73)\n    tag_75:\n      dup3\n      dup1\n      add\n      0x01\n      add\n      dup6\n      sstore\n      dup3\n      iszero\n      tag_73\n      jumpi\n      swap2\n      dup3\n      add\n    tag_76:\n      dup3\n      dup2\n      gt\n      iszero\n      tag_77\n      jumpi\n      dup3\n      mload\n      dup3\n      sstore\n      swap2\n      0x20\n      add\n      swap2\n      swap1\n      0x01\n      add\n      swap1\n      jump(tag_76)\n    tag_77:\n    tag_73:\n      pop\n      swap1\n      pop\n      tag_78\n      swap2\n      swap1\n      tag_79\n      jump\t// in\n    tag_78:\n      pop\n      swap1\n      jump\t// out\n    tag_79:\n    tag_80:\n      dup1\n      dup3\n      gt\n      iszero\n      tag_81\n      jumpi\n      0x00\n      dup2\n      0x00\n      swap1\n      sstore\n      pop\n      0x01\n      add\n      jump(tag_80)\n    tag_81:\n      pop\n      swap1\n      jump\t// out\n        /* \"#utility.yul\":7:82   */\n    tag_82:\n        /* \"#utility.yul\":40:46   */\n      0x00\n        /* \"#utility.yul\":73:75   */\n      0x40\n        /* \"#utility.yul\":67:76   */\n      mload\n        /* \"#utility.yul\":57:76   */\n      swap1\n      pop\n        /* \"#utility.yul\":7:82   */\n      swap1\n      jump\t// out\n        /* \"#utility.yul\":88:205   */\n    tag_83:\n        /* \"#utility.yul\":197:198   */\n      0x00\n        /* \"#utility.yul\":194:195   */\n      dup1\n        /* \"#utility.yul\":187:199   */\n      revert\n        /* \"#utility.yul\":211:328   */\n    tag_84:\n        /* \"#utility.yul\":320:321   */\n      0x00\n        /* \"#utility.yul\":317:318   */\n      dup1\n        /* \"#utility.yul\":310:322   */\n      revert\n        /* \"#utility.yul\":334:411   */\n    tag_85:\n        /* \"#utility.yul\":371:378   */\n      0x00\n        /* \"#utility.yul\":400:405   */\n      dup2\n        /* \"#utility.yul\":389:405   */\n      swap1\n      pop\n        /* \"#utility.yul\":334:411   */\n      swap2\n      swap1\n      pop\n      jump\t// out\n        /* \"#utility.yul\":417:539   */\n    tag_86:\n        /* \"#utility.yul\":490:514   */\n      tag_121\n        /* \"#utility.yul\":508:513   */\n      dup2\n        /* \"#utility.yul\":490:514   */\n      tag_85\n      jump\t// in\n    tag_121:\n        /* \"#utility.yul\":483:488   */\n      dup2\n        /* \"#utility.yul\":480:515   */\n      eq\n        /* \"#utility.yul\":470:533   */\n      tag_122\n      jumpi\n        /* \"#utility.yul\":529:530   */\n      0x00\n        /* \"#utility.yul\":526:527   */\n      dup1\n        /* \"#utility.yul\":519:531   */\n      revert\n        /* \"#utility.yul\":470:533   */\n    tag_122:\n        /* \"#utility.yul\":417:539   */\n      pop\n      jump\t// out\n        /* \"#utility.yul\":545:684   */\n    tag_87:\n        /* \"#utility.yul\":591:596   */\n      0x00\n        /* \"#utility.yul\":629:635   */\n      dup2\n        /* \"#utility.yul\":616:636   */\n      calldataload\n        /* \"#utility.yul\":607:636   */\n      swap1\n      pop\n        /* \"#utility.yul\":645:678   */\n      tag_124\n        /* \"#utility.yul\":672:677   */\n      dup2\n        /* \"#utility.yul\":645:678   */\n      tag_86\n      jump\t// in\n    tag_124:\n        /* \"#utility.yul\":545:684   */\n      swap3\n      swap2\n      pop\n      pop\n      jump\t// out\n        /* \"#utility.yul\":690:1019   */\n    tag_8:\n        /* \"#utility.yul\":749:755   */\n      0x00\n        /* \"#utility.yul\":798:800   */\n      0x20\n        /* \"#utility.yul\":786:795   */\n      dup3\n        /* \"#utility.yul\":777:784   */\n      dup5\n        /* \"#utility.yul\":773:796   */\n      sub\n        /* \"#utility.yul\":769:801   */\n      slt\n        /* \"#utility.yul\":766:885   */\n      iszero\n      tag_126\n      jumpi\n        /* \"#utility.yul\":804:883   */\n      tag_127\n      tag_83\n      jump\t// in\n    tag_127:\n        /* \"#utility.yul\":766:885   */\n    tag_126:\n        /* \"#utility.yul\":924:925   */\n      0x00\n        /* \"#utility.yul\":949:1002   */\n      tag_128\n        /* \"#utility.yul\":994:1001   */\n      dup5\n        /* \"#utility.yul\":985:991   */\n      dup3\n        /* \"#utility.yul\":974:983   */\n      dup6\n        /* \"#utility.yul\":970:992   */\n      add\n        /* \"#utility.yul\":949:1002   */\n      tag_87\n      jump\t// in\n    tag_128:\n        /* \"#utility.yul\":939:1002   */\n      swap2\n      pop\n        /* \"#utility.yul\":895:1012   */\n      pop\n        /* \"#utility.yul\":690:1019   */\n      swap3\n      swap2\n      pop\n      pop\n      jump\t// out\n        /* \"#utility.yul\":1025:1142   */\n    tag_88:\n        /* \"#utility.yul\":1134:1135   */\n      0x00\n        /* \"#utility.yul\":1131:1132   */\n      dup1\n        /* \"#utility.yul\":1124:1136   */\n      revert\n        /* \"#utility.yul\":1148:1265   */\n    tag_89:\n        /* \"#utility.yul\":1257:1258   */\n      0x00\n        /* \"#utility.yul\":1254:1255   */\n      dup1\n        /* \"#utility.yul\":1247:1259   */\n      revert\n        /* \"#utility.yul\":1271:1373   */\n    tag_90:\n        /* \"#utility.yul\":1312:1318   */\n      0x00\n        /* \"#utility.yul\":1363:1365   */\n      0x1f\n        /* \"#utility.yul\":1359:1366   */\n      not\n        /* \"#utility.yul\":1354:1356   */\n      0x1f\n        /* \"#utility.yul\":1347:1352   */\n      dup4\n        /* \"#utility.yul\":1343:1357   */\n      add\n        /* \"#utility.yul\":1339:1367   */\n      and\n        /* \"#utility.yul\":1329:1367   */\n      swap1\n      pop\n        /* \"#utility.yul\":1271:1373   */\n      swap2\n      swap1\n      pop\n      jump\t// out\n        /* \"#utility.yul\":1379:1559   */\n    tag_91:\n        /* \"#utility.yul\":1427:1504   */\n      0x4e487b7100000000000000000000000000000000000000000000000000000000\n        /* \"#utility.yul\":1424:1425   */\n      0x00\n        /* \"#utility.yul\":1417:1505   */\n      mstore\n        /* \"#utility.yul\":1524:1528   */\n      0x41\n        /* \"#utility.yul\":1521:1522   */\n      0x04\n        /* \"#utility.yul\":1514:1529   */\n      mstore\n        /* \"#utility.yul\":1548:1552   */\n      0x24\n        /* \"#utility.yul\":1545:1546   */\n      0x00\n        /* \"#utility.yul\":1538:1553   */\n      revert\n        /* \"#utility.yul\":1565:1846   */\n    tag_92:\n        /* \"#utility.yul\":1648:1675   */\n      tag_134\n        /* \"#utility.yul\":1670:1674   */\n      dup3\n        /* \"#utility.yul\":1648:1675   */\n      tag_90\n      jump\t// in\n    tag_134:\n        /* \"#utility.yul\":1640:1646   */\n      dup2\n        /* \"#utility.yul\":1636:1676   */\n      add\n        /* \"#utility.yul\":1778:1784   */\n      dup2\n        /* \"#utility.yul\":1766:1776   */\n      dup2\n        /* \"#utility.yul\":1763:1785   */\n      lt\n        /* \"#utility.yul\":1742:1760   */\n      0xffffffffffffffff\n        /* \"#utility.yul\":1730:1740   */\n      dup3\n        /* \"#utility.yul\":1727:1761   */\n      gt\n        /* \"#utility.yul\":1724:1786   */\n      or\n        /* \"#utility.yul\":1721:1809   */\n      iszero\n      tag_135\n      jumpi\n        /* \"#utility.yul\":1789:1807   */\n      tag_136\n      tag_91\n      jump\t// in\n    tag_136:\n        /* \"#utility.yul\":1721:1809   */\n    tag_135:\n        /* \"#utility.yul\":1829:1839   */\n      dup1\n        /* \"#utility.yul\":1825:1827   */\n      0x40\n        /* \"#utility.yul\":1818:1840   */\n      mstore\n        /* \"#utility.yul\":1608:1846   */\n      pop\n        /* \"#utility.yul\":1565:1846   */\n      pop\n      pop\n      jump\t// out\n        /* \"#utility.yul\":1852:1981   */\n    tag_93:\n        /* \"#utility.yul\":1886:1892   */\n      0x00\n        /* \"#utility.yul\":1913:1933   */\n      tag_138\n      tag_82\n      jump\t// in\n    tag_138:\n        /* \"#utility.yul\":1903:1933   */\n      swap1\n      pop\n        /* \"#utility.yul\":1942:1975   */\n      tag_139\n        /* \"#utility.yul\":1970:1974   */\n      dup3\n        /* \"#utility.yul\":1962:1968   */\n      dup3\n        /* \"#utility.yul\":1942:1975   */\n      tag_92\n      jump\t// in\n    tag_139:\n        /* \"#utility.yul\":1852:1981   */\n      swap2\n      swap1\n      pop\n      jump\t// out\n        /* \"#utility.yul\":1987:2295   */\n    tag_94:\n        /* \"#utility.yul\":2049:2053   */\n      0x00\n        /* \"#utility.yul\":2139:2157   */\n      0xffffffffffffffff\n        /* \"#utility.yul\":2131:2137   */\n      dup3\n        /* \"#utility.yul\":2128:2158   */\n      gt\n        /* \"#utility.yul\":2125:2181   */\n      iszero\n      tag_141\n      jumpi\n        /* \"#utility.yul\":2161:2179   */\n      tag_142\n      tag_91\n      jump\t// in\n    tag_142:\n        /* \"#utility.yul\":2125:2181   */\n    tag_141:\n        /* \"#utility.yul\":2199:2228   */\n      tag_143\n        /* \"#utility.yul\":2221:2227   */\n      dup3\n        /* \"#utility.yul\":2199:2228   */\n      tag_90\n      jump\t// in\n    tag_143:\n        /* \"#utility.yul\":2191:2228   */\n      swap1\n      pop\n        /* \"#utility.yul\":2283:2287   */\n      0x20\n        /* \"#utility.yul\":2277:2281   */\n      dup2\n        /* \"#utility.yul\":2273:2288   */\n      add\n        /* \"#utility.yul\":2265:2288   */\n      swap1\n      pop\n        /* \"#utility.yul\":1987:2295   */\n      swap2\n      swap1\n      pop\n      jump\t// out\n        /* \"#utility.yul\":2301:2455   */\n    tag_95:\n        /* \"#utility.yul\":2385:2391   */\n      dup3\n        /* \"#utility.yul\":2380:2383   */\n      dup2\n        /* \"#utility.yul\":2375:2378   */\n      dup4\n        /* \"#utility.yul\":2362:2392   */\n      calldatacopy\n        /* \"#utility.yul\":2447:2448   */\n      0x00\n        /* \"#utility.yul\":2438:2444   */\n      dup4\n        /* \"#utility.yul\":2433:2436   */\n      dup4\n        /* \"#utility.yul\":2429:2445   */\n      add\n        /* \"#utility.yul\":2422:2449   */\n      mstore\n        /* \"#utility.yul\":2301:2455   */\n      pop\n      pop\n      pop\n      jump\t// out\n        /* \"#utility.yul\":2461:2873   */\n    tag_96:\n        /* \"#utility.yul\":2539:2544   */\n      0x00\n        /* \"#utility.yul\":2564:2630   */\n      tag_146\n        /* \"#utility.yul\":2580:2629   */\n      tag_147\n        /* \"#utility.yul\":2622:2628   */\n      dup5\n        /* \"#utility.yul\":2580:2629   */\n      tag_94\n      jump\t// in\n    tag_147:\n        /* \"#utility.yul\":2564:2630   */\n      tag_93\n      jump\t// in\n    tag_146:\n        /* \"#utility.yul\":2555:2630   */\n      swap1\n      pop\n        /* \"#utility.yul\":2653:2659   */\n      dup3\n        /* \"#utility.yul\":2646:2651   */\n      dup2\n        /* \"#utility.yul\":2639:2660   */\n      mstore\n        /* \"#utility.yul\":2691:2695   */\n      0x20\n        /* \"#utility.yul\":2684:2689   */\n      dup2\n        /* \"#utility.yul\":2680:2696   */\n      add\n        /* \"#utility.yul\":2729:2732   */\n      dup5\n        /* \"#utility.yul\":2720:2726   */\n      dup5\n        /* \"#utility.yul\":2715:2718   */\n      dup5\n        /* \"#utility.yul\":2711:2727   */\n      add\n        /* \"#utility.yul\":2708:2733   */\n      gt\n        /* \"#utility.yul\":2705:2817   */\n      iszero\n      tag_148\n      jumpi\n        /* \"#utility.yul\":2736:2815   */\n      tag_149\n      tag_89\n      jump\t// in\n    tag_149:\n        /* \"#utility.yul\":2705:2817   */\n    tag_148:\n        /* \"#utility.yul\":2826:2867   */\n      tag_150\n        /* \"#utility.yul\":2860:2866   */\n      dup5\n        /* \"#utility.yul\":2855:2858   */\n      dup3\n        /* \"#utility.yul\":2850:2853   */\n      dup6\n        /* \"#utility.yul\":2826:2867   */\n      tag_95\n      jump\t// in\n    tag_150:\n        /* \"#utility.yul\":2545:2873   */\n      pop\n        /* \"#utility.yul\":2461:2873   */\n      swap4\n      swap3\n      pop\n      pop\n      pop\n      jump\t// out\n        /* \"#utility.yul\":2893:3233   */\n    tag_97:\n        /* \"#utility.yul\":2949:2954   */\n      0x00\n        /* \"#utility.yul\":2998:3001   */\n      dup3\n        /* \"#utility.yul\":2991:2995   */\n      0x1f\n        /* \"#utility.yul\":2983:2989   */\n      dup4\n        /* \"#utility.yul\":2979:2996   */\n      add\n        /* \"#utility.yul\":2975:3002   */\n      slt\n        /* \"#utility.yul\":2965:3087   */\n      tag_152\n      jumpi\n        /* \"#utility.yul\":3006:3085   */\n      tag_153\n      tag_88\n      jump\t// in\n    tag_153:\n        /* \"#utility.yul\":2965:3087   */\n    tag_152:\n        /* \"#utility.yul\":3123:3129   */\n      dup2\n        /* \"#utility.yul\":3110:3130   */\n      calldataload\n        /* \"#utility.yul\":3148:3227   */\n      tag_154\n        /* \"#utility.yul\":3223:3226   */\n      dup5\n        /* \"#utility.yul\":3215:3221   */\n      dup3\n        /* \"#utility.yul\":3208:3212   */\n      0x20\n        /* \"#utility.yul\":3200:3206   */\n      dup7\n        /* \"#utility.yul\":3196:3213   */\n      add\n        /* \"#utility.yul\":3148:3227   */\n      tag_96\n      jump\t// in\n    tag_154:\n        /* \"#utility.yul\":3139:3227   */\n      swap2\n      pop\n        /* \"#utility.yul\":2955:3233   */\n      pop\n        /* \"#utility.yul\":2893:3233   */\n      swap3\n      swap2\n      pop\n      pop\n      jump\t// out\n        /* \"#utility.yul\":3239:3893   */\n    tag_13:\n        /* \"#utility.yul\":3317:3323   */\n      0x00\n        /* \"#utility.yul\":3325:3331   */\n      dup1\n        /* \"#utility.yul\":3374:3376   */\n      0x40\n        /* \"#utility.yul\":3362:3371   */\n      dup4\n        /* \"#utility.yul\":3353:3360   */\n      dup6\n        /* \"#utility.yul\":3349:3372   */\n      sub\n        /* \"#utility.yul\":3345:3377   */\n      slt\n        /* \"#utility.yul\":3342:3461   */\n      iszero\n      tag_156\n      jumpi\n        /* \"#utility.yul\":3380:3459   */\n      tag_157\n      tag_83\n      jump\t// in\n    tag_157:\n        /* \"#utility.yul\":3342:3461   */\n    tag_156:\n        /* \"#utility.yul\":3528:3529   */\n      0x00\n        /* \"#utility.yul\":3517:3526   */\n      dup4\n        /* \"#utility.yul\":3513:3530   */\n      add\n        /* \"#utility.yul\":3500:3531   */\n      calldataload\n        /* \"#utility.yul\":3558:3576   */\n      0xffffffffffffffff\n        /* \"#utility.yul\":3550:3556   */\n      dup2\n        /* \"#utility.yul\":3547:3577   */\n      gt\n        /* \"#utility.yul\":3544:3661   */\n      iszero\n      tag_158\n      jumpi\n        /* \"#utility.yul\":3580:3659   */\n      tag_159\n      tag_84\n      jump\t// in\n    tag_159:\n        /* \"#utility.yul\":3544:3661   */\n    tag_158:\n        /* \"#utility.yul\":3685:3748   */\n      tag_160\n        /* \"#utility.yul\":3740:3747   */\n      dup6\n        /* \"#utility.yul\":3731:3737   */\n      dup3\n        /* \"#utility.yul\":3720:3729   */\n      dup7\n        /* \"#utility.yul\":3716:3738   */\n      add\n        /* \"#utility.yul\":3685:3748   */\n      tag_97\n      jump\t// in\n    tag_160:\n        /* \"#utility.yul\":3675:3748   */\n      swap3\n      pop\n        /* \"#utility.yul\":3471:3758   */\n      pop\n        /* \"#utility.yul\":3797:3799   */\n      0x20\n        /* \"#utility.yul\":3823:3876   */\n      tag_161\n        /* \"#utility.yul\":3868:3875   */\n      dup6\n        /* \"#utility.yul\":3859:3865   */\n      dup3\n        /* \"#utility.yul\":3848:3857   */\n      dup7\n        /* \"#utility.yul\":3844:3866   */\n      add\n        /* \"#utility.yul\":3823:3876   */\n      tag_87\n      jump\t// in\n    tag_161:\n        /* \"#utility.yul\":3813:3876   */\n      swap2\n      pop\n        /* \"#utility.yul\":3768:3886   */\n      pop\n        /* \"#utility.yul\":3239:3893   */\n      swap3\n      pop\n      swap3\n      swap1\n      pop\n      jump\t// out\n        /* \"#utility.yul\":3899:3998   */\n    tag_98:\n        /* \"#utility.yul\":3951:3957   */\n      0x00\n        /* \"#utility.yul\":3985:3990   */\n      dup2\n        /* \"#utility.yul\":3979:3991   */\n      mload\n        /* \"#utility.yul\":3969:3991   */\n      swap1\n      pop\n        /* \"#utility.yul\":3899:3998   */\n      swap2\n      swap1\n      pop\n      jump\t// out\n        /* \"#utility.yul\":4004:4173   */\n    tag_99:\n        /* \"#utility.yul\":4088:4099   */\n      0x00\n        /* \"#utility.yul\":4122:4128   */\n      dup3\n        /* \"#utility.yul\":4117:4120   */\n      dup3\n        /* \"#utility.yul\":4110:4129   */\n      mstore\n        /* \"#utility.yul\":4162:4166   */\n      0x20\n        /* \"#utility.yul\":4157:4160   */\n      dup3\n        /* \"#utility.yul\":4153:4167   */\n      add\n        /* \"#utility.yul\":4138:4167   */\n      swap1\n      pop\n        /* \"#utility.yul\":4004:4173   */\n      swap3\n      swap2\n      pop\n      pop\n      jump\t// out\n        /* \"#utility.yul\":4179:4486   */\n    tag_100:\n        /* \"#utility.yul\":4247:4248   */\n      0x00\n        /* \"#utility.yul\":4257:4370   */\n    tag_165:\n        /* \"#utility.yul\":4271:4277   */\n      dup4\n        /* \"#utility.yul\":4268:4269   */\n      dup2\n        /* \"#utility.yul\":4265:4278   */\n      lt\n        /* \"#utility.yul\":4257:4370   */\n      iszero\n      tag_167\n      jumpi\n        /* \"#utility.yul\":4356:4357   */\n      dup1\n        /* \"#utility.yul\":4351:4354   */\n      dup3\n        /* \"#utility.yul\":4347:4358   */\n      add\n        /* \"#utility.yul\":4341:4359   */\n      mload\n        /* \"#utility.yul\":4337:4338   */\n      dup2\n        /* \"#utility.yul\":4332:4335   */\n      dup5\n        /* \"#utility.yul\":4328:4339   */\n      add\n        /* \"#utility.yul\":4321:4360   */\n      mstore\n        /* \"#utility.yul\":4293:4295   */\n      0x20\n        /* \"#utility.yul\":4290:4291   */\n      dup2\n        /* \"#utility.yul\":4286:4296   */\n      add\n        /* \"#utility.yul\":4281:4296   */\n      swap1\n      pop\n        /* \"#utility.yul\":4257:4370   */\n      jump(tag_165)\n    tag_167:\n        /* \"#utility.yul\":4388:4394   */\n      dup4\n        /* \"#utility.yul\":4385:4386   */\n      dup2\n        /* \"#utility.yul\":4382:4395   */\n      gt\n        /* \"#utility.yul\":4379:4480   */\n      iszero\n      tag_168\n      jumpi\n        /* \"#utility.yul\":4468:4469   */\n      0x00\n        /* \"#utility.yul\":4459:4465   */\n      dup5\n        /* \"#utility.yul\":4454:4457   */\n      dup5\n        /* \"#utility.yul\":4450:4466   */\n      add\n        /* \"#utility.yul\":4443:4470   */\n      mstore\n        /* \"#utility.yul\":4379:4480   */\n    tag_168:\n        /* \"#utility.yul\":4228:4486   */\n      pop\n        /* \"#utility.yul\":4179:4486   */\n      pop\n      pop\n      pop\n      jump\t// out\n        /* \"#utility.yul\":4492:4856   */\n    tag_101:\n        /* \"#utility.yul\":4580:4583   */\n      0x00\n        /* \"#utility.yul\":4608:4647   */\n      tag_170\n        /* \"#utility.yul\":4641:4646   */\n      dup3\n        /* \"#utility.yul\":4608:4647   */\n      tag_98\n      jump\t// in\n    tag_170:\n        /* \"#utility.yul\":4663:4734   */\n      tag_171\n        /* \"#utility.yul\":4727:4733   */\n      dup2\n        /* \"#utility.yul\":4722:4725   */\n      dup6\n        /* \"#utility.yul\":4663:4734   */\n      tag_99\n      jump\t// in\n    tag_171:\n        /* \"#utility.yul\":4656:4734   */\n      swap4\n      pop\n        /* \"#utility.yul\":4743:4795   */\n      tag_172\n        /* \"#utility.yul\":4788:4794   */\n      dup2\n        /* \"#utility.yul\":4783:4786   */\n      dup6\n        /* \"#utility.yul\":4776:4780   */\n      0x20\n        /* \"#utility.yul\":4769:4774   */\n      dup7\n        /* \"#utility.yul\":4765:4781   */\n      add\n        /* \"#utility.yul\":4743:4795   */\n      tag_100\n      jump\t// in\n    tag_172:\n        /* \"#utility.yul\":4820:4849   */\n      tag_173\n        /* \"#utility.yul\":4842:4848   */\n      dup2\n        /* \"#utility.yul\":4820:4849   */\n      tag_90\n      jump\t// in\n    tag_173:\n        /* \"#utility.yul\":4815:4818   */\n      dup5\n        /* \"#utility.yul\":4811:4850   */\n      add\n        /* \"#utility.yul\":4804:4850   */\n      swap2\n      pop\n        /* \"#utility.yul\":4584:4856   */\n      pop\n        /* \"#utility.yul\":4492:4856   */\n      swap3\n      swap2\n      pop\n      pop\n      jump\t// out\n        /* \"#utility.yul\":4862:4980   */\n    tag_102:\n        /* \"#utility.yul\":4949:4973   */\n      tag_175\n        /* \"#utility.yul\":4967:4972   */\n      dup2\n        /* \"#utility.yul\":4949:4973   */\n      tag_85\n      jump\t// in\n    tag_175:\n        /* \"#utility.yul\":4944:4947   */\n      dup3\n        /* \"#utility.yul\":4937:4974   */\n      mstore\n        /* \"#utility.yul\":4862:4980   */\n      pop\n      pop\n      jump\t// out\n        /* \"#utility.yul\":4986:5166   */\n    tag_31:\n        /* \"#utility.yul\":5034:5111   */\n      0x4e487b7100000000000000000000000000000000000000000000000000000000\n        /* \"#utility.yul\":5031:5032   */\n      0x00\n        /* \"#utility.yul\":5024:5112   */\n      mstore\n        /* \"#utility.yul\":5131:5135   */\n      0x21\n        /* \"#utility.yul\":5128:5129   */\n      0x04\n        /* \"#utility.yul\":5121:5136   */\n      mstore\n        /* \"#utility.yul\":5155:5159   */\n      0x24\n        /* \"#utility.yul\":5152:5153   */\n      0x00\n        /* \"#utility.yul\":5145:5160   */\n      revert\n        /* \"#utility.yul\":5172:5295   */\n    tag_103:\n        /* \"#utility.yul\":5263:5264   */\n      0x03\n        /* \"#utility.yul\":5256:5261   */\n      dup2\n        /* \"#utility.yul\":5253:5265   */\n      lt\n        /* \"#utility.yul\":5243:5289   */\n      tag_178\n      jumpi\n        /* \"#utility.yul\":5269:5287   */\n      tag_179\n      tag_31\n      jump\t// in\n    tag_179:\n        /* \"#utility.yul\":5243:5289   */\n    tag_178:\n        /* \"#utility.yul\":5172:5295   */\n      pop\n      jump\t// out\n        /* \"#utility.yul\":5301:5448   */\n    tag_104:\n        /* \"#utility.yul\":5356:5363   */\n      0x00\n        /* \"#utility.yul\":5385:5390   */\n      dup2\n        /* \"#utility.yul\":5374:5390   */\n      swap1\n      pop\n        /* \"#utility.yul\":5391:5442   */\n      tag_181\n        /* \"#utility.yul\":5436:5441   */\n      dup3\n        /* \"#utility.yul\":5391:5442   */\n      tag_103\n      jump\t// in\n    tag_181:\n        /* \"#utility.yul\":5301:5448   */\n      swap2\n      swap1\n      pop\n      jump\t// out\n        /* \"#utility.yul\":5454:5601   */\n    tag_105:\n        /* \"#utility.yul\":5520:5529   */\n      0x00\n        /* \"#utility.yul\":5553:5595   */\n      tag_183\n        /* \"#utility.yul\":5589:5594   */\n      dup3\n        /* \"#utility.yul\":5553:5595   */\n      tag_104\n      jump\t// in\n    tag_183:\n        /* \"#utility.yul\":5540:5595   */\n      swap1\n      pop\n        /* \"#utility.yul\":5454:5601   */\n      swap2\n      swap1\n      pop\n      jump\t// out\n        /* \"#utility.yul\":5607:5770   */\n    tag_106:\n        /* \"#utility.yul\":5710:5763   */\n      tag_185\n        /* \"#utility.yul\":5757:5762   */\n      dup2\n        /* \"#utility.yul\":5710:5763   */\n      tag_105\n      jump\t// in\n    tag_185:\n        /* \"#utility.yul\":5705:5708   */\n      dup3\n        /* \"#utility.yul\":5698:5764   */\n      mstore\n        /* \"#utility.yul\":5607:5770   */\n      pop\n      pop\n      jump\t// out\n        /* \"#utility.yul\":5776:6341   */\n    tag_20:\n        /* \"#utility.yul\":5961:5965   */\n      0x00\n        /* \"#utility.yul\":5999:6001   */\n      0x60\n        /* \"#utility.yul\":5988:5997   */\n      dup3\n        /* \"#utility.yul\":5984:6002   */\n      add\n        /* \"#utility.yul\":5976:6002   */\n      swap1\n      pop\n        /* \"#utility.yul\":6048:6057   */\n      dup2\n        /* \"#utility.yul\":6042:6046   */\n      dup2\n        /* \"#utility.yul\":6038:6058   */\n      sub\n        /* \"#utility.yul\":6034:6035   */\n      0x00\n        /* \"#utility.yul\":6023:6032   */\n      dup4\n        /* \"#utility.yul\":6019:6036   */\n      add\n        /* \"#utility.yul\":6012:6059   */\n      mstore\n        /* \"#utility.yul\":6076:6154   */\n      tag_187\n        /* \"#utility.yul\":6149:6153   */\n      dup2\n        /* \"#utility.yul\":6140:6146   */\n      dup7\n        /* \"#utility.yul\":6076:6154   */\n      tag_101\n      jump\t// in\n    tag_187:\n        /* \"#utility.yul\":6068:6154   */\n      swap1\n      pop\n        /* \"#utility.yul\":6164:6236   */\n      tag_188\n        /* \"#utility.yul\":6232:6234   */\n      0x20\n        /* \"#utility.yul\":6221:6230   */\n      dup4\n        /* \"#utility.yul\":6217:6235   */\n      add\n        /* \"#utility.yul\":6208:6214   */\n      dup6\n        /* \"#utility.yul\":6164:6236   */\n      tag_102\n      jump\t// in\n    tag_188:\n        /* \"#utility.yul\":6246:6334   */\n      tag_189\n        /* \"#utility.yul\":6330:6332   */\n      0x40\n        /* \"#utility.yul\":6319:6328   */\n      dup4\n        /* \"#utility.yul\":6315:6333   */\n      add\n        /* \"#utility.yul\":6306:6312   */\n      dup5\n        /* \"#utility.yul\":6246:6334   */\n      tag_106\n      jump\t// in\n    tag_189:\n        /* \"#utility.yul\":5776:6341   */\n      swap5\n      swap4\n      pop\n      pop\n      pop\n      pop\n      jump\t// out\n        /* \"#utility.yul\":6347:6525   */\n    tag_107:\n        /* \"#utility.yul\":6487:6517   */\n      0x4f6e6c79206578616374207061796d656e747320616363657074656400000000\n        /* \"#utility.yul\":6483:6484   */\n      0x00\n        /* \"#utility.yul\":6475:6481   */\n      dup3\n        /* \"#utility.yul\":6471:6485   */\n      add\n        /* \"#utility.yul\":6464:6518   */\n      mstore\n        /* \"#utility.yul\":6347:6525   */\n      pop\n      jump\t// out\n        /* \"#utility.yul\":6531:6897   */\n    tag_108:\n        /* \"#utility.yul\":6673:6676   */\n      0x00\n        /* \"#utility.yul\":6694:6761   */\n      tag_192\n        /* \"#utility.yul\":6758:6760   */\n      0x1c\n        /* \"#utility.yul\":6753:6756   */\n      dup4\n        /* \"#utility.yul\":6694:6761   */\n      tag_99\n      jump\t// in\n    tag_192:\n        /* \"#utility.yul\":6687:6761   */\n      swap2\n      pop\n        /* \"#utility.yul\":6770:6863   */\n      tag_193\n        /* \"#utility.yul\":6859:6862   */\n      dup3\n        /* \"#utility.yul\":6770:6863   */\n      tag_107\n      jump\t// in\n    tag_193:\n        /* \"#utility.yul\":6888:6890   */\n      0x20\n        /* \"#utility.yul\":6883:6886   */\n      dup3\n        /* \"#utility.yul\":6879:6891   */\n      add\n        /* \"#utility.yul\":6872:6891   */\n      swap1\n      pop\n        /* \"#utility.yul\":6531:6897   */\n      swap2\n      swap1\n      pop\n      jump\t// out\n        /* \"#utility.yul\":6903:7322   */\n    tag_28:\n        /* \"#utility.yul\":7069:7073   */\n      0x00\n        /* \"#utility.yul\":7107:7109   */\n      0x20\n        /* \"#utility.yul\":7096:7105   */\n      dup3\n        /* \"#utility.yul\":7092:7110   */\n      add\n        /* \"#utility.yul\":7084:7110   */\n      swap1\n      pop\n        /* \"#utility.yul\":7156:7165   */\n      dup2\n        /* \"#utility.yul\":7150:7154   */\n      dup2\n        /* \"#utility.yul\":7146:7166   */\n      sub\n        /* \"#utility.yul\":7142:7143   */\n      0x00\n        /* \"#utility.yul\":7131:7140   */\n      dup4\n        /* \"#utility.yul\":7127:7144   */\n      add\n        /* \"#utility.yul\":7120:7167   */\n      mstore\n        /* \"#utility.yul\":7184:7315   */\n      tag_195\n        /* \"#utility.yul\":7310:7314   */\n      dup2\n        /* \"#utility.yul\":7184:7315   */\n      tag_108\n      jump\t// in\n    tag_195:\n        /* \"#utility.yul\":7176:7315   */\n      swap1\n      pop\n        /* \"#utility.yul\":6903:7322   */\n      swap2\n      swap1\n      pop\n      jump\t// out\n        /* \"#utility.yul\":7328:7562   */\n    tag_109:\n        /* \"#utility.yul\":7468:7502   */\n      0x546865206974656d20697320616c7265616479206675727468657220696e2074\n        /* \"#utility.yul\":7464:7465   */\n      0x00\n        /* \"#utility.yul\":7456:7462   */\n      dup3\n        /* \"#utility.yul\":7452:7466   */\n      add\n        /* \"#utility.yul\":7445:7503   */\n      mstore\n        /* \"#utility.yul\":7537:7554   */\n      0x686520737570706c7920636861696e0000000000000000000000000000000000\n        /* \"#utility.yul\":7532:7534   */\n      0x20\n        /* \"#utility.yul\":7524:7530   */\n      dup3\n        /* \"#utility.yul\":7520:7535   */\n      add\n        /* \"#utility.yul\":7513:7555   */\n      mstore\n        /* \"#utility.yul\":7328:7562   */\n      pop\n      jump\t// out\n        /* \"#utility.yul\":7568:7934   */\n    tag_110:\n        /* \"#utility.yul\":7710:7713   */\n      0x00\n        /* \"#utility.yul\":7731:7798   */\n      tag_198\n        /* \"#utility.yul\":7795:7797   */\n      0x2f\n        /* \"#utility.yul\":7790:7793   */\n      dup4\n        /* \"#utility.yul\":7731:7798   */\n      tag_99\n      jump\t// in\n    tag_198:\n        /* \"#utility.yul\":7724:7798   */\n      swap2\n      pop\n        /* \"#utility.yul\":7807:7900   */\n      tag_199\n        /* \"#utility.yul\":7896:7899   */\n      dup3\n        /* \"#utility.yul\":7807:7900   */\n      tag_109\n      jump\t// in\n    tag_199:\n        /* \"#utility.yul\":7925:7927   */\n      0x40\n        /* \"#utility.yul\":7920:7923   */\n      dup3\n        /* \"#utility.yul\":7916:7928   */\n      add\n        /* \"#utility.yul\":7909:7928   */\n      swap1\n      pop\n        /* \"#utility.yul\":7568:7934   */\n      swap2\n      swap1\n      pop\n      jump\t// out\n        /* \"#utility.yul\":7940:8359   */\n    tag_36:\n        /* \"#utility.yul\":8106:8110   */\n      0x00\n        /* \"#utility.yul\":8144:8146   */\n      0x20\n        /* \"#utility.yul\":8133:8142   */\n      dup3\n        /* \"#utility.yul\":8129:8147   */\n      add\n        /* \"#utility.yul\":8121:8147   */\n      swap1\n      pop\n        /* \"#utility.yul\":8193:8202   */\n      dup2\n        /* \"#utility.yul\":8187:8191   */\n      dup2\n        /* \"#utility.yul\":8183:8203   */\n      sub\n        /* \"#utility.yul\":8179:8180   */\n      0x00\n        /* \"#utility.yul\":8168:8177   */\n      dup4\n        /* \"#utility.yul\":8164:8181   */\n      add\n        /* \"#utility.yul\":8157:8204   */\n      mstore\n        /* \"#utility.yul\":8221:8352   */\n      tag_201\n        /* \"#utility.yul\":8347:8351   */\n      dup2\n        /* \"#utility.yul\":8221:8352   */\n      tag_110\n      jump\t// in\n    tag_201:\n        /* \"#utility.yul\":8213:8352   */\n      swap1\n      pop\n        /* \"#utility.yul\":7940:8359   */\n      swap2\n      swap1\n      pop\n      jump\t// out\n        /* \"#utility.yul\":8365:8697   */\n    tag_42:\n        /* \"#utility.yul\":8486:8490   */\n      0x00\n        /* \"#utility.yul\":8524:8526   */\n      0x40\n        /* \"#utility.yul\":8513:8522   */\n      dup3\n        /* \"#utility.yul\":8509:8527   */\n      add\n        /* \"#utility.yul\":8501:8527   */\n      swap1\n      pop\n        /* \"#utility.yul\":8537:8608   */\n      tag_203\n        /* \"#utility.yul\":8605:8606   */\n      0x00\n        /* \"#utility.yul\":8594:8603   */\n      dup4\n        /* \"#utility.yul\":8590:8607   */\n      add\n        /* \"#utility.yul\":8581:8587   */\n      dup6\n        /* \"#utility.yul\":8537:8608   */\n      tag_102\n      jump\t// in\n    tag_203:\n        /* \"#utility.yul\":8618:8690   */\n      tag_204\n        /* \"#utility.yul\":8686:8688   */\n      0x20\n        /* \"#utility.yul\":8675:8684   */\n      dup4\n        /* \"#utility.yul\":8671:8689   */\n      add\n        /* \"#utility.yul\":8662:8668   */\n      dup5\n        /* \"#utility.yul\":8618:8690   */\n      tag_102\n      jump\t// in\n    tag_204:\n        /* \"#utility.yul\":8365:8697   */\n      swap4\n      swap3\n      pop\n      pop\n      pop\n      jump\t// out\n        /* \"#utility.yul\":8703:8883   */\n    tag_111:\n        /* \"#utility.yul\":8751:8828   */\n      0x4e487b7100000000000000000000000000000000000000000000000000000000\n        /* \"#utility.yul\":8748:8749   */\n      0x00\n        /* \"#utility.yul\":8741:8829   */\n      mstore\n        /* \"#utility.yul\":8848:8852   */\n      0x11\n        /* \"#utility.yul\":8845:8846   */\n      0x04\n        /* \"#utility.yul\":8838:8853   */\n      mstore\n        /* \"#utility.yul\":8872:8876   */\n      0x24\n        /* \"#utility.yul\":8869:8870   */\n      0x00\n        /* \"#utility.yul\":8862:8877   */\n      revert\n        /* \"#utility.yul\":8889:9122   */\n    tag_52:\n        /* \"#utility.yul\":8928:8931   */\n      0x00\n        /* \"#utility.yul\":8951:8975   */\n      tag_207\n        /* \"#utility.yul\":8969:8974   */\n      dup3\n        /* \"#utility.yul\":8951:8975   */\n      tag_85\n      jump\t// in\n    tag_207:\n        /* \"#utility.yul\":8942:8975   */\n      swap2\n      pop\n        /* \"#utility.yul\":8997:9063   */\n      0xffffffffffffffffffffffffffffffffffffffffffffffffffffffffffffffff\n        /* \"#utility.yul\":8990:8995   */\n      dup3\n        /* \"#utility.yul\":8987:9064   */\n      sub\n        /* \"#utility.yul\":8984:9087   */\n      tag_208\n      jumpi\n        /* \"#utility.yul\":9067:9085   */\n      tag_209\n      tag_111\n      jump\t// in\n    tag_209:\n        /* \"#utility.yul\":8984:9087   */\n    tag_208:\n        /* \"#utility.yul\":9114:9115   */\n      0x01\n        /* \"#utility.yul\":9107:9112   */\n      dup3\n        /* \"#utility.yul\":9103:9116   */\n      add\n        /* \"#utility.yul\":9096:9116   */\n      swap1\n      pop\n        /* \"#utility.yul\":8889:9122   */\n      swap2\n      swap1\n      pop\n      jump\t// out\n        /* \"#utility.yul\":9128:9308   */\n    tag_112:\n        /* \"#utility.yul\":9176:9253   */\n      0x4e487b7100000000000000000000000000000000000000000000000000000000\n        /* \"#utility.yul\":9173:9174   */\n      0x00\n        /* \"#utility.yul\":9166:9254   */\n      mstore\n        /* \"#utility.yul\":9273:9277   */\n      0x22\n        /* \"#utility.yul\":9270:9271   */\n      0x04\n        /* \"#utility.yul\":9263:9278   */\n      mstore\n        /* \"#utility.yul\":9297:9301   */\n      0x24\n        /* \"#utility.yul\":9294:9295   */\n      0x00\n        /* \"#utility.yul\":9287:9302   */\n      revert\n        /* \"#utility.yul\":9314:9634   */\n    tag_54:\n        /* \"#utility.yul\":9358:9364   */\n      0x00\n        /* \"#utility.yul\":9395:9396   */\n      0x02\n        /* \"#utility.yul\":9389:9393   */\n      dup3\n        /* \"#utility.yul\":9385:9397   */\n      div\n        /* \"#utility.yul\":9375:9397   */\n      swap1\n      pop\n        /* \"#utility.yul\":9442:9443   */\n      0x01\n        /* \"#utility.yul\":9436:9440   */\n      dup3\n        /* \"#utility.yul\":9432:9444   */\n      and\n        /* \"#utility.yul\":9463:9481   */\n      dup1\n        /* \"#utility.yul\":9453:9534   */\n      tag_212\n      jumpi\n        /* \"#utility.yul\":9519:9523   */\n      0x7f\n        /* \"#utility.yul\":9511:9517   */\n      dup3\n        /* \"#utility.yul\":9507:9524   */\n      and\n        /* \"#utility.yul\":9497:9524   */\n      swap2\n      pop\n        /* \"#utility.yul\":9453:9534   */\n    tag_212:\n        /* \"#utility.yul\":9581:9583   */\n      0x20\n        /* \"#utility.yul\":9573:9579   */\n      dup3\n        /* \"#utility.yul\":9570:9584   */\n      lt\n        /* \"#utility.yul\":9550:9568   */\n      dup2\n        /* \"#utility.yul\":9547:9585   */\n      sub\n        /* \"#utility.yul\":9544:9628   */\n      tag_213\n      jumpi\n        /* \"#utility.yul\":9600:9618   */\n      tag_214\n      tag_112\n      jump\t// in\n    tag_214:\n        /* \"#utility.yul\":9544:9628   */\n    tag_213:\n        /* \"#utility.yul\":9365:9634   */\n      pop\n        /* \"#utility.yul\":9314:9634   */\n      swap2\n      swap1\n      pop\n      jump\t// out\n        /* \"#utility.yul\":9640:9882   */\n    tag_113:\n        /* \"#utility.yul\":9780:9814   */\n      0x546865206974656d20697320696e206120646966666572656e7420706f736974\n        /* \"#utility.yul\":9776:9777   */\n      0x00\n        /* \"#utility.yul\":9768:9774   */\n      dup3\n        /* \"#utility.yul\":9764:9778   */\n      add\n        /* \"#utility.yul\":9757:9815   */\n      mstore\n        /* \"#utility.yul\":9849:9874   */\n      0x696f6e20696e2074686520737570706c7920636861696e000000000000000000\n        /* \"#utility.yul\":9844:9846   */\n      0x20\n        /* \"#utility.yul\":9836:9842   */\n      dup3\n        /* \"#utility.yul\":9832:9847   */\n      add\n        /* \"#utility.yul\":9825:9875   */\n      mstore\n        /* \"#utility.yul\":9640:9882   */\n      pop\n      jump\t// out\n        /* \"#utility.yul\":9888:10254   */\n    tag_114:\n        /* \"#utility.yul\":10030:10033   */\n      0x00\n        /* \"#utility.yul\":10051:10118   */\n      tag_217\n        /* \"#utility.yul\":10115:10117   */\n      0x37\n        /* \"#utility.yul\":10110:10113   */\n      dup4\n        /* \"#utility.yul\":10051:10118   */\n      tag_99\n      jump\t// in\n    tag_217:\n        /* \"#utility.yul\":10044:10118   */\n      swap2\n      pop\n        /* \"#utility.yul\":10127:10220   */\n      tag_218\n        /* \"#utility.yul\":10216:10219   */\n      dup3\n        /* \"#utility.yul\":10127:10220   */\n      tag_113\n      jump\t// in\n    tag_218:\n        /* \"#utility.yul\":10245:10247   */\n      0x40\n        /* \"#utility.yul\":10240:10243   */\n      dup3\n        /* \"#utility.yul\":10236:10248   */\n      add\n        /* \"#utility.yul\":10229:10248   */\n      swap1\n      pop\n        /* \"#utility.yul\":9888:10254   */\n      swap2\n      swap1\n      pop\n      jump\t// out\n        /* \"#utility.yul\":10260:10679   */\n    tag_66:\n        /* \"#utility.yul\":10426:10430   */\n      0x00\n        /* \"#utility.yul\":10464:10466   */\n      0x20\n        /* \"#utility.yul\":10453:10462   */\n      dup3\n        /* \"#utility.yul\":10449:10467   */\n      add\n        /* \"#utility.yul\":10441:10467   */\n      swap1\n      pop\n        /* \"#utility.yul\":10513:10522   */\n      dup2\n        /* \"#utility.yul\":10507:10511   */\n      dup2\n        /* \"#utility.yul\":10503:10523   */\n      sub\n        /* \"#utility.yul\":10499:10500   */\n      0x00\n        /* \"#utility.yul\":10488:10497   */\n      dup4\n        /* \"#utility.yul\":10484:10501   */\n      add\n        /* \"#utility.yul\":10477:10524   */\n      mstore\n        /* \"#utility.yul\":10541:10672   */\n      tag_220\n        /* \"#utility.yul\":10667:10671   */\n      dup2\n        /* \"#utility.yul\":10541:10672   */\n      tag_114\n      jump\t// in\n    tag_220:\n        /* \"#utility.yul\":10533:10672   */\n      swap1\n      pop\n        /* \"#utility.yul\":10260:10679   */\n      swap2\n      swap1\n      pop\n      jump\t// out\n\n    auxdata: 0xa2646970667358221220bb9078c6ec1f75060babeacc0bdd551b3371681e148a254ebea38bacb48a2c6164736f6c634300080d0033\n}\n",
				"bytecode": {
					"linkReferences": {},
					"object": "608060405234801561001057600080fd5b50610c58806100206000396000f3fe60806040526004361061003f5760003560e01c8063800fb83f146100445780638c55174214610060578063bfb231d214610089578063cd31831e146100c8575b600080fd5b61005e60048036038101906100599190610677565b6100f1565b005b34801561006c57600080fd5b50610087600480360381019061008291906107ea565b61027f565b005b34801561009557600080fd5b506100b060048036038101906100ab9190610677565b610394565b6040516100bf93929190610954565b60405180910390f35b3480156100d457600080fd5b506100ef60048036038101906100ea9190610677565b610453565b005b346000808381526020019081526020016000206001015414610148576040517f08c379a000000000000000000000000000000000000000000000000000000000815260040161013f906109de565b60405180910390fd5b6000600281111561015c5761015b6108dd565b5b60008083815260200190815260200160002060020160009054906101000a900460ff166002811115610191576101906108dd565b5b146101d1576040517f08c379a00000000000000000000000000000000000000000000000000000000081526004016101c890610a70565b60405180910390fd5b600160008083815260200190815260200160002060020160006101000a81548160ff0219169083600281111561020a576102096108dd565b5b02179055507f8c198761ba3d324d155cbaf96f0ac38a531c085089e49106d95352535a1110c28160008084815260200190815260200160002060020160009054906101000a900460ff166002811115610266576102656108dd565b5b604051610274929190610a90565b60405180910390a150565b81600080600154815260200190815260200160002060000190805190602001906102aa92919061058a565b50806000806001548152602001908152602001600020600101819055506000806000600154815260200190815260200160002060020160006101000a81548160ff02191690836002811115610302576103016108dd565b5b02179055507f8c198761ba3d324d155cbaf96f0ac38a531c085089e49106d95352535a1110c2600154600080600154815260200190815260200160002060020160009054906101000a900460ff166002811115610362576103616108dd565b5b604051610370929190610a90565b60405180910390a16001600081548092919061038b90610ae8565b91905055505050565b60006020528060005260406000206000915090508060000180546103b790610b5f565b80601f01602080910402602001604051908101604052809291908181526020018280546103e390610b5f565b80156104305780601f1061040557610100808354040283529160200191610430565b820191906000526020600020905b81548152906001019060200180831161041357829003601f168201915b5050505050908060010154908060020160009054906101000a900460ff16905083565b60016002811115610467576104666108dd565b5b60008083815260200190815260200160002060020160009054906101000a900460ff16600281111561049c5761049b6108dd565b5b146104dc576040517f08c379a00000000000000000000000000000000000000000000000000000000081526004016104d390610c02565b60405180910390fd5b600260008083815260200190815260200160002060020160006101000a81548160ff02191690836002811115610515576105146108dd565b5b02179055507f8c198761ba3d324d155cbaf96f0ac38a531c085089e49106d95352535a1110c28160008084815260200190815260200160002060020160009054906101000a900460ff166002811115610571576105706108dd565b5b60405161057f929190610a90565b60405180910390a150565b82805461059690610b5f565b90600052602060002090601f0160209004810192826105b857600085556105ff565b82601f106105d157805160ff19168380011785556105ff565b828001600101855582156105ff579182015b828111156105fe5782518255916020019190600101906105e3565b5b50905061060c9190610610565b5090565b5b80821115610629576000816000905550600101610611565b5090565b6000604051905090565b600080fd5b600080fd5b6000819050919050565b61065481610641565b811461065f57600080fd5b50565b6000813590506106718161064b565b92915050565b60006020828403121561068d5761068c610637565b5b600061069b84828501610662565b91505092915050565b600080fd5b600080fd5b6000601f19601f8301169050919050565b7f4e487b7100000000000000000000000000000000000000000000000000000000600052604160045260246000fd5b6106f7826106ae565b810181811067ffffffffffffffff82111715610716576107156106bf565b5b80604052505050565b600061072961062d565b905061073582826106ee565b919050565b600067ffffffffffffffff821115610755576107546106bf565b5b61075e826106ae565b9050602081019050919050565b82818337600083830152505050565b600061078d6107888461073a565b61071f565b9050828152602081018484840111156107a9576107a86106a9565b5b6107b484828561076b565b509392505050565b600082601f8301126107d1576107d06106a4565b5b81356107e184826020860161077a565b91505092915050565b6000806040838503121561080157610800610637565b5b600083013567ffffffffffffffff81111561081f5761081e61063c565b5b61082b858286016107bc565b925050602061083c85828601610662565b9150509250929050565b600081519050919050565b600082825260208201905092915050565b60005b83811015610880578082015181840152602081019050610865565b8381111561088f576000848401525b50505050565b60006108a082610846565b6108aa8185610851565b93506108ba818560208601610862565b6108c3816106ae565b840191505092915050565b6108d781610641565b82525050565b7f4e487b7100000000000000000000000000000000000000000000000000000000600052602160045260246000fd5b6003811061091d5761091c6108dd565b5b50565b600081905061092e8261090c565b919050565b600061093e82610920565b9050919050565b61094e81610933565b82525050565b6000606082019050818103600083015261096e8186610895565b905061097d60208301856108ce565b61098a6040830184610945565b949350505050565b7f4f6e6c79206578616374207061796d656e747320616363657074656400000000600082015250565b60006109c8601c83610851565b91506109d382610992565b602082019050919050565b600060208201905081810360008301526109f7816109bb565b9050919050565b7f546865206974656d20697320616c7265616479206675727468657220696e207460008201527f686520737570706c7920636861696e0000000000000000000000000000000000602082015250565b6000610a5a602f83610851565b9150610a65826109fe565b604082019050919050565b60006020820190508181036000830152610a8981610a4d565b9050919050565b6000604082019050610aa560008301856108ce565b610ab260208301846108ce565b9392505050565b7f4e487b7100000000000000000000000000000000000000000000000000000000600052601160045260246000fd5b6000610af382610641565b91507fffffffffffffffffffffffffffffffffffffffffffffffffffffffffffffffff8203610b2557610b24610ab9565b5b600182019050919050565b7f4e487b7100000000000000000000000000000000000000000000000000000000600052602260045260246000fd5b60006002820490506001821680610b7757607f821691505b602082108103610b8a57610b89610b30565b5b50919050565b7f546865206974656d20697320696e206120646966666572656e7420706f73697460008201527f696f6e20696e2074686520737570706c7920636861696e000000000000000000602082015250565b6000610bec603783610851565b9150610bf782610b90565b604082019050919050565b60006020820190508181036000830152610c1b81610bdf565b905091905056fea2646970667358221220bb9078c6ec1f75060babeacc0bdd551b3371681e148a254ebea38bacb48a2c6164736f6c634300080d0033",
					"opcodes": "PUSH1 0x80 PUSH1 0x40 MSTORE CALLVALUE DUP1 ISZERO PUSH2 0x10 JUMPI PUSH1 0x0 DUP1 REVERT JUMPDEST POP PUSH2 0xC58 DUP1 PUSH2 0x20 PUSH1 0x0 CODECOPY PUSH1 0x0 RETURN INVALID PUSH1 0x80 PUSH1 0x40 MSTORE PUSH1 0x4 CALLDATASIZE LT PUSH2 0x3F JUMPI PUSH1 0x0 CALLDATALOAD PUSH1 0xE0 SHR DUP1 PUSH4 0x800FB83F EQ PUSH2 0x44 JUMPI DUP1 PUSH4 0x8C551742 EQ PUSH2 0x60 JUMPI DUP1 PUSH4 0xBFB231D2 EQ PUSH2 0x89 JUMPI DUP1 PUSH4 0xCD31831E EQ PUSH2 0xC8 JUMPI JUMPDEST PUSH1 0x0 DUP1 REVERT JUMPDEST PUSH2 0x5E PUSH1 0x4 DUP1 CALLDATASIZE SUB DUP2 ADD SWAP1 PUSH2 0x59 SWAP2 SWAP1 PUSH2 0x677 JUMP JUMPDEST PUSH2 0xF1 JUMP JUMPDEST STOP JUMPDEST CALLVALUE DUP1 ISZERO PUSH2 0x6C JUMPI PUSH1 0x0 DUP1 REVERT JUMPDEST POP PUSH2 0x87 PUSH1 0x4 DUP1 CALLDATASIZE SUB DUP2 ADD SWAP1 PUSH2 0x82 SWAP2 SWAP1 PUSH2 0x7EA JUMP JUMPDEST PUSH2 0x27F JUMP JUMPDEST STOP JUMPDEST CALLVALUE DUP1 ISZERO PUSH2 0x95 JUMPI PUSH1 0x0 DUP1 REVERT JUMPDEST POP PUSH2 0xB0 PUSH1 0x4 DUP1 CALLDATASIZE SUB DUP2 ADD SWAP1 PUSH2 0xAB SWAP2 SWAP1 PUSH2 0x677 JUMP JUMPDEST PUSH2 0x394 JUMP JUMPDEST PUSH1 0x40 MLOAD PUSH2 0xBF SWAP4 SWAP3 SWAP2 SWAP1 PUSH2 0x954 JUMP JUMPDEST PUSH1 0x40 MLOAD DUP1 SWAP2 SUB SWAP1 RETURN JUMPDEST CALLVALUE DUP1 ISZERO PUSH2 0xD4 JUMPI PUSH1 0x0 DUP1 REVERT JUMPDEST POP PUSH2 0xEF PUSH1 0x4 DUP1 CALLDATASIZE SUB DUP2 ADD SWAP1 PUSH2 0xEA SWAP2 SWAP1 PUSH2 0x677 JUMP JUMPDEST PUSH2 0x453 JUMP JUMPDEST STOP JUMPDEST CALLVALUE PUSH1 0x0 DUP1 DUP4 DUP2 MSTORE PUSH1 0x20 ADD SWAP1 DUP2 MSTORE PUSH1 0x20 ADD PUSH1 0x0 KECCAK256 PUSH1 0x1 ADD SLOAD EQ PUSH2 0x148 JUMPI PUSH1 0x40 MLOAD PUSH32 0x8C379A000000000000000000000000000000000000000000000000000000000 DUP2 MSTORE PUSH1 0x4 ADD PUSH2 0x13F SWAP1 PUSH2 0x9DE JUMP JUMPDEST PUSH1 0x40 MLOAD DUP1 SWAP2 SUB SWAP1 REVERT JUMPDEST PUSH1 0x0 PUSH1 0x2 DUP2 GT ISZERO PUSH2 0x15C JUMPI PUSH2 0x15B PUSH2 0x8DD JUMP JUMPDEST JUMPDEST PUSH1 0x0 DUP1 DUP4 DUP2 MSTORE PUSH1 0x20 ADD SWAP1 DUP2 MSTORE PUSH1 0x20 ADD PUSH1 0x0 KECCAK256 PUSH1 0x2 ADD PUSH1 0x0 SWAP1 SLOAD SWAP1 PUSH2 0x100 EXP SWAP1 DIV PUSH1 0xFF AND PUSH1 0x2 DUP2 GT ISZERO PUSH2 0x191 JUMPI PUSH2 0x190 PUSH2 0x8DD JUMP JUMPDEST JUMPDEST EQ PUSH2 0x1D1 JUMPI PUSH1 0x40 MLOAD PUSH32 0x8C379A000000000000000000000000000000000000000000000000000000000 DUP2 MSTORE PUSH1 0x4 ADD PUSH2 0x1C8 SWAP1 PUSH2 0xA70 JUMP JUMPDEST PUSH1 0x40 MLOAD DUP1 SWAP2 SUB SWAP1 REVERT JUMPDEST PUSH1 0x1 PUSH1 0x0 DUP1 DUP4 DUP2 MSTORE PUSH1 0x20 ADD SWAP1 DUP2 MSTORE PUSH1 0x20 ADD PUSH1 0x0 KECCAK256 PUSH1 0x2 ADD PUSH1 0x0 PUSH2 0x100 EXP DUP2 SLOAD DUP2 PUSH1 0xFF MUL NOT AND SWAP1 DUP4 PUSH1 0x2 DUP2 GT ISZERO PUSH2 0x20A JUMPI PUSH2 0x209 PUSH2 0x8DD JUMP JUMPDEST JUMPDEST MUL OR SWAP1 SSTORE POP PUSH32 0x8C198761BA3D324D155CBAF96F0AC38A531C085089E49106D95352535A1110C2 DUP2 PUSH1 0x0 DUP1 DUP5 DUP2 MSTORE PUSH1 0x20 ADD SWAP1 DUP2 MSTORE PUSH1 0x20 ADD PUSH1 0x0 KECCAK256 PUSH1 0x2 ADD PUSH1 0x0 SWAP1 SLOAD SWAP1 PUSH2 0x100 EXP SWAP1 DIV PUSH1 0xFF AND PUSH1 0x2 DUP2 GT ISZERO PUSH2 0x266 JUMPI PUSH2 0x265 PUSH2 0x8DD JUMP JUMPDEST JUMPDEST PUSH1 0x40 MLOAD PUSH2 0x274 SWAP3 SWAP2 SWAP1 PUSH2 0xA90 JUMP JUMPDEST PUSH1 0x40 MLOAD DUP1 SWAP2 SUB SWAP1 LOG1 POP JUMP JUMPDEST DUP2 PUSH1 0x0 DUP1 PUSH1 0x1 SLOAD DUP2 MSTORE PUSH1 0x20 ADD SWAP1 DUP2 MSTORE PUSH1 0x20 ADD PUSH1 0x0 KECCAK256 PUSH1 0x0 ADD SWAP1 DUP1 MLOAD SWAP1 PUSH1 0x20 ADD SWAP1 PUSH2 0x2AA SWAP3 SWAP2 SWAP1 PUSH2 0x58A JUMP JUMPDEST POP DUP1 PUSH1 0x0 DUP1 PUSH1 0x1 SLOAD DUP2 MSTORE PUSH1 0x20 ADD SWAP1 DUP2 MSTORE PUSH1 0x20 ADD PUSH1 0x0 KECCAK256 PUSH1 0x1 ADD DUP2 SWAP1 SSTORE POP PUSH1 0x0 DUP1 PUSH1 0x0 PUSH1 0x1 SLOAD DUP2 MSTORE PUSH1 0x20 ADD SWAP1 DUP2 MSTORE PUSH1 0x20 ADD PUSH1 0x0 KECCAK256 PUSH1 0x2 ADD PUSH1 0x0 PUSH2 0x100 EXP DUP2 SLOAD DUP2 PUSH1 0xFF MUL NOT AND SWAP1 DUP4 PUSH1 0x2 DUP2 GT ISZERO PUSH2 0x302 JUMPI PUSH2 0x301 PUSH2 0x8DD JUMP JUMPDEST JUMPDEST MUL OR SWAP1 SSTORE POP PUSH32 0x8C198761BA3D324D155CBAF96F0AC38A531C085089E49106D95352535A1110C2 PUSH1 0x1 SLOAD PUSH1 0x0 DUP1 PUSH1 0x1 SLOAD DUP2 MSTORE PUSH1 0x20 ADD SWAP1 DUP2 MSTORE PUSH1 0x20 ADD PUSH1 0x0 KECCAK256 PUSH1 0x2 ADD PUSH1 0x0 SWAP1 SLOAD SWAP1 PUSH2 0x100 EXP SWAP1 DIV PUSH1 0xFF AND PUSH1 0x2 DUP2 GT ISZERO PUSH2 0x362 JUMPI PUSH2 0x361 PUSH2 0x8DD JUMP JUMPDEST JUMPDEST PUSH1 0x40 MLOAD PUSH2 0x370 SWAP3 SWAP2 SWAP1 PUSH2 0xA90 JUMP JUMPDEST PUSH1 0x40 MLOAD DUP1 SWAP2 SUB SWAP1 LOG1 PUSH1 0x1 PUSH1 0x0 DUP2 SLOAD DUP1 SWAP3 SWAP2 SWAP1 PUSH2 0x38B SWAP1 PUSH2 0xAE8 JUMP JUMPDEST SWAP2 SWAP1 POP SSTORE POP POP POP JUMP JUMPDEST PUSH1 0x0 PUSH1 0x20 MSTORE DUP1 PUSH1 0x0 MSTORE PUSH1 0x40 PUSH1 0x0 KECCAK256 PUSH1 0x0 SWAP2 POP SWAP1 POP DUP1 PUSH1 0x0 ADD DUP1 SLOAD PUSH2 0x3B7 SWAP1 PUSH2 0xB5F JUMP JUMPDEST DUP1 PUSH1 0x1F ADD PUSH1 0x20 DUP1 SWAP2 DIV MUL PUSH1 0x20 ADD PUSH1 0x40 MLOAD SWAP1 DUP2 ADD PUSH1 0x40 MSTORE DUP1 SWAP3 SWAP2 SWAP1 DUP2 DUP2 MSTORE PUSH1 0x20 ADD DUP3 DUP1 SLOAD PUSH2 0x3E3 SWAP1 PUSH2 0xB5F JUMP JUMPDEST DUP1 ISZERO PUSH2 0x430 JUMPI DUP1 PUSH1 0x1F LT PUSH2 0x405 JUMPI PUSH2 0x100 DUP1 DUP4 SLOAD DIV MUL DUP4 MSTORE SWAP2 PUSH1 0x20 ADD SWAP2 PUSH2 0x430 JUMP JUMPDEST DUP3 ADD SWAP2 SWAP1 PUSH1 0x0 MSTORE PUSH1 0x20 PUSH1 0x0 KECCAK256 SWAP1 JUMPDEST DUP2 SLOAD DUP2 MSTORE SWAP1 PUSH1 0x1 ADD SWAP1 PUSH1 0x20 ADD DUP1 DUP4 GT PUSH2 0x413 JUMPI DUP3 SWAP1 SUB PUSH1 0x1F AND DUP3 ADD SWAP2 JUMPDEST POP POP POP POP POP SWAP1 DUP1 PUSH1 0x1 ADD SLOAD SWAP1 DUP1 PUSH1 0x2 ADD PUSH1 0x0 SWAP1 SLOAD SWAP1 PUSH2 0x100 EXP SWAP1 DIV PUSH1 0xFF AND SWAP1 POP DUP4 JUMP JUMPDEST PUSH1 0x1 PUSH1 0x2 DUP2 GT ISZERO PUSH2 0x467 JUMPI PUSH2 0x466 PUSH2 0x8DD JUMP JUMPDEST JUMPDEST PUSH1 0x0 DUP1 DUP4 DUP2 MSTORE PUSH1 0x20 ADD SWAP1 DUP2 MSTORE PUSH1 0x20 ADD PUSH1 0x0 KECCAK256 PUSH1 0x2 ADD PUSH1 0x0 SWAP1 SLOAD SWAP1 PUSH2 0x100 EXP SWAP1 DIV PUSH1 0xFF AND PUSH1 0x2 DUP2 GT ISZERO PUSH2 0x49C JUMPI PUSH2 0x49B PUSH2 0x8DD JUMP JUMPDEST JUMPDEST EQ PUSH2 0x4DC JUMPI PUSH1 0x40 MLOAD PUSH32 0x8C379A000000000000000000000000000000000000000000000000000000000 DUP2 MSTORE PUSH1 0x4 ADD PUSH2 0x4D3 SWAP1 PUSH2 0xC02 JUMP JUMPDEST PUSH1 0x40 MLOAD DUP1 SWAP2 SUB SWAP1 REVERT JUMPDEST PUSH1 0x2 PUSH1 0x0 DUP1 DUP4 DUP2 MSTORE PUSH1 0x20 ADD SWAP1 DUP2 MSTORE PUSH1 0x20 ADD PUSH1 0x0 KECCAK256 PUSH1 0x2 ADD PUSH1 0x0 PUSH2 0x100 EXP DUP2 SLOAD DUP2 PUSH1 0xFF MUL NOT AND SWAP1 DUP4 PUSH1 0x2 DUP2 GT ISZERO PUSH2 0x515 JUMPI PUSH2 0x514 PUSH2 0x8DD JUMP JUMPDEST JUMPDEST MUL OR SWAP1 SSTORE POP PUSH32 0x8C198761BA3D324D155CBAF96F0AC38A531C085089E49106D95352535A1110C2 DUP2 PUSH1 0x0 DUP1 DUP5 DUP2 MSTORE PUSH1 0x20 ADD SWAP1 DUP2 MSTORE PUSH1 0x20 ADD PUSH1 0x0 KECCAK256 PUSH1 0x2 ADD PUSH1 0x0 SWAP1 SLOAD SWAP1 PUSH2 0x100 EXP SWAP1 DIV PUSH1 0xFF AND PUSH1 0x2 DUP2 GT ISZERO PUSH2 0x571 JUMPI PUSH2 0x570 PUSH2 0x8DD JUMP JUMPDEST JUMPDEST PUSH1 0x40 MLOAD PUSH2 0x57F SWAP3 SWAP2 SWAP1 PUSH2 0xA90 JUMP JUMPDEST PUSH1 0x40 MLOAD DUP1 SWAP2 SUB SWAP1 LOG1 POP JUMP JUMPDEST DUP3 DUP1 SLOAD PUSH2 0x596 SWAP1 PUSH2 0xB5F JUMP JUMPDEST SWAP1 PUSH1 0x0 MSTORE PUSH1 0x20 PUSH1 0x0 KECCAK256 SWAP1 PUSH1 0x1F ADD PUSH1 0x20 SWAP1 DIV DUP2 ADD SWAP3 DUP3 PUSH2 0x5B8 JUMPI PUSH1 0x0 DUP6 SSTORE PUSH2 0x5FF JUMP JUMPDEST DUP3 PUSH1 0x1F LT PUSH2 0x5D1 JUMPI DUP1 MLOAD PUSH1 0xFF NOT AND DUP4 DUP1 ADD OR DUP6 SSTORE PUSH2 0x5FF JUMP JUMPDEST DUP3 DUP1 ADD PUSH1 0x1 ADD DUP6 SSTORE DUP3 ISZERO PUSH2 0x5FF JUMPI SWAP2 DUP3 ADD JUMPDEST DUP3 DUP2 GT ISZERO PUSH2 0x5FE JUMPI DUP3 MLOAD DUP3 SSTORE SWAP2 PUSH1 0x20 ADD SWAP2 SWAP1 PUSH1 0x1 ADD SWAP1 PUSH2 0x5E3 JUMP JUMPDEST JUMPDEST POP SWAP1 POP PUSH2 0x60C SWAP2 SWAP1 PUSH2 0x610 JUMP JUMPDEST POP SWAP1 JUMP JUMPDEST JUMPDEST DUP1 DUP3 GT ISZERO PUSH2 0x629 JUMPI PUSH1 0x0 DUP2 PUSH1 0x0 SWAP1 SSTORE POP PUSH1 0x1 ADD PUSH2 0x611 JUMP JUMPDEST POP SWAP1 JUMP JUMPDEST PUSH1 0x0 PUSH1 0x40 MLOAD SWAP1 POP SWAP1 JUMP JUMPDEST PUSH1 0x0 DUP1 REVERT JUMPDEST PUSH1 0x0 DUP1 REVERT JUMPDEST PUSH1 0x0 DUP2 SWAP1 POP SWAP2 SWAP1 POP JUMP JUMPDEST PUSH2 0x654 DUP2 PUSH2 0x641 JUMP JUMPDEST DUP2 EQ PUSH2 0x65F JUMPI PUSH1 0x0 DUP1 REVERT JUMPDEST POP JUMP JUMPDEST PUSH1 0x0 DUP2 CALLDATALOAD SWAP1 POP PUSH2 0x671 DUP2 PUSH2 0x64B JUMP JUMPDEST SWAP3 SWAP2 POP POP JUMP JUMPDEST PUSH1 0x0 PUSH1 0x20 DUP3 DUP5 SUB SLT ISZERO PUSH2 0x68D JUMPI PUSH2 0x68C PUSH2 0x637 JUMP JUMPDEST JUMPDEST PUSH1 0x0 PUSH2 0x69B DUP5 DUP3 DUP6 ADD PUSH2 0x662 JUMP JUMPDEST SWAP2 POP POP SWAP3 SWAP2 POP POP JUMP JUMPDEST PUSH1 0x0 DUP1 REVERT JUMPDEST PUSH1 0x0 DUP1 REVERT JUMPDEST PUSH1 0x0 PUSH1 0x1F NOT PUSH1 0x1F DUP4 ADD AND SWAP1 POP SWAP2 SWAP1 POP JUMP JUMPDEST PUSH32 0x4E487B7100000000000000000000000000000000000000000000000000000000 PUSH1 0x0 MSTORE PUSH1 0x41 PUSH1 0x4 MSTORE PUSH1 0x24 PUSH1 0x0 REVERT JUMPDEST PUSH2 0x6F7 DUP3 PUSH2 0x6AE JUMP JUMPDEST DUP2 ADD DUP2 DUP2 LT PUSH8 0xFFFFFFFFFFFFFFFF DUP3 GT OR ISZERO PUSH2 0x716 JUMPI PUSH2 0x715 PUSH2 0x6BF JUMP JUMPDEST JUMPDEST DUP1 PUSH1 0x40 MSTORE POP POP POP JUMP JUMPDEST PUSH1 0x0 PUSH2 0x729 PUSH2 0x62D JUMP JUMPDEST SWAP1 POP PUSH2 0x735 DUP3 DUP3 PUSH2 0x6EE JUMP JUMPDEST SWAP2 SWAP1 POP JUMP JUMPDEST PUSH1 0x0 PUSH8 0xFFFFFFFFFFFFFFFF DUP3 GT ISZERO PUSH2 0x755 JUMPI PUSH2 0x754 PUSH2 0x6BF JUMP JUMPDEST JUMPDEST PUSH2 0x75E DUP3 PUSH2 0x6AE JUMP JUMPDEST SWAP1 POP PUSH1 0x20 DUP2 ADD SWAP1 POP SWAP2 SWAP1 POP JUMP JUMPDEST DUP3 DUP2 DUP4 CALLDATACOPY PUSH1 0x0 DUP4 DUP4 ADD MSTORE POP POP POP JUMP JUMPDEST PUSH1 0x0 PUSH2 0x78D PUSH2 0x788 DUP5 PUSH2 0x73A JUMP JUMPDEST PUSH2 0x71F JUMP JUMPDEST SWAP1 POP DUP3 DUP2 MSTORE PUSH1 0x20 DUP2 ADD DUP5 DUP5 DUP5 ADD GT ISZERO PUSH2 0x7A9 JUMPI PUSH2 0x7A8 PUSH2 0x6A9 JUMP JUMPDEST JUMPDEST PUSH2 0x7B4 DUP5 DUP3 DUP6 PUSH2 0x76B JUMP JUMPDEST POP SWAP4 SWAP3 POP POP POP JUMP JUMPDEST PUSH1 0x0 DUP3 PUSH1 0x1F DUP4 ADD SLT PUSH2 0x7D1 JUMPI PUSH2 0x7D0 PUSH2 0x6A4 JUMP JUMPDEST JUMPDEST DUP2 CALLDATALOAD PUSH2 0x7E1 DUP5 DUP3 PUSH1 0x20 DUP7 ADD PUSH2 0x77A JUMP JUMPDEST SWAP2 POP POP SWAP3 SWAP2 POP POP JUMP JUMPDEST PUSH1 0x0 DUP1 PUSH1 0x40 DUP4 DUP6 SUB SLT ISZERO PUSH2 0x801 JUMPI PUSH2 0x800 PUSH2 0x637 JUMP JUMPDEST JUMPDEST PUSH1 0x0 DUP4 ADD CALLDATALOAD PUSH8 0xFFFFFFFFFFFFFFFF DUP2 GT ISZERO PUSH2 0x81F JUMPI PUSH2 0x81E PUSH2 0x63C JUMP JUMPDEST JUMPDEST PUSH2 0x82B DUP6 DUP3 DUP7 ADD PUSH2 0x7BC JUMP JUMPDEST SWAP3 POP POP PUSH1 0x20 PUSH2 0x83C DUP6 DUP3 DUP7 ADD PUSH2 0x662 JUMP JUMPDEST SWAP2 POP POP SWAP3 POP SWAP3 SWAP1 POP JUMP JUMPDEST PUSH1 0x0 DUP2 MLOAD SWAP1 POP SWAP2 SWAP1 POP JUMP JUMPDEST PUSH1 0x0 DUP3 DUP3 MSTORE PUSH1 0x20 DUP3 ADD SWAP1 POP SWAP3 SWAP2 POP POP JUMP JUMPDEST PUSH1 0x0 JUMPDEST DUP4 DUP2 LT ISZERO PUSH2 0x880 JUMPI DUP1 DUP3 ADD MLOAD DUP2 DUP5 ADD MSTORE PUSH1 0x20 DUP2 ADD SWAP1 POP PUSH2 0x865 JUMP JUMPDEST DUP4 DUP2 GT ISZERO PUSH2 0x88F JUMPI PUSH1 0x0 DUP5 DUP5 ADD MSTORE JUMPDEST POP POP POP POP JUMP JUMPDEST PUSH1 0x0 PUSH2 0x8A0 DUP3 PUSH2 0x846 JUMP JUMPDEST PUSH2 0x8AA DUP2 DUP6 PUSH2 0x851 JUMP JUMPDEST SWAP4 POP PUSH2 0x8BA DUP2 DUP6 PUSH1 0x20 DUP7 ADD PUSH2 0x862 JUMP JUMPDEST PUSH2 0x8C3 DUP2 PUSH2 0x6AE JUMP JUMPDEST DUP5 ADD SWAP2 POP POP SWAP3 SWAP2 POP POP JUMP JUMPDEST PUSH2 0x8D7 DUP2 PUSH2 0x641 JUMP JUMPDEST DUP3 MSTORE POP POP JUMP JUMPDEST PUSH32 0x4E487B7100000000000000000000000000000000000000000000000000000000 PUSH1 0x0 MSTORE PUSH1 0x21 PUSH1 0x4 MSTORE PUSH1 0x24 PUSH1 0x0 REVERT JUMPDEST PUSH1 0x3 DUP2 LT PUSH2 0x91D JUMPI PUSH2 0x91C PUSH2 0x8DD JUMP JUMPDEST JUMPDEST POP JUMP JUMPDEST PUSH1 0x0 DUP2 SWAP1 POP PUSH2 0x92E DUP3 PUSH2 0x90C JUMP JUMPDEST SWAP2 SWAP1 POP JUMP JUMPDEST PUSH1 0x0 PUSH2 0x93E DUP3 PUSH2 0x920 JUMP JUMPDEST SWAP1 POP SWAP2 SWAP1 POP JUMP JUMPDEST PUSH2 0x94E DUP2 PUSH2 0x933 JUMP JUMPDEST DUP3 MSTORE POP POP JUMP JUMPDEST PUSH1 0x0 PUSH1 0x60 DUP3 ADD SWAP1 POP DUP2 DUP2 SUB PUSH1 0x0 DUP4 ADD MSTORE PUSH2 0x96E DUP2 DUP7 PUSH2 0x895 JUMP JUMPDEST SWAP1 POP PUSH2 0x97D PUSH1 0x20 DUP4 ADD DUP6 PUSH2 0x8CE JUMP JUMPDEST PUSH2 0x98A PUSH1 0x40 DUP4 ADD DUP5 PUSH2 0x945 JUMP JUMPDEST SWAP5 SWAP4 POP POP POP POP JUMP JUMPDEST PUSH32 0x4F6E6C79206578616374207061796D656E747320616363657074656400000000 PUSH1 0x0 DUP3 ADD MSTORE POP JUMP JUMPDEST PUSH1 0x0 PUSH2 0x9C8 PUSH1 0x1C DUP4 PUSH2 0x851 JUMP JUMPDEST SWAP2 POP PUSH2 0x9D3 DUP3 PUSH2 0x992 JUMP JUMPDEST PUSH1 0x20 DUP3 ADD SWAP1 POP SWAP2 SWAP1 POP JUMP JUMPDEST PUSH1 0x0 PUSH1 0x20 DUP3 ADD SWAP1 POP DUP2 DUP2 SUB PUSH1 0x0 DUP4 ADD MSTORE PUSH2 0x9F7 DUP2 PUSH2 0x9BB JUMP JUMPDEST SWAP1 POP SWAP2 SWAP1 POP JUMP JUMPDEST PUSH32 0x546865206974656D20697320616C7265616479206675727468657220696E2074 PUSH1 0x0 DUP3 ADD MSTORE PUSH32 0x686520737570706C7920636861696E0000000000000000000000000000000000 PUSH1 0x20 DUP3 ADD MSTORE POP JUMP JUMPDEST PUSH1 0x0 PUSH2 0xA5A PUSH1 0x2F DUP4 PUSH2 0x851 JUMP JUMPDEST SWAP2 POP PUSH2 0xA65 DUP3 PUSH2 0x9FE JUMP JUMPDEST PUSH1 0x40 DUP3 ADD SWAP1 POP SWAP2 SWAP1 POP JUMP JUMPDEST PUSH1 0x0 PUSH1 0x20 DUP3 ADD SWAP1 POP DUP2 DUP2 SUB PUSH1 0x0 DUP4 ADD MSTORE PUSH2 0xA89 DUP2 PUSH2 0xA4D JUMP JUMPDEST SWAP1 POP SWAP2 SWAP1 POP JUMP JUMPDEST PUSH1 0x0 PUSH1 0x40 DUP3 ADD SWAP1 POP PUSH2 0xAA5 PUSH1 0x0 DUP4 ADD DUP6 PUSH2 0x8CE JUMP JUMPDEST PUSH2 0xAB2 PUSH1 0x20 DUP4 ADD DUP5 PUSH2 0x8CE JUMP JUMPDEST SWAP4 SWAP3 POP POP POP JUMP JUMPDEST PUSH32 0x4E487B7100000000000000000000000000000000000000000000000000000000 PUSH1 0x0 MSTORE PUSH1 0x11 PUSH1 0x4 MSTORE PUSH1 0x24 PUSH1 0x0 REVERT JUMPDEST PUSH1 0x0 PUSH2 0xAF3 DUP3 PUSH2 0x641 JUMP JUMPDEST SWAP2 POP PUSH32 0xFFFFFFFFFFFFFFFFFFFFFFFFFFFFFFFFFFFFFFFFFFFFFFFFFFFFFFFFFFFFFFFF DUP3 SUB PUSH2 0xB25 JUMPI PUSH2 0xB24 PUSH2 0xAB9 JUMP JUMPDEST JUMPDEST PUSH1 0x1 DUP3 ADD SWAP1 POP SWAP2 SWAP1 POP JUMP JUMPDEST PUSH32 0x4E487B7100000000000000000000000000000000000000000000000000000000 PUSH1 0x0 MSTORE PUSH1 0x22 PUSH1 0x4 MSTORE PUSH1 0x24 PUSH1 0x0 REVERT JUMPDEST PUSH1 0x0 PUSH1 0x2 DUP3 DIV SWAP1 POP PUSH1 0x1 DUP3 AND DUP1 PUSH2 0xB77 JUMPI PUSH1 0x7F DUP3 AND SWAP2 POP JUMPDEST PUSH1 0x20 DUP3 LT DUP2 SUB PUSH2 0xB8A JUMPI PUSH2 0xB89 PUSH2 0xB30 JUMP JUMPDEST JUMPDEST POP SWAP2 SWAP1 POP JUMP JUMPDEST PUSH32 0x546865206974656D20697320696E206120646966666572656E7420706F736974 PUSH1 0x0 DUP3 ADD MSTORE PUSH32 0x696F6E20696E2074686520737570706C7920636861696E000000000000000000 PUSH1 0x20 DUP3 ADD MSTORE POP JUMP JUMPDEST PUSH1 0x0 PUSH2 0xBEC PUSH1 0x37 DUP4 PUSH2 0x851 JUMP JUMPDEST SWAP2 POP PUSH2 0xBF7 DUP3 PUSH2 0xB90 JUMP JUMPDEST PUSH1 0x40 DUP3 ADD SWAP1 POP SWAP2 SWAP1 POP JUMP JUMPDEST PUSH1 0x0 PUSH1 0x20 DUP3 ADD SWAP1 POP DUP2 DUP2 SUB PUSH1 0x0 DUP4 ADD MSTORE PUSH2 0xC1B DUP2 PUSH2 0xBDF JUMP JUMPDEST SWAP1 POP SWAP2 SWAP1 POP JUMP INVALID LOG2 PUSH5 0x6970667358 0x22 SLT KECCAK256 0xBB SWAP1 PUSH25 0xC6EC1F75060BABEACC0BDD551B3371681E148A254EBEA38BAC 0xB4 DUP11 0x2C PUSH2 0x6473 PUSH16 0x6C634300080D00330000000000000000 "
				},
				"gasEstimates": {
					"creation": {
						"codeDepositCost": "632000",
						"executionCost": "664",
						"totalCost": "632664"
					},
					"external": {
						"createItem(string,uint256)": "infinite",
						"items(uint256)": "infinite",
						"triggerDelivery(uint256)": "infinite",
						"triggerPayment(uint256)": "infinite"
					}
				},
				"methodIdentifiers": {
					"createItem(string,uint256)": "8c551742",
					"items(uint256)": "bfb231d2",
					"triggerDelivery(uint256)": "cd31831e",
					"triggerPayment(uint256)": "800fb83f"
				}
			},
			"storageLayout": {
				"storage": [
					{
						"astId": 21,
						"contract": "ItemManager.sol:ItemManager",
						"label": "items",
						"offset": 0,
						"slot": "0",
						"type": "t_mapping(t_uint256,t_struct(S_Item)16_storage)"
					},
					{
						"astId": 29,
						"contract": "ItemManager.sol:ItemManager",
						"label": "itemIndex",
						"offset": 0,
						"slot": "1",
						"type": "t_uint256"
					}
				],
				"types": {
					"t_enum(SupplyChainState)8": {
						"encoding": "inplace",
						"label": "enum ItemManager.SupplyChainState",
						"numberOfBytes": "1"
					},
					"t_mapping(t_uint256,t_struct(S_Item)16_storage)": {
						"encoding": "mapping",
						"key": "t_uint256",
						"label": "mapping(uint256 => struct ItemManager.S_Item)",
						"numberOfBytes": "32",
						"value": "t_struct(S_Item)16_storage"
					},
					"t_string_storage": {
						"encoding": "bytes",
						"label": "string",
						"numberOfBytes": "32"
					},
					"t_struct(S_Item)16_storage": {
						"encoding": "inplace",
						"label": "struct ItemManager.S_Item",
						"members": [
							{
								"astId": 10,
								"contract": "ItemManager.sol:ItemManager",
								"label": "_identifier",
								"offset": 0,
								"slot": "0",
								"type": "t_string_storage"
							},
							{
								"astId": 12,
								"contract": "ItemManager.sol:ItemManager",
								"label": "_itemPrice",
								"offset": 0,
								"slot": "1",
								"type": "t_uint256"
							},
							{
								"astId": 15,
								"contract": "ItemManager.sol:ItemManager",
								"label": "_state",
								"offset": 0,
								"slot": "2",
								"type": "t_enum(SupplyChainState)8"
							}
						],
						"numberOfBytes": "96"
					},
					"t_uint256": {
						"encoding": "inplace",
						"label": "uint256",
						"numberOfBytes": "32"
					}
				}
			},
			"userdoc": {
				"kind": "user",
				"methods": {},
				"version": 1
			}
		}
	}
}