{
	"MyStructExamples2.sol": {
		"MappingsStructExample": {
			"abi": [
				{
					"inputs": [
						{
							"internalType": "address",
							"name": "",
							"type": "address"
						}
					],
					"name": "Member",
					"outputs": [
						{
							"internalType": "uint256",
							"name": "balance",
							"type": "uint256"
						},
						{
							"internalType": "int256",
							"name": "numPayments",
							"type": "int256"
						},
						{
							"internalType": "bool",
							"name": "whitelist",
							"type": "bool"
						}
					],
					"stateMutability": "view",
					"type": "function"
				},
				{
					"inputs": [],
					"name": "getBalance",
					"outputs": [
						{
							"internalType": "uint256",
							"name": "",
							"type": "uint256"
						}
					],
					"stateMutability": "view",
					"type": "function"
				},
				{
					"inputs": [],
					"name": "sendMoney",
					"outputs": [],
					"stateMutability": "payable",
					"type": "function"
				},
				{
					"inputs": [
						{
							"internalType": "address payable",
							"name": "_to",
							"type": "address"
						},
						{
							"internalType": "uint256",
							"name": "_amount",
							"type": "uint256"
						}
					],
					"name": "withdrawMoney",
					"outputs": [],
					"stateMutability": "nonpayable",
					"type": "function"
				}
			],
			"devdoc": {
				"kind": "dev",
				"methods": {},
				"version": 1
			},
			"evm": {
				"assembly": "    /* \"MyStructExamples2.sol\":64:881  contract MappingsStructExample {... */\n  mstore(0x40, 0x80)\n  callvalue\n  dup1\n  iszero\n  tag_1\n  jumpi\n  0x00\n  dup1\n  revert\ntag_1:\n  pop\n  dataSize(sub_0)\n  dup1\n  dataOffset(sub_0)\n  0x00\n  codecopy\n  0x00\n  return\nstop\n\nsub_0: assembly {\n        /* \"MyStructExamples2.sol\":64:881  contract MappingsStructExample {... */\n      mstore(0x40, 0x80)\n      jumpi(tag_1, lt(calldatasize, 0x04))\n      shr(0xe0, calldataload(0x00))\n      dup1\n      0x12065fe0\n      eq\n      tag_2\n      jumpi\n      dup1\n      0x9408aa16\n      eq\n      tag_3\n      jumpi\n      dup1\n      0xcbedbf5a\n      eq\n      tag_4\n      jumpi\n      dup1\n      0xf274c897\n      eq\n      tag_5\n      jumpi\n    tag_1:\n      0x00\n      dup1\n      revert\n        /* \"MyStructExamples2.sol\":302:395  function getBalance() public view returns(uint) {... */\n    tag_2:\n      callvalue\n      dup1\n      iszero\n      tag_6\n      jumpi\n      0x00\n      dup1\n      revert\n    tag_6:\n      pop\n      tag_7\n      tag_8\n      jump\t// in\n    tag_7:\n      mload(0x40)\n      tag_9\n      swap2\n      swap1\n      tag_10\n      jump\t// in\n    tag_9:\n      mload(0x40)\n      dup1\n      swap2\n      sub\n      swap1\n      return\n        /* \"MyStructExamples2.sol\":248:295  mapping(address => MemberDetails) public Member */\n    tag_3:\n      callvalue\n      dup1\n      iszero\n      tag_11\n      jumpi\n      0x00\n      dup1\n      revert\n    tag_11:\n      pop\n      tag_12\n      0x04\n      dup1\n      calldatasize\n      sub\n      dup2\n      add\n      swap1\n      tag_13\n      swap2\n      swap1\n      tag_14\n      jump\t// in\n    tag_13:\n      tag_15\n      jump\t// in\n    tag_12:\n      mload(0x40)\n      tag_16\n      swap4\n      swap3\n      swap2\n      swap1\n      tag_17\n      jump\t// in\n    tag_16:\n      mload(0x40)\n      dup1\n      swap2\n      sub\n      swap1\n      return\n        /* \"MyStructExamples2.sol\":401:606  function sendMoney() public payable {... */\n    tag_4:\n      tag_18\n      tag_19\n      jump\t// in\n    tag_18:\n      stop\n        /* \"MyStructExamples2.sol\":612:879  function withdrawMoney(address payable _to, uint _amount) public {... */\n    tag_5:\n      callvalue\n      dup1\n      iszero\n      tag_20\n      jumpi\n      0x00\n      dup1\n      revert\n    tag_20:\n      pop\n      tag_21\n      0x04\n      dup1\n      calldatasize\n      sub\n      dup2\n      add\n      swap1\n      tag_22\n      swap2\n      swap1\n      tag_23\n      jump\t// in\n    tag_22:\n      tag_24\n      jump\t// in\n    tag_21:\n      stop\n        /* \"MyStructExamples2.sol\":302:395  function getBalance() public view returns(uint) {... */\n    tag_8:\n        /* \"MyStructExamples2.sol\":344:348  uint */\n      0x00\n        /* \"MyStructExamples2.sol\":367:388  address(this).balance */\n      selfbalance\n        /* \"MyStructExamples2.sol\":360:388  return address(this).balance */\n      swap1\n      pop\n        /* \"MyStructExamples2.sol\":302:395  function getBalance() public view returns(uint) {... */\n      swap1\n      jump\t// out\n        /* \"MyStructExamples2.sol\":248:295  mapping(address => MemberDetails) public Member */\n    tag_15:\n      mstore(0x20, 0x00)\n      dup1\n      0x00\n      mstore\n      keccak256(0x00, 0x40)\n      0x00\n      swap2\n      pop\n      swap1\n      pop\n      dup1\n      0x00\n      add\n      sload\n      swap1\n      dup1\n      0x01\n      add\n      sload\n      swap1\n      dup1\n      0x02\n      add\n      0x00\n      swap1\n      sload\n      swap1\n      0x0100\n      exp\n      swap1\n      div\n      0xff\n      and\n      swap1\n      pop\n      dup4\n      jump\t// out\n        /* \"MyStructExamples2.sol\":401:606  function sendMoney() public payable {... */\n    tag_19:\n        /* \"MyStructExamples2.sol\":474:483  msg.value */\n      callvalue\n        /* \"MyStructExamples2.sol\":444:450  Member */\n      0x00\n        /* \"MyStructExamples2.sol\":444:462  Member[msg.sender] */\n      dup1\n        /* \"MyStructExamples2.sol\":451:461  msg.sender */\n      caller\n        /* \"MyStructExamples2.sol\":444:462  Member[msg.sender] */\n      0xffffffffffffffffffffffffffffffffffffffff\n      and\n      0xffffffffffffffffffffffffffffffffffffffff\n      and\n      dup2\n      mstore\n      0x20\n      add\n      swap1\n      dup2\n      mstore\n      0x20\n      add\n      0x00\n      keccak256\n        /* \"MyStructExamples2.sol\":444:470  Member[msg.sender].balance */\n      0x00\n      add\n      0x00\n        /* \"MyStructExamples2.sol\":444:483  Member[msg.sender].balance += msg.value */\n      dup3\n      dup3\n      sload\n      tag_27\n      swap2\n      swap1\n      tag_28\n      jump\t// in\n    tag_27:\n      swap3\n      pop\n      pop\n      dup2\n      swap1\n      sstore\n      pop\n        /* \"MyStructExamples2.sol\":522:523  1 */\n      0x01\n        /* \"MyStructExamples2.sol\":490:496  Member */\n      0x00\n        /* \"MyStructExamples2.sol\":490:508  Member[msg.sender] */\n      dup1\n        /* \"MyStructExamples2.sol\":497:507  msg.sender */\n      caller\n        /* \"MyStructExamples2.sol\":490:508  Member[msg.sender] */\n      0xffffffffffffffffffffffffffffffffffffffff\n      and\n      0xffffffffffffffffffffffffffffffffffffffff\n      and\n      dup2\n      mstore\n      0x20\n      add\n      swap1\n      dup2\n      mstore\n      0x20\n      add\n      0x00\n      keccak256\n        /* \"MyStructExamples2.sol\":490:520  Member[msg.sender].numPayments */\n      0x01\n      add\n      0x00\n        /* \"MyStructExamples2.sol\":490:523  Member[msg.sender].numPayments+=1 */\n      dup3\n      dup3\n      sload\n      tag_29\n      swap2\n      swap1\n      tag_30\n      jump\t// in\n    tag_29:\n      swap3\n      pop\n      pop\n      dup2\n      swap1\n      sstore\n      pop\n        /* \"MyStructExamples2.sol\":590:599  msg.value */\n      callvalue\n        /* \"MyStructExamples2.sol\":530:536  Member */\n      0x00\n        /* \"MyStructExamples2.sol\":530:548  Member[msg.sender] */\n      dup1\n        /* \"MyStructExamples2.sol\":537:547  msg.sender */\n      caller\n        /* \"MyStructExamples2.sol\":530:548  Member[msg.sender] */\n      0xffffffffffffffffffffffffffffffffffffffff\n      and\n      0xffffffffffffffffffffffffffffffffffffffff\n      and\n      dup2\n      mstore\n      0x20\n      add\n      swap1\n      dup2\n      mstore\n      0x20\n      add\n      0x00\n      keccak256\n        /* \"MyStructExamples2.sol\":530:557  Member[msg.sender].payments */\n      0x03\n      add\n        /* \"MyStructExamples2.sol\":530:589  Member[msg.sender].payments[Member[msg.sender].numPayments] */\n      0x00\n        /* \"MyStructExamples2.sol\":558:564  Member */\n      dup1\n        /* \"MyStructExamples2.sol\":558:576  Member[msg.sender] */\n      0x00\n        /* \"MyStructExamples2.sol\":565:575  msg.sender */\n      caller\n        /* \"MyStructExamples2.sol\":558:576  Member[msg.sender] */\n      0xffffffffffffffffffffffffffffffffffffffff\n      and\n      0xffffffffffffffffffffffffffffffffffffffff\n      and\n      dup2\n      mstore\n      0x20\n      add\n      swap1\n      dup2\n      mstore\n      0x20\n      add\n      0x00\n      keccak256\n        /* \"MyStructExamples2.sol\":558:588  Member[msg.sender].numPayments */\n      0x01\n      add\n      sload\n        /* \"MyStructExamples2.sol\":530:589  Member[msg.sender].payments[Member[msg.sender].numPayments] */\n      dup2\n      mstore\n      0x20\n      add\n      swap1\n      dup2\n      mstore\n      0x20\n      add\n      0x00\n      keccak256\n        /* \"MyStructExamples2.sol\":530:599  Member[msg.sender].payments[Member[msg.sender].numPayments]=msg.value */\n      dup2\n      swap1\n      sstore\n      pop\n        /* \"MyStructExamples2.sol\":401:606  function sendMoney() public payable {... */\n      jump\t// out\n        /* \"MyStructExamples2.sol\":612:879  function withdrawMoney(address payable _to, uint _amount) public {... */\n    tag_24:\n        /* \"MyStructExamples2.sol\":725:732  _amount */\n      dup1\n        /* \"MyStructExamples2.sol\":695:701  Member */\n      0x00\n        /* \"MyStructExamples2.sol\":695:713  Member[msg.sender] */\n      dup1\n        /* \"MyStructExamples2.sol\":702:712  msg.sender */\n      caller\n        /* \"MyStructExamples2.sol\":695:713  Member[msg.sender] */\n      0xffffffffffffffffffffffffffffffffffffffff\n      and\n      0xffffffffffffffffffffffffffffffffffffffff\n      and\n      dup2\n      mstore\n      0x20\n      add\n      swap1\n      dup2\n      mstore\n      0x20\n      add\n      0x00\n      keccak256\n        /* \"MyStructExamples2.sol\":695:721  Member[msg.sender].balance */\n      0x00\n      add\n      sload\n        /* \"MyStructExamples2.sol\":695:732  Member[msg.sender].balance >= _amount */\n      lt\n      iszero\n        /* \"MyStructExamples2.sol\":687:752  require(Member[msg.sender].balance >= _amount,\"Not enough funds\") */\n      tag_32\n      jumpi\n      mload(0x40)\n      0x08c379a000000000000000000000000000000000000000000000000000000000\n      dup2\n      mstore\n      0x04\n      add\n      tag_33\n      swap1\n      tag_34\n      jump\t// in\n    tag_33:\n      mload(0x40)\n      dup1\n      swap2\n      sub\n      swap1\n      revert\n    tag_32:\n        /* \"MyStructExamples2.sol\":762:780  uint BalanceToSend */\n      0x00\n        /* \"MyStructExamples2.sol\":781:788  _amount */\n      dup2\n        /* \"MyStructExamples2.sol\":762:788  uint BalanceToSend=_amount */\n      swap1\n      pop\n        /* \"MyStructExamples2.sol\":828:835  _amount */\n      dup2\n        /* \"MyStructExamples2.sol\":798:804  Member */\n      0x00\n        /* \"MyStructExamples2.sol\":798:816  Member[msg.sender] */\n      dup1\n        /* \"MyStructExamples2.sol\":805:815  msg.sender */\n      caller\n        /* \"MyStructExamples2.sol\":798:816  Member[msg.sender] */\n      0xffffffffffffffffffffffffffffffffffffffff\n      and\n      0xffffffffffffffffffffffffffffffffffffffff\n      and\n      dup2\n      mstore\n      0x20\n      add\n      swap1\n      dup2\n      mstore\n      0x20\n      add\n      0x00\n      keccak256\n        /* \"MyStructExamples2.sol\":798:824  Member[msg.sender].balance */\n      0x00\n      add\n      0x00\n        /* \"MyStructExamples2.sol\":798:835  Member[msg.sender].balance -= _amount */\n      dup3\n      dup3\n      sload\n      tag_35\n      swap2\n      swap1\n      tag_36\n      jump\t// in\n    tag_35:\n      swap3\n      pop\n      pop\n      dup2\n      swap1\n      sstore\n      pop\n        /* \"MyStructExamples2.sol\":845:848  _to */\n      dup3\n        /* \"MyStructExamples2.sol\":845:857  _to.transfer */\n      0xffffffffffffffffffffffffffffffffffffffff\n      and\n        /* \"MyStructExamples2.sol\":845:872  _to.transfer(BalanceToSend) */\n      0x08fc\n        /* \"MyStructExamples2.sol\":858:871  BalanceToSend */\n      dup3\n        /* \"MyStructExamples2.sol\":845:872  _to.transfer(BalanceToSend) */\n      swap1\n      dup2\n      iszero\n      mul\n      swap1\n      mload(0x40)\n      0x00\n      mload(0x40)\n      dup1\n      dup4\n      sub\n      dup2\n      dup6\n      dup9\n      dup9\n      call\n      swap4\n      pop\n      pop\n      pop\n      pop\n      iszero\n      dup1\n      iszero\n      tag_38\n      jumpi\n      returndatasize\n      0x00\n      dup1\n      returndatacopy\n      revert(0x00, returndatasize)\n    tag_38:\n      pop\n        /* \"MyStructExamples2.sol\":677:879  {... */\n      pop\n        /* \"MyStructExamples2.sol\":612:879  function withdrawMoney(address payable _to, uint _amount) public {... */\n      pop\n      pop\n      jump\t// out\n        /* \"#utility.yul\":7:84   */\n    tag_39:\n        /* \"#utility.yul\":44:51   */\n      0x00\n        /* \"#utility.yul\":73:78   */\n      dup2\n        /* \"#utility.yul\":62:78   */\n      swap1\n      pop\n        /* \"#utility.yul\":7:84   */\n      swap2\n      swap1\n      pop\n      jump\t// out\n        /* \"#utility.yul\":90:208   */\n    tag_40:\n        /* \"#utility.yul\":177:201   */\n      tag_64\n        /* \"#utility.yul\":195:200   */\n      dup2\n        /* \"#utility.yul\":177:201   */\n      tag_39\n      jump\t// in\n    tag_64:\n        /* \"#utility.yul\":172:175   */\n      dup3\n        /* \"#utility.yul\":165:202   */\n      mstore\n        /* \"#utility.yul\":90:208   */\n      pop\n      pop\n      jump\t// out\n        /* \"#utility.yul\":214:436   */\n    tag_10:\n        /* \"#utility.yul\":307:311   */\n      0x00\n        /* \"#utility.yul\":345:347   */\n      0x20\n        /* \"#utility.yul\":334:343   */\n      dup3\n        /* \"#utility.yul\":330:348   */\n      add\n        /* \"#utility.yul\":322:348   */\n      swap1\n      pop\n        /* \"#utility.yul\":358:429   */\n      tag_66\n        /* \"#utility.yul\":426:427   */\n      0x00\n        /* \"#utility.yul\":415:424   */\n      dup4\n        /* \"#utility.yul\":411:428   */\n      add\n        /* \"#utility.yul\":402:408   */\n      dup5\n        /* \"#utility.yul\":358:429   */\n      tag_40\n      jump\t// in\n    tag_66:\n        /* \"#utility.yul\":214:436   */\n      swap3\n      swap2\n      pop\n      pop\n      jump\t// out\n        /* \"#utility.yul\":523:640   */\n    tag_42:\n        /* \"#utility.yul\":632:633   */\n      0x00\n        /* \"#utility.yul\":629:630   */\n      dup1\n        /* \"#utility.yul\":622:634   */\n      revert\n        /* \"#utility.yul\":769:895   */\n    tag_44:\n        /* \"#utility.yul\":806:813   */\n      0x00\n        /* \"#utility.yul\":846:888   */\n      0xffffffffffffffffffffffffffffffffffffffff\n        /* \"#utility.yul\":839:844   */\n      dup3\n        /* \"#utility.yul\":835:889   */\n      and\n        /* \"#utility.yul\":824:889   */\n      swap1\n      pop\n        /* \"#utility.yul\":769:895   */\n      swap2\n      swap1\n      pop\n      jump\t// out\n        /* \"#utility.yul\":901:997   */\n    tag_45:\n        /* \"#utility.yul\":938:945   */\n      0x00\n        /* \"#utility.yul\":967:991   */\n      tag_72\n        /* \"#utility.yul\":985:990   */\n      dup3\n        /* \"#utility.yul\":967:991   */\n      tag_44\n      jump\t// in\n    tag_72:\n        /* \"#utility.yul\":956:991   */\n      swap1\n      pop\n        /* \"#utility.yul\":901:997   */\n      swap2\n      swap1\n      pop\n      jump\t// out\n        /* \"#utility.yul\":1003:1125   */\n    tag_46:\n        /* \"#utility.yul\":1076:1100   */\n      tag_74\n        /* \"#utility.yul\":1094:1099   */\n      dup2\n        /* \"#utility.yul\":1076:1100   */\n      tag_45\n      jump\t// in\n    tag_74:\n        /* \"#utility.yul\":1069:1074   */\n      dup2\n        /* \"#utility.yul\":1066:1101   */\n      eq\n        /* \"#utility.yul\":1056:1119   */\n      tag_75\n      jumpi\n        /* \"#utility.yul\":1115:1116   */\n      0x00\n        /* \"#utility.yul\":1112:1113   */\n      dup1\n        /* \"#utility.yul\":1105:1117   */\n      revert\n        /* \"#utility.yul\":1056:1119   */\n    tag_75:\n        /* \"#utility.yul\":1003:1125   */\n      pop\n      jump\t// out\n        /* \"#utility.yul\":1131:1270   */\n    tag_47:\n        /* \"#utility.yul\":1177:1182   */\n      0x00\n        /* \"#utility.yul\":1215:1221   */\n      dup2\n        /* \"#utility.yul\":1202:1222   */\n      calldataload\n        /* \"#utility.yul\":1193:1222   */\n      swap1\n      pop\n        /* \"#utility.yul\":1231:1264   */\n      tag_77\n        /* \"#utility.yul\":1258:1263   */\n      dup2\n        /* \"#utility.yul\":1231:1264   */\n      tag_46\n      jump\t// in\n    tag_77:\n        /* \"#utility.yul\":1131:1270   */\n      swap3\n      swap2\n      pop\n      pop\n      jump\t// out\n        /* \"#utility.yul\":1276:1605   */\n    tag_14:\n        /* \"#utility.yul\":1335:1341   */\n      0x00\n        /* \"#utility.yul\":1384:1386   */\n      0x20\n        /* \"#utility.yul\":1372:1381   */\n      dup3\n        /* \"#utility.yul\":1363:1370   */\n      dup5\n        /* \"#utility.yul\":1359:1382   */\n      sub\n        /* \"#utility.yul\":1355:1387   */\n      slt\n        /* \"#utility.yul\":1352:1471   */\n      iszero\n      tag_79\n      jumpi\n        /* \"#utility.yul\":1390:1469   */\n      tag_80\n      tag_42\n      jump\t// in\n    tag_80:\n        /* \"#utility.yul\":1352:1471   */\n    tag_79:\n        /* \"#utility.yul\":1510:1511   */\n      0x00\n        /* \"#utility.yul\":1535:1588   */\n      tag_81\n        /* \"#utility.yul\":1580:1587   */\n      dup5\n        /* \"#utility.yul\":1571:1577   */\n      dup3\n        /* \"#utility.yul\":1560:1569   */\n      dup6\n        /* \"#utility.yul\":1556:1578   */\n      add\n        /* \"#utility.yul\":1535:1588   */\n      tag_47\n      jump\t// in\n    tag_81:\n        /* \"#utility.yul\":1525:1588   */\n      swap2\n      pop\n        /* \"#utility.yul\":1481:1598   */\n      pop\n        /* \"#utility.yul\":1276:1605   */\n      swap3\n      swap2\n      pop\n      pop\n      jump\t// out\n        /* \"#utility.yul\":1611:1687   */\n    tag_48:\n        /* \"#utility.yul\":1647:1654   */\n      0x00\n        /* \"#utility.yul\":1676:1681   */\n      dup2\n        /* \"#utility.yul\":1665:1681   */\n      swap1\n      pop\n        /* \"#utility.yul\":1611:1687   */\n      swap2\n      swap1\n      pop\n      jump\t// out\n        /* \"#utility.yul\":1693:1808   */\n    tag_49:\n        /* \"#utility.yul\":1778:1801   */\n      tag_84\n        /* \"#utility.yul\":1795:1800   */\n      dup2\n        /* \"#utility.yul\":1778:1801   */\n      tag_48\n      jump\t// in\n    tag_84:\n        /* \"#utility.yul\":1773:1776   */\n      dup3\n        /* \"#utility.yul\":1766:1802   */\n      mstore\n        /* \"#utility.yul\":1693:1808   */\n      pop\n      pop\n      jump\t// out\n        /* \"#utility.yul\":1814:1904   */\n    tag_50:\n        /* \"#utility.yul\":1848:1855   */\n      0x00\n        /* \"#utility.yul\":1891:1896   */\n      dup2\n        /* \"#utility.yul\":1884:1897   */\n      iszero\n        /* \"#utility.yul\":1877:1898   */\n      iszero\n        /* \"#utility.yul\":1866:1898   */\n      swap1\n      pop\n        /* \"#utility.yul\":1814:1904   */\n      swap2\n      swap1\n      pop\n      jump\t// out\n        /* \"#utility.yul\":1910:2019   */\n    tag_51:\n        /* \"#utility.yul\":1991:2012   */\n      tag_87\n        /* \"#utility.yul\":2006:2011   */\n      dup2\n        /* \"#utility.yul\":1991:2012   */\n      tag_50\n      jump\t// in\n    tag_87:\n        /* \"#utility.yul\":1986:1989   */\n      dup3\n        /* \"#utility.yul\":1979:2013   */\n      mstore\n        /* \"#utility.yul\":1910:2019   */\n      pop\n      pop\n      jump\t// out\n        /* \"#utility.yul\":2025:2451   */\n    tag_17:\n        /* \"#utility.yul\":2166:2170   */\n      0x00\n        /* \"#utility.yul\":2204:2206   */\n      0x60\n        /* \"#utility.yul\":2193:2202   */\n      dup3\n        /* \"#utility.yul\":2189:2207   */\n      add\n        /* \"#utility.yul\":2181:2207   */\n      swap1\n      pop\n        /* \"#utility.yul\":2217:2288   */\n      tag_89\n        /* \"#utility.yul\":2285:2286   */\n      0x00\n        /* \"#utility.yul\":2274:2283   */\n      dup4\n        /* \"#utility.yul\":2270:2287   */\n      add\n        /* \"#utility.yul\":2261:2267   */\n      dup7\n        /* \"#utility.yul\":2217:2288   */\n      tag_40\n      jump\t// in\n    tag_89:\n        /* \"#utility.yul\":2298:2368   */\n      tag_90\n        /* \"#utility.yul\":2364:2366   */\n      0x20\n        /* \"#utility.yul\":2353:2362   */\n      dup4\n        /* \"#utility.yul\":2349:2367   */\n      add\n        /* \"#utility.yul\":2340:2346   */\n      dup6\n        /* \"#utility.yul\":2298:2368   */\n      tag_49\n      jump\t// in\n    tag_90:\n        /* \"#utility.yul\":2378:2444   */\n      tag_91\n        /* \"#utility.yul\":2440:2442   */\n      0x40\n        /* \"#utility.yul\":2429:2438   */\n      dup4\n        /* \"#utility.yul\":2425:2443   */\n      add\n        /* \"#utility.yul\":2416:2422   */\n      dup5\n        /* \"#utility.yul\":2378:2444   */\n      tag_51\n      jump\t// in\n    tag_91:\n        /* \"#utility.yul\":2025:2451   */\n      swap5\n      swap4\n      pop\n      pop\n      pop\n      pop\n      jump\t// out\n        /* \"#utility.yul\":2457:2561   */\n    tag_52:\n        /* \"#utility.yul\":2502:2509   */\n      0x00\n        /* \"#utility.yul\":2531:2555   */\n      tag_93\n        /* \"#utility.yul\":2549:2554   */\n      dup3\n        /* \"#utility.yul\":2531:2555   */\n      tag_44\n      jump\t// in\n    tag_93:\n        /* \"#utility.yul\":2520:2555   */\n      swap1\n      pop\n        /* \"#utility.yul\":2457:2561   */\n      swap2\n      swap1\n      pop\n      jump\t// out\n        /* \"#utility.yul\":2567:2705   */\n    tag_53:\n        /* \"#utility.yul\":2648:2680   */\n      tag_95\n        /* \"#utility.yul\":2674:2679   */\n      dup2\n        /* \"#utility.yul\":2648:2680   */\n      tag_52\n      jump\t// in\n    tag_95:\n        /* \"#utility.yul\":2641:2646   */\n      dup2\n        /* \"#utility.yul\":2638:2681   */\n      eq\n        /* \"#utility.yul\":2628:2699   */\n      tag_96\n      jumpi\n        /* \"#utility.yul\":2695:2696   */\n      0x00\n        /* \"#utility.yul\":2692:2693   */\n      dup1\n        /* \"#utility.yul\":2685:2697   */\n      revert\n        /* \"#utility.yul\":2628:2699   */\n    tag_96:\n        /* \"#utility.yul\":2567:2705   */\n      pop\n      jump\t// out\n        /* \"#utility.yul\":2711:2866   */\n    tag_54:\n        /* \"#utility.yul\":2765:2770   */\n      0x00\n        /* \"#utility.yul\":2803:2809   */\n      dup2\n        /* \"#utility.yul\":2790:2810   */\n      calldataload\n        /* \"#utility.yul\":2781:2810   */\n      swap1\n      pop\n        /* \"#utility.yul\":2819:2860   */\n      tag_98\n        /* \"#utility.yul\":2854:2859   */\n      dup2\n        /* \"#utility.yul\":2819:2860   */\n      tag_53\n      jump\t// in\n    tag_98:\n        /* \"#utility.yul\":2711:2866   */\n      swap3\n      swap2\n      pop\n      pop\n      jump\t// out\n        /* \"#utility.yul\":2872:2994   */\n    tag_55:\n        /* \"#utility.yul\":2945:2969   */\n      tag_100\n        /* \"#utility.yul\":2963:2968   */\n      dup2\n        /* \"#utility.yul\":2945:2969   */\n      tag_39\n      jump\t// in\n    tag_100:\n        /* \"#utility.yul\":2938:2943   */\n      dup2\n        /* \"#utility.yul\":2935:2970   */\n      eq\n        /* \"#utility.yul\":2925:2988   */\n      tag_101\n      jumpi\n        /* \"#utility.yul\":2984:2985   */\n      0x00\n        /* \"#utility.yul\":2981:2982   */\n      dup1\n        /* \"#utility.yul\":2974:2986   */\n      revert\n        /* \"#utility.yul\":2925:2988   */\n    tag_101:\n        /* \"#utility.yul\":2872:2994   */\n      pop\n      jump\t// out\n        /* \"#utility.yul\":3000:3139   */\n    tag_56:\n        /* \"#utility.yul\":3046:3051   */\n      0x00\n        /* \"#utility.yul\":3084:3090   */\n      dup2\n        /* \"#utility.yul\":3071:3091   */\n      calldataload\n        /* \"#utility.yul\":3062:3091   */\n      swap1\n      pop\n        /* \"#utility.yul\":3100:3133   */\n      tag_103\n        /* \"#utility.yul\":3127:3132   */\n      dup2\n        /* \"#utility.yul\":3100:3133   */\n      tag_55\n      jump\t// in\n    tag_103:\n        /* \"#utility.yul\":3000:3139   */\n      swap3\n      swap2\n      pop\n      pop\n      jump\t// out\n        /* \"#utility.yul\":3145:3635   */\n    tag_23:\n        /* \"#utility.yul\":3221:3227   */\n      0x00\n        /* \"#utility.yul\":3229:3235   */\n      dup1\n        /* \"#utility.yul\":3278:3280   */\n      0x40\n        /* \"#utility.yul\":3266:3275   */\n      dup4\n        /* \"#utility.yul\":3257:3264   */\n      dup6\n        /* \"#utility.yul\":3253:3276   */\n      sub\n        /* \"#utility.yul\":3249:3281   */\n      slt\n        /* \"#utility.yul\":3246:3365   */\n      iszero\n      tag_105\n      jumpi\n        /* \"#utility.yul\":3284:3363   */\n      tag_106\n      tag_42\n      jump\t// in\n    tag_106:\n        /* \"#utility.yul\":3246:3365   */\n    tag_105:\n        /* \"#utility.yul\":3404:3405   */\n      0x00\n        /* \"#utility.yul\":3429:3490   */\n      tag_107\n        /* \"#utility.yul\":3482:3489   */\n      dup6\n        /* \"#utility.yul\":3473:3479   */\n      dup3\n        /* \"#utility.yul\":3462:3471   */\n      dup7\n        /* \"#utility.yul\":3458:3480   */\n      add\n        /* \"#utility.yul\":3429:3490   */\n      tag_54\n      jump\t// in\n    tag_107:\n        /* \"#utility.yul\":3419:3490   */\n      swap3\n      pop\n        /* \"#utility.yul\":3375:3500   */\n      pop\n        /* \"#utility.yul\":3539:3541   */\n      0x20\n        /* \"#utility.yul\":3565:3618   */\n      tag_108\n        /* \"#utility.yul\":3610:3617   */\n      dup6\n        /* \"#utility.yul\":3601:3607   */\n      dup3\n        /* \"#utility.yul\":3590:3599   */\n      dup7\n        /* \"#utility.yul\":3586:3608   */\n      add\n        /* \"#utility.yul\":3565:3618   */\n      tag_56\n      jump\t// in\n    tag_108:\n        /* \"#utility.yul\":3555:3618   */\n      swap2\n      pop\n        /* \"#utility.yul\":3510:3628   */\n      pop\n        /* \"#utility.yul\":3145:3635   */\n      swap3\n      pop\n      swap3\n      swap1\n      pop\n      jump\t// out\n        /* \"#utility.yul\":3641:3821   */\n    tag_57:\n        /* \"#utility.yul\":3689:3766   */\n      0x4e487b7100000000000000000000000000000000000000000000000000000000\n        /* \"#utility.yul\":3686:3687   */\n      0x00\n        /* \"#utility.yul\":3679:3767   */\n      mstore\n        /* \"#utility.yul\":3786:3790   */\n      0x11\n        /* \"#utility.yul\":3783:3784   */\n      0x04\n        /* \"#utility.yul\":3776:3791   */\n      mstore\n        /* \"#utility.yul\":3810:3814   */\n      0x24\n        /* \"#utility.yul\":3807:3808   */\n      0x00\n        /* \"#utility.yul\":3800:3815   */\n      revert\n        /* \"#utility.yul\":3827:4018   */\n    tag_28:\n        /* \"#utility.yul\":3867:3870   */\n      0x00\n        /* \"#utility.yul\":3886:3906   */\n      tag_111\n        /* \"#utility.yul\":3904:3905   */\n      dup3\n        /* \"#utility.yul\":3886:3906   */\n      tag_39\n      jump\t// in\n    tag_111:\n        /* \"#utility.yul\":3881:3906   */\n      swap2\n      pop\n        /* \"#utility.yul\":3920:3940   */\n      tag_112\n        /* \"#utility.yul\":3938:3939   */\n      dup4\n        /* \"#utility.yul\":3920:3940   */\n      tag_39\n      jump\t// in\n    tag_112:\n        /* \"#utility.yul\":3915:3940   */\n      swap3\n      pop\n        /* \"#utility.yul\":3963:3964   */\n      dup3\n        /* \"#utility.yul\":3960:3961   */\n      dup3\n        /* \"#utility.yul\":3956:3965   */\n      add\n        /* \"#utility.yul\":3949:3965   */\n      swap1\n      pop\n        /* \"#utility.yul\":3984:3987   */\n      dup1\n        /* \"#utility.yul\":3981:3982   */\n      dup3\n        /* \"#utility.yul\":3978:3988   */\n      gt\n        /* \"#utility.yul\":3975:4011   */\n      iszero\n      tag_113\n      jumpi\n        /* \"#utility.yul\":3991:4009   */\n      tag_114\n      tag_57\n      jump\t// in\n    tag_114:\n        /* \"#utility.yul\":3975:4011   */\n    tag_113:\n        /* \"#utility.yul\":3827:4018   */\n      swap3\n      swap2\n      pop\n      pop\n      jump\t// out\n        /* \"#utility.yul\":4024:4399   */\n    tag_30:\n        /* \"#utility.yul\":4063:4066   */\n      0x00\n        /* \"#utility.yul\":4082:4101   */\n      tag_116\n        /* \"#utility.yul\":4099:4100   */\n      dup3\n        /* \"#utility.yul\":4082:4101   */\n      tag_48\n      jump\t// in\n    tag_116:\n        /* \"#utility.yul\":4077:4101   */\n      swap2\n      pop\n        /* \"#utility.yul\":4115:4134   */\n      tag_117\n        /* \"#utility.yul\":4132:4133   */\n      dup4\n        /* \"#utility.yul\":4115:4134   */\n      tag_48\n      jump\t// in\n    tag_117:\n        /* \"#utility.yul\":4110:4134   */\n      swap3\n      pop\n        /* \"#utility.yul\":4157:4158   */\n      dup3\n        /* \"#utility.yul\":4154:4155   */\n      dup3\n        /* \"#utility.yul\":4150:4159   */\n      add\n        /* \"#utility.yul\":4143:4159   */\n      swap1\n      pop\n        /* \"#utility.yul\":4355:4356   */\n      dup3\n        /* \"#utility.yul\":4350:4353   */\n      dup2\n        /* \"#utility.yul\":4346:4357   */\n      slt\n        /* \"#utility.yul\":4339:4358   */\n      iszero\n        /* \"#utility.yul\":4335:4336   */\n      0x00\n        /* \"#utility.yul\":4332:4333   */\n      dup4\n        /* \"#utility.yul\":4328:4337   */\n      slt\n        /* \"#utility.yul\":4324:4359   */\n      and\n        /* \"#utility.yul\":4307:4308   */\n      dup4\n        /* \"#utility.yul\":4302:4305   */\n      dup3\n        /* \"#utility.yul\":4298:4309   */\n      slt\n        /* \"#utility.yul\":4293:4294   */\n      0x00\n        /* \"#utility.yul\":4290:4291   */\n      dup5\n        /* \"#utility.yul\":4286:4295   */\n      slt\n        /* \"#utility.yul\":4279:4296   */\n      iszero\n        /* \"#utility.yul\":4275:4310   */\n      and\n        /* \"#utility.yul\":4259:4369   */\n      or\n        /* \"#utility.yul\":4256:4392   */\n      iszero\n      tag_118\n      jumpi\n        /* \"#utility.yul\":4372:4390   */\n      tag_119\n      tag_57\n      jump\t// in\n    tag_119:\n        /* \"#utility.yul\":4256:4392   */\n    tag_118:\n        /* \"#utility.yul\":4024:4399   */\n      swap3\n      swap2\n      pop\n      pop\n      jump\t// out\n        /* \"#utility.yul\":4405:4574   */\n    tag_58:\n        /* \"#utility.yul\":4489:4500   */\n      0x00\n        /* \"#utility.yul\":4523:4529   */\n      dup3\n        /* \"#utility.yul\":4518:4521   */\n      dup3\n        /* \"#utility.yul\":4511:4530   */\n      mstore\n        /* \"#utility.yul\":4563:4567   */\n      0x20\n        /* \"#utility.yul\":4558:4561   */\n      dup3\n        /* \"#utility.yul\":4554:4568   */\n      add\n        /* \"#utility.yul\":4539:4568   */\n      swap1\n      pop\n        /* \"#utility.yul\":4405:4574   */\n      swap3\n      swap2\n      pop\n      pop\n      jump\t// out\n        /* \"#utility.yul\":4580:4746   */\n    tag_59:\n        /* \"#utility.yul\":4720:4738   */\n      0x4e6f7420656e6f7567682066756e647300000000000000000000000000000000\n        /* \"#utility.yul\":4716:4717   */\n      0x00\n        /* \"#utility.yul\":4708:4714   */\n      dup3\n        /* \"#utility.yul\":4704:4718   */\n      add\n        /* \"#utility.yul\":4697:4739   */\n      mstore\n        /* \"#utility.yul\":4580:4746   */\n      pop\n      jump\t// out\n        /* \"#utility.yul\":4752:5118   */\n    tag_60:\n        /* \"#utility.yul\":4894:4897   */\n      0x00\n        /* \"#utility.yul\":4915:4982   */\n      tag_123\n        /* \"#utility.yul\":4979:4981   */\n      0x10\n        /* \"#utility.yul\":4974:4977   */\n      dup4\n        /* \"#utility.yul\":4915:4982   */\n      tag_58\n      jump\t// in\n    tag_123:\n        /* \"#utility.yul\":4908:4982   */\n      swap2\n      pop\n        /* \"#utility.yul\":4991:5084   */\n      tag_124\n        /* \"#utility.yul\":5080:5083   */\n      dup3\n        /* \"#utility.yul\":4991:5084   */\n      tag_59\n      jump\t// in\n    tag_124:\n        /* \"#utility.yul\":5109:5111   */\n      0x20\n        /* \"#utility.yul\":5104:5107   */\n      dup3\n        /* \"#utility.yul\":5100:5112   */\n      add\n        /* \"#utility.yul\":5093:5112   */\n      swap1\n      pop\n        /* \"#utility.yul\":4752:5118   */\n      swap2\n      swap1\n      pop\n      jump\t// out\n        /* \"#utility.yul\":5124:5543   */\n    tag_34:\n        /* \"#utility.yul\":5290:5294   */\n      0x00\n        /* \"#utility.yul\":5328:5330   */\n      0x20\n        /* \"#utility.yul\":5317:5326   */\n      dup3\n        /* \"#utility.yul\":5313:5331   */\n      add\n        /* \"#utility.yul\":5305:5331   */\n      swap1\n      pop\n        /* \"#utility.yul\":5377:5386   */\n      dup2\n        /* \"#utility.yul\":5371:5375   */\n      dup2\n        /* \"#utility.yul\":5367:5387   */\n      sub\n        /* \"#utility.yul\":5363:5364   */\n      0x00\n        /* \"#utility.yul\":5352:5361   */\n      dup4\n        /* \"#utility.yul\":5348:5365   */\n      add\n        /* \"#utility.yul\":5341:5388   */\n      mstore\n        /* \"#utility.yul\":5405:5536   */\n      tag_126\n        /* \"#utility.yul\":5531:5535   */\n      dup2\n        /* \"#utility.yul\":5405:5536   */\n      tag_60\n      jump\t// in\n    tag_126:\n        /* \"#utility.yul\":5397:5536   */\n      swap1\n      pop\n        /* \"#utility.yul\":5124:5543   */\n      swap2\n      swap1\n      pop\n      jump\t// out\n        /* \"#utility.yul\":5549:5743   */\n    tag_36:\n        /* \"#utility.yul\":5589:5593   */\n      0x00\n        /* \"#utility.yul\":5609:5629   */\n      tag_128\n        /* \"#utility.yul\":5627:5628   */\n      dup3\n        /* \"#utility.yul\":5609:5629   */\n      tag_39\n      jump\t// in\n    tag_128:\n        /* \"#utility.yul\":5604:5629   */\n      swap2\n      pop\n        /* \"#utility.yul\":5643:5663   */\n      tag_129\n        /* \"#utility.yul\":5661:5662   */\n      dup4\n        /* \"#utility.yul\":5643:5663   */\n      tag_39\n      jump\t// in\n    tag_129:\n        /* \"#utility.yul\":5638:5663   */\n      swap3\n      pop\n        /* \"#utility.yul\":5687:5688   */\n      dup3\n        /* \"#utility.yul\":5684:5685   */\n      dup3\n        /* \"#utility.yul\":5680:5689   */\n      sub\n        /* \"#utility.yul\":5672:5689   */\n      swap1\n      pop\n        /* \"#utility.yul\":5711:5712   */\n      dup2\n        /* \"#utility.yul\":5705:5709   */\n      dup2\n        /* \"#utility.yul\":5702:5713   */\n      gt\n        /* \"#utility.yul\":5699:5736   */\n      iszero\n      tag_130\n      jumpi\n        /* \"#utility.yul\":5716:5734   */\n      tag_131\n      tag_57\n      jump\t// in\n    tag_131:\n        /* \"#utility.yul\":5699:5736   */\n    tag_130:\n        /* \"#utility.yul\":5549:5743   */\n      swap3\n      swap2\n      pop\n      pop\n      jump\t// out\n\n    auxdata: 0xa2646970667358221220992012542a24395f7efa5a2a950f29116b2938b6a41ffdf15d4a84a65b75a03464736f6c63430008100033\n}\n",
				"bytecode": {
					"linkReferences": {},
					"object": "608060405234801561001057600080fd5b506106ff806100206000396000f3fe60806040526004361061003f5760003560e01c806312065fe0146100445780639408aa161461006f578063cbedbf5a146100ae578063f274c897146100b8575b600080fd5b34801561005057600080fd5b506100596100e1565b60405161006691906103b1565b60405180910390f35b34801561007b57600080fd5b506100966004803603810190610091919061042f565b6100e9565b6040516100a593929190610490565b60405180910390f35b6100b6610120565b005b3480156100c457600080fd5b506100df60048036038101906100da9190610531565b61026b565b005b600047905090565b60006020528060005260406000206000915090508060000154908060010154908060020160009054906101000a900460ff16905083565b346000803373ffffffffffffffffffffffffffffffffffffffff1673ffffffffffffffffffffffffffffffffffffffff168152602001908152602001600020600001600082825461017191906105a0565b9250508190555060016000803373ffffffffffffffffffffffffffffffffffffffff1673ffffffffffffffffffffffffffffffffffffffff16815260200190815260200160002060010160008282546101ca91906105d4565b92505081905550346000803373ffffffffffffffffffffffffffffffffffffffff1673ffffffffffffffffffffffffffffffffffffffff16815260200190815260200160002060030160008060003373ffffffffffffffffffffffffffffffffffffffff1673ffffffffffffffffffffffffffffffffffffffff16815260200190815260200160002060010154815260200190815260200160002081905550565b806000803373ffffffffffffffffffffffffffffffffffffffff1673ffffffffffffffffffffffffffffffffffffffff1681526020019081526020016000206000015410156102ef576040517f08c379a00000000000000000000000000000000000000000000000000000000081526004016102e690610675565b60405180910390fd5b6000819050816000803373ffffffffffffffffffffffffffffffffffffffff1673ffffffffffffffffffffffffffffffffffffffff16815260200190815260200160002060000160008282546103459190610695565b925050819055508273ffffffffffffffffffffffffffffffffffffffff166108fc829081150290604051600060405180830381858888f19350505050158015610392573d6000803e3d6000fd5b50505050565b6000819050919050565b6103ab81610398565b82525050565b60006020820190506103c660008301846103a2565b92915050565b600080fd5b600073ffffffffffffffffffffffffffffffffffffffff82169050919050565b60006103fc826103d1565b9050919050565b61040c816103f1565b811461041757600080fd5b50565b60008135905061042981610403565b92915050565b600060208284031215610445576104446103cc565b5b60006104538482850161041a565b91505092915050565b6000819050919050565b61046f8161045c565b82525050565b60008115159050919050565b61048a81610475565b82525050565b60006060820190506104a560008301866103a2565b6104b26020830185610466565b6104bf6040830184610481565b949350505050565b60006104d2826103d1565b9050919050565b6104e2816104c7565b81146104ed57600080fd5b50565b6000813590506104ff816104d9565b92915050565b61050e81610398565b811461051957600080fd5b50565b60008135905061052b81610505565b92915050565b60008060408385031215610548576105476103cc565b5b6000610556858286016104f0565b92505060206105678582860161051c565b9150509250929050565b7f4e487b7100000000000000000000000000000000000000000000000000000000600052601160045260246000fd5b60006105ab82610398565b91506105b683610398565b92508282019050808211156105ce576105cd610571565b5b92915050565b60006105df8261045c565b91506105ea8361045c565b92508282019050828112156000831216838212600084121516171561061257610611610571565b5b92915050565b600082825260208201905092915050565b7f4e6f7420656e6f7567682066756e647300000000000000000000000000000000600082015250565b600061065f601083610618565b915061066a82610629565b602082019050919050565b6000602082019050818103600083015261068e81610652565b9050919050565b60006106a082610398565b91506106ab83610398565b92508282039050818111156106c3576106c2610571565b5b9291505056fea2646970667358221220992012542a24395f7efa5a2a950f29116b2938b6a41ffdf15d4a84a65b75a03464736f6c63430008100033",
					"opcodes": "PUSH1 0x80 PUSH1 0x40 MSTORE CALLVALUE DUP1 ISZERO PUSH2 0x10 JUMPI PUSH1 0x0 DUP1 REVERT JUMPDEST POP PUSH2 0x6FF DUP1 PUSH2 0x20 PUSH1 0x0 CODECOPY PUSH1 0x0 RETURN INVALID PUSH1 0x80 PUSH1 0x40 MSTORE PUSH1 0x4 CALLDATASIZE LT PUSH2 0x3F JUMPI PUSH1 0x0 CALLDATALOAD PUSH1 0xE0 SHR DUP1 PUSH4 0x12065FE0 EQ PUSH2 0x44 JUMPI DUP1 PUSH4 0x9408AA16 EQ PUSH2 0x6F JUMPI DUP1 PUSH4 0xCBEDBF5A EQ PUSH2 0xAE JUMPI DUP1 PUSH4 0xF274C897 EQ PUSH2 0xB8 JUMPI JUMPDEST PUSH1 0x0 DUP1 REVERT JUMPDEST CALLVALUE DUP1 ISZERO PUSH2 0x50 JUMPI PUSH1 0x0 DUP1 REVERT JUMPDEST POP PUSH2 0x59 PUSH2 0xE1 JUMP JUMPDEST PUSH1 0x40 MLOAD PUSH2 0x66 SWAP2 SWAP1 PUSH2 0x3B1 JUMP JUMPDEST PUSH1 0x40 MLOAD DUP1 SWAP2 SUB SWAP1 RETURN JUMPDEST CALLVALUE DUP1 ISZERO PUSH2 0x7B JUMPI PUSH1 0x0 DUP1 REVERT JUMPDEST POP PUSH2 0x96 PUSH1 0x4 DUP1 CALLDATASIZE SUB DUP2 ADD SWAP1 PUSH2 0x91 SWAP2 SWAP1 PUSH2 0x42F JUMP JUMPDEST PUSH2 0xE9 JUMP JUMPDEST PUSH1 0x40 MLOAD PUSH2 0xA5 SWAP4 SWAP3 SWAP2 SWAP1 PUSH2 0x490 JUMP JUMPDEST PUSH1 0x40 MLOAD DUP1 SWAP2 SUB SWAP1 RETURN JUMPDEST PUSH2 0xB6 PUSH2 0x120 JUMP JUMPDEST STOP JUMPDEST CALLVALUE DUP1 ISZERO PUSH2 0xC4 JUMPI PUSH1 0x0 DUP1 REVERT JUMPDEST POP PUSH2 0xDF PUSH1 0x4 DUP1 CALLDATASIZE SUB DUP2 ADD SWAP1 PUSH2 0xDA SWAP2 SWAP1 PUSH2 0x531 JUMP JUMPDEST PUSH2 0x26B JUMP JUMPDEST STOP JUMPDEST PUSH1 0x0 SELFBALANCE SWAP1 POP SWAP1 JUMP JUMPDEST PUSH1 0x0 PUSH1 0x20 MSTORE DUP1 PUSH1 0x0 MSTORE PUSH1 0x40 PUSH1 0x0 KECCAK256 PUSH1 0x0 SWAP2 POP SWAP1 POP DUP1 PUSH1 0x0 ADD SLOAD SWAP1 DUP1 PUSH1 0x1 ADD SLOAD SWAP1 DUP1 PUSH1 0x2 ADD PUSH1 0x0 SWAP1 SLOAD SWAP1 PUSH2 0x100 EXP SWAP1 DIV PUSH1 0xFF AND SWAP1 POP DUP4 JUMP JUMPDEST CALLVALUE PUSH1 0x0 DUP1 CALLER PUSH20 0xFFFFFFFFFFFFFFFFFFFFFFFFFFFFFFFFFFFFFFFF AND PUSH20 0xFFFFFFFFFFFFFFFFFFFFFFFFFFFFFFFFFFFFFFFF AND DUP2 MSTORE PUSH1 0x20 ADD SWAP1 DUP2 MSTORE PUSH1 0x20 ADD PUSH1 0x0 KECCAK256 PUSH1 0x0 ADD PUSH1 0x0 DUP3 DUP3 SLOAD PUSH2 0x171 SWAP2 SWAP1 PUSH2 0x5A0 JUMP JUMPDEST SWAP3 POP POP DUP2 SWAP1 SSTORE POP PUSH1 0x1 PUSH1 0x0 DUP1 CALLER PUSH20 0xFFFFFFFFFFFFFFFFFFFFFFFFFFFFFFFFFFFFFFFF AND PUSH20 0xFFFFFFFFFFFFFFFFFFFFFFFFFFFFFFFFFFFFFFFF AND DUP2 MSTORE PUSH1 0x20 ADD SWAP1 DUP2 MSTORE PUSH1 0x20 ADD PUSH1 0x0 KECCAK256 PUSH1 0x1 ADD PUSH1 0x0 DUP3 DUP3 SLOAD PUSH2 0x1CA SWAP2 SWAP1 PUSH2 0x5D4 JUMP JUMPDEST SWAP3 POP POP DUP2 SWAP1 SSTORE POP CALLVALUE PUSH1 0x0 DUP1 CALLER PUSH20 0xFFFFFFFFFFFFFFFFFFFFFFFFFFFFFFFFFFFFFFFF AND PUSH20 0xFFFFFFFFFFFFFFFFFFFFFFFFFFFFFFFFFFFFFFFF AND DUP2 MSTORE PUSH1 0x20 ADD SWAP1 DUP2 MSTORE PUSH1 0x20 ADD PUSH1 0x0 KECCAK256 PUSH1 0x3 ADD PUSH1 0x0 DUP1 PUSH1 0x0 CALLER PUSH20 0xFFFFFFFFFFFFFFFFFFFFFFFFFFFFFFFFFFFFFFFF AND PUSH20 0xFFFFFFFFFFFFFFFFFFFFFFFFFFFFFFFFFFFFFFFF AND DUP2 MSTORE PUSH1 0x20 ADD SWAP1 DUP2 MSTORE PUSH1 0x20 ADD PUSH1 0x0 KECCAK256 PUSH1 0x1 ADD SLOAD DUP2 MSTORE PUSH1 0x20 ADD SWAP1 DUP2 MSTORE PUSH1 0x20 ADD PUSH1 0x0 KECCAK256 DUP2 SWAP1 SSTORE POP JUMP JUMPDEST DUP1 PUSH1 0x0 DUP1 CALLER PUSH20 0xFFFFFFFFFFFFFFFFFFFFFFFFFFFFFFFFFFFFFFFF AND PUSH20 0xFFFFFFFFFFFFFFFFFFFFFFFFFFFFFFFFFFFFFFFF AND DUP2 MSTORE PUSH1 0x20 ADD SWAP1 DUP2 MSTORE PUSH1 0x20 ADD PUSH1 0x0 KECCAK256 PUSH1 0x0 ADD SLOAD LT ISZERO PUSH2 0x2EF JUMPI PUSH1 0x40 MLOAD PUSH32 0x8C379A000000000000000000000000000000000000000000000000000000000 DUP2 MSTORE PUSH1 0x4 ADD PUSH2 0x2E6 SWAP1 PUSH2 0x675 JUMP JUMPDEST PUSH1 0x40 MLOAD DUP1 SWAP2 SUB SWAP1 REVERT JUMPDEST PUSH1 0x0 DUP2 SWAP1 POP DUP2 PUSH1 0x0 DUP1 CALLER PUSH20 0xFFFFFFFFFFFFFFFFFFFFFFFFFFFFFFFFFFFFFFFF AND PUSH20 0xFFFFFFFFFFFFFFFFFFFFFFFFFFFFFFFFFFFFFFFF AND DUP2 MSTORE PUSH1 0x20 ADD SWAP1 DUP2 MSTORE PUSH1 0x20 ADD PUSH1 0x0 KECCAK256 PUSH1 0x0 ADD PUSH1 0x0 DUP3 DUP3 SLOAD PUSH2 0x345 SWAP2 SWAP1 PUSH2 0x695 JUMP JUMPDEST SWAP3 POP POP DUP2 SWAP1 SSTORE POP DUP3 PUSH20 0xFFFFFFFFFFFFFFFFFFFFFFFFFFFFFFFFFFFFFFFF AND PUSH2 0x8FC DUP3 SWAP1 DUP2 ISZERO MUL SWAP1 PUSH1 0x40 MLOAD PUSH1 0x0 PUSH1 0x40 MLOAD DUP1 DUP4 SUB DUP2 DUP6 DUP9 DUP9 CALL SWAP4 POP POP POP POP ISZERO DUP1 ISZERO PUSH2 0x392 JUMPI RETURNDATASIZE PUSH1 0x0 DUP1 RETURNDATACOPY RETURNDATASIZE PUSH1 0x0 REVERT JUMPDEST POP POP POP POP JUMP JUMPDEST PUSH1 0x0 DUP2 SWAP1 POP SWAP2 SWAP1 POP JUMP JUMPDEST PUSH2 0x3AB DUP2 PUSH2 0x398 JUMP JUMPDEST DUP3 MSTORE POP POP JUMP JUMPDEST PUSH1 0x0 PUSH1 0x20 DUP3 ADD SWAP1 POP PUSH2 0x3C6 PUSH1 0x0 DUP4 ADD DUP5 PUSH2 0x3A2 JUMP JUMPDEST SWAP3 SWAP2 POP POP JUMP JUMPDEST PUSH1 0x0 DUP1 REVERT JUMPDEST PUSH1 0x0 PUSH20 0xFFFFFFFFFFFFFFFFFFFFFFFFFFFFFFFFFFFFFFFF DUP3 AND SWAP1 POP SWAP2 SWAP1 POP JUMP JUMPDEST PUSH1 0x0 PUSH2 0x3FC DUP3 PUSH2 0x3D1 JUMP JUMPDEST SWAP1 POP SWAP2 SWAP1 POP JUMP JUMPDEST PUSH2 0x40C DUP2 PUSH2 0x3F1 JUMP JUMPDEST DUP2 EQ PUSH2 0x417 JUMPI PUSH1 0x0 DUP1 REVERT JUMPDEST POP JUMP JUMPDEST PUSH1 0x0 DUP2 CALLDATALOAD SWAP1 POP PUSH2 0x429 DUP2 PUSH2 0x403 JUMP JUMPDEST SWAP3 SWAP2 POP POP JUMP JUMPDEST PUSH1 0x0 PUSH1 0x20 DUP3 DUP5 SUB SLT ISZERO PUSH2 0x445 JUMPI PUSH2 0x444 PUSH2 0x3CC JUMP JUMPDEST JUMPDEST PUSH1 0x0 PUSH2 0x453 DUP5 DUP3 DUP6 ADD PUSH2 0x41A JUMP JUMPDEST SWAP2 POP POP SWAP3 SWAP2 POP POP JUMP JUMPDEST PUSH1 0x0 DUP2 SWAP1 POP SWAP2 SWAP1 POP JUMP JUMPDEST PUSH2 0x46F DUP2 PUSH2 0x45C JUMP JUMPDEST DUP3 MSTORE POP POP JUMP JUMPDEST PUSH1 0x0 DUP2 ISZERO ISZERO SWAP1 POP SWAP2 SWAP1 POP JUMP JUMPDEST PUSH2 0x48A DUP2 PUSH2 0x475 JUMP JUMPDEST DUP3 MSTORE POP POP JUMP JUMPDEST PUSH1 0x0 PUSH1 0x60 DUP3 ADD SWAP1 POP PUSH2 0x4A5 PUSH1 0x0 DUP4 ADD DUP7 PUSH2 0x3A2 JUMP JUMPDEST PUSH2 0x4B2 PUSH1 0x20 DUP4 ADD DUP6 PUSH2 0x466 JUMP JUMPDEST PUSH2 0x4BF PUSH1 0x40 DUP4 ADD DUP5 PUSH2 0x481 JUMP JUMPDEST SWAP5 SWAP4 POP POP POP POP JUMP JUMPDEST PUSH1 0x0 PUSH2 0x4D2 DUP3 PUSH2 0x3D1 JUMP JUMPDEST SWAP1 POP SWAP2 SWAP1 POP JUMP JUMPDEST PUSH2 0x4E2 DUP2 PUSH2 0x4C7 JUMP JUMPDEST DUP2 EQ PUSH2 0x4ED JUMPI PUSH1 0x0 DUP1 REVERT JUMPDEST POP JUMP JUMPDEST PUSH1 0x0 DUP2 CALLDATALOAD SWAP1 POP PUSH2 0x4FF DUP2 PUSH2 0x4D9 JUMP JUMPDEST SWAP3 SWAP2 POP POP JUMP JUMPDEST PUSH2 0x50E DUP2 PUSH2 0x398 JUMP JUMPDEST DUP2 EQ PUSH2 0x519 JUMPI PUSH1 0x0 DUP1 REVERT JUMPDEST POP JUMP JUMPDEST PUSH1 0x0 DUP2 CALLDATALOAD SWAP1 POP PUSH2 0x52B DUP2 PUSH2 0x505 JUMP JUMPDEST SWAP3 SWAP2 POP POP JUMP JUMPDEST PUSH1 0x0 DUP1 PUSH1 0x40 DUP4 DUP6 SUB SLT ISZERO PUSH2 0x548 JUMPI PUSH2 0x547 PUSH2 0x3CC JUMP JUMPDEST JUMPDEST PUSH1 0x0 PUSH2 0x556 DUP6 DUP3 DUP7 ADD PUSH2 0x4F0 JUMP JUMPDEST SWAP3 POP POP PUSH1 0x20 PUSH2 0x567 DUP6 DUP3 DUP7 ADD PUSH2 0x51C JUMP JUMPDEST SWAP2 POP POP SWAP3 POP SWAP3 SWAP1 POP JUMP JUMPDEST PUSH32 0x4E487B7100000000000000000000000000000000000000000000000000000000 PUSH1 0x0 MSTORE PUSH1 0x11 PUSH1 0x4 MSTORE PUSH1 0x24 PUSH1 0x0 REVERT JUMPDEST PUSH1 0x0 PUSH2 0x5AB DUP3 PUSH2 0x398 JUMP JUMPDEST SWAP2 POP PUSH2 0x5B6 DUP4 PUSH2 0x398 JUMP JUMPDEST SWAP3 POP DUP3 DUP3 ADD SWAP1 POP DUP1 DUP3 GT ISZERO PUSH2 0x5CE JUMPI PUSH2 0x5CD PUSH2 0x571 JUMP JUMPDEST JUMPDEST SWAP3 SWAP2 POP POP JUMP JUMPDEST PUSH1 0x0 PUSH2 0x5DF DUP3 PUSH2 0x45C JUMP JUMPDEST SWAP2 POP PUSH2 0x5EA DUP4 PUSH2 0x45C JUMP JUMPDEST SWAP3 POP DUP3 DUP3 ADD SWAP1 POP DUP3 DUP2 SLT ISZERO PUSH1 0x0 DUP4 SLT AND DUP4 DUP3 SLT PUSH1 0x0 DUP5 SLT ISZERO AND OR ISZERO PUSH2 0x612 JUMPI PUSH2 0x611 PUSH2 0x571 JUMP JUMPDEST JUMPDEST SWAP3 SWAP2 POP POP JUMP JUMPDEST PUSH1 0x0 DUP3 DUP3 MSTORE PUSH1 0x20 DUP3 ADD SWAP1 POP SWAP3 SWAP2 POP POP JUMP JUMPDEST PUSH32 0x4E6F7420656E6F7567682066756E647300000000000000000000000000000000 PUSH1 0x0 DUP3 ADD MSTORE POP JUMP JUMPDEST PUSH1 0x0 PUSH2 0x65F PUSH1 0x10 DUP4 PUSH2 0x618 JUMP JUMPDEST SWAP2 POP PUSH2 0x66A DUP3 PUSH2 0x629 JUMP JUMPDEST PUSH1 0x20 DUP3 ADD SWAP1 POP SWAP2 SWAP1 POP JUMP JUMPDEST PUSH1 0x0 PUSH1 0x20 DUP3 ADD SWAP1 POP DUP2 DUP2 SUB PUSH1 0x0 DUP4 ADD MSTORE PUSH2 0x68E DUP2 PUSH2 0x652 JUMP JUMPDEST SWAP1 POP SWAP2 SWAP1 POP JUMP JUMPDEST PUSH1 0x0 PUSH2 0x6A0 DUP3 PUSH2 0x398 JUMP JUMPDEST SWAP2 POP PUSH2 0x6AB DUP4 PUSH2 0x398 JUMP JUMPDEST SWAP3 POP DUP3 DUP3 SUB SWAP1 POP DUP2 DUP2 GT ISZERO PUSH2 0x6C3 JUMPI PUSH2 0x6C2 PUSH2 0x571 JUMP JUMPDEST JUMPDEST SWAP3 SWAP2 POP POP JUMP INVALID LOG2 PUSH5 0x6970667358 0x22 SLT KECCAK256 SWAP10 KECCAK256 SLT SLOAD 0x2A 0x24 CODECOPY 0x5F PUSH31 0xFA5A2A950F29116B2938B6A41FFDF15D4A84A65B75A03464736F6C63430008 LT STOP CALLER "
				},
				"gasEstimates": {
					"creation": {
						"codeDepositCost": "358200",
						"executionCost": "393",
						"totalCost": "358593"
					},
					"external": {
						"Member(address)": "7294",
						"getBalance()": "317",
						"sendMoney()": "infinite",
						"withdrawMoney(address,uint256)": "infinite"
					}
				},
				"methodIdentifiers": {
					"Member(address)": "9408aa16",
					"getBalance()": "12065fe0",
					"sendMoney()": "cbedbf5a",
					"withdrawMoney(address,uint256)": "f274c897"
				}
			},
			"storageLayout": {
				"storage": [
					{
						"astId": 17,
						"contract": "MyStructExamples2.sol:MappingsStructExample",
						"label": "Member",
						"offset": 0,
						"slot": "0",
						"type": "t_mapping(t_address,t_struct(MemberDetails)12_storage)"
					}
				],
				"types": {
					"t_address": {
						"encoding": "inplace",
						"label": "address",
						"numberOfBytes": "20"
					},
					"t_bool": {
						"encoding": "inplace",
						"label": "bool",
						"numberOfBytes": "1"
					},
					"t_int256": {
						"encoding": "inplace",
						"label": "int256",
						"numberOfBytes": "32"
					},
					"t_mapping(t_address,t_struct(MemberDetails)12_storage)": {
						"encoding": "mapping",
						"key": "t_address",
						"label": "mapping(address => struct MappingsStructExample.MemberDetails)",
						"numberOfBytes": "32",
						"value": "t_struct(MemberDetails)12_storage"
					},
					"t_mapping(t_int256,t_uint256)": {
						"encoding": "mapping",
						"key": "t_int256",
						"label": "mapping(int256 => uint256)",
						"numberOfBytes": "32",
						"value": "t_uint256"
					},
					"t_struct(MemberDetails)12_storage": {
						"encoding": "inplace",
						"label": "struct MappingsStructExample.MemberDetails",
						"members": [
							{
								"astId": 3,
								"contract": "MyStructExamples2.sol:MappingsStructExample",
								"label": "balance",
								"offset": 0,
								"slot": "0",
								"type": "t_uint256"
							},
							{
								"astId": 5,
								"contract": "MyStructExamples2.sol:MappingsStructExample",
								"label": "numPayments",
								"offset": 0,
								"slot": "1",
								"type": "t_int256"
							},
							{
								"astId": 7,
								"contract": "MyStructExamples2.sol:MappingsStructExample",
								"label": "whitelist",
								"offset": 0,
								"slot": "2",
								"type": "t_bool"
							},
							{
								"astId": 11,
								"contract": "MyStructExamples2.sol:MappingsStructExample",
								"label": "payments",
								"offset": 0,
								"slot": "3",
								"type": "t_mapping(t_int256,t_uint256)"
							}
						],
						"numberOfBytes": "128"
					},
					"t_uint256": {
						"encoding": "inplace",
						"label": "uint256",
						"numberOfBytes": "32"
					}
				}
			},
			"userdoc": {
				"kind": "user",
				"methods": {},
				"version": 1
			}
		}
	}
}