{
	"CompileVariables.sol": {
		"WorkingWithVariables": {
			"abi": [
				{
					"inputs": [],
					"name": "getBalanceOfAddress",
					"outputs": [
						{
							"internalType": "uint256",
							"name": "",
							"type": "uint256"
						}
					],
					"stateMutability": "view",
					"type": "function"
				},
				{
					"inputs": [],
					"name": "myAddress",
					"outputs": [
						{
							"internalType": "address",
							"name": "",
							"type": "address"
						}
					],
					"stateMutability": "view",
					"type": "function"
				},
				{
					"inputs": [],
					"name": "myString",
					"outputs": [
						{
							"internalType": "string",
							"name": "",
							"type": "string"
						}
					],
					"stateMutability": "view",
					"type": "function"
				},
				{
					"inputs": [],
					"name": "myUint",
					"outputs": [
						{
							"internalType": "uint256",
							"name": "",
							"type": "uint256"
						}
					],
					"stateMutability": "view",
					"type": "function"
				},
				{
					"inputs": [
						{
							"internalType": "address",
							"name": "_address",
							"type": "address"
						}
					],
					"name": "setMyAddress",
					"outputs": [],
					"stateMutability": "nonpayable",
					"type": "function"
				},
				{
					"inputs": [
						{
							"internalType": "string",
							"name": "_myString",
							"type": "string"
						}
					],
					"name": "setMyString",
					"outputs": [],
					"stateMutability": "nonpayable",
					"type": "function"
				},
				{
					"inputs": [
						{
							"internalType": "uint256",
							"name": "_myUint",
							"type": "uint256"
						}
					],
					"name": "setMyUint",
					"outputs": [],
					"stateMutability": "nonpayable",
					"type": "function"
				}
			],
			"devdoc": {
				"kind": "dev",
				"methods": {},
				"version": 1
			},
			"evm": {
				"assembly": "    /* \"CompileVariables.sol\":25:505  contract WorkingWithVariables {... */\n  mstore(0x40, 0x80)\n  callvalue\n  dup1\n  iszero\n  tag_1\n  jumpi\n  0x00\n  dup1\n  revert\ntag_1:\n  pop\n  dataSize(sub_0)\n  dup1\n  dataOffset(sub_0)\n  0x00\n  codecopy\n  0x00\n  return\nstop\n\nsub_0: assembly {\n        /* \"CompileVariables.sol\":25:505  contract WorkingWithVariables {... */\n      mstore(0x40, 0x80)\n      callvalue\n      dup1\n      iszero\n      tag_1\n      jumpi\n      0x00\n      dup1\n      revert\n    tag_1:\n      pop\n      jumpi(tag_2, lt(calldatasize, 0x04))\n      shr(0xe0, calldataload(0x00))\n      dup1\n      0x492bfa18\n      gt\n      tag_10\n      jumpi\n      dup1\n      0x492bfa18\n      eq\n      tag_6\n      jumpi\n      dup1\n      0x82180568\n      eq\n      tag_7\n      jumpi\n      dup1\n      0xa8a7b895\n      eq\n      tag_8\n      jumpi\n      dup1\n      0xe492fd84\n      eq\n      tag_9\n      jumpi\n      jump(tag_2)\n    tag_10:\n      dup1\n      0x06540f7e\n      eq\n      tag_3\n      jumpi\n      dup1\n      0x15502612\n      eq\n      tag_4\n      jumpi\n      dup1\n      0x26b85ee1\n      eq\n      tag_5\n      jumpi\n    tag_2:\n      0x00\n      dup1\n      revert\n        /* \"CompileVariables.sol\":61:82  uint256 public myUint */\n    tag_3:\n      tag_11\n      tag_12\n      jump\t// in\n    tag_11:\n      mload(0x40)\n      tag_13\n      swap2\n      swap1\n      tag_14\n      jump\t// in\n    tag_13:\n      mload(0x40)\n      dup1\n      swap2\n      sub\n      swap1\n      return\n        /* \"CompileVariables.sol\":283:381  function getBalanceOfAddress() public view returns(uint) {... */\n    tag_4:\n      tag_15\n      tag_16\n      jump\t// in\n    tag_15:\n      mload(0x40)\n      tag_17\n      swap2\n      swap1\n      tag_14\n      jump\t// in\n    tag_17:\n      mload(0x40)\n      dup1\n      swap2\n      sub\n      swap1\n      return\n        /* \"CompileVariables.sol\":165:189  address public myAddress */\n    tag_5:\n      tag_18\n      tag_19\n      jump\t// in\n    tag_18:\n      mload(0x40)\n      tag_20\n      swap2\n      swap1\n      tag_21\n      jump\t// in\n    tag_20:\n      mload(0x40)\n      dup1\n      swap2\n      sub\n      swap1\n      return\n        /* \"CompileVariables.sol\":387:409  string public myString */\n    tag_6:\n      tag_22\n      tag_23\n      jump\t// in\n    tag_22:\n      mload(0x40)\n      tag_24\n      swap2\n      swap1\n      tag_25\n      jump\t// in\n    tag_24:\n      mload(0x40)\n      dup1\n      swap2\n      sub\n      swap1\n      return\n        /* \"CompileVariables.sol\":415:503  function setMyString(string memory _myString) public {... */\n    tag_7:\n      tag_26\n      0x04\n      dup1\n      calldatasize\n      sub\n      dup2\n      add\n      swap1\n      tag_27\n      swap2\n      swap1\n      tag_28\n      jump\t// in\n    tag_27:\n      tag_29\n      jump\t// in\n    tag_26:\n      stop\n        /* \"CompileVariables.sol\":195:277  function setMyAddress(address _address) public {... */\n    tag_8:\n      tag_30\n      0x04\n      dup1\n      calldatasize\n      sub\n      dup2\n      add\n      swap1\n      tag_31\n      swap2\n      swap1\n      tag_32\n      jump\t// in\n    tag_31:\n      tag_33\n      jump\t// in\n    tag_30:\n      stop\n        /* \"CompileVariables.sol\":88:159  function setMyUint(uint _myUint) public {... */\n    tag_9:\n      tag_34\n      0x04\n      dup1\n      calldatasize\n      sub\n      dup2\n      add\n      swap1\n      tag_35\n      swap2\n      swap1\n      tag_36\n      jump\t// in\n    tag_35:\n      tag_37\n      jump\t// in\n    tag_34:\n      stop\n        /* \"CompileVariables.sol\":61:82  uint256 public myUint */\n    tag_12:\n      sload(0x00)\n      dup2\n      jump\t// out\n        /* \"CompileVariables.sol\":283:381  function getBalanceOfAddress() public view returns(uint) {... */\n    tag_16:\n        /* \"CompileVariables.sol\":334:338  uint */\n      0x00\n        /* \"CompileVariables.sol\":357:366  myAddress */\n      0x01\n      0x00\n      swap1\n      sload\n      swap1\n      0x0100\n      exp\n      swap1\n      div\n      0xffffffffffffffffffffffffffffffffffffffff\n      and\n        /* \"CompileVariables.sol\":357:374  myAddress.balance */\n      0xffffffffffffffffffffffffffffffffffffffff\n      and\n      balance\n        /* \"CompileVariables.sol\":350:374  return myAddress.balance */\n      swap1\n      pop\n        /* \"CompileVariables.sol\":283:381  function getBalanceOfAddress() public view returns(uint) {... */\n      swap1\n      jump\t// out\n        /* \"CompileVariables.sol\":165:189  address public myAddress */\n    tag_19:\n      0x01\n      0x00\n      swap1\n      sload\n      swap1\n      0x0100\n      exp\n      swap1\n      div\n      0xffffffffffffffffffffffffffffffffffffffff\n      and\n      dup2\n      jump\t// out\n        /* \"CompileVariables.sol\":387:409  string public myString */\n    tag_23:\n      0x02\n      dup1\n      sload\n      tag_39\n      swap1\n      tag_40\n      jump\t// in\n    tag_39:\n      dup1\n      0x1f\n      add\n      0x20\n      dup1\n      swap2\n      div\n      mul\n      0x20\n      add\n      mload(0x40)\n      swap1\n      dup2\n      add\n      0x40\n      mstore\n      dup1\n      swap3\n      swap2\n      swap1\n      dup2\n      dup2\n      mstore\n      0x20\n      add\n      dup3\n      dup1\n      sload\n      tag_41\n      swap1\n      tag_40\n      jump\t// in\n    tag_41:\n      dup1\n      iszero\n      tag_42\n      jumpi\n      dup1\n      0x1f\n      lt\n      tag_43\n      jumpi\n      0x0100\n      dup1\n      dup4\n      sload\n      div\n      mul\n      dup4\n      mstore\n      swap2\n      0x20\n      add\n      swap2\n      jump(tag_42)\n    tag_43:\n      dup3\n      add\n      swap2\n      swap1\n      0x00\n      mstore\n      keccak256(0x00, 0x20)\n      swap1\n    tag_44:\n      dup2\n      sload\n      dup2\n      mstore\n      swap1\n      0x01\n      add\n      swap1\n      0x20\n      add\n      dup1\n      dup4\n      gt\n      tag_44\n      jumpi\n      dup3\n      swap1\n      sub\n      0x1f\n      and\n      dup3\n      add\n      swap2\n    tag_42:\n      pop\n      pop\n      pop\n      pop\n      pop\n      dup2\n      jump\t// out\n        /* \"CompileVariables.sol\":415:503  function setMyString(string memory _myString) public {... */\n    tag_29:\n        /* \"CompileVariables.sol\":487:496  _myString */\n      dup1\n        /* \"CompileVariables.sol\":478:486  myString */\n      0x02\n        /* \"CompileVariables.sol\":478:496  myString=_myString */\n      swap1\n      dup2\n      tag_46\n      swap2\n      swap1\n      tag_47\n      jump\t// in\n    tag_46:\n      pop\n        /* \"CompileVariables.sol\":415:503  function setMyString(string memory _myString) public {... */\n      pop\n      jump\t// out\n        /* \"CompileVariables.sol\":195:277  function setMyAddress(address _address) public {... */\n    tag_33:\n        /* \"CompileVariables.sol\":262:270  _address */\n      dup1\n        /* \"CompileVariables.sol\":252:261  myAddress */\n      0x01\n      0x00\n        /* \"CompileVariables.sol\":252:270  myAddress=_address */\n      0x0100\n      exp\n      dup2\n      sload\n      dup2\n      0xffffffffffffffffffffffffffffffffffffffff\n      mul\n      not\n      and\n      swap1\n      dup4\n      0xffffffffffffffffffffffffffffffffffffffff\n      and\n      mul\n      or\n      swap1\n      sstore\n      pop\n        /* \"CompileVariables.sol\":195:277  function setMyAddress(address _address) public {... */\n      pop\n      jump\t// out\n        /* \"CompileVariables.sol\":88:159  function setMyUint(uint _myUint) public {... */\n    tag_37:\n        /* \"CompileVariables.sol\":145:152  _myUint */\n      dup1\n        /* \"CompileVariables.sol\":138:144  myUint */\n      0x00\n        /* \"CompileVariables.sol\":138:152  myUint=_myUint */\n      dup2\n      swap1\n      sstore\n      pop\n        /* \"CompileVariables.sol\":88:159  function setMyUint(uint _myUint) public {... */\n      pop\n      jump\t// out\n        /* \"#utility.yul\":7:84   */\n    tag_50:\n        /* \"#utility.yul\":44:51   */\n      0x00\n        /* \"#utility.yul\":73:78   */\n      dup2\n        /* \"#utility.yul\":62:78   */\n      swap1\n      pop\n        /* \"#utility.yul\":7:84   */\n      swap2\n      swap1\n      pop\n      jump\t// out\n        /* \"#utility.yul\":90:208   */\n    tag_51:\n        /* \"#utility.yul\":177:201   */\n      tag_95\n        /* \"#utility.yul\":195:200   */\n      dup2\n        /* \"#utility.yul\":177:201   */\n      tag_50\n      jump\t// in\n    tag_95:\n        /* \"#utility.yul\":172:175   */\n      dup3\n        /* \"#utility.yul\":165:202   */\n      mstore\n        /* \"#utility.yul\":90:208   */\n      pop\n      pop\n      jump\t// out\n        /* \"#utility.yul\":214:436   */\n    tag_14:\n        /* \"#utility.yul\":307:311   */\n      0x00\n        /* \"#utility.yul\":345:347   */\n      0x20\n        /* \"#utility.yul\":334:343   */\n      dup3\n        /* \"#utility.yul\":330:348   */\n      add\n        /* \"#utility.yul\":322:348   */\n      swap1\n      pop\n        /* \"#utility.yul\":358:429   */\n      tag_97\n        /* \"#utility.yul\":426:427   */\n      0x00\n        /* \"#utility.yul\":415:424   */\n      dup4\n        /* \"#utility.yul\":411:428   */\n      add\n        /* \"#utility.yul\":402:408   */\n      dup5\n        /* \"#utility.yul\":358:429   */\n      tag_51\n      jump\t// in\n    tag_97:\n        /* \"#utility.yul\":214:436   */\n      swap3\n      swap2\n      pop\n      pop\n      jump\t// out\n        /* \"#utility.yul\":442:568   */\n    tag_52:\n        /* \"#utility.yul\":479:486   */\n      0x00\n        /* \"#utility.yul\":519:561   */\n      0xffffffffffffffffffffffffffffffffffffffff\n        /* \"#utility.yul\":512:517   */\n      dup3\n        /* \"#utility.yul\":508:562   */\n      and\n        /* \"#utility.yul\":497:562   */\n      swap1\n      pop\n        /* \"#utility.yul\":442:568   */\n      swap2\n      swap1\n      pop\n      jump\t// out\n        /* \"#utility.yul\":574:670   */\n    tag_53:\n        /* \"#utility.yul\":611:618   */\n      0x00\n        /* \"#utility.yul\":640:664   */\n      tag_100\n        /* \"#utility.yul\":658:663   */\n      dup3\n        /* \"#utility.yul\":640:664   */\n      tag_52\n      jump\t// in\n    tag_100:\n        /* \"#utility.yul\":629:664   */\n      swap1\n      pop\n        /* \"#utility.yul\":574:670   */\n      swap2\n      swap1\n      pop\n      jump\t// out\n        /* \"#utility.yul\":676:794   */\n    tag_54:\n        /* \"#utility.yul\":763:787   */\n      tag_102\n        /* \"#utility.yul\":781:786   */\n      dup2\n        /* \"#utility.yul\":763:787   */\n      tag_53\n      jump\t// in\n    tag_102:\n        /* \"#utility.yul\":758:761   */\n      dup3\n        /* \"#utility.yul\":751:788   */\n      mstore\n        /* \"#utility.yul\":676:794   */\n      pop\n      pop\n      jump\t// out\n        /* \"#utility.yul\":800:1022   */\n    tag_21:\n        /* \"#utility.yul\":893:897   */\n      0x00\n        /* \"#utility.yul\":931:933   */\n      0x20\n        /* \"#utility.yul\":920:929   */\n      dup3\n        /* \"#utility.yul\":916:934   */\n      add\n        /* \"#utility.yul\":908:934   */\n      swap1\n      pop\n        /* \"#utility.yul\":944:1015   */\n      tag_104\n        /* \"#utility.yul\":1012:1013   */\n      0x00\n        /* \"#utility.yul\":1001:1010   */\n      dup4\n        /* \"#utility.yul\":997:1014   */\n      add\n        /* \"#utility.yul\":988:994   */\n      dup5\n        /* \"#utility.yul\":944:1015   */\n      tag_54\n      jump\t// in\n    tag_104:\n        /* \"#utility.yul\":800:1022   */\n      swap3\n      swap2\n      pop\n      pop\n      jump\t// out\n        /* \"#utility.yul\":1028:1127   */\n    tag_55:\n        /* \"#utility.yul\":1080:1086   */\n      0x00\n        /* \"#utility.yul\":1114:1119   */\n      dup2\n        /* \"#utility.yul\":1108:1120   */\n      mload\n        /* \"#utility.yul\":1098:1120   */\n      swap1\n      pop\n        /* \"#utility.yul\":1028:1127   */\n      swap2\n      swap1\n      pop\n      jump\t// out\n        /* \"#utility.yul\":1133:1302   */\n    tag_56:\n        /* \"#utility.yul\":1217:1228   */\n      0x00\n        /* \"#utility.yul\":1251:1257   */\n      dup3\n        /* \"#utility.yul\":1246:1249   */\n      dup3\n        /* \"#utility.yul\":1239:1258   */\n      mstore\n        /* \"#utility.yul\":1291:1295   */\n      0x20\n        /* \"#utility.yul\":1286:1289   */\n      dup3\n        /* \"#utility.yul\":1282:1296   */\n      add\n        /* \"#utility.yul\":1267:1296   */\n      swap1\n      pop\n        /* \"#utility.yul\":1133:1302   */\n      swap3\n      swap2\n      pop\n      pop\n      jump\t// out\n        /* \"#utility.yul\":1308:1554   */\n    tag_57:\n        /* \"#utility.yul\":1389:1390   */\n      0x00\n        /* \"#utility.yul\":1399:1512   */\n    tag_108:\n        /* \"#utility.yul\":1413:1419   */\n      dup4\n        /* \"#utility.yul\":1410:1411   */\n      dup2\n        /* \"#utility.yul\":1407:1420   */\n      lt\n        /* \"#utility.yul\":1399:1512   */\n      iszero\n      tag_110\n      jumpi\n        /* \"#utility.yul\":1498:1499   */\n      dup1\n        /* \"#utility.yul\":1493:1496   */\n      dup3\n        /* \"#utility.yul\":1489:1500   */\n      add\n        /* \"#utility.yul\":1483:1501   */\n      mload\n        /* \"#utility.yul\":1479:1480   */\n      dup2\n        /* \"#utility.yul\":1474:1477   */\n      dup5\n        /* \"#utility.yul\":1470:1481   */\n      add\n        /* \"#utility.yul\":1463:1502   */\n      mstore\n        /* \"#utility.yul\":1435:1437   */\n      0x20\n        /* \"#utility.yul\":1432:1433   */\n      dup2\n        /* \"#utility.yul\":1428:1438   */\n      add\n        /* \"#utility.yul\":1423:1438   */\n      swap1\n      pop\n        /* \"#utility.yul\":1399:1512   */\n      jump(tag_108)\n    tag_110:\n        /* \"#utility.yul\":1546:1547   */\n      0x00\n        /* \"#utility.yul\":1537:1543   */\n      dup5\n        /* \"#utility.yul\":1532:1535   */\n      dup5\n        /* \"#utility.yul\":1528:1544   */\n      add\n        /* \"#utility.yul\":1521:1548   */\n      mstore\n        /* \"#utility.yul\":1370:1554   */\n      pop\n        /* \"#utility.yul\":1308:1554   */\n      pop\n      pop\n      pop\n      jump\t// out\n        /* \"#utility.yul\":1560:1662   */\n    tag_58:\n        /* \"#utility.yul\":1601:1607   */\n      0x00\n        /* \"#utility.yul\":1652:1654   */\n      0x1f\n        /* \"#utility.yul\":1648:1655   */\n      not\n        /* \"#utility.yul\":1643:1645   */\n      0x1f\n        /* \"#utility.yul\":1636:1641   */\n      dup4\n        /* \"#utility.yul\":1632:1646   */\n      add\n        /* \"#utility.yul\":1628:1656   */\n      and\n        /* \"#utility.yul\":1618:1656   */\n      swap1\n      pop\n        /* \"#utility.yul\":1560:1662   */\n      swap2\n      swap1\n      pop\n      jump\t// out\n        /* \"#utility.yul\":1668:2045   */\n    tag_59:\n        /* \"#utility.yul\":1756:1759   */\n      0x00\n        /* \"#utility.yul\":1784:1823   */\n      tag_113\n        /* \"#utility.yul\":1817:1822   */\n      dup3\n        /* \"#utility.yul\":1784:1823   */\n      tag_55\n      jump\t// in\n    tag_113:\n        /* \"#utility.yul\":1839:1910   */\n      tag_114\n        /* \"#utility.yul\":1903:1909   */\n      dup2\n        /* \"#utility.yul\":1898:1901   */\n      dup6\n        /* \"#utility.yul\":1839:1910   */\n      tag_56\n      jump\t// in\n    tag_114:\n        /* \"#utility.yul\":1832:1910   */\n      swap4\n      pop\n        /* \"#utility.yul\":1919:1984   */\n      tag_115\n        /* \"#utility.yul\":1977:1983   */\n      dup2\n        /* \"#utility.yul\":1972:1975   */\n      dup6\n        /* \"#utility.yul\":1965:1969   */\n      0x20\n        /* \"#utility.yul\":1958:1963   */\n      dup7\n        /* \"#utility.yul\":1954:1970   */\n      add\n        /* \"#utility.yul\":1919:1984   */\n      tag_57\n      jump\t// in\n    tag_115:\n        /* \"#utility.yul\":2009:2038   */\n      tag_116\n        /* \"#utility.yul\":2031:2037   */\n      dup2\n        /* \"#utility.yul\":2009:2038   */\n      tag_58\n      jump\t// in\n    tag_116:\n        /* \"#utility.yul\":2004:2007   */\n      dup5\n        /* \"#utility.yul\":2000:2039   */\n      add\n        /* \"#utility.yul\":1993:2039   */\n      swap2\n      pop\n        /* \"#utility.yul\":1760:2045   */\n      pop\n        /* \"#utility.yul\":1668:2045   */\n      swap3\n      swap2\n      pop\n      pop\n      jump\t// out\n        /* \"#utility.yul\":2051:2364   */\n    tag_25:\n        /* \"#utility.yul\":2164:2168   */\n      0x00\n        /* \"#utility.yul\":2202:2204   */\n      0x20\n        /* \"#utility.yul\":2191:2200   */\n      dup3\n        /* \"#utility.yul\":2187:2205   */\n      add\n        /* \"#utility.yul\":2179:2205   */\n      swap1\n      pop\n        /* \"#utility.yul\":2251:2260   */\n      dup2\n        /* \"#utility.yul\":2245:2249   */\n      dup2\n        /* \"#utility.yul\":2241:2261   */\n      sub\n        /* \"#utility.yul\":2237:2238   */\n      0x00\n        /* \"#utility.yul\":2226:2235   */\n      dup4\n        /* \"#utility.yul\":2222:2239   */\n      add\n        /* \"#utility.yul\":2215:2262   */\n      mstore\n        /* \"#utility.yul\":2279:2357   */\n      tag_118\n        /* \"#utility.yul\":2352:2356   */\n      dup2\n        /* \"#utility.yul\":2343:2349   */\n      dup5\n        /* \"#utility.yul\":2279:2357   */\n      tag_59\n      jump\t// in\n    tag_118:\n        /* \"#utility.yul\":2271:2357   */\n      swap1\n      pop\n        /* \"#utility.yul\":2051:2364   */\n      swap3\n      swap2\n      pop\n      pop\n      jump\t// out\n        /* \"#utility.yul\":2370:2445   */\n    tag_60:\n        /* \"#utility.yul\":2403:2409   */\n      0x00\n        /* \"#utility.yul\":2436:2438   */\n      0x40\n        /* \"#utility.yul\":2430:2439   */\n      mload\n        /* \"#utility.yul\":2420:2439   */\n      swap1\n      pop\n        /* \"#utility.yul\":2370:2445   */\n      swap1\n      jump\t// out\n        /* \"#utility.yul\":2451:2568   */\n    tag_61:\n        /* \"#utility.yul\":2560:2561   */\n      0x00\n        /* \"#utility.yul\":2557:2558   */\n      dup1\n        /* \"#utility.yul\":2550:2562   */\n      revert\n        /* \"#utility.yul\":2574:2691   */\n    tag_62:\n        /* \"#utility.yul\":2683:2684   */\n      0x00\n        /* \"#utility.yul\":2680:2681   */\n      dup1\n        /* \"#utility.yul\":2673:2685   */\n      revert\n        /* \"#utility.yul\":2697:2814   */\n    tag_63:\n        /* \"#utility.yul\":2806:2807   */\n      0x00\n        /* \"#utility.yul\":2803:2804   */\n      dup1\n        /* \"#utility.yul\":2796:2808   */\n      revert\n        /* \"#utility.yul\":2820:2937   */\n    tag_64:\n        /* \"#utility.yul\":2929:2930   */\n      0x00\n        /* \"#utility.yul\":2926:2927   */\n      dup1\n        /* \"#utility.yul\":2919:2931   */\n      revert\n        /* \"#utility.yul\":2943:3123   */\n    tag_65:\n        /* \"#utility.yul\":2991:3068   */\n      0x4e487b7100000000000000000000000000000000000000000000000000000000\n        /* \"#utility.yul\":2988:2989   */\n      0x00\n        /* \"#utility.yul\":2981:3069   */\n      mstore\n        /* \"#utility.yul\":3088:3092   */\n      0x41\n        /* \"#utility.yul\":3085:3086   */\n      0x04\n        /* \"#utility.yul\":3078:3093   */\n      mstore\n        /* \"#utility.yul\":3112:3116   */\n      0x24\n        /* \"#utility.yul\":3109:3110   */\n      0x00\n        /* \"#utility.yul\":3102:3117   */\n      revert\n        /* \"#utility.yul\":3129:3410   */\n    tag_66:\n        /* \"#utility.yul\":3212:3239   */\n      tag_126\n        /* \"#utility.yul\":3234:3238   */\n      dup3\n        /* \"#utility.yul\":3212:3239   */\n      tag_58\n      jump\t// in\n    tag_126:\n        /* \"#utility.yul\":3204:3210   */\n      dup2\n        /* \"#utility.yul\":3200:3240   */\n      add\n        /* \"#utility.yul\":3342:3348   */\n      dup2\n        /* \"#utility.yul\":3330:3340   */\n      dup2\n        /* \"#utility.yul\":3327:3349   */\n      lt\n        /* \"#utility.yul\":3306:3324   */\n      0xffffffffffffffff\n        /* \"#utility.yul\":3294:3304   */\n      dup3\n        /* \"#utility.yul\":3291:3325   */\n      gt\n        /* \"#utility.yul\":3288:3350   */\n      or\n        /* \"#utility.yul\":3285:3373   */\n      iszero\n      tag_127\n      jumpi\n        /* \"#utility.yul\":3353:3371   */\n      tag_128\n      tag_65\n      jump\t// in\n    tag_128:\n        /* \"#utility.yul\":3285:3373   */\n    tag_127:\n        /* \"#utility.yul\":3393:3403   */\n      dup1\n        /* \"#utility.yul\":3389:3391   */\n      0x40\n        /* \"#utility.yul\":3382:3404   */\n      mstore\n        /* \"#utility.yul\":3172:3410   */\n      pop\n        /* \"#utility.yul\":3129:3410   */\n      pop\n      pop\n      jump\t// out\n        /* \"#utility.yul\":3416:3545   */\n    tag_67:\n        /* \"#utility.yul\":3450:3456   */\n      0x00\n        /* \"#utility.yul\":3477:3497   */\n      tag_130\n      tag_60\n      jump\t// in\n    tag_130:\n        /* \"#utility.yul\":3467:3497   */\n      swap1\n      pop\n        /* \"#utility.yul\":3506:3539   */\n      tag_131\n        /* \"#utility.yul\":3534:3538   */\n      dup3\n        /* \"#utility.yul\":3526:3532   */\n      dup3\n        /* \"#utility.yul\":3506:3539   */\n      tag_66\n      jump\t// in\n    tag_131:\n        /* \"#utility.yul\":3416:3545   */\n      swap2\n      swap1\n      pop\n      jump\t// out\n        /* \"#utility.yul\":3551:3859   */\n    tag_68:\n        /* \"#utility.yul\":3613:3617   */\n      0x00\n        /* \"#utility.yul\":3703:3721   */\n      0xffffffffffffffff\n        /* \"#utility.yul\":3695:3701   */\n      dup3\n        /* \"#utility.yul\":3692:3722   */\n      gt\n        /* \"#utility.yul\":3689:3745   */\n      iszero\n      tag_133\n      jumpi\n        /* \"#utility.yul\":3725:3743   */\n      tag_134\n      tag_65\n      jump\t// in\n    tag_134:\n        /* \"#utility.yul\":3689:3745   */\n    tag_133:\n        /* \"#utility.yul\":3763:3792   */\n      tag_135\n        /* \"#utility.yul\":3785:3791   */\n      dup3\n        /* \"#utility.yul\":3763:3792   */\n      tag_58\n      jump\t// in\n    tag_135:\n        /* \"#utility.yul\":3755:3792   */\n      swap1\n      pop\n        /* \"#utility.yul\":3847:3851   */\n      0x20\n        /* \"#utility.yul\":3841:3845   */\n      dup2\n        /* \"#utility.yul\":3837:3852   */\n      add\n        /* \"#utility.yul\":3829:3852   */\n      swap1\n      pop\n        /* \"#utility.yul\":3551:3859   */\n      swap2\n      swap1\n      pop\n      jump\t// out\n        /* \"#utility.yul\":3865:4011   */\n    tag_69:\n        /* \"#utility.yul\":3962:3968   */\n      dup3\n        /* \"#utility.yul\":3957:3960   */\n      dup2\n        /* \"#utility.yul\":3952:3955   */\n      dup4\n        /* \"#utility.yul\":3939:3969   */\n      calldatacopy\n        /* \"#utility.yul\":4003:4004   */\n      0x00\n        /* \"#utility.yul\":3994:4000   */\n      dup4\n        /* \"#utility.yul\":3989:3992   */\n      dup4\n        /* \"#utility.yul\":3985:4001   */\n      add\n        /* \"#utility.yul\":3978:4005   */\n      mstore\n        /* \"#utility.yul\":3865:4011   */\n      pop\n      pop\n      pop\n      jump\t// out\n        /* \"#utility.yul\":4017:4442   */\n    tag_70:\n        /* \"#utility.yul\":4095:4100   */\n      0x00\n        /* \"#utility.yul\":4120:4186   */\n      tag_138\n        /* \"#utility.yul\":4136:4185   */\n      tag_139\n        /* \"#utility.yul\":4178:4184   */\n      dup5\n        /* \"#utility.yul\":4136:4185   */\n      tag_68\n      jump\t// in\n    tag_139:\n        /* \"#utility.yul\":4120:4186   */\n      tag_67\n      jump\t// in\n    tag_138:\n        /* \"#utility.yul\":4111:4186   */\n      swap1\n      pop\n        /* \"#utility.yul\":4209:4215   */\n      dup3\n        /* \"#utility.yul\":4202:4207   */\n      dup2\n        /* \"#utility.yul\":4195:4216   */\n      mstore\n        /* \"#utility.yul\":4247:4251   */\n      0x20\n        /* \"#utility.yul\":4240:4245   */\n      dup2\n        /* \"#utility.yul\":4236:4252   */\n      add\n        /* \"#utility.yul\":4285:4288   */\n      dup5\n        /* \"#utility.yul\":4276:4282   */\n      dup5\n        /* \"#utility.yul\":4271:4274   */\n      dup5\n        /* \"#utility.yul\":4267:4283   */\n      add\n        /* \"#utility.yul\":4264:4289   */\n      gt\n        /* \"#utility.yul\":4261:4373   */\n      iszero\n      tag_140\n      jumpi\n        /* \"#utility.yul\":4292:4371   */\n      tag_141\n      tag_64\n      jump\t// in\n    tag_141:\n        /* \"#utility.yul\":4261:4373   */\n    tag_140:\n        /* \"#utility.yul\":4382:4436   */\n      tag_142\n        /* \"#utility.yul\":4429:4435   */\n      dup5\n        /* \"#utility.yul\":4424:4427   */\n      dup3\n        /* \"#utility.yul\":4419:4422   */\n      dup6\n        /* \"#utility.yul\":4382:4436   */\n      tag_69\n      jump\t// in\n    tag_142:\n        /* \"#utility.yul\":4101:4442   */\n      pop\n        /* \"#utility.yul\":4017:4442   */\n      swap4\n      swap3\n      pop\n      pop\n      pop\n      jump\t// out\n        /* \"#utility.yul\":4462:4802   */\n    tag_71:\n        /* \"#utility.yul\":4518:4523   */\n      0x00\n        /* \"#utility.yul\":4567:4570   */\n      dup3\n        /* \"#utility.yul\":4560:4564   */\n      0x1f\n        /* \"#utility.yul\":4552:4558   */\n      dup4\n        /* \"#utility.yul\":4548:4565   */\n      add\n        /* \"#utility.yul\":4544:4571   */\n      slt\n        /* \"#utility.yul\":4534:4656   */\n      tag_144\n      jumpi\n        /* \"#utility.yul\":4575:4654   */\n      tag_145\n      tag_63\n      jump\t// in\n    tag_145:\n        /* \"#utility.yul\":4534:4656   */\n    tag_144:\n        /* \"#utility.yul\":4692:4698   */\n      dup2\n        /* \"#utility.yul\":4679:4699   */\n      calldataload\n        /* \"#utility.yul\":4717:4796   */\n      tag_146\n        /* \"#utility.yul\":4792:4795   */\n      dup5\n        /* \"#utility.yul\":4784:4790   */\n      dup3\n        /* \"#utility.yul\":4777:4781   */\n      0x20\n        /* \"#utility.yul\":4769:4775   */\n      dup7\n        /* \"#utility.yul\":4765:4782   */\n      add\n        /* \"#utility.yul\":4717:4796   */\n      tag_70\n      jump\t// in\n    tag_146:\n        /* \"#utility.yul\":4708:4796   */\n      swap2\n      pop\n        /* \"#utility.yul\":4524:4802   */\n      pop\n        /* \"#utility.yul\":4462:4802   */\n      swap3\n      swap2\n      pop\n      pop\n      jump\t// out\n        /* \"#utility.yul\":4808:5317   */\n    tag_28:\n        /* \"#utility.yul\":4877:4883   */\n      0x00\n        /* \"#utility.yul\":4926:4928   */\n      0x20\n        /* \"#utility.yul\":4914:4923   */\n      dup3\n        /* \"#utility.yul\":4905:4912   */\n      dup5\n        /* \"#utility.yul\":4901:4924   */\n      sub\n        /* \"#utility.yul\":4897:4929   */\n      slt\n        /* \"#utility.yul\":4894:5013   */\n      iszero\n      tag_148\n      jumpi\n        /* \"#utility.yul\":4932:5011   */\n      tag_149\n      tag_61\n      jump\t// in\n    tag_149:\n        /* \"#utility.yul\":4894:5013   */\n    tag_148:\n        /* \"#utility.yul\":5080:5081   */\n      0x00\n        /* \"#utility.yul\":5069:5078   */\n      dup3\n        /* \"#utility.yul\":5065:5082   */\n      add\n        /* \"#utility.yul\":5052:5083   */\n      calldataload\n        /* \"#utility.yul\":5110:5128   */\n      0xffffffffffffffff\n        /* \"#utility.yul\":5102:5108   */\n      dup2\n        /* \"#utility.yul\":5099:5129   */\n      gt\n        /* \"#utility.yul\":5096:5213   */\n      iszero\n      tag_150\n      jumpi\n        /* \"#utility.yul\":5132:5211   */\n      tag_151\n      tag_62\n      jump\t// in\n    tag_151:\n        /* \"#utility.yul\":5096:5213   */\n    tag_150:\n        /* \"#utility.yul\":5237:5300   */\n      tag_152\n        /* \"#utility.yul\":5292:5299   */\n      dup5\n        /* \"#utility.yul\":5283:5289   */\n      dup3\n        /* \"#utility.yul\":5272:5281   */\n      dup6\n        /* \"#utility.yul\":5268:5290   */\n      add\n        /* \"#utility.yul\":5237:5300   */\n      tag_71\n      jump\t// in\n    tag_152:\n        /* \"#utility.yul\":5227:5300   */\n      swap2\n      pop\n        /* \"#utility.yul\":5023:5310   */\n      pop\n        /* \"#utility.yul\":4808:5317   */\n      swap3\n      swap2\n      pop\n      pop\n      jump\t// out\n        /* \"#utility.yul\":5323:5445   */\n    tag_72:\n        /* \"#utility.yul\":5396:5420   */\n      tag_154\n        /* \"#utility.yul\":5414:5419   */\n      dup2\n        /* \"#utility.yul\":5396:5420   */\n      tag_53\n      jump\t// in\n    tag_154:\n        /* \"#utility.yul\":5389:5394   */\n      dup2\n        /* \"#utility.yul\":5386:5421   */\n      eq\n        /* \"#utility.yul\":5376:5439   */\n      tag_155\n      jumpi\n        /* \"#utility.yul\":5435:5436   */\n      0x00\n        /* \"#utility.yul\":5432:5433   */\n      dup1\n        /* \"#utility.yul\":5425:5437   */\n      revert\n        /* \"#utility.yul\":5376:5439   */\n    tag_155:\n        /* \"#utility.yul\":5323:5445   */\n      pop\n      jump\t// out\n        /* \"#utility.yul\":5451:5590   */\n    tag_73:\n        /* \"#utility.yul\":5497:5502   */\n      0x00\n        /* \"#utility.yul\":5535:5541   */\n      dup2\n        /* \"#utility.yul\":5522:5542   */\n      calldataload\n        /* \"#utility.yul\":5513:5542   */\n      swap1\n      pop\n        /* \"#utility.yul\":5551:5584   */\n      tag_157\n        /* \"#utility.yul\":5578:5583   */\n      dup2\n        /* \"#utility.yul\":5551:5584   */\n      tag_72\n      jump\t// in\n    tag_157:\n        /* \"#utility.yul\":5451:5590   */\n      swap3\n      swap2\n      pop\n      pop\n      jump\t// out\n        /* \"#utility.yul\":5596:5925   */\n    tag_32:\n        /* \"#utility.yul\":5655:5661   */\n      0x00\n        /* \"#utility.yul\":5704:5706   */\n      0x20\n        /* \"#utility.yul\":5692:5701   */\n      dup3\n        /* \"#utility.yul\":5683:5690   */\n      dup5\n        /* \"#utility.yul\":5679:5702   */\n      sub\n        /* \"#utility.yul\":5675:5707   */\n      slt\n        /* \"#utility.yul\":5672:5791   */\n      iszero\n      tag_159\n      jumpi\n        /* \"#utility.yul\":5710:5789   */\n      tag_160\n      tag_61\n      jump\t// in\n    tag_160:\n        /* \"#utility.yul\":5672:5791   */\n    tag_159:\n        /* \"#utility.yul\":5830:5831   */\n      0x00\n        /* \"#utility.yul\":5855:5908   */\n      tag_161\n        /* \"#utility.yul\":5900:5907   */\n      dup5\n        /* \"#utility.yul\":5891:5897   */\n      dup3\n        /* \"#utility.yul\":5880:5889   */\n      dup6\n        /* \"#utility.yul\":5876:5898   */\n      add\n        /* \"#utility.yul\":5855:5908   */\n      tag_73\n      jump\t// in\n    tag_161:\n        /* \"#utility.yul\":5845:5908   */\n      swap2\n      pop\n        /* \"#utility.yul\":5801:5918   */\n      pop\n        /* \"#utility.yul\":5596:5925   */\n      swap3\n      swap2\n      pop\n      pop\n      jump\t// out\n        /* \"#utility.yul\":5931:6053   */\n    tag_74:\n        /* \"#utility.yul\":6004:6028   */\n      tag_163\n        /* \"#utility.yul\":6022:6027   */\n      dup2\n        /* \"#utility.yul\":6004:6028   */\n      tag_50\n      jump\t// in\n    tag_163:\n        /* \"#utility.yul\":5997:6002   */\n      dup2\n        /* \"#utility.yul\":5994:6029   */\n      eq\n        /* \"#utility.yul\":5984:6047   */\n      tag_164\n      jumpi\n        /* \"#utility.yul\":6043:6044   */\n      0x00\n        /* \"#utility.yul\":6040:6041   */\n      dup1\n        /* \"#utility.yul\":6033:6045   */\n      revert\n        /* \"#utility.yul\":5984:6047   */\n    tag_164:\n        /* \"#utility.yul\":5931:6053   */\n      pop\n      jump\t// out\n        /* \"#utility.yul\":6059:6198   */\n    tag_75:\n        /* \"#utility.yul\":6105:6110   */\n      0x00\n        /* \"#utility.yul\":6143:6149   */\n      dup2\n        /* \"#utility.yul\":6130:6150   */\n      calldataload\n        /* \"#utility.yul\":6121:6150   */\n      swap1\n      pop\n        /* \"#utility.yul\":6159:6192   */\n      tag_166\n        /* \"#utility.yul\":6186:6191   */\n      dup2\n        /* \"#utility.yul\":6159:6192   */\n      tag_74\n      jump\t// in\n    tag_166:\n        /* \"#utility.yul\":6059:6198   */\n      swap3\n      swap2\n      pop\n      pop\n      jump\t// out\n        /* \"#utility.yul\":6204:6533   */\n    tag_36:\n        /* \"#utility.yul\":6263:6269   */\n      0x00\n        /* \"#utility.yul\":6312:6314   */\n      0x20\n        /* \"#utility.yul\":6300:6309   */\n      dup3\n        /* \"#utility.yul\":6291:6298   */\n      dup5\n        /* \"#utility.yul\":6287:6310   */\n      sub\n        /* \"#utility.yul\":6283:6315   */\n      slt\n        /* \"#utility.yul\":6280:6399   */\n      iszero\n      tag_168\n      jumpi\n        /* \"#utility.yul\":6318:6397   */\n      tag_169\n      tag_61\n      jump\t// in\n    tag_169:\n        /* \"#utility.yul\":6280:6399   */\n    tag_168:\n        /* \"#utility.yul\":6438:6439   */\n      0x00\n        /* \"#utility.yul\":6463:6516   */\n      tag_170\n        /* \"#utility.yul\":6508:6515   */\n      dup5\n        /* \"#utility.yul\":6499:6505   */\n      dup3\n        /* \"#utility.yul\":6488:6497   */\n      dup6\n        /* \"#utility.yul\":6484:6506   */\n      add\n        /* \"#utility.yul\":6463:6516   */\n      tag_75\n      jump\t// in\n    tag_170:\n        /* \"#utility.yul\":6453:6516   */\n      swap2\n      pop\n        /* \"#utility.yul\":6409:6526   */\n      pop\n        /* \"#utility.yul\":6204:6533   */\n      swap3\n      swap2\n      pop\n      pop\n      jump\t// out\n        /* \"#utility.yul\":6539:6719   */\n    tag_76:\n        /* \"#utility.yul\":6587:6664   */\n      0x4e487b7100000000000000000000000000000000000000000000000000000000\n        /* \"#utility.yul\":6584:6585   */\n      0x00\n        /* \"#utility.yul\":6577:6665   */\n      mstore\n        /* \"#utility.yul\":6684:6688   */\n      0x22\n        /* \"#utility.yul\":6681:6682   */\n      0x04\n        /* \"#utility.yul\":6674:6689   */\n      mstore\n        /* \"#utility.yul\":6708:6712   */\n      0x24\n        /* \"#utility.yul\":6705:6706   */\n      0x00\n        /* \"#utility.yul\":6698:6713   */\n      revert\n        /* \"#utility.yul\":6725:7045   */\n    tag_40:\n        /* \"#utility.yul\":6769:6775   */\n      0x00\n        /* \"#utility.yul\":6806:6807   */\n      0x02\n        /* \"#utility.yul\":6800:6804   */\n      dup3\n        /* \"#utility.yul\":6796:6808   */\n      div\n        /* \"#utility.yul\":6786:6808   */\n      swap1\n      pop\n        /* \"#utility.yul\":6853:6854   */\n      0x01\n        /* \"#utility.yul\":6847:6851   */\n      dup3\n        /* \"#utility.yul\":6843:6855   */\n      and\n        /* \"#utility.yul\":6874:6892   */\n      dup1\n        /* \"#utility.yul\":6864:6945   */\n      tag_173\n      jumpi\n        /* \"#utility.yul\":6930:6934   */\n      0x7f\n        /* \"#utility.yul\":6922:6928   */\n      dup3\n        /* \"#utility.yul\":6918:6935   */\n      and\n        /* \"#utility.yul\":6908:6935   */\n      swap2\n      pop\n        /* \"#utility.yul\":6864:6945   */\n    tag_173:\n        /* \"#utility.yul\":6992:6994   */\n      0x20\n        /* \"#utility.yul\":6984:6990   */\n      dup3\n        /* \"#utility.yul\":6981:6995   */\n      lt\n        /* \"#utility.yul\":6961:6979   */\n      dup2\n        /* \"#utility.yul\":6958:6996   */\n      sub\n        /* \"#utility.yul\":6955:7039   */\n      tag_174\n      jumpi\n        /* \"#utility.yul\":7011:7029   */\n      tag_175\n      tag_76\n      jump\t// in\n    tag_175:\n        /* \"#utility.yul\":6955:7039   */\n    tag_174:\n        /* \"#utility.yul\":6776:7045   */\n      pop\n        /* \"#utility.yul\":6725:7045   */\n      swap2\n      swap1\n      pop\n      jump\t// out\n        /* \"#utility.yul\":7051:7192   */\n    tag_77:\n        /* \"#utility.yul\":7100:7104   */\n      0x00\n        /* \"#utility.yul\":7123:7126   */\n      dup2\n        /* \"#utility.yul\":7115:7126   */\n      swap1\n      pop\n        /* \"#utility.yul\":7146:7149   */\n      dup2\n        /* \"#utility.yul\":7143:7144   */\n      0x00\n        /* \"#utility.yul\":7136:7150   */\n      mstore\n        /* \"#utility.yul\":7180:7184   */\n      0x20\n        /* \"#utility.yul\":7177:7178   */\n      0x00\n        /* \"#utility.yul\":7167:7185   */\n      keccak256\n        /* \"#utility.yul\":7159:7185   */\n      swap1\n      pop\n        /* \"#utility.yul\":7051:7192   */\n      swap2\n      swap1\n      pop\n      jump\t// out\n        /* \"#utility.yul\":7198:7291   */\n    tag_78:\n        /* \"#utility.yul\":7235:7241   */\n      0x00\n        /* \"#utility.yul\":7282:7284   */\n      0x20\n        /* \"#utility.yul\":7277:7279   */\n      0x1f\n        /* \"#utility.yul\":7270:7275   */\n      dup4\n        /* \"#utility.yul\":7266:7280   */\n      add\n        /* \"#utility.yul\":7262:7285   */\n      div\n        /* \"#utility.yul\":7252:7285   */\n      swap1\n      pop\n        /* \"#utility.yul\":7198:7291   */\n      swap2\n      swap1\n      pop\n      jump\t// out\n        /* \"#utility.yul\":7297:7404   */\n    tag_79:\n        /* \"#utility.yul\":7341:7349   */\n      0x00\n        /* \"#utility.yul\":7391:7396   */\n      dup3\n        /* \"#utility.yul\":7385:7389   */\n      dup3\n        /* \"#utility.yul\":7381:7397   */\n      shl\n        /* \"#utility.yul\":7360:7397   */\n      swap1\n      pop\n        /* \"#utility.yul\":7297:7404   */\n      swap3\n      swap2\n      pop\n      pop\n      jump\t// out\n        /* \"#utility.yul\":7410:7803   */\n    tag_80:\n        /* \"#utility.yul\":7479:7485   */\n      0x00\n        /* \"#utility.yul\":7529:7530   */\n      0x08\n        /* \"#utility.yul\":7517:7527   */\n      dup4\n        /* \"#utility.yul\":7513:7531   */\n      mul\n        /* \"#utility.yul\":7552:7649   */\n      tag_180\n        /* \"#utility.yul\":7582:7648   */\n      0xffffffffffffffffffffffffffffffffffffffffffffffffffffffffffffffff\n        /* \"#utility.yul\":7571:7580   */\n      dup3\n        /* \"#utility.yul\":7552:7649   */\n      tag_79\n      jump\t// in\n    tag_180:\n        /* \"#utility.yul\":7670:7709   */\n      tag_181\n        /* \"#utility.yul\":7700:7708   */\n      dup7\n        /* \"#utility.yul\":7689:7698   */\n      dup4\n        /* \"#utility.yul\":7670:7709   */\n      tag_79\n      jump\t// in\n    tag_181:\n        /* \"#utility.yul\":7658:7709   */\n      swap6\n      pop\n        /* \"#utility.yul\":7742:7746   */\n      dup1\n        /* \"#utility.yul\":7738:7747   */\n      not\n        /* \"#utility.yul\":7731:7736   */\n      dup5\n        /* \"#utility.yul\":7727:7748   */\n      and\n        /* \"#utility.yul\":7718:7748   */\n      swap4\n      pop\n        /* \"#utility.yul\":7791:7795   */\n      dup1\n        /* \"#utility.yul\":7781:7789   */\n      dup7\n        /* \"#utility.yul\":7777:7796   */\n      and\n        /* \"#utility.yul\":7770:7775   */\n      dup5\n        /* \"#utility.yul\":7767:7797   */\n      or\n        /* \"#utility.yul\":7757:7797   */\n      swap3\n      pop\n        /* \"#utility.yul\":7486:7803   */\n      pop\n      pop\n        /* \"#utility.yul\":7410:7803   */\n      swap4\n      swap3\n      pop\n      pop\n      pop\n      jump\t// out\n        /* \"#utility.yul\":7809:7869   */\n    tag_81:\n        /* \"#utility.yul\":7837:7840   */\n      0x00\n        /* \"#utility.yul\":7858:7863   */\n      dup2\n        /* \"#utility.yul\":7851:7863   */\n      swap1\n      pop\n        /* \"#utility.yul\":7809:7869   */\n      swap2\n      swap1\n      pop\n      jump\t// out\n        /* \"#utility.yul\":7875:8017   */\n    tag_82:\n        /* \"#utility.yul\":7925:7934   */\n      0x00\n        /* \"#utility.yul\":7958:8011   */\n      tag_184\n        /* \"#utility.yul\":7976:8010   */\n      tag_185\n        /* \"#utility.yul\":7985:8009   */\n      tag_186\n        /* \"#utility.yul\":8003:8008   */\n      dup5\n        /* \"#utility.yul\":7985:8009   */\n      tag_50\n      jump\t// in\n    tag_186:\n        /* \"#utility.yul\":7976:8010   */\n      tag_81\n      jump\t// in\n    tag_185:\n        /* \"#utility.yul\":7958:8011   */\n      tag_50\n      jump\t// in\n    tag_184:\n        /* \"#utility.yul\":7945:8011   */\n      swap1\n      pop\n        /* \"#utility.yul\":7875:8017   */\n      swap2\n      swap1\n      pop\n      jump\t// out\n        /* \"#utility.yul\":8023:8098   */\n    tag_83:\n        /* \"#utility.yul\":8066:8069   */\n      0x00\n        /* \"#utility.yul\":8087:8092   */\n      dup2\n        /* \"#utility.yul\":8080:8092   */\n      swap1\n      pop\n        /* \"#utility.yul\":8023:8098   */\n      swap2\n      swap1\n      pop\n      jump\t// out\n        /* \"#utility.yul\":8104:8373   */\n    tag_84:\n        /* \"#utility.yul\":8214:8253   */\n      tag_189\n        /* \"#utility.yul\":8245:8252   */\n      dup4\n        /* \"#utility.yul\":8214:8253   */\n      tag_82\n      jump\t// in\n    tag_189:\n        /* \"#utility.yul\":8275:8366   */\n      tag_190\n        /* \"#utility.yul\":8324:8365   */\n      tag_191\n        /* \"#utility.yul\":8348:8364   */\n      dup3\n        /* \"#utility.yul\":8324:8365   */\n      tag_83\n      jump\t// in\n    tag_191:\n        /* \"#utility.yul\":8316:8322   */\n      dup5\n        /* \"#utility.yul\":8309:8313   */\n      dup5\n        /* \"#utility.yul\":8303:8314   */\n      sload\n        /* \"#utility.yul\":8275:8366   */\n      tag_80\n      jump\t// in\n    tag_190:\n        /* \"#utility.yul\":8269:8273   */\n      dup3\n        /* \"#utility.yul\":8262:8367   */\n      sstore\n        /* \"#utility.yul\":8180:8373   */\n      pop\n        /* \"#utility.yul\":8104:8373   */\n      pop\n      pop\n      pop\n      jump\t// out\n        /* \"#utility.yul\":8379:8452   */\n    tag_85:\n        /* \"#utility.yul\":8424:8427   */\n      0x00\n        /* \"#utility.yul\":8379:8452   */\n      swap1\n      jump\t// out\n        /* \"#utility.yul\":8458:8647   */\n    tag_86:\n        /* \"#utility.yul\":8535:8567   */\n      tag_194\n      tag_85\n      jump\t// in\n    tag_194:\n        /* \"#utility.yul\":8576:8641   */\n      tag_195\n        /* \"#utility.yul\":8634:8640   */\n      dup2\n        /* \"#utility.yul\":8626:8632   */\n      dup5\n        /* \"#utility.yul\":8620:8624   */\n      dup5\n        /* \"#utility.yul\":8576:8641   */\n      tag_84\n      jump\t// in\n    tag_195:\n        /* \"#utility.yul\":8511:8647   */\n      pop\n        /* \"#utility.yul\":8458:8647   */\n      pop\n      pop\n      jump\t// out\n        /* \"#utility.yul\":8653:8839   */\n    tag_87:\n        /* \"#utility.yul\":8713:8833   */\n    tag_197:\n        /* \"#utility.yul\":8730:8733   */\n      dup2\n        /* \"#utility.yul\":8723:8728   */\n      dup2\n        /* \"#utility.yul\":8720:8734   */\n      lt\n        /* \"#utility.yul\":8713:8833   */\n      iszero\n      tag_199\n      jumpi\n        /* \"#utility.yul\":8784:8823   */\n      tag_200\n        /* \"#utility.yul\":8821:8822   */\n      0x00\n        /* \"#utility.yul\":8814:8819   */\n      dup3\n        /* \"#utility.yul\":8784:8823   */\n      tag_86\n      jump\t// in\n    tag_200:\n        /* \"#utility.yul\":8757:8758   */\n      0x01\n        /* \"#utility.yul\":8750:8755   */\n      dup2\n        /* \"#utility.yul\":8746:8759   */\n      add\n        /* \"#utility.yul\":8737:8759   */\n      swap1\n      pop\n        /* \"#utility.yul\":8713:8833   */\n      jump(tag_197)\n    tag_199:\n        /* \"#utility.yul\":8653:8839   */\n      pop\n      pop\n      jump\t// out\n        /* \"#utility.yul\":8845:9388   */\n    tag_88:\n        /* \"#utility.yul\":8946:8948   */\n      0x1f\n        /* \"#utility.yul\":8941:8944   */\n      dup3\n        /* \"#utility.yul\":8938:8949   */\n      gt\n        /* \"#utility.yul\":8935:9381   */\n      iszero\n      tag_202\n      jumpi\n        /* \"#utility.yul\":8980:9018   */\n      tag_203\n        /* \"#utility.yul\":9012:9017   */\n      dup2\n        /* \"#utility.yul\":8980:9018   */\n      tag_77\n      jump\t// in\n    tag_203:\n        /* \"#utility.yul\":9064:9093   */\n      tag_204\n        /* \"#utility.yul\":9082:9092   */\n      dup5\n        /* \"#utility.yul\":9064:9093   */\n      tag_78\n      jump\t// in\n    tag_204:\n        /* \"#utility.yul\":9054:9062   */\n      dup2\n        /* \"#utility.yul\":9050:9094   */\n      add\n        /* \"#utility.yul\":9247:9249   */\n      0x20\n        /* \"#utility.yul\":9235:9245   */\n      dup6\n        /* \"#utility.yul\":9232:9250   */\n      lt\n        /* \"#utility.yul\":9229:9278   */\n      iszero\n      tag_205\n      jumpi\n        /* \"#utility.yul\":9268:9276   */\n      dup2\n        /* \"#utility.yul\":9253:9276   */\n      swap1\n      pop\n        /* \"#utility.yul\":9229:9278   */\n    tag_205:\n        /* \"#utility.yul\":9291:9371   */\n      tag_206\n        /* \"#utility.yul\":9347:9369   */\n      tag_207\n        /* \"#utility.yul\":9365:9368   */\n      dup6\n        /* \"#utility.yul\":9347:9369   */\n      tag_78\n      jump\t// in\n    tag_207:\n        /* \"#utility.yul\":9337:9345   */\n      dup4\n        /* \"#utility.yul\":9333:9370   */\n      add\n        /* \"#utility.yul\":9320:9331   */\n      dup3\n        /* \"#utility.yul\":9291:9371   */\n      tag_87\n      jump\t// in\n    tag_206:\n        /* \"#utility.yul\":8950:9381   */\n      pop\n      pop\n        /* \"#utility.yul\":8935:9381   */\n    tag_202:\n        /* \"#utility.yul\":8845:9388   */\n      pop\n      pop\n      pop\n      jump\t// out\n        /* \"#utility.yul\":9394:9511   */\n    tag_89:\n        /* \"#utility.yul\":9448:9456   */\n      0x00\n        /* \"#utility.yul\":9498:9503   */\n      dup3\n        /* \"#utility.yul\":9492:9496   */\n      dup3\n        /* \"#utility.yul\":9488:9504   */\n      shr\n        /* \"#utility.yul\":9467:9504   */\n      swap1\n      pop\n        /* \"#utility.yul\":9394:9511   */\n      swap3\n      swap2\n      pop\n      pop\n      jump\t// out\n        /* \"#utility.yul\":9517:9686   */\n    tag_90:\n        /* \"#utility.yul\":9561:9567   */\n      0x00\n        /* \"#utility.yul\":9594:9645   */\n      tag_210\n        /* \"#utility.yul\":9642:9643   */\n      0x00\n        /* \"#utility.yul\":9638:9644   */\n      not\n        /* \"#utility.yul\":9630:9635   */\n      dup5\n        /* \"#utility.yul\":9627:9628   */\n      0x08\n        /* \"#utility.yul\":9623:9636   */\n      mul\n        /* \"#utility.yul\":9594:9645   */\n      tag_89\n      jump\t// in\n    tag_210:\n        /* \"#utility.yul\":9590:9646   */\n      not\n        /* \"#utility.yul\":9675:9679   */\n      dup1\n        /* \"#utility.yul\":9669:9673   */\n      dup4\n        /* \"#utility.yul\":9665:9680   */\n      and\n        /* \"#utility.yul\":9655:9680   */\n      swap2\n      pop\n        /* \"#utility.yul\":9568:9686   */\n      pop\n        /* \"#utility.yul\":9517:9686   */\n      swap3\n      swap2\n      pop\n      pop\n      jump\t// out\n        /* \"#utility.yul\":9691:9986   */\n    tag_91:\n        /* \"#utility.yul\":9767:9771   */\n      0x00\n        /* \"#utility.yul\":9913:9942   */\n      tag_212\n        /* \"#utility.yul\":9938:9941   */\n      dup4\n        /* \"#utility.yul\":9932:9936   */\n      dup4\n        /* \"#utility.yul\":9913:9942   */\n      tag_90\n      jump\t// in\n    tag_212:\n        /* \"#utility.yul\":9905:9942   */\n      swap2\n      pop\n        /* \"#utility.yul\":9975:9978   */\n      dup3\n        /* \"#utility.yul\":9972:9973   */\n      0x02\n        /* \"#utility.yul\":9968:9979   */\n      mul\n        /* \"#utility.yul\":9962:9966   */\n      dup3\n        /* \"#utility.yul\":9959:9980   */\n      or\n        /* \"#utility.yul\":9951:9980   */\n      swap1\n      pop\n        /* \"#utility.yul\":9691:9986   */\n      swap3\n      swap2\n      pop\n      pop\n      jump\t// out\n        /* \"#utility.yul\":9991:11386   */\n    tag_47:\n        /* \"#utility.yul\":10108:10145   */\n      tag_214\n        /* \"#utility.yul\":10141:10144   */\n      dup3\n        /* \"#utility.yul\":10108:10145   */\n      tag_55\n      jump\t// in\n    tag_214:\n        /* \"#utility.yul\":10210:10228   */\n      0xffffffffffffffff\n        /* \"#utility.yul\":10202:10208   */\n      dup2\n        /* \"#utility.yul\":10199:10229   */\n      gt\n        /* \"#utility.yul\":10196:10252   */\n      iszero\n      tag_215\n      jumpi\n        /* \"#utility.yul\":10232:10250   */\n      tag_216\n      tag_65\n      jump\t// in\n    tag_216:\n        /* \"#utility.yul\":10196:10252   */\n    tag_215:\n        /* \"#utility.yul\":10276:10314   */\n      tag_217\n        /* \"#utility.yul\":10308:10312   */\n      dup3\n        /* \"#utility.yul\":10302:10313   */\n      sload\n        /* \"#utility.yul\":10276:10314   */\n      tag_40\n      jump\t// in\n    tag_217:\n        /* \"#utility.yul\":10361:10428   */\n      tag_218\n        /* \"#utility.yul\":10421:10427   */\n      dup3\n        /* \"#utility.yul\":10413:10419   */\n      dup3\n        /* \"#utility.yul\":10407:10411   */\n      dup6\n        /* \"#utility.yul\":10361:10428   */\n      tag_88\n      jump\t// in\n    tag_218:\n        /* \"#utility.yul\":10455:10456   */\n      0x00\n        /* \"#utility.yul\":10479:10483   */\n      0x20\n        /* \"#utility.yul\":10466:10483   */\n      swap1\n      pop\n        /* \"#utility.yul\":10511:10513   */\n      0x1f\n        /* \"#utility.yul\":10503:10509   */\n      dup4\n        /* \"#utility.yul\":10500:10514   */\n      gt\n        /* \"#utility.yul\":10528:10529   */\n      0x01\n        /* \"#utility.yul\":10523:11141   */\n      dup2\n      eq\n      tag_220\n      jumpi\n        /* \"#utility.yul\":11185:11186   */\n      0x00\n        /* \"#utility.yul\":11202:11208   */\n      dup5\n        /* \"#utility.yul\":11199:11276   */\n      iszero\n      tag_221\n      jumpi\n        /* \"#utility.yul\":11251:11260   */\n      dup3\n        /* \"#utility.yul\":11246:11249   */\n      dup8\n        /* \"#utility.yul\":11242:11261   */\n      add\n        /* \"#utility.yul\":11236:11262   */\n      mload\n        /* \"#utility.yul\":11227:11262   */\n      swap1\n      pop\n        /* \"#utility.yul\":11199:11276   */\n    tag_221:\n        /* \"#utility.yul\":11302:11369   */\n      tag_222\n        /* \"#utility.yul\":11362:11368   */\n      dup6\n        /* \"#utility.yul\":11355:11360   */\n      dup3\n        /* \"#utility.yul\":11302:11369   */\n      tag_91\n      jump\t// in\n    tag_222:\n        /* \"#utility.yul\":11296:11300   */\n      dup7\n        /* \"#utility.yul\":11289:11370   */\n      sstore\n        /* \"#utility.yul\":11158:11380   */\n      pop\n        /* \"#utility.yul\":10493:11380   */\n      jump(tag_219)\n        /* \"#utility.yul\":10523:11141   */\n    tag_220:\n        /* \"#utility.yul\":10575:10579   */\n      0x1f\n        /* \"#utility.yul\":10571:10580   */\n      not\n        /* \"#utility.yul\":10563:10569   */\n      dup5\n        /* \"#utility.yul\":10559:10581   */\n      and\n        /* \"#utility.yul\":10609:10646   */\n      tag_223\n        /* \"#utility.yul\":10641:10645   */\n      dup7\n        /* \"#utility.yul\":10609:10646   */\n      tag_77\n      jump\t// in\n    tag_223:\n        /* \"#utility.yul\":10668:10669   */\n      0x00\n        /* \"#utility.yul\":10682:10890   */\n    tag_224:\n        /* \"#utility.yul\":10696:10703   */\n      dup3\n        /* \"#utility.yul\":10693:10694   */\n      dup2\n        /* \"#utility.yul\":10690:10704   */\n      lt\n        /* \"#utility.yul\":10682:10890   */\n      iszero\n      tag_226\n      jumpi\n        /* \"#utility.yul\":10775:10784   */\n      dup5\n        /* \"#utility.yul\":10770:10773   */\n      dup10\n        /* \"#utility.yul\":10766:10785   */\n      add\n        /* \"#utility.yul\":10760:10786   */\n      mload\n        /* \"#utility.yul\":10752:10758   */\n      dup3\n        /* \"#utility.yul\":10745:10787   */\n      sstore\n        /* \"#utility.yul\":10826:10827   */\n      0x01\n        /* \"#utility.yul\":10818:10824   */\n      dup3\n        /* \"#utility.yul\":10814:10828   */\n      add\n        /* \"#utility.yul\":10804:10828   */\n      swap2\n      pop\n        /* \"#utility.yul\":10873:10875   */\n      0x20\n        /* \"#utility.yul\":10862:10871   */\n      dup6\n        /* \"#utility.yul\":10858:10876   */\n      add\n        /* \"#utility.yul\":10845:10876   */\n      swap5\n      pop\n        /* \"#utility.yul\":10719:10723   */\n      0x20\n        /* \"#utility.yul\":10716:10717   */\n      dup2\n        /* \"#utility.yul\":10712:10724   */\n      add\n        /* \"#utility.yul\":10707:10724   */\n      swap1\n      pop\n        /* \"#utility.yul\":10682:10890   */\n      jump(tag_224)\n    tag_226:\n        /* \"#utility.yul\":10918:10924   */\n      dup7\n        /* \"#utility.yul\":10909:10916   */\n      dup4\n        /* \"#utility.yul\":10906:10925   */\n      lt\n        /* \"#utility.yul\":10903:11082   */\n      iszero\n      tag_227\n      jumpi\n        /* \"#utility.yul\":10976:10985   */\n      dup5\n        /* \"#utility.yul\":10971:10974   */\n      dup10\n        /* \"#utility.yul\":10967:10986   */\n      add\n        /* \"#utility.yul\":10961:10987   */\n      mload\n        /* \"#utility.yul\":11019:11067   */\n      tag_228\n        /* \"#utility.yul\":11061:11065   */\n      0x1f\n        /* \"#utility.yul\":11053:11059   */\n      dup10\n        /* \"#utility.yul\":11049:11066   */\n      and\n        /* \"#utility.yul\":11038:11047   */\n      dup3\n        /* \"#utility.yul\":11019:11067   */\n      tag_90\n      jump\t// in\n    tag_228:\n        /* \"#utility.yul\":11011:11017   */\n      dup4\n        /* \"#utility.yul\":11004:11068   */\n      sstore\n        /* \"#utility.yul\":10926:11082   */\n      pop\n        /* \"#utility.yul\":10903:11082   */\n    tag_227:\n        /* \"#utility.yul\":11128:11129   */\n      0x01\n        /* \"#utility.yul\":11124:11125   */\n      0x02\n        /* \"#utility.yul\":11116:11122   */\n      dup9\n        /* \"#utility.yul\":11112:11126   */\n      mul\n        /* \"#utility.yul\":11108:11130   */\n      add\n        /* \"#utility.yul\":11102:11106   */\n      dup9\n        /* \"#utility.yul\":11095:11131   */\n      sstore\n        /* \"#utility.yul\":10530:11141   */\n      pop\n      pop\n      pop\n        /* \"#utility.yul\":10493:11380   */\n    tag_219:\n      pop\n        /* \"#utility.yul\":10083:11386   */\n      pop\n      pop\n      pop\n        /* \"#utility.yul\":9991:11386   */\n      pop\n      pop\n      jump\t// out\n\n    auxdata: 0xa26469706673582212207402c678099d195bf42ce100be10ca1e0a67a7b7c2aa411fce315435ea45280a64736f6c63430008100033\n}\n",
				"bytecode": {
					"linkReferences": {},
					"object": "608060405234801561001057600080fd5b50610944806100206000396000f3fe608060405234801561001057600080fd5b506004361061007d5760003560e01c8063492bfa181161005b578063492bfa18146100dc57806382180568146100fa578063a8a7b89514610116578063e492fd84146101325761007d565b806306540f7e1461008257806315502612146100a057806326b85ee1146100be575b600080fd5b61008a61014e565b60405161009791906102c3565b60405180910390f35b6100a8610154565b6040516100b591906102c3565b60405180910390f35b6100c6610195565b6040516100d3919061031f565b60405180910390f35b6100e46101bb565b6040516100f191906103ca565b60405180910390f35b610114600480360381019061010f9190610535565b610249565b005b610130600480360381019061012b91906105aa565b61025c565b005b61014c60048036038101906101479190610603565b6102a0565b005b60005481565b6000600160009054906101000a900473ffffffffffffffffffffffffffffffffffffffff1673ffffffffffffffffffffffffffffffffffffffff1631905090565b600160009054906101000a900473ffffffffffffffffffffffffffffffffffffffff1681565b600280546101c89061065f565b80601f01602080910402602001604051908101604052809291908181526020018280546101f49061065f565b80156102415780601f1061021657610100808354040283529160200191610241565b820191906000526020600020905b81548152906001019060200180831161022457829003601f168201915b505050505081565b8060029081610258919061083c565b5050565b80600160006101000a81548173ffffffffffffffffffffffffffffffffffffffff021916908373ffffffffffffffffffffffffffffffffffffffff16021790555050565b8060008190555050565b6000819050919050565b6102bd816102aa565b82525050565b60006020820190506102d860008301846102b4565b92915050565b600073ffffffffffffffffffffffffffffffffffffffff82169050919050565b6000610309826102de565b9050919050565b610319816102fe565b82525050565b60006020820190506103346000830184610310565b92915050565b600081519050919050565b600082825260208201905092915050565b60005b83811015610374578082015181840152602081019050610359565b60008484015250505050565b6000601f19601f8301169050919050565b600061039c8261033a565b6103a68185610345565b93506103b6818560208601610356565b6103bf81610380565b840191505092915050565b600060208201905081810360008301526103e48184610391565b905092915050565b6000604051905090565b600080fd5b600080fd5b600080fd5b600080fd5b7f4e487b7100000000000000000000000000000000000000000000000000000000600052604160045260246000fd5b61044282610380565b810181811067ffffffffffffffff821117156104615761046061040a565b5b80604052505050565b60006104746103ec565b90506104808282610439565b919050565b600067ffffffffffffffff8211156104a05761049f61040a565b5b6104a982610380565b9050602081019050919050565b82818337600083830152505050565b60006104d86104d384610485565b61046a565b9050828152602081018484840111156104f4576104f3610405565b5b6104ff8482856104b6565b509392505050565b600082601f83011261051c5761051b610400565b5b813561052c8482602086016104c5565b91505092915050565b60006020828403121561054b5761054a6103f6565b5b600082013567ffffffffffffffff811115610569576105686103fb565b5b61057584828501610507565b91505092915050565b610587816102fe565b811461059257600080fd5b50565b6000813590506105a48161057e565b92915050565b6000602082840312156105c0576105bf6103f6565b5b60006105ce84828501610595565b91505092915050565b6105e0816102aa565b81146105eb57600080fd5b50565b6000813590506105fd816105d7565b92915050565b600060208284031215610619576106186103f6565b5b6000610627848285016105ee565b91505092915050565b7f4e487b7100000000000000000000000000000000000000000000000000000000600052602260045260246000fd5b6000600282049050600182168061067757607f821691505b60208210810361068a57610689610630565b5b50919050565b60008190508160005260206000209050919050565b60006020601f8301049050919050565b600082821b905092915050565b6000600883026106f27fffffffffffffffffffffffffffffffffffffffffffffffffffffffffffffffff826106b5565b6106fc86836106b5565b95508019841693508086168417925050509392505050565b6000819050919050565b600061073961073461072f846102aa565b610714565b6102aa565b9050919050565b6000819050919050565b6107538361071e565b61076761075f82610740565b8484546106c2565b825550505050565b600090565b61077c61076f565b61078781848461074a565b505050565b5b818110156107ab576107a0600082610774565b60018101905061078d565b5050565b601f8211156107f0576107c181610690565b6107ca846106a5565b810160208510156107d9578190505b6107ed6107e5856106a5565b83018261078c565b50505b505050565b600082821c905092915050565b6000610813600019846008026107f5565b1980831691505092915050565b600061082c8383610802565b9150826002028217905092915050565b6108458261033a565b67ffffffffffffffff81111561085e5761085d61040a565b5b610868825461065f565b6108738282856107af565b600060209050601f8311600181146108a65760008415610894578287015190505b61089e8582610820565b865550610906565b601f1984166108b486610690565b60005b828110156108dc578489015182556001820191506020850194506020810190506108b7565b868310156108f957848901516108f5601f891682610802565b8355505b6001600288020188555050505b50505050505056fea26469706673582212207402c678099d195bf42ce100be10ca1e0a67a7b7c2aa411fce315435ea45280a64736f6c63430008100033",
					"opcodes": "PUSH1 0x80 PUSH1 0x40 MSTORE CALLVALUE DUP1 ISZERO PUSH2 0x10 JUMPI PUSH1 0x0 DUP1 REVERT JUMPDEST POP PUSH2 0x944 DUP1 PUSH2 0x20 PUSH1 0x0 CODECOPY PUSH1 0x0 RETURN INVALID PUSH1 0x80 PUSH1 0x40 MSTORE CALLVALUE DUP1 ISZERO PUSH2 0x10 JUMPI PUSH1 0x0 DUP1 REVERT JUMPDEST POP PUSH1 0x4 CALLDATASIZE LT PUSH2 0x7D JUMPI PUSH1 0x0 CALLDATALOAD PUSH1 0xE0 SHR DUP1 PUSH4 0x492BFA18 GT PUSH2 0x5B JUMPI DUP1 PUSH4 0x492BFA18 EQ PUSH2 0xDC JUMPI DUP1 PUSH4 0x82180568 EQ PUSH2 0xFA JUMPI DUP1 PUSH4 0xA8A7B895 EQ PUSH2 0x116 JUMPI DUP1 PUSH4 0xE492FD84 EQ PUSH2 0x132 JUMPI PUSH2 0x7D JUMP JUMPDEST DUP1 PUSH4 0x6540F7E EQ PUSH2 0x82 JUMPI DUP1 PUSH4 0x15502612 EQ PUSH2 0xA0 JUMPI DUP1 PUSH4 0x26B85EE1 EQ PUSH2 0xBE JUMPI JUMPDEST PUSH1 0x0 DUP1 REVERT JUMPDEST PUSH2 0x8A PUSH2 0x14E JUMP JUMPDEST PUSH1 0x40 MLOAD PUSH2 0x97 SWAP2 SWAP1 PUSH2 0x2C3 JUMP JUMPDEST PUSH1 0x40 MLOAD DUP1 SWAP2 SUB SWAP1 RETURN JUMPDEST PUSH2 0xA8 PUSH2 0x154 JUMP JUMPDEST PUSH1 0x40 MLOAD PUSH2 0xB5 SWAP2 SWAP1 PUSH2 0x2C3 JUMP JUMPDEST PUSH1 0x40 MLOAD DUP1 SWAP2 SUB SWAP1 RETURN JUMPDEST PUSH2 0xC6 PUSH2 0x195 JUMP JUMPDEST PUSH1 0x40 MLOAD PUSH2 0xD3 SWAP2 SWAP1 PUSH2 0x31F JUMP JUMPDEST PUSH1 0x40 MLOAD DUP1 SWAP2 SUB SWAP1 RETURN JUMPDEST PUSH2 0xE4 PUSH2 0x1BB JUMP JUMPDEST PUSH1 0x40 MLOAD PUSH2 0xF1 SWAP2 SWAP1 PUSH2 0x3CA JUMP JUMPDEST PUSH1 0x40 MLOAD DUP1 SWAP2 SUB SWAP1 RETURN JUMPDEST PUSH2 0x114 PUSH1 0x4 DUP1 CALLDATASIZE SUB DUP2 ADD SWAP1 PUSH2 0x10F SWAP2 SWAP1 PUSH2 0x535 JUMP JUMPDEST PUSH2 0x249 JUMP JUMPDEST STOP JUMPDEST PUSH2 0x130 PUSH1 0x4 DUP1 CALLDATASIZE SUB DUP2 ADD SWAP1 PUSH2 0x12B SWAP2 SWAP1 PUSH2 0x5AA JUMP JUMPDEST PUSH2 0x25C JUMP JUMPDEST STOP JUMPDEST PUSH2 0x14C PUSH1 0x4 DUP1 CALLDATASIZE SUB DUP2 ADD SWAP1 PUSH2 0x147 SWAP2 SWAP1 PUSH2 0x603 JUMP JUMPDEST PUSH2 0x2A0 JUMP JUMPDEST STOP JUMPDEST PUSH1 0x0 SLOAD DUP2 JUMP JUMPDEST PUSH1 0x0 PUSH1 0x1 PUSH1 0x0 SWAP1 SLOAD SWAP1 PUSH2 0x100 EXP SWAP1 DIV PUSH20 0xFFFFFFFFFFFFFFFFFFFFFFFFFFFFFFFFFFFFFFFF AND PUSH20 0xFFFFFFFFFFFFFFFFFFFFFFFFFFFFFFFFFFFFFFFF AND BALANCE SWAP1 POP SWAP1 JUMP JUMPDEST PUSH1 0x1 PUSH1 0x0 SWAP1 SLOAD SWAP1 PUSH2 0x100 EXP SWAP1 DIV PUSH20 0xFFFFFFFFFFFFFFFFFFFFFFFFFFFFFFFFFFFFFFFF AND DUP2 JUMP JUMPDEST PUSH1 0x2 DUP1 SLOAD PUSH2 0x1C8 SWAP1 PUSH2 0x65F JUMP JUMPDEST DUP1 PUSH1 0x1F ADD PUSH1 0x20 DUP1 SWAP2 DIV MUL PUSH1 0x20 ADD PUSH1 0x40 MLOAD SWAP1 DUP2 ADD PUSH1 0x40 MSTORE DUP1 SWAP3 SWAP2 SWAP1 DUP2 DUP2 MSTORE PUSH1 0x20 ADD DUP3 DUP1 SLOAD PUSH2 0x1F4 SWAP1 PUSH2 0x65F JUMP JUMPDEST DUP1 ISZERO PUSH2 0x241 JUMPI DUP1 PUSH1 0x1F LT PUSH2 0x216 JUMPI PUSH2 0x100 DUP1 DUP4 SLOAD DIV MUL DUP4 MSTORE SWAP2 PUSH1 0x20 ADD SWAP2 PUSH2 0x241 JUMP JUMPDEST DUP3 ADD SWAP2 SWAP1 PUSH1 0x0 MSTORE PUSH1 0x20 PUSH1 0x0 KECCAK256 SWAP1 JUMPDEST DUP2 SLOAD DUP2 MSTORE SWAP1 PUSH1 0x1 ADD SWAP1 PUSH1 0x20 ADD DUP1 DUP4 GT PUSH2 0x224 JUMPI DUP3 SWAP1 SUB PUSH1 0x1F AND DUP3 ADD SWAP2 JUMPDEST POP POP POP POP POP DUP2 JUMP JUMPDEST DUP1 PUSH1 0x2 SWAP1 DUP2 PUSH2 0x258 SWAP2 SWAP1 PUSH2 0x83C JUMP JUMPDEST POP POP JUMP JUMPDEST DUP1 PUSH1 0x1 PUSH1 0x0 PUSH2 0x100 EXP DUP2 SLOAD DUP2 PUSH20 0xFFFFFFFFFFFFFFFFFFFFFFFFFFFFFFFFFFFFFFFF MUL NOT AND SWAP1 DUP4 PUSH20 0xFFFFFFFFFFFFFFFFFFFFFFFFFFFFFFFFFFFFFFFF AND MUL OR SWAP1 SSTORE POP POP JUMP JUMPDEST DUP1 PUSH1 0x0 DUP2 SWAP1 SSTORE POP POP JUMP JUMPDEST PUSH1 0x0 DUP2 SWAP1 POP SWAP2 SWAP1 POP JUMP JUMPDEST PUSH2 0x2BD DUP2 PUSH2 0x2AA JUMP JUMPDEST DUP3 MSTORE POP POP JUMP JUMPDEST PUSH1 0x0 PUSH1 0x20 DUP3 ADD SWAP1 POP PUSH2 0x2D8 PUSH1 0x0 DUP4 ADD DUP5 PUSH2 0x2B4 JUMP JUMPDEST SWAP3 SWAP2 POP POP JUMP JUMPDEST PUSH1 0x0 PUSH20 0xFFFFFFFFFFFFFFFFFFFFFFFFFFFFFFFFFFFFFFFF DUP3 AND SWAP1 POP SWAP2 SWAP1 POP JUMP JUMPDEST PUSH1 0x0 PUSH2 0x309 DUP3 PUSH2 0x2DE JUMP JUMPDEST SWAP1 POP SWAP2 SWAP1 POP JUMP JUMPDEST PUSH2 0x319 DUP2 PUSH2 0x2FE JUMP JUMPDEST DUP3 MSTORE POP POP JUMP JUMPDEST PUSH1 0x0 PUSH1 0x20 DUP3 ADD SWAP1 POP PUSH2 0x334 PUSH1 0x0 DUP4 ADD DUP5 PUSH2 0x310 JUMP JUMPDEST SWAP3 SWAP2 POP POP JUMP JUMPDEST PUSH1 0x0 DUP2 MLOAD SWAP1 POP SWAP2 SWAP1 POP JUMP JUMPDEST PUSH1 0x0 DUP3 DUP3 MSTORE PUSH1 0x20 DUP3 ADD SWAP1 POP SWAP3 SWAP2 POP POP JUMP JUMPDEST PUSH1 0x0 JUMPDEST DUP4 DUP2 LT ISZERO PUSH2 0x374 JUMPI DUP1 DUP3 ADD MLOAD DUP2 DUP5 ADD MSTORE PUSH1 0x20 DUP2 ADD SWAP1 POP PUSH2 0x359 JUMP JUMPDEST PUSH1 0x0 DUP5 DUP5 ADD MSTORE POP POP POP POP JUMP JUMPDEST PUSH1 0x0 PUSH1 0x1F NOT PUSH1 0x1F DUP4 ADD AND SWAP1 POP SWAP2 SWAP1 POP JUMP JUMPDEST PUSH1 0x0 PUSH2 0x39C DUP3 PUSH2 0x33A JUMP JUMPDEST PUSH2 0x3A6 DUP2 DUP6 PUSH2 0x345 JUMP JUMPDEST SWAP4 POP PUSH2 0x3B6 DUP2 DUP6 PUSH1 0x20 DUP7 ADD PUSH2 0x356 JUMP JUMPDEST PUSH2 0x3BF DUP2 PUSH2 0x380 JUMP JUMPDEST DUP5 ADD SWAP2 POP POP SWAP3 SWAP2 POP POP JUMP JUMPDEST PUSH1 0x0 PUSH1 0x20 DUP3 ADD SWAP1 POP DUP2 DUP2 SUB PUSH1 0x0 DUP4 ADD MSTORE PUSH2 0x3E4 DUP2 DUP5 PUSH2 0x391 JUMP JUMPDEST SWAP1 POP SWAP3 SWAP2 POP POP JUMP JUMPDEST PUSH1 0x0 PUSH1 0x40 MLOAD SWAP1 POP SWAP1 JUMP JUMPDEST PUSH1 0x0 DUP1 REVERT JUMPDEST PUSH1 0x0 DUP1 REVERT JUMPDEST PUSH1 0x0 DUP1 REVERT JUMPDEST PUSH1 0x0 DUP1 REVERT JUMPDEST PUSH32 0x4E487B7100000000000000000000000000000000000000000000000000000000 PUSH1 0x0 MSTORE PUSH1 0x41 PUSH1 0x4 MSTORE PUSH1 0x24 PUSH1 0x0 REVERT JUMPDEST PUSH2 0x442 DUP3 PUSH2 0x380 JUMP JUMPDEST DUP2 ADD DUP2 DUP2 LT PUSH8 0xFFFFFFFFFFFFFFFF DUP3 GT OR ISZERO PUSH2 0x461 JUMPI PUSH2 0x460 PUSH2 0x40A JUMP JUMPDEST JUMPDEST DUP1 PUSH1 0x40 MSTORE POP POP POP JUMP JUMPDEST PUSH1 0x0 PUSH2 0x474 PUSH2 0x3EC JUMP JUMPDEST SWAP1 POP PUSH2 0x480 DUP3 DUP3 PUSH2 0x439 JUMP JUMPDEST SWAP2 SWAP1 POP JUMP JUMPDEST PUSH1 0x0 PUSH8 0xFFFFFFFFFFFFFFFF DUP3 GT ISZERO PUSH2 0x4A0 JUMPI PUSH2 0x49F PUSH2 0x40A JUMP JUMPDEST JUMPDEST PUSH2 0x4A9 DUP3 PUSH2 0x380 JUMP JUMPDEST SWAP1 POP PUSH1 0x20 DUP2 ADD SWAP1 POP SWAP2 SWAP1 POP JUMP JUMPDEST DUP3 DUP2 DUP4 CALLDATACOPY PUSH1 0x0 DUP4 DUP4 ADD MSTORE POP POP POP JUMP JUMPDEST PUSH1 0x0 PUSH2 0x4D8 PUSH2 0x4D3 DUP5 PUSH2 0x485 JUMP JUMPDEST PUSH2 0x46A JUMP JUMPDEST SWAP1 POP DUP3 DUP2 MSTORE PUSH1 0x20 DUP2 ADD DUP5 DUP5 DUP5 ADD GT ISZERO PUSH2 0x4F4 JUMPI PUSH2 0x4F3 PUSH2 0x405 JUMP JUMPDEST JUMPDEST PUSH2 0x4FF DUP5 DUP3 DUP6 PUSH2 0x4B6 JUMP JUMPDEST POP SWAP4 SWAP3 POP POP POP JUMP JUMPDEST PUSH1 0x0 DUP3 PUSH1 0x1F DUP4 ADD SLT PUSH2 0x51C JUMPI PUSH2 0x51B PUSH2 0x400 JUMP JUMPDEST JUMPDEST DUP2 CALLDATALOAD PUSH2 0x52C DUP5 DUP3 PUSH1 0x20 DUP7 ADD PUSH2 0x4C5 JUMP JUMPDEST SWAP2 POP POP SWAP3 SWAP2 POP POP JUMP JUMPDEST PUSH1 0x0 PUSH1 0x20 DUP3 DUP5 SUB SLT ISZERO PUSH2 0x54B JUMPI PUSH2 0x54A PUSH2 0x3F6 JUMP JUMPDEST JUMPDEST PUSH1 0x0 DUP3 ADD CALLDATALOAD PUSH8 0xFFFFFFFFFFFFFFFF DUP2 GT ISZERO PUSH2 0x569 JUMPI PUSH2 0x568 PUSH2 0x3FB JUMP JUMPDEST JUMPDEST PUSH2 0x575 DUP5 DUP3 DUP6 ADD PUSH2 0x507 JUMP JUMPDEST SWAP2 POP POP SWAP3 SWAP2 POP POP JUMP JUMPDEST PUSH2 0x587 DUP2 PUSH2 0x2FE JUMP JUMPDEST DUP2 EQ PUSH2 0x592 JUMPI PUSH1 0x0 DUP1 REVERT JUMPDEST POP JUMP JUMPDEST PUSH1 0x0 DUP2 CALLDATALOAD SWAP1 POP PUSH2 0x5A4 DUP2 PUSH2 0x57E JUMP JUMPDEST SWAP3 SWAP2 POP POP JUMP JUMPDEST PUSH1 0x0 PUSH1 0x20 DUP3 DUP5 SUB SLT ISZERO PUSH2 0x5C0 JUMPI PUSH2 0x5BF PUSH2 0x3F6 JUMP JUMPDEST JUMPDEST PUSH1 0x0 PUSH2 0x5CE DUP5 DUP3 DUP6 ADD PUSH2 0x595 JUMP JUMPDEST SWAP2 POP POP SWAP3 SWAP2 POP POP JUMP JUMPDEST PUSH2 0x5E0 DUP2 PUSH2 0x2AA JUMP JUMPDEST DUP2 EQ PUSH2 0x5EB JUMPI PUSH1 0x0 DUP1 REVERT JUMPDEST POP JUMP JUMPDEST PUSH1 0x0 DUP2 CALLDATALOAD SWAP1 POP PUSH2 0x5FD DUP2 PUSH2 0x5D7 JUMP JUMPDEST SWAP3 SWAP2 POP POP JUMP JUMPDEST PUSH1 0x0 PUSH1 0x20 DUP3 DUP5 SUB SLT ISZERO PUSH2 0x619 JUMPI PUSH2 0x618 PUSH2 0x3F6 JUMP JUMPDEST JUMPDEST PUSH1 0x0 PUSH2 0x627 DUP5 DUP3 DUP6 ADD PUSH2 0x5EE JUMP JUMPDEST SWAP2 POP POP SWAP3 SWAP2 POP POP JUMP JUMPDEST PUSH32 0x4E487B7100000000000000000000000000000000000000000000000000000000 PUSH1 0x0 MSTORE PUSH1 0x22 PUSH1 0x4 MSTORE PUSH1 0x24 PUSH1 0x0 REVERT JUMPDEST PUSH1 0x0 PUSH1 0x2 DUP3 DIV SWAP1 POP PUSH1 0x1 DUP3 AND DUP1 PUSH2 0x677 JUMPI PUSH1 0x7F DUP3 AND SWAP2 POP JUMPDEST PUSH1 0x20 DUP3 LT DUP2 SUB PUSH2 0x68A JUMPI PUSH2 0x689 PUSH2 0x630 JUMP JUMPDEST JUMPDEST POP SWAP2 SWAP1 POP JUMP JUMPDEST PUSH1 0x0 DUP2 SWAP1 POP DUP2 PUSH1 0x0 MSTORE PUSH1 0x20 PUSH1 0x0 KECCAK256 SWAP1 POP SWAP2 SWAP1 POP JUMP JUMPDEST PUSH1 0x0 PUSH1 0x20 PUSH1 0x1F DUP4 ADD DIV SWAP1 POP SWAP2 SWAP1 POP JUMP JUMPDEST PUSH1 0x0 DUP3 DUP3 SHL SWAP1 POP SWAP3 SWAP2 POP POP JUMP JUMPDEST PUSH1 0x0 PUSH1 0x8 DUP4 MUL PUSH2 0x6F2 PUSH32 0xFFFFFFFFFFFFFFFFFFFFFFFFFFFFFFFFFFFFFFFFFFFFFFFFFFFFFFFFFFFFFFFF DUP3 PUSH2 0x6B5 JUMP JUMPDEST PUSH2 0x6FC DUP7 DUP4 PUSH2 0x6B5 JUMP JUMPDEST SWAP6 POP DUP1 NOT DUP5 AND SWAP4 POP DUP1 DUP7 AND DUP5 OR SWAP3 POP POP POP SWAP4 SWAP3 POP POP POP JUMP JUMPDEST PUSH1 0x0 DUP2 SWAP1 POP SWAP2 SWAP1 POP JUMP JUMPDEST PUSH1 0x0 PUSH2 0x739 PUSH2 0x734 PUSH2 0x72F DUP5 PUSH2 0x2AA JUMP JUMPDEST PUSH2 0x714 JUMP JUMPDEST PUSH2 0x2AA JUMP JUMPDEST SWAP1 POP SWAP2 SWAP1 POP JUMP JUMPDEST PUSH1 0x0 DUP2 SWAP1 POP SWAP2 SWAP1 POP JUMP JUMPDEST PUSH2 0x753 DUP4 PUSH2 0x71E JUMP JUMPDEST PUSH2 0x767 PUSH2 0x75F DUP3 PUSH2 0x740 JUMP JUMPDEST DUP5 DUP5 SLOAD PUSH2 0x6C2 JUMP JUMPDEST DUP3 SSTORE POP POP POP POP JUMP JUMPDEST PUSH1 0x0 SWAP1 JUMP JUMPDEST PUSH2 0x77C PUSH2 0x76F JUMP JUMPDEST PUSH2 0x787 DUP2 DUP5 DUP5 PUSH2 0x74A JUMP JUMPDEST POP POP POP JUMP JUMPDEST JUMPDEST DUP2 DUP2 LT ISZERO PUSH2 0x7AB JUMPI PUSH2 0x7A0 PUSH1 0x0 DUP3 PUSH2 0x774 JUMP JUMPDEST PUSH1 0x1 DUP2 ADD SWAP1 POP PUSH2 0x78D JUMP JUMPDEST POP POP JUMP JUMPDEST PUSH1 0x1F DUP3 GT ISZERO PUSH2 0x7F0 JUMPI PUSH2 0x7C1 DUP2 PUSH2 0x690 JUMP JUMPDEST PUSH2 0x7CA DUP5 PUSH2 0x6A5 JUMP JUMPDEST DUP2 ADD PUSH1 0x20 DUP6 LT ISZERO PUSH2 0x7D9 JUMPI DUP2 SWAP1 POP JUMPDEST PUSH2 0x7ED PUSH2 0x7E5 DUP6 PUSH2 0x6A5 JUMP JUMPDEST DUP4 ADD DUP3 PUSH2 0x78C JUMP JUMPDEST POP POP JUMPDEST POP POP POP JUMP JUMPDEST PUSH1 0x0 DUP3 DUP3 SHR SWAP1 POP SWAP3 SWAP2 POP POP JUMP JUMPDEST PUSH1 0x0 PUSH2 0x813 PUSH1 0x0 NOT DUP5 PUSH1 0x8 MUL PUSH2 0x7F5 JUMP JUMPDEST NOT DUP1 DUP4 AND SWAP2 POP POP SWAP3 SWAP2 POP POP JUMP JUMPDEST PUSH1 0x0 PUSH2 0x82C DUP4 DUP4 PUSH2 0x802 JUMP JUMPDEST SWAP2 POP DUP3 PUSH1 0x2 MUL DUP3 OR SWAP1 POP SWAP3 SWAP2 POP POP JUMP JUMPDEST PUSH2 0x845 DUP3 PUSH2 0x33A JUMP JUMPDEST PUSH8 0xFFFFFFFFFFFFFFFF DUP2 GT ISZERO PUSH2 0x85E JUMPI PUSH2 0x85D PUSH2 0x40A JUMP JUMPDEST JUMPDEST PUSH2 0x868 DUP3 SLOAD PUSH2 0x65F JUMP JUMPDEST PUSH2 0x873 DUP3 DUP3 DUP6 PUSH2 0x7AF JUMP JUMPDEST PUSH1 0x0 PUSH1 0x20 SWAP1 POP PUSH1 0x1F DUP4 GT PUSH1 0x1 DUP2 EQ PUSH2 0x8A6 JUMPI PUSH1 0x0 DUP5 ISZERO PUSH2 0x894 JUMPI DUP3 DUP8 ADD MLOAD SWAP1 POP JUMPDEST PUSH2 0x89E DUP6 DUP3 PUSH2 0x820 JUMP JUMPDEST DUP7 SSTORE POP PUSH2 0x906 JUMP JUMPDEST PUSH1 0x1F NOT DUP5 AND PUSH2 0x8B4 DUP7 PUSH2 0x690 JUMP JUMPDEST PUSH1 0x0 JUMPDEST DUP3 DUP2 LT ISZERO PUSH2 0x8DC JUMPI DUP5 DUP10 ADD MLOAD DUP3 SSTORE PUSH1 0x1 DUP3 ADD SWAP2 POP PUSH1 0x20 DUP6 ADD SWAP5 POP PUSH1 0x20 DUP2 ADD SWAP1 POP PUSH2 0x8B7 JUMP JUMPDEST DUP7 DUP4 LT ISZERO PUSH2 0x8F9 JUMPI DUP5 DUP10 ADD MLOAD PUSH2 0x8F5 PUSH1 0x1F DUP10 AND DUP3 PUSH2 0x802 JUMP JUMPDEST DUP4 SSTORE POP JUMPDEST PUSH1 0x1 PUSH1 0x2 DUP9 MUL ADD DUP9 SSTORE POP POP POP JUMPDEST POP POP POP POP POP POP JUMP INVALID LOG2 PUSH5 0x6970667358 0x22 SLT KECCAK256 PUSH21 0x2C678099D195BF42CE100BE10CA1E0A67A7B7C2AA COINBASE 0x1F 0xCE BALANCE SLOAD CALLDATALOAD 0xEA GASLIMIT 0x28 EXP PUSH5 0x736F6C6343 STOP ADDMOD LT STOP CALLER "
				},
				"gasEstimates": {
					"creation": {
						"codeDepositCost": "474400",
						"executionCost": "511",
						"totalCost": "474911"
					},
					"external": {
						"getBalanceOfAddress()": "5102",
						"myAddress()": "2559",
						"myString()": "infinite",
						"myUint()": "2430",
						"setMyAddress(address)": "24766",
						"setMyString(string)": "infinite",
						"setMyUint(uint256)": "22586"
					}
				},
				"methodIdentifiers": {
					"getBalanceOfAddress()": "15502612",
					"myAddress()": "26b85ee1",
					"myString()": "492bfa18",
					"myUint()": "06540f7e",
					"setMyAddress(address)": "a8a7b895",
					"setMyString(string)": "82180568",
					"setMyUint(uint256)": "e492fd84"
				}
			},
			"storageLayout": {
				"storage": [
					{
						"astId": 3,
						"contract": "CompileVariables.sol:WorkingWithVariables",
						"label": "myUint",
						"offset": 0,
						"slot": "0",
						"type": "t_uint256"
					},
					{
						"astId": 15,
						"contract": "CompileVariables.sol:WorkingWithVariables",
						"label": "myAddress",
						"offset": 0,
						"slot": "1",
						"type": "t_address"
					},
					{
						"astId": 36,
						"contract": "CompileVariables.sol:WorkingWithVariables",
						"label": "myString",
						"offset": 0,
						"slot": "2",
						"type": "t_string_storage"
					}
				],
				"types": {
					"t_address": {
						"encoding": "inplace",
						"label": "address",
						"numberOfBytes": "20"
					},
					"t_string_storage": {
						"encoding": "bytes",
						"label": "string",
						"numberOfBytes": "32"
					},
					"t_uint256": {
						"encoding": "inplace",
						"label": "uint256",
						"numberOfBytes": "32"
					}
				}
			},
			"userdoc": {
				"kind": "user",
				"methods": {},
				"version": 1
			}
		}
	}
}