{
	"StartingStopping.sol": {
		"StartStopUpdateExample": {
			"abi": [
				{
					"inputs": [],
					"stateMutability": "nonpayable",
					"type": "constructor"
				},
				{
					"inputs": [],
					"name": "myContractBalance",
					"outputs": [
						{
							"internalType": "uint256",
							"name": "",
							"type": "uint256"
						}
					],
					"stateMutability": "view",
					"type": "function"
				},
				{
					"inputs": [],
					"name": "owner",
					"outputs": [
						{
							"internalType": "address",
							"name": "",
							"type": "address"
						}
					],
					"stateMutability": "view",
					"type": "function"
				},
				{
					"inputs": [],
					"name": "sendMoney",
					"outputs": [],
					"stateMutability": "payable",
					"type": "function"
				},
				{
					"inputs": [
						{
							"internalType": "address payable",
							"name": "_to",
							"type": "address"
						}
					],
					"name": "withdrawAllMoney",
					"outputs": [],
					"stateMutability": "nonpayable",
					"type": "function"
				}
			],
			"devdoc": {
				"kind": "dev",
				"methods": {},
				"version": 1
			},
			"evm": {
				"assembly": "    /* \"StartingStopping.sol\":64:479  contract StartStopUpdateExample {... */\n  mstore(0x40, 0x80)\n    /* \"StartingStopping.sol\":165:214  constructor() {... */\n  callvalue\n  dup1\n  iszero\n  tag_1\n  jumpi\n  0x00\n  dup1\n  revert\ntag_1:\n  pop\n    /* \"StartingStopping.sol\":197:207  msg.sender */\n  caller\n    /* \"StartingStopping.sol\":189:194  owner */\n  0x00\n  dup1\n    /* \"StartingStopping.sol\":189:207  owner = msg.sender */\n  0x0100\n  exp\n  dup2\n  sload\n  dup2\n  0xffffffffffffffffffffffffffffffffffffffff\n  mul\n  not\n  and\n  swap1\n  dup4\n  0xffffffffffffffffffffffffffffffffffffffff\n  and\n  mul\n  or\n  swap1\n  sstore\n  pop\n    /* \"StartingStopping.sol\":64:479  contract StartStopUpdateExample {... */\n  dataSize(sub_0)\n  dup1\n  dataOffset(sub_0)\n  0x00\n  codecopy\n  0x00\n  return\nstop\n\nsub_0: assembly {\n        /* \"StartingStopping.sol\":64:479  contract StartStopUpdateExample {... */\n      mstore(0x40, 0x80)\n      jumpi(tag_1, lt(calldatasize, 0x04))\n      shr(0xe0, calldataload(0x00))\n      dup1\n      0x0adec93c\n      eq\n      tag_2\n      jumpi\n      dup1\n      0x2b6dcd77\n      eq\n      tag_3\n      jumpi\n      dup1\n      0x8da5cb5b\n      eq\n      tag_4\n      jumpi\n      dup1\n      0xcbedbf5a\n      eq\n      tag_5\n      jumpi\n    tag_1:\n      0x00\n      dup1\n      revert\n        /* \"StartingStopping.sol\":309:477  function withdrawAllMoney(address payable _to) public {... */\n    tag_2:\n      callvalue\n      dup1\n      iszero\n      tag_6\n      jumpi\n      0x00\n      dup1\n      revert\n    tag_6:\n      pop\n      tag_7\n      0x04\n      dup1\n      calldatasize\n      sub\n      dup2\n      add\n      swap1\n      tag_8\n      swap2\n      swap1\n      tag_9\n      jump\t// in\n    tag_8:\n      tag_10\n      jump\t// in\n    tag_7:\n      stop\n        /* \"StartingStopping.sol\":129:158  uint public myContractBalance */\n    tag_3:\n      callvalue\n      dup1\n      iszero\n      tag_11\n      jumpi\n      0x00\n      dup1\n      revert\n    tag_11:\n      pop\n      tag_12\n      tag_13\n      jump\t// in\n    tag_12:\n      mload(0x40)\n      tag_14\n      swap2\n      swap1\n      tag_15\n      jump\t// in\n    tag_14:\n      mload(0x40)\n      dup1\n      swap2\n      sub\n      swap1\n      return\n        /* \"StartingStopping.sol\":103:123  address public owner */\n    tag_4:\n      callvalue\n      dup1\n      iszero\n      tag_16\n      jumpi\n      0x00\n      dup1\n      revert\n    tag_16:\n      pop\n      tag_17\n      tag_18\n      jump\t// in\n    tag_17:\n      mload(0x40)\n      tag_19\n      swap2\n      swap1\n      tag_20\n      jump\t// in\n    tag_19:\n      mload(0x40)\n      dup1\n      swap2\n      sub\n      swap1\n      return\n        /* \"StartingStopping.sol\":220:303  function sendMoney() public payable {... */\n    tag_5:\n      tag_21\n      tag_22\n      jump\t// in\n    tag_21:\n      stop\n        /* \"StartingStopping.sol\":309:477  function withdrawAllMoney(address payable _to) public {... */\n    tag_10:\n        /* \"StartingStopping.sol\":390:400  msg.sender */\n      caller\n        /* \"StartingStopping.sol\":381:400  owner == msg.sender */\n      0xffffffffffffffffffffffffffffffffffffffff\n      and\n        /* \"StartingStopping.sol\":381:386  owner */\n      0x00\n      dup1\n      sload\n      swap1\n      0x0100\n      exp\n      swap1\n      div\n      0xffffffffffffffffffffffffffffffffffffffff\n      and\n        /* \"StartingStopping.sol\":381:400  owner == msg.sender */\n      0xffffffffffffffffffffffffffffffffffffffff\n      and\n      eq\n        /* \"StartingStopping.sol\":373:425  require(owner == msg.sender, \"You cannot withdraw.\") */\n      tag_24\n      jumpi\n      mload(0x40)\n      0x08c379a000000000000000000000000000000000000000000000000000000000\n      dup2\n      mstore\n      0x04\n      add\n      tag_25\n      swap1\n      tag_26\n      jump\t// in\n    tag_25:\n      mload(0x40)\n      dup1\n      swap2\n      sub\n      swap1\n      revert\n    tag_24:\n        /* \"StartingStopping.sol\":435:438  _to */\n      dup1\n        /* \"StartingStopping.sol\":435:447  _to.transfer */\n      0xffffffffffffffffffffffffffffffffffffffff\n      and\n        /* \"StartingStopping.sol\":435:470  _to.transfer(address(this).balance) */\n      0x08fc\n        /* \"StartingStopping.sol\":448:469  address(this).balance */\n      selfbalance\n        /* \"StartingStopping.sol\":435:470  _to.transfer(address(this).balance) */\n      swap1\n      dup2\n      iszero\n      mul\n      swap1\n      mload(0x40)\n      0x00\n      mload(0x40)\n      dup1\n      dup4\n      sub\n      dup2\n      dup6\n      dup9\n      dup9\n      call\n      swap4\n      pop\n      pop\n      pop\n      pop\n      iszero\n      dup1\n      iszero\n      tag_28\n      jumpi\n      returndatasize\n      0x00\n      dup1\n      returndatacopy\n      revert(0x00, returndatasize)\n    tag_28:\n      pop\n        /* \"StartingStopping.sol\":309:477  function withdrawAllMoney(address payable _to) public {... */\n      pop\n      jump\t// out\n        /* \"StartingStopping.sol\":129:158  uint public myContractBalance */\n    tag_13:\n      sload(0x01)\n      dup2\n      jump\t// out\n        /* \"StartingStopping.sol\":103:123  address public owner */\n    tag_18:\n      0x00\n      dup1\n      sload\n      swap1\n      0x0100\n      exp\n      swap1\n      div\n      0xffffffffffffffffffffffffffffffffffffffff\n      and\n      dup2\n      jump\t// out\n        /* \"StartingStopping.sol\":220:303  function sendMoney() public payable {... */\n    tag_22:\n        /* \"StartingStopping.sol\":287:296  msg.value */\n      callvalue\n        /* \"StartingStopping.sol\":266:283  myContractBalance */\n      0x01\n      0x00\n        /* \"StartingStopping.sol\":266:296  myContractBalance += msg.value */\n      dup3\n      dup3\n      sload\n      tag_30\n      swap2\n      swap1\n      tag_31\n      jump\t// in\n    tag_30:\n      swap3\n      pop\n      pop\n      dup2\n      swap1\n      sstore\n      pop\n        /* \"StartingStopping.sol\":220:303  function sendMoney() public payable {... */\n      jump\t// out\n        /* \"#utility.yul\":7:162   */\n    tag_33:\n        /* \"#utility.yul\":61:66   */\n      0x00\n        /* \"#utility.yul\":99:105   */\n      dup2\n        /* \"#utility.yul\":86:106   */\n      calldataload\n        /* \"#utility.yul\":77:106   */\n      swap1\n      pop\n        /* \"#utility.yul\":115:156   */\n      tag_35\n        /* \"#utility.yul\":150:155   */\n      dup2\n        /* \"#utility.yul\":115:156   */\n      tag_36\n      jump\t// in\n    tag_35:\n        /* \"#utility.yul\":7:162   */\n      swap3\n      swap2\n      pop\n      pop\n      jump\t// out\n        /* \"#utility.yul\":168:513   */\n    tag_9:\n        /* \"#utility.yul\":235:241   */\n      0x00\n        /* \"#utility.yul\":284:286   */\n      0x20\n        /* \"#utility.yul\":272:281   */\n      dup3\n        /* \"#utility.yul\":263:270   */\n      dup5\n        /* \"#utility.yul\":259:282   */\n      sub\n        /* \"#utility.yul\":255:287   */\n      slt\n        /* \"#utility.yul\":252:371   */\n      iszero\n      tag_38\n      jumpi\n        /* \"#utility.yul\":290:369   */\n      tag_39\n      tag_40\n      jump\t// in\n    tag_39:\n        /* \"#utility.yul\":252:371   */\n    tag_38:\n        /* \"#utility.yul\":410:411   */\n      0x00\n        /* \"#utility.yul\":435:496   */\n      tag_41\n        /* \"#utility.yul\":488:495   */\n      dup5\n        /* \"#utility.yul\":479:485   */\n      dup3\n        /* \"#utility.yul\":468:477   */\n      dup6\n        /* \"#utility.yul\":464:486   */\n      add\n        /* \"#utility.yul\":435:496   */\n      tag_33\n      jump\t// in\n    tag_41:\n        /* \"#utility.yul\":425:496   */\n      swap2\n      pop\n        /* \"#utility.yul\":381:506   */\n      pop\n        /* \"#utility.yul\":168:513   */\n      swap3\n      swap2\n      pop\n      pop\n      jump\t// out\n        /* \"#utility.yul\":519:637   */\n    tag_42:\n        /* \"#utility.yul\":606:630   */\n      tag_44\n        /* \"#utility.yul\":624:629   */\n      dup2\n        /* \"#utility.yul\":606:630   */\n      tag_45\n      jump\t// in\n    tag_44:\n        /* \"#utility.yul\":601:604   */\n      dup3\n        /* \"#utility.yul\":594:631   */\n      mstore\n        /* \"#utility.yul\":519:637   */\n      pop\n      pop\n      jump\t// out\n        /* \"#utility.yul\":643:1009   */\n    tag_46:\n        /* \"#utility.yul\":785:788   */\n      0x00\n        /* \"#utility.yul\":806:873   */\n      tag_48\n        /* \"#utility.yul\":870:872   */\n      0x14\n        /* \"#utility.yul\":865:868   */\n      dup4\n        /* \"#utility.yul\":806:873   */\n      tag_49\n      jump\t// in\n    tag_48:\n        /* \"#utility.yul\":799:873   */\n      swap2\n      pop\n        /* \"#utility.yul\":882:975   */\n      tag_50\n        /* \"#utility.yul\":971:974   */\n      dup3\n        /* \"#utility.yul\":882:975   */\n      tag_51\n      jump\t// in\n    tag_50:\n        /* \"#utility.yul\":1000:1002   */\n      0x20\n        /* \"#utility.yul\":995:998   */\n      dup3\n        /* \"#utility.yul\":991:1003   */\n      add\n        /* \"#utility.yul\":984:1003   */\n      swap1\n      pop\n        /* \"#utility.yul\":643:1009   */\n      swap2\n      swap1\n      pop\n      jump\t// out\n        /* \"#utility.yul\":1015:1133   */\n    tag_52:\n        /* \"#utility.yul\":1102:1126   */\n      tag_54\n        /* \"#utility.yul\":1120:1125   */\n      dup2\n        /* \"#utility.yul\":1102:1126   */\n      tag_55\n      jump\t// in\n    tag_54:\n        /* \"#utility.yul\":1097:1100   */\n      dup3\n        /* \"#utility.yul\":1090:1127   */\n      mstore\n        /* \"#utility.yul\":1015:1133   */\n      pop\n      pop\n      jump\t// out\n        /* \"#utility.yul\":1139:1361   */\n    tag_20:\n        /* \"#utility.yul\":1232:1236   */\n      0x00\n        /* \"#utility.yul\":1270:1272   */\n      0x20\n        /* \"#utility.yul\":1259:1268   */\n      dup3\n        /* \"#utility.yul\":1255:1273   */\n      add\n        /* \"#utility.yul\":1247:1273   */\n      swap1\n      pop\n        /* \"#utility.yul\":1283:1354   */\n      tag_57\n        /* \"#utility.yul\":1351:1352   */\n      0x00\n        /* \"#utility.yul\":1340:1349   */\n      dup4\n        /* \"#utility.yul\":1336:1353   */\n      add\n        /* \"#utility.yul\":1327:1333   */\n      dup5\n        /* \"#utility.yul\":1283:1354   */\n      tag_42\n      jump\t// in\n    tag_57:\n        /* \"#utility.yul\":1139:1361   */\n      swap3\n      swap2\n      pop\n      pop\n      jump\t// out\n        /* \"#utility.yul\":1367:1786   */\n    tag_26:\n        /* \"#utility.yul\":1533:1537   */\n      0x00\n        /* \"#utility.yul\":1571:1573   */\n      0x20\n        /* \"#utility.yul\":1560:1569   */\n      dup3\n        /* \"#utility.yul\":1556:1574   */\n      add\n        /* \"#utility.yul\":1548:1574   */\n      swap1\n      pop\n        /* \"#utility.yul\":1620:1629   */\n      dup2\n        /* \"#utility.yul\":1614:1618   */\n      dup2\n        /* \"#utility.yul\":1610:1630   */\n      sub\n        /* \"#utility.yul\":1606:1607   */\n      0x00\n        /* \"#utility.yul\":1595:1604   */\n      dup4\n        /* \"#utility.yul\":1591:1608   */\n      add\n        /* \"#utility.yul\":1584:1631   */\n      mstore\n        /* \"#utility.yul\":1648:1779   */\n      tag_59\n        /* \"#utility.yul\":1774:1778   */\n      dup2\n        /* \"#utility.yul\":1648:1779   */\n      tag_46\n      jump\t// in\n    tag_59:\n        /* \"#utility.yul\":1640:1779   */\n      swap1\n      pop\n        /* \"#utility.yul\":1367:1786   */\n      swap2\n      swap1\n      pop\n      jump\t// out\n        /* \"#utility.yul\":1792:2014   */\n    tag_15:\n        /* \"#utility.yul\":1885:1889   */\n      0x00\n        /* \"#utility.yul\":1923:1925   */\n      0x20\n        /* \"#utility.yul\":1912:1921   */\n      dup3\n        /* \"#utility.yul\":1908:1926   */\n      add\n        /* \"#utility.yul\":1900:1926   */\n      swap1\n      pop\n        /* \"#utility.yul\":1936:2007   */\n      tag_61\n        /* \"#utility.yul\":2004:2005   */\n      0x00\n        /* \"#utility.yul\":1993:2002   */\n      dup4\n        /* \"#utility.yul\":1989:2006   */\n      add\n        /* \"#utility.yul\":1980:1986   */\n      dup5\n        /* \"#utility.yul\":1936:2007   */\n      tag_52\n      jump\t// in\n    tag_61:\n        /* \"#utility.yul\":1792:2014   */\n      swap3\n      swap2\n      pop\n      pop\n      jump\t// out\n        /* \"#utility.yul\":2101:2270   */\n    tag_49:\n        /* \"#utility.yul\":2185:2196   */\n      0x00\n        /* \"#utility.yul\":2219:2225   */\n      dup3\n        /* \"#utility.yul\":2214:2217   */\n      dup3\n        /* \"#utility.yul\":2207:2226   */\n      mstore\n        /* \"#utility.yul\":2259:2263   */\n      0x20\n        /* \"#utility.yul\":2254:2257   */\n      dup3\n        /* \"#utility.yul\":2250:2264   */\n      add\n        /* \"#utility.yul\":2235:2264   */\n      swap1\n      pop\n        /* \"#utility.yul\":2101:2270   */\n      swap3\n      swap2\n      pop\n      pop\n      jump\t// out\n        /* \"#utility.yul\":2276:2581   */\n    tag_31:\n        /* \"#utility.yul\":2316:2319   */\n      0x00\n        /* \"#utility.yul\":2335:2355   */\n      tag_66\n        /* \"#utility.yul\":2353:2354   */\n      dup3\n        /* \"#utility.yul\":2335:2355   */\n      tag_55\n      jump\t// in\n    tag_66:\n        /* \"#utility.yul\":2330:2355   */\n      swap2\n      pop\n        /* \"#utility.yul\":2369:2389   */\n      tag_67\n        /* \"#utility.yul\":2387:2388   */\n      dup4\n        /* \"#utility.yul\":2369:2389   */\n      tag_55\n      jump\t// in\n    tag_67:\n        /* \"#utility.yul\":2364:2389   */\n      swap3\n      pop\n        /* \"#utility.yul\":2523:2524   */\n      dup3\n        /* \"#utility.yul\":2455:2521   */\n      0xffffffffffffffffffffffffffffffffffffffffffffffffffffffffffffffff\n        /* \"#utility.yul\":2451:2525   */\n      sub\n        /* \"#utility.yul\":2448:2449   */\n      dup3\n        /* \"#utility.yul\":2445:2526   */\n      gt\n        /* \"#utility.yul\":2442:2549   */\n      iszero\n      tag_68\n      jumpi\n        /* \"#utility.yul\":2529:2547   */\n      tag_69\n      tag_70\n      jump\t// in\n    tag_69:\n        /* \"#utility.yul\":2442:2549   */\n    tag_68:\n        /* \"#utility.yul\":2573:2574   */\n      dup3\n        /* \"#utility.yul\":2570:2571   */\n      dup3\n        /* \"#utility.yul\":2566:2575   */\n      add\n        /* \"#utility.yul\":2559:2575   */\n      swap1\n      pop\n        /* \"#utility.yul\":2276:2581   */\n      swap3\n      swap2\n      pop\n      pop\n      jump\t// out\n        /* \"#utility.yul\":2587:2683   */\n    tag_45:\n        /* \"#utility.yul\":2624:2631   */\n      0x00\n        /* \"#utility.yul\":2653:2677   */\n      tag_72\n        /* \"#utility.yul\":2671:2676   */\n      dup3\n        /* \"#utility.yul\":2653:2677   */\n      tag_73\n      jump\t// in\n    tag_72:\n        /* \"#utility.yul\":2642:2677   */\n      swap1\n      pop\n        /* \"#utility.yul\":2587:2683   */\n      swap2\n      swap1\n      pop\n      jump\t// out\n        /* \"#utility.yul\":2689:2793   */\n    tag_74:\n        /* \"#utility.yul\":2734:2741   */\n      0x00\n        /* \"#utility.yul\":2763:2787   */\n      tag_76\n        /* \"#utility.yul\":2781:2786   */\n      dup3\n        /* \"#utility.yul\":2763:2787   */\n      tag_73\n      jump\t// in\n    tag_76:\n        /* \"#utility.yul\":2752:2787   */\n      swap1\n      pop\n        /* \"#utility.yul\":2689:2793   */\n      swap2\n      swap1\n      pop\n      jump\t// out\n        /* \"#utility.yul\":2799:2925   */\n    tag_73:\n        /* \"#utility.yul\":2836:2843   */\n      0x00\n        /* \"#utility.yul\":2876:2918   */\n      0xffffffffffffffffffffffffffffffffffffffff\n        /* \"#utility.yul\":2869:2874   */\n      dup3\n        /* \"#utility.yul\":2865:2919   */\n      and\n        /* \"#utility.yul\":2854:2919   */\n      swap1\n      pop\n        /* \"#utility.yul\":2799:2925   */\n      swap2\n      swap1\n      pop\n      jump\t// out\n        /* \"#utility.yul\":2931:3008   */\n    tag_55:\n        /* \"#utility.yul\":2968:2975   */\n      0x00\n        /* \"#utility.yul\":2997:3002   */\n      dup2\n        /* \"#utility.yul\":2986:3002   */\n      swap1\n      pop\n        /* \"#utility.yul\":2931:3008   */\n      swap2\n      swap1\n      pop\n      jump\t// out\n        /* \"#utility.yul\":3014:3194   */\n    tag_70:\n        /* \"#utility.yul\":3062:3139   */\n      0x4e487b7100000000000000000000000000000000000000000000000000000000\n        /* \"#utility.yul\":3059:3060   */\n      0x00\n        /* \"#utility.yul\":3052:3140   */\n      mstore\n        /* \"#utility.yul\":3159:3163   */\n      0x11\n        /* \"#utility.yul\":3156:3157   */\n      0x04\n        /* \"#utility.yul\":3149:3164   */\n      mstore\n        /* \"#utility.yul\":3183:3187   */\n      0x24\n        /* \"#utility.yul\":3180:3181   */\n      0x00\n        /* \"#utility.yul\":3173:3188   */\n      revert\n        /* \"#utility.yul\":3323:3440   */\n    tag_40:\n        /* \"#utility.yul\":3432:3433   */\n      0x00\n        /* \"#utility.yul\":3429:3430   */\n      dup1\n        /* \"#utility.yul\":3422:3434   */\n      revert\n        /* \"#utility.yul\":3446:3616   */\n    tag_51:\n        /* \"#utility.yul\":3586:3608   */\n      0x596f752063616e6e6f742077697468647261772e000000000000000000000000\n        /* \"#utility.yul\":3582:3583   */\n      0x00\n        /* \"#utility.yul\":3574:3580   */\n      dup3\n        /* \"#utility.yul\":3570:3584   */\n      add\n        /* \"#utility.yul\":3563:3609   */\n      mstore\n        /* \"#utility.yul\":3446:3616   */\n      pop\n      jump\t// out\n        /* \"#utility.yul\":3622:3760   */\n    tag_36:\n        /* \"#utility.yul\":3703:3735   */\n      tag_85\n        /* \"#utility.yul\":3729:3734   */\n      dup2\n        /* \"#utility.yul\":3703:3735   */\n      tag_74\n      jump\t// in\n    tag_85:\n        /* \"#utility.yul\":3696:3701   */\n      dup2\n        /* \"#utility.yul\":3693:3736   */\n      eq\n        /* \"#utility.yul\":3683:3754   */\n      tag_86\n      jumpi\n        /* \"#utility.yul\":3750:3751   */\n      0x00\n        /* \"#utility.yul\":3747:3748   */\n      dup1\n        /* \"#utility.yul\":3740:3752   */\n      revert\n        /* \"#utility.yul\":3683:3754   */\n    tag_86:\n        /* \"#utility.yul\":3622:3760   */\n      pop\n      jump\t// out\n\n    auxdata: 0xa264697066735822122014c7c3c36ce32d73fb070b809719626ca45bb0089a11d8d94c3e1fef4207f52164736f6c63430008070033\n}\n",
				"bytecode": {
					"linkReferences": {},
					"object": "608060405234801561001057600080fd5b50336000806101000a81548173ffffffffffffffffffffffffffffffffffffffff021916908373ffffffffffffffffffffffffffffffffffffffff160217905550610422806100606000396000f3fe60806040526004361061003f5760003560e01c80630adec93c146100445780632b6dcd771461006d5780638da5cb5b14610098578063cbedbf5a146100c3575b600080fd5b34801561005057600080fd5b5061006b600480360381019061006691906101ff565b6100cd565b005b34801561007957600080fd5b506100826101a5565b60405161008f91906102a8565b60405180910390f35b3480156100a457600080fd5b506100ad6101ab565b6040516100ba919061026d565b60405180910390f35b6100cb6101cf565b005b3373ffffffffffffffffffffffffffffffffffffffff1660008054906101000a900473ffffffffffffffffffffffffffffffffffffffff1673ffffffffffffffffffffffffffffffffffffffff161461015b576040517f08c379a000000000000000000000000000000000000000000000000000000000815260040161015290610288565b60405180910390fd5b8073ffffffffffffffffffffffffffffffffffffffff166108fc479081150290604051600060405180830381858888f193505050501580156101a1573d6000803e3d6000fd5b5050565b60015481565b60008054906101000a900473ffffffffffffffffffffffffffffffffffffffff1681565b34600160008282546101e191906102d4565b92505081905550565b6000813590506101f9816103d5565b92915050565b600060208284031215610215576102146103a7565b5b6000610223848285016101ea565b91505092915050565b6102358161032a565b82525050565b60006102486014836102c3565b9150610253826103ac565b602082019050919050565b6102678161036e565b82525050565b6000602082019050610282600083018461022c565b92915050565b600060208201905081810360008301526102a18161023b565b9050919050565b60006020820190506102bd600083018461025e565b92915050565b600082825260208201905092915050565b60006102df8261036e565b91506102ea8361036e565b9250827fffffffffffffffffffffffffffffffffffffffffffffffffffffffffffffffff0382111561031f5761031e610378565b5b828201905092915050565b60006103358261034e565b9050919050565b60006103478261034e565b9050919050565b600073ffffffffffffffffffffffffffffffffffffffff82169050919050565b6000819050919050565b7f4e487b7100000000000000000000000000000000000000000000000000000000600052601160045260246000fd5b600080fd5b7f596f752063616e6e6f742077697468647261772e000000000000000000000000600082015250565b6103de8161033c565b81146103e957600080fd5b5056fea264697066735822122014c7c3c36ce32d73fb070b809719626ca45bb0089a11d8d94c3e1fef4207f52164736f6c63430008070033",
					"opcodes": "PUSH1 0x80 PUSH1 0x40 MSTORE CALLVALUE DUP1 ISZERO PUSH2 0x10 JUMPI PUSH1 0x0 DUP1 REVERT JUMPDEST POP CALLER PUSH1 0x0 DUP1 PUSH2 0x100 EXP DUP2 SLOAD DUP2 PUSH20 0xFFFFFFFFFFFFFFFFFFFFFFFFFFFFFFFFFFFFFFFF MUL NOT AND SWAP1 DUP4 PUSH20 0xFFFFFFFFFFFFFFFFFFFFFFFFFFFFFFFFFFFFFFFF AND MUL OR SWAP1 SSTORE POP PUSH2 0x422 DUP1 PUSH2 0x60 PUSH1 0x0 CODECOPY PUSH1 0x0 RETURN INVALID PUSH1 0x80 PUSH1 0x40 MSTORE PUSH1 0x4 CALLDATASIZE LT PUSH2 0x3F JUMPI PUSH1 0x0 CALLDATALOAD PUSH1 0xE0 SHR DUP1 PUSH4 0xADEC93C EQ PUSH2 0x44 JUMPI DUP1 PUSH4 0x2B6DCD77 EQ PUSH2 0x6D JUMPI DUP1 PUSH4 0x8DA5CB5B EQ PUSH2 0x98 JUMPI DUP1 PUSH4 0xCBEDBF5A EQ PUSH2 0xC3 JUMPI JUMPDEST PUSH1 0x0 DUP1 REVERT JUMPDEST CALLVALUE DUP1 ISZERO PUSH2 0x50 JUMPI PUSH1 0x0 DUP1 REVERT JUMPDEST POP PUSH2 0x6B PUSH1 0x4 DUP1 CALLDATASIZE SUB DUP2 ADD SWAP1 PUSH2 0x66 SWAP2 SWAP1 PUSH2 0x1FF JUMP JUMPDEST PUSH2 0xCD JUMP JUMPDEST STOP JUMPDEST CALLVALUE DUP1 ISZERO PUSH2 0x79 JUMPI PUSH1 0x0 DUP1 REVERT JUMPDEST POP PUSH2 0x82 PUSH2 0x1A5 JUMP JUMPDEST PUSH1 0x40 MLOAD PUSH2 0x8F SWAP2 SWAP1 PUSH2 0x2A8 JUMP JUMPDEST PUSH1 0x40 MLOAD DUP1 SWAP2 SUB SWAP1 RETURN JUMPDEST CALLVALUE DUP1 ISZERO PUSH2 0xA4 JUMPI PUSH1 0x0 DUP1 REVERT JUMPDEST POP PUSH2 0xAD PUSH2 0x1AB JUMP JUMPDEST PUSH1 0x40 MLOAD PUSH2 0xBA SWAP2 SWAP1 PUSH2 0x26D JUMP JUMPDEST PUSH1 0x40 MLOAD DUP1 SWAP2 SUB SWAP1 RETURN JUMPDEST PUSH2 0xCB PUSH2 0x1CF JUMP JUMPDEST STOP JUMPDEST CALLER PUSH20 0xFFFFFFFFFFFFFFFFFFFFFFFFFFFFFFFFFFFFFFFF AND PUSH1 0x0 DUP1 SLOAD SWAP1 PUSH2 0x100 EXP SWAP1 DIV PUSH20 0xFFFFFFFFFFFFFFFFFFFFFFFFFFFFFFFFFFFFFFFF AND PUSH20 0xFFFFFFFFFFFFFFFFFFFFFFFFFFFFFFFFFFFFFFFF AND EQ PUSH2 0x15B JUMPI PUSH1 0x40 MLOAD PUSH32 0x8C379A000000000000000000000000000000000000000000000000000000000 DUP2 MSTORE PUSH1 0x4 ADD PUSH2 0x152 SWAP1 PUSH2 0x288 JUMP JUMPDEST PUSH1 0x40 MLOAD DUP1 SWAP2 SUB SWAP1 REVERT JUMPDEST DUP1 PUSH20 0xFFFFFFFFFFFFFFFFFFFFFFFFFFFFFFFFFFFFFFFF AND PUSH2 0x8FC SELFBALANCE SWAP1 DUP2 ISZERO MUL SWAP1 PUSH1 0x40 MLOAD PUSH1 0x0 PUSH1 0x40 MLOAD DUP1 DUP4 SUB DUP2 DUP6 DUP9 DUP9 CALL SWAP4 POP POP POP POP ISZERO DUP1 ISZERO PUSH2 0x1A1 JUMPI RETURNDATASIZE PUSH1 0x0 DUP1 RETURNDATACOPY RETURNDATASIZE PUSH1 0x0 REVERT JUMPDEST POP POP JUMP JUMPDEST PUSH1 0x1 SLOAD DUP2 JUMP JUMPDEST PUSH1 0x0 DUP1 SLOAD SWAP1 PUSH2 0x100 EXP SWAP1 DIV PUSH20 0xFFFFFFFFFFFFFFFFFFFFFFFFFFFFFFFFFFFFFFFF AND DUP2 JUMP JUMPDEST CALLVALUE PUSH1 0x1 PUSH1 0x0 DUP3 DUP3 SLOAD PUSH2 0x1E1 SWAP2 SWAP1 PUSH2 0x2D4 JUMP JUMPDEST SWAP3 POP POP DUP2 SWAP1 SSTORE POP JUMP JUMPDEST PUSH1 0x0 DUP2 CALLDATALOAD SWAP1 POP PUSH2 0x1F9 DUP2 PUSH2 0x3D5 JUMP JUMPDEST SWAP3 SWAP2 POP POP JUMP JUMPDEST PUSH1 0x0 PUSH1 0x20 DUP3 DUP5 SUB SLT ISZERO PUSH2 0x215 JUMPI PUSH2 0x214 PUSH2 0x3A7 JUMP JUMPDEST JUMPDEST PUSH1 0x0 PUSH2 0x223 DUP5 DUP3 DUP6 ADD PUSH2 0x1EA JUMP JUMPDEST SWAP2 POP POP SWAP3 SWAP2 POP POP JUMP JUMPDEST PUSH2 0x235 DUP2 PUSH2 0x32A JUMP JUMPDEST DUP3 MSTORE POP POP JUMP JUMPDEST PUSH1 0x0 PUSH2 0x248 PUSH1 0x14 DUP4 PUSH2 0x2C3 JUMP JUMPDEST SWAP2 POP PUSH2 0x253 DUP3 PUSH2 0x3AC JUMP JUMPDEST PUSH1 0x20 DUP3 ADD SWAP1 POP SWAP2 SWAP1 POP JUMP JUMPDEST PUSH2 0x267 DUP2 PUSH2 0x36E JUMP JUMPDEST DUP3 MSTORE POP POP JUMP JUMPDEST PUSH1 0x0 PUSH1 0x20 DUP3 ADD SWAP1 POP PUSH2 0x282 PUSH1 0x0 DUP4 ADD DUP5 PUSH2 0x22C JUMP JUMPDEST SWAP3 SWAP2 POP POP JUMP JUMPDEST PUSH1 0x0 PUSH1 0x20 DUP3 ADD SWAP1 POP DUP2 DUP2 SUB PUSH1 0x0 DUP4 ADD MSTORE PUSH2 0x2A1 DUP2 PUSH2 0x23B JUMP JUMPDEST SWAP1 POP SWAP2 SWAP1 POP JUMP JUMPDEST PUSH1 0x0 PUSH1 0x20 DUP3 ADD SWAP1 POP PUSH2 0x2BD PUSH1 0x0 DUP4 ADD DUP5 PUSH2 0x25E JUMP JUMPDEST SWAP3 SWAP2 POP POP JUMP JUMPDEST PUSH1 0x0 DUP3 DUP3 MSTORE PUSH1 0x20 DUP3 ADD SWAP1 POP SWAP3 SWAP2 POP POP JUMP JUMPDEST PUSH1 0x0 PUSH2 0x2DF DUP3 PUSH2 0x36E JUMP JUMPDEST SWAP2 POP PUSH2 0x2EA DUP4 PUSH2 0x36E JUMP JUMPDEST SWAP3 POP DUP3 PUSH32 0xFFFFFFFFFFFFFFFFFFFFFFFFFFFFFFFFFFFFFFFFFFFFFFFFFFFFFFFFFFFFFFFF SUB DUP3 GT ISZERO PUSH2 0x31F JUMPI PUSH2 0x31E PUSH2 0x378 JUMP JUMPDEST JUMPDEST DUP3 DUP3 ADD SWAP1 POP SWAP3 SWAP2 POP POP JUMP JUMPDEST PUSH1 0x0 PUSH2 0x335 DUP3 PUSH2 0x34E JUMP JUMPDEST SWAP1 POP SWAP2 SWAP1 POP JUMP JUMPDEST PUSH1 0x0 PUSH2 0x347 DUP3 PUSH2 0x34E JUMP JUMPDEST SWAP1 POP SWAP2 SWAP1 POP JUMP JUMPDEST PUSH1 0x0 PUSH20 0xFFFFFFFFFFFFFFFFFFFFFFFFFFFFFFFFFFFFFFFF DUP3 AND SWAP1 POP SWAP2 SWAP1 POP JUMP JUMPDEST PUSH1 0x0 DUP2 SWAP1 POP SWAP2 SWAP1 POP JUMP JUMPDEST PUSH32 0x4E487B7100000000000000000000000000000000000000000000000000000000 PUSH1 0x0 MSTORE PUSH1 0x11 PUSH1 0x4 MSTORE PUSH1 0x24 PUSH1 0x0 REVERT JUMPDEST PUSH1 0x0 DUP1 REVERT JUMPDEST PUSH32 0x596F752063616E6E6F742077697468647261772E000000000000000000000000 PUSH1 0x0 DUP3 ADD MSTORE POP JUMP JUMPDEST PUSH2 0x3DE DUP2 PUSH2 0x33C JUMP JUMPDEST DUP2 EQ PUSH2 0x3E9 JUMPI PUSH1 0x0 DUP1 REVERT JUMPDEST POP JUMP INVALID LOG2 PUSH5 0x6970667358 0x22 SLT KECCAK256 EQ 0xC7 0xC3 0xC3 PUSH13 0xE32D73FB070B809719626CA45B 0xB0 ADDMOD SWAP11 GT 0xD8 0xD9 0x4C RETURNDATACOPY 0x1F 0xEF TIMESTAMP SMOD CREATE2 0x21 PUSH5 0x736F6C6343 STOP ADDMOD SMOD STOP CALLER "
				},
				"gasEstimates": {
					"creation": {
						"codeDepositCost": "211600",
						"executionCost": "24523",
						"totalCost": "236123"
					},
					"external": {
						"myContractBalance()": "2429",
						"owner()": "2533",
						"sendMoney()": "infinite",
						"withdrawAllMoney(address)": "infinite"
					}
				},
				"methodIdentifiers": {
					"myContractBalance()": "2b6dcd77",
					"owner()": "8da5cb5b",
					"sendMoney()": "cbedbf5a",
					"withdrawAllMoney(address)": "0adec93c"
				}
			},
			"storageLayout": {
				"storage": [
					{
						"astId": 3,
						"contract": "StartingStopping.sol:StartStopUpdateExample",
						"label": "owner",
						"offset": 0,
						"slot": "0",
						"type": "t_address"
					},
					{
						"astId": 5,
						"contract": "StartingStopping.sol:StartStopUpdateExample",
						"label": "myContractBalance",
						"offset": 0,
						"slot": "1",
						"type": "t_uint256"
					}
				],
				"types": {
					"t_address": {
						"encoding": "inplace",
						"label": "address",
						"numberOfBytes": "20"
					},
					"t_uint256": {
						"encoding": "inplace",
						"label": "uint256",
						"numberOfBytes": "32"
					}
				}
			},
			"userdoc": {
				"kind": "user",
				"methods": {},
				"version": 1
			}
		}
	}
}