{
	"MyStructExamples2.sol": {
		"MappingsStructExample": {
			"abi": [
				{
					"inputs": [
						{
							"internalType": "address",
							"name": "",
							"type": "address"
						}
					],
					"name": "Member",
					"outputs": [
						{
							"internalType": "uint256",
							"name": "balance",
							"type": "uint256"
						},
						{
							"internalType": "int256",
							"name": "numPayments",
							"type": "int256"
						},
						{
							"internalType": "bool",
							"name": "whitelist",
							"type": "bool"
						}
					],
					"stateMutability": "view",
					"type": "function"
				},
				{
					"inputs": [],
					"name": "getBalance",
					"outputs": [
						{
							"internalType": "uint256",
							"name": "",
							"type": "uint256"
						}
					],
					"stateMutability": "view",
					"type": "function"
				},
				{
					"inputs": [],
					"name": "sendMoney",
					"outputs": [],
					"stateMutability": "payable",
					"type": "function"
				},
				{
					"inputs": [
						{
							"internalType": "address payable",
							"name": "_to",
							"type": "address"
						},
						{
							"internalType": "uint256",
							"name": "_amount",
							"type": "uint256"
						}
					],
					"name": "withdrawMoney",
					"outputs": [],
					"stateMutability": "nonpayable",
					"type": "function"
				}
			],
			"devdoc": {
				"kind": "dev",
				"methods": {},
				"version": 1
			},
			"evm": {
				"assembly": "    /* \"MyStructExamples2.sol\":64:881  contract MappingsStructExample {... */\n  mstore(0x40, 0x80)\n  callvalue\n  dup1\n  iszero\n  tag_1\n  jumpi\n  0x00\n  dup1\n  revert\ntag_1:\n  pop\n  dataSize(sub_0)\n  dup1\n  dataOffset(sub_0)\n  0x00\n  codecopy\n  0x00\n  return\nstop\n\nsub_0: assembly {\n        /* \"MyStructExamples2.sol\":64:881  contract MappingsStructExample {... */\n      mstore(0x40, 0x80)\n      jumpi(tag_1, lt(calldatasize, 0x04))\n      shr(0xe0, calldataload(0x00))\n      dup1\n      0x12065fe0\n      eq\n      tag_2\n      jumpi\n      dup1\n      0x9408aa16\n      eq\n      tag_3\n      jumpi\n      dup1\n      0xcbedbf5a\n      eq\n      tag_4\n      jumpi\n      dup1\n      0xf274c897\n      eq\n      tag_5\n      jumpi\n    tag_1:\n      0x00\n      dup1\n      revert\n        /* \"MyStructExamples2.sol\":302:395  function getBalance() public view returns(uint) {... */\n    tag_2:\n      callvalue\n      dup1\n      iszero\n      tag_6\n      jumpi\n      0x00\n      dup1\n      revert\n    tag_6:\n      pop\n      tag_7\n      tag_8\n      jump\t// in\n    tag_7:\n      mload(0x40)\n      tag_9\n      swap2\n      swap1\n      tag_10\n      jump\t// in\n    tag_9:\n      mload(0x40)\n      dup1\n      swap2\n      sub\n      swap1\n      return\n        /* \"MyStructExamples2.sol\":248:295  mapping(address => MemberDetails) public Member */\n    tag_3:\n      callvalue\n      dup1\n      iszero\n      tag_11\n      jumpi\n      0x00\n      dup1\n      revert\n    tag_11:\n      pop\n      tag_12\n      0x04\n      dup1\n      calldatasize\n      sub\n      dup2\n      add\n      swap1\n      tag_13\n      swap2\n      swap1\n      tag_14\n      jump\t// in\n    tag_13:\n      tag_15\n      jump\t// in\n    tag_12:\n      mload(0x40)\n      tag_16\n      swap4\n      swap3\n      swap2\n      swap1\n      tag_17\n      jump\t// in\n    tag_16:\n      mload(0x40)\n      dup1\n      swap2\n      sub\n      swap1\n      return\n        /* \"MyStructExamples2.sol\":401:606  function sendMoney() public payable {... */\n    tag_4:\n      tag_18\n      tag_19\n      jump\t// in\n    tag_18:\n      stop\n        /* \"MyStructExamples2.sol\":612:879  function withdrawMoney(address payable _to, uint _amount) public {... */\n    tag_5:\n      callvalue\n      dup1\n      iszero\n      tag_20\n      jumpi\n      0x00\n      dup1\n      revert\n    tag_20:\n      pop\n      tag_21\n      0x04\n      dup1\n      calldatasize\n      sub\n      dup2\n      add\n      swap1\n      tag_22\n      swap2\n      swap1\n      tag_23\n      jump\t// in\n    tag_22:\n      tag_24\n      jump\t// in\n    tag_21:\n      stop\n        /* \"MyStructExamples2.sol\":302:395  function getBalance() public view returns(uint) {... */\n    tag_8:\n        /* \"MyStructExamples2.sol\":344:348  uint */\n      0x00\n        /* \"MyStructExamples2.sol\":367:388  address(this).balance */\n      selfbalance\n        /* \"MyStructExamples2.sol\":360:388  return address(this).balance */\n      swap1\n      pop\n        /* \"MyStructExamples2.sol\":302:395  function getBalance() public view returns(uint) {... */\n      swap1\n      jump\t// out\n        /* \"MyStructExamples2.sol\":248:295  mapping(address => MemberDetails) public Member */\n    tag_15:\n      mstore(0x20, 0x00)\n      dup1\n      0x00\n      mstore\n      keccak256(0x00, 0x40)\n      0x00\n      swap2\n      pop\n      swap1\n      pop\n      dup1\n      0x00\n      add\n      sload\n      swap1\n      dup1\n      0x01\n      add\n      sload\n      swap1\n      dup1\n      0x02\n      add\n      0x00\n      swap1\n      sload\n      swap1\n      0x0100\n      exp\n      swap1\n      div\n      0xff\n      and\n      swap1\n      pop\n      dup4\n      jump\t// out\n        /* \"MyStructExamples2.sol\":401:606  function sendMoney() public payable {... */\n    tag_19:\n        /* \"MyStructExamples2.sol\":474:483  msg.value */\n      callvalue\n        /* \"MyStructExamples2.sol\":444:450  Member */\n      0x00\n        /* \"MyStructExamples2.sol\":444:462  Member[msg.sender] */\n      dup1\n        /* \"MyStructExamples2.sol\":451:461  msg.sender */\n      caller\n        /* \"MyStructExamples2.sol\":444:462  Member[msg.sender] */\n      0xffffffffffffffffffffffffffffffffffffffff\n      and\n      0xffffffffffffffffffffffffffffffffffffffff\n      and\n      dup2\n      mstore\n      0x20\n      add\n      swap1\n      dup2\n      mstore\n      0x20\n      add\n      0x00\n      keccak256\n        /* \"MyStructExamples2.sol\":444:470  Member[msg.sender].balance */\n      0x00\n      add\n      0x00\n        /* \"MyStructExamples2.sol\":444:483  Member[msg.sender].balance += msg.value */\n      dup3\n      dup3\n      sload\n      tag_27\n      swap2\n      swap1\n      tag_28\n      jump\t// in\n    tag_27:\n      swap3\n      pop\n      pop\n      dup2\n      swap1\n      sstore\n      pop\n        /* \"MyStructExamples2.sol\":522:523  1 */\n      0x01\n        /* \"MyStructExamples2.sol\":490:496  Member */\n      0x00\n        /* \"MyStructExamples2.sol\":490:508  Member[msg.sender] */\n      dup1\n        /* \"MyStructExamples2.sol\":497:507  msg.sender */\n      caller\n        /* \"MyStructExamples2.sol\":490:508  Member[msg.sender] */\n      0xffffffffffffffffffffffffffffffffffffffff\n      and\n      0xffffffffffffffffffffffffffffffffffffffff\n      and\n      dup2\n      mstore\n      0x20\n      add\n      swap1\n      dup2\n      mstore\n      0x20\n      add\n      0x00\n      keccak256\n        /* \"MyStructExamples2.sol\":490:520  Member[msg.sender].numPayments */\n      0x01\n      add\n      0x00\n        /* \"MyStructExamples2.sol\":490:523  Member[msg.sender].numPayments+=1 */\n      dup3\n      dup3\n      sload\n      tag_29\n      swap2\n      swap1\n      tag_30\n      jump\t// in\n    tag_29:\n      swap3\n      pop\n      pop\n      dup2\n      swap1\n      sstore\n      pop\n        /* \"MyStructExamples2.sol\":590:599  msg.value */\n      callvalue\n        /* \"MyStructExamples2.sol\":530:536  Member */\n      0x00\n        /* \"MyStructExamples2.sol\":530:548  Member[msg.sender] */\n      dup1\n        /* \"MyStructExamples2.sol\":537:547  msg.sender */\n      caller\n        /* \"MyStructExamples2.sol\":530:548  Member[msg.sender] */\n      0xffffffffffffffffffffffffffffffffffffffff\n      and\n      0xffffffffffffffffffffffffffffffffffffffff\n      and\n      dup2\n      mstore\n      0x20\n      add\n      swap1\n      dup2\n      mstore\n      0x20\n      add\n      0x00\n      keccak256\n        /* \"MyStructExamples2.sol\":530:557  Member[msg.sender].payments */\n      0x03\n      add\n        /* \"MyStructExamples2.sol\":530:589  Member[msg.sender].payments[Member[msg.sender].numPayments] */\n      0x00\n        /* \"MyStructExamples2.sol\":558:564  Member */\n      dup1\n        /* \"MyStructExamples2.sol\":558:576  Member[msg.sender] */\n      0x00\n        /* \"MyStructExamples2.sol\":565:575  msg.sender */\n      caller\n        /* \"MyStructExamples2.sol\":558:576  Member[msg.sender] */\n      0xffffffffffffffffffffffffffffffffffffffff\n      and\n      0xffffffffffffffffffffffffffffffffffffffff\n      and\n      dup2\n      mstore\n      0x20\n      add\n      swap1\n      dup2\n      mstore\n      0x20\n      add\n      0x00\n      keccak256\n        /* \"MyStructExamples2.sol\":558:588  Member[msg.sender].numPayments */\n      0x01\n      add\n      sload\n        /* \"MyStructExamples2.sol\":530:589  Member[msg.sender].payments[Member[msg.sender].numPayments] */\n      dup2\n      mstore\n      0x20\n      add\n      swap1\n      dup2\n      mstore\n      0x20\n      add\n      0x00\n      keccak256\n        /* \"MyStructExamples2.sol\":530:599  Member[msg.sender].payments[Member[msg.sender].numPayments]=msg.value */\n      dup2\n      swap1\n      sstore\n      pop\n        /* \"MyStructExamples2.sol\":401:606  function sendMoney() public payable {... */\n      jump\t// out\n        /* \"MyStructExamples2.sol\":612:879  function withdrawMoney(address payable _to, uint _amount) public {... */\n    tag_24:\n        /* \"MyStructExamples2.sol\":725:732  _amount */\n      dup1\n        /* \"MyStructExamples2.sol\":695:701  Member */\n      0x00\n        /* \"MyStructExamples2.sol\":695:713  Member[msg.sender] */\n      dup1\n        /* \"MyStructExamples2.sol\":702:712  msg.sender */\n      caller\n        /* \"MyStructExamples2.sol\":695:713  Member[msg.sender] */\n      0xffffffffffffffffffffffffffffffffffffffff\n      and\n      0xffffffffffffffffffffffffffffffffffffffff\n      and\n      dup2\n      mstore\n      0x20\n      add\n      swap1\n      dup2\n      mstore\n      0x20\n      add\n      0x00\n      keccak256\n        /* \"MyStructExamples2.sol\":695:721  Member[msg.sender].balance */\n      0x00\n      add\n      sload\n        /* \"MyStructExamples2.sol\":695:732  Member[msg.sender].balance >= _amount */\n      lt\n      iszero\n        /* \"MyStructExamples2.sol\":687:752  require(Member[msg.sender].balance >= _amount,\"Not enough funds\") */\n      tag_32\n      jumpi\n      mload(0x40)\n      0x08c379a000000000000000000000000000000000000000000000000000000000\n      dup2\n      mstore\n      0x04\n      add\n      tag_33\n      swap1\n      tag_34\n      jump\t// in\n    tag_33:\n      mload(0x40)\n      dup1\n      swap2\n      sub\n      swap1\n      revert\n    tag_32:\n        /* \"MyStructExamples2.sol\":762:780  uint BalanceToSend */\n      0x00\n        /* \"MyStructExamples2.sol\":781:788  _amount */\n      dup2\n        /* \"MyStructExamples2.sol\":762:788  uint BalanceToSend=_amount */\n      swap1\n      pop\n        /* \"MyStructExamples2.sol\":828:835  _amount */\n      dup2\n        /* \"MyStructExamples2.sol\":798:804  Member */\n      0x00\n        /* \"MyStructExamples2.sol\":798:816  Member[msg.sender] */\n      dup1\n        /* \"MyStructExamples2.sol\":805:815  msg.sender */\n      caller\n        /* \"MyStructExamples2.sol\":798:816  Member[msg.sender] */\n      0xffffffffffffffffffffffffffffffffffffffff\n      and\n      0xffffffffffffffffffffffffffffffffffffffff\n      and\n      dup2\n      mstore\n      0x20\n      add\n      swap1\n      dup2\n      mstore\n      0x20\n      add\n      0x00\n      keccak256\n        /* \"MyStructExamples2.sol\":798:824  Member[msg.sender].balance */\n      0x00\n      add\n      0x00\n        /* \"MyStructExamples2.sol\":798:835  Member[msg.sender].balance -= _amount */\n      dup3\n      dup3\n      sload\n      tag_35\n      swap2\n      swap1\n      tag_36\n      jump\t// in\n    tag_35:\n      swap3\n      pop\n      pop\n      dup2\n      swap1\n      sstore\n      pop\n        /* \"MyStructExamples2.sol\":845:848  _to */\n      dup3\n        /* \"MyStructExamples2.sol\":845:857  _to.transfer */\n      0xffffffffffffffffffffffffffffffffffffffff\n      and\n        /* \"MyStructExamples2.sol\":845:872  _to.transfer(BalanceToSend) */\n      0x08fc\n        /* \"MyStructExamples2.sol\":858:871  BalanceToSend */\n      dup3\n        /* \"MyStructExamples2.sol\":845:872  _to.transfer(BalanceToSend) */\n      swap1\n      dup2\n      iszero\n      mul\n      swap1\n      mload(0x40)\n      0x00\n      mload(0x40)\n      dup1\n      dup4\n      sub\n      dup2\n      dup6\n      dup9\n      dup9\n      call\n      swap4\n      pop\n      pop\n      pop\n      pop\n      iszero\n      dup1\n      iszero\n      tag_38\n      jumpi\n      returndatasize\n      0x00\n      dup1\n      returndatacopy\n      revert(0x00, returndatasize)\n    tag_38:\n      pop\n        /* \"MyStructExamples2.sol\":677:879  {... */\n      pop\n        /* \"MyStructExamples2.sol\":612:879  function withdrawMoney(address payable _to, uint _amount) public {... */\n      pop\n      pop\n      jump\t// out\n        /* \"#utility.yul\":7:146   */\n    tag_40:\n        /* \"#utility.yul\":53:58   */\n      0x00\n        /* \"#utility.yul\":91:97   */\n      dup2\n        /* \"#utility.yul\":78:98   */\n      calldataload\n        /* \"#utility.yul\":69:98   */\n      swap1\n      pop\n        /* \"#utility.yul\":107:140   */\n      tag_42\n        /* \"#utility.yul\":134:139   */\n      dup2\n        /* \"#utility.yul\":107:140   */\n      tag_43\n      jump\t// in\n    tag_42:\n        /* \"#utility.yul\":7:146   */\n      swap3\n      swap2\n      pop\n      pop\n      jump\t// out\n        /* \"#utility.yul\":152:307   */\n    tag_44:\n        /* \"#utility.yul\":206:211   */\n      0x00\n        /* \"#utility.yul\":244:250   */\n      dup2\n        /* \"#utility.yul\":231:251   */\n      calldataload\n        /* \"#utility.yul\":222:251   */\n      swap1\n      pop\n        /* \"#utility.yul\":260:301   */\n      tag_46\n        /* \"#utility.yul\":295:300   */\n      dup2\n        /* \"#utility.yul\":260:301   */\n      tag_47\n      jump\t// in\n    tag_46:\n        /* \"#utility.yul\":152:307   */\n      swap3\n      swap2\n      pop\n      pop\n      jump\t// out\n        /* \"#utility.yul\":313:452   */\n    tag_48:\n        /* \"#utility.yul\":359:364   */\n      0x00\n        /* \"#utility.yul\":397:403   */\n      dup2\n        /* \"#utility.yul\":384:404   */\n      calldataload\n        /* \"#utility.yul\":375:404   */\n      swap1\n      pop\n        /* \"#utility.yul\":413:446   */\n      tag_50\n        /* \"#utility.yul\":440:445   */\n      dup2\n        /* \"#utility.yul\":413:446   */\n      tag_51\n      jump\t// in\n    tag_50:\n        /* \"#utility.yul\":313:452   */\n      swap3\n      swap2\n      pop\n      pop\n      jump\t// out\n        /* \"#utility.yul\":458:787   */\n    tag_14:\n        /* \"#utility.yul\":517:523   */\n      0x00\n        /* \"#utility.yul\":566:568   */\n      0x20\n        /* \"#utility.yul\":554:563   */\n      dup3\n        /* \"#utility.yul\":545:552   */\n      dup5\n        /* \"#utility.yul\":541:564   */\n      sub\n        /* \"#utility.yul\":537:569   */\n      slt\n        /* \"#utility.yul\":534:653   */\n      iszero\n      tag_53\n      jumpi\n        /* \"#utility.yul\":572:651   */\n      tag_54\n      tag_55\n      jump\t// in\n    tag_54:\n        /* \"#utility.yul\":534:653   */\n    tag_53:\n        /* \"#utility.yul\":692:693   */\n      0x00\n        /* \"#utility.yul\":717:770   */\n      tag_56\n        /* \"#utility.yul\":762:769   */\n      dup5\n        /* \"#utility.yul\":753:759   */\n      dup3\n        /* \"#utility.yul\":742:751   */\n      dup6\n        /* \"#utility.yul\":738:760   */\n      add\n        /* \"#utility.yul\":717:770   */\n      tag_40\n      jump\t// in\n    tag_56:\n        /* \"#utility.yul\":707:770   */\n      swap2\n      pop\n        /* \"#utility.yul\":663:780   */\n      pop\n        /* \"#utility.yul\":458:787   */\n      swap3\n      swap2\n      pop\n      pop\n      jump\t// out\n        /* \"#utility.yul\":793:1283   */\n    tag_23:\n        /* \"#utility.yul\":869:875   */\n      0x00\n        /* \"#utility.yul\":877:883   */\n      dup1\n        /* \"#utility.yul\":926:928   */\n      0x40\n        /* \"#utility.yul\":914:923   */\n      dup4\n        /* \"#utility.yul\":905:912   */\n      dup6\n        /* \"#utility.yul\":901:924   */\n      sub\n        /* \"#utility.yul\":897:929   */\n      slt\n        /* \"#utility.yul\":894:1013   */\n      iszero\n      tag_58\n      jumpi\n        /* \"#utility.yul\":932:1011   */\n      tag_59\n      tag_55\n      jump\t// in\n    tag_59:\n        /* \"#utility.yul\":894:1013   */\n    tag_58:\n        /* \"#utility.yul\":1052:1053   */\n      0x00\n        /* \"#utility.yul\":1077:1138   */\n      tag_60\n        /* \"#utility.yul\":1130:1137   */\n      dup6\n        /* \"#utility.yul\":1121:1127   */\n      dup3\n        /* \"#utility.yul\":1110:1119   */\n      dup7\n        /* \"#utility.yul\":1106:1128   */\n      add\n        /* \"#utility.yul\":1077:1138   */\n      tag_44\n      jump\t// in\n    tag_60:\n        /* \"#utility.yul\":1067:1138   */\n      swap3\n      pop\n        /* \"#utility.yul\":1023:1148   */\n      pop\n        /* \"#utility.yul\":1187:1189   */\n      0x20\n        /* \"#utility.yul\":1213:1266   */\n      tag_61\n        /* \"#utility.yul\":1258:1265   */\n      dup6\n        /* \"#utility.yul\":1249:1255   */\n      dup3\n        /* \"#utility.yul\":1238:1247   */\n      dup7\n        /* \"#utility.yul\":1234:1256   */\n      add\n        /* \"#utility.yul\":1213:1266   */\n      tag_48\n      jump\t// in\n    tag_61:\n        /* \"#utility.yul\":1203:1266   */\n      swap2\n      pop\n        /* \"#utility.yul\":1158:1276   */\n      pop\n        /* \"#utility.yul\":793:1283   */\n      swap3\n      pop\n      swap3\n      swap1\n      pop\n      jump\t// out\n        /* \"#utility.yul\":1289:1398   */\n    tag_62:\n        /* \"#utility.yul\":1370:1391   */\n      tag_64\n        /* \"#utility.yul\":1385:1390   */\n      dup2\n        /* \"#utility.yul\":1370:1391   */\n      tag_65\n      jump\t// in\n    tag_64:\n        /* \"#utility.yul\":1365:1368   */\n      dup3\n        /* \"#utility.yul\":1358:1392   */\n      mstore\n        /* \"#utility.yul\":1289:1398   */\n      pop\n      pop\n      jump\t// out\n        /* \"#utility.yul\":1404:1519   */\n    tag_66:\n        /* \"#utility.yul\":1489:1512   */\n      tag_68\n        /* \"#utility.yul\":1506:1511   */\n      dup2\n        /* \"#utility.yul\":1489:1512   */\n      tag_69\n      jump\t// in\n    tag_68:\n        /* \"#utility.yul\":1484:1487   */\n      dup3\n        /* \"#utility.yul\":1477:1513   */\n      mstore\n        /* \"#utility.yul\":1404:1519   */\n      pop\n      pop\n      jump\t// out\n        /* \"#utility.yul\":1525:1891   */\n    tag_70:\n        /* \"#utility.yul\":1667:1670   */\n      0x00\n        /* \"#utility.yul\":1688:1755   */\n      tag_72\n        /* \"#utility.yul\":1752:1754   */\n      0x10\n        /* \"#utility.yul\":1747:1750   */\n      dup4\n        /* \"#utility.yul\":1688:1755   */\n      tag_73\n      jump\t// in\n    tag_72:\n        /* \"#utility.yul\":1681:1755   */\n      swap2\n      pop\n        /* \"#utility.yul\":1764:1857   */\n      tag_74\n        /* \"#utility.yul\":1853:1856   */\n      dup3\n        /* \"#utility.yul\":1764:1857   */\n      tag_75\n      jump\t// in\n    tag_74:\n        /* \"#utility.yul\":1882:1884   */\n      0x20\n        /* \"#utility.yul\":1877:1880   */\n      dup3\n        /* \"#utility.yul\":1873:1885   */\n      add\n        /* \"#utility.yul\":1866:1885   */\n      swap1\n      pop\n        /* \"#utility.yul\":1525:1891   */\n      swap2\n      swap1\n      pop\n      jump\t// out\n        /* \"#utility.yul\":1897:2015   */\n    tag_76:\n        /* \"#utility.yul\":1984:2008   */\n      tag_78\n        /* \"#utility.yul\":2002:2007   */\n      dup2\n        /* \"#utility.yul\":1984:2008   */\n      tag_79\n      jump\t// in\n    tag_78:\n        /* \"#utility.yul\":1979:1982   */\n      dup3\n        /* \"#utility.yul\":1972:2009   */\n      mstore\n        /* \"#utility.yul\":1897:2015   */\n      pop\n      pop\n      jump\t// out\n        /* \"#utility.yul\":2021:2440   */\n    tag_34:\n        /* \"#utility.yul\":2187:2191   */\n      0x00\n        /* \"#utility.yul\":2225:2227   */\n      0x20\n        /* \"#utility.yul\":2214:2223   */\n      dup3\n        /* \"#utility.yul\":2210:2228   */\n      add\n        /* \"#utility.yul\":2202:2228   */\n      swap1\n      pop\n        /* \"#utility.yul\":2274:2283   */\n      dup2\n        /* \"#utility.yul\":2268:2272   */\n      dup2\n        /* \"#utility.yul\":2264:2284   */\n      sub\n        /* \"#utility.yul\":2260:2261   */\n      0x00\n        /* \"#utility.yul\":2249:2258   */\n      dup4\n        /* \"#utility.yul\":2245:2262   */\n      add\n        /* \"#utility.yul\":2238:2285   */\n      mstore\n        /* \"#utility.yul\":2302:2433   */\n      tag_81\n        /* \"#utility.yul\":2428:2432   */\n      dup2\n        /* \"#utility.yul\":2302:2433   */\n      tag_70\n      jump\t// in\n    tag_81:\n        /* \"#utility.yul\":2294:2433   */\n      swap1\n      pop\n        /* \"#utility.yul\":2021:2440   */\n      swap2\n      swap1\n      pop\n      jump\t// out\n        /* \"#utility.yul\":2446:2668   */\n    tag_10:\n        /* \"#utility.yul\":2539:2543   */\n      0x00\n        /* \"#utility.yul\":2577:2579   */\n      0x20\n        /* \"#utility.yul\":2566:2575   */\n      dup3\n        /* \"#utility.yul\":2562:2580   */\n      add\n        /* \"#utility.yul\":2554:2580   */\n      swap1\n      pop\n        /* \"#utility.yul\":2590:2661   */\n      tag_83\n        /* \"#utility.yul\":2658:2659   */\n      0x00\n        /* \"#utility.yul\":2647:2656   */\n      dup4\n        /* \"#utility.yul\":2643:2660   */\n      add\n        /* \"#utility.yul\":2634:2640   */\n      dup5\n        /* \"#utility.yul\":2590:2661   */\n      tag_76\n      jump\t// in\n    tag_83:\n        /* \"#utility.yul\":2446:2668   */\n      swap3\n      swap2\n      pop\n      pop\n      jump\t// out\n        /* \"#utility.yul\":2674:3100   */\n    tag_17:\n        /* \"#utility.yul\":2815:2819   */\n      0x00\n        /* \"#utility.yul\":2853:2855   */\n      0x60\n        /* \"#utility.yul\":2842:2851   */\n      dup3\n        /* \"#utility.yul\":2838:2856   */\n      add\n        /* \"#utility.yul\":2830:2856   */\n      swap1\n      pop\n        /* \"#utility.yul\":2866:2937   */\n      tag_85\n        /* \"#utility.yul\":2934:2935   */\n      0x00\n        /* \"#utility.yul\":2923:2932   */\n      dup4\n        /* \"#utility.yul\":2919:2936   */\n      add\n        /* \"#utility.yul\":2910:2916   */\n      dup7\n        /* \"#utility.yul\":2866:2937   */\n      tag_76\n      jump\t// in\n    tag_85:\n        /* \"#utility.yul\":2947:3017   */\n      tag_86\n        /* \"#utility.yul\":3013:3015   */\n      0x20\n        /* \"#utility.yul\":3002:3011   */\n      dup4\n        /* \"#utility.yul\":2998:3016   */\n      add\n        /* \"#utility.yul\":2989:2995   */\n      dup6\n        /* \"#utility.yul\":2947:3017   */\n      tag_66\n      jump\t// in\n    tag_86:\n        /* \"#utility.yul\":3027:3093   */\n      tag_87\n        /* \"#utility.yul\":3089:3091   */\n      0x40\n        /* \"#utility.yul\":3078:3087   */\n      dup4\n        /* \"#utility.yul\":3074:3092   */\n      add\n        /* \"#utility.yul\":3065:3071   */\n      dup5\n        /* \"#utility.yul\":3027:3093   */\n      tag_62\n      jump\t// in\n    tag_87:\n        /* \"#utility.yul\":2674:3100   */\n      swap5\n      swap4\n      pop\n      pop\n      pop\n      pop\n      jump\t// out\n        /* \"#utility.yul\":3187:3356   */\n    tag_73:\n        /* \"#utility.yul\":3271:3282   */\n      0x00\n        /* \"#utility.yul\":3305:3311   */\n      dup3\n        /* \"#utility.yul\":3300:3303   */\n      dup3\n        /* \"#utility.yul\":3293:3312   */\n      mstore\n        /* \"#utility.yul\":3345:3349   */\n      0x20\n        /* \"#utility.yul\":3340:3343   */\n      dup3\n        /* \"#utility.yul\":3336:3350   */\n      add\n        /* \"#utility.yul\":3321:3350   */\n      swap1\n      pop\n        /* \"#utility.yul\":3187:3356   */\n      swap3\n      swap2\n      pop\n      pop\n      jump\t// out\n        /* \"#utility.yul\":3362:3887   */\n    tag_30:\n        /* \"#utility.yul\":3401:3404   */\n      0x00\n        /* \"#utility.yul\":3420:3439   */\n      tag_92\n        /* \"#utility.yul\":3437:3438   */\n      dup3\n        /* \"#utility.yul\":3420:3439   */\n      tag_69\n      jump\t// in\n    tag_92:\n        /* \"#utility.yul\":3415:3439   */\n      swap2\n      pop\n        /* \"#utility.yul\":3453:3472   */\n      tag_93\n        /* \"#utility.yul\":3470:3471   */\n      dup4\n        /* \"#utility.yul\":3453:3472   */\n      tag_69\n      jump\t// in\n    tag_93:\n        /* \"#utility.yul\":3448:3472   */\n      swap3\n      pop\n        /* \"#utility.yul\":3641:3642   */\n      dup2\n        /* \"#utility.yul\":3573:3639   */\n      0x7fffffffffffffffffffffffffffffffffffffffffffffffffffffffffffffff\n        /* \"#utility.yul\":3569:3643   */\n      sub\n        /* \"#utility.yul\":3566:3567   */\n      dup4\n        /* \"#utility.yul\":3562:3644   */\n      sgt\n        /* \"#utility.yul\":3557:3558   */\n      0x00\n        /* \"#utility.yul\":3554:3555   */\n      dup4\n        /* \"#utility.yul\":3550:3559   */\n      slt\n        /* \"#utility.yul\":3543:3560   */\n      iszero\n        /* \"#utility.yul\":3539:3645   */\n      and\n        /* \"#utility.yul\":3536:3668   */\n      iszero\n      tag_94\n      jumpi\n        /* \"#utility.yul\":3648:3666   */\n      tag_95\n      tag_96\n      jump\t// in\n    tag_95:\n        /* \"#utility.yul\":3536:3668   */\n    tag_94:\n        /* \"#utility.yul\":3828:3829   */\n      dup2\n        /* \"#utility.yul\":3760:3826   */\n      0x8000000000000000000000000000000000000000000000000000000000000000\n        /* \"#utility.yul\":3756:3830   */\n      sub\n        /* \"#utility.yul\":3753:3754   */\n      dup4\n        /* \"#utility.yul\":3749:3831   */\n      slt\n        /* \"#utility.yul\":3745:3746   */\n      0x00\n        /* \"#utility.yul\":3742:3743   */\n      dup4\n        /* \"#utility.yul\":3738:3747   */\n      slt\n        /* \"#utility.yul\":3734:3832   */\n      and\n        /* \"#utility.yul\":3731:3855   */\n      iszero\n      tag_97\n      jumpi\n        /* \"#utility.yul\":3835:3853   */\n      tag_98\n      tag_96\n      jump\t// in\n    tag_98:\n        /* \"#utility.yul\":3731:3855   */\n    tag_97:\n        /* \"#utility.yul\":3879:3880   */\n      dup3\n        /* \"#utility.yul\":3876:3877   */\n      dup3\n        /* \"#utility.yul\":3872:3881   */\n      add\n        /* \"#utility.yul\":3865:3881   */\n      swap1\n      pop\n        /* \"#utility.yul\":3362:3887   */\n      swap3\n      swap2\n      pop\n      pop\n      jump\t// out\n        /* \"#utility.yul\":3893:4198   */\n    tag_28:\n        /* \"#utility.yul\":3933:3936   */\n      0x00\n        /* \"#utility.yul\":3952:3972   */\n      tag_100\n        /* \"#utility.yul\":3970:3971   */\n      dup3\n        /* \"#utility.yul\":3952:3972   */\n      tag_79\n      jump\t// in\n    tag_100:\n        /* \"#utility.yul\":3947:3972   */\n      swap2\n      pop\n        /* \"#utility.yul\":3986:4006   */\n      tag_101\n        /* \"#utility.yul\":4004:4005   */\n      dup4\n        /* \"#utility.yul\":3986:4006   */\n      tag_79\n      jump\t// in\n    tag_101:\n        /* \"#utility.yul\":3981:4006   */\n      swap3\n      pop\n        /* \"#utility.yul\":4140:4141   */\n      dup3\n        /* \"#utility.yul\":4072:4138   */\n      0xffffffffffffffffffffffffffffffffffffffffffffffffffffffffffffffff\n        /* \"#utility.yul\":4068:4142   */\n      sub\n        /* \"#utility.yul\":4065:4066   */\n      dup3\n        /* \"#utility.yul\":4062:4143   */\n      gt\n        /* \"#utility.yul\":4059:4166   */\n      iszero\n      tag_102\n      jumpi\n        /* \"#utility.yul\":4146:4164   */\n      tag_103\n      tag_96\n      jump\t// in\n    tag_103:\n        /* \"#utility.yul\":4059:4166   */\n    tag_102:\n        /* \"#utility.yul\":4190:4191   */\n      dup3\n        /* \"#utility.yul\":4187:4188   */\n      dup3\n        /* \"#utility.yul\":4183:4192   */\n      add\n        /* \"#utility.yul\":4176:4192   */\n      swap1\n      pop\n        /* \"#utility.yul\":3893:4198   */\n      swap3\n      swap2\n      pop\n      pop\n      jump\t// out\n        /* \"#utility.yul\":4204:4395   */\n    tag_36:\n        /* \"#utility.yul\":4244:4248   */\n      0x00\n        /* \"#utility.yul\":4264:4284   */\n      tag_105\n        /* \"#utility.yul\":4282:4283   */\n      dup3\n        /* \"#utility.yul\":4264:4284   */\n      tag_79\n      jump\t// in\n    tag_105:\n        /* \"#utility.yul\":4259:4284   */\n      swap2\n      pop\n        /* \"#utility.yul\":4298:4318   */\n      tag_106\n        /* \"#utility.yul\":4316:4317   */\n      dup4\n        /* \"#utility.yul\":4298:4318   */\n      tag_79\n      jump\t// in\n    tag_106:\n        /* \"#utility.yul\":4293:4318   */\n      swap3\n      pop\n        /* \"#utility.yul\":4337:4338   */\n      dup3\n        /* \"#utility.yul\":4334:4335   */\n      dup3\n        /* \"#utility.yul\":4331:4339   */\n      lt\n        /* \"#utility.yul\":4328:4362   */\n      iszero\n      tag_107\n      jumpi\n        /* \"#utility.yul\":4342:4360   */\n      tag_108\n      tag_96\n      jump\t// in\n    tag_108:\n        /* \"#utility.yul\":4328:4362   */\n    tag_107:\n        /* \"#utility.yul\":4387:4388   */\n      dup3\n        /* \"#utility.yul\":4384:4385   */\n      dup3\n        /* \"#utility.yul\":4380:4389   */\n      sub\n        /* \"#utility.yul\":4372:4389   */\n      swap1\n      pop\n        /* \"#utility.yul\":4204:4395   */\n      swap3\n      swap2\n      pop\n      pop\n      jump\t// out\n        /* \"#utility.yul\":4401:4497   */\n    tag_109:\n        /* \"#utility.yul\":4438:4445   */\n      0x00\n        /* \"#utility.yul\":4467:4491   */\n      tag_111\n        /* \"#utility.yul\":4485:4490   */\n      dup3\n        /* \"#utility.yul\":4467:4491   */\n      tag_112\n      jump\t// in\n    tag_111:\n        /* \"#utility.yul\":4456:4491   */\n      swap1\n      pop\n        /* \"#utility.yul\":4401:4497   */\n      swap2\n      swap1\n      pop\n      jump\t// out\n        /* \"#utility.yul\":4503:4607   */\n    tag_113:\n        /* \"#utility.yul\":4548:4555   */\n      0x00\n        /* \"#utility.yul\":4577:4601   */\n      tag_115\n        /* \"#utility.yul\":4595:4600   */\n      dup3\n        /* \"#utility.yul\":4577:4601   */\n      tag_112\n      jump\t// in\n    tag_115:\n        /* \"#utility.yul\":4566:4601   */\n      swap1\n      pop\n        /* \"#utility.yul\":4503:4607   */\n      swap2\n      swap1\n      pop\n      jump\t// out\n        /* \"#utility.yul\":4613:4703   */\n    tag_65:\n        /* \"#utility.yul\":4647:4654   */\n      0x00\n        /* \"#utility.yul\":4690:4695   */\n      dup2\n        /* \"#utility.yul\":4683:4696   */\n      iszero\n        /* \"#utility.yul\":4676:4697   */\n      iszero\n        /* \"#utility.yul\":4665:4697   */\n      swap1\n      pop\n        /* \"#utility.yul\":4613:4703   */\n      swap2\n      swap1\n      pop\n      jump\t// out\n        /* \"#utility.yul\":4709:4785   */\n    tag_69:\n        /* \"#utility.yul\":4745:4752   */\n      0x00\n        /* \"#utility.yul\":4774:4779   */\n      dup2\n        /* \"#utility.yul\":4763:4779   */\n      swap1\n      pop\n        /* \"#utility.yul\":4709:4785   */\n      swap2\n      swap1\n      pop\n      jump\t// out\n        /* \"#utility.yul\":4791:4917   */\n    tag_112:\n        /* \"#utility.yul\":4828:4835   */\n      0x00\n        /* \"#utility.yul\":4868:4910   */\n      0xffffffffffffffffffffffffffffffffffffffff\n        /* \"#utility.yul\":4861:4866   */\n      dup3\n        /* \"#utility.yul\":4857:4911   */\n      and\n        /* \"#utility.yul\":4846:4911   */\n      swap1\n      pop\n        /* \"#utility.yul\":4791:4917   */\n      swap2\n      swap1\n      pop\n      jump\t// out\n        /* \"#utility.yul\":4923:5000   */\n    tag_79:\n        /* \"#utility.yul\":4960:4967   */\n      0x00\n        /* \"#utility.yul\":4989:4994   */\n      dup2\n        /* \"#utility.yul\":4978:4994   */\n      swap1\n      pop\n        /* \"#utility.yul\":4923:5000   */\n      swap2\n      swap1\n      pop\n      jump\t// out\n        /* \"#utility.yul\":5006:5186   */\n    tag_96:\n        /* \"#utility.yul\":5054:5131   */\n      0x4e487b7100000000000000000000000000000000000000000000000000000000\n        /* \"#utility.yul\":5051:5052   */\n      0x00\n        /* \"#utility.yul\":5044:5132   */\n      mstore\n        /* \"#utility.yul\":5151:5155   */\n      0x11\n        /* \"#utility.yul\":5148:5149   */\n      0x04\n        /* \"#utility.yul\":5141:5156   */\n      mstore\n        /* \"#utility.yul\":5175:5179   */\n      0x24\n        /* \"#utility.yul\":5172:5173   */\n      0x00\n        /* \"#utility.yul\":5165:5180   */\n      revert\n        /* \"#utility.yul\":5315:5432   */\n    tag_55:\n        /* \"#utility.yul\":5424:5425   */\n      0x00\n        /* \"#utility.yul\":5421:5422   */\n      dup1\n        /* \"#utility.yul\":5414:5426   */\n      revert\n        /* \"#utility.yul\":5438:5604   */\n    tag_75:\n        /* \"#utility.yul\":5578:5596   */\n      0x4e6f7420656e6f7567682066756e647300000000000000000000000000000000\n        /* \"#utility.yul\":5574:5575   */\n      0x00\n        /* \"#utility.yul\":5566:5572   */\n      dup3\n        /* \"#utility.yul\":5562:5576   */\n      add\n        /* \"#utility.yul\":5555:5597   */\n      mstore\n        /* \"#utility.yul\":5438:5604   */\n      pop\n      jump\t// out\n        /* \"#utility.yul\":5610:5732   */\n    tag_43:\n        /* \"#utility.yul\":5683:5707   */\n      tag_126\n        /* \"#utility.yul\":5701:5706   */\n      dup2\n        /* \"#utility.yul\":5683:5707   */\n      tag_109\n      jump\t// in\n    tag_126:\n        /* \"#utility.yul\":5676:5681   */\n      dup2\n        /* \"#utility.yul\":5673:5708   */\n      eq\n        /* \"#utility.yul\":5663:5726   */\n      tag_127\n      jumpi\n        /* \"#utility.yul\":5722:5723   */\n      0x00\n        /* \"#utility.yul\":5719:5720   */\n      dup1\n        /* \"#utility.yul\":5712:5724   */\n      revert\n        /* \"#utility.yul\":5663:5726   */\n    tag_127:\n        /* \"#utility.yul\":5610:5732   */\n      pop\n      jump\t// out\n        /* \"#utility.yul\":5738:5876   */\n    tag_47:\n        /* \"#utility.yul\":5819:5851   */\n      tag_129\n        /* \"#utility.yul\":5845:5850   */\n      dup2\n        /* \"#utility.yul\":5819:5851   */\n      tag_113\n      jump\t// in\n    tag_129:\n        /* \"#utility.yul\":5812:5817   */\n      dup2\n        /* \"#utility.yul\":5809:5852   */\n      eq\n        /* \"#utility.yul\":5799:5870   */\n      tag_130\n      jumpi\n        /* \"#utility.yul\":5866:5867   */\n      0x00\n        /* \"#utility.yul\":5863:5864   */\n      dup1\n        /* \"#utility.yul\":5856:5868   */\n      revert\n        /* \"#utility.yul\":5799:5870   */\n    tag_130:\n        /* \"#utility.yul\":5738:5876   */\n      pop\n      jump\t// out\n        /* \"#utility.yul\":5882:6004   */\n    tag_51:\n        /* \"#utility.yul\":5955:5979   */\n      tag_132\n        /* \"#utility.yul\":5973:5978   */\n      dup2\n        /* \"#utility.yul\":5955:5979   */\n      tag_79\n      jump\t// in\n    tag_132:\n        /* \"#utility.yul\":5948:5953   */\n      dup2\n        /* \"#utility.yul\":5945:5980   */\n      eq\n        /* \"#utility.yul\":5935:5998   */\n      tag_133\n      jumpi\n        /* \"#utility.yul\":5994:5995   */\n      0x00\n        /* \"#utility.yul\":5991:5992   */\n      dup1\n        /* \"#utility.yul\":5984:5996   */\n      revert\n        /* \"#utility.yul\":5935:5998   */\n    tag_133:\n        /* \"#utility.yul\":5882:6004   */\n      pop\n      jump\t// out\n\n    auxdata: 0xa2646970667358221220e01fe676da846f37e57be87d47877d40f7f03c433f3b9b4891b58f1b874e0fcc64736f6c63430008070033\n}\n",
				"bytecode": {
					"linkReferences": {},
					"object": "608060405234801561001057600080fd5b50610771806100206000396000f3fe60806040526004361061003f5760003560e01c806312065fe0146100445780639408aa161461006f578063cbedbf5a146100ae578063f274c897146100b8575b600080fd5b34801561005057600080fd5b506100596100e1565b60405161006691906104b4565b60405180910390f35b34801561007b57600080fd5b50610096600480360381019061009191906103d7565b6100e9565b6040516100a5939291906104cf565b60405180910390f35b6100b6610120565b005b3480156100c457600080fd5b506100df60048036038101906100da9190610404565b61026b565b005b600047905090565b60006020528060005260406000206000915090508060000154908060010154908060020160009054906101000a900460ff16905083565b346000803373ffffffffffffffffffffffffffffffffffffffff1673ffffffffffffffffffffffffffffffffffffffff168152602001908152602001600020600001600082825461017191906105ab565b9250508190555060016000803373ffffffffffffffffffffffffffffffffffffffff1673ffffffffffffffffffffffffffffffffffffffff16815260200190815260200160002060010160008282546101ca9190610517565b92505081905550346000803373ffffffffffffffffffffffffffffffffffffffff1673ffffffffffffffffffffffffffffffffffffffff16815260200190815260200160002060030160008060003373ffffffffffffffffffffffffffffffffffffffff1673ffffffffffffffffffffffffffffffffffffffff16815260200190815260200160002060010154815260200190815260200160002081905550565b806000803373ffffffffffffffffffffffffffffffffffffffff1673ffffffffffffffffffffffffffffffffffffffff1681526020019081526020016000206000015410156102ef576040517f08c379a00000000000000000000000000000000000000000000000000000000081526004016102e690610494565b60405180910390fd5b6000819050816000803373ffffffffffffffffffffffffffffffffffffffff1673ffffffffffffffffffffffffffffffffffffffff16815260200190815260200160002060000160008282546103459190610601565b925050819055508273ffffffffffffffffffffffffffffffffffffffff166108fc829081150290604051600060405180830381858888f19350505050158015610392573d6000803e3d6000fd5b50505050565b6000813590506103a7816106f6565b92915050565b6000813590506103bc8161070d565b92915050565b6000813590506103d181610724565b92915050565b6000602082840312156103ed576103ec6106c8565b5b60006103fb84828501610398565b91505092915050565b6000806040838503121561041b5761041a6106c8565b5b6000610429858286016103ad565b925050602061043a858286016103c2565b9150509250929050565b61044d81610659565b82525050565b61045c81610665565b82525050565b600061046f601083610506565b915061047a826106cd565b602082019050919050565b61048e8161068f565b82525050565b600060208201905081810360008301526104ad81610462565b9050919050565b60006020820190506104c96000830184610485565b92915050565b60006060820190506104e46000830186610485565b6104f16020830185610453565b6104fe6040830184610444565b949350505050565b600082825260208201905092915050565b600061052282610665565b915061052d83610665565b9250817f7fffffffffffffffffffffffffffffffffffffffffffffffffffffffffffffff0383136000831215161561056857610567610699565b5b817f80000000000000000000000000000000000000000000000000000000000000000383126000831216156105a05761059f610699565b5b828201905092915050565b60006105b68261068f565b91506105c18361068f565b9250827fffffffffffffffffffffffffffffffffffffffffffffffffffffffffffffffff038211156105f6576105f5610699565b5b828201905092915050565b600061060c8261068f565b91506106178361068f565b92508282101561062a57610629610699565b5b828203905092915050565b60006106408261066f565b9050919050565b60006106528261066f565b9050919050565b60008115159050919050565b6000819050919050565b600073ffffffffffffffffffffffffffffffffffffffff82169050919050565b6000819050919050565b7f4e487b7100000000000000000000000000000000000000000000000000000000600052601160045260246000fd5b600080fd5b7f4e6f7420656e6f7567682066756e647300000000000000000000000000000000600082015250565b6106ff81610635565b811461070a57600080fd5b50565b61071681610647565b811461072157600080fd5b50565b61072d8161068f565b811461073857600080fd5b5056fea2646970667358221220e01fe676da846f37e57be87d47877d40f7f03c433f3b9b4891b58f1b874e0fcc64736f6c63430008070033",
					"opcodes": "PUSH1 0x80 PUSH1 0x40 MSTORE CALLVALUE DUP1 ISZERO PUSH2 0x10 JUMPI PUSH1 0x0 DUP1 REVERT JUMPDEST POP PUSH2 0x771 DUP1 PUSH2 0x20 PUSH1 0x0 CODECOPY PUSH1 0x0 RETURN INVALID PUSH1 0x80 PUSH1 0x40 MSTORE PUSH1 0x4 CALLDATASIZE LT PUSH2 0x3F JUMPI PUSH1 0x0 CALLDATALOAD PUSH1 0xE0 SHR DUP1 PUSH4 0x12065FE0 EQ PUSH2 0x44 JUMPI DUP1 PUSH4 0x9408AA16 EQ PUSH2 0x6F JUMPI DUP1 PUSH4 0xCBEDBF5A EQ PUSH2 0xAE JUMPI DUP1 PUSH4 0xF274C897 EQ PUSH2 0xB8 JUMPI JUMPDEST PUSH1 0x0 DUP1 REVERT JUMPDEST CALLVALUE DUP1 ISZERO PUSH2 0x50 JUMPI PUSH1 0x0 DUP1 REVERT JUMPDEST POP PUSH2 0x59 PUSH2 0xE1 JUMP JUMPDEST PUSH1 0x40 MLOAD PUSH2 0x66 SWAP2 SWAP1 PUSH2 0x4B4 JUMP JUMPDEST PUSH1 0x40 MLOAD DUP1 SWAP2 SUB SWAP1 RETURN JUMPDEST CALLVALUE DUP1 ISZERO PUSH2 0x7B JUMPI PUSH1 0x0 DUP1 REVERT JUMPDEST POP PUSH2 0x96 PUSH1 0x4 DUP1 CALLDATASIZE SUB DUP2 ADD SWAP1 PUSH2 0x91 SWAP2 SWAP1 PUSH2 0x3D7 JUMP JUMPDEST PUSH2 0xE9 JUMP JUMPDEST PUSH1 0x40 MLOAD PUSH2 0xA5 SWAP4 SWAP3 SWAP2 SWAP1 PUSH2 0x4CF JUMP JUMPDEST PUSH1 0x40 MLOAD DUP1 SWAP2 SUB SWAP1 RETURN JUMPDEST PUSH2 0xB6 PUSH2 0x120 JUMP JUMPDEST STOP JUMPDEST CALLVALUE DUP1 ISZERO PUSH2 0xC4 JUMPI PUSH1 0x0 DUP1 REVERT JUMPDEST POP PUSH2 0xDF PUSH1 0x4 DUP1 CALLDATASIZE SUB DUP2 ADD SWAP1 PUSH2 0xDA SWAP2 SWAP1 PUSH2 0x404 JUMP JUMPDEST PUSH2 0x26B JUMP JUMPDEST STOP JUMPDEST PUSH1 0x0 SELFBALANCE SWAP1 POP SWAP1 JUMP JUMPDEST PUSH1 0x0 PUSH1 0x20 MSTORE DUP1 PUSH1 0x0 MSTORE PUSH1 0x40 PUSH1 0x0 KECCAK256 PUSH1 0x0 SWAP2 POP SWAP1 POP DUP1 PUSH1 0x0 ADD SLOAD SWAP1 DUP1 PUSH1 0x1 ADD SLOAD SWAP1 DUP1 PUSH1 0x2 ADD PUSH1 0x0 SWAP1 SLOAD SWAP1 PUSH2 0x100 EXP SWAP1 DIV PUSH1 0xFF AND SWAP1 POP DUP4 JUMP JUMPDEST CALLVALUE PUSH1 0x0 DUP1 CALLER PUSH20 0xFFFFFFFFFFFFFFFFFFFFFFFFFFFFFFFFFFFFFFFF AND PUSH20 0xFFFFFFFFFFFFFFFFFFFFFFFFFFFFFFFFFFFFFFFF AND DUP2 MSTORE PUSH1 0x20 ADD SWAP1 DUP2 MSTORE PUSH1 0x20 ADD PUSH1 0x0 KECCAK256 PUSH1 0x0 ADD PUSH1 0x0 DUP3 DUP3 SLOAD PUSH2 0x171 SWAP2 SWAP1 PUSH2 0x5AB JUMP JUMPDEST SWAP3 POP POP DUP2 SWAP1 SSTORE POP PUSH1 0x1 PUSH1 0x0 DUP1 CALLER PUSH20 0xFFFFFFFFFFFFFFFFFFFFFFFFFFFFFFFFFFFFFFFF AND PUSH20 0xFFFFFFFFFFFFFFFFFFFFFFFFFFFFFFFFFFFFFFFF AND DUP2 MSTORE PUSH1 0x20 ADD SWAP1 DUP2 MSTORE PUSH1 0x20 ADD PUSH1 0x0 KECCAK256 PUSH1 0x1 ADD PUSH1 0x0 DUP3 DUP3 SLOAD PUSH2 0x1CA SWAP2 SWAP1 PUSH2 0x517 JUMP JUMPDEST SWAP3 POP POP DUP2 SWAP1 SSTORE POP CALLVALUE PUSH1 0x0 DUP1 CALLER PUSH20 0xFFFFFFFFFFFFFFFFFFFFFFFFFFFFFFFFFFFFFFFF AND PUSH20 0xFFFFFFFFFFFFFFFFFFFFFFFFFFFFFFFFFFFFFFFF AND DUP2 MSTORE PUSH1 0x20 ADD SWAP1 DUP2 MSTORE PUSH1 0x20 ADD PUSH1 0x0 KECCAK256 PUSH1 0x3 ADD PUSH1 0x0 DUP1 PUSH1 0x0 CALLER PUSH20 0xFFFFFFFFFFFFFFFFFFFFFFFFFFFFFFFFFFFFFFFF AND PUSH20 0xFFFFFFFFFFFFFFFFFFFFFFFFFFFFFFFFFFFFFFFF AND DUP2 MSTORE PUSH1 0x20 ADD SWAP1 DUP2 MSTORE PUSH1 0x20 ADD PUSH1 0x0 KECCAK256 PUSH1 0x1 ADD SLOAD DUP2 MSTORE PUSH1 0x20 ADD SWAP1 DUP2 MSTORE PUSH1 0x20 ADD PUSH1 0x0 KECCAK256 DUP2 SWAP1 SSTORE POP JUMP JUMPDEST DUP1 PUSH1 0x0 DUP1 CALLER PUSH20 0xFFFFFFFFFFFFFFFFFFFFFFFFFFFFFFFFFFFFFFFF AND PUSH20 0xFFFFFFFFFFFFFFFFFFFFFFFFFFFFFFFFFFFFFFFF AND DUP2 MSTORE PUSH1 0x20 ADD SWAP1 DUP2 MSTORE PUSH1 0x20 ADD PUSH1 0x0 KECCAK256 PUSH1 0x0 ADD SLOAD LT ISZERO PUSH2 0x2EF JUMPI PUSH1 0x40 MLOAD PUSH32 0x8C379A000000000000000000000000000000000000000000000000000000000 DUP2 MSTORE PUSH1 0x4 ADD PUSH2 0x2E6 SWAP1 PUSH2 0x494 JUMP JUMPDEST PUSH1 0x40 MLOAD DUP1 SWAP2 SUB SWAP1 REVERT JUMPDEST PUSH1 0x0 DUP2 SWAP1 POP DUP2 PUSH1 0x0 DUP1 CALLER PUSH20 0xFFFFFFFFFFFFFFFFFFFFFFFFFFFFFFFFFFFFFFFF AND PUSH20 0xFFFFFFFFFFFFFFFFFFFFFFFFFFFFFFFFFFFFFFFF AND DUP2 MSTORE PUSH1 0x20 ADD SWAP1 DUP2 MSTORE PUSH1 0x20 ADD PUSH1 0x0 KECCAK256 PUSH1 0x0 ADD PUSH1 0x0 DUP3 DUP3 SLOAD PUSH2 0x345 SWAP2 SWAP1 PUSH2 0x601 JUMP JUMPDEST SWAP3 POP POP DUP2 SWAP1 SSTORE POP DUP3 PUSH20 0xFFFFFFFFFFFFFFFFFFFFFFFFFFFFFFFFFFFFFFFF AND PUSH2 0x8FC DUP3 SWAP1 DUP2 ISZERO MUL SWAP1 PUSH1 0x40 MLOAD PUSH1 0x0 PUSH1 0x40 MLOAD DUP1 DUP4 SUB DUP2 DUP6 DUP9 DUP9 CALL SWAP4 POP POP POP POP ISZERO DUP1 ISZERO PUSH2 0x392 JUMPI RETURNDATASIZE PUSH1 0x0 DUP1 RETURNDATACOPY RETURNDATASIZE PUSH1 0x0 REVERT JUMPDEST POP POP POP POP JUMP JUMPDEST PUSH1 0x0 DUP2 CALLDATALOAD SWAP1 POP PUSH2 0x3A7 DUP2 PUSH2 0x6F6 JUMP JUMPDEST SWAP3 SWAP2 POP POP JUMP JUMPDEST PUSH1 0x0 DUP2 CALLDATALOAD SWAP1 POP PUSH2 0x3BC DUP2 PUSH2 0x70D JUMP JUMPDEST SWAP3 SWAP2 POP POP JUMP JUMPDEST PUSH1 0x0 DUP2 CALLDATALOAD SWAP1 POP PUSH2 0x3D1 DUP2 PUSH2 0x724 JUMP JUMPDEST SWAP3 SWAP2 POP POP JUMP JUMPDEST PUSH1 0x0 PUSH1 0x20 DUP3 DUP5 SUB SLT ISZERO PUSH2 0x3ED JUMPI PUSH2 0x3EC PUSH2 0x6C8 JUMP JUMPDEST JUMPDEST PUSH1 0x0 PUSH2 0x3FB DUP5 DUP3 DUP6 ADD PUSH2 0x398 JUMP JUMPDEST SWAP2 POP POP SWAP3 SWAP2 POP POP JUMP JUMPDEST PUSH1 0x0 DUP1 PUSH1 0x40 DUP4 DUP6 SUB SLT ISZERO PUSH2 0x41B JUMPI PUSH2 0x41A PUSH2 0x6C8 JUMP JUMPDEST JUMPDEST PUSH1 0x0 PUSH2 0x429 DUP6 DUP3 DUP7 ADD PUSH2 0x3AD JUMP JUMPDEST SWAP3 POP POP PUSH1 0x20 PUSH2 0x43A DUP6 DUP3 DUP7 ADD PUSH2 0x3C2 JUMP JUMPDEST SWAP2 POP POP SWAP3 POP SWAP3 SWAP1 POP JUMP JUMPDEST PUSH2 0x44D DUP2 PUSH2 0x659 JUMP JUMPDEST DUP3 MSTORE POP POP JUMP JUMPDEST PUSH2 0x45C DUP2 PUSH2 0x665 JUMP JUMPDEST DUP3 MSTORE POP POP JUMP JUMPDEST PUSH1 0x0 PUSH2 0x46F PUSH1 0x10 DUP4 PUSH2 0x506 JUMP JUMPDEST SWAP2 POP PUSH2 0x47A DUP3 PUSH2 0x6CD JUMP JUMPDEST PUSH1 0x20 DUP3 ADD SWAP1 POP SWAP2 SWAP1 POP JUMP JUMPDEST PUSH2 0x48E DUP2 PUSH2 0x68F JUMP JUMPDEST DUP3 MSTORE POP POP JUMP JUMPDEST PUSH1 0x0 PUSH1 0x20 DUP3 ADD SWAP1 POP DUP2 DUP2 SUB PUSH1 0x0 DUP4 ADD MSTORE PUSH2 0x4AD DUP2 PUSH2 0x462 JUMP JUMPDEST SWAP1 POP SWAP2 SWAP1 POP JUMP JUMPDEST PUSH1 0x0 PUSH1 0x20 DUP3 ADD SWAP1 POP PUSH2 0x4C9 PUSH1 0x0 DUP4 ADD DUP5 PUSH2 0x485 JUMP JUMPDEST SWAP3 SWAP2 POP POP JUMP JUMPDEST PUSH1 0x0 PUSH1 0x60 DUP3 ADD SWAP1 POP PUSH2 0x4E4 PUSH1 0x0 DUP4 ADD DUP7 PUSH2 0x485 JUMP JUMPDEST PUSH2 0x4F1 PUSH1 0x20 DUP4 ADD DUP6 PUSH2 0x453 JUMP JUMPDEST PUSH2 0x4FE PUSH1 0x40 DUP4 ADD DUP5 PUSH2 0x444 JUMP JUMPDEST SWAP5 SWAP4 POP POP POP POP JUMP JUMPDEST PUSH1 0x0 DUP3 DUP3 MSTORE PUSH1 0x20 DUP3 ADD SWAP1 POP SWAP3 SWAP2 POP POP JUMP JUMPDEST PUSH1 0x0 PUSH2 0x522 DUP3 PUSH2 0x665 JUMP JUMPDEST SWAP2 POP PUSH2 0x52D DUP4 PUSH2 0x665 JUMP JUMPDEST SWAP3 POP DUP2 PUSH32 0x7FFFFFFFFFFFFFFFFFFFFFFFFFFFFFFFFFFFFFFFFFFFFFFFFFFFFFFFFFFFFFFF SUB DUP4 SGT PUSH1 0x0 DUP4 SLT ISZERO AND ISZERO PUSH2 0x568 JUMPI PUSH2 0x567 PUSH2 0x699 JUMP JUMPDEST JUMPDEST DUP2 PUSH32 0x8000000000000000000000000000000000000000000000000000000000000000 SUB DUP4 SLT PUSH1 0x0 DUP4 SLT AND ISZERO PUSH2 0x5A0 JUMPI PUSH2 0x59F PUSH2 0x699 JUMP JUMPDEST JUMPDEST DUP3 DUP3 ADD SWAP1 POP SWAP3 SWAP2 POP POP JUMP JUMPDEST PUSH1 0x0 PUSH2 0x5B6 DUP3 PUSH2 0x68F JUMP JUMPDEST SWAP2 POP PUSH2 0x5C1 DUP4 PUSH2 0x68F JUMP JUMPDEST SWAP3 POP DUP3 PUSH32 0xFFFFFFFFFFFFFFFFFFFFFFFFFFFFFFFFFFFFFFFFFFFFFFFFFFFFFFFFFFFFFFFF SUB DUP3 GT ISZERO PUSH2 0x5F6 JUMPI PUSH2 0x5F5 PUSH2 0x699 JUMP JUMPDEST JUMPDEST DUP3 DUP3 ADD SWAP1 POP SWAP3 SWAP2 POP POP JUMP JUMPDEST PUSH1 0x0 PUSH2 0x60C DUP3 PUSH2 0x68F JUMP JUMPDEST SWAP2 POP PUSH2 0x617 DUP4 PUSH2 0x68F JUMP JUMPDEST SWAP3 POP DUP3 DUP3 LT ISZERO PUSH2 0x62A JUMPI PUSH2 0x629 PUSH2 0x699 JUMP JUMPDEST JUMPDEST DUP3 DUP3 SUB SWAP1 POP SWAP3 SWAP2 POP POP JUMP JUMPDEST PUSH1 0x0 PUSH2 0x640 DUP3 PUSH2 0x66F JUMP JUMPDEST SWAP1 POP SWAP2 SWAP1 POP JUMP JUMPDEST PUSH1 0x0 PUSH2 0x652 DUP3 PUSH2 0x66F JUMP JUMPDEST SWAP1 POP SWAP2 SWAP1 POP JUMP JUMPDEST PUSH1 0x0 DUP2 ISZERO ISZERO SWAP1 POP SWAP2 SWAP1 POP JUMP JUMPDEST PUSH1 0x0 DUP2 SWAP1 POP SWAP2 SWAP1 POP JUMP JUMPDEST PUSH1 0x0 PUSH20 0xFFFFFFFFFFFFFFFFFFFFFFFFFFFFFFFFFFFFFFFF DUP3 AND SWAP1 POP SWAP2 SWAP1 POP JUMP JUMPDEST PUSH1 0x0 DUP2 SWAP1 POP SWAP2 SWAP1 POP JUMP JUMPDEST PUSH32 0x4E487B7100000000000000000000000000000000000000000000000000000000 PUSH1 0x0 MSTORE PUSH1 0x11 PUSH1 0x4 MSTORE PUSH1 0x24 PUSH1 0x0 REVERT JUMPDEST PUSH1 0x0 DUP1 REVERT JUMPDEST PUSH32 0x4E6F7420656E6F7567682066756E647300000000000000000000000000000000 PUSH1 0x0 DUP3 ADD MSTORE POP JUMP JUMPDEST PUSH2 0x6FF DUP2 PUSH2 0x635 JUMP JUMPDEST DUP2 EQ PUSH2 0x70A JUMPI PUSH1 0x0 DUP1 REVERT JUMPDEST POP JUMP JUMPDEST PUSH2 0x716 DUP2 PUSH2 0x647 JUMP JUMPDEST DUP2 EQ PUSH2 0x721 JUMPI PUSH1 0x0 DUP1 REVERT JUMPDEST POP JUMP JUMPDEST PUSH2 0x72D DUP2 PUSH2 0x68F JUMP JUMPDEST DUP2 EQ PUSH2 0x738 JUMPI PUSH1 0x0 DUP1 REVERT JUMPDEST POP JUMP INVALID LOG2 PUSH5 0x6970667358 0x22 SLT KECCAK256 0xE0 0x1F 0xE6 PUSH23 0xDA846F37E57BE87D47877D40F7F03C433F3B9B4891B58F SHL DUP8 0x4E 0xF 0xCC PUSH5 0x736F6C6343 STOP ADDMOD SMOD STOP CALLER "
				},
				"gasEstimates": {
					"creation": {
						"codeDepositCost": "381000",
						"executionCost": "418",
						"totalCost": "381418"
					},
					"external": {
						"Member(address)": "7294",
						"getBalance()": "317",
						"sendMoney()": "infinite",
						"withdrawMoney(address,uint256)": "infinite"
					}
				},
				"methodIdentifiers": {
					"Member(address)": "9408aa16",
					"getBalance()": "12065fe0",
					"sendMoney()": "cbedbf5a",
					"withdrawMoney(address,uint256)": "f274c897"
				}
			},
			"storageLayout": {
				"storage": [
					{
						"astId": 17,
						"contract": "MyStructExamples2.sol:MappingsStructExample",
						"label": "Member",
						"offset": 0,
						"slot": "0",
						"type": "t_mapping(t_address,t_struct(MemberDetails)12_storage)"
					}
				],
				"types": {
					"t_address": {
						"encoding": "inplace",
						"label": "address",
						"numberOfBytes": "20"
					},
					"t_bool": {
						"encoding": "inplace",
						"label": "bool",
						"numberOfBytes": "1"
					},
					"t_int256": {
						"encoding": "inplace",
						"label": "int256",
						"numberOfBytes": "32"
					},
					"t_mapping(t_address,t_struct(MemberDetails)12_storage)": {
						"encoding": "mapping",
						"key": "t_address",
						"label": "mapping(address => struct MappingsStructExample.MemberDetails)",
						"numberOfBytes": "32",
						"value": "t_struct(MemberDetails)12_storage"
					},
					"t_mapping(t_int256,t_uint256)": {
						"encoding": "mapping",
						"key": "t_int256",
						"label": "mapping(int256 => uint256)",
						"numberOfBytes": "32",
						"value": "t_uint256"
					},
					"t_struct(MemberDetails)12_storage": {
						"encoding": "inplace",
						"label": "struct MappingsStructExample.MemberDetails",
						"members": [
							{
								"astId": 3,
								"contract": "MyStructExamples2.sol:MappingsStructExample",
								"label": "balance",
								"offset": 0,
								"slot": "0",
								"type": "t_uint256"
							},
							{
								"astId": 5,
								"contract": "MyStructExamples2.sol:MappingsStructExample",
								"label": "numPayments",
								"offset": 0,
								"slot": "1",
								"type": "t_int256"
							},
							{
								"astId": 7,
								"contract": "MyStructExamples2.sol:MappingsStructExample",
								"label": "whitelist",
								"offset": 0,
								"slot": "2",
								"type": "t_bool"
							},
							{
								"astId": 11,
								"contract": "MyStructExamples2.sol:MappingsStructExample",
								"label": "payments",
								"offset": 0,
								"slot": "3",
								"type": "t_mapping(t_int256,t_uint256)"
							}
						],
						"numberOfBytes": "128"
					},
					"t_uint256": {
						"encoding": "inplace",
						"label": "uint256",
						"numberOfBytes": "32"
					}
				}
			},
			"userdoc": {
				"kind": "user",
				"methods": {},
				"version": 1
			}
		}
	}
}