{
	"MyInheritanceExample.sol": {
		"InheritanceModifierExample": {
			"abi": [
				{
					"inputs": [],
					"stateMutability": "nonpayable",
					"type": "constructor"
				},
				{
					"inputs": [],
					"name": "burnToken",
					"outputs": [],
					"stateMutability": "nonpayable",
					"type": "function"
				},
				{
					"inputs": [],
					"name": "createNewToken",
					"outputs": [],
					"stateMutability": "nonpayable",
					"type": "function"
				},
				{
					"inputs": [],
					"name": "purchaseToken",
					"outputs": [],
					"stateMutability": "payable",
					"type": "function"
				},
				{
					"inputs": [
						{
							"internalType": "address",
							"name": "_to",
							"type": "address"
						},
						{
							"internalType": "uint256",
							"name": "_amount",
							"type": "uint256"
						}
					],
					"name": "sendToken",
					"outputs": [],
					"stateMutability": "nonpayable",
					"type": "function"
				},
				{
					"inputs": [
						{
							"internalType": "address",
							"name": "",
							"type": "address"
						}
					],
					"name": "tokenBalance",
					"outputs": [
						{
							"internalType": "uint256",
							"name": "",
							"type": "uint256"
						}
					],
					"stateMutability": "view",
					"type": "function"
				},
				{
					"stateMutability": "payable",
					"type": "receive"
				}
			],
			"devdoc": {
				"kind": "dev",
				"methods": {},
				"version": 1
			},
			"evm": {
				"assembly": "    /* \"MyInheritanceExample.sol\":310:1366  contract InheritanceModifierExample is Owned {... */\n  mstore(0x40, 0x80)\n    /* \"MyInheritanceExample.sol\":431:438  1 ether */\n  0x0de0b6b3a7640000\n    /* \"MyInheritanceExample.sol\":413:438  uint tokenPrice = 1 ether */\n  0x02\n  sstore\n    /* \"MyInheritanceExample.sol\":445:501  constructor() {... */\n  callvalue\n  dup1\n  iszero\n  tag_1\n  jumpi\n  0x00\n  dup1\n  revert\ntag_1:\n  pop\n    /* \"MyInheritanceExample.sol\":156:166  msg.sender */\n  caller\n    /* \"MyInheritanceExample.sol\":148:153  owner */\n  0x00\n  dup1\n    /* \"MyInheritanceExample.sol\":148:166  owner = msg.sender */\n  0x0100\n  exp\n  dup2\n  sload\n  dup2\n  0xffffffffffffffffffffffffffffffffffffffff\n  mul\n  not\n  and\n  swap1\n  dup4\n  0xffffffffffffffffffffffffffffffffffffffff\n  and\n  mul\n  or\n  swap1\n  sstore\n  pop\n    /* \"MyInheritanceExample.sol\":491:494  100 */\n  0x64\n    /* \"MyInheritanceExample.sol\":469:481  tokenBalance */\n  0x01\n    /* \"MyInheritanceExample.sol\":469:488  tokenBalance[owner] */\n  0x00\n    /* \"MyInheritanceExample.sol\":482:487  owner */\n  dup1\n  0x00\n  swap1\n  sload\n  swap1\n  0x0100\n  exp\n  swap1\n  div\n  0xffffffffffffffffffffffffffffffffffffffff\n  and\n    /* \"MyInheritanceExample.sol\":469:488  tokenBalance[owner] */\n  0xffffffffffffffffffffffffffffffffffffffff\n  and\n  0xffffffffffffffffffffffffffffffffffffffff\n  and\n  dup2\n  mstore\n  0x20\n  add\n  swap1\n  dup2\n  mstore\n  0x20\n  add\n  0x00\n  keccak256\n    /* \"MyInheritanceExample.sol\":469:494  tokenBalance[owner] = 100 */\n  dup2\n  swap1\n  sstore\n  pop\n    /* \"MyInheritanceExample.sol\":310:1366  contract InheritanceModifierExample is Owned {... */\n  dataSize(sub_0)\n  dup1\n  dataOffset(sub_0)\n  0x00\n  codecopy\n  0x00\n  return\nstop\n\nsub_0: assembly {\n        /* \"MyInheritanceExample.sol\":310:1366  contract InheritanceModifierExample is Owned {... */\n      mstore(0x40, 0x80)\n      jumpi(tag_1, lt(calldatasize, 0x04))\n      shr(0xe0, calldataload(0x00))\n      dup1\n      0x412664ae\n      eq\n      tag_3\n      jumpi\n      dup1\n      0x754fc38c\n      eq\n      tag_4\n      jumpi\n      dup1\n      0xa95c4d62\n      eq\n      tag_5\n      jumpi\n      dup1\n      0xeedc966a\n      eq\n      tag_6\n      jumpi\n      dup1\n      0xfaa0a264\n      eq\n      tag_7\n      jumpi\n      jump(tag_2)\n    tag_1:\n      jumpi(tag_2, calldatasize)\n        /* \"MyInheritanceExample.sol\":544:559  purchaseToken() */\n      tag_10\n        /* \"MyInheritanceExample.sol\":544:557  purchaseToken */\n      tag_11\n        /* \"MyInheritanceExample.sol\":544:559  purchaseToken() */\n      jump\t// in\n    tag_10:\n        /* \"MyInheritanceExample.sol\":310:1366  contract InheritanceModifierExample is Owned {... */\n      stop\n    tag_2:\n      0x00\n      dup1\n      revert\n        /* \"MyInheritanceExample.sol\":999:1363  function sendToken(address _to, uint _amount) public {... */\n    tag_3:\n      callvalue\n      dup1\n      iszero\n      tag_12\n      jumpi\n      0x00\n      dup1\n      revert\n    tag_12:\n      pop\n      tag_13\n      0x04\n      dup1\n      calldatasize\n      sub\n      dup2\n      add\n      swap1\n      tag_14\n      swap2\n      swap1\n      tag_15\n      jump\t// in\n    tag_14:\n      tag_16\n      jump\t// in\n    tag_13:\n      stop\n        /* \"MyInheritanceExample.sol\":572:653  function createNewToken() public onlyOwner {... */\n    tag_4:\n      callvalue\n      dup1\n      iszero\n      tag_17\n      jumpi\n      0x00\n      dup1\n      revert\n    tag_17:\n      pop\n      tag_18\n      tag_19\n      jump\t// in\n    tag_18:\n      stop\n        /* \"MyInheritanceExample.sol\":741:993  function purchaseToken() public payable {... */\n    tag_5:\n      tag_20\n      tag_11\n      jump\t// in\n    tag_20:\n      stop\n        /* \"MyInheritanceExample.sol\":362:406  mapping(address => uint) public tokenBalance */\n    tag_6:\n      callvalue\n      dup1\n      iszero\n      tag_21\n      jumpi\n      0x00\n      dup1\n      revert\n    tag_21:\n      pop\n      tag_22\n      0x04\n      dup1\n      calldatasize\n      sub\n      dup2\n      add\n      swap1\n      tag_23\n      swap2\n      swap1\n      tag_24\n      jump\t// in\n    tag_23:\n      tag_25\n      jump\t// in\n    tag_22:\n      mload(0x40)\n      tag_26\n      swap2\n      swap1\n      tag_27\n      jump\t// in\n    tag_26:\n      mload(0x40)\n      dup1\n      swap2\n      sub\n      swap1\n      return\n        /* \"MyInheritanceExample.sol\":659:735  function burnToken() public onlyOwner {... */\n    tag_7:\n      callvalue\n      dup1\n      iszero\n      tag_28\n      jumpi\n      0x00\n      dup1\n      revert\n    tag_28:\n      pop\n      tag_29\n      tag_30\n      jump\t// in\n    tag_29:\n      stop\n        /* \"MyInheritanceExample.sol\":741:993  function purchaseToken() public payable {... */\n    tag_11:\n        /* \"MyInheritanceExample.sol\":848:849  0 */\n      0x00\n        /* \"MyInheritanceExample.sol\":836:845  msg.value */\n      callvalue\n        /* \"MyInheritanceExample.sol\":822:832  tokenPrice */\n      sload(0x02)\n        /* \"MyInheritanceExample.sol\":800:812  tokenBalance */\n      0x01\n        /* \"MyInheritanceExample.sol\":800:819  tokenBalance[owner] */\n      0x00\n        /* \"MyInheritanceExample.sol\":813:818  owner */\n      dup1\n      0x00\n      swap1\n      sload\n      swap1\n      0x0100\n      exp\n      swap1\n      div\n      0xffffffffffffffffffffffffffffffffffffffff\n      and\n        /* \"MyInheritanceExample.sol\":800:819  tokenBalance[owner] */\n      0xffffffffffffffffffffffffffffffffffffffff\n      and\n      0xffffffffffffffffffffffffffffffffffffffff\n      and\n      dup2\n      mstore\n      0x20\n      add\n      swap1\n      dup2\n      mstore\n      0x20\n      add\n      0x00\n      keccak256\n      sload\n        /* \"MyInheritanceExample.sol\":800:832  tokenBalance[owner] * tokenPrice */\n      tag_32\n      swap2\n      swap1\n      tag_33\n      jump\t// in\n    tag_32:\n        /* \"MyInheritanceExample.sol\":799:845  (tokenBalance[owner] * tokenPrice) / msg.value */\n      tag_34\n      swap2\n      swap1\n      tag_35\n      jump\t// in\n    tag_34:\n        /* \"MyInheritanceExample.sol\":799:849  (tokenBalance[owner] * tokenPrice) / msg.value > 0 */\n      gt\n        /* \"MyInheritanceExample.sol\":791:871  require((tokenBalance[owner] * tokenPrice) / msg.value > 0, \"not enough tokens\") */\n      tag_36\n      jumpi\n      mload(0x40)\n      0x08c379a000000000000000000000000000000000000000000000000000000000\n      dup2\n      mstore\n      0x04\n      add\n      tag_37\n      swap1\n      tag_38\n      jump\t// in\n    tag_37:\n      mload(0x40)\n      dup1\n      swap2\n      sub\n      swap1\n      revert\n    tag_36:\n        /* \"MyInheritanceExample.sol\":916:926  tokenPrice */\n      sload(0x02)\n        /* \"MyInheritanceExample.sol\":904:913  msg.value */\n      callvalue\n        /* \"MyInheritanceExample.sol\":904:926  msg.value / tokenPrice */\n      tag_39\n      swap2\n      swap1\n      tag_35\n      jump\t// in\n    tag_39:\n        /* \"MyInheritanceExample.sol\":881:893  tokenBalance */\n      0x01\n        /* \"MyInheritanceExample.sol\":881:900  tokenBalance[owner] */\n      0x00\n        /* \"MyInheritanceExample.sol\":894:899  owner */\n      dup1\n      0x00\n      swap1\n      sload\n      swap1\n      0x0100\n      exp\n      swap1\n      div\n      0xffffffffffffffffffffffffffffffffffffffff\n      and\n        /* \"MyInheritanceExample.sol\":881:900  tokenBalance[owner] */\n      0xffffffffffffffffffffffffffffffffffffffff\n      and\n      0xffffffffffffffffffffffffffffffffffffffff\n      and\n      dup2\n      mstore\n      0x20\n      add\n      swap1\n      dup2\n      mstore\n      0x20\n      add\n      0x00\n      keccak256\n      0x00\n        /* \"MyInheritanceExample.sol\":881:926  tokenBalance[owner] -= msg.value / tokenPrice */\n      dup3\n      dup3\n      sload\n      tag_40\n      swap2\n      swap1\n      tag_41\n      jump\t// in\n    tag_40:\n      swap3\n      pop\n      pop\n      dup2\n      swap1\n      sstore\n      pop\n        /* \"MyInheritanceExample.sol\":976:986  tokenPrice */\n      sload(0x02)\n        /* \"MyInheritanceExample.sol\":964:973  msg.value */\n      callvalue\n        /* \"MyInheritanceExample.sol\":964:986  msg.value / tokenPrice */\n      tag_42\n      swap2\n      swap1\n      tag_35\n      jump\t// in\n    tag_42:\n        /* \"MyInheritanceExample.sol\":936:948  tokenBalance */\n      0x01\n        /* \"MyInheritanceExample.sol\":936:960  tokenBalance[msg.sender] */\n      0x00\n        /* \"MyInheritanceExample.sol\":949:959  msg.sender */\n      caller\n        /* \"MyInheritanceExample.sol\":936:960  tokenBalance[msg.sender] */\n      0xffffffffffffffffffffffffffffffffffffffff\n      and\n      0xffffffffffffffffffffffffffffffffffffffff\n      and\n      dup2\n      mstore\n      0x20\n      add\n      swap1\n      dup2\n      mstore\n      0x20\n      add\n      0x00\n      keccak256\n      0x00\n        /* \"MyInheritanceExample.sol\":936:986  tokenBalance[msg.sender] += msg.value / tokenPrice */\n      dup3\n      dup3\n      sload\n      tag_43\n      swap2\n      swap1\n      tag_44\n      jump\t// in\n    tag_43:\n      swap3\n      pop\n      pop\n      dup2\n      swap1\n      sstore\n      pop\n        /* \"MyInheritanceExample.sol\":741:993  function purchaseToken() public payable {... */\n      jump\t// out\n        /* \"MyInheritanceExample.sol\":999:1363  function sendToken(address _to, uint _amount) public {... */\n    tag_16:\n        /* \"MyInheritanceExample.sol\":1098:1105  _amount */\n      dup1\n        /* \"MyInheritanceExample.sol\":1070:1082  tokenBalance */\n      0x01\n        /* \"MyInheritanceExample.sol\":1070:1094  tokenBalance[msg.sender] */\n      0x00\n        /* \"MyInheritanceExample.sol\":1083:1093  msg.sender */\n      caller\n        /* \"MyInheritanceExample.sol\":1070:1094  tokenBalance[msg.sender] */\n      0xffffffffffffffffffffffffffffffffffffffff\n      and\n      0xffffffffffffffffffffffffffffffffffffffff\n      and\n      dup2\n      mstore\n      0x20\n      add\n      swap1\n      dup2\n      mstore\n      0x20\n      add\n      0x00\n      keccak256\n      sload\n        /* \"MyInheritanceExample.sol\":1070:1105  tokenBalance[msg.sender] >= _amount */\n      lt\n      iszero\n        /* \"MyInheritanceExample.sol\":1062:1127  require(tokenBalance[msg.sender] >= _amount, \"Not enough tokens\") */\n      tag_46\n      jumpi\n      mload(0x40)\n      0x08c379a000000000000000000000000000000000000000000000000000000000\n      dup2\n      mstore\n      0x04\n      add\n      tag_47\n      swap1\n      tag_48\n      jump\t// in\n    tag_47:\n      mload(0x40)\n      dup1\n      swap2\n      sub\n      swap1\n      revert\n    tag_46:\n        /* \"MyInheritanceExample.sol\":1175:1187  tokenBalance */\n      0x01\n        /* \"MyInheritanceExample.sol\":1175:1192  tokenBalance[_to] */\n      0x00\n        /* \"MyInheritanceExample.sol\":1188:1191  _to */\n      dup4\n        /* \"MyInheritanceExample.sol\":1175:1192  tokenBalance[_to] */\n      0xffffffffffffffffffffffffffffffffffffffff\n      and\n      0xffffffffffffffffffffffffffffffffffffffff\n      and\n      dup2\n      mstore\n      0x20\n      add\n      swap1\n      dup2\n      mstore\n      0x20\n      add\n      0x00\n      keccak256\n      sload\n        /* \"MyInheritanceExample.sol\":1164:1171  _amount */\n      dup2\n        /* \"MyInheritanceExample.sol\":1144:1156  tokenBalance */\n      0x01\n        /* \"MyInheritanceExample.sol\":1144:1161  tokenBalance[_to] */\n      0x00\n        /* \"MyInheritanceExample.sol\":1157:1160  _to */\n      dup6\n        /* \"MyInheritanceExample.sol\":1144:1161  tokenBalance[_to] */\n      0xffffffffffffffffffffffffffffffffffffffff\n      and\n      0xffffffffffffffffffffffffffffffffffffffff\n      and\n      dup2\n      mstore\n      0x20\n      add\n      swap1\n      dup2\n      mstore\n      0x20\n      add\n      0x00\n      keccak256\n      sload\n        /* \"MyInheritanceExample.sol\":1144:1171  tokenBalance[_to] + _amount */\n      tag_49\n      swap2\n      swap1\n      tag_44\n      jump\t// in\n    tag_49:\n        /* \"MyInheritanceExample.sol\":1144:1192  tokenBalance[_to] + _amount >= tokenBalance[_to] */\n      lt\n      iszero\n        /* \"MyInheritanceExample.sol\":1137:1193  assert(tokenBalance[_to] + _amount >= tokenBalance[_to]) */\n      tag_50\n      jumpi\n      tag_51\n      tag_52\n      jump\t// in\n    tag_51:\n    tag_50:\n        /* \"MyInheritanceExample.sol\":1248:1260  tokenBalance */\n      0x01\n        /* \"MyInheritanceExample.sol\":1248:1272  tokenBalance[msg.sender] */\n      0x00\n        /* \"MyInheritanceExample.sol\":1261:1271  msg.sender */\n      caller\n        /* \"MyInheritanceExample.sol\":1248:1272  tokenBalance[msg.sender] */\n      0xffffffffffffffffffffffffffffffffffffffff\n      and\n      0xffffffffffffffffffffffffffffffffffffffff\n      and\n      dup2\n      mstore\n      0x20\n      add\n      swap1\n      dup2\n      mstore\n      0x20\n      add\n      0x00\n      keccak256\n      sload\n        /* \"MyInheritanceExample.sol\":1237:1244  _amount */\n      dup2\n        /* \"MyInheritanceExample.sol\":1210:1222  tokenBalance */\n      0x01\n        /* \"MyInheritanceExample.sol\":1210:1234  tokenBalance[msg.sender] */\n      0x00\n        /* \"MyInheritanceExample.sol\":1223:1233  msg.sender */\n      caller\n        /* \"MyInheritanceExample.sol\":1210:1234  tokenBalance[msg.sender] */\n      0xffffffffffffffffffffffffffffffffffffffff\n      and\n      0xffffffffffffffffffffffffffffffffffffffff\n      and\n      dup2\n      mstore\n      0x20\n      add\n      swap1\n      dup2\n      mstore\n      0x20\n      add\n      0x00\n      keccak256\n      sload\n        /* \"MyInheritanceExample.sol\":1210:1244  tokenBalance[msg.sender] - _amount */\n      tag_53\n      swap2\n      swap1\n      tag_41\n      jump\t// in\n    tag_53:\n        /* \"MyInheritanceExample.sol\":1210:1272  tokenBalance[msg.sender] - _amount <= tokenBalance[msg.sender] */\n      gt\n      iszero\n        /* \"MyInheritanceExample.sol\":1203:1273  assert(tokenBalance[msg.sender] - _amount <= tokenBalance[msg.sender]) */\n      tag_54\n      jumpi\n      tag_55\n      tag_52\n      jump\t// in\n    tag_55:\n    tag_54:\n        /* \"MyInheritanceExample.sol\":1311:1318  _amount */\n      dup1\n        /* \"MyInheritanceExample.sol\":1283:1295  tokenBalance */\n      0x01\n        /* \"MyInheritanceExample.sol\":1283:1307  tokenBalance[msg.sender] */\n      0x00\n        /* \"MyInheritanceExample.sol\":1296:1306  msg.sender */\n      caller\n        /* \"MyInheritanceExample.sol\":1283:1307  tokenBalance[msg.sender] */\n      0xffffffffffffffffffffffffffffffffffffffff\n      and\n      0xffffffffffffffffffffffffffffffffffffffff\n      and\n      dup2\n      mstore\n      0x20\n      add\n      swap1\n      dup2\n      mstore\n      0x20\n      add\n      0x00\n      keccak256\n      0x00\n        /* \"MyInheritanceExample.sol\":1283:1318  tokenBalance[msg.sender] -= _amount */\n      dup3\n      dup3\n      sload\n      tag_56\n      swap2\n      swap1\n      tag_41\n      jump\t// in\n    tag_56:\n      swap3\n      pop\n      pop\n      dup2\n      swap1\n      sstore\n      pop\n        /* \"MyInheritanceExample.sol\":1349:1356  _amount */\n      dup1\n        /* \"MyInheritanceExample.sol\":1328:1340  tokenBalance */\n      0x01\n        /* \"MyInheritanceExample.sol\":1328:1345  tokenBalance[_to] */\n      0x00\n        /* \"MyInheritanceExample.sol\":1341:1344  _to */\n      dup5\n        /* \"MyInheritanceExample.sol\":1328:1345  tokenBalance[_to] */\n      0xffffffffffffffffffffffffffffffffffffffff\n      and\n      0xffffffffffffffffffffffffffffffffffffffff\n      and\n      dup2\n      mstore\n      0x20\n      add\n      swap1\n      dup2\n      mstore\n      0x20\n      add\n      0x00\n      keccak256\n      0x00\n        /* \"MyInheritanceExample.sol\":1328:1356  tokenBalance[_to] += _amount */\n      dup3\n      dup3\n      sload\n      tag_57\n      swap2\n      swap1\n      tag_44\n      jump\t// in\n    tag_57:\n      swap3\n      pop\n      pop\n      dup2\n      swap1\n      sstore\n      pop\n        /* \"MyInheritanceExample.sol\":999:1363  function sendToken(address _to, uint _amount) public {... */\n      pop\n      pop\n      jump\t// out\n        /* \"MyInheritanceExample.sol\":572:653  function createNewToken() public onlyOwner {... */\n    tag_19:\n        /* \"MyInheritanceExample.sol\":232:237  owner */\n      0x00\n      dup1\n      sload\n      swap1\n      0x0100\n      exp\n      swap1\n      div\n      0xffffffffffffffffffffffffffffffffffffffff\n      and\n        /* \"MyInheritanceExample.sol\":218:237  msg.sender == owner */\n      0xffffffffffffffffffffffffffffffffffffffff\n      and\n        /* \"MyInheritanceExample.sol\":218:228  msg.sender */\n      caller\n        /* \"MyInheritanceExample.sol\":218:237  msg.sender == owner */\n      0xffffffffffffffffffffffffffffffffffffffff\n      and\n      eq\n        /* \"MyInheritanceExample.sol\":210:261  require(msg.sender == owner, \"You are not allowed\") */\n      tag_59\n      jumpi\n      mload(0x40)\n      0x08c379a000000000000000000000000000000000000000000000000000000000\n      dup2\n      mstore\n      0x04\n      add\n      tag_60\n      swap1\n      tag_61\n      jump\t// in\n    tag_60:\n      mload(0x40)\n      dup1\n      swap2\n      sub\n      swap1\n      revert\n    tag_59:\n        /* \"MyInheritanceExample.sol\":625:637  tokenBalance */\n      0x01\n        /* \"MyInheritanceExample.sol\":625:644  tokenBalance[owner] */\n      0x00\n        /* \"MyInheritanceExample.sol\":638:643  owner */\n      dup1\n      0x00\n      swap1\n      sload\n      swap1\n      0x0100\n      exp\n      swap1\n      div\n      0xffffffffffffffffffffffffffffffffffffffff\n      and\n        /* \"MyInheritanceExample.sol\":625:644  tokenBalance[owner] */\n      0xffffffffffffffffffffffffffffffffffffffff\n      and\n      0xffffffffffffffffffffffffffffffffffffffff\n      and\n      dup2\n      mstore\n      0x20\n      add\n      swap1\n      dup2\n      mstore\n      0x20\n      add\n      0x00\n      keccak256\n      0x00\n        /* \"MyInheritanceExample.sol\":625:646  tokenBalance[owner]++ */\n      dup2\n      sload\n      dup1\n      swap3\n      swap2\n      swap1\n      tag_63\n      swap1\n      tag_64\n      jump\t// in\n    tag_63:\n      swap2\n      swap1\n      pop\n      sstore\n      pop\n        /* \"MyInheritanceExample.sol\":572:653  function createNewToken() public onlyOwner {... */\n      jump\t// out\n        /* \"MyInheritanceExample.sol\":362:406  mapping(address => uint) public tokenBalance */\n    tag_25:\n      mstore(0x20, 0x01)\n      dup1\n      0x00\n      mstore\n      keccak256(0x00, 0x40)\n      0x00\n      swap2\n      pop\n      swap1\n      pop\n      sload\n      dup2\n      jump\t// out\n        /* \"MyInheritanceExample.sol\":659:735  function burnToken() public onlyOwner {... */\n    tag_30:\n        /* \"MyInheritanceExample.sol\":232:237  owner */\n      0x00\n      dup1\n      sload\n      swap1\n      0x0100\n      exp\n      swap1\n      div\n      0xffffffffffffffffffffffffffffffffffffffff\n      and\n        /* \"MyInheritanceExample.sol\":218:237  msg.sender == owner */\n      0xffffffffffffffffffffffffffffffffffffffff\n      and\n        /* \"MyInheritanceExample.sol\":218:228  msg.sender */\n      caller\n        /* \"MyInheritanceExample.sol\":218:237  msg.sender == owner */\n      0xffffffffffffffffffffffffffffffffffffffff\n      and\n      eq\n        /* \"MyInheritanceExample.sol\":210:261  require(msg.sender == owner, \"You are not allowed\") */\n      tag_66\n      jumpi\n      mload(0x40)\n      0x08c379a000000000000000000000000000000000000000000000000000000000\n      dup2\n      mstore\n      0x04\n      add\n      tag_67\n      swap1\n      tag_61\n      jump\t// in\n    tag_67:\n      mload(0x40)\n      dup1\n      swap2\n      sub\n      swap1\n      revert\n    tag_66:\n        /* \"MyInheritanceExample.sol\":707:719  tokenBalance */\n      0x01\n        /* \"MyInheritanceExample.sol\":707:726  tokenBalance[owner] */\n      0x00\n        /* \"MyInheritanceExample.sol\":720:725  owner */\n      dup1\n      0x00\n      swap1\n      sload\n      swap1\n      0x0100\n      exp\n      swap1\n      div\n      0xffffffffffffffffffffffffffffffffffffffff\n      and\n        /* \"MyInheritanceExample.sol\":707:726  tokenBalance[owner] */\n      0xffffffffffffffffffffffffffffffffffffffff\n      and\n      0xffffffffffffffffffffffffffffffffffffffff\n      and\n      dup2\n      mstore\n      0x20\n      add\n      swap1\n      dup2\n      mstore\n      0x20\n      add\n      0x00\n      keccak256\n      0x00\n        /* \"MyInheritanceExample.sol\":707:728  tokenBalance[owner]-- */\n      dup2\n      sload\n      dup1\n      swap3\n      swap2\n      swap1\n      tag_69\n      swap1\n      tag_70\n      jump\t// in\n    tag_69:\n      swap2\n      swap1\n      pop\n      sstore\n      pop\n        /* \"MyInheritanceExample.sol\":659:735  function burnToken() public onlyOwner {... */\n      jump\t// out\n        /* \"#utility.yul\":88:205   */\n    tag_72:\n        /* \"#utility.yul\":197:198   */\n      0x00\n        /* \"#utility.yul\":194:195   */\n      dup1\n        /* \"#utility.yul\":187:199   */\n      revert\n        /* \"#utility.yul\":334:460   */\n    tag_74:\n        /* \"#utility.yul\":371:378   */\n      0x00\n        /* \"#utility.yul\":411:453   */\n      0xffffffffffffffffffffffffffffffffffffffff\n        /* \"#utility.yul\":404:409   */\n      dup3\n        /* \"#utility.yul\":400:454   */\n      and\n        /* \"#utility.yul\":389:454   */\n      swap1\n      pop\n        /* \"#utility.yul\":334:460   */\n      swap2\n      swap1\n      pop\n      jump\t// out\n        /* \"#utility.yul\":466:562   */\n    tag_75:\n        /* \"#utility.yul\":503:510   */\n      0x00\n        /* \"#utility.yul\":532:556   */\n      tag_97\n        /* \"#utility.yul\":550:555   */\n      dup3\n        /* \"#utility.yul\":532:556   */\n      tag_74\n      jump\t// in\n    tag_97:\n        /* \"#utility.yul\":521:556   */\n      swap1\n      pop\n        /* \"#utility.yul\":466:562   */\n      swap2\n      swap1\n      pop\n      jump\t// out\n        /* \"#utility.yul\":568:690   */\n    tag_76:\n        /* \"#utility.yul\":641:665   */\n      tag_99\n        /* \"#utility.yul\":659:664   */\n      dup2\n        /* \"#utility.yul\":641:665   */\n      tag_75\n      jump\t// in\n    tag_99:\n        /* \"#utility.yul\":634:639   */\n      dup2\n        /* \"#utility.yul\":631:666   */\n      eq\n        /* \"#utility.yul\":621:684   */\n      tag_100\n      jumpi\n        /* \"#utility.yul\":680:681   */\n      0x00\n        /* \"#utility.yul\":677:678   */\n      dup1\n        /* \"#utility.yul\":670:682   */\n      revert\n        /* \"#utility.yul\":621:684   */\n    tag_100:\n        /* \"#utility.yul\":568:690   */\n      pop\n      jump\t// out\n        /* \"#utility.yul\":696:835   */\n    tag_77:\n        /* \"#utility.yul\":742:747   */\n      0x00\n        /* \"#utility.yul\":780:786   */\n      dup2\n        /* \"#utility.yul\":767:787   */\n      calldataload\n        /* \"#utility.yul\":758:787   */\n      swap1\n      pop\n        /* \"#utility.yul\":796:829   */\n      tag_102\n        /* \"#utility.yul\":823:828   */\n      dup2\n        /* \"#utility.yul\":796:829   */\n      tag_76\n      jump\t// in\n    tag_102:\n        /* \"#utility.yul\":696:835   */\n      swap3\n      swap2\n      pop\n      pop\n      jump\t// out\n        /* \"#utility.yul\":841:918   */\n    tag_78:\n        /* \"#utility.yul\":878:885   */\n      0x00\n        /* \"#utility.yul\":907:912   */\n      dup2\n        /* \"#utility.yul\":896:912   */\n      swap1\n      pop\n        /* \"#utility.yul\":841:918   */\n      swap2\n      swap1\n      pop\n      jump\t// out\n        /* \"#utility.yul\":924:1046   */\n    tag_79:\n        /* \"#utility.yul\":997:1021   */\n      tag_105\n        /* \"#utility.yul\":1015:1020   */\n      dup2\n        /* \"#utility.yul\":997:1021   */\n      tag_78\n      jump\t// in\n    tag_105:\n        /* \"#utility.yul\":990:995   */\n      dup2\n        /* \"#utility.yul\":987:1022   */\n      eq\n        /* \"#utility.yul\":977:1040   */\n      tag_106\n      jumpi\n        /* \"#utility.yul\":1036:1037   */\n      0x00\n        /* \"#utility.yul\":1033:1034   */\n      dup1\n        /* \"#utility.yul\":1026:1038   */\n      revert\n        /* \"#utility.yul\":977:1040   */\n    tag_106:\n        /* \"#utility.yul\":924:1046   */\n      pop\n      jump\t// out\n        /* \"#utility.yul\":1052:1191   */\n    tag_80:\n        /* \"#utility.yul\":1098:1103   */\n      0x00\n        /* \"#utility.yul\":1136:1142   */\n      dup2\n        /* \"#utility.yul\":1123:1143   */\n      calldataload\n        /* \"#utility.yul\":1114:1143   */\n      swap1\n      pop\n        /* \"#utility.yul\":1152:1185   */\n      tag_108\n        /* \"#utility.yul\":1179:1184   */\n      dup2\n        /* \"#utility.yul\":1152:1185   */\n      tag_79\n      jump\t// in\n    tag_108:\n        /* \"#utility.yul\":1052:1191   */\n      swap3\n      swap2\n      pop\n      pop\n      jump\t// out\n        /* \"#utility.yul\":1197:1671   */\n    tag_15:\n        /* \"#utility.yul\":1265:1271   */\n      0x00\n        /* \"#utility.yul\":1273:1279   */\n      dup1\n        /* \"#utility.yul\":1322:1324   */\n      0x40\n        /* \"#utility.yul\":1310:1319   */\n      dup4\n        /* \"#utility.yul\":1301:1308   */\n      dup6\n        /* \"#utility.yul\":1297:1320   */\n      sub\n        /* \"#utility.yul\":1293:1325   */\n      slt\n        /* \"#utility.yul\":1290:1409   */\n      iszero\n      tag_110\n      jumpi\n        /* \"#utility.yul\":1328:1407   */\n      tag_111\n      tag_72\n      jump\t// in\n    tag_111:\n        /* \"#utility.yul\":1290:1409   */\n    tag_110:\n        /* \"#utility.yul\":1448:1449   */\n      0x00\n        /* \"#utility.yul\":1473:1526   */\n      tag_112\n        /* \"#utility.yul\":1518:1525   */\n      dup6\n        /* \"#utility.yul\":1509:1515   */\n      dup3\n        /* \"#utility.yul\":1498:1507   */\n      dup7\n        /* \"#utility.yul\":1494:1516   */\n      add\n        /* \"#utility.yul\":1473:1526   */\n      tag_77\n      jump\t// in\n    tag_112:\n        /* \"#utility.yul\":1463:1526   */\n      swap3\n      pop\n        /* \"#utility.yul\":1419:1536   */\n      pop\n        /* \"#utility.yul\":1575:1577   */\n      0x20\n        /* \"#utility.yul\":1601:1654   */\n      tag_113\n        /* \"#utility.yul\":1646:1653   */\n      dup6\n        /* \"#utility.yul\":1637:1643   */\n      dup3\n        /* \"#utility.yul\":1626:1635   */\n      dup7\n        /* \"#utility.yul\":1622:1644   */\n      add\n        /* \"#utility.yul\":1601:1654   */\n      tag_80\n      jump\t// in\n    tag_113:\n        /* \"#utility.yul\":1591:1654   */\n      swap2\n      pop\n        /* \"#utility.yul\":1546:1664   */\n      pop\n        /* \"#utility.yul\":1197:1671   */\n      swap3\n      pop\n      swap3\n      swap1\n      pop\n      jump\t// out\n        /* \"#utility.yul\":1677:2006   */\n    tag_24:\n        /* \"#utility.yul\":1736:1742   */\n      0x00\n        /* \"#utility.yul\":1785:1787   */\n      0x20\n        /* \"#utility.yul\":1773:1782   */\n      dup3\n        /* \"#utility.yul\":1764:1771   */\n      dup5\n        /* \"#utility.yul\":1760:1783   */\n      sub\n        /* \"#utility.yul\":1756:1788   */\n      slt\n        /* \"#utility.yul\":1753:1872   */\n      iszero\n      tag_115\n      jumpi\n        /* \"#utility.yul\":1791:1870   */\n      tag_116\n      tag_72\n      jump\t// in\n    tag_116:\n        /* \"#utility.yul\":1753:1872   */\n    tag_115:\n        /* \"#utility.yul\":1911:1912   */\n      0x00\n        /* \"#utility.yul\":1936:1989   */\n      tag_117\n        /* \"#utility.yul\":1981:1988   */\n      dup5\n        /* \"#utility.yul\":1972:1978   */\n      dup3\n        /* \"#utility.yul\":1961:1970   */\n      dup6\n        /* \"#utility.yul\":1957:1979   */\n      add\n        /* \"#utility.yul\":1936:1989   */\n      tag_77\n      jump\t// in\n    tag_117:\n        /* \"#utility.yul\":1926:1989   */\n      swap2\n      pop\n        /* \"#utility.yul\":1882:1999   */\n      pop\n        /* \"#utility.yul\":1677:2006   */\n      swap3\n      swap2\n      pop\n      pop\n      jump\t// out\n        /* \"#utility.yul\":2012:2130   */\n    tag_81:\n        /* \"#utility.yul\":2099:2123   */\n      tag_119\n        /* \"#utility.yul\":2117:2122   */\n      dup2\n        /* \"#utility.yul\":2099:2123   */\n      tag_78\n      jump\t// in\n    tag_119:\n        /* \"#utility.yul\":2094:2097   */\n      dup3\n        /* \"#utility.yul\":2087:2124   */\n      mstore\n        /* \"#utility.yul\":2012:2130   */\n      pop\n      pop\n      jump\t// out\n        /* \"#utility.yul\":2136:2358   */\n    tag_27:\n        /* \"#utility.yul\":2229:2233   */\n      0x00\n        /* \"#utility.yul\":2267:2269   */\n      0x20\n        /* \"#utility.yul\":2256:2265   */\n      dup3\n        /* \"#utility.yul\":2252:2270   */\n      add\n        /* \"#utility.yul\":2244:2270   */\n      swap1\n      pop\n        /* \"#utility.yul\":2280:2351   */\n      tag_121\n        /* \"#utility.yul\":2348:2349   */\n      0x00\n        /* \"#utility.yul\":2337:2346   */\n      dup4\n        /* \"#utility.yul\":2333:2350   */\n      add\n        /* \"#utility.yul\":2324:2330   */\n      dup5\n        /* \"#utility.yul\":2280:2351   */\n      tag_81\n      jump\t// in\n    tag_121:\n        /* \"#utility.yul\":2136:2358   */\n      swap3\n      swap2\n      pop\n      pop\n      jump\t// out\n        /* \"#utility.yul\":2364:2544   */\n    tag_82:\n        /* \"#utility.yul\":2412:2489   */\n      0x4e487b7100000000000000000000000000000000000000000000000000000000\n        /* \"#utility.yul\":2409:2410   */\n      0x00\n        /* \"#utility.yul\":2402:2490   */\n      mstore\n        /* \"#utility.yul\":2509:2513   */\n      0x11\n        /* \"#utility.yul\":2506:2507   */\n      0x04\n        /* \"#utility.yul\":2499:2514   */\n      mstore\n        /* \"#utility.yul\":2533:2537   */\n      0x24\n        /* \"#utility.yul\":2530:2531   */\n      0x00\n        /* \"#utility.yul\":2523:2538   */\n      revert\n        /* \"#utility.yul\":2550:2898   */\n    tag_33:\n        /* \"#utility.yul\":2590:2597   */\n      0x00\n        /* \"#utility.yul\":2613:2633   */\n      tag_124\n        /* \"#utility.yul\":2631:2632   */\n      dup3\n        /* \"#utility.yul\":2613:2633   */\n      tag_78\n      jump\t// in\n    tag_124:\n        /* \"#utility.yul\":2608:2633   */\n      swap2\n      pop\n        /* \"#utility.yul\":2647:2667   */\n      tag_125\n        /* \"#utility.yul\":2665:2666   */\n      dup4\n        /* \"#utility.yul\":2647:2667   */\n      tag_78\n      jump\t// in\n    tag_125:\n        /* \"#utility.yul\":2642:2667   */\n      swap3\n      pop\n        /* \"#utility.yul\":2835:2836   */\n      dup2\n        /* \"#utility.yul\":2767:2833   */\n      0xffffffffffffffffffffffffffffffffffffffffffffffffffffffffffffffff\n        /* \"#utility.yul\":2763:2837   */\n      div\n        /* \"#utility.yul\":2760:2761   */\n      dup4\n        /* \"#utility.yul\":2757:2838   */\n      gt\n        /* \"#utility.yul\":2752:2753   */\n      dup3\n        /* \"#utility.yul\":2745:2754   */\n      iszero\n        /* \"#utility.yul\":2738:2755   */\n      iszero\n        /* \"#utility.yul\":2734:2839   */\n      and\n        /* \"#utility.yul\":2731:2862   */\n      iszero\n      tag_126\n      jumpi\n        /* \"#utility.yul\":2842:2860   */\n      tag_127\n      tag_82\n      jump\t// in\n    tag_127:\n        /* \"#utility.yul\":2731:2862   */\n    tag_126:\n        /* \"#utility.yul\":2890:2891   */\n      dup3\n        /* \"#utility.yul\":2887:2888   */\n      dup3\n        /* \"#utility.yul\":2883:2892   */\n      mul\n        /* \"#utility.yul\":2872:2892   */\n      swap1\n      pop\n        /* \"#utility.yul\":2550:2898   */\n      swap3\n      swap2\n      pop\n      pop\n      jump\t// out\n        /* \"#utility.yul\":2904:3084   */\n    tag_83:\n        /* \"#utility.yul\":2952:3029   */\n      0x4e487b7100000000000000000000000000000000000000000000000000000000\n        /* \"#utility.yul\":2949:2950   */\n      0x00\n        /* \"#utility.yul\":2942:3030   */\n      mstore\n        /* \"#utility.yul\":3049:3053   */\n      0x12\n        /* \"#utility.yul\":3046:3047   */\n      0x04\n        /* \"#utility.yul\":3039:3054   */\n      mstore\n        /* \"#utility.yul\":3073:3077   */\n      0x24\n        /* \"#utility.yul\":3070:3071   */\n      0x00\n        /* \"#utility.yul\":3063:3078   */\n      revert\n        /* \"#utility.yul\":3090:3275   */\n    tag_35:\n        /* \"#utility.yul\":3130:3131   */\n      0x00\n        /* \"#utility.yul\":3147:3167   */\n      tag_130\n        /* \"#utility.yul\":3165:3166   */\n      dup3\n        /* \"#utility.yul\":3147:3167   */\n      tag_78\n      jump\t// in\n    tag_130:\n        /* \"#utility.yul\":3142:3167   */\n      swap2\n      pop\n        /* \"#utility.yul\":3181:3201   */\n      tag_131\n        /* \"#utility.yul\":3199:3200   */\n      dup4\n        /* \"#utility.yul\":3181:3201   */\n      tag_78\n      jump\t// in\n    tag_131:\n        /* \"#utility.yul\":3176:3201   */\n      swap3\n      pop\n        /* \"#utility.yul\":3220:3221   */\n      dup3\n        /* \"#utility.yul\":3210:3245   */\n      tag_132\n      jumpi\n        /* \"#utility.yul\":3225:3243   */\n      tag_133\n      tag_83\n      jump\t// in\n    tag_133:\n        /* \"#utility.yul\":3210:3245   */\n    tag_132:\n        /* \"#utility.yul\":3267:3268   */\n      dup3\n        /* \"#utility.yul\":3264:3265   */\n      dup3\n        /* \"#utility.yul\":3260:3269   */\n      div\n        /* \"#utility.yul\":3255:3269   */\n      swap1\n      pop\n        /* \"#utility.yul\":3090:3275   */\n      swap3\n      swap2\n      pop\n      pop\n      jump\t// out\n        /* \"#utility.yul\":3281:3450   */\n    tag_84:\n        /* \"#utility.yul\":3365:3376   */\n      0x00\n        /* \"#utility.yul\":3399:3405   */\n      dup3\n        /* \"#utility.yul\":3394:3397   */\n      dup3\n        /* \"#utility.yul\":3387:3406   */\n      mstore\n        /* \"#utility.yul\":3439:3443   */\n      0x20\n        /* \"#utility.yul\":3434:3437   */\n      dup3\n        /* \"#utility.yul\":3430:3444   */\n      add\n        /* \"#utility.yul\":3415:3444   */\n      swap1\n      pop\n        /* \"#utility.yul\":3281:3450   */\n      swap3\n      swap2\n      pop\n      pop\n      jump\t// out\n        /* \"#utility.yul\":3456:3623   */\n    tag_85:\n        /* \"#utility.yul\":3596:3615   */\n      0x6e6f7420656e6f75676820746f6b656e73000000000000000000000000000000\n        /* \"#utility.yul\":3592:3593   */\n      0x00\n        /* \"#utility.yul\":3584:3590   */\n      dup3\n        /* \"#utility.yul\":3580:3594   */\n      add\n        /* \"#utility.yul\":3573:3616   */\n      mstore\n        /* \"#utility.yul\":3456:3623   */\n      pop\n      jump\t// out\n        /* \"#utility.yul\":3629:3995   */\n    tag_86:\n        /* \"#utility.yul\":3771:3774   */\n      0x00\n        /* \"#utility.yul\":3792:3859   */\n      tag_137\n        /* \"#utility.yul\":3856:3858   */\n      0x11\n        /* \"#utility.yul\":3851:3854   */\n      dup4\n        /* \"#utility.yul\":3792:3859   */\n      tag_84\n      jump\t// in\n    tag_137:\n        /* \"#utility.yul\":3785:3859   */\n      swap2\n      pop\n        /* \"#utility.yul\":3868:3961   */\n      tag_138\n        /* \"#utility.yul\":3957:3960   */\n      dup3\n        /* \"#utility.yul\":3868:3961   */\n      tag_85\n      jump\t// in\n    tag_138:\n        /* \"#utility.yul\":3986:3988   */\n      0x20\n        /* \"#utility.yul\":3981:3984   */\n      dup3\n        /* \"#utility.yul\":3977:3989   */\n      add\n        /* \"#utility.yul\":3970:3989   */\n      swap1\n      pop\n        /* \"#utility.yul\":3629:3995   */\n      swap2\n      swap1\n      pop\n      jump\t// out\n        /* \"#utility.yul\":4001:4420   */\n    tag_38:\n        /* \"#utility.yul\":4167:4171   */\n      0x00\n        /* \"#utility.yul\":4205:4207   */\n      0x20\n        /* \"#utility.yul\":4194:4203   */\n      dup3\n        /* \"#utility.yul\":4190:4208   */\n      add\n        /* \"#utility.yul\":4182:4208   */\n      swap1\n      pop\n        /* \"#utility.yul\":4254:4263   */\n      dup2\n        /* \"#utility.yul\":4248:4252   */\n      dup2\n        /* \"#utility.yul\":4244:4264   */\n      sub\n        /* \"#utility.yul\":4240:4241   */\n      0x00\n        /* \"#utility.yul\":4229:4238   */\n      dup4\n        /* \"#utility.yul\":4225:4242   */\n      add\n        /* \"#utility.yul\":4218:4265   */\n      mstore\n        /* \"#utility.yul\":4282:4413   */\n      tag_140\n        /* \"#utility.yul\":4408:4412   */\n      dup2\n        /* \"#utility.yul\":4282:4413   */\n      tag_86\n      jump\t// in\n    tag_140:\n        /* \"#utility.yul\":4274:4413   */\n      swap1\n      pop\n        /* \"#utility.yul\":4001:4420   */\n      swap2\n      swap1\n      pop\n      jump\t// out\n        /* \"#utility.yul\":4426:4620   */\n    tag_41:\n        /* \"#utility.yul\":4466:4470   */\n      0x00\n        /* \"#utility.yul\":4486:4506   */\n      tag_142\n        /* \"#utility.yul\":4504:4505   */\n      dup3\n        /* \"#utility.yul\":4486:4506   */\n      tag_78\n      jump\t// in\n    tag_142:\n        /* \"#utility.yul\":4481:4506   */\n      swap2\n      pop\n        /* \"#utility.yul\":4520:4540   */\n      tag_143\n        /* \"#utility.yul\":4538:4539   */\n      dup4\n        /* \"#utility.yul\":4520:4540   */\n      tag_78\n      jump\t// in\n    tag_143:\n        /* \"#utility.yul\":4515:4540   */\n      swap3\n      pop\n        /* \"#utility.yul\":4564:4565   */\n      dup3\n        /* \"#utility.yul\":4561:4562   */\n      dup3\n        /* \"#utility.yul\":4557:4566   */\n      sub\n        /* \"#utility.yul\":4549:4566   */\n      swap1\n      pop\n        /* \"#utility.yul\":4588:4589   */\n      dup2\n        /* \"#utility.yul\":4582:4586   */\n      dup2\n        /* \"#utility.yul\":4579:4590   */\n      gt\n        /* \"#utility.yul\":4576:4613   */\n      iszero\n      tag_144\n      jumpi\n        /* \"#utility.yul\":4593:4611   */\n      tag_145\n      tag_82\n      jump\t// in\n    tag_145:\n        /* \"#utility.yul\":4576:4613   */\n    tag_144:\n        /* \"#utility.yul\":4426:4620   */\n      swap3\n      swap2\n      pop\n      pop\n      jump\t// out\n        /* \"#utility.yul\":4626:4817   */\n    tag_44:\n        /* \"#utility.yul\":4666:4669   */\n      0x00\n        /* \"#utility.yul\":4685:4705   */\n      tag_147\n        /* \"#utility.yul\":4703:4704   */\n      dup3\n        /* \"#utility.yul\":4685:4705   */\n      tag_78\n      jump\t// in\n    tag_147:\n        /* \"#utility.yul\":4680:4705   */\n      swap2\n      pop\n        /* \"#utility.yul\":4719:4739   */\n      tag_148\n        /* \"#utility.yul\":4737:4738   */\n      dup4\n        /* \"#utility.yul\":4719:4739   */\n      tag_78\n      jump\t// in\n    tag_148:\n        /* \"#utility.yul\":4714:4739   */\n      swap3\n      pop\n        /* \"#utility.yul\":4762:4763   */\n      dup3\n        /* \"#utility.yul\":4759:4760   */\n      dup3\n        /* \"#utility.yul\":4755:4764   */\n      add\n        /* \"#utility.yul\":4748:4764   */\n      swap1\n      pop\n        /* \"#utility.yul\":4783:4786   */\n      dup1\n        /* \"#utility.yul\":4780:4781   */\n      dup3\n        /* \"#utility.yul\":4777:4787   */\n      gt\n        /* \"#utility.yul\":4774:4810   */\n      iszero\n      tag_149\n      jumpi\n        /* \"#utility.yul\":4790:4808   */\n      tag_150\n      tag_82\n      jump\t// in\n    tag_150:\n        /* \"#utility.yul\":4774:4810   */\n    tag_149:\n        /* \"#utility.yul\":4626:4817   */\n      swap3\n      swap2\n      pop\n      pop\n      jump\t// out\n        /* \"#utility.yul\":4823:4990   */\n    tag_87:\n        /* \"#utility.yul\":4963:4982   */\n      0x4e6f7420656e6f75676820746f6b656e73000000000000000000000000000000\n        /* \"#utility.yul\":4959:4960   */\n      0x00\n        /* \"#utility.yul\":4951:4957   */\n      dup3\n        /* \"#utility.yul\":4947:4961   */\n      add\n        /* \"#utility.yul\":4940:4983   */\n      mstore\n        /* \"#utility.yul\":4823:4990   */\n      pop\n      jump\t// out\n        /* \"#utility.yul\":4996:5362   */\n    tag_88:\n        /* \"#utility.yul\":5138:5141   */\n      0x00\n        /* \"#utility.yul\":5159:5226   */\n      tag_153\n        /* \"#utility.yul\":5223:5225   */\n      0x11\n        /* \"#utility.yul\":5218:5221   */\n      dup4\n        /* \"#utility.yul\":5159:5226   */\n      tag_84\n      jump\t// in\n    tag_153:\n        /* \"#utility.yul\":5152:5226   */\n      swap2\n      pop\n        /* \"#utility.yul\":5235:5328   */\n      tag_154\n        /* \"#utility.yul\":5324:5327   */\n      dup3\n        /* \"#utility.yul\":5235:5328   */\n      tag_87\n      jump\t// in\n    tag_154:\n        /* \"#utility.yul\":5353:5355   */\n      0x20\n        /* \"#utility.yul\":5348:5351   */\n      dup3\n        /* \"#utility.yul\":5344:5356   */\n      add\n        /* \"#utility.yul\":5337:5356   */\n      swap1\n      pop\n        /* \"#utility.yul\":4996:5362   */\n      swap2\n      swap1\n      pop\n      jump\t// out\n        /* \"#utility.yul\":5368:5787   */\n    tag_48:\n        /* \"#utility.yul\":5534:5538   */\n      0x00\n        /* \"#utility.yul\":5572:5574   */\n      0x20\n        /* \"#utility.yul\":5561:5570   */\n      dup3\n        /* \"#utility.yul\":5557:5575   */\n      add\n        /* \"#utility.yul\":5549:5575   */\n      swap1\n      pop\n        /* \"#utility.yul\":5621:5630   */\n      dup2\n        /* \"#utility.yul\":5615:5619   */\n      dup2\n        /* \"#utility.yul\":5611:5631   */\n      sub\n        /* \"#utility.yul\":5607:5608   */\n      0x00\n        /* \"#utility.yul\":5596:5605   */\n      dup4\n        /* \"#utility.yul\":5592:5609   */\n      add\n        /* \"#utility.yul\":5585:5632   */\n      mstore\n        /* \"#utility.yul\":5649:5780   */\n      tag_156\n        /* \"#utility.yul\":5775:5779   */\n      dup2\n        /* \"#utility.yul\":5649:5780   */\n      tag_88\n      jump\t// in\n    tag_156:\n        /* \"#utility.yul\":5641:5780   */\n      swap1\n      pop\n        /* \"#utility.yul\":5368:5787   */\n      swap2\n      swap1\n      pop\n      jump\t// out\n        /* \"#utility.yul\":5793:5973   */\n    tag_52:\n        /* \"#utility.yul\":5841:5918   */\n      0x4e487b7100000000000000000000000000000000000000000000000000000000\n        /* \"#utility.yul\":5838:5839   */\n      0x00\n        /* \"#utility.yul\":5831:5919   */\n      mstore\n        /* \"#utility.yul\":5938:5942   */\n      0x01\n        /* \"#utility.yul\":5935:5936   */\n      0x04\n        /* \"#utility.yul\":5928:5943   */\n      mstore\n        /* \"#utility.yul\":5962:5966   */\n      0x24\n        /* \"#utility.yul\":5959:5960   */\n      0x00\n        /* \"#utility.yul\":5952:5967   */\n      revert\n        /* \"#utility.yul\":5979:6148   */\n    tag_89:\n        /* \"#utility.yul\":6119:6140   */\n      0x596f7520617265206e6f7420616c6c6f77656400000000000000000000000000\n        /* \"#utility.yul\":6115:6116   */\n      0x00\n        /* \"#utility.yul\":6107:6113   */\n      dup3\n        /* \"#utility.yul\":6103:6117   */\n      add\n        /* \"#utility.yul\":6096:6141   */\n      mstore\n        /* \"#utility.yul\":5979:6148   */\n      pop\n      jump\t// out\n        /* \"#utility.yul\":6154:6520   */\n    tag_90:\n        /* \"#utility.yul\":6296:6299   */\n      0x00\n        /* \"#utility.yul\":6317:6384   */\n      tag_160\n        /* \"#utility.yul\":6381:6383   */\n      0x13\n        /* \"#utility.yul\":6376:6379   */\n      dup4\n        /* \"#utility.yul\":6317:6384   */\n      tag_84\n      jump\t// in\n    tag_160:\n        /* \"#utility.yul\":6310:6384   */\n      swap2\n      pop\n        /* \"#utility.yul\":6393:6486   */\n      tag_161\n        /* \"#utility.yul\":6482:6485   */\n      dup3\n        /* \"#utility.yul\":6393:6486   */\n      tag_89\n      jump\t// in\n    tag_161:\n        /* \"#utility.yul\":6511:6513   */\n      0x20\n        /* \"#utility.yul\":6506:6509   */\n      dup3\n        /* \"#utility.yul\":6502:6514   */\n      add\n        /* \"#utility.yul\":6495:6514   */\n      swap1\n      pop\n        /* \"#utility.yul\":6154:6520   */\n      swap2\n      swap1\n      pop\n      jump\t// out\n        /* \"#utility.yul\":6526:6945   */\n    tag_61:\n        /* \"#utility.yul\":6692:6696   */\n      0x00\n        /* \"#utility.yul\":6730:6732   */\n      0x20\n        /* \"#utility.yul\":6719:6728   */\n      dup3\n        /* \"#utility.yul\":6715:6733   */\n      add\n        /* \"#utility.yul\":6707:6733   */\n      swap1\n      pop\n        /* \"#utility.yul\":6779:6788   */\n      dup2\n        /* \"#utility.yul\":6773:6777   */\n      dup2\n        /* \"#utility.yul\":6769:6789   */\n      sub\n        /* \"#utility.yul\":6765:6766   */\n      0x00\n        /* \"#utility.yul\":6754:6763   */\n      dup4\n        /* \"#utility.yul\":6750:6767   */\n      add\n        /* \"#utility.yul\":6743:6790   */\n      mstore\n        /* \"#utility.yul\":6807:6938   */\n      tag_163\n        /* \"#utility.yul\":6933:6937   */\n      dup2\n        /* \"#utility.yul\":6807:6938   */\n      tag_90\n      jump\t// in\n    tag_163:\n        /* \"#utility.yul\":6799:6938   */\n      swap1\n      pop\n        /* \"#utility.yul\":6526:6945   */\n      swap2\n      swap1\n      pop\n      jump\t// out\n        /* \"#utility.yul\":6951:7184   */\n    tag_64:\n        /* \"#utility.yul\":6990:6993   */\n      0x00\n        /* \"#utility.yul\":7013:7037   */\n      tag_165\n        /* \"#utility.yul\":7031:7036   */\n      dup3\n        /* \"#utility.yul\":7013:7037   */\n      tag_78\n      jump\t// in\n    tag_165:\n        /* \"#utility.yul\":7004:7037   */\n      swap2\n      pop\n        /* \"#utility.yul\":7059:7125   */\n      0xffffffffffffffffffffffffffffffffffffffffffffffffffffffffffffffff\n        /* \"#utility.yul\":7052:7057   */\n      dup3\n        /* \"#utility.yul\":7049:7126   */\n      sub\n        /* \"#utility.yul\":7046:7149   */\n      tag_166\n      jumpi\n        /* \"#utility.yul\":7129:7147   */\n      tag_167\n      tag_82\n      jump\t// in\n    tag_167:\n        /* \"#utility.yul\":7046:7149   */\n    tag_166:\n        /* \"#utility.yul\":7176:7177   */\n      0x01\n        /* \"#utility.yul\":7169:7174   */\n      dup3\n        /* \"#utility.yul\":7165:7178   */\n      add\n        /* \"#utility.yul\":7158:7178   */\n      swap1\n      pop\n        /* \"#utility.yul\":6951:7184   */\n      swap2\n      swap1\n      pop\n      jump\t// out\n        /* \"#utility.yul\":7190:7361   */\n    tag_70:\n        /* \"#utility.yul\":7229:7232   */\n      0x00\n        /* \"#utility.yul\":7252:7276   */\n      tag_169\n        /* \"#utility.yul\":7270:7275   */\n      dup3\n        /* \"#utility.yul\":7252:7276   */\n      tag_78\n      jump\t// in\n    tag_169:\n        /* \"#utility.yul\":7243:7276   */\n      swap2\n      pop\n        /* \"#utility.yul\":7298:7302   */\n      0x00\n        /* \"#utility.yul\":7291:7296   */\n      dup3\n        /* \"#utility.yul\":7288:7303   */\n      sub\n        /* \"#utility.yul\":7285:7326   */\n      tag_170\n      jumpi\n        /* \"#utility.yul\":7306:7324   */\n      tag_171\n      tag_82\n      jump\t// in\n    tag_171:\n        /* \"#utility.yul\":7285:7326   */\n    tag_170:\n        /* \"#utility.yul\":7353:7354   */\n      0x01\n        /* \"#utility.yul\":7346:7351   */\n      dup3\n        /* \"#utility.yul\":7342:7355   */\n      sub\n        /* \"#utility.yul\":7335:7355   */\n      swap1\n      pop\n        /* \"#utility.yul\":7190:7361   */\n      swap2\n      swap1\n      pop\n      jump\t// out\n\n    auxdata: 0xa264697066735822122089074bcaded77499a85f672b086fb97175ff0972cb90580d5fe8fbf7686ccc9d64736f6c63430008100033\n}\n",
				"bytecode": {
					"linkReferences": {},
					"object": "6080604052670de0b6b3a764000060025534801561001c57600080fd5b50336000806101000a81548173ffffffffffffffffffffffffffffffffffffffff021916908373ffffffffffffffffffffffffffffffffffffffff1602179055506064600160008060009054906101000a900473ffffffffffffffffffffffffffffffffffffffff1673ffffffffffffffffffffffffffffffffffffffff1673ffffffffffffffffffffffffffffffffffffffff16815260200190815260200160002081905550610bda806100d26000396000f3fe60806040526004361061004e5760003560e01c8063412664ae14610062578063754fc38c1461008b578063a95c4d62146100a2578063eedc966a146100ac578063faa0a264146100e95761005d565b3661005d5761005b610100565b005b600080fd5b34801561006e57600080fd5b50610089600480360381019061008491906107c7565b6102a4565b005b34801561009757600080fd5b506100a061050a565b005b6100aa610100565b005b3480156100b857600080fd5b506100d360048036038101906100ce9190610807565b610610565b6040516100e09190610843565b60405180910390f35b3480156100f557600080fd5b506100fe610628565b005b600034600254600160008060009054906101000a900473ffffffffffffffffffffffffffffffffffffffff1673ffffffffffffffffffffffffffffffffffffffff1673ffffffffffffffffffffffffffffffffffffffff16815260200190815260200160002054610171919061088d565b61017b9190610916565b116101bb576040517f08c379a00000000000000000000000000000000000000000000000000000000081526004016101b2906109a4565b60405180910390fd5b600254346101c99190610916565b600160008060009054906101000a900473ffffffffffffffffffffffffffffffffffffffff1673ffffffffffffffffffffffffffffffffffffffff1673ffffffffffffffffffffffffffffffffffffffff168152602001908152602001600020600082825461023891906109c4565b925050819055506002543461024d9190610916565b600160003373ffffffffffffffffffffffffffffffffffffffff1673ffffffffffffffffffffffffffffffffffffffff168152602001908152602001600020600082825461029b91906109f8565b92505081905550565b80600160003373ffffffffffffffffffffffffffffffffffffffff1673ffffffffffffffffffffffffffffffffffffffff168152602001908152602001600020541015610326576040517f08c379a000000000000000000000000000000000000000000000000000000000815260040161031d90610a78565b60405180910390fd5b600160008373ffffffffffffffffffffffffffffffffffffffff1673ffffffffffffffffffffffffffffffffffffffff1681526020019081526020016000205481600160008573ffffffffffffffffffffffffffffffffffffffff1673ffffffffffffffffffffffffffffffffffffffff168152602001908152602001600020546103b191906109f8565b10156103c0576103bf610a98565b5b600160003373ffffffffffffffffffffffffffffffffffffffff1673ffffffffffffffffffffffffffffffffffffffff1681526020019081526020016000205481600160003373ffffffffffffffffffffffffffffffffffffffff1673ffffffffffffffffffffffffffffffffffffffff1681526020019081526020016000205461044b91906109c4565b111561045a57610459610a98565b5b80600160003373ffffffffffffffffffffffffffffffffffffffff1673ffffffffffffffffffffffffffffffffffffffff16815260200190815260200160002060008282546104a991906109c4565b9250508190555080600160008473ffffffffffffffffffffffffffffffffffffffff1673ffffffffffffffffffffffffffffffffffffffff16815260200190815260200160002060008282546104ff91906109f8565b925050819055505050565b60008054906101000a900473ffffffffffffffffffffffffffffffffffffffff1673ffffffffffffffffffffffffffffffffffffffff163373ffffffffffffffffffffffffffffffffffffffff1614610598576040517f08c379a000000000000000000000000000000000000000000000000000000000815260040161058f90610b13565b60405180910390fd5b600160008060009054906101000a900473ffffffffffffffffffffffffffffffffffffffff1673ffffffffffffffffffffffffffffffffffffffff1673ffffffffffffffffffffffffffffffffffffffff168152602001908152602001600020600081548092919061060990610b33565b9190505550565b60016020528060005260406000206000915090505481565b60008054906101000a900473ffffffffffffffffffffffffffffffffffffffff1673ffffffffffffffffffffffffffffffffffffffff163373ffffffffffffffffffffffffffffffffffffffff16146106b6576040517f08c379a00000000000000000000000000000000000000000000000000000000081526004016106ad90610b13565b60405180910390fd5b600160008060009054906101000a900473ffffffffffffffffffffffffffffffffffffffff1673ffffffffffffffffffffffffffffffffffffffff1673ffffffffffffffffffffffffffffffffffffffff168152602001908152602001600020600081548092919061072790610b7b565b9190505550565b600080fd5b600073ffffffffffffffffffffffffffffffffffffffff82169050919050565b600061075e82610733565b9050919050565b61076e81610753565b811461077957600080fd5b50565b60008135905061078b81610765565b92915050565b6000819050919050565b6107a481610791565b81146107af57600080fd5b50565b6000813590506107c18161079b565b92915050565b600080604083850312156107de576107dd61072e565b5b60006107ec8582860161077c565b92505060206107fd858286016107b2565b9150509250929050565b60006020828403121561081d5761081c61072e565b5b600061082b8482850161077c565b91505092915050565b61083d81610791565b82525050565b60006020820190506108586000830184610834565b92915050565b7f4e487b7100000000000000000000000000000000000000000000000000000000600052601160045260246000fd5b600061089882610791565b91506108a383610791565b9250817fffffffffffffffffffffffffffffffffffffffffffffffffffffffffffffffff04831182151516156108dc576108db61085e565b5b828202905092915050565b7f4e487b7100000000000000000000000000000000000000000000000000000000600052601260045260246000fd5b600061092182610791565b915061092c83610791565b92508261093c5761093b6108e7565b5b828204905092915050565b600082825260208201905092915050565b7f6e6f7420656e6f75676820746f6b656e73000000000000000000000000000000600082015250565b600061098e601183610947565b915061099982610958565b602082019050919050565b600060208201905081810360008301526109bd81610981565b9050919050565b60006109cf82610791565b91506109da83610791565b92508282039050818111156109f2576109f161085e565b5b92915050565b6000610a0382610791565b9150610a0e83610791565b9250828201905080821115610a2657610a2561085e565b5b92915050565b7f4e6f7420656e6f75676820746f6b656e73000000000000000000000000000000600082015250565b6000610a62601183610947565b9150610a6d82610a2c565b602082019050919050565b60006020820190508181036000830152610a9181610a55565b9050919050565b7f4e487b7100000000000000000000000000000000000000000000000000000000600052600160045260246000fd5b7f596f7520617265206e6f7420616c6c6f77656400000000000000000000000000600082015250565b6000610afd601383610947565b9150610b0882610ac7565b602082019050919050565b60006020820190508181036000830152610b2c81610af0565b9050919050565b6000610b3e82610791565b91507fffffffffffffffffffffffffffffffffffffffffffffffffffffffffffffffff8203610b7057610b6f61085e565b5b600182019050919050565b6000610b8682610791565b915060008203610b9957610b9861085e565b5b60018203905091905056fea264697066735822122089074bcaded77499a85f672b086fb97175ff0972cb90580d5fe8fbf7686ccc9d64736f6c63430008100033",
					"opcodes": "PUSH1 0x80 PUSH1 0x40 MSTORE PUSH8 0xDE0B6B3A7640000 PUSH1 0x2 SSTORE CALLVALUE DUP1 ISZERO PUSH2 0x1C JUMPI PUSH1 0x0 DUP1 REVERT JUMPDEST POP CALLER PUSH1 0x0 DUP1 PUSH2 0x100 EXP DUP2 SLOAD DUP2 PUSH20 0xFFFFFFFFFFFFFFFFFFFFFFFFFFFFFFFFFFFFFFFF MUL NOT AND SWAP1 DUP4 PUSH20 0xFFFFFFFFFFFFFFFFFFFFFFFFFFFFFFFFFFFFFFFF AND MUL OR SWAP1 SSTORE POP PUSH1 0x64 PUSH1 0x1 PUSH1 0x0 DUP1 PUSH1 0x0 SWAP1 SLOAD SWAP1 PUSH2 0x100 EXP SWAP1 DIV PUSH20 0xFFFFFFFFFFFFFFFFFFFFFFFFFFFFFFFFFFFFFFFF AND PUSH20 0xFFFFFFFFFFFFFFFFFFFFFFFFFFFFFFFFFFFFFFFF AND PUSH20 0xFFFFFFFFFFFFFFFFFFFFFFFFFFFFFFFFFFFFFFFF AND DUP2 MSTORE PUSH1 0x20 ADD SWAP1 DUP2 MSTORE PUSH1 0x20 ADD PUSH1 0x0 KECCAK256 DUP2 SWAP1 SSTORE POP PUSH2 0xBDA DUP1 PUSH2 0xD2 PUSH1 0x0 CODECOPY PUSH1 0x0 RETURN INVALID PUSH1 0x80 PUSH1 0x40 MSTORE PUSH1 0x4 CALLDATASIZE LT PUSH2 0x4E JUMPI PUSH1 0x0 CALLDATALOAD PUSH1 0xE0 SHR DUP1 PUSH4 0x412664AE EQ PUSH2 0x62 JUMPI DUP1 PUSH4 0x754FC38C EQ PUSH2 0x8B JUMPI DUP1 PUSH4 0xA95C4D62 EQ PUSH2 0xA2 JUMPI DUP1 PUSH4 0xEEDC966A EQ PUSH2 0xAC JUMPI DUP1 PUSH4 0xFAA0A264 EQ PUSH2 0xE9 JUMPI PUSH2 0x5D JUMP JUMPDEST CALLDATASIZE PUSH2 0x5D JUMPI PUSH2 0x5B PUSH2 0x100 JUMP JUMPDEST STOP JUMPDEST PUSH1 0x0 DUP1 REVERT JUMPDEST CALLVALUE DUP1 ISZERO PUSH2 0x6E JUMPI PUSH1 0x0 DUP1 REVERT JUMPDEST POP PUSH2 0x89 PUSH1 0x4 DUP1 CALLDATASIZE SUB DUP2 ADD SWAP1 PUSH2 0x84 SWAP2 SWAP1 PUSH2 0x7C7 JUMP JUMPDEST PUSH2 0x2A4 JUMP JUMPDEST STOP JUMPDEST CALLVALUE DUP1 ISZERO PUSH2 0x97 JUMPI PUSH1 0x0 DUP1 REVERT JUMPDEST POP PUSH2 0xA0 PUSH2 0x50A JUMP JUMPDEST STOP JUMPDEST PUSH2 0xAA PUSH2 0x100 JUMP JUMPDEST STOP JUMPDEST CALLVALUE DUP1 ISZERO PUSH2 0xB8 JUMPI PUSH1 0x0 DUP1 REVERT JUMPDEST POP PUSH2 0xD3 PUSH1 0x4 DUP1 CALLDATASIZE SUB DUP2 ADD SWAP1 PUSH2 0xCE SWAP2 SWAP1 PUSH2 0x807 JUMP JUMPDEST PUSH2 0x610 JUMP JUMPDEST PUSH1 0x40 MLOAD PUSH2 0xE0 SWAP2 SWAP1 PUSH2 0x843 JUMP JUMPDEST PUSH1 0x40 MLOAD DUP1 SWAP2 SUB SWAP1 RETURN JUMPDEST CALLVALUE DUP1 ISZERO PUSH2 0xF5 JUMPI PUSH1 0x0 DUP1 REVERT JUMPDEST POP PUSH2 0xFE PUSH2 0x628 JUMP JUMPDEST STOP JUMPDEST PUSH1 0x0 CALLVALUE PUSH1 0x2 SLOAD PUSH1 0x1 PUSH1 0x0 DUP1 PUSH1 0x0 SWAP1 SLOAD SWAP1 PUSH2 0x100 EXP SWAP1 DIV PUSH20 0xFFFFFFFFFFFFFFFFFFFFFFFFFFFFFFFFFFFFFFFF AND PUSH20 0xFFFFFFFFFFFFFFFFFFFFFFFFFFFFFFFFFFFFFFFF AND PUSH20 0xFFFFFFFFFFFFFFFFFFFFFFFFFFFFFFFFFFFFFFFF AND DUP2 MSTORE PUSH1 0x20 ADD SWAP1 DUP2 MSTORE PUSH1 0x20 ADD PUSH1 0x0 KECCAK256 SLOAD PUSH2 0x171 SWAP2 SWAP1 PUSH2 0x88D JUMP JUMPDEST PUSH2 0x17B SWAP2 SWAP1 PUSH2 0x916 JUMP JUMPDEST GT PUSH2 0x1BB JUMPI PUSH1 0x40 MLOAD PUSH32 0x8C379A000000000000000000000000000000000000000000000000000000000 DUP2 MSTORE PUSH1 0x4 ADD PUSH2 0x1B2 SWAP1 PUSH2 0x9A4 JUMP JUMPDEST PUSH1 0x40 MLOAD DUP1 SWAP2 SUB SWAP1 REVERT JUMPDEST PUSH1 0x2 SLOAD CALLVALUE PUSH2 0x1C9 SWAP2 SWAP1 PUSH2 0x916 JUMP JUMPDEST PUSH1 0x1 PUSH1 0x0 DUP1 PUSH1 0x0 SWAP1 SLOAD SWAP1 PUSH2 0x100 EXP SWAP1 DIV PUSH20 0xFFFFFFFFFFFFFFFFFFFFFFFFFFFFFFFFFFFFFFFF AND PUSH20 0xFFFFFFFFFFFFFFFFFFFFFFFFFFFFFFFFFFFFFFFF AND PUSH20 0xFFFFFFFFFFFFFFFFFFFFFFFFFFFFFFFFFFFFFFFF AND DUP2 MSTORE PUSH1 0x20 ADD SWAP1 DUP2 MSTORE PUSH1 0x20 ADD PUSH1 0x0 KECCAK256 PUSH1 0x0 DUP3 DUP3 SLOAD PUSH2 0x238 SWAP2 SWAP1 PUSH2 0x9C4 JUMP JUMPDEST SWAP3 POP POP DUP2 SWAP1 SSTORE POP PUSH1 0x2 SLOAD CALLVALUE PUSH2 0x24D SWAP2 SWAP1 PUSH2 0x916 JUMP JUMPDEST PUSH1 0x1 PUSH1 0x0 CALLER PUSH20 0xFFFFFFFFFFFFFFFFFFFFFFFFFFFFFFFFFFFFFFFF AND PUSH20 0xFFFFFFFFFFFFFFFFFFFFFFFFFFFFFFFFFFFFFFFF AND DUP2 MSTORE PUSH1 0x20 ADD SWAP1 DUP2 MSTORE PUSH1 0x20 ADD PUSH1 0x0 KECCAK256 PUSH1 0x0 DUP3 DUP3 SLOAD PUSH2 0x29B SWAP2 SWAP1 PUSH2 0x9F8 JUMP JUMPDEST SWAP3 POP POP DUP2 SWAP1 SSTORE POP JUMP JUMPDEST DUP1 PUSH1 0x1 PUSH1 0x0 CALLER PUSH20 0xFFFFFFFFFFFFFFFFFFFFFFFFFFFFFFFFFFFFFFFF AND PUSH20 0xFFFFFFFFFFFFFFFFFFFFFFFFFFFFFFFFFFFFFFFF AND DUP2 MSTORE PUSH1 0x20 ADD SWAP1 DUP2 MSTORE PUSH1 0x20 ADD PUSH1 0x0 KECCAK256 SLOAD LT ISZERO PUSH2 0x326 JUMPI PUSH1 0x40 MLOAD PUSH32 0x8C379A000000000000000000000000000000000000000000000000000000000 DUP2 MSTORE PUSH1 0x4 ADD PUSH2 0x31D SWAP1 PUSH2 0xA78 JUMP JUMPDEST PUSH1 0x40 MLOAD DUP1 SWAP2 SUB SWAP1 REVERT JUMPDEST PUSH1 0x1 PUSH1 0x0 DUP4 PUSH20 0xFFFFFFFFFFFFFFFFFFFFFFFFFFFFFFFFFFFFFFFF AND PUSH20 0xFFFFFFFFFFFFFFFFFFFFFFFFFFFFFFFFFFFFFFFF AND DUP2 MSTORE PUSH1 0x20 ADD SWAP1 DUP2 MSTORE PUSH1 0x20 ADD PUSH1 0x0 KECCAK256 SLOAD DUP2 PUSH1 0x1 PUSH1 0x0 DUP6 PUSH20 0xFFFFFFFFFFFFFFFFFFFFFFFFFFFFFFFFFFFFFFFF AND PUSH20 0xFFFFFFFFFFFFFFFFFFFFFFFFFFFFFFFFFFFFFFFF AND DUP2 MSTORE PUSH1 0x20 ADD SWAP1 DUP2 MSTORE PUSH1 0x20 ADD PUSH1 0x0 KECCAK256 SLOAD PUSH2 0x3B1 SWAP2 SWAP1 PUSH2 0x9F8 JUMP JUMPDEST LT ISZERO PUSH2 0x3C0 JUMPI PUSH2 0x3BF PUSH2 0xA98 JUMP JUMPDEST JUMPDEST PUSH1 0x1 PUSH1 0x0 CALLER PUSH20 0xFFFFFFFFFFFFFFFFFFFFFFFFFFFFFFFFFFFFFFFF AND PUSH20 0xFFFFFFFFFFFFFFFFFFFFFFFFFFFFFFFFFFFFFFFF AND DUP2 MSTORE PUSH1 0x20 ADD SWAP1 DUP2 MSTORE PUSH1 0x20 ADD PUSH1 0x0 KECCAK256 SLOAD DUP2 PUSH1 0x1 PUSH1 0x0 CALLER PUSH20 0xFFFFFFFFFFFFFFFFFFFFFFFFFFFFFFFFFFFFFFFF AND PUSH20 0xFFFFFFFFFFFFFFFFFFFFFFFFFFFFFFFFFFFFFFFF AND DUP2 MSTORE PUSH1 0x20 ADD SWAP1 DUP2 MSTORE PUSH1 0x20 ADD PUSH1 0x0 KECCAK256 SLOAD PUSH2 0x44B SWAP2 SWAP1 PUSH2 0x9C4 JUMP JUMPDEST GT ISZERO PUSH2 0x45A JUMPI PUSH2 0x459 PUSH2 0xA98 JUMP JUMPDEST JUMPDEST DUP1 PUSH1 0x1 PUSH1 0x0 CALLER PUSH20 0xFFFFFFFFFFFFFFFFFFFFFFFFFFFFFFFFFFFFFFFF AND PUSH20 0xFFFFFFFFFFFFFFFFFFFFFFFFFFFFFFFFFFFFFFFF AND DUP2 MSTORE PUSH1 0x20 ADD SWAP1 DUP2 MSTORE PUSH1 0x20 ADD PUSH1 0x0 KECCAK256 PUSH1 0x0 DUP3 DUP3 SLOAD PUSH2 0x4A9 SWAP2 SWAP1 PUSH2 0x9C4 JUMP JUMPDEST SWAP3 POP POP DUP2 SWAP1 SSTORE POP DUP1 PUSH1 0x1 PUSH1 0x0 DUP5 PUSH20 0xFFFFFFFFFFFFFFFFFFFFFFFFFFFFFFFFFFFFFFFF AND PUSH20 0xFFFFFFFFFFFFFFFFFFFFFFFFFFFFFFFFFFFFFFFF AND DUP2 MSTORE PUSH1 0x20 ADD SWAP1 DUP2 MSTORE PUSH1 0x20 ADD PUSH1 0x0 KECCAK256 PUSH1 0x0 DUP3 DUP3 SLOAD PUSH2 0x4FF SWAP2 SWAP1 PUSH2 0x9F8 JUMP JUMPDEST SWAP3 POP POP DUP2 SWAP1 SSTORE POP POP POP JUMP JUMPDEST PUSH1 0x0 DUP1 SLOAD SWAP1 PUSH2 0x100 EXP SWAP1 DIV PUSH20 0xFFFFFFFFFFFFFFFFFFFFFFFFFFFFFFFFFFFFFFFF AND PUSH20 0xFFFFFFFFFFFFFFFFFFFFFFFFFFFFFFFFFFFFFFFF AND CALLER PUSH20 0xFFFFFFFFFFFFFFFFFFFFFFFFFFFFFFFFFFFFFFFF AND EQ PUSH2 0x598 JUMPI PUSH1 0x40 MLOAD PUSH32 0x8C379A000000000000000000000000000000000000000000000000000000000 DUP2 MSTORE PUSH1 0x4 ADD PUSH2 0x58F SWAP1 PUSH2 0xB13 JUMP JUMPDEST PUSH1 0x40 MLOAD DUP1 SWAP2 SUB SWAP1 REVERT JUMPDEST PUSH1 0x1 PUSH1 0x0 DUP1 PUSH1 0x0 SWAP1 SLOAD SWAP1 PUSH2 0x100 EXP SWAP1 DIV PUSH20 0xFFFFFFFFFFFFFFFFFFFFFFFFFFFFFFFFFFFFFFFF AND PUSH20 0xFFFFFFFFFFFFFFFFFFFFFFFFFFFFFFFFFFFFFFFF AND PUSH20 0xFFFFFFFFFFFFFFFFFFFFFFFFFFFFFFFFFFFFFFFF AND DUP2 MSTORE PUSH1 0x20 ADD SWAP1 DUP2 MSTORE PUSH1 0x20 ADD PUSH1 0x0 KECCAK256 PUSH1 0x0 DUP2 SLOAD DUP1 SWAP3 SWAP2 SWAP1 PUSH2 0x609 SWAP1 PUSH2 0xB33 JUMP JUMPDEST SWAP2 SWAP1 POP SSTORE POP JUMP JUMPDEST PUSH1 0x1 PUSH1 0x20 MSTORE DUP1 PUSH1 0x0 MSTORE PUSH1 0x40 PUSH1 0x0 KECCAK256 PUSH1 0x0 SWAP2 POP SWAP1 POP SLOAD DUP2 JUMP JUMPDEST PUSH1 0x0 DUP1 SLOAD SWAP1 PUSH2 0x100 EXP SWAP1 DIV PUSH20 0xFFFFFFFFFFFFFFFFFFFFFFFFFFFFFFFFFFFFFFFF AND PUSH20 0xFFFFFFFFFFFFFFFFFFFFFFFFFFFFFFFFFFFFFFFF AND CALLER PUSH20 0xFFFFFFFFFFFFFFFFFFFFFFFFFFFFFFFFFFFFFFFF AND EQ PUSH2 0x6B6 JUMPI PUSH1 0x40 MLOAD PUSH32 0x8C379A000000000000000000000000000000000000000000000000000000000 DUP2 MSTORE PUSH1 0x4 ADD PUSH2 0x6AD SWAP1 PUSH2 0xB13 JUMP JUMPDEST PUSH1 0x40 MLOAD DUP1 SWAP2 SUB SWAP1 REVERT JUMPDEST PUSH1 0x1 PUSH1 0x0 DUP1 PUSH1 0x0 SWAP1 SLOAD SWAP1 PUSH2 0x100 EXP SWAP1 DIV PUSH20 0xFFFFFFFFFFFFFFFFFFFFFFFFFFFFFFFFFFFFFFFF AND PUSH20 0xFFFFFFFFFFFFFFFFFFFFFFFFFFFFFFFFFFFFFFFF AND PUSH20 0xFFFFFFFFFFFFFFFFFFFFFFFFFFFFFFFFFFFFFFFF AND DUP2 MSTORE PUSH1 0x20 ADD SWAP1 DUP2 MSTORE PUSH1 0x20 ADD PUSH1 0x0 KECCAK256 PUSH1 0x0 DUP2 SLOAD DUP1 SWAP3 SWAP2 SWAP1 PUSH2 0x727 SWAP1 PUSH2 0xB7B JUMP JUMPDEST SWAP2 SWAP1 POP SSTORE POP JUMP JUMPDEST PUSH1 0x0 DUP1 REVERT JUMPDEST PUSH1 0x0 PUSH20 0xFFFFFFFFFFFFFFFFFFFFFFFFFFFFFFFFFFFFFFFF DUP3 AND SWAP1 POP SWAP2 SWAP1 POP JUMP JUMPDEST PUSH1 0x0 PUSH2 0x75E DUP3 PUSH2 0x733 JUMP JUMPDEST SWAP1 POP SWAP2 SWAP1 POP JUMP JUMPDEST PUSH2 0x76E DUP2 PUSH2 0x753 JUMP JUMPDEST DUP2 EQ PUSH2 0x779 JUMPI PUSH1 0x0 DUP1 REVERT JUMPDEST POP JUMP JUMPDEST PUSH1 0x0 DUP2 CALLDATALOAD SWAP1 POP PUSH2 0x78B DUP2 PUSH2 0x765 JUMP JUMPDEST SWAP3 SWAP2 POP POP JUMP JUMPDEST PUSH1 0x0 DUP2 SWAP1 POP SWAP2 SWAP1 POP JUMP JUMPDEST PUSH2 0x7A4 DUP2 PUSH2 0x791 JUMP JUMPDEST DUP2 EQ PUSH2 0x7AF JUMPI PUSH1 0x0 DUP1 REVERT JUMPDEST POP JUMP JUMPDEST PUSH1 0x0 DUP2 CALLDATALOAD SWAP1 POP PUSH2 0x7C1 DUP2 PUSH2 0x79B JUMP JUMPDEST SWAP3 SWAP2 POP POP JUMP JUMPDEST PUSH1 0x0 DUP1 PUSH1 0x40 DUP4 DUP6 SUB SLT ISZERO PUSH2 0x7DE JUMPI PUSH2 0x7DD PUSH2 0x72E JUMP JUMPDEST JUMPDEST PUSH1 0x0 PUSH2 0x7EC DUP6 DUP3 DUP7 ADD PUSH2 0x77C JUMP JUMPDEST SWAP3 POP POP PUSH1 0x20 PUSH2 0x7FD DUP6 DUP3 DUP7 ADD PUSH2 0x7B2 JUMP JUMPDEST SWAP2 POP POP SWAP3 POP SWAP3 SWAP1 POP JUMP JUMPDEST PUSH1 0x0 PUSH1 0x20 DUP3 DUP5 SUB SLT ISZERO PUSH2 0x81D JUMPI PUSH2 0x81C PUSH2 0x72E JUMP JUMPDEST JUMPDEST PUSH1 0x0 PUSH2 0x82B DUP5 DUP3 DUP6 ADD PUSH2 0x77C JUMP JUMPDEST SWAP2 POP POP SWAP3 SWAP2 POP POP JUMP JUMPDEST PUSH2 0x83D DUP2 PUSH2 0x791 JUMP JUMPDEST DUP3 MSTORE POP POP JUMP JUMPDEST PUSH1 0x0 PUSH1 0x20 DUP3 ADD SWAP1 POP PUSH2 0x858 PUSH1 0x0 DUP4 ADD DUP5 PUSH2 0x834 JUMP JUMPDEST SWAP3 SWAP2 POP POP JUMP JUMPDEST PUSH32 0x4E487B7100000000000000000000000000000000000000000000000000000000 PUSH1 0x0 MSTORE PUSH1 0x11 PUSH1 0x4 MSTORE PUSH1 0x24 PUSH1 0x0 REVERT JUMPDEST PUSH1 0x0 PUSH2 0x898 DUP3 PUSH2 0x791 JUMP JUMPDEST SWAP2 POP PUSH2 0x8A3 DUP4 PUSH2 0x791 JUMP JUMPDEST SWAP3 POP DUP2 PUSH32 0xFFFFFFFFFFFFFFFFFFFFFFFFFFFFFFFFFFFFFFFFFFFFFFFFFFFFFFFFFFFFFFFF DIV DUP4 GT DUP3 ISZERO ISZERO AND ISZERO PUSH2 0x8DC JUMPI PUSH2 0x8DB PUSH2 0x85E JUMP JUMPDEST JUMPDEST DUP3 DUP3 MUL SWAP1 POP SWAP3 SWAP2 POP POP JUMP JUMPDEST PUSH32 0x4E487B7100000000000000000000000000000000000000000000000000000000 PUSH1 0x0 MSTORE PUSH1 0x12 PUSH1 0x4 MSTORE PUSH1 0x24 PUSH1 0x0 REVERT JUMPDEST PUSH1 0x0 PUSH2 0x921 DUP3 PUSH2 0x791 JUMP JUMPDEST SWAP2 POP PUSH2 0x92C DUP4 PUSH2 0x791 JUMP JUMPDEST SWAP3 POP DUP3 PUSH2 0x93C JUMPI PUSH2 0x93B PUSH2 0x8E7 JUMP JUMPDEST JUMPDEST DUP3 DUP3 DIV SWAP1 POP SWAP3 SWAP2 POP POP JUMP JUMPDEST PUSH1 0x0 DUP3 DUP3 MSTORE PUSH1 0x20 DUP3 ADD SWAP1 POP SWAP3 SWAP2 POP POP JUMP JUMPDEST PUSH32 0x6E6F7420656E6F75676820746F6B656E73000000000000000000000000000000 PUSH1 0x0 DUP3 ADD MSTORE POP JUMP JUMPDEST PUSH1 0x0 PUSH2 0x98E PUSH1 0x11 DUP4 PUSH2 0x947 JUMP JUMPDEST SWAP2 POP PUSH2 0x999 DUP3 PUSH2 0x958 JUMP JUMPDEST PUSH1 0x20 DUP3 ADD SWAP1 POP SWAP2 SWAP1 POP JUMP JUMPDEST PUSH1 0x0 PUSH1 0x20 DUP3 ADD SWAP1 POP DUP2 DUP2 SUB PUSH1 0x0 DUP4 ADD MSTORE PUSH2 0x9BD DUP2 PUSH2 0x981 JUMP JUMPDEST SWAP1 POP SWAP2 SWAP1 POP JUMP JUMPDEST PUSH1 0x0 PUSH2 0x9CF DUP3 PUSH2 0x791 JUMP JUMPDEST SWAP2 POP PUSH2 0x9DA DUP4 PUSH2 0x791 JUMP JUMPDEST SWAP3 POP DUP3 DUP3 SUB SWAP1 POP DUP2 DUP2 GT ISZERO PUSH2 0x9F2 JUMPI PUSH2 0x9F1 PUSH2 0x85E JUMP JUMPDEST JUMPDEST SWAP3 SWAP2 POP POP JUMP JUMPDEST PUSH1 0x0 PUSH2 0xA03 DUP3 PUSH2 0x791 JUMP JUMPDEST SWAP2 POP PUSH2 0xA0E DUP4 PUSH2 0x791 JUMP JUMPDEST SWAP3 POP DUP3 DUP3 ADD SWAP1 POP DUP1 DUP3 GT ISZERO PUSH2 0xA26 JUMPI PUSH2 0xA25 PUSH2 0x85E JUMP JUMPDEST JUMPDEST SWAP3 SWAP2 POP POP JUMP JUMPDEST PUSH32 0x4E6F7420656E6F75676820746F6B656E73000000000000000000000000000000 PUSH1 0x0 DUP3 ADD MSTORE POP JUMP JUMPDEST PUSH1 0x0 PUSH2 0xA62 PUSH1 0x11 DUP4 PUSH2 0x947 JUMP JUMPDEST SWAP2 POP PUSH2 0xA6D DUP3 PUSH2 0xA2C JUMP JUMPDEST PUSH1 0x20 DUP3 ADD SWAP1 POP SWAP2 SWAP1 POP JUMP JUMPDEST PUSH1 0x0 PUSH1 0x20 DUP3 ADD SWAP1 POP DUP2 DUP2 SUB PUSH1 0x0 DUP4 ADD MSTORE PUSH2 0xA91 DUP2 PUSH2 0xA55 JUMP JUMPDEST SWAP1 POP SWAP2 SWAP1 POP JUMP JUMPDEST PUSH32 0x4E487B7100000000000000000000000000000000000000000000000000000000 PUSH1 0x0 MSTORE PUSH1 0x1 PUSH1 0x4 MSTORE PUSH1 0x24 PUSH1 0x0 REVERT JUMPDEST PUSH32 0x596F7520617265206E6F7420616C6C6F77656400000000000000000000000000 PUSH1 0x0 DUP3 ADD MSTORE POP JUMP JUMPDEST PUSH1 0x0 PUSH2 0xAFD PUSH1 0x13 DUP4 PUSH2 0x947 JUMP JUMPDEST SWAP2 POP PUSH2 0xB08 DUP3 PUSH2 0xAC7 JUMP JUMPDEST PUSH1 0x20 DUP3 ADD SWAP1 POP SWAP2 SWAP1 POP JUMP JUMPDEST PUSH1 0x0 PUSH1 0x20 DUP3 ADD SWAP1 POP DUP2 DUP2 SUB PUSH1 0x0 DUP4 ADD MSTORE PUSH2 0xB2C DUP2 PUSH2 0xAF0 JUMP JUMPDEST SWAP1 POP SWAP2 SWAP1 POP JUMP JUMPDEST PUSH1 0x0 PUSH2 0xB3E DUP3 PUSH2 0x791 JUMP JUMPDEST SWAP2 POP PUSH32 0xFFFFFFFFFFFFFFFFFFFFFFFFFFFFFFFFFFFFFFFFFFFFFFFFFFFFFFFFFFFFFFFF DUP3 SUB PUSH2 0xB70 JUMPI PUSH2 0xB6F PUSH2 0x85E JUMP JUMPDEST JUMPDEST PUSH1 0x1 DUP3 ADD SWAP1 POP SWAP2 SWAP1 POP JUMP JUMPDEST PUSH1 0x0 PUSH2 0xB86 DUP3 PUSH2 0x791 JUMP JUMPDEST SWAP2 POP PUSH1 0x0 DUP3 SUB PUSH2 0xB99 JUMPI PUSH2 0xB98 PUSH2 0x85E JUMP JUMPDEST JUMPDEST PUSH1 0x1 DUP3 SUB SWAP1 POP SWAP2 SWAP1 POP JUMP INVALID LOG2 PUSH5 0x6970667358 0x22 SLT KECCAK256 DUP10 SMOD 0x4B 0xCA 0xDE 0xD7 PUSH21 0x99A85F672B086FB97175FF0972CB90580D5FE8FBF7 PUSH9 0x6CCC9D64736F6C6343 STOP ADDMOD LT STOP CALLER "
				},
				"gasEstimates": {
					"creation": {
						"codeDepositCost": "606800",
						"executionCost": "71350",
						"totalCost": "678150"
					},
					"external": {
						"burnToken()": "28960",
						"createNewToken()": "28894",
						"purchaseToken()": "infinite",
						"sendToken(address,uint256)": "infinite",
						"tokenBalance(address)": "2858"
					}
				},
				"methodIdentifiers": {
					"burnToken()": "faa0a264",
					"createNewToken()": "754fc38c",
					"purchaseToken()": "a95c4d62",
					"sendToken(address,uint256)": "412664ae",
					"tokenBalance(address)": "eedc966a"
				}
			},
			"storageLayout": {
				"storage": [
					{
						"astId": 3,
						"contract": "MyInheritanceExample.sol:InheritanceModifierExample",
						"label": "owner",
						"offset": 0,
						"slot": "0",
						"type": "t_address"
					},
					{
						"astId": 31,
						"contract": "MyInheritanceExample.sol:InheritanceModifierExample",
						"label": "tokenBalance",
						"offset": 0,
						"slot": "1",
						"type": "t_mapping(t_address,t_uint256)"
					},
					{
						"astId": 34,
						"contract": "MyInheritanceExample.sol:InheritanceModifierExample",
						"label": "tokenPrice",
						"offset": 0,
						"slot": "2",
						"type": "t_uint256"
					}
				],
				"types": {
					"t_address": {
						"encoding": "inplace",
						"label": "address",
						"numberOfBytes": "20"
					},
					"t_mapping(t_address,t_uint256)": {
						"encoding": "mapping",
						"key": "t_address",
						"label": "mapping(address => uint256)",
						"numberOfBytes": "32",
						"value": "t_uint256"
					},
					"t_uint256": {
						"encoding": "inplace",
						"label": "uint256",
						"numberOfBytes": "32"
					}
				}
			},
			"userdoc": {
				"kind": "user",
				"methods": {},
				"version": 1
			}
		}
	}
}