{
	"MyProjectSharedWallet.sol": {
		"SharedWallet": {
			"abi": [
				{
					"inputs": [],
					"stateMutability": "nonpayable",
					"type": "constructor"
				},
				{
					"inputs": [
						{
							"internalType": "address payable",
							"name": "_to",
							"type": "address"
						},
						{
							"internalType": "uint256",
							"name": "_amount",
							"type": "uint256"
						}
					],
					"name": "ClaimMoney",
					"outputs": [],
					"stateMutability": "nonpayable",
					"type": "function"
				},
				{
					"inputs": [],
					"name": "SendMoney",
					"outputs": [],
					"stateMutability": "payable",
					"type": "function"
				},
				{
					"inputs": [
						{
							"internalType": "address",
							"name": "_beneficiary",
							"type": "address"
						},
						{
							"internalType": "uint256",
							"name": "_allowancePercentage",
							"type": "uint256"
						}
					],
					"name": "SetAllowance",
					"outputs": [],
					"stateMutability": "nonpayable",
					"type": "function"
				},
				{
					"inputs": [
						{
							"internalType": "address",
							"name": "",
							"type": "address"
						}
					],
					"name": "beneficiaries",
					"outputs": [
						{
							"internalType": "uint256",
							"name": "allowance",
							"type": "uint256"
						},
						{
							"internalType": "uint256",
							"name": "claimsMade",
							"type": "uint256"
						}
					],
					"stateMutability": "view",
					"type": "function"
				},
				{
					"inputs": [],
					"name": "contractBalance",
					"outputs": [
						{
							"internalType": "uint256",
							"name": "",
							"type": "uint256"
						}
					],
					"stateMutability": "view",
					"type": "function"
				},
				{
					"inputs": [],
					"name": "owner",
					"outputs": [
						{
							"internalType": "address",
							"name": "",
							"type": "address"
						}
					],
					"stateMutability": "view",
					"type": "function"
				},
				{
					"inputs": [],
					"name": "totalAllowances",
					"outputs": [
						{
							"internalType": "uint256",
							"name": "",
							"type": "uint256"
						}
					],
					"stateMutability": "view",
					"type": "function"
				},
				{
					"inputs": [],
					"name": "totalClaims",
					"outputs": [
						{
							"internalType": "uint256",
							"name": "",
							"type": "uint256"
						}
					],
					"stateMutability": "view",
					"type": "function"
				}
			],
			"devdoc": {
				"kind": "dev",
				"methods": {},
				"version": 1
			},
			"evm": {
				"assembly": "    /* \"MyProjectSharedWallet.sol\":156:2433  contract SharedWallet {... */\n  mstore(0x40, 0x80)\n    /* \"MyProjectSharedWallet.sol\":765:814  constructor() {... */\n  callvalue\n  dup1\n  iszero\n  tag_1\n  jumpi\n  0x00\n  dup1\n  revert\ntag_1:\n  pop\n    /* \"MyProjectSharedWallet.sol\":797:807  msg.sender */\n  caller\n    /* \"MyProjectSharedWallet.sol\":789:794  owner */\n  0x00\n  dup1\n    /* \"MyProjectSharedWallet.sol\":789:807  owner = msg.sender */\n  0x0100\n  exp\n  dup2\n  sload\n  dup2\n  0xffffffffffffffffffffffffffffffffffffffff\n  mul\n  not\n  and\n  swap1\n  dup4\n  0xffffffffffffffffffffffffffffffffffffffff\n  and\n  mul\n  or\n  swap1\n  sstore\n  pop\n    /* \"MyProjectSharedWallet.sol\":156:2433  contract SharedWallet {... */\n  dataSize(sub_0)\n  dup1\n  dataOffset(sub_0)\n  0x00\n  codecopy\n  0x00\n  return\nstop\n\nsub_0: assembly {\n        /* \"MyProjectSharedWallet.sol\":156:2433  contract SharedWallet {... */\n      mstore(0x40, 0x80)\n      jumpi(tag_1, lt(calldatasize, 0x04))\n      shr(0xe0, calldataload(0x00))\n      dup1\n      0x3e7279a3\n      gt\n      tag_10\n      jumpi\n      dup1\n      0x3e7279a3\n      eq\n      tag_6\n      jumpi\n      dup1\n      0x41c61383\n      eq\n      tag_7\n      jumpi\n      dup1\n      0x8b7afe2e\n      eq\n      tag_8\n      jumpi\n      dup1\n      0x8da5cb5b\n      eq\n      tag_9\n      jumpi\n      jump(tag_1)\n    tag_10:\n      dup1\n      0x01567739\n      eq\n      tag_2\n      jumpi\n      dup1\n      0x05737314\n      eq\n      tag_3\n      jumpi\n      dup1\n      0x16a51305\n      eq\n      tag_4\n      jumpi\n      dup1\n      0x2d70db2f\n      eq\n      tag_5\n      jumpi\n    tag_1:\n      0x00\n      dup1\n      revert\n        /* \"MyProjectSharedWallet.sol\":449:508  mapping(address => BeneficiaryDetails) public beneficiaries */\n    tag_2:\n      callvalue\n      dup1\n      iszero\n      tag_11\n      jumpi\n      0x00\n      dup1\n      revert\n    tag_11:\n      pop\n      tag_12\n      0x04\n      dup1\n      calldatasize\n      sub\n      dup2\n      add\n      swap1\n      tag_13\n      swap2\n      swap1\n      tag_14\n      jump\t// in\n    tag_13:\n      tag_15\n      jump\t// in\n    tag_12:\n      mload(0x40)\n      tag_16\n      swap3\n      swap2\n      swap1\n      tag_17\n      jump\t// in\n    tag_16:\n      mload(0x40)\n      dup1\n      swap2\n      sub\n      swap1\n      return\n        /* \"MyProjectSharedWallet.sol\":1555:1647  function SendMoney() public payable {... */\n    tag_3:\n      tag_18\n      tag_19\n      jump\t// in\n    tag_18:\n      stop\n        /* \"MyProjectSharedWallet.sol\":555:582  uint public totalAllowances */\n    tag_4:\n      callvalue\n      dup1\n      iszero\n      tag_20\n      jumpi\n      0x00\n      dup1\n      revert\n    tag_20:\n      pop\n      tag_21\n      tag_22\n      jump\t// in\n    tag_21:\n      mload(0x40)\n      tag_23\n      swap2\n      swap1\n      tag_24\n      jump\t// in\n    tag_23:\n      mload(0x40)\n      dup1\n      swap2\n      sub\n      swap1\n      return\n        /* \"MyProjectSharedWallet.sol\":1653:2426  function ClaimMoney(address payable _to, uint _amount) public {... */\n    tag_5:\n      callvalue\n      dup1\n      iszero\n      tag_25\n      jumpi\n      0x00\n      dup1\n      revert\n    tag_25:\n      pop\n      tag_26\n      0x04\n      dup1\n      calldatasize\n      sub\n      dup2\n      add\n      swap1\n      tag_27\n      swap2\n      swap1\n      tag_28\n      jump\t// in\n    tag_27:\n      tag_29\n      jump\t// in\n    tag_26:\n      stop\n        /* \"MyProjectSharedWallet.sol\":1011:1517  function SetAllowance(address _beneficiary, uint _allowancePercentage) public onlyOwner {... */\n    tag_6:\n      callvalue\n      dup1\n      iszero\n      tag_30\n      jumpi\n      0x00\n      dup1\n      revert\n    tag_30:\n      pop\n      tag_31\n      0x04\n      dup1\n      calldatasize\n      sub\n      dup2\n      add\n      swap1\n      tag_32\n      swap2\n      swap1\n      tag_33\n      jump\t// in\n    tag_32:\n      tag_34\n      jump\t// in\n    tag_31:\n      stop\n        /* \"MyProjectSharedWallet.sol\":627:650  uint public totalClaims */\n    tag_7:\n      callvalue\n      dup1\n      iszero\n      tag_35\n      jumpi\n      0x00\n      dup1\n      revert\n    tag_35:\n      pop\n      tag_36\n      tag_37\n      jump\t// in\n    tag_36:\n      mload(0x40)\n      tag_38\n      swap2\n      swap1\n      tag_24\n      jump\t// in\n    tag_38:\n      mload(0x40)\n      dup1\n      swap2\n      sub\n      swap1\n      return\n        /* \"MyProjectSharedWallet.sol\":687:714  uint public contractBalance */\n    tag_8:\n      callvalue\n      dup1\n      iszero\n      tag_39\n      jumpi\n      0x00\n      dup1\n      revert\n    tag_39:\n      pop\n      tag_40\n      tag_41\n      jump\t// in\n    tag_40:\n      mload(0x40)\n      tag_42\n      swap2\n      swap1\n      tag_24\n      jump\t// in\n    tag_42:\n      mload(0x40)\n      dup1\n      swap2\n      sub\n      swap1\n      return\n        /* \"MyProjectSharedWallet.sol\":374:394  address public owner */\n    tag_9:\n      callvalue\n      dup1\n      iszero\n      tag_43\n      jumpi\n      0x00\n      dup1\n      revert\n    tag_43:\n      pop\n      tag_44\n      tag_45\n      jump\t// in\n    tag_44:\n      mload(0x40)\n      tag_46\n      swap2\n      swap1\n      tag_47\n      jump\t// in\n    tag_46:\n      mload(0x40)\n      dup1\n      swap2\n      sub\n      swap1\n      return\n        /* \"MyProjectSharedWallet.sol\":449:508  mapping(address => BeneficiaryDetails) public beneficiaries */\n    tag_15:\n      mstore(0x20, 0x01)\n      dup1\n      0x00\n      mstore\n      keccak256(0x00, 0x40)\n      0x00\n      swap2\n      pop\n      swap1\n      pop\n      dup1\n      0x00\n      add\n      sload\n      swap1\n      dup1\n      0x01\n      add\n      sload\n      swap1\n      pop\n      dup3\n      jump\t// out\n        /* \"MyProjectSharedWallet.sol\":1555:1647  function SendMoney() public payable {... */\n    tag_19:\n        /* \"MyProjectSharedWallet.sol\":1619:1640  address(this).balance */\n      selfbalance\n        /* \"MyProjectSharedWallet.sol\":1601:1616  contractBalance */\n      0x04\n        /* \"MyProjectSharedWallet.sol\":1601:1640  contractBalance = address(this).balance */\n      dup2\n      swap1\n      sstore\n      pop\n        /* \"MyProjectSharedWallet.sol\":1555:1647  function SendMoney() public payable {... */\n      jump\t// out\n        /* \"MyProjectSharedWallet.sol\":555:582  uint public totalAllowances */\n    tag_22:\n      sload(0x02)\n      dup2\n      jump\t// out\n        /* \"MyProjectSharedWallet.sol\":1653:2426  function ClaimMoney(address payable _to, uint _amount) public {... */\n    tag_29:\n        /* \"MyProjectSharedWallet.sol\":1747:1752  owner */\n      0x00\n      dup1\n      sload\n      swap1\n      0x0100\n      exp\n      swap1\n      div\n      0xffffffffffffffffffffffffffffffffffffffff\n      and\n        /* \"MyProjectSharedWallet.sol\":1733:1752  msg.sender != owner */\n      0xffffffffffffffffffffffffffffffffffffffff\n      and\n        /* \"MyProjectSharedWallet.sol\":1733:1743  msg.sender */\n      caller\n        /* \"MyProjectSharedWallet.sol\":1733:1752  msg.sender != owner */\n      0xffffffffffffffffffffffffffffffffffffffff\n      and\n      sub\n        /* \"MyProjectSharedWallet.sol\":1725:1800  require(msg.sender != owner, \"The owner should use OwnerWithdraw function\") */\n      tag_50\n      jumpi\n      mload(0x40)\n      0x08c379a000000000000000000000000000000000000000000000000000000000\n      dup2\n      mstore\n      0x04\n      add\n      tag_51\n      swap1\n      tag_52\n      jump\t// in\n    tag_51:\n      mload(0x40)\n      dup1\n      swap2\n      sub\n      swap1\n      revert\n    tag_50:\n        /* \"MyProjectSharedWallet.sol\":1842:1843  0 */\n      0x00\n        /* \"MyProjectSharedWallet.sol\":1818:1839  address(this).balance */\n      selfbalance\n        /* \"MyProjectSharedWallet.sol\":1818:1843  address(this).balance > 0 */\n      gt\n        /* \"MyProjectSharedWallet.sol\":1810:1888  require(address(this).balance > 0, \"There is no money in the wallet to claim\") */\n      tag_53\n      jumpi\n      mload(0x40)\n      0x08c379a000000000000000000000000000000000000000000000000000000000\n      dup2\n      mstore\n      0x04\n      add\n      tag_54\n      swap1\n      tag_55\n      jump\t// in\n    tag_54:\n      mload(0x40)\n      dup1\n      swap2\n      sub\n      swap1\n      revert\n    tag_53:\n        /* \"MyProjectSharedWallet.sol\":1944:1945  0 */\n      0x00\n        /* \"MyProjectSharedWallet.sol\":1906:1919  beneficiaries */\n      0x01\n        /* \"MyProjectSharedWallet.sol\":1906:1931  beneficiaries[msg.sender] */\n      0x00\n        /* \"MyProjectSharedWallet.sol\":1920:1930  msg.sender */\n      caller\n        /* \"MyProjectSharedWallet.sol\":1906:1931  beneficiaries[msg.sender] */\n      0xffffffffffffffffffffffffffffffffffffffff\n      and\n      0xffffffffffffffffffffffffffffffffffffffff\n      and\n      dup2\n      mstore\n      0x20\n      add\n      swap1\n      dup2\n      mstore\n      0x20\n      add\n      0x00\n      keccak256\n        /* \"MyProjectSharedWallet.sol\":1906:1941  beneficiaries[msg.sender].allowance */\n      0x00\n      add\n      sload\n        /* \"MyProjectSharedWallet.sol\":1906:1945  beneficiaries[msg.sender].allowance > 0 */\n      gt\n        /* \"MyProjectSharedWallet.sol\":1898:1978  require(beneficiaries[msg.sender].allowance > 0,\"You do not have any allowance\") */\n      tag_56\n      jumpi\n      mload(0x40)\n      0x08c379a000000000000000000000000000000000000000000000000000000000\n      dup2\n      mstore\n      0x04\n      add\n      tag_57\n      swap1\n      tag_58\n      jump\t// in\n    tag_57:\n      mload(0x40)\n      dup1\n      swap2\n      sub\n      swap1\n      revert\n    tag_56:\n        /* \"MyProjectSharedWallet.sol\":1988:2002  uint allowance */\n      0x00\n        /* \"MyProjectSharedWallet.sol\":2005:2018  beneficiaries */\n      0x01\n        /* \"MyProjectSharedWallet.sol\":2005:2030  beneficiaries[msg.sender] */\n      0x00\n        /* \"MyProjectSharedWallet.sol\":2019:2029  msg.sender */\n      caller\n        /* \"MyProjectSharedWallet.sol\":2005:2030  beneficiaries[msg.sender] */\n      0xffffffffffffffffffffffffffffffffffffffff\n      and\n      0xffffffffffffffffffffffffffffffffffffffff\n      and\n      dup2\n      mstore\n      0x20\n      add\n      swap1\n      dup2\n      mstore\n      0x20\n      add\n      0x00\n      keccak256\n        /* \"MyProjectSharedWallet.sol\":2005:2040  beneficiaries[msg.sender].allowance */\n      0x00\n      add\n      sload\n        /* \"MyProjectSharedWallet.sol\":1988:2040  uint allowance = beneficiaries[msg.sender].allowance */\n      swap1\n      pop\n        /* \"MyProjectSharedWallet.sol\":2050:2073  uint allowanceRemaining */\n      0x00\n        /* \"MyProjectSharedWallet.sol\":2140:2153  beneficiaries */\n      0x01\n        /* \"MyProjectSharedWallet.sol\":2140:2165  beneficiaries[msg.sender] */\n      0x00\n        /* \"MyProjectSharedWallet.sol\":2154:2164  msg.sender */\n      caller\n        /* \"MyProjectSharedWallet.sol\":2140:2165  beneficiaries[msg.sender] */\n      0xffffffffffffffffffffffffffffffffffffffff\n      and\n      0xffffffffffffffffffffffffffffffffffffffff\n      and\n      dup2\n      mstore\n      0x20\n      add\n      swap1\n      dup2\n      mstore\n      0x20\n      add\n      0x00\n      keccak256\n        /* \"MyProjectSharedWallet.sol\":2140:2176  beneficiaries[msg.sender].claimsMade */\n      0x01\n      add\n      sload\n        /* \"MyProjectSharedWallet.sol\":2113:2124  totalClaims */\n      sload(0x03)\n        /* \"MyProjectSharedWallet.sol\":2089:2110  address(this).balance */\n      selfbalance\n        /* \"MyProjectSharedWallet.sol\":2089:2124  address(this).balance + totalClaims */\n      tag_59\n      swap2\n      swap1\n      tag_60\n      jump\t// in\n    tag_59:\n        /* \"MyProjectSharedWallet.sol\":2076:2085  allowance */\n      dup4\n        /* \"MyProjectSharedWallet.sol\":2076:2125  allowance * (address(this).balance + totalClaims) */\n      tag_61\n      swap2\n      swap1\n      tag_62\n      jump\t// in\n    tag_61:\n        /* \"MyProjectSharedWallet.sol\":2076:2176  allowance * (address(this).balance + totalClaims)... */\n      tag_63\n      swap2\n      swap1\n      tag_64\n      jump\t// in\n    tag_63:\n        /* \"MyProjectSharedWallet.sol\":2050:2176  uint allowanceRemaining = allowance * (address(this).balance + totalClaims)... */\n      swap1\n      pop\n        /* \"MyProjectSharedWallet.sol\":2205:2223  allowanceRemaining */\n      dup1\n        /* \"MyProjectSharedWallet.sol\":2194:2201  _amount */\n      dup4\n        /* \"MyProjectSharedWallet.sol\":2194:2223  _amount <= allowanceRemaining */\n      gt\n      iszero\n        /* \"MyProjectSharedWallet.sol\":2186:2250  require(_amount <= allowanceRemaining, \"The amount is too high\") */\n      tag_65\n      jumpi\n      mload(0x40)\n      0x08c379a000000000000000000000000000000000000000000000000000000000\n      dup2\n      mstore\n      0x04\n      add\n      tag_66\n      swap1\n      tag_67\n      jump\t// in\n    tag_66:\n      mload(0x40)\n      dup1\n      swap2\n      sub\n      swap1\n      revert\n    tag_65:\n        /* \"MyProjectSharedWallet.sol\":2300:2307  _amount */\n      dup3\n        /* \"MyProjectSharedWallet.sol\":2260:2273  beneficiaries */\n      0x01\n        /* \"MyProjectSharedWallet.sol\":2260:2285  beneficiaries[msg.sender] */\n      0x00\n        /* \"MyProjectSharedWallet.sol\":2274:2284  msg.sender */\n      caller\n        /* \"MyProjectSharedWallet.sol\":2260:2285  beneficiaries[msg.sender] */\n      0xffffffffffffffffffffffffffffffffffffffff\n      and\n      0xffffffffffffffffffffffffffffffffffffffff\n      and\n      dup2\n      mstore\n      0x20\n      add\n      swap1\n      dup2\n      mstore\n      0x20\n      add\n      0x00\n      keccak256\n        /* \"MyProjectSharedWallet.sol\":2260:2296  beneficiaries[msg.sender].claimsMade */\n      0x01\n      add\n      0x00\n        /* \"MyProjectSharedWallet.sol\":2260:2307  beneficiaries[msg.sender].claimsMade += _amount */\n      dup3\n      dup3\n      sload\n      tag_68\n      swap2\n      swap1\n      tag_60\n      jump\t// in\n    tag_68:\n      swap3\n      pop\n      pop\n      dup2\n      swap1\n      sstore\n      pop\n        /* \"MyProjectSharedWallet.sol\":2332:2339  _amount */\n      dup3\n        /* \"MyProjectSharedWallet.sol\":2317:2328  totalClaims */\n      0x03\n      0x00\n        /* \"MyProjectSharedWallet.sol\":2317:2339  totalClaims += _amount */\n      dup3\n      dup3\n      sload\n      tag_69\n      swap2\n      swap1\n      tag_60\n      jump\t// in\n    tag_69:\n      swap3\n      pop\n      pop\n      dup2\n      swap1\n      sstore\n      pop\n        /* \"MyProjectSharedWallet.sol\":2367:2388  address(this).balance */\n      selfbalance\n        /* \"MyProjectSharedWallet.sol\":2349:2364  contractBalance */\n      0x04\n        /* \"MyProjectSharedWallet.sol\":2349:2388  contractBalance = address(this).balance */\n      dup2\n      swap1\n      sstore\n      pop\n        /* \"MyProjectSharedWallet.sol\":2398:2401  _to */\n      dup4\n        /* \"MyProjectSharedWallet.sol\":2398:2410  _to.transfer */\n      0xffffffffffffffffffffffffffffffffffffffff\n      and\n        /* \"MyProjectSharedWallet.sol\":2398:2419  _to.transfer(_amount) */\n      0x08fc\n        /* \"MyProjectSharedWallet.sol\":2411:2418  _amount */\n      dup5\n        /* \"MyProjectSharedWallet.sol\":2398:2419  _to.transfer(_amount) */\n      swap1\n      dup2\n      iszero\n      mul\n      swap1\n      mload(0x40)\n      0x00\n      mload(0x40)\n      dup1\n      dup4\n      sub\n      dup2\n      dup6\n      dup9\n      dup9\n      call\n      swap4\n      pop\n      pop\n      pop\n      pop\n      iszero\n      dup1\n      iszero\n      tag_71\n      jumpi\n      returndatasize\n      0x00\n      dup1\n      returndatacopy\n      revert(0x00, returndatasize)\n    tag_71:\n      pop\n        /* \"MyProjectSharedWallet.sol\":1715:2426  {... */\n      pop\n      pop\n        /* \"MyProjectSharedWallet.sol\":1653:2426  function ClaimMoney(address payable _to, uint _amount) public {... */\n      pop\n      pop\n      jump\t// out\n        /* \"MyProjectSharedWallet.sol\":1011:1517  function SetAllowance(address _beneficiary, uint _allowancePercentage) public onlyOwner {... */\n    tag_34:\n        /* \"MyProjectSharedWallet.sol\":873:878  owner */\n      0x00\n      dup1\n      sload\n      swap1\n      0x0100\n      exp\n      swap1\n      div\n      0xffffffffffffffffffffffffffffffffffffffff\n      and\n        /* \"MyProjectSharedWallet.sol\":859:878  msg.sender == owner */\n      0xffffffffffffffffffffffffffffffffffffffff\n      and\n        /* \"MyProjectSharedWallet.sol\":859:869  msg.sender */\n      caller\n        /* \"MyProjectSharedWallet.sol\":859:878  msg.sender == owner */\n      0xffffffffffffffffffffffffffffffffffffffff\n      and\n      eq\n        /* \"MyProjectSharedWallet.sol\":851:932  require(msg.sender == owner, \"You are not allowed - only the owner can do this.\") */\n      tag_73\n      jumpi\n      mload(0x40)\n      0x08c379a000000000000000000000000000000000000000000000000000000000\n      dup2\n      mstore\n      0x04\n      add\n      tag_74\n      swap1\n      tag_75\n      jump\t// in\n    tag_74:\n      mload(0x40)\n      dup1\n      swap2\n      sub\n      swap1\n      revert\n    tag_73:\n        /* \"MyProjectSharedWallet.sol\":1133:1138  owner */\n      0x00\n      dup1\n      sload\n      swap1\n      0x0100\n      exp\n      swap1\n      div\n      0xffffffffffffffffffffffffffffffffffffffff\n      and\n        /* \"MyProjectSharedWallet.sol\":1117:1138  _beneficiary != owner */\n      0xffffffffffffffffffffffffffffffffffffffff\n      and\n        /* \"MyProjectSharedWallet.sol\":1117:1129  _beneficiary */\n      dup3\n        /* \"MyProjectSharedWallet.sol\":1117:1138  _beneficiary != owner */\n      0xffffffffffffffffffffffffffffffffffffffff\n      and\n      sub\n        /* \"MyProjectSharedWallet.sol\":1109:1185  require(_beneficiary != owner, \"An allowance is not required for the owner\") */\n      tag_77\n      jumpi\n      mload(0x40)\n      0x08c379a000000000000000000000000000000000000000000000000000000000\n      dup2\n      mstore\n      0x04\n      add\n      tag_78\n      swap1\n      tag_79\n      jump\t// in\n    tag_78:\n      mload(0x40)\n      dup1\n      swap2\n      sub\n      swap1\n      revert\n    tag_77:\n        /* \"MyProjectSharedWallet.sol\":1244:1245  0 */\n      0x00\n        /* \"MyProjectSharedWallet.sol\":1203:1216  beneficiaries */\n      0x01\n        /* \"MyProjectSharedWallet.sol\":1203:1230  beneficiaries[_beneficiary] */\n      0x00\n        /* \"MyProjectSharedWallet.sol\":1217:1229  _beneficiary */\n      dup5\n        /* \"MyProjectSharedWallet.sol\":1203:1230  beneficiaries[_beneficiary] */\n      0xffffffffffffffffffffffffffffffffffffffff\n      and\n      0xffffffffffffffffffffffffffffffffffffffff\n      and\n      dup2\n      mstore\n      0x20\n      add\n      swap1\n      dup2\n      mstore\n      0x20\n      add\n      0x00\n      keccak256\n        /* \"MyProjectSharedWallet.sol\":1203:1240  beneficiaries[_beneficiary].allowance */\n      0x00\n      add\n      sload\n        /* \"MyProjectSharedWallet.sol\":1203:1245  beneficiaries[_beneficiary].allowance == 0 */\n      eq\n        /* \"MyProjectSharedWallet.sol\":1195:1286  require(beneficiaries[_beneficiary].allowance == 0, \"The address already has an allowance\") */\n      tag_80\n      jumpi\n      mload(0x40)\n      0x08c379a000000000000000000000000000000000000000000000000000000000\n      dup2\n      mstore\n      0x04\n      add\n      tag_81\n      swap1\n      tag_82\n      jump\t// in\n    tag_81:\n      mload(0x40)\n      dup1\n      swap2\n      sub\n      swap1\n      revert\n    tag_80:\n        /* \"MyProjectSharedWallet.sol\":1345:1348  100 */\n      0x64\n        /* \"MyProjectSharedWallet.sol\":1322:1342  _allowancePercentage */\n      dup2\n        /* \"MyProjectSharedWallet.sol\":1304:1319  totalAllowances */\n      sload(0x02)\n        /* \"MyProjectSharedWallet.sol\":1304:1342  totalAllowances + _allowancePercentage */\n      tag_83\n      swap2\n      swap1\n      tag_60\n      jump\t// in\n    tag_83:\n        /* \"MyProjectSharedWallet.sol\":1304:1348  totalAllowances + _allowancePercentage < 100 */\n      lt\n        /* \"MyProjectSharedWallet.sol\":1296:1391  require(totalAllowances + _allowancePercentage < 100,\"This would over-allocate the allowances\") */\n      tag_84\n      jumpi\n      mload(0x40)\n      0x08c379a000000000000000000000000000000000000000000000000000000000\n      dup2\n      mstore\n      0x04\n      add\n      tag_85\n      swap1\n      tag_86\n      jump\t// in\n    tag_85:\n      mload(0x40)\n      dup1\n      swap2\n      sub\n      swap1\n      revert\n    tag_84:\n        /* \"MyProjectSharedWallet.sol\":1441:1461  _allowancePercentage */\n      dup1\n        /* \"MyProjectSharedWallet.sol\":1401:1414  beneficiaries */\n      0x01\n        /* \"MyProjectSharedWallet.sol\":1401:1428  beneficiaries[_beneficiary] */\n      0x00\n        /* \"MyProjectSharedWallet.sol\":1415:1427  _beneficiary */\n      dup5\n        /* \"MyProjectSharedWallet.sol\":1401:1428  beneficiaries[_beneficiary] */\n      0xffffffffffffffffffffffffffffffffffffffff\n      and\n      0xffffffffffffffffffffffffffffffffffffffff\n      and\n      dup2\n      mstore\n      0x20\n      add\n      swap1\n      dup2\n      mstore\n      0x20\n      add\n      0x00\n      keccak256\n        /* \"MyProjectSharedWallet.sol\":1401:1438  beneficiaries[_beneficiary].allowance */\n      0x00\n      add\n        /* \"MyProjectSharedWallet.sol\":1401:1461  beneficiaries[_beneficiary].allowance = _allowancePercentage */\n      dup2\n      swap1\n      sstore\n      pop\n        /* \"MyProjectSharedWallet.sol\":1490:1510  _allowancePercentage */\n      dup1\n        /* \"MyProjectSharedWallet.sol\":1471:1486  totalAllowances */\n      0x02\n      0x00\n        /* \"MyProjectSharedWallet.sol\":1471:1510  totalAllowances += _allowancePercentage */\n      dup3\n      dup3\n      sload\n      tag_87\n      swap2\n      swap1\n      tag_60\n      jump\t// in\n    tag_87:\n      swap3\n      pop\n      pop\n      dup2\n      swap1\n      sstore\n      pop\n        /* \"MyProjectSharedWallet.sol\":1011:1517  function SetAllowance(address _beneficiary, uint _allowancePercentage) public onlyOwner {... */\n      pop\n      pop\n      jump\t// out\n        /* \"MyProjectSharedWallet.sol\":627:650  uint public totalClaims */\n    tag_37:\n      sload(0x03)\n      dup2\n      jump\t// out\n        /* \"MyProjectSharedWallet.sol\":687:714  uint public contractBalance */\n    tag_41:\n      sload(0x04)\n      dup2\n      jump\t// out\n        /* \"MyProjectSharedWallet.sol\":374:394  address public owner */\n    tag_45:\n      0x00\n      dup1\n      sload\n      swap1\n      0x0100\n      exp\n      swap1\n      div\n      0xffffffffffffffffffffffffffffffffffffffff\n      and\n      dup2\n      jump\t// out\n        /* \"#utility.yul\":88:205   */\n    tag_89:\n        /* \"#utility.yul\":197:198   */\n      0x00\n        /* \"#utility.yul\":194:195   */\n      dup1\n        /* \"#utility.yul\":187:199   */\n      revert\n        /* \"#utility.yul\":334:460   */\n    tag_91:\n        /* \"#utility.yul\":371:378   */\n      0x00\n        /* \"#utility.yul\":411:453   */\n      0xffffffffffffffffffffffffffffffffffffffff\n        /* \"#utility.yul\":404:409   */\n      dup3\n        /* \"#utility.yul\":400:454   */\n      and\n        /* \"#utility.yul\":389:454   */\n      swap1\n      pop\n        /* \"#utility.yul\":334:460   */\n      swap2\n      swap1\n      pop\n      jump\t// out\n        /* \"#utility.yul\":466:562   */\n    tag_92:\n        /* \"#utility.yul\":503:510   */\n      0x00\n        /* \"#utility.yul\":532:556   */\n      tag_127\n        /* \"#utility.yul\":550:555   */\n      dup3\n        /* \"#utility.yul\":532:556   */\n      tag_91\n      jump\t// in\n    tag_127:\n        /* \"#utility.yul\":521:556   */\n      swap1\n      pop\n        /* \"#utility.yul\":466:562   */\n      swap2\n      swap1\n      pop\n      jump\t// out\n        /* \"#utility.yul\":568:690   */\n    tag_93:\n        /* \"#utility.yul\":641:665   */\n      tag_129\n        /* \"#utility.yul\":659:664   */\n      dup2\n        /* \"#utility.yul\":641:665   */\n      tag_92\n      jump\t// in\n    tag_129:\n        /* \"#utility.yul\":634:639   */\n      dup2\n        /* \"#utility.yul\":631:666   */\n      eq\n        /* \"#utility.yul\":621:684   */\n      tag_130\n      jumpi\n        /* \"#utility.yul\":680:681   */\n      0x00\n        /* \"#utility.yul\":677:678   */\n      dup1\n        /* \"#utility.yul\":670:682   */\n      revert\n        /* \"#utility.yul\":621:684   */\n    tag_130:\n        /* \"#utility.yul\":568:690   */\n      pop\n      jump\t// out\n        /* \"#utility.yul\":696:835   */\n    tag_94:\n        /* \"#utility.yul\":742:747   */\n      0x00\n        /* \"#utility.yul\":780:786   */\n      dup2\n        /* \"#utility.yul\":767:787   */\n      calldataload\n        /* \"#utility.yul\":758:787   */\n      swap1\n      pop\n        /* \"#utility.yul\":796:829   */\n      tag_132\n        /* \"#utility.yul\":823:828   */\n      dup2\n        /* \"#utility.yul\":796:829   */\n      tag_93\n      jump\t// in\n    tag_132:\n        /* \"#utility.yul\":696:835   */\n      swap3\n      swap2\n      pop\n      pop\n      jump\t// out\n        /* \"#utility.yul\":841:1170   */\n    tag_14:\n        /* \"#utility.yul\":900:906   */\n      0x00\n        /* \"#utility.yul\":949:951   */\n      0x20\n        /* \"#utility.yul\":937:946   */\n      dup3\n        /* \"#utility.yul\":928:935   */\n      dup5\n        /* \"#utility.yul\":924:947   */\n      sub\n        /* \"#utility.yul\":920:952   */\n      slt\n        /* \"#utility.yul\":917:1036   */\n      iszero\n      tag_134\n      jumpi\n        /* \"#utility.yul\":955:1034   */\n      tag_135\n      tag_89\n      jump\t// in\n    tag_135:\n        /* \"#utility.yul\":917:1036   */\n    tag_134:\n        /* \"#utility.yul\":1075:1076   */\n      0x00\n        /* \"#utility.yul\":1100:1153   */\n      tag_136\n        /* \"#utility.yul\":1145:1152   */\n      dup5\n        /* \"#utility.yul\":1136:1142   */\n      dup3\n        /* \"#utility.yul\":1125:1134   */\n      dup6\n        /* \"#utility.yul\":1121:1143   */\n      add\n        /* \"#utility.yul\":1100:1153   */\n      tag_94\n      jump\t// in\n    tag_136:\n        /* \"#utility.yul\":1090:1153   */\n      swap2\n      pop\n        /* \"#utility.yul\":1046:1163   */\n      pop\n        /* \"#utility.yul\":841:1170   */\n      swap3\n      swap2\n      pop\n      pop\n      jump\t// out\n        /* \"#utility.yul\":1176:1253   */\n    tag_95:\n        /* \"#utility.yul\":1213:1220   */\n      0x00\n        /* \"#utility.yul\":1242:1247   */\n      dup2\n        /* \"#utility.yul\":1231:1247   */\n      swap1\n      pop\n        /* \"#utility.yul\":1176:1253   */\n      swap2\n      swap1\n      pop\n      jump\t// out\n        /* \"#utility.yul\":1259:1377   */\n    tag_96:\n        /* \"#utility.yul\":1346:1370   */\n      tag_139\n        /* \"#utility.yul\":1364:1369   */\n      dup2\n        /* \"#utility.yul\":1346:1370   */\n      tag_95\n      jump\t// in\n    tag_139:\n        /* \"#utility.yul\":1341:1344   */\n      dup3\n        /* \"#utility.yul\":1334:1371   */\n      mstore\n        /* \"#utility.yul\":1259:1377   */\n      pop\n      pop\n      jump\t// out\n        /* \"#utility.yul\":1383:1715   */\n    tag_17:\n        /* \"#utility.yul\":1504:1508   */\n      0x00\n        /* \"#utility.yul\":1542:1544   */\n      0x40\n        /* \"#utility.yul\":1531:1540   */\n      dup3\n        /* \"#utility.yul\":1527:1545   */\n      add\n        /* \"#utility.yul\":1519:1545   */\n      swap1\n      pop\n        /* \"#utility.yul\":1555:1626   */\n      tag_141\n        /* \"#utility.yul\":1623:1624   */\n      0x00\n        /* \"#utility.yul\":1612:1621   */\n      dup4\n        /* \"#utility.yul\":1608:1625   */\n      add\n        /* \"#utility.yul\":1599:1605   */\n      dup6\n        /* \"#utility.yul\":1555:1626   */\n      tag_96\n      jump\t// in\n    tag_141:\n        /* \"#utility.yul\":1636:1708   */\n      tag_142\n        /* \"#utility.yul\":1704:1706   */\n      0x20\n        /* \"#utility.yul\":1693:1702   */\n      dup4\n        /* \"#utility.yul\":1689:1707   */\n      add\n        /* \"#utility.yul\":1680:1686   */\n      dup5\n        /* \"#utility.yul\":1636:1708   */\n      tag_96\n      jump\t// in\n    tag_142:\n        /* \"#utility.yul\":1383:1715   */\n      swap4\n      swap3\n      pop\n      pop\n      pop\n      jump\t// out\n        /* \"#utility.yul\":1721:1943   */\n    tag_24:\n        /* \"#utility.yul\":1814:1818   */\n      0x00\n        /* \"#utility.yul\":1852:1854   */\n      0x20\n        /* \"#utility.yul\":1841:1850   */\n      dup3\n        /* \"#utility.yul\":1837:1855   */\n      add\n        /* \"#utility.yul\":1829:1855   */\n      swap1\n      pop\n        /* \"#utility.yul\":1865:1936   */\n      tag_144\n        /* \"#utility.yul\":1933:1934   */\n      0x00\n        /* \"#utility.yul\":1922:1931   */\n      dup4\n        /* \"#utility.yul\":1918:1935   */\n      add\n        /* \"#utility.yul\":1909:1915   */\n      dup5\n        /* \"#utility.yul\":1865:1936   */\n      tag_96\n      jump\t// in\n    tag_144:\n        /* \"#utility.yul\":1721:1943   */\n      swap3\n      swap2\n      pop\n      pop\n      jump\t// out\n        /* \"#utility.yul\":1949:2053   */\n    tag_97:\n        /* \"#utility.yul\":1994:2001   */\n      0x00\n        /* \"#utility.yul\":2023:2047   */\n      tag_146\n        /* \"#utility.yul\":2041:2046   */\n      dup3\n        /* \"#utility.yul\":2023:2047   */\n      tag_91\n      jump\t// in\n    tag_146:\n        /* \"#utility.yul\":2012:2047   */\n      swap1\n      pop\n        /* \"#utility.yul\":1949:2053   */\n      swap2\n      swap1\n      pop\n      jump\t// out\n        /* \"#utility.yul\":2059:2197   */\n    tag_98:\n        /* \"#utility.yul\":2140:2172   */\n      tag_148\n        /* \"#utility.yul\":2166:2171   */\n      dup2\n        /* \"#utility.yul\":2140:2172   */\n      tag_97\n      jump\t// in\n    tag_148:\n        /* \"#utility.yul\":2133:2138   */\n      dup2\n        /* \"#utility.yul\":2130:2173   */\n      eq\n        /* \"#utility.yul\":2120:2191   */\n      tag_149\n      jumpi\n        /* \"#utility.yul\":2187:2188   */\n      0x00\n        /* \"#utility.yul\":2184:2185   */\n      dup1\n        /* \"#utility.yul\":2177:2189   */\n      revert\n        /* \"#utility.yul\":2120:2191   */\n    tag_149:\n        /* \"#utility.yul\":2059:2197   */\n      pop\n      jump\t// out\n        /* \"#utility.yul\":2203:2358   */\n    tag_99:\n        /* \"#utility.yul\":2257:2262   */\n      0x00\n        /* \"#utility.yul\":2295:2301   */\n      dup2\n        /* \"#utility.yul\":2282:2302   */\n      calldataload\n        /* \"#utility.yul\":2273:2302   */\n      swap1\n      pop\n        /* \"#utility.yul\":2311:2352   */\n      tag_151\n        /* \"#utility.yul\":2346:2351   */\n      dup2\n        /* \"#utility.yul\":2311:2352   */\n      tag_98\n      jump\t// in\n    tag_151:\n        /* \"#utility.yul\":2203:2358   */\n      swap3\n      swap2\n      pop\n      pop\n      jump\t// out\n        /* \"#utility.yul\":2364:2486   */\n    tag_100:\n        /* \"#utility.yul\":2437:2461   */\n      tag_153\n        /* \"#utility.yul\":2455:2460   */\n      dup2\n        /* \"#utility.yul\":2437:2461   */\n      tag_95\n      jump\t// in\n    tag_153:\n        /* \"#utility.yul\":2430:2435   */\n      dup2\n        /* \"#utility.yul\":2427:2462   */\n      eq\n        /* \"#utility.yul\":2417:2480   */\n      tag_154\n      jumpi\n        /* \"#utility.yul\":2476:2477   */\n      0x00\n        /* \"#utility.yul\":2473:2474   */\n      dup1\n        /* \"#utility.yul\":2466:2478   */\n      revert\n        /* \"#utility.yul\":2417:2480   */\n    tag_154:\n        /* \"#utility.yul\":2364:2486   */\n      pop\n      jump\t// out\n        /* \"#utility.yul\":2492:2631   */\n    tag_101:\n        /* \"#utility.yul\":2538:2543   */\n      0x00\n        /* \"#utility.yul\":2576:2582   */\n      dup2\n        /* \"#utility.yul\":2563:2583   */\n      calldataload\n        /* \"#utility.yul\":2554:2583   */\n      swap1\n      pop\n        /* \"#utility.yul\":2592:2625   */\n      tag_156\n        /* \"#utility.yul\":2619:2624   */\n      dup2\n        /* \"#utility.yul\":2592:2625   */\n      tag_100\n      jump\t// in\n    tag_156:\n        /* \"#utility.yul\":2492:2631   */\n      swap3\n      swap2\n      pop\n      pop\n      jump\t// out\n        /* \"#utility.yul\":2637:3127   */\n    tag_28:\n        /* \"#utility.yul\":2713:2719   */\n      0x00\n        /* \"#utility.yul\":2721:2727   */\n      dup1\n        /* \"#utility.yul\":2770:2772   */\n      0x40\n        /* \"#utility.yul\":2758:2767   */\n      dup4\n        /* \"#utility.yul\":2749:2756   */\n      dup6\n        /* \"#utility.yul\":2745:2768   */\n      sub\n        /* \"#utility.yul\":2741:2773   */\n      slt\n        /* \"#utility.yul\":2738:2857   */\n      iszero\n      tag_158\n      jumpi\n        /* \"#utility.yul\":2776:2855   */\n      tag_159\n      tag_89\n      jump\t// in\n    tag_159:\n        /* \"#utility.yul\":2738:2857   */\n    tag_158:\n        /* \"#utility.yul\":2896:2897   */\n      0x00\n        /* \"#utility.yul\":2921:2982   */\n      tag_160\n        /* \"#utility.yul\":2974:2981   */\n      dup6\n        /* \"#utility.yul\":2965:2971   */\n      dup3\n        /* \"#utility.yul\":2954:2963   */\n      dup7\n        /* \"#utility.yul\":2950:2972   */\n      add\n        /* \"#utility.yul\":2921:2982   */\n      tag_99\n      jump\t// in\n    tag_160:\n        /* \"#utility.yul\":2911:2982   */\n      swap3\n      pop\n        /* \"#utility.yul\":2867:2992   */\n      pop\n        /* \"#utility.yul\":3031:3033   */\n      0x20\n        /* \"#utility.yul\":3057:3110   */\n      tag_161\n        /* \"#utility.yul\":3102:3109   */\n      dup6\n        /* \"#utility.yul\":3093:3099   */\n      dup3\n        /* \"#utility.yul\":3082:3091   */\n      dup7\n        /* \"#utility.yul\":3078:3100   */\n      add\n        /* \"#utility.yul\":3057:3110   */\n      tag_101\n      jump\t// in\n    tag_161:\n        /* \"#utility.yul\":3047:3110   */\n      swap2\n      pop\n        /* \"#utility.yul\":3002:3120   */\n      pop\n        /* \"#utility.yul\":2637:3127   */\n      swap3\n      pop\n      swap3\n      swap1\n      pop\n      jump\t// out\n        /* \"#utility.yul\":3133:3607   */\n    tag_33:\n        /* \"#utility.yul\":3201:3207   */\n      0x00\n        /* \"#utility.yul\":3209:3215   */\n      dup1\n        /* \"#utility.yul\":3258:3260   */\n      0x40\n        /* \"#utility.yul\":3246:3255   */\n      dup4\n        /* \"#utility.yul\":3237:3244   */\n      dup6\n        /* \"#utility.yul\":3233:3256   */\n      sub\n        /* \"#utility.yul\":3229:3261   */\n      slt\n        /* \"#utility.yul\":3226:3345   */\n      iszero\n      tag_163\n      jumpi\n        /* \"#utility.yul\":3264:3343   */\n      tag_164\n      tag_89\n      jump\t// in\n    tag_164:\n        /* \"#utility.yul\":3226:3345   */\n    tag_163:\n        /* \"#utility.yul\":3384:3385   */\n      0x00\n        /* \"#utility.yul\":3409:3462   */\n      tag_165\n        /* \"#utility.yul\":3454:3461   */\n      dup6\n        /* \"#utility.yul\":3445:3451   */\n      dup3\n        /* \"#utility.yul\":3434:3443   */\n      dup7\n        /* \"#utility.yul\":3430:3452   */\n      add\n        /* \"#utility.yul\":3409:3462   */\n      tag_94\n      jump\t// in\n    tag_165:\n        /* \"#utility.yul\":3399:3462   */\n      swap3\n      pop\n        /* \"#utility.yul\":3355:3472   */\n      pop\n        /* \"#utility.yul\":3511:3513   */\n      0x20\n        /* \"#utility.yul\":3537:3590   */\n      tag_166\n        /* \"#utility.yul\":3582:3589   */\n      dup6\n        /* \"#utility.yul\":3573:3579   */\n      dup3\n        /* \"#utility.yul\":3562:3571   */\n      dup7\n        /* \"#utility.yul\":3558:3580   */\n      add\n        /* \"#utility.yul\":3537:3590   */\n      tag_101\n      jump\t// in\n    tag_166:\n        /* \"#utility.yul\":3527:3590   */\n      swap2\n      pop\n        /* \"#utility.yul\":3482:3600   */\n      pop\n        /* \"#utility.yul\":3133:3607   */\n      swap3\n      pop\n      swap3\n      swap1\n      pop\n      jump\t// out\n        /* \"#utility.yul\":3613:3731   */\n    tag_102:\n        /* \"#utility.yul\":3700:3724   */\n      tag_168\n        /* \"#utility.yul\":3718:3723   */\n      dup2\n        /* \"#utility.yul\":3700:3724   */\n      tag_92\n      jump\t// in\n    tag_168:\n        /* \"#utility.yul\":3695:3698   */\n      dup3\n        /* \"#utility.yul\":3688:3725   */\n      mstore\n        /* \"#utility.yul\":3613:3731   */\n      pop\n      pop\n      jump\t// out\n        /* \"#utility.yul\":3737:3959   */\n    tag_47:\n        /* \"#utility.yul\":3830:3834   */\n      0x00\n        /* \"#utility.yul\":3868:3870   */\n      0x20\n        /* \"#utility.yul\":3857:3866   */\n      dup3\n        /* \"#utility.yul\":3853:3871   */\n      add\n        /* \"#utility.yul\":3845:3871   */\n      swap1\n      pop\n        /* \"#utility.yul\":3881:3952   */\n      tag_170\n        /* \"#utility.yul\":3949:3950   */\n      0x00\n        /* \"#utility.yul\":3938:3947   */\n      dup4\n        /* \"#utility.yul\":3934:3951   */\n      add\n        /* \"#utility.yul\":3925:3931   */\n      dup5\n        /* \"#utility.yul\":3881:3952   */\n      tag_102\n      jump\t// in\n    tag_170:\n        /* \"#utility.yul\":3737:3959   */\n      swap3\n      swap2\n      pop\n      pop\n      jump\t// out\n        /* \"#utility.yul\":3965:4134   */\n    tag_103:\n        /* \"#utility.yul\":4049:4060   */\n      0x00\n        /* \"#utility.yul\":4083:4089   */\n      dup3\n        /* \"#utility.yul\":4078:4081   */\n      dup3\n        /* \"#utility.yul\":4071:4090   */\n      mstore\n        /* \"#utility.yul\":4123:4127   */\n      0x20\n        /* \"#utility.yul\":4118:4121   */\n      dup3\n        /* \"#utility.yul\":4114:4128   */\n      add\n        /* \"#utility.yul\":4099:4128   */\n      swap1\n      pop\n        /* \"#utility.yul\":3965:4134   */\n      swap3\n      swap2\n      pop\n      pop\n      jump\t// out\n        /* \"#utility.yul\":4140:4370   */\n    tag_104:\n        /* \"#utility.yul\":4280:4314   */\n      0x546865206f776e65722073686f756c6420757365204f776e6572576974686472\n        /* \"#utility.yul\":4276:4277   */\n      0x00\n        /* \"#utility.yul\":4268:4274   */\n      dup3\n        /* \"#utility.yul\":4264:4278   */\n      add\n        /* \"#utility.yul\":4257:4315   */\n      mstore\n        /* \"#utility.yul\":4349:4362   */\n      0x61772066756e6374696f6e000000000000000000000000000000000000000000\n        /* \"#utility.yul\":4344:4346   */\n      0x20\n        /* \"#utility.yul\":4336:4342   */\n      dup3\n        /* \"#utility.yul\":4332:4347   */\n      add\n        /* \"#utility.yul\":4325:4363   */\n      mstore\n        /* \"#utility.yul\":4140:4370   */\n      pop\n      jump\t// out\n        /* \"#utility.yul\":4376:4742   */\n    tag_105:\n        /* \"#utility.yul\":4518:4521   */\n      0x00\n        /* \"#utility.yul\":4539:4606   */\n      tag_174\n        /* \"#utility.yul\":4603:4605   */\n      0x2b\n        /* \"#utility.yul\":4598:4601   */\n      dup4\n        /* \"#utility.yul\":4539:4606   */\n      tag_103\n      jump\t// in\n    tag_174:\n        /* \"#utility.yul\":4532:4606   */\n      swap2\n      pop\n        /* \"#utility.yul\":4615:4708   */\n      tag_175\n        /* \"#utility.yul\":4704:4707   */\n      dup3\n        /* \"#utility.yul\":4615:4708   */\n      tag_104\n      jump\t// in\n    tag_175:\n        /* \"#utility.yul\":4733:4735   */\n      0x40\n        /* \"#utility.yul\":4728:4731   */\n      dup3\n        /* \"#utility.yul\":4724:4736   */\n      add\n        /* \"#utility.yul\":4717:4736   */\n      swap1\n      pop\n        /* \"#utility.yul\":4376:4742   */\n      swap2\n      swap1\n      pop\n      jump\t// out\n        /* \"#utility.yul\":4748:5167   */\n    tag_52:\n        /* \"#utility.yul\":4914:4918   */\n      0x00\n        /* \"#utility.yul\":4952:4954   */\n      0x20\n        /* \"#utility.yul\":4941:4950   */\n      dup3\n        /* \"#utility.yul\":4937:4955   */\n      add\n        /* \"#utility.yul\":4929:4955   */\n      swap1\n      pop\n        /* \"#utility.yul\":5001:5010   */\n      dup2\n        /* \"#utility.yul\":4995:4999   */\n      dup2\n        /* \"#utility.yul\":4991:5011   */\n      sub\n        /* \"#utility.yul\":4987:4988   */\n      0x00\n        /* \"#utility.yul\":4976:4985   */\n      dup4\n        /* \"#utility.yul\":4972:4989   */\n      add\n        /* \"#utility.yul\":4965:5012   */\n      mstore\n        /* \"#utility.yul\":5029:5160   */\n      tag_177\n        /* \"#utility.yul\":5155:5159   */\n      dup2\n        /* \"#utility.yul\":5029:5160   */\n      tag_105\n      jump\t// in\n    tag_177:\n        /* \"#utility.yul\":5021:5160   */\n      swap1\n      pop\n        /* \"#utility.yul\":4748:5167   */\n      swap2\n      swap1\n      pop\n      jump\t// out\n        /* \"#utility.yul\":5173:5400   */\n    tag_106:\n        /* \"#utility.yul\":5313:5347   */\n      0x5468657265206973206e6f206d6f6e657920696e207468652077616c6c657420\n        /* \"#utility.yul\":5309:5310   */\n      0x00\n        /* \"#utility.yul\":5301:5307   */\n      dup3\n        /* \"#utility.yul\":5297:5311   */\n      add\n        /* \"#utility.yul\":5290:5348   */\n      mstore\n        /* \"#utility.yul\":5382:5392   */\n      0x746f20636c61696d000000000000000000000000000000000000000000000000\n        /* \"#utility.yul\":5377:5379   */\n      0x20\n        /* \"#utility.yul\":5369:5375   */\n      dup3\n        /* \"#utility.yul\":5365:5380   */\n      add\n        /* \"#utility.yul\":5358:5393   */\n      mstore\n        /* \"#utility.yul\":5173:5400   */\n      pop\n      jump\t// out\n        /* \"#utility.yul\":5406:5772   */\n    tag_107:\n        /* \"#utility.yul\":5548:5551   */\n      0x00\n        /* \"#utility.yul\":5569:5636   */\n      tag_180\n        /* \"#utility.yul\":5633:5635   */\n      0x28\n        /* \"#utility.yul\":5628:5631   */\n      dup4\n        /* \"#utility.yul\":5569:5636   */\n      tag_103\n      jump\t// in\n    tag_180:\n        /* \"#utility.yul\":5562:5636   */\n      swap2\n      pop\n        /* \"#utility.yul\":5645:5738   */\n      tag_181\n        /* \"#utility.yul\":5734:5737   */\n      dup3\n        /* \"#utility.yul\":5645:5738   */\n      tag_106\n      jump\t// in\n    tag_181:\n        /* \"#utility.yul\":5763:5765   */\n      0x40\n        /* \"#utility.yul\":5758:5761   */\n      dup3\n        /* \"#utility.yul\":5754:5766   */\n      add\n        /* \"#utility.yul\":5747:5766   */\n      swap1\n      pop\n        /* \"#utility.yul\":5406:5772   */\n      swap2\n      swap1\n      pop\n      jump\t// out\n        /* \"#utility.yul\":5778:6197   */\n    tag_55:\n        /* \"#utility.yul\":5944:5948   */\n      0x00\n        /* \"#utility.yul\":5982:5984   */\n      0x20\n        /* \"#utility.yul\":5971:5980   */\n      dup3\n        /* \"#utility.yul\":5967:5985   */\n      add\n        /* \"#utility.yul\":5959:5985   */\n      swap1\n      pop\n        /* \"#utility.yul\":6031:6040   */\n      dup2\n        /* \"#utility.yul\":6025:6029   */\n      dup2\n        /* \"#utility.yul\":6021:6041   */\n      sub\n        /* \"#utility.yul\":6017:6018   */\n      0x00\n        /* \"#utility.yul\":6006:6015   */\n      dup4\n        /* \"#utility.yul\":6002:6019   */\n      add\n        /* \"#utility.yul\":5995:6042   */\n      mstore\n        /* \"#utility.yul\":6059:6190   */\n      tag_183\n        /* \"#utility.yul\":6185:6189   */\n      dup2\n        /* \"#utility.yul\":6059:6190   */\n      tag_107\n      jump\t// in\n    tag_183:\n        /* \"#utility.yul\":6051:6190   */\n      swap1\n      pop\n        /* \"#utility.yul\":5778:6197   */\n      swap2\n      swap1\n      pop\n      jump\t// out\n        /* \"#utility.yul\":6203:6382   */\n    tag_108:\n        /* \"#utility.yul\":6343:6374   */\n      0x596f7520646f206e6f74206861766520616e7920616c6c6f77616e6365000000\n        /* \"#utility.yul\":6339:6340   */\n      0x00\n        /* \"#utility.yul\":6331:6337   */\n      dup3\n        /* \"#utility.yul\":6327:6341   */\n      add\n        /* \"#utility.yul\":6320:6375   */\n      mstore\n        /* \"#utility.yul\":6203:6382   */\n      pop\n      jump\t// out\n        /* \"#utility.yul\":6388:6754   */\n    tag_109:\n        /* \"#utility.yul\":6530:6533   */\n      0x00\n        /* \"#utility.yul\":6551:6618   */\n      tag_186\n        /* \"#utility.yul\":6615:6617   */\n      0x1d\n        /* \"#utility.yul\":6610:6613   */\n      dup4\n        /* \"#utility.yul\":6551:6618   */\n      tag_103\n      jump\t// in\n    tag_186:\n        /* \"#utility.yul\":6544:6618   */\n      swap2\n      pop\n        /* \"#utility.yul\":6627:6720   */\n      tag_187\n        /* \"#utility.yul\":6716:6719   */\n      dup3\n        /* \"#utility.yul\":6627:6720   */\n      tag_108\n      jump\t// in\n    tag_187:\n        /* \"#utility.yul\":6745:6747   */\n      0x20\n        /* \"#utility.yul\":6740:6743   */\n      dup3\n        /* \"#utility.yul\":6736:6748   */\n      add\n        /* \"#utility.yul\":6729:6748   */\n      swap1\n      pop\n        /* \"#utility.yul\":6388:6754   */\n      swap2\n      swap1\n      pop\n      jump\t// out\n        /* \"#utility.yul\":6760:7179   */\n    tag_58:\n        /* \"#utility.yul\":6926:6930   */\n      0x00\n        /* \"#utility.yul\":6964:6966   */\n      0x20\n        /* \"#utility.yul\":6953:6962   */\n      dup3\n        /* \"#utility.yul\":6949:6967   */\n      add\n        /* \"#utility.yul\":6941:6967   */\n      swap1\n      pop\n        /* \"#utility.yul\":7013:7022   */\n      dup2\n        /* \"#utility.yul\":7007:7011   */\n      dup2\n        /* \"#utility.yul\":7003:7023   */\n      sub\n        /* \"#utility.yul\":6999:7000   */\n      0x00\n        /* \"#utility.yul\":6988:6997   */\n      dup4\n        /* \"#utility.yul\":6984:7001   */\n      add\n        /* \"#utility.yul\":6977:7024   */\n      mstore\n        /* \"#utility.yul\":7041:7172   */\n      tag_189\n        /* \"#utility.yul\":7167:7171   */\n      dup2\n        /* \"#utility.yul\":7041:7172   */\n      tag_109\n      jump\t// in\n    tag_189:\n        /* \"#utility.yul\":7033:7172   */\n      swap1\n      pop\n        /* \"#utility.yul\":6760:7179   */\n      swap2\n      swap1\n      pop\n      jump\t// out\n        /* \"#utility.yul\":7185:7365   */\n    tag_110:\n        /* \"#utility.yul\":7233:7310   */\n      0x4e487b7100000000000000000000000000000000000000000000000000000000\n        /* \"#utility.yul\":7230:7231   */\n      0x00\n        /* \"#utility.yul\":7223:7311   */\n      mstore\n        /* \"#utility.yul\":7330:7334   */\n      0x11\n        /* \"#utility.yul\":7327:7328   */\n      0x04\n        /* \"#utility.yul\":7320:7335   */\n      mstore\n        /* \"#utility.yul\":7354:7358   */\n      0x24\n        /* \"#utility.yul\":7351:7352   */\n      0x00\n        /* \"#utility.yul\":7344:7359   */\n      revert\n        /* \"#utility.yul\":7371:7562   */\n    tag_60:\n        /* \"#utility.yul\":7411:7414   */\n      0x00\n        /* \"#utility.yul\":7430:7450   */\n      tag_192\n        /* \"#utility.yul\":7448:7449   */\n      dup3\n        /* \"#utility.yul\":7430:7450   */\n      tag_95\n      jump\t// in\n    tag_192:\n        /* \"#utility.yul\":7425:7450   */\n      swap2\n      pop\n        /* \"#utility.yul\":7464:7484   */\n      tag_193\n        /* \"#utility.yul\":7482:7483   */\n      dup4\n        /* \"#utility.yul\":7464:7484   */\n      tag_95\n      jump\t// in\n    tag_193:\n        /* \"#utility.yul\":7459:7484   */\n      swap3\n      pop\n        /* \"#utility.yul\":7507:7508   */\n      dup3\n        /* \"#utility.yul\":7504:7505   */\n      dup3\n        /* \"#utility.yul\":7500:7509   */\n      add\n        /* \"#utility.yul\":7493:7509   */\n      swap1\n      pop\n        /* \"#utility.yul\":7528:7531   */\n      dup1\n        /* \"#utility.yul\":7525:7526   */\n      dup3\n        /* \"#utility.yul\":7522:7532   */\n      gt\n        /* \"#utility.yul\":7519:7555   */\n      iszero\n      tag_194\n      jumpi\n        /* \"#utility.yul\":7535:7553   */\n      tag_195\n      tag_110\n      jump\t// in\n    tag_195:\n        /* \"#utility.yul\":7519:7555   */\n    tag_194:\n        /* \"#utility.yul\":7371:7562   */\n      swap3\n      swap2\n      pop\n      pop\n      jump\t// out\n        /* \"#utility.yul\":7568:7916   */\n    tag_62:\n        /* \"#utility.yul\":7608:7615   */\n      0x00\n        /* \"#utility.yul\":7631:7651   */\n      tag_197\n        /* \"#utility.yul\":7649:7650   */\n      dup3\n        /* \"#utility.yul\":7631:7651   */\n      tag_95\n      jump\t// in\n    tag_197:\n        /* \"#utility.yul\":7626:7651   */\n      swap2\n      pop\n        /* \"#utility.yul\":7665:7685   */\n      tag_198\n        /* \"#utility.yul\":7683:7684   */\n      dup4\n        /* \"#utility.yul\":7665:7685   */\n      tag_95\n      jump\t// in\n    tag_198:\n        /* \"#utility.yul\":7660:7685   */\n      swap3\n      pop\n        /* \"#utility.yul\":7853:7854   */\n      dup2\n        /* \"#utility.yul\":7785:7851   */\n      0xffffffffffffffffffffffffffffffffffffffffffffffffffffffffffffffff\n        /* \"#utility.yul\":7781:7855   */\n      div\n        /* \"#utility.yul\":7778:7779   */\n      dup4\n        /* \"#utility.yul\":7775:7856   */\n      gt\n        /* \"#utility.yul\":7770:7771   */\n      dup3\n        /* \"#utility.yul\":7763:7772   */\n      iszero\n        /* \"#utility.yul\":7756:7773   */\n      iszero\n        /* \"#utility.yul\":7752:7857   */\n      and\n        /* \"#utility.yul\":7749:7880   */\n      iszero\n      tag_199\n      jumpi\n        /* \"#utility.yul\":7860:7878   */\n      tag_200\n      tag_110\n      jump\t// in\n    tag_200:\n        /* \"#utility.yul\":7749:7880   */\n    tag_199:\n        /* \"#utility.yul\":7908:7909   */\n      dup3\n        /* \"#utility.yul\":7905:7906   */\n      dup3\n        /* \"#utility.yul\":7901:7910   */\n      mul\n        /* \"#utility.yul\":7890:7910   */\n      swap1\n      pop\n        /* \"#utility.yul\":7568:7916   */\n      swap3\n      swap2\n      pop\n      pop\n      jump\t// out\n        /* \"#utility.yul\":7922:8116   */\n    tag_64:\n        /* \"#utility.yul\":7962:7966   */\n      0x00\n        /* \"#utility.yul\":7982:8002   */\n      tag_202\n        /* \"#utility.yul\":8000:8001   */\n      dup3\n        /* \"#utility.yul\":7982:8002   */\n      tag_95\n      jump\t// in\n    tag_202:\n        /* \"#utility.yul\":7977:8002   */\n      swap2\n      pop\n        /* \"#utility.yul\":8016:8036   */\n      tag_203\n        /* \"#utility.yul\":8034:8035   */\n      dup4\n        /* \"#utility.yul\":8016:8036   */\n      tag_95\n      jump\t// in\n    tag_203:\n        /* \"#utility.yul\":8011:8036   */\n      swap3\n      pop\n        /* \"#utility.yul\":8060:8061   */\n      dup3\n        /* \"#utility.yul\":8057:8058   */\n      dup3\n        /* \"#utility.yul\":8053:8062   */\n      sub\n        /* \"#utility.yul\":8045:8062   */\n      swap1\n      pop\n        /* \"#utility.yul\":8084:8085   */\n      dup2\n        /* \"#utility.yul\":8078:8082   */\n      dup2\n        /* \"#utility.yul\":8075:8086   */\n      gt\n        /* \"#utility.yul\":8072:8109   */\n      iszero\n      tag_204\n      jumpi\n        /* \"#utility.yul\":8089:8107   */\n      tag_205\n      tag_110\n      jump\t// in\n    tag_205:\n        /* \"#utility.yul\":8072:8109   */\n    tag_204:\n        /* \"#utility.yul\":7922:8116   */\n      swap3\n      swap2\n      pop\n      pop\n      jump\t// out\n        /* \"#utility.yul\":8122:8294   */\n    tag_111:\n        /* \"#utility.yul\":8262:8286   */\n      0x54686520616d6f756e7420697320746f6f206869676800000000000000000000\n        /* \"#utility.yul\":8258:8259   */\n      0x00\n        /* \"#utility.yul\":8250:8256   */\n      dup3\n        /* \"#utility.yul\":8246:8260   */\n      add\n        /* \"#utility.yul\":8239:8287   */\n      mstore\n        /* \"#utility.yul\":8122:8294   */\n      pop\n      jump\t// out\n        /* \"#utility.yul\":8300:8666   */\n    tag_112:\n        /* \"#utility.yul\":8442:8445   */\n      0x00\n        /* \"#utility.yul\":8463:8530   */\n      tag_208\n        /* \"#utility.yul\":8527:8529   */\n      0x16\n        /* \"#utility.yul\":8522:8525   */\n      dup4\n        /* \"#utility.yul\":8463:8530   */\n      tag_103\n      jump\t// in\n    tag_208:\n        /* \"#utility.yul\":8456:8530   */\n      swap2\n      pop\n        /* \"#utility.yul\":8539:8632   */\n      tag_209\n        /* \"#utility.yul\":8628:8631   */\n      dup3\n        /* \"#utility.yul\":8539:8632   */\n      tag_111\n      jump\t// in\n    tag_209:\n        /* \"#utility.yul\":8657:8659   */\n      0x20\n        /* \"#utility.yul\":8652:8655   */\n      dup3\n        /* \"#utility.yul\":8648:8660   */\n      add\n        /* \"#utility.yul\":8641:8660   */\n      swap1\n      pop\n        /* \"#utility.yul\":8300:8666   */\n      swap2\n      swap1\n      pop\n      jump\t// out\n        /* \"#utility.yul\":8672:9091   */\n    tag_67:\n        /* \"#utility.yul\":8838:8842   */\n      0x00\n        /* \"#utility.yul\":8876:8878   */\n      0x20\n        /* \"#utility.yul\":8865:8874   */\n      dup3\n        /* \"#utility.yul\":8861:8879   */\n      add\n        /* \"#utility.yul\":8853:8879   */\n      swap1\n      pop\n        /* \"#utility.yul\":8925:8934   */\n      dup2\n        /* \"#utility.yul\":8919:8923   */\n      dup2\n        /* \"#utility.yul\":8915:8935   */\n      sub\n        /* \"#utility.yul\":8911:8912   */\n      0x00\n        /* \"#utility.yul\":8900:8909   */\n      dup4\n        /* \"#utility.yul\":8896:8913   */\n      add\n        /* \"#utility.yul\":8889:8936   */\n      mstore\n        /* \"#utility.yul\":8953:9084   */\n      tag_211\n        /* \"#utility.yul\":9079:9083   */\n      dup2\n        /* \"#utility.yul\":8953:9084   */\n      tag_112\n      jump\t// in\n    tag_211:\n        /* \"#utility.yul\":8945:9084   */\n      swap1\n      pop\n        /* \"#utility.yul\":8672:9091   */\n      swap2\n      swap1\n      pop\n      jump\t// out\n        /* \"#utility.yul\":9097:9333   */\n    tag_113:\n        /* \"#utility.yul\":9237:9271   */\n      0x596f7520617265206e6f7420616c6c6f776564202d206f6e6c7920746865206f\n        /* \"#utility.yul\":9233:9234   */\n      0x00\n        /* \"#utility.yul\":9225:9231   */\n      dup3\n        /* \"#utility.yul\":9221:9235   */\n      add\n        /* \"#utility.yul\":9214:9272   */\n      mstore\n        /* \"#utility.yul\":9306:9325   */\n      0x776e65722063616e20646f20746869732e000000000000000000000000000000\n        /* \"#utility.yul\":9301:9303   */\n      0x20\n        /* \"#utility.yul\":9293:9299   */\n      dup3\n        /* \"#utility.yul\":9289:9304   */\n      add\n        /* \"#utility.yul\":9282:9326   */\n      mstore\n        /* \"#utility.yul\":9097:9333   */\n      pop\n      jump\t// out\n        /* \"#utility.yul\":9339:9705   */\n    tag_114:\n        /* \"#utility.yul\":9481:9484   */\n      0x00\n        /* \"#utility.yul\":9502:9569   */\n      tag_214\n        /* \"#utility.yul\":9566:9568   */\n      0x31\n        /* \"#utility.yul\":9561:9564   */\n      dup4\n        /* \"#utility.yul\":9502:9569   */\n      tag_103\n      jump\t// in\n    tag_214:\n        /* \"#utility.yul\":9495:9569   */\n      swap2\n      pop\n        /* \"#utility.yul\":9578:9671   */\n      tag_215\n        /* \"#utility.yul\":9667:9670   */\n      dup3\n        /* \"#utility.yul\":9578:9671   */\n      tag_113\n      jump\t// in\n    tag_215:\n        /* \"#utility.yul\":9696:9698   */\n      0x40\n        /* \"#utility.yul\":9691:9694   */\n      dup3\n        /* \"#utility.yul\":9687:9699   */\n      add\n        /* \"#utility.yul\":9680:9699   */\n      swap1\n      pop\n        /* \"#utility.yul\":9339:9705   */\n      swap2\n      swap1\n      pop\n      jump\t// out\n        /* \"#utility.yul\":9711:10130   */\n    tag_75:\n        /* \"#utility.yul\":9877:9881   */\n      0x00\n        /* \"#utility.yul\":9915:9917   */\n      0x20\n        /* \"#utility.yul\":9904:9913   */\n      dup3\n        /* \"#utility.yul\":9900:9918   */\n      add\n        /* \"#utility.yul\":9892:9918   */\n      swap1\n      pop\n        /* \"#utility.yul\":9964:9973   */\n      dup2\n        /* \"#utility.yul\":9958:9962   */\n      dup2\n        /* \"#utility.yul\":9954:9974   */\n      sub\n        /* \"#utility.yul\":9950:9951   */\n      0x00\n        /* \"#utility.yul\":9939:9948   */\n      dup4\n        /* \"#utility.yul\":9935:9952   */\n      add\n        /* \"#utility.yul\":9928:9975   */\n      mstore\n        /* \"#utility.yul\":9992:10123   */\n      tag_217\n        /* \"#utility.yul\":10118:10122   */\n      dup2\n        /* \"#utility.yul\":9992:10123   */\n      tag_114\n      jump\t// in\n    tag_217:\n        /* \"#utility.yul\":9984:10123   */\n      swap1\n      pop\n        /* \"#utility.yul\":9711:10130   */\n      swap2\n      swap1\n      pop\n      jump\t// out\n        /* \"#utility.yul\":10136:10365   */\n    tag_115:\n        /* \"#utility.yul\":10276:10310   */\n      0x416e20616c6c6f77616e6365206973206e6f7420726571756972656420666f72\n        /* \"#utility.yul\":10272:10273   */\n      0x00\n        /* \"#utility.yul\":10264:10270   */\n      dup3\n        /* \"#utility.yul\":10260:10274   */\n      add\n        /* \"#utility.yul\":10253:10311   */\n      mstore\n        /* \"#utility.yul\":10345:10357   */\n      0x20746865206f776e657200000000000000000000000000000000000000000000\n        /* \"#utility.yul\":10340:10342   */\n      0x20\n        /* \"#utility.yul\":10332:10338   */\n      dup3\n        /* \"#utility.yul\":10328:10343   */\n      add\n        /* \"#utility.yul\":10321:10358   */\n      mstore\n        /* \"#utility.yul\":10136:10365   */\n      pop\n      jump\t// out\n        /* \"#utility.yul\":10371:10737   */\n    tag_116:\n        /* \"#utility.yul\":10513:10516   */\n      0x00\n        /* \"#utility.yul\":10534:10601   */\n      tag_220\n        /* \"#utility.yul\":10598:10600   */\n      0x2a\n        /* \"#utility.yul\":10593:10596   */\n      dup4\n        /* \"#utility.yul\":10534:10601   */\n      tag_103\n      jump\t// in\n    tag_220:\n        /* \"#utility.yul\":10527:10601   */\n      swap2\n      pop\n        /* \"#utility.yul\":10610:10703   */\n      tag_221\n        /* \"#utility.yul\":10699:10702   */\n      dup3\n        /* \"#utility.yul\":10610:10703   */\n      tag_115\n      jump\t// in\n    tag_221:\n        /* \"#utility.yul\":10728:10730   */\n      0x40\n        /* \"#utility.yul\":10723:10726   */\n      dup3\n        /* \"#utility.yul\":10719:10731   */\n      add\n        /* \"#utility.yul\":10712:10731   */\n      swap1\n      pop\n        /* \"#utility.yul\":10371:10737   */\n      swap2\n      swap1\n      pop\n      jump\t// out\n        /* \"#utility.yul\":10743:11162   */\n    tag_79:\n        /* \"#utility.yul\":10909:10913   */\n      0x00\n        /* \"#utility.yul\":10947:10949   */\n      0x20\n        /* \"#utility.yul\":10936:10945   */\n      dup3\n        /* \"#utility.yul\":10932:10950   */\n      add\n        /* \"#utility.yul\":10924:10950   */\n      swap1\n      pop\n        /* \"#utility.yul\":10996:11005   */\n      dup2\n        /* \"#utility.yul\":10990:10994   */\n      dup2\n        /* \"#utility.yul\":10986:11006   */\n      sub\n        /* \"#utility.yul\":10982:10983   */\n      0x00\n        /* \"#utility.yul\":10971:10980   */\n      dup4\n        /* \"#utility.yul\":10967:10984   */\n      add\n        /* \"#utility.yul\":10960:11007   */\n      mstore\n        /* \"#utility.yul\":11024:11155   */\n      tag_223\n        /* \"#utility.yul\":11150:11154   */\n      dup2\n        /* \"#utility.yul\":11024:11155   */\n      tag_116\n      jump\t// in\n    tag_223:\n        /* \"#utility.yul\":11016:11155   */\n      swap1\n      pop\n        /* \"#utility.yul\":10743:11162   */\n      swap2\n      swap1\n      pop\n      jump\t// out\n        /* \"#utility.yul\":11168:11391   */\n    tag_117:\n        /* \"#utility.yul\":11308:11342   */\n      0x546865206164647265737320616c72656164792068617320616e20616c6c6f77\n        /* \"#utility.yul\":11304:11305   */\n      0x00\n        /* \"#utility.yul\":11296:11302   */\n      dup3\n        /* \"#utility.yul\":11292:11306   */\n      add\n        /* \"#utility.yul\":11285:11343   */\n      mstore\n        /* \"#utility.yul\":11377:11383   */\n      0x616e636500000000000000000000000000000000000000000000000000000000\n        /* \"#utility.yul\":11372:11374   */\n      0x20\n        /* \"#utility.yul\":11364:11370   */\n      dup3\n        /* \"#utility.yul\":11360:11375   */\n      add\n        /* \"#utility.yul\":11353:11384   */\n      mstore\n        /* \"#utility.yul\":11168:11391   */\n      pop\n      jump\t// out\n        /* \"#utility.yul\":11397:11763   */\n    tag_118:\n        /* \"#utility.yul\":11539:11542   */\n      0x00\n        /* \"#utility.yul\":11560:11627   */\n      tag_226\n        /* \"#utility.yul\":11624:11626   */\n      0x24\n        /* \"#utility.yul\":11619:11622   */\n      dup4\n        /* \"#utility.yul\":11560:11627   */\n      tag_103\n      jump\t// in\n    tag_226:\n        /* \"#utility.yul\":11553:11627   */\n      swap2\n      pop\n        /* \"#utility.yul\":11636:11729   */\n      tag_227\n        /* \"#utility.yul\":11725:11728   */\n      dup3\n        /* \"#utility.yul\":11636:11729   */\n      tag_117\n      jump\t// in\n    tag_227:\n        /* \"#utility.yul\":11754:11756   */\n      0x40\n        /* \"#utility.yul\":11749:11752   */\n      dup3\n        /* \"#utility.yul\":11745:11757   */\n      add\n        /* \"#utility.yul\":11738:11757   */\n      swap1\n      pop\n        /* \"#utility.yul\":11397:11763   */\n      swap2\n      swap1\n      pop\n      jump\t// out\n        /* \"#utility.yul\":11769:12188   */\n    tag_82:\n        /* \"#utility.yul\":11935:11939   */\n      0x00\n        /* \"#utility.yul\":11973:11975   */\n      0x20\n        /* \"#utility.yul\":11962:11971   */\n      dup3\n        /* \"#utility.yul\":11958:11976   */\n      add\n        /* \"#utility.yul\":11950:11976   */\n      swap1\n      pop\n        /* \"#utility.yul\":12022:12031   */\n      dup2\n        /* \"#utility.yul\":12016:12020   */\n      dup2\n        /* \"#utility.yul\":12012:12032   */\n      sub\n        /* \"#utility.yul\":12008:12009   */\n      0x00\n        /* \"#utility.yul\":11997:12006   */\n      dup4\n        /* \"#utility.yul\":11993:12010   */\n      add\n        /* \"#utility.yul\":11986:12033   */\n      mstore\n        /* \"#utility.yul\":12050:12181   */\n      tag_229\n        /* \"#utility.yul\":12176:12180   */\n      dup2\n        /* \"#utility.yul\":12050:12181   */\n      tag_118\n      jump\t// in\n    tag_229:\n        /* \"#utility.yul\":12042:12181   */\n      swap1\n      pop\n        /* \"#utility.yul\":11769:12188   */\n      swap2\n      swap1\n      pop\n      jump\t// out\n        /* \"#utility.yul\":12194:12420   */\n    tag_119:\n        /* \"#utility.yul\":12334:12368   */\n      0x5468697320776f756c64206f7665722d616c6c6f636174652074686520616c6c\n        /* \"#utility.yul\":12330:12331   */\n      0x00\n        /* \"#utility.yul\":12322:12328   */\n      dup3\n        /* \"#utility.yul\":12318:12332   */\n      add\n        /* \"#utility.yul\":12311:12369   */\n      mstore\n        /* \"#utility.yul\":12403:12412   */\n      0x6f77616e63657300000000000000000000000000000000000000000000000000\n        /* \"#utility.yul\":12398:12400   */\n      0x20\n        /* \"#utility.yul\":12390:12396   */\n      dup3\n        /* \"#utility.yul\":12386:12401   */\n      add\n        /* \"#utility.yul\":12379:12413   */\n      mstore\n        /* \"#utility.yul\":12194:12420   */\n      pop\n      jump\t// out\n        /* \"#utility.yul\":12426:12792   */\n    tag_120:\n        /* \"#utility.yul\":12568:12571   */\n      0x00\n        /* \"#utility.yul\":12589:12656   */\n      tag_232\n        /* \"#utility.yul\":12653:12655   */\n      0x27\n        /* \"#utility.yul\":12648:12651   */\n      dup4\n        /* \"#utility.yul\":12589:12656   */\n      tag_103\n      jump\t// in\n    tag_232:\n        /* \"#utility.yul\":12582:12656   */\n      swap2\n      pop\n        /* \"#utility.yul\":12665:12758   */\n      tag_233\n        /* \"#utility.yul\":12754:12757   */\n      dup3\n        /* \"#utility.yul\":12665:12758   */\n      tag_119\n      jump\t// in\n    tag_233:\n        /* \"#utility.yul\":12783:12785   */\n      0x40\n        /* \"#utility.yul\":12778:12781   */\n      dup3\n        /* \"#utility.yul\":12774:12786   */\n      add\n        /* \"#utility.yul\":12767:12786   */\n      swap1\n      pop\n        /* \"#utility.yul\":12426:12792   */\n      swap2\n      swap1\n      pop\n      jump\t// out\n        /* \"#utility.yul\":12798:13217   */\n    tag_86:\n        /* \"#utility.yul\":12964:12968   */\n      0x00\n        /* \"#utility.yul\":13002:13004   */\n      0x20\n        /* \"#utility.yul\":12991:13000   */\n      dup3\n        /* \"#utility.yul\":12987:13005   */\n      add\n        /* \"#utility.yul\":12979:13005   */\n      swap1\n      pop\n        /* \"#utility.yul\":13051:13060   */\n      dup2\n        /* \"#utility.yul\":13045:13049   */\n      dup2\n        /* \"#utility.yul\":13041:13061   */\n      sub\n        /* \"#utility.yul\":13037:13038   */\n      0x00\n        /* \"#utility.yul\":13026:13035   */\n      dup4\n        /* \"#utility.yul\":13022:13039   */\n      add\n        /* \"#utility.yul\":13015:13062   */\n      mstore\n        /* \"#utility.yul\":13079:13210   */\n      tag_235\n        /* \"#utility.yul\":13205:13209   */\n      dup2\n        /* \"#utility.yul\":13079:13210   */\n      tag_120\n      jump\t// in\n    tag_235:\n        /* \"#utility.yul\":13071:13210   */\n      swap1\n      pop\n        /* \"#utility.yul\":12798:13217   */\n      swap2\n      swap1\n      pop\n      jump\t// out\n\n    auxdata: 0xa264697066735822122035d61b66b255c786218dacab6965659b673fd9dc2c162a403c60fc1dc50ba15964736f6c63430008100033\n}\n",
				"bytecode": {
					"linkReferences": {},
					"object": "608060405234801561001057600080fd5b50336000806101000a81548173ffffffffffffffffffffffffffffffffffffffff021916908373ffffffffffffffffffffffffffffffffffffffff160217905550610f0b806100606000396000f3fe60806040526004361061007b5760003560e01c80633e7279a31161004e5780633e7279a31461011c57806341c61383146101455780638b7afe2e146101705780638da5cb5b1461019b5761007b565b8063015677391461008057806305737314146100be57806316a51305146100c85780632d70db2f146100f3575b600080fd5b34801561008c57600080fd5b506100a760048036038101906100a291906107f1565b6101c6565b6040516100b5929190610837565b60405180910390f35b6100c66101ea565b005b3480156100d457600080fd5b506100dd6101f3565b6040516100ea9190610860565b60405180910390f35b3480156100ff57600080fd5b5061011a600480360381019061011591906108e5565b6101f9565b005b34801561012857600080fd5b50610143600480360381019061013e9190610925565b610509565b005b34801561015157600080fd5b5061015a61075e565b6040516101679190610860565b60405180910390f35b34801561017c57600080fd5b50610185610764565b6040516101929190610860565b60405180910390f35b3480156101a757600080fd5b506101b061076a565b6040516101bd9190610974565b60405180910390f35b60016020528060005260406000206000915090508060000154908060010154905082565b47600481905550565b60025481565b60008054906101000a900473ffffffffffffffffffffffffffffffffffffffff1673ffffffffffffffffffffffffffffffffffffffff163373ffffffffffffffffffffffffffffffffffffffff1603610287576040517f08c379a000000000000000000000000000000000000000000000000000000000815260040161027e90610a12565b60405180910390fd5b600047116102ca576040517f08c379a00000000000000000000000000000000000000000000000000000000081526004016102c190610aa4565b60405180910390fd5b6000600160003373ffffffffffffffffffffffffffffffffffffffff1673ffffffffffffffffffffffffffffffffffffffff168152602001908152602001600020600001541161034f576040517f08c379a000000000000000000000000000000000000000000000000000000000815260040161034690610b10565b60405180910390fd5b6000600160003373ffffffffffffffffffffffffffffffffffffffff1673ffffffffffffffffffffffffffffffffffffffff1681526020019081526020016000206000015490506000600160003373ffffffffffffffffffffffffffffffffffffffff1673ffffffffffffffffffffffffffffffffffffffff16815260200190815260200160002060010154600354476103e99190610b5f565b836103f49190610b93565b6103fe9190610bed565b905080831115610443576040517f08c379a000000000000000000000000000000000000000000000000000000000815260040161043a90610c6d565b60405180910390fd5b82600160003373ffffffffffffffffffffffffffffffffffffffff1673ffffffffffffffffffffffffffffffffffffffff16815260200190815260200160002060010160008282546104959190610b5f565b9250508190555082600360008282546104ae9190610b5f565b92505081905550476004819055508373ffffffffffffffffffffffffffffffffffffffff166108fc849081150290604051600060405180830381858888f19350505050158015610502573d6000803e3d6000fd5b5050505050565b60008054906101000a900473ffffffffffffffffffffffffffffffffffffffff1673ffffffffffffffffffffffffffffffffffffffff163373ffffffffffffffffffffffffffffffffffffffff1614610597576040517f08c379a000000000000000000000000000000000000000000000000000000000815260040161058e90610cff565b60405180910390fd5b60008054906101000a900473ffffffffffffffffffffffffffffffffffffffff1673ffffffffffffffffffffffffffffffffffffffff168273ffffffffffffffffffffffffffffffffffffffff1603610625576040517f08c379a000000000000000000000000000000000000000000000000000000000815260040161061c90610d91565b60405180910390fd5b6000600160008473ffffffffffffffffffffffffffffffffffffffff1673ffffffffffffffffffffffffffffffffffffffff16815260200190815260200160002060000154146106aa576040517f08c379a00000000000000000000000000000000000000000000000000000000081526004016106a190610e23565b60405180910390fd5b6064816002546106ba9190610b5f565b106106fa576040517f08c379a00000000000000000000000000000000000000000000000000000000081526004016106f190610eb5565b60405180910390fd5b80600160008473ffffffffffffffffffffffffffffffffffffffff1673ffffffffffffffffffffffffffffffffffffffff1681526020019081526020016000206000018190555080600260008282546107539190610b5f565b925050819055505050565b60035481565b60045481565b60008054906101000a900473ffffffffffffffffffffffffffffffffffffffff1681565b600080fd5b600073ffffffffffffffffffffffffffffffffffffffff82169050919050565b60006107be82610793565b9050919050565b6107ce816107b3565b81146107d957600080fd5b50565b6000813590506107eb816107c5565b92915050565b6000602082840312156108075761080661078e565b5b6000610815848285016107dc565b91505092915050565b6000819050919050565b6108318161081e565b82525050565b600060408201905061084c6000830185610828565b6108596020830184610828565b9392505050565b60006020820190506108756000830184610828565b92915050565b600061088682610793565b9050919050565b6108968161087b565b81146108a157600080fd5b50565b6000813590506108b38161088d565b92915050565b6108c28161081e565b81146108cd57600080fd5b50565b6000813590506108df816108b9565b92915050565b600080604083850312156108fc576108fb61078e565b5b600061090a858286016108a4565b925050602061091b858286016108d0565b9150509250929050565b6000806040838503121561093c5761093b61078e565b5b600061094a858286016107dc565b925050602061095b858286016108d0565b9150509250929050565b61096e816107b3565b82525050565b60006020820190506109896000830184610965565b92915050565b600082825260208201905092915050565b7f546865206f776e65722073686f756c6420757365204f776e657257697468647260008201527f61772066756e6374696f6e000000000000000000000000000000000000000000602082015250565b60006109fc602b8361098f565b9150610a07826109a0565b604082019050919050565b60006020820190508181036000830152610a2b816109ef565b9050919050565b7f5468657265206973206e6f206d6f6e657920696e207468652077616c6c65742060008201527f746f20636c61696d000000000000000000000000000000000000000000000000602082015250565b6000610a8e60288361098f565b9150610a9982610a32565b604082019050919050565b60006020820190508181036000830152610abd81610a81565b9050919050565b7f596f7520646f206e6f74206861766520616e7920616c6c6f77616e6365000000600082015250565b6000610afa601d8361098f565b9150610b0582610ac4565b602082019050919050565b60006020820190508181036000830152610b2981610aed565b9050919050565b7f4e487b7100000000000000000000000000000000000000000000000000000000600052601160045260246000fd5b6000610b6a8261081e565b9150610b758361081e565b9250828201905080821115610b8d57610b8c610b30565b5b92915050565b6000610b9e8261081e565b9150610ba98361081e565b9250817fffffffffffffffffffffffffffffffffffffffffffffffffffffffffffffffff0483118215151615610be257610be1610b30565b5b828202905092915050565b6000610bf88261081e565b9150610c038361081e565b9250828203905081811115610c1b57610c1a610b30565b5b92915050565b7f54686520616d6f756e7420697320746f6f206869676800000000000000000000600082015250565b6000610c5760168361098f565b9150610c6282610c21565b602082019050919050565b60006020820190508181036000830152610c8681610c4a565b9050919050565b7f596f7520617265206e6f7420616c6c6f776564202d206f6e6c7920746865206f60008201527f776e65722063616e20646f20746869732e000000000000000000000000000000602082015250565b6000610ce960318361098f565b9150610cf482610c8d565b604082019050919050565b60006020820190508181036000830152610d1881610cdc565b9050919050565b7f416e20616c6c6f77616e6365206973206e6f7420726571756972656420666f7260008201527f20746865206f776e657200000000000000000000000000000000000000000000602082015250565b6000610d7b602a8361098f565b9150610d8682610d1f565b604082019050919050565b60006020820190508181036000830152610daa81610d6e565b9050919050565b7f546865206164647265737320616c72656164792068617320616e20616c6c6f7760008201527f616e636500000000000000000000000000000000000000000000000000000000602082015250565b6000610e0d60248361098f565b9150610e1882610db1565b604082019050919050565b60006020820190508181036000830152610e3c81610e00565b9050919050565b7f5468697320776f756c64206f7665722d616c6c6f636174652074686520616c6c60008201527f6f77616e63657300000000000000000000000000000000000000000000000000602082015250565b6000610e9f60278361098f565b9150610eaa82610e43565b604082019050919050565b60006020820190508181036000830152610ece81610e92565b905091905056fea264697066735822122035d61b66b255c786218dacab6965659b673fd9dc2c162a403c60fc1dc50ba15964736f6c63430008100033",
					"opcodes": "PUSH1 0x80 PUSH1 0x40 MSTORE CALLVALUE DUP1 ISZERO PUSH2 0x10 JUMPI PUSH1 0x0 DUP1 REVERT JUMPDEST POP CALLER PUSH1 0x0 DUP1 PUSH2 0x100 EXP DUP2 SLOAD DUP2 PUSH20 0xFFFFFFFFFFFFFFFFFFFFFFFFFFFFFFFFFFFFFFFF MUL NOT AND SWAP1 DUP4 PUSH20 0xFFFFFFFFFFFFFFFFFFFFFFFFFFFFFFFFFFFFFFFF AND MUL OR SWAP1 SSTORE POP PUSH2 0xF0B DUP1 PUSH2 0x60 PUSH1 0x0 CODECOPY PUSH1 0x0 RETURN INVALID PUSH1 0x80 PUSH1 0x40 MSTORE PUSH1 0x4 CALLDATASIZE LT PUSH2 0x7B JUMPI PUSH1 0x0 CALLDATALOAD PUSH1 0xE0 SHR DUP1 PUSH4 0x3E7279A3 GT PUSH2 0x4E JUMPI DUP1 PUSH4 0x3E7279A3 EQ PUSH2 0x11C JUMPI DUP1 PUSH4 0x41C61383 EQ PUSH2 0x145 JUMPI DUP1 PUSH4 0x8B7AFE2E EQ PUSH2 0x170 JUMPI DUP1 PUSH4 0x8DA5CB5B EQ PUSH2 0x19B JUMPI PUSH2 0x7B JUMP JUMPDEST DUP1 PUSH4 0x1567739 EQ PUSH2 0x80 JUMPI DUP1 PUSH4 0x5737314 EQ PUSH2 0xBE JUMPI DUP1 PUSH4 0x16A51305 EQ PUSH2 0xC8 JUMPI DUP1 PUSH4 0x2D70DB2F EQ PUSH2 0xF3 JUMPI JUMPDEST PUSH1 0x0 DUP1 REVERT JUMPDEST CALLVALUE DUP1 ISZERO PUSH2 0x8C JUMPI PUSH1 0x0 DUP1 REVERT JUMPDEST POP PUSH2 0xA7 PUSH1 0x4 DUP1 CALLDATASIZE SUB DUP2 ADD SWAP1 PUSH2 0xA2 SWAP2 SWAP1 PUSH2 0x7F1 JUMP JUMPDEST PUSH2 0x1C6 JUMP JUMPDEST PUSH1 0x40 MLOAD PUSH2 0xB5 SWAP3 SWAP2 SWAP1 PUSH2 0x837 JUMP JUMPDEST PUSH1 0x40 MLOAD DUP1 SWAP2 SUB SWAP1 RETURN JUMPDEST PUSH2 0xC6 PUSH2 0x1EA JUMP JUMPDEST STOP JUMPDEST CALLVALUE DUP1 ISZERO PUSH2 0xD4 JUMPI PUSH1 0x0 DUP1 REVERT JUMPDEST POP PUSH2 0xDD PUSH2 0x1F3 JUMP JUMPDEST PUSH1 0x40 MLOAD PUSH2 0xEA SWAP2 SWAP1 PUSH2 0x860 JUMP JUMPDEST PUSH1 0x40 MLOAD DUP1 SWAP2 SUB SWAP1 RETURN JUMPDEST CALLVALUE DUP1 ISZERO PUSH2 0xFF JUMPI PUSH1 0x0 DUP1 REVERT JUMPDEST POP PUSH2 0x11A PUSH1 0x4 DUP1 CALLDATASIZE SUB DUP2 ADD SWAP1 PUSH2 0x115 SWAP2 SWAP1 PUSH2 0x8E5 JUMP JUMPDEST PUSH2 0x1F9 JUMP JUMPDEST STOP JUMPDEST CALLVALUE DUP1 ISZERO PUSH2 0x128 JUMPI PUSH1 0x0 DUP1 REVERT JUMPDEST POP PUSH2 0x143 PUSH1 0x4 DUP1 CALLDATASIZE SUB DUP2 ADD SWAP1 PUSH2 0x13E SWAP2 SWAP1 PUSH2 0x925 JUMP JUMPDEST PUSH2 0x509 JUMP JUMPDEST STOP JUMPDEST CALLVALUE DUP1 ISZERO PUSH2 0x151 JUMPI PUSH1 0x0 DUP1 REVERT JUMPDEST POP PUSH2 0x15A PUSH2 0x75E JUMP JUMPDEST PUSH1 0x40 MLOAD PUSH2 0x167 SWAP2 SWAP1 PUSH2 0x860 JUMP JUMPDEST PUSH1 0x40 MLOAD DUP1 SWAP2 SUB SWAP1 RETURN JUMPDEST CALLVALUE DUP1 ISZERO PUSH2 0x17C JUMPI PUSH1 0x0 DUP1 REVERT JUMPDEST POP PUSH2 0x185 PUSH2 0x764 JUMP JUMPDEST PUSH1 0x40 MLOAD PUSH2 0x192 SWAP2 SWAP1 PUSH2 0x860 JUMP JUMPDEST PUSH1 0x40 MLOAD DUP1 SWAP2 SUB SWAP1 RETURN JUMPDEST CALLVALUE DUP1 ISZERO PUSH2 0x1A7 JUMPI PUSH1 0x0 DUP1 REVERT JUMPDEST POP PUSH2 0x1B0 PUSH2 0x76A JUMP JUMPDEST PUSH1 0x40 MLOAD PUSH2 0x1BD SWAP2 SWAP1 PUSH2 0x974 JUMP JUMPDEST PUSH1 0x40 MLOAD DUP1 SWAP2 SUB SWAP1 RETURN JUMPDEST PUSH1 0x1 PUSH1 0x20 MSTORE DUP1 PUSH1 0x0 MSTORE PUSH1 0x40 PUSH1 0x0 KECCAK256 PUSH1 0x0 SWAP2 POP SWAP1 POP DUP1 PUSH1 0x0 ADD SLOAD SWAP1 DUP1 PUSH1 0x1 ADD SLOAD SWAP1 POP DUP3 JUMP JUMPDEST SELFBALANCE PUSH1 0x4 DUP2 SWAP1 SSTORE POP JUMP JUMPDEST PUSH1 0x2 SLOAD DUP2 JUMP JUMPDEST PUSH1 0x0 DUP1 SLOAD SWAP1 PUSH2 0x100 EXP SWAP1 DIV PUSH20 0xFFFFFFFFFFFFFFFFFFFFFFFFFFFFFFFFFFFFFFFF AND PUSH20 0xFFFFFFFFFFFFFFFFFFFFFFFFFFFFFFFFFFFFFFFF AND CALLER PUSH20 0xFFFFFFFFFFFFFFFFFFFFFFFFFFFFFFFFFFFFFFFF AND SUB PUSH2 0x287 JUMPI PUSH1 0x40 MLOAD PUSH32 0x8C379A000000000000000000000000000000000000000000000000000000000 DUP2 MSTORE PUSH1 0x4 ADD PUSH2 0x27E SWAP1 PUSH2 0xA12 JUMP JUMPDEST PUSH1 0x40 MLOAD DUP1 SWAP2 SUB SWAP1 REVERT JUMPDEST PUSH1 0x0 SELFBALANCE GT PUSH2 0x2CA JUMPI PUSH1 0x40 MLOAD PUSH32 0x8C379A000000000000000000000000000000000000000000000000000000000 DUP2 MSTORE PUSH1 0x4 ADD PUSH2 0x2C1 SWAP1 PUSH2 0xAA4 JUMP JUMPDEST PUSH1 0x40 MLOAD DUP1 SWAP2 SUB SWAP1 REVERT JUMPDEST PUSH1 0x0 PUSH1 0x1 PUSH1 0x0 CALLER PUSH20 0xFFFFFFFFFFFFFFFFFFFFFFFFFFFFFFFFFFFFFFFF AND PUSH20 0xFFFFFFFFFFFFFFFFFFFFFFFFFFFFFFFFFFFFFFFF AND DUP2 MSTORE PUSH1 0x20 ADD SWAP1 DUP2 MSTORE PUSH1 0x20 ADD PUSH1 0x0 KECCAK256 PUSH1 0x0 ADD SLOAD GT PUSH2 0x34F JUMPI PUSH1 0x40 MLOAD PUSH32 0x8C379A000000000000000000000000000000000000000000000000000000000 DUP2 MSTORE PUSH1 0x4 ADD PUSH2 0x346 SWAP1 PUSH2 0xB10 JUMP JUMPDEST PUSH1 0x40 MLOAD DUP1 SWAP2 SUB SWAP1 REVERT JUMPDEST PUSH1 0x0 PUSH1 0x1 PUSH1 0x0 CALLER PUSH20 0xFFFFFFFFFFFFFFFFFFFFFFFFFFFFFFFFFFFFFFFF AND PUSH20 0xFFFFFFFFFFFFFFFFFFFFFFFFFFFFFFFFFFFFFFFF AND DUP2 MSTORE PUSH1 0x20 ADD SWAP1 DUP2 MSTORE PUSH1 0x20 ADD PUSH1 0x0 KECCAK256 PUSH1 0x0 ADD SLOAD SWAP1 POP PUSH1 0x0 PUSH1 0x1 PUSH1 0x0 CALLER PUSH20 0xFFFFFFFFFFFFFFFFFFFFFFFFFFFFFFFFFFFFFFFF AND PUSH20 0xFFFFFFFFFFFFFFFFFFFFFFFFFFFFFFFFFFFFFFFF AND DUP2 MSTORE PUSH1 0x20 ADD SWAP1 DUP2 MSTORE PUSH1 0x20 ADD PUSH1 0x0 KECCAK256 PUSH1 0x1 ADD SLOAD PUSH1 0x3 SLOAD SELFBALANCE PUSH2 0x3E9 SWAP2 SWAP1 PUSH2 0xB5F JUMP JUMPDEST DUP4 PUSH2 0x3F4 SWAP2 SWAP1 PUSH2 0xB93 JUMP JUMPDEST PUSH2 0x3FE SWAP2 SWAP1 PUSH2 0xBED JUMP JUMPDEST SWAP1 POP DUP1 DUP4 GT ISZERO PUSH2 0x443 JUMPI PUSH1 0x40 MLOAD PUSH32 0x8C379A000000000000000000000000000000000000000000000000000000000 DUP2 MSTORE PUSH1 0x4 ADD PUSH2 0x43A SWAP1 PUSH2 0xC6D JUMP JUMPDEST PUSH1 0x40 MLOAD DUP1 SWAP2 SUB SWAP1 REVERT JUMPDEST DUP3 PUSH1 0x1 PUSH1 0x0 CALLER PUSH20 0xFFFFFFFFFFFFFFFFFFFFFFFFFFFFFFFFFFFFFFFF AND PUSH20 0xFFFFFFFFFFFFFFFFFFFFFFFFFFFFFFFFFFFFFFFF AND DUP2 MSTORE PUSH1 0x20 ADD SWAP1 DUP2 MSTORE PUSH1 0x20 ADD PUSH1 0x0 KECCAK256 PUSH1 0x1 ADD PUSH1 0x0 DUP3 DUP3 SLOAD PUSH2 0x495 SWAP2 SWAP1 PUSH2 0xB5F JUMP JUMPDEST SWAP3 POP POP DUP2 SWAP1 SSTORE POP DUP3 PUSH1 0x3 PUSH1 0x0 DUP3 DUP3 SLOAD PUSH2 0x4AE SWAP2 SWAP1 PUSH2 0xB5F JUMP JUMPDEST SWAP3 POP POP DUP2 SWAP1 SSTORE POP SELFBALANCE PUSH1 0x4 DUP2 SWAP1 SSTORE POP DUP4 PUSH20 0xFFFFFFFFFFFFFFFFFFFFFFFFFFFFFFFFFFFFFFFF AND PUSH2 0x8FC DUP5 SWAP1 DUP2 ISZERO MUL SWAP1 PUSH1 0x40 MLOAD PUSH1 0x0 PUSH1 0x40 MLOAD DUP1 DUP4 SUB DUP2 DUP6 DUP9 DUP9 CALL SWAP4 POP POP POP POP ISZERO DUP1 ISZERO PUSH2 0x502 JUMPI RETURNDATASIZE PUSH1 0x0 DUP1 RETURNDATACOPY RETURNDATASIZE PUSH1 0x0 REVERT JUMPDEST POP POP POP POP POP JUMP JUMPDEST PUSH1 0x0 DUP1 SLOAD SWAP1 PUSH2 0x100 EXP SWAP1 DIV PUSH20 0xFFFFFFFFFFFFFFFFFFFFFFFFFFFFFFFFFFFFFFFF AND PUSH20 0xFFFFFFFFFFFFFFFFFFFFFFFFFFFFFFFFFFFFFFFF AND CALLER PUSH20 0xFFFFFFFFFFFFFFFFFFFFFFFFFFFFFFFFFFFFFFFF AND EQ PUSH2 0x597 JUMPI PUSH1 0x40 MLOAD PUSH32 0x8C379A000000000000000000000000000000000000000000000000000000000 DUP2 MSTORE PUSH1 0x4 ADD PUSH2 0x58E SWAP1 PUSH2 0xCFF JUMP JUMPDEST PUSH1 0x40 MLOAD DUP1 SWAP2 SUB SWAP1 REVERT JUMPDEST PUSH1 0x0 DUP1 SLOAD SWAP1 PUSH2 0x100 EXP SWAP1 DIV PUSH20 0xFFFFFFFFFFFFFFFFFFFFFFFFFFFFFFFFFFFFFFFF AND PUSH20 0xFFFFFFFFFFFFFFFFFFFFFFFFFFFFFFFFFFFFFFFF AND DUP3 PUSH20 0xFFFFFFFFFFFFFFFFFFFFFFFFFFFFFFFFFFFFFFFF AND SUB PUSH2 0x625 JUMPI PUSH1 0x40 MLOAD PUSH32 0x8C379A000000000000000000000000000000000000000000000000000000000 DUP2 MSTORE PUSH1 0x4 ADD PUSH2 0x61C SWAP1 PUSH2 0xD91 JUMP JUMPDEST PUSH1 0x40 MLOAD DUP1 SWAP2 SUB SWAP1 REVERT JUMPDEST PUSH1 0x0 PUSH1 0x1 PUSH1 0x0 DUP5 PUSH20 0xFFFFFFFFFFFFFFFFFFFFFFFFFFFFFFFFFFFFFFFF AND PUSH20 0xFFFFFFFFFFFFFFFFFFFFFFFFFFFFFFFFFFFFFFFF AND DUP2 MSTORE PUSH1 0x20 ADD SWAP1 DUP2 MSTORE PUSH1 0x20 ADD PUSH1 0x0 KECCAK256 PUSH1 0x0 ADD SLOAD EQ PUSH2 0x6AA JUMPI PUSH1 0x40 MLOAD PUSH32 0x8C379A000000000000000000000000000000000000000000000000000000000 DUP2 MSTORE PUSH1 0x4 ADD PUSH2 0x6A1 SWAP1 PUSH2 0xE23 JUMP JUMPDEST PUSH1 0x40 MLOAD DUP1 SWAP2 SUB SWAP1 REVERT JUMPDEST PUSH1 0x64 DUP2 PUSH1 0x2 SLOAD PUSH2 0x6BA SWAP2 SWAP1 PUSH2 0xB5F JUMP JUMPDEST LT PUSH2 0x6FA JUMPI PUSH1 0x40 MLOAD PUSH32 0x8C379A000000000000000000000000000000000000000000000000000000000 DUP2 MSTORE PUSH1 0x4 ADD PUSH2 0x6F1 SWAP1 PUSH2 0xEB5 JUMP JUMPDEST PUSH1 0x40 MLOAD DUP1 SWAP2 SUB SWAP1 REVERT JUMPDEST DUP1 PUSH1 0x1 PUSH1 0x0 DUP5 PUSH20 0xFFFFFFFFFFFFFFFFFFFFFFFFFFFFFFFFFFFFFFFF AND PUSH20 0xFFFFFFFFFFFFFFFFFFFFFFFFFFFFFFFFFFFFFFFF AND DUP2 MSTORE PUSH1 0x20 ADD SWAP1 DUP2 MSTORE PUSH1 0x20 ADD PUSH1 0x0 KECCAK256 PUSH1 0x0 ADD DUP2 SWAP1 SSTORE POP DUP1 PUSH1 0x2 PUSH1 0x0 DUP3 DUP3 SLOAD PUSH2 0x753 SWAP2 SWAP1 PUSH2 0xB5F JUMP JUMPDEST SWAP3 POP POP DUP2 SWAP1 SSTORE POP POP POP JUMP JUMPDEST PUSH1 0x3 SLOAD DUP2 JUMP JUMPDEST PUSH1 0x4 SLOAD DUP2 JUMP JUMPDEST PUSH1 0x0 DUP1 SLOAD SWAP1 PUSH2 0x100 EXP SWAP1 DIV PUSH20 0xFFFFFFFFFFFFFFFFFFFFFFFFFFFFFFFFFFFFFFFF AND DUP2 JUMP JUMPDEST PUSH1 0x0 DUP1 REVERT JUMPDEST PUSH1 0x0 PUSH20 0xFFFFFFFFFFFFFFFFFFFFFFFFFFFFFFFFFFFFFFFF DUP3 AND SWAP1 POP SWAP2 SWAP1 POP JUMP JUMPDEST PUSH1 0x0 PUSH2 0x7BE DUP3 PUSH2 0x793 JUMP JUMPDEST SWAP1 POP SWAP2 SWAP1 POP JUMP JUMPDEST PUSH2 0x7CE DUP2 PUSH2 0x7B3 JUMP JUMPDEST DUP2 EQ PUSH2 0x7D9 JUMPI PUSH1 0x0 DUP1 REVERT JUMPDEST POP JUMP JUMPDEST PUSH1 0x0 DUP2 CALLDATALOAD SWAP1 POP PUSH2 0x7EB DUP2 PUSH2 0x7C5 JUMP JUMPDEST SWAP3 SWAP2 POP POP JUMP JUMPDEST PUSH1 0x0 PUSH1 0x20 DUP3 DUP5 SUB SLT ISZERO PUSH2 0x807 JUMPI PUSH2 0x806 PUSH2 0x78E JUMP JUMPDEST JUMPDEST PUSH1 0x0 PUSH2 0x815 DUP5 DUP3 DUP6 ADD PUSH2 0x7DC JUMP JUMPDEST SWAP2 POP POP SWAP3 SWAP2 POP POP JUMP JUMPDEST PUSH1 0x0 DUP2 SWAP1 POP SWAP2 SWAP1 POP JUMP JUMPDEST PUSH2 0x831 DUP2 PUSH2 0x81E JUMP JUMPDEST DUP3 MSTORE POP POP JUMP JUMPDEST PUSH1 0x0 PUSH1 0x40 DUP3 ADD SWAP1 POP PUSH2 0x84C PUSH1 0x0 DUP4 ADD DUP6 PUSH2 0x828 JUMP JUMPDEST PUSH2 0x859 PUSH1 0x20 DUP4 ADD DUP5 PUSH2 0x828 JUMP JUMPDEST SWAP4 SWAP3 POP POP POP JUMP JUMPDEST PUSH1 0x0 PUSH1 0x20 DUP3 ADD SWAP1 POP PUSH2 0x875 PUSH1 0x0 DUP4 ADD DUP5 PUSH2 0x828 JUMP JUMPDEST SWAP3 SWAP2 POP POP JUMP JUMPDEST PUSH1 0x0 PUSH2 0x886 DUP3 PUSH2 0x793 JUMP JUMPDEST SWAP1 POP SWAP2 SWAP1 POP JUMP JUMPDEST PUSH2 0x896 DUP2 PUSH2 0x87B JUMP JUMPDEST DUP2 EQ PUSH2 0x8A1 JUMPI PUSH1 0x0 DUP1 REVERT JUMPDEST POP JUMP JUMPDEST PUSH1 0x0 DUP2 CALLDATALOAD SWAP1 POP PUSH2 0x8B3 DUP2 PUSH2 0x88D JUMP JUMPDEST SWAP3 SWAP2 POP POP JUMP JUMPDEST PUSH2 0x8C2 DUP2 PUSH2 0x81E JUMP JUMPDEST DUP2 EQ PUSH2 0x8CD JUMPI PUSH1 0x0 DUP1 REVERT JUMPDEST POP JUMP JUMPDEST PUSH1 0x0 DUP2 CALLDATALOAD SWAP1 POP PUSH2 0x8DF DUP2 PUSH2 0x8B9 JUMP JUMPDEST SWAP3 SWAP2 POP POP JUMP JUMPDEST PUSH1 0x0 DUP1 PUSH1 0x40 DUP4 DUP6 SUB SLT ISZERO PUSH2 0x8FC JUMPI PUSH2 0x8FB PUSH2 0x78E JUMP JUMPDEST JUMPDEST PUSH1 0x0 PUSH2 0x90A DUP6 DUP3 DUP7 ADD PUSH2 0x8A4 JUMP JUMPDEST SWAP3 POP POP PUSH1 0x20 PUSH2 0x91B DUP6 DUP3 DUP7 ADD PUSH2 0x8D0 JUMP JUMPDEST SWAP2 POP POP SWAP3 POP SWAP3 SWAP1 POP JUMP JUMPDEST PUSH1 0x0 DUP1 PUSH1 0x40 DUP4 DUP6 SUB SLT ISZERO PUSH2 0x93C JUMPI PUSH2 0x93B PUSH2 0x78E JUMP JUMPDEST JUMPDEST PUSH1 0x0 PUSH2 0x94A DUP6 DUP3 DUP7 ADD PUSH2 0x7DC JUMP JUMPDEST SWAP3 POP POP PUSH1 0x20 PUSH2 0x95B DUP6 DUP3 DUP7 ADD PUSH2 0x8D0 JUMP JUMPDEST SWAP2 POP POP SWAP3 POP SWAP3 SWAP1 POP JUMP JUMPDEST PUSH2 0x96E DUP2 PUSH2 0x7B3 JUMP JUMPDEST DUP3 MSTORE POP POP JUMP JUMPDEST PUSH1 0x0 PUSH1 0x20 DUP3 ADD SWAP1 POP PUSH2 0x989 PUSH1 0x0 DUP4 ADD DUP5 PUSH2 0x965 JUMP JUMPDEST SWAP3 SWAP2 POP POP JUMP JUMPDEST PUSH1 0x0 DUP3 DUP3 MSTORE PUSH1 0x20 DUP3 ADD SWAP1 POP SWAP3 SWAP2 POP POP JUMP JUMPDEST PUSH32 0x546865206F776E65722073686F756C6420757365204F776E6572576974686472 PUSH1 0x0 DUP3 ADD MSTORE PUSH32 0x61772066756E6374696F6E000000000000000000000000000000000000000000 PUSH1 0x20 DUP3 ADD MSTORE POP JUMP JUMPDEST PUSH1 0x0 PUSH2 0x9FC PUSH1 0x2B DUP4 PUSH2 0x98F JUMP JUMPDEST SWAP2 POP PUSH2 0xA07 DUP3 PUSH2 0x9A0 JUMP JUMPDEST PUSH1 0x40 DUP3 ADD SWAP1 POP SWAP2 SWAP1 POP JUMP JUMPDEST PUSH1 0x0 PUSH1 0x20 DUP3 ADD SWAP1 POP DUP2 DUP2 SUB PUSH1 0x0 DUP4 ADD MSTORE PUSH2 0xA2B DUP2 PUSH2 0x9EF JUMP JUMPDEST SWAP1 POP SWAP2 SWAP1 POP JUMP JUMPDEST PUSH32 0x5468657265206973206E6F206D6F6E657920696E207468652077616C6C657420 PUSH1 0x0 DUP3 ADD MSTORE PUSH32 0x746F20636C61696D000000000000000000000000000000000000000000000000 PUSH1 0x20 DUP3 ADD MSTORE POP JUMP JUMPDEST PUSH1 0x0 PUSH2 0xA8E PUSH1 0x28 DUP4 PUSH2 0x98F JUMP JUMPDEST SWAP2 POP PUSH2 0xA99 DUP3 PUSH2 0xA32 JUMP JUMPDEST PUSH1 0x40 DUP3 ADD SWAP1 POP SWAP2 SWAP1 POP JUMP JUMPDEST PUSH1 0x0 PUSH1 0x20 DUP3 ADD SWAP1 POP DUP2 DUP2 SUB PUSH1 0x0 DUP4 ADD MSTORE PUSH2 0xABD DUP2 PUSH2 0xA81 JUMP JUMPDEST SWAP1 POP SWAP2 SWAP1 POP JUMP JUMPDEST PUSH32 0x596F7520646F206E6F74206861766520616E7920616C6C6F77616E6365000000 PUSH1 0x0 DUP3 ADD MSTORE POP JUMP JUMPDEST PUSH1 0x0 PUSH2 0xAFA PUSH1 0x1D DUP4 PUSH2 0x98F JUMP JUMPDEST SWAP2 POP PUSH2 0xB05 DUP3 PUSH2 0xAC4 JUMP JUMPDEST PUSH1 0x20 DUP3 ADD SWAP1 POP SWAP2 SWAP1 POP JUMP JUMPDEST PUSH1 0x0 PUSH1 0x20 DUP3 ADD SWAP1 POP DUP2 DUP2 SUB PUSH1 0x0 DUP4 ADD MSTORE PUSH2 0xB29 DUP2 PUSH2 0xAED JUMP JUMPDEST SWAP1 POP SWAP2 SWAP1 POP JUMP JUMPDEST PUSH32 0x4E487B7100000000000000000000000000000000000000000000000000000000 PUSH1 0x0 MSTORE PUSH1 0x11 PUSH1 0x4 MSTORE PUSH1 0x24 PUSH1 0x0 REVERT JUMPDEST PUSH1 0x0 PUSH2 0xB6A DUP3 PUSH2 0x81E JUMP JUMPDEST SWAP2 POP PUSH2 0xB75 DUP4 PUSH2 0x81E JUMP JUMPDEST SWAP3 POP DUP3 DUP3 ADD SWAP1 POP DUP1 DUP3 GT ISZERO PUSH2 0xB8D JUMPI PUSH2 0xB8C PUSH2 0xB30 JUMP JUMPDEST JUMPDEST SWAP3 SWAP2 POP POP JUMP JUMPDEST PUSH1 0x0 PUSH2 0xB9E DUP3 PUSH2 0x81E JUMP JUMPDEST SWAP2 POP PUSH2 0xBA9 DUP4 PUSH2 0x81E JUMP JUMPDEST SWAP3 POP DUP2 PUSH32 0xFFFFFFFFFFFFFFFFFFFFFFFFFFFFFFFFFFFFFFFFFFFFFFFFFFFFFFFFFFFFFFFF DIV DUP4 GT DUP3 ISZERO ISZERO AND ISZERO PUSH2 0xBE2 JUMPI PUSH2 0xBE1 PUSH2 0xB30 JUMP JUMPDEST JUMPDEST DUP3 DUP3 MUL SWAP1 POP SWAP3 SWAP2 POP POP JUMP JUMPDEST PUSH1 0x0 PUSH2 0xBF8 DUP3 PUSH2 0x81E JUMP JUMPDEST SWAP2 POP PUSH2 0xC03 DUP4 PUSH2 0x81E JUMP JUMPDEST SWAP3 POP DUP3 DUP3 SUB SWAP1 POP DUP2 DUP2 GT ISZERO PUSH2 0xC1B JUMPI PUSH2 0xC1A PUSH2 0xB30 JUMP JUMPDEST JUMPDEST SWAP3 SWAP2 POP POP JUMP JUMPDEST PUSH32 0x54686520616D6F756E7420697320746F6F206869676800000000000000000000 PUSH1 0x0 DUP3 ADD MSTORE POP JUMP JUMPDEST PUSH1 0x0 PUSH2 0xC57 PUSH1 0x16 DUP4 PUSH2 0x98F JUMP JUMPDEST SWAP2 POP PUSH2 0xC62 DUP3 PUSH2 0xC21 JUMP JUMPDEST PUSH1 0x20 DUP3 ADD SWAP1 POP SWAP2 SWAP1 POP JUMP JUMPDEST PUSH1 0x0 PUSH1 0x20 DUP3 ADD SWAP1 POP DUP2 DUP2 SUB PUSH1 0x0 DUP4 ADD MSTORE PUSH2 0xC86 DUP2 PUSH2 0xC4A JUMP JUMPDEST SWAP1 POP SWAP2 SWAP1 POP JUMP JUMPDEST PUSH32 0x596F7520617265206E6F7420616C6C6F776564202D206F6E6C7920746865206F PUSH1 0x0 DUP3 ADD MSTORE PUSH32 0x776E65722063616E20646F20746869732E000000000000000000000000000000 PUSH1 0x20 DUP3 ADD MSTORE POP JUMP JUMPDEST PUSH1 0x0 PUSH2 0xCE9 PUSH1 0x31 DUP4 PUSH2 0x98F JUMP JUMPDEST SWAP2 POP PUSH2 0xCF4 DUP3 PUSH2 0xC8D JUMP JUMPDEST PUSH1 0x40 DUP3 ADD SWAP1 POP SWAP2 SWAP1 POP JUMP JUMPDEST PUSH1 0x0 PUSH1 0x20 DUP3 ADD SWAP1 POP DUP2 DUP2 SUB PUSH1 0x0 DUP4 ADD MSTORE PUSH2 0xD18 DUP2 PUSH2 0xCDC JUMP JUMPDEST SWAP1 POP SWAP2 SWAP1 POP JUMP JUMPDEST PUSH32 0x416E20616C6C6F77616E6365206973206E6F7420726571756972656420666F72 PUSH1 0x0 DUP3 ADD MSTORE PUSH32 0x20746865206F776E657200000000000000000000000000000000000000000000 PUSH1 0x20 DUP3 ADD MSTORE POP JUMP JUMPDEST PUSH1 0x0 PUSH2 0xD7B PUSH1 0x2A DUP4 PUSH2 0x98F JUMP JUMPDEST SWAP2 POP PUSH2 0xD86 DUP3 PUSH2 0xD1F JUMP JUMPDEST PUSH1 0x40 DUP3 ADD SWAP1 POP SWAP2 SWAP1 POP JUMP JUMPDEST PUSH1 0x0 PUSH1 0x20 DUP3 ADD SWAP1 POP DUP2 DUP2 SUB PUSH1 0x0 DUP4 ADD MSTORE PUSH2 0xDAA DUP2 PUSH2 0xD6E JUMP JUMPDEST SWAP1 POP SWAP2 SWAP1 POP JUMP JUMPDEST PUSH32 0x546865206164647265737320616C72656164792068617320616E20616C6C6F77 PUSH1 0x0 DUP3 ADD MSTORE PUSH32 0x616E636500000000000000000000000000000000000000000000000000000000 PUSH1 0x20 DUP3 ADD MSTORE POP JUMP JUMPDEST PUSH1 0x0 PUSH2 0xE0D PUSH1 0x24 DUP4 PUSH2 0x98F JUMP JUMPDEST SWAP2 POP PUSH2 0xE18 DUP3 PUSH2 0xDB1 JUMP JUMPDEST PUSH1 0x40 DUP3 ADD SWAP1 POP SWAP2 SWAP1 POP JUMP JUMPDEST PUSH1 0x0 PUSH1 0x20 DUP3 ADD SWAP1 POP DUP2 DUP2 SUB PUSH1 0x0 DUP4 ADD MSTORE PUSH2 0xE3C DUP2 PUSH2 0xE00 JUMP JUMPDEST SWAP1 POP SWAP2 SWAP1 POP JUMP JUMPDEST PUSH32 0x5468697320776F756C64206F7665722D616C6C6F636174652074686520616C6C PUSH1 0x0 DUP3 ADD MSTORE PUSH32 0x6F77616E63657300000000000000000000000000000000000000000000000000 PUSH1 0x20 DUP3 ADD MSTORE POP JUMP JUMPDEST PUSH1 0x0 PUSH2 0xE9F PUSH1 0x27 DUP4 PUSH2 0x98F JUMP JUMPDEST SWAP2 POP PUSH2 0xEAA DUP3 PUSH2 0xE43 JUMP JUMPDEST PUSH1 0x40 DUP3 ADD SWAP1 POP SWAP2 SWAP1 POP JUMP JUMPDEST PUSH1 0x0 PUSH1 0x20 DUP3 ADD SWAP1 POP DUP2 DUP2 SUB PUSH1 0x0 DUP4 ADD MSTORE PUSH2 0xECE DUP2 PUSH2 0xE92 JUMP JUMPDEST SWAP1 POP SWAP2 SWAP1 POP JUMP INVALID LOG2 PUSH5 0x6970667358 0x22 SLT KECCAK256 CALLDATALOAD 0xD6 SHL PUSH7 0xB255C786218DAC 0xAB PUSH10 0x65659B673FD9DC2C162A BLOCKHASH EXTCODECOPY PUSH1 0xFC SAR 0xC5 SIGNEXTEND LOG1 MSIZE PUSH5 0x736F6C6343 STOP ADDMOD LT STOP CALLER "
				},
				"gasEstimates": {
					"creation": {
						"codeDepositCost": "770200",
						"executionCost": "25071",
						"totalCost": "795271"
					},
					"external": {
						"ClaimMoney(address,uint256)": "infinite",
						"SendMoney()": "22259",
						"SetAllowance(address,uint256)": "infinite",
						"beneficiaries(address)": "infinite",
						"contractBalance()": "2473",
						"owner()": "2577",
						"totalAllowances()": "2474",
						"totalClaims()": "2451"
					}
				},
				"methodIdentifiers": {
					"ClaimMoney(address,uint256)": "2d70db2f",
					"SendMoney()": "05737314",
					"SetAllowance(address,uint256)": "3e7279a3",
					"beneficiaries(address)": "01567739",
					"contractBalance()": "8b7afe2e",
					"owner()": "8da5cb5b",
					"totalAllowances()": "16a51305",
					"totalClaims()": "41c61383"
				}
			},
			"storageLayout": {
				"storage": [
					{
						"astId": 8,
						"contract": "MyProjectSharedWallet.sol:SharedWallet",
						"label": "owner",
						"offset": 0,
						"slot": "0",
						"type": "t_address"
					},
					{
						"astId": 13,
						"contract": "MyProjectSharedWallet.sol:SharedWallet",
						"label": "beneficiaries",
						"offset": 0,
						"slot": "1",
						"type": "t_mapping(t_address,t_struct(BeneficiaryDetails)6_storage)"
					},
					{
						"astId": 15,
						"contract": "MyProjectSharedWallet.sol:SharedWallet",
						"label": "totalAllowances",
						"offset": 0,
						"slot": "2",
						"type": "t_uint256"
					},
					{
						"astId": 17,
						"contract": "MyProjectSharedWallet.sol:SharedWallet",
						"label": "totalClaims",
						"offset": 0,
						"slot": "3",
						"type": "t_uint256"
					},
					{
						"astId": 19,
						"contract": "MyProjectSharedWallet.sol:SharedWallet",
						"label": "contractBalance",
						"offset": 0,
						"slot": "4",
						"type": "t_uint256"
					}
				],
				"types": {
					"t_address": {
						"encoding": "inplace",
						"label": "address",
						"numberOfBytes": "20"
					},
					"t_mapping(t_address,t_struct(BeneficiaryDetails)6_storage)": {
						"encoding": "mapping",
						"key": "t_address",
						"label": "mapping(address => struct SharedWallet.BeneficiaryDetails)",
						"numberOfBytes": "32",
						"value": "t_struct(BeneficiaryDetails)6_storage"
					},
					"t_struct(BeneficiaryDetails)6_storage": {
						"encoding": "inplace",
						"label": "struct SharedWallet.BeneficiaryDetails",
						"members": [
							{
								"astId": 3,
								"contract": "MyProjectSharedWallet.sol:SharedWallet",
								"label": "allowance",
								"offset": 0,
								"slot": "0",
								"type": "t_uint256"
							},
							{
								"astId": 5,
								"contract": "MyProjectSharedWallet.sol:SharedWallet",
								"label": "claimsMade",
								"offset": 0,
								"slot": "1",
								"type": "t_uint256"
							}
						],
						"numberOfBytes": "64"
					},
					"t_uint256": {
						"encoding": "inplace",
						"label": "uint256",
						"numberOfBytes": "32"
					}
				}
			},
			"userdoc": {
				"kind": "user",
				"methods": {},
				"version": 1
			}
		}
	}
}