{
	"ItemManager.sol": {
		"ItemManager": {
			"abi": [
				{
					"inputs": [
						{
							"internalType": "string",
							"name": "_identifier",
							"type": "string"
						},
						{
							"internalType": "uint256",
							"name": "_itemPrice",
							"type": "uint256"
						}
					],
					"name": "createItem",
					"outputs": [],
					"stateMutability": "nonpayable",
					"type": "function"
				},
				{
					"inputs": [
						{
							"internalType": "uint256",
							"name": "",
							"type": "uint256"
						}
					],
					"name": "items",
					"outputs": [
						{
							"internalType": "string",
							"name": "_identifier",
							"type": "string"
						},
						{
							"internalType": "uint256",
							"name": "_itemPrice",
							"type": "uint256"
						},
						{
							"internalType": "enum ItemManager.SupplyChainState",
							"name": "_state",
							"type": "uint8"
						}
					],
					"stateMutability": "view",
					"type": "function"
				}
			],
			"devdoc": {
				"kind": "dev",
				"methods": {},
				"version": 1
			},
			"evm": {
				"assembly": "    /* \"ItemManager.sol\":112:798  contract ItemManager {... */\n  mstore(0x40, 0x80)\n  callvalue\n  dup1\n  iszero\n  tag_1\n  jumpi\n  0x00\n  dup1\n  revert\ntag_1:\n  pop\n  dataSize(sub_0)\n  dup1\n  dataOffset(sub_0)\n  0x00\n  codecopy\n  0x00\n  return\nstop\n\nsub_0: assembly {\n        /* \"ItemManager.sol\":112:798  contract ItemManager {... */\n      mstore(0x40, 0x80)\n      callvalue\n      dup1\n      iszero\n      tag_1\n      jumpi\n      0x00\n      dup1\n      revert\n    tag_1:\n      pop\n      jumpi(tag_2, lt(calldatasize, 0x04))\n      shr(0xe0, calldataload(0x00))\n      dup1\n      0x8c551742\n      eq\n      tag_3\n      jumpi\n      dup1\n      0xbfb231d2\n      eq\n      tag_4\n      jumpi\n    tag_2:\n      0x00\n      dup1\n      revert\n        /* \"ItemManager.sol\":509:768  function createItem(string memory _identifier, uint _itemPrice) public {... */\n    tag_3:\n      tag_5\n      0x04\n      dup1\n      calldatasize\n      sub\n      dup2\n      add\n      swap1\n      tag_6\n      swap2\n      swap1\n      tag_7\n      jump\t// in\n    tag_6:\n      tag_8\n      jump\t// in\n    tag_5:\n      stop\n        /* \"ItemManager.sol\":340:376  mapping(uint => S_Item) public items */\n    tag_4:\n      tag_9\n      0x04\n      dup1\n      calldatasize\n      sub\n      dup2\n      add\n      swap1\n      tag_10\n      swap2\n      swap1\n      tag_11\n      jump\t// in\n    tag_10:\n      tag_12\n      jump\t// in\n    tag_9:\n      mload(0x40)\n      tag_13\n      swap4\n      swap3\n      swap2\n      swap1\n      tag_14\n      jump\t// in\n    tag_13:\n      mload(0x40)\n      dup1\n      swap2\n      sub\n      swap1\n      return\n        /* \"ItemManager.sol\":509:768  function createItem(string memory _identifier, uint _itemPrice) public {... */\n    tag_8:\n        /* \"ItemManager.sol\":620:631  _identifier */\n      dup2\n        /* \"ItemManager.sol\":590:595  items */\n      0x00\n        /* \"ItemManager.sol\":590:606  items[itemIndex] */\n      dup1\n        /* \"ItemManager.sol\":596:605  itemIndex */\n      sload(0x01)\n        /* \"ItemManager.sol\":590:606  items[itemIndex] */\n      dup2\n      mstore\n      0x20\n      add\n      swap1\n      dup2\n      mstore\n      0x20\n      add\n      0x00\n      keccak256\n        /* \"ItemManager.sol\":590:618  items[itemIndex]._identifier */\n      0x00\n      add\n        /* \"ItemManager.sol\":590:631  items[itemIndex]._identifier =_identifier */\n      swap1\n      dup1\n      mload\n      swap1\n      0x20\n      add\n      swap1\n      tag_16\n      swap3\n      swap2\n      swap1\n      tag_17\n      jump\t// in\n    tag_16:\n      pop\n        /* \"ItemManager.sol\":670:680  _itemPrice */\n      dup1\n        /* \"ItemManager.sol\":641:646  items */\n      0x00\n        /* \"ItemManager.sol\":641:657  items[itemIndex] */\n      dup1\n        /* \"ItemManager.sol\":647:656  itemIndex */\n      sload(0x01)\n        /* \"ItemManager.sol\":641:657  items[itemIndex] */\n      dup2\n      mstore\n      0x20\n      add\n      swap1\n      dup2\n      mstore\n      0x20\n      add\n      0x00\n      keccak256\n        /* \"ItemManager.sol\":641:668  items[itemIndex]._itemPrice */\n      0x01\n      add\n        /* \"ItemManager.sol\":641:680  items[itemIndex]._itemPrice =_itemPrice */\n      dup2\n      swap1\n      sstore\n      pop\n        /* \"ItemManager.sol\":716:740  SupplyChainState.Created */\n      0x00\n        /* \"ItemManager.sol\":690:695  items */\n      dup1\n        /* \"ItemManager.sol\":690:706  items[itemIndex] */\n      0x00\n        /* \"ItemManager.sol\":696:705  itemIndex */\n      sload(0x01)\n        /* \"ItemManager.sol\":690:706  items[itemIndex] */\n      dup2\n      mstore\n      0x20\n      add\n      swap1\n      dup2\n      mstore\n      0x20\n      add\n      0x00\n      keccak256\n        /* \"ItemManager.sol\":690:713  items[itemIndex]._state */\n      0x02\n      add\n      0x00\n        /* \"ItemManager.sol\":690:740  items[itemIndex]._state = SupplyChainState.Created */\n      0x0100\n      exp\n      dup2\n      sload\n      dup2\n      0xff\n      mul\n      not\n      and\n      swap1\n      dup4\n      0x02\n      dup2\n      gt\n      iszero\n      tag_18\n      jumpi\n      tag_19\n      tag_20\n      jump\t// in\n    tag_19:\n    tag_18:\n      mul\n      or\n      swap1\n      sstore\n      pop\n        /* \"ItemManager.sol\":750:759  itemIndex */\n      0x01\n      0x00\n        /* \"ItemManager.sol\":750:761  itemIndex++ */\n      dup2\n      sload\n      dup1\n      swap3\n      swap2\n      swap1\n      tag_21\n      swap1\n      tag_22\n      jump\t// in\n    tag_21:\n      swap2\n      swap1\n      pop\n      sstore\n      pop\n        /* \"ItemManager.sol\":509:768  function createItem(string memory _identifier, uint _itemPrice) public {... */\n      pop\n      pop\n      jump\t// out\n        /* \"ItemManager.sol\":340:376  mapping(uint => S_Item) public items */\n    tag_12:\n      mstore(0x20, 0x00)\n      dup1\n      0x00\n      mstore\n      keccak256(0x00, 0x40)\n      0x00\n      swap2\n      pop\n      swap1\n      pop\n      dup1\n      0x00\n      add\n      dup1\n      sload\n      tag_23\n      swap1\n      tag_24\n      jump\t// in\n    tag_23:\n      dup1\n      0x1f\n      add\n      0x20\n      dup1\n      swap2\n      div\n      mul\n      0x20\n      add\n      mload(0x40)\n      swap1\n      dup2\n      add\n      0x40\n      mstore\n      dup1\n      swap3\n      swap2\n      swap1\n      dup2\n      dup2\n      mstore\n      0x20\n      add\n      dup3\n      dup1\n      sload\n      tag_25\n      swap1\n      tag_24\n      jump\t// in\n    tag_25:\n      dup1\n      iszero\n      tag_26\n      jumpi\n      dup1\n      0x1f\n      lt\n      tag_27\n      jumpi\n      0x0100\n      dup1\n      dup4\n      sload\n      div\n      mul\n      dup4\n      mstore\n      swap2\n      0x20\n      add\n      swap2\n      jump(tag_26)\n    tag_27:\n      dup3\n      add\n      swap2\n      swap1\n      0x00\n      mstore\n      keccak256(0x00, 0x20)\n      swap1\n    tag_28:\n      dup2\n      sload\n      dup2\n      mstore\n      swap1\n      0x01\n      add\n      swap1\n      0x20\n      add\n      dup1\n      dup4\n      gt\n      tag_28\n      jumpi\n      dup3\n      swap1\n      sub\n      0x1f\n      and\n      dup3\n      add\n      swap2\n    tag_26:\n      pop\n      pop\n      pop\n      pop\n      pop\n      swap1\n      dup1\n      0x01\n      add\n      sload\n      swap1\n      dup1\n      0x02\n      add\n      0x00\n      swap1\n      sload\n      swap1\n      0x0100\n      exp\n      swap1\n      div\n      0xff\n      and\n      swap1\n      pop\n      dup4\n      jump\t// out\n    tag_17:\n      dup3\n      dup1\n      sload\n      tag_29\n      swap1\n      tag_24\n      jump\t// in\n    tag_29:\n      swap1\n      0x00\n      mstore\n      keccak256(0x00, 0x20)\n      swap1\n      0x1f\n      add\n      0x20\n      swap1\n      div\n      dup2\n      add\n      swap3\n      dup3\n      tag_31\n      jumpi\n      0x00\n      dup6\n      sstore\n      jump(tag_30)\n    tag_31:\n      dup3\n      0x1f\n      lt\n      tag_32\n      jumpi\n      dup1\n      mload\n      not(0xff)\n      and\n      dup4\n      dup1\n      add\n      or\n      dup6\n      sstore\n      jump(tag_30)\n    tag_32:\n      dup3\n      dup1\n      add\n      0x01\n      add\n      dup6\n      sstore\n      dup3\n      iszero\n      tag_30\n      jumpi\n      swap2\n      dup3\n      add\n    tag_33:\n      dup3\n      dup2\n      gt\n      iszero\n      tag_34\n      jumpi\n      dup3\n      mload\n      dup3\n      sstore\n      swap2\n      0x20\n      add\n      swap2\n      swap1\n      0x01\n      add\n      swap1\n      jump(tag_33)\n    tag_34:\n    tag_30:\n      pop\n      swap1\n      pop\n      tag_35\n      swap2\n      swap1\n      tag_36\n      jump\t// in\n    tag_35:\n      pop\n      swap1\n      jump\t// out\n    tag_36:\n    tag_37:\n      dup1\n      dup3\n      gt\n      iszero\n      tag_38\n      jumpi\n      0x00\n      dup2\n      0x00\n      swap1\n      sstore\n      pop\n      0x01\n      add\n      jump(tag_37)\n    tag_38:\n      pop\n      swap1\n      jump\t// out\n        /* \"#utility.yul\":7:419   */\n    tag_40:\n        /* \"#utility.yul\":85:90   */\n      0x00\n        /* \"#utility.yul\":110:176   */\n      tag_42\n        /* \"#utility.yul\":126:175   */\n      tag_43\n        /* \"#utility.yul\":168:174   */\n      dup5\n        /* \"#utility.yul\":126:175   */\n      tag_44\n      jump\t// in\n    tag_43:\n        /* \"#utility.yul\":110:176   */\n      tag_45\n      jump\t// in\n    tag_42:\n        /* \"#utility.yul\":101:176   */\n      swap1\n      pop\n        /* \"#utility.yul\":199:205   */\n      dup3\n        /* \"#utility.yul\":192:197   */\n      dup2\n        /* \"#utility.yul\":185:206   */\n      mstore\n        /* \"#utility.yul\":237:241   */\n      0x20\n        /* \"#utility.yul\":230:235   */\n      dup2\n        /* \"#utility.yul\":226:242   */\n      add\n        /* \"#utility.yul\":275:278   */\n      dup5\n        /* \"#utility.yul\":266:272   */\n      dup5\n        /* \"#utility.yul\":261:264   */\n      dup5\n        /* \"#utility.yul\":257:273   */\n      add\n        /* \"#utility.yul\":254:279   */\n      gt\n        /* \"#utility.yul\":251:363   */\n      iszero\n      tag_46\n      jumpi\n        /* \"#utility.yul\":282:361   */\n      tag_47\n      tag_48\n      jump\t// in\n    tag_47:\n        /* \"#utility.yul\":251:363   */\n    tag_46:\n        /* \"#utility.yul\":372:413   */\n      tag_49\n        /* \"#utility.yul\":406:412   */\n      dup5\n        /* \"#utility.yul\":401:404   */\n      dup3\n        /* \"#utility.yul\":396:399   */\n      dup6\n        /* \"#utility.yul\":372:413   */\n      tag_50\n      jump\t// in\n    tag_49:\n        /* \"#utility.yul\":91:419   */\n      pop\n        /* \"#utility.yul\":7:419   */\n      swap4\n      swap3\n      pop\n      pop\n      pop\n      jump\t// out\n        /* \"#utility.yul\":439:779   */\n    tag_51:\n        /* \"#utility.yul\":495:500   */\n      0x00\n        /* \"#utility.yul\":544:547   */\n      dup3\n        /* \"#utility.yul\":537:541   */\n      0x1f\n        /* \"#utility.yul\":529:535   */\n      dup4\n        /* \"#utility.yul\":525:542   */\n      add\n        /* \"#utility.yul\":521:548   */\n      slt\n        /* \"#utility.yul\":511:633   */\n      tag_53\n      jumpi\n        /* \"#utility.yul\":552:631   */\n      tag_54\n      tag_55\n      jump\t// in\n    tag_54:\n        /* \"#utility.yul\":511:633   */\n    tag_53:\n        /* \"#utility.yul\":669:675   */\n      dup2\n        /* \"#utility.yul\":656:676   */\n      calldataload\n        /* \"#utility.yul\":694:773   */\n      tag_56\n        /* \"#utility.yul\":769:772   */\n      dup5\n        /* \"#utility.yul\":761:767   */\n      dup3\n        /* \"#utility.yul\":754:758   */\n      0x20\n        /* \"#utility.yul\":746:752   */\n      dup7\n        /* \"#utility.yul\":742:759   */\n      add\n        /* \"#utility.yul\":694:773   */\n      tag_40\n      jump\t// in\n    tag_56:\n        /* \"#utility.yul\":685:773   */\n      swap2\n      pop\n        /* \"#utility.yul\":501:779   */\n      pop\n        /* \"#utility.yul\":439:779   */\n      swap3\n      swap2\n      pop\n      pop\n      jump\t// out\n        /* \"#utility.yul\":785:924   */\n    tag_57:\n        /* \"#utility.yul\":831:836   */\n      0x00\n        /* \"#utility.yul\":869:875   */\n      dup2\n        /* \"#utility.yul\":856:876   */\n      calldataload\n        /* \"#utility.yul\":847:876   */\n      swap1\n      pop\n        /* \"#utility.yul\":885:918   */\n      tag_59\n        /* \"#utility.yul\":912:917   */\n      dup2\n        /* \"#utility.yul\":885:918   */\n      tag_60\n      jump\t// in\n    tag_59:\n        /* \"#utility.yul\":785:924   */\n      swap3\n      swap2\n      pop\n      pop\n      jump\t// out\n        /* \"#utility.yul\":930:1584   */\n    tag_7:\n        /* \"#utility.yul\":1008:1014   */\n      0x00\n        /* \"#utility.yul\":1016:1022   */\n      dup1\n        /* \"#utility.yul\":1065:1067   */\n      0x40\n        /* \"#utility.yul\":1053:1062   */\n      dup4\n        /* \"#utility.yul\":1044:1051   */\n      dup6\n        /* \"#utility.yul\":1040:1063   */\n      sub\n        /* \"#utility.yul\":1036:1068   */\n      slt\n        /* \"#utility.yul\":1033:1152   */\n      iszero\n      tag_62\n      jumpi\n        /* \"#utility.yul\":1071:1150   */\n      tag_63\n      tag_64\n      jump\t// in\n    tag_63:\n        /* \"#utility.yul\":1033:1152   */\n    tag_62:\n        /* \"#utility.yul\":1219:1220   */\n      0x00\n        /* \"#utility.yul\":1208:1217   */\n      dup4\n        /* \"#utility.yul\":1204:1221   */\n      add\n        /* \"#utility.yul\":1191:1222   */\n      calldataload\n        /* \"#utility.yul\":1249:1267   */\n      0xffffffffffffffff\n        /* \"#utility.yul\":1241:1247   */\n      dup2\n        /* \"#utility.yul\":1238:1268   */\n      gt\n        /* \"#utility.yul\":1235:1352   */\n      iszero\n      tag_65\n      jumpi\n        /* \"#utility.yul\":1271:1350   */\n      tag_66\n      tag_67\n      jump\t// in\n    tag_66:\n        /* \"#utility.yul\":1235:1352   */\n    tag_65:\n        /* \"#utility.yul\":1376:1439   */\n      tag_68\n        /* \"#utility.yul\":1431:1438   */\n      dup6\n        /* \"#utility.yul\":1422:1428   */\n      dup3\n        /* \"#utility.yul\":1411:1420   */\n      dup7\n        /* \"#utility.yul\":1407:1429   */\n      add\n        /* \"#utility.yul\":1376:1439   */\n      tag_51\n      jump\t// in\n    tag_68:\n        /* \"#utility.yul\":1366:1439   */\n      swap3\n      pop\n        /* \"#utility.yul\":1162:1449   */\n      pop\n        /* \"#utility.yul\":1488:1490   */\n      0x20\n        /* \"#utility.yul\":1514:1567   */\n      tag_69\n        /* \"#utility.yul\":1559:1566   */\n      dup6\n        /* \"#utility.yul\":1550:1556   */\n      dup3\n        /* \"#utility.yul\":1539:1548   */\n      dup7\n        /* \"#utility.yul\":1535:1557   */\n      add\n        /* \"#utility.yul\":1514:1567   */\n      tag_57\n      jump\t// in\n    tag_69:\n        /* \"#utility.yul\":1504:1567   */\n      swap2\n      pop\n        /* \"#utility.yul\":1459:1577   */\n      pop\n        /* \"#utility.yul\":930:1584   */\n      swap3\n      pop\n      swap3\n      swap1\n      pop\n      jump\t// out\n        /* \"#utility.yul\":1590:1919   */\n    tag_11:\n        /* \"#utility.yul\":1649:1655   */\n      0x00\n        /* \"#utility.yul\":1698:1700   */\n      0x20\n        /* \"#utility.yul\":1686:1695   */\n      dup3\n        /* \"#utility.yul\":1677:1684   */\n      dup5\n        /* \"#utility.yul\":1673:1696   */\n      sub\n        /* \"#utility.yul\":1669:1701   */\n      slt\n        /* \"#utility.yul\":1666:1785   */\n      iszero\n      tag_71\n      jumpi\n        /* \"#utility.yul\":1704:1783   */\n      tag_72\n      tag_64\n      jump\t// in\n    tag_72:\n        /* \"#utility.yul\":1666:1785   */\n    tag_71:\n        /* \"#utility.yul\":1824:1825   */\n      0x00\n        /* \"#utility.yul\":1849:1902   */\n      tag_73\n        /* \"#utility.yul\":1894:1901   */\n      dup5\n        /* \"#utility.yul\":1885:1891   */\n      dup3\n        /* \"#utility.yul\":1874:1883   */\n      dup6\n        /* \"#utility.yul\":1870:1892   */\n      add\n        /* \"#utility.yul\":1849:1902   */\n      tag_57\n      jump\t// in\n    tag_73:\n        /* \"#utility.yul\":1839:1902   */\n      swap2\n      pop\n        /* \"#utility.yul\":1795:1912   */\n      pop\n        /* \"#utility.yul\":1590:1919   */\n      swap3\n      swap2\n      pop\n      pop\n      jump\t// out\n        /* \"#utility.yul\":1925:2088   */\n    tag_74:\n        /* \"#utility.yul\":2028:2081   */\n      tag_76\n        /* \"#utility.yul\":2075:2080   */\n      dup2\n        /* \"#utility.yul\":2028:2081   */\n      tag_77\n      jump\t// in\n    tag_76:\n        /* \"#utility.yul\":2023:2026   */\n      dup3\n        /* \"#utility.yul\":2016:2082   */\n      mstore\n        /* \"#utility.yul\":1925:2088   */\n      pop\n      pop\n      jump\t// out\n        /* \"#utility.yul\":2094:2458   */\n    tag_78:\n        /* \"#utility.yul\":2182:2185   */\n      0x00\n        /* \"#utility.yul\":2210:2249   */\n      tag_80\n        /* \"#utility.yul\":2243:2248   */\n      dup3\n        /* \"#utility.yul\":2210:2249   */\n      tag_81\n      jump\t// in\n    tag_80:\n        /* \"#utility.yul\":2265:2336   */\n      tag_82\n        /* \"#utility.yul\":2329:2335   */\n      dup2\n        /* \"#utility.yul\":2324:2327   */\n      dup6\n        /* \"#utility.yul\":2265:2336   */\n      tag_83\n      jump\t// in\n    tag_82:\n        /* \"#utility.yul\":2258:2336   */\n      swap4\n      pop\n        /* \"#utility.yul\":2345:2397   */\n      tag_84\n        /* \"#utility.yul\":2390:2396   */\n      dup2\n        /* \"#utility.yul\":2385:2388   */\n      dup6\n        /* \"#utility.yul\":2378:2382   */\n      0x20\n        /* \"#utility.yul\":2371:2376   */\n      dup7\n        /* \"#utility.yul\":2367:2383   */\n      add\n        /* \"#utility.yul\":2345:2397   */\n      tag_85\n      jump\t// in\n    tag_84:\n        /* \"#utility.yul\":2422:2451   */\n      tag_86\n        /* \"#utility.yul\":2444:2450   */\n      dup2\n        /* \"#utility.yul\":2422:2451   */\n      tag_87\n      jump\t// in\n    tag_86:\n        /* \"#utility.yul\":2417:2420   */\n      dup5\n        /* \"#utility.yul\":2413:2452   */\n      add\n        /* \"#utility.yul\":2406:2452   */\n      swap2\n      pop\n        /* \"#utility.yul\":2186:2458   */\n      pop\n        /* \"#utility.yul\":2094:2458   */\n      swap3\n      swap2\n      pop\n      pop\n      jump\t// out\n        /* \"#utility.yul\":2464:2582   */\n    tag_88:\n        /* \"#utility.yul\":2551:2575   */\n      tag_90\n        /* \"#utility.yul\":2569:2574   */\n      dup2\n        /* \"#utility.yul\":2551:2575   */\n      tag_91\n      jump\t// in\n    tag_90:\n        /* \"#utility.yul\":2546:2549   */\n      dup3\n        /* \"#utility.yul\":2539:2576   */\n      mstore\n        /* \"#utility.yul\":2464:2582   */\n      pop\n      pop\n      jump\t// out\n        /* \"#utility.yul\":2588:3153   */\n    tag_14:\n        /* \"#utility.yul\":2773:2777   */\n      0x00\n        /* \"#utility.yul\":2811:2813   */\n      0x60\n        /* \"#utility.yul\":2800:2809   */\n      dup3\n        /* \"#utility.yul\":2796:2814   */\n      add\n        /* \"#utility.yul\":2788:2814   */\n      swap1\n      pop\n        /* \"#utility.yul\":2860:2869   */\n      dup2\n        /* \"#utility.yul\":2854:2858   */\n      dup2\n        /* \"#utility.yul\":2850:2870   */\n      sub\n        /* \"#utility.yul\":2846:2847   */\n      0x00\n        /* \"#utility.yul\":2835:2844   */\n      dup4\n        /* \"#utility.yul\":2831:2848   */\n      add\n        /* \"#utility.yul\":2824:2871   */\n      mstore\n        /* \"#utility.yul\":2888:2966   */\n      tag_93\n        /* \"#utility.yul\":2961:2965   */\n      dup2\n        /* \"#utility.yul\":2952:2958   */\n      dup7\n        /* \"#utility.yul\":2888:2966   */\n      tag_78\n      jump\t// in\n    tag_93:\n        /* \"#utility.yul\":2880:2966   */\n      swap1\n      pop\n        /* \"#utility.yul\":2976:3048   */\n      tag_94\n        /* \"#utility.yul\":3044:3046   */\n      0x20\n        /* \"#utility.yul\":3033:3042   */\n      dup4\n        /* \"#utility.yul\":3029:3047   */\n      add\n        /* \"#utility.yul\":3020:3026   */\n      dup6\n        /* \"#utility.yul\":2976:3048   */\n      tag_88\n      jump\t// in\n    tag_94:\n        /* \"#utility.yul\":3058:3146   */\n      tag_95\n        /* \"#utility.yul\":3142:3144   */\n      0x40\n        /* \"#utility.yul\":3131:3140   */\n      dup4\n        /* \"#utility.yul\":3127:3145   */\n      add\n        /* \"#utility.yul\":3118:3124   */\n      dup5\n        /* \"#utility.yul\":3058:3146   */\n      tag_74\n      jump\t// in\n    tag_95:\n        /* \"#utility.yul\":2588:3153   */\n      swap5\n      swap4\n      pop\n      pop\n      pop\n      pop\n      jump\t// out\n        /* \"#utility.yul\":3159:3288   */\n    tag_45:\n        /* \"#utility.yul\":3193:3199   */\n      0x00\n        /* \"#utility.yul\":3220:3240   */\n      tag_97\n      tag_98\n      jump\t// in\n    tag_97:\n        /* \"#utility.yul\":3210:3240   */\n      swap1\n      pop\n        /* \"#utility.yul\":3249:3282   */\n      tag_99\n        /* \"#utility.yul\":3277:3281   */\n      dup3\n        /* \"#utility.yul\":3269:3275   */\n      dup3\n        /* \"#utility.yul\":3249:3282   */\n      tag_100\n      jump\t// in\n    tag_99:\n        /* \"#utility.yul\":3159:3288   */\n      swap2\n      swap1\n      pop\n      jump\t// out\n        /* \"#utility.yul\":3294:3369   */\n    tag_98:\n        /* \"#utility.yul\":3327:3333   */\n      0x00\n        /* \"#utility.yul\":3360:3362   */\n      0x40\n        /* \"#utility.yul\":3354:3363   */\n      mload\n        /* \"#utility.yul\":3344:3363   */\n      swap1\n      pop\n        /* \"#utility.yul\":3294:3369   */\n      swap1\n      jump\t// out\n        /* \"#utility.yul\":3375:3683   */\n    tag_44:\n        /* \"#utility.yul\":3437:3441   */\n      0x00\n        /* \"#utility.yul\":3527:3545   */\n      0xffffffffffffffff\n        /* \"#utility.yul\":3519:3525   */\n      dup3\n        /* \"#utility.yul\":3516:3546   */\n      gt\n        /* \"#utility.yul\":3513:3569   */\n      iszero\n      tag_103\n      jumpi\n        /* \"#utility.yul\":3549:3567   */\n      tag_104\n      tag_105\n      jump\t// in\n    tag_104:\n        /* \"#utility.yul\":3513:3569   */\n    tag_103:\n        /* \"#utility.yul\":3587:3616   */\n      tag_106\n        /* \"#utility.yul\":3609:3615   */\n      dup3\n        /* \"#utility.yul\":3587:3616   */\n      tag_87\n      jump\t// in\n    tag_106:\n        /* \"#utility.yul\":3579:3616   */\n      swap1\n      pop\n        /* \"#utility.yul\":3671:3675   */\n      0x20\n        /* \"#utility.yul\":3665:3669   */\n      dup2\n        /* \"#utility.yul\":3661:3676   */\n      add\n        /* \"#utility.yul\":3653:3676   */\n      swap1\n      pop\n        /* \"#utility.yul\":3375:3683   */\n      swap2\n      swap1\n      pop\n      jump\t// out\n        /* \"#utility.yul\":3689:3788   */\n    tag_81:\n        /* \"#utility.yul\":3741:3747   */\n      0x00\n        /* \"#utility.yul\":3775:3780   */\n      dup2\n        /* \"#utility.yul\":3769:3781   */\n      mload\n        /* \"#utility.yul\":3759:3781   */\n      swap1\n      pop\n        /* \"#utility.yul\":3689:3788   */\n      swap2\n      swap1\n      pop\n      jump\t// out\n        /* \"#utility.yul\":3794:3963   */\n    tag_83:\n        /* \"#utility.yul\":3878:3889   */\n      0x00\n        /* \"#utility.yul\":3912:3918   */\n      dup3\n        /* \"#utility.yul\":3907:3910   */\n      dup3\n        /* \"#utility.yul\":3900:3919   */\n      mstore\n        /* \"#utility.yul\":3952:3956   */\n      0x20\n        /* \"#utility.yul\":3947:3950   */\n      dup3\n        /* \"#utility.yul\":3943:3957   */\n      add\n        /* \"#utility.yul\":3928:3957   */\n      swap1\n      pop\n        /* \"#utility.yul\":3794:3963   */\n      swap3\n      swap2\n      pop\n      pop\n      jump\t// out\n        /* \"#utility.yul\":3969:4116   */\n    tag_109:\n        /* \"#utility.yul\":4024:4031   */\n      0x00\n        /* \"#utility.yul\":4053:4058   */\n      dup2\n        /* \"#utility.yul\":4042:4058   */\n      swap1\n      pop\n        /* \"#utility.yul\":4059:4110   */\n      tag_111\n        /* \"#utility.yul\":4104:4109   */\n      dup3\n        /* \"#utility.yul\":4059:4110   */\n      tag_112\n      jump\t// in\n    tag_111:\n        /* \"#utility.yul\":3969:4116   */\n      swap2\n      swap1\n      pop\n      jump\t// out\n        /* \"#utility.yul\":4122:4199   */\n    tag_91:\n        /* \"#utility.yul\":4159:4166   */\n      0x00\n        /* \"#utility.yul\":4188:4193   */\n      dup2\n        /* \"#utility.yul\":4177:4193   */\n      swap1\n      pop\n        /* \"#utility.yul\":4122:4199   */\n      swap2\n      swap1\n      pop\n      jump\t// out\n        /* \"#utility.yul\":4205:4352   */\n    tag_77:\n        /* \"#utility.yul\":4271:4280   */\n      0x00\n        /* \"#utility.yul\":4304:4346   */\n      tag_115\n        /* \"#utility.yul\":4340:4345   */\n      dup3\n        /* \"#utility.yul\":4304:4346   */\n      tag_109\n      jump\t// in\n    tag_115:\n        /* \"#utility.yul\":4291:4346   */\n      swap1\n      pop\n        /* \"#utility.yul\":4205:4352   */\n      swap2\n      swap1\n      pop\n      jump\t// out\n        /* \"#utility.yul\":4358:4512   */\n    tag_50:\n        /* \"#utility.yul\":4442:4448   */\n      dup3\n        /* \"#utility.yul\":4437:4440   */\n      dup2\n        /* \"#utility.yul\":4432:4435   */\n      dup4\n        /* \"#utility.yul\":4419:4449   */\n      calldatacopy\n        /* \"#utility.yul\":4504:4505   */\n      0x00\n        /* \"#utility.yul\":4495:4501   */\n      dup4\n        /* \"#utility.yul\":4490:4493   */\n      dup4\n        /* \"#utility.yul\":4486:4502   */\n      add\n        /* \"#utility.yul\":4479:4506   */\n      mstore\n        /* \"#utility.yul\":4358:4512   */\n      pop\n      pop\n      pop\n      jump\t// out\n        /* \"#utility.yul\":4518:4825   */\n    tag_85:\n        /* \"#utility.yul\":4586:4587   */\n      0x00\n        /* \"#utility.yul\":4596:4709   */\n    tag_118:\n        /* \"#utility.yul\":4610:4616   */\n      dup4\n        /* \"#utility.yul\":4607:4608   */\n      dup2\n        /* \"#utility.yul\":4604:4617   */\n      lt\n        /* \"#utility.yul\":4596:4709   */\n      iszero\n      tag_120\n      jumpi\n        /* \"#utility.yul\":4695:4696   */\n      dup1\n        /* \"#utility.yul\":4690:4693   */\n      dup3\n        /* \"#utility.yul\":4686:4697   */\n      add\n        /* \"#utility.yul\":4680:4698   */\n      mload\n        /* \"#utility.yul\":4676:4677   */\n      dup2\n        /* \"#utility.yul\":4671:4674   */\n      dup5\n        /* \"#utility.yul\":4667:4678   */\n      add\n        /* \"#utility.yul\":4660:4699   */\n      mstore\n        /* \"#utility.yul\":4632:4634   */\n      0x20\n        /* \"#utility.yul\":4629:4630   */\n      dup2\n        /* \"#utility.yul\":4625:4635   */\n      add\n        /* \"#utility.yul\":4620:4635   */\n      swap1\n      pop\n        /* \"#utility.yul\":4596:4709   */\n      jump(tag_118)\n    tag_120:\n        /* \"#utility.yul\":4727:4733   */\n      dup4\n        /* \"#utility.yul\":4724:4725   */\n      dup2\n        /* \"#utility.yul\":4721:4734   */\n      gt\n        /* \"#utility.yul\":4718:4819   */\n      iszero\n      tag_121\n      jumpi\n        /* \"#utility.yul\":4807:4808   */\n      0x00\n        /* \"#utility.yul\":4798:4804   */\n      dup5\n        /* \"#utility.yul\":4793:4796   */\n      dup5\n        /* \"#utility.yul\":4789:4805   */\n      add\n        /* \"#utility.yul\":4782:4809   */\n      mstore\n        /* \"#utility.yul\":4718:4819   */\n    tag_121:\n        /* \"#utility.yul\":4567:4825   */\n      pop\n        /* \"#utility.yul\":4518:4825   */\n      pop\n      pop\n      pop\n      jump\t// out\n        /* \"#utility.yul\":4831:5151   */\n    tag_24:\n        /* \"#utility.yul\":4875:4881   */\n      0x00\n        /* \"#utility.yul\":4912:4913   */\n      0x02\n        /* \"#utility.yul\":4906:4910   */\n      dup3\n        /* \"#utility.yul\":4902:4914   */\n      div\n        /* \"#utility.yul\":4892:4914   */\n      swap1\n      pop\n        /* \"#utility.yul\":4959:4960   */\n      0x01\n        /* \"#utility.yul\":4953:4957   */\n      dup3\n        /* \"#utility.yul\":4949:4961   */\n      and\n        /* \"#utility.yul\":4980:4998   */\n      dup1\n        /* \"#utility.yul\":4970:5051   */\n      tag_123\n      jumpi\n        /* \"#utility.yul\":5036:5040   */\n      0x7f\n        /* \"#utility.yul\":5028:5034   */\n      dup3\n        /* \"#utility.yul\":5024:5041   */\n      and\n        /* \"#utility.yul\":5014:5041   */\n      swap2\n      pop\n        /* \"#utility.yul\":4970:5051   */\n    tag_123:\n        /* \"#utility.yul\":5098:5100   */\n      0x20\n        /* \"#utility.yul\":5090:5096   */\n      dup3\n        /* \"#utility.yul\":5087:5101   */\n      lt\n        /* \"#utility.yul\":5067:5085   */\n      dup2\n        /* \"#utility.yul\":5064:5102   */\n      eq\n        /* \"#utility.yul\":5061:5145   */\n      iszero\n      tag_124\n      jumpi\n        /* \"#utility.yul\":5117:5135   */\n      tag_125\n      tag_126\n      jump\t// in\n    tag_125:\n        /* \"#utility.yul\":5061:5145   */\n    tag_124:\n        /* \"#utility.yul\":4882:5151   */\n      pop\n        /* \"#utility.yul\":4831:5151   */\n      swap2\n      swap1\n      pop\n      jump\t// out\n        /* \"#utility.yul\":5157:5438   */\n    tag_100:\n        /* \"#utility.yul\":5240:5267   */\n      tag_128\n        /* \"#utility.yul\":5262:5266   */\n      dup3\n        /* \"#utility.yul\":5240:5267   */\n      tag_87\n      jump\t// in\n    tag_128:\n        /* \"#utility.yul\":5232:5238   */\n      dup2\n        /* \"#utility.yul\":5228:5268   */\n      add\n        /* \"#utility.yul\":5370:5376   */\n      dup2\n        /* \"#utility.yul\":5358:5368   */\n      dup2\n        /* \"#utility.yul\":5355:5377   */\n      lt\n        /* \"#utility.yul\":5334:5352   */\n      0xffffffffffffffff\n        /* \"#utility.yul\":5322:5332   */\n      dup3\n        /* \"#utility.yul\":5319:5353   */\n      gt\n        /* \"#utility.yul\":5316:5378   */\n      or\n        /* \"#utility.yul\":5313:5401   */\n      iszero\n      tag_129\n      jumpi\n        /* \"#utility.yul\":5381:5399   */\n      tag_130\n      tag_105\n      jump\t// in\n    tag_130:\n        /* \"#utility.yul\":5313:5401   */\n    tag_129:\n        /* \"#utility.yul\":5421:5431   */\n      dup1\n        /* \"#utility.yul\":5417:5419   */\n      0x40\n        /* \"#utility.yul\":5410:5432   */\n      mstore\n        /* \"#utility.yul\":5200:5438   */\n      pop\n        /* \"#utility.yul\":5157:5438   */\n      pop\n      pop\n      jump\t// out\n        /* \"#utility.yul\":5444:5677   */\n    tag_22:\n        /* \"#utility.yul\":5483:5486   */\n      0x00\n        /* \"#utility.yul\":5506:5530   */\n      tag_132\n        /* \"#utility.yul\":5524:5529   */\n      dup3\n        /* \"#utility.yul\":5506:5530   */\n      tag_91\n      jump\t// in\n    tag_132:\n        /* \"#utility.yul\":5497:5530   */\n      swap2\n      pop\n        /* \"#utility.yul\":5552:5618   */\n      0xffffffffffffffffffffffffffffffffffffffffffffffffffffffffffffffff\n        /* \"#utility.yul\":5545:5550   */\n      dup3\n        /* \"#utility.yul\":5542:5619   */\n      eq\n        /* \"#utility.yul\":5539:5642   */\n      iszero\n      tag_133\n      jumpi\n        /* \"#utility.yul\":5622:5640   */\n      tag_134\n      tag_135\n      jump\t// in\n    tag_134:\n        /* \"#utility.yul\":5539:5642   */\n    tag_133:\n        /* \"#utility.yul\":5669:5670   */\n      0x01\n        /* \"#utility.yul\":5662:5667   */\n      dup3\n        /* \"#utility.yul\":5658:5671   */\n      add\n        /* \"#utility.yul\":5651:5671   */\n      swap1\n      pop\n        /* \"#utility.yul\":5444:5677   */\n      swap2\n      swap1\n      pop\n      jump\t// out\n        /* \"#utility.yul\":5683:5863   */\n    tag_135:\n        /* \"#utility.yul\":5731:5808   */\n      0x4e487b7100000000000000000000000000000000000000000000000000000000\n        /* \"#utility.yul\":5728:5729   */\n      0x00\n        /* \"#utility.yul\":5721:5809   */\n      mstore\n        /* \"#utility.yul\":5828:5832   */\n      0x11\n        /* \"#utility.yul\":5825:5826   */\n      0x04\n        /* \"#utility.yul\":5818:5833   */\n      mstore\n        /* \"#utility.yul\":5852:5856   */\n      0x24\n        /* \"#utility.yul\":5849:5850   */\n      0x00\n        /* \"#utility.yul\":5842:5857   */\n      revert\n        /* \"#utility.yul\":5869:6049   */\n    tag_20:\n        /* \"#utility.yul\":5917:5994   */\n      0x4e487b7100000000000000000000000000000000000000000000000000000000\n        /* \"#utility.yul\":5914:5915   */\n      0x00\n        /* \"#utility.yul\":5907:5995   */\n      mstore\n        /* \"#utility.yul\":6014:6018   */\n      0x21\n        /* \"#utility.yul\":6011:6012   */\n      0x04\n        /* \"#utility.yul\":6004:6019   */\n      mstore\n        /* \"#utility.yul\":6038:6042   */\n      0x24\n        /* \"#utility.yul\":6035:6036   */\n      0x00\n        /* \"#utility.yul\":6028:6043   */\n      revert\n        /* \"#utility.yul\":6055:6235   */\n    tag_126:\n        /* \"#utility.yul\":6103:6180   */\n      0x4e487b7100000000000000000000000000000000000000000000000000000000\n        /* \"#utility.yul\":6100:6101   */\n      0x00\n        /* \"#utility.yul\":6093:6181   */\n      mstore\n        /* \"#utility.yul\":6200:6204   */\n      0x22\n        /* \"#utility.yul\":6197:6198   */\n      0x04\n        /* \"#utility.yul\":6190:6205   */\n      mstore\n        /* \"#utility.yul\":6224:6228   */\n      0x24\n        /* \"#utility.yul\":6221:6222   */\n      0x00\n        /* \"#utility.yul\":6214:6229   */\n      revert\n        /* \"#utility.yul\":6241:6421   */\n    tag_105:\n        /* \"#utility.yul\":6289:6366   */\n      0x4e487b7100000000000000000000000000000000000000000000000000000000\n        /* \"#utility.yul\":6286:6287   */\n      0x00\n        /* \"#utility.yul\":6279:6367   */\n      mstore\n        /* \"#utility.yul\":6386:6390   */\n      0x41\n        /* \"#utility.yul\":6383:6384   */\n      0x04\n        /* \"#utility.yul\":6376:6391   */\n      mstore\n        /* \"#utility.yul\":6410:6414   */\n      0x24\n        /* \"#utility.yul\":6407:6408   */\n      0x00\n        /* \"#utility.yul\":6400:6415   */\n      revert\n        /* \"#utility.yul\":6427:6544   */\n    tag_55:\n        /* \"#utility.yul\":6536:6537   */\n      0x00\n        /* \"#utility.yul\":6533:6534   */\n      dup1\n        /* \"#utility.yul\":6526:6538   */\n      revert\n        /* \"#utility.yul\":6550:6667   */\n    tag_48:\n        /* \"#utility.yul\":6659:6660   */\n      0x00\n        /* \"#utility.yul\":6656:6657   */\n      dup1\n        /* \"#utility.yul\":6649:6661   */\n      revert\n        /* \"#utility.yul\":6673:6790   */\n    tag_67:\n        /* \"#utility.yul\":6782:6783   */\n      0x00\n        /* \"#utility.yul\":6779:6780   */\n      dup1\n        /* \"#utility.yul\":6772:6784   */\n      revert\n        /* \"#utility.yul\":6796:6913   */\n    tag_64:\n        /* \"#utility.yul\":6905:6906   */\n      0x00\n        /* \"#utility.yul\":6902:6903   */\n      dup1\n        /* \"#utility.yul\":6895:6907   */\n      revert\n        /* \"#utility.yul\":6919:7021   */\n    tag_87:\n        /* \"#utility.yul\":6960:6966   */\n      0x00\n        /* \"#utility.yul\":7011:7013   */\n      0x1f\n        /* \"#utility.yul\":7007:7014   */\n      not\n        /* \"#utility.yul\":7002:7004   */\n      0x1f\n        /* \"#utility.yul\":6995:7000   */\n      dup4\n        /* \"#utility.yul\":6991:7005   */\n      add\n        /* \"#utility.yul\":6987:7015   */\n      and\n        /* \"#utility.yul\":6977:7015   */\n      swap1\n      pop\n        /* \"#utility.yul\":6919:7021   */\n      swap2\n      swap1\n      pop\n      jump\t// out\n        /* \"#utility.yul\":7027:7150   */\n    tag_112:\n        /* \"#utility.yul\":7118:7119   */\n      0x03\n        /* \"#utility.yul\":7111:7116   */\n      dup2\n        /* \"#utility.yul\":7108:7120   */\n      lt\n        /* \"#utility.yul\":7098:7144   */\n      tag_146\n      jumpi\n        /* \"#utility.yul\":7124:7142   */\n      tag_147\n      tag_20\n      jump\t// in\n    tag_147:\n        /* \"#utility.yul\":7098:7144   */\n    tag_146:\n        /* \"#utility.yul\":7027:7150   */\n      pop\n      jump\t// out\n        /* \"#utility.yul\":7156:7278   */\n    tag_60:\n        /* \"#utility.yul\":7229:7253   */\n      tag_149\n        /* \"#utility.yul\":7247:7252   */\n      dup2\n        /* \"#utility.yul\":7229:7253   */\n      tag_91\n      jump\t// in\n    tag_149:\n        /* \"#utility.yul\":7222:7227   */\n      dup2\n        /* \"#utility.yul\":7219:7254   */\n      eq\n        /* \"#utility.yul\":7209:7272   */\n      tag_150\n      jumpi\n        /* \"#utility.yul\":7268:7269   */\n      0x00\n        /* \"#utility.yul\":7265:7266   */\n      dup1\n        /* \"#utility.yul\":7258:7270   */\n      revert\n        /* \"#utility.yul\":7209:7272   */\n    tag_150:\n        /* \"#utility.yul\":7156:7278   */\n      pop\n      jump\t// out\n\n    auxdata: 0xa2646970667358221220d9a6ba436ad415a2d03fe61dd94f4472da6c39defdc552f18235c143925a8c7b64736f6c63430008070033\n}\n",
				"bytecode": {
					"linkReferences": {},
					"object": "608060405234801561001057600080fd5b50610703806100206000396000f3fe608060405234801561001057600080fd5b50600436106100365760003560e01c80638c5517421461003b578063bfb231d214610057575b600080fd5b61005560048036038101906100509190610314565b610089565b005b610071600480360381019061006c9190610370565b61012d565b604051610080939291906103f4565b60405180910390f35b81600080600154815260200190815260200160002060000190805190602001906100b49291906101ec565b50806000806001548152602001908152602001600020600101819055506000806000600154815260200190815260200160002060020160006101000a81548160ff0219169083600281111561010c5761010b6105f0565b5b02179055506001600081548092919061012490610578565b91905055505050565b600060205280600052604060002060009150905080600001805461015090610515565b80601f016020809104026020016040519081016040528092919081815260200182805461017c90610515565b80156101c95780601f1061019e576101008083540402835291602001916101c9565b820191906000526020600020905b8154815290600101906020018083116101ac57829003601f168201915b5050505050908060010154908060020160009054906101000a900460ff16905083565b8280546101f890610515565b90600052602060002090601f01602090048101928261021a5760008555610261565b82601f1061023357805160ff1916838001178555610261565b82800160010185558215610261579182015b82811115610260578251825591602001919060010190610245565b5b50905061026e9190610272565b5090565b5b8082111561028b576000816000905550600101610273565b5090565b60006102a261029d84610457565b610432565b9050828152602081018484840111156102be576102bd610682565b5b6102c98482856104d3565b509392505050565b600082601f8301126102e6576102e561067d565b5b81356102f684826020860161028f565b91505092915050565b60008135905061030e816106b6565b92915050565b6000806040838503121561032b5761032a61068c565b5b600083013567ffffffffffffffff81111561034957610348610687565b5b610355858286016102d1565b9250506020610366858286016102ff565b9150509250929050565b6000602082840312156103865761038561068c565b5b6000610394848285016102ff565b91505092915050565b6103a6816104c1565b82525050565b60006103b782610488565b6103c18185610493565b93506103d18185602086016104e2565b6103da81610691565b840191505092915050565b6103ee816104b7565b82525050565b6000606082019050818103600083015261040e81866103ac565b905061041d60208301856103e5565b61042a604083018461039d565b949350505050565b600061043c61044d565b90506104488282610547565b919050565b6000604051905090565b600067ffffffffffffffff8211156104725761047161064e565b5b61047b82610691565b9050602081019050919050565b600081519050919050565b600082825260208201905092915050565b60008190506104b2826106a2565b919050565b6000819050919050565b60006104cc826104a4565b9050919050565b82818337600083830152505050565b60005b838110156105005780820151818401526020810190506104e5565b8381111561050f576000848401525b50505050565b6000600282049050600182168061052d57607f821691505b602082108114156105415761054061061f565b5b50919050565b61055082610691565b810181811067ffffffffffffffff8211171561056f5761056e61064e565b5b80604052505050565b6000610583826104b7565b91507fffffffffffffffffffffffffffffffffffffffffffffffffffffffffffffffff8214156105b6576105b56105c1565b5b600182019050919050565b7f4e487b7100000000000000000000000000000000000000000000000000000000600052601160045260246000fd5b7f4e487b7100000000000000000000000000000000000000000000000000000000600052602160045260246000fd5b7f4e487b7100000000000000000000000000000000000000000000000000000000600052602260045260246000fd5b7f4e487b7100000000000000000000000000000000000000000000000000000000600052604160045260246000fd5b600080fd5b600080fd5b600080fd5b600080fd5b6000601f19601f8301169050919050565b600381106106b3576106b26105f0565b5b50565b6106bf816104b7565b81146106ca57600080fd5b5056fea2646970667358221220d9a6ba436ad415a2d03fe61dd94f4472da6c39defdc552f18235c143925a8c7b64736f6c63430008070033",
					"opcodes": "PUSH1 0x80 PUSH1 0x40 MSTORE CALLVALUE DUP1 ISZERO PUSH2 0x10 JUMPI PUSH1 0x0 DUP1 REVERT JUMPDEST POP PUSH2 0x703 DUP1 PUSH2 0x20 PUSH1 0x0 CODECOPY PUSH1 0x0 RETURN INVALID PUSH1 0x80 PUSH1 0x40 MSTORE CALLVALUE DUP1 ISZERO PUSH2 0x10 JUMPI PUSH1 0x0 DUP1 REVERT JUMPDEST POP PUSH1 0x4 CALLDATASIZE LT PUSH2 0x36 JUMPI PUSH1 0x0 CALLDATALOAD PUSH1 0xE0 SHR DUP1 PUSH4 0x8C551742 EQ PUSH2 0x3B JUMPI DUP1 PUSH4 0xBFB231D2 EQ PUSH2 0x57 JUMPI JUMPDEST PUSH1 0x0 DUP1 REVERT JUMPDEST PUSH2 0x55 PUSH1 0x4 DUP1 CALLDATASIZE SUB DUP2 ADD SWAP1 PUSH2 0x50 SWAP2 SWAP1 PUSH2 0x314 JUMP JUMPDEST PUSH2 0x89 JUMP JUMPDEST STOP JUMPDEST PUSH2 0x71 PUSH1 0x4 DUP1 CALLDATASIZE SUB DUP2 ADD SWAP1 PUSH2 0x6C SWAP2 SWAP1 PUSH2 0x370 JUMP JUMPDEST PUSH2 0x12D JUMP JUMPDEST PUSH1 0x40 MLOAD PUSH2 0x80 SWAP4 SWAP3 SWAP2 SWAP1 PUSH2 0x3F4 JUMP JUMPDEST PUSH1 0x40 MLOAD DUP1 SWAP2 SUB SWAP1 RETURN JUMPDEST DUP2 PUSH1 0x0 DUP1 PUSH1 0x1 SLOAD DUP2 MSTORE PUSH1 0x20 ADD SWAP1 DUP2 MSTORE PUSH1 0x20 ADD PUSH1 0x0 KECCAK256 PUSH1 0x0 ADD SWAP1 DUP1 MLOAD SWAP1 PUSH1 0x20 ADD SWAP1 PUSH2 0xB4 SWAP3 SWAP2 SWAP1 PUSH2 0x1EC JUMP JUMPDEST POP DUP1 PUSH1 0x0 DUP1 PUSH1 0x1 SLOAD DUP2 MSTORE PUSH1 0x20 ADD SWAP1 DUP2 MSTORE PUSH1 0x20 ADD PUSH1 0x0 KECCAK256 PUSH1 0x1 ADD DUP2 SWAP1 SSTORE POP PUSH1 0x0 DUP1 PUSH1 0x0 PUSH1 0x1 SLOAD DUP2 MSTORE PUSH1 0x20 ADD SWAP1 DUP2 MSTORE PUSH1 0x20 ADD PUSH1 0x0 KECCAK256 PUSH1 0x2 ADD PUSH1 0x0 PUSH2 0x100 EXP DUP2 SLOAD DUP2 PUSH1 0xFF MUL NOT AND SWAP1 DUP4 PUSH1 0x2 DUP2 GT ISZERO PUSH2 0x10C JUMPI PUSH2 0x10B PUSH2 0x5F0 JUMP JUMPDEST JUMPDEST MUL OR SWAP1 SSTORE POP PUSH1 0x1 PUSH1 0x0 DUP2 SLOAD DUP1 SWAP3 SWAP2 SWAP1 PUSH2 0x124 SWAP1 PUSH2 0x578 JUMP JUMPDEST SWAP2 SWAP1 POP SSTORE POP POP POP JUMP JUMPDEST PUSH1 0x0 PUSH1 0x20 MSTORE DUP1 PUSH1 0x0 MSTORE PUSH1 0x40 PUSH1 0x0 KECCAK256 PUSH1 0x0 SWAP2 POP SWAP1 POP DUP1 PUSH1 0x0 ADD DUP1 SLOAD PUSH2 0x150 SWAP1 PUSH2 0x515 JUMP JUMPDEST DUP1 PUSH1 0x1F ADD PUSH1 0x20 DUP1 SWAP2 DIV MUL PUSH1 0x20 ADD PUSH1 0x40 MLOAD SWAP1 DUP2 ADD PUSH1 0x40 MSTORE DUP1 SWAP3 SWAP2 SWAP1 DUP2 DUP2 MSTORE PUSH1 0x20 ADD DUP3 DUP1 SLOAD PUSH2 0x17C SWAP1 PUSH2 0x515 JUMP JUMPDEST DUP1 ISZERO PUSH2 0x1C9 JUMPI DUP1 PUSH1 0x1F LT PUSH2 0x19E JUMPI PUSH2 0x100 DUP1 DUP4 SLOAD DIV MUL DUP4 MSTORE SWAP2 PUSH1 0x20 ADD SWAP2 PUSH2 0x1C9 JUMP JUMPDEST DUP3 ADD SWAP2 SWAP1 PUSH1 0x0 MSTORE PUSH1 0x20 PUSH1 0x0 KECCAK256 SWAP1 JUMPDEST DUP2 SLOAD DUP2 MSTORE SWAP1 PUSH1 0x1 ADD SWAP1 PUSH1 0x20 ADD DUP1 DUP4 GT PUSH2 0x1AC JUMPI DUP3 SWAP1 SUB PUSH1 0x1F AND DUP3 ADD SWAP2 JUMPDEST POP POP POP POP POP SWAP1 DUP1 PUSH1 0x1 ADD SLOAD SWAP1 DUP1 PUSH1 0x2 ADD PUSH1 0x0 SWAP1 SLOAD SWAP1 PUSH2 0x100 EXP SWAP1 DIV PUSH1 0xFF AND SWAP1 POP DUP4 JUMP JUMPDEST DUP3 DUP1 SLOAD PUSH2 0x1F8 SWAP1 PUSH2 0x515 JUMP JUMPDEST SWAP1 PUSH1 0x0 MSTORE PUSH1 0x20 PUSH1 0x0 KECCAK256 SWAP1 PUSH1 0x1F ADD PUSH1 0x20 SWAP1 DIV DUP2 ADD SWAP3 DUP3 PUSH2 0x21A JUMPI PUSH1 0x0 DUP6 SSTORE PUSH2 0x261 JUMP JUMPDEST DUP3 PUSH1 0x1F LT PUSH2 0x233 JUMPI DUP1 MLOAD PUSH1 0xFF NOT AND DUP4 DUP1 ADD OR DUP6 SSTORE PUSH2 0x261 JUMP JUMPDEST DUP3 DUP1 ADD PUSH1 0x1 ADD DUP6 SSTORE DUP3 ISZERO PUSH2 0x261 JUMPI SWAP2 DUP3 ADD JUMPDEST DUP3 DUP2 GT ISZERO PUSH2 0x260 JUMPI DUP3 MLOAD DUP3 SSTORE SWAP2 PUSH1 0x20 ADD SWAP2 SWAP1 PUSH1 0x1 ADD SWAP1 PUSH2 0x245 JUMP JUMPDEST JUMPDEST POP SWAP1 POP PUSH2 0x26E SWAP2 SWAP1 PUSH2 0x272 JUMP JUMPDEST POP SWAP1 JUMP JUMPDEST JUMPDEST DUP1 DUP3 GT ISZERO PUSH2 0x28B JUMPI PUSH1 0x0 DUP2 PUSH1 0x0 SWAP1 SSTORE POP PUSH1 0x1 ADD PUSH2 0x273 JUMP JUMPDEST POP SWAP1 JUMP JUMPDEST PUSH1 0x0 PUSH2 0x2A2 PUSH2 0x29D DUP5 PUSH2 0x457 JUMP JUMPDEST PUSH2 0x432 JUMP JUMPDEST SWAP1 POP DUP3 DUP2 MSTORE PUSH1 0x20 DUP2 ADD DUP5 DUP5 DUP5 ADD GT ISZERO PUSH2 0x2BE JUMPI PUSH2 0x2BD PUSH2 0x682 JUMP JUMPDEST JUMPDEST PUSH2 0x2C9 DUP5 DUP3 DUP6 PUSH2 0x4D3 JUMP JUMPDEST POP SWAP4 SWAP3 POP POP POP JUMP JUMPDEST PUSH1 0x0 DUP3 PUSH1 0x1F DUP4 ADD SLT PUSH2 0x2E6 JUMPI PUSH2 0x2E5 PUSH2 0x67D JUMP JUMPDEST JUMPDEST DUP2 CALLDATALOAD PUSH2 0x2F6 DUP5 DUP3 PUSH1 0x20 DUP7 ADD PUSH2 0x28F JUMP JUMPDEST SWAP2 POP POP SWAP3 SWAP2 POP POP JUMP JUMPDEST PUSH1 0x0 DUP2 CALLDATALOAD SWAP1 POP PUSH2 0x30E DUP2 PUSH2 0x6B6 JUMP JUMPDEST SWAP3 SWAP2 POP POP JUMP JUMPDEST PUSH1 0x0 DUP1 PUSH1 0x40 DUP4 DUP6 SUB SLT ISZERO PUSH2 0x32B JUMPI PUSH2 0x32A PUSH2 0x68C JUMP JUMPDEST JUMPDEST PUSH1 0x0 DUP4 ADD CALLDATALOAD PUSH8 0xFFFFFFFFFFFFFFFF DUP2 GT ISZERO PUSH2 0x349 JUMPI PUSH2 0x348 PUSH2 0x687 JUMP JUMPDEST JUMPDEST PUSH2 0x355 DUP6 DUP3 DUP7 ADD PUSH2 0x2D1 JUMP JUMPDEST SWAP3 POP POP PUSH1 0x20 PUSH2 0x366 DUP6 DUP3 DUP7 ADD PUSH2 0x2FF JUMP JUMPDEST SWAP2 POP POP SWAP3 POP SWAP3 SWAP1 POP JUMP JUMPDEST PUSH1 0x0 PUSH1 0x20 DUP3 DUP5 SUB SLT ISZERO PUSH2 0x386 JUMPI PUSH2 0x385 PUSH2 0x68C JUMP JUMPDEST JUMPDEST PUSH1 0x0 PUSH2 0x394 DUP5 DUP3 DUP6 ADD PUSH2 0x2FF JUMP JUMPDEST SWAP2 POP POP SWAP3 SWAP2 POP POP JUMP JUMPDEST PUSH2 0x3A6 DUP2 PUSH2 0x4C1 JUMP JUMPDEST DUP3 MSTORE POP POP JUMP JUMPDEST PUSH1 0x0 PUSH2 0x3B7 DUP3 PUSH2 0x488 JUMP JUMPDEST PUSH2 0x3C1 DUP2 DUP6 PUSH2 0x493 JUMP JUMPDEST SWAP4 POP PUSH2 0x3D1 DUP2 DUP6 PUSH1 0x20 DUP7 ADD PUSH2 0x4E2 JUMP JUMPDEST PUSH2 0x3DA DUP2 PUSH2 0x691 JUMP JUMPDEST DUP5 ADD SWAP2 POP POP SWAP3 SWAP2 POP POP JUMP JUMPDEST PUSH2 0x3EE DUP2 PUSH2 0x4B7 JUMP JUMPDEST DUP3 MSTORE POP POP JUMP JUMPDEST PUSH1 0x0 PUSH1 0x60 DUP3 ADD SWAP1 POP DUP2 DUP2 SUB PUSH1 0x0 DUP4 ADD MSTORE PUSH2 0x40E DUP2 DUP7 PUSH2 0x3AC JUMP JUMPDEST SWAP1 POP PUSH2 0x41D PUSH1 0x20 DUP4 ADD DUP6 PUSH2 0x3E5 JUMP JUMPDEST PUSH2 0x42A PUSH1 0x40 DUP4 ADD DUP5 PUSH2 0x39D JUMP JUMPDEST SWAP5 SWAP4 POP POP POP POP JUMP JUMPDEST PUSH1 0x0 PUSH2 0x43C PUSH2 0x44D JUMP JUMPDEST SWAP1 POP PUSH2 0x448 DUP3 DUP3 PUSH2 0x547 JUMP JUMPDEST SWAP2 SWAP1 POP JUMP JUMPDEST PUSH1 0x0 PUSH1 0x40 MLOAD SWAP1 POP SWAP1 JUMP JUMPDEST PUSH1 0x0 PUSH8 0xFFFFFFFFFFFFFFFF DUP3 GT ISZERO PUSH2 0x472 JUMPI PUSH2 0x471 PUSH2 0x64E JUMP JUMPDEST JUMPDEST PUSH2 0x47B DUP3 PUSH2 0x691 JUMP JUMPDEST SWAP1 POP PUSH1 0x20 DUP2 ADD SWAP1 POP SWAP2 SWAP1 POP JUMP JUMPDEST PUSH1 0x0 DUP2 MLOAD SWAP1 POP SWAP2 SWAP1 POP JUMP JUMPDEST PUSH1 0x0 DUP3 DUP3 MSTORE PUSH1 0x20 DUP3 ADD SWAP1 POP SWAP3 SWAP2 POP POP JUMP JUMPDEST PUSH1 0x0 DUP2 SWAP1 POP PUSH2 0x4B2 DUP3 PUSH2 0x6A2 JUMP JUMPDEST SWAP2 SWAP1 POP JUMP JUMPDEST PUSH1 0x0 DUP2 SWAP1 POP SWAP2 SWAP1 POP JUMP JUMPDEST PUSH1 0x0 PUSH2 0x4CC DUP3 PUSH2 0x4A4 JUMP JUMPDEST SWAP1 POP SWAP2 SWAP1 POP JUMP JUMPDEST DUP3 DUP2 DUP4 CALLDATACOPY PUSH1 0x0 DUP4 DUP4 ADD MSTORE POP POP POP JUMP JUMPDEST PUSH1 0x0 JUMPDEST DUP4 DUP2 LT ISZERO PUSH2 0x500 JUMPI DUP1 DUP3 ADD MLOAD DUP2 DUP5 ADD MSTORE PUSH1 0x20 DUP2 ADD SWAP1 POP PUSH2 0x4E5 JUMP JUMPDEST DUP4 DUP2 GT ISZERO PUSH2 0x50F JUMPI PUSH1 0x0 DUP5 DUP5 ADD MSTORE JUMPDEST POP POP POP POP JUMP JUMPDEST PUSH1 0x0 PUSH1 0x2 DUP3 DIV SWAP1 POP PUSH1 0x1 DUP3 AND DUP1 PUSH2 0x52D JUMPI PUSH1 0x7F DUP3 AND SWAP2 POP JUMPDEST PUSH1 0x20 DUP3 LT DUP2 EQ ISZERO PUSH2 0x541 JUMPI PUSH2 0x540 PUSH2 0x61F JUMP JUMPDEST JUMPDEST POP SWAP2 SWAP1 POP JUMP JUMPDEST PUSH2 0x550 DUP3 PUSH2 0x691 JUMP JUMPDEST DUP2 ADD DUP2 DUP2 LT PUSH8 0xFFFFFFFFFFFFFFFF DUP3 GT OR ISZERO PUSH2 0x56F JUMPI PUSH2 0x56E PUSH2 0x64E JUMP JUMPDEST JUMPDEST DUP1 PUSH1 0x40 MSTORE POP POP POP JUMP JUMPDEST PUSH1 0x0 PUSH2 0x583 DUP3 PUSH2 0x4B7 JUMP JUMPDEST SWAP2 POP PUSH32 0xFFFFFFFFFFFFFFFFFFFFFFFFFFFFFFFFFFFFFFFFFFFFFFFFFFFFFFFFFFFFFFFF DUP3 EQ ISZERO PUSH2 0x5B6 JUMPI PUSH2 0x5B5 PUSH2 0x5C1 JUMP JUMPDEST JUMPDEST PUSH1 0x1 DUP3 ADD SWAP1 POP SWAP2 SWAP1 POP JUMP JUMPDEST PUSH32 0x4E487B7100000000000000000000000000000000000000000000000000000000 PUSH1 0x0 MSTORE PUSH1 0x11 PUSH1 0x4 MSTORE PUSH1 0x24 PUSH1 0x0 REVERT JUMPDEST PUSH32 0x4E487B7100000000000000000000000000000000000000000000000000000000 PUSH1 0x0 MSTORE PUSH1 0x21 PUSH1 0x4 MSTORE PUSH1 0x24 PUSH1 0x0 REVERT JUMPDEST PUSH32 0x4E487B7100000000000000000000000000000000000000000000000000000000 PUSH1 0x0 MSTORE PUSH1 0x22 PUSH1 0x4 MSTORE PUSH1 0x24 PUSH1 0x0 REVERT JUMPDEST PUSH32 0x4E487B7100000000000000000000000000000000000000000000000000000000 PUSH1 0x0 MSTORE PUSH1 0x41 PUSH1 0x4 MSTORE PUSH1 0x24 PUSH1 0x0 REVERT JUMPDEST PUSH1 0x0 DUP1 REVERT JUMPDEST PUSH1 0x0 DUP1 REVERT JUMPDEST PUSH1 0x0 DUP1 REVERT JUMPDEST PUSH1 0x0 DUP1 REVERT JUMPDEST PUSH1 0x0 PUSH1 0x1F NOT PUSH1 0x1F DUP4 ADD AND SWAP1 POP SWAP2 SWAP1 POP JUMP JUMPDEST PUSH1 0x3 DUP2 LT PUSH2 0x6B3 JUMPI PUSH2 0x6B2 PUSH2 0x5F0 JUMP JUMPDEST JUMPDEST POP JUMP JUMPDEST PUSH2 0x6BF DUP2 PUSH2 0x4B7 JUMP JUMPDEST DUP2 EQ PUSH2 0x6CA JUMPI PUSH1 0x0 DUP1 REVERT JUMPDEST POP JUMP INVALID LOG2 PUSH5 0x6970667358 0x22 SLT KECCAK256 0xD9 0xA6 0xBA NUMBER PUSH11 0xD415A2D03FE61DD94F4472 0xDA PUSH13 0x39DEFDC552F18235C143925A8C PUSH28 0x64736F6C634300080700330000000000000000000000000000000000 "
				},
				"gasEstimates": {
					"creation": {
						"codeDepositCost": "359000",
						"executionCost": "399",
						"totalCost": "359399"
					},
					"external": {
						"createItem(string,uint256)": "infinite",
						"items(uint256)": "infinite"
					}
				},
				"methodIdentifiers": {
					"createItem(string,uint256)": "8c551742",
					"items(uint256)": "bfb231d2"
				}
			},
			"storageLayout": {
				"storage": [
					{
						"astId": 18,
						"contract": "ItemManager.sol:ItemManager",
						"label": "items",
						"offset": 0,
						"slot": "0",
						"type": "t_mapping(t_uint256,t_struct(S_Item)13_storage)"
					},
					{
						"astId": 20,
						"contract": "ItemManager.sol:ItemManager",
						"label": "itemIndex",
						"offset": 0,
						"slot": "1",
						"type": "t_uint256"
					}
				],
				"types": {
					"t_enum(SupplyChainState)5": {
						"encoding": "inplace",
						"label": "enum ItemManager.SupplyChainState",
						"numberOfBytes": "1"
					},
					"t_mapping(t_uint256,t_struct(S_Item)13_storage)": {
						"encoding": "mapping",
						"key": "t_uint256",
						"label": "mapping(uint256 => struct ItemManager.S_Item)",
						"numberOfBytes": "32",
						"value": "t_struct(S_Item)13_storage"
					},
					"t_string_storage": {
						"encoding": "bytes",
						"label": "string",
						"numberOfBytes": "32"
					},
					"t_struct(S_Item)13_storage": {
						"encoding": "inplace",
						"label": "struct ItemManager.S_Item",
						"members": [
							{
								"astId": 7,
								"contract": "ItemManager.sol:ItemManager",
								"label": "_identifier",
								"offset": 0,
								"slot": "0",
								"type": "t_string_storage"
							},
							{
								"astId": 9,
								"contract": "ItemManager.sol:ItemManager",
								"label": "_itemPrice",
								"offset": 0,
								"slot": "1",
								"type": "t_uint256"
							},
							{
								"astId": 12,
								"contract": "ItemManager.sol:ItemManager",
								"label": "_state",
								"offset": 0,
								"slot": "2",
								"type": "t_enum(SupplyChainState)5"
							}
						],
						"numberOfBytes": "96"
					},
					"t_uint256": {
						"encoding": "inplace",
						"label": "uint256",
						"numberOfBytes": "32"
					}
				}
			},
			"userdoc": {
				"kind": "user",
				"methods": {},
				"version": 1
			}
		}
	}
}