{
	"MyProjectSharedWallet.sol": {
		"SharedWallet": {
			"abi": [
				{
					"anonymous": false,
					"inputs": [
						{
							"indexed": true,
							"internalType": "address",
							"name": "_forWho",
							"type": "address"
						},
						{
							"indexed": true,
							"internalType": "address",
							"name": "_byWhom",
							"type": "address"
						},
						{
							"indexed": false,
							"internalType": "uint256",
							"name": "_sentAmount",
							"type": "uint256"
						}
					],
					"name": "ClaimEvent",
					"type": "event"
				},
				{
					"anonymous": false,
					"inputs": [
						{
							"indexed": true,
							"internalType": "address",
							"name": "previousOwner",
							"type": "address"
						},
						{
							"indexed": true,
							"internalType": "address",
							"name": "newOwner",
							"type": "address"
						}
					],
					"name": "OwnershipTransferred",
					"type": "event"
				},
				{
					"inputs": [
						{
							"internalType": "address payable",
							"name": "_to",
							"type": "address"
						},
						{
							"internalType": "uint256",
							"name": "_amount",
							"type": "uint256"
						}
					],
					"name": "ClaimMoney",
					"outputs": [],
					"stateMutability": "nonpayable",
					"type": "function"
				},
				{
					"inputs": [],
					"name": "SendMoney",
					"outputs": [],
					"stateMutability": "payable",
					"type": "function"
				},
				{
					"inputs": [
						{
							"internalType": "address",
							"name": "_user",
							"type": "address"
						},
						{
							"internalType": "uint256",
							"name": "_allowancePercentage",
							"type": "uint256"
						}
					],
					"name": "SetAllowance",
					"outputs": [],
					"stateMutability": "nonpayable",
					"type": "function"
				},
				{
					"inputs": [],
					"name": "contractBalance",
					"outputs": [
						{
							"internalType": "uint256",
							"name": "",
							"type": "uint256"
						}
					],
					"stateMutability": "view",
					"type": "function"
				},
				{
					"inputs": [],
					"name": "owner",
					"outputs": [
						{
							"internalType": "address",
							"name": "",
							"type": "address"
						}
					],
					"stateMutability": "view",
					"type": "function"
				},
				{
					"inputs": [
						{
							"internalType": "address payable",
							"name": "_to",
							"type": "address"
						},
						{
							"internalType": "uint256",
							"name": "_amount",
							"type": "uint256"
						}
					],
					"name": "ownerWithdraw",
					"outputs": [],
					"stateMutability": "nonpayable",
					"type": "function"
				},
				{
					"inputs": [],
					"name": "renounceOwnership",
					"outputs": [],
					"stateMutability": "nonpayable",
					"type": "function"
				},
				{
					"inputs": [],
					"name": "totalAllowances",
					"outputs": [
						{
							"internalType": "uint256",
							"name": "",
							"type": "uint256"
						}
					],
					"stateMutability": "view",
					"type": "function"
				},
				{
					"inputs": [],
					"name": "totalClaims",
					"outputs": [
						{
							"internalType": "uint256",
							"name": "",
							"type": "uint256"
						}
					],
					"stateMutability": "view",
					"type": "function"
				},
				{
					"inputs": [
						{
							"internalType": "address",
							"name": "newOwner",
							"type": "address"
						}
					],
					"name": "transferOwnership",
					"outputs": [],
					"stateMutability": "nonpayable",
					"type": "function"
				},
				{
					"inputs": [
						{
							"internalType": "address",
							"name": "",
							"type": "address"
						}
					],
					"name": "users",
					"outputs": [
						{
							"internalType": "uint256",
							"name": "allowance",
							"type": "uint256"
						},
						{
							"internalType": "uint256",
							"name": "claimsMade",
							"type": "uint256"
						}
					],
					"stateMutability": "view",
					"type": "function"
				},
				{
					"stateMutability": "payable",
					"type": "receive"
				}
			],
			"devdoc": {
				"kind": "dev",
				"methods": {
					"owner()": {
						"details": "Returns the address of the current owner."
					},
					"renounceOwnership()": {
						"details": "Leaves the contract without owner. It will not be possible to call `onlyOwner` functions anymore. Can only be called by the current owner. NOTE: Renouncing ownership will leave the contract without an owner, thereby removing any functionality that is only available to the owner."
					},
					"transferOwnership(address)": {
						"details": "Transfers ownership of the contract to a new account (`newOwner`). Can only be called by the current owner."
					}
				},
				"version": 1
			},
			"evm": {
				"assembly": "    /* \"MyProjectSharedWallet.sol\":262:3253  contract SharedWallet is Ownable {... */\n  mstore(0x40, 0x80)\n  callvalue\n  dup1\n  iszero\n  tag_1\n  jumpi\n  0x00\n  dup1\n  revert\ntag_1:\n  pop\n    /* \"https://github.com/OpenZeppelin/openzeppelin-contracts/blob/master/contracts/access/Ownable.sol\":936:968  _transferOwnership(_msgSender()) */\n  tag_4\n    /* \"https://github.com/OpenZeppelin/openzeppelin-contracts/blob/master/contracts/access/Ownable.sol\":955:967  _msgSender() */\n  tag_5\n    /* \"https://github.com/OpenZeppelin/openzeppelin-contracts/blob/master/contracts/access/Ownable.sol\":955:965  _msgSender */\n  shl(0x20, tag_6)\n    /* \"https://github.com/OpenZeppelin/openzeppelin-contracts/blob/master/contracts/access/Ownable.sol\":955:967  _msgSender() */\n  0x20\n  shr\n  jump\t// in\ntag_5:\n    /* \"https://github.com/OpenZeppelin/openzeppelin-contracts/blob/master/contracts/access/Ownable.sol\":936:954  _transferOwnership */\n  shl(0x20, tag_7)\n    /* \"https://github.com/OpenZeppelin/openzeppelin-contracts/blob/master/contracts/access/Ownable.sol\":936:968  _transferOwnership(_msgSender()) */\n  0x20\n  shr\n  jump\t// in\ntag_4:\n    /* \"MyProjectSharedWallet.sol\":262:3253  contract SharedWallet is Ownable {... */\n  jump(tag_8)\n    /* \"https://github.com/OpenZeppelin/openzeppelin-contracts/blob/master/contracts/utils/Context.sol\":640:736  function _msgSender() internal view virtual returns (address) {... */\ntag_6:\n    /* \"https://github.com/OpenZeppelin/openzeppelin-contracts/blob/master/contracts/utils/Context.sol\":693:700  address */\n  0x00\n    /* \"https://github.com/OpenZeppelin/openzeppelin-contracts/blob/master/contracts/utils/Context.sol\":719:729  msg.sender */\n  caller\n    /* \"https://github.com/OpenZeppelin/openzeppelin-contracts/blob/master/contracts/utils/Context.sol\":712:729  return msg.sender */\n  swap1\n  pop\n    /* \"https://github.com/OpenZeppelin/openzeppelin-contracts/blob/master/contracts/utils/Context.sol\":640:736  function _msgSender() internal view virtual returns (address) {... */\n  swap1\n  jump\t// out\n    /* \"https://github.com/OpenZeppelin/openzeppelin-contracts/blob/master/contracts/access/Ownable.sol\":2433:2620  function _transferOwnership(address newOwner) internal virtual {... */\ntag_7:\n    /* \"https://github.com/OpenZeppelin/openzeppelin-contracts/blob/master/contracts/access/Ownable.sol\":2506:2522  address oldOwner */\n  0x00\n    /* \"https://github.com/OpenZeppelin/openzeppelin-contracts/blob/master/contracts/access/Ownable.sol\":2525:2531  _owner */\n  dup1\n  0x00\n  swap1\n  sload\n  swap1\n  0x0100\n  exp\n  swap1\n  div\n  0xffffffffffffffffffffffffffffffffffffffff\n  and\n    /* \"https://github.com/OpenZeppelin/openzeppelin-contracts/blob/master/contracts/access/Ownable.sol\":2506:2531  address oldOwner = _owner */\n  swap1\n  pop\n    /* \"https://github.com/OpenZeppelin/openzeppelin-contracts/blob/master/contracts/access/Ownable.sol\":2550:2558  newOwner */\n  dup2\n    /* \"https://github.com/OpenZeppelin/openzeppelin-contracts/blob/master/contracts/access/Ownable.sol\":2541:2547  _owner */\n  0x00\n  dup1\n    /* \"https://github.com/OpenZeppelin/openzeppelin-contracts/blob/master/contracts/access/Ownable.sol\":2541:2558  _owner = newOwner */\n  0x0100\n  exp\n  dup2\n  sload\n  dup2\n  0xffffffffffffffffffffffffffffffffffffffff\n  mul\n  not\n  and\n  swap1\n  dup4\n  0xffffffffffffffffffffffffffffffffffffffff\n  and\n  mul\n  or\n  swap1\n  sstore\n  pop\n    /* \"https://github.com/OpenZeppelin/openzeppelin-contracts/blob/master/contracts/access/Ownable.sol\":2604:2612  newOwner */\n  dup2\n    /* \"https://github.com/OpenZeppelin/openzeppelin-contracts/blob/master/contracts/access/Ownable.sol\":2573:2613  OwnershipTransferred(oldOwner, newOwner) */\n  0xffffffffffffffffffffffffffffffffffffffff\n  and\n    /* \"https://github.com/OpenZeppelin/openzeppelin-contracts/blob/master/contracts/access/Ownable.sol\":2594:2602  oldOwner */\n  dup2\n    /* \"https://github.com/OpenZeppelin/openzeppelin-contracts/blob/master/contracts/access/Ownable.sol\":2573:2613  OwnershipTransferred(oldOwner, newOwner) */\n  0xffffffffffffffffffffffffffffffffffffffff\n  and\n  0x8be0079c531659141344cd1fd0a4f28419497f9722a3daafe3b4186f6b6457e0\n  mload(0x40)\n  mload(0x40)\n  dup1\n  swap2\n  sub\n  swap1\n  log3\n    /* \"https://github.com/OpenZeppelin/openzeppelin-contracts/blob/master/contracts/access/Ownable.sol\":2496:2620  {... */\n  pop\n    /* \"https://github.com/OpenZeppelin/openzeppelin-contracts/blob/master/contracts/access/Ownable.sol\":2433:2620  function _transferOwnership(address newOwner) internal virtual {... */\n  pop\n  jump\t// out\n    /* \"MyProjectSharedWallet.sol\":262:3253  contract SharedWallet is Ownable {... */\ntag_8:\n  dataSize(sub_0)\n  dup1\n  dataOffset(sub_0)\n  0x00\n  codecopy\n  0x00\n  return\nstop\n\nsub_0: assembly {\n        /* \"MyProjectSharedWallet.sol\":262:3253  contract SharedWallet is Ownable {... */\n      mstore(0x40, 0x80)\n      jumpi(tag_1, lt(calldatasize, 0x04))\n      shr(0xe0, calldataload(0x00))\n      dup1\n      0x715018a6\n      gt\n      tag_14\n      jumpi\n      dup1\n      0x715018a6\n      eq\n      tag_8\n      jumpi\n      dup1\n      0x8b7afe2e\n      eq\n      tag_9\n      jumpi\n      dup1\n      0x8da5cb5b\n      eq\n      tag_10\n      jumpi\n      dup1\n      0xa87430ba\n      eq\n      tag_11\n      jumpi\n      dup1\n      0xd9c88e14\n      eq\n      tag_12\n      jumpi\n      dup1\n      0xf2fde38b\n      eq\n      tag_13\n      jumpi\n      jump(tag_2)\n    tag_14:\n      dup1\n      0x05737314\n      eq\n      tag_3\n      jumpi\n      dup1\n      0x16a51305\n      eq\n      tag_4\n      jumpi\n      dup1\n      0x2d70db2f\n      eq\n      tag_5\n      jumpi\n      dup1\n      0x3e7279a3\n      eq\n      tag_6\n      jumpi\n      dup1\n      0x41c61383\n      eq\n      tag_7\n      jumpi\n      jump(tag_2)\n    tag_1:\n      jumpi(tag_2, calldatasize)\n        /* \"MyProjectSharedWallet.sol\":1006:1017  SendMoney() */\n      tag_17\n        /* \"MyProjectSharedWallet.sol\":1006:1015  SendMoney */\n      tag_18\n        /* \"MyProjectSharedWallet.sol\":1006:1017  SendMoney() */\n      jump\t// in\n    tag_17:\n        /* \"MyProjectSharedWallet.sol\":262:3253  contract SharedWallet is Ownable {... */\n      stop\n    tag_2:\n      0x00\n      dup1\n      revert\n        /* \"MyProjectSharedWallet.sol\":1062:1154  function SendMoney() public payable {... */\n    tag_3:\n      tag_19\n      tag_18\n      jump\t// in\n    tag_19:\n      stop\n        /* \"MyProjectSharedWallet.sol\":512:539  uint public totalAllowances */\n    tag_4:\n      callvalue\n      dup1\n      iszero\n      tag_20\n      jumpi\n      0x00\n      dup1\n      revert\n    tag_20:\n      pop\n      tag_21\n      tag_22\n      jump\t// in\n    tag_21:\n      mload(0x40)\n      tag_23\n      swap2\n      swap1\n      tag_24\n      jump\t// in\n    tag_23:\n      mload(0x40)\n      dup1\n      swap2\n      sub\n      swap1\n      return\n        /* \"MyProjectSharedWallet.sol\":1245:2166  function ClaimMoney(address payable _to, uint _amount) public {... */\n    tag_5:\n      callvalue\n      dup1\n      iszero\n      tag_25\n      jumpi\n      0x00\n      dup1\n      revert\n    tag_25:\n      pop\n      tag_26\n      0x04\n      dup1\n      calldatasize\n      sub\n      dup2\n      add\n      swap1\n      tag_27\n      swap2\n      swap1\n      tag_28\n      jump\t// in\n    tag_27:\n      tag_29\n      jump\t// in\n    tag_26:\n      stop\n        /* \"MyProjectSharedWallet.sol\":2216:2681  function SetAllowance(address _user, uint _allowancePercentage) public onlyOwner {... */\n    tag_6:\n      callvalue\n      dup1\n      iszero\n      tag_30\n      jumpi\n      0x00\n      dup1\n      revert\n    tag_30:\n      pop\n      tag_31\n      0x04\n      dup1\n      calldatasize\n      sub\n      dup2\n      add\n      swap1\n      tag_32\n      swap2\n      swap1\n      tag_33\n      jump\t// in\n    tag_32:\n      tag_34\n      jump\t// in\n    tag_31:\n      stop\n        /* \"MyProjectSharedWallet.sol\":584:607  uint public totalClaims */\n    tag_7:\n      callvalue\n      dup1\n      iszero\n      tag_35\n      jumpi\n      0x00\n      dup1\n      revert\n    tag_35:\n      pop\n      tag_36\n      tag_37\n      jump\t// in\n    tag_36:\n      mload(0x40)\n      tag_38\n      swap2\n      swap1\n      tag_24\n      jump\t// in\n    tag_38:\n      mload(0x40)\n      dup1\n      swap2\n      sub\n      swap1\n      return\n        /* \"MyProjectSharedWallet.sol\":3100:3250  function renounceOwnership() public override onlyOwner {... */\n    tag_8:\n      callvalue\n      dup1\n      iszero\n      tag_39\n      jumpi\n      0x00\n      dup1\n      revert\n    tag_39:\n      pop\n      tag_40\n      tag_41\n      jump\t// in\n    tag_40:\n      stop\n        /* \"MyProjectSharedWallet.sol\":644:671  uint public contractBalance */\n    tag_9:\n      callvalue\n      dup1\n      iszero\n      tag_42\n      jumpi\n      0x00\n      dup1\n      revert\n    tag_42:\n      pop\n      tag_43\n      tag_44\n      jump\t// in\n    tag_43:\n      mload(0x40)\n      tag_45\n      swap2\n      swap1\n      tag_24\n      jump\t// in\n    tag_45:\n      mload(0x40)\n      dup1\n      swap2\n      sub\n      swap1\n      return\n        /* \"https://github.com/OpenZeppelin/openzeppelin-contracts/blob/master/contracts/access/Ownable.sol\":1201:1286  function owner() public view virtual returns (address) {... */\n    tag_10:\n      callvalue\n      dup1\n      iszero\n      tag_46\n      jumpi\n      0x00\n      dup1\n      revert\n    tag_46:\n      pop\n      tag_47\n      tag_48\n      jump\t// in\n    tag_47:\n      mload(0x40)\n      tag_49\n      swap2\n      swap1\n      tag_50\n      jump\t// in\n    tag_49:\n      mload(0x40)\n      dup1\n      swap2\n      sub\n      swap1\n      return\n        /* \"MyProjectSharedWallet.sol\":421:465  mapping(address => UserDetails) public users */\n    tag_11:\n      callvalue\n      dup1\n      iszero\n      tag_51\n      jumpi\n      0x00\n      dup1\n      revert\n    tag_51:\n      pop\n      tag_52\n      0x04\n      dup1\n      calldatasize\n      sub\n      dup2\n      add\n      swap1\n      tag_53\n      swap2\n      swap1\n      tag_54\n      jump\t// in\n    tag_53:\n      tag_55\n      jump\t// in\n    tag_52:\n      mload(0x40)\n      tag_56\n      swap3\n      swap2\n      swap1\n      tag_57\n      jump\t// in\n    tag_56:\n      mload(0x40)\n      dup1\n      swap2\n      sub\n      swap1\n      return\n        /* \"MyProjectSharedWallet.sol\":2732:2996  function ownerWithdraw(address payable _to, uint _amount) public onlyOwner {... */\n    tag_12:\n      callvalue\n      dup1\n      iszero\n      tag_58\n      jumpi\n      0x00\n      dup1\n      revert\n    tag_58:\n      pop\n      tag_59\n      0x04\n      dup1\n      calldatasize\n      sub\n      dup2\n      add\n      swap1\n      tag_60\n      swap2\n      swap1\n      tag_28\n      jump\t// in\n    tag_60:\n      tag_61\n      jump\t// in\n    tag_59:\n      stop\n        /* \"https://github.com/OpenZeppelin/openzeppelin-contracts/blob/master/contracts/access/Ownable.sol\":2081:2279  function transferOwnership(address newOwner) public virtual onlyOwner {... */\n    tag_13:\n      callvalue\n      dup1\n      iszero\n      tag_62\n      jumpi\n      0x00\n      dup1\n      revert\n    tag_62:\n      pop\n      tag_63\n      0x04\n      dup1\n      calldatasize\n      sub\n      dup2\n      add\n      swap1\n      tag_64\n      swap2\n      swap1\n      tag_54\n      jump\t// in\n    tag_64:\n      tag_65\n      jump\t// in\n    tag_63:\n      stop\n        /* \"MyProjectSharedWallet.sol\":1062:1154  function SendMoney() public payable {... */\n    tag_18:\n        /* \"MyProjectSharedWallet.sol\":1126:1147  address(this).balance */\n      selfbalance\n        /* \"MyProjectSharedWallet.sol\":1108:1123  contractBalance */\n      0x04\n        /* \"MyProjectSharedWallet.sol\":1108:1147  contractBalance = address(this).balance */\n      dup2\n      swap1\n      sstore\n      pop\n        /* \"MyProjectSharedWallet.sol\":1062:1154  function SendMoney() public payable {... */\n      jump\t// out\n        /* \"MyProjectSharedWallet.sol\":512:539  uint public totalAllowances */\n    tag_22:\n      sload(0x02)\n      dup2\n      jump\t// out\n        /* \"MyProjectSharedWallet.sol\":1245:2166  function ClaimMoney(address payable _to, uint _amount) public {... */\n    tag_29:\n        /* \"MyProjectSharedWallet.sol\":1326:1335  isOwner() */\n      tag_68\n        /* \"MyProjectSharedWallet.sol\":1326:1333  isOwner */\n      tag_69\n        /* \"MyProjectSharedWallet.sol\":1326:1335  isOwner() */\n      jump\t// in\n    tag_68:\n        /* \"MyProjectSharedWallet.sol\":1325:1335  !isOwner() */\n      iszero\n        /* \"MyProjectSharedWallet.sol\":1317:1383  require(!isOwner(), \"The owner should use ownerWithdraw function\") */\n      tag_70\n      jumpi\n      mload(0x40)\n      0x08c379a000000000000000000000000000000000000000000000000000000000\n      dup2\n      mstore\n      0x04\n      add\n      tag_71\n      swap1\n      tag_72\n      jump\t// in\n    tag_71:\n      mload(0x40)\n      dup1\n      swap2\n      sub\n      swap1\n      revert\n    tag_70:\n        /* \"MyProjectSharedWallet.sol\":1425:1426  0 */\n      0x00\n        /* \"MyProjectSharedWallet.sol\":1401:1422  address(this).balance */\n      selfbalance\n        /* \"MyProjectSharedWallet.sol\":1401:1426  address(this).balance > 0 */\n      gt\n        /* \"MyProjectSharedWallet.sol\":1393:1471  require(address(this).balance > 0, \"There is no money in the wallet to claim\") */\n      tag_73\n      jumpi\n      mload(0x40)\n      0x08c379a000000000000000000000000000000000000000000000000000000000\n      dup2\n      mstore\n      0x04\n      add\n      tag_74\n      swap1\n      tag_75\n      jump\t// in\n    tag_74:\n      mload(0x40)\n      dup1\n      swap2\n      sub\n      swap1\n      revert\n    tag_73:\n        /* \"MyProjectSharedWallet.sol\":1519:1520  0 */\n      0x00\n        /* \"MyProjectSharedWallet.sol\":1489:1494  users */\n      0x01\n        /* \"MyProjectSharedWallet.sol\":1489:1506  users[msg.sender] */\n      0x00\n        /* \"MyProjectSharedWallet.sol\":1495:1505  msg.sender */\n      caller\n        /* \"MyProjectSharedWallet.sol\":1489:1506  users[msg.sender] */\n      0xffffffffffffffffffffffffffffffffffffffff\n      and\n      0xffffffffffffffffffffffffffffffffffffffff\n      and\n      dup2\n      mstore\n      0x20\n      add\n      swap1\n      dup2\n      mstore\n      0x20\n      add\n      0x00\n      keccak256\n        /* \"MyProjectSharedWallet.sol\":1489:1516  users[msg.sender].allowance */\n      0x00\n      add\n      sload\n        /* \"MyProjectSharedWallet.sol\":1489:1520  users[msg.sender].allowance > 0 */\n      gt\n        /* \"MyProjectSharedWallet.sol\":1481:1553  require(users[msg.sender].allowance > 0,\"You do not have any allowance\") */\n      tag_76\n      jumpi\n      mload(0x40)\n      0x08c379a000000000000000000000000000000000000000000000000000000000\n      dup2\n      mstore\n      0x04\n      add\n      tag_77\n      swap1\n      tag_78\n      jump\t// in\n    tag_77:\n      mload(0x40)\n      dup1\n      swap2\n      sub\n      swap1\n      revert\n    tag_76:\n        /* \"MyProjectSharedWallet.sol\":1563:1581  uint fullAllowance */\n      0x00\n        /* \"MyProjectSharedWallet.sol\":1652:1655  100 */\n      0x64\n        /* \"MyProjectSharedWallet.sol\":1639:1650  totalClaims */\n      sload(0x03)\n        /* \"MyProjectSharedWallet.sol\":1615:1636  address(this).balance */\n      selfbalance\n        /* \"MyProjectSharedWallet.sol\":1615:1650  address(this).balance + totalClaims */\n      tag_79\n      swap2\n      swap1\n      tag_80\n      jump\t// in\n    tag_79:\n        /* \"MyProjectSharedWallet.sol\":1584:1589  users */\n      0x01\n        /* \"MyProjectSharedWallet.sol\":1584:1601  users[msg.sender] */\n      0x00\n        /* \"MyProjectSharedWallet.sol\":1590:1600  msg.sender */\n      caller\n        /* \"MyProjectSharedWallet.sol\":1584:1601  users[msg.sender] */\n      0xffffffffffffffffffffffffffffffffffffffff\n      and\n      0xffffffffffffffffffffffffffffffffffffffff\n      and\n      dup2\n      mstore\n      0x20\n      add\n      swap1\n      dup2\n      mstore\n      0x20\n      add\n      0x00\n      keccak256\n        /* \"MyProjectSharedWallet.sol\":1584:1611  users[msg.sender].allowance */\n      0x00\n      add\n      sload\n        /* \"MyProjectSharedWallet.sol\":1584:1651  users[msg.sender].allowance * (address(this).balance + totalClaims) */\n      tag_81\n      swap2\n      swap1\n      tag_82\n      jump\t// in\n    tag_81:\n        /* \"MyProjectSharedWallet.sol\":1584:1655  users[msg.sender].allowance * (address(this).balance + totalClaims)/100 */\n      tag_83\n      swap2\n      swap1\n      tag_84\n      jump\t// in\n    tag_83:\n        /* \"MyProjectSharedWallet.sol\":1563:1655  uint fullAllowance = users[msg.sender].allowance * (address(this).balance + totalClaims)/100 */\n      swap1\n      pop\n        /* \"MyProjectSharedWallet.sol\":1665:1688  uint allowanceRemaining */\n      0x00\n        /* \"MyProjectSharedWallet.sol\":1744:1749  users */\n      0x01\n        /* \"MyProjectSharedWallet.sol\":1744:1761  users[msg.sender] */\n      0x00\n        /* \"MyProjectSharedWallet.sol\":1750:1760  msg.sender */\n      caller\n        /* \"MyProjectSharedWallet.sol\":1744:1761  users[msg.sender] */\n      0xffffffffffffffffffffffffffffffffffffffff\n      and\n      0xffffffffffffffffffffffffffffffffffffffff\n      and\n      dup2\n      mstore\n      0x20\n      add\n      swap1\n      dup2\n      mstore\n      0x20\n      add\n      0x00\n      keccak256\n        /* \"MyProjectSharedWallet.sol\":1744:1772  users[msg.sender].claimsMade */\n      0x01\n      add\n      sload\n        /* \"MyProjectSharedWallet.sol\":1728:1741  fullAllowance */\n      dup3\n        /* \"MyProjectSharedWallet.sol\":1728:1772  fullAllowance > users[msg.sender].claimsMade */\n      gt\n        /* \"MyProjectSharedWallet.sol\":1724:1864  if (fullAllowance > users[msg.sender].claimsMade) {... */\n      iszero\n      tag_85\n      jumpi\n        /* \"MyProjectSharedWallet.sol\":1825:1830  users */\n      0x01\n        /* \"MyProjectSharedWallet.sol\":1825:1842  users[msg.sender] */\n      0x00\n        /* \"MyProjectSharedWallet.sol\":1831:1841  msg.sender */\n      caller\n        /* \"MyProjectSharedWallet.sol\":1825:1842  users[msg.sender] */\n      0xffffffffffffffffffffffffffffffffffffffff\n      and\n      0xffffffffffffffffffffffffffffffffffffffff\n      and\n      dup2\n      mstore\n      0x20\n      add\n      swap1\n      dup2\n      mstore\n      0x20\n      add\n      0x00\n      keccak256\n        /* \"MyProjectSharedWallet.sol\":1825:1853  users[msg.sender].claimsMade */\n      0x01\n      add\n      sload\n        /* \"MyProjectSharedWallet.sol\":1809:1822  fullAllowance */\n      dup3\n        /* \"MyProjectSharedWallet.sol\":1809:1853  fullAllowance - users[msg.sender].claimsMade */\n      tag_86\n      swap2\n      swap1\n      tag_87\n      jump\t// in\n    tag_86:\n        /* \"MyProjectSharedWallet.sol\":1788:1853  allowanceRemaining = fullAllowance - users[msg.sender].claimsMade */\n      swap1\n      pop\n        /* \"MyProjectSharedWallet.sol\":1724:1864  if (fullAllowance > users[msg.sender].claimsMade) {... */\n    tag_85:\n        /* \"MyProjectSharedWallet.sol\":1892:1910  allowanceRemaining */\n      dup1\n        /* \"MyProjectSharedWallet.sol\":1881:1888  _amount */\n      dup4\n        /* \"MyProjectSharedWallet.sol\":1881:1910  _amount <= allowanceRemaining */\n      gt\n      iszero\n        /* \"MyProjectSharedWallet.sol\":1873:1937  require(_amount <= allowanceRemaining, \"The amount is too high\") */\n      tag_88\n      jumpi\n      mload(0x40)\n      0x08c379a000000000000000000000000000000000000000000000000000000000\n      dup2\n      mstore\n      0x04\n      add\n      tag_89\n      swap1\n      tag_90\n      jump\t// in\n    tag_89:\n      mload(0x40)\n      dup1\n      swap2\n      sub\n      swap1\n      revert\n    tag_88:\n        /* \"MyProjectSharedWallet.sol\":1979:1986  _amount */\n      dup3\n        /* \"MyProjectSharedWallet.sol\":1947:1952  users */\n      0x01\n        /* \"MyProjectSharedWallet.sol\":1947:1964  users[msg.sender] */\n      0x00\n        /* \"MyProjectSharedWallet.sol\":1953:1963  msg.sender */\n      caller\n        /* \"MyProjectSharedWallet.sol\":1947:1964  users[msg.sender] */\n      0xffffffffffffffffffffffffffffffffffffffff\n      and\n      0xffffffffffffffffffffffffffffffffffffffff\n      and\n      dup2\n      mstore\n      0x20\n      add\n      swap1\n      dup2\n      mstore\n      0x20\n      add\n      0x00\n      keccak256\n        /* \"MyProjectSharedWallet.sol\":1947:1975  users[msg.sender].claimsMade */\n      0x01\n      add\n      0x00\n        /* \"MyProjectSharedWallet.sol\":1947:1986  users[msg.sender].claimsMade += _amount */\n      dup3\n      dup3\n      sload\n      tag_91\n      swap2\n      swap1\n      tag_80\n      jump\t// in\n    tag_91:\n      swap3\n      pop\n      pop\n      dup2\n      swap1\n      sstore\n      pop\n        /* \"MyProjectSharedWallet.sol\":2011:2018  _amount */\n      dup3\n        /* \"MyProjectSharedWallet.sol\":1996:2007  totalClaims */\n      0x03\n      0x00\n        /* \"MyProjectSharedWallet.sol\":1996:2018  totalClaims += _amount */\n      dup3\n      dup3\n      sload\n      tag_92\n      swap2\n      swap1\n      tag_80\n      jump\t// in\n    tag_92:\n      swap3\n      pop\n      pop\n      dup2\n      swap1\n      sstore\n      pop\n        /* \"MyProjectSharedWallet.sol\":2070:2077  _amount */\n      dup3\n        /* \"MyProjectSharedWallet.sol\":2046:2067  address(this).balance */\n      selfbalance\n        /* \"MyProjectSharedWallet.sol\":2046:2077  address(this).balance - _amount */\n      tag_93\n      swap2\n      swap1\n      tag_87\n      jump\t// in\n    tag_93:\n        /* \"MyProjectSharedWallet.sol\":2028:2043  contractBalance */\n      0x04\n        /* \"MyProjectSharedWallet.sol\":2028:2077  contractBalance = address(this).balance - _amount */\n      dup2\n      swap1\n      sstore\n      pop\n        /* \"MyProjectSharedWallet.sol\":2087:2090  _to */\n      dup4\n        /* \"MyProjectSharedWallet.sol\":2087:2099  _to.transfer */\n      0xffffffffffffffffffffffffffffffffffffffff\n      and\n        /* \"MyProjectSharedWallet.sol\":2087:2108  _to.transfer(_amount) */\n      0x08fc\n        /* \"MyProjectSharedWallet.sol\":2100:2107  _amount */\n      dup5\n        /* \"MyProjectSharedWallet.sol\":2087:2108  _to.transfer(_amount) */\n      swap1\n      dup2\n      iszero\n      mul\n      swap1\n      mload(0x40)\n      0x00\n      mload(0x40)\n      dup1\n      dup4\n      sub\n      dup2\n      dup6\n      dup9\n      dup9\n      call\n      swap4\n      pop\n      pop\n      pop\n      pop\n      iszero\n      dup1\n      iszero\n      tag_95\n      jumpi\n      returndatasize\n      0x00\n      dup1\n      returndatacopy\n      revert(0x00, returndatasize)\n    tag_95:\n      pop\n        /* \"MyProjectSharedWallet.sol\":2139:2149  msg.sender */\n      caller\n        /* \"MyProjectSharedWallet.sol\":2123:2159  ClaimEvent(_to, msg.sender, _amount) */\n      0xffffffffffffffffffffffffffffffffffffffff\n      and\n        /* \"MyProjectSharedWallet.sol\":2134:2137  _to */\n      dup5\n        /* \"MyProjectSharedWallet.sol\":2123:2159  ClaimEvent(_to, msg.sender, _amount) */\n      0xffffffffffffffffffffffffffffffffffffffff\n      and\n      0xc6523614a4ee35b875baef260f78a91708fdf636c7fec1e9a186a7ae590c4e46\n        /* \"MyProjectSharedWallet.sol\":2151:2158  _amount */\n      dup6\n        /* \"MyProjectSharedWallet.sol\":2123:2159  ClaimEvent(_to, msg.sender, _amount) */\n      mload(0x40)\n      tag_96\n      swap2\n      swap1\n      tag_24\n      jump\t// in\n    tag_96:\n      mload(0x40)\n      dup1\n      swap2\n      sub\n      swap1\n      log3\n        /* \"MyProjectSharedWallet.sol\":1307:2166  {... */\n      pop\n      pop\n        /* \"MyProjectSharedWallet.sol\":1245:2166  function ClaimMoney(address payable _to, uint _amount) public {... */\n      pop\n      pop\n      jump\t// out\n        /* \"MyProjectSharedWallet.sol\":2216:2681  function SetAllowance(address _user, uint _allowancePercentage) public onlyOwner {... */\n    tag_34:\n        /* \"https://github.com/OpenZeppelin/openzeppelin-contracts/blob/master/contracts/access/Ownable.sol\":1094:1107  _checkOwner() */\n      tag_98\n        /* \"https://github.com/OpenZeppelin/openzeppelin-contracts/blob/master/contracts/access/Ownable.sol\":1094:1105  _checkOwner */\n      tag_99\n        /* \"https://github.com/OpenZeppelin/openzeppelin-contracts/blob/master/contracts/access/Ownable.sol\":1094:1107  _checkOwner() */\n      jump\t// in\n    tag_98:\n        /* \"MyProjectSharedWallet.sol\":2324:2331  owner() */\n      tag_101\n        /* \"MyProjectSharedWallet.sol\":2324:2329  owner */\n      tag_48\n        /* \"MyProjectSharedWallet.sol\":2324:2331  owner() */\n      jump\t// in\n    tag_101:\n        /* \"MyProjectSharedWallet.sol\":2315:2331  _user != owner() */\n      0xffffffffffffffffffffffffffffffffffffffff\n      and\n        /* \"MyProjectSharedWallet.sol\":2315:2320  _user */\n      dup3\n        /* \"MyProjectSharedWallet.sol\":2315:2331  _user != owner() */\n      0xffffffffffffffffffffffffffffffffffffffff\n      and\n      sub\n        /* \"MyProjectSharedWallet.sol\":2307:2378  require(_user != owner(), \"An allowance is not required for the owner\") */\n      tag_102\n      jumpi\n      mload(0x40)\n      0x08c379a000000000000000000000000000000000000000000000000000000000\n      dup2\n      mstore\n      0x04\n      add\n      tag_103\n      swap1\n      tag_104\n      jump\t// in\n    tag_103:\n      mload(0x40)\n      dup1\n      swap2\n      sub\n      swap1\n      revert\n    tag_102:\n        /* \"MyProjectSharedWallet.sol\":2422:2423  0 */\n      0x00\n        /* \"MyProjectSharedWallet.sol\":2396:2401  users */\n      0x01\n        /* \"MyProjectSharedWallet.sol\":2396:2408  users[_user] */\n      0x00\n        /* \"MyProjectSharedWallet.sol\":2402:2407  _user */\n      dup5\n        /* \"MyProjectSharedWallet.sol\":2396:2408  users[_user] */\n      0xffffffffffffffffffffffffffffffffffffffff\n      and\n      0xffffffffffffffffffffffffffffffffffffffff\n      and\n      dup2\n      mstore\n      0x20\n      add\n      swap1\n      dup2\n      mstore\n      0x20\n      add\n      0x00\n      keccak256\n        /* \"MyProjectSharedWallet.sol\":2396:2418  users[_user].allowance */\n      0x00\n      add\n      sload\n        /* \"MyProjectSharedWallet.sol\":2396:2423  users[_user].allowance == 0 */\n      eq\n        /* \"MyProjectSharedWallet.sol\":2388:2464  require(users[_user].allowance == 0, \"The address already has an allowance\") */\n      tag_105\n      jumpi\n      mload(0x40)\n      0x08c379a000000000000000000000000000000000000000000000000000000000\n      dup2\n      mstore\n      0x04\n      add\n      tag_106\n      swap1\n      tag_107\n      jump\t// in\n    tag_106:\n      mload(0x40)\n      dup1\n      swap2\n      sub\n      swap1\n      revert\n    tag_105:\n        /* \"MyProjectSharedWallet.sol\":2524:2527  100 */\n      0x64\n        /* \"MyProjectSharedWallet.sol\":2500:2520  _allowancePercentage */\n      dup2\n        /* \"MyProjectSharedWallet.sol\":2482:2497  totalAllowances */\n      sload(0x02)\n        /* \"MyProjectSharedWallet.sol\":2482:2520  totalAllowances + _allowancePercentage */\n      tag_108\n      swap2\n      swap1\n      tag_80\n      jump\t// in\n    tag_108:\n        /* \"MyProjectSharedWallet.sol\":2482:2527  totalAllowances + _allowancePercentage <= 100 */\n      gt\n      iszero\n        /* \"MyProjectSharedWallet.sol\":2474:2570  require(totalAllowances + _allowancePercentage <= 100,\"This would over-allocate the allowances\") */\n      tag_109\n      jumpi\n      mload(0x40)\n      0x08c379a000000000000000000000000000000000000000000000000000000000\n      dup2\n      mstore\n      0x04\n      add\n      tag_110\n      swap1\n      tag_111\n      jump\t// in\n    tag_110:\n      mload(0x40)\n      dup1\n      swap2\n      sub\n      swap1\n      revert\n    tag_109:\n        /* \"MyProjectSharedWallet.sol\":2605:2625  _allowancePercentage */\n      dup1\n        /* \"MyProjectSharedWallet.sol\":2580:2585  users */\n      0x01\n        /* \"MyProjectSharedWallet.sol\":2580:2592  users[_user] */\n      0x00\n        /* \"MyProjectSharedWallet.sol\":2586:2591  _user */\n      dup5\n        /* \"MyProjectSharedWallet.sol\":2580:2592  users[_user] */\n      0xffffffffffffffffffffffffffffffffffffffff\n      and\n      0xffffffffffffffffffffffffffffffffffffffff\n      and\n      dup2\n      mstore\n      0x20\n      add\n      swap1\n      dup2\n      mstore\n      0x20\n      add\n      0x00\n      keccak256\n        /* \"MyProjectSharedWallet.sol\":2580:2602  users[_user].allowance */\n      0x00\n      add\n        /* \"MyProjectSharedWallet.sol\":2580:2625  users[_user].allowance = _allowancePercentage */\n      dup2\n      swap1\n      sstore\n      pop\n        /* \"MyProjectSharedWallet.sol\":2654:2674  _allowancePercentage */\n      dup1\n        /* \"MyProjectSharedWallet.sol\":2635:2650  totalAllowances */\n      0x02\n      0x00\n        /* \"MyProjectSharedWallet.sol\":2635:2674  totalAllowances += _allowancePercentage */\n      dup3\n      dup3\n      sload\n      tag_112\n      swap2\n      swap1\n      tag_80\n      jump\t// in\n    tag_112:\n      swap3\n      pop\n      pop\n      dup2\n      swap1\n      sstore\n      pop\n        /* \"MyProjectSharedWallet.sol\":2216:2681  function SetAllowance(address _user, uint _allowancePercentage) public onlyOwner {... */\n      pop\n      pop\n      jump\t// out\n        /* \"MyProjectSharedWallet.sol\":584:607  uint public totalClaims */\n    tag_37:\n      sload(0x03)\n      dup2\n      jump\t// out\n        /* \"MyProjectSharedWallet.sol\":3100:3250  function renounceOwnership() public override onlyOwner {... */\n    tag_41:\n        /* \"https://github.com/OpenZeppelin/openzeppelin-contracts/blob/master/contracts/access/Ownable.sol\":1094:1107  _checkOwner() */\n      tag_114\n        /* \"https://github.com/OpenZeppelin/openzeppelin-contracts/blob/master/contracts/access/Ownable.sol\":1094:1105  _checkOwner */\n      tag_99\n        /* \"https://github.com/OpenZeppelin/openzeppelin-contracts/blob/master/contracts/access/Ownable.sol\":1094:1107  _checkOwner() */\n      jump\t// in\n    tag_114:\n        /* \"MyProjectSharedWallet.sol\":3165:3203  revert(\"can't renounceOwnership here\") */\n      mload(0x40)\n      0x08c379a000000000000000000000000000000000000000000000000000000000\n      dup2\n      mstore\n      0x04\n      add\n      tag_116\n      swap1\n      tag_117\n      jump\t// in\n    tag_116:\n      mload(0x40)\n      dup1\n      swap2\n      sub\n      swap1\n      revert\n        /* \"MyProjectSharedWallet.sol\":644:671  uint public contractBalance */\n    tag_44:\n      sload(0x04)\n      dup2\n      jump\t// out\n        /* \"https://github.com/OpenZeppelin/openzeppelin-contracts/blob/master/contracts/access/Ownable.sol\":1201:1286  function owner() public view virtual returns (address) {... */\n    tag_48:\n        /* \"https://github.com/OpenZeppelin/openzeppelin-contracts/blob/master/contracts/access/Ownable.sol\":1247:1254  address */\n      0x00\n        /* \"https://github.com/OpenZeppelin/openzeppelin-contracts/blob/master/contracts/access/Ownable.sol\":1273:1279  _owner */\n      dup1\n      0x00\n      swap1\n      sload\n      swap1\n      0x0100\n      exp\n      swap1\n      div\n      0xffffffffffffffffffffffffffffffffffffffff\n      and\n        /* \"https://github.com/OpenZeppelin/openzeppelin-contracts/blob/master/contracts/access/Ownable.sol\":1266:1279  return _owner */\n      swap1\n      pop\n        /* \"https://github.com/OpenZeppelin/openzeppelin-contracts/blob/master/contracts/access/Ownable.sol\":1201:1286  function owner() public view virtual returns (address) {... */\n      swap1\n      jump\t// out\n        /* \"MyProjectSharedWallet.sol\":421:465  mapping(address => UserDetails) public users */\n    tag_55:\n      mstore(0x20, 0x01)\n      dup1\n      0x00\n      mstore\n      keccak256(0x00, 0x40)\n      0x00\n      swap2\n      pop\n      swap1\n      pop\n      dup1\n      0x00\n      add\n      sload\n      swap1\n      dup1\n      0x01\n      add\n      sload\n      swap1\n      pop\n      dup3\n      jump\t// out\n        /* \"MyProjectSharedWallet.sol\":2732:2996  function ownerWithdraw(address payable _to, uint _amount) public onlyOwner {... */\n    tag_61:\n        /* \"https://github.com/OpenZeppelin/openzeppelin-contracts/blob/master/contracts/access/Ownable.sol\":1094:1107  _checkOwner() */\n      tag_120\n        /* \"https://github.com/OpenZeppelin/openzeppelin-contracts/blob/master/contracts/access/Ownable.sol\":1094:1105  _checkOwner */\n      tag_99\n        /* \"https://github.com/OpenZeppelin/openzeppelin-contracts/blob/master/contracts/access/Ownable.sol\":1094:1107  _checkOwner() */\n      jump\t// in\n    tag_120:\n        /* \"MyProjectSharedWallet.sol\":2836:2857  address(this).balance */\n      selfbalance\n        /* \"MyProjectSharedWallet.sol\":2825:2832  _amount */\n      dup2\n        /* \"MyProjectSharedWallet.sol\":2825:2857  _amount <= address(this).balance */\n      gt\n      iszero\n        /* \"MyProjectSharedWallet.sol\":2817:2899  require(_amount <= address(this).balance,\"Amount is larger than contract balance\") */\n      tag_122\n      jumpi\n      mload(0x40)\n      0x08c379a000000000000000000000000000000000000000000000000000000000\n      dup2\n      mstore\n      0x04\n      add\n      tag_123\n      swap1\n      tag_124\n      jump\t// in\n    tag_123:\n      mload(0x40)\n      dup1\n      swap2\n      sub\n      swap1\n      revert\n    tag_122:\n        /* \"MyProjectSharedWallet.sol\":2951:2958  _amount */\n      dup1\n        /* \"MyProjectSharedWallet.sol\":2927:2948  address(this).balance */\n      selfbalance\n        /* \"MyProjectSharedWallet.sol\":2927:2958  address(this).balance - _amount */\n      tag_125\n      swap2\n      swap1\n      tag_87\n      jump\t// in\n    tag_125:\n        /* \"MyProjectSharedWallet.sol\":2909:2924  contractBalance */\n      0x04\n        /* \"MyProjectSharedWallet.sol\":2909:2958  contractBalance = address(this).balance - _amount */\n      dup2\n      swap1\n      sstore\n      pop\n        /* \"MyProjectSharedWallet.sol\":2968:2971  _to */\n      dup2\n        /* \"MyProjectSharedWallet.sol\":2968:2980  _to.transfer */\n      0xffffffffffffffffffffffffffffffffffffffff\n      and\n        /* \"MyProjectSharedWallet.sol\":2968:2989  _to.transfer(_amount) */\n      0x08fc\n        /* \"MyProjectSharedWallet.sol\":2981:2988  _amount */\n      dup3\n        /* \"MyProjectSharedWallet.sol\":2968:2989  _to.transfer(_amount) */\n      swap1\n      dup2\n      iszero\n      mul\n      swap1\n      mload(0x40)\n      0x00\n      mload(0x40)\n      dup1\n      dup4\n      sub\n      dup2\n      dup6\n      dup9\n      dup9\n      call\n      swap4\n      pop\n      pop\n      pop\n      pop\n      iszero\n      dup1\n      iszero\n      tag_127\n      jumpi\n      returndatasize\n      0x00\n      dup1\n      returndatacopy\n      revert(0x00, returndatasize)\n    tag_127:\n      pop\n        /* \"MyProjectSharedWallet.sol\":2732:2996  function ownerWithdraw(address payable _to, uint _amount) public onlyOwner {... */\n      pop\n      pop\n      jump\t// out\n        /* \"https://github.com/OpenZeppelin/openzeppelin-contracts/blob/master/contracts/access/Ownable.sol\":2081:2279  function transferOwnership(address newOwner) public virtual onlyOwner {... */\n    tag_65:\n        /* \"https://github.com/OpenZeppelin/openzeppelin-contracts/blob/master/contracts/access/Ownable.sol\":1094:1107  _checkOwner() */\n      tag_129\n        /* \"https://github.com/OpenZeppelin/openzeppelin-contracts/blob/master/contracts/access/Ownable.sol\":1094:1105  _checkOwner */\n      tag_99\n        /* \"https://github.com/OpenZeppelin/openzeppelin-contracts/blob/master/contracts/access/Ownable.sol\":1094:1107  _checkOwner() */\n      jump\t// in\n    tag_129:\n        /* \"https://github.com/OpenZeppelin/openzeppelin-contracts/blob/master/contracts/access/Ownable.sol\":2189:2190  0 */\n      0x00\n        /* \"https://github.com/OpenZeppelin/openzeppelin-contracts/blob/master/contracts/access/Ownable.sol\":2169:2191  newOwner != address(0) */\n      0xffffffffffffffffffffffffffffffffffffffff\n      and\n        /* \"https://github.com/OpenZeppelin/openzeppelin-contracts/blob/master/contracts/access/Ownable.sol\":2169:2177  newOwner */\n      dup2\n        /* \"https://github.com/OpenZeppelin/openzeppelin-contracts/blob/master/contracts/access/Ownable.sol\":2169:2191  newOwner != address(0) */\n      0xffffffffffffffffffffffffffffffffffffffff\n      and\n      sub\n        /* \"https://github.com/OpenZeppelin/openzeppelin-contracts/blob/master/contracts/access/Ownable.sol\":2161:2234  require(newOwner != address(0), \"Ownable: new owner is the zero address\") */\n      tag_131\n      jumpi\n      mload(0x40)\n      0x08c379a000000000000000000000000000000000000000000000000000000000\n      dup2\n      mstore\n      0x04\n      add\n      tag_132\n      swap1\n      tag_133\n      jump\t// in\n    tag_132:\n      mload(0x40)\n      dup1\n      swap2\n      sub\n      swap1\n      revert\n    tag_131:\n        /* \"https://github.com/OpenZeppelin/openzeppelin-contracts/blob/master/contracts/access/Ownable.sol\":2244:2272  _transferOwnership(newOwner) */\n      tag_134\n        /* \"https://github.com/OpenZeppelin/openzeppelin-contracts/blob/master/contracts/access/Ownable.sol\":2263:2271  newOwner */\n      dup2\n        /* \"https://github.com/OpenZeppelin/openzeppelin-contracts/blob/master/contracts/access/Ownable.sol\":2244:2262  _transferOwnership */\n      tag_135\n        /* \"https://github.com/OpenZeppelin/openzeppelin-contracts/blob/master/contracts/access/Ownable.sol\":2244:2272  _transferOwnership(newOwner) */\n      jump\t// in\n    tag_134:\n        /* \"https://github.com/OpenZeppelin/openzeppelin-contracts/blob/master/contracts/access/Ownable.sol\":2081:2279  function transferOwnership(address newOwner) public virtual onlyOwner {... */\n      pop\n      jump\t// out\n        /* \"MyProjectSharedWallet.sol\":3002:3094  function isOwner() internal view returns(bool) {... */\n    tag_69:\n        /* \"MyProjectSharedWallet.sol\":3043:3047  bool */\n      0x00\n        /* \"MyProjectSharedWallet.sol\":3077:3087  msg.sender */\n      caller\n        /* \"MyProjectSharedWallet.sol\":3066:3087  owner() == msg.sender */\n      0xffffffffffffffffffffffffffffffffffffffff\n      and\n        /* \"MyProjectSharedWallet.sol\":3066:3073  owner() */\n      tag_137\n        /* \"MyProjectSharedWallet.sol\":3066:3071  owner */\n      tag_48\n        /* \"MyProjectSharedWallet.sol\":3066:3073  owner() */\n      jump\t// in\n    tag_137:\n        /* \"MyProjectSharedWallet.sol\":3066:3087  owner() == msg.sender */\n      0xffffffffffffffffffffffffffffffffffffffff\n      and\n      eq\n        /* \"MyProjectSharedWallet.sol\":3059:3087  return owner() == msg.sender */\n      swap1\n      pop\n        /* \"MyProjectSharedWallet.sol\":3002:3094  function isOwner() internal view returns(bool) {... */\n      swap1\n      jump\t// out\n        /* \"https://github.com/OpenZeppelin/openzeppelin-contracts/blob/master/contracts/access/Ownable.sol\":1359:1489  function _checkOwner() internal view virtual {... */\n    tag_99:\n        /* \"https://github.com/OpenZeppelin/openzeppelin-contracts/blob/master/contracts/access/Ownable.sol\":1433:1445  _msgSender() */\n      tag_139\n        /* \"https://github.com/OpenZeppelin/openzeppelin-contracts/blob/master/contracts/access/Ownable.sol\":1433:1443  _msgSender */\n      tag_140\n        /* \"https://github.com/OpenZeppelin/openzeppelin-contracts/blob/master/contracts/access/Ownable.sol\":1433:1445  _msgSender() */\n      jump\t// in\n    tag_139:\n        /* \"https://github.com/OpenZeppelin/openzeppelin-contracts/blob/master/contracts/access/Ownable.sol\":1422:1445  owner() == _msgSender() */\n      0xffffffffffffffffffffffffffffffffffffffff\n      and\n        /* \"https://github.com/OpenZeppelin/openzeppelin-contracts/blob/master/contracts/access/Ownable.sol\":1422:1429  owner() */\n      tag_141\n        /* \"https://github.com/OpenZeppelin/openzeppelin-contracts/blob/master/contracts/access/Ownable.sol\":1422:1427  owner */\n      tag_48\n        /* \"https://github.com/OpenZeppelin/openzeppelin-contracts/blob/master/contracts/access/Ownable.sol\":1422:1429  owner() */\n      jump\t// in\n    tag_141:\n        /* \"https://github.com/OpenZeppelin/openzeppelin-contracts/blob/master/contracts/access/Ownable.sol\":1422:1445  owner() == _msgSender() */\n      0xffffffffffffffffffffffffffffffffffffffff\n      and\n      eq\n        /* \"https://github.com/OpenZeppelin/openzeppelin-contracts/blob/master/contracts/access/Ownable.sol\":1414:1482  require(owner() == _msgSender(), \"Ownable: caller is not the owner\") */\n      tag_142\n      jumpi\n      mload(0x40)\n      0x08c379a000000000000000000000000000000000000000000000000000000000\n      dup2\n      mstore\n      0x04\n      add\n      tag_143\n      swap1\n      tag_144\n      jump\t// in\n    tag_143:\n      mload(0x40)\n      dup1\n      swap2\n      sub\n      swap1\n      revert\n    tag_142:\n        /* \"https://github.com/OpenZeppelin/openzeppelin-contracts/blob/master/contracts/access/Ownable.sol\":1359:1489  function _checkOwner() internal view virtual {... */\n      jump\t// out\n        /* \"https://github.com/OpenZeppelin/openzeppelin-contracts/blob/master/contracts/access/Ownable.sol\":2433:2620  function _transferOwnership(address newOwner) internal virtual {... */\n    tag_135:\n        /* \"https://github.com/OpenZeppelin/openzeppelin-contracts/blob/master/contracts/access/Ownable.sol\":2506:2522  address oldOwner */\n      0x00\n        /* \"https://github.com/OpenZeppelin/openzeppelin-contracts/blob/master/contracts/access/Ownable.sol\":2525:2531  _owner */\n      dup1\n      0x00\n      swap1\n      sload\n      swap1\n      0x0100\n      exp\n      swap1\n      div\n      0xffffffffffffffffffffffffffffffffffffffff\n      and\n        /* \"https://github.com/OpenZeppelin/openzeppelin-contracts/blob/master/contracts/access/Ownable.sol\":2506:2531  address oldOwner = _owner */\n      swap1\n      pop\n        /* \"https://github.com/OpenZeppelin/openzeppelin-contracts/blob/master/contracts/access/Ownable.sol\":2550:2558  newOwner */\n      dup2\n        /* \"https://github.com/OpenZeppelin/openzeppelin-contracts/blob/master/contracts/access/Ownable.sol\":2541:2547  _owner */\n      0x00\n      dup1\n        /* \"https://github.com/OpenZeppelin/openzeppelin-contracts/blob/master/contracts/access/Ownable.sol\":2541:2558  _owner = newOwner */\n      0x0100\n      exp\n      dup2\n      sload\n      dup2\n      0xffffffffffffffffffffffffffffffffffffffff\n      mul\n      not\n      and\n      swap1\n      dup4\n      0xffffffffffffffffffffffffffffffffffffffff\n      and\n      mul\n      or\n      swap1\n      sstore\n      pop\n        /* \"https://github.com/OpenZeppelin/openzeppelin-contracts/blob/master/contracts/access/Ownable.sol\":2604:2612  newOwner */\n      dup2\n        /* \"https://github.com/OpenZeppelin/openzeppelin-contracts/blob/master/contracts/access/Ownable.sol\":2573:2613  OwnershipTransferred(oldOwner, newOwner) */\n      0xffffffffffffffffffffffffffffffffffffffff\n      and\n        /* \"https://github.com/OpenZeppelin/openzeppelin-contracts/blob/master/contracts/access/Ownable.sol\":2594:2602  oldOwner */\n      dup2\n        /* \"https://github.com/OpenZeppelin/openzeppelin-contracts/blob/master/contracts/access/Ownable.sol\":2573:2613  OwnershipTransferred(oldOwner, newOwner) */\n      0xffffffffffffffffffffffffffffffffffffffff\n      and\n      0x8be0079c531659141344cd1fd0a4f28419497f9722a3daafe3b4186f6b6457e0\n      mload(0x40)\n      mload(0x40)\n      dup1\n      swap2\n      sub\n      swap1\n      log3\n        /* \"https://github.com/OpenZeppelin/openzeppelin-contracts/blob/master/contracts/access/Ownable.sol\":2496:2620  {... */\n      pop\n        /* \"https://github.com/OpenZeppelin/openzeppelin-contracts/blob/master/contracts/access/Ownable.sol\":2433:2620  function _transferOwnership(address newOwner) internal virtual {... */\n      pop\n      jump\t// out\n        /* \"https://github.com/OpenZeppelin/openzeppelin-contracts/blob/master/contracts/utils/Context.sol\":640:736  function _msgSender() internal view virtual returns (address) {... */\n    tag_140:\n        /* \"https://github.com/OpenZeppelin/openzeppelin-contracts/blob/master/contracts/utils/Context.sol\":693:700  address */\n      0x00\n        /* \"https://github.com/OpenZeppelin/openzeppelin-contracts/blob/master/contracts/utils/Context.sol\":719:729  msg.sender */\n      caller\n        /* \"https://github.com/OpenZeppelin/openzeppelin-contracts/blob/master/contracts/utils/Context.sol\":712:729  return msg.sender */\n      swap1\n      pop\n        /* \"https://github.com/OpenZeppelin/openzeppelin-contracts/blob/master/contracts/utils/Context.sol\":640:736  function _msgSender() internal view virtual returns (address) {... */\n      swap1\n      jump\t// out\n        /* \"#utility.yul\":7:84   */\n    tag_147:\n        /* \"#utility.yul\":44:51   */\n      0x00\n        /* \"#utility.yul\":73:78   */\n      dup2\n        /* \"#utility.yul\":62:78   */\n      swap1\n      pop\n        /* \"#utility.yul\":7:84   */\n      swap2\n      swap1\n      pop\n      jump\t// out\n        /* \"#utility.yul\":90:208   */\n    tag_148:\n        /* \"#utility.yul\":177:201   */\n      tag_190\n        /* \"#utility.yul\":195:200   */\n      dup2\n        /* \"#utility.yul\":177:201   */\n      tag_147\n      jump\t// in\n    tag_190:\n        /* \"#utility.yul\":172:175   */\n      dup3\n        /* \"#utility.yul\":165:202   */\n      mstore\n        /* \"#utility.yul\":90:208   */\n      pop\n      pop\n      jump\t// out\n        /* \"#utility.yul\":214:436   */\n    tag_24:\n        /* \"#utility.yul\":307:311   */\n      0x00\n        /* \"#utility.yul\":345:347   */\n      0x20\n        /* \"#utility.yul\":334:343   */\n      dup3\n        /* \"#utility.yul\":330:348   */\n      add\n        /* \"#utility.yul\":322:348   */\n      swap1\n      pop\n        /* \"#utility.yul\":358:429   */\n      tag_192\n        /* \"#utility.yul\":426:427   */\n      0x00\n        /* \"#utility.yul\":415:424   */\n      dup4\n        /* \"#utility.yul\":411:428   */\n      add\n        /* \"#utility.yul\":402:408   */\n      dup5\n        /* \"#utility.yul\":358:429   */\n      tag_148\n      jump\t// in\n    tag_192:\n        /* \"#utility.yul\":214:436   */\n      swap3\n      swap2\n      pop\n      pop\n      jump\t// out\n        /* \"#utility.yul\":523:640   */\n    tag_150:\n        /* \"#utility.yul\":632:633   */\n      0x00\n        /* \"#utility.yul\":629:630   */\n      dup1\n        /* \"#utility.yul\":622:634   */\n      revert\n        /* \"#utility.yul\":769:895   */\n    tag_152:\n        /* \"#utility.yul\":806:813   */\n      0x00\n        /* \"#utility.yul\":846:888   */\n      0xffffffffffffffffffffffffffffffffffffffff\n        /* \"#utility.yul\":839:844   */\n      dup3\n        /* \"#utility.yul\":835:889   */\n      and\n        /* \"#utility.yul\":824:889   */\n      swap1\n      pop\n        /* \"#utility.yul\":769:895   */\n      swap2\n      swap1\n      pop\n      jump\t// out\n        /* \"#utility.yul\":901:1005   */\n    tag_153:\n        /* \"#utility.yul\":946:953   */\n      0x00\n        /* \"#utility.yul\":975:999   */\n      tag_198\n        /* \"#utility.yul\":993:998   */\n      dup3\n        /* \"#utility.yul\":975:999   */\n      tag_152\n      jump\t// in\n    tag_198:\n        /* \"#utility.yul\":964:999   */\n      swap1\n      pop\n        /* \"#utility.yul\":901:1005   */\n      swap2\n      swap1\n      pop\n      jump\t// out\n        /* \"#utility.yul\":1011:1149   */\n    tag_154:\n        /* \"#utility.yul\":1092:1124   */\n      tag_200\n        /* \"#utility.yul\":1118:1123   */\n      dup2\n        /* \"#utility.yul\":1092:1124   */\n      tag_153\n      jump\t// in\n    tag_200:\n        /* \"#utility.yul\":1085:1090   */\n      dup2\n        /* \"#utility.yul\":1082:1125   */\n      eq\n        /* \"#utility.yul\":1072:1143   */\n      tag_201\n      jumpi\n        /* \"#utility.yul\":1139:1140   */\n      0x00\n        /* \"#utility.yul\":1136:1137   */\n      dup1\n        /* \"#utility.yul\":1129:1141   */\n      revert\n        /* \"#utility.yul\":1072:1143   */\n    tag_201:\n        /* \"#utility.yul\":1011:1149   */\n      pop\n      jump\t// out\n        /* \"#utility.yul\":1155:1310   */\n    tag_155:\n        /* \"#utility.yul\":1209:1214   */\n      0x00\n        /* \"#utility.yul\":1247:1253   */\n      dup2\n        /* \"#utility.yul\":1234:1254   */\n      calldataload\n        /* \"#utility.yul\":1225:1254   */\n      swap1\n      pop\n        /* \"#utility.yul\":1263:1304   */\n      tag_203\n        /* \"#utility.yul\":1298:1303   */\n      dup2\n        /* \"#utility.yul\":1263:1304   */\n      tag_154\n      jump\t// in\n    tag_203:\n        /* \"#utility.yul\":1155:1310   */\n      swap3\n      swap2\n      pop\n      pop\n      jump\t// out\n        /* \"#utility.yul\":1316:1438   */\n    tag_156:\n        /* \"#utility.yul\":1389:1413   */\n      tag_205\n        /* \"#utility.yul\":1407:1412   */\n      dup2\n        /* \"#utility.yul\":1389:1413   */\n      tag_147\n      jump\t// in\n    tag_205:\n        /* \"#utility.yul\":1382:1387   */\n      dup2\n        /* \"#utility.yul\":1379:1414   */\n      eq\n        /* \"#utility.yul\":1369:1432   */\n      tag_206\n      jumpi\n        /* \"#utility.yul\":1428:1429   */\n      0x00\n        /* \"#utility.yul\":1425:1426   */\n      dup1\n        /* \"#utility.yul\":1418:1430   */\n      revert\n        /* \"#utility.yul\":1369:1432   */\n    tag_206:\n        /* \"#utility.yul\":1316:1438   */\n      pop\n      jump\t// out\n        /* \"#utility.yul\":1444:1583   */\n    tag_157:\n        /* \"#utility.yul\":1490:1495   */\n      0x00\n        /* \"#utility.yul\":1528:1534   */\n      dup2\n        /* \"#utility.yul\":1515:1535   */\n      calldataload\n        /* \"#utility.yul\":1506:1535   */\n      swap1\n      pop\n        /* \"#utility.yul\":1544:1577   */\n      tag_208\n        /* \"#utility.yul\":1571:1576   */\n      dup2\n        /* \"#utility.yul\":1544:1577   */\n      tag_156\n      jump\t// in\n    tag_208:\n        /* \"#utility.yul\":1444:1583   */\n      swap3\n      swap2\n      pop\n      pop\n      jump\t// out\n        /* \"#utility.yul\":1589:2079   */\n    tag_28:\n        /* \"#utility.yul\":1665:1671   */\n      0x00\n        /* \"#utility.yul\":1673:1679   */\n      dup1\n        /* \"#utility.yul\":1722:1724   */\n      0x40\n        /* \"#utility.yul\":1710:1719   */\n      dup4\n        /* \"#utility.yul\":1701:1708   */\n      dup6\n        /* \"#utility.yul\":1697:1720   */\n      sub\n        /* \"#utility.yul\":1693:1725   */\n      slt\n        /* \"#utility.yul\":1690:1809   */\n      iszero\n      tag_210\n      jumpi\n        /* \"#utility.yul\":1728:1807   */\n      tag_211\n      tag_150\n      jump\t// in\n    tag_211:\n        /* \"#utility.yul\":1690:1809   */\n    tag_210:\n        /* \"#utility.yul\":1848:1849   */\n      0x00\n        /* \"#utility.yul\":1873:1934   */\n      tag_212\n        /* \"#utility.yul\":1926:1933   */\n      dup6\n        /* \"#utility.yul\":1917:1923   */\n      dup3\n        /* \"#utility.yul\":1906:1915   */\n      dup7\n        /* \"#utility.yul\":1902:1924   */\n      add\n        /* \"#utility.yul\":1873:1934   */\n      tag_155\n      jump\t// in\n    tag_212:\n        /* \"#utility.yul\":1863:1934   */\n      swap3\n      pop\n        /* \"#utility.yul\":1819:1944   */\n      pop\n        /* \"#utility.yul\":1983:1985   */\n      0x20\n        /* \"#utility.yul\":2009:2062   */\n      tag_213\n        /* \"#utility.yul\":2054:2061   */\n      dup6\n        /* \"#utility.yul\":2045:2051   */\n      dup3\n        /* \"#utility.yul\":2034:2043   */\n      dup7\n        /* \"#utility.yul\":2030:2052   */\n      add\n        /* \"#utility.yul\":2009:2062   */\n      tag_157\n      jump\t// in\n    tag_213:\n        /* \"#utility.yul\":1999:2062   */\n      swap2\n      pop\n        /* \"#utility.yul\":1954:2072   */\n      pop\n        /* \"#utility.yul\":1589:2079   */\n      swap3\n      pop\n      swap3\n      swap1\n      pop\n      jump\t// out\n        /* \"#utility.yul\":2085:2181   */\n    tag_158:\n        /* \"#utility.yul\":2122:2129   */\n      0x00\n        /* \"#utility.yul\":2151:2175   */\n      tag_215\n        /* \"#utility.yul\":2169:2174   */\n      dup3\n        /* \"#utility.yul\":2151:2175   */\n      tag_152\n      jump\t// in\n    tag_215:\n        /* \"#utility.yul\":2140:2175   */\n      swap1\n      pop\n        /* \"#utility.yul\":2085:2181   */\n      swap2\n      swap1\n      pop\n      jump\t// out\n        /* \"#utility.yul\":2187:2309   */\n    tag_159:\n        /* \"#utility.yul\":2260:2284   */\n      tag_217\n        /* \"#utility.yul\":2278:2283   */\n      dup2\n        /* \"#utility.yul\":2260:2284   */\n      tag_158\n      jump\t// in\n    tag_217:\n        /* \"#utility.yul\":2253:2258   */\n      dup2\n        /* \"#utility.yul\":2250:2285   */\n      eq\n        /* \"#utility.yul\":2240:2303   */\n      tag_218\n      jumpi\n        /* \"#utility.yul\":2299:2300   */\n      0x00\n        /* \"#utility.yul\":2296:2297   */\n      dup1\n        /* \"#utility.yul\":2289:2301   */\n      revert\n        /* \"#utility.yul\":2240:2303   */\n    tag_218:\n        /* \"#utility.yul\":2187:2309   */\n      pop\n      jump\t// out\n        /* \"#utility.yul\":2315:2454   */\n    tag_160:\n        /* \"#utility.yul\":2361:2366   */\n      0x00\n        /* \"#utility.yul\":2399:2405   */\n      dup2\n        /* \"#utility.yul\":2386:2406   */\n      calldataload\n        /* \"#utility.yul\":2377:2406   */\n      swap1\n      pop\n        /* \"#utility.yul\":2415:2448   */\n      tag_220\n        /* \"#utility.yul\":2442:2447   */\n      dup2\n        /* \"#utility.yul\":2415:2448   */\n      tag_159\n      jump\t// in\n    tag_220:\n        /* \"#utility.yul\":2315:2454   */\n      swap3\n      swap2\n      pop\n      pop\n      jump\t// out\n        /* \"#utility.yul\":2460:2934   */\n    tag_33:\n        /* \"#utility.yul\":2528:2534   */\n      0x00\n        /* \"#utility.yul\":2536:2542   */\n      dup1\n        /* \"#utility.yul\":2585:2587   */\n      0x40\n        /* \"#utility.yul\":2573:2582   */\n      dup4\n        /* \"#utility.yul\":2564:2571   */\n      dup6\n        /* \"#utility.yul\":2560:2583   */\n      sub\n        /* \"#utility.yul\":2556:2588   */\n      slt\n        /* \"#utility.yul\":2553:2672   */\n      iszero\n      tag_222\n      jumpi\n        /* \"#utility.yul\":2591:2670   */\n      tag_223\n      tag_150\n      jump\t// in\n    tag_223:\n        /* \"#utility.yul\":2553:2672   */\n    tag_222:\n        /* \"#utility.yul\":2711:2712   */\n      0x00\n        /* \"#utility.yul\":2736:2789   */\n      tag_224\n        /* \"#utility.yul\":2781:2788   */\n      dup6\n        /* \"#utility.yul\":2772:2778   */\n      dup3\n        /* \"#utility.yul\":2761:2770   */\n      dup7\n        /* \"#utility.yul\":2757:2779   */\n      add\n        /* \"#utility.yul\":2736:2789   */\n      tag_160\n      jump\t// in\n    tag_224:\n        /* \"#utility.yul\":2726:2789   */\n      swap3\n      pop\n        /* \"#utility.yul\":2682:2799   */\n      pop\n        /* \"#utility.yul\":2838:2840   */\n      0x20\n        /* \"#utility.yul\":2864:2917   */\n      tag_225\n        /* \"#utility.yul\":2909:2916   */\n      dup6\n        /* \"#utility.yul\":2900:2906   */\n      dup3\n        /* \"#utility.yul\":2889:2898   */\n      dup7\n        /* \"#utility.yul\":2885:2907   */\n      add\n        /* \"#utility.yul\":2864:2917   */\n      tag_157\n      jump\t// in\n    tag_225:\n        /* \"#utility.yul\":2854:2917   */\n      swap2\n      pop\n        /* \"#utility.yul\":2809:2927   */\n      pop\n        /* \"#utility.yul\":2460:2934   */\n      swap3\n      pop\n      swap3\n      swap1\n      pop\n      jump\t// out\n        /* \"#utility.yul\":2940:3058   */\n    tag_161:\n        /* \"#utility.yul\":3027:3051   */\n      tag_227\n        /* \"#utility.yul\":3045:3050   */\n      dup2\n        /* \"#utility.yul\":3027:3051   */\n      tag_158\n      jump\t// in\n    tag_227:\n        /* \"#utility.yul\":3022:3025   */\n      dup3\n        /* \"#utility.yul\":3015:3052   */\n      mstore\n        /* \"#utility.yul\":2940:3058   */\n      pop\n      pop\n      jump\t// out\n        /* \"#utility.yul\":3064:3286   */\n    tag_50:\n        /* \"#utility.yul\":3157:3161   */\n      0x00\n        /* \"#utility.yul\":3195:3197   */\n      0x20\n        /* \"#utility.yul\":3184:3193   */\n      dup3\n        /* \"#utility.yul\":3180:3198   */\n      add\n        /* \"#utility.yul\":3172:3198   */\n      swap1\n      pop\n        /* \"#utility.yul\":3208:3279   */\n      tag_229\n        /* \"#utility.yul\":3276:3277   */\n      0x00\n        /* \"#utility.yul\":3265:3274   */\n      dup4\n        /* \"#utility.yul\":3261:3278   */\n      add\n        /* \"#utility.yul\":3252:3258   */\n      dup5\n        /* \"#utility.yul\":3208:3279   */\n      tag_161\n      jump\t// in\n    tag_229:\n        /* \"#utility.yul\":3064:3286   */\n      swap3\n      swap2\n      pop\n      pop\n      jump\t// out\n        /* \"#utility.yul\":3292:3621   */\n    tag_54:\n        /* \"#utility.yul\":3351:3357   */\n      0x00\n        /* \"#utility.yul\":3400:3402   */\n      0x20\n        /* \"#utility.yul\":3388:3397   */\n      dup3\n        /* \"#utility.yul\":3379:3386   */\n      dup5\n        /* \"#utility.yul\":3375:3398   */\n      sub\n        /* \"#utility.yul\":3371:3403   */\n      slt\n        /* \"#utility.yul\":3368:3487   */\n      iszero\n      tag_231\n      jumpi\n        /* \"#utility.yul\":3406:3485   */\n      tag_232\n      tag_150\n      jump\t// in\n    tag_232:\n        /* \"#utility.yul\":3368:3487   */\n    tag_231:\n        /* \"#utility.yul\":3526:3527   */\n      0x00\n        /* \"#utility.yul\":3551:3604   */\n      tag_233\n        /* \"#utility.yul\":3596:3603   */\n      dup5\n        /* \"#utility.yul\":3587:3593   */\n      dup3\n        /* \"#utility.yul\":3576:3585   */\n      dup6\n        /* \"#utility.yul\":3572:3594   */\n      add\n        /* \"#utility.yul\":3551:3604   */\n      tag_160\n      jump\t// in\n    tag_233:\n        /* \"#utility.yul\":3541:3604   */\n      swap2\n      pop\n        /* \"#utility.yul\":3497:3614   */\n      pop\n        /* \"#utility.yul\":3292:3621   */\n      swap3\n      swap2\n      pop\n      pop\n      jump\t// out\n        /* \"#utility.yul\":3627:3959   */\n    tag_57:\n        /* \"#utility.yul\":3748:3752   */\n      0x00\n        /* \"#utility.yul\":3786:3788   */\n      0x40\n        /* \"#utility.yul\":3775:3784   */\n      dup3\n        /* \"#utility.yul\":3771:3789   */\n      add\n        /* \"#utility.yul\":3763:3789   */\n      swap1\n      pop\n        /* \"#utility.yul\":3799:3870   */\n      tag_235\n        /* \"#utility.yul\":3867:3868   */\n      0x00\n        /* \"#utility.yul\":3856:3865   */\n      dup4\n        /* \"#utility.yul\":3852:3869   */\n      add\n        /* \"#utility.yul\":3843:3849   */\n      dup6\n        /* \"#utility.yul\":3799:3870   */\n      tag_148\n      jump\t// in\n    tag_235:\n        /* \"#utility.yul\":3880:3952   */\n      tag_236\n        /* \"#utility.yul\":3948:3950   */\n      0x20\n        /* \"#utility.yul\":3937:3946   */\n      dup4\n        /* \"#utility.yul\":3933:3951   */\n      add\n        /* \"#utility.yul\":3924:3930   */\n      dup5\n        /* \"#utility.yul\":3880:3952   */\n      tag_148\n      jump\t// in\n    tag_236:\n        /* \"#utility.yul\":3627:3959   */\n      swap4\n      swap3\n      pop\n      pop\n      pop\n      jump\t// out\n        /* \"#utility.yul\":3965:4134   */\n    tag_162:\n        /* \"#utility.yul\":4049:4060   */\n      0x00\n        /* \"#utility.yul\":4083:4089   */\n      dup3\n        /* \"#utility.yul\":4078:4081   */\n      dup3\n        /* \"#utility.yul\":4071:4090   */\n      mstore\n        /* \"#utility.yul\":4123:4127   */\n      0x20\n        /* \"#utility.yul\":4118:4121   */\n      dup3\n        /* \"#utility.yul\":4114:4128   */\n      add\n        /* \"#utility.yul\":4099:4128   */\n      swap1\n      pop\n        /* \"#utility.yul\":3965:4134   */\n      swap3\n      swap2\n      pop\n      pop\n      jump\t// out\n        /* \"#utility.yul\":4140:4370   */\n    tag_163:\n        /* \"#utility.yul\":4280:4314   */\n      0x546865206f776e65722073686f756c6420757365206f776e6572576974686472\n        /* \"#utility.yul\":4276:4277   */\n      0x00\n        /* \"#utility.yul\":4268:4274   */\n      dup3\n        /* \"#utility.yul\":4264:4278   */\n      add\n        /* \"#utility.yul\":4257:4315   */\n      mstore\n        /* \"#utility.yul\":4349:4362   */\n      0x61772066756e6374696f6e000000000000000000000000000000000000000000\n        /* \"#utility.yul\":4344:4346   */\n      0x20\n        /* \"#utility.yul\":4336:4342   */\n      dup3\n        /* \"#utility.yul\":4332:4347   */\n      add\n        /* \"#utility.yul\":4325:4363   */\n      mstore\n        /* \"#utility.yul\":4140:4370   */\n      pop\n      jump\t// out\n        /* \"#utility.yul\":4376:4742   */\n    tag_164:\n        /* \"#utility.yul\":4518:4521   */\n      0x00\n        /* \"#utility.yul\":4539:4606   */\n      tag_240\n        /* \"#utility.yul\":4603:4605   */\n      0x2b\n        /* \"#utility.yul\":4598:4601   */\n      dup4\n        /* \"#utility.yul\":4539:4606   */\n      tag_162\n      jump\t// in\n    tag_240:\n        /* \"#utility.yul\":4532:4606   */\n      swap2\n      pop\n        /* \"#utility.yul\":4615:4708   */\n      tag_241\n        /* \"#utility.yul\":4704:4707   */\n      dup3\n        /* \"#utility.yul\":4615:4708   */\n      tag_163\n      jump\t// in\n    tag_241:\n        /* \"#utility.yul\":4733:4735   */\n      0x40\n        /* \"#utility.yul\":4728:4731   */\n      dup3\n        /* \"#utility.yul\":4724:4736   */\n      add\n        /* \"#utility.yul\":4717:4736   */\n      swap1\n      pop\n        /* \"#utility.yul\":4376:4742   */\n      swap2\n      swap1\n      pop\n      jump\t// out\n        /* \"#utility.yul\":4748:5167   */\n    tag_72:\n        /* \"#utility.yul\":4914:4918   */\n      0x00\n        /* \"#utility.yul\":4952:4954   */\n      0x20\n        /* \"#utility.yul\":4941:4950   */\n      dup3\n        /* \"#utility.yul\":4937:4955   */\n      add\n        /* \"#utility.yul\":4929:4955   */\n      swap1\n      pop\n        /* \"#utility.yul\":5001:5010   */\n      dup2\n        /* \"#utility.yul\":4995:4999   */\n      dup2\n        /* \"#utility.yul\":4991:5011   */\n      sub\n        /* \"#utility.yul\":4987:4988   */\n      0x00\n        /* \"#utility.yul\":4976:4985   */\n      dup4\n        /* \"#utility.yul\":4972:4989   */\n      add\n        /* \"#utility.yul\":4965:5012   */\n      mstore\n        /* \"#utility.yul\":5029:5160   */\n      tag_243\n        /* \"#utility.yul\":5155:5159   */\n      dup2\n        /* \"#utility.yul\":5029:5160   */\n      tag_164\n      jump\t// in\n    tag_243:\n        /* \"#utility.yul\":5021:5160   */\n      swap1\n      pop\n        /* \"#utility.yul\":4748:5167   */\n      swap2\n      swap1\n      pop\n      jump\t// out\n        /* \"#utility.yul\":5173:5400   */\n    tag_165:\n        /* \"#utility.yul\":5313:5347   */\n      0x5468657265206973206e6f206d6f6e657920696e207468652077616c6c657420\n        /* \"#utility.yul\":5309:5310   */\n      0x00\n        /* \"#utility.yul\":5301:5307   */\n      dup3\n        /* \"#utility.yul\":5297:5311   */\n      add\n        /* \"#utility.yul\":5290:5348   */\n      mstore\n        /* \"#utility.yul\":5382:5392   */\n      0x746f20636c61696d000000000000000000000000000000000000000000000000\n        /* \"#utility.yul\":5377:5379   */\n      0x20\n        /* \"#utility.yul\":5369:5375   */\n      dup3\n        /* \"#utility.yul\":5365:5380   */\n      add\n        /* \"#utility.yul\":5358:5393   */\n      mstore\n        /* \"#utility.yul\":5173:5400   */\n      pop\n      jump\t// out\n        /* \"#utility.yul\":5406:5772   */\n    tag_166:\n        /* \"#utility.yul\":5548:5551   */\n      0x00\n        /* \"#utility.yul\":5569:5636   */\n      tag_246\n        /* \"#utility.yul\":5633:5635   */\n      0x28\n        /* \"#utility.yul\":5628:5631   */\n      dup4\n        /* \"#utility.yul\":5569:5636   */\n      tag_162\n      jump\t// in\n    tag_246:\n        /* \"#utility.yul\":5562:5636   */\n      swap2\n      pop\n        /* \"#utility.yul\":5645:5738   */\n      tag_247\n        /* \"#utility.yul\":5734:5737   */\n      dup3\n        /* \"#utility.yul\":5645:5738   */\n      tag_165\n      jump\t// in\n    tag_247:\n        /* \"#utility.yul\":5763:5765   */\n      0x40\n        /* \"#utility.yul\":5758:5761   */\n      dup3\n        /* \"#utility.yul\":5754:5766   */\n      add\n        /* \"#utility.yul\":5747:5766   */\n      swap1\n      pop\n        /* \"#utility.yul\":5406:5772   */\n      swap2\n      swap1\n      pop\n      jump\t// out\n        /* \"#utility.yul\":5778:6197   */\n    tag_75:\n        /* \"#utility.yul\":5944:5948   */\n      0x00\n        /* \"#utility.yul\":5982:5984   */\n      0x20\n        /* \"#utility.yul\":5971:5980   */\n      dup3\n        /* \"#utility.yul\":5967:5985   */\n      add\n        /* \"#utility.yul\":5959:5985   */\n      swap1\n      pop\n        /* \"#utility.yul\":6031:6040   */\n      dup2\n        /* \"#utility.yul\":6025:6029   */\n      dup2\n        /* \"#utility.yul\":6021:6041   */\n      sub\n        /* \"#utility.yul\":6017:6018   */\n      0x00\n        /* \"#utility.yul\":6006:6015   */\n      dup4\n        /* \"#utility.yul\":6002:6019   */\n      add\n        /* \"#utility.yul\":5995:6042   */\n      mstore\n        /* \"#utility.yul\":6059:6190   */\n      tag_249\n        /* \"#utility.yul\":6185:6189   */\n      dup2\n        /* \"#utility.yul\":6059:6190   */\n      tag_166\n      jump\t// in\n    tag_249:\n        /* \"#utility.yul\":6051:6190   */\n      swap1\n      pop\n        /* \"#utility.yul\":5778:6197   */\n      swap2\n      swap1\n      pop\n      jump\t// out\n        /* \"#utility.yul\":6203:6382   */\n    tag_167:\n        /* \"#utility.yul\":6343:6374   */\n      0x596f7520646f206e6f74206861766520616e7920616c6c6f77616e6365000000\n        /* \"#utility.yul\":6339:6340   */\n      0x00\n        /* \"#utility.yul\":6331:6337   */\n      dup3\n        /* \"#utility.yul\":6327:6341   */\n      add\n        /* \"#utility.yul\":6320:6375   */\n      mstore\n        /* \"#utility.yul\":6203:6382   */\n      pop\n      jump\t// out\n        /* \"#utility.yul\":6388:6754   */\n    tag_168:\n        /* \"#utility.yul\":6530:6533   */\n      0x00\n        /* \"#utility.yul\":6551:6618   */\n      tag_252\n        /* \"#utility.yul\":6615:6617   */\n      0x1d\n        /* \"#utility.yul\":6610:6613   */\n      dup4\n        /* \"#utility.yul\":6551:6618   */\n      tag_162\n      jump\t// in\n    tag_252:\n        /* \"#utility.yul\":6544:6618   */\n      swap2\n      pop\n        /* \"#utility.yul\":6627:6720   */\n      tag_253\n        /* \"#utility.yul\":6716:6719   */\n      dup3\n        /* \"#utility.yul\":6627:6720   */\n      tag_167\n      jump\t// in\n    tag_253:\n        /* \"#utility.yul\":6745:6747   */\n      0x20\n        /* \"#utility.yul\":6740:6743   */\n      dup3\n        /* \"#utility.yul\":6736:6748   */\n      add\n        /* \"#utility.yul\":6729:6748   */\n      swap1\n      pop\n        /* \"#utility.yul\":6388:6754   */\n      swap2\n      swap1\n      pop\n      jump\t// out\n        /* \"#utility.yul\":6760:7179   */\n    tag_78:\n        /* \"#utility.yul\":6926:6930   */\n      0x00\n        /* \"#utility.yul\":6964:6966   */\n      0x20\n        /* \"#utility.yul\":6953:6962   */\n      dup3\n        /* \"#utility.yul\":6949:6967   */\n      add\n        /* \"#utility.yul\":6941:6967   */\n      swap1\n      pop\n        /* \"#utility.yul\":7013:7022   */\n      dup2\n        /* \"#utility.yul\":7007:7011   */\n      dup2\n        /* \"#utility.yul\":7003:7023   */\n      sub\n        /* \"#utility.yul\":6999:7000   */\n      0x00\n        /* \"#utility.yul\":6988:6997   */\n      dup4\n        /* \"#utility.yul\":6984:7001   */\n      add\n        /* \"#utility.yul\":6977:7024   */\n      mstore\n        /* \"#utility.yul\":7041:7172   */\n      tag_255\n        /* \"#utility.yul\":7167:7171   */\n      dup2\n        /* \"#utility.yul\":7041:7172   */\n      tag_168\n      jump\t// in\n    tag_255:\n        /* \"#utility.yul\":7033:7172   */\n      swap1\n      pop\n        /* \"#utility.yul\":6760:7179   */\n      swap2\n      swap1\n      pop\n      jump\t// out\n        /* \"#utility.yul\":7185:7365   */\n    tag_169:\n        /* \"#utility.yul\":7233:7310   */\n      0x4e487b7100000000000000000000000000000000000000000000000000000000\n        /* \"#utility.yul\":7230:7231   */\n      0x00\n        /* \"#utility.yul\":7223:7311   */\n      mstore\n        /* \"#utility.yul\":7330:7334   */\n      0x11\n        /* \"#utility.yul\":7327:7328   */\n      0x04\n        /* \"#utility.yul\":7320:7335   */\n      mstore\n        /* \"#utility.yul\":7354:7358   */\n      0x24\n        /* \"#utility.yul\":7351:7352   */\n      0x00\n        /* \"#utility.yul\":7344:7359   */\n      revert\n        /* \"#utility.yul\":7371:7562   */\n    tag_80:\n        /* \"#utility.yul\":7411:7414   */\n      0x00\n        /* \"#utility.yul\":7430:7450   */\n      tag_258\n        /* \"#utility.yul\":7448:7449   */\n      dup3\n        /* \"#utility.yul\":7430:7450   */\n      tag_147\n      jump\t// in\n    tag_258:\n        /* \"#utility.yul\":7425:7450   */\n      swap2\n      pop\n        /* \"#utility.yul\":7464:7484   */\n      tag_259\n        /* \"#utility.yul\":7482:7483   */\n      dup4\n        /* \"#utility.yul\":7464:7484   */\n      tag_147\n      jump\t// in\n    tag_259:\n        /* \"#utility.yul\":7459:7484   */\n      swap3\n      pop\n        /* \"#utility.yul\":7507:7508   */\n      dup3\n        /* \"#utility.yul\":7504:7505   */\n      dup3\n        /* \"#utility.yul\":7500:7509   */\n      add\n        /* \"#utility.yul\":7493:7509   */\n      swap1\n      pop\n        /* \"#utility.yul\":7528:7531   */\n      dup1\n        /* \"#utility.yul\":7525:7526   */\n      dup3\n        /* \"#utility.yul\":7522:7532   */\n      gt\n        /* \"#utility.yul\":7519:7555   */\n      iszero\n      tag_260\n      jumpi\n        /* \"#utility.yul\":7535:7553   */\n      tag_261\n      tag_169\n      jump\t// in\n    tag_261:\n        /* \"#utility.yul\":7519:7555   */\n    tag_260:\n        /* \"#utility.yul\":7371:7562   */\n      swap3\n      swap2\n      pop\n      pop\n      jump\t// out\n        /* \"#utility.yul\":7568:7916   */\n    tag_82:\n        /* \"#utility.yul\":7608:7615   */\n      0x00\n        /* \"#utility.yul\":7631:7651   */\n      tag_263\n        /* \"#utility.yul\":7649:7650   */\n      dup3\n        /* \"#utility.yul\":7631:7651   */\n      tag_147\n      jump\t// in\n    tag_263:\n        /* \"#utility.yul\":7626:7651   */\n      swap2\n      pop\n        /* \"#utility.yul\":7665:7685   */\n      tag_264\n        /* \"#utility.yul\":7683:7684   */\n      dup4\n        /* \"#utility.yul\":7665:7685   */\n      tag_147\n      jump\t// in\n    tag_264:\n        /* \"#utility.yul\":7660:7685   */\n      swap3\n      pop\n        /* \"#utility.yul\":7853:7854   */\n      dup2\n        /* \"#utility.yul\":7785:7851   */\n      0xffffffffffffffffffffffffffffffffffffffffffffffffffffffffffffffff\n        /* \"#utility.yul\":7781:7855   */\n      div\n        /* \"#utility.yul\":7778:7779   */\n      dup4\n        /* \"#utility.yul\":7775:7856   */\n      gt\n        /* \"#utility.yul\":7770:7771   */\n      dup3\n        /* \"#utility.yul\":7763:7772   */\n      iszero\n        /* \"#utility.yul\":7756:7773   */\n      iszero\n        /* \"#utility.yul\":7752:7857   */\n      and\n        /* \"#utility.yul\":7749:7880   */\n      iszero\n      tag_265\n      jumpi\n        /* \"#utility.yul\":7860:7878   */\n      tag_266\n      tag_169\n      jump\t// in\n    tag_266:\n        /* \"#utility.yul\":7749:7880   */\n    tag_265:\n        /* \"#utility.yul\":7908:7909   */\n      dup3\n        /* \"#utility.yul\":7905:7906   */\n      dup3\n        /* \"#utility.yul\":7901:7910   */\n      mul\n        /* \"#utility.yul\":7890:7910   */\n      swap1\n      pop\n        /* \"#utility.yul\":7568:7916   */\n      swap3\n      swap2\n      pop\n      pop\n      jump\t// out\n        /* \"#utility.yul\":7922:8102   */\n    tag_170:\n        /* \"#utility.yul\":7970:8047   */\n      0x4e487b7100000000000000000000000000000000000000000000000000000000\n        /* \"#utility.yul\":7967:7968   */\n      0x00\n        /* \"#utility.yul\":7960:8048   */\n      mstore\n        /* \"#utility.yul\":8067:8071   */\n      0x12\n        /* \"#utility.yul\":8064:8065   */\n      0x04\n        /* \"#utility.yul\":8057:8072   */\n      mstore\n        /* \"#utility.yul\":8091:8095   */\n      0x24\n        /* \"#utility.yul\":8088:8089   */\n      0x00\n        /* \"#utility.yul\":8081:8096   */\n      revert\n        /* \"#utility.yul\":8108:8293   */\n    tag_84:\n        /* \"#utility.yul\":8148:8149   */\n      0x00\n        /* \"#utility.yul\":8165:8185   */\n      tag_269\n        /* \"#utility.yul\":8183:8184   */\n      dup3\n        /* \"#utility.yul\":8165:8185   */\n      tag_147\n      jump\t// in\n    tag_269:\n        /* \"#utility.yul\":8160:8185   */\n      swap2\n      pop\n        /* \"#utility.yul\":8199:8219   */\n      tag_270\n        /* \"#utility.yul\":8217:8218   */\n      dup4\n        /* \"#utility.yul\":8199:8219   */\n      tag_147\n      jump\t// in\n    tag_270:\n        /* \"#utility.yul\":8194:8219   */\n      swap3\n      pop\n        /* \"#utility.yul\":8238:8239   */\n      dup3\n        /* \"#utility.yul\":8228:8263   */\n      tag_271\n      jumpi\n        /* \"#utility.yul\":8243:8261   */\n      tag_272\n      tag_170\n      jump\t// in\n    tag_272:\n        /* \"#utility.yul\":8228:8263   */\n    tag_271:\n        /* \"#utility.yul\":8285:8286   */\n      dup3\n        /* \"#utility.yul\":8282:8283   */\n      dup3\n        /* \"#utility.yul\":8278:8287   */\n      div\n        /* \"#utility.yul\":8273:8287   */\n      swap1\n      pop\n        /* \"#utility.yul\":8108:8293   */\n      swap3\n      swap2\n      pop\n      pop\n      jump\t// out\n        /* \"#utility.yul\":8299:8493   */\n    tag_87:\n        /* \"#utility.yul\":8339:8343   */\n      0x00\n        /* \"#utility.yul\":8359:8379   */\n      tag_274\n        /* \"#utility.yul\":8377:8378   */\n      dup3\n        /* \"#utility.yul\":8359:8379   */\n      tag_147\n      jump\t// in\n    tag_274:\n        /* \"#utility.yul\":8354:8379   */\n      swap2\n      pop\n        /* \"#utility.yul\":8393:8413   */\n      tag_275\n        /* \"#utility.yul\":8411:8412   */\n      dup4\n        /* \"#utility.yul\":8393:8413   */\n      tag_147\n      jump\t// in\n    tag_275:\n        /* \"#utility.yul\":8388:8413   */\n      swap3\n      pop\n        /* \"#utility.yul\":8437:8438   */\n      dup3\n        /* \"#utility.yul\":8434:8435   */\n      dup3\n        /* \"#utility.yul\":8430:8439   */\n      sub\n        /* \"#utility.yul\":8422:8439   */\n      swap1\n      pop\n        /* \"#utility.yul\":8461:8462   */\n      dup2\n        /* \"#utility.yul\":8455:8459   */\n      dup2\n        /* \"#utility.yul\":8452:8463   */\n      gt\n        /* \"#utility.yul\":8449:8486   */\n      iszero\n      tag_276\n      jumpi\n        /* \"#utility.yul\":8466:8484   */\n      tag_277\n      tag_169\n      jump\t// in\n    tag_277:\n        /* \"#utility.yul\":8449:8486   */\n    tag_276:\n        /* \"#utility.yul\":8299:8493   */\n      swap3\n      swap2\n      pop\n      pop\n      jump\t// out\n        /* \"#utility.yul\":8499:8671   */\n    tag_171:\n        /* \"#utility.yul\":8639:8663   */\n      0x54686520616d6f756e7420697320746f6f206869676800000000000000000000\n        /* \"#utility.yul\":8635:8636   */\n      0x00\n        /* \"#utility.yul\":8627:8633   */\n      dup3\n        /* \"#utility.yul\":8623:8637   */\n      add\n        /* \"#utility.yul\":8616:8664   */\n      mstore\n        /* \"#utility.yul\":8499:8671   */\n      pop\n      jump\t// out\n        /* \"#utility.yul\":8677:9043   */\n    tag_172:\n        /* \"#utility.yul\":8819:8822   */\n      0x00\n        /* \"#utility.yul\":8840:8907   */\n      tag_280\n        /* \"#utility.yul\":8904:8906   */\n      0x16\n        /* \"#utility.yul\":8899:8902   */\n      dup4\n        /* \"#utility.yul\":8840:8907   */\n      tag_162\n      jump\t// in\n    tag_280:\n        /* \"#utility.yul\":8833:8907   */\n      swap2\n      pop\n        /* \"#utility.yul\":8916:9009   */\n      tag_281\n        /* \"#utility.yul\":9005:9008   */\n      dup3\n        /* \"#utility.yul\":8916:9009   */\n      tag_171\n      jump\t// in\n    tag_281:\n        /* \"#utility.yul\":9034:9036   */\n      0x20\n        /* \"#utility.yul\":9029:9032   */\n      dup3\n        /* \"#utility.yul\":9025:9037   */\n      add\n        /* \"#utility.yul\":9018:9037   */\n      swap1\n      pop\n        /* \"#utility.yul\":8677:9043   */\n      swap2\n      swap1\n      pop\n      jump\t// out\n        /* \"#utility.yul\":9049:9468   */\n    tag_90:\n        /* \"#utility.yul\":9215:9219   */\n      0x00\n        /* \"#utility.yul\":9253:9255   */\n      0x20\n        /* \"#utility.yul\":9242:9251   */\n      dup3\n        /* \"#utility.yul\":9238:9256   */\n      add\n        /* \"#utility.yul\":9230:9256   */\n      swap1\n      pop\n        /* \"#utility.yul\":9302:9311   */\n      dup2\n        /* \"#utility.yul\":9296:9300   */\n      dup2\n        /* \"#utility.yul\":9292:9312   */\n      sub\n        /* \"#utility.yul\":9288:9289   */\n      0x00\n        /* \"#utility.yul\":9277:9286   */\n      dup4\n        /* \"#utility.yul\":9273:9290   */\n      add\n        /* \"#utility.yul\":9266:9313   */\n      mstore\n        /* \"#utility.yul\":9330:9461   */\n      tag_283\n        /* \"#utility.yul\":9456:9460   */\n      dup2\n        /* \"#utility.yul\":9330:9461   */\n      tag_172\n      jump\t// in\n    tag_283:\n        /* \"#utility.yul\":9322:9461   */\n      swap1\n      pop\n        /* \"#utility.yul\":9049:9468   */\n      swap2\n      swap1\n      pop\n      jump\t// out\n        /* \"#utility.yul\":9474:9703   */\n    tag_173:\n        /* \"#utility.yul\":9614:9648   */\n      0x416e20616c6c6f77616e6365206973206e6f7420726571756972656420666f72\n        /* \"#utility.yul\":9610:9611   */\n      0x00\n        /* \"#utility.yul\":9602:9608   */\n      dup3\n        /* \"#utility.yul\":9598:9612   */\n      add\n        /* \"#utility.yul\":9591:9649   */\n      mstore\n        /* \"#utility.yul\":9683:9695   */\n      0x20746865206f776e657200000000000000000000000000000000000000000000\n        /* \"#utility.yul\":9678:9680   */\n      0x20\n        /* \"#utility.yul\":9670:9676   */\n      dup3\n        /* \"#utility.yul\":9666:9681   */\n      add\n        /* \"#utility.yul\":9659:9696   */\n      mstore\n        /* \"#utility.yul\":9474:9703   */\n      pop\n      jump\t// out\n        /* \"#utility.yul\":9709:10075   */\n    tag_174:\n        /* \"#utility.yul\":9851:9854   */\n      0x00\n        /* \"#utility.yul\":9872:9939   */\n      tag_286\n        /* \"#utility.yul\":9936:9938   */\n      0x2a\n        /* \"#utility.yul\":9931:9934   */\n      dup4\n        /* \"#utility.yul\":9872:9939   */\n      tag_162\n      jump\t// in\n    tag_286:\n        /* \"#utility.yul\":9865:9939   */\n      swap2\n      pop\n        /* \"#utility.yul\":9948:10041   */\n      tag_287\n        /* \"#utility.yul\":10037:10040   */\n      dup3\n        /* \"#utility.yul\":9948:10041   */\n      tag_173\n      jump\t// in\n    tag_287:\n        /* \"#utility.yul\":10066:10068   */\n      0x40\n        /* \"#utility.yul\":10061:10064   */\n      dup3\n        /* \"#utility.yul\":10057:10069   */\n      add\n        /* \"#utility.yul\":10050:10069   */\n      swap1\n      pop\n        /* \"#utility.yul\":9709:10075   */\n      swap2\n      swap1\n      pop\n      jump\t// out\n        /* \"#utility.yul\":10081:10500   */\n    tag_104:\n        /* \"#utility.yul\":10247:10251   */\n      0x00\n        /* \"#utility.yul\":10285:10287   */\n      0x20\n        /* \"#utility.yul\":10274:10283   */\n      dup3\n        /* \"#utility.yul\":10270:10288   */\n      add\n        /* \"#utility.yul\":10262:10288   */\n      swap1\n      pop\n        /* \"#utility.yul\":10334:10343   */\n      dup2\n        /* \"#utility.yul\":10328:10332   */\n      dup2\n        /* \"#utility.yul\":10324:10344   */\n      sub\n        /* \"#utility.yul\":10320:10321   */\n      0x00\n        /* \"#utility.yul\":10309:10318   */\n      dup4\n        /* \"#utility.yul\":10305:10322   */\n      add\n        /* \"#utility.yul\":10298:10345   */\n      mstore\n        /* \"#utility.yul\":10362:10493   */\n      tag_289\n        /* \"#utility.yul\":10488:10492   */\n      dup2\n        /* \"#utility.yul\":10362:10493   */\n      tag_174\n      jump\t// in\n    tag_289:\n        /* \"#utility.yul\":10354:10493   */\n      swap1\n      pop\n        /* \"#utility.yul\":10081:10500   */\n      swap2\n      swap1\n      pop\n      jump\t// out\n        /* \"#utility.yul\":10506:10729   */\n    tag_175:\n        /* \"#utility.yul\":10646:10680   */\n      0x546865206164647265737320616c72656164792068617320616e20616c6c6f77\n        /* \"#utility.yul\":10642:10643   */\n      0x00\n        /* \"#utility.yul\":10634:10640   */\n      dup3\n        /* \"#utility.yul\":10630:10644   */\n      add\n        /* \"#utility.yul\":10623:10681   */\n      mstore\n        /* \"#utility.yul\":10715:10721   */\n      0x616e636500000000000000000000000000000000000000000000000000000000\n        /* \"#utility.yul\":10710:10712   */\n      0x20\n        /* \"#utility.yul\":10702:10708   */\n      dup3\n        /* \"#utility.yul\":10698:10713   */\n      add\n        /* \"#utility.yul\":10691:10722   */\n      mstore\n        /* \"#utility.yul\":10506:10729   */\n      pop\n      jump\t// out\n        /* \"#utility.yul\":10735:11101   */\n    tag_176:\n        /* \"#utility.yul\":10877:10880   */\n      0x00\n        /* \"#utility.yul\":10898:10965   */\n      tag_292\n        /* \"#utility.yul\":10962:10964   */\n      0x24\n        /* \"#utility.yul\":10957:10960   */\n      dup4\n        /* \"#utility.yul\":10898:10965   */\n      tag_162\n      jump\t// in\n    tag_292:\n        /* \"#utility.yul\":10891:10965   */\n      swap2\n      pop\n        /* \"#utility.yul\":10974:11067   */\n      tag_293\n        /* \"#utility.yul\":11063:11066   */\n      dup3\n        /* \"#utility.yul\":10974:11067   */\n      tag_175\n      jump\t// in\n    tag_293:\n        /* \"#utility.yul\":11092:11094   */\n      0x40\n        /* \"#utility.yul\":11087:11090   */\n      dup3\n        /* \"#utility.yul\":11083:11095   */\n      add\n        /* \"#utility.yul\":11076:11095   */\n      swap1\n      pop\n        /* \"#utility.yul\":10735:11101   */\n      swap2\n      swap1\n      pop\n      jump\t// out\n        /* \"#utility.yul\":11107:11526   */\n    tag_107:\n        /* \"#utility.yul\":11273:11277   */\n      0x00\n        /* \"#utility.yul\":11311:11313   */\n      0x20\n        /* \"#utility.yul\":11300:11309   */\n      dup3\n        /* \"#utility.yul\":11296:11314   */\n      add\n        /* \"#utility.yul\":11288:11314   */\n      swap1\n      pop\n        /* \"#utility.yul\":11360:11369   */\n      dup2\n        /* \"#utility.yul\":11354:11358   */\n      dup2\n        /* \"#utility.yul\":11350:11370   */\n      sub\n        /* \"#utility.yul\":11346:11347   */\n      0x00\n        /* \"#utility.yul\":11335:11344   */\n      dup4\n        /* \"#utility.yul\":11331:11348   */\n      add\n        /* \"#utility.yul\":11324:11371   */\n      mstore\n        /* \"#utility.yul\":11388:11519   */\n      tag_295\n        /* \"#utility.yul\":11514:11518   */\n      dup2\n        /* \"#utility.yul\":11388:11519   */\n      tag_176\n      jump\t// in\n    tag_295:\n        /* \"#utility.yul\":11380:11519   */\n      swap1\n      pop\n        /* \"#utility.yul\":11107:11526   */\n      swap2\n      swap1\n      pop\n      jump\t// out\n        /* \"#utility.yul\":11532:11758   */\n    tag_177:\n        /* \"#utility.yul\":11672:11706   */\n      0x5468697320776f756c64206f7665722d616c6c6f636174652074686520616c6c\n        /* \"#utility.yul\":11668:11669   */\n      0x00\n        /* \"#utility.yul\":11660:11666   */\n      dup3\n        /* \"#utility.yul\":11656:11670   */\n      add\n        /* \"#utility.yul\":11649:11707   */\n      mstore\n        /* \"#utility.yul\":11741:11750   */\n      0x6f77616e63657300000000000000000000000000000000000000000000000000\n        /* \"#utility.yul\":11736:11738   */\n      0x20\n        /* \"#utility.yul\":11728:11734   */\n      dup3\n        /* \"#utility.yul\":11724:11739   */\n      add\n        /* \"#utility.yul\":11717:11751   */\n      mstore\n        /* \"#utility.yul\":11532:11758   */\n      pop\n      jump\t// out\n        /* \"#utility.yul\":11764:12130   */\n    tag_178:\n        /* \"#utility.yul\":11906:11909   */\n      0x00\n        /* \"#utility.yul\":11927:11994   */\n      tag_298\n        /* \"#utility.yul\":11991:11993   */\n      0x27\n        /* \"#utility.yul\":11986:11989   */\n      dup4\n        /* \"#utility.yul\":11927:11994   */\n      tag_162\n      jump\t// in\n    tag_298:\n        /* \"#utility.yul\":11920:11994   */\n      swap2\n      pop\n        /* \"#utility.yul\":12003:12096   */\n      tag_299\n        /* \"#utility.yul\":12092:12095   */\n      dup3\n        /* \"#utility.yul\":12003:12096   */\n      tag_177\n      jump\t// in\n    tag_299:\n        /* \"#utility.yul\":12121:12123   */\n      0x40\n        /* \"#utility.yul\":12116:12119   */\n      dup3\n        /* \"#utility.yul\":12112:12124   */\n      add\n        /* \"#utility.yul\":12105:12124   */\n      swap1\n      pop\n        /* \"#utility.yul\":11764:12130   */\n      swap2\n      swap1\n      pop\n      jump\t// out\n        /* \"#utility.yul\":12136:12555   */\n    tag_111:\n        /* \"#utility.yul\":12302:12306   */\n      0x00\n        /* \"#utility.yul\":12340:12342   */\n      0x20\n        /* \"#utility.yul\":12329:12338   */\n      dup3\n        /* \"#utility.yul\":12325:12343   */\n      add\n        /* \"#utility.yul\":12317:12343   */\n      swap1\n      pop\n        /* \"#utility.yul\":12389:12398   */\n      dup2\n        /* \"#utility.yul\":12383:12387   */\n      dup2\n        /* \"#utility.yul\":12379:12399   */\n      sub\n        /* \"#utility.yul\":12375:12376   */\n      0x00\n        /* \"#utility.yul\":12364:12373   */\n      dup4\n        /* \"#utility.yul\":12360:12377   */\n      add\n        /* \"#utility.yul\":12353:12400   */\n      mstore\n        /* \"#utility.yul\":12417:12548   */\n      tag_301\n        /* \"#utility.yul\":12543:12547   */\n      dup2\n        /* \"#utility.yul\":12417:12548   */\n      tag_178\n      jump\t// in\n    tag_301:\n        /* \"#utility.yul\":12409:12548   */\n      swap1\n      pop\n        /* \"#utility.yul\":12136:12555   */\n      swap2\n      swap1\n      pop\n      jump\t// out\n        /* \"#utility.yul\":12561:12739   */\n    tag_179:\n        /* \"#utility.yul\":12701:12731   */\n      0x63616e27742072656e6f756e63654f776e657273686970206865726500000000\n        /* \"#utility.yul\":12697:12698   */\n      0x00\n        /* \"#utility.yul\":12689:12695   */\n      dup3\n        /* \"#utility.yul\":12685:12699   */\n      add\n        /* \"#utility.yul\":12678:12732   */\n      mstore\n        /* \"#utility.yul\":12561:12739   */\n      pop\n      jump\t// out\n        /* \"#utility.yul\":12745:13111   */\n    tag_180:\n        /* \"#utility.yul\":12887:12890   */\n      0x00\n        /* \"#utility.yul\":12908:12975   */\n      tag_304\n        /* \"#utility.yul\":12972:12974   */\n      0x1c\n        /* \"#utility.yul\":12967:12970   */\n      dup4\n        /* \"#utility.yul\":12908:12975   */\n      tag_162\n      jump\t// in\n    tag_304:\n        /* \"#utility.yul\":12901:12975   */\n      swap2\n      pop\n        /* \"#utility.yul\":12984:13077   */\n      tag_305\n        /* \"#utility.yul\":13073:13076   */\n      dup3\n        /* \"#utility.yul\":12984:13077   */\n      tag_179\n      jump\t// in\n    tag_305:\n        /* \"#utility.yul\":13102:13104   */\n      0x20\n        /* \"#utility.yul\":13097:13100   */\n      dup3\n        /* \"#utility.yul\":13093:13105   */\n      add\n        /* \"#utility.yul\":13086:13105   */\n      swap1\n      pop\n        /* \"#utility.yul\":12745:13111   */\n      swap2\n      swap1\n      pop\n      jump\t// out\n        /* \"#utility.yul\":13117:13536   */\n    tag_117:\n        /* \"#utility.yul\":13283:13287   */\n      0x00\n        /* \"#utility.yul\":13321:13323   */\n      0x20\n        /* \"#utility.yul\":13310:13319   */\n      dup3\n        /* \"#utility.yul\":13306:13324   */\n      add\n        /* \"#utility.yul\":13298:13324   */\n      swap1\n      pop\n        /* \"#utility.yul\":13370:13379   */\n      dup2\n        /* \"#utility.yul\":13364:13368   */\n      dup2\n        /* \"#utility.yul\":13360:13380   */\n      sub\n        /* \"#utility.yul\":13356:13357   */\n      0x00\n        /* \"#utility.yul\":13345:13354   */\n      dup4\n        /* \"#utility.yul\":13341:13358   */\n      add\n        /* \"#utility.yul\":13334:13381   */\n      mstore\n        /* \"#utility.yul\":13398:13529   */\n      tag_307\n        /* \"#utility.yul\":13524:13528   */\n      dup2\n        /* \"#utility.yul\":13398:13529   */\n      tag_180\n      jump\t// in\n    tag_307:\n        /* \"#utility.yul\":13390:13529   */\n      swap1\n      pop\n        /* \"#utility.yul\":13117:13536   */\n      swap2\n      swap1\n      pop\n      jump\t// out\n        /* \"#utility.yul\":13542:13767   */\n    tag_181:\n        /* \"#utility.yul\":13682:13716   */\n      0x416d6f756e74206973206c6172676572207468616e20636f6e74726163742062\n        /* \"#utility.yul\":13678:13679   */\n      0x00\n        /* \"#utility.yul\":13670:13676   */\n      dup3\n        /* \"#utility.yul\":13666:13680   */\n      add\n        /* \"#utility.yul\":13659:13717   */\n      mstore\n        /* \"#utility.yul\":13751:13759   */\n      0x616c616e63650000000000000000000000000000000000000000000000000000\n        /* \"#utility.yul\":13746:13748   */\n      0x20\n        /* \"#utility.yul\":13738:13744   */\n      dup3\n        /* \"#utility.yul\":13734:13749   */\n      add\n        /* \"#utility.yul\":13727:13760   */\n      mstore\n        /* \"#utility.yul\":13542:13767   */\n      pop\n      jump\t// out\n        /* \"#utility.yul\":13773:14139   */\n    tag_182:\n        /* \"#utility.yul\":13915:13918   */\n      0x00\n        /* \"#utility.yul\":13936:14003   */\n      tag_310\n        /* \"#utility.yul\":14000:14002   */\n      0x26\n        /* \"#utility.yul\":13995:13998   */\n      dup4\n        /* \"#utility.yul\":13936:14003   */\n      tag_162\n      jump\t// in\n    tag_310:\n        /* \"#utility.yul\":13929:14003   */\n      swap2\n      pop\n        /* \"#utility.yul\":14012:14105   */\n      tag_311\n        /* \"#utility.yul\":14101:14104   */\n      dup3\n        /* \"#utility.yul\":14012:14105   */\n      tag_181\n      jump\t// in\n    tag_311:\n        /* \"#utility.yul\":14130:14132   */\n      0x40\n        /* \"#utility.yul\":14125:14128   */\n      dup3\n        /* \"#utility.yul\":14121:14133   */\n      add\n        /* \"#utility.yul\":14114:14133   */\n      swap1\n      pop\n        /* \"#utility.yul\":13773:14139   */\n      swap2\n      swap1\n      pop\n      jump\t// out\n        /* \"#utility.yul\":14145:14564   */\n    tag_124:\n        /* \"#utility.yul\":14311:14315   */\n      0x00\n        /* \"#utility.yul\":14349:14351   */\n      0x20\n        /* \"#utility.yul\":14338:14347   */\n      dup3\n        /* \"#utility.yul\":14334:14352   */\n      add\n        /* \"#utility.yul\":14326:14352   */\n      swap1\n      pop\n        /* \"#utility.yul\":14398:14407   */\n      dup2\n        /* \"#utility.yul\":14392:14396   */\n      dup2\n        /* \"#utility.yul\":14388:14408   */\n      sub\n        /* \"#utility.yul\":14384:14385   */\n      0x00\n        /* \"#utility.yul\":14373:14382   */\n      dup4\n        /* \"#utility.yul\":14369:14386   */\n      add\n        /* \"#utility.yul\":14362:14409   */\n      mstore\n        /* \"#utility.yul\":14426:14557   */\n      tag_313\n        /* \"#utility.yul\":14552:14556   */\n      dup2\n        /* \"#utility.yul\":14426:14557   */\n      tag_182\n      jump\t// in\n    tag_313:\n        /* \"#utility.yul\":14418:14557   */\n      swap1\n      pop\n        /* \"#utility.yul\":14145:14564   */\n      swap2\n      swap1\n      pop\n      jump\t// out\n        /* \"#utility.yul\":14570:14795   */\n    tag_183:\n        /* \"#utility.yul\":14710:14744   */\n      0x4f776e61626c653a206e6577206f776e657220697320746865207a65726f2061\n        /* \"#utility.yul\":14706:14707   */\n      0x00\n        /* \"#utility.yul\":14698:14704   */\n      dup3\n        /* \"#utility.yul\":14694:14708   */\n      add\n        /* \"#utility.yul\":14687:14745   */\n      mstore\n        /* \"#utility.yul\":14779:14787   */\n      0x6464726573730000000000000000000000000000000000000000000000000000\n        /* \"#utility.yul\":14774:14776   */\n      0x20\n        /* \"#utility.yul\":14766:14772   */\n      dup3\n        /* \"#utility.yul\":14762:14777   */\n      add\n        /* \"#utility.yul\":14755:14788   */\n      mstore\n        /* \"#utility.yul\":14570:14795   */\n      pop\n      jump\t// out\n        /* \"#utility.yul\":14801:15167   */\n    tag_184:\n        /* \"#utility.yul\":14943:14946   */\n      0x00\n        /* \"#utility.yul\":14964:15031   */\n      tag_316\n        /* \"#utility.yul\":15028:15030   */\n      0x26\n        /* \"#utility.yul\":15023:15026   */\n      dup4\n        /* \"#utility.yul\":14964:15031   */\n      tag_162\n      jump\t// in\n    tag_316:\n        /* \"#utility.yul\":14957:15031   */\n      swap2\n      pop\n        /* \"#utility.yul\":15040:15133   */\n      tag_317\n        /* \"#utility.yul\":15129:15132   */\n      dup3\n        /* \"#utility.yul\":15040:15133   */\n      tag_183\n      jump\t// in\n    tag_317:\n        /* \"#utility.yul\":15158:15160   */\n      0x40\n        /* \"#utility.yul\":15153:15156   */\n      dup3\n        /* \"#utility.yul\":15149:15161   */\n      add\n        /* \"#utility.yul\":15142:15161   */\n      swap1\n      pop\n        /* \"#utility.yul\":14801:15167   */\n      swap2\n      swap1\n      pop\n      jump\t// out\n        /* \"#utility.yul\":15173:15592   */\n    tag_133:\n        /* \"#utility.yul\":15339:15343   */\n      0x00\n        /* \"#utility.yul\":15377:15379   */\n      0x20\n        /* \"#utility.yul\":15366:15375   */\n      dup3\n        /* \"#utility.yul\":15362:15380   */\n      add\n        /* \"#utility.yul\":15354:15380   */\n      swap1\n      pop\n        /* \"#utility.yul\":15426:15435   */\n      dup2\n        /* \"#utility.yul\":15420:15424   */\n      dup2\n        /* \"#utility.yul\":15416:15436   */\n      sub\n        /* \"#utility.yul\":15412:15413   */\n      0x00\n        /* \"#utility.yul\":15401:15410   */\n      dup4\n        /* \"#utility.yul\":15397:15414   */\n      add\n        /* \"#utility.yul\":15390:15437   */\n      mstore\n        /* \"#utility.yul\":15454:15585   */\n      tag_319\n        /* \"#utility.yul\":15580:15584   */\n      dup2\n        /* \"#utility.yul\":15454:15585   */\n      tag_184\n      jump\t// in\n    tag_319:\n        /* \"#utility.yul\":15446:15585   */\n      swap1\n      pop\n        /* \"#utility.yul\":15173:15592   */\n      swap2\n      swap1\n      pop\n      jump\t// out\n        /* \"#utility.yul\":15598:15780   */\n    tag_185:\n        /* \"#utility.yul\":15738:15772   */\n      0x4f776e61626c653a2063616c6c6572206973206e6f7420746865206f776e6572\n        /* \"#utility.yul\":15734:15735   */\n      0x00\n        /* \"#utility.yul\":15726:15732   */\n      dup3\n        /* \"#utility.yul\":15722:15736   */\n      add\n        /* \"#utility.yul\":15715:15773   */\n      mstore\n        /* \"#utility.yul\":15598:15780   */\n      pop\n      jump\t// out\n        /* \"#utility.yul\":15786:16152   */\n    tag_186:\n        /* \"#utility.yul\":15928:15931   */\n      0x00\n        /* \"#utility.yul\":15949:16016   */\n      tag_322\n        /* \"#utility.yul\":16013:16015   */\n      0x20\n        /* \"#utility.yul\":16008:16011   */\n      dup4\n        /* \"#utility.yul\":15949:16016   */\n      tag_162\n      jump\t// in\n    tag_322:\n        /* \"#utility.yul\":15942:16016   */\n      swap2\n      pop\n        /* \"#utility.yul\":16025:16118   */\n      tag_323\n        /* \"#utility.yul\":16114:16117   */\n      dup3\n        /* \"#utility.yul\":16025:16118   */\n      tag_185\n      jump\t// in\n    tag_323:\n        /* \"#utility.yul\":16143:16145   */\n      0x20\n        /* \"#utility.yul\":16138:16141   */\n      dup3\n        /* \"#utility.yul\":16134:16146   */\n      add\n        /* \"#utility.yul\":16127:16146   */\n      swap1\n      pop\n        /* \"#utility.yul\":15786:16152   */\n      swap2\n      swap1\n      pop\n      jump\t// out\n        /* \"#utility.yul\":16158:16577   */\n    tag_144:\n        /* \"#utility.yul\":16324:16328   */\n      0x00\n        /* \"#utility.yul\":16362:16364   */\n      0x20\n        /* \"#utility.yul\":16351:16360   */\n      dup3\n        /* \"#utility.yul\":16347:16365   */\n      add\n        /* \"#utility.yul\":16339:16365   */\n      swap1\n      pop\n        /* \"#utility.yul\":16411:16420   */\n      dup2\n        /* \"#utility.yul\":16405:16409   */\n      dup2\n        /* \"#utility.yul\":16401:16421   */\n      sub\n        /* \"#utility.yul\":16397:16398   */\n      0x00\n        /* \"#utility.yul\":16386:16395   */\n      dup4\n        /* \"#utility.yul\":16382:16399   */\n      add\n        /* \"#utility.yul\":16375:16422   */\n      mstore\n        /* \"#utility.yul\":16439:16570   */\n      tag_325\n        /* \"#utility.yul\":16565:16569   */\n      dup2\n        /* \"#utility.yul\":16439:16570   */\n      tag_186\n      jump\t// in\n    tag_325:\n        /* \"#utility.yul\":16431:16570   */\n      swap1\n      pop\n        /* \"#utility.yul\":16158:16577   */\n      swap2\n      swap1\n      pop\n      jump\t// out\n\n    auxdata: 0xa26469706673582212209ba8000c11878722fbf324031c7a57c0c98fa6c45d7744c765423db88a32ad6d64736f6c63430008100033\n}\n",
				"bytecode": {
					"linkReferences": {},
					"object": "608060405234801561001057600080fd5b5061002d61002261003260201b60201c565b61003a60201b60201c565b6100fe565b600033905090565b60008060009054906101000a900473ffffffffffffffffffffffffffffffffffffffff169050816000806101000a81548173ffffffffffffffffffffffffffffffffffffffff021916908373ffffffffffffffffffffffffffffffffffffffff1602179055508173ffffffffffffffffffffffffffffffffffffffff168173ffffffffffffffffffffffffffffffffffffffff167f8be0079c531659141344cd1fd0a4f28419497f9722a3daafe3b4186f6b6457e060405160405180910390a35050565b61144f8061010d6000396000f3fe6080604052600436106100a05760003560e01c8063715018a611610064578063715018a6146101665780638b7afe2e1461017d5780638da5cb5b146101a8578063a87430ba146101d3578063d9c88e1414610211578063f2fde38b1461023a576100af565b806305737314146100b457806316a51305146100be5780632d70db2f146100e95780633e7279a31461011257806341c613831461013b576100af565b366100af576100ad610263565b005b600080fd5b6100bc610263565b005b3480156100ca57600080fd5b506100d361026c565b6040516100e09190610b21565b60405180910390f35b3480156100f557600080fd5b50610110600480360381019061010b9190610bcb565b610272565b005b34801561011e57600080fd5b5061013960048036038101906101349190610c49565b610603565b005b34801561014757600080fd5b506101506107ba565b60405161015d9190610b21565b60405180910390f35b34801561017257600080fd5b5061017b6107c0565b005b34801561018957600080fd5b50610192610803565b60405161019f9190610b21565b60405180910390f35b3480156101b457600080fd5b506101bd610809565b6040516101ca9190610c98565b60405180910390f35b3480156101df57600080fd5b506101fa60048036038101906101f59190610cb3565b610832565b604051610208929190610ce0565b60405180910390f35b34801561021d57600080fd5b5061023860048036038101906102339190610bcb565b610856565b005b34801561024657600080fd5b50610261600480360381019061025c9190610cb3565b6108fe565b005b47600481905550565b60025481565b61027a610981565b156102ba576040517f08c379a00000000000000000000000000000000000000000000000000000000081526004016102b190610d8c565b60405180910390fd5b600047116102fd576040517f08c379a00000000000000000000000000000000000000000000000000000000081526004016102f490610e1e565b60405180910390fd5b6000600160003373ffffffffffffffffffffffffffffffffffffffff1673ffffffffffffffffffffffffffffffffffffffff1681526020019081526020016000206000015411610382576040517f08c379a000000000000000000000000000000000000000000000000000000000815260040161037990610e8a565b60405180910390fd5b60006064600354476103949190610ed9565b600160003373ffffffffffffffffffffffffffffffffffffffff1673ffffffffffffffffffffffffffffffffffffffff168152602001908152602001600020600001546103e19190610f0d565b6103eb9190610f96565b90506000600160003373ffffffffffffffffffffffffffffffffffffffff1673ffffffffffffffffffffffffffffffffffffffff1681526020019081526020016000206001015482111561048a57600160003373ffffffffffffffffffffffffffffffffffffffff1673ffffffffffffffffffffffffffffffffffffffff16815260200190815260200160002060010154826104879190610fc7565b90505b808311156104cd576040517f08c379a00000000000000000000000000000000000000000000000000000000081526004016104c490611047565b60405180910390fd5b82600160003373ffffffffffffffffffffffffffffffffffffffff1673ffffffffffffffffffffffffffffffffffffffff168152602001908152602001600020600101600082825461051f9190610ed9565b9250508190555082600360008282546105389190610ed9565b92505081905550824761054b9190610fc7565b6004819055508373ffffffffffffffffffffffffffffffffffffffff166108fc849081150290604051600060405180830381858888f19350505050158015610597573d6000803e3d6000fd5b503373ffffffffffffffffffffffffffffffffffffffff168473ffffffffffffffffffffffffffffffffffffffff167fc6523614a4ee35b875baef260f78a91708fdf636c7fec1e9a186a7ae590c4e46856040516105f59190610b21565b60405180910390a350505050565b61060b6109be565b610613610809565b73ffffffffffffffffffffffffffffffffffffffff168273ffffffffffffffffffffffffffffffffffffffff1603610680576040517f08c379a0000000000000000000000000000000000000000000000000000000008152600401610677906110d9565b60405180910390fd5b6000600160008473ffffffffffffffffffffffffffffffffffffffff1673ffffffffffffffffffffffffffffffffffffffff1681526020019081526020016000206000015414610705576040517f08c379a00000000000000000000000000000000000000000000000000000000081526004016106fc9061116b565b60405180910390fd5b6064816002546107159190610ed9565b1115610756576040517f08c379a000000000000000000000000000000000000000000000000000000000815260040161074d906111fd565b60405180910390fd5b80600160008473ffffffffffffffffffffffffffffffffffffffff1673ffffffffffffffffffffffffffffffffffffffff1681526020019081526020016000206000018190555080600260008282546107af9190610ed9565b925050819055505050565b60035481565b6107c86109be565b6040517f08c379a00000000000000000000000000000000000000000000000000000000081526004016107fa90611269565b60405180910390fd5b60045481565b60008060009054906101000a900473ffffffffffffffffffffffffffffffffffffffff16905090565b60016020528060005260406000206000915090508060000154908060010154905082565b61085e6109be565b478111156108a1576040517f08c379a0000000000000000000000000000000000000000000000000000000008152600401610898906112fb565b60405180910390fd5b80476108ad9190610fc7565b6004819055508173ffffffffffffffffffffffffffffffffffffffff166108fc829081150290604051600060405180830381858888f193505050501580156108f9573d6000803e3d6000fd5b505050565b6109066109be565b600073ffffffffffffffffffffffffffffffffffffffff168173ffffffffffffffffffffffffffffffffffffffff1603610975576040517f08c379a000000000000000000000000000000000000000000000000000000000815260040161096c9061138d565b60405180910390fd5b61097e81610a3c565b50565b60003373ffffffffffffffffffffffffffffffffffffffff166109a2610809565b73ffffffffffffffffffffffffffffffffffffffff1614905090565b6109c6610b00565b73ffffffffffffffffffffffffffffffffffffffff166109e4610809565b73ffffffffffffffffffffffffffffffffffffffff1614610a3a576040517f08c379a0000000000000000000000000000000000000000000000000000000008152600401610a31906113f9565b60405180910390fd5b565b60008060009054906101000a900473ffffffffffffffffffffffffffffffffffffffff169050816000806101000a81548173ffffffffffffffffffffffffffffffffffffffff021916908373ffffffffffffffffffffffffffffffffffffffff1602179055508173ffffffffffffffffffffffffffffffffffffffff168173ffffffffffffffffffffffffffffffffffffffff167f8be0079c531659141344cd1fd0a4f28419497f9722a3daafe3b4186f6b6457e060405160405180910390a35050565b600033905090565b6000819050919050565b610b1b81610b08565b82525050565b6000602082019050610b366000830184610b12565b92915050565b600080fd5b600073ffffffffffffffffffffffffffffffffffffffff82169050919050565b6000610b6c82610b41565b9050919050565b610b7c81610b61565b8114610b8757600080fd5b50565b600081359050610b9981610b73565b92915050565b610ba881610b08565b8114610bb357600080fd5b50565b600081359050610bc581610b9f565b92915050565b60008060408385031215610be257610be1610b3c565b5b6000610bf085828601610b8a565b9250506020610c0185828601610bb6565b9150509250929050565b6000610c1682610b41565b9050919050565b610c2681610c0b565b8114610c3157600080fd5b50565b600081359050610c4381610c1d565b92915050565b60008060408385031215610c6057610c5f610b3c565b5b6000610c6e85828601610c34565b9250506020610c7f85828601610bb6565b9150509250929050565b610c9281610c0b565b82525050565b6000602082019050610cad6000830184610c89565b92915050565b600060208284031215610cc957610cc8610b3c565b5b6000610cd784828501610c34565b91505092915050565b6000604082019050610cf56000830185610b12565b610d026020830184610b12565b9392505050565b600082825260208201905092915050565b7f546865206f776e65722073686f756c6420757365206f776e657257697468647260008201527f61772066756e6374696f6e000000000000000000000000000000000000000000602082015250565b6000610d76602b83610d09565b9150610d8182610d1a565b604082019050919050565b60006020820190508181036000830152610da581610d69565b9050919050565b7f5468657265206973206e6f206d6f6e657920696e207468652077616c6c65742060008201527f746f20636c61696d000000000000000000000000000000000000000000000000602082015250565b6000610e08602883610d09565b9150610e1382610dac565b604082019050919050565b60006020820190508181036000830152610e3781610dfb565b9050919050565b7f596f7520646f206e6f74206861766520616e7920616c6c6f77616e6365000000600082015250565b6000610e74601d83610d09565b9150610e7f82610e3e565b602082019050919050565b60006020820190508181036000830152610ea381610e67565b9050919050565b7f4e487b7100000000000000000000000000000000000000000000000000000000600052601160045260246000fd5b6000610ee482610b08565b9150610eef83610b08565b9250828201905080821115610f0757610f06610eaa565b5b92915050565b6000610f1882610b08565b9150610f2383610b08565b9250817fffffffffffffffffffffffffffffffffffffffffffffffffffffffffffffffff0483118215151615610f5c57610f5b610eaa565b5b828202905092915050565b7f4e487b7100000000000000000000000000000000000000000000000000000000600052601260045260246000fd5b6000610fa182610b08565b9150610fac83610b08565b925082610fbc57610fbb610f67565b5b828204905092915050565b6000610fd282610b08565b9150610fdd83610b08565b9250828203905081811115610ff557610ff4610eaa565b5b92915050565b7f54686520616d6f756e7420697320746f6f206869676800000000000000000000600082015250565b6000611031601683610d09565b915061103c82610ffb565b602082019050919050565b6000602082019050818103600083015261106081611024565b9050919050565b7f416e20616c6c6f77616e6365206973206e6f7420726571756972656420666f7260008201527f20746865206f776e657200000000000000000000000000000000000000000000602082015250565b60006110c3602a83610d09565b91506110ce82611067565b604082019050919050565b600060208201905081810360008301526110f2816110b6565b9050919050565b7f546865206164647265737320616c72656164792068617320616e20616c6c6f7760008201527f616e636500000000000000000000000000000000000000000000000000000000602082015250565b6000611155602483610d09565b9150611160826110f9565b604082019050919050565b6000602082019050818103600083015261118481611148565b9050919050565b7f5468697320776f756c64206f7665722d616c6c6f636174652074686520616c6c60008201527f6f77616e63657300000000000000000000000000000000000000000000000000602082015250565b60006111e7602783610d09565b91506111f28261118b565b604082019050919050565b60006020820190508181036000830152611216816111da565b9050919050565b7f63616e27742072656e6f756e63654f776e657273686970206865726500000000600082015250565b6000611253601c83610d09565b915061125e8261121d565b602082019050919050565b6000602082019050818103600083015261128281611246565b9050919050565b7f416d6f756e74206973206c6172676572207468616e20636f6e7472616374206260008201527f616c616e63650000000000000000000000000000000000000000000000000000602082015250565b60006112e5602683610d09565b91506112f082611289565b604082019050919050565b60006020820190508181036000830152611314816112d8565b9050919050565b7f4f776e61626c653a206e6577206f776e657220697320746865207a65726f206160008201527f6464726573730000000000000000000000000000000000000000000000000000602082015250565b6000611377602683610d09565b91506113828261131b565b604082019050919050565b600060208201905081810360008301526113a68161136a565b9050919050565b7f4f776e61626c653a2063616c6c6572206973206e6f7420746865206f776e6572600082015250565b60006113e3602083610d09565b91506113ee826113ad565b602082019050919050565b60006020820190508181036000830152611412816113d6565b905091905056fea26469706673582212209ba8000c11878722fbf324031c7a57c0c98fa6c45d7744c765423db88a32ad6d64736f6c63430008100033",
					"opcodes": "PUSH1 0x80 PUSH1 0x40 MSTORE CALLVALUE DUP1 ISZERO PUSH2 0x10 JUMPI PUSH1 0x0 DUP1 REVERT JUMPDEST POP PUSH2 0x2D PUSH2 0x22 PUSH2 0x32 PUSH1 0x20 SHL PUSH1 0x20 SHR JUMP JUMPDEST PUSH2 0x3A PUSH1 0x20 SHL PUSH1 0x20 SHR JUMP JUMPDEST PUSH2 0xFE JUMP JUMPDEST PUSH1 0x0 CALLER SWAP1 POP SWAP1 JUMP JUMPDEST PUSH1 0x0 DUP1 PUSH1 0x0 SWAP1 SLOAD SWAP1 PUSH2 0x100 EXP SWAP1 DIV PUSH20 0xFFFFFFFFFFFFFFFFFFFFFFFFFFFFFFFFFFFFFFFF AND SWAP1 POP DUP2 PUSH1 0x0 DUP1 PUSH2 0x100 EXP DUP2 SLOAD DUP2 PUSH20 0xFFFFFFFFFFFFFFFFFFFFFFFFFFFFFFFFFFFFFFFF MUL NOT AND SWAP1 DUP4 PUSH20 0xFFFFFFFFFFFFFFFFFFFFFFFFFFFFFFFFFFFFFFFF AND MUL OR SWAP1 SSTORE POP DUP2 PUSH20 0xFFFFFFFFFFFFFFFFFFFFFFFFFFFFFFFFFFFFFFFF AND DUP2 PUSH20 0xFFFFFFFFFFFFFFFFFFFFFFFFFFFFFFFFFFFFFFFF AND PUSH32 0x8BE0079C531659141344CD1FD0A4F28419497F9722A3DAAFE3B4186F6B6457E0 PUSH1 0x40 MLOAD PUSH1 0x40 MLOAD DUP1 SWAP2 SUB SWAP1 LOG3 POP POP JUMP JUMPDEST PUSH2 0x144F DUP1 PUSH2 0x10D PUSH1 0x0 CODECOPY PUSH1 0x0 RETURN INVALID PUSH1 0x80 PUSH1 0x40 MSTORE PUSH1 0x4 CALLDATASIZE LT PUSH2 0xA0 JUMPI PUSH1 0x0 CALLDATALOAD PUSH1 0xE0 SHR DUP1 PUSH4 0x715018A6 GT PUSH2 0x64 JUMPI DUP1 PUSH4 0x715018A6 EQ PUSH2 0x166 JUMPI DUP1 PUSH4 0x8B7AFE2E EQ PUSH2 0x17D JUMPI DUP1 PUSH4 0x8DA5CB5B EQ PUSH2 0x1A8 JUMPI DUP1 PUSH4 0xA87430BA EQ PUSH2 0x1D3 JUMPI DUP1 PUSH4 0xD9C88E14 EQ PUSH2 0x211 JUMPI DUP1 PUSH4 0xF2FDE38B EQ PUSH2 0x23A JUMPI PUSH2 0xAF JUMP JUMPDEST DUP1 PUSH4 0x5737314 EQ PUSH2 0xB4 JUMPI DUP1 PUSH4 0x16A51305 EQ PUSH2 0xBE JUMPI DUP1 PUSH4 0x2D70DB2F EQ PUSH2 0xE9 JUMPI DUP1 PUSH4 0x3E7279A3 EQ PUSH2 0x112 JUMPI DUP1 PUSH4 0x41C61383 EQ PUSH2 0x13B JUMPI PUSH2 0xAF JUMP JUMPDEST CALLDATASIZE PUSH2 0xAF JUMPI PUSH2 0xAD PUSH2 0x263 JUMP JUMPDEST STOP JUMPDEST PUSH1 0x0 DUP1 REVERT JUMPDEST PUSH2 0xBC PUSH2 0x263 JUMP JUMPDEST STOP JUMPDEST CALLVALUE DUP1 ISZERO PUSH2 0xCA JUMPI PUSH1 0x0 DUP1 REVERT JUMPDEST POP PUSH2 0xD3 PUSH2 0x26C JUMP JUMPDEST PUSH1 0x40 MLOAD PUSH2 0xE0 SWAP2 SWAP1 PUSH2 0xB21 JUMP JUMPDEST PUSH1 0x40 MLOAD DUP1 SWAP2 SUB SWAP1 RETURN JUMPDEST CALLVALUE DUP1 ISZERO PUSH2 0xF5 JUMPI PUSH1 0x0 DUP1 REVERT JUMPDEST POP PUSH2 0x110 PUSH1 0x4 DUP1 CALLDATASIZE SUB DUP2 ADD SWAP1 PUSH2 0x10B SWAP2 SWAP1 PUSH2 0xBCB JUMP JUMPDEST PUSH2 0x272 JUMP JUMPDEST STOP JUMPDEST CALLVALUE DUP1 ISZERO PUSH2 0x11E JUMPI PUSH1 0x0 DUP1 REVERT JUMPDEST POP PUSH2 0x139 PUSH1 0x4 DUP1 CALLDATASIZE SUB DUP2 ADD SWAP1 PUSH2 0x134 SWAP2 SWAP1 PUSH2 0xC49 JUMP JUMPDEST PUSH2 0x603 JUMP JUMPDEST STOP JUMPDEST CALLVALUE DUP1 ISZERO PUSH2 0x147 JUMPI PUSH1 0x0 DUP1 REVERT JUMPDEST POP PUSH2 0x150 PUSH2 0x7BA JUMP JUMPDEST PUSH1 0x40 MLOAD PUSH2 0x15D SWAP2 SWAP1 PUSH2 0xB21 JUMP JUMPDEST PUSH1 0x40 MLOAD DUP1 SWAP2 SUB SWAP1 RETURN JUMPDEST CALLVALUE DUP1 ISZERO PUSH2 0x172 JUMPI PUSH1 0x0 DUP1 REVERT JUMPDEST POP PUSH2 0x17B PUSH2 0x7C0 JUMP JUMPDEST STOP JUMPDEST CALLVALUE DUP1 ISZERO PUSH2 0x189 JUMPI PUSH1 0x0 DUP1 REVERT JUMPDEST POP PUSH2 0x192 PUSH2 0x803 JUMP JUMPDEST PUSH1 0x40 MLOAD PUSH2 0x19F SWAP2 SWAP1 PUSH2 0xB21 JUMP JUMPDEST PUSH1 0x40 MLOAD DUP1 SWAP2 SUB SWAP1 RETURN JUMPDEST CALLVALUE DUP1 ISZERO PUSH2 0x1B4 JUMPI PUSH1 0x0 DUP1 REVERT JUMPDEST POP PUSH2 0x1BD PUSH2 0x809 JUMP JUMPDEST PUSH1 0x40 MLOAD PUSH2 0x1CA SWAP2 SWAP1 PUSH2 0xC98 JUMP JUMPDEST PUSH1 0x40 MLOAD DUP1 SWAP2 SUB SWAP1 RETURN JUMPDEST CALLVALUE DUP1 ISZERO PUSH2 0x1DF JUMPI PUSH1 0x0 DUP1 REVERT JUMPDEST POP PUSH2 0x1FA PUSH1 0x4 DUP1 CALLDATASIZE SUB DUP2 ADD SWAP1 PUSH2 0x1F5 SWAP2 SWAP1 PUSH2 0xCB3 JUMP JUMPDEST PUSH2 0x832 JUMP JUMPDEST PUSH1 0x40 MLOAD PUSH2 0x208 SWAP3 SWAP2 SWAP1 PUSH2 0xCE0 JUMP JUMPDEST PUSH1 0x40 MLOAD DUP1 SWAP2 SUB SWAP1 RETURN JUMPDEST CALLVALUE DUP1 ISZERO PUSH2 0x21D JUMPI PUSH1 0x0 DUP1 REVERT JUMPDEST POP PUSH2 0x238 PUSH1 0x4 DUP1 CALLDATASIZE SUB DUP2 ADD SWAP1 PUSH2 0x233 SWAP2 SWAP1 PUSH2 0xBCB JUMP JUMPDEST PUSH2 0x856 JUMP JUMPDEST STOP JUMPDEST CALLVALUE DUP1 ISZERO PUSH2 0x246 JUMPI PUSH1 0x0 DUP1 REVERT JUMPDEST POP PUSH2 0x261 PUSH1 0x4 DUP1 CALLDATASIZE SUB DUP2 ADD SWAP1 PUSH2 0x25C SWAP2 SWAP1 PUSH2 0xCB3 JUMP JUMPDEST PUSH2 0x8FE JUMP JUMPDEST STOP JUMPDEST SELFBALANCE PUSH1 0x4 DUP2 SWAP1 SSTORE POP JUMP JUMPDEST PUSH1 0x2 SLOAD DUP2 JUMP JUMPDEST PUSH2 0x27A PUSH2 0x981 JUMP JUMPDEST ISZERO PUSH2 0x2BA JUMPI PUSH1 0x40 MLOAD PUSH32 0x8C379A000000000000000000000000000000000000000000000000000000000 DUP2 MSTORE PUSH1 0x4 ADD PUSH2 0x2B1 SWAP1 PUSH2 0xD8C JUMP JUMPDEST PUSH1 0x40 MLOAD DUP1 SWAP2 SUB SWAP1 REVERT JUMPDEST PUSH1 0x0 SELFBALANCE GT PUSH2 0x2FD JUMPI PUSH1 0x40 MLOAD PUSH32 0x8C379A000000000000000000000000000000000000000000000000000000000 DUP2 MSTORE PUSH1 0x4 ADD PUSH2 0x2F4 SWAP1 PUSH2 0xE1E JUMP JUMPDEST PUSH1 0x40 MLOAD DUP1 SWAP2 SUB SWAP1 REVERT JUMPDEST PUSH1 0x0 PUSH1 0x1 PUSH1 0x0 CALLER PUSH20 0xFFFFFFFFFFFFFFFFFFFFFFFFFFFFFFFFFFFFFFFF AND PUSH20 0xFFFFFFFFFFFFFFFFFFFFFFFFFFFFFFFFFFFFFFFF AND DUP2 MSTORE PUSH1 0x20 ADD SWAP1 DUP2 MSTORE PUSH1 0x20 ADD PUSH1 0x0 KECCAK256 PUSH1 0x0 ADD SLOAD GT PUSH2 0x382 JUMPI PUSH1 0x40 MLOAD PUSH32 0x8C379A000000000000000000000000000000000000000000000000000000000 DUP2 MSTORE PUSH1 0x4 ADD PUSH2 0x379 SWAP1 PUSH2 0xE8A JUMP JUMPDEST PUSH1 0x40 MLOAD DUP1 SWAP2 SUB SWAP1 REVERT JUMPDEST PUSH1 0x0 PUSH1 0x64 PUSH1 0x3 SLOAD SELFBALANCE PUSH2 0x394 SWAP2 SWAP1 PUSH2 0xED9 JUMP JUMPDEST PUSH1 0x1 PUSH1 0x0 CALLER PUSH20 0xFFFFFFFFFFFFFFFFFFFFFFFFFFFFFFFFFFFFFFFF AND PUSH20 0xFFFFFFFFFFFFFFFFFFFFFFFFFFFFFFFFFFFFFFFF AND DUP2 MSTORE PUSH1 0x20 ADD SWAP1 DUP2 MSTORE PUSH1 0x20 ADD PUSH1 0x0 KECCAK256 PUSH1 0x0 ADD SLOAD PUSH2 0x3E1 SWAP2 SWAP1 PUSH2 0xF0D JUMP JUMPDEST PUSH2 0x3EB SWAP2 SWAP1 PUSH2 0xF96 JUMP JUMPDEST SWAP1 POP PUSH1 0x0 PUSH1 0x1 PUSH1 0x0 CALLER PUSH20 0xFFFFFFFFFFFFFFFFFFFFFFFFFFFFFFFFFFFFFFFF AND PUSH20 0xFFFFFFFFFFFFFFFFFFFFFFFFFFFFFFFFFFFFFFFF AND DUP2 MSTORE PUSH1 0x20 ADD SWAP1 DUP2 MSTORE PUSH1 0x20 ADD PUSH1 0x0 KECCAK256 PUSH1 0x1 ADD SLOAD DUP3 GT ISZERO PUSH2 0x48A JUMPI PUSH1 0x1 PUSH1 0x0 CALLER PUSH20 0xFFFFFFFFFFFFFFFFFFFFFFFFFFFFFFFFFFFFFFFF AND PUSH20 0xFFFFFFFFFFFFFFFFFFFFFFFFFFFFFFFFFFFFFFFF AND DUP2 MSTORE PUSH1 0x20 ADD SWAP1 DUP2 MSTORE PUSH1 0x20 ADD PUSH1 0x0 KECCAK256 PUSH1 0x1 ADD SLOAD DUP3 PUSH2 0x487 SWAP2 SWAP1 PUSH2 0xFC7 JUMP JUMPDEST SWAP1 POP JUMPDEST DUP1 DUP4 GT ISZERO PUSH2 0x4CD JUMPI PUSH1 0x40 MLOAD PUSH32 0x8C379A000000000000000000000000000000000000000000000000000000000 DUP2 MSTORE PUSH1 0x4 ADD PUSH2 0x4C4 SWAP1 PUSH2 0x1047 JUMP JUMPDEST PUSH1 0x40 MLOAD DUP1 SWAP2 SUB SWAP1 REVERT JUMPDEST DUP3 PUSH1 0x1 PUSH1 0x0 CALLER PUSH20 0xFFFFFFFFFFFFFFFFFFFFFFFFFFFFFFFFFFFFFFFF AND PUSH20 0xFFFFFFFFFFFFFFFFFFFFFFFFFFFFFFFFFFFFFFFF AND DUP2 MSTORE PUSH1 0x20 ADD SWAP1 DUP2 MSTORE PUSH1 0x20 ADD PUSH1 0x0 KECCAK256 PUSH1 0x1 ADD PUSH1 0x0 DUP3 DUP3 SLOAD PUSH2 0x51F SWAP2 SWAP1 PUSH2 0xED9 JUMP JUMPDEST SWAP3 POP POP DUP2 SWAP1 SSTORE POP DUP3 PUSH1 0x3 PUSH1 0x0 DUP3 DUP3 SLOAD PUSH2 0x538 SWAP2 SWAP1 PUSH2 0xED9 JUMP JUMPDEST SWAP3 POP POP DUP2 SWAP1 SSTORE POP DUP3 SELFBALANCE PUSH2 0x54B SWAP2 SWAP1 PUSH2 0xFC7 JUMP JUMPDEST PUSH1 0x4 DUP2 SWAP1 SSTORE POP DUP4 PUSH20 0xFFFFFFFFFFFFFFFFFFFFFFFFFFFFFFFFFFFFFFFF AND PUSH2 0x8FC DUP5 SWAP1 DUP2 ISZERO MUL SWAP1 PUSH1 0x40 MLOAD PUSH1 0x0 PUSH1 0x40 MLOAD DUP1 DUP4 SUB DUP2 DUP6 DUP9 DUP9 CALL SWAP4 POP POP POP POP ISZERO DUP1 ISZERO PUSH2 0x597 JUMPI RETURNDATASIZE PUSH1 0x0 DUP1 RETURNDATACOPY RETURNDATASIZE PUSH1 0x0 REVERT JUMPDEST POP CALLER PUSH20 0xFFFFFFFFFFFFFFFFFFFFFFFFFFFFFFFFFFFFFFFF AND DUP5 PUSH20 0xFFFFFFFFFFFFFFFFFFFFFFFFFFFFFFFFFFFFFFFF AND PUSH32 0xC6523614A4EE35B875BAEF260F78A91708FDF636C7FEC1E9A186A7AE590C4E46 DUP6 PUSH1 0x40 MLOAD PUSH2 0x5F5 SWAP2 SWAP1 PUSH2 0xB21 JUMP JUMPDEST PUSH1 0x40 MLOAD DUP1 SWAP2 SUB SWAP1 LOG3 POP POP POP POP JUMP JUMPDEST PUSH2 0x60B PUSH2 0x9BE JUMP JUMPDEST PUSH2 0x613 PUSH2 0x809 JUMP JUMPDEST PUSH20 0xFFFFFFFFFFFFFFFFFFFFFFFFFFFFFFFFFFFFFFFF AND DUP3 PUSH20 0xFFFFFFFFFFFFFFFFFFFFFFFFFFFFFFFFFFFFFFFF AND SUB PUSH2 0x680 JUMPI PUSH1 0x40 MLOAD PUSH32 0x8C379A000000000000000000000000000000000000000000000000000000000 DUP2 MSTORE PUSH1 0x4 ADD PUSH2 0x677 SWAP1 PUSH2 0x10D9 JUMP JUMPDEST PUSH1 0x40 MLOAD DUP1 SWAP2 SUB SWAP1 REVERT JUMPDEST PUSH1 0x0 PUSH1 0x1 PUSH1 0x0 DUP5 PUSH20 0xFFFFFFFFFFFFFFFFFFFFFFFFFFFFFFFFFFFFFFFF AND PUSH20 0xFFFFFFFFFFFFFFFFFFFFFFFFFFFFFFFFFFFFFFFF AND DUP2 MSTORE PUSH1 0x20 ADD SWAP1 DUP2 MSTORE PUSH1 0x20 ADD PUSH1 0x0 KECCAK256 PUSH1 0x0 ADD SLOAD EQ PUSH2 0x705 JUMPI PUSH1 0x40 MLOAD PUSH32 0x8C379A000000000000000000000000000000000000000000000000000000000 DUP2 MSTORE PUSH1 0x4 ADD PUSH2 0x6FC SWAP1 PUSH2 0x116B JUMP JUMPDEST PUSH1 0x40 MLOAD DUP1 SWAP2 SUB SWAP1 REVERT JUMPDEST PUSH1 0x64 DUP2 PUSH1 0x2 SLOAD PUSH2 0x715 SWAP2 SWAP1 PUSH2 0xED9 JUMP JUMPDEST GT ISZERO PUSH2 0x756 JUMPI PUSH1 0x40 MLOAD PUSH32 0x8C379A000000000000000000000000000000000000000000000000000000000 DUP2 MSTORE PUSH1 0x4 ADD PUSH2 0x74D SWAP1 PUSH2 0x11FD JUMP JUMPDEST PUSH1 0x40 MLOAD DUP1 SWAP2 SUB SWAP1 REVERT JUMPDEST DUP1 PUSH1 0x1 PUSH1 0x0 DUP5 PUSH20 0xFFFFFFFFFFFFFFFFFFFFFFFFFFFFFFFFFFFFFFFF AND PUSH20 0xFFFFFFFFFFFFFFFFFFFFFFFFFFFFFFFFFFFFFFFF AND DUP2 MSTORE PUSH1 0x20 ADD SWAP1 DUP2 MSTORE PUSH1 0x20 ADD PUSH1 0x0 KECCAK256 PUSH1 0x0 ADD DUP2 SWAP1 SSTORE POP DUP1 PUSH1 0x2 PUSH1 0x0 DUP3 DUP3 SLOAD PUSH2 0x7AF SWAP2 SWAP1 PUSH2 0xED9 JUMP JUMPDEST SWAP3 POP POP DUP2 SWAP1 SSTORE POP POP POP JUMP JUMPDEST PUSH1 0x3 SLOAD DUP2 JUMP JUMPDEST PUSH2 0x7C8 PUSH2 0x9BE JUMP JUMPDEST PUSH1 0x40 MLOAD PUSH32 0x8C379A000000000000000000000000000000000000000000000000000000000 DUP2 MSTORE PUSH1 0x4 ADD PUSH2 0x7FA SWAP1 PUSH2 0x1269 JUMP JUMPDEST PUSH1 0x40 MLOAD DUP1 SWAP2 SUB SWAP1 REVERT JUMPDEST PUSH1 0x4 SLOAD DUP2 JUMP JUMPDEST PUSH1 0x0 DUP1 PUSH1 0x0 SWAP1 SLOAD SWAP1 PUSH2 0x100 EXP SWAP1 DIV PUSH20 0xFFFFFFFFFFFFFFFFFFFFFFFFFFFFFFFFFFFFFFFF AND SWAP1 POP SWAP1 JUMP JUMPDEST PUSH1 0x1 PUSH1 0x20 MSTORE DUP1 PUSH1 0x0 MSTORE PUSH1 0x40 PUSH1 0x0 KECCAK256 PUSH1 0x0 SWAP2 POP SWAP1 POP DUP1 PUSH1 0x0 ADD SLOAD SWAP1 DUP1 PUSH1 0x1 ADD SLOAD SWAP1 POP DUP3 JUMP JUMPDEST PUSH2 0x85E PUSH2 0x9BE JUMP JUMPDEST SELFBALANCE DUP2 GT ISZERO PUSH2 0x8A1 JUMPI PUSH1 0x40 MLOAD PUSH32 0x8C379A000000000000000000000000000000000000000000000000000000000 DUP2 MSTORE PUSH1 0x4 ADD PUSH2 0x898 SWAP1 PUSH2 0x12FB JUMP JUMPDEST PUSH1 0x40 MLOAD DUP1 SWAP2 SUB SWAP1 REVERT JUMPDEST DUP1 SELFBALANCE PUSH2 0x8AD SWAP2 SWAP1 PUSH2 0xFC7 JUMP JUMPDEST PUSH1 0x4 DUP2 SWAP1 SSTORE POP DUP2 PUSH20 0xFFFFFFFFFFFFFFFFFFFFFFFFFFFFFFFFFFFFFFFF AND PUSH2 0x8FC DUP3 SWAP1 DUP2 ISZERO MUL SWAP1 PUSH1 0x40 MLOAD PUSH1 0x0 PUSH1 0x40 MLOAD DUP1 DUP4 SUB DUP2 DUP6 DUP9 DUP9 CALL SWAP4 POP POP POP POP ISZERO DUP1 ISZERO PUSH2 0x8F9 JUMPI RETURNDATASIZE PUSH1 0x0 DUP1 RETURNDATACOPY RETURNDATASIZE PUSH1 0x0 REVERT JUMPDEST POP POP POP JUMP JUMPDEST PUSH2 0x906 PUSH2 0x9BE JUMP JUMPDEST PUSH1 0x0 PUSH20 0xFFFFFFFFFFFFFFFFFFFFFFFFFFFFFFFFFFFFFFFF AND DUP2 PUSH20 0xFFFFFFFFFFFFFFFFFFFFFFFFFFFFFFFFFFFFFFFF AND SUB PUSH2 0x975 JUMPI PUSH1 0x40 MLOAD PUSH32 0x8C379A000000000000000000000000000000000000000000000000000000000 DUP2 MSTORE PUSH1 0x4 ADD PUSH2 0x96C SWAP1 PUSH2 0x138D JUMP JUMPDEST PUSH1 0x40 MLOAD DUP1 SWAP2 SUB SWAP1 REVERT JUMPDEST PUSH2 0x97E DUP2 PUSH2 0xA3C JUMP JUMPDEST POP JUMP JUMPDEST PUSH1 0x0 CALLER PUSH20 0xFFFFFFFFFFFFFFFFFFFFFFFFFFFFFFFFFFFFFFFF AND PUSH2 0x9A2 PUSH2 0x809 JUMP JUMPDEST PUSH20 0xFFFFFFFFFFFFFFFFFFFFFFFFFFFFFFFFFFFFFFFF AND EQ SWAP1 POP SWAP1 JUMP JUMPDEST PUSH2 0x9C6 PUSH2 0xB00 JUMP JUMPDEST PUSH20 0xFFFFFFFFFFFFFFFFFFFFFFFFFFFFFFFFFFFFFFFF AND PUSH2 0x9E4 PUSH2 0x809 JUMP JUMPDEST PUSH20 0xFFFFFFFFFFFFFFFFFFFFFFFFFFFFFFFFFFFFFFFF AND EQ PUSH2 0xA3A JUMPI PUSH1 0x40 MLOAD PUSH32 0x8C379A000000000000000000000000000000000000000000000000000000000 DUP2 MSTORE PUSH1 0x4 ADD PUSH2 0xA31 SWAP1 PUSH2 0x13F9 JUMP JUMPDEST PUSH1 0x40 MLOAD DUP1 SWAP2 SUB SWAP1 REVERT JUMPDEST JUMP JUMPDEST PUSH1 0x0 DUP1 PUSH1 0x0 SWAP1 SLOAD SWAP1 PUSH2 0x100 EXP SWAP1 DIV PUSH20 0xFFFFFFFFFFFFFFFFFFFFFFFFFFFFFFFFFFFFFFFF AND SWAP1 POP DUP2 PUSH1 0x0 DUP1 PUSH2 0x100 EXP DUP2 SLOAD DUP2 PUSH20 0xFFFFFFFFFFFFFFFFFFFFFFFFFFFFFFFFFFFFFFFF MUL NOT AND SWAP1 DUP4 PUSH20 0xFFFFFFFFFFFFFFFFFFFFFFFFFFFFFFFFFFFFFFFF AND MUL OR SWAP1 SSTORE POP DUP2 PUSH20 0xFFFFFFFFFFFFFFFFFFFFFFFFFFFFFFFFFFFFFFFF AND DUP2 PUSH20 0xFFFFFFFFFFFFFFFFFFFFFFFFFFFFFFFFFFFFFFFF AND PUSH32 0x8BE0079C531659141344CD1FD0A4F28419497F9722A3DAAFE3B4186F6B6457E0 PUSH1 0x40 MLOAD PUSH1 0x40 MLOAD DUP1 SWAP2 SUB SWAP1 LOG3 POP POP JUMP JUMPDEST PUSH1 0x0 CALLER SWAP1 POP SWAP1 JUMP JUMPDEST PUSH1 0x0 DUP2 SWAP1 POP SWAP2 SWAP1 POP JUMP JUMPDEST PUSH2 0xB1B DUP2 PUSH2 0xB08 JUMP JUMPDEST DUP3 MSTORE POP POP JUMP JUMPDEST PUSH1 0x0 PUSH1 0x20 DUP3 ADD SWAP1 POP PUSH2 0xB36 PUSH1 0x0 DUP4 ADD DUP5 PUSH2 0xB12 JUMP JUMPDEST SWAP3 SWAP2 POP POP JUMP JUMPDEST PUSH1 0x0 DUP1 REVERT JUMPDEST PUSH1 0x0 PUSH20 0xFFFFFFFFFFFFFFFFFFFFFFFFFFFFFFFFFFFFFFFF DUP3 AND SWAP1 POP SWAP2 SWAP1 POP JUMP JUMPDEST PUSH1 0x0 PUSH2 0xB6C DUP3 PUSH2 0xB41 JUMP JUMPDEST SWAP1 POP SWAP2 SWAP1 POP JUMP JUMPDEST PUSH2 0xB7C DUP2 PUSH2 0xB61 JUMP JUMPDEST DUP2 EQ PUSH2 0xB87 JUMPI PUSH1 0x0 DUP1 REVERT JUMPDEST POP JUMP JUMPDEST PUSH1 0x0 DUP2 CALLDATALOAD SWAP1 POP PUSH2 0xB99 DUP2 PUSH2 0xB73 JUMP JUMPDEST SWAP3 SWAP2 POP POP JUMP JUMPDEST PUSH2 0xBA8 DUP2 PUSH2 0xB08 JUMP JUMPDEST DUP2 EQ PUSH2 0xBB3 JUMPI PUSH1 0x0 DUP1 REVERT JUMPDEST POP JUMP JUMPDEST PUSH1 0x0 DUP2 CALLDATALOAD SWAP1 POP PUSH2 0xBC5 DUP2 PUSH2 0xB9F JUMP JUMPDEST SWAP3 SWAP2 POP POP JUMP JUMPDEST PUSH1 0x0 DUP1 PUSH1 0x40 DUP4 DUP6 SUB SLT ISZERO PUSH2 0xBE2 JUMPI PUSH2 0xBE1 PUSH2 0xB3C JUMP JUMPDEST JUMPDEST PUSH1 0x0 PUSH2 0xBF0 DUP6 DUP3 DUP7 ADD PUSH2 0xB8A JUMP JUMPDEST SWAP3 POP POP PUSH1 0x20 PUSH2 0xC01 DUP6 DUP3 DUP7 ADD PUSH2 0xBB6 JUMP JUMPDEST SWAP2 POP POP SWAP3 POP SWAP3 SWAP1 POP JUMP JUMPDEST PUSH1 0x0 PUSH2 0xC16 DUP3 PUSH2 0xB41 JUMP JUMPDEST SWAP1 POP SWAP2 SWAP1 POP JUMP JUMPDEST PUSH2 0xC26 DUP2 PUSH2 0xC0B JUMP JUMPDEST DUP2 EQ PUSH2 0xC31 JUMPI PUSH1 0x0 DUP1 REVERT JUMPDEST POP JUMP JUMPDEST PUSH1 0x0 DUP2 CALLDATALOAD SWAP1 POP PUSH2 0xC43 DUP2 PUSH2 0xC1D JUMP JUMPDEST SWAP3 SWAP2 POP POP JUMP JUMPDEST PUSH1 0x0 DUP1 PUSH1 0x40 DUP4 DUP6 SUB SLT ISZERO PUSH2 0xC60 JUMPI PUSH2 0xC5F PUSH2 0xB3C JUMP JUMPDEST JUMPDEST PUSH1 0x0 PUSH2 0xC6E DUP6 DUP3 DUP7 ADD PUSH2 0xC34 JUMP JUMPDEST SWAP3 POP POP PUSH1 0x20 PUSH2 0xC7F DUP6 DUP3 DUP7 ADD PUSH2 0xBB6 JUMP JUMPDEST SWAP2 POP POP SWAP3 POP SWAP3 SWAP1 POP JUMP JUMPDEST PUSH2 0xC92 DUP2 PUSH2 0xC0B JUMP JUMPDEST DUP3 MSTORE POP POP JUMP JUMPDEST PUSH1 0x0 PUSH1 0x20 DUP3 ADD SWAP1 POP PUSH2 0xCAD PUSH1 0x0 DUP4 ADD DUP5 PUSH2 0xC89 JUMP JUMPDEST SWAP3 SWAP2 POP POP JUMP JUMPDEST PUSH1 0x0 PUSH1 0x20 DUP3 DUP5 SUB SLT ISZERO PUSH2 0xCC9 JUMPI PUSH2 0xCC8 PUSH2 0xB3C JUMP JUMPDEST JUMPDEST PUSH1 0x0 PUSH2 0xCD7 DUP5 DUP3 DUP6 ADD PUSH2 0xC34 JUMP JUMPDEST SWAP2 POP POP SWAP3 SWAP2 POP POP JUMP JUMPDEST PUSH1 0x0 PUSH1 0x40 DUP3 ADD SWAP1 POP PUSH2 0xCF5 PUSH1 0x0 DUP4 ADD DUP6 PUSH2 0xB12 JUMP JUMPDEST PUSH2 0xD02 PUSH1 0x20 DUP4 ADD DUP5 PUSH2 0xB12 JUMP JUMPDEST SWAP4 SWAP3 POP POP POP JUMP JUMPDEST PUSH1 0x0 DUP3 DUP3 MSTORE PUSH1 0x20 DUP3 ADD SWAP1 POP SWAP3 SWAP2 POP POP JUMP JUMPDEST PUSH32 0x546865206F776E65722073686F756C6420757365206F776E6572576974686472 PUSH1 0x0 DUP3 ADD MSTORE PUSH32 0x61772066756E6374696F6E000000000000000000000000000000000000000000 PUSH1 0x20 DUP3 ADD MSTORE POP JUMP JUMPDEST PUSH1 0x0 PUSH2 0xD76 PUSH1 0x2B DUP4 PUSH2 0xD09 JUMP JUMPDEST SWAP2 POP PUSH2 0xD81 DUP3 PUSH2 0xD1A JUMP JUMPDEST PUSH1 0x40 DUP3 ADD SWAP1 POP SWAP2 SWAP1 POP JUMP JUMPDEST PUSH1 0x0 PUSH1 0x20 DUP3 ADD SWAP1 POP DUP2 DUP2 SUB PUSH1 0x0 DUP4 ADD MSTORE PUSH2 0xDA5 DUP2 PUSH2 0xD69 JUMP JUMPDEST SWAP1 POP SWAP2 SWAP1 POP JUMP JUMPDEST PUSH32 0x5468657265206973206E6F206D6F6E657920696E207468652077616C6C657420 PUSH1 0x0 DUP3 ADD MSTORE PUSH32 0x746F20636C61696D000000000000000000000000000000000000000000000000 PUSH1 0x20 DUP3 ADD MSTORE POP JUMP JUMPDEST PUSH1 0x0 PUSH2 0xE08 PUSH1 0x28 DUP4 PUSH2 0xD09 JUMP JUMPDEST SWAP2 POP PUSH2 0xE13 DUP3 PUSH2 0xDAC JUMP JUMPDEST PUSH1 0x40 DUP3 ADD SWAP1 POP SWAP2 SWAP1 POP JUMP JUMPDEST PUSH1 0x0 PUSH1 0x20 DUP3 ADD SWAP1 POP DUP2 DUP2 SUB PUSH1 0x0 DUP4 ADD MSTORE PUSH2 0xE37 DUP2 PUSH2 0xDFB JUMP JUMPDEST SWAP1 POP SWAP2 SWAP1 POP JUMP JUMPDEST PUSH32 0x596F7520646F206E6F74206861766520616E7920616C6C6F77616E6365000000 PUSH1 0x0 DUP3 ADD MSTORE POP JUMP JUMPDEST PUSH1 0x0 PUSH2 0xE74 PUSH1 0x1D DUP4 PUSH2 0xD09 JUMP JUMPDEST SWAP2 POP PUSH2 0xE7F DUP3 PUSH2 0xE3E JUMP JUMPDEST PUSH1 0x20 DUP3 ADD SWAP1 POP SWAP2 SWAP1 POP JUMP JUMPDEST PUSH1 0x0 PUSH1 0x20 DUP3 ADD SWAP1 POP DUP2 DUP2 SUB PUSH1 0x0 DUP4 ADD MSTORE PUSH2 0xEA3 DUP2 PUSH2 0xE67 JUMP JUMPDEST SWAP1 POP SWAP2 SWAP1 POP JUMP JUMPDEST PUSH32 0x4E487B7100000000000000000000000000000000000000000000000000000000 PUSH1 0x0 MSTORE PUSH1 0x11 PUSH1 0x4 MSTORE PUSH1 0x24 PUSH1 0x0 REVERT JUMPDEST PUSH1 0x0 PUSH2 0xEE4 DUP3 PUSH2 0xB08 JUMP JUMPDEST SWAP2 POP PUSH2 0xEEF DUP4 PUSH2 0xB08 JUMP JUMPDEST SWAP3 POP DUP3 DUP3 ADD SWAP1 POP DUP1 DUP3 GT ISZERO PUSH2 0xF07 JUMPI PUSH2 0xF06 PUSH2 0xEAA JUMP JUMPDEST JUMPDEST SWAP3 SWAP2 POP POP JUMP JUMPDEST PUSH1 0x0 PUSH2 0xF18 DUP3 PUSH2 0xB08 JUMP JUMPDEST SWAP2 POP PUSH2 0xF23 DUP4 PUSH2 0xB08 JUMP JUMPDEST SWAP3 POP DUP2 PUSH32 0xFFFFFFFFFFFFFFFFFFFFFFFFFFFFFFFFFFFFFFFFFFFFFFFFFFFFFFFFFFFFFFFF DIV DUP4 GT DUP3 ISZERO ISZERO AND ISZERO PUSH2 0xF5C JUMPI PUSH2 0xF5B PUSH2 0xEAA JUMP JUMPDEST JUMPDEST DUP3 DUP3 MUL SWAP1 POP SWAP3 SWAP2 POP POP JUMP JUMPDEST PUSH32 0x4E487B7100000000000000000000000000000000000000000000000000000000 PUSH1 0x0 MSTORE PUSH1 0x12 PUSH1 0x4 MSTORE PUSH1 0x24 PUSH1 0x0 REVERT JUMPDEST PUSH1 0x0 PUSH2 0xFA1 DUP3 PUSH2 0xB08 JUMP JUMPDEST SWAP2 POP PUSH2 0xFAC DUP4 PUSH2 0xB08 JUMP JUMPDEST SWAP3 POP DUP3 PUSH2 0xFBC JUMPI PUSH2 0xFBB PUSH2 0xF67 JUMP JUMPDEST JUMPDEST DUP3 DUP3 DIV SWAP1 POP SWAP3 SWAP2 POP POP JUMP JUMPDEST PUSH1 0x0 PUSH2 0xFD2 DUP3 PUSH2 0xB08 JUMP JUMPDEST SWAP2 POP PUSH2 0xFDD DUP4 PUSH2 0xB08 JUMP JUMPDEST SWAP3 POP DUP3 DUP3 SUB SWAP1 POP DUP2 DUP2 GT ISZERO PUSH2 0xFF5 JUMPI PUSH2 0xFF4 PUSH2 0xEAA JUMP JUMPDEST JUMPDEST SWAP3 SWAP2 POP POP JUMP JUMPDEST PUSH32 0x54686520616D6F756E7420697320746F6F206869676800000000000000000000 PUSH1 0x0 DUP3 ADD MSTORE POP JUMP JUMPDEST PUSH1 0x0 PUSH2 0x1031 PUSH1 0x16 DUP4 PUSH2 0xD09 JUMP JUMPDEST SWAP2 POP PUSH2 0x103C DUP3 PUSH2 0xFFB JUMP JUMPDEST PUSH1 0x20 DUP3 ADD SWAP1 POP SWAP2 SWAP1 POP JUMP JUMPDEST PUSH1 0x0 PUSH1 0x20 DUP3 ADD SWAP1 POP DUP2 DUP2 SUB PUSH1 0x0 DUP4 ADD MSTORE PUSH2 0x1060 DUP2 PUSH2 0x1024 JUMP JUMPDEST SWAP1 POP SWAP2 SWAP1 POP JUMP JUMPDEST PUSH32 0x416E20616C6C6F77616E6365206973206E6F7420726571756972656420666F72 PUSH1 0x0 DUP3 ADD MSTORE PUSH32 0x20746865206F776E657200000000000000000000000000000000000000000000 PUSH1 0x20 DUP3 ADD MSTORE POP JUMP JUMPDEST PUSH1 0x0 PUSH2 0x10C3 PUSH1 0x2A DUP4 PUSH2 0xD09 JUMP JUMPDEST SWAP2 POP PUSH2 0x10CE DUP3 PUSH2 0x1067 JUMP JUMPDEST PUSH1 0x40 DUP3 ADD SWAP1 POP SWAP2 SWAP1 POP JUMP JUMPDEST PUSH1 0x0 PUSH1 0x20 DUP3 ADD SWAP1 POP DUP2 DUP2 SUB PUSH1 0x0 DUP4 ADD MSTORE PUSH2 0x10F2 DUP2 PUSH2 0x10B6 JUMP JUMPDEST SWAP1 POP SWAP2 SWAP1 POP JUMP JUMPDEST PUSH32 0x546865206164647265737320616C72656164792068617320616E20616C6C6F77 PUSH1 0x0 DUP3 ADD MSTORE PUSH32 0x616E636500000000000000000000000000000000000000000000000000000000 PUSH1 0x20 DUP3 ADD MSTORE POP JUMP JUMPDEST PUSH1 0x0 PUSH2 0x1155 PUSH1 0x24 DUP4 PUSH2 0xD09 JUMP JUMPDEST SWAP2 POP PUSH2 0x1160 DUP3 PUSH2 0x10F9 JUMP JUMPDEST PUSH1 0x40 DUP3 ADD SWAP1 POP SWAP2 SWAP1 POP JUMP JUMPDEST PUSH1 0x0 PUSH1 0x20 DUP3 ADD SWAP1 POP DUP2 DUP2 SUB PUSH1 0x0 DUP4 ADD MSTORE PUSH2 0x1184 DUP2 PUSH2 0x1148 JUMP JUMPDEST SWAP1 POP SWAP2 SWAP1 POP JUMP JUMPDEST PUSH32 0x5468697320776F756C64206F7665722D616C6C6F636174652074686520616C6C PUSH1 0x0 DUP3 ADD MSTORE PUSH32 0x6F77616E63657300000000000000000000000000000000000000000000000000 PUSH1 0x20 DUP3 ADD MSTORE POP JUMP JUMPDEST PUSH1 0x0 PUSH2 0x11E7 PUSH1 0x27 DUP4 PUSH2 0xD09 JUMP JUMPDEST SWAP2 POP PUSH2 0x11F2 DUP3 PUSH2 0x118B JUMP JUMPDEST PUSH1 0x40 DUP3 ADD SWAP1 POP SWAP2 SWAP1 POP JUMP JUMPDEST PUSH1 0x0 PUSH1 0x20 DUP3 ADD SWAP1 POP DUP2 DUP2 SUB PUSH1 0x0 DUP4 ADD MSTORE PUSH2 0x1216 DUP2 PUSH2 0x11DA JUMP JUMPDEST SWAP1 POP SWAP2 SWAP1 POP JUMP JUMPDEST PUSH32 0x63616E27742072656E6F756E63654F776E657273686970206865726500000000 PUSH1 0x0 DUP3 ADD MSTORE POP JUMP JUMPDEST PUSH1 0x0 PUSH2 0x1253 PUSH1 0x1C DUP4 PUSH2 0xD09 JUMP JUMPDEST SWAP2 POP PUSH2 0x125E DUP3 PUSH2 0x121D JUMP JUMPDEST PUSH1 0x20 DUP3 ADD SWAP1 POP SWAP2 SWAP1 POP JUMP JUMPDEST PUSH1 0x0 PUSH1 0x20 DUP3 ADD SWAP1 POP DUP2 DUP2 SUB PUSH1 0x0 DUP4 ADD MSTORE PUSH2 0x1282 DUP2 PUSH2 0x1246 JUMP JUMPDEST SWAP1 POP SWAP2 SWAP1 POP JUMP JUMPDEST PUSH32 0x416D6F756E74206973206C6172676572207468616E20636F6E74726163742062 PUSH1 0x0 DUP3 ADD MSTORE PUSH32 0x616C616E63650000000000000000000000000000000000000000000000000000 PUSH1 0x20 DUP3 ADD MSTORE POP JUMP JUMPDEST PUSH1 0x0 PUSH2 0x12E5 PUSH1 0x26 DUP4 PUSH2 0xD09 JUMP JUMPDEST SWAP2 POP PUSH2 0x12F0 DUP3 PUSH2 0x1289 JUMP JUMPDEST PUSH1 0x40 DUP3 ADD SWAP1 POP SWAP2 SWAP1 POP JUMP JUMPDEST PUSH1 0x0 PUSH1 0x20 DUP3 ADD SWAP1 POP DUP2 DUP2 SUB PUSH1 0x0 DUP4 ADD MSTORE PUSH2 0x1314 DUP2 PUSH2 0x12D8 JUMP JUMPDEST SWAP1 POP SWAP2 SWAP1 POP JUMP JUMPDEST PUSH32 0x4F776E61626C653A206E6577206F776E657220697320746865207A65726F2061 PUSH1 0x0 DUP3 ADD MSTORE PUSH32 0x6464726573730000000000000000000000000000000000000000000000000000 PUSH1 0x20 DUP3 ADD MSTORE POP JUMP JUMPDEST PUSH1 0x0 PUSH2 0x1377 PUSH1 0x26 DUP4 PUSH2 0xD09 JUMP JUMPDEST SWAP2 POP PUSH2 0x1382 DUP3 PUSH2 0x131B JUMP JUMPDEST PUSH1 0x40 DUP3 ADD SWAP1 POP SWAP2 SWAP1 POP JUMP JUMPDEST PUSH1 0x0 PUSH1 0x20 DUP3 ADD SWAP1 POP DUP2 DUP2 SUB PUSH1 0x0 DUP4 ADD MSTORE PUSH2 0x13A6 DUP2 PUSH2 0x136A JUMP JUMPDEST SWAP1 POP SWAP2 SWAP1 POP JUMP JUMPDEST PUSH32 0x4F776E61626C653A2063616C6C6572206973206E6F7420746865206F776E6572 PUSH1 0x0 DUP3 ADD MSTORE POP JUMP JUMPDEST PUSH1 0x0 PUSH2 0x13E3 PUSH1 0x20 DUP4 PUSH2 0xD09 JUMP JUMPDEST SWAP2 POP PUSH2 0x13EE DUP3 PUSH2 0x13AD JUMP JUMPDEST PUSH1 0x20 DUP3 ADD SWAP1 POP SWAP2 SWAP1 POP JUMP JUMPDEST PUSH1 0x0 PUSH1 0x20 DUP3 ADD SWAP1 POP DUP2 DUP2 SUB PUSH1 0x0 DUP4 ADD MSTORE PUSH2 0x1412 DUP2 PUSH2 0x13D6 JUMP JUMPDEST SWAP1 POP SWAP2 SWAP1 POP JUMP INVALID LOG2 PUSH5 0x6970667358 0x22 SLT KECCAK256 SWAP12 0xA8 STOP 0xC GT DUP8 DUP8 0x22 0xFB RETURN 0x24 SUB SHR PUSH27 0x57C0C98FA6C45D7744C765423DB88A32AD6D64736F6C6343000810 STOP CALLER "
				},
				"gasEstimates": {
					"creation": {
						"codeDepositCost": "1039800",
						"executionCost": "infinite",
						"totalCost": "infinite"
					},
					"external": {
						"ClaimMoney(address,uint256)": "infinite",
						"SendMoney()": "22237",
						"SetAllowance(address,uint256)": "infinite",
						"contractBalance()": "2451",
						"owner()": "2566",
						"ownerWithdraw(address,uint256)": "infinite",
						"renounceOwnership()": "2698",
						"totalAllowances()": "2452",
						"totalClaims()": "2518",
						"transferOwnership(address)": "30854",
						"users(address)": "infinite"
					},
					"internal": {
						"isOwner()": "2211"
					}
				},
				"methodIdentifiers": {
					"ClaimMoney(address,uint256)": "2d70db2f",
					"SendMoney()": "05737314",
					"SetAllowance(address,uint256)": "3e7279a3",
					"contractBalance()": "8b7afe2e",
					"owner()": "8da5cb5b",
					"ownerWithdraw(address,uint256)": "d9c88e14",
					"renounceOwnership()": "715018a6",
					"totalAllowances()": "16a51305",
					"totalClaims()": "41c61383",
					"transferOwnership(address)": "f2fde38b",
					"users(address)": "a87430ba"
				}
			},
			"storageLayout": {
				"storage": [
					{
						"astId": 285,
						"contract": "MyProjectSharedWallet.sol:SharedWallet",
						"label": "_owner",
						"offset": 0,
						"slot": "0",
						"type": "t_address"
					},
					{
						"astId": 14,
						"contract": "MyProjectSharedWallet.sol:SharedWallet",
						"label": "users",
						"offset": 0,
						"slot": "1",
						"type": "t_mapping(t_address,t_struct(UserDetails)9_storage)"
					},
					{
						"astId": 16,
						"contract": "MyProjectSharedWallet.sol:SharedWallet",
						"label": "totalAllowances",
						"offset": 0,
						"slot": "2",
						"type": "t_uint256"
					},
					{
						"astId": 18,
						"contract": "MyProjectSharedWallet.sol:SharedWallet",
						"label": "totalClaims",
						"offset": 0,
						"slot": "3",
						"type": "t_uint256"
					},
					{
						"astId": 20,
						"contract": "MyProjectSharedWallet.sol:SharedWallet",
						"label": "contractBalance",
						"offset": 0,
						"slot": "4",
						"type": "t_uint256"
					}
				],
				"types": {
					"t_address": {
						"encoding": "inplace",
						"label": "address",
						"numberOfBytes": "20"
					},
					"t_mapping(t_address,t_struct(UserDetails)9_storage)": {
						"encoding": "mapping",
						"key": "t_address",
						"label": "mapping(address => struct SharedWallet.UserDetails)",
						"numberOfBytes": "32",
						"value": "t_struct(UserDetails)9_storage"
					},
					"t_struct(UserDetails)9_storage": {
						"encoding": "inplace",
						"label": "struct SharedWallet.UserDetails",
						"members": [
							{
								"astId": 6,
								"contract": "MyProjectSharedWallet.sol:SharedWallet",
								"label": "allowance",
								"offset": 0,
								"slot": "0",
								"type": "t_uint256"
							},
							{
								"astId": 8,
								"contract": "MyProjectSharedWallet.sol:SharedWallet",
								"label": "claimsMade",
								"offset": 0,
								"slot": "1",
								"type": "t_uint256"
							}
						],
						"numberOfBytes": "64"
					},
					"t_uint256": {
						"encoding": "inplace",
						"label": "uint256",
						"numberOfBytes": "32"
					}
				}
			},
			"userdoc": {
				"kind": "user",
				"methods": {},
				"version": 1
			}
		}
	}
}