{
	"MyProjectSharedWallet.sol": {
		"SharedWallet": {
			"abi": [
				{
					"anonymous": false,
					"inputs": [
						{
							"indexed": true,
							"internalType": "address",
							"name": "_forWho",
							"type": "address"
						},
						{
							"indexed": true,
							"internalType": "address",
							"name": "_byWhom",
							"type": "address"
						},
						{
							"indexed": false,
							"internalType": "uint256",
							"name": "_sentAmount",
							"type": "uint256"
						}
					],
					"name": "ClaimEvent",
					"type": "event"
				},
				{
					"anonymous": false,
					"inputs": [
						{
							"indexed": true,
							"internalType": "address",
							"name": "previousOwner",
							"type": "address"
						},
						{
							"indexed": true,
							"internalType": "address",
							"name": "newOwner",
							"type": "address"
						}
					],
					"name": "OwnershipTransferred",
					"type": "event"
				},
				{
					"inputs": [
						{
							"internalType": "address payable",
							"name": "_to",
							"type": "address"
						},
						{
							"internalType": "uint256",
							"name": "_amount",
							"type": "uint256"
						}
					],
					"name": "ClaimMoney",
					"outputs": [],
					"stateMutability": "nonpayable",
					"type": "function"
				},
				{
					"inputs": [],
					"name": "SendMoney",
					"outputs": [],
					"stateMutability": "payable",
					"type": "function"
				},
				{
					"inputs": [
						{
							"internalType": "address",
							"name": "_user",
							"type": "address"
						},
						{
							"internalType": "uint256",
							"name": "_allowancePercentage",
							"type": "uint256"
						}
					],
					"name": "SetAllowance",
					"outputs": [],
					"stateMutability": "nonpayable",
					"type": "function"
				},
				{
					"inputs": [],
					"name": "contractBalance",
					"outputs": [
						{
							"internalType": "uint256",
							"name": "",
							"type": "uint256"
						}
					],
					"stateMutability": "view",
					"type": "function"
				},
				{
					"inputs": [],
					"name": "isOwner",
					"outputs": [
						{
							"internalType": "bool",
							"name": "",
							"type": "bool"
						}
					],
					"stateMutability": "view",
					"type": "function"
				},
				{
					"inputs": [],
					"name": "owner",
					"outputs": [
						{
							"internalType": "address",
							"name": "",
							"type": "address"
						}
					],
					"stateMutability": "view",
					"type": "function"
				},
				{
					"inputs": [
						{
							"internalType": "address payable",
							"name": "_to",
							"type": "address"
						},
						{
							"internalType": "uint256",
							"name": "_amount",
							"type": "uint256"
						}
					],
					"name": "ownerWithdraw",
					"outputs": [],
					"stateMutability": "nonpayable",
					"type": "function"
				},
				{
					"inputs": [],
					"name": "renounceOwnership",
					"outputs": [],
					"stateMutability": "view",
					"type": "function"
				},
				{
					"inputs": [],
					"name": "totalAllowances",
					"outputs": [
						{
							"internalType": "uint256",
							"name": "",
							"type": "uint256"
						}
					],
					"stateMutability": "view",
					"type": "function"
				},
				{
					"inputs": [],
					"name": "totalClaims",
					"outputs": [
						{
							"internalType": "uint256",
							"name": "",
							"type": "uint256"
						}
					],
					"stateMutability": "view",
					"type": "function"
				},
				{
					"inputs": [
						{
							"internalType": "address",
							"name": "newOwner",
							"type": "address"
						}
					],
					"name": "transferOwnership",
					"outputs": [],
					"stateMutability": "nonpayable",
					"type": "function"
				},
				{
					"inputs": [
						{
							"internalType": "address",
							"name": "",
							"type": "address"
						}
					],
					"name": "users",
					"outputs": [
						{
							"internalType": "uint256",
							"name": "allowance",
							"type": "uint256"
						},
						{
							"internalType": "uint256",
							"name": "claimsMade",
							"type": "uint256"
						}
					],
					"stateMutability": "view",
					"type": "function"
				},
				{
					"stateMutability": "payable",
					"type": "receive"
				}
			],
			"devdoc": {
				"kind": "dev",
				"methods": {
					"owner()": {
						"details": "Returns the address of the current owner."
					},
					"renounceOwnership()": {
						"details": "Leaves the contract without owner. It will not be possible to call `onlyOwner` functions anymore. Can only be called by the current owner. NOTE: Renouncing ownership will leave the contract without an owner, thereby removing any functionality that is only available to the owner."
					},
					"transferOwnership(address)": {
						"details": "Transfers ownership of the contract to a new account (`newOwner`). Can only be called by the current owner."
					}
				},
				"version": 1
			},
			"evm": {
				"assembly": "    /* \"MyProjectSharedWallet.sol\":262:3256  contract SharedWallet is Ownable {... */\n  mstore(0x40, 0x80)\n  callvalue\n  dup1\n  iszero\n  tag_1\n  jumpi\n  0x00\n  dup1\n  revert\ntag_1:\n  pop\n    /* \"https://github.com/OpenZeppelin/openzeppelin-contracts/blob/master/contracts/access/Ownable.sol\":936:968  _transferOwnership(_msgSender()) */\n  tag_4\n    /* \"https://github.com/OpenZeppelin/openzeppelin-contracts/blob/master/contracts/access/Ownable.sol\":955:967  _msgSender() */\n  tag_5\n    /* \"https://github.com/OpenZeppelin/openzeppelin-contracts/blob/master/contracts/access/Ownable.sol\":955:965  _msgSender */\n  shl(0x20, tag_6)\n    /* \"https://github.com/OpenZeppelin/openzeppelin-contracts/blob/master/contracts/access/Ownable.sol\":955:967  _msgSender() */\n  0x20\n  shr\n  jump\t// in\ntag_5:\n    /* \"https://github.com/OpenZeppelin/openzeppelin-contracts/blob/master/contracts/access/Ownable.sol\":936:954  _transferOwnership */\n  shl(0x20, tag_7)\n    /* \"https://github.com/OpenZeppelin/openzeppelin-contracts/blob/master/contracts/access/Ownable.sol\":936:968  _transferOwnership(_msgSender()) */\n  0x20\n  shr\n  jump\t// in\ntag_4:\n    /* \"MyProjectSharedWallet.sol\":262:3256  contract SharedWallet is Ownable {... */\n  jump(tag_8)\n    /* \"https://github.com/OpenZeppelin/openzeppelin-contracts/blob/master/contracts/utils/Context.sol\":640:736  function _msgSender() internal view virtual returns (address) {... */\ntag_6:\n    /* \"https://github.com/OpenZeppelin/openzeppelin-contracts/blob/master/contracts/utils/Context.sol\":693:700  address */\n  0x00\n    /* \"https://github.com/OpenZeppelin/openzeppelin-contracts/blob/master/contracts/utils/Context.sol\":719:729  msg.sender */\n  caller\n    /* \"https://github.com/OpenZeppelin/openzeppelin-contracts/blob/master/contracts/utils/Context.sol\":712:729  return msg.sender */\n  swap1\n  pop\n    /* \"https://github.com/OpenZeppelin/openzeppelin-contracts/blob/master/contracts/utils/Context.sol\":640:736  function _msgSender() internal view virtual returns (address) {... */\n  swap1\n  jump\t// out\n    /* \"https://github.com/OpenZeppelin/openzeppelin-contracts/blob/master/contracts/access/Ownable.sol\":2433:2620  function _transferOwnership(address newOwner) internal virtual {... */\ntag_7:\n    /* \"https://github.com/OpenZeppelin/openzeppelin-contracts/blob/master/contracts/access/Ownable.sol\":2506:2522  address oldOwner */\n  0x00\n    /* \"https://github.com/OpenZeppelin/openzeppelin-contracts/blob/master/contracts/access/Ownable.sol\":2525:2531  _owner */\n  dup1\n  0x00\n  swap1\n  sload\n  swap1\n  0x0100\n  exp\n  swap1\n  div\n  0xffffffffffffffffffffffffffffffffffffffff\n  and\n    /* \"https://github.com/OpenZeppelin/openzeppelin-contracts/blob/master/contracts/access/Ownable.sol\":2506:2531  address oldOwner = _owner */\n  swap1\n  pop\n    /* \"https://github.com/OpenZeppelin/openzeppelin-contracts/blob/master/contracts/access/Ownable.sol\":2550:2558  newOwner */\n  dup2\n    /* \"https://github.com/OpenZeppelin/openzeppelin-contracts/blob/master/contracts/access/Ownable.sol\":2541:2547  _owner */\n  0x00\n  dup1\n    /* \"https://github.com/OpenZeppelin/openzeppelin-contracts/blob/master/contracts/access/Ownable.sol\":2541:2558  _owner = newOwner */\n  0x0100\n  exp\n  dup2\n  sload\n  dup2\n  0xffffffffffffffffffffffffffffffffffffffff\n  mul\n  not\n  and\n  swap1\n  dup4\n  0xffffffffffffffffffffffffffffffffffffffff\n  and\n  mul\n  or\n  swap1\n  sstore\n  pop\n    /* \"https://github.com/OpenZeppelin/openzeppelin-contracts/blob/master/contracts/access/Ownable.sol\":2604:2612  newOwner */\n  dup2\n    /* \"https://github.com/OpenZeppelin/openzeppelin-contracts/blob/master/contracts/access/Ownable.sol\":2573:2613  OwnershipTransferred(oldOwner, newOwner) */\n  0xffffffffffffffffffffffffffffffffffffffff\n  and\n    /* \"https://github.com/OpenZeppelin/openzeppelin-contracts/blob/master/contracts/access/Ownable.sol\":2594:2602  oldOwner */\n  dup2\n    /* \"https://github.com/OpenZeppelin/openzeppelin-contracts/blob/master/contracts/access/Ownable.sol\":2573:2613  OwnershipTransferred(oldOwner, newOwner) */\n  0xffffffffffffffffffffffffffffffffffffffff\n  and\n  0x8be0079c531659141344cd1fd0a4f28419497f9722a3daafe3b4186f6b6457e0\n  mload(0x40)\n  mload(0x40)\n  dup1\n  swap2\n  sub\n  swap1\n  log3\n    /* \"https://github.com/OpenZeppelin/openzeppelin-contracts/blob/master/contracts/access/Ownable.sol\":2496:2620  {... */\n  pop\n    /* \"https://github.com/OpenZeppelin/openzeppelin-contracts/blob/master/contracts/access/Ownable.sol\":2433:2620  function _transferOwnership(address newOwner) internal virtual {... */\n  pop\n  jump\t// out\n    /* \"MyProjectSharedWallet.sol\":262:3256  contract SharedWallet is Ownable {... */\ntag_8:\n  dataSize(sub_0)\n  dup1\n  dataOffset(sub_0)\n  0x00\n  codecopy\n  0x00\n  return\nstop\n\nsub_0: assembly {\n        /* \"MyProjectSharedWallet.sol\":262:3256  contract SharedWallet is Ownable {... */\n      mstore(0x40, 0x80)\n      jumpi(tag_1, lt(calldatasize, 0x04))\n      shr(0xe0, calldataload(0x00))\n      dup1\n      0x8b7afe2e\n      gt\n      tag_15\n      jumpi\n      dup1\n      0x8b7afe2e\n      eq\n      tag_9\n      jumpi\n      dup1\n      0x8da5cb5b\n      eq\n      tag_10\n      jumpi\n      dup1\n      0x8f32d59b\n      eq\n      tag_11\n      jumpi\n      dup1\n      0xa87430ba\n      eq\n      tag_12\n      jumpi\n      dup1\n      0xd9c88e14\n      eq\n      tag_13\n      jumpi\n      dup1\n      0xf2fde38b\n      eq\n      tag_14\n      jumpi\n      jump(tag_2)\n    tag_15:\n      dup1\n      0x05737314\n      eq\n      tag_3\n      jumpi\n      dup1\n      0x16a51305\n      eq\n      tag_4\n      jumpi\n      dup1\n      0x2d70db2f\n      eq\n      tag_5\n      jumpi\n      dup1\n      0x3e7279a3\n      eq\n      tag_6\n      jumpi\n      dup1\n      0x41c61383\n      eq\n      tag_7\n      jumpi\n      dup1\n      0x715018a6\n      eq\n      tag_8\n      jumpi\n      jump(tag_2)\n    tag_1:\n      jumpi(tag_2, calldatasize)\n        /* \"MyProjectSharedWallet.sol\":1006:1017  SendMoney() */\n      tag_18\n        /* \"MyProjectSharedWallet.sol\":1006:1015  SendMoney */\n      tag_19\n        /* \"MyProjectSharedWallet.sol\":1006:1017  SendMoney() */\n      jump\t// in\n    tag_18:\n        /* \"MyProjectSharedWallet.sol\":262:3256  contract SharedWallet is Ownable {... */\n      stop\n    tag_2:\n      0x00\n      dup1\n      revert\n        /* \"MyProjectSharedWallet.sol\":1062:1154  function SendMoney() public payable {... */\n    tag_3:\n      tag_20\n      tag_19\n      jump\t// in\n    tag_20:\n      stop\n        /* \"MyProjectSharedWallet.sol\":512:539  uint public totalAllowances */\n    tag_4:\n      callvalue\n      dup1\n      iszero\n      tag_21\n      jumpi\n      0x00\n      dup1\n      revert\n    tag_21:\n      pop\n      tag_22\n      tag_23\n      jump\t// in\n    tag_22:\n      mload(0x40)\n      tag_24\n      swap2\n      swap1\n      tag_25\n      jump\t// in\n    tag_24:\n      mload(0x40)\n      dup1\n      swap2\n      sub\n      swap1\n      return\n        /* \"MyProjectSharedWallet.sol\":1245:2166  function ClaimMoney(address payable _to, uint _amount) public {... */\n    tag_5:\n      callvalue\n      dup1\n      iszero\n      tag_26\n      jumpi\n      0x00\n      dup1\n      revert\n    tag_26:\n      pop\n      tag_27\n      0x04\n      dup1\n      calldatasize\n      sub\n      dup2\n      add\n      swap1\n      tag_28\n      swap2\n      swap1\n      tag_29\n      jump\t// in\n    tag_28:\n      tag_30\n      jump\t// in\n    tag_27:\n      stop\n        /* \"MyProjectSharedWallet.sol\":2216:2681  function SetAllowance(address _user, uint _allowancePercentage) public onlyOwner {... */\n    tag_6:\n      callvalue\n      dup1\n      iszero\n      tag_31\n      jumpi\n      0x00\n      dup1\n      revert\n    tag_31:\n      pop\n      tag_32\n      0x04\n      dup1\n      calldatasize\n      sub\n      dup2\n      add\n      swap1\n      tag_33\n      swap2\n      swap1\n      tag_34\n      jump\t// in\n    tag_33:\n      tag_35\n      jump\t// in\n    tag_32:\n      stop\n        /* \"MyProjectSharedWallet.sol\":584:607  uint public totalClaims */\n    tag_7:\n      callvalue\n      dup1\n      iszero\n      tag_36\n      jumpi\n      0x00\n      dup1\n      revert\n    tag_36:\n      pop\n      tag_37\n      tag_38\n      jump\t// in\n    tag_37:\n      mload(0x40)\n      tag_39\n      swap2\n      swap1\n      tag_25\n      jump\t// in\n    tag_39:\n      mload(0x40)\n      dup1\n      swap2\n      sub\n      swap1\n      return\n        /* \"MyProjectSharedWallet.sol\":3098:3253  function renounceOwnership() public view override onlyOwner {... */\n    tag_8:\n      callvalue\n      dup1\n      iszero\n      tag_40\n      jumpi\n      0x00\n      dup1\n      revert\n    tag_40:\n      pop\n      tag_41\n      tag_42\n      jump\t// in\n    tag_41:\n      stop\n        /* \"MyProjectSharedWallet.sol\":644:671  uint public contractBalance */\n    tag_9:\n      callvalue\n      dup1\n      iszero\n      tag_43\n      jumpi\n      0x00\n      dup1\n      revert\n    tag_43:\n      pop\n      tag_44\n      tag_45\n      jump\t// in\n    tag_44:\n      mload(0x40)\n      tag_46\n      swap2\n      swap1\n      tag_25\n      jump\t// in\n    tag_46:\n      mload(0x40)\n      dup1\n      swap2\n      sub\n      swap1\n      return\n        /* \"https://github.com/OpenZeppelin/openzeppelin-contracts/blob/master/contracts/access/Ownable.sol\":1201:1286  function owner() public view virtual returns (address) {... */\n    tag_10:\n      callvalue\n      dup1\n      iszero\n      tag_47\n      jumpi\n      0x00\n      dup1\n      revert\n    tag_47:\n      pop\n      tag_48\n      tag_49\n      jump\t// in\n    tag_48:\n      mload(0x40)\n      tag_50\n      swap2\n      swap1\n      tag_51\n      jump\t// in\n    tag_50:\n      mload(0x40)\n      dup1\n      swap2\n      sub\n      swap1\n      return\n        /* \"MyProjectSharedWallet.sol\":3002:3092  function isOwner() view public returns(bool) {... */\n    tag_11:\n      callvalue\n      dup1\n      iszero\n      tag_52\n      jumpi\n      0x00\n      dup1\n      revert\n    tag_52:\n      pop\n      tag_53\n      tag_54\n      jump\t// in\n    tag_53:\n      mload(0x40)\n      tag_55\n      swap2\n      swap1\n      tag_56\n      jump\t// in\n    tag_55:\n      mload(0x40)\n      dup1\n      swap2\n      sub\n      swap1\n      return\n        /* \"MyProjectSharedWallet.sol\":421:465  mapping(address => UserDetails) public users */\n    tag_12:\n      callvalue\n      dup1\n      iszero\n      tag_57\n      jumpi\n      0x00\n      dup1\n      revert\n    tag_57:\n      pop\n      tag_58\n      0x04\n      dup1\n      calldatasize\n      sub\n      dup2\n      add\n      swap1\n      tag_59\n      swap2\n      swap1\n      tag_60\n      jump\t// in\n    tag_59:\n      tag_61\n      jump\t// in\n    tag_58:\n      mload(0x40)\n      tag_62\n      swap3\n      swap2\n      swap1\n      tag_63\n      jump\t// in\n    tag_62:\n      mload(0x40)\n      dup1\n      swap2\n      sub\n      swap1\n      return\n        /* \"MyProjectSharedWallet.sol\":2732:2996  function ownerWithdraw(address payable _to, uint _amount) public onlyOwner {... */\n    tag_13:\n      callvalue\n      dup1\n      iszero\n      tag_64\n      jumpi\n      0x00\n      dup1\n      revert\n    tag_64:\n      pop\n      tag_65\n      0x04\n      dup1\n      calldatasize\n      sub\n      dup2\n      add\n      swap1\n      tag_66\n      swap2\n      swap1\n      tag_29\n      jump\t// in\n    tag_66:\n      tag_67\n      jump\t// in\n    tag_65:\n      stop\n        /* \"https://github.com/OpenZeppelin/openzeppelin-contracts/blob/master/contracts/access/Ownable.sol\":2081:2279  function transferOwnership(address newOwner) public virtual onlyOwner {... */\n    tag_14:\n      callvalue\n      dup1\n      iszero\n      tag_68\n      jumpi\n      0x00\n      dup1\n      revert\n    tag_68:\n      pop\n      tag_69\n      0x04\n      dup1\n      calldatasize\n      sub\n      dup2\n      add\n      swap1\n      tag_70\n      swap2\n      swap1\n      tag_60\n      jump\t// in\n    tag_70:\n      tag_71\n      jump\t// in\n    tag_69:\n      stop\n        /* \"MyProjectSharedWallet.sol\":1062:1154  function SendMoney() public payable {... */\n    tag_19:\n        /* \"MyProjectSharedWallet.sol\":1126:1147  address(this).balance */\n      selfbalance\n        /* \"MyProjectSharedWallet.sol\":1108:1123  contractBalance */\n      0x04\n        /* \"MyProjectSharedWallet.sol\":1108:1147  contractBalance = address(this).balance */\n      dup2\n      swap1\n      sstore\n      pop\n        /* \"MyProjectSharedWallet.sol\":1062:1154  function SendMoney() public payable {... */\n      jump\t// out\n        /* \"MyProjectSharedWallet.sol\":512:539  uint public totalAllowances */\n    tag_23:\n      sload(0x02)\n      dup2\n      jump\t// out\n        /* \"MyProjectSharedWallet.sol\":1245:2166  function ClaimMoney(address payable _to, uint _amount) public {... */\n    tag_30:\n        /* \"MyProjectSharedWallet.sol\":1326:1335  isOwner() */\n      tag_74\n        /* \"MyProjectSharedWallet.sol\":1326:1333  isOwner */\n      tag_54\n        /* \"MyProjectSharedWallet.sol\":1326:1335  isOwner() */\n      jump\t// in\n    tag_74:\n        /* \"MyProjectSharedWallet.sol\":1325:1335  !isOwner() */\n      iszero\n        /* \"MyProjectSharedWallet.sol\":1317:1383  require(!isOwner(), \"The owner should use ownerWithdraw function\") */\n      tag_75\n      jumpi\n      mload(0x40)\n      0x08c379a000000000000000000000000000000000000000000000000000000000\n      dup2\n      mstore\n      0x04\n      add\n      tag_76\n      swap1\n      tag_77\n      jump\t// in\n    tag_76:\n      mload(0x40)\n      dup1\n      swap2\n      sub\n      swap1\n      revert\n    tag_75:\n        /* \"MyProjectSharedWallet.sol\":1425:1426  0 */\n      0x00\n        /* \"MyProjectSharedWallet.sol\":1401:1422  address(this).balance */\n      selfbalance\n        /* \"MyProjectSharedWallet.sol\":1401:1426  address(this).balance > 0 */\n      gt\n        /* \"MyProjectSharedWallet.sol\":1393:1471  require(address(this).balance > 0, \"There is no money in the wallet to claim\") */\n      tag_78\n      jumpi\n      mload(0x40)\n      0x08c379a000000000000000000000000000000000000000000000000000000000\n      dup2\n      mstore\n      0x04\n      add\n      tag_79\n      swap1\n      tag_80\n      jump\t// in\n    tag_79:\n      mload(0x40)\n      dup1\n      swap2\n      sub\n      swap1\n      revert\n    tag_78:\n        /* \"MyProjectSharedWallet.sol\":1519:1520  0 */\n      0x00\n        /* \"MyProjectSharedWallet.sol\":1489:1494  users */\n      0x01\n        /* \"MyProjectSharedWallet.sol\":1489:1506  users[msg.sender] */\n      0x00\n        /* \"MyProjectSharedWallet.sol\":1495:1505  msg.sender */\n      caller\n        /* \"MyProjectSharedWallet.sol\":1489:1506  users[msg.sender] */\n      0xffffffffffffffffffffffffffffffffffffffff\n      and\n      0xffffffffffffffffffffffffffffffffffffffff\n      and\n      dup2\n      mstore\n      0x20\n      add\n      swap1\n      dup2\n      mstore\n      0x20\n      add\n      0x00\n      keccak256\n        /* \"MyProjectSharedWallet.sol\":1489:1516  users[msg.sender].allowance */\n      0x00\n      add\n      sload\n        /* \"MyProjectSharedWallet.sol\":1489:1520  users[msg.sender].allowance > 0 */\n      gt\n        /* \"MyProjectSharedWallet.sol\":1481:1553  require(users[msg.sender].allowance > 0,\"You do not have any allowance\") */\n      tag_81\n      jumpi\n      mload(0x40)\n      0x08c379a000000000000000000000000000000000000000000000000000000000\n      dup2\n      mstore\n      0x04\n      add\n      tag_82\n      swap1\n      tag_83\n      jump\t// in\n    tag_82:\n      mload(0x40)\n      dup1\n      swap2\n      sub\n      swap1\n      revert\n    tag_81:\n        /* \"MyProjectSharedWallet.sol\":1563:1581  uint fullAllowance */\n      0x00\n        /* \"MyProjectSharedWallet.sol\":1652:1655  100 */\n      0x64\n        /* \"MyProjectSharedWallet.sol\":1639:1650  totalClaims */\n      sload(0x03)\n        /* \"MyProjectSharedWallet.sol\":1615:1636  address(this).balance */\n      selfbalance\n        /* \"MyProjectSharedWallet.sol\":1615:1650  address(this).balance + totalClaims */\n      tag_84\n      swap2\n      swap1\n      tag_85\n      jump\t// in\n    tag_84:\n        /* \"MyProjectSharedWallet.sol\":1584:1589  users */\n      0x01\n        /* \"MyProjectSharedWallet.sol\":1584:1601  users[msg.sender] */\n      0x00\n        /* \"MyProjectSharedWallet.sol\":1590:1600  msg.sender */\n      caller\n        /* \"MyProjectSharedWallet.sol\":1584:1601  users[msg.sender] */\n      0xffffffffffffffffffffffffffffffffffffffff\n      and\n      0xffffffffffffffffffffffffffffffffffffffff\n      and\n      dup2\n      mstore\n      0x20\n      add\n      swap1\n      dup2\n      mstore\n      0x20\n      add\n      0x00\n      keccak256\n        /* \"MyProjectSharedWallet.sol\":1584:1611  users[msg.sender].allowance */\n      0x00\n      add\n      sload\n        /* \"MyProjectSharedWallet.sol\":1584:1651  users[msg.sender].allowance * (address(this).balance + totalClaims) */\n      tag_86\n      swap2\n      swap1\n      tag_87\n      jump\t// in\n    tag_86:\n        /* \"MyProjectSharedWallet.sol\":1584:1655  users[msg.sender].allowance * (address(this).balance + totalClaims)/100 */\n      tag_88\n      swap2\n      swap1\n      tag_89\n      jump\t// in\n    tag_88:\n        /* \"MyProjectSharedWallet.sol\":1563:1655  uint fullAllowance = users[msg.sender].allowance * (address(this).balance + totalClaims)/100 */\n      swap1\n      pop\n        /* \"MyProjectSharedWallet.sol\":1665:1688  uint allowanceRemaining */\n      0x00\n        /* \"MyProjectSharedWallet.sol\":1744:1749  users */\n      0x01\n        /* \"MyProjectSharedWallet.sol\":1744:1761  users[msg.sender] */\n      0x00\n        /* \"MyProjectSharedWallet.sol\":1750:1760  msg.sender */\n      caller\n        /* \"MyProjectSharedWallet.sol\":1744:1761  users[msg.sender] */\n      0xffffffffffffffffffffffffffffffffffffffff\n      and\n      0xffffffffffffffffffffffffffffffffffffffff\n      and\n      dup2\n      mstore\n      0x20\n      add\n      swap1\n      dup2\n      mstore\n      0x20\n      add\n      0x00\n      keccak256\n        /* \"MyProjectSharedWallet.sol\":1744:1772  users[msg.sender].claimsMade */\n      0x01\n      add\n      sload\n        /* \"MyProjectSharedWallet.sol\":1728:1741  fullAllowance */\n      dup3\n        /* \"MyProjectSharedWallet.sol\":1728:1772  fullAllowance > users[msg.sender].claimsMade */\n      gt\n        /* \"MyProjectSharedWallet.sol\":1724:1864  if (fullAllowance > users[msg.sender].claimsMade) {... */\n      iszero\n      tag_90\n      jumpi\n        /* \"MyProjectSharedWallet.sol\":1825:1830  users */\n      0x01\n        /* \"MyProjectSharedWallet.sol\":1825:1842  users[msg.sender] */\n      0x00\n        /* \"MyProjectSharedWallet.sol\":1831:1841  msg.sender */\n      caller\n        /* \"MyProjectSharedWallet.sol\":1825:1842  users[msg.sender] */\n      0xffffffffffffffffffffffffffffffffffffffff\n      and\n      0xffffffffffffffffffffffffffffffffffffffff\n      and\n      dup2\n      mstore\n      0x20\n      add\n      swap1\n      dup2\n      mstore\n      0x20\n      add\n      0x00\n      keccak256\n        /* \"MyProjectSharedWallet.sol\":1825:1853  users[msg.sender].claimsMade */\n      0x01\n      add\n      sload\n        /* \"MyProjectSharedWallet.sol\":1809:1822  fullAllowance */\n      dup3\n        /* \"MyProjectSharedWallet.sol\":1809:1853  fullAllowance - users[msg.sender].claimsMade */\n      tag_91\n      swap2\n      swap1\n      tag_92\n      jump\t// in\n    tag_91:\n        /* \"MyProjectSharedWallet.sol\":1788:1853  allowanceRemaining = fullAllowance - users[msg.sender].claimsMade */\n      swap1\n      pop\n        /* \"MyProjectSharedWallet.sol\":1724:1864  if (fullAllowance > users[msg.sender].claimsMade) {... */\n    tag_90:\n        /* \"MyProjectSharedWallet.sol\":1892:1910  allowanceRemaining */\n      dup1\n        /* \"MyProjectSharedWallet.sol\":1881:1888  _amount */\n      dup4\n        /* \"MyProjectSharedWallet.sol\":1881:1910  _amount <= allowanceRemaining */\n      gt\n      iszero\n        /* \"MyProjectSharedWallet.sol\":1873:1937  require(_amount <= allowanceRemaining, \"The amount is too high\") */\n      tag_93\n      jumpi\n      mload(0x40)\n      0x08c379a000000000000000000000000000000000000000000000000000000000\n      dup2\n      mstore\n      0x04\n      add\n      tag_94\n      swap1\n      tag_95\n      jump\t// in\n    tag_94:\n      mload(0x40)\n      dup1\n      swap2\n      sub\n      swap1\n      revert\n    tag_93:\n        /* \"MyProjectSharedWallet.sol\":1979:1986  _amount */\n      dup3\n        /* \"MyProjectSharedWallet.sol\":1947:1952  users */\n      0x01\n        /* \"MyProjectSharedWallet.sol\":1947:1964  users[msg.sender] */\n      0x00\n        /* \"MyProjectSharedWallet.sol\":1953:1963  msg.sender */\n      caller\n        /* \"MyProjectSharedWallet.sol\":1947:1964  users[msg.sender] */\n      0xffffffffffffffffffffffffffffffffffffffff\n      and\n      0xffffffffffffffffffffffffffffffffffffffff\n      and\n      dup2\n      mstore\n      0x20\n      add\n      swap1\n      dup2\n      mstore\n      0x20\n      add\n      0x00\n      keccak256\n        /* \"MyProjectSharedWallet.sol\":1947:1975  users[msg.sender].claimsMade */\n      0x01\n      add\n      0x00\n        /* \"MyProjectSharedWallet.sol\":1947:1986  users[msg.sender].claimsMade += _amount */\n      dup3\n      dup3\n      sload\n      tag_96\n      swap2\n      swap1\n      tag_85\n      jump\t// in\n    tag_96:\n      swap3\n      pop\n      pop\n      dup2\n      swap1\n      sstore\n      pop\n        /* \"MyProjectSharedWallet.sol\":2011:2018  _amount */\n      dup3\n        /* \"MyProjectSharedWallet.sol\":1996:2007  totalClaims */\n      0x03\n      0x00\n        /* \"MyProjectSharedWallet.sol\":1996:2018  totalClaims += _amount */\n      dup3\n      dup3\n      sload\n      tag_97\n      swap2\n      swap1\n      tag_85\n      jump\t// in\n    tag_97:\n      swap3\n      pop\n      pop\n      dup2\n      swap1\n      sstore\n      pop\n        /* \"MyProjectSharedWallet.sol\":2070:2077  _amount */\n      dup3\n        /* \"MyProjectSharedWallet.sol\":2046:2067  address(this).balance */\n      selfbalance\n        /* \"MyProjectSharedWallet.sol\":2046:2077  address(this).balance - _amount */\n      tag_98\n      swap2\n      swap1\n      tag_92\n      jump\t// in\n    tag_98:\n        /* \"MyProjectSharedWallet.sol\":2028:2043  contractBalance */\n      0x04\n        /* \"MyProjectSharedWallet.sol\":2028:2077  contractBalance = address(this).balance - _amount */\n      dup2\n      swap1\n      sstore\n      pop\n        /* \"MyProjectSharedWallet.sol\":2087:2090  _to */\n      dup4\n        /* \"MyProjectSharedWallet.sol\":2087:2099  _to.transfer */\n      0xffffffffffffffffffffffffffffffffffffffff\n      and\n        /* \"MyProjectSharedWallet.sol\":2087:2108  _to.transfer(_amount) */\n      0x08fc\n        /* \"MyProjectSharedWallet.sol\":2100:2107  _amount */\n      dup5\n        /* \"MyProjectSharedWallet.sol\":2087:2108  _to.transfer(_amount) */\n      swap1\n      dup2\n      iszero\n      mul\n      swap1\n      mload(0x40)\n      0x00\n      mload(0x40)\n      dup1\n      dup4\n      sub\n      dup2\n      dup6\n      dup9\n      dup9\n      call\n      swap4\n      pop\n      pop\n      pop\n      pop\n      iszero\n      dup1\n      iszero\n      tag_100\n      jumpi\n      returndatasize\n      0x00\n      dup1\n      returndatacopy\n      revert(0x00, returndatasize)\n    tag_100:\n      pop\n        /* \"MyProjectSharedWallet.sol\":2139:2149  msg.sender */\n      caller\n        /* \"MyProjectSharedWallet.sol\":2123:2159  ClaimEvent(_to, msg.sender, _amount) */\n      0xffffffffffffffffffffffffffffffffffffffff\n      and\n        /* \"MyProjectSharedWallet.sol\":2134:2137  _to */\n      dup5\n        /* \"MyProjectSharedWallet.sol\":2123:2159  ClaimEvent(_to, msg.sender, _amount) */\n      0xffffffffffffffffffffffffffffffffffffffff\n      and\n      0xc6523614a4ee35b875baef260f78a91708fdf636c7fec1e9a186a7ae590c4e46\n        /* \"MyProjectSharedWallet.sol\":2151:2158  _amount */\n      dup6\n        /* \"MyProjectSharedWallet.sol\":2123:2159  ClaimEvent(_to, msg.sender, _amount) */\n      mload(0x40)\n      tag_101\n      swap2\n      swap1\n      tag_25\n      jump\t// in\n    tag_101:\n      mload(0x40)\n      dup1\n      swap2\n      sub\n      swap1\n      log3\n        /* \"MyProjectSharedWallet.sol\":1307:2166  {... */\n      pop\n      pop\n        /* \"MyProjectSharedWallet.sol\":1245:2166  function ClaimMoney(address payable _to, uint _amount) public {... */\n      pop\n      pop\n      jump\t// out\n        /* \"MyProjectSharedWallet.sol\":2216:2681  function SetAllowance(address _user, uint _allowancePercentage) public onlyOwner {... */\n    tag_35:\n        /* \"https://github.com/OpenZeppelin/openzeppelin-contracts/blob/master/contracts/access/Ownable.sol\":1094:1107  _checkOwner() */\n      tag_103\n        /* \"https://github.com/OpenZeppelin/openzeppelin-contracts/blob/master/contracts/access/Ownable.sol\":1094:1105  _checkOwner */\n      tag_104\n        /* \"https://github.com/OpenZeppelin/openzeppelin-contracts/blob/master/contracts/access/Ownable.sol\":1094:1107  _checkOwner() */\n      jump\t// in\n    tag_103:\n        /* \"MyProjectSharedWallet.sol\":2324:2331  owner() */\n      tag_106\n        /* \"MyProjectSharedWallet.sol\":2324:2329  owner */\n      tag_49\n        /* \"MyProjectSharedWallet.sol\":2324:2331  owner() */\n      jump\t// in\n    tag_106:\n        /* \"MyProjectSharedWallet.sol\":2315:2331  _user != owner() */\n      0xffffffffffffffffffffffffffffffffffffffff\n      and\n        /* \"MyProjectSharedWallet.sol\":2315:2320  _user */\n      dup3\n        /* \"MyProjectSharedWallet.sol\":2315:2331  _user != owner() */\n      0xffffffffffffffffffffffffffffffffffffffff\n      and\n      eq\n      iszero\n        /* \"MyProjectSharedWallet.sol\":2307:2378  require(_user != owner(), \"An allowance is not required for the owner\") */\n      tag_107\n      jumpi\n      mload(0x40)\n      0x08c379a000000000000000000000000000000000000000000000000000000000\n      dup2\n      mstore\n      0x04\n      add\n      tag_108\n      swap1\n      tag_109\n      jump\t// in\n    tag_108:\n      mload(0x40)\n      dup1\n      swap2\n      sub\n      swap1\n      revert\n    tag_107:\n        /* \"MyProjectSharedWallet.sol\":2422:2423  0 */\n      0x00\n        /* \"MyProjectSharedWallet.sol\":2396:2401  users */\n      0x01\n        /* \"MyProjectSharedWallet.sol\":2396:2408  users[_user] */\n      0x00\n        /* \"MyProjectSharedWallet.sol\":2402:2407  _user */\n      dup5\n        /* \"MyProjectSharedWallet.sol\":2396:2408  users[_user] */\n      0xffffffffffffffffffffffffffffffffffffffff\n      and\n      0xffffffffffffffffffffffffffffffffffffffff\n      and\n      dup2\n      mstore\n      0x20\n      add\n      swap1\n      dup2\n      mstore\n      0x20\n      add\n      0x00\n      keccak256\n        /* \"MyProjectSharedWallet.sol\":2396:2418  users[_user].allowance */\n      0x00\n      add\n      sload\n        /* \"MyProjectSharedWallet.sol\":2396:2423  users[_user].allowance == 0 */\n      eq\n        /* \"MyProjectSharedWallet.sol\":2388:2464  require(users[_user].allowance == 0, \"The address already has an allowance\") */\n      tag_110\n      jumpi\n      mload(0x40)\n      0x08c379a000000000000000000000000000000000000000000000000000000000\n      dup2\n      mstore\n      0x04\n      add\n      tag_111\n      swap1\n      tag_112\n      jump\t// in\n    tag_111:\n      mload(0x40)\n      dup1\n      swap2\n      sub\n      swap1\n      revert\n    tag_110:\n        /* \"MyProjectSharedWallet.sol\":2524:2527  100 */\n      0x64\n        /* \"MyProjectSharedWallet.sol\":2500:2520  _allowancePercentage */\n      dup2\n        /* \"MyProjectSharedWallet.sol\":2482:2497  totalAllowances */\n      sload(0x02)\n        /* \"MyProjectSharedWallet.sol\":2482:2520  totalAllowances + _allowancePercentage */\n      tag_113\n      swap2\n      swap1\n      tag_85\n      jump\t// in\n    tag_113:\n        /* \"MyProjectSharedWallet.sol\":2482:2527  totalAllowances + _allowancePercentage <= 100 */\n      gt\n      iszero\n        /* \"MyProjectSharedWallet.sol\":2474:2570  require(totalAllowances + _allowancePercentage <= 100,\"This would over-allocate the allowances\") */\n      tag_114\n      jumpi\n      mload(0x40)\n      0x08c379a000000000000000000000000000000000000000000000000000000000\n      dup2\n      mstore\n      0x04\n      add\n      tag_115\n      swap1\n      tag_116\n      jump\t// in\n    tag_115:\n      mload(0x40)\n      dup1\n      swap2\n      sub\n      swap1\n      revert\n    tag_114:\n        /* \"MyProjectSharedWallet.sol\":2605:2625  _allowancePercentage */\n      dup1\n        /* \"MyProjectSharedWallet.sol\":2580:2585  users */\n      0x01\n        /* \"MyProjectSharedWallet.sol\":2580:2592  users[_user] */\n      0x00\n        /* \"MyProjectSharedWallet.sol\":2586:2591  _user */\n      dup5\n        /* \"MyProjectSharedWallet.sol\":2580:2592  users[_user] */\n      0xffffffffffffffffffffffffffffffffffffffff\n      and\n      0xffffffffffffffffffffffffffffffffffffffff\n      and\n      dup2\n      mstore\n      0x20\n      add\n      swap1\n      dup2\n      mstore\n      0x20\n      add\n      0x00\n      keccak256\n        /* \"MyProjectSharedWallet.sol\":2580:2602  users[_user].allowance */\n      0x00\n      add\n        /* \"MyProjectSharedWallet.sol\":2580:2625  users[_user].allowance = _allowancePercentage */\n      dup2\n      swap1\n      sstore\n      pop\n        /* \"MyProjectSharedWallet.sol\":2654:2674  _allowancePercentage */\n      dup1\n        /* \"MyProjectSharedWallet.sol\":2635:2650  totalAllowances */\n      0x02\n      0x00\n        /* \"MyProjectSharedWallet.sol\":2635:2674  totalAllowances += _allowancePercentage */\n      dup3\n      dup3\n      sload\n      tag_117\n      swap2\n      swap1\n      tag_85\n      jump\t// in\n    tag_117:\n      swap3\n      pop\n      pop\n      dup2\n      swap1\n      sstore\n      pop\n        /* \"MyProjectSharedWallet.sol\":2216:2681  function SetAllowance(address _user, uint _allowancePercentage) public onlyOwner {... */\n      pop\n      pop\n      jump\t// out\n        /* \"MyProjectSharedWallet.sol\":584:607  uint public totalClaims */\n    tag_38:\n      sload(0x03)\n      dup2\n      jump\t// out\n        /* \"MyProjectSharedWallet.sol\":3098:3253  function renounceOwnership() public view override onlyOwner {... */\n    tag_42:\n        /* \"https://github.com/OpenZeppelin/openzeppelin-contracts/blob/master/contracts/access/Ownable.sol\":1094:1107  _checkOwner() */\n      tag_119\n        /* \"https://github.com/OpenZeppelin/openzeppelin-contracts/blob/master/contracts/access/Ownable.sol\":1094:1105  _checkOwner */\n      tag_104\n        /* \"https://github.com/OpenZeppelin/openzeppelin-contracts/blob/master/contracts/access/Ownable.sol\":1094:1107  _checkOwner() */\n      jump\t// in\n    tag_119:\n        /* \"MyProjectSharedWallet.sol\":3168:3206  revert(\"can't renounceOwnership here\") */\n      mload(0x40)\n      0x08c379a000000000000000000000000000000000000000000000000000000000\n      dup2\n      mstore\n      0x04\n      add\n      tag_121\n      swap1\n      tag_122\n      jump\t// in\n    tag_121:\n      mload(0x40)\n      dup1\n      swap2\n      sub\n      swap1\n      revert\n        /* \"MyProjectSharedWallet.sol\":644:671  uint public contractBalance */\n    tag_45:\n      sload(0x04)\n      dup2\n      jump\t// out\n        /* \"https://github.com/OpenZeppelin/openzeppelin-contracts/blob/master/contracts/access/Ownable.sol\":1201:1286  function owner() public view virtual returns (address) {... */\n    tag_49:\n        /* \"https://github.com/OpenZeppelin/openzeppelin-contracts/blob/master/contracts/access/Ownable.sol\":1247:1254  address */\n      0x00\n        /* \"https://github.com/OpenZeppelin/openzeppelin-contracts/blob/master/contracts/access/Ownable.sol\":1273:1279  _owner */\n      dup1\n      0x00\n      swap1\n      sload\n      swap1\n      0x0100\n      exp\n      swap1\n      div\n      0xffffffffffffffffffffffffffffffffffffffff\n      and\n        /* \"https://github.com/OpenZeppelin/openzeppelin-contracts/blob/master/contracts/access/Ownable.sol\":1266:1279  return _owner */\n      swap1\n      pop\n        /* \"https://github.com/OpenZeppelin/openzeppelin-contracts/blob/master/contracts/access/Ownable.sol\":1201:1286  function owner() public view virtual returns (address) {... */\n      swap1\n      jump\t// out\n        /* \"MyProjectSharedWallet.sol\":3002:3092  function isOwner() view public returns(bool) {... */\n    tag_54:\n        /* \"MyProjectSharedWallet.sol\":3041:3045  bool */\n      0x00\n        /* \"MyProjectSharedWallet.sol\":3075:3085  msg.sender */\n      caller\n        /* \"MyProjectSharedWallet.sol\":3064:3085  owner() == msg.sender */\n      0xffffffffffffffffffffffffffffffffffffffff\n      and\n        /* \"MyProjectSharedWallet.sol\":3064:3071  owner() */\n      tag_125\n        /* \"MyProjectSharedWallet.sol\":3064:3069  owner */\n      tag_49\n        /* \"MyProjectSharedWallet.sol\":3064:3071  owner() */\n      jump\t// in\n    tag_125:\n        /* \"MyProjectSharedWallet.sol\":3064:3085  owner() == msg.sender */\n      0xffffffffffffffffffffffffffffffffffffffff\n      and\n      eq\n        /* \"MyProjectSharedWallet.sol\":3057:3085  return owner() == msg.sender */\n      swap1\n      pop\n        /* \"MyProjectSharedWallet.sol\":3002:3092  function isOwner() view public returns(bool) {... */\n      swap1\n      jump\t// out\n        /* \"MyProjectSharedWallet.sol\":421:465  mapping(address => UserDetails) public users */\n    tag_61:\n      mstore(0x20, 0x01)\n      dup1\n      0x00\n      mstore\n      keccak256(0x00, 0x40)\n      0x00\n      swap2\n      pop\n      swap1\n      pop\n      dup1\n      0x00\n      add\n      sload\n      swap1\n      dup1\n      0x01\n      add\n      sload\n      swap1\n      pop\n      dup3\n      jump\t// out\n        /* \"MyProjectSharedWallet.sol\":2732:2996  function ownerWithdraw(address payable _to, uint _amount) public onlyOwner {... */\n    tag_67:\n        /* \"https://github.com/OpenZeppelin/openzeppelin-contracts/blob/master/contracts/access/Ownable.sol\":1094:1107  _checkOwner() */\n      tag_127\n        /* \"https://github.com/OpenZeppelin/openzeppelin-contracts/blob/master/contracts/access/Ownable.sol\":1094:1105  _checkOwner */\n      tag_104\n        /* \"https://github.com/OpenZeppelin/openzeppelin-contracts/blob/master/contracts/access/Ownable.sol\":1094:1107  _checkOwner() */\n      jump\t// in\n    tag_127:\n        /* \"MyProjectSharedWallet.sol\":2836:2857  address(this).balance */\n      selfbalance\n        /* \"MyProjectSharedWallet.sol\":2825:2832  _amount */\n      dup2\n        /* \"MyProjectSharedWallet.sol\":2825:2857  _amount <= address(this).balance */\n      gt\n      iszero\n        /* \"MyProjectSharedWallet.sol\":2817:2899  require(_amount <= address(this).balance,\"Amount is larger than contract balance\") */\n      tag_129\n      jumpi\n      mload(0x40)\n      0x08c379a000000000000000000000000000000000000000000000000000000000\n      dup2\n      mstore\n      0x04\n      add\n      tag_130\n      swap1\n      tag_131\n      jump\t// in\n    tag_130:\n      mload(0x40)\n      dup1\n      swap2\n      sub\n      swap1\n      revert\n    tag_129:\n        /* \"MyProjectSharedWallet.sol\":2951:2958  _amount */\n      dup1\n        /* \"MyProjectSharedWallet.sol\":2927:2948  address(this).balance */\n      selfbalance\n        /* \"MyProjectSharedWallet.sol\":2927:2958  address(this).balance - _amount */\n      tag_132\n      swap2\n      swap1\n      tag_92\n      jump\t// in\n    tag_132:\n        /* \"MyProjectSharedWallet.sol\":2909:2924  contractBalance */\n      0x04\n        /* \"MyProjectSharedWallet.sol\":2909:2958  contractBalance = address(this).balance - _amount */\n      dup2\n      swap1\n      sstore\n      pop\n        /* \"MyProjectSharedWallet.sol\":2968:2971  _to */\n      dup2\n        /* \"MyProjectSharedWallet.sol\":2968:2980  _to.transfer */\n      0xffffffffffffffffffffffffffffffffffffffff\n      and\n        /* \"MyProjectSharedWallet.sol\":2968:2989  _to.transfer(_amount) */\n      0x08fc\n        /* \"MyProjectSharedWallet.sol\":2981:2988  _amount */\n      dup3\n        /* \"MyProjectSharedWallet.sol\":2968:2989  _to.transfer(_amount) */\n      swap1\n      dup2\n      iszero\n      mul\n      swap1\n      mload(0x40)\n      0x00\n      mload(0x40)\n      dup1\n      dup4\n      sub\n      dup2\n      dup6\n      dup9\n      dup9\n      call\n      swap4\n      pop\n      pop\n      pop\n      pop\n      iszero\n      dup1\n      iszero\n      tag_134\n      jumpi\n      returndatasize\n      0x00\n      dup1\n      returndatacopy\n      revert(0x00, returndatasize)\n    tag_134:\n      pop\n        /* \"MyProjectSharedWallet.sol\":2732:2996  function ownerWithdraw(address payable _to, uint _amount) public onlyOwner {... */\n      pop\n      pop\n      jump\t// out\n        /* \"https://github.com/OpenZeppelin/openzeppelin-contracts/blob/master/contracts/access/Ownable.sol\":2081:2279  function transferOwnership(address newOwner) public virtual onlyOwner {... */\n    tag_71:\n        /* \"https://github.com/OpenZeppelin/openzeppelin-contracts/blob/master/contracts/access/Ownable.sol\":1094:1107  _checkOwner() */\n      tag_136\n        /* \"https://github.com/OpenZeppelin/openzeppelin-contracts/blob/master/contracts/access/Ownable.sol\":1094:1105  _checkOwner */\n      tag_104\n        /* \"https://github.com/OpenZeppelin/openzeppelin-contracts/blob/master/contracts/access/Ownable.sol\":1094:1107  _checkOwner() */\n      jump\t// in\n    tag_136:\n        /* \"https://github.com/OpenZeppelin/openzeppelin-contracts/blob/master/contracts/access/Ownable.sol\":2189:2190  0 */\n      0x00\n        /* \"https://github.com/OpenZeppelin/openzeppelin-contracts/blob/master/contracts/access/Ownable.sol\":2169:2191  newOwner != address(0) */\n      0xffffffffffffffffffffffffffffffffffffffff\n      and\n        /* \"https://github.com/OpenZeppelin/openzeppelin-contracts/blob/master/contracts/access/Ownable.sol\":2169:2177  newOwner */\n      dup2\n        /* \"https://github.com/OpenZeppelin/openzeppelin-contracts/blob/master/contracts/access/Ownable.sol\":2169:2191  newOwner != address(0) */\n      0xffffffffffffffffffffffffffffffffffffffff\n      and\n      eq\n      iszero\n        /* \"https://github.com/OpenZeppelin/openzeppelin-contracts/blob/master/contracts/access/Ownable.sol\":2161:2234  require(newOwner != address(0), \"Ownable: new owner is the zero address\") */\n      tag_138\n      jumpi\n      mload(0x40)\n      0x08c379a000000000000000000000000000000000000000000000000000000000\n      dup2\n      mstore\n      0x04\n      add\n      tag_139\n      swap1\n      tag_140\n      jump\t// in\n    tag_139:\n      mload(0x40)\n      dup1\n      swap2\n      sub\n      swap1\n      revert\n    tag_138:\n        /* \"https://github.com/OpenZeppelin/openzeppelin-contracts/blob/master/contracts/access/Ownable.sol\":2244:2272  _transferOwnership(newOwner) */\n      tag_141\n        /* \"https://github.com/OpenZeppelin/openzeppelin-contracts/blob/master/contracts/access/Ownable.sol\":2263:2271  newOwner */\n      dup2\n        /* \"https://github.com/OpenZeppelin/openzeppelin-contracts/blob/master/contracts/access/Ownable.sol\":2244:2262  _transferOwnership */\n      tag_142\n        /* \"https://github.com/OpenZeppelin/openzeppelin-contracts/blob/master/contracts/access/Ownable.sol\":2244:2272  _transferOwnership(newOwner) */\n      jump\t// in\n    tag_141:\n        /* \"https://github.com/OpenZeppelin/openzeppelin-contracts/blob/master/contracts/access/Ownable.sol\":2081:2279  function transferOwnership(address newOwner) public virtual onlyOwner {... */\n      pop\n      jump\t// out\n        /* \"https://github.com/OpenZeppelin/openzeppelin-contracts/blob/master/contracts/access/Ownable.sol\":1359:1489  function _checkOwner() internal view virtual {... */\n    tag_104:\n        /* \"https://github.com/OpenZeppelin/openzeppelin-contracts/blob/master/contracts/access/Ownable.sol\":1433:1445  _msgSender() */\n      tag_144\n        /* \"https://github.com/OpenZeppelin/openzeppelin-contracts/blob/master/contracts/access/Ownable.sol\":1433:1443  _msgSender */\n      tag_145\n        /* \"https://github.com/OpenZeppelin/openzeppelin-contracts/blob/master/contracts/access/Ownable.sol\":1433:1445  _msgSender() */\n      jump\t// in\n    tag_144:\n        /* \"https://github.com/OpenZeppelin/openzeppelin-contracts/blob/master/contracts/access/Ownable.sol\":1422:1445  owner() == _msgSender() */\n      0xffffffffffffffffffffffffffffffffffffffff\n      and\n        /* \"https://github.com/OpenZeppelin/openzeppelin-contracts/blob/master/contracts/access/Ownable.sol\":1422:1429  owner() */\n      tag_146\n        /* \"https://github.com/OpenZeppelin/openzeppelin-contracts/blob/master/contracts/access/Ownable.sol\":1422:1427  owner */\n      tag_49\n        /* \"https://github.com/OpenZeppelin/openzeppelin-contracts/blob/master/contracts/access/Ownable.sol\":1422:1429  owner() */\n      jump\t// in\n    tag_146:\n        /* \"https://github.com/OpenZeppelin/openzeppelin-contracts/blob/master/contracts/access/Ownable.sol\":1422:1445  owner() == _msgSender() */\n      0xffffffffffffffffffffffffffffffffffffffff\n      and\n      eq\n        /* \"https://github.com/OpenZeppelin/openzeppelin-contracts/blob/master/contracts/access/Ownable.sol\":1414:1482  require(owner() == _msgSender(), \"Ownable: caller is not the owner\") */\n      tag_147\n      jumpi\n      mload(0x40)\n      0x08c379a000000000000000000000000000000000000000000000000000000000\n      dup2\n      mstore\n      0x04\n      add\n      tag_148\n      swap1\n      tag_149\n      jump\t// in\n    tag_148:\n      mload(0x40)\n      dup1\n      swap2\n      sub\n      swap1\n      revert\n    tag_147:\n        /* \"https://github.com/OpenZeppelin/openzeppelin-contracts/blob/master/contracts/access/Ownable.sol\":1359:1489  function _checkOwner() internal view virtual {... */\n      jump\t// out\n        /* \"https://github.com/OpenZeppelin/openzeppelin-contracts/blob/master/contracts/access/Ownable.sol\":2433:2620  function _transferOwnership(address newOwner) internal virtual {... */\n    tag_142:\n        /* \"https://github.com/OpenZeppelin/openzeppelin-contracts/blob/master/contracts/access/Ownable.sol\":2506:2522  address oldOwner */\n      0x00\n        /* \"https://github.com/OpenZeppelin/openzeppelin-contracts/blob/master/contracts/access/Ownable.sol\":2525:2531  _owner */\n      dup1\n      0x00\n      swap1\n      sload\n      swap1\n      0x0100\n      exp\n      swap1\n      div\n      0xffffffffffffffffffffffffffffffffffffffff\n      and\n        /* \"https://github.com/OpenZeppelin/openzeppelin-contracts/blob/master/contracts/access/Ownable.sol\":2506:2531  address oldOwner = _owner */\n      swap1\n      pop\n        /* \"https://github.com/OpenZeppelin/openzeppelin-contracts/blob/master/contracts/access/Ownable.sol\":2550:2558  newOwner */\n      dup2\n        /* \"https://github.com/OpenZeppelin/openzeppelin-contracts/blob/master/contracts/access/Ownable.sol\":2541:2547  _owner */\n      0x00\n      dup1\n        /* \"https://github.com/OpenZeppelin/openzeppelin-contracts/blob/master/contracts/access/Ownable.sol\":2541:2558  _owner = newOwner */\n      0x0100\n      exp\n      dup2\n      sload\n      dup2\n      0xffffffffffffffffffffffffffffffffffffffff\n      mul\n      not\n      and\n      swap1\n      dup4\n      0xffffffffffffffffffffffffffffffffffffffff\n      and\n      mul\n      or\n      swap1\n      sstore\n      pop\n        /* \"https://github.com/OpenZeppelin/openzeppelin-contracts/blob/master/contracts/access/Ownable.sol\":2604:2612  newOwner */\n      dup2\n        /* \"https://github.com/OpenZeppelin/openzeppelin-contracts/blob/master/contracts/access/Ownable.sol\":2573:2613  OwnershipTransferred(oldOwner, newOwner) */\n      0xffffffffffffffffffffffffffffffffffffffff\n      and\n        /* \"https://github.com/OpenZeppelin/openzeppelin-contracts/blob/master/contracts/access/Ownable.sol\":2594:2602  oldOwner */\n      dup2\n        /* \"https://github.com/OpenZeppelin/openzeppelin-contracts/blob/master/contracts/access/Ownable.sol\":2573:2613  OwnershipTransferred(oldOwner, newOwner) */\n      0xffffffffffffffffffffffffffffffffffffffff\n      and\n      0x8be0079c531659141344cd1fd0a4f28419497f9722a3daafe3b4186f6b6457e0\n      mload(0x40)\n      mload(0x40)\n      dup1\n      swap2\n      sub\n      swap1\n      log3\n        /* \"https://github.com/OpenZeppelin/openzeppelin-contracts/blob/master/contracts/access/Ownable.sol\":2496:2620  {... */\n      pop\n        /* \"https://github.com/OpenZeppelin/openzeppelin-contracts/blob/master/contracts/access/Ownable.sol\":2433:2620  function _transferOwnership(address newOwner) internal virtual {... */\n      pop\n      jump\t// out\n        /* \"https://github.com/OpenZeppelin/openzeppelin-contracts/blob/master/contracts/utils/Context.sol\":640:736  function _msgSender() internal view virtual returns (address) {... */\n    tag_145:\n        /* \"https://github.com/OpenZeppelin/openzeppelin-contracts/blob/master/contracts/utils/Context.sol\":693:700  address */\n      0x00\n        /* \"https://github.com/OpenZeppelin/openzeppelin-contracts/blob/master/contracts/utils/Context.sol\":719:729  msg.sender */\n      caller\n        /* \"https://github.com/OpenZeppelin/openzeppelin-contracts/blob/master/contracts/utils/Context.sol\":712:729  return msg.sender */\n      swap1\n      pop\n        /* \"https://github.com/OpenZeppelin/openzeppelin-contracts/blob/master/contracts/utils/Context.sol\":640:736  function _msgSender() internal view virtual returns (address) {... */\n      swap1\n      jump\t// out\n        /* \"#utility.yul\":7:146   */\n    tag_153:\n        /* \"#utility.yul\":53:58   */\n      0x00\n        /* \"#utility.yul\":91:97   */\n      dup2\n        /* \"#utility.yul\":78:98   */\n      calldataload\n        /* \"#utility.yul\":69:98   */\n      swap1\n      pop\n        /* \"#utility.yul\":107:140   */\n      tag_155\n        /* \"#utility.yul\":134:139   */\n      dup2\n        /* \"#utility.yul\":107:140   */\n      tag_156\n      jump\t// in\n    tag_155:\n        /* \"#utility.yul\":7:146   */\n      swap3\n      swap2\n      pop\n      pop\n      jump\t// out\n        /* \"#utility.yul\":152:307   */\n    tag_157:\n        /* \"#utility.yul\":206:211   */\n      0x00\n        /* \"#utility.yul\":244:250   */\n      dup2\n        /* \"#utility.yul\":231:251   */\n      calldataload\n        /* \"#utility.yul\":222:251   */\n      swap1\n      pop\n        /* \"#utility.yul\":260:301   */\n      tag_159\n        /* \"#utility.yul\":295:300   */\n      dup2\n        /* \"#utility.yul\":260:301   */\n      tag_160\n      jump\t// in\n    tag_159:\n        /* \"#utility.yul\":152:307   */\n      swap3\n      swap2\n      pop\n      pop\n      jump\t// out\n        /* \"#utility.yul\":313:452   */\n    tag_161:\n        /* \"#utility.yul\":359:364   */\n      0x00\n        /* \"#utility.yul\":397:403   */\n      dup2\n        /* \"#utility.yul\":384:404   */\n      calldataload\n        /* \"#utility.yul\":375:404   */\n      swap1\n      pop\n        /* \"#utility.yul\":413:446   */\n      tag_163\n        /* \"#utility.yul\":440:445   */\n      dup2\n        /* \"#utility.yul\":413:446   */\n      tag_164\n      jump\t// in\n    tag_163:\n        /* \"#utility.yul\":313:452   */\n      swap3\n      swap2\n      pop\n      pop\n      jump\t// out\n        /* \"#utility.yul\":458:787   */\n    tag_60:\n        /* \"#utility.yul\":517:523   */\n      0x00\n        /* \"#utility.yul\":566:568   */\n      0x20\n        /* \"#utility.yul\":554:563   */\n      dup3\n        /* \"#utility.yul\":545:552   */\n      dup5\n        /* \"#utility.yul\":541:564   */\n      sub\n        /* \"#utility.yul\":537:569   */\n      slt\n        /* \"#utility.yul\":534:653   */\n      iszero\n      tag_166\n      jumpi\n        /* \"#utility.yul\":572:651   */\n      tag_167\n      tag_168\n      jump\t// in\n    tag_167:\n        /* \"#utility.yul\":534:653   */\n    tag_166:\n        /* \"#utility.yul\":692:693   */\n      0x00\n        /* \"#utility.yul\":717:770   */\n      tag_169\n        /* \"#utility.yul\":762:769   */\n      dup5\n        /* \"#utility.yul\":753:759   */\n      dup3\n        /* \"#utility.yul\":742:751   */\n      dup6\n        /* \"#utility.yul\":738:760   */\n      add\n        /* \"#utility.yul\":717:770   */\n      tag_153\n      jump\t// in\n    tag_169:\n        /* \"#utility.yul\":707:770   */\n      swap2\n      pop\n        /* \"#utility.yul\":663:780   */\n      pop\n        /* \"#utility.yul\":458:787   */\n      swap3\n      swap2\n      pop\n      pop\n      jump\t// out\n        /* \"#utility.yul\":793:1283   */\n    tag_29:\n        /* \"#utility.yul\":869:875   */\n      0x00\n        /* \"#utility.yul\":877:883   */\n      dup1\n        /* \"#utility.yul\":926:928   */\n      0x40\n        /* \"#utility.yul\":914:923   */\n      dup4\n        /* \"#utility.yul\":905:912   */\n      dup6\n        /* \"#utility.yul\":901:924   */\n      sub\n        /* \"#utility.yul\":897:929   */\n      slt\n        /* \"#utility.yul\":894:1013   */\n      iszero\n      tag_171\n      jumpi\n        /* \"#utility.yul\":932:1011   */\n      tag_172\n      tag_168\n      jump\t// in\n    tag_172:\n        /* \"#utility.yul\":894:1013   */\n    tag_171:\n        /* \"#utility.yul\":1052:1053   */\n      0x00\n        /* \"#utility.yul\":1077:1138   */\n      tag_173\n        /* \"#utility.yul\":1130:1137   */\n      dup6\n        /* \"#utility.yul\":1121:1127   */\n      dup3\n        /* \"#utility.yul\":1110:1119   */\n      dup7\n        /* \"#utility.yul\":1106:1128   */\n      add\n        /* \"#utility.yul\":1077:1138   */\n      tag_157\n      jump\t// in\n    tag_173:\n        /* \"#utility.yul\":1067:1138   */\n      swap3\n      pop\n        /* \"#utility.yul\":1023:1148   */\n      pop\n        /* \"#utility.yul\":1187:1189   */\n      0x20\n        /* \"#utility.yul\":1213:1266   */\n      tag_174\n        /* \"#utility.yul\":1258:1265   */\n      dup6\n        /* \"#utility.yul\":1249:1255   */\n      dup3\n        /* \"#utility.yul\":1238:1247   */\n      dup7\n        /* \"#utility.yul\":1234:1256   */\n      add\n        /* \"#utility.yul\":1213:1266   */\n      tag_161\n      jump\t// in\n    tag_174:\n        /* \"#utility.yul\":1203:1266   */\n      swap2\n      pop\n        /* \"#utility.yul\":1158:1276   */\n      pop\n        /* \"#utility.yul\":793:1283   */\n      swap3\n      pop\n      swap3\n      swap1\n      pop\n      jump\t// out\n        /* \"#utility.yul\":1289:1763   */\n    tag_34:\n        /* \"#utility.yul\":1357:1363   */\n      0x00\n        /* \"#utility.yul\":1365:1371   */\n      dup1\n        /* \"#utility.yul\":1414:1416   */\n      0x40\n        /* \"#utility.yul\":1402:1411   */\n      dup4\n        /* \"#utility.yul\":1393:1400   */\n      dup6\n        /* \"#utility.yul\":1389:1412   */\n      sub\n        /* \"#utility.yul\":1385:1417   */\n      slt\n        /* \"#utility.yul\":1382:1501   */\n      iszero\n      tag_176\n      jumpi\n        /* \"#utility.yul\":1420:1499   */\n      tag_177\n      tag_168\n      jump\t// in\n    tag_177:\n        /* \"#utility.yul\":1382:1501   */\n    tag_176:\n        /* \"#utility.yul\":1540:1541   */\n      0x00\n        /* \"#utility.yul\":1565:1618   */\n      tag_178\n        /* \"#utility.yul\":1610:1617   */\n      dup6\n        /* \"#utility.yul\":1601:1607   */\n      dup3\n        /* \"#utility.yul\":1590:1599   */\n      dup7\n        /* \"#utility.yul\":1586:1608   */\n      add\n        /* \"#utility.yul\":1565:1618   */\n      tag_153\n      jump\t// in\n    tag_178:\n        /* \"#utility.yul\":1555:1618   */\n      swap3\n      pop\n        /* \"#utility.yul\":1511:1628   */\n      pop\n        /* \"#utility.yul\":1667:1669   */\n      0x20\n        /* \"#utility.yul\":1693:1746   */\n      tag_179\n        /* \"#utility.yul\":1738:1745   */\n      dup6\n        /* \"#utility.yul\":1729:1735   */\n      dup3\n        /* \"#utility.yul\":1718:1727   */\n      dup7\n        /* \"#utility.yul\":1714:1736   */\n      add\n        /* \"#utility.yul\":1693:1746   */\n      tag_161\n      jump\t// in\n    tag_179:\n        /* \"#utility.yul\":1683:1746   */\n      swap2\n      pop\n        /* \"#utility.yul\":1638:1756   */\n      pop\n        /* \"#utility.yul\":1289:1763   */\n      swap3\n      pop\n      swap3\n      swap1\n      pop\n      jump\t// out\n        /* \"#utility.yul\":1769:1887   */\n    tag_180:\n        /* \"#utility.yul\":1856:1880   */\n      tag_182\n        /* \"#utility.yul\":1874:1879   */\n      dup2\n        /* \"#utility.yul\":1856:1880   */\n      tag_183\n      jump\t// in\n    tag_182:\n        /* \"#utility.yul\":1851:1854   */\n      dup3\n        /* \"#utility.yul\":1844:1881   */\n      mstore\n        /* \"#utility.yul\":1769:1887   */\n      pop\n      pop\n      jump\t// out\n        /* \"#utility.yul\":1893:2002   */\n    tag_184:\n        /* \"#utility.yul\":1974:1995   */\n      tag_186\n        /* \"#utility.yul\":1989:1994   */\n      dup2\n        /* \"#utility.yul\":1974:1995   */\n      tag_187\n      jump\t// in\n    tag_186:\n        /* \"#utility.yul\":1969:1972   */\n      dup3\n        /* \"#utility.yul\":1962:1996   */\n      mstore\n        /* \"#utility.yul\":1893:2002   */\n      pop\n      pop\n      jump\t// out\n        /* \"#utility.yul\":2008:2374   */\n    tag_188:\n        /* \"#utility.yul\":2150:2153   */\n      0x00\n        /* \"#utility.yul\":2171:2238   */\n      tag_190\n        /* \"#utility.yul\":2235:2237   */\n      0x28\n        /* \"#utility.yul\":2230:2233   */\n      dup4\n        /* \"#utility.yul\":2171:2238   */\n      tag_191\n      jump\t// in\n    tag_190:\n        /* \"#utility.yul\":2164:2238   */\n      swap2\n      pop\n        /* \"#utility.yul\":2247:2340   */\n      tag_192\n        /* \"#utility.yul\":2336:2339   */\n      dup3\n        /* \"#utility.yul\":2247:2340   */\n      tag_193\n      jump\t// in\n    tag_192:\n        /* \"#utility.yul\":2365:2367   */\n      0x40\n        /* \"#utility.yul\":2360:2363   */\n      dup3\n        /* \"#utility.yul\":2356:2368   */\n      add\n        /* \"#utility.yul\":2349:2368   */\n      swap1\n      pop\n        /* \"#utility.yul\":2008:2374   */\n      swap2\n      swap1\n      pop\n      jump\t// out\n        /* \"#utility.yul\":2380:2746   */\n    tag_194:\n        /* \"#utility.yul\":2522:2525   */\n      0x00\n        /* \"#utility.yul\":2543:2610   */\n      tag_196\n        /* \"#utility.yul\":2607:2609   */\n      0x26\n        /* \"#utility.yul\":2602:2605   */\n      dup4\n        /* \"#utility.yul\":2543:2610   */\n      tag_191\n      jump\t// in\n    tag_196:\n        /* \"#utility.yul\":2536:2610   */\n      swap2\n      pop\n        /* \"#utility.yul\":2619:2712   */\n      tag_197\n        /* \"#utility.yul\":2708:2711   */\n      dup3\n        /* \"#utility.yul\":2619:2712   */\n      tag_198\n      jump\t// in\n    tag_197:\n        /* \"#utility.yul\":2737:2739   */\n      0x40\n        /* \"#utility.yul\":2732:2735   */\n      dup3\n        /* \"#utility.yul\":2728:2740   */\n      add\n        /* \"#utility.yul\":2721:2740   */\n      swap1\n      pop\n        /* \"#utility.yul\":2380:2746   */\n      swap2\n      swap1\n      pop\n      jump\t// out\n        /* \"#utility.yul\":2752:3118   */\n    tag_199:\n        /* \"#utility.yul\":2894:2897   */\n      0x00\n        /* \"#utility.yul\":2915:2982   */\n      tag_201\n        /* \"#utility.yul\":2979:2981   */\n      0x1c\n        /* \"#utility.yul\":2974:2977   */\n      dup4\n        /* \"#utility.yul\":2915:2982   */\n      tag_191\n      jump\t// in\n    tag_201:\n        /* \"#utility.yul\":2908:2982   */\n      swap2\n      pop\n        /* \"#utility.yul\":2991:3084   */\n      tag_202\n        /* \"#utility.yul\":3080:3083   */\n      dup3\n        /* \"#utility.yul\":2991:3084   */\n      tag_203\n      jump\t// in\n    tag_202:\n        /* \"#utility.yul\":3109:3111   */\n      0x20\n        /* \"#utility.yul\":3104:3107   */\n      dup3\n        /* \"#utility.yul\":3100:3112   */\n      add\n        /* \"#utility.yul\":3093:3112   */\n      swap1\n      pop\n        /* \"#utility.yul\":2752:3118   */\n      swap2\n      swap1\n      pop\n      jump\t// out\n        /* \"#utility.yul\":3124:3490   */\n    tag_204:\n        /* \"#utility.yul\":3266:3269   */\n      0x00\n        /* \"#utility.yul\":3287:3354   */\n      tag_206\n        /* \"#utility.yul\":3351:3353   */\n      0x2b\n        /* \"#utility.yul\":3346:3349   */\n      dup4\n        /* \"#utility.yul\":3287:3354   */\n      tag_191\n      jump\t// in\n    tag_206:\n        /* \"#utility.yul\":3280:3354   */\n      swap2\n      pop\n        /* \"#utility.yul\":3363:3456   */\n      tag_207\n        /* \"#utility.yul\":3452:3455   */\n      dup3\n        /* \"#utility.yul\":3363:3456   */\n      tag_208\n      jump\t// in\n    tag_207:\n        /* \"#utility.yul\":3481:3483   */\n      0x40\n        /* \"#utility.yul\":3476:3479   */\n      dup3\n        /* \"#utility.yul\":3472:3484   */\n      add\n        /* \"#utility.yul\":3465:3484   */\n      swap1\n      pop\n        /* \"#utility.yul\":3124:3490   */\n      swap2\n      swap1\n      pop\n      jump\t// out\n        /* \"#utility.yul\":3496:3862   */\n    tag_209:\n        /* \"#utility.yul\":3638:3641   */\n      0x00\n        /* \"#utility.yul\":3659:3726   */\n      tag_211\n        /* \"#utility.yul\":3723:3725   */\n      0x16\n        /* \"#utility.yul\":3718:3721   */\n      dup4\n        /* \"#utility.yul\":3659:3726   */\n      tag_191\n      jump\t// in\n    tag_211:\n        /* \"#utility.yul\":3652:3726   */\n      swap2\n      pop\n        /* \"#utility.yul\":3735:3828   */\n      tag_212\n        /* \"#utility.yul\":3824:3827   */\n      dup3\n        /* \"#utility.yul\":3735:3828   */\n      tag_213\n      jump\t// in\n    tag_212:\n        /* \"#utility.yul\":3853:3855   */\n      0x20\n        /* \"#utility.yul\":3848:3851   */\n      dup3\n        /* \"#utility.yul\":3844:3856   */\n      add\n        /* \"#utility.yul\":3837:3856   */\n      swap1\n      pop\n        /* \"#utility.yul\":3496:3862   */\n      swap2\n      swap1\n      pop\n      jump\t// out\n        /* \"#utility.yul\":3868:4234   */\n    tag_214:\n        /* \"#utility.yul\":4010:4013   */\n      0x00\n        /* \"#utility.yul\":4031:4098   */\n      tag_216\n        /* \"#utility.yul\":4095:4097   */\n      0x1d\n        /* \"#utility.yul\":4090:4093   */\n      dup4\n        /* \"#utility.yul\":4031:4098   */\n      tag_191\n      jump\t// in\n    tag_216:\n        /* \"#utility.yul\":4024:4098   */\n      swap2\n      pop\n        /* \"#utility.yul\":4107:4200   */\n      tag_217\n        /* \"#utility.yul\":4196:4199   */\n      dup3\n        /* \"#utility.yul\":4107:4200   */\n      tag_218\n      jump\t// in\n    tag_217:\n        /* \"#utility.yul\":4225:4227   */\n      0x20\n        /* \"#utility.yul\":4220:4223   */\n      dup3\n        /* \"#utility.yul\":4216:4228   */\n      add\n        /* \"#utility.yul\":4209:4228   */\n      swap1\n      pop\n        /* \"#utility.yul\":3868:4234   */\n      swap2\n      swap1\n      pop\n      jump\t// out\n        /* \"#utility.yul\":4240:4606   */\n    tag_219:\n        /* \"#utility.yul\":4382:4385   */\n      0x00\n        /* \"#utility.yul\":4403:4470   */\n      tag_221\n        /* \"#utility.yul\":4467:4469   */\n      0x20\n        /* \"#utility.yul\":4462:4465   */\n      dup4\n        /* \"#utility.yul\":4403:4470   */\n      tag_191\n      jump\t// in\n    tag_221:\n        /* \"#utility.yul\":4396:4470   */\n      swap2\n      pop\n        /* \"#utility.yul\":4479:4572   */\n      tag_222\n        /* \"#utility.yul\":4568:4571   */\n      dup3\n        /* \"#utility.yul\":4479:4572   */\n      tag_223\n      jump\t// in\n    tag_222:\n        /* \"#utility.yul\":4597:4599   */\n      0x20\n        /* \"#utility.yul\":4592:4595   */\n      dup3\n        /* \"#utility.yul\":4588:4600   */\n      add\n        /* \"#utility.yul\":4581:4600   */\n      swap1\n      pop\n        /* \"#utility.yul\":4240:4606   */\n      swap2\n      swap1\n      pop\n      jump\t// out\n        /* \"#utility.yul\":4612:4978   */\n    tag_224:\n        /* \"#utility.yul\":4754:4757   */\n      0x00\n        /* \"#utility.yul\":4775:4842   */\n      tag_226\n        /* \"#utility.yul\":4839:4841   */\n      0x2a\n        /* \"#utility.yul\":4834:4837   */\n      dup4\n        /* \"#utility.yul\":4775:4842   */\n      tag_191\n      jump\t// in\n    tag_226:\n        /* \"#utility.yul\":4768:4842   */\n      swap2\n      pop\n        /* \"#utility.yul\":4851:4944   */\n      tag_227\n        /* \"#utility.yul\":4940:4943   */\n      dup3\n        /* \"#utility.yul\":4851:4944   */\n      tag_228\n      jump\t// in\n    tag_227:\n        /* \"#utility.yul\":4969:4971   */\n      0x40\n        /* \"#utility.yul\":4964:4967   */\n      dup3\n        /* \"#utility.yul\":4960:4972   */\n      add\n        /* \"#utility.yul\":4953:4972   */\n      swap1\n      pop\n        /* \"#utility.yul\":4612:4978   */\n      swap2\n      swap1\n      pop\n      jump\t// out\n        /* \"#utility.yul\":4984:5350   */\n    tag_229:\n        /* \"#utility.yul\":5126:5129   */\n      0x00\n        /* \"#utility.yul\":5147:5214   */\n      tag_231\n        /* \"#utility.yul\":5211:5213   */\n      0x26\n        /* \"#utility.yul\":5206:5209   */\n      dup4\n        /* \"#utility.yul\":5147:5214   */\n      tag_191\n      jump\t// in\n    tag_231:\n        /* \"#utility.yul\":5140:5214   */\n      swap2\n      pop\n        /* \"#utility.yul\":5223:5316   */\n      tag_232\n        /* \"#utility.yul\":5312:5315   */\n      dup3\n        /* \"#utility.yul\":5223:5316   */\n      tag_233\n      jump\t// in\n    tag_232:\n        /* \"#utility.yul\":5341:5343   */\n      0x40\n        /* \"#utility.yul\":5336:5339   */\n      dup3\n        /* \"#utility.yul\":5332:5344   */\n      add\n        /* \"#utility.yul\":5325:5344   */\n      swap1\n      pop\n        /* \"#utility.yul\":4984:5350   */\n      swap2\n      swap1\n      pop\n      jump\t// out\n        /* \"#utility.yul\":5356:5722   */\n    tag_234:\n        /* \"#utility.yul\":5498:5501   */\n      0x00\n        /* \"#utility.yul\":5519:5586   */\n      tag_236\n        /* \"#utility.yul\":5583:5585   */\n      0x27\n        /* \"#utility.yul\":5578:5581   */\n      dup4\n        /* \"#utility.yul\":5519:5586   */\n      tag_191\n      jump\t// in\n    tag_236:\n        /* \"#utility.yul\":5512:5586   */\n      swap2\n      pop\n        /* \"#utility.yul\":5595:5688   */\n      tag_237\n        /* \"#utility.yul\":5684:5687   */\n      dup3\n        /* \"#utility.yul\":5595:5688   */\n      tag_238\n      jump\t// in\n    tag_237:\n        /* \"#utility.yul\":5713:5715   */\n      0x40\n        /* \"#utility.yul\":5708:5711   */\n      dup3\n        /* \"#utility.yul\":5704:5716   */\n      add\n        /* \"#utility.yul\":5697:5716   */\n      swap1\n      pop\n        /* \"#utility.yul\":5356:5722   */\n      swap2\n      swap1\n      pop\n      jump\t// out\n        /* \"#utility.yul\":5728:6094   */\n    tag_239:\n        /* \"#utility.yul\":5870:5873   */\n      0x00\n        /* \"#utility.yul\":5891:5958   */\n      tag_241\n        /* \"#utility.yul\":5955:5957   */\n      0x24\n        /* \"#utility.yul\":5950:5953   */\n      dup4\n        /* \"#utility.yul\":5891:5958   */\n      tag_191\n      jump\t// in\n    tag_241:\n        /* \"#utility.yul\":5884:5958   */\n      swap2\n      pop\n        /* \"#utility.yul\":5967:6060   */\n      tag_242\n        /* \"#utility.yul\":6056:6059   */\n      dup3\n        /* \"#utility.yul\":5967:6060   */\n      tag_243\n      jump\t// in\n    tag_242:\n        /* \"#utility.yul\":6085:6087   */\n      0x40\n        /* \"#utility.yul\":6080:6083   */\n      dup3\n        /* \"#utility.yul\":6076:6088   */\n      add\n        /* \"#utility.yul\":6069:6088   */\n      swap1\n      pop\n        /* \"#utility.yul\":5728:6094   */\n      swap2\n      swap1\n      pop\n      jump\t// out\n        /* \"#utility.yul\":6100:6218   */\n    tag_244:\n        /* \"#utility.yul\":6187:6211   */\n      tag_246\n        /* \"#utility.yul\":6205:6210   */\n      dup2\n        /* \"#utility.yul\":6187:6211   */\n      tag_247\n      jump\t// in\n    tag_246:\n        /* \"#utility.yul\":6182:6185   */\n      dup3\n        /* \"#utility.yul\":6175:6212   */\n      mstore\n        /* \"#utility.yul\":6100:6218   */\n      pop\n      pop\n      jump\t// out\n        /* \"#utility.yul\":6224:6446   */\n    tag_51:\n        /* \"#utility.yul\":6317:6321   */\n      0x00\n        /* \"#utility.yul\":6355:6357   */\n      0x20\n        /* \"#utility.yul\":6344:6353   */\n      dup3\n        /* \"#utility.yul\":6340:6358   */\n      add\n        /* \"#utility.yul\":6332:6358   */\n      swap1\n      pop\n        /* \"#utility.yul\":6368:6439   */\n      tag_249\n        /* \"#utility.yul\":6436:6437   */\n      0x00\n        /* \"#utility.yul\":6425:6434   */\n      dup4\n        /* \"#utility.yul\":6421:6438   */\n      add\n        /* \"#utility.yul\":6412:6418   */\n      dup5\n        /* \"#utility.yul\":6368:6439   */\n      tag_180\n      jump\t// in\n    tag_249:\n        /* \"#utility.yul\":6224:6446   */\n      swap3\n      swap2\n      pop\n      pop\n      jump\t// out\n        /* \"#utility.yul\":6452:6662   */\n    tag_56:\n        /* \"#utility.yul\":6539:6543   */\n      0x00\n        /* \"#utility.yul\":6577:6579   */\n      0x20\n        /* \"#utility.yul\":6566:6575   */\n      dup3\n        /* \"#utility.yul\":6562:6580   */\n      add\n        /* \"#utility.yul\":6554:6580   */\n      swap1\n      pop\n        /* \"#utility.yul\":6590:6655   */\n      tag_251\n        /* \"#utility.yul\":6652:6653   */\n      0x00\n        /* \"#utility.yul\":6641:6650   */\n      dup4\n        /* \"#utility.yul\":6637:6654   */\n      add\n        /* \"#utility.yul\":6628:6634   */\n      dup5\n        /* \"#utility.yul\":6590:6655   */\n      tag_184\n      jump\t// in\n    tag_251:\n        /* \"#utility.yul\":6452:6662   */\n      swap3\n      swap2\n      pop\n      pop\n      jump\t// out\n        /* \"#utility.yul\":6668:7087   */\n    tag_80:\n        /* \"#utility.yul\":6834:6838   */\n      0x00\n        /* \"#utility.yul\":6872:6874   */\n      0x20\n        /* \"#utility.yul\":6861:6870   */\n      dup3\n        /* \"#utility.yul\":6857:6875   */\n      add\n        /* \"#utility.yul\":6849:6875   */\n      swap1\n      pop\n        /* \"#utility.yul\":6921:6930   */\n      dup2\n        /* \"#utility.yul\":6915:6919   */\n      dup2\n        /* \"#utility.yul\":6911:6931   */\n      sub\n        /* \"#utility.yul\":6907:6908   */\n      0x00\n        /* \"#utility.yul\":6896:6905   */\n      dup4\n        /* \"#utility.yul\":6892:6909   */\n      add\n        /* \"#utility.yul\":6885:6932   */\n      mstore\n        /* \"#utility.yul\":6949:7080   */\n      tag_253\n        /* \"#utility.yul\":7075:7079   */\n      dup2\n        /* \"#utility.yul\":6949:7080   */\n      tag_188\n      jump\t// in\n    tag_253:\n        /* \"#utility.yul\":6941:7080   */\n      swap1\n      pop\n        /* \"#utility.yul\":6668:7087   */\n      swap2\n      swap1\n      pop\n      jump\t// out\n        /* \"#utility.yul\":7093:7512   */\n    tag_140:\n        /* \"#utility.yul\":7259:7263   */\n      0x00\n        /* \"#utility.yul\":7297:7299   */\n      0x20\n        /* \"#utility.yul\":7286:7295   */\n      dup3\n        /* \"#utility.yul\":7282:7300   */\n      add\n        /* \"#utility.yul\":7274:7300   */\n      swap1\n      pop\n        /* \"#utility.yul\":7346:7355   */\n      dup2\n        /* \"#utility.yul\":7340:7344   */\n      dup2\n        /* \"#utility.yul\":7336:7356   */\n      sub\n        /* \"#utility.yul\":7332:7333   */\n      0x00\n        /* \"#utility.yul\":7321:7330   */\n      dup4\n        /* \"#utility.yul\":7317:7334   */\n      add\n        /* \"#utility.yul\":7310:7357   */\n      mstore\n        /* \"#utility.yul\":7374:7505   */\n      tag_255\n        /* \"#utility.yul\":7500:7504   */\n      dup2\n        /* \"#utility.yul\":7374:7505   */\n      tag_194\n      jump\t// in\n    tag_255:\n        /* \"#utility.yul\":7366:7505   */\n      swap1\n      pop\n        /* \"#utility.yul\":7093:7512   */\n      swap2\n      swap1\n      pop\n      jump\t// out\n        /* \"#utility.yul\":7518:7937   */\n    tag_122:\n        /* \"#utility.yul\":7684:7688   */\n      0x00\n        /* \"#utility.yul\":7722:7724   */\n      0x20\n        /* \"#utility.yul\":7711:7720   */\n      dup3\n        /* \"#utility.yul\":7707:7725   */\n      add\n        /* \"#utility.yul\":7699:7725   */\n      swap1\n      pop\n        /* \"#utility.yul\":7771:7780   */\n      dup2\n        /* \"#utility.yul\":7765:7769   */\n      dup2\n        /* \"#utility.yul\":7761:7781   */\n      sub\n        /* \"#utility.yul\":7757:7758   */\n      0x00\n        /* \"#utility.yul\":7746:7755   */\n      dup4\n        /* \"#utility.yul\":7742:7759   */\n      add\n        /* \"#utility.yul\":7735:7782   */\n      mstore\n        /* \"#utility.yul\":7799:7930   */\n      tag_257\n        /* \"#utility.yul\":7925:7929   */\n      dup2\n        /* \"#utility.yul\":7799:7930   */\n      tag_199\n      jump\t// in\n    tag_257:\n        /* \"#utility.yul\":7791:7930   */\n      swap1\n      pop\n        /* \"#utility.yul\":7518:7937   */\n      swap2\n      swap1\n      pop\n      jump\t// out\n        /* \"#utility.yul\":7943:8362   */\n    tag_77:\n        /* \"#utility.yul\":8109:8113   */\n      0x00\n        /* \"#utility.yul\":8147:8149   */\n      0x20\n        /* \"#utility.yul\":8136:8145   */\n      dup3\n        /* \"#utility.yul\":8132:8150   */\n      add\n        /* \"#utility.yul\":8124:8150   */\n      swap1\n      pop\n        /* \"#utility.yul\":8196:8205   */\n      dup2\n        /* \"#utility.yul\":8190:8194   */\n      dup2\n        /* \"#utility.yul\":8186:8206   */\n      sub\n        /* \"#utility.yul\":8182:8183   */\n      0x00\n        /* \"#utility.yul\":8171:8180   */\n      dup4\n        /* \"#utility.yul\":8167:8184   */\n      add\n        /* \"#utility.yul\":8160:8207   */\n      mstore\n        /* \"#utility.yul\":8224:8355   */\n      tag_259\n        /* \"#utility.yul\":8350:8354   */\n      dup2\n        /* \"#utility.yul\":8224:8355   */\n      tag_204\n      jump\t// in\n    tag_259:\n        /* \"#utility.yul\":8216:8355   */\n      swap1\n      pop\n        /* \"#utility.yul\":7943:8362   */\n      swap2\n      swap1\n      pop\n      jump\t// out\n        /* \"#utility.yul\":8368:8787   */\n    tag_95:\n        /* \"#utility.yul\":8534:8538   */\n      0x00\n        /* \"#utility.yul\":8572:8574   */\n      0x20\n        /* \"#utility.yul\":8561:8570   */\n      dup3\n        /* \"#utility.yul\":8557:8575   */\n      add\n        /* \"#utility.yul\":8549:8575   */\n      swap1\n      pop\n        /* \"#utility.yul\":8621:8630   */\n      dup2\n        /* \"#utility.yul\":8615:8619   */\n      dup2\n        /* \"#utility.yul\":8611:8631   */\n      sub\n        /* \"#utility.yul\":8607:8608   */\n      0x00\n        /* \"#utility.yul\":8596:8605   */\n      dup4\n        /* \"#utility.yul\":8592:8609   */\n      add\n        /* \"#utility.yul\":8585:8632   */\n      mstore\n        /* \"#utility.yul\":8649:8780   */\n      tag_261\n        /* \"#utility.yul\":8775:8779   */\n      dup2\n        /* \"#utility.yul\":8649:8780   */\n      tag_209\n      jump\t// in\n    tag_261:\n        /* \"#utility.yul\":8641:8780   */\n      swap1\n      pop\n        /* \"#utility.yul\":8368:8787   */\n      swap2\n      swap1\n      pop\n      jump\t// out\n        /* \"#utility.yul\":8793:9212   */\n    tag_83:\n        /* \"#utility.yul\":8959:8963   */\n      0x00\n        /* \"#utility.yul\":8997:8999   */\n      0x20\n        /* \"#utility.yul\":8986:8995   */\n      dup3\n        /* \"#utility.yul\":8982:9000   */\n      add\n        /* \"#utility.yul\":8974:9000   */\n      swap1\n      pop\n        /* \"#utility.yul\":9046:9055   */\n      dup2\n        /* \"#utility.yul\":9040:9044   */\n      dup2\n        /* \"#utility.yul\":9036:9056   */\n      sub\n        /* \"#utility.yul\":9032:9033   */\n      0x00\n        /* \"#utility.yul\":9021:9030   */\n      dup4\n        /* \"#utility.yul\":9017:9034   */\n      add\n        /* \"#utility.yul\":9010:9057   */\n      mstore\n        /* \"#utility.yul\":9074:9205   */\n      tag_263\n        /* \"#utility.yul\":9200:9204   */\n      dup2\n        /* \"#utility.yul\":9074:9205   */\n      tag_214\n      jump\t// in\n    tag_263:\n        /* \"#utility.yul\":9066:9205   */\n      swap1\n      pop\n        /* \"#utility.yul\":8793:9212   */\n      swap2\n      swap1\n      pop\n      jump\t// out\n        /* \"#utility.yul\":9218:9637   */\n    tag_149:\n        /* \"#utility.yul\":9384:9388   */\n      0x00\n        /* \"#utility.yul\":9422:9424   */\n      0x20\n        /* \"#utility.yul\":9411:9420   */\n      dup3\n        /* \"#utility.yul\":9407:9425   */\n      add\n        /* \"#utility.yul\":9399:9425   */\n      swap1\n      pop\n        /* \"#utility.yul\":9471:9480   */\n      dup2\n        /* \"#utility.yul\":9465:9469   */\n      dup2\n        /* \"#utility.yul\":9461:9481   */\n      sub\n        /* \"#utility.yul\":9457:9458   */\n      0x00\n        /* \"#utility.yul\":9446:9455   */\n      dup4\n        /* \"#utility.yul\":9442:9459   */\n      add\n        /* \"#utility.yul\":9435:9482   */\n      mstore\n        /* \"#utility.yul\":9499:9630   */\n      tag_265\n        /* \"#utility.yul\":9625:9629   */\n      dup2\n        /* \"#utility.yul\":9499:9630   */\n      tag_219\n      jump\t// in\n    tag_265:\n        /* \"#utility.yul\":9491:9630   */\n      swap1\n      pop\n        /* \"#utility.yul\":9218:9637   */\n      swap2\n      swap1\n      pop\n      jump\t// out\n        /* \"#utility.yul\":9643:10062   */\n    tag_109:\n        /* \"#utility.yul\":9809:9813   */\n      0x00\n        /* \"#utility.yul\":9847:9849   */\n      0x20\n        /* \"#utility.yul\":9836:9845   */\n      dup3\n        /* \"#utility.yul\":9832:9850   */\n      add\n        /* \"#utility.yul\":9824:9850   */\n      swap1\n      pop\n        /* \"#utility.yul\":9896:9905   */\n      dup2\n        /* \"#utility.yul\":9890:9894   */\n      dup2\n        /* \"#utility.yul\":9886:9906   */\n      sub\n        /* \"#utility.yul\":9882:9883   */\n      0x00\n        /* \"#utility.yul\":9871:9880   */\n      dup4\n        /* \"#utility.yul\":9867:9884   */\n      add\n        /* \"#utility.yul\":9860:9907   */\n      mstore\n        /* \"#utility.yul\":9924:10055   */\n      tag_267\n        /* \"#utility.yul\":10050:10054   */\n      dup2\n        /* \"#utility.yul\":9924:10055   */\n      tag_224\n      jump\t// in\n    tag_267:\n        /* \"#utility.yul\":9916:10055   */\n      swap1\n      pop\n        /* \"#utility.yul\":9643:10062   */\n      swap2\n      swap1\n      pop\n      jump\t// out\n        /* \"#utility.yul\":10068:10487   */\n    tag_131:\n        /* \"#utility.yul\":10234:10238   */\n      0x00\n        /* \"#utility.yul\":10272:10274   */\n      0x20\n        /* \"#utility.yul\":10261:10270   */\n      dup3\n        /* \"#utility.yul\":10257:10275   */\n      add\n        /* \"#utility.yul\":10249:10275   */\n      swap1\n      pop\n        /* \"#utility.yul\":10321:10330   */\n      dup2\n        /* \"#utility.yul\":10315:10319   */\n      dup2\n        /* \"#utility.yul\":10311:10331   */\n      sub\n        /* \"#utility.yul\":10307:10308   */\n      0x00\n        /* \"#utility.yul\":10296:10305   */\n      dup4\n        /* \"#utility.yul\":10292:10309   */\n      add\n        /* \"#utility.yul\":10285:10332   */\n      mstore\n        /* \"#utility.yul\":10349:10480   */\n      tag_269\n        /* \"#utility.yul\":10475:10479   */\n      dup2\n        /* \"#utility.yul\":10349:10480   */\n      tag_229\n      jump\t// in\n    tag_269:\n        /* \"#utility.yul\":10341:10480   */\n      swap1\n      pop\n        /* \"#utility.yul\":10068:10487   */\n      swap2\n      swap1\n      pop\n      jump\t// out\n        /* \"#utility.yul\":10493:10912   */\n    tag_116:\n        /* \"#utility.yul\":10659:10663   */\n      0x00\n        /* \"#utility.yul\":10697:10699   */\n      0x20\n        /* \"#utility.yul\":10686:10695   */\n      dup3\n        /* \"#utility.yul\":10682:10700   */\n      add\n        /* \"#utility.yul\":10674:10700   */\n      swap1\n      pop\n        /* \"#utility.yul\":10746:10755   */\n      dup2\n        /* \"#utility.yul\":10740:10744   */\n      dup2\n        /* \"#utility.yul\":10736:10756   */\n      sub\n        /* \"#utility.yul\":10732:10733   */\n      0x00\n        /* \"#utility.yul\":10721:10730   */\n      dup4\n        /* \"#utility.yul\":10717:10734   */\n      add\n        /* \"#utility.yul\":10710:10757   */\n      mstore\n        /* \"#utility.yul\":10774:10905   */\n      tag_271\n        /* \"#utility.yul\":10900:10904   */\n      dup2\n        /* \"#utility.yul\":10774:10905   */\n      tag_234\n      jump\t// in\n    tag_271:\n        /* \"#utility.yul\":10766:10905   */\n      swap1\n      pop\n        /* \"#utility.yul\":10493:10912   */\n      swap2\n      swap1\n      pop\n      jump\t// out\n        /* \"#utility.yul\":10918:11337   */\n    tag_112:\n        /* \"#utility.yul\":11084:11088   */\n      0x00\n        /* \"#utility.yul\":11122:11124   */\n      0x20\n        /* \"#utility.yul\":11111:11120   */\n      dup3\n        /* \"#utility.yul\":11107:11125   */\n      add\n        /* \"#utility.yul\":11099:11125   */\n      swap1\n      pop\n        /* \"#utility.yul\":11171:11180   */\n      dup2\n        /* \"#utility.yul\":11165:11169   */\n      dup2\n        /* \"#utility.yul\":11161:11181   */\n      sub\n        /* \"#utility.yul\":11157:11158   */\n      0x00\n        /* \"#utility.yul\":11146:11155   */\n      dup4\n        /* \"#utility.yul\":11142:11159   */\n      add\n        /* \"#utility.yul\":11135:11182   */\n      mstore\n        /* \"#utility.yul\":11199:11330   */\n      tag_273\n        /* \"#utility.yul\":11325:11329   */\n      dup2\n        /* \"#utility.yul\":11199:11330   */\n      tag_239\n      jump\t// in\n    tag_273:\n        /* \"#utility.yul\":11191:11330   */\n      swap1\n      pop\n        /* \"#utility.yul\":10918:11337   */\n      swap2\n      swap1\n      pop\n      jump\t// out\n        /* \"#utility.yul\":11343:11565   */\n    tag_25:\n        /* \"#utility.yul\":11436:11440   */\n      0x00\n        /* \"#utility.yul\":11474:11476   */\n      0x20\n        /* \"#utility.yul\":11463:11472   */\n      dup3\n        /* \"#utility.yul\":11459:11477   */\n      add\n        /* \"#utility.yul\":11451:11477   */\n      swap1\n      pop\n        /* \"#utility.yul\":11487:11558   */\n      tag_275\n        /* \"#utility.yul\":11555:11556   */\n      0x00\n        /* \"#utility.yul\":11544:11553   */\n      dup4\n        /* \"#utility.yul\":11540:11557   */\n      add\n        /* \"#utility.yul\":11531:11537   */\n      dup5\n        /* \"#utility.yul\":11487:11558   */\n      tag_244\n      jump\t// in\n    tag_275:\n        /* \"#utility.yul\":11343:11565   */\n      swap3\n      swap2\n      pop\n      pop\n      jump\t// out\n        /* \"#utility.yul\":11571:11903   */\n    tag_63:\n        /* \"#utility.yul\":11692:11696   */\n      0x00\n        /* \"#utility.yul\":11730:11732   */\n      0x40\n        /* \"#utility.yul\":11719:11728   */\n      dup3\n        /* \"#utility.yul\":11715:11733   */\n      add\n        /* \"#utility.yul\":11707:11733   */\n      swap1\n      pop\n        /* \"#utility.yul\":11743:11814   */\n      tag_277\n        /* \"#utility.yul\":11811:11812   */\n      0x00\n        /* \"#utility.yul\":11800:11809   */\n      dup4\n        /* \"#utility.yul\":11796:11813   */\n      add\n        /* \"#utility.yul\":11787:11793   */\n      dup6\n        /* \"#utility.yul\":11743:11814   */\n      tag_244\n      jump\t// in\n    tag_277:\n        /* \"#utility.yul\":11824:11896   */\n      tag_278\n        /* \"#utility.yul\":11892:11894   */\n      0x20\n        /* \"#utility.yul\":11881:11890   */\n      dup4\n        /* \"#utility.yul\":11877:11895   */\n      add\n        /* \"#utility.yul\":11868:11874   */\n      dup5\n        /* \"#utility.yul\":11824:11896   */\n      tag_244\n      jump\t// in\n    tag_278:\n        /* \"#utility.yul\":11571:11903   */\n      swap4\n      swap3\n      pop\n      pop\n      pop\n      jump\t// out\n        /* \"#utility.yul\":11990:12159   */\n    tag_191:\n        /* \"#utility.yul\":12074:12085   */\n      0x00\n        /* \"#utility.yul\":12108:12114   */\n      dup3\n        /* \"#utility.yul\":12103:12106   */\n      dup3\n        /* \"#utility.yul\":12096:12115   */\n      mstore\n        /* \"#utility.yul\":12148:12152   */\n      0x20\n        /* \"#utility.yul\":12143:12146   */\n      dup3\n        /* \"#utility.yul\":12139:12153   */\n      add\n        /* \"#utility.yul\":12124:12153   */\n      swap1\n      pop\n        /* \"#utility.yul\":11990:12159   */\n      swap3\n      swap2\n      pop\n      pop\n      jump\t// out\n        /* \"#utility.yul\":12165:12470   */\n    tag_85:\n        /* \"#utility.yul\":12205:12208   */\n      0x00\n        /* \"#utility.yul\":12224:12244   */\n      tag_283\n        /* \"#utility.yul\":12242:12243   */\n      dup3\n        /* \"#utility.yul\":12224:12244   */\n      tag_247\n      jump\t// in\n    tag_283:\n        /* \"#utility.yul\":12219:12244   */\n      swap2\n      pop\n        /* \"#utility.yul\":12258:12278   */\n      tag_284\n        /* \"#utility.yul\":12276:12277   */\n      dup4\n        /* \"#utility.yul\":12258:12278   */\n      tag_247\n      jump\t// in\n    tag_284:\n        /* \"#utility.yul\":12253:12278   */\n      swap3\n      pop\n        /* \"#utility.yul\":12412:12413   */\n      dup3\n        /* \"#utility.yul\":12344:12410   */\n      0xffffffffffffffffffffffffffffffffffffffffffffffffffffffffffffffff\n        /* \"#utility.yul\":12340:12414   */\n      sub\n        /* \"#utility.yul\":12337:12338   */\n      dup3\n        /* \"#utility.yul\":12334:12415   */\n      gt\n        /* \"#utility.yul\":12331:12438   */\n      iszero\n      tag_285\n      jumpi\n        /* \"#utility.yul\":12418:12436   */\n      tag_286\n      tag_287\n      jump\t// in\n    tag_286:\n        /* \"#utility.yul\":12331:12438   */\n    tag_285:\n        /* \"#utility.yul\":12462:12463   */\n      dup3\n        /* \"#utility.yul\":12459:12460   */\n      dup3\n        /* \"#utility.yul\":12455:12464   */\n      add\n        /* \"#utility.yul\":12448:12464   */\n      swap1\n      pop\n        /* \"#utility.yul\":12165:12470   */\n      swap3\n      swap2\n      pop\n      pop\n      jump\t// out\n        /* \"#utility.yul\":12476:12661   */\n    tag_89:\n        /* \"#utility.yul\":12516:12517   */\n      0x00\n        /* \"#utility.yul\":12533:12553   */\n      tag_289\n        /* \"#utility.yul\":12551:12552   */\n      dup3\n        /* \"#utility.yul\":12533:12553   */\n      tag_247\n      jump\t// in\n    tag_289:\n        /* \"#utility.yul\":12528:12553   */\n      swap2\n      pop\n        /* \"#utility.yul\":12567:12587   */\n      tag_290\n        /* \"#utility.yul\":12585:12586   */\n      dup4\n        /* \"#utility.yul\":12567:12587   */\n      tag_247\n      jump\t// in\n    tag_290:\n        /* \"#utility.yul\":12562:12587   */\n      swap3\n      pop\n        /* \"#utility.yul\":12606:12607   */\n      dup3\n        /* \"#utility.yul\":12596:12631   */\n      tag_291\n      jumpi\n        /* \"#utility.yul\":12611:12629   */\n      tag_292\n      tag_293\n      jump\t// in\n    tag_292:\n        /* \"#utility.yul\":12596:12631   */\n    tag_291:\n        /* \"#utility.yul\":12653:12654   */\n      dup3\n        /* \"#utility.yul\":12650:12651   */\n      dup3\n        /* \"#utility.yul\":12646:12655   */\n      div\n        /* \"#utility.yul\":12641:12655   */\n      swap1\n      pop\n        /* \"#utility.yul\":12476:12661   */\n      swap3\n      swap2\n      pop\n      pop\n      jump\t// out\n        /* \"#utility.yul\":12667:13015   */\n    tag_87:\n        /* \"#utility.yul\":12707:12714   */\n      0x00\n        /* \"#utility.yul\":12730:12750   */\n      tag_295\n        /* \"#utility.yul\":12748:12749   */\n      dup3\n        /* \"#utility.yul\":12730:12750   */\n      tag_247\n      jump\t// in\n    tag_295:\n        /* \"#utility.yul\":12725:12750   */\n      swap2\n      pop\n        /* \"#utility.yul\":12764:12784   */\n      tag_296\n        /* \"#utility.yul\":12782:12783   */\n      dup4\n        /* \"#utility.yul\":12764:12784   */\n      tag_247\n      jump\t// in\n    tag_296:\n        /* \"#utility.yul\":12759:12784   */\n      swap3\n      pop\n        /* \"#utility.yul\":12952:12953   */\n      dup2\n        /* \"#utility.yul\":12884:12950   */\n      0xffffffffffffffffffffffffffffffffffffffffffffffffffffffffffffffff\n        /* \"#utility.yul\":12880:12954   */\n      div\n        /* \"#utility.yul\":12877:12878   */\n      dup4\n        /* \"#utility.yul\":12874:12955   */\n      gt\n        /* \"#utility.yul\":12869:12870   */\n      dup3\n        /* \"#utility.yul\":12862:12871   */\n      iszero\n        /* \"#utility.yul\":12855:12872   */\n      iszero\n        /* \"#utility.yul\":12851:12956   */\n      and\n        /* \"#utility.yul\":12848:12979   */\n      iszero\n      tag_297\n      jumpi\n        /* \"#utility.yul\":12959:12977   */\n      tag_298\n      tag_287\n      jump\t// in\n    tag_298:\n        /* \"#utility.yul\":12848:12979   */\n    tag_297:\n        /* \"#utility.yul\":13007:13008   */\n      dup3\n        /* \"#utility.yul\":13004:13005   */\n      dup3\n        /* \"#utility.yul\":13000:13009   */\n      mul\n        /* \"#utility.yul\":12989:13009   */\n      swap1\n      pop\n        /* \"#utility.yul\":12667:13015   */\n      swap3\n      swap2\n      pop\n      pop\n      jump\t// out\n        /* \"#utility.yul\":13021:13212   */\n    tag_92:\n        /* \"#utility.yul\":13061:13065   */\n      0x00\n        /* \"#utility.yul\":13081:13101   */\n      tag_300\n        /* \"#utility.yul\":13099:13100   */\n      dup3\n        /* \"#utility.yul\":13081:13101   */\n      tag_247\n      jump\t// in\n    tag_300:\n        /* \"#utility.yul\":13076:13101   */\n      swap2\n      pop\n        /* \"#utility.yul\":13115:13135   */\n      tag_301\n        /* \"#utility.yul\":13133:13134   */\n      dup4\n        /* \"#utility.yul\":13115:13135   */\n      tag_247\n      jump\t// in\n    tag_301:\n        /* \"#utility.yul\":13110:13135   */\n      swap3\n      pop\n        /* \"#utility.yul\":13154:13155   */\n      dup3\n        /* \"#utility.yul\":13151:13152   */\n      dup3\n        /* \"#utility.yul\":13148:13156   */\n      lt\n        /* \"#utility.yul\":13145:13179   */\n      iszero\n      tag_302\n      jumpi\n        /* \"#utility.yul\":13159:13177   */\n      tag_303\n      tag_287\n      jump\t// in\n    tag_303:\n        /* \"#utility.yul\":13145:13179   */\n    tag_302:\n        /* \"#utility.yul\":13204:13205   */\n      dup3\n        /* \"#utility.yul\":13201:13202   */\n      dup3\n        /* \"#utility.yul\":13197:13206   */\n      sub\n        /* \"#utility.yul\":13189:13206   */\n      swap1\n      pop\n        /* \"#utility.yul\":13021:13212   */\n      swap3\n      swap2\n      pop\n      pop\n      jump\t// out\n        /* \"#utility.yul\":13218:13314   */\n    tag_183:\n        /* \"#utility.yul\":13255:13262   */\n      0x00\n        /* \"#utility.yul\":13284:13308   */\n      tag_305\n        /* \"#utility.yul\":13302:13307   */\n      dup3\n        /* \"#utility.yul\":13284:13308   */\n      tag_306\n      jump\t// in\n    tag_305:\n        /* \"#utility.yul\":13273:13308   */\n      swap1\n      pop\n        /* \"#utility.yul\":13218:13314   */\n      swap2\n      swap1\n      pop\n      jump\t// out\n        /* \"#utility.yul\":13320:13424   */\n    tag_307:\n        /* \"#utility.yul\":13365:13372   */\n      0x00\n        /* \"#utility.yul\":13394:13418   */\n      tag_309\n        /* \"#utility.yul\":13412:13417   */\n      dup3\n        /* \"#utility.yul\":13394:13418   */\n      tag_306\n      jump\t// in\n    tag_309:\n        /* \"#utility.yul\":13383:13418   */\n      swap1\n      pop\n        /* \"#utility.yul\":13320:13424   */\n      swap2\n      swap1\n      pop\n      jump\t// out\n        /* \"#utility.yul\":13430:13520   */\n    tag_187:\n        /* \"#utility.yul\":13464:13471   */\n      0x00\n        /* \"#utility.yul\":13507:13512   */\n      dup2\n        /* \"#utility.yul\":13500:13513   */\n      iszero\n        /* \"#utility.yul\":13493:13514   */\n      iszero\n        /* \"#utility.yul\":13482:13514   */\n      swap1\n      pop\n        /* \"#utility.yul\":13430:13520   */\n      swap2\n      swap1\n      pop\n      jump\t// out\n        /* \"#utility.yul\":13526:13652   */\n    tag_306:\n        /* \"#utility.yul\":13563:13570   */\n      0x00\n        /* \"#utility.yul\":13603:13645   */\n      0xffffffffffffffffffffffffffffffffffffffff\n        /* \"#utility.yul\":13596:13601   */\n      dup3\n        /* \"#utility.yul\":13592:13646   */\n      and\n        /* \"#utility.yul\":13581:13646   */\n      swap1\n      pop\n        /* \"#utility.yul\":13526:13652   */\n      swap2\n      swap1\n      pop\n      jump\t// out\n        /* \"#utility.yul\":13658:13735   */\n    tag_247:\n        /* \"#utility.yul\":13695:13702   */\n      0x00\n        /* \"#utility.yul\":13724:13729   */\n      dup2\n        /* \"#utility.yul\":13713:13729   */\n      swap1\n      pop\n        /* \"#utility.yul\":13658:13735   */\n      swap2\n      swap1\n      pop\n      jump\t// out\n        /* \"#utility.yul\":13741:13921   */\n    tag_287:\n        /* \"#utility.yul\":13789:13866   */\n      0x4e487b7100000000000000000000000000000000000000000000000000000000\n        /* \"#utility.yul\":13786:13787   */\n      0x00\n        /* \"#utility.yul\":13779:13867   */\n      mstore\n        /* \"#utility.yul\":13886:13890   */\n      0x11\n        /* \"#utility.yul\":13883:13884   */\n      0x04\n        /* \"#utility.yul\":13876:13891   */\n      mstore\n        /* \"#utility.yul\":13910:13914   */\n      0x24\n        /* \"#utility.yul\":13907:13908   */\n      0x00\n        /* \"#utility.yul\":13900:13915   */\n      revert\n        /* \"#utility.yul\":13927:14107   */\n    tag_293:\n        /* \"#utility.yul\":13975:14052   */\n      0x4e487b7100000000000000000000000000000000000000000000000000000000\n        /* \"#utility.yul\":13972:13973   */\n      0x00\n        /* \"#utility.yul\":13965:14053   */\n      mstore\n        /* \"#utility.yul\":14072:14076   */\n      0x12\n        /* \"#utility.yul\":14069:14070   */\n      0x04\n        /* \"#utility.yul\":14062:14077   */\n      mstore\n        /* \"#utility.yul\":14096:14100   */\n      0x24\n        /* \"#utility.yul\":14093:14094   */\n      0x00\n        /* \"#utility.yul\":14086:14101   */\n      revert\n        /* \"#utility.yul\":14236:14353   */\n    tag_168:\n        /* \"#utility.yul\":14345:14346   */\n      0x00\n        /* \"#utility.yul\":14342:14343   */\n      dup1\n        /* \"#utility.yul\":14335:14347   */\n      revert\n        /* \"#utility.yul\":14359:14586   */\n    tag_193:\n        /* \"#utility.yul\":14499:14533   */\n      0x5468657265206973206e6f206d6f6e657920696e207468652077616c6c657420\n        /* \"#utility.yul\":14495:14496   */\n      0x00\n        /* \"#utility.yul\":14487:14493   */\n      dup3\n        /* \"#utility.yul\":14483:14497   */\n      add\n        /* \"#utility.yul\":14476:14534   */\n      mstore\n        /* \"#utility.yul\":14568:14578   */\n      0x746f20636c61696d000000000000000000000000000000000000000000000000\n        /* \"#utility.yul\":14563:14565   */\n      0x20\n        /* \"#utility.yul\":14555:14561   */\n      dup3\n        /* \"#utility.yul\":14551:14566   */\n      add\n        /* \"#utility.yul\":14544:14579   */\n      mstore\n        /* \"#utility.yul\":14359:14586   */\n      pop\n      jump\t// out\n        /* \"#utility.yul\":14592:14817   */\n    tag_198:\n        /* \"#utility.yul\":14732:14766   */\n      0x4f776e61626c653a206e6577206f776e657220697320746865207a65726f2061\n        /* \"#utility.yul\":14728:14729   */\n      0x00\n        /* \"#utility.yul\":14720:14726   */\n      dup3\n        /* \"#utility.yul\":14716:14730   */\n      add\n        /* \"#utility.yul\":14709:14767   */\n      mstore\n        /* \"#utility.yul\":14801:14809   */\n      0x6464726573730000000000000000000000000000000000000000000000000000\n        /* \"#utility.yul\":14796:14798   */\n      0x20\n        /* \"#utility.yul\":14788:14794   */\n      dup3\n        /* \"#utility.yul\":14784:14799   */\n      add\n        /* \"#utility.yul\":14777:14810   */\n      mstore\n        /* \"#utility.yul\":14592:14817   */\n      pop\n      jump\t// out\n        /* \"#utility.yul\":14823:15001   */\n    tag_203:\n        /* \"#utility.yul\":14963:14993   */\n      0x63616e27742072656e6f756e63654f776e657273686970206865726500000000\n        /* \"#utility.yul\":14959:14960   */\n      0x00\n        /* \"#utility.yul\":14951:14957   */\n      dup3\n        /* \"#utility.yul\":14947:14961   */\n      add\n        /* \"#utility.yul\":14940:14994   */\n      mstore\n        /* \"#utility.yul\":14823:15001   */\n      pop\n      jump\t// out\n        /* \"#utility.yul\":15007:15237   */\n    tag_208:\n        /* \"#utility.yul\":15147:15181   */\n      0x546865206f776e65722073686f756c6420757365206f776e6572576974686472\n        /* \"#utility.yul\":15143:15144   */\n      0x00\n        /* \"#utility.yul\":15135:15141   */\n      dup3\n        /* \"#utility.yul\":15131:15145   */\n      add\n        /* \"#utility.yul\":15124:15182   */\n      mstore\n        /* \"#utility.yul\":15216:15229   */\n      0x61772066756e6374696f6e000000000000000000000000000000000000000000\n        /* \"#utility.yul\":15211:15213   */\n      0x20\n        /* \"#utility.yul\":15203:15209   */\n      dup3\n        /* \"#utility.yul\":15199:15214   */\n      add\n        /* \"#utility.yul\":15192:15230   */\n      mstore\n        /* \"#utility.yul\":15007:15237   */\n      pop\n      jump\t// out\n        /* \"#utility.yul\":15243:15415   */\n    tag_213:\n        /* \"#utility.yul\":15383:15407   */\n      0x54686520616d6f756e7420697320746f6f206869676800000000000000000000\n        /* \"#utility.yul\":15379:15380   */\n      0x00\n        /* \"#utility.yul\":15371:15377   */\n      dup3\n        /* \"#utility.yul\":15367:15381   */\n      add\n        /* \"#utility.yul\":15360:15408   */\n      mstore\n        /* \"#utility.yul\":15243:15415   */\n      pop\n      jump\t// out\n        /* \"#utility.yul\":15421:15600   */\n    tag_218:\n        /* \"#utility.yul\":15561:15592   */\n      0x596f7520646f206e6f74206861766520616e7920616c6c6f77616e6365000000\n        /* \"#utility.yul\":15557:15558   */\n      0x00\n        /* \"#utility.yul\":15549:15555   */\n      dup3\n        /* \"#utility.yul\":15545:15559   */\n      add\n        /* \"#utility.yul\":15538:15593   */\n      mstore\n        /* \"#utility.yul\":15421:15600   */\n      pop\n      jump\t// out\n        /* \"#utility.yul\":15606:15788   */\n    tag_223:\n        /* \"#utility.yul\":15746:15780   */\n      0x4f776e61626c653a2063616c6c6572206973206e6f7420746865206f776e6572\n        /* \"#utility.yul\":15742:15743   */\n      0x00\n        /* \"#utility.yul\":15734:15740   */\n      dup3\n        /* \"#utility.yul\":15730:15744   */\n      add\n        /* \"#utility.yul\":15723:15781   */\n      mstore\n        /* \"#utility.yul\":15606:15788   */\n      pop\n      jump\t// out\n        /* \"#utility.yul\":15794:16023   */\n    tag_228:\n        /* \"#utility.yul\":15934:15968   */\n      0x416e20616c6c6f77616e6365206973206e6f7420726571756972656420666f72\n        /* \"#utility.yul\":15930:15931   */\n      0x00\n        /* \"#utility.yul\":15922:15928   */\n      dup3\n        /* \"#utility.yul\":15918:15932   */\n      add\n        /* \"#utility.yul\":15911:15969   */\n      mstore\n        /* \"#utility.yul\":16003:16015   */\n      0x20746865206f776e657200000000000000000000000000000000000000000000\n        /* \"#utility.yul\":15998:16000   */\n      0x20\n        /* \"#utility.yul\":15990:15996   */\n      dup3\n        /* \"#utility.yul\":15986:16001   */\n      add\n        /* \"#utility.yul\":15979:16016   */\n      mstore\n        /* \"#utility.yul\":15794:16023   */\n      pop\n      jump\t// out\n        /* \"#utility.yul\":16029:16254   */\n    tag_233:\n        /* \"#utility.yul\":16169:16203   */\n      0x416d6f756e74206973206c6172676572207468616e20636f6e74726163742062\n        /* \"#utility.yul\":16165:16166   */\n      0x00\n        /* \"#utility.yul\":16157:16163   */\n      dup3\n        /* \"#utility.yul\":16153:16167   */\n      add\n        /* \"#utility.yul\":16146:16204   */\n      mstore\n        /* \"#utility.yul\":16238:16246   */\n      0x616c616e63650000000000000000000000000000000000000000000000000000\n        /* \"#utility.yul\":16233:16235   */\n      0x20\n        /* \"#utility.yul\":16225:16231   */\n      dup3\n        /* \"#utility.yul\":16221:16236   */\n      add\n        /* \"#utility.yul\":16214:16247   */\n      mstore\n        /* \"#utility.yul\":16029:16254   */\n      pop\n      jump\t// out\n        /* \"#utility.yul\":16260:16486   */\n    tag_238:\n        /* \"#utility.yul\":16400:16434   */\n      0x5468697320776f756c64206f7665722d616c6c6f636174652074686520616c6c\n        /* \"#utility.yul\":16396:16397   */\n      0x00\n        /* \"#utility.yul\":16388:16394   */\n      dup3\n        /* \"#utility.yul\":16384:16398   */\n      add\n        /* \"#utility.yul\":16377:16435   */\n      mstore\n        /* \"#utility.yul\":16469:16478   */\n      0x6f77616e63657300000000000000000000000000000000000000000000000000\n        /* \"#utility.yul\":16464:16466   */\n      0x20\n        /* \"#utility.yul\":16456:16462   */\n      dup3\n        /* \"#utility.yul\":16452:16467   */\n      add\n        /* \"#utility.yul\":16445:16479   */\n      mstore\n        /* \"#utility.yul\":16260:16486   */\n      pop\n      jump\t// out\n        /* \"#utility.yul\":16492:16715   */\n    tag_243:\n        /* \"#utility.yul\":16632:16666   */\n      0x546865206164647265737320616c72656164792068617320616e20616c6c6f77\n        /* \"#utility.yul\":16628:16629   */\n      0x00\n        /* \"#utility.yul\":16620:16626   */\n      dup3\n        /* \"#utility.yul\":16616:16630   */\n      add\n        /* \"#utility.yul\":16609:16667   */\n      mstore\n        /* \"#utility.yul\":16701:16707   */\n      0x616e636500000000000000000000000000000000000000000000000000000000\n        /* \"#utility.yul\":16696:16698   */\n      0x20\n        /* \"#utility.yul\":16688:16694   */\n      dup3\n        /* \"#utility.yul\":16684:16699   */\n      add\n        /* \"#utility.yul\":16677:16708   */\n      mstore\n        /* \"#utility.yul\":16492:16715   */\n      pop\n      jump\t// out\n        /* \"#utility.yul\":16721:16843   */\n    tag_156:\n        /* \"#utility.yul\":16794:16818   */\n      tag_330\n        /* \"#utility.yul\":16812:16817   */\n      dup2\n        /* \"#utility.yul\":16794:16818   */\n      tag_183\n      jump\t// in\n    tag_330:\n        /* \"#utility.yul\":16787:16792   */\n      dup2\n        /* \"#utility.yul\":16784:16819   */\n      eq\n        /* \"#utility.yul\":16774:16837   */\n      tag_331\n      jumpi\n        /* \"#utility.yul\":16833:16834   */\n      0x00\n        /* \"#utility.yul\":16830:16831   */\n      dup1\n        /* \"#utility.yul\":16823:16835   */\n      revert\n        /* \"#utility.yul\":16774:16837   */\n    tag_331:\n        /* \"#utility.yul\":16721:16843   */\n      pop\n      jump\t// out\n        /* \"#utility.yul\":16849:16987   */\n    tag_160:\n        /* \"#utility.yul\":16930:16962   */\n      tag_333\n        /* \"#utility.yul\":16956:16961   */\n      dup2\n        /* \"#utility.yul\":16930:16962   */\n      tag_307\n      jump\t// in\n    tag_333:\n        /* \"#utility.yul\":16923:16928   */\n      dup2\n        /* \"#utility.yul\":16920:16963   */\n      eq\n        /* \"#utility.yul\":16910:16981   */\n      tag_334\n      jumpi\n        /* \"#utility.yul\":16977:16978   */\n      0x00\n        /* \"#utility.yul\":16974:16975   */\n      dup1\n        /* \"#utility.yul\":16967:16979   */\n      revert\n        /* \"#utility.yul\":16910:16981   */\n    tag_334:\n        /* \"#utility.yul\":16849:16987   */\n      pop\n      jump\t// out\n        /* \"#utility.yul\":16993:17115   */\n    tag_164:\n        /* \"#utility.yul\":17066:17090   */\n      tag_336\n        /* \"#utility.yul\":17084:17089   */\n      dup2\n        /* \"#utility.yul\":17066:17090   */\n      tag_247\n      jump\t// in\n    tag_336:\n        /* \"#utility.yul\":17059:17064   */\n      dup2\n        /* \"#utility.yul\":17056:17091   */\n      eq\n        /* \"#utility.yul\":17046:17109   */\n      tag_337\n      jumpi\n        /* \"#utility.yul\":17105:17106   */\n      0x00\n        /* \"#utility.yul\":17102:17103   */\n      dup1\n        /* \"#utility.yul\":17095:17107   */\n      revert\n        /* \"#utility.yul\":17046:17109   */\n    tag_337:\n        /* \"#utility.yul\":16993:17115   */\n      pop\n      jump\t// out\n\n    auxdata: 0xa2646970667358221220c633b801befad58c5eebc2ab6fd784f775b793bab79ac6096f0a5642be81ea5d64736f6c63430008070033\n}\n",
				"bytecode": {
					"linkReferences": {},
					"object": "608060405234801561001057600080fd5b5061002d61002261003260201b60201c565b61003a60201b60201c565b6100fe565b600033905090565b60008060009054906101000a900473ffffffffffffffffffffffffffffffffffffffff169050816000806101000a81548173ffffffffffffffffffffffffffffffffffffffff021916908373ffffffffffffffffffffffffffffffffffffffff1602179055508173ffffffffffffffffffffffffffffffffffffffff168173ffffffffffffffffffffffffffffffffffffffff167f8be0079c531659141344cd1fd0a4f28419497f9722a3daafe3b4186f6b6457e060405160405180910390a35050565b6114df8061010d6000396000f3fe6080604052600436106100ab5760003560e01c80638b7afe2e116100645780638b7afe2e146101885780638da5cb5b146101b35780638f32d59b146101de578063a87430ba14610209578063d9c88e1414610247578063f2fde38b14610270576100ba565b806305737314146100bf57806316a51305146100c95780632d70db2f146100f45780633e7279a31461011d57806341c6138314610146578063715018a614610171576100ba565b366100ba576100b8610299565b005b600080fd5b6100c7610299565b005b3480156100d557600080fd5b506100de6102a2565b6040516100eb9190610f70565b60405180910390f35b34801561010057600080fd5b5061011b60048036038101906101169190610bac565b6102a8565b005b34801561012957600080fd5b50610144600480360381019061013f9190610bec565b610639565b005b34801561015257600080fd5b5061015b6107f1565b6040516101689190610f70565b60405180910390f35b34801561017d57600080fd5b506101866107f7565b005b34801561019457600080fd5b5061019d61083a565b6040516101aa9190610f70565b60405180910390f35b3480156101bf57600080fd5b506101c8610840565b6040516101d59190610dda565b60405180910390f35b3480156101ea57600080fd5b506101f3610869565b6040516102009190610df5565b60405180910390f35b34801561021557600080fd5b50610230600480360381019061022b9190610b7f565b6108a6565b60405161023e929190610f8b565b60405180910390f35b34801561025357600080fd5b5061026e60048036038101906102699190610bac565b6108ca565b005b34801561027c57600080fd5b5061029760048036038101906102929190610b7f565b610972565b005b47600481905550565b60025481565b6102b0610869565b156102f0576040517f08c379a00000000000000000000000000000000000000000000000000000000081526004016102e790610e70565b60405180910390fd5b60004711610333576040517f08c379a000000000000000000000000000000000000000000000000000000000815260040161032a90610e10565b60405180910390fd5b6000600160003373ffffffffffffffffffffffffffffffffffffffff1673ffffffffffffffffffffffffffffffffffffffff16815260200190815260200160002060000154116103b8576040517f08c379a00000000000000000000000000000000000000000000000000000000081526004016103af90610eb0565b60405180910390fd5b60006064600354476103ca9190610fc5565b600160003373ffffffffffffffffffffffffffffffffffffffff1673ffffffffffffffffffffffffffffffffffffffff16815260200190815260200160002060000154610417919061104c565b610421919061101b565b90506000600160003373ffffffffffffffffffffffffffffffffffffffff1673ffffffffffffffffffffffffffffffffffffffff168152602001908152602001600020600101548211156104c057600160003373ffffffffffffffffffffffffffffffffffffffff1673ffffffffffffffffffffffffffffffffffffffff16815260200190815260200160002060010154826104bd91906110a6565b90505b80831115610503576040517f08c379a00000000000000000000000000000000000000000000000000000000081526004016104fa90610e90565b60405180910390fd5b82600160003373ffffffffffffffffffffffffffffffffffffffff1673ffffffffffffffffffffffffffffffffffffffff16815260200190815260200160002060010160008282546105559190610fc5565b92505081905550826003600082825461056e9190610fc5565b92505081905550824761058191906110a6565b6004819055508373ffffffffffffffffffffffffffffffffffffffff166108fc849081150290604051600060405180830381858888f193505050501580156105cd573d6000803e3d6000fd5b503373ffffffffffffffffffffffffffffffffffffffff168473ffffffffffffffffffffffffffffffffffffffff167fc6523614a4ee35b875baef260f78a91708fdf636c7fec1e9a186a7ae590c4e468560405161062b9190610f70565b60405180910390a350505050565b6106416109f6565b610649610840565b73ffffffffffffffffffffffffffffffffffffffff168273ffffffffffffffffffffffffffffffffffffffff1614156106b7576040517f08c379a00000000000000000000000000000000000000000000000000000000081526004016106ae90610ef0565b60405180910390fd5b6000600160008473ffffffffffffffffffffffffffffffffffffffff1673ffffffffffffffffffffffffffffffffffffffff168152602001908152602001600020600001541461073c576040517f08c379a000000000000000000000000000000000000000000000000000000000815260040161073390610f50565b60405180910390fd5b60648160025461074c9190610fc5565b111561078d576040517f08c379a000000000000000000000000000000000000000000000000000000000815260040161078490610f30565b60405180910390fd5b80600160008473ffffffffffffffffffffffffffffffffffffffff1673ffffffffffffffffffffffffffffffffffffffff1681526020019081526020016000206000018190555080600260008282546107e69190610fc5565b925050819055505050565b60035481565b6107ff6109f6565b6040517f08c379a000000000000000000000000000000000000000000000000000000000815260040161083190610e50565b60405180910390fd5b60045481565b60008060009054906101000a900473ffffffffffffffffffffffffffffffffffffffff16905090565b60003373ffffffffffffffffffffffffffffffffffffffff1661088a610840565b73ffffffffffffffffffffffffffffffffffffffff1614905090565b60016020528060005260406000206000915090508060000154908060010154905082565b6108d26109f6565b47811115610915576040517f08c379a000000000000000000000000000000000000000000000000000000000815260040161090c90610f10565b60405180910390fd5b804761092191906110a6565b6004819055508173ffffffffffffffffffffffffffffffffffffffff166108fc829081150290604051600060405180830381858888f1935050505015801561096d573d6000803e3d6000fd5b505050565b61097a6109f6565b600073ffffffffffffffffffffffffffffffffffffffff168173ffffffffffffffffffffffffffffffffffffffff1614156109ea576040517f08c379a00000000000000000000000000000000000000000000000000000000081526004016109e190610e30565b60405180910390fd5b6109f381610a74565b50565b6109fe610b38565b73ffffffffffffffffffffffffffffffffffffffff16610a1c610840565b73ffffffffffffffffffffffffffffffffffffffff1614610a72576040517f08c379a0000000000000000000000000000000000000000000000000000000008152600401610a6990610ed0565b60405180910390fd5b565b60008060009054906101000a900473ffffffffffffffffffffffffffffffffffffffff169050816000806101000a81548173ffffffffffffffffffffffffffffffffffffffff021916908373ffffffffffffffffffffffffffffffffffffffff1602179055508173ffffffffffffffffffffffffffffffffffffffff168173ffffffffffffffffffffffffffffffffffffffff167f8be0079c531659141344cd1fd0a4f28419497f9722a3daafe3b4186f6b6457e060405160405180910390a35050565b600033905090565b600081359050610b4f81611464565b92915050565b600081359050610b648161147b565b92915050565b600081359050610b7981611492565b92915050565b600060208284031215610b9557610b94611192565b5b6000610ba384828501610b40565b91505092915050565b60008060408385031215610bc357610bc2611192565b5b6000610bd185828601610b55565b9250506020610be285828601610b6a565b9150509250929050565b60008060408385031215610c0357610c02611192565b5b6000610c1185828601610b40565b9250506020610c2285828601610b6a565b9150509250929050565b610c35816110da565b82525050565b610c44816110fe565b82525050565b6000610c57602883610fb4565b9150610c6282611197565b604082019050919050565b6000610c7a602683610fb4565b9150610c85826111e6565b604082019050919050565b6000610c9d601c83610fb4565b9150610ca882611235565b602082019050919050565b6000610cc0602b83610fb4565b9150610ccb8261125e565b604082019050919050565b6000610ce3601683610fb4565b9150610cee826112ad565b602082019050919050565b6000610d06601d83610fb4565b9150610d11826112d6565b602082019050919050565b6000610d29602083610fb4565b9150610d34826112ff565b602082019050919050565b6000610d4c602a83610fb4565b9150610d5782611328565b604082019050919050565b6000610d6f602683610fb4565b9150610d7a82611377565b604082019050919050565b6000610d92602783610fb4565b9150610d9d826113c6565b604082019050919050565b6000610db5602483610fb4565b9150610dc082611415565b604082019050919050565b610dd48161112a565b82525050565b6000602082019050610def6000830184610c2c565b92915050565b6000602082019050610e0a6000830184610c3b565b92915050565b60006020820190508181036000830152610e2981610c4a565b9050919050565b60006020820190508181036000830152610e4981610c6d565b9050919050565b60006020820190508181036000830152610e6981610c90565b9050919050565b60006020820190508181036000830152610e8981610cb3565b9050919050565b60006020820190508181036000830152610ea981610cd6565b9050919050565b60006020820190508181036000830152610ec981610cf9565b9050919050565b60006020820190508181036000830152610ee981610d1c565b9050919050565b60006020820190508181036000830152610f0981610d3f565b9050919050565b60006020820190508181036000830152610f2981610d62565b9050919050565b60006020820190508181036000830152610f4981610d85565b9050919050565b60006020820190508181036000830152610f6981610da8565b9050919050565b6000602082019050610f856000830184610dcb565b92915050565b6000604082019050610fa06000830185610dcb565b610fad6020830184610dcb565b9392505050565b600082825260208201905092915050565b6000610fd08261112a565b9150610fdb8361112a565b9250827fffffffffffffffffffffffffffffffffffffffffffffffffffffffffffffffff038211156110105761100f611134565b5b828201905092915050565b60006110268261112a565b91506110318361112a565b92508261104157611040611163565b5b828204905092915050565b60006110578261112a565b91506110628361112a565b9250817fffffffffffffffffffffffffffffffffffffffffffffffffffffffffffffffff048311821515161561109b5761109a611134565b5b828202905092915050565b60006110b18261112a565b91506110bc8361112a565b9250828210156110cf576110ce611134565b5b828203905092915050565b60006110e58261110a565b9050919050565b60006110f78261110a565b9050919050565b60008115159050919050565b600073ffffffffffffffffffffffffffffffffffffffff82169050919050565b6000819050919050565b7f4e487b7100000000000000000000000000000000000000000000000000000000600052601160045260246000fd5b7f4e487b7100000000000000000000000000000000000000000000000000000000600052601260045260246000fd5b600080fd5b7f5468657265206973206e6f206d6f6e657920696e207468652077616c6c65742060008201527f746f20636c61696d000000000000000000000000000000000000000000000000602082015250565b7f4f776e61626c653a206e6577206f776e657220697320746865207a65726f206160008201527f6464726573730000000000000000000000000000000000000000000000000000602082015250565b7f63616e27742072656e6f756e63654f776e657273686970206865726500000000600082015250565b7f546865206f776e65722073686f756c6420757365206f776e657257697468647260008201527f61772066756e6374696f6e000000000000000000000000000000000000000000602082015250565b7f54686520616d6f756e7420697320746f6f206869676800000000000000000000600082015250565b7f596f7520646f206e6f74206861766520616e7920616c6c6f77616e6365000000600082015250565b7f4f776e61626c653a2063616c6c6572206973206e6f7420746865206f776e6572600082015250565b7f416e20616c6c6f77616e6365206973206e6f7420726571756972656420666f7260008201527f20746865206f776e657200000000000000000000000000000000000000000000602082015250565b7f416d6f756e74206973206c6172676572207468616e20636f6e7472616374206260008201527f616c616e63650000000000000000000000000000000000000000000000000000602082015250565b7f5468697320776f756c64206f7665722d616c6c6f636174652074686520616c6c60008201527f6f77616e63657300000000000000000000000000000000000000000000000000602082015250565b7f546865206164647265737320616c72656164792068617320616e20616c6c6f7760008201527f616e636500000000000000000000000000000000000000000000000000000000602082015250565b61146d816110da565b811461147857600080fd5b50565b611484816110ec565b811461148f57600080fd5b50565b61149b8161112a565b81146114a657600080fd5b5056fea2646970667358221220c633b801befad58c5eebc2ab6fd784f775b793bab79ac6096f0a5642be81ea5d64736f6c63430008070033",
					"opcodes": "PUSH1 0x80 PUSH1 0x40 MSTORE CALLVALUE DUP1 ISZERO PUSH2 0x10 JUMPI PUSH1 0x0 DUP1 REVERT JUMPDEST POP PUSH2 0x2D PUSH2 0x22 PUSH2 0x32 PUSH1 0x20 SHL PUSH1 0x20 SHR JUMP JUMPDEST PUSH2 0x3A PUSH1 0x20 SHL PUSH1 0x20 SHR JUMP JUMPDEST PUSH2 0xFE JUMP JUMPDEST PUSH1 0x0 CALLER SWAP1 POP SWAP1 JUMP JUMPDEST PUSH1 0x0 DUP1 PUSH1 0x0 SWAP1 SLOAD SWAP1 PUSH2 0x100 EXP SWAP1 DIV PUSH20 0xFFFFFFFFFFFFFFFFFFFFFFFFFFFFFFFFFFFFFFFF AND SWAP1 POP DUP2 PUSH1 0x0 DUP1 PUSH2 0x100 EXP DUP2 SLOAD DUP2 PUSH20 0xFFFFFFFFFFFFFFFFFFFFFFFFFFFFFFFFFFFFFFFF MUL NOT AND SWAP1 DUP4 PUSH20 0xFFFFFFFFFFFFFFFFFFFFFFFFFFFFFFFFFFFFFFFF AND MUL OR SWAP1 SSTORE POP DUP2 PUSH20 0xFFFFFFFFFFFFFFFFFFFFFFFFFFFFFFFFFFFFFFFF AND DUP2 PUSH20 0xFFFFFFFFFFFFFFFFFFFFFFFFFFFFFFFFFFFFFFFF AND PUSH32 0x8BE0079C531659141344CD1FD0A4F28419497F9722A3DAAFE3B4186F6B6457E0 PUSH1 0x40 MLOAD PUSH1 0x40 MLOAD DUP1 SWAP2 SUB SWAP1 LOG3 POP POP JUMP JUMPDEST PUSH2 0x14DF DUP1 PUSH2 0x10D PUSH1 0x0 CODECOPY PUSH1 0x0 RETURN INVALID PUSH1 0x80 PUSH1 0x40 MSTORE PUSH1 0x4 CALLDATASIZE LT PUSH2 0xAB JUMPI PUSH1 0x0 CALLDATALOAD PUSH1 0xE0 SHR DUP1 PUSH4 0x8B7AFE2E GT PUSH2 0x64 JUMPI DUP1 PUSH4 0x8B7AFE2E EQ PUSH2 0x188 JUMPI DUP1 PUSH4 0x8DA5CB5B EQ PUSH2 0x1B3 JUMPI DUP1 PUSH4 0x8F32D59B EQ PUSH2 0x1DE JUMPI DUP1 PUSH4 0xA87430BA EQ PUSH2 0x209 JUMPI DUP1 PUSH4 0xD9C88E14 EQ PUSH2 0x247 JUMPI DUP1 PUSH4 0xF2FDE38B EQ PUSH2 0x270 JUMPI PUSH2 0xBA JUMP JUMPDEST DUP1 PUSH4 0x5737314 EQ PUSH2 0xBF JUMPI DUP1 PUSH4 0x16A51305 EQ PUSH2 0xC9 JUMPI DUP1 PUSH4 0x2D70DB2F EQ PUSH2 0xF4 JUMPI DUP1 PUSH4 0x3E7279A3 EQ PUSH2 0x11D JUMPI DUP1 PUSH4 0x41C61383 EQ PUSH2 0x146 JUMPI DUP1 PUSH4 0x715018A6 EQ PUSH2 0x171 JUMPI PUSH2 0xBA JUMP JUMPDEST CALLDATASIZE PUSH2 0xBA JUMPI PUSH2 0xB8 PUSH2 0x299 JUMP JUMPDEST STOP JUMPDEST PUSH1 0x0 DUP1 REVERT JUMPDEST PUSH2 0xC7 PUSH2 0x299 JUMP JUMPDEST STOP JUMPDEST CALLVALUE DUP1 ISZERO PUSH2 0xD5 JUMPI PUSH1 0x0 DUP1 REVERT JUMPDEST POP PUSH2 0xDE PUSH2 0x2A2 JUMP JUMPDEST PUSH1 0x40 MLOAD PUSH2 0xEB SWAP2 SWAP1 PUSH2 0xF70 JUMP JUMPDEST PUSH1 0x40 MLOAD DUP1 SWAP2 SUB SWAP1 RETURN JUMPDEST CALLVALUE DUP1 ISZERO PUSH2 0x100 JUMPI PUSH1 0x0 DUP1 REVERT JUMPDEST POP PUSH2 0x11B PUSH1 0x4 DUP1 CALLDATASIZE SUB DUP2 ADD SWAP1 PUSH2 0x116 SWAP2 SWAP1 PUSH2 0xBAC JUMP JUMPDEST PUSH2 0x2A8 JUMP JUMPDEST STOP JUMPDEST CALLVALUE DUP1 ISZERO PUSH2 0x129 JUMPI PUSH1 0x0 DUP1 REVERT JUMPDEST POP PUSH2 0x144 PUSH1 0x4 DUP1 CALLDATASIZE SUB DUP2 ADD SWAP1 PUSH2 0x13F SWAP2 SWAP1 PUSH2 0xBEC JUMP JUMPDEST PUSH2 0x639 JUMP JUMPDEST STOP JUMPDEST CALLVALUE DUP1 ISZERO PUSH2 0x152 JUMPI PUSH1 0x0 DUP1 REVERT JUMPDEST POP PUSH2 0x15B PUSH2 0x7F1 JUMP JUMPDEST PUSH1 0x40 MLOAD PUSH2 0x168 SWAP2 SWAP1 PUSH2 0xF70 JUMP JUMPDEST PUSH1 0x40 MLOAD DUP1 SWAP2 SUB SWAP1 RETURN JUMPDEST CALLVALUE DUP1 ISZERO PUSH2 0x17D JUMPI PUSH1 0x0 DUP1 REVERT JUMPDEST POP PUSH2 0x186 PUSH2 0x7F7 JUMP JUMPDEST STOP JUMPDEST CALLVALUE DUP1 ISZERO PUSH2 0x194 JUMPI PUSH1 0x0 DUP1 REVERT JUMPDEST POP PUSH2 0x19D PUSH2 0x83A JUMP JUMPDEST PUSH1 0x40 MLOAD PUSH2 0x1AA SWAP2 SWAP1 PUSH2 0xF70 JUMP JUMPDEST PUSH1 0x40 MLOAD DUP1 SWAP2 SUB SWAP1 RETURN JUMPDEST CALLVALUE DUP1 ISZERO PUSH2 0x1BF JUMPI PUSH1 0x0 DUP1 REVERT JUMPDEST POP PUSH2 0x1C8 PUSH2 0x840 JUMP JUMPDEST PUSH1 0x40 MLOAD PUSH2 0x1D5 SWAP2 SWAP1 PUSH2 0xDDA JUMP JUMPDEST PUSH1 0x40 MLOAD DUP1 SWAP2 SUB SWAP1 RETURN JUMPDEST CALLVALUE DUP1 ISZERO PUSH2 0x1EA JUMPI PUSH1 0x0 DUP1 REVERT JUMPDEST POP PUSH2 0x1F3 PUSH2 0x869 JUMP JUMPDEST PUSH1 0x40 MLOAD PUSH2 0x200 SWAP2 SWAP1 PUSH2 0xDF5 JUMP JUMPDEST PUSH1 0x40 MLOAD DUP1 SWAP2 SUB SWAP1 RETURN JUMPDEST CALLVALUE DUP1 ISZERO PUSH2 0x215 JUMPI PUSH1 0x0 DUP1 REVERT JUMPDEST POP PUSH2 0x230 PUSH1 0x4 DUP1 CALLDATASIZE SUB DUP2 ADD SWAP1 PUSH2 0x22B SWAP2 SWAP1 PUSH2 0xB7F JUMP JUMPDEST PUSH2 0x8A6 JUMP JUMPDEST PUSH1 0x40 MLOAD PUSH2 0x23E SWAP3 SWAP2 SWAP1 PUSH2 0xF8B JUMP JUMPDEST PUSH1 0x40 MLOAD DUP1 SWAP2 SUB SWAP1 RETURN JUMPDEST CALLVALUE DUP1 ISZERO PUSH2 0x253 JUMPI PUSH1 0x0 DUP1 REVERT JUMPDEST POP PUSH2 0x26E PUSH1 0x4 DUP1 CALLDATASIZE SUB DUP2 ADD SWAP1 PUSH2 0x269 SWAP2 SWAP1 PUSH2 0xBAC JUMP JUMPDEST PUSH2 0x8CA JUMP JUMPDEST STOP JUMPDEST CALLVALUE DUP1 ISZERO PUSH2 0x27C JUMPI PUSH1 0x0 DUP1 REVERT JUMPDEST POP PUSH2 0x297 PUSH1 0x4 DUP1 CALLDATASIZE SUB DUP2 ADD SWAP1 PUSH2 0x292 SWAP2 SWAP1 PUSH2 0xB7F JUMP JUMPDEST PUSH2 0x972 JUMP JUMPDEST STOP JUMPDEST SELFBALANCE PUSH1 0x4 DUP2 SWAP1 SSTORE POP JUMP JUMPDEST PUSH1 0x2 SLOAD DUP2 JUMP JUMPDEST PUSH2 0x2B0 PUSH2 0x869 JUMP JUMPDEST ISZERO PUSH2 0x2F0 JUMPI PUSH1 0x40 MLOAD PUSH32 0x8C379A000000000000000000000000000000000000000000000000000000000 DUP2 MSTORE PUSH1 0x4 ADD PUSH2 0x2E7 SWAP1 PUSH2 0xE70 JUMP JUMPDEST PUSH1 0x40 MLOAD DUP1 SWAP2 SUB SWAP1 REVERT JUMPDEST PUSH1 0x0 SELFBALANCE GT PUSH2 0x333 JUMPI PUSH1 0x40 MLOAD PUSH32 0x8C379A000000000000000000000000000000000000000000000000000000000 DUP2 MSTORE PUSH1 0x4 ADD PUSH2 0x32A SWAP1 PUSH2 0xE10 JUMP JUMPDEST PUSH1 0x40 MLOAD DUP1 SWAP2 SUB SWAP1 REVERT JUMPDEST PUSH1 0x0 PUSH1 0x1 PUSH1 0x0 CALLER PUSH20 0xFFFFFFFFFFFFFFFFFFFFFFFFFFFFFFFFFFFFFFFF AND PUSH20 0xFFFFFFFFFFFFFFFFFFFFFFFFFFFFFFFFFFFFFFFF AND DUP2 MSTORE PUSH1 0x20 ADD SWAP1 DUP2 MSTORE PUSH1 0x20 ADD PUSH1 0x0 KECCAK256 PUSH1 0x0 ADD SLOAD GT PUSH2 0x3B8 JUMPI PUSH1 0x40 MLOAD PUSH32 0x8C379A000000000000000000000000000000000000000000000000000000000 DUP2 MSTORE PUSH1 0x4 ADD PUSH2 0x3AF SWAP1 PUSH2 0xEB0 JUMP JUMPDEST PUSH1 0x40 MLOAD DUP1 SWAP2 SUB SWAP1 REVERT JUMPDEST PUSH1 0x0 PUSH1 0x64 PUSH1 0x3 SLOAD SELFBALANCE PUSH2 0x3CA SWAP2 SWAP1 PUSH2 0xFC5 JUMP JUMPDEST PUSH1 0x1 PUSH1 0x0 CALLER PUSH20 0xFFFFFFFFFFFFFFFFFFFFFFFFFFFFFFFFFFFFFFFF AND PUSH20 0xFFFFFFFFFFFFFFFFFFFFFFFFFFFFFFFFFFFFFFFF AND DUP2 MSTORE PUSH1 0x20 ADD SWAP1 DUP2 MSTORE PUSH1 0x20 ADD PUSH1 0x0 KECCAK256 PUSH1 0x0 ADD SLOAD PUSH2 0x417 SWAP2 SWAP1 PUSH2 0x104C JUMP JUMPDEST PUSH2 0x421 SWAP2 SWAP1 PUSH2 0x101B JUMP JUMPDEST SWAP1 POP PUSH1 0x0 PUSH1 0x1 PUSH1 0x0 CALLER PUSH20 0xFFFFFFFFFFFFFFFFFFFFFFFFFFFFFFFFFFFFFFFF AND PUSH20 0xFFFFFFFFFFFFFFFFFFFFFFFFFFFFFFFFFFFFFFFF AND DUP2 MSTORE PUSH1 0x20 ADD SWAP1 DUP2 MSTORE PUSH1 0x20 ADD PUSH1 0x0 KECCAK256 PUSH1 0x1 ADD SLOAD DUP3 GT ISZERO PUSH2 0x4C0 JUMPI PUSH1 0x1 PUSH1 0x0 CALLER PUSH20 0xFFFFFFFFFFFFFFFFFFFFFFFFFFFFFFFFFFFFFFFF AND PUSH20 0xFFFFFFFFFFFFFFFFFFFFFFFFFFFFFFFFFFFFFFFF AND DUP2 MSTORE PUSH1 0x20 ADD SWAP1 DUP2 MSTORE PUSH1 0x20 ADD PUSH1 0x0 KECCAK256 PUSH1 0x1 ADD SLOAD DUP3 PUSH2 0x4BD SWAP2 SWAP1 PUSH2 0x10A6 JUMP JUMPDEST SWAP1 POP JUMPDEST DUP1 DUP4 GT ISZERO PUSH2 0x503 JUMPI PUSH1 0x40 MLOAD PUSH32 0x8C379A000000000000000000000000000000000000000000000000000000000 DUP2 MSTORE PUSH1 0x4 ADD PUSH2 0x4FA SWAP1 PUSH2 0xE90 JUMP JUMPDEST PUSH1 0x40 MLOAD DUP1 SWAP2 SUB SWAP1 REVERT JUMPDEST DUP3 PUSH1 0x1 PUSH1 0x0 CALLER PUSH20 0xFFFFFFFFFFFFFFFFFFFFFFFFFFFFFFFFFFFFFFFF AND PUSH20 0xFFFFFFFFFFFFFFFFFFFFFFFFFFFFFFFFFFFFFFFF AND DUP2 MSTORE PUSH1 0x20 ADD SWAP1 DUP2 MSTORE PUSH1 0x20 ADD PUSH1 0x0 KECCAK256 PUSH1 0x1 ADD PUSH1 0x0 DUP3 DUP3 SLOAD PUSH2 0x555 SWAP2 SWAP1 PUSH2 0xFC5 JUMP JUMPDEST SWAP3 POP POP DUP2 SWAP1 SSTORE POP DUP3 PUSH1 0x3 PUSH1 0x0 DUP3 DUP3 SLOAD PUSH2 0x56E SWAP2 SWAP1 PUSH2 0xFC5 JUMP JUMPDEST SWAP3 POP POP DUP2 SWAP1 SSTORE POP DUP3 SELFBALANCE PUSH2 0x581 SWAP2 SWAP1 PUSH2 0x10A6 JUMP JUMPDEST PUSH1 0x4 DUP2 SWAP1 SSTORE POP DUP4 PUSH20 0xFFFFFFFFFFFFFFFFFFFFFFFFFFFFFFFFFFFFFFFF AND PUSH2 0x8FC DUP5 SWAP1 DUP2 ISZERO MUL SWAP1 PUSH1 0x40 MLOAD PUSH1 0x0 PUSH1 0x40 MLOAD DUP1 DUP4 SUB DUP2 DUP6 DUP9 DUP9 CALL SWAP4 POP POP POP POP ISZERO DUP1 ISZERO PUSH2 0x5CD JUMPI RETURNDATASIZE PUSH1 0x0 DUP1 RETURNDATACOPY RETURNDATASIZE PUSH1 0x0 REVERT JUMPDEST POP CALLER PUSH20 0xFFFFFFFFFFFFFFFFFFFFFFFFFFFFFFFFFFFFFFFF AND DUP5 PUSH20 0xFFFFFFFFFFFFFFFFFFFFFFFFFFFFFFFFFFFFFFFF AND PUSH32 0xC6523614A4EE35B875BAEF260F78A91708FDF636C7FEC1E9A186A7AE590C4E46 DUP6 PUSH1 0x40 MLOAD PUSH2 0x62B SWAP2 SWAP1 PUSH2 0xF70 JUMP JUMPDEST PUSH1 0x40 MLOAD DUP1 SWAP2 SUB SWAP1 LOG3 POP POP POP POP JUMP JUMPDEST PUSH2 0x641 PUSH2 0x9F6 JUMP JUMPDEST PUSH2 0x649 PUSH2 0x840 JUMP JUMPDEST PUSH20 0xFFFFFFFFFFFFFFFFFFFFFFFFFFFFFFFFFFFFFFFF AND DUP3 PUSH20 0xFFFFFFFFFFFFFFFFFFFFFFFFFFFFFFFFFFFFFFFF AND EQ ISZERO PUSH2 0x6B7 JUMPI PUSH1 0x40 MLOAD PUSH32 0x8C379A000000000000000000000000000000000000000000000000000000000 DUP2 MSTORE PUSH1 0x4 ADD PUSH2 0x6AE SWAP1 PUSH2 0xEF0 JUMP JUMPDEST PUSH1 0x40 MLOAD DUP1 SWAP2 SUB SWAP1 REVERT JUMPDEST PUSH1 0x0 PUSH1 0x1 PUSH1 0x0 DUP5 PUSH20 0xFFFFFFFFFFFFFFFFFFFFFFFFFFFFFFFFFFFFFFFF AND PUSH20 0xFFFFFFFFFFFFFFFFFFFFFFFFFFFFFFFFFFFFFFFF AND DUP2 MSTORE PUSH1 0x20 ADD SWAP1 DUP2 MSTORE PUSH1 0x20 ADD PUSH1 0x0 KECCAK256 PUSH1 0x0 ADD SLOAD EQ PUSH2 0x73C JUMPI PUSH1 0x40 MLOAD PUSH32 0x8C379A000000000000000000000000000000000000000000000000000000000 DUP2 MSTORE PUSH1 0x4 ADD PUSH2 0x733 SWAP1 PUSH2 0xF50 JUMP JUMPDEST PUSH1 0x40 MLOAD DUP1 SWAP2 SUB SWAP1 REVERT JUMPDEST PUSH1 0x64 DUP2 PUSH1 0x2 SLOAD PUSH2 0x74C SWAP2 SWAP1 PUSH2 0xFC5 JUMP JUMPDEST GT ISZERO PUSH2 0x78D JUMPI PUSH1 0x40 MLOAD PUSH32 0x8C379A000000000000000000000000000000000000000000000000000000000 DUP2 MSTORE PUSH1 0x4 ADD PUSH2 0x784 SWAP1 PUSH2 0xF30 JUMP JUMPDEST PUSH1 0x40 MLOAD DUP1 SWAP2 SUB SWAP1 REVERT JUMPDEST DUP1 PUSH1 0x1 PUSH1 0x0 DUP5 PUSH20 0xFFFFFFFFFFFFFFFFFFFFFFFFFFFFFFFFFFFFFFFF AND PUSH20 0xFFFFFFFFFFFFFFFFFFFFFFFFFFFFFFFFFFFFFFFF AND DUP2 MSTORE PUSH1 0x20 ADD SWAP1 DUP2 MSTORE PUSH1 0x20 ADD PUSH1 0x0 KECCAK256 PUSH1 0x0 ADD DUP2 SWAP1 SSTORE POP DUP1 PUSH1 0x2 PUSH1 0x0 DUP3 DUP3 SLOAD PUSH2 0x7E6 SWAP2 SWAP1 PUSH2 0xFC5 JUMP JUMPDEST SWAP3 POP POP DUP2 SWAP1 SSTORE POP POP POP JUMP JUMPDEST PUSH1 0x3 SLOAD DUP2 JUMP JUMPDEST PUSH2 0x7FF PUSH2 0x9F6 JUMP JUMPDEST PUSH1 0x40 MLOAD PUSH32 0x8C379A000000000000000000000000000000000000000000000000000000000 DUP2 MSTORE PUSH1 0x4 ADD PUSH2 0x831 SWAP1 PUSH2 0xE50 JUMP JUMPDEST PUSH1 0x40 MLOAD DUP1 SWAP2 SUB SWAP1 REVERT JUMPDEST PUSH1 0x4 SLOAD DUP2 JUMP JUMPDEST PUSH1 0x0 DUP1 PUSH1 0x0 SWAP1 SLOAD SWAP1 PUSH2 0x100 EXP SWAP1 DIV PUSH20 0xFFFFFFFFFFFFFFFFFFFFFFFFFFFFFFFFFFFFFFFF AND SWAP1 POP SWAP1 JUMP JUMPDEST PUSH1 0x0 CALLER PUSH20 0xFFFFFFFFFFFFFFFFFFFFFFFFFFFFFFFFFFFFFFFF AND PUSH2 0x88A PUSH2 0x840 JUMP JUMPDEST PUSH20 0xFFFFFFFFFFFFFFFFFFFFFFFFFFFFFFFFFFFFFFFF AND EQ SWAP1 POP SWAP1 JUMP JUMPDEST PUSH1 0x1 PUSH1 0x20 MSTORE DUP1 PUSH1 0x0 MSTORE PUSH1 0x40 PUSH1 0x0 KECCAK256 PUSH1 0x0 SWAP2 POP SWAP1 POP DUP1 PUSH1 0x0 ADD SLOAD SWAP1 DUP1 PUSH1 0x1 ADD SLOAD SWAP1 POP DUP3 JUMP JUMPDEST PUSH2 0x8D2 PUSH2 0x9F6 JUMP JUMPDEST SELFBALANCE DUP2 GT ISZERO PUSH2 0x915 JUMPI PUSH1 0x40 MLOAD PUSH32 0x8C379A000000000000000000000000000000000000000000000000000000000 DUP2 MSTORE PUSH1 0x4 ADD PUSH2 0x90C SWAP1 PUSH2 0xF10 JUMP JUMPDEST PUSH1 0x40 MLOAD DUP1 SWAP2 SUB SWAP1 REVERT JUMPDEST DUP1 SELFBALANCE PUSH2 0x921 SWAP2 SWAP1 PUSH2 0x10A6 JUMP JUMPDEST PUSH1 0x4 DUP2 SWAP1 SSTORE POP DUP2 PUSH20 0xFFFFFFFFFFFFFFFFFFFFFFFFFFFFFFFFFFFFFFFF AND PUSH2 0x8FC DUP3 SWAP1 DUP2 ISZERO MUL SWAP1 PUSH1 0x40 MLOAD PUSH1 0x0 PUSH1 0x40 MLOAD DUP1 DUP4 SUB DUP2 DUP6 DUP9 DUP9 CALL SWAP4 POP POP POP POP ISZERO DUP1 ISZERO PUSH2 0x96D JUMPI RETURNDATASIZE PUSH1 0x0 DUP1 RETURNDATACOPY RETURNDATASIZE PUSH1 0x0 REVERT JUMPDEST POP POP POP JUMP JUMPDEST PUSH2 0x97A PUSH2 0x9F6 JUMP JUMPDEST PUSH1 0x0 PUSH20 0xFFFFFFFFFFFFFFFFFFFFFFFFFFFFFFFFFFFFFFFF AND DUP2 PUSH20 0xFFFFFFFFFFFFFFFFFFFFFFFFFFFFFFFFFFFFFFFF AND EQ ISZERO PUSH2 0x9EA JUMPI PUSH1 0x40 MLOAD PUSH32 0x8C379A000000000000000000000000000000000000000000000000000000000 DUP2 MSTORE PUSH1 0x4 ADD PUSH2 0x9E1 SWAP1 PUSH2 0xE30 JUMP JUMPDEST PUSH1 0x40 MLOAD DUP1 SWAP2 SUB SWAP1 REVERT JUMPDEST PUSH2 0x9F3 DUP2 PUSH2 0xA74 JUMP JUMPDEST POP JUMP JUMPDEST PUSH2 0x9FE PUSH2 0xB38 JUMP JUMPDEST PUSH20 0xFFFFFFFFFFFFFFFFFFFFFFFFFFFFFFFFFFFFFFFF AND PUSH2 0xA1C PUSH2 0x840 JUMP JUMPDEST PUSH20 0xFFFFFFFFFFFFFFFFFFFFFFFFFFFFFFFFFFFFFFFF AND EQ PUSH2 0xA72 JUMPI PUSH1 0x40 MLOAD PUSH32 0x8C379A000000000000000000000000000000000000000000000000000000000 DUP2 MSTORE PUSH1 0x4 ADD PUSH2 0xA69 SWAP1 PUSH2 0xED0 JUMP JUMPDEST PUSH1 0x40 MLOAD DUP1 SWAP2 SUB SWAP1 REVERT JUMPDEST JUMP JUMPDEST PUSH1 0x0 DUP1 PUSH1 0x0 SWAP1 SLOAD SWAP1 PUSH2 0x100 EXP SWAP1 DIV PUSH20 0xFFFFFFFFFFFFFFFFFFFFFFFFFFFFFFFFFFFFFFFF AND SWAP1 POP DUP2 PUSH1 0x0 DUP1 PUSH2 0x100 EXP DUP2 SLOAD DUP2 PUSH20 0xFFFFFFFFFFFFFFFFFFFFFFFFFFFFFFFFFFFFFFFF MUL NOT AND SWAP1 DUP4 PUSH20 0xFFFFFFFFFFFFFFFFFFFFFFFFFFFFFFFFFFFFFFFF AND MUL OR SWAP1 SSTORE POP DUP2 PUSH20 0xFFFFFFFFFFFFFFFFFFFFFFFFFFFFFFFFFFFFFFFF AND DUP2 PUSH20 0xFFFFFFFFFFFFFFFFFFFFFFFFFFFFFFFFFFFFFFFF AND PUSH32 0x8BE0079C531659141344CD1FD0A4F28419497F9722A3DAAFE3B4186F6B6457E0 PUSH1 0x40 MLOAD PUSH1 0x40 MLOAD DUP1 SWAP2 SUB SWAP1 LOG3 POP POP JUMP JUMPDEST PUSH1 0x0 CALLER SWAP1 POP SWAP1 JUMP JUMPDEST PUSH1 0x0 DUP2 CALLDATALOAD SWAP1 POP PUSH2 0xB4F DUP2 PUSH2 0x1464 JUMP JUMPDEST SWAP3 SWAP2 POP POP JUMP JUMPDEST PUSH1 0x0 DUP2 CALLDATALOAD SWAP1 POP PUSH2 0xB64 DUP2 PUSH2 0x147B JUMP JUMPDEST SWAP3 SWAP2 POP POP JUMP JUMPDEST PUSH1 0x0 DUP2 CALLDATALOAD SWAP1 POP PUSH2 0xB79 DUP2 PUSH2 0x1492 JUMP JUMPDEST SWAP3 SWAP2 POP POP JUMP JUMPDEST PUSH1 0x0 PUSH1 0x20 DUP3 DUP5 SUB SLT ISZERO PUSH2 0xB95 JUMPI PUSH2 0xB94 PUSH2 0x1192 JUMP JUMPDEST JUMPDEST PUSH1 0x0 PUSH2 0xBA3 DUP5 DUP3 DUP6 ADD PUSH2 0xB40 JUMP JUMPDEST SWAP2 POP POP SWAP3 SWAP2 POP POP JUMP JUMPDEST PUSH1 0x0 DUP1 PUSH1 0x40 DUP4 DUP6 SUB SLT ISZERO PUSH2 0xBC3 JUMPI PUSH2 0xBC2 PUSH2 0x1192 JUMP JUMPDEST JUMPDEST PUSH1 0x0 PUSH2 0xBD1 DUP6 DUP3 DUP7 ADD PUSH2 0xB55 JUMP JUMPDEST SWAP3 POP POP PUSH1 0x20 PUSH2 0xBE2 DUP6 DUP3 DUP7 ADD PUSH2 0xB6A JUMP JUMPDEST SWAP2 POP POP SWAP3 POP SWAP3 SWAP1 POP JUMP JUMPDEST PUSH1 0x0 DUP1 PUSH1 0x40 DUP4 DUP6 SUB SLT ISZERO PUSH2 0xC03 JUMPI PUSH2 0xC02 PUSH2 0x1192 JUMP JUMPDEST JUMPDEST PUSH1 0x0 PUSH2 0xC11 DUP6 DUP3 DUP7 ADD PUSH2 0xB40 JUMP JUMPDEST SWAP3 POP POP PUSH1 0x20 PUSH2 0xC22 DUP6 DUP3 DUP7 ADD PUSH2 0xB6A JUMP JUMPDEST SWAP2 POP POP SWAP3 POP SWAP3 SWAP1 POP JUMP JUMPDEST PUSH2 0xC35 DUP2 PUSH2 0x10DA JUMP JUMPDEST DUP3 MSTORE POP POP JUMP JUMPDEST PUSH2 0xC44 DUP2 PUSH2 0x10FE JUMP JUMPDEST DUP3 MSTORE POP POP JUMP JUMPDEST PUSH1 0x0 PUSH2 0xC57 PUSH1 0x28 DUP4 PUSH2 0xFB4 JUMP JUMPDEST SWAP2 POP PUSH2 0xC62 DUP3 PUSH2 0x1197 JUMP JUMPDEST PUSH1 0x40 DUP3 ADD SWAP1 POP SWAP2 SWAP1 POP JUMP JUMPDEST PUSH1 0x0 PUSH2 0xC7A PUSH1 0x26 DUP4 PUSH2 0xFB4 JUMP JUMPDEST SWAP2 POP PUSH2 0xC85 DUP3 PUSH2 0x11E6 JUMP JUMPDEST PUSH1 0x40 DUP3 ADD SWAP1 POP SWAP2 SWAP1 POP JUMP JUMPDEST PUSH1 0x0 PUSH2 0xC9D PUSH1 0x1C DUP4 PUSH2 0xFB4 JUMP JUMPDEST SWAP2 POP PUSH2 0xCA8 DUP3 PUSH2 0x1235 JUMP JUMPDEST PUSH1 0x20 DUP3 ADD SWAP1 POP SWAP2 SWAP1 POP JUMP JUMPDEST PUSH1 0x0 PUSH2 0xCC0 PUSH1 0x2B DUP4 PUSH2 0xFB4 JUMP JUMPDEST SWAP2 POP PUSH2 0xCCB DUP3 PUSH2 0x125E JUMP JUMPDEST PUSH1 0x40 DUP3 ADD SWAP1 POP SWAP2 SWAP1 POP JUMP JUMPDEST PUSH1 0x0 PUSH2 0xCE3 PUSH1 0x16 DUP4 PUSH2 0xFB4 JUMP JUMPDEST SWAP2 POP PUSH2 0xCEE DUP3 PUSH2 0x12AD JUMP JUMPDEST PUSH1 0x20 DUP3 ADD SWAP1 POP SWAP2 SWAP1 POP JUMP JUMPDEST PUSH1 0x0 PUSH2 0xD06 PUSH1 0x1D DUP4 PUSH2 0xFB4 JUMP JUMPDEST SWAP2 POP PUSH2 0xD11 DUP3 PUSH2 0x12D6 JUMP JUMPDEST PUSH1 0x20 DUP3 ADD SWAP1 POP SWAP2 SWAP1 POP JUMP JUMPDEST PUSH1 0x0 PUSH2 0xD29 PUSH1 0x20 DUP4 PUSH2 0xFB4 JUMP JUMPDEST SWAP2 POP PUSH2 0xD34 DUP3 PUSH2 0x12FF JUMP JUMPDEST PUSH1 0x20 DUP3 ADD SWAP1 POP SWAP2 SWAP1 POP JUMP JUMPDEST PUSH1 0x0 PUSH2 0xD4C PUSH1 0x2A DUP4 PUSH2 0xFB4 JUMP JUMPDEST SWAP2 POP PUSH2 0xD57 DUP3 PUSH2 0x1328 JUMP JUMPDEST PUSH1 0x40 DUP3 ADD SWAP1 POP SWAP2 SWAP1 POP JUMP JUMPDEST PUSH1 0x0 PUSH2 0xD6F PUSH1 0x26 DUP4 PUSH2 0xFB4 JUMP JUMPDEST SWAP2 POP PUSH2 0xD7A DUP3 PUSH2 0x1377 JUMP JUMPDEST PUSH1 0x40 DUP3 ADD SWAP1 POP SWAP2 SWAP1 POP JUMP JUMPDEST PUSH1 0x0 PUSH2 0xD92 PUSH1 0x27 DUP4 PUSH2 0xFB4 JUMP JUMPDEST SWAP2 POP PUSH2 0xD9D DUP3 PUSH2 0x13C6 JUMP JUMPDEST PUSH1 0x40 DUP3 ADD SWAP1 POP SWAP2 SWAP1 POP JUMP JUMPDEST PUSH1 0x0 PUSH2 0xDB5 PUSH1 0x24 DUP4 PUSH2 0xFB4 JUMP JUMPDEST SWAP2 POP PUSH2 0xDC0 DUP3 PUSH2 0x1415 JUMP JUMPDEST PUSH1 0x40 DUP3 ADD SWAP1 POP SWAP2 SWAP1 POP JUMP JUMPDEST PUSH2 0xDD4 DUP2 PUSH2 0x112A JUMP JUMPDEST DUP3 MSTORE POP POP JUMP JUMPDEST PUSH1 0x0 PUSH1 0x20 DUP3 ADD SWAP1 POP PUSH2 0xDEF PUSH1 0x0 DUP4 ADD DUP5 PUSH2 0xC2C JUMP JUMPDEST SWAP3 SWAP2 POP POP JUMP JUMPDEST PUSH1 0x0 PUSH1 0x20 DUP3 ADD SWAP1 POP PUSH2 0xE0A PUSH1 0x0 DUP4 ADD DUP5 PUSH2 0xC3B JUMP JUMPDEST SWAP3 SWAP2 POP POP JUMP JUMPDEST PUSH1 0x0 PUSH1 0x20 DUP3 ADD SWAP1 POP DUP2 DUP2 SUB PUSH1 0x0 DUP4 ADD MSTORE PUSH2 0xE29 DUP2 PUSH2 0xC4A JUMP JUMPDEST SWAP1 POP SWAP2 SWAP1 POP JUMP JUMPDEST PUSH1 0x0 PUSH1 0x20 DUP3 ADD SWAP1 POP DUP2 DUP2 SUB PUSH1 0x0 DUP4 ADD MSTORE PUSH2 0xE49 DUP2 PUSH2 0xC6D JUMP JUMPDEST SWAP1 POP SWAP2 SWAP1 POP JUMP JUMPDEST PUSH1 0x0 PUSH1 0x20 DUP3 ADD SWAP1 POP DUP2 DUP2 SUB PUSH1 0x0 DUP4 ADD MSTORE PUSH2 0xE69 DUP2 PUSH2 0xC90 JUMP JUMPDEST SWAP1 POP SWAP2 SWAP1 POP JUMP JUMPDEST PUSH1 0x0 PUSH1 0x20 DUP3 ADD SWAP1 POP DUP2 DUP2 SUB PUSH1 0x0 DUP4 ADD MSTORE PUSH2 0xE89 DUP2 PUSH2 0xCB3 JUMP JUMPDEST SWAP1 POP SWAP2 SWAP1 POP JUMP JUMPDEST PUSH1 0x0 PUSH1 0x20 DUP3 ADD SWAP1 POP DUP2 DUP2 SUB PUSH1 0x0 DUP4 ADD MSTORE PUSH2 0xEA9 DUP2 PUSH2 0xCD6 JUMP JUMPDEST SWAP1 POP SWAP2 SWAP1 POP JUMP JUMPDEST PUSH1 0x0 PUSH1 0x20 DUP3 ADD SWAP1 POP DUP2 DUP2 SUB PUSH1 0x0 DUP4 ADD MSTORE PUSH2 0xEC9 DUP2 PUSH2 0xCF9 JUMP JUMPDEST SWAP1 POP SWAP2 SWAP1 POP JUMP JUMPDEST PUSH1 0x0 PUSH1 0x20 DUP3 ADD SWAP1 POP DUP2 DUP2 SUB PUSH1 0x0 DUP4 ADD MSTORE PUSH2 0xEE9 DUP2 PUSH2 0xD1C JUMP JUMPDEST SWAP1 POP SWAP2 SWAP1 POP JUMP JUMPDEST PUSH1 0x0 PUSH1 0x20 DUP3 ADD SWAP1 POP DUP2 DUP2 SUB PUSH1 0x0 DUP4 ADD MSTORE PUSH2 0xF09 DUP2 PUSH2 0xD3F JUMP JUMPDEST SWAP1 POP SWAP2 SWAP1 POP JUMP JUMPDEST PUSH1 0x0 PUSH1 0x20 DUP3 ADD SWAP1 POP DUP2 DUP2 SUB PUSH1 0x0 DUP4 ADD MSTORE PUSH2 0xF29 DUP2 PUSH2 0xD62 JUMP JUMPDEST SWAP1 POP SWAP2 SWAP1 POP JUMP JUMPDEST PUSH1 0x0 PUSH1 0x20 DUP3 ADD SWAP1 POP DUP2 DUP2 SUB PUSH1 0x0 DUP4 ADD MSTORE PUSH2 0xF49 DUP2 PUSH2 0xD85 JUMP JUMPDEST SWAP1 POP SWAP2 SWAP1 POP JUMP JUMPDEST PUSH1 0x0 PUSH1 0x20 DUP3 ADD SWAP1 POP DUP2 DUP2 SUB PUSH1 0x0 DUP4 ADD MSTORE PUSH2 0xF69 DUP2 PUSH2 0xDA8 JUMP JUMPDEST SWAP1 POP SWAP2 SWAP1 POP JUMP JUMPDEST PUSH1 0x0 PUSH1 0x20 DUP3 ADD SWAP1 POP PUSH2 0xF85 PUSH1 0x0 DUP4 ADD DUP5 PUSH2 0xDCB JUMP JUMPDEST SWAP3 SWAP2 POP POP JUMP JUMPDEST PUSH1 0x0 PUSH1 0x40 DUP3 ADD SWAP1 POP PUSH2 0xFA0 PUSH1 0x0 DUP4 ADD DUP6 PUSH2 0xDCB JUMP JUMPDEST PUSH2 0xFAD PUSH1 0x20 DUP4 ADD DUP5 PUSH2 0xDCB JUMP JUMPDEST SWAP4 SWAP3 POP POP POP JUMP JUMPDEST PUSH1 0x0 DUP3 DUP3 MSTORE PUSH1 0x20 DUP3 ADD SWAP1 POP SWAP3 SWAP2 POP POP JUMP JUMPDEST PUSH1 0x0 PUSH2 0xFD0 DUP3 PUSH2 0x112A JUMP JUMPDEST SWAP2 POP PUSH2 0xFDB DUP4 PUSH2 0x112A JUMP JUMPDEST SWAP3 POP DUP3 PUSH32 0xFFFFFFFFFFFFFFFFFFFFFFFFFFFFFFFFFFFFFFFFFFFFFFFFFFFFFFFFFFFFFFFF SUB DUP3 GT ISZERO PUSH2 0x1010 JUMPI PUSH2 0x100F PUSH2 0x1134 JUMP JUMPDEST JUMPDEST DUP3 DUP3 ADD SWAP1 POP SWAP3 SWAP2 POP POP JUMP JUMPDEST PUSH1 0x0 PUSH2 0x1026 DUP3 PUSH2 0x112A JUMP JUMPDEST SWAP2 POP PUSH2 0x1031 DUP4 PUSH2 0x112A JUMP JUMPDEST SWAP3 POP DUP3 PUSH2 0x1041 JUMPI PUSH2 0x1040 PUSH2 0x1163 JUMP JUMPDEST JUMPDEST DUP3 DUP3 DIV SWAP1 POP SWAP3 SWAP2 POP POP JUMP JUMPDEST PUSH1 0x0 PUSH2 0x1057 DUP3 PUSH2 0x112A JUMP JUMPDEST SWAP2 POP PUSH2 0x1062 DUP4 PUSH2 0x112A JUMP JUMPDEST SWAP3 POP DUP2 PUSH32 0xFFFFFFFFFFFFFFFFFFFFFFFFFFFFFFFFFFFFFFFFFFFFFFFFFFFFFFFFFFFFFFFF DIV DUP4 GT DUP3 ISZERO ISZERO AND ISZERO PUSH2 0x109B JUMPI PUSH2 0x109A PUSH2 0x1134 JUMP JUMPDEST JUMPDEST DUP3 DUP3 MUL SWAP1 POP SWAP3 SWAP2 POP POP JUMP JUMPDEST PUSH1 0x0 PUSH2 0x10B1 DUP3 PUSH2 0x112A JUMP JUMPDEST SWAP2 POP PUSH2 0x10BC DUP4 PUSH2 0x112A JUMP JUMPDEST SWAP3 POP DUP3 DUP3 LT ISZERO PUSH2 0x10CF JUMPI PUSH2 0x10CE PUSH2 0x1134 JUMP JUMPDEST JUMPDEST DUP3 DUP3 SUB SWAP1 POP SWAP3 SWAP2 POP POP JUMP JUMPDEST PUSH1 0x0 PUSH2 0x10E5 DUP3 PUSH2 0x110A JUMP JUMPDEST SWAP1 POP SWAP2 SWAP1 POP JUMP JUMPDEST PUSH1 0x0 PUSH2 0x10F7 DUP3 PUSH2 0x110A JUMP JUMPDEST SWAP1 POP SWAP2 SWAP1 POP JUMP JUMPDEST PUSH1 0x0 DUP2 ISZERO ISZERO SWAP1 POP SWAP2 SWAP1 POP JUMP JUMPDEST PUSH1 0x0 PUSH20 0xFFFFFFFFFFFFFFFFFFFFFFFFFFFFFFFFFFFFFFFF DUP3 AND SWAP1 POP SWAP2 SWAP1 POP JUMP JUMPDEST PUSH1 0x0 DUP2 SWAP1 POP SWAP2 SWAP1 POP JUMP JUMPDEST PUSH32 0x4E487B7100000000000000000000000000000000000000000000000000000000 PUSH1 0x0 MSTORE PUSH1 0x11 PUSH1 0x4 MSTORE PUSH1 0x24 PUSH1 0x0 REVERT JUMPDEST PUSH32 0x4E487B7100000000000000000000000000000000000000000000000000000000 PUSH1 0x0 MSTORE PUSH1 0x12 PUSH1 0x4 MSTORE PUSH1 0x24 PUSH1 0x0 REVERT JUMPDEST PUSH1 0x0 DUP1 REVERT JUMPDEST PUSH32 0x5468657265206973206E6F206D6F6E657920696E207468652077616C6C657420 PUSH1 0x0 DUP3 ADD MSTORE PUSH32 0x746F20636C61696D000000000000000000000000000000000000000000000000 PUSH1 0x20 DUP3 ADD MSTORE POP JUMP JUMPDEST PUSH32 0x4F776E61626C653A206E6577206F776E657220697320746865207A65726F2061 PUSH1 0x0 DUP3 ADD MSTORE PUSH32 0x6464726573730000000000000000000000000000000000000000000000000000 PUSH1 0x20 DUP3 ADD MSTORE POP JUMP JUMPDEST PUSH32 0x63616E27742072656E6F756E63654F776E657273686970206865726500000000 PUSH1 0x0 DUP3 ADD MSTORE POP JUMP JUMPDEST PUSH32 0x546865206F776E65722073686F756C6420757365206F776E6572576974686472 PUSH1 0x0 DUP3 ADD MSTORE PUSH32 0x61772066756E6374696F6E000000000000000000000000000000000000000000 PUSH1 0x20 DUP3 ADD MSTORE POP JUMP JUMPDEST PUSH32 0x54686520616D6F756E7420697320746F6F206869676800000000000000000000 PUSH1 0x0 DUP3 ADD MSTORE POP JUMP JUMPDEST PUSH32 0x596F7520646F206E6F74206861766520616E7920616C6C6F77616E6365000000 PUSH1 0x0 DUP3 ADD MSTORE POP JUMP JUMPDEST PUSH32 0x4F776E61626C653A2063616C6C6572206973206E6F7420746865206F776E6572 PUSH1 0x0 DUP3 ADD MSTORE POP JUMP JUMPDEST PUSH32 0x416E20616C6C6F77616E6365206973206E6F7420726571756972656420666F72 PUSH1 0x0 DUP3 ADD MSTORE PUSH32 0x20746865206F776E657200000000000000000000000000000000000000000000 PUSH1 0x20 DUP3 ADD MSTORE POP JUMP JUMPDEST PUSH32 0x416D6F756E74206973206C6172676572207468616E20636F6E74726163742062 PUSH1 0x0 DUP3 ADD MSTORE PUSH32 0x616C616E63650000000000000000000000000000000000000000000000000000 PUSH1 0x20 DUP3 ADD MSTORE POP JUMP JUMPDEST PUSH32 0x5468697320776F756C64206F7665722D616C6C6F636174652074686520616C6C PUSH1 0x0 DUP3 ADD MSTORE PUSH32 0x6F77616E63657300000000000000000000000000000000000000000000000000 PUSH1 0x20 DUP3 ADD MSTORE POP JUMP JUMPDEST PUSH32 0x546865206164647265737320616C72656164792068617320616E20616C6C6F77 PUSH1 0x0 DUP3 ADD MSTORE PUSH32 0x616E636500000000000000000000000000000000000000000000000000000000 PUSH1 0x20 DUP3 ADD MSTORE POP JUMP JUMPDEST PUSH2 0x146D DUP2 PUSH2 0x10DA JUMP JUMPDEST DUP2 EQ PUSH2 0x1478 JUMPI PUSH1 0x0 DUP1 REVERT JUMPDEST POP JUMP JUMPDEST PUSH2 0x1484 DUP2 PUSH2 0x10EC JUMP JUMPDEST DUP2 EQ PUSH2 0x148F JUMPI PUSH1 0x0 DUP1 REVERT JUMPDEST POP JUMP JUMPDEST PUSH2 0x149B DUP2 PUSH2 0x112A JUMP JUMPDEST DUP2 EQ PUSH2 0x14A6 JUMPI PUSH1 0x0 DUP1 REVERT JUMPDEST POP JUMP INVALID LOG2 PUSH5 0x6970667358 0x22 SLT KECCAK256 0xC6 CALLER 0xB8 ADD 0xBE STATICCALL 0xD5 DUP13 0x5E 0xEB 0xC2 0xAB PUSH16 0xD784F775B793BAB79AC6096F0A5642BE DUP2 0xEA 0x5D PUSH5 0x736F6C6343 STOP ADDMOD SMOD STOP CALLER "
				},
				"gasEstimates": {
					"creation": {
						"codeDepositCost": "1068600",
						"executionCost": "infinite",
						"totalCost": "infinite"
					},
					"external": {
						"ClaimMoney(address,uint256)": "infinite",
						"SendMoney()": "22237",
						"SetAllowance(address,uint256)": "infinite",
						"contractBalance()": "2429",
						"isOwner()": "2575",
						"owner()": "2544",
						"ownerWithdraw(address,uint256)": "infinite",
						"renounceOwnership()": "2809",
						"totalAllowances()": "2452",
						"totalClaims()": "2518",
						"transferOwnership(address)": "30857",
						"users(address)": "infinite"
					}
				},
				"methodIdentifiers": {
					"ClaimMoney(address,uint256)": "2d70db2f",
					"SendMoney()": "05737314",
					"SetAllowance(address,uint256)": "3e7279a3",
					"contractBalance()": "8b7afe2e",
					"isOwner()": "8f32d59b",
					"owner()": "8da5cb5b",
					"ownerWithdraw(address,uint256)": "d9c88e14",
					"renounceOwnership()": "715018a6",
					"totalAllowances()": "16a51305",
					"totalClaims()": "41c61383",
					"transferOwnership(address)": "f2fde38b",
					"users(address)": "a87430ba"
				}
			},
			"storageLayout": {
				"storage": [
					{
						"astId": 285,
						"contract": "MyProjectSharedWallet.sol:SharedWallet",
						"label": "_owner",
						"offset": 0,
						"slot": "0",
						"type": "t_address"
					},
					{
						"astId": 14,
						"contract": "MyProjectSharedWallet.sol:SharedWallet",
						"label": "users",
						"offset": 0,
						"slot": "1",
						"type": "t_mapping(t_address,t_struct(UserDetails)9_storage)"
					},
					{
						"astId": 16,
						"contract": "MyProjectSharedWallet.sol:SharedWallet",
						"label": "totalAllowances",
						"offset": 0,
						"slot": "2",
						"type": "t_uint256"
					},
					{
						"astId": 18,
						"contract": "MyProjectSharedWallet.sol:SharedWallet",
						"label": "totalClaims",
						"offset": 0,
						"slot": "3",
						"type": "t_uint256"
					},
					{
						"astId": 20,
						"contract": "MyProjectSharedWallet.sol:SharedWallet",
						"label": "contractBalance",
						"offset": 0,
						"slot": "4",
						"type": "t_uint256"
					}
				],
				"types": {
					"t_address": {
						"encoding": "inplace",
						"label": "address",
						"numberOfBytes": "20"
					},
					"t_mapping(t_address,t_struct(UserDetails)9_storage)": {
						"encoding": "mapping",
						"key": "t_address",
						"label": "mapping(address => struct SharedWallet.UserDetails)",
						"numberOfBytes": "32",
						"value": "t_struct(UserDetails)9_storage"
					},
					"t_struct(UserDetails)9_storage": {
						"encoding": "inplace",
						"label": "struct SharedWallet.UserDetails",
						"members": [
							{
								"astId": 6,
								"contract": "MyProjectSharedWallet.sol:SharedWallet",
								"label": "allowance",
								"offset": 0,
								"slot": "0",
								"type": "t_uint256"
							},
							{
								"astId": 8,
								"contract": "MyProjectSharedWallet.sol:SharedWallet",
								"label": "claimsMade",
								"offset": 0,
								"slot": "1",
								"type": "t_uint256"
							}
						],
						"numberOfBytes": "64"
					},
					"t_uint256": {
						"encoding": "inplace",
						"label": "uint256",
						"numberOfBytes": "32"
					}
				}
			},
			"userdoc": {
				"kind": "user",
				"methods": {},
				"version": 1
			}
		}
	}
}