{
	"ItemManager.sol": {
		"ItemManager": {
			"abi": [
				{
					"inputs": [
						{
							"internalType": "string",
							"name": "_itemName",
							"type": "string"
						},
						{
							"internalType": "uint256",
							"name": "_itemPrice",
							"type": "uint256"
						}
					],
					"name": "CreateItem",
					"outputs": [],
					"stateMutability": "nonpayable",
					"type": "function"
				},
				{
					"inputs": [
						{
							"internalType": "uint256",
							"name": "",
							"type": "uint256"
						}
					],
					"name": "items",
					"outputs": [
						{
							"internalType": "string",
							"name": "_itemName",
							"type": "string"
						},
						{
							"internalType": "uint256",
							"name": "_itemPrice",
							"type": "uint256"
						},
						{
							"internalType": "enum ItemManager.SupplyChainState",
							"name": "_state",
							"type": "uint8"
						}
					],
					"stateMutability": "view",
					"type": "function"
				}
			],
			"devdoc": {
				"kind": "dev",
				"methods": {},
				"version": 1
			},
			"evm": {
				"assembly": "    /* \"ItemManager.sol\":112:702  contract ItemManager {... */\n  mstore(0x40, 0x80)\n  callvalue\n  dup1\n  iszero\n  tag_1\n  jumpi\n  0x00\n  dup1\n  revert\ntag_1:\n  pop\n  dataSize(sub_0)\n  dup1\n  dataOffset(sub_0)\n  0x00\n  codecopy\n  0x00\n  return\nstop\n\nsub_0: assembly {\n        /* \"ItemManager.sol\":112:702  contract ItemManager {... */\n      mstore(0x40, 0x80)\n      callvalue\n      dup1\n      iszero\n      tag_1\n      jumpi\n      0x00\n      dup1\n      revert\n    tag_1:\n      pop\n      jumpi(tag_2, lt(calldatasize, 0x04))\n      shr(0xe0, calldataload(0x00))\n      dup1\n      0xbfb231d2\n      eq\n      tag_3\n      jumpi\n      dup1\n      0xf984ba69\n      eq\n      tag_4\n      jumpi\n    tag_2:\n      0x00\n      dup1\n      revert\n        /* \"ItemManager.sol\":338:374  mapping(uint => S_Item) public items */\n    tag_3:\n      tag_5\n      0x04\n      dup1\n      calldatasize\n      sub\n      dup2\n      add\n      swap1\n      tag_6\n      swap2\n      swap1\n      tag_7\n      jump\t// in\n    tag_6:\n      tag_8\n      jump\t// in\n    tag_5:\n      mload(0x40)\n      tag_9\n      swap4\n      swap3\n      swap2\n      swap1\n      tag_10\n      jump\t// in\n    tag_9:\n      mload(0x40)\n      dup1\n      swap2\n      sub\n      swap1\n      return\n        /* \"ItemManager.sol\":507:677  function CreateItem(string memory _itemName, uint _itemPrice) public {... */\n    tag_4:\n      tag_11\n      0x04\n      dup1\n      calldatasize\n      sub\n      dup2\n      add\n      swap1\n      tag_12\n      swap2\n      swap1\n      tag_13\n      jump\t// in\n    tag_12:\n      tag_14\n      jump\t// in\n    tag_11:\n      stop\n        /* \"ItemManager.sol\":338:374  mapping(uint => S_Item) public items */\n    tag_8:\n      mstore(0x20, 0x00)\n      dup1\n      0x00\n      mstore\n      keccak256(0x00, 0x40)\n      0x00\n      swap2\n      pop\n      swap1\n      pop\n      dup1\n      0x00\n      add\n      dup1\n      sload\n      tag_15\n      swap1\n      tag_16\n      jump\t// in\n    tag_15:\n      dup1\n      0x1f\n      add\n      0x20\n      dup1\n      swap2\n      div\n      mul\n      0x20\n      add\n      mload(0x40)\n      swap1\n      dup2\n      add\n      0x40\n      mstore\n      dup1\n      swap3\n      swap2\n      swap1\n      dup2\n      dup2\n      mstore\n      0x20\n      add\n      dup3\n      dup1\n      sload\n      tag_17\n      swap1\n      tag_16\n      jump\t// in\n    tag_17:\n      dup1\n      iszero\n      tag_18\n      jumpi\n      dup1\n      0x1f\n      lt\n      tag_19\n      jumpi\n      0x0100\n      dup1\n      dup4\n      sload\n      div\n      mul\n      dup4\n      mstore\n      swap2\n      0x20\n      add\n      swap2\n      jump(tag_18)\n    tag_19:\n      dup3\n      add\n      swap2\n      swap1\n      0x00\n      mstore\n      keccak256(0x00, 0x20)\n      swap1\n    tag_20:\n      dup2\n      sload\n      dup2\n      mstore\n      swap1\n      0x01\n      add\n      swap1\n      0x20\n      add\n      dup1\n      dup4\n      gt\n      tag_20\n      jumpi\n      dup3\n      swap1\n      sub\n      0x1f\n      and\n      dup3\n      add\n      swap2\n    tag_18:\n      pop\n      pop\n      pop\n      pop\n      pop\n      swap1\n      dup1\n      0x01\n      add\n      sload\n      swap1\n      dup1\n      0x02\n      add\n      0x00\n      swap1\n      sload\n      swap1\n      0x0100\n      exp\n      swap1\n      div\n      0xff\n      and\n      swap1\n      pop\n      dup4\n      jump\t// out\n        /* \"ItemManager.sol\":507:677  function CreateItem(string memory _itemName, uint _itemPrice) public {... */\n    tag_14:\n        /* \"ItemManager.sol\":613:622  _itemName */\n      dup2\n        /* \"ItemManager.sol\":586:591  items */\n      0x00\n        /* \"ItemManager.sol\":586:602  items[itemIndex] */\n      dup1\n        /* \"ItemManager.sol\":592:601  itemIndex */\n      sload(0x01)\n        /* \"ItemManager.sol\":586:602  items[itemIndex] */\n      dup2\n      mstore\n      0x20\n      add\n      swap1\n      dup2\n      mstore\n      0x20\n      add\n      0x00\n      keccak256\n        /* \"ItemManager.sol\":586:612  items[itemIndex]._itemName */\n      0x00\n      add\n        /* \"ItemManager.sol\":586:622  items[itemIndex]._itemName=_itemName */\n      swap1\n      dup2\n      tag_22\n      swap2\n      swap1\n      tag_23\n      jump\t// in\n    tag_22:\n      pop\n        /* \"ItemManager.sol\":660:670  _itemPrice */\n      dup1\n        /* \"ItemManager.sol\":632:637  items */\n      0x00\n        /* \"ItemManager.sol\":632:648  items[itemIndex] */\n      dup1\n        /* \"ItemManager.sol\":638:647  itemIndex */\n      sload(0x01)\n        /* \"ItemManager.sol\":632:648  items[itemIndex] */\n      dup2\n      mstore\n      0x20\n      add\n      swap1\n      dup2\n      mstore\n      0x20\n      add\n      0x00\n      keccak256\n        /* \"ItemManager.sol\":632:659  items[itemIndex]._itemPrice */\n      0x01\n      add\n        /* \"ItemManager.sol\":632:670  items[itemIndex]._itemPrice=_itemPrice */\n      dup2\n      swap1\n      sstore\n      pop\n        /* \"ItemManager.sol\":507:677  function CreateItem(string memory _itemName, uint _itemPrice) public {... */\n      pop\n      pop\n      jump\t// out\n        /* \"#utility.yul\":7:82   */\n    tag_24:\n        /* \"#utility.yul\":40:46   */\n      0x00\n        /* \"#utility.yul\":73:75   */\n      0x40\n        /* \"#utility.yul\":67:76   */\n      mload\n        /* \"#utility.yul\":57:76   */\n      swap1\n      pop\n        /* \"#utility.yul\":7:82   */\n      swap1\n      jump\t// out\n        /* \"#utility.yul\":88:205   */\n    tag_25:\n        /* \"#utility.yul\":197:198   */\n      0x00\n        /* \"#utility.yul\":194:195   */\n      dup1\n        /* \"#utility.yul\":187:199   */\n      revert\n        /* \"#utility.yul\":211:328   */\n    tag_26:\n        /* \"#utility.yul\":320:321   */\n      0x00\n        /* \"#utility.yul\":317:318   */\n      dup1\n        /* \"#utility.yul\":310:322   */\n      revert\n        /* \"#utility.yul\":334:411   */\n    tag_27:\n        /* \"#utility.yul\":371:378   */\n      0x00\n        /* \"#utility.yul\":400:405   */\n      dup2\n        /* \"#utility.yul\":389:405   */\n      swap1\n      pop\n        /* \"#utility.yul\":334:411   */\n      swap2\n      swap1\n      pop\n      jump\t// out\n        /* \"#utility.yul\":417:539   */\n    tag_28:\n        /* \"#utility.yul\":490:514   */\n      tag_72\n        /* \"#utility.yul\":508:513   */\n      dup2\n        /* \"#utility.yul\":490:514   */\n      tag_27\n      jump\t// in\n    tag_72:\n        /* \"#utility.yul\":483:488   */\n      dup2\n        /* \"#utility.yul\":480:515   */\n      eq\n        /* \"#utility.yul\":470:533   */\n      tag_73\n      jumpi\n        /* \"#utility.yul\":529:530   */\n      0x00\n        /* \"#utility.yul\":526:527   */\n      dup1\n        /* \"#utility.yul\":519:531   */\n      revert\n        /* \"#utility.yul\":470:533   */\n    tag_73:\n        /* \"#utility.yul\":417:539   */\n      pop\n      jump\t// out\n        /* \"#utility.yul\":545:684   */\n    tag_29:\n        /* \"#utility.yul\":591:596   */\n      0x00\n        /* \"#utility.yul\":629:635   */\n      dup2\n        /* \"#utility.yul\":616:636   */\n      calldataload\n        /* \"#utility.yul\":607:636   */\n      swap1\n      pop\n        /* \"#utility.yul\":645:678   */\n      tag_75\n        /* \"#utility.yul\":672:677   */\n      dup2\n        /* \"#utility.yul\":645:678   */\n      tag_28\n      jump\t// in\n    tag_75:\n        /* \"#utility.yul\":545:684   */\n      swap3\n      swap2\n      pop\n      pop\n      jump\t// out\n        /* \"#utility.yul\":690:1019   */\n    tag_7:\n        /* \"#utility.yul\":749:755   */\n      0x00\n        /* \"#utility.yul\":798:800   */\n      0x20\n        /* \"#utility.yul\":786:795   */\n      dup3\n        /* \"#utility.yul\":777:784   */\n      dup5\n        /* \"#utility.yul\":773:796   */\n      sub\n        /* \"#utility.yul\":769:801   */\n      slt\n        /* \"#utility.yul\":766:885   */\n      iszero\n      tag_77\n      jumpi\n        /* \"#utility.yul\":804:883   */\n      tag_78\n      tag_25\n      jump\t// in\n    tag_78:\n        /* \"#utility.yul\":766:885   */\n    tag_77:\n        /* \"#utility.yul\":924:925   */\n      0x00\n        /* \"#utility.yul\":949:1002   */\n      tag_79\n        /* \"#utility.yul\":994:1001   */\n      dup5\n        /* \"#utility.yul\":985:991   */\n      dup3\n        /* \"#utility.yul\":974:983   */\n      dup6\n        /* \"#utility.yul\":970:992   */\n      add\n        /* \"#utility.yul\":949:1002   */\n      tag_29\n      jump\t// in\n    tag_79:\n        /* \"#utility.yul\":939:1002   */\n      swap2\n      pop\n        /* \"#utility.yul\":895:1012   */\n      pop\n        /* \"#utility.yul\":690:1019   */\n      swap3\n      swap2\n      pop\n      pop\n      jump\t// out\n        /* \"#utility.yul\":1025:1124   */\n    tag_30:\n        /* \"#utility.yul\":1077:1083   */\n      0x00\n        /* \"#utility.yul\":1111:1116   */\n      dup2\n        /* \"#utility.yul\":1105:1117   */\n      mload\n        /* \"#utility.yul\":1095:1117   */\n      swap1\n      pop\n        /* \"#utility.yul\":1025:1124   */\n      swap2\n      swap1\n      pop\n      jump\t// out\n        /* \"#utility.yul\":1130:1299   */\n    tag_31:\n        /* \"#utility.yul\":1214:1225   */\n      0x00\n        /* \"#utility.yul\":1248:1254   */\n      dup3\n        /* \"#utility.yul\":1243:1246   */\n      dup3\n        /* \"#utility.yul\":1236:1255   */\n      mstore\n        /* \"#utility.yul\":1288:1292   */\n      0x20\n        /* \"#utility.yul\":1283:1286   */\n      dup3\n        /* \"#utility.yul\":1279:1293   */\n      add\n        /* \"#utility.yul\":1264:1293   */\n      swap1\n      pop\n        /* \"#utility.yul\":1130:1299   */\n      swap3\n      swap2\n      pop\n      pop\n      jump\t// out\n        /* \"#utility.yul\":1305:1551   */\n    tag_32:\n        /* \"#utility.yul\":1386:1387   */\n      0x00\n        /* \"#utility.yul\":1396:1509   */\n    tag_83:\n        /* \"#utility.yul\":1410:1416   */\n      dup4\n        /* \"#utility.yul\":1407:1408   */\n      dup2\n        /* \"#utility.yul\":1404:1417   */\n      lt\n        /* \"#utility.yul\":1396:1509   */\n      iszero\n      tag_85\n      jumpi\n        /* \"#utility.yul\":1495:1496   */\n      dup1\n        /* \"#utility.yul\":1490:1493   */\n      dup3\n        /* \"#utility.yul\":1486:1497   */\n      add\n        /* \"#utility.yul\":1480:1498   */\n      mload\n        /* \"#utility.yul\":1476:1477   */\n      dup2\n        /* \"#utility.yul\":1471:1474   */\n      dup5\n        /* \"#utility.yul\":1467:1478   */\n      add\n        /* \"#utility.yul\":1460:1499   */\n      mstore\n        /* \"#utility.yul\":1432:1434   */\n      0x20\n        /* \"#utility.yul\":1429:1430   */\n      dup2\n        /* \"#utility.yul\":1425:1435   */\n      add\n        /* \"#utility.yul\":1420:1435   */\n      swap1\n      pop\n        /* \"#utility.yul\":1396:1509   */\n      jump(tag_83)\n    tag_85:\n        /* \"#utility.yul\":1543:1544   */\n      0x00\n        /* \"#utility.yul\":1534:1540   */\n      dup5\n        /* \"#utility.yul\":1529:1532   */\n      dup5\n        /* \"#utility.yul\":1525:1541   */\n      add\n        /* \"#utility.yul\":1518:1545   */\n      mstore\n        /* \"#utility.yul\":1367:1551   */\n      pop\n        /* \"#utility.yul\":1305:1551   */\n      pop\n      pop\n      pop\n      jump\t// out\n        /* \"#utility.yul\":1557:1659   */\n    tag_33:\n        /* \"#utility.yul\":1598:1604   */\n      0x00\n        /* \"#utility.yul\":1649:1651   */\n      0x1f\n        /* \"#utility.yul\":1645:1652   */\n      not\n        /* \"#utility.yul\":1640:1642   */\n      0x1f\n        /* \"#utility.yul\":1633:1638   */\n      dup4\n        /* \"#utility.yul\":1629:1643   */\n      add\n        /* \"#utility.yul\":1625:1653   */\n      and\n        /* \"#utility.yul\":1615:1653   */\n      swap1\n      pop\n        /* \"#utility.yul\":1557:1659   */\n      swap2\n      swap1\n      pop\n      jump\t// out\n        /* \"#utility.yul\":1665:2042   */\n    tag_34:\n        /* \"#utility.yul\":1753:1756   */\n      0x00\n        /* \"#utility.yul\":1781:1820   */\n      tag_88\n        /* \"#utility.yul\":1814:1819   */\n      dup3\n        /* \"#utility.yul\":1781:1820   */\n      tag_30\n      jump\t// in\n    tag_88:\n        /* \"#utility.yul\":1836:1907   */\n      tag_89\n        /* \"#utility.yul\":1900:1906   */\n      dup2\n        /* \"#utility.yul\":1895:1898   */\n      dup6\n        /* \"#utility.yul\":1836:1907   */\n      tag_31\n      jump\t// in\n    tag_89:\n        /* \"#utility.yul\":1829:1907   */\n      swap4\n      pop\n        /* \"#utility.yul\":1916:1981   */\n      tag_90\n        /* \"#utility.yul\":1974:1980   */\n      dup2\n        /* \"#utility.yul\":1969:1972   */\n      dup6\n        /* \"#utility.yul\":1962:1966   */\n      0x20\n        /* \"#utility.yul\":1955:1960   */\n      dup7\n        /* \"#utility.yul\":1951:1967   */\n      add\n        /* \"#utility.yul\":1916:1981   */\n      tag_32\n      jump\t// in\n    tag_90:\n        /* \"#utility.yul\":2006:2035   */\n      tag_91\n        /* \"#utility.yul\":2028:2034   */\n      dup2\n        /* \"#utility.yul\":2006:2035   */\n      tag_33\n      jump\t// in\n    tag_91:\n        /* \"#utility.yul\":2001:2004   */\n      dup5\n        /* \"#utility.yul\":1997:2036   */\n      add\n        /* \"#utility.yul\":1990:2036   */\n      swap2\n      pop\n        /* \"#utility.yul\":1757:2042   */\n      pop\n        /* \"#utility.yul\":1665:2042   */\n      swap3\n      swap2\n      pop\n      pop\n      jump\t// out\n        /* \"#utility.yul\":2048:2166   */\n    tag_35:\n        /* \"#utility.yul\":2135:2159   */\n      tag_93\n        /* \"#utility.yul\":2153:2158   */\n      dup2\n        /* \"#utility.yul\":2135:2159   */\n      tag_27\n      jump\t// in\n    tag_93:\n        /* \"#utility.yul\":2130:2133   */\n      dup3\n        /* \"#utility.yul\":2123:2160   */\n      mstore\n        /* \"#utility.yul\":2048:2166   */\n      pop\n      pop\n      jump\t// out\n        /* \"#utility.yul\":2172:2352   */\n    tag_36:\n        /* \"#utility.yul\":2220:2297   */\n      0x4e487b7100000000000000000000000000000000000000000000000000000000\n        /* \"#utility.yul\":2217:2218   */\n      0x00\n        /* \"#utility.yul\":2210:2298   */\n      mstore\n        /* \"#utility.yul\":2317:2321   */\n      0x21\n        /* \"#utility.yul\":2314:2315   */\n      0x04\n        /* \"#utility.yul\":2307:2322   */\n      mstore\n        /* \"#utility.yul\":2341:2345   */\n      0x24\n        /* \"#utility.yul\":2338:2339   */\n      0x00\n        /* \"#utility.yul\":2331:2346   */\n      revert\n        /* \"#utility.yul\":2358:2481   */\n    tag_37:\n        /* \"#utility.yul\":2449:2450   */\n      0x03\n        /* \"#utility.yul\":2442:2447   */\n      dup2\n        /* \"#utility.yul\":2439:2451   */\n      lt\n        /* \"#utility.yul\":2429:2475   */\n      tag_96\n      jumpi\n        /* \"#utility.yul\":2455:2473   */\n      tag_97\n      tag_36\n      jump\t// in\n    tag_97:\n        /* \"#utility.yul\":2429:2475   */\n    tag_96:\n        /* \"#utility.yul\":2358:2481   */\n      pop\n      jump\t// out\n        /* \"#utility.yul\":2487:2634   */\n    tag_38:\n        /* \"#utility.yul\":2542:2549   */\n      0x00\n        /* \"#utility.yul\":2571:2576   */\n      dup2\n        /* \"#utility.yul\":2560:2576   */\n      swap1\n      pop\n        /* \"#utility.yul\":2577:2628   */\n      tag_99\n        /* \"#utility.yul\":2622:2627   */\n      dup3\n        /* \"#utility.yul\":2577:2628   */\n      tag_37\n      jump\t// in\n    tag_99:\n        /* \"#utility.yul\":2487:2634   */\n      swap2\n      swap1\n      pop\n      jump\t// out\n        /* \"#utility.yul\":2640:2787   */\n    tag_39:\n        /* \"#utility.yul\":2706:2715   */\n      0x00\n        /* \"#utility.yul\":2739:2781   */\n      tag_101\n        /* \"#utility.yul\":2775:2780   */\n      dup3\n        /* \"#utility.yul\":2739:2781   */\n      tag_38\n      jump\t// in\n    tag_101:\n        /* \"#utility.yul\":2726:2781   */\n      swap1\n      pop\n        /* \"#utility.yul\":2640:2787   */\n      swap2\n      swap1\n      pop\n      jump\t// out\n        /* \"#utility.yul\":2793:2956   */\n    tag_40:\n        /* \"#utility.yul\":2896:2949   */\n      tag_103\n        /* \"#utility.yul\":2943:2948   */\n      dup2\n        /* \"#utility.yul\":2896:2949   */\n      tag_39\n      jump\t// in\n    tag_103:\n        /* \"#utility.yul\":2891:2894   */\n      dup3\n        /* \"#utility.yul\":2884:2950   */\n      mstore\n        /* \"#utility.yul\":2793:2956   */\n      pop\n      pop\n      jump\t// out\n        /* \"#utility.yul\":2962:3527   */\n    tag_10:\n        /* \"#utility.yul\":3147:3151   */\n      0x00\n        /* \"#utility.yul\":3185:3187   */\n      0x60\n        /* \"#utility.yul\":3174:3183   */\n      dup3\n        /* \"#utility.yul\":3170:3188   */\n      add\n        /* \"#utility.yul\":3162:3188   */\n      swap1\n      pop\n        /* \"#utility.yul\":3234:3243   */\n      dup2\n        /* \"#utility.yul\":3228:3232   */\n      dup2\n        /* \"#utility.yul\":3224:3244   */\n      sub\n        /* \"#utility.yul\":3220:3221   */\n      0x00\n        /* \"#utility.yul\":3209:3218   */\n      dup4\n        /* \"#utility.yul\":3205:3222   */\n      add\n        /* \"#utility.yul\":3198:3245   */\n      mstore\n        /* \"#utility.yul\":3262:3340   */\n      tag_105\n        /* \"#utility.yul\":3335:3339   */\n      dup2\n        /* \"#utility.yul\":3326:3332   */\n      dup7\n        /* \"#utility.yul\":3262:3340   */\n      tag_34\n      jump\t// in\n    tag_105:\n        /* \"#utility.yul\":3254:3340   */\n      swap1\n      pop\n        /* \"#utility.yul\":3350:3422   */\n      tag_106\n        /* \"#utility.yul\":3418:3420   */\n      0x20\n        /* \"#utility.yul\":3407:3416   */\n      dup4\n        /* \"#utility.yul\":3403:3421   */\n      add\n        /* \"#utility.yul\":3394:3400   */\n      dup6\n        /* \"#utility.yul\":3350:3422   */\n      tag_35\n      jump\t// in\n    tag_106:\n        /* \"#utility.yul\":3432:3520   */\n      tag_107\n        /* \"#utility.yul\":3516:3518   */\n      0x40\n        /* \"#utility.yul\":3505:3514   */\n      dup4\n        /* \"#utility.yul\":3501:3519   */\n      add\n        /* \"#utility.yul\":3492:3498   */\n      dup5\n        /* \"#utility.yul\":3432:3520   */\n      tag_40\n      jump\t// in\n    tag_107:\n        /* \"#utility.yul\":2962:3527   */\n      swap5\n      swap4\n      pop\n      pop\n      pop\n      pop\n      jump\t// out\n        /* \"#utility.yul\":3533:3650   */\n    tag_41:\n        /* \"#utility.yul\":3642:3643   */\n      0x00\n        /* \"#utility.yul\":3639:3640   */\n      dup1\n        /* \"#utility.yul\":3632:3644   */\n      revert\n        /* \"#utility.yul\":3656:3773   */\n    tag_42:\n        /* \"#utility.yul\":3765:3766   */\n      0x00\n        /* \"#utility.yul\":3762:3763   */\n      dup1\n        /* \"#utility.yul\":3755:3767   */\n      revert\n        /* \"#utility.yul\":3779:3959   */\n    tag_43:\n        /* \"#utility.yul\":3827:3904   */\n      0x4e487b7100000000000000000000000000000000000000000000000000000000\n        /* \"#utility.yul\":3824:3825   */\n      0x00\n        /* \"#utility.yul\":3817:3905   */\n      mstore\n        /* \"#utility.yul\":3924:3928   */\n      0x41\n        /* \"#utility.yul\":3921:3922   */\n      0x04\n        /* \"#utility.yul\":3914:3929   */\n      mstore\n        /* \"#utility.yul\":3948:3952   */\n      0x24\n        /* \"#utility.yul\":3945:3946   */\n      0x00\n        /* \"#utility.yul\":3938:3953   */\n      revert\n        /* \"#utility.yul\":3965:4246   */\n    tag_44:\n        /* \"#utility.yul\":4048:4075   */\n      tag_112\n        /* \"#utility.yul\":4070:4074   */\n      dup3\n        /* \"#utility.yul\":4048:4075   */\n      tag_33\n      jump\t// in\n    tag_112:\n        /* \"#utility.yul\":4040:4046   */\n      dup2\n        /* \"#utility.yul\":4036:4076   */\n      add\n        /* \"#utility.yul\":4178:4184   */\n      dup2\n        /* \"#utility.yul\":4166:4176   */\n      dup2\n        /* \"#utility.yul\":4163:4185   */\n      lt\n        /* \"#utility.yul\":4142:4160   */\n      0xffffffffffffffff\n        /* \"#utility.yul\":4130:4140   */\n      dup3\n        /* \"#utility.yul\":4127:4161   */\n      gt\n        /* \"#utility.yul\":4124:4186   */\n      or\n        /* \"#utility.yul\":4121:4209   */\n      iszero\n      tag_113\n      jumpi\n        /* \"#utility.yul\":4189:4207   */\n      tag_114\n      tag_43\n      jump\t// in\n    tag_114:\n        /* \"#utility.yul\":4121:4209   */\n    tag_113:\n        /* \"#utility.yul\":4229:4239   */\n      dup1\n        /* \"#utility.yul\":4225:4227   */\n      0x40\n        /* \"#utility.yul\":4218:4240   */\n      mstore\n        /* \"#utility.yul\":4008:4246   */\n      pop\n        /* \"#utility.yul\":3965:4246   */\n      pop\n      pop\n      jump\t// out\n        /* \"#utility.yul\":4252:4381   */\n    tag_45:\n        /* \"#utility.yul\":4286:4292   */\n      0x00\n        /* \"#utility.yul\":4313:4333   */\n      tag_116\n      tag_24\n      jump\t// in\n    tag_116:\n        /* \"#utility.yul\":4303:4333   */\n      swap1\n      pop\n        /* \"#utility.yul\":4342:4375   */\n      tag_117\n        /* \"#utility.yul\":4370:4374   */\n      dup3\n        /* \"#utility.yul\":4362:4368   */\n      dup3\n        /* \"#utility.yul\":4342:4375   */\n      tag_44\n      jump\t// in\n    tag_117:\n        /* \"#utility.yul\":4252:4381   */\n      swap2\n      swap1\n      pop\n      jump\t// out\n        /* \"#utility.yul\":4387:4695   */\n    tag_46:\n        /* \"#utility.yul\":4449:4453   */\n      0x00\n        /* \"#utility.yul\":4539:4557   */\n      0xffffffffffffffff\n        /* \"#utility.yul\":4531:4537   */\n      dup3\n        /* \"#utility.yul\":4528:4558   */\n      gt\n        /* \"#utility.yul\":4525:4581   */\n      iszero\n      tag_119\n      jumpi\n        /* \"#utility.yul\":4561:4579   */\n      tag_120\n      tag_43\n      jump\t// in\n    tag_120:\n        /* \"#utility.yul\":4525:4581   */\n    tag_119:\n        /* \"#utility.yul\":4599:4628   */\n      tag_121\n        /* \"#utility.yul\":4621:4627   */\n      dup3\n        /* \"#utility.yul\":4599:4628   */\n      tag_33\n      jump\t// in\n    tag_121:\n        /* \"#utility.yul\":4591:4628   */\n      swap1\n      pop\n        /* \"#utility.yul\":4683:4687   */\n      0x20\n        /* \"#utility.yul\":4677:4681   */\n      dup2\n        /* \"#utility.yul\":4673:4688   */\n      add\n        /* \"#utility.yul\":4665:4688   */\n      swap1\n      pop\n        /* \"#utility.yul\":4387:4695   */\n      swap2\n      swap1\n      pop\n      jump\t// out\n        /* \"#utility.yul\":4701:4847   */\n    tag_47:\n        /* \"#utility.yul\":4798:4804   */\n      dup3\n        /* \"#utility.yul\":4793:4796   */\n      dup2\n        /* \"#utility.yul\":4788:4791   */\n      dup4\n        /* \"#utility.yul\":4775:4805   */\n      calldatacopy\n        /* \"#utility.yul\":4839:4840   */\n      0x00\n        /* \"#utility.yul\":4830:4836   */\n      dup4\n        /* \"#utility.yul\":4825:4828   */\n      dup4\n        /* \"#utility.yul\":4821:4837   */\n      add\n        /* \"#utility.yul\":4814:4841   */\n      mstore\n        /* \"#utility.yul\":4701:4847   */\n      pop\n      pop\n      pop\n      jump\t// out\n        /* \"#utility.yul\":4853:5278   */\n    tag_48:\n        /* \"#utility.yul\":4931:4936   */\n      0x00\n        /* \"#utility.yul\":4956:5022   */\n      tag_124\n        /* \"#utility.yul\":4972:5021   */\n      tag_125\n        /* \"#utility.yul\":5014:5020   */\n      dup5\n        /* \"#utility.yul\":4972:5021   */\n      tag_46\n      jump\t// in\n    tag_125:\n        /* \"#utility.yul\":4956:5022   */\n      tag_45\n      jump\t// in\n    tag_124:\n        /* \"#utility.yul\":4947:5022   */\n      swap1\n      pop\n        /* \"#utility.yul\":5045:5051   */\n      dup3\n        /* \"#utility.yul\":5038:5043   */\n      dup2\n        /* \"#utility.yul\":5031:5052   */\n      mstore\n        /* \"#utility.yul\":5083:5087   */\n      0x20\n        /* \"#utility.yul\":5076:5081   */\n      dup2\n        /* \"#utility.yul\":5072:5088   */\n      add\n        /* \"#utility.yul\":5121:5124   */\n      dup5\n        /* \"#utility.yul\":5112:5118   */\n      dup5\n        /* \"#utility.yul\":5107:5110   */\n      dup5\n        /* \"#utility.yul\":5103:5119   */\n      add\n        /* \"#utility.yul\":5100:5125   */\n      gt\n        /* \"#utility.yul\":5097:5209   */\n      iszero\n      tag_126\n      jumpi\n        /* \"#utility.yul\":5128:5207   */\n      tag_127\n      tag_42\n      jump\t// in\n    tag_127:\n        /* \"#utility.yul\":5097:5209   */\n    tag_126:\n        /* \"#utility.yul\":5218:5272   */\n      tag_128\n        /* \"#utility.yul\":5265:5271   */\n      dup5\n        /* \"#utility.yul\":5260:5263   */\n      dup3\n        /* \"#utility.yul\":5255:5258   */\n      dup6\n        /* \"#utility.yul\":5218:5272   */\n      tag_47\n      jump\t// in\n    tag_128:\n        /* \"#utility.yul\":4937:5278   */\n      pop\n        /* \"#utility.yul\":4853:5278   */\n      swap4\n      swap3\n      pop\n      pop\n      pop\n      jump\t// out\n        /* \"#utility.yul\":5298:5638   */\n    tag_49:\n        /* \"#utility.yul\":5354:5359   */\n      0x00\n        /* \"#utility.yul\":5403:5406   */\n      dup3\n        /* \"#utility.yul\":5396:5400   */\n      0x1f\n        /* \"#utility.yul\":5388:5394   */\n      dup4\n        /* \"#utility.yul\":5384:5401   */\n      add\n        /* \"#utility.yul\":5380:5407   */\n      slt\n        /* \"#utility.yul\":5370:5492   */\n      tag_130\n      jumpi\n        /* \"#utility.yul\":5411:5490   */\n      tag_131\n      tag_41\n      jump\t// in\n    tag_131:\n        /* \"#utility.yul\":5370:5492   */\n    tag_130:\n        /* \"#utility.yul\":5528:5534   */\n      dup2\n        /* \"#utility.yul\":5515:5535   */\n      calldataload\n        /* \"#utility.yul\":5553:5632   */\n      tag_132\n        /* \"#utility.yul\":5628:5631   */\n      dup5\n        /* \"#utility.yul\":5620:5626   */\n      dup3\n        /* \"#utility.yul\":5613:5617   */\n      0x20\n        /* \"#utility.yul\":5605:5611   */\n      dup7\n        /* \"#utility.yul\":5601:5618   */\n      add\n        /* \"#utility.yul\":5553:5632   */\n      tag_48\n      jump\t// in\n    tag_132:\n        /* \"#utility.yul\":5544:5632   */\n      swap2\n      pop\n        /* \"#utility.yul\":5360:5638   */\n      pop\n        /* \"#utility.yul\":5298:5638   */\n      swap3\n      swap2\n      pop\n      pop\n      jump\t// out\n        /* \"#utility.yul\":5644:6298   */\n    tag_13:\n        /* \"#utility.yul\":5722:5728   */\n      0x00\n        /* \"#utility.yul\":5730:5736   */\n      dup1\n        /* \"#utility.yul\":5779:5781   */\n      0x40\n        /* \"#utility.yul\":5767:5776   */\n      dup4\n        /* \"#utility.yul\":5758:5765   */\n      dup6\n        /* \"#utility.yul\":5754:5777   */\n      sub\n        /* \"#utility.yul\":5750:5782   */\n      slt\n        /* \"#utility.yul\":5747:5866   */\n      iszero\n      tag_134\n      jumpi\n        /* \"#utility.yul\":5785:5864   */\n      tag_135\n      tag_25\n      jump\t// in\n    tag_135:\n        /* \"#utility.yul\":5747:5866   */\n    tag_134:\n        /* \"#utility.yul\":5933:5934   */\n      0x00\n        /* \"#utility.yul\":5922:5931   */\n      dup4\n        /* \"#utility.yul\":5918:5935   */\n      add\n        /* \"#utility.yul\":5905:5936   */\n      calldataload\n        /* \"#utility.yul\":5963:5981   */\n      0xffffffffffffffff\n        /* \"#utility.yul\":5955:5961   */\n      dup2\n        /* \"#utility.yul\":5952:5982   */\n      gt\n        /* \"#utility.yul\":5949:6066   */\n      iszero\n      tag_136\n      jumpi\n        /* \"#utility.yul\":5985:6064   */\n      tag_137\n      tag_26\n      jump\t// in\n    tag_137:\n        /* \"#utility.yul\":5949:6066   */\n    tag_136:\n        /* \"#utility.yul\":6090:6153   */\n      tag_138\n        /* \"#utility.yul\":6145:6152   */\n      dup6\n        /* \"#utility.yul\":6136:6142   */\n      dup3\n        /* \"#utility.yul\":6125:6134   */\n      dup7\n        /* \"#utility.yul\":6121:6143   */\n      add\n        /* \"#utility.yul\":6090:6153   */\n      tag_49\n      jump\t// in\n    tag_138:\n        /* \"#utility.yul\":6080:6153   */\n      swap3\n      pop\n        /* \"#utility.yul\":5876:6163   */\n      pop\n        /* \"#utility.yul\":6202:6204   */\n      0x20\n        /* \"#utility.yul\":6228:6281   */\n      tag_139\n        /* \"#utility.yul\":6273:6280   */\n      dup6\n        /* \"#utility.yul\":6264:6270   */\n      dup3\n        /* \"#utility.yul\":6253:6262   */\n      dup7\n        /* \"#utility.yul\":6249:6271   */\n      add\n        /* \"#utility.yul\":6228:6281   */\n      tag_29\n      jump\t// in\n    tag_139:\n        /* \"#utility.yul\":6218:6281   */\n      swap2\n      pop\n        /* \"#utility.yul\":6173:6291   */\n      pop\n        /* \"#utility.yul\":5644:6298   */\n      swap3\n      pop\n      swap3\n      swap1\n      pop\n      jump\t// out\n        /* \"#utility.yul\":6304:6484   */\n    tag_50:\n        /* \"#utility.yul\":6352:6429   */\n      0x4e487b7100000000000000000000000000000000000000000000000000000000\n        /* \"#utility.yul\":6349:6350   */\n      0x00\n        /* \"#utility.yul\":6342:6430   */\n      mstore\n        /* \"#utility.yul\":6449:6453   */\n      0x22\n        /* \"#utility.yul\":6446:6447   */\n      0x04\n        /* \"#utility.yul\":6439:6454   */\n      mstore\n        /* \"#utility.yul\":6473:6477   */\n      0x24\n        /* \"#utility.yul\":6470:6471   */\n      0x00\n        /* \"#utility.yul\":6463:6478   */\n      revert\n        /* \"#utility.yul\":6490:6810   */\n    tag_16:\n        /* \"#utility.yul\":6534:6540   */\n      0x00\n        /* \"#utility.yul\":6571:6572   */\n      0x02\n        /* \"#utility.yul\":6565:6569   */\n      dup3\n        /* \"#utility.yul\":6561:6573   */\n      div\n        /* \"#utility.yul\":6551:6573   */\n      swap1\n      pop\n        /* \"#utility.yul\":6618:6619   */\n      0x01\n        /* \"#utility.yul\":6612:6616   */\n      dup3\n        /* \"#utility.yul\":6608:6620   */\n      and\n        /* \"#utility.yul\":6639:6657   */\n      dup1\n        /* \"#utility.yul\":6629:6710   */\n      tag_142\n      jumpi\n        /* \"#utility.yul\":6695:6699   */\n      0x7f\n        /* \"#utility.yul\":6687:6693   */\n      dup3\n        /* \"#utility.yul\":6683:6700   */\n      and\n        /* \"#utility.yul\":6673:6700   */\n      swap2\n      pop\n        /* \"#utility.yul\":6629:6710   */\n    tag_142:\n        /* \"#utility.yul\":6757:6759   */\n      0x20\n        /* \"#utility.yul\":6749:6755   */\n      dup3\n        /* \"#utility.yul\":6746:6760   */\n      lt\n        /* \"#utility.yul\":6726:6744   */\n      dup2\n        /* \"#utility.yul\":6723:6761   */\n      sub\n        /* \"#utility.yul\":6720:6804   */\n      tag_143\n      jumpi\n        /* \"#utility.yul\":6776:6794   */\n      tag_144\n      tag_50\n      jump\t// in\n    tag_144:\n        /* \"#utility.yul\":6720:6804   */\n    tag_143:\n        /* \"#utility.yul\":6541:6810   */\n      pop\n        /* \"#utility.yul\":6490:6810   */\n      swap2\n      swap1\n      pop\n      jump\t// out\n        /* \"#utility.yul\":6816:6957   */\n    tag_51:\n        /* \"#utility.yul\":6865:6869   */\n      0x00\n        /* \"#utility.yul\":6888:6891   */\n      dup2\n        /* \"#utility.yul\":6880:6891   */\n      swap1\n      pop\n        /* \"#utility.yul\":6911:6914   */\n      dup2\n        /* \"#utility.yul\":6908:6909   */\n      0x00\n        /* \"#utility.yul\":6901:6915   */\n      mstore\n        /* \"#utility.yul\":6945:6949   */\n      0x20\n        /* \"#utility.yul\":6942:6943   */\n      0x00\n        /* \"#utility.yul\":6932:6950   */\n      keccak256\n        /* \"#utility.yul\":6924:6950   */\n      swap1\n      pop\n        /* \"#utility.yul\":6816:6957   */\n      swap2\n      swap1\n      pop\n      jump\t// out\n        /* \"#utility.yul\":6963:7056   */\n    tag_52:\n        /* \"#utility.yul\":7000:7006   */\n      0x00\n        /* \"#utility.yul\":7047:7049   */\n      0x20\n        /* \"#utility.yul\":7042:7044   */\n      0x1f\n        /* \"#utility.yul\":7035:7040   */\n      dup4\n        /* \"#utility.yul\":7031:7045   */\n      add\n        /* \"#utility.yul\":7027:7050   */\n      div\n        /* \"#utility.yul\":7017:7050   */\n      swap1\n      pop\n        /* \"#utility.yul\":6963:7056   */\n      swap2\n      swap1\n      pop\n      jump\t// out\n        /* \"#utility.yul\":7062:7169   */\n    tag_53:\n        /* \"#utility.yul\":7106:7114   */\n      0x00\n        /* \"#utility.yul\":7156:7161   */\n      dup3\n        /* \"#utility.yul\":7150:7154   */\n      dup3\n        /* \"#utility.yul\":7146:7162   */\n      shl\n        /* \"#utility.yul\":7125:7162   */\n      swap1\n      pop\n        /* \"#utility.yul\":7062:7169   */\n      swap3\n      swap2\n      pop\n      pop\n      jump\t// out\n        /* \"#utility.yul\":7175:7568   */\n    tag_54:\n        /* \"#utility.yul\":7244:7250   */\n      0x00\n        /* \"#utility.yul\":7294:7295   */\n      0x08\n        /* \"#utility.yul\":7282:7292   */\n      dup4\n        /* \"#utility.yul\":7278:7296   */\n      mul\n        /* \"#utility.yul\":7317:7414   */\n      tag_149\n        /* \"#utility.yul\":7347:7413   */\n      0xffffffffffffffffffffffffffffffffffffffffffffffffffffffffffffffff\n        /* \"#utility.yul\":7336:7345   */\n      dup3\n        /* \"#utility.yul\":7317:7414   */\n      tag_53\n      jump\t// in\n    tag_149:\n        /* \"#utility.yul\":7435:7474   */\n      tag_150\n        /* \"#utility.yul\":7465:7473   */\n      dup7\n        /* \"#utility.yul\":7454:7463   */\n      dup4\n        /* \"#utility.yul\":7435:7474   */\n      tag_53\n      jump\t// in\n    tag_150:\n        /* \"#utility.yul\":7423:7474   */\n      swap6\n      pop\n        /* \"#utility.yul\":7507:7511   */\n      dup1\n        /* \"#utility.yul\":7503:7512   */\n      not\n        /* \"#utility.yul\":7496:7501   */\n      dup5\n        /* \"#utility.yul\":7492:7513   */\n      and\n        /* \"#utility.yul\":7483:7513   */\n      swap4\n      pop\n        /* \"#utility.yul\":7556:7560   */\n      dup1\n        /* \"#utility.yul\":7546:7554   */\n      dup7\n        /* \"#utility.yul\":7542:7561   */\n      and\n        /* \"#utility.yul\":7535:7540   */\n      dup5\n        /* \"#utility.yul\":7532:7562   */\n      or\n        /* \"#utility.yul\":7522:7562   */\n      swap3\n      pop\n        /* \"#utility.yul\":7251:7568   */\n      pop\n      pop\n        /* \"#utility.yul\":7175:7568   */\n      swap4\n      swap3\n      pop\n      pop\n      pop\n      jump\t// out\n        /* \"#utility.yul\":7574:7634   */\n    tag_55:\n        /* \"#utility.yul\":7602:7605   */\n      0x00\n        /* \"#utility.yul\":7623:7628   */\n      dup2\n        /* \"#utility.yul\":7616:7628   */\n      swap1\n      pop\n        /* \"#utility.yul\":7574:7634   */\n      swap2\n      swap1\n      pop\n      jump\t// out\n        /* \"#utility.yul\":7640:7782   */\n    tag_56:\n        /* \"#utility.yul\":7690:7699   */\n      0x00\n        /* \"#utility.yul\":7723:7776   */\n      tag_153\n        /* \"#utility.yul\":7741:7775   */\n      tag_154\n        /* \"#utility.yul\":7750:7774   */\n      tag_155\n        /* \"#utility.yul\":7768:7773   */\n      dup5\n        /* \"#utility.yul\":7750:7774   */\n      tag_27\n      jump\t// in\n    tag_155:\n        /* \"#utility.yul\":7741:7775   */\n      tag_55\n      jump\t// in\n    tag_154:\n        /* \"#utility.yul\":7723:7776   */\n      tag_27\n      jump\t// in\n    tag_153:\n        /* \"#utility.yul\":7710:7776   */\n      swap1\n      pop\n        /* \"#utility.yul\":7640:7782   */\n      swap2\n      swap1\n      pop\n      jump\t// out\n        /* \"#utility.yul\":7788:7863   */\n    tag_57:\n        /* \"#utility.yul\":7831:7834   */\n      0x00\n        /* \"#utility.yul\":7852:7857   */\n      dup2\n        /* \"#utility.yul\":7845:7857   */\n      swap1\n      pop\n        /* \"#utility.yul\":7788:7863   */\n      swap2\n      swap1\n      pop\n      jump\t// out\n        /* \"#utility.yul\":7869:8138   */\n    tag_58:\n        /* \"#utility.yul\":7979:8018   */\n      tag_158\n        /* \"#utility.yul\":8010:8017   */\n      dup4\n        /* \"#utility.yul\":7979:8018   */\n      tag_56\n      jump\t// in\n    tag_158:\n        /* \"#utility.yul\":8040:8131   */\n      tag_159\n        /* \"#utility.yul\":8089:8130   */\n      tag_160\n        /* \"#utility.yul\":8113:8129   */\n      dup3\n        /* \"#utility.yul\":8089:8130   */\n      tag_57\n      jump\t// in\n    tag_160:\n        /* \"#utility.yul\":8081:8087   */\n      dup5\n        /* \"#utility.yul\":8074:8078   */\n      dup5\n        /* \"#utility.yul\":8068:8079   */\n      sload\n        /* \"#utility.yul\":8040:8131   */\n      tag_54\n      jump\t// in\n    tag_159:\n        /* \"#utility.yul\":8034:8038   */\n      dup3\n        /* \"#utility.yul\":8027:8132   */\n      sstore\n        /* \"#utility.yul\":7945:8138   */\n      pop\n        /* \"#utility.yul\":7869:8138   */\n      pop\n      pop\n      pop\n      jump\t// out\n        /* \"#utility.yul\":8144:8217   */\n    tag_59:\n        /* \"#utility.yul\":8189:8192   */\n      0x00\n        /* \"#utility.yul\":8144:8217   */\n      swap1\n      jump\t// out\n        /* \"#utility.yul\":8223:8412   */\n    tag_60:\n        /* \"#utility.yul\":8300:8332   */\n      tag_163\n      tag_59\n      jump\t// in\n    tag_163:\n        /* \"#utility.yul\":8341:8406   */\n      tag_164\n        /* \"#utility.yul\":8399:8405   */\n      dup2\n        /* \"#utility.yul\":8391:8397   */\n      dup5\n        /* \"#utility.yul\":8385:8389   */\n      dup5\n        /* \"#utility.yul\":8341:8406   */\n      tag_58\n      jump\t// in\n    tag_164:\n        /* \"#utility.yul\":8276:8412   */\n      pop\n        /* \"#utility.yul\":8223:8412   */\n      pop\n      pop\n      jump\t// out\n        /* \"#utility.yul\":8418:8604   */\n    tag_61:\n        /* \"#utility.yul\":8478:8598   */\n    tag_166:\n        /* \"#utility.yul\":8495:8498   */\n      dup2\n        /* \"#utility.yul\":8488:8493   */\n      dup2\n        /* \"#utility.yul\":8485:8499   */\n      lt\n        /* \"#utility.yul\":8478:8598   */\n      iszero\n      tag_168\n      jumpi\n        /* \"#utility.yul\":8549:8588   */\n      tag_169\n        /* \"#utility.yul\":8586:8587   */\n      0x00\n        /* \"#utility.yul\":8579:8584   */\n      dup3\n        /* \"#utility.yul\":8549:8588   */\n      tag_60\n      jump\t// in\n    tag_169:\n        /* \"#utility.yul\":8522:8523   */\n      0x01\n        /* \"#utility.yul\":8515:8520   */\n      dup2\n        /* \"#utility.yul\":8511:8524   */\n      add\n        /* \"#utility.yul\":8502:8524   */\n      swap1\n      pop\n        /* \"#utility.yul\":8478:8598   */\n      jump(tag_166)\n    tag_168:\n        /* \"#utility.yul\":8418:8604   */\n      pop\n      pop\n      jump\t// out\n        /* \"#utility.yul\":8610:9153   */\n    tag_62:\n        /* \"#utility.yul\":8711:8713   */\n      0x1f\n        /* \"#utility.yul\":8706:8709   */\n      dup3\n        /* \"#utility.yul\":8703:8714   */\n      gt\n        /* \"#utility.yul\":8700:9146   */\n      iszero\n      tag_171\n      jumpi\n        /* \"#utility.yul\":8745:8783   */\n      tag_172\n        /* \"#utility.yul\":8777:8782   */\n      dup2\n        /* \"#utility.yul\":8745:8783   */\n      tag_51\n      jump\t// in\n    tag_172:\n        /* \"#utility.yul\":8829:8858   */\n      tag_173\n        /* \"#utility.yul\":8847:8857   */\n      dup5\n        /* \"#utility.yul\":8829:8858   */\n      tag_52\n      jump\t// in\n    tag_173:\n        /* \"#utility.yul\":8819:8827   */\n      dup2\n        /* \"#utility.yul\":8815:8859   */\n      add\n        /* \"#utility.yul\":9012:9014   */\n      0x20\n        /* \"#utility.yul\":9000:9010   */\n      dup6\n        /* \"#utility.yul\":8997:9015   */\n      lt\n        /* \"#utility.yul\":8994:9043   */\n      iszero\n      tag_174\n      jumpi\n        /* \"#utility.yul\":9033:9041   */\n      dup2\n        /* \"#utility.yul\":9018:9041   */\n      swap1\n      pop\n        /* \"#utility.yul\":8994:9043   */\n    tag_174:\n        /* \"#utility.yul\":9056:9136   */\n      tag_175\n        /* \"#utility.yul\":9112:9134   */\n      tag_176\n        /* \"#utility.yul\":9130:9133   */\n      dup6\n        /* \"#utility.yul\":9112:9134   */\n      tag_52\n      jump\t// in\n    tag_176:\n        /* \"#utility.yul\":9102:9110   */\n      dup4\n        /* \"#utility.yul\":9098:9135   */\n      add\n        /* \"#utility.yul\":9085:9096   */\n      dup3\n        /* \"#utility.yul\":9056:9136   */\n      tag_61\n      jump\t// in\n    tag_175:\n        /* \"#utility.yul\":8715:9146   */\n      pop\n      pop\n        /* \"#utility.yul\":8700:9146   */\n    tag_171:\n        /* \"#utility.yul\":8610:9153   */\n      pop\n      pop\n      pop\n      jump\t// out\n        /* \"#utility.yul\":9159:9276   */\n    tag_63:\n        /* \"#utility.yul\":9213:9221   */\n      0x00\n        /* \"#utility.yul\":9263:9268   */\n      dup3\n        /* \"#utility.yul\":9257:9261   */\n      dup3\n        /* \"#utility.yul\":9253:9269   */\n      shr\n        /* \"#utility.yul\":9232:9269   */\n      swap1\n      pop\n        /* \"#utility.yul\":9159:9276   */\n      swap3\n      swap2\n      pop\n      pop\n      jump\t// out\n        /* \"#utility.yul\":9282:9451   */\n    tag_64:\n        /* \"#utility.yul\":9326:9332   */\n      0x00\n        /* \"#utility.yul\":9359:9410   */\n      tag_179\n        /* \"#utility.yul\":9407:9408   */\n      0x00\n        /* \"#utility.yul\":9403:9409   */\n      not\n        /* \"#utility.yul\":9395:9400   */\n      dup5\n        /* \"#utility.yul\":9392:9393   */\n      0x08\n        /* \"#utility.yul\":9388:9401   */\n      mul\n        /* \"#utility.yul\":9359:9410   */\n      tag_63\n      jump\t// in\n    tag_179:\n        /* \"#utility.yul\":9355:9411   */\n      not\n        /* \"#utility.yul\":9440:9444   */\n      dup1\n        /* \"#utility.yul\":9434:9438   */\n      dup4\n        /* \"#utility.yul\":9430:9445   */\n      and\n        /* \"#utility.yul\":9420:9445   */\n      swap2\n      pop\n        /* \"#utility.yul\":9333:9451   */\n      pop\n        /* \"#utility.yul\":9282:9451   */\n      swap3\n      swap2\n      pop\n      pop\n      jump\t// out\n        /* \"#utility.yul\":9456:9751   */\n    tag_65:\n        /* \"#utility.yul\":9532:9536   */\n      0x00\n        /* \"#utility.yul\":9678:9707   */\n      tag_181\n        /* \"#utility.yul\":9703:9706   */\n      dup4\n        /* \"#utility.yul\":9697:9701   */\n      dup4\n        /* \"#utility.yul\":9678:9707   */\n      tag_64\n      jump\t// in\n    tag_181:\n        /* \"#utility.yul\":9670:9707   */\n      swap2\n      pop\n        /* \"#utility.yul\":9740:9743   */\n      dup3\n        /* \"#utility.yul\":9737:9738   */\n      0x02\n        /* \"#utility.yul\":9733:9744   */\n      mul\n        /* \"#utility.yul\":9727:9731   */\n      dup3\n        /* \"#utility.yul\":9724:9745   */\n      or\n        /* \"#utility.yul\":9716:9745   */\n      swap1\n      pop\n        /* \"#utility.yul\":9456:9751   */\n      swap3\n      swap2\n      pop\n      pop\n      jump\t// out\n        /* \"#utility.yul\":9756:11151   */\n    tag_23:\n        /* \"#utility.yul\":9873:9910   */\n      tag_183\n        /* \"#utility.yul\":9906:9909   */\n      dup3\n        /* \"#utility.yul\":9873:9910   */\n      tag_30\n      jump\t// in\n    tag_183:\n        /* \"#utility.yul\":9975:9993   */\n      0xffffffffffffffff\n        /* \"#utility.yul\":9967:9973   */\n      dup2\n        /* \"#utility.yul\":9964:9994   */\n      gt\n        /* \"#utility.yul\":9961:10017   */\n      iszero\n      tag_184\n      jumpi\n        /* \"#utility.yul\":9997:10015   */\n      tag_185\n      tag_43\n      jump\t// in\n    tag_185:\n        /* \"#utility.yul\":9961:10017   */\n    tag_184:\n        /* \"#utility.yul\":10041:10079   */\n      tag_186\n        /* \"#utility.yul\":10073:10077   */\n      dup3\n        /* \"#utility.yul\":10067:10078   */\n      sload\n        /* \"#utility.yul\":10041:10079   */\n      tag_16\n      jump\t// in\n    tag_186:\n        /* \"#utility.yul\":10126:10193   */\n      tag_187\n        /* \"#utility.yul\":10186:10192   */\n      dup3\n        /* \"#utility.yul\":10178:10184   */\n      dup3\n        /* \"#utility.yul\":10172:10176   */\n      dup6\n        /* \"#utility.yul\":10126:10193   */\n      tag_62\n      jump\t// in\n    tag_187:\n        /* \"#utility.yul\":10220:10221   */\n      0x00\n        /* \"#utility.yul\":10244:10248   */\n      0x20\n        /* \"#utility.yul\":10231:10248   */\n      swap1\n      pop\n        /* \"#utility.yul\":10276:10278   */\n      0x1f\n        /* \"#utility.yul\":10268:10274   */\n      dup4\n        /* \"#utility.yul\":10265:10279   */\n      gt\n        /* \"#utility.yul\":10293:10294   */\n      0x01\n        /* \"#utility.yul\":10288:10906   */\n      dup2\n      eq\n      tag_189\n      jumpi\n        /* \"#utility.yul\":10950:10951   */\n      0x00\n        /* \"#utility.yul\":10967:10973   */\n      dup5\n        /* \"#utility.yul\":10964:11041   */\n      iszero\n      tag_190\n      jumpi\n        /* \"#utility.yul\":11016:11025   */\n      dup3\n        /* \"#utility.yul\":11011:11014   */\n      dup8\n        /* \"#utility.yul\":11007:11026   */\n      add\n        /* \"#utility.yul\":11001:11027   */\n      mload\n        /* \"#utility.yul\":10992:11027   */\n      swap1\n      pop\n        /* \"#utility.yul\":10964:11041   */\n    tag_190:\n        /* \"#utility.yul\":11067:11134   */\n      tag_191\n        /* \"#utility.yul\":11127:11133   */\n      dup6\n        /* \"#utility.yul\":11120:11125   */\n      dup3\n        /* \"#utility.yul\":11067:11134   */\n      tag_65\n      jump\t// in\n    tag_191:\n        /* \"#utility.yul\":11061:11065   */\n      dup7\n        /* \"#utility.yul\":11054:11135   */\n      sstore\n        /* \"#utility.yul\":10923:11145   */\n      pop\n        /* \"#utility.yul\":10258:11145   */\n      jump(tag_188)\n        /* \"#utility.yul\":10288:10906   */\n    tag_189:\n        /* \"#utility.yul\":10340:10344   */\n      0x1f\n        /* \"#utility.yul\":10336:10345   */\n      not\n        /* \"#utility.yul\":10328:10334   */\n      dup5\n        /* \"#utility.yul\":10324:10346   */\n      and\n        /* \"#utility.yul\":10374:10411   */\n      tag_192\n        /* \"#utility.yul\":10406:10410   */\n      dup7\n        /* \"#utility.yul\":10374:10411   */\n      tag_51\n      jump\t// in\n    tag_192:\n        /* \"#utility.yul\":10433:10434   */\n      0x00\n        /* \"#utility.yul\":10447:10655   */\n    tag_193:\n        /* \"#utility.yul\":10461:10468   */\n      dup3\n        /* \"#utility.yul\":10458:10459   */\n      dup2\n        /* \"#utility.yul\":10455:10469   */\n      lt\n        /* \"#utility.yul\":10447:10655   */\n      iszero\n      tag_195\n      jumpi\n        /* \"#utility.yul\":10540:10549   */\n      dup5\n        /* \"#utility.yul\":10535:10538   */\n      dup10\n        /* \"#utility.yul\":10531:10550   */\n      add\n        /* \"#utility.yul\":10525:10551   */\n      mload\n        /* \"#utility.yul\":10517:10523   */\n      dup3\n        /* \"#utility.yul\":10510:10552   */\n      sstore\n        /* \"#utility.yul\":10591:10592   */\n      0x01\n        /* \"#utility.yul\":10583:10589   */\n      dup3\n        /* \"#utility.yul\":10579:10593   */\n      add\n        /* \"#utility.yul\":10569:10593   */\n      swap2\n      pop\n        /* \"#utility.yul\":10638:10640   */\n      0x20\n        /* \"#utility.yul\":10627:10636   */\n      dup6\n        /* \"#utility.yul\":10623:10641   */\n      add\n        /* \"#utility.yul\":10610:10641   */\n      swap5\n      pop\n        /* \"#utility.yul\":10484:10488   */\n      0x20\n        /* \"#utility.yul\":10481:10482   */\n      dup2\n        /* \"#utility.yul\":10477:10489   */\n      add\n        /* \"#utility.yul\":10472:10489   */\n      swap1\n      pop\n        /* \"#utility.yul\":10447:10655   */\n      jump(tag_193)\n    tag_195:\n        /* \"#utility.yul\":10683:10689   */\n      dup7\n        /* \"#utility.yul\":10674:10681   */\n      dup4\n        /* \"#utility.yul\":10671:10690   */\n      lt\n        /* \"#utility.yul\":10668:10847   */\n      iszero\n      tag_196\n      jumpi\n        /* \"#utility.yul\":10741:10750   */\n      dup5\n        /* \"#utility.yul\":10736:10739   */\n      dup10\n        /* \"#utility.yul\":10732:10751   */\n      add\n        /* \"#utility.yul\":10726:10752   */\n      mload\n        /* \"#utility.yul\":10784:10832   */\n      tag_197\n        /* \"#utility.yul\":10826:10830   */\n      0x1f\n        /* \"#utility.yul\":10818:10824   */\n      dup10\n        /* \"#utility.yul\":10814:10831   */\n      and\n        /* \"#utility.yul\":10803:10812   */\n      dup3\n        /* \"#utility.yul\":10784:10832   */\n      tag_64\n      jump\t// in\n    tag_197:\n        /* \"#utility.yul\":10776:10782   */\n      dup4\n        /* \"#utility.yul\":10769:10833   */\n      sstore\n        /* \"#utility.yul\":10691:10847   */\n      pop\n        /* \"#utility.yul\":10668:10847   */\n    tag_196:\n        /* \"#utility.yul\":10893:10894   */\n      0x01\n        /* \"#utility.yul\":10889:10890   */\n      0x02\n        /* \"#utility.yul\":10881:10887   */\n      dup9\n        /* \"#utility.yul\":10877:10891   */\n      mul\n        /* \"#utility.yul\":10873:10895   */\n      add\n        /* \"#utility.yul\":10867:10871   */\n      dup9\n        /* \"#utility.yul\":10860:10896   */\n      sstore\n        /* \"#utility.yul\":10295:10906   */\n      pop\n      pop\n      pop\n        /* \"#utility.yul\":10258:11145   */\n    tag_188:\n      pop\n        /* \"#utility.yul\":9848:11151   */\n      pop\n      pop\n      pop\n        /* \"#utility.yul\":9756:11151   */\n      pop\n      pop\n      jump\t// out\n\n    auxdata: 0xa264697066735822122042171880408e16b32c1f352f9c72db961ea254b7c922a67251398670a81f3a6864736f6c63430008100033\n}\n",
				"bytecode": {
					"linkReferences": {},
					"object": "608060405234801561001057600080fd5b506107fd806100206000396000f3fe608060405234801561001057600080fd5b50600436106100365760003560e01c8063bfb231d21461003b578063f984ba691461006d575b600080fd5b610055600480360381019061005091906101d7565b610089565b6040516100649392919061031a565b60405180910390f35b6100876004803603810190610082919061048d565b610148565b005b60006020528060005260406000206000915090508060000180546100ac90610518565b80601f01602080910402602001604051908101604052809291908181526020018280546100d890610518565b80156101255780601f106100fa57610100808354040283529160200191610125565b820191906000526020600020905b81548152906001019060200180831161010857829003601f168201915b5050505050908060010154908060020160009054906101000a900460ff16905083565b816000806001548152602001908152602001600020600001908161016c91906106f5565b50806000806001548152602001908152602001600020600101819055505050565b6000604051905090565b600080fd5b600080fd5b6000819050919050565b6101b4816101a1565b81146101bf57600080fd5b50565b6000813590506101d1816101ab565b92915050565b6000602082840312156101ed576101ec610197565b5b60006101fb848285016101c2565b91505092915050565b600081519050919050565b600082825260208201905092915050565b60005b8381101561023e578082015181840152602081019050610223565b60008484015250505050565b6000601f19601f8301169050919050565b600061026682610204565b610270818561020f565b9350610280818560208601610220565b6102898161024a565b840191505092915050565b61029d816101a1565b82525050565b7f4e487b7100000000000000000000000000000000000000000000000000000000600052602160045260246000fd5b600381106102e3576102e26102a3565b5b50565b60008190506102f4826102d2565b919050565b6000610304826102e6565b9050919050565b610314816102f9565b82525050565b60006060820190508181036000830152610334818661025b565b90506103436020830185610294565b610350604083018461030b565b949350505050565b600080fd5b600080fd5b7f4e487b7100000000000000000000000000000000000000000000000000000000600052604160045260246000fd5b61039a8261024a565b810181811067ffffffffffffffff821117156103b9576103b8610362565b5b80604052505050565b60006103cc61018d565b90506103d88282610391565b919050565b600067ffffffffffffffff8211156103f8576103f7610362565b5b6104018261024a565b9050602081019050919050565b82818337600083830152505050565b600061043061042b846103dd565b6103c2565b90508281526020810184848401111561044c5761044b61035d565b5b61045784828561040e565b509392505050565b600082601f83011261047457610473610358565b5b813561048484826020860161041d565b91505092915050565b600080604083850312156104a4576104a3610197565b5b600083013567ffffffffffffffff8111156104c2576104c161019c565b5b6104ce8582860161045f565b92505060206104df858286016101c2565b9150509250929050565b7f4e487b7100000000000000000000000000000000000000000000000000000000600052602260045260246000fd5b6000600282049050600182168061053057607f821691505b602082108103610543576105426104e9565b5b50919050565b60008190508160005260206000209050919050565b60006020601f8301049050919050565b600082821b905092915050565b6000600883026105ab7fffffffffffffffffffffffffffffffffffffffffffffffffffffffffffffffff8261056e565b6105b5868361056e565b95508019841693508086168417925050509392505050565b6000819050919050565b60006105f26105ed6105e8846101a1565b6105cd565b6101a1565b9050919050565b6000819050919050565b61060c836105d7565b610620610618826105f9565b84845461057b565b825550505050565b600090565b610635610628565b610640818484610603565b505050565b5b818110156106645761065960008261062d565b600181019050610646565b5050565b601f8211156106a95761067a81610549565b6106838461055e565b81016020851015610692578190505b6106a661069e8561055e565b830182610645565b50505b505050565b600082821c905092915050565b60006106cc600019846008026106ae565b1980831691505092915050565b60006106e583836106bb565b9150826002028217905092915050565b6106fe82610204565b67ffffffffffffffff81111561071757610716610362565b5b6107218254610518565b61072c828285610668565b600060209050601f83116001811461075f576000841561074d578287015190505b61075785826106d9565b8655506107bf565b601f19841661076d86610549565b60005b8281101561079557848901518255600182019150602085019450602081019050610770565b868310156107b257848901516107ae601f8916826106bb565b8355505b6001600288020188555050505b50505050505056fea264697066735822122042171880408e16b32c1f352f9c72db961ea254b7c922a67251398670a81f3a6864736f6c63430008100033",
					"opcodes": "PUSH1 0x80 PUSH1 0x40 MSTORE CALLVALUE DUP1 ISZERO PUSH2 0x10 JUMPI PUSH1 0x0 DUP1 REVERT JUMPDEST POP PUSH2 0x7FD DUP1 PUSH2 0x20 PUSH1 0x0 CODECOPY PUSH1 0x0 RETURN INVALID PUSH1 0x80 PUSH1 0x40 MSTORE CALLVALUE DUP1 ISZERO PUSH2 0x10 JUMPI PUSH1 0x0 DUP1 REVERT JUMPDEST POP PUSH1 0x4 CALLDATASIZE LT PUSH2 0x36 JUMPI PUSH1 0x0 CALLDATALOAD PUSH1 0xE0 SHR DUP1 PUSH4 0xBFB231D2 EQ PUSH2 0x3B JUMPI DUP1 PUSH4 0xF984BA69 EQ PUSH2 0x6D JUMPI JUMPDEST PUSH1 0x0 DUP1 REVERT JUMPDEST PUSH2 0x55 PUSH1 0x4 DUP1 CALLDATASIZE SUB DUP2 ADD SWAP1 PUSH2 0x50 SWAP2 SWAP1 PUSH2 0x1D7 JUMP JUMPDEST PUSH2 0x89 JUMP JUMPDEST PUSH1 0x40 MLOAD PUSH2 0x64 SWAP4 SWAP3 SWAP2 SWAP1 PUSH2 0x31A JUMP JUMPDEST PUSH1 0x40 MLOAD DUP1 SWAP2 SUB SWAP1 RETURN JUMPDEST PUSH2 0x87 PUSH1 0x4 DUP1 CALLDATASIZE SUB DUP2 ADD SWAP1 PUSH2 0x82 SWAP2 SWAP1 PUSH2 0x48D JUMP JUMPDEST PUSH2 0x148 JUMP JUMPDEST STOP JUMPDEST PUSH1 0x0 PUSH1 0x20 MSTORE DUP1 PUSH1 0x0 MSTORE PUSH1 0x40 PUSH1 0x0 KECCAK256 PUSH1 0x0 SWAP2 POP SWAP1 POP DUP1 PUSH1 0x0 ADD DUP1 SLOAD PUSH2 0xAC SWAP1 PUSH2 0x518 JUMP JUMPDEST DUP1 PUSH1 0x1F ADD PUSH1 0x20 DUP1 SWAP2 DIV MUL PUSH1 0x20 ADD PUSH1 0x40 MLOAD SWAP1 DUP2 ADD PUSH1 0x40 MSTORE DUP1 SWAP3 SWAP2 SWAP1 DUP2 DUP2 MSTORE PUSH1 0x20 ADD DUP3 DUP1 SLOAD PUSH2 0xD8 SWAP1 PUSH2 0x518 JUMP JUMPDEST DUP1 ISZERO PUSH2 0x125 JUMPI DUP1 PUSH1 0x1F LT PUSH2 0xFA JUMPI PUSH2 0x100 DUP1 DUP4 SLOAD DIV MUL DUP4 MSTORE SWAP2 PUSH1 0x20 ADD SWAP2 PUSH2 0x125 JUMP JUMPDEST DUP3 ADD SWAP2 SWAP1 PUSH1 0x0 MSTORE PUSH1 0x20 PUSH1 0x0 KECCAK256 SWAP1 JUMPDEST DUP2 SLOAD DUP2 MSTORE SWAP1 PUSH1 0x1 ADD SWAP1 PUSH1 0x20 ADD DUP1 DUP4 GT PUSH2 0x108 JUMPI DUP3 SWAP1 SUB PUSH1 0x1F AND DUP3 ADD SWAP2 JUMPDEST POP POP POP POP POP SWAP1 DUP1 PUSH1 0x1 ADD SLOAD SWAP1 DUP1 PUSH1 0x2 ADD PUSH1 0x0 SWAP1 SLOAD SWAP1 PUSH2 0x100 EXP SWAP1 DIV PUSH1 0xFF AND SWAP1 POP DUP4 JUMP JUMPDEST DUP2 PUSH1 0x0 DUP1 PUSH1 0x1 SLOAD DUP2 MSTORE PUSH1 0x20 ADD SWAP1 DUP2 MSTORE PUSH1 0x20 ADD PUSH1 0x0 KECCAK256 PUSH1 0x0 ADD SWAP1 DUP2 PUSH2 0x16C SWAP2 SWAP1 PUSH2 0x6F5 JUMP JUMPDEST POP DUP1 PUSH1 0x0 DUP1 PUSH1 0x1 SLOAD DUP2 MSTORE PUSH1 0x20 ADD SWAP1 DUP2 MSTORE PUSH1 0x20 ADD PUSH1 0x0 KECCAK256 PUSH1 0x1 ADD DUP2 SWAP1 SSTORE POP POP POP JUMP JUMPDEST PUSH1 0x0 PUSH1 0x40 MLOAD SWAP1 POP SWAP1 JUMP JUMPDEST PUSH1 0x0 DUP1 REVERT JUMPDEST PUSH1 0x0 DUP1 REVERT JUMPDEST PUSH1 0x0 DUP2 SWAP1 POP SWAP2 SWAP1 POP JUMP JUMPDEST PUSH2 0x1B4 DUP2 PUSH2 0x1A1 JUMP JUMPDEST DUP2 EQ PUSH2 0x1BF JUMPI PUSH1 0x0 DUP1 REVERT JUMPDEST POP JUMP JUMPDEST PUSH1 0x0 DUP2 CALLDATALOAD SWAP1 POP PUSH2 0x1D1 DUP2 PUSH2 0x1AB JUMP JUMPDEST SWAP3 SWAP2 POP POP JUMP JUMPDEST PUSH1 0x0 PUSH1 0x20 DUP3 DUP5 SUB SLT ISZERO PUSH2 0x1ED JUMPI PUSH2 0x1EC PUSH2 0x197 JUMP JUMPDEST JUMPDEST PUSH1 0x0 PUSH2 0x1FB DUP5 DUP3 DUP6 ADD PUSH2 0x1C2 JUMP JUMPDEST SWAP2 POP POP SWAP3 SWAP2 POP POP JUMP JUMPDEST PUSH1 0x0 DUP2 MLOAD SWAP1 POP SWAP2 SWAP1 POP JUMP JUMPDEST PUSH1 0x0 DUP3 DUP3 MSTORE PUSH1 0x20 DUP3 ADD SWAP1 POP SWAP3 SWAP2 POP POP JUMP JUMPDEST PUSH1 0x0 JUMPDEST DUP4 DUP2 LT ISZERO PUSH2 0x23E JUMPI DUP1 DUP3 ADD MLOAD DUP2 DUP5 ADD MSTORE PUSH1 0x20 DUP2 ADD SWAP1 POP PUSH2 0x223 JUMP JUMPDEST PUSH1 0x0 DUP5 DUP5 ADD MSTORE POP POP POP POP JUMP JUMPDEST PUSH1 0x0 PUSH1 0x1F NOT PUSH1 0x1F DUP4 ADD AND SWAP1 POP SWAP2 SWAP1 POP JUMP JUMPDEST PUSH1 0x0 PUSH2 0x266 DUP3 PUSH2 0x204 JUMP JUMPDEST PUSH2 0x270 DUP2 DUP6 PUSH2 0x20F JUMP JUMPDEST SWAP4 POP PUSH2 0x280 DUP2 DUP6 PUSH1 0x20 DUP7 ADD PUSH2 0x220 JUMP JUMPDEST PUSH2 0x289 DUP2 PUSH2 0x24A JUMP JUMPDEST DUP5 ADD SWAP2 POP POP SWAP3 SWAP2 POP POP JUMP JUMPDEST PUSH2 0x29D DUP2 PUSH2 0x1A1 JUMP JUMPDEST DUP3 MSTORE POP POP JUMP JUMPDEST PUSH32 0x4E487B7100000000000000000000000000000000000000000000000000000000 PUSH1 0x0 MSTORE PUSH1 0x21 PUSH1 0x4 MSTORE PUSH1 0x24 PUSH1 0x0 REVERT JUMPDEST PUSH1 0x3 DUP2 LT PUSH2 0x2E3 JUMPI PUSH2 0x2E2 PUSH2 0x2A3 JUMP JUMPDEST JUMPDEST POP JUMP JUMPDEST PUSH1 0x0 DUP2 SWAP1 POP PUSH2 0x2F4 DUP3 PUSH2 0x2D2 JUMP JUMPDEST SWAP2 SWAP1 POP JUMP JUMPDEST PUSH1 0x0 PUSH2 0x304 DUP3 PUSH2 0x2E6 JUMP JUMPDEST SWAP1 POP SWAP2 SWAP1 POP JUMP JUMPDEST PUSH2 0x314 DUP2 PUSH2 0x2F9 JUMP JUMPDEST DUP3 MSTORE POP POP JUMP JUMPDEST PUSH1 0x0 PUSH1 0x60 DUP3 ADD SWAP1 POP DUP2 DUP2 SUB PUSH1 0x0 DUP4 ADD MSTORE PUSH2 0x334 DUP2 DUP7 PUSH2 0x25B JUMP JUMPDEST SWAP1 POP PUSH2 0x343 PUSH1 0x20 DUP4 ADD DUP6 PUSH2 0x294 JUMP JUMPDEST PUSH2 0x350 PUSH1 0x40 DUP4 ADD DUP5 PUSH2 0x30B JUMP JUMPDEST SWAP5 SWAP4 POP POP POP POP JUMP JUMPDEST PUSH1 0x0 DUP1 REVERT JUMPDEST PUSH1 0x0 DUP1 REVERT JUMPDEST PUSH32 0x4E487B7100000000000000000000000000000000000000000000000000000000 PUSH1 0x0 MSTORE PUSH1 0x41 PUSH1 0x4 MSTORE PUSH1 0x24 PUSH1 0x0 REVERT JUMPDEST PUSH2 0x39A DUP3 PUSH2 0x24A JUMP JUMPDEST DUP2 ADD DUP2 DUP2 LT PUSH8 0xFFFFFFFFFFFFFFFF DUP3 GT OR ISZERO PUSH2 0x3B9 JUMPI PUSH2 0x3B8 PUSH2 0x362 JUMP JUMPDEST JUMPDEST DUP1 PUSH1 0x40 MSTORE POP POP POP JUMP JUMPDEST PUSH1 0x0 PUSH2 0x3CC PUSH2 0x18D JUMP JUMPDEST SWAP1 POP PUSH2 0x3D8 DUP3 DUP3 PUSH2 0x391 JUMP JUMPDEST SWAP2 SWAP1 POP JUMP JUMPDEST PUSH1 0x0 PUSH8 0xFFFFFFFFFFFFFFFF DUP3 GT ISZERO PUSH2 0x3F8 JUMPI PUSH2 0x3F7 PUSH2 0x362 JUMP JUMPDEST JUMPDEST PUSH2 0x401 DUP3 PUSH2 0x24A JUMP JUMPDEST SWAP1 POP PUSH1 0x20 DUP2 ADD SWAP1 POP SWAP2 SWAP1 POP JUMP JUMPDEST DUP3 DUP2 DUP4 CALLDATACOPY PUSH1 0x0 DUP4 DUP4 ADD MSTORE POP POP POP JUMP JUMPDEST PUSH1 0x0 PUSH2 0x430 PUSH2 0x42B DUP5 PUSH2 0x3DD JUMP JUMPDEST PUSH2 0x3C2 JUMP JUMPDEST SWAP1 POP DUP3 DUP2 MSTORE PUSH1 0x20 DUP2 ADD DUP5 DUP5 DUP5 ADD GT ISZERO PUSH2 0x44C JUMPI PUSH2 0x44B PUSH2 0x35D JUMP JUMPDEST JUMPDEST PUSH2 0x457 DUP5 DUP3 DUP6 PUSH2 0x40E JUMP JUMPDEST POP SWAP4 SWAP3 POP POP POP JUMP JUMPDEST PUSH1 0x0 DUP3 PUSH1 0x1F DUP4 ADD SLT PUSH2 0x474 JUMPI PUSH2 0x473 PUSH2 0x358 JUMP JUMPDEST JUMPDEST DUP2 CALLDATALOAD PUSH2 0x484 DUP5 DUP3 PUSH1 0x20 DUP7 ADD PUSH2 0x41D JUMP JUMPDEST SWAP2 POP POP SWAP3 SWAP2 POP POP JUMP JUMPDEST PUSH1 0x0 DUP1 PUSH1 0x40 DUP4 DUP6 SUB SLT ISZERO PUSH2 0x4A4 JUMPI PUSH2 0x4A3 PUSH2 0x197 JUMP JUMPDEST JUMPDEST PUSH1 0x0 DUP4 ADD CALLDATALOAD PUSH8 0xFFFFFFFFFFFFFFFF DUP2 GT ISZERO PUSH2 0x4C2 JUMPI PUSH2 0x4C1 PUSH2 0x19C JUMP JUMPDEST JUMPDEST PUSH2 0x4CE DUP6 DUP3 DUP7 ADD PUSH2 0x45F JUMP JUMPDEST SWAP3 POP POP PUSH1 0x20 PUSH2 0x4DF DUP6 DUP3 DUP7 ADD PUSH2 0x1C2 JUMP JUMPDEST SWAP2 POP POP SWAP3 POP SWAP3 SWAP1 POP JUMP JUMPDEST PUSH32 0x4E487B7100000000000000000000000000000000000000000000000000000000 PUSH1 0x0 MSTORE PUSH1 0x22 PUSH1 0x4 MSTORE PUSH1 0x24 PUSH1 0x0 REVERT JUMPDEST PUSH1 0x0 PUSH1 0x2 DUP3 DIV SWAP1 POP PUSH1 0x1 DUP3 AND DUP1 PUSH2 0x530 JUMPI PUSH1 0x7F DUP3 AND SWAP2 POP JUMPDEST PUSH1 0x20 DUP3 LT DUP2 SUB PUSH2 0x543 JUMPI PUSH2 0x542 PUSH2 0x4E9 JUMP JUMPDEST JUMPDEST POP SWAP2 SWAP1 POP JUMP JUMPDEST PUSH1 0x0 DUP2 SWAP1 POP DUP2 PUSH1 0x0 MSTORE PUSH1 0x20 PUSH1 0x0 KECCAK256 SWAP1 POP SWAP2 SWAP1 POP JUMP JUMPDEST PUSH1 0x0 PUSH1 0x20 PUSH1 0x1F DUP4 ADD DIV SWAP1 POP SWAP2 SWAP1 POP JUMP JUMPDEST PUSH1 0x0 DUP3 DUP3 SHL SWAP1 POP SWAP3 SWAP2 POP POP JUMP JUMPDEST PUSH1 0x0 PUSH1 0x8 DUP4 MUL PUSH2 0x5AB PUSH32 0xFFFFFFFFFFFFFFFFFFFFFFFFFFFFFFFFFFFFFFFFFFFFFFFFFFFFFFFFFFFFFFFF DUP3 PUSH2 0x56E JUMP JUMPDEST PUSH2 0x5B5 DUP7 DUP4 PUSH2 0x56E JUMP JUMPDEST SWAP6 POP DUP1 NOT DUP5 AND SWAP4 POP DUP1 DUP7 AND DUP5 OR SWAP3 POP POP POP SWAP4 SWAP3 POP POP POP JUMP JUMPDEST PUSH1 0x0 DUP2 SWAP1 POP SWAP2 SWAP1 POP JUMP JUMPDEST PUSH1 0x0 PUSH2 0x5F2 PUSH2 0x5ED PUSH2 0x5E8 DUP5 PUSH2 0x1A1 JUMP JUMPDEST PUSH2 0x5CD JUMP JUMPDEST PUSH2 0x1A1 JUMP JUMPDEST SWAP1 POP SWAP2 SWAP1 POP JUMP JUMPDEST PUSH1 0x0 DUP2 SWAP1 POP SWAP2 SWAP1 POP JUMP JUMPDEST PUSH2 0x60C DUP4 PUSH2 0x5D7 JUMP JUMPDEST PUSH2 0x620 PUSH2 0x618 DUP3 PUSH2 0x5F9 JUMP JUMPDEST DUP5 DUP5 SLOAD PUSH2 0x57B JUMP JUMPDEST DUP3 SSTORE POP POP POP POP JUMP JUMPDEST PUSH1 0x0 SWAP1 JUMP JUMPDEST PUSH2 0x635 PUSH2 0x628 JUMP JUMPDEST PUSH2 0x640 DUP2 DUP5 DUP5 PUSH2 0x603 JUMP JUMPDEST POP POP POP JUMP JUMPDEST JUMPDEST DUP2 DUP2 LT ISZERO PUSH2 0x664 JUMPI PUSH2 0x659 PUSH1 0x0 DUP3 PUSH2 0x62D JUMP JUMPDEST PUSH1 0x1 DUP2 ADD SWAP1 POP PUSH2 0x646 JUMP JUMPDEST POP POP JUMP JUMPDEST PUSH1 0x1F DUP3 GT ISZERO PUSH2 0x6A9 JUMPI PUSH2 0x67A DUP2 PUSH2 0x549 JUMP JUMPDEST PUSH2 0x683 DUP5 PUSH2 0x55E JUMP JUMPDEST DUP2 ADD PUSH1 0x20 DUP6 LT ISZERO PUSH2 0x692 JUMPI DUP2 SWAP1 POP JUMPDEST PUSH2 0x6A6 PUSH2 0x69E DUP6 PUSH2 0x55E JUMP JUMPDEST DUP4 ADD DUP3 PUSH2 0x645 JUMP JUMPDEST POP POP JUMPDEST POP POP POP JUMP JUMPDEST PUSH1 0x0 DUP3 DUP3 SHR SWAP1 POP SWAP3 SWAP2 POP POP JUMP JUMPDEST PUSH1 0x0 PUSH2 0x6CC PUSH1 0x0 NOT DUP5 PUSH1 0x8 MUL PUSH2 0x6AE JUMP JUMPDEST NOT DUP1 DUP4 AND SWAP2 POP POP SWAP3 SWAP2 POP POP JUMP JUMPDEST PUSH1 0x0 PUSH2 0x6E5 DUP4 DUP4 PUSH2 0x6BB JUMP JUMPDEST SWAP2 POP DUP3 PUSH1 0x2 MUL DUP3 OR SWAP1 POP SWAP3 SWAP2 POP POP JUMP JUMPDEST PUSH2 0x6FE DUP3 PUSH2 0x204 JUMP JUMPDEST PUSH8 0xFFFFFFFFFFFFFFFF DUP2 GT ISZERO PUSH2 0x717 JUMPI PUSH2 0x716 PUSH2 0x362 JUMP JUMPDEST JUMPDEST PUSH2 0x721 DUP3 SLOAD PUSH2 0x518 JUMP JUMPDEST PUSH2 0x72C DUP3 DUP3 DUP6 PUSH2 0x668 JUMP JUMPDEST PUSH1 0x0 PUSH1 0x20 SWAP1 POP PUSH1 0x1F DUP4 GT PUSH1 0x1 DUP2 EQ PUSH2 0x75F JUMPI PUSH1 0x0 DUP5 ISZERO PUSH2 0x74D JUMPI DUP3 DUP8 ADD MLOAD SWAP1 POP JUMPDEST PUSH2 0x757 DUP6 DUP3 PUSH2 0x6D9 JUMP JUMPDEST DUP7 SSTORE POP PUSH2 0x7BF JUMP JUMPDEST PUSH1 0x1F NOT DUP5 AND PUSH2 0x76D DUP7 PUSH2 0x549 JUMP JUMPDEST PUSH1 0x0 JUMPDEST DUP3 DUP2 LT ISZERO PUSH2 0x795 JUMPI DUP5 DUP10 ADD MLOAD DUP3 SSTORE PUSH1 0x1 DUP3 ADD SWAP2 POP PUSH1 0x20 DUP6 ADD SWAP5 POP PUSH1 0x20 DUP2 ADD SWAP1 POP PUSH2 0x770 JUMP JUMPDEST DUP7 DUP4 LT ISZERO PUSH2 0x7B2 JUMPI DUP5 DUP10 ADD MLOAD PUSH2 0x7AE PUSH1 0x1F DUP10 AND DUP3 PUSH2 0x6BB JUMP JUMPDEST DUP4 SSTORE POP JUMPDEST PUSH1 0x1 PUSH1 0x2 DUP9 MUL ADD DUP9 SSTORE POP POP POP JUMPDEST POP POP POP POP POP POP JUMP INVALID LOG2 PUSH5 0x6970667358 0x22 SLT KECCAK256 TIMESTAMP OR XOR DUP1 BLOCKHASH DUP15 AND 0xB3 0x2C 0x1F CALLDATALOAD 0x2F SWAP13 PUSH19 0xDB961EA254B7C922A67251398670A81F3A6864 PUSH20 0x6F6C634300081000330000000000000000000000 "
				},
				"gasEstimates": {
					"creation": {
						"codeDepositCost": "409000",
						"executionCost": "443",
						"totalCost": "409443"
					},
					"external": {
						"CreateItem(string,uint256)": "infinite",
						"items(uint256)": "infinite"
					}
				},
				"methodIdentifiers": {
					"CreateItem(string,uint256)": "f984ba69",
					"items(uint256)": "bfb231d2"
				}
			},
			"storageLayout": {
				"storage": [
					{
						"astId": 18,
						"contract": "ItemManager.sol:ItemManager",
						"label": "items",
						"offset": 0,
						"slot": "0",
						"type": "t_mapping(t_uint256,t_struct(S_Item)13_storage)"
					},
					{
						"astId": 20,
						"contract": "ItemManager.sol:ItemManager",
						"label": "itemIndex",
						"offset": 0,
						"slot": "1",
						"type": "t_uint256"
					}
				],
				"types": {
					"t_enum(SupplyChainState)5": {
						"encoding": "inplace",
						"label": "enum ItemManager.SupplyChainState",
						"numberOfBytes": "1"
					},
					"t_mapping(t_uint256,t_struct(S_Item)13_storage)": {
						"encoding": "mapping",
						"key": "t_uint256",
						"label": "mapping(uint256 => struct ItemManager.S_Item)",
						"numberOfBytes": "32",
						"value": "t_struct(S_Item)13_storage"
					},
					"t_string_storage": {
						"encoding": "bytes",
						"label": "string",
						"numberOfBytes": "32"
					},
					"t_struct(S_Item)13_storage": {
						"encoding": "inplace",
						"label": "struct ItemManager.S_Item",
						"members": [
							{
								"astId": 7,
								"contract": "ItemManager.sol:ItemManager",
								"label": "_itemName",
								"offset": 0,
								"slot": "0",
								"type": "t_string_storage"
							},
							{
								"astId": 9,
								"contract": "ItemManager.sol:ItemManager",
								"label": "_itemPrice",
								"offset": 0,
								"slot": "1",
								"type": "t_uint256"
							},
							{
								"astId": 12,
								"contract": "ItemManager.sol:ItemManager",
								"label": "_state",
								"offset": 0,
								"slot": "2",
								"type": "t_enum(SupplyChainState)5"
							}
						],
						"numberOfBytes": "96"
					},
					"t_uint256": {
						"encoding": "inplace",
						"label": "uint256",
						"numberOfBytes": "32"
					}
				}
			},
			"userdoc": {
				"kind": "user",
				"methods": {},
				"version": 1
			}
		}
	}
}