{
	"MyFunctionsExample.sol": {
		"FunctionsExample": {
			"abi": [
				{
					"inputs": [
						{
							"internalType": "address",
							"name": "",
							"type": "address"
						}
					],
					"name": "balanceReceived",
					"outputs": [
						{
							"internalType": "uint256",
							"name": "",
							"type": "uint256"
						}
					],
					"stateMutability": "view",
					"type": "function"
				},
				{
					"inputs": [],
					"name": "receiveMoney",
					"outputs": [],
					"stateMutability": "payable",
					"type": "function"
				},
				{
					"inputs": [
						{
							"internalType": "address payable",
							"name": "_to",
							"type": "address"
						},
						{
							"internalType": "uint256",
							"name": "_amount",
							"type": "uint256"
						}
					],
					"name": "withdrawMoney",
					"outputs": [],
					"stateMutability": "nonpayable",
					"type": "function"
				}
			],
			"devdoc": {
				"kind": "dev",
				"methods": {},
				"version": 1
			},
			"evm": {
				"assembly": "    /* \"MyFunctionsExample.sol\":56:651  contract FunctionsExample {... */\n  mstore(0x40, 0x80)\n  callvalue\n  dup1\n  iszero\n  tag_1\n  jumpi\n  0x00\n  dup1\n  revert\ntag_1:\n  pop\n  dataSize(sub_0)\n  dup1\n  dataOffset(sub_0)\n  0x00\n  codecopy\n  0x00\n  return\nstop\n\nsub_0: assembly {\n        /* \"MyFunctionsExample.sol\":56:651  contract FunctionsExample {... */\n      mstore(0x40, 0x80)\n      jumpi(tag_1, lt(calldatasize, 0x04))\n      shr(0xe0, calldataload(0x00))\n      dup1\n      0x6d26ec18\n      eq\n      tag_2\n      jumpi\n      dup1\n      0xd18a42e1\n      eq\n      tag_3\n      jumpi\n      dup1\n      0xf274c897\n      eq\n      tag_4\n      jumpi\n    tag_1:\n      0x00\n      dup1\n      revert\n        /* \"MyFunctionsExample.sol\":143:327  function receiveMoney() public payable {... */\n    tag_2:\n      tag_5\n      tag_6\n      jump\t// in\n    tag_5:\n      stop\n        /* \"MyFunctionsExample.sol\":89:136  mapping(address => uint) public balanceReceived */\n    tag_3:\n      callvalue\n      dup1\n      iszero\n      tag_7\n      jumpi\n      0x00\n      dup1\n      revert\n    tag_7:\n      pop\n      tag_8\n      0x04\n      dup1\n      calldatasize\n      sub\n      dup2\n      add\n      swap1\n      tag_9\n      swap2\n      swap1\n      tag_10\n      jump\t// in\n    tag_9:\n      tag_11\n      jump\t// in\n    tag_8:\n      mload(0x40)\n      tag_12\n      swap2\n      swap1\n      tag_13\n      jump\t// in\n    tag_12:\n      mload(0x40)\n      dup1\n      swap2\n      sub\n      swap1\n      return\n        /* \"MyFunctionsExample.sol\":333:648  function withdrawMoney(address payable _to, uint _amount) public {... */\n    tag_4:\n      callvalue\n      dup1\n      iszero\n      tag_14\n      jumpi\n      0x00\n      dup1\n      revert\n    tag_14:\n      pop\n      tag_15\n      0x04\n      dup1\n      calldatasize\n      sub\n      dup2\n      add\n      swap1\n      tag_16\n      swap2\n      swap1\n      tag_17\n      jump\t// in\n    tag_16:\n      tag_18\n      jump\t// in\n    tag_15:\n      stop\n        /* \"MyFunctionsExample.sol\":143:327  function receiveMoney() public payable {... */\n    tag_6:\n        /* \"MyFunctionsExample.sol\":242:257  balanceReceived */\n      0x00\n        /* \"MyFunctionsExample.sol\":242:269  balanceReceived[msg.sender] */\n      dup1\n        /* \"MyFunctionsExample.sol\":258:268  msg.sender */\n      caller\n        /* \"MyFunctionsExample.sol\":242:269  balanceReceived[msg.sender] */\n      0xffffffffffffffffffffffffffffffffffffffff\n      and\n      0xffffffffffffffffffffffffffffffffffffffff\n      and\n      dup2\n      mstore\n      0x20\n      add\n      swap1\n      dup2\n      mstore\n      0x20\n      add\n      0x00\n      keccak256\n      sload\n        /* \"MyFunctionsExample.sol\":229:238  msg.value */\n      callvalue\n        /* \"MyFunctionsExample.sol\":199:214  balanceReceived */\n      0x00\n        /* \"MyFunctionsExample.sol\":199:226  balanceReceived[msg.sender] */\n      dup1\n        /* \"MyFunctionsExample.sol\":215:225  msg.sender */\n      caller\n        /* \"MyFunctionsExample.sol\":199:226  balanceReceived[msg.sender] */\n      0xffffffffffffffffffffffffffffffffffffffff\n      and\n      0xffffffffffffffffffffffffffffffffffffffff\n      and\n      dup2\n      mstore\n      0x20\n      add\n      swap1\n      dup2\n      mstore\n      0x20\n      add\n      0x00\n      keccak256\n      sload\n        /* \"MyFunctionsExample.sol\":199:238  balanceReceived[msg.sender] + msg.value */\n      tag_20\n      swap2\n      swap1\n      tag_21\n      jump\t// in\n    tag_20:\n        /* \"MyFunctionsExample.sol\":199:269  balanceReceived[msg.sender] + msg.value >= balanceReceived[msg.sender] */\n      lt\n      iszero\n        /* \"MyFunctionsExample.sol\":192:270  assert(balanceReceived[msg.sender] + msg.value >= balanceReceived[msg.sender]) */\n      tag_22\n      jumpi\n      mstore(0x00, 0x4e487b7100000000000000000000000000000000000000000000000000000000)\n      mstore(0x04, 0x01)\n      revert(0x00, 0x24)\n    tag_22:\n        /* \"MyFunctionsExample.sol\":311:320  msg.value */\n      callvalue\n        /* \"MyFunctionsExample.sol\":280:295  balanceReceived */\n      0x00\n        /* \"MyFunctionsExample.sol\":280:307  balanceReceived[msg.sender] */\n      dup1\n        /* \"MyFunctionsExample.sol\":296:306  msg.sender */\n      caller\n        /* \"MyFunctionsExample.sol\":280:307  balanceReceived[msg.sender] */\n      0xffffffffffffffffffffffffffffffffffffffff\n      and\n      0xffffffffffffffffffffffffffffffffffffffff\n      and\n      dup2\n      mstore\n      0x20\n      add\n      swap1\n      dup2\n      mstore\n      0x20\n      add\n      0x00\n      keccak256\n      0x00\n        /* \"MyFunctionsExample.sol\":280:320  balanceReceived[msg.sender] += msg.value */\n      dup3\n      dup3\n      sload\n      tag_23\n      swap2\n      swap1\n      tag_21\n      jump\t// in\n    tag_23:\n      swap3\n      pop\n      pop\n      dup2\n      swap1\n      sstore\n      pop\n        /* \"MyFunctionsExample.sol\":143:327  function receiveMoney() public payable {... */\n      jump\t// out\n        /* \"MyFunctionsExample.sol\":89:136  mapping(address => uint) public balanceReceived */\n    tag_11:\n      mstore(0x20, 0x00)\n      dup1\n      0x00\n      mstore\n      keccak256(0x00, 0x40)\n      0x00\n      swap2\n      pop\n      swap1\n      pop\n      sload\n      dup2\n      jump\t// out\n        /* \"MyFunctionsExample.sol\":333:648  function withdrawMoney(address payable _to, uint _amount) public {... */\n    tag_18:\n        /* \"MyFunctionsExample.sol\":427:442  balanceReceived */\n      0x00\n        /* \"MyFunctionsExample.sol\":427:454  balanceReceived[msg.sender] */\n      dup1\n        /* \"MyFunctionsExample.sol\":443:453  msg.sender */\n      caller\n        /* \"MyFunctionsExample.sol\":427:454  balanceReceived[msg.sender] */\n      0xffffffffffffffffffffffffffffffffffffffff\n      and\n      0xffffffffffffffffffffffffffffffffffffffff\n      and\n      dup2\n      mstore\n      0x20\n      add\n      swap1\n      dup2\n      mstore\n      0x20\n      add\n      0x00\n      keccak256\n      sload\n        /* \"MyFunctionsExample.sol\":416:423  _amount */\n      dup2\n        /* \"MyFunctionsExample.sol\":416:454  _amount <= balanceReceived[msg.sender] */\n      gt\n      iszero\n        /* \"MyFunctionsExample.sol\":408:476  require(_amount <= balanceReceived[msg.sender], \"not enough funds.\") */\n      tag_25\n      jumpi\n      mload(0x40)\n      0x08c379a000000000000000000000000000000000000000000000000000000000\n      dup2\n      mstore\n      0x04\n      add\n      tag_26\n      swap1\n      tag_27\n      jump\t// in\n    tag_26:\n      mload(0x40)\n      dup1\n      swap2\n      sub\n      swap1\n      revert\n    tag_25:\n        /* \"MyFunctionsExample.sol\":554:561  _amount */\n      dup1\n        /* \"MyFunctionsExample.sol\":524:539  balanceReceived */\n      0x00\n        /* \"MyFunctionsExample.sol\":524:551  balanceReceived[msg.sender] */\n      dup1\n        /* \"MyFunctionsExample.sol\":540:550  msg.sender */\n      caller\n        /* \"MyFunctionsExample.sol\":524:551  balanceReceived[msg.sender] */\n      0xffffffffffffffffffffffffffffffffffffffff\n      and\n      0xffffffffffffffffffffffffffffffffffffffff\n      and\n      dup2\n      mstore\n      0x20\n      add\n      swap1\n      dup2\n      mstore\n      0x20\n      add\n      0x00\n      keccak256\n      sload\n        /* \"MyFunctionsExample.sol\":524:561  balanceReceived[msg.sender] - _amount */\n      tag_28\n      swap2\n      swap1\n      tag_29\n      jump\t// in\n    tag_28:\n        /* \"MyFunctionsExample.sol\":493:508  balanceReceived */\n      0x00\n        /* \"MyFunctionsExample.sol\":493:520  balanceReceived[msg.sender] */\n      dup1\n        /* \"MyFunctionsExample.sol\":509:519  msg.sender */\n      caller\n        /* \"MyFunctionsExample.sol\":493:520  balanceReceived[msg.sender] */\n      0xffffffffffffffffffffffffffffffffffffffff\n      and\n      0xffffffffffffffffffffffffffffffffffffffff\n      and\n      dup2\n      mstore\n      0x20\n      add\n      swap1\n      dup2\n      mstore\n      0x20\n      add\n      0x00\n      keccak256\n      sload\n        /* \"MyFunctionsExample.sol\":493:561  balanceReceived[msg.sender] >= balanceReceived[msg.sender] - _amount */\n      lt\n      iszero\n        /* \"MyFunctionsExample.sol\":486:562  assert(balanceReceived[msg.sender] >= balanceReceived[msg.sender] - _amount) */\n      tag_30\n      jumpi\n      mstore(0x00, 0x4e487b7100000000000000000000000000000000000000000000000000000000)\n      mstore(0x04, 0x01)\n      revert(0x00, 0x24)\n    tag_30:\n        /* \"MyFunctionsExample.sol\":603:610  _amount */\n      dup1\n        /* \"MyFunctionsExample.sol\":572:587  balanceReceived */\n      0x00\n        /* \"MyFunctionsExample.sol\":572:599  balanceReceived[msg.sender] */\n      dup1\n        /* \"MyFunctionsExample.sol\":588:598  msg.sender */\n      caller\n        /* \"MyFunctionsExample.sol\":572:599  balanceReceived[msg.sender] */\n      0xffffffffffffffffffffffffffffffffffffffff\n      and\n      0xffffffffffffffffffffffffffffffffffffffff\n      and\n      dup2\n      mstore\n      0x20\n      add\n      swap1\n      dup2\n      mstore\n      0x20\n      add\n      0x00\n      keccak256\n      0x00\n        /* \"MyFunctionsExample.sol\":572:610  balanceReceived[msg.sender] -= _amount */\n      dup3\n      dup3\n      sload\n      tag_31\n      swap2\n      swap1\n      tag_29\n      jump\t// in\n    tag_31:\n      swap3\n      pop\n      pop\n      dup2\n      swap1\n      sstore\n      pop\n        /* \"MyFunctionsExample.sol\":620:623  _to */\n      dup2\n        /* \"MyFunctionsExample.sol\":620:632  _to.transfer */\n      0xffffffffffffffffffffffffffffffffffffffff\n      and\n        /* \"MyFunctionsExample.sol\":620:641  _to.transfer(_amount) */\n      0x08fc\n        /* \"MyFunctionsExample.sol\":633:640  _amount */\n      dup3\n        /* \"MyFunctionsExample.sol\":620:641  _to.transfer(_amount) */\n      swap1\n      dup2\n      iszero\n      mul\n      swap1\n      mload(0x40)\n      0x00\n      mload(0x40)\n      dup1\n      dup4\n      sub\n      dup2\n      dup6\n      dup9\n      dup9\n      call\n      swap4\n      pop\n      pop\n      pop\n      pop\n      iszero\n      dup1\n      iszero\n      tag_33\n      jumpi\n      returndatasize\n      0x00\n      dup1\n      returndatacopy\n      revert(0x00, returndatasize)\n    tag_33:\n      pop\n        /* \"MyFunctionsExample.sol\":333:648  function withdrawMoney(address payable _to, uint _amount) public {... */\n      pop\n      pop\n      jump\t// out\n        /* \"#utility.yul\":7:146   */\n    tag_35:\n      0x00\n        /* \"#utility.yul\":91:97   */\n      dup2\n        /* \"#utility.yul\":78:98   */\n      calldataload\n        /* \"#utility.yul\":69:98   */\n      swap1\n      pop\n        /* \"#utility.yul\":107:140   */\n      tag_37\n        /* \"#utility.yul\":134:139   */\n      dup2\n        /* \"#utility.yul\":107:140   */\n      tag_38\n      jump\t// in\n    tag_37:\n        /* \"#utility.yul\":59:146   */\n      swap3\n      swap2\n      pop\n      pop\n      jump\t// out\n        /* \"#utility.yul\":152:307   */\n    tag_39:\n      0x00\n        /* \"#utility.yul\":244:250   */\n      dup2\n        /* \"#utility.yul\":231:251   */\n      calldataload\n        /* \"#utility.yul\":222:251   */\n      swap1\n      pop\n        /* \"#utility.yul\":260:301   */\n      tag_41\n        /* \"#utility.yul\":295:300   */\n      dup2\n        /* \"#utility.yul\":260:301   */\n      tag_42\n      jump\t// in\n    tag_41:\n        /* \"#utility.yul\":212:307   */\n      swap3\n      swap2\n      pop\n      pop\n      jump\t// out\n        /* \"#utility.yul\":313:452   */\n    tag_43:\n      0x00\n        /* \"#utility.yul\":397:403   */\n      dup2\n        /* \"#utility.yul\":384:404   */\n      calldataload\n        /* \"#utility.yul\":375:404   */\n      swap1\n      pop\n        /* \"#utility.yul\":413:446   */\n      tag_45\n        /* \"#utility.yul\":440:445   */\n      dup2\n        /* \"#utility.yul\":413:446   */\n      tag_46\n      jump\t// in\n    tag_45:\n        /* \"#utility.yul\":365:452   */\n      swap3\n      swap2\n      pop\n      pop\n      jump\t// out\n        /* \"#utility.yul\":458:720   */\n    tag_10:\n      0x00\n        /* \"#utility.yul\":566:568   */\n      0x20\n        /* \"#utility.yul\":554:563   */\n      dup3\n        /* \"#utility.yul\":545:552   */\n      dup5\n        /* \"#utility.yul\":541:564   */\n      sub\n        /* \"#utility.yul\":537:569   */\n      slt\n        /* \"#utility.yul\":534:536   */\n      iszero\n      tag_48\n      jumpi\n        /* \"#utility.yul\":582:583   */\n      0x00\n        /* \"#utility.yul\":579:580   */\n      dup1\n        /* \"#utility.yul\":572:584   */\n      revert\n        /* \"#utility.yul\":534:536   */\n    tag_48:\n        /* \"#utility.yul\":625:626   */\n      0x00\n        /* \"#utility.yul\":650:703   */\n      tag_49\n        /* \"#utility.yul\":695:702   */\n      dup5\n        /* \"#utility.yul\":686:692   */\n      dup3\n        /* \"#utility.yul\":675:684   */\n      dup6\n        /* \"#utility.yul\":671:693   */\n      add\n        /* \"#utility.yul\":650:703   */\n      tag_35\n      jump\t// in\n    tag_49:\n        /* \"#utility.yul\":640:703   */\n      swap2\n      pop\n        /* \"#utility.yul\":596:713   */\n      pop\n        /* \"#utility.yul\":524:720   */\n      swap3\n      swap2\n      pop\n      pop\n      jump\t// out\n        /* \"#utility.yul\":726:1149   */\n    tag_17:\n      0x00\n      dup1\n        /* \"#utility.yul\":859:861   */\n      0x40\n        /* \"#utility.yul\":847:856   */\n      dup4\n        /* \"#utility.yul\":838:845   */\n      dup6\n        /* \"#utility.yul\":834:857   */\n      sub\n        /* \"#utility.yul\":830:862   */\n      slt\n        /* \"#utility.yul\":827:829   */\n      iszero\n      tag_51\n      jumpi\n        /* \"#utility.yul\":875:876   */\n      0x00\n        /* \"#utility.yul\":872:873   */\n      dup1\n        /* \"#utility.yul\":865:877   */\n      revert\n        /* \"#utility.yul\":827:829   */\n    tag_51:\n        /* \"#utility.yul\":918:919   */\n      0x00\n        /* \"#utility.yul\":943:1004   */\n      tag_52\n        /* \"#utility.yul\":996:1003   */\n      dup6\n        /* \"#utility.yul\":987:993   */\n      dup3\n        /* \"#utility.yul\":976:985   */\n      dup7\n        /* \"#utility.yul\":972:994   */\n      add\n        /* \"#utility.yul\":943:1004   */\n      tag_39\n      jump\t// in\n    tag_52:\n        /* \"#utility.yul\":933:1004   */\n      swap3\n      pop\n        /* \"#utility.yul\":889:1014   */\n      pop\n        /* \"#utility.yul\":1053:1055   */\n      0x20\n        /* \"#utility.yul\":1079:1132   */\n      tag_53\n        /* \"#utility.yul\":1124:1131   */\n      dup6\n        /* \"#utility.yul\":1115:1121   */\n      dup3\n        /* \"#utility.yul\":1104:1113   */\n      dup7\n        /* \"#utility.yul\":1100:1122   */\n      add\n        /* \"#utility.yul\":1079:1132   */\n      tag_43\n      jump\t// in\n    tag_53:\n        /* \"#utility.yul\":1069:1132   */\n      swap2\n      pop\n        /* \"#utility.yul\":1024:1142   */\n      pop\n        /* \"#utility.yul\":817:1149   */\n      swap3\n      pop\n      swap3\n      swap1\n      pop\n      jump\t// out\n        /* \"#utility.yul\":1155:1521   */\n    tag_54:\n      0x00\n        /* \"#utility.yul\":1318:1385   */\n      tag_56\n        /* \"#utility.yul\":1382:1384   */\n      0x11\n        /* \"#utility.yul\":1377:1380   */\n      dup4\n        /* \"#utility.yul\":1318:1385   */\n      tag_57\n      jump\t// in\n    tag_56:\n        /* \"#utility.yul\":1311:1385   */\n      swap2\n      pop\n        /* \"#utility.yul\":1394:1487   */\n      tag_58\n        /* \"#utility.yul\":1483:1486   */\n      dup3\n        /* \"#utility.yul\":1394:1487   */\n      tag_59\n      jump\t// in\n    tag_58:\n        /* \"#utility.yul\":1512:1514   */\n      0x20\n        /* \"#utility.yul\":1507:1510   */\n      dup3\n        /* \"#utility.yul\":1503:1515   */\n      add\n        /* \"#utility.yul\":1496:1515   */\n      swap1\n      pop\n        /* \"#utility.yul\":1301:1521   */\n      swap2\n      swap1\n      pop\n      jump\t// out\n        /* \"#utility.yul\":1527:1645   */\n    tag_60:\n        /* \"#utility.yul\":1614:1638   */\n      tag_62\n        /* \"#utility.yul\":1632:1637   */\n      dup2\n        /* \"#utility.yul\":1614:1638   */\n      tag_63\n      jump\t// in\n    tag_62:\n        /* \"#utility.yul\":1609:1612   */\n      dup3\n        /* \"#utility.yul\":1602:1639   */\n      mstore\n        /* \"#utility.yul\":1592:1645   */\n      pop\n      pop\n      jump\t// out\n        /* \"#utility.yul\":1651:2070   */\n    tag_27:\n      0x00\n        /* \"#utility.yul\":1855:1857   */\n      0x20\n        /* \"#utility.yul\":1844:1853   */\n      dup3\n        /* \"#utility.yul\":1840:1858   */\n      add\n        /* \"#utility.yul\":1832:1858   */\n      swap1\n      pop\n        /* \"#utility.yul\":1904:1913   */\n      dup2\n        /* \"#utility.yul\":1898:1902   */\n      dup2\n        /* \"#utility.yul\":1894:1914   */\n      sub\n        /* \"#utility.yul\":1890:1891   */\n      0x00\n        /* \"#utility.yul\":1879:1888   */\n      dup4\n        /* \"#utility.yul\":1875:1892   */\n      add\n        /* \"#utility.yul\":1868:1915   */\n      mstore\n        /* \"#utility.yul\":1932:2063   */\n      tag_65\n        /* \"#utility.yul\":2058:2062   */\n      dup2\n        /* \"#utility.yul\":1932:2063   */\n      tag_54\n      jump\t// in\n    tag_65:\n        /* \"#utility.yul\":1924:2063   */\n      swap1\n      pop\n        /* \"#utility.yul\":1822:2070   */\n      swap2\n      swap1\n      pop\n      jump\t// out\n        /* \"#utility.yul\":2076:2298   */\n    tag_13:\n      0x00\n        /* \"#utility.yul\":2207:2209   */\n      0x20\n        /* \"#utility.yul\":2196:2205   */\n      dup3\n        /* \"#utility.yul\":2192:2210   */\n      add\n        /* \"#utility.yul\":2184:2210   */\n      swap1\n      pop\n        /* \"#utility.yul\":2220:2291   */\n      tag_67\n        /* \"#utility.yul\":2288:2289   */\n      0x00\n        /* \"#utility.yul\":2277:2286   */\n      dup4\n        /* \"#utility.yul\":2273:2290   */\n      add\n        /* \"#utility.yul\":2264:2270   */\n      dup5\n        /* \"#utility.yul\":2220:2291   */\n      tag_60\n      jump\t// in\n    tag_67:\n        /* \"#utility.yul\":2174:2298   */\n      swap3\n      swap2\n      pop\n      pop\n      jump\t// out\n        /* \"#utility.yul\":2304:2473   */\n    tag_57:\n      0x00\n        /* \"#utility.yul\":2422:2428   */\n      dup3\n        /* \"#utility.yul\":2417:2420   */\n      dup3\n        /* \"#utility.yul\":2410:2429   */\n      mstore\n        /* \"#utility.yul\":2462:2466   */\n      0x20\n        /* \"#utility.yul\":2457:2460   */\n      dup3\n        /* \"#utility.yul\":2453:2467   */\n      add\n        /* \"#utility.yul\":2438:2467   */\n      swap1\n      pop\n        /* \"#utility.yul\":2400:2473   */\n      swap3\n      swap2\n      pop\n      pop\n      jump\t// out\n        /* \"#utility.yul\":2479:2784   */\n    tag_21:\n      0x00\n        /* \"#utility.yul\":2538:2558   */\n      tag_70\n        /* \"#utility.yul\":2556:2557   */\n      dup3\n        /* \"#utility.yul\":2538:2558   */\n      tag_63\n      jump\t// in\n    tag_70:\n        /* \"#utility.yul\":2533:2558   */\n      swap2\n      pop\n        /* \"#utility.yul\":2572:2592   */\n      tag_71\n        /* \"#utility.yul\":2590:2591   */\n      dup4\n        /* \"#utility.yul\":2572:2592   */\n      tag_63\n      jump\t// in\n    tag_71:\n        /* \"#utility.yul\":2567:2592   */\n      swap3\n      pop\n        /* \"#utility.yul\":2726:2727   */\n      dup3\n        /* \"#utility.yul\":2658:2724   */\n      0xffffffffffffffffffffffffffffffffffffffffffffffffffffffffffffffff\n        /* \"#utility.yul\":2654:2728   */\n      sub\n        /* \"#utility.yul\":2651:2652   */\n      dup3\n        /* \"#utility.yul\":2648:2729   */\n      gt\n        /* \"#utility.yul\":2645:2647   */\n      iszero\n      tag_72\n      jumpi\n        /* \"#utility.yul\":2732:2750   */\n      tag_73\n      tag_74\n      jump\t// in\n    tag_73:\n        /* \"#utility.yul\":2645:2647   */\n    tag_72:\n        /* \"#utility.yul\":2776:2777   */\n      dup3\n        /* \"#utility.yul\":2773:2774   */\n      dup3\n        /* \"#utility.yul\":2769:2778   */\n      add\n        /* \"#utility.yul\":2762:2778   */\n      swap1\n      pop\n        /* \"#utility.yul\":2523:2784   */\n      swap3\n      swap2\n      pop\n      pop\n      jump\t// out\n        /* \"#utility.yul\":2790:2981   */\n    tag_29:\n      0x00\n        /* \"#utility.yul\":2850:2870   */\n      tag_76\n        /* \"#utility.yul\":2868:2869   */\n      dup3\n        /* \"#utility.yul\":2850:2870   */\n      tag_63\n      jump\t// in\n    tag_76:\n        /* \"#utility.yul\":2845:2870   */\n      swap2\n      pop\n        /* \"#utility.yul\":2884:2904   */\n      tag_77\n        /* \"#utility.yul\":2902:2903   */\n      dup4\n        /* \"#utility.yul\":2884:2904   */\n      tag_63\n      jump\t// in\n    tag_77:\n        /* \"#utility.yul\":2879:2904   */\n      swap3\n      pop\n        /* \"#utility.yul\":2923:2924   */\n      dup3\n        /* \"#utility.yul\":2920:2921   */\n      dup3\n        /* \"#utility.yul\":2917:2925   */\n      lt\n        /* \"#utility.yul\":2914:2916   */\n      iszero\n      tag_78\n      jumpi\n        /* \"#utility.yul\":2928:2946   */\n      tag_79\n      tag_74\n      jump\t// in\n    tag_79:\n        /* \"#utility.yul\":2914:2916   */\n    tag_78:\n        /* \"#utility.yul\":2973:2974   */\n      dup3\n        /* \"#utility.yul\":2970:2971   */\n      dup3\n        /* \"#utility.yul\":2966:2975   */\n      sub\n        /* \"#utility.yul\":2958:2975   */\n      swap1\n      pop\n        /* \"#utility.yul\":2835:2981   */\n      swap3\n      swap2\n      pop\n      pop\n      jump\t// out\n        /* \"#utility.yul\":2987:3083   */\n    tag_80:\n      0x00\n        /* \"#utility.yul\":3053:3077   */\n      tag_82\n        /* \"#utility.yul\":3071:3076   */\n      dup3\n        /* \"#utility.yul\":3053:3077   */\n      tag_83\n      jump\t// in\n    tag_82:\n        /* \"#utility.yul\":3042:3077   */\n      swap1\n      pop\n        /* \"#utility.yul\":3032:3083   */\n      swap2\n      swap1\n      pop\n      jump\t// out\n        /* \"#utility.yul\":3089:3193   */\n    tag_84:\n      0x00\n        /* \"#utility.yul\":3163:3187   */\n      tag_86\n        /* \"#utility.yul\":3181:3186   */\n      dup3\n        /* \"#utility.yul\":3163:3187   */\n      tag_83\n      jump\t// in\n    tag_86:\n        /* \"#utility.yul\":3152:3187   */\n      swap1\n      pop\n        /* \"#utility.yul\":3142:3193   */\n      swap2\n      swap1\n      pop\n      jump\t// out\n        /* \"#utility.yul\":3199:3325   */\n    tag_83:\n      0x00\n        /* \"#utility.yul\":3276:3318   */\n      0xffffffffffffffffffffffffffffffffffffffff\n        /* \"#utility.yul\":3269:3274   */\n      dup3\n        /* \"#utility.yul\":3265:3319   */\n      and\n        /* \"#utility.yul\":3254:3319   */\n      swap1\n      pop\n        /* \"#utility.yul\":3244:3325   */\n      swap2\n      swap1\n      pop\n      jump\t// out\n        /* \"#utility.yul\":3331:3408   */\n    tag_63:\n      0x00\n        /* \"#utility.yul\":3397:3402   */\n      dup2\n        /* \"#utility.yul\":3386:3402   */\n      swap1\n      pop\n        /* \"#utility.yul\":3376:3408   */\n      swap2\n      swap1\n      pop\n      jump\t// out\n        /* \"#utility.yul\":3414:3594   */\n    tag_74:\n        /* \"#utility.yul\":3462:3539   */\n      0x4e487b7100000000000000000000000000000000000000000000000000000000\n        /* \"#utility.yul\":3459:3460   */\n      0x00\n        /* \"#utility.yul\":3452:3540   */\n      mstore\n        /* \"#utility.yul\":3559:3563   */\n      0x11\n        /* \"#utility.yul\":3556:3557   */\n      0x04\n        /* \"#utility.yul\":3549:3564   */\n      mstore\n        /* \"#utility.yul\":3583:3587   */\n      0x24\n        /* \"#utility.yul\":3580:3581   */\n      0x00\n        /* \"#utility.yul\":3573:3588   */\n      revert\n        /* \"#utility.yul\":3600:3767   */\n    tag_59:\n        /* \"#utility.yul\":3740:3759   */\n      0x6e6f7420656e6f7567682066756e64732e000000000000000000000000000000\n        /* \"#utility.yul\":3736:3737   */\n      0x00\n        /* \"#utility.yul\":3728:3734   */\n      dup3\n        /* \"#utility.yul\":3724:3738   */\n      add\n        /* \"#utility.yul\":3717:3760   */\n      mstore\n        /* \"#utility.yul\":3706:3767   */\n      pop\n      jump\t// out\n        /* \"#utility.yul\":3773:3895   */\n    tag_38:\n        /* \"#utility.yul\":3846:3870   */\n      tag_92\n        /* \"#utility.yul\":3864:3869   */\n      dup2\n        /* \"#utility.yul\":3846:3870   */\n      tag_80\n      jump\t// in\n    tag_92:\n        /* \"#utility.yul\":3839:3844   */\n      dup2\n        /* \"#utility.yul\":3836:3871   */\n      eq\n        /* \"#utility.yul\":3826:3828   */\n      tag_93\n      jumpi\n        /* \"#utility.yul\":3885:3886   */\n      0x00\n        /* \"#utility.yul\":3882:3883   */\n      dup1\n        /* \"#utility.yul\":3875:3887   */\n      revert\n        /* \"#utility.yul\":3826:3828   */\n    tag_93:\n        /* \"#utility.yul\":3816:3895   */\n      pop\n      jump\t// out\n        /* \"#utility.yul\":3901:4039   */\n    tag_42:\n        /* \"#utility.yul\":3982:4014   */\n      tag_95\n        /* \"#utility.yul\":4008:4013   */\n      dup2\n        /* \"#utility.yul\":3982:4014   */\n      tag_84\n      jump\t// in\n    tag_95:\n        /* \"#utility.yul\":3975:3980   */\n      dup2\n        /* \"#utility.yul\":3972:4015   */\n      eq\n        /* \"#utility.yul\":3962:3964   */\n      tag_96\n      jumpi\n        /* \"#utility.yul\":4029:4030   */\n      0x00\n        /* \"#utility.yul\":4026:4027   */\n      dup1\n        /* \"#utility.yul\":4019:4031   */\n      revert\n        /* \"#utility.yul\":3962:3964   */\n    tag_96:\n        /* \"#utility.yul\":3952:4039   */\n      pop\n      jump\t// out\n        /* \"#utility.yul\":4045:4167   */\n    tag_46:\n        /* \"#utility.yul\":4118:4142   */\n      tag_98\n        /* \"#utility.yul\":4136:4141   */\n      dup2\n        /* \"#utility.yul\":4118:4142   */\n      tag_63\n      jump\t// in\n    tag_98:\n        /* \"#utility.yul\":4111:4116   */\n      dup2\n        /* \"#utility.yul\":4108:4143   */\n      eq\n        /* \"#utility.yul\":4098:4100   */\n      tag_99\n      jumpi\n        /* \"#utility.yul\":4157:4158   */\n      0x00\n        /* \"#utility.yul\":4154:4155   */\n      dup1\n        /* \"#utility.yul\":4147:4159   */\n      revert\n        /* \"#utility.yul\":4098:4100   */\n    tag_99:\n        /* \"#utility.yul\":4088:4167   */\n      pop\n      jump\t// out\n\n    auxdata: 0xa26469706673582212200691343bf5a7af09386ce3be0f234ca23becd1d54b3ae82e61acd2db0ac2c99664736f6c63430008030033\n}\n",
				"bytecode": {
					"linkReferences": {},
					"object": "608060405234801561001057600080fd5b50610682806100206000396000f3fe6080604052600436106100345760003560e01c80636d26ec1814610039578063d18a42e114610043578063f274c89714610080575b600080fd5b6100416100a9565b005b34801561004f57600080fd5b5061006a600480360381019061006591906103f4565b6101be565b60405161007791906104ab565b60405180910390f35b34801561008c57600080fd5b506100a760048036038101906100a2919061041d565b6101d6565b005b6000803373ffffffffffffffffffffffffffffffffffffffff1673ffffffffffffffffffffffffffffffffffffffff16815260200190815260200160002054346000803373ffffffffffffffffffffffffffffffffffffffff1673ffffffffffffffffffffffffffffffffffffffff1681526020019081526020016000205461013291906104d7565b1015610167577f4e487b7100000000000000000000000000000000000000000000000000000000600052600160045260246000fd5b346000803373ffffffffffffffffffffffffffffffffffffffff1673ffffffffffffffffffffffffffffffffffffffff16815260200190815260200160002060008282546101b591906104d7565b92505081905550565b60006020528060005260406000206000915090505481565b6000803373ffffffffffffffffffffffffffffffffffffffff1673ffffffffffffffffffffffffffffffffffffffff16815260200190815260200160002054811115610257576040517f08c379a000000000000000000000000000000000000000000000000000000000815260040161024e9061048b565b60405180910390fd5b806000803373ffffffffffffffffffffffffffffffffffffffff1673ffffffffffffffffffffffffffffffffffffffff168152602001908152602001600020546102a1919061052d565b6000803373ffffffffffffffffffffffffffffffffffffffff1673ffffffffffffffffffffffffffffffffffffffff168152602001908152602001600020541015610315577f4e487b7100000000000000000000000000000000000000000000000000000000600052600160045260246000fd5b806000803373ffffffffffffffffffffffffffffffffffffffff1673ffffffffffffffffffffffffffffffffffffffff1681526020019081526020016000206000828254610363919061052d565b925050819055508173ffffffffffffffffffffffffffffffffffffffff166108fc829081150290604051600060405180830381858888f193505050501580156103b0573d6000803e3d6000fd5b505050565b6000813590506103c481610607565b92915050565b6000813590506103d98161061e565b92915050565b6000813590506103ee81610635565b92915050565b60006020828403121561040657600080fd5b6000610414848285016103b5565b91505092915050565b6000806040838503121561043057600080fd5b600061043e858286016103ca565b925050602061044f858286016103df565b9150509250929050565b60006104666011836104c6565b9150610471826105de565b602082019050919050565b610485816105a5565b82525050565b600060208201905081810360008301526104a481610459565b9050919050565b60006020820190506104c0600083018461047c565b92915050565b600082825260208201905092915050565b60006104e2826105a5565b91506104ed836105a5565b9250827fffffffffffffffffffffffffffffffffffffffffffffffffffffffffffffffff03821115610522576105216105af565b5b828201905092915050565b6000610538826105a5565b9150610543836105a5565b925082821015610556576105556105af565b5b828203905092915050565b600061056c82610585565b9050919050565b600061057e82610585565b9050919050565b600073ffffffffffffffffffffffffffffffffffffffff82169050919050565b6000819050919050565b7f4e487b7100000000000000000000000000000000000000000000000000000000600052601160045260246000fd5b7f6e6f7420656e6f7567682066756e64732e000000000000000000000000000000600082015250565b61061081610561565b811461061b57600080fd5b50565b61062781610573565b811461063257600080fd5b50565b61063e816105a5565b811461064957600080fd5b5056fea26469706673582212200691343bf5a7af09386ce3be0f234ca23becd1d54b3ae82e61acd2db0ac2c99664736f6c63430008030033",
					"opcodes": "PUSH1 0x80 PUSH1 0x40 MSTORE CALLVALUE DUP1 ISZERO PUSH2 0x10 JUMPI PUSH1 0x0 DUP1 REVERT JUMPDEST POP PUSH2 0x682 DUP1 PUSH2 0x20 PUSH1 0x0 CODECOPY PUSH1 0x0 RETURN INVALID PUSH1 0x80 PUSH1 0x40 MSTORE PUSH1 0x4 CALLDATASIZE LT PUSH2 0x34 JUMPI PUSH1 0x0 CALLDATALOAD PUSH1 0xE0 SHR DUP1 PUSH4 0x6D26EC18 EQ PUSH2 0x39 JUMPI DUP1 PUSH4 0xD18A42E1 EQ PUSH2 0x43 JUMPI DUP1 PUSH4 0xF274C897 EQ PUSH2 0x80 JUMPI JUMPDEST PUSH1 0x0 DUP1 REVERT JUMPDEST PUSH2 0x41 PUSH2 0xA9 JUMP JUMPDEST STOP JUMPDEST CALLVALUE DUP1 ISZERO PUSH2 0x4F JUMPI PUSH1 0x0 DUP1 REVERT JUMPDEST POP PUSH2 0x6A PUSH1 0x4 DUP1 CALLDATASIZE SUB DUP2 ADD SWAP1 PUSH2 0x65 SWAP2 SWAP1 PUSH2 0x3F4 JUMP JUMPDEST PUSH2 0x1BE JUMP JUMPDEST PUSH1 0x40 MLOAD PUSH2 0x77 SWAP2 SWAP1 PUSH2 0x4AB JUMP JUMPDEST PUSH1 0x40 MLOAD DUP1 SWAP2 SUB SWAP1 RETURN JUMPDEST CALLVALUE DUP1 ISZERO PUSH2 0x8C JUMPI PUSH1 0x0 DUP1 REVERT JUMPDEST POP PUSH2 0xA7 PUSH1 0x4 DUP1 CALLDATASIZE SUB DUP2 ADD SWAP1 PUSH2 0xA2 SWAP2 SWAP1 PUSH2 0x41D JUMP JUMPDEST PUSH2 0x1D6 JUMP JUMPDEST STOP JUMPDEST PUSH1 0x0 DUP1 CALLER PUSH20 0xFFFFFFFFFFFFFFFFFFFFFFFFFFFFFFFFFFFFFFFF AND PUSH20 0xFFFFFFFFFFFFFFFFFFFFFFFFFFFFFFFFFFFFFFFF AND DUP2 MSTORE PUSH1 0x20 ADD SWAP1 DUP2 MSTORE PUSH1 0x20 ADD PUSH1 0x0 KECCAK256 SLOAD CALLVALUE PUSH1 0x0 DUP1 CALLER PUSH20 0xFFFFFFFFFFFFFFFFFFFFFFFFFFFFFFFFFFFFFFFF AND PUSH20 0xFFFFFFFFFFFFFFFFFFFFFFFFFFFFFFFFFFFFFFFF AND DUP2 MSTORE PUSH1 0x20 ADD SWAP1 DUP2 MSTORE PUSH1 0x20 ADD PUSH1 0x0 KECCAK256 SLOAD PUSH2 0x132 SWAP2 SWAP1 PUSH2 0x4D7 JUMP JUMPDEST LT ISZERO PUSH2 0x167 JUMPI PUSH32 0x4E487B7100000000000000000000000000000000000000000000000000000000 PUSH1 0x0 MSTORE PUSH1 0x1 PUSH1 0x4 MSTORE PUSH1 0x24 PUSH1 0x0 REVERT JUMPDEST CALLVALUE PUSH1 0x0 DUP1 CALLER PUSH20 0xFFFFFFFFFFFFFFFFFFFFFFFFFFFFFFFFFFFFFFFF AND PUSH20 0xFFFFFFFFFFFFFFFFFFFFFFFFFFFFFFFFFFFFFFFF AND DUP2 MSTORE PUSH1 0x20 ADD SWAP1 DUP2 MSTORE PUSH1 0x20 ADD PUSH1 0x0 KECCAK256 PUSH1 0x0 DUP3 DUP3 SLOAD PUSH2 0x1B5 SWAP2 SWAP1 PUSH2 0x4D7 JUMP JUMPDEST SWAP3 POP POP DUP2 SWAP1 SSTORE POP JUMP JUMPDEST PUSH1 0x0 PUSH1 0x20 MSTORE DUP1 PUSH1 0x0 MSTORE PUSH1 0x40 PUSH1 0x0 KECCAK256 PUSH1 0x0 SWAP2 POP SWAP1 POP SLOAD DUP2 JUMP JUMPDEST PUSH1 0x0 DUP1 CALLER PUSH20 0xFFFFFFFFFFFFFFFFFFFFFFFFFFFFFFFFFFFFFFFF AND PUSH20 0xFFFFFFFFFFFFFFFFFFFFFFFFFFFFFFFFFFFFFFFF AND DUP2 MSTORE PUSH1 0x20 ADD SWAP1 DUP2 MSTORE PUSH1 0x20 ADD PUSH1 0x0 KECCAK256 SLOAD DUP2 GT ISZERO PUSH2 0x257 JUMPI PUSH1 0x40 MLOAD PUSH32 0x8C379A000000000000000000000000000000000000000000000000000000000 DUP2 MSTORE PUSH1 0x4 ADD PUSH2 0x24E SWAP1 PUSH2 0x48B JUMP JUMPDEST PUSH1 0x40 MLOAD DUP1 SWAP2 SUB SWAP1 REVERT JUMPDEST DUP1 PUSH1 0x0 DUP1 CALLER PUSH20 0xFFFFFFFFFFFFFFFFFFFFFFFFFFFFFFFFFFFFFFFF AND PUSH20 0xFFFFFFFFFFFFFFFFFFFFFFFFFFFFFFFFFFFFFFFF AND DUP2 MSTORE PUSH1 0x20 ADD SWAP1 DUP2 MSTORE PUSH1 0x20 ADD PUSH1 0x0 KECCAK256 SLOAD PUSH2 0x2A1 SWAP2 SWAP1 PUSH2 0x52D JUMP JUMPDEST PUSH1 0x0 DUP1 CALLER PUSH20 0xFFFFFFFFFFFFFFFFFFFFFFFFFFFFFFFFFFFFFFFF AND PUSH20 0xFFFFFFFFFFFFFFFFFFFFFFFFFFFFFFFFFFFFFFFF AND DUP2 MSTORE PUSH1 0x20 ADD SWAP1 DUP2 MSTORE PUSH1 0x20 ADD PUSH1 0x0 KECCAK256 SLOAD LT ISZERO PUSH2 0x315 JUMPI PUSH32 0x4E487B7100000000000000000000000000000000000000000000000000000000 PUSH1 0x0 MSTORE PUSH1 0x1 PUSH1 0x4 MSTORE PUSH1 0x24 PUSH1 0x0 REVERT JUMPDEST DUP1 PUSH1 0x0 DUP1 CALLER PUSH20 0xFFFFFFFFFFFFFFFFFFFFFFFFFFFFFFFFFFFFFFFF AND PUSH20 0xFFFFFFFFFFFFFFFFFFFFFFFFFFFFFFFFFFFFFFFF AND DUP2 MSTORE PUSH1 0x20 ADD SWAP1 DUP2 MSTORE PUSH1 0x20 ADD PUSH1 0x0 KECCAK256 PUSH1 0x0 DUP3 DUP3 SLOAD PUSH2 0x363 SWAP2 SWAP1 PUSH2 0x52D JUMP JUMPDEST SWAP3 POP POP DUP2 SWAP1 SSTORE POP DUP2 PUSH20 0xFFFFFFFFFFFFFFFFFFFFFFFFFFFFFFFFFFFFFFFF AND PUSH2 0x8FC DUP3 SWAP1 DUP2 ISZERO MUL SWAP1 PUSH1 0x40 MLOAD PUSH1 0x0 PUSH1 0x40 MLOAD DUP1 DUP4 SUB DUP2 DUP6 DUP9 DUP9 CALL SWAP4 POP POP POP POP ISZERO DUP1 ISZERO PUSH2 0x3B0 JUMPI RETURNDATASIZE PUSH1 0x0 DUP1 RETURNDATACOPY RETURNDATASIZE PUSH1 0x0 REVERT JUMPDEST POP POP POP JUMP JUMPDEST PUSH1 0x0 DUP2 CALLDATALOAD SWAP1 POP PUSH2 0x3C4 DUP2 PUSH2 0x607 JUMP JUMPDEST SWAP3 SWAP2 POP POP JUMP JUMPDEST PUSH1 0x0 DUP2 CALLDATALOAD SWAP1 POP PUSH2 0x3D9 DUP2 PUSH2 0x61E JUMP JUMPDEST SWAP3 SWAP2 POP POP JUMP JUMPDEST PUSH1 0x0 DUP2 CALLDATALOAD SWAP1 POP PUSH2 0x3EE DUP2 PUSH2 0x635 JUMP JUMPDEST SWAP3 SWAP2 POP POP JUMP JUMPDEST PUSH1 0x0 PUSH1 0x20 DUP3 DUP5 SUB SLT ISZERO PUSH2 0x406 JUMPI PUSH1 0x0 DUP1 REVERT JUMPDEST PUSH1 0x0 PUSH2 0x414 DUP5 DUP3 DUP6 ADD PUSH2 0x3B5 JUMP JUMPDEST SWAP2 POP POP SWAP3 SWAP2 POP POP JUMP JUMPDEST PUSH1 0x0 DUP1 PUSH1 0x40 DUP4 DUP6 SUB SLT ISZERO PUSH2 0x430 JUMPI PUSH1 0x0 DUP1 REVERT JUMPDEST PUSH1 0x0 PUSH2 0x43E DUP6 DUP3 DUP7 ADD PUSH2 0x3CA JUMP JUMPDEST SWAP3 POP POP PUSH1 0x20 PUSH2 0x44F DUP6 DUP3 DUP7 ADD PUSH2 0x3DF JUMP JUMPDEST SWAP2 POP POP SWAP3 POP SWAP3 SWAP1 POP JUMP JUMPDEST PUSH1 0x0 PUSH2 0x466 PUSH1 0x11 DUP4 PUSH2 0x4C6 JUMP JUMPDEST SWAP2 POP PUSH2 0x471 DUP3 PUSH2 0x5DE JUMP JUMPDEST PUSH1 0x20 DUP3 ADD SWAP1 POP SWAP2 SWAP1 POP JUMP JUMPDEST PUSH2 0x485 DUP2 PUSH2 0x5A5 JUMP JUMPDEST DUP3 MSTORE POP POP JUMP JUMPDEST PUSH1 0x0 PUSH1 0x20 DUP3 ADD SWAP1 POP DUP2 DUP2 SUB PUSH1 0x0 DUP4 ADD MSTORE PUSH2 0x4A4 DUP2 PUSH2 0x459 JUMP JUMPDEST SWAP1 POP SWAP2 SWAP1 POP JUMP JUMPDEST PUSH1 0x0 PUSH1 0x20 DUP3 ADD SWAP1 POP PUSH2 0x4C0 PUSH1 0x0 DUP4 ADD DUP5 PUSH2 0x47C JUMP JUMPDEST SWAP3 SWAP2 POP POP JUMP JUMPDEST PUSH1 0x0 DUP3 DUP3 MSTORE PUSH1 0x20 DUP3 ADD SWAP1 POP SWAP3 SWAP2 POP POP JUMP JUMPDEST PUSH1 0x0 PUSH2 0x4E2 DUP3 PUSH2 0x5A5 JUMP JUMPDEST SWAP2 POP PUSH2 0x4ED DUP4 PUSH2 0x5A5 JUMP JUMPDEST SWAP3 POP DUP3 PUSH32 0xFFFFFFFFFFFFFFFFFFFFFFFFFFFFFFFFFFFFFFFFFFFFFFFFFFFFFFFFFFFFFFFF SUB DUP3 GT ISZERO PUSH2 0x522 JUMPI PUSH2 0x521 PUSH2 0x5AF JUMP JUMPDEST JUMPDEST DUP3 DUP3 ADD SWAP1 POP SWAP3 SWAP2 POP POP JUMP JUMPDEST PUSH1 0x0 PUSH2 0x538 DUP3 PUSH2 0x5A5 JUMP JUMPDEST SWAP2 POP PUSH2 0x543 DUP4 PUSH2 0x5A5 JUMP JUMPDEST SWAP3 POP DUP3 DUP3 LT ISZERO PUSH2 0x556 JUMPI PUSH2 0x555 PUSH2 0x5AF JUMP JUMPDEST JUMPDEST DUP3 DUP3 SUB SWAP1 POP SWAP3 SWAP2 POP POP JUMP JUMPDEST PUSH1 0x0 PUSH2 0x56C DUP3 PUSH2 0x585 JUMP JUMPDEST SWAP1 POP SWAP2 SWAP1 POP JUMP JUMPDEST PUSH1 0x0 PUSH2 0x57E DUP3 PUSH2 0x585 JUMP JUMPDEST SWAP1 POP SWAP2 SWAP1 POP JUMP JUMPDEST PUSH1 0x0 PUSH20 0xFFFFFFFFFFFFFFFFFFFFFFFFFFFFFFFFFFFFFFFF DUP3 AND SWAP1 POP SWAP2 SWAP1 POP JUMP JUMPDEST PUSH1 0x0 DUP2 SWAP1 POP SWAP2 SWAP1 POP JUMP JUMPDEST PUSH32 0x4E487B7100000000000000000000000000000000000000000000000000000000 PUSH1 0x0 MSTORE PUSH1 0x11 PUSH1 0x4 MSTORE PUSH1 0x24 PUSH1 0x0 REVERT JUMPDEST PUSH32 0x6E6F7420656E6F7567682066756E64732E000000000000000000000000000000 PUSH1 0x0 DUP3 ADD MSTORE POP JUMP JUMPDEST PUSH2 0x610 DUP2 PUSH2 0x561 JUMP JUMPDEST DUP2 EQ PUSH2 0x61B JUMPI PUSH1 0x0 DUP1 REVERT JUMPDEST POP JUMP JUMPDEST PUSH2 0x627 DUP2 PUSH2 0x573 JUMP JUMPDEST DUP2 EQ PUSH2 0x632 JUMPI PUSH1 0x0 DUP1 REVERT JUMPDEST POP JUMP JUMPDEST PUSH2 0x63E DUP2 PUSH2 0x5A5 JUMP JUMPDEST DUP2 EQ PUSH2 0x649 JUMPI PUSH1 0x0 DUP1 REVERT JUMPDEST POP JUMP INVALID LOG2 PUSH5 0x6970667358 0x22 SLT KECCAK256 MOD SWAP2 CALLVALUE EXTCODESIZE CREATE2 0xA7 0xAF MULMOD CODESIZE PUSH13 0xE3BE0F234CA23BECD1D54B3AE8 0x2E PUSH2 0xACD2 0xDB EXP 0xC2 0xC9 SWAP7 PUSH5 0x736F6C6343 STOP ADDMOD SUB STOP CALLER "
				},
				"gasEstimates": {
					"creation": {
						"codeDepositCost": "333200",
						"executionCost": "374",
						"totalCost": "333574"
					},
					"external": {
						"balanceReceived(address)": "1514",
						"receiveMoney()": "infinite",
						"withdrawMoney(address,uint256)": "infinite"
					}
				},
				"methodIdentifiers": {
					"balanceReceived(address)": "d18a42e1",
					"receiveMoney()": "6d26ec18",
					"withdrawMoney(address,uint256)": "f274c897"
				}
			},
			"storageLayout": {
				"storage": [
					{
						"astId": 5,
						"contract": "MyFunctionsExample.sol:FunctionsExample",
						"label": "balanceReceived",
						"offset": 0,
						"slot": "0",
						"type": "t_mapping(t_address,t_uint256)"
					}
				],
				"types": {
					"t_address": {
						"encoding": "inplace",
						"label": "address",
						"numberOfBytes": "20"
					},
					"t_mapping(t_address,t_uint256)": {
						"encoding": "mapping",
						"key": "t_address",
						"label": "mapping(address => uint256)",
						"numberOfBytes": "32",
						"value": "t_uint256"
					},
					"t_uint256": {
						"encoding": "inplace",
						"label": "uint256",
						"numberOfBytes": "32"
					}
				}
			},
			"userdoc": {
				"kind": "user",
				"methods": {},
				"version": 1
			}
		}
	}
}