{
	"MyProjectSharedWallet.sol": {
		"SharedWallet": {
			"abi": [
				{
					"inputs": [],
					"stateMutability": "nonpayable",
					"type": "constructor"
				},
				{
					"inputs": [],
					"name": "ReceiveMoney",
					"outputs": [],
					"stateMutability": "payable",
					"type": "function"
				},
				{
					"inputs": [
						{
							"internalType": "address",
							"name": "_beneficiary",
							"type": "address"
						}
					],
					"name": "SetAllowance",
					"outputs": [],
					"stateMutability": "nonpayable",
					"type": "function"
				},
				{
					"inputs": [],
					"name": "owner",
					"outputs": [
						{
							"internalType": "address",
							"name": "",
							"type": "address"
						}
					],
					"stateMutability": "view",
					"type": "function"
				},
				{
					"inputs": [],
					"name": "walletBalance",
					"outputs": [
						{
							"internalType": "uint256",
							"name": "",
							"type": "uint256"
						}
					],
					"stateMutability": "view",
					"type": "function"
				}
			],
			"devdoc": {
				"kind": "dev",
				"methods": {},
				"version": 1
			},
			"evm": {
				"assembly": "    /* \"MyProjectSharedWallet.sol\":156:924  contract SharedWallet {... */\n  mstore(0x40, 0x80)\n    /* \"MyProjectSharedWallet.sol\":421:470  constructor() {... */\n  callvalue\n  dup1\n  iszero\n  tag_1\n  jumpi\n  0x00\n  dup1\n  revert\ntag_1:\n  pop\n    /* \"MyProjectSharedWallet.sol\":453:463  msg.sender */\n  caller\n    /* \"MyProjectSharedWallet.sol\":445:450  owner */\n  0x01\n  0x00\n    /* \"MyProjectSharedWallet.sol\":445:463  owner = msg.sender */\n  0x0100\n  exp\n  dup2\n  sload\n  dup2\n  0xffffffffffffffffffffffffffffffffffffffff\n  mul\n  not\n  and\n  swap1\n  dup4\n  0xffffffffffffffffffffffffffffffffffffffff\n  and\n  mul\n  or\n  swap1\n  sstore\n  pop\n    /* \"MyProjectSharedWallet.sol\":156:924  contract SharedWallet {... */\n  dataSize(sub_0)\n  dup1\n  dataOffset(sub_0)\n  0x00\n  codecopy\n  0x00\n  return\nstop\n\nsub_0: assembly {\n        /* \"MyProjectSharedWallet.sol\":156:924  contract SharedWallet {... */\n      mstore(0x40, 0x80)\n      jumpi(tag_1, lt(calldatasize, 0x04))\n      shr(0xe0, calldataload(0x00))\n      dup1\n      0x8da5cb5b\n      eq\n      tag_2\n      jumpi\n      dup1\n      0x924c45bf\n      eq\n      tag_3\n      jumpi\n      dup1\n      0xa29e0a94\n      eq\n      tag_4\n      jumpi\n      dup1\n      0xcd0a314b\n      eq\n      tag_5\n      jumpi\n    tag_1:\n      0x00\n      dup1\n      revert\n        /* \"MyProjectSharedWallet.sol\":285:305  address public owner */\n    tag_2:\n      callvalue\n      dup1\n      iszero\n      tag_6\n      jumpi\n      0x00\n      dup1\n      revert\n    tag_6:\n      pop\n      tag_7\n      tag_8\n      jump\t// in\n    tag_7:\n      mload(0x40)\n      tag_9\n      swap2\n      swap1\n      tag_10\n      jump\t// in\n    tag_9:\n      mload(0x40)\n      dup1\n      swap2\n      sub\n      swap1\n      return\n        /* \"MyProjectSharedWallet.sol\":667:744  function SetAllowance(address _beneficiary) public onlyOwner {... */\n    tag_3:\n      callvalue\n      dup1\n      iszero\n      tag_11\n      jumpi\n      0x00\n      dup1\n      revert\n    tag_11:\n      pop\n      tag_12\n      0x04\n      dup1\n      calldatasize\n      sub\n      dup2\n      add\n      swap1\n      tag_13\n      swap2\n      swap1\n      tag_14\n      jump\t// in\n    tag_13:\n      tag_15\n      jump\t// in\n    tag_12:\n      stop\n        /* \"MyProjectSharedWallet.sol\":782:921  function ReceiveMoney() public payable {... */\n    tag_4:\n      tag_16\n      tag_17\n      jump\t// in\n    tag_16:\n      stop\n        /* \"MyProjectSharedWallet.sol\":224:249  uint public walletBalance */\n    tag_5:\n      callvalue\n      dup1\n      iszero\n      tag_18\n      jumpi\n      0x00\n      dup1\n      revert\n    tag_18:\n      pop\n      tag_19\n      tag_20\n      jump\t// in\n    tag_19:\n      mload(0x40)\n      tag_21\n      swap2\n      swap1\n      tag_22\n      jump\t// in\n    tag_21:\n      mload(0x40)\n      dup1\n      swap2\n      sub\n      swap1\n      return\n        /* \"MyProjectSharedWallet.sol\":285:305  address public owner */\n    tag_8:\n      0x01\n      0x00\n      swap1\n      sload\n      swap1\n      0x0100\n      exp\n      swap1\n      div\n      0xffffffffffffffffffffffffffffffffffffffff\n      and\n      dup2\n      jump\t// out\n        /* \"MyProjectSharedWallet.sol\":667:744  function SetAllowance(address _beneficiary) public onlyOwner {... */\n    tag_15:\n        /* \"MyProjectSharedWallet.sol\":529:534  owner */\n      0x01\n      0x00\n      swap1\n      sload\n      swap1\n      0x0100\n      exp\n      swap1\n      div\n      0xffffffffffffffffffffffffffffffffffffffff\n      and\n        /* \"MyProjectSharedWallet.sol\":515:534  msg.sender == owner */\n      0xffffffffffffffffffffffffffffffffffffffff\n      and\n        /* \"MyProjectSharedWallet.sol\":515:525  msg.sender */\n      caller\n        /* \"MyProjectSharedWallet.sol\":515:534  msg.sender == owner */\n      0xffffffffffffffffffffffffffffffffffffffff\n      and\n      eq\n        /* \"MyProjectSharedWallet.sol\":507:588  require(msg.sender == owner, \"You are not allowed - only the owner can do this.\") */\n      tag_24\n      jumpi\n      mload(0x40)\n      0x08c379a000000000000000000000000000000000000000000000000000000000\n      dup2\n      mstore\n      0x04\n      add\n      tag_25\n      swap1\n      tag_26\n      jump\t// in\n    tag_25:\n      mload(0x40)\n      dup1\n      swap2\n      sub\n      swap1\n      revert\n    tag_24:\n        /* \"MyProjectSharedWallet.sol\":667:744  function SetAllowance(address _beneficiary) public onlyOwner {... */\n      pop\n      jump\t// out\n        /* \"MyProjectSharedWallet.sol\":782:921  function ReceiveMoney() public payable {... */\n    tag_17:\n        /* \"MyProjectSharedWallet.sol\":848:857  msg.value */\n      callvalue\n        /* \"MyProjectSharedWallet.sol\":831:844  walletBalance */\n      0x00\n      dup1\n        /* \"MyProjectSharedWallet.sol\":831:857  walletBalance += msg.value */\n      dup3\n      dup3\n      sload\n      tag_29\n      swap2\n      swap1\n      tag_30\n      jump\t// in\n    tag_29:\n      swap3\n      pop\n      pop\n      dup2\n      swap1\n      sstore\n      pop\n        /* \"MyProjectSharedWallet.sol\":782:921  function ReceiveMoney() public payable {... */\n      jump\t// out\n        /* \"MyProjectSharedWallet.sol\":224:249  uint public walletBalance */\n    tag_20:\n      sload(0x00)\n      dup2\n      jump\t// out\n        /* \"#utility.yul\":7:133   */\n    tag_31:\n        /* \"#utility.yul\":44:51   */\n      0x00\n        /* \"#utility.yul\":84:126   */\n      0xffffffffffffffffffffffffffffffffffffffff\n        /* \"#utility.yul\":77:82   */\n      dup3\n        /* \"#utility.yul\":73:127   */\n      and\n        /* \"#utility.yul\":62:127   */\n      swap1\n      pop\n        /* \"#utility.yul\":7:133   */\n      swap2\n      swap1\n      pop\n      jump\t// out\n        /* \"#utility.yul\":139:235   */\n    tag_32:\n        /* \"#utility.yul\":176:183   */\n      0x00\n        /* \"#utility.yul\":205:229   */\n      tag_48\n        /* \"#utility.yul\":223:228   */\n      dup3\n        /* \"#utility.yul\":205:229   */\n      tag_31\n      jump\t// in\n    tag_48:\n        /* \"#utility.yul\":194:229   */\n      swap1\n      pop\n        /* \"#utility.yul\":139:235   */\n      swap2\n      swap1\n      pop\n      jump\t// out\n        /* \"#utility.yul\":241:359   */\n    tag_33:\n        /* \"#utility.yul\":328:352   */\n      tag_50\n        /* \"#utility.yul\":346:351   */\n      dup2\n        /* \"#utility.yul\":328:352   */\n      tag_32\n      jump\t// in\n    tag_50:\n        /* \"#utility.yul\":323:326   */\n      dup3\n        /* \"#utility.yul\":316:353   */\n      mstore\n        /* \"#utility.yul\":241:359   */\n      pop\n      pop\n      jump\t// out\n        /* \"#utility.yul\":365:587   */\n    tag_10:\n        /* \"#utility.yul\":458:462   */\n      0x00\n        /* \"#utility.yul\":496:498   */\n      0x20\n        /* \"#utility.yul\":485:494   */\n      dup3\n        /* \"#utility.yul\":481:499   */\n      add\n        /* \"#utility.yul\":473:499   */\n      swap1\n      pop\n        /* \"#utility.yul\":509:580   */\n      tag_52\n        /* \"#utility.yul\":577:578   */\n      0x00\n        /* \"#utility.yul\":566:575   */\n      dup4\n        /* \"#utility.yul\":562:579   */\n      add\n        /* \"#utility.yul\":553:559   */\n      dup5\n        /* \"#utility.yul\":509:580   */\n      tag_33\n      jump\t// in\n    tag_52:\n        /* \"#utility.yul\":365:587   */\n      swap3\n      swap2\n      pop\n      pop\n      jump\t// out\n        /* \"#utility.yul\":674:791   */\n    tag_35:\n        /* \"#utility.yul\":783:784   */\n      0x00\n        /* \"#utility.yul\":780:781   */\n      dup1\n        /* \"#utility.yul\":773:785   */\n      revert\n        /* \"#utility.yul\":920:1042   */\n    tag_37:\n        /* \"#utility.yul\":993:1017   */\n      tag_57\n        /* \"#utility.yul\":1011:1016   */\n      dup2\n        /* \"#utility.yul\":993:1017   */\n      tag_32\n      jump\t// in\n    tag_57:\n        /* \"#utility.yul\":986:991   */\n      dup2\n        /* \"#utility.yul\":983:1018   */\n      eq\n        /* \"#utility.yul\":973:1036   */\n      tag_58\n      jumpi\n        /* \"#utility.yul\":1032:1033   */\n      0x00\n        /* \"#utility.yul\":1029:1030   */\n      dup1\n        /* \"#utility.yul\":1022:1034   */\n      revert\n        /* \"#utility.yul\":973:1036   */\n    tag_58:\n        /* \"#utility.yul\":920:1042   */\n      pop\n      jump\t// out\n        /* \"#utility.yul\":1048:1187   */\n    tag_38:\n        /* \"#utility.yul\":1094:1099   */\n      0x00\n        /* \"#utility.yul\":1132:1138   */\n      dup2\n        /* \"#utility.yul\":1119:1139   */\n      calldataload\n        /* \"#utility.yul\":1110:1139   */\n      swap1\n      pop\n        /* \"#utility.yul\":1148:1181   */\n      tag_60\n        /* \"#utility.yul\":1175:1180   */\n      dup2\n        /* \"#utility.yul\":1148:1181   */\n      tag_37\n      jump\t// in\n    tag_60:\n        /* \"#utility.yul\":1048:1187   */\n      swap3\n      swap2\n      pop\n      pop\n      jump\t// out\n        /* \"#utility.yul\":1193:1522   */\n    tag_14:\n        /* \"#utility.yul\":1252:1258   */\n      0x00\n        /* \"#utility.yul\":1301:1303   */\n      0x20\n        /* \"#utility.yul\":1289:1298   */\n      dup3\n        /* \"#utility.yul\":1280:1287   */\n      dup5\n        /* \"#utility.yul\":1276:1299   */\n      sub\n        /* \"#utility.yul\":1272:1304   */\n      slt\n        /* \"#utility.yul\":1269:1388   */\n      iszero\n      tag_62\n      jumpi\n        /* \"#utility.yul\":1307:1386   */\n      tag_63\n      tag_35\n      jump\t// in\n    tag_63:\n        /* \"#utility.yul\":1269:1388   */\n    tag_62:\n        /* \"#utility.yul\":1427:1428   */\n      0x00\n        /* \"#utility.yul\":1452:1505   */\n      tag_64\n        /* \"#utility.yul\":1497:1504   */\n      dup5\n        /* \"#utility.yul\":1488:1494   */\n      dup3\n        /* \"#utility.yul\":1477:1486   */\n      dup6\n        /* \"#utility.yul\":1473:1495   */\n      add\n        /* \"#utility.yul\":1452:1505   */\n      tag_38\n      jump\t// in\n    tag_64:\n        /* \"#utility.yul\":1442:1505   */\n      swap2\n      pop\n        /* \"#utility.yul\":1398:1515   */\n      pop\n        /* \"#utility.yul\":1193:1522   */\n      swap3\n      swap2\n      pop\n      pop\n      jump\t// out\n        /* \"#utility.yul\":1528:1605   */\n    tag_39:\n        /* \"#utility.yul\":1565:1572   */\n      0x00\n        /* \"#utility.yul\":1594:1599   */\n      dup2\n        /* \"#utility.yul\":1583:1599   */\n      swap1\n      pop\n        /* \"#utility.yul\":1528:1605   */\n      swap2\n      swap1\n      pop\n      jump\t// out\n        /* \"#utility.yul\":1611:1729   */\n    tag_40:\n        /* \"#utility.yul\":1698:1722   */\n      tag_67\n        /* \"#utility.yul\":1716:1721   */\n      dup2\n        /* \"#utility.yul\":1698:1722   */\n      tag_39\n      jump\t// in\n    tag_67:\n        /* \"#utility.yul\":1693:1696   */\n      dup3\n        /* \"#utility.yul\":1686:1723   */\n      mstore\n        /* \"#utility.yul\":1611:1729   */\n      pop\n      pop\n      jump\t// out\n        /* \"#utility.yul\":1735:1957   */\n    tag_22:\n        /* \"#utility.yul\":1828:1832   */\n      0x00\n        /* \"#utility.yul\":1866:1868   */\n      0x20\n        /* \"#utility.yul\":1855:1864   */\n      dup3\n        /* \"#utility.yul\":1851:1869   */\n      add\n        /* \"#utility.yul\":1843:1869   */\n      swap1\n      pop\n        /* \"#utility.yul\":1879:1950   */\n      tag_69\n        /* \"#utility.yul\":1947:1948   */\n      0x00\n        /* \"#utility.yul\":1936:1945   */\n      dup4\n        /* \"#utility.yul\":1932:1949   */\n      add\n        /* \"#utility.yul\":1923:1929   */\n      dup5\n        /* \"#utility.yul\":1879:1950   */\n      tag_40\n      jump\t// in\n    tag_69:\n        /* \"#utility.yul\":1735:1957   */\n      swap3\n      swap2\n      pop\n      pop\n      jump\t// out\n        /* \"#utility.yul\":1963:2132   */\n    tag_41:\n        /* \"#utility.yul\":2047:2058   */\n      0x00\n        /* \"#utility.yul\":2081:2087   */\n      dup3\n        /* \"#utility.yul\":2076:2079   */\n      dup3\n        /* \"#utility.yul\":2069:2088   */\n      mstore\n        /* \"#utility.yul\":2121:2125   */\n      0x20\n        /* \"#utility.yul\":2116:2119   */\n      dup3\n        /* \"#utility.yul\":2112:2126   */\n      add\n        /* \"#utility.yul\":2097:2126   */\n      swap1\n      pop\n        /* \"#utility.yul\":1963:2132   */\n      swap3\n      swap2\n      pop\n      pop\n      jump\t// out\n        /* \"#utility.yul\":2138:2374   */\n    tag_42:\n        /* \"#utility.yul\":2278:2312   */\n      0x596f7520617265206e6f7420616c6c6f776564202d206f6e6c7920746865206f\n        /* \"#utility.yul\":2274:2275   */\n      0x00\n        /* \"#utility.yul\":2266:2272   */\n      dup3\n        /* \"#utility.yul\":2262:2276   */\n      add\n        /* \"#utility.yul\":2255:2313   */\n      mstore\n        /* \"#utility.yul\":2347:2366   */\n      0x776e65722063616e20646f20746869732e000000000000000000000000000000\n        /* \"#utility.yul\":2342:2344   */\n      0x20\n        /* \"#utility.yul\":2334:2340   */\n      dup3\n        /* \"#utility.yul\":2330:2345   */\n      add\n        /* \"#utility.yul\":2323:2367   */\n      mstore\n        /* \"#utility.yul\":2138:2374   */\n      pop\n      jump\t// out\n        /* \"#utility.yul\":2380:2746   */\n    tag_43:\n        /* \"#utility.yul\":2522:2525   */\n      0x00\n        /* \"#utility.yul\":2543:2610   */\n      tag_73\n        /* \"#utility.yul\":2607:2609   */\n      0x31\n        /* \"#utility.yul\":2602:2605   */\n      dup4\n        /* \"#utility.yul\":2543:2610   */\n      tag_41\n      jump\t// in\n    tag_73:\n        /* \"#utility.yul\":2536:2610   */\n      swap2\n      pop\n        /* \"#utility.yul\":2619:2712   */\n      tag_74\n        /* \"#utility.yul\":2708:2711   */\n      dup3\n        /* \"#utility.yul\":2619:2712   */\n      tag_42\n      jump\t// in\n    tag_74:\n        /* \"#utility.yul\":2737:2739   */\n      0x40\n        /* \"#utility.yul\":2732:2735   */\n      dup3\n        /* \"#utility.yul\":2728:2740   */\n      add\n        /* \"#utility.yul\":2721:2740   */\n      swap1\n      pop\n        /* \"#utility.yul\":2380:2746   */\n      swap2\n      swap1\n      pop\n      jump\t// out\n        /* \"#utility.yul\":2752:3171   */\n    tag_26:\n        /* \"#utility.yul\":2918:2922   */\n      0x00\n        /* \"#utility.yul\":2956:2958   */\n      0x20\n        /* \"#utility.yul\":2945:2954   */\n      dup3\n        /* \"#utility.yul\":2941:2959   */\n      add\n        /* \"#utility.yul\":2933:2959   */\n      swap1\n      pop\n        /* \"#utility.yul\":3005:3014   */\n      dup2\n        /* \"#utility.yul\":2999:3003   */\n      dup2\n        /* \"#utility.yul\":2995:3015   */\n      sub\n        /* \"#utility.yul\":2991:2992   */\n      0x00\n        /* \"#utility.yul\":2980:2989   */\n      dup4\n        /* \"#utility.yul\":2976:2993   */\n      add\n        /* \"#utility.yul\":2969:3016   */\n      mstore\n        /* \"#utility.yul\":3033:3164   */\n      tag_76\n        /* \"#utility.yul\":3159:3163   */\n      dup2\n        /* \"#utility.yul\":3033:3164   */\n      tag_43\n      jump\t// in\n    tag_76:\n        /* \"#utility.yul\":3025:3164   */\n      swap1\n      pop\n        /* \"#utility.yul\":2752:3171   */\n      swap2\n      swap1\n      pop\n      jump\t// out\n        /* \"#utility.yul\":3177:3357   */\n    tag_44:\n        /* \"#utility.yul\":3225:3302   */\n      0x4e487b7100000000000000000000000000000000000000000000000000000000\n        /* \"#utility.yul\":3222:3223   */\n      0x00\n        /* \"#utility.yul\":3215:3303   */\n      mstore\n        /* \"#utility.yul\":3322:3326   */\n      0x11\n        /* \"#utility.yul\":3319:3320   */\n      0x04\n        /* \"#utility.yul\":3312:3327   */\n      mstore\n        /* \"#utility.yul\":3346:3350   */\n      0x24\n        /* \"#utility.yul\":3343:3344   */\n      0x00\n        /* \"#utility.yul\":3336:3351   */\n      revert\n        /* \"#utility.yul\":3363:3554   */\n    tag_30:\n        /* \"#utility.yul\":3403:3406   */\n      0x00\n        /* \"#utility.yul\":3422:3442   */\n      tag_79\n        /* \"#utility.yul\":3440:3441   */\n      dup3\n        /* \"#utility.yul\":3422:3442   */\n      tag_39\n      jump\t// in\n    tag_79:\n        /* \"#utility.yul\":3417:3442   */\n      swap2\n      pop\n        /* \"#utility.yul\":3456:3476   */\n      tag_80\n        /* \"#utility.yul\":3474:3475   */\n      dup4\n        /* \"#utility.yul\":3456:3476   */\n      tag_39\n      jump\t// in\n    tag_80:\n        /* \"#utility.yul\":3451:3476   */\n      swap3\n      pop\n        /* \"#utility.yul\":3499:3500   */\n      dup3\n        /* \"#utility.yul\":3496:3497   */\n      dup3\n        /* \"#utility.yul\":3492:3501   */\n      add\n        /* \"#utility.yul\":3485:3501   */\n      swap1\n      pop\n        /* \"#utility.yul\":3520:3523   */\n      dup1\n        /* \"#utility.yul\":3517:3518   */\n      dup3\n        /* \"#utility.yul\":3514:3524   */\n      gt\n        /* \"#utility.yul\":3511:3547   */\n      iszero\n      tag_81\n      jumpi\n        /* \"#utility.yul\":3527:3545   */\n      tag_82\n      tag_44\n      jump\t// in\n    tag_82:\n        /* \"#utility.yul\":3511:3547   */\n    tag_81:\n        /* \"#utility.yul\":3363:3554   */\n      swap3\n      swap2\n      pop\n      pop\n      jump\t// out\n\n    auxdata: 0xa26469706673582212204c0bcea86527c77670a2b68381c46779b1a71a687c1bb9b0f7c7449a0fb8867d64736f6c63430008100033\n}\n",
				"bytecode": {
					"linkReferences": {},
					"object": "608060405234801561001057600080fd5b5033600160006101000a81548173ffffffffffffffffffffffffffffffffffffffff021916908373ffffffffffffffffffffffffffffffffffffffff1602179055506103d0806100616000396000f3fe60806040526004361061003f5760003560e01c80638da5cb5b14610044578063924c45bf1461006f578063a29e0a9414610098578063cd0a314b146100a2575b600080fd5b34801561005057600080fd5b506100596100cd565b60405161006691906101e7565b60405180910390f35b34801561007b57600080fd5b5061009660048036038101906100919190610233565b6100f3565b005b6100a0610186565b005b3480156100ae57600080fd5b506100b76101a0565b6040516100c49190610279565b60405180910390f35b600160009054906101000a900473ffffffffffffffffffffffffffffffffffffffff1681565b600160009054906101000a900473ffffffffffffffffffffffffffffffffffffffff1673ffffffffffffffffffffffffffffffffffffffff163373ffffffffffffffffffffffffffffffffffffffff1614610183576040517f08c379a000000000000000000000000000000000000000000000000000000000815260040161017a90610317565b60405180910390fd5b50565b346000808282546101979190610366565b92505081905550565b60005481565b600073ffffffffffffffffffffffffffffffffffffffff82169050919050565b60006101d1826101a6565b9050919050565b6101e1816101c6565b82525050565b60006020820190506101fc60008301846101d8565b92915050565b600080fd5b610210816101c6565b811461021b57600080fd5b50565b60008135905061022d81610207565b92915050565b60006020828403121561024957610248610202565b5b60006102578482850161021e565b91505092915050565b6000819050919050565b61027381610260565b82525050565b600060208201905061028e600083018461026a565b92915050565b600082825260208201905092915050565b7f596f7520617265206e6f7420616c6c6f776564202d206f6e6c7920746865206f60008201527f776e65722063616e20646f20746869732e000000000000000000000000000000602082015250565b6000610301603183610294565b915061030c826102a5565b604082019050919050565b60006020820190508181036000830152610330816102f4565b9050919050565b7f4e487b7100000000000000000000000000000000000000000000000000000000600052601160045260246000fd5b600061037182610260565b915061037c83610260565b925082820190508082111561039457610393610337565b5b9291505056fea26469706673582212204c0bcea86527c77670a2b68381c46779b1a71a687c1bb9b0f7c7449a0fb8867d64736f6c63430008100033",
					"opcodes": "PUSH1 0x80 PUSH1 0x40 MSTORE CALLVALUE DUP1 ISZERO PUSH2 0x10 JUMPI PUSH1 0x0 DUP1 REVERT JUMPDEST POP CALLER PUSH1 0x1 PUSH1 0x0 PUSH2 0x100 EXP DUP2 SLOAD DUP2 PUSH20 0xFFFFFFFFFFFFFFFFFFFFFFFFFFFFFFFFFFFFFFFF MUL NOT AND SWAP1 DUP4 PUSH20 0xFFFFFFFFFFFFFFFFFFFFFFFFFFFFFFFFFFFFFFFF AND MUL OR SWAP1 SSTORE POP PUSH2 0x3D0 DUP1 PUSH2 0x61 PUSH1 0x0 CODECOPY PUSH1 0x0 RETURN INVALID PUSH1 0x80 PUSH1 0x40 MSTORE PUSH1 0x4 CALLDATASIZE LT PUSH2 0x3F JUMPI PUSH1 0x0 CALLDATALOAD PUSH1 0xE0 SHR DUP1 PUSH4 0x8DA5CB5B EQ PUSH2 0x44 JUMPI DUP1 PUSH4 0x924C45BF EQ PUSH2 0x6F JUMPI DUP1 PUSH4 0xA29E0A94 EQ PUSH2 0x98 JUMPI DUP1 PUSH4 0xCD0A314B EQ PUSH2 0xA2 JUMPI JUMPDEST PUSH1 0x0 DUP1 REVERT JUMPDEST CALLVALUE DUP1 ISZERO PUSH2 0x50 JUMPI PUSH1 0x0 DUP1 REVERT JUMPDEST POP PUSH2 0x59 PUSH2 0xCD JUMP JUMPDEST PUSH1 0x40 MLOAD PUSH2 0x66 SWAP2 SWAP1 PUSH2 0x1E7 JUMP JUMPDEST PUSH1 0x40 MLOAD DUP1 SWAP2 SUB SWAP1 RETURN JUMPDEST CALLVALUE DUP1 ISZERO PUSH2 0x7B JUMPI PUSH1 0x0 DUP1 REVERT JUMPDEST POP PUSH2 0x96 PUSH1 0x4 DUP1 CALLDATASIZE SUB DUP2 ADD SWAP1 PUSH2 0x91 SWAP2 SWAP1 PUSH2 0x233 JUMP JUMPDEST PUSH2 0xF3 JUMP JUMPDEST STOP JUMPDEST PUSH2 0xA0 PUSH2 0x186 JUMP JUMPDEST STOP JUMPDEST CALLVALUE DUP1 ISZERO PUSH2 0xAE JUMPI PUSH1 0x0 DUP1 REVERT JUMPDEST POP PUSH2 0xB7 PUSH2 0x1A0 JUMP JUMPDEST PUSH1 0x40 MLOAD PUSH2 0xC4 SWAP2 SWAP1 PUSH2 0x279 JUMP JUMPDEST PUSH1 0x40 MLOAD DUP1 SWAP2 SUB SWAP1 RETURN JUMPDEST PUSH1 0x1 PUSH1 0x0 SWAP1 SLOAD SWAP1 PUSH2 0x100 EXP SWAP1 DIV PUSH20 0xFFFFFFFFFFFFFFFFFFFFFFFFFFFFFFFFFFFFFFFF AND DUP2 JUMP JUMPDEST PUSH1 0x1 PUSH1 0x0 SWAP1 SLOAD SWAP1 PUSH2 0x100 EXP SWAP1 DIV PUSH20 0xFFFFFFFFFFFFFFFFFFFFFFFFFFFFFFFFFFFFFFFF AND PUSH20 0xFFFFFFFFFFFFFFFFFFFFFFFFFFFFFFFFFFFFFFFF AND CALLER PUSH20 0xFFFFFFFFFFFFFFFFFFFFFFFFFFFFFFFFFFFFFFFF AND EQ PUSH2 0x183 JUMPI PUSH1 0x40 MLOAD PUSH32 0x8C379A000000000000000000000000000000000000000000000000000000000 DUP2 MSTORE PUSH1 0x4 ADD PUSH2 0x17A SWAP1 PUSH2 0x317 JUMP JUMPDEST PUSH1 0x40 MLOAD DUP1 SWAP2 SUB SWAP1 REVERT JUMPDEST POP JUMP JUMPDEST CALLVALUE PUSH1 0x0 DUP1 DUP3 DUP3 SLOAD PUSH2 0x197 SWAP2 SWAP1 PUSH2 0x366 JUMP JUMPDEST SWAP3 POP POP DUP2 SWAP1 SSTORE POP JUMP JUMPDEST PUSH1 0x0 SLOAD DUP2 JUMP JUMPDEST PUSH1 0x0 PUSH20 0xFFFFFFFFFFFFFFFFFFFFFFFFFFFFFFFFFFFFFFFF DUP3 AND SWAP1 POP SWAP2 SWAP1 POP JUMP JUMPDEST PUSH1 0x0 PUSH2 0x1D1 DUP3 PUSH2 0x1A6 JUMP JUMPDEST SWAP1 POP SWAP2 SWAP1 POP JUMP JUMPDEST PUSH2 0x1E1 DUP2 PUSH2 0x1C6 JUMP JUMPDEST DUP3 MSTORE POP POP JUMP JUMPDEST PUSH1 0x0 PUSH1 0x20 DUP3 ADD SWAP1 POP PUSH2 0x1FC PUSH1 0x0 DUP4 ADD DUP5 PUSH2 0x1D8 JUMP JUMPDEST SWAP3 SWAP2 POP POP JUMP JUMPDEST PUSH1 0x0 DUP1 REVERT JUMPDEST PUSH2 0x210 DUP2 PUSH2 0x1C6 JUMP JUMPDEST DUP2 EQ PUSH2 0x21B JUMPI PUSH1 0x0 DUP1 REVERT JUMPDEST POP JUMP JUMPDEST PUSH1 0x0 DUP2 CALLDATALOAD SWAP1 POP PUSH2 0x22D DUP2 PUSH2 0x207 JUMP JUMPDEST SWAP3 SWAP2 POP POP JUMP JUMPDEST PUSH1 0x0 PUSH1 0x20 DUP3 DUP5 SUB SLT ISZERO PUSH2 0x249 JUMPI PUSH2 0x248 PUSH2 0x202 JUMP JUMPDEST JUMPDEST PUSH1 0x0 PUSH2 0x257 DUP5 DUP3 DUP6 ADD PUSH2 0x21E JUMP JUMPDEST SWAP2 POP POP SWAP3 SWAP2 POP POP JUMP JUMPDEST PUSH1 0x0 DUP2 SWAP1 POP SWAP2 SWAP1 POP JUMP JUMPDEST PUSH2 0x273 DUP2 PUSH2 0x260 JUMP JUMPDEST DUP3 MSTORE POP POP JUMP JUMPDEST PUSH1 0x0 PUSH1 0x20 DUP3 ADD SWAP1 POP PUSH2 0x28E PUSH1 0x0 DUP4 ADD DUP5 PUSH2 0x26A JUMP JUMPDEST SWAP3 SWAP2 POP POP JUMP JUMPDEST PUSH1 0x0 DUP3 DUP3 MSTORE PUSH1 0x20 DUP3 ADD SWAP1 POP SWAP3 SWAP2 POP POP JUMP JUMPDEST PUSH32 0x596F7520617265206E6F7420616C6C6F776564202D206F6E6C7920746865206F PUSH1 0x0 DUP3 ADD MSTORE PUSH32 0x776E65722063616E20646F20746869732E000000000000000000000000000000 PUSH1 0x20 DUP3 ADD MSTORE POP JUMP JUMPDEST PUSH1 0x0 PUSH2 0x301 PUSH1 0x31 DUP4 PUSH2 0x294 JUMP JUMPDEST SWAP2 POP PUSH2 0x30C DUP3 PUSH2 0x2A5 JUMP JUMPDEST PUSH1 0x40 DUP3 ADD SWAP1 POP SWAP2 SWAP1 POP JUMP JUMPDEST PUSH1 0x0 PUSH1 0x20 DUP3 ADD SWAP1 POP DUP2 DUP2 SUB PUSH1 0x0 DUP4 ADD MSTORE PUSH2 0x330 DUP2 PUSH2 0x2F4 JUMP JUMPDEST SWAP1 POP SWAP2 SWAP1 POP JUMP JUMPDEST PUSH32 0x4E487B7100000000000000000000000000000000000000000000000000000000 PUSH1 0x0 MSTORE PUSH1 0x11 PUSH1 0x4 MSTORE PUSH1 0x24 PUSH1 0x0 REVERT JUMPDEST PUSH1 0x0 PUSH2 0x371 DUP3 PUSH2 0x260 JUMP JUMPDEST SWAP2 POP PUSH2 0x37C DUP4 PUSH2 0x260 JUMP JUMPDEST SWAP3 POP DUP3 DUP3 ADD SWAP1 POP DUP1 DUP3 GT ISZERO PUSH2 0x394 JUMPI PUSH2 0x393 PUSH2 0x337 JUMP JUMPDEST JUMPDEST SWAP3 SWAP2 POP POP JUMP INVALID LOG2 PUSH5 0x6970667358 0x22 SLT KECCAK256 0x4C SIGNEXTEND 0xCE 0xA8 PUSH6 0x27C77670A2B6 DUP4 DUP2 0xC4 PUSH8 0x79B1A71A687C1BB9 0xB0 0xF7 0xC7 DIFFICULTY SWAP11 0xF 0xB8 DUP7 PUSH30 0x64736F6C6343000810003300000000000000000000000000000000000000 "
				},
				"gasEstimates": {
					"creation": {
						"codeDepositCost": "195200",
						"executionCost": "24504",
						"totalCost": "219704"
					},
					"external": {
						"ReceiveMoney()": "infinite",
						"SetAllowance(address)": "2930",
						"owner()": "2492",
						"walletBalance()": "2473"
					}
				},
				"methodIdentifiers": {
					"ReceiveMoney()": "a29e0a94",
					"SetAllowance(address)": "924c45bf",
					"owner()": "8da5cb5b",
					"walletBalance()": "cd0a314b"
				}
			},
			"storageLayout": {
				"storage": [
					{
						"astId": 3,
						"contract": "MyProjectSharedWallet.sol:SharedWallet",
						"label": "walletBalance",
						"offset": 0,
						"slot": "0",
						"type": "t_uint256"
					},
					{
						"astId": 5,
						"contract": "MyProjectSharedWallet.sol:SharedWallet",
						"label": "owner",
						"offset": 0,
						"slot": "1",
						"type": "t_address"
					}
				],
				"types": {
					"t_address": {
						"encoding": "inplace",
						"label": "address",
						"numberOfBytes": "20"
					},
					"t_uint256": {
						"encoding": "inplace",
						"label": "uint256",
						"numberOfBytes": "32"
					}
				}
			},
			"userdoc": {
				"kind": "user",
				"methods": {},
				"version": 1
			}
		}
	}
}