{
	"MyProjectSharedWallet.sol": {
		"SharedWallet": {
			"abi": [
				{
					"anonymous": false,
					"inputs": [
						{
							"indexed": true,
							"internalType": "address",
							"name": "_forWho",
							"type": "address"
						},
						{
							"indexed": true,
							"internalType": "address",
							"name": "_byWhom",
							"type": "address"
						},
						{
							"indexed": false,
							"internalType": "uint256",
							"name": "_sentAmount",
							"type": "uint256"
						}
					],
					"name": "ClaimEvent",
					"type": "event"
				},
				{
					"anonymous": false,
					"inputs": [
						{
							"indexed": true,
							"internalType": "address",
							"name": "previousOwner",
							"type": "address"
						},
						{
							"indexed": true,
							"internalType": "address",
							"name": "newOwner",
							"type": "address"
						}
					],
					"name": "OwnershipTransferred",
					"type": "event"
				},
				{
					"inputs": [
						{
							"internalType": "address payable",
							"name": "_to",
							"type": "address"
						},
						{
							"internalType": "uint256",
							"name": "_amount",
							"type": "uint256"
						}
					],
					"name": "ClaimMoney",
					"outputs": [],
					"stateMutability": "nonpayable",
					"type": "function"
				},
				{
					"inputs": [],
					"name": "SendMoney",
					"outputs": [],
					"stateMutability": "payable",
					"type": "function"
				},
				{
					"inputs": [
						{
							"internalType": "address",
							"name": "_user",
							"type": "address"
						},
						{
							"internalType": "uint256",
							"name": "_allowancePercentage",
							"type": "uint256"
						}
					],
					"name": "SetAllowance",
					"outputs": [],
					"stateMutability": "nonpayable",
					"type": "function"
				},
				{
					"inputs": [],
					"name": "contractBalance",
					"outputs": [
						{
							"internalType": "uint256",
							"name": "",
							"type": "uint256"
						}
					],
					"stateMutability": "view",
					"type": "function"
				},
				{
					"inputs": [],
					"name": "owner",
					"outputs": [
						{
							"internalType": "address",
							"name": "",
							"type": "address"
						}
					],
					"stateMutability": "view",
					"type": "function"
				},
				{
					"inputs": [
						{
							"internalType": "address payable",
							"name": "_to",
							"type": "address"
						},
						{
							"internalType": "uint256",
							"name": "_amount",
							"type": "uint256"
						}
					],
					"name": "ownerWithdraw",
					"outputs": [],
					"stateMutability": "nonpayable",
					"type": "function"
				},
				{
					"inputs": [],
					"name": "renounceOwnership",
					"outputs": [],
					"stateMutability": "nonpayable",
					"type": "function"
				},
				{
					"inputs": [],
					"name": "totalAllowances",
					"outputs": [
						{
							"internalType": "uint256",
							"name": "",
							"type": "uint256"
						}
					],
					"stateMutability": "view",
					"type": "function"
				},
				{
					"inputs": [],
					"name": "totalClaims",
					"outputs": [
						{
							"internalType": "uint256",
							"name": "",
							"type": "uint256"
						}
					],
					"stateMutability": "view",
					"type": "function"
				},
				{
					"inputs": [
						{
							"internalType": "address",
							"name": "newOwner",
							"type": "address"
						}
					],
					"name": "transferOwnership",
					"outputs": [],
					"stateMutability": "nonpayable",
					"type": "function"
				},
				{
					"inputs": [
						{
							"internalType": "address",
							"name": "",
							"type": "address"
						}
					],
					"name": "users",
					"outputs": [
						{
							"internalType": "uint256",
							"name": "allowance",
							"type": "uint256"
						},
						{
							"internalType": "uint256",
							"name": "claimsMade",
							"type": "uint256"
						}
					],
					"stateMutability": "view",
					"type": "function"
				},
				{
					"stateMutability": "payable",
					"type": "receive"
				}
			],
			"devdoc": {
				"kind": "dev",
				"methods": {
					"owner()": {
						"details": "Returns the address of the current owner."
					},
					"renounceOwnership()": {
						"details": "Leaves the contract without owner. It will not be possible to call `onlyOwner` functions anymore. Can only be called by the current owner. NOTE: Renouncing ownership will leave the contract without an owner, thereby removing any functionality that is only available to the owner."
					},
					"transferOwnership(address)": {
						"details": "Transfers ownership of the contract to a new account (`newOwner`). Can only be called by the current owner."
					}
				},
				"version": 1
			},
			"evm": {
				"assembly": "    /* \"MyProjectSharedWallet.sol\":262:3253  contract SharedWallet is Ownable {... */\n  mstore(0x40, 0x80)\n  callvalue\n  dup1\n  iszero\n  tag_1\n  jumpi\n  0x00\n  dup1\n  revert\ntag_1:\n  pop\n    /* \"https://github.com/OpenZeppelin/openzeppelin-contracts/blob/master/contracts/access/Ownable.sol\":936:968  _transferOwnership(_msgSender()) */\n  tag_4\n    /* \"https://github.com/OpenZeppelin/openzeppelin-contracts/blob/master/contracts/access/Ownable.sol\":955:967  _msgSender() */\n  tag_5\n    /* \"https://github.com/OpenZeppelin/openzeppelin-contracts/blob/master/contracts/access/Ownable.sol\":955:965  _msgSender */\n  shl(0x20, tag_6)\n    /* \"https://github.com/OpenZeppelin/openzeppelin-contracts/blob/master/contracts/access/Ownable.sol\":955:967  _msgSender() */\n  0x20\n  shr\n  jump\t// in\ntag_5:\n    /* \"https://github.com/OpenZeppelin/openzeppelin-contracts/blob/master/contracts/access/Ownable.sol\":936:954  _transferOwnership */\n  shl(0x20, tag_7)\n    /* \"https://github.com/OpenZeppelin/openzeppelin-contracts/blob/master/contracts/access/Ownable.sol\":936:968  _transferOwnership(_msgSender()) */\n  0x20\n  shr\n  jump\t// in\ntag_4:\n    /* \"MyProjectSharedWallet.sol\":262:3253  contract SharedWallet is Ownable {... */\n  jump(tag_8)\n    /* \"https://github.com/OpenZeppelin/openzeppelin-contracts/blob/master/contracts/utils/Context.sol\":640:736  function _msgSender() internal view virtual returns (address) {... */\ntag_6:\n    /* \"https://github.com/OpenZeppelin/openzeppelin-contracts/blob/master/contracts/utils/Context.sol\":693:700  address */\n  0x00\n    /* \"https://github.com/OpenZeppelin/openzeppelin-contracts/blob/master/contracts/utils/Context.sol\":719:729  msg.sender */\n  caller\n    /* \"https://github.com/OpenZeppelin/openzeppelin-contracts/blob/master/contracts/utils/Context.sol\":712:729  return msg.sender */\n  swap1\n  pop\n    /* \"https://github.com/OpenZeppelin/openzeppelin-contracts/blob/master/contracts/utils/Context.sol\":640:736  function _msgSender() internal view virtual returns (address) {... */\n  swap1\n  jump\t// out\n    /* \"https://github.com/OpenZeppelin/openzeppelin-contracts/blob/master/contracts/access/Ownable.sol\":2433:2620  function _transferOwnership(address newOwner) internal virtual {... */\ntag_7:\n    /* \"https://github.com/OpenZeppelin/openzeppelin-contracts/blob/master/contracts/access/Ownable.sol\":2506:2522  address oldOwner */\n  0x00\n    /* \"https://github.com/OpenZeppelin/openzeppelin-contracts/blob/master/contracts/access/Ownable.sol\":2525:2531  _owner */\n  dup1\n  0x00\n  swap1\n  sload\n  swap1\n  0x0100\n  exp\n  swap1\n  div\n  0xffffffffffffffffffffffffffffffffffffffff\n  and\n    /* \"https://github.com/OpenZeppelin/openzeppelin-contracts/blob/master/contracts/access/Ownable.sol\":2506:2531  address oldOwner = _owner */\n  swap1\n  pop\n    /* \"https://github.com/OpenZeppelin/openzeppelin-contracts/blob/master/contracts/access/Ownable.sol\":2550:2558  newOwner */\n  dup2\n    /* \"https://github.com/OpenZeppelin/openzeppelin-contracts/blob/master/contracts/access/Ownable.sol\":2541:2547  _owner */\n  0x00\n  dup1\n    /* \"https://github.com/OpenZeppelin/openzeppelin-contracts/blob/master/contracts/access/Ownable.sol\":2541:2558  _owner = newOwner */\n  0x0100\n  exp\n  dup2\n  sload\n  dup2\n  0xffffffffffffffffffffffffffffffffffffffff\n  mul\n  not\n  and\n  swap1\n  dup4\n  0xffffffffffffffffffffffffffffffffffffffff\n  and\n  mul\n  or\n  swap1\n  sstore\n  pop\n    /* \"https://github.com/OpenZeppelin/openzeppelin-contracts/blob/master/contracts/access/Ownable.sol\":2604:2612  newOwner */\n  dup2\n    /* \"https://github.com/OpenZeppelin/openzeppelin-contracts/blob/master/contracts/access/Ownable.sol\":2573:2613  OwnershipTransferred(oldOwner, newOwner) */\n  0xffffffffffffffffffffffffffffffffffffffff\n  and\n    /* \"https://github.com/OpenZeppelin/openzeppelin-contracts/blob/master/contracts/access/Ownable.sol\":2594:2602  oldOwner */\n  dup2\n    /* \"https://github.com/OpenZeppelin/openzeppelin-contracts/blob/master/contracts/access/Ownable.sol\":2573:2613  OwnershipTransferred(oldOwner, newOwner) */\n  0xffffffffffffffffffffffffffffffffffffffff\n  and\n  0x8be0079c531659141344cd1fd0a4f28419497f9722a3daafe3b4186f6b6457e0\n  mload(0x40)\n  mload(0x40)\n  dup1\n  swap2\n  sub\n  swap1\n  log3\n    /* \"https://github.com/OpenZeppelin/openzeppelin-contracts/blob/master/contracts/access/Ownable.sol\":2496:2620  {... */\n  pop\n    /* \"https://github.com/OpenZeppelin/openzeppelin-contracts/blob/master/contracts/access/Ownable.sol\":2433:2620  function _transferOwnership(address newOwner) internal virtual {... */\n  pop\n  jump\t// out\n    /* \"MyProjectSharedWallet.sol\":262:3253  contract SharedWallet is Ownable {... */\ntag_8:\n  dataSize(sub_0)\n  dup1\n  dataOffset(sub_0)\n  0x00\n  codecopy\n  0x00\n  return\nstop\n\nsub_0: assembly {\n        /* \"MyProjectSharedWallet.sol\":262:3253  contract SharedWallet is Ownable {... */\n      mstore(0x40, 0x80)\n      jumpi(tag_1, lt(calldatasize, 0x04))\n      shr(0xe0, calldataload(0x00))\n      dup1\n      0x715018a6\n      gt\n      tag_14\n      jumpi\n      dup1\n      0x715018a6\n      eq\n      tag_8\n      jumpi\n      dup1\n      0x8b7afe2e\n      eq\n      tag_9\n      jumpi\n      dup1\n      0x8da5cb5b\n      eq\n      tag_10\n      jumpi\n      dup1\n      0xa87430ba\n      eq\n      tag_11\n      jumpi\n      dup1\n      0xd9c88e14\n      eq\n      tag_12\n      jumpi\n      dup1\n      0xf2fde38b\n      eq\n      tag_13\n      jumpi\n      jump(tag_2)\n    tag_14:\n      dup1\n      0x05737314\n      eq\n      tag_3\n      jumpi\n      dup1\n      0x16a51305\n      eq\n      tag_4\n      jumpi\n      dup1\n      0x2d70db2f\n      eq\n      tag_5\n      jumpi\n      dup1\n      0x3e7279a3\n      eq\n      tag_6\n      jumpi\n      dup1\n      0x41c61383\n      eq\n      tag_7\n      jumpi\n      jump(tag_2)\n    tag_1:\n      jumpi(tag_2, calldatasize)\n        /* \"MyProjectSharedWallet.sol\":1006:1017  SendMoney() */\n      tag_17\n        /* \"MyProjectSharedWallet.sol\":1006:1015  SendMoney */\n      tag_18\n        /* \"MyProjectSharedWallet.sol\":1006:1017  SendMoney() */\n      jump\t// in\n    tag_17:\n        /* \"MyProjectSharedWallet.sol\":262:3253  contract SharedWallet is Ownable {... */\n      stop\n    tag_2:\n      0x00\n      dup1\n      revert\n        /* \"MyProjectSharedWallet.sol\":1062:1154  function SendMoney() public payable {... */\n    tag_3:\n      tag_19\n      tag_18\n      jump\t// in\n    tag_19:\n      stop\n        /* \"MyProjectSharedWallet.sol\":512:539  uint public totalAllowances */\n    tag_4:\n      callvalue\n      dup1\n      iszero\n      tag_20\n      jumpi\n      0x00\n      dup1\n      revert\n    tag_20:\n      pop\n      tag_21\n      tag_22\n      jump\t// in\n    tag_21:\n      mload(0x40)\n      tag_23\n      swap2\n      swap1\n      tag_24\n      jump\t// in\n    tag_23:\n      mload(0x40)\n      dup1\n      swap2\n      sub\n      swap1\n      return\n        /* \"MyProjectSharedWallet.sol\":1245:2166  function ClaimMoney(address payable _to, uint _amount) public {... */\n    tag_5:\n      callvalue\n      dup1\n      iszero\n      tag_25\n      jumpi\n      0x00\n      dup1\n      revert\n    tag_25:\n      pop\n      tag_26\n      0x04\n      dup1\n      calldatasize\n      sub\n      dup2\n      add\n      swap1\n      tag_27\n      swap2\n      swap1\n      tag_28\n      jump\t// in\n    tag_27:\n      tag_29\n      jump\t// in\n    tag_26:\n      stop\n        /* \"MyProjectSharedWallet.sol\":2216:2681  function SetAllowance(address _user, uint _allowancePercentage) public onlyOwner {... */\n    tag_6:\n      callvalue\n      dup1\n      iszero\n      tag_30\n      jumpi\n      0x00\n      dup1\n      revert\n    tag_30:\n      pop\n      tag_31\n      0x04\n      dup1\n      calldatasize\n      sub\n      dup2\n      add\n      swap1\n      tag_32\n      swap2\n      swap1\n      tag_33\n      jump\t// in\n    tag_32:\n      tag_34\n      jump\t// in\n    tag_31:\n      stop\n        /* \"MyProjectSharedWallet.sol\":584:607  uint public totalClaims */\n    tag_7:\n      callvalue\n      dup1\n      iszero\n      tag_35\n      jumpi\n      0x00\n      dup1\n      revert\n    tag_35:\n      pop\n      tag_36\n      tag_37\n      jump\t// in\n    tag_36:\n      mload(0x40)\n      tag_38\n      swap2\n      swap1\n      tag_24\n      jump\t// in\n    tag_38:\n      mload(0x40)\n      dup1\n      swap2\n      sub\n      swap1\n      return\n        /* \"MyProjectSharedWallet.sol\":3100:3250  function renounceOwnership() public override onlyOwner {... */\n    tag_8:\n      callvalue\n      dup1\n      iszero\n      tag_39\n      jumpi\n      0x00\n      dup1\n      revert\n    tag_39:\n      pop\n      tag_40\n      tag_41\n      jump\t// in\n    tag_40:\n      stop\n        /* \"MyProjectSharedWallet.sol\":644:671  uint public contractBalance */\n    tag_9:\n      callvalue\n      dup1\n      iszero\n      tag_42\n      jumpi\n      0x00\n      dup1\n      revert\n    tag_42:\n      pop\n      tag_43\n      tag_44\n      jump\t// in\n    tag_43:\n      mload(0x40)\n      tag_45\n      swap2\n      swap1\n      tag_24\n      jump\t// in\n    tag_45:\n      mload(0x40)\n      dup1\n      swap2\n      sub\n      swap1\n      return\n        /* \"https://github.com/OpenZeppelin/openzeppelin-contracts/blob/master/contracts/access/Ownable.sol\":1201:1286  function owner() public view virtual returns (address) {... */\n    tag_10:\n      callvalue\n      dup1\n      iszero\n      tag_46\n      jumpi\n      0x00\n      dup1\n      revert\n    tag_46:\n      pop\n      tag_47\n      tag_48\n      jump\t// in\n    tag_47:\n      mload(0x40)\n      tag_49\n      swap2\n      swap1\n      tag_50\n      jump\t// in\n    tag_49:\n      mload(0x40)\n      dup1\n      swap2\n      sub\n      swap1\n      return\n        /* \"MyProjectSharedWallet.sol\":421:465  mapping(address => UserDetails) public users */\n    tag_11:\n      callvalue\n      dup1\n      iszero\n      tag_51\n      jumpi\n      0x00\n      dup1\n      revert\n    tag_51:\n      pop\n      tag_52\n      0x04\n      dup1\n      calldatasize\n      sub\n      dup2\n      add\n      swap1\n      tag_53\n      swap2\n      swap1\n      tag_54\n      jump\t// in\n    tag_53:\n      tag_55\n      jump\t// in\n    tag_52:\n      mload(0x40)\n      tag_56\n      swap3\n      swap2\n      swap1\n      tag_57\n      jump\t// in\n    tag_56:\n      mload(0x40)\n      dup1\n      swap2\n      sub\n      swap1\n      return\n        /* \"MyProjectSharedWallet.sol\":2732:2996  function ownerWithdraw(address payable _to, uint _amount) public onlyOwner {... */\n    tag_12:\n      callvalue\n      dup1\n      iszero\n      tag_58\n      jumpi\n      0x00\n      dup1\n      revert\n    tag_58:\n      pop\n      tag_59\n      0x04\n      dup1\n      calldatasize\n      sub\n      dup2\n      add\n      swap1\n      tag_60\n      swap2\n      swap1\n      tag_28\n      jump\t// in\n    tag_60:\n      tag_61\n      jump\t// in\n    tag_59:\n      stop\n        /* \"https://github.com/OpenZeppelin/openzeppelin-contracts/blob/master/contracts/access/Ownable.sol\":2081:2279  function transferOwnership(address newOwner) public virtual onlyOwner {... */\n    tag_13:\n      callvalue\n      dup1\n      iszero\n      tag_62\n      jumpi\n      0x00\n      dup1\n      revert\n    tag_62:\n      pop\n      tag_63\n      0x04\n      dup1\n      calldatasize\n      sub\n      dup2\n      add\n      swap1\n      tag_64\n      swap2\n      swap1\n      tag_54\n      jump\t// in\n    tag_64:\n      tag_65\n      jump\t// in\n    tag_63:\n      stop\n        /* \"MyProjectSharedWallet.sol\":1062:1154  function SendMoney() public payable {... */\n    tag_18:\n        /* \"MyProjectSharedWallet.sol\":1126:1147  address(this).balance */\n      selfbalance\n        /* \"MyProjectSharedWallet.sol\":1108:1123  contractBalance */\n      0x04\n        /* \"MyProjectSharedWallet.sol\":1108:1147  contractBalance = address(this).balance */\n      dup2\n      swap1\n      sstore\n      pop\n        /* \"MyProjectSharedWallet.sol\":1062:1154  function SendMoney() public payable {... */\n      jump\t// out\n        /* \"MyProjectSharedWallet.sol\":512:539  uint public totalAllowances */\n    tag_22:\n      sload(0x02)\n      dup2\n      jump\t// out\n        /* \"MyProjectSharedWallet.sol\":1245:2166  function ClaimMoney(address payable _to, uint _amount) public {... */\n    tag_29:\n        /* \"MyProjectSharedWallet.sol\":1326:1335  isOwner() */\n      tag_68\n        /* \"MyProjectSharedWallet.sol\":1326:1333  isOwner */\n      tag_69\n        /* \"MyProjectSharedWallet.sol\":1326:1335  isOwner() */\n      jump\t// in\n    tag_68:\n        /* \"MyProjectSharedWallet.sol\":1325:1335  !isOwner() */\n      iszero\n        /* \"MyProjectSharedWallet.sol\":1317:1383  require(!isOwner(), \"The owner should use ownerWithdraw function\") */\n      tag_70\n      jumpi\n      mload(0x40)\n      0x08c379a000000000000000000000000000000000000000000000000000000000\n      dup2\n      mstore\n      0x04\n      add\n      tag_71\n      swap1\n      tag_72\n      jump\t// in\n    tag_71:\n      mload(0x40)\n      dup1\n      swap2\n      sub\n      swap1\n      revert\n    tag_70:\n        /* \"MyProjectSharedWallet.sol\":1425:1426  0 */\n      0x00\n        /* \"MyProjectSharedWallet.sol\":1401:1422  address(this).balance */\n      selfbalance\n        /* \"MyProjectSharedWallet.sol\":1401:1426  address(this).balance > 0 */\n      gt\n        /* \"MyProjectSharedWallet.sol\":1393:1471  require(address(this).balance > 0, \"There is no money in the wallet to claim\") */\n      tag_73\n      jumpi\n      mload(0x40)\n      0x08c379a000000000000000000000000000000000000000000000000000000000\n      dup2\n      mstore\n      0x04\n      add\n      tag_74\n      swap1\n      tag_75\n      jump\t// in\n    tag_74:\n      mload(0x40)\n      dup1\n      swap2\n      sub\n      swap1\n      revert\n    tag_73:\n        /* \"MyProjectSharedWallet.sol\":1519:1520  0 */\n      0x00\n        /* \"MyProjectSharedWallet.sol\":1489:1494  users */\n      0x01\n        /* \"MyProjectSharedWallet.sol\":1489:1506  users[msg.sender] */\n      0x00\n        /* \"MyProjectSharedWallet.sol\":1495:1505  msg.sender */\n      caller\n        /* \"MyProjectSharedWallet.sol\":1489:1506  users[msg.sender] */\n      0xffffffffffffffffffffffffffffffffffffffff\n      and\n      0xffffffffffffffffffffffffffffffffffffffff\n      and\n      dup2\n      mstore\n      0x20\n      add\n      swap1\n      dup2\n      mstore\n      0x20\n      add\n      0x00\n      keccak256\n        /* \"MyProjectSharedWallet.sol\":1489:1516  users[msg.sender].allowance */\n      0x00\n      add\n      sload\n        /* \"MyProjectSharedWallet.sol\":1489:1520  users[msg.sender].allowance > 0 */\n      gt\n        /* \"MyProjectSharedWallet.sol\":1481:1553  require(users[msg.sender].allowance > 0,\"You do not have any allowance\") */\n      tag_76\n      jumpi\n      mload(0x40)\n      0x08c379a000000000000000000000000000000000000000000000000000000000\n      dup2\n      mstore\n      0x04\n      add\n      tag_77\n      swap1\n      tag_78\n      jump\t// in\n    tag_77:\n      mload(0x40)\n      dup1\n      swap2\n      sub\n      swap1\n      revert\n    tag_76:\n        /* \"MyProjectSharedWallet.sol\":1563:1581  uint fullAllowance */\n      0x00\n        /* \"MyProjectSharedWallet.sol\":1652:1655  100 */\n      0x64\n        /* \"MyProjectSharedWallet.sol\":1639:1650  totalClaims */\n      sload(0x03)\n        /* \"MyProjectSharedWallet.sol\":1615:1636  address(this).balance */\n      selfbalance\n        /* \"MyProjectSharedWallet.sol\":1615:1650  address(this).balance + totalClaims */\n      tag_79\n      swap2\n      swap1\n      tag_80\n      jump\t// in\n    tag_79:\n        /* \"MyProjectSharedWallet.sol\":1584:1589  users */\n      0x01\n        /* \"MyProjectSharedWallet.sol\":1584:1601  users[msg.sender] */\n      0x00\n        /* \"MyProjectSharedWallet.sol\":1590:1600  msg.sender */\n      caller\n        /* \"MyProjectSharedWallet.sol\":1584:1601  users[msg.sender] */\n      0xffffffffffffffffffffffffffffffffffffffff\n      and\n      0xffffffffffffffffffffffffffffffffffffffff\n      and\n      dup2\n      mstore\n      0x20\n      add\n      swap1\n      dup2\n      mstore\n      0x20\n      add\n      0x00\n      keccak256\n        /* \"MyProjectSharedWallet.sol\":1584:1611  users[msg.sender].allowance */\n      0x00\n      add\n      sload\n        /* \"MyProjectSharedWallet.sol\":1584:1651  users[msg.sender].allowance * (address(this).balance + totalClaims) */\n      tag_81\n      swap2\n      swap1\n      tag_82\n      jump\t// in\n    tag_81:\n        /* \"MyProjectSharedWallet.sol\":1584:1655  users[msg.sender].allowance * (address(this).balance + totalClaims)/100 */\n      tag_83\n      swap2\n      swap1\n      tag_84\n      jump\t// in\n    tag_83:\n        /* \"MyProjectSharedWallet.sol\":1563:1655  uint fullAllowance = users[msg.sender].allowance * (address(this).balance + totalClaims)/100 */\n      swap1\n      pop\n        /* \"MyProjectSharedWallet.sol\":1665:1688  uint allowanceRemaining */\n      0x00\n        /* \"MyProjectSharedWallet.sol\":1744:1749  users */\n      0x01\n        /* \"MyProjectSharedWallet.sol\":1744:1761  users[msg.sender] */\n      0x00\n        /* \"MyProjectSharedWallet.sol\":1750:1760  msg.sender */\n      caller\n        /* \"MyProjectSharedWallet.sol\":1744:1761  users[msg.sender] */\n      0xffffffffffffffffffffffffffffffffffffffff\n      and\n      0xffffffffffffffffffffffffffffffffffffffff\n      and\n      dup2\n      mstore\n      0x20\n      add\n      swap1\n      dup2\n      mstore\n      0x20\n      add\n      0x00\n      keccak256\n        /* \"MyProjectSharedWallet.sol\":1744:1772  users[msg.sender].claimsMade */\n      0x01\n      add\n      sload\n        /* \"MyProjectSharedWallet.sol\":1728:1741  fullAllowance */\n      dup3\n        /* \"MyProjectSharedWallet.sol\":1728:1772  fullAllowance > users[msg.sender].claimsMade */\n      gt\n        /* \"MyProjectSharedWallet.sol\":1724:1864  if (fullAllowance > users[msg.sender].claimsMade) {... */\n      iszero\n      tag_85\n      jumpi\n        /* \"MyProjectSharedWallet.sol\":1825:1830  users */\n      0x01\n        /* \"MyProjectSharedWallet.sol\":1825:1842  users[msg.sender] */\n      0x00\n        /* \"MyProjectSharedWallet.sol\":1831:1841  msg.sender */\n      caller\n        /* \"MyProjectSharedWallet.sol\":1825:1842  users[msg.sender] */\n      0xffffffffffffffffffffffffffffffffffffffff\n      and\n      0xffffffffffffffffffffffffffffffffffffffff\n      and\n      dup2\n      mstore\n      0x20\n      add\n      swap1\n      dup2\n      mstore\n      0x20\n      add\n      0x00\n      keccak256\n        /* \"MyProjectSharedWallet.sol\":1825:1853  users[msg.sender].claimsMade */\n      0x01\n      add\n      sload\n        /* \"MyProjectSharedWallet.sol\":1809:1822  fullAllowance */\n      dup3\n        /* \"MyProjectSharedWallet.sol\":1809:1853  fullAllowance - users[msg.sender].claimsMade */\n      tag_86\n      swap2\n      swap1\n      tag_87\n      jump\t// in\n    tag_86:\n        /* \"MyProjectSharedWallet.sol\":1788:1853  allowanceRemaining = fullAllowance - users[msg.sender].claimsMade */\n      swap1\n      pop\n        /* \"MyProjectSharedWallet.sol\":1724:1864  if (fullAllowance > users[msg.sender].claimsMade) {... */\n    tag_85:\n        /* \"MyProjectSharedWallet.sol\":1892:1910  allowanceRemaining */\n      dup1\n        /* \"MyProjectSharedWallet.sol\":1881:1888  _amount */\n      dup4\n        /* \"MyProjectSharedWallet.sol\":1881:1910  _amount <= allowanceRemaining */\n      gt\n      iszero\n        /* \"MyProjectSharedWallet.sol\":1873:1937  require(_amount <= allowanceRemaining, \"The amount is too high\") */\n      tag_88\n      jumpi\n      mload(0x40)\n      0x08c379a000000000000000000000000000000000000000000000000000000000\n      dup2\n      mstore\n      0x04\n      add\n      tag_89\n      swap1\n      tag_90\n      jump\t// in\n    tag_89:\n      mload(0x40)\n      dup1\n      swap2\n      sub\n      swap1\n      revert\n    tag_88:\n        /* \"MyProjectSharedWallet.sol\":1979:1986  _amount */\n      dup3\n        /* \"MyProjectSharedWallet.sol\":1947:1952  users */\n      0x01\n        /* \"MyProjectSharedWallet.sol\":1947:1964  users[msg.sender] */\n      0x00\n        /* \"MyProjectSharedWallet.sol\":1953:1963  msg.sender */\n      caller\n        /* \"MyProjectSharedWallet.sol\":1947:1964  users[msg.sender] */\n      0xffffffffffffffffffffffffffffffffffffffff\n      and\n      0xffffffffffffffffffffffffffffffffffffffff\n      and\n      dup2\n      mstore\n      0x20\n      add\n      swap1\n      dup2\n      mstore\n      0x20\n      add\n      0x00\n      keccak256\n        /* \"MyProjectSharedWallet.sol\":1947:1975  users[msg.sender].claimsMade */\n      0x01\n      add\n      0x00\n        /* \"MyProjectSharedWallet.sol\":1947:1986  users[msg.sender].claimsMade += _amount */\n      dup3\n      dup3\n      sload\n      tag_91\n      swap2\n      swap1\n      tag_80\n      jump\t// in\n    tag_91:\n      swap3\n      pop\n      pop\n      dup2\n      swap1\n      sstore\n      pop\n        /* \"MyProjectSharedWallet.sol\":2011:2018  _amount */\n      dup3\n        /* \"MyProjectSharedWallet.sol\":1996:2007  totalClaims */\n      0x03\n      0x00\n        /* \"MyProjectSharedWallet.sol\":1996:2018  totalClaims += _amount */\n      dup3\n      dup3\n      sload\n      tag_92\n      swap2\n      swap1\n      tag_80\n      jump\t// in\n    tag_92:\n      swap3\n      pop\n      pop\n      dup2\n      swap1\n      sstore\n      pop\n        /* \"MyProjectSharedWallet.sol\":2070:2077  _amount */\n      dup3\n        /* \"MyProjectSharedWallet.sol\":2046:2067  address(this).balance */\n      selfbalance\n        /* \"MyProjectSharedWallet.sol\":2046:2077  address(this).balance - _amount */\n      tag_93\n      swap2\n      swap1\n      tag_87\n      jump\t// in\n    tag_93:\n        /* \"MyProjectSharedWallet.sol\":2028:2043  contractBalance */\n      0x04\n        /* \"MyProjectSharedWallet.sol\":2028:2077  contractBalance = address(this).balance - _amount */\n      dup2\n      swap1\n      sstore\n      pop\n        /* \"MyProjectSharedWallet.sol\":2087:2090  _to */\n      dup4\n        /* \"MyProjectSharedWallet.sol\":2087:2099  _to.transfer */\n      0xffffffffffffffffffffffffffffffffffffffff\n      and\n        /* \"MyProjectSharedWallet.sol\":2087:2108  _to.transfer(_amount) */\n      0x08fc\n        /* \"MyProjectSharedWallet.sol\":2100:2107  _amount */\n      dup5\n        /* \"MyProjectSharedWallet.sol\":2087:2108  _to.transfer(_amount) */\n      swap1\n      dup2\n      iszero\n      mul\n      swap1\n      mload(0x40)\n      0x00\n      mload(0x40)\n      dup1\n      dup4\n      sub\n      dup2\n      dup6\n      dup9\n      dup9\n      call\n      swap4\n      pop\n      pop\n      pop\n      pop\n      iszero\n      dup1\n      iszero\n      tag_95\n      jumpi\n      returndatasize\n      0x00\n      dup1\n      returndatacopy\n      revert(0x00, returndatasize)\n    tag_95:\n      pop\n        /* \"MyProjectSharedWallet.sol\":2139:2149  msg.sender */\n      caller\n        /* \"MyProjectSharedWallet.sol\":2123:2159  ClaimEvent(_to, msg.sender, _amount) */\n      0xffffffffffffffffffffffffffffffffffffffff\n      and\n        /* \"MyProjectSharedWallet.sol\":2134:2137  _to */\n      dup5\n        /* \"MyProjectSharedWallet.sol\":2123:2159  ClaimEvent(_to, msg.sender, _amount) */\n      0xffffffffffffffffffffffffffffffffffffffff\n      and\n      0xc6523614a4ee35b875baef260f78a91708fdf636c7fec1e9a186a7ae590c4e46\n        /* \"MyProjectSharedWallet.sol\":2151:2158  _amount */\n      dup6\n        /* \"MyProjectSharedWallet.sol\":2123:2159  ClaimEvent(_to, msg.sender, _amount) */\n      mload(0x40)\n      tag_96\n      swap2\n      swap1\n      tag_24\n      jump\t// in\n    tag_96:\n      mload(0x40)\n      dup1\n      swap2\n      sub\n      swap1\n      log3\n        /* \"MyProjectSharedWallet.sol\":1307:2166  {... */\n      pop\n      pop\n        /* \"MyProjectSharedWallet.sol\":1245:2166  function ClaimMoney(address payable _to, uint _amount) public {... */\n      pop\n      pop\n      jump\t// out\n        /* \"MyProjectSharedWallet.sol\":2216:2681  function SetAllowance(address _user, uint _allowancePercentage) public onlyOwner {... */\n    tag_34:\n        /* \"https://github.com/OpenZeppelin/openzeppelin-contracts/blob/master/contracts/access/Ownable.sol\":1094:1107  _checkOwner() */\n      tag_98\n        /* \"https://github.com/OpenZeppelin/openzeppelin-contracts/blob/master/contracts/access/Ownable.sol\":1094:1105  _checkOwner */\n      tag_99\n        /* \"https://github.com/OpenZeppelin/openzeppelin-contracts/blob/master/contracts/access/Ownable.sol\":1094:1107  _checkOwner() */\n      jump\t// in\n    tag_98:\n        /* \"MyProjectSharedWallet.sol\":2324:2331  owner() */\n      tag_101\n        /* \"MyProjectSharedWallet.sol\":2324:2329  owner */\n      tag_48\n        /* \"MyProjectSharedWallet.sol\":2324:2331  owner() */\n      jump\t// in\n    tag_101:\n        /* \"MyProjectSharedWallet.sol\":2315:2331  _user != owner() */\n      0xffffffffffffffffffffffffffffffffffffffff\n      and\n        /* \"MyProjectSharedWallet.sol\":2315:2320  _user */\n      dup3\n        /* \"MyProjectSharedWallet.sol\":2315:2331  _user != owner() */\n      0xffffffffffffffffffffffffffffffffffffffff\n      and\n      eq\n      iszero\n        /* \"MyProjectSharedWallet.sol\":2307:2378  require(_user != owner(), \"An allowance is not required for the owner\") */\n      tag_102\n      jumpi\n      mload(0x40)\n      0x08c379a000000000000000000000000000000000000000000000000000000000\n      dup2\n      mstore\n      0x04\n      add\n      tag_103\n      swap1\n      tag_104\n      jump\t// in\n    tag_103:\n      mload(0x40)\n      dup1\n      swap2\n      sub\n      swap1\n      revert\n    tag_102:\n        /* \"MyProjectSharedWallet.sol\":2422:2423  0 */\n      0x00\n        /* \"MyProjectSharedWallet.sol\":2396:2401  users */\n      0x01\n        /* \"MyProjectSharedWallet.sol\":2396:2408  users[_user] */\n      0x00\n        /* \"MyProjectSharedWallet.sol\":2402:2407  _user */\n      dup5\n        /* \"MyProjectSharedWallet.sol\":2396:2408  users[_user] */\n      0xffffffffffffffffffffffffffffffffffffffff\n      and\n      0xffffffffffffffffffffffffffffffffffffffff\n      and\n      dup2\n      mstore\n      0x20\n      add\n      swap1\n      dup2\n      mstore\n      0x20\n      add\n      0x00\n      keccak256\n        /* \"MyProjectSharedWallet.sol\":2396:2418  users[_user].allowance */\n      0x00\n      add\n      sload\n        /* \"MyProjectSharedWallet.sol\":2396:2423  users[_user].allowance == 0 */\n      eq\n        /* \"MyProjectSharedWallet.sol\":2388:2464  require(users[_user].allowance == 0, \"The address already has an allowance\") */\n      tag_105\n      jumpi\n      mload(0x40)\n      0x08c379a000000000000000000000000000000000000000000000000000000000\n      dup2\n      mstore\n      0x04\n      add\n      tag_106\n      swap1\n      tag_107\n      jump\t// in\n    tag_106:\n      mload(0x40)\n      dup1\n      swap2\n      sub\n      swap1\n      revert\n    tag_105:\n        /* \"MyProjectSharedWallet.sol\":2524:2527  100 */\n      0x64\n        /* \"MyProjectSharedWallet.sol\":2500:2520  _allowancePercentage */\n      dup2\n        /* \"MyProjectSharedWallet.sol\":2482:2497  totalAllowances */\n      sload(0x02)\n        /* \"MyProjectSharedWallet.sol\":2482:2520  totalAllowances + _allowancePercentage */\n      tag_108\n      swap2\n      swap1\n      tag_80\n      jump\t// in\n    tag_108:\n        /* \"MyProjectSharedWallet.sol\":2482:2527  totalAllowances + _allowancePercentage <= 100 */\n      gt\n      iszero\n        /* \"MyProjectSharedWallet.sol\":2474:2570  require(totalAllowances + _allowancePercentage <= 100,\"This would over-allocate the allowances\") */\n      tag_109\n      jumpi\n      mload(0x40)\n      0x08c379a000000000000000000000000000000000000000000000000000000000\n      dup2\n      mstore\n      0x04\n      add\n      tag_110\n      swap1\n      tag_111\n      jump\t// in\n    tag_110:\n      mload(0x40)\n      dup1\n      swap2\n      sub\n      swap1\n      revert\n    tag_109:\n        /* \"MyProjectSharedWallet.sol\":2605:2625  _allowancePercentage */\n      dup1\n        /* \"MyProjectSharedWallet.sol\":2580:2585  users */\n      0x01\n        /* \"MyProjectSharedWallet.sol\":2580:2592  users[_user] */\n      0x00\n        /* \"MyProjectSharedWallet.sol\":2586:2591  _user */\n      dup5\n        /* \"MyProjectSharedWallet.sol\":2580:2592  users[_user] */\n      0xffffffffffffffffffffffffffffffffffffffff\n      and\n      0xffffffffffffffffffffffffffffffffffffffff\n      and\n      dup2\n      mstore\n      0x20\n      add\n      swap1\n      dup2\n      mstore\n      0x20\n      add\n      0x00\n      keccak256\n        /* \"MyProjectSharedWallet.sol\":2580:2602  users[_user].allowance */\n      0x00\n      add\n        /* \"MyProjectSharedWallet.sol\":2580:2625  users[_user].allowance = _allowancePercentage */\n      dup2\n      swap1\n      sstore\n      pop\n        /* \"MyProjectSharedWallet.sol\":2654:2674  _allowancePercentage */\n      dup1\n        /* \"MyProjectSharedWallet.sol\":2635:2650  totalAllowances */\n      0x02\n      0x00\n        /* \"MyProjectSharedWallet.sol\":2635:2674  totalAllowances += _allowancePercentage */\n      dup3\n      dup3\n      sload\n      tag_112\n      swap2\n      swap1\n      tag_80\n      jump\t// in\n    tag_112:\n      swap3\n      pop\n      pop\n      dup2\n      swap1\n      sstore\n      pop\n        /* \"MyProjectSharedWallet.sol\":2216:2681  function SetAllowance(address _user, uint _allowancePercentage) public onlyOwner {... */\n      pop\n      pop\n      jump\t// out\n        /* \"MyProjectSharedWallet.sol\":584:607  uint public totalClaims */\n    tag_37:\n      sload(0x03)\n      dup2\n      jump\t// out\n        /* \"MyProjectSharedWallet.sol\":3100:3250  function renounceOwnership() public override onlyOwner {... */\n    tag_41:\n        /* \"https://github.com/OpenZeppelin/openzeppelin-contracts/blob/master/contracts/access/Ownable.sol\":1094:1107  _checkOwner() */\n      tag_114\n        /* \"https://github.com/OpenZeppelin/openzeppelin-contracts/blob/master/contracts/access/Ownable.sol\":1094:1105  _checkOwner */\n      tag_99\n        /* \"https://github.com/OpenZeppelin/openzeppelin-contracts/blob/master/contracts/access/Ownable.sol\":1094:1107  _checkOwner() */\n      jump\t// in\n    tag_114:\n        /* \"MyProjectSharedWallet.sol\":3165:3203  revert(\"can't renounceOwnership here\") */\n      mload(0x40)\n      0x08c379a000000000000000000000000000000000000000000000000000000000\n      dup2\n      mstore\n      0x04\n      add\n      tag_116\n      swap1\n      tag_117\n      jump\t// in\n    tag_116:\n      mload(0x40)\n      dup1\n      swap2\n      sub\n      swap1\n      revert\n        /* \"MyProjectSharedWallet.sol\":644:671  uint public contractBalance */\n    tag_44:\n      sload(0x04)\n      dup2\n      jump\t// out\n        /* \"https://github.com/OpenZeppelin/openzeppelin-contracts/blob/master/contracts/access/Ownable.sol\":1201:1286  function owner() public view virtual returns (address) {... */\n    tag_48:\n        /* \"https://github.com/OpenZeppelin/openzeppelin-contracts/blob/master/contracts/access/Ownable.sol\":1247:1254  address */\n      0x00\n        /* \"https://github.com/OpenZeppelin/openzeppelin-contracts/blob/master/contracts/access/Ownable.sol\":1273:1279  _owner */\n      dup1\n      0x00\n      swap1\n      sload\n      swap1\n      0x0100\n      exp\n      swap1\n      div\n      0xffffffffffffffffffffffffffffffffffffffff\n      and\n        /* \"https://github.com/OpenZeppelin/openzeppelin-contracts/blob/master/contracts/access/Ownable.sol\":1266:1279  return _owner */\n      swap1\n      pop\n        /* \"https://github.com/OpenZeppelin/openzeppelin-contracts/blob/master/contracts/access/Ownable.sol\":1201:1286  function owner() public view virtual returns (address) {... */\n      swap1\n      jump\t// out\n        /* \"MyProjectSharedWallet.sol\":421:465  mapping(address => UserDetails) public users */\n    tag_55:\n      mstore(0x20, 0x01)\n      dup1\n      0x00\n      mstore\n      keccak256(0x00, 0x40)\n      0x00\n      swap2\n      pop\n      swap1\n      pop\n      dup1\n      0x00\n      add\n      sload\n      swap1\n      dup1\n      0x01\n      add\n      sload\n      swap1\n      pop\n      dup3\n      jump\t// out\n        /* \"MyProjectSharedWallet.sol\":2732:2996  function ownerWithdraw(address payable _to, uint _amount) public onlyOwner {... */\n    tag_61:\n        /* \"https://github.com/OpenZeppelin/openzeppelin-contracts/blob/master/contracts/access/Ownable.sol\":1094:1107  _checkOwner() */\n      tag_120\n        /* \"https://github.com/OpenZeppelin/openzeppelin-contracts/blob/master/contracts/access/Ownable.sol\":1094:1105  _checkOwner */\n      tag_99\n        /* \"https://github.com/OpenZeppelin/openzeppelin-contracts/blob/master/contracts/access/Ownable.sol\":1094:1107  _checkOwner() */\n      jump\t// in\n    tag_120:\n        /* \"MyProjectSharedWallet.sol\":2836:2857  address(this).balance */\n      selfbalance\n        /* \"MyProjectSharedWallet.sol\":2825:2832  _amount */\n      dup2\n        /* \"MyProjectSharedWallet.sol\":2825:2857  _amount <= address(this).balance */\n      gt\n      iszero\n        /* \"MyProjectSharedWallet.sol\":2817:2899  require(_amount <= address(this).balance,\"Amount is larger than contract balance\") */\n      tag_122\n      jumpi\n      mload(0x40)\n      0x08c379a000000000000000000000000000000000000000000000000000000000\n      dup2\n      mstore\n      0x04\n      add\n      tag_123\n      swap1\n      tag_124\n      jump\t// in\n    tag_123:\n      mload(0x40)\n      dup1\n      swap2\n      sub\n      swap1\n      revert\n    tag_122:\n        /* \"MyProjectSharedWallet.sol\":2951:2958  _amount */\n      dup1\n        /* \"MyProjectSharedWallet.sol\":2927:2948  address(this).balance */\n      selfbalance\n        /* \"MyProjectSharedWallet.sol\":2927:2958  address(this).balance - _amount */\n      tag_125\n      swap2\n      swap1\n      tag_87\n      jump\t// in\n    tag_125:\n        /* \"MyProjectSharedWallet.sol\":2909:2924  contractBalance */\n      0x04\n        /* \"MyProjectSharedWallet.sol\":2909:2958  contractBalance = address(this).balance - _amount */\n      dup2\n      swap1\n      sstore\n      pop\n        /* \"MyProjectSharedWallet.sol\":2968:2971  _to */\n      dup2\n        /* \"MyProjectSharedWallet.sol\":2968:2980  _to.transfer */\n      0xffffffffffffffffffffffffffffffffffffffff\n      and\n        /* \"MyProjectSharedWallet.sol\":2968:2989  _to.transfer(_amount) */\n      0x08fc\n        /* \"MyProjectSharedWallet.sol\":2981:2988  _amount */\n      dup3\n        /* \"MyProjectSharedWallet.sol\":2968:2989  _to.transfer(_amount) */\n      swap1\n      dup2\n      iszero\n      mul\n      swap1\n      mload(0x40)\n      0x00\n      mload(0x40)\n      dup1\n      dup4\n      sub\n      dup2\n      dup6\n      dup9\n      dup9\n      call\n      swap4\n      pop\n      pop\n      pop\n      pop\n      iszero\n      dup1\n      iszero\n      tag_127\n      jumpi\n      returndatasize\n      0x00\n      dup1\n      returndatacopy\n      revert(0x00, returndatasize)\n    tag_127:\n      pop\n        /* \"MyProjectSharedWallet.sol\":2732:2996  function ownerWithdraw(address payable _to, uint _amount) public onlyOwner {... */\n      pop\n      pop\n      jump\t// out\n        /* \"https://github.com/OpenZeppelin/openzeppelin-contracts/blob/master/contracts/access/Ownable.sol\":2081:2279  function transferOwnership(address newOwner) public virtual onlyOwner {... */\n    tag_65:\n        /* \"https://github.com/OpenZeppelin/openzeppelin-contracts/blob/master/contracts/access/Ownable.sol\":1094:1107  _checkOwner() */\n      tag_129\n        /* \"https://github.com/OpenZeppelin/openzeppelin-contracts/blob/master/contracts/access/Ownable.sol\":1094:1105  _checkOwner */\n      tag_99\n        /* \"https://github.com/OpenZeppelin/openzeppelin-contracts/blob/master/contracts/access/Ownable.sol\":1094:1107  _checkOwner() */\n      jump\t// in\n    tag_129:\n        /* \"https://github.com/OpenZeppelin/openzeppelin-contracts/blob/master/contracts/access/Ownable.sol\":2189:2190  0 */\n      0x00\n        /* \"https://github.com/OpenZeppelin/openzeppelin-contracts/blob/master/contracts/access/Ownable.sol\":2169:2191  newOwner != address(0) */\n      0xffffffffffffffffffffffffffffffffffffffff\n      and\n        /* \"https://github.com/OpenZeppelin/openzeppelin-contracts/blob/master/contracts/access/Ownable.sol\":2169:2177  newOwner */\n      dup2\n        /* \"https://github.com/OpenZeppelin/openzeppelin-contracts/blob/master/contracts/access/Ownable.sol\":2169:2191  newOwner != address(0) */\n      0xffffffffffffffffffffffffffffffffffffffff\n      and\n      eq\n      iszero\n        /* \"https://github.com/OpenZeppelin/openzeppelin-contracts/blob/master/contracts/access/Ownable.sol\":2161:2234  require(newOwner != address(0), \"Ownable: new owner is the zero address\") */\n      tag_131\n      jumpi\n      mload(0x40)\n      0x08c379a000000000000000000000000000000000000000000000000000000000\n      dup2\n      mstore\n      0x04\n      add\n      tag_132\n      swap1\n      tag_133\n      jump\t// in\n    tag_132:\n      mload(0x40)\n      dup1\n      swap2\n      sub\n      swap1\n      revert\n    tag_131:\n        /* \"https://github.com/OpenZeppelin/openzeppelin-contracts/blob/master/contracts/access/Ownable.sol\":2244:2272  _transferOwnership(newOwner) */\n      tag_134\n        /* \"https://github.com/OpenZeppelin/openzeppelin-contracts/blob/master/contracts/access/Ownable.sol\":2263:2271  newOwner */\n      dup2\n        /* \"https://github.com/OpenZeppelin/openzeppelin-contracts/blob/master/contracts/access/Ownable.sol\":2244:2262  _transferOwnership */\n      tag_135\n        /* \"https://github.com/OpenZeppelin/openzeppelin-contracts/blob/master/contracts/access/Ownable.sol\":2244:2272  _transferOwnership(newOwner) */\n      jump\t// in\n    tag_134:\n        /* \"https://github.com/OpenZeppelin/openzeppelin-contracts/blob/master/contracts/access/Ownable.sol\":2081:2279  function transferOwnership(address newOwner) public virtual onlyOwner {... */\n      pop\n      jump\t// out\n        /* \"MyProjectSharedWallet.sol\":3002:3094  function isOwner() internal view returns(bool) {... */\n    tag_69:\n        /* \"MyProjectSharedWallet.sol\":3043:3047  bool */\n      0x00\n        /* \"MyProjectSharedWallet.sol\":3077:3087  msg.sender */\n      caller\n        /* \"MyProjectSharedWallet.sol\":3066:3087  owner() == msg.sender */\n      0xffffffffffffffffffffffffffffffffffffffff\n      and\n        /* \"MyProjectSharedWallet.sol\":3066:3073  owner() */\n      tag_137\n        /* \"MyProjectSharedWallet.sol\":3066:3071  owner */\n      tag_48\n        /* \"MyProjectSharedWallet.sol\":3066:3073  owner() */\n      jump\t// in\n    tag_137:\n        /* \"MyProjectSharedWallet.sol\":3066:3087  owner() == msg.sender */\n      0xffffffffffffffffffffffffffffffffffffffff\n      and\n      eq\n        /* \"MyProjectSharedWallet.sol\":3059:3087  return owner() == msg.sender */\n      swap1\n      pop\n        /* \"MyProjectSharedWallet.sol\":3002:3094  function isOwner() internal view returns(bool) {... */\n      swap1\n      jump\t// out\n        /* \"https://github.com/OpenZeppelin/openzeppelin-contracts/blob/master/contracts/access/Ownable.sol\":1359:1489  function _checkOwner() internal view virtual {... */\n    tag_99:\n        /* \"https://github.com/OpenZeppelin/openzeppelin-contracts/blob/master/contracts/access/Ownable.sol\":1433:1445  _msgSender() */\n      tag_139\n        /* \"https://github.com/OpenZeppelin/openzeppelin-contracts/blob/master/contracts/access/Ownable.sol\":1433:1443  _msgSender */\n      tag_140\n        /* \"https://github.com/OpenZeppelin/openzeppelin-contracts/blob/master/contracts/access/Ownable.sol\":1433:1445  _msgSender() */\n      jump\t// in\n    tag_139:\n        /* \"https://github.com/OpenZeppelin/openzeppelin-contracts/blob/master/contracts/access/Ownable.sol\":1422:1445  owner() == _msgSender() */\n      0xffffffffffffffffffffffffffffffffffffffff\n      and\n        /* \"https://github.com/OpenZeppelin/openzeppelin-contracts/blob/master/contracts/access/Ownable.sol\":1422:1429  owner() */\n      tag_141\n        /* \"https://github.com/OpenZeppelin/openzeppelin-contracts/blob/master/contracts/access/Ownable.sol\":1422:1427  owner */\n      tag_48\n        /* \"https://github.com/OpenZeppelin/openzeppelin-contracts/blob/master/contracts/access/Ownable.sol\":1422:1429  owner() */\n      jump\t// in\n    tag_141:\n        /* \"https://github.com/OpenZeppelin/openzeppelin-contracts/blob/master/contracts/access/Ownable.sol\":1422:1445  owner() == _msgSender() */\n      0xffffffffffffffffffffffffffffffffffffffff\n      and\n      eq\n        /* \"https://github.com/OpenZeppelin/openzeppelin-contracts/blob/master/contracts/access/Ownable.sol\":1414:1482  require(owner() == _msgSender(), \"Ownable: caller is not the owner\") */\n      tag_142\n      jumpi\n      mload(0x40)\n      0x08c379a000000000000000000000000000000000000000000000000000000000\n      dup2\n      mstore\n      0x04\n      add\n      tag_143\n      swap1\n      tag_144\n      jump\t// in\n    tag_143:\n      mload(0x40)\n      dup1\n      swap2\n      sub\n      swap1\n      revert\n    tag_142:\n        /* \"https://github.com/OpenZeppelin/openzeppelin-contracts/blob/master/contracts/access/Ownable.sol\":1359:1489  function _checkOwner() internal view virtual {... */\n      jump\t// out\n        /* \"https://github.com/OpenZeppelin/openzeppelin-contracts/blob/master/contracts/access/Ownable.sol\":2433:2620  function _transferOwnership(address newOwner) internal virtual {... */\n    tag_135:\n        /* \"https://github.com/OpenZeppelin/openzeppelin-contracts/blob/master/contracts/access/Ownable.sol\":2506:2522  address oldOwner */\n      0x00\n        /* \"https://github.com/OpenZeppelin/openzeppelin-contracts/blob/master/contracts/access/Ownable.sol\":2525:2531  _owner */\n      dup1\n      0x00\n      swap1\n      sload\n      swap1\n      0x0100\n      exp\n      swap1\n      div\n      0xffffffffffffffffffffffffffffffffffffffff\n      and\n        /* \"https://github.com/OpenZeppelin/openzeppelin-contracts/blob/master/contracts/access/Ownable.sol\":2506:2531  address oldOwner = _owner */\n      swap1\n      pop\n        /* \"https://github.com/OpenZeppelin/openzeppelin-contracts/blob/master/contracts/access/Ownable.sol\":2550:2558  newOwner */\n      dup2\n        /* \"https://github.com/OpenZeppelin/openzeppelin-contracts/blob/master/contracts/access/Ownable.sol\":2541:2547  _owner */\n      0x00\n      dup1\n        /* \"https://github.com/OpenZeppelin/openzeppelin-contracts/blob/master/contracts/access/Ownable.sol\":2541:2558  _owner = newOwner */\n      0x0100\n      exp\n      dup2\n      sload\n      dup2\n      0xffffffffffffffffffffffffffffffffffffffff\n      mul\n      not\n      and\n      swap1\n      dup4\n      0xffffffffffffffffffffffffffffffffffffffff\n      and\n      mul\n      or\n      swap1\n      sstore\n      pop\n        /* \"https://github.com/OpenZeppelin/openzeppelin-contracts/blob/master/contracts/access/Ownable.sol\":2604:2612  newOwner */\n      dup2\n        /* \"https://github.com/OpenZeppelin/openzeppelin-contracts/blob/master/contracts/access/Ownable.sol\":2573:2613  OwnershipTransferred(oldOwner, newOwner) */\n      0xffffffffffffffffffffffffffffffffffffffff\n      and\n        /* \"https://github.com/OpenZeppelin/openzeppelin-contracts/blob/master/contracts/access/Ownable.sol\":2594:2602  oldOwner */\n      dup2\n        /* \"https://github.com/OpenZeppelin/openzeppelin-contracts/blob/master/contracts/access/Ownable.sol\":2573:2613  OwnershipTransferred(oldOwner, newOwner) */\n      0xffffffffffffffffffffffffffffffffffffffff\n      and\n      0x8be0079c531659141344cd1fd0a4f28419497f9722a3daafe3b4186f6b6457e0\n      mload(0x40)\n      mload(0x40)\n      dup1\n      swap2\n      sub\n      swap1\n      log3\n        /* \"https://github.com/OpenZeppelin/openzeppelin-contracts/blob/master/contracts/access/Ownable.sol\":2496:2620  {... */\n      pop\n        /* \"https://github.com/OpenZeppelin/openzeppelin-contracts/blob/master/contracts/access/Ownable.sol\":2433:2620  function _transferOwnership(address newOwner) internal virtual {... */\n      pop\n      jump\t// out\n        /* \"https://github.com/OpenZeppelin/openzeppelin-contracts/blob/master/contracts/utils/Context.sol\":640:736  function _msgSender() internal view virtual returns (address) {... */\n    tag_140:\n        /* \"https://github.com/OpenZeppelin/openzeppelin-contracts/blob/master/contracts/utils/Context.sol\":693:700  address */\n      0x00\n        /* \"https://github.com/OpenZeppelin/openzeppelin-contracts/blob/master/contracts/utils/Context.sol\":719:729  msg.sender */\n      caller\n        /* \"https://github.com/OpenZeppelin/openzeppelin-contracts/blob/master/contracts/utils/Context.sol\":712:729  return msg.sender */\n      swap1\n      pop\n        /* \"https://github.com/OpenZeppelin/openzeppelin-contracts/blob/master/contracts/utils/Context.sol\":640:736  function _msgSender() internal view virtual returns (address) {... */\n      swap1\n      jump\t// out\n        /* \"#utility.yul\":7:146   */\n    tag_148:\n        /* \"#utility.yul\":53:58   */\n      0x00\n        /* \"#utility.yul\":91:97   */\n      dup2\n        /* \"#utility.yul\":78:98   */\n      calldataload\n        /* \"#utility.yul\":69:98   */\n      swap1\n      pop\n        /* \"#utility.yul\":107:140   */\n      tag_150\n        /* \"#utility.yul\":134:139   */\n      dup2\n        /* \"#utility.yul\":107:140   */\n      tag_151\n      jump\t// in\n    tag_150:\n        /* \"#utility.yul\":7:146   */\n      swap3\n      swap2\n      pop\n      pop\n      jump\t// out\n        /* \"#utility.yul\":152:307   */\n    tag_152:\n        /* \"#utility.yul\":206:211   */\n      0x00\n        /* \"#utility.yul\":244:250   */\n      dup2\n        /* \"#utility.yul\":231:251   */\n      calldataload\n        /* \"#utility.yul\":222:251   */\n      swap1\n      pop\n        /* \"#utility.yul\":260:301   */\n      tag_154\n        /* \"#utility.yul\":295:300   */\n      dup2\n        /* \"#utility.yul\":260:301   */\n      tag_155\n      jump\t// in\n    tag_154:\n        /* \"#utility.yul\":152:307   */\n      swap3\n      swap2\n      pop\n      pop\n      jump\t// out\n        /* \"#utility.yul\":313:452   */\n    tag_156:\n        /* \"#utility.yul\":359:364   */\n      0x00\n        /* \"#utility.yul\":397:403   */\n      dup2\n        /* \"#utility.yul\":384:404   */\n      calldataload\n        /* \"#utility.yul\":375:404   */\n      swap1\n      pop\n        /* \"#utility.yul\":413:446   */\n      tag_158\n        /* \"#utility.yul\":440:445   */\n      dup2\n        /* \"#utility.yul\":413:446   */\n      tag_159\n      jump\t// in\n    tag_158:\n        /* \"#utility.yul\":313:452   */\n      swap3\n      swap2\n      pop\n      pop\n      jump\t// out\n        /* \"#utility.yul\":458:787   */\n    tag_54:\n        /* \"#utility.yul\":517:523   */\n      0x00\n        /* \"#utility.yul\":566:568   */\n      0x20\n        /* \"#utility.yul\":554:563   */\n      dup3\n        /* \"#utility.yul\":545:552   */\n      dup5\n        /* \"#utility.yul\":541:564   */\n      sub\n        /* \"#utility.yul\":537:569   */\n      slt\n        /* \"#utility.yul\":534:653   */\n      iszero\n      tag_161\n      jumpi\n        /* \"#utility.yul\":572:651   */\n      tag_162\n      tag_163\n      jump\t// in\n    tag_162:\n        /* \"#utility.yul\":534:653   */\n    tag_161:\n        /* \"#utility.yul\":692:693   */\n      0x00\n        /* \"#utility.yul\":717:770   */\n      tag_164\n        /* \"#utility.yul\":762:769   */\n      dup5\n        /* \"#utility.yul\":753:759   */\n      dup3\n        /* \"#utility.yul\":742:751   */\n      dup6\n        /* \"#utility.yul\":738:760   */\n      add\n        /* \"#utility.yul\":717:770   */\n      tag_148\n      jump\t// in\n    tag_164:\n        /* \"#utility.yul\":707:770   */\n      swap2\n      pop\n        /* \"#utility.yul\":663:780   */\n      pop\n        /* \"#utility.yul\":458:787   */\n      swap3\n      swap2\n      pop\n      pop\n      jump\t// out\n        /* \"#utility.yul\":793:1283   */\n    tag_28:\n        /* \"#utility.yul\":869:875   */\n      0x00\n        /* \"#utility.yul\":877:883   */\n      dup1\n        /* \"#utility.yul\":926:928   */\n      0x40\n        /* \"#utility.yul\":914:923   */\n      dup4\n        /* \"#utility.yul\":905:912   */\n      dup6\n        /* \"#utility.yul\":901:924   */\n      sub\n        /* \"#utility.yul\":897:929   */\n      slt\n        /* \"#utility.yul\":894:1013   */\n      iszero\n      tag_166\n      jumpi\n        /* \"#utility.yul\":932:1011   */\n      tag_167\n      tag_163\n      jump\t// in\n    tag_167:\n        /* \"#utility.yul\":894:1013   */\n    tag_166:\n        /* \"#utility.yul\":1052:1053   */\n      0x00\n        /* \"#utility.yul\":1077:1138   */\n      tag_168\n        /* \"#utility.yul\":1130:1137   */\n      dup6\n        /* \"#utility.yul\":1121:1127   */\n      dup3\n        /* \"#utility.yul\":1110:1119   */\n      dup7\n        /* \"#utility.yul\":1106:1128   */\n      add\n        /* \"#utility.yul\":1077:1138   */\n      tag_152\n      jump\t// in\n    tag_168:\n        /* \"#utility.yul\":1067:1138   */\n      swap3\n      pop\n        /* \"#utility.yul\":1023:1148   */\n      pop\n        /* \"#utility.yul\":1187:1189   */\n      0x20\n        /* \"#utility.yul\":1213:1266   */\n      tag_169\n        /* \"#utility.yul\":1258:1265   */\n      dup6\n        /* \"#utility.yul\":1249:1255   */\n      dup3\n        /* \"#utility.yul\":1238:1247   */\n      dup7\n        /* \"#utility.yul\":1234:1256   */\n      add\n        /* \"#utility.yul\":1213:1266   */\n      tag_156\n      jump\t// in\n    tag_169:\n        /* \"#utility.yul\":1203:1266   */\n      swap2\n      pop\n        /* \"#utility.yul\":1158:1276   */\n      pop\n        /* \"#utility.yul\":793:1283   */\n      swap3\n      pop\n      swap3\n      swap1\n      pop\n      jump\t// out\n        /* \"#utility.yul\":1289:1763   */\n    tag_33:\n        /* \"#utility.yul\":1357:1363   */\n      0x00\n        /* \"#utility.yul\":1365:1371   */\n      dup1\n        /* \"#utility.yul\":1414:1416   */\n      0x40\n        /* \"#utility.yul\":1402:1411   */\n      dup4\n        /* \"#utility.yul\":1393:1400   */\n      dup6\n        /* \"#utility.yul\":1389:1412   */\n      sub\n        /* \"#utility.yul\":1385:1417   */\n      slt\n        /* \"#utility.yul\":1382:1501   */\n      iszero\n      tag_171\n      jumpi\n        /* \"#utility.yul\":1420:1499   */\n      tag_172\n      tag_163\n      jump\t// in\n    tag_172:\n        /* \"#utility.yul\":1382:1501   */\n    tag_171:\n        /* \"#utility.yul\":1540:1541   */\n      0x00\n        /* \"#utility.yul\":1565:1618   */\n      tag_173\n        /* \"#utility.yul\":1610:1617   */\n      dup6\n        /* \"#utility.yul\":1601:1607   */\n      dup3\n        /* \"#utility.yul\":1590:1599   */\n      dup7\n        /* \"#utility.yul\":1586:1608   */\n      add\n        /* \"#utility.yul\":1565:1618   */\n      tag_148\n      jump\t// in\n    tag_173:\n        /* \"#utility.yul\":1555:1618   */\n      swap3\n      pop\n        /* \"#utility.yul\":1511:1628   */\n      pop\n        /* \"#utility.yul\":1667:1669   */\n      0x20\n        /* \"#utility.yul\":1693:1746   */\n      tag_174\n        /* \"#utility.yul\":1738:1745   */\n      dup6\n        /* \"#utility.yul\":1729:1735   */\n      dup3\n        /* \"#utility.yul\":1718:1727   */\n      dup7\n        /* \"#utility.yul\":1714:1736   */\n      add\n        /* \"#utility.yul\":1693:1746   */\n      tag_156\n      jump\t// in\n    tag_174:\n        /* \"#utility.yul\":1683:1746   */\n      swap2\n      pop\n        /* \"#utility.yul\":1638:1756   */\n      pop\n        /* \"#utility.yul\":1289:1763   */\n      swap3\n      pop\n      swap3\n      swap1\n      pop\n      jump\t// out\n        /* \"#utility.yul\":1769:1887   */\n    tag_175:\n        /* \"#utility.yul\":1856:1880   */\n      tag_177\n        /* \"#utility.yul\":1874:1879   */\n      dup2\n        /* \"#utility.yul\":1856:1880   */\n      tag_178\n      jump\t// in\n    tag_177:\n        /* \"#utility.yul\":1851:1854   */\n      dup3\n        /* \"#utility.yul\":1844:1881   */\n      mstore\n        /* \"#utility.yul\":1769:1887   */\n      pop\n      pop\n      jump\t// out\n        /* \"#utility.yul\":1893:2259   */\n    tag_179:\n        /* \"#utility.yul\":2035:2038   */\n      0x00\n        /* \"#utility.yul\":2056:2123   */\n      tag_181\n        /* \"#utility.yul\":2120:2122   */\n      0x28\n        /* \"#utility.yul\":2115:2118   */\n      dup4\n        /* \"#utility.yul\":2056:2123   */\n      tag_182\n      jump\t// in\n    tag_181:\n        /* \"#utility.yul\":2049:2123   */\n      swap2\n      pop\n        /* \"#utility.yul\":2132:2225   */\n      tag_183\n        /* \"#utility.yul\":2221:2224   */\n      dup3\n        /* \"#utility.yul\":2132:2225   */\n      tag_184\n      jump\t// in\n    tag_183:\n        /* \"#utility.yul\":2250:2252   */\n      0x40\n        /* \"#utility.yul\":2245:2248   */\n      dup3\n        /* \"#utility.yul\":2241:2253   */\n      add\n        /* \"#utility.yul\":2234:2253   */\n      swap1\n      pop\n        /* \"#utility.yul\":1893:2259   */\n      swap2\n      swap1\n      pop\n      jump\t// out\n        /* \"#utility.yul\":2265:2631   */\n    tag_185:\n        /* \"#utility.yul\":2407:2410   */\n      0x00\n        /* \"#utility.yul\":2428:2495   */\n      tag_187\n        /* \"#utility.yul\":2492:2494   */\n      0x26\n        /* \"#utility.yul\":2487:2490   */\n      dup4\n        /* \"#utility.yul\":2428:2495   */\n      tag_182\n      jump\t// in\n    tag_187:\n        /* \"#utility.yul\":2421:2495   */\n      swap2\n      pop\n        /* \"#utility.yul\":2504:2597   */\n      tag_188\n        /* \"#utility.yul\":2593:2596   */\n      dup3\n        /* \"#utility.yul\":2504:2597   */\n      tag_189\n      jump\t// in\n    tag_188:\n        /* \"#utility.yul\":2622:2624   */\n      0x40\n        /* \"#utility.yul\":2617:2620   */\n      dup3\n        /* \"#utility.yul\":2613:2625   */\n      add\n        /* \"#utility.yul\":2606:2625   */\n      swap1\n      pop\n        /* \"#utility.yul\":2265:2631   */\n      swap2\n      swap1\n      pop\n      jump\t// out\n        /* \"#utility.yul\":2637:3003   */\n    tag_190:\n        /* \"#utility.yul\":2779:2782   */\n      0x00\n        /* \"#utility.yul\":2800:2867   */\n      tag_192\n        /* \"#utility.yul\":2864:2866   */\n      0x1c\n        /* \"#utility.yul\":2859:2862   */\n      dup4\n        /* \"#utility.yul\":2800:2867   */\n      tag_182\n      jump\t// in\n    tag_192:\n        /* \"#utility.yul\":2793:2867   */\n      swap2\n      pop\n        /* \"#utility.yul\":2876:2969   */\n      tag_193\n        /* \"#utility.yul\":2965:2968   */\n      dup3\n        /* \"#utility.yul\":2876:2969   */\n      tag_194\n      jump\t// in\n    tag_193:\n        /* \"#utility.yul\":2994:2996   */\n      0x20\n        /* \"#utility.yul\":2989:2992   */\n      dup3\n        /* \"#utility.yul\":2985:2997   */\n      add\n        /* \"#utility.yul\":2978:2997   */\n      swap1\n      pop\n        /* \"#utility.yul\":2637:3003   */\n      swap2\n      swap1\n      pop\n      jump\t// out\n        /* \"#utility.yul\":3009:3375   */\n    tag_195:\n        /* \"#utility.yul\":3151:3154   */\n      0x00\n        /* \"#utility.yul\":3172:3239   */\n      tag_197\n        /* \"#utility.yul\":3236:3238   */\n      0x2b\n        /* \"#utility.yul\":3231:3234   */\n      dup4\n        /* \"#utility.yul\":3172:3239   */\n      tag_182\n      jump\t// in\n    tag_197:\n        /* \"#utility.yul\":3165:3239   */\n      swap2\n      pop\n        /* \"#utility.yul\":3248:3341   */\n      tag_198\n        /* \"#utility.yul\":3337:3340   */\n      dup3\n        /* \"#utility.yul\":3248:3341   */\n      tag_199\n      jump\t// in\n    tag_198:\n        /* \"#utility.yul\":3366:3368   */\n      0x40\n        /* \"#utility.yul\":3361:3364   */\n      dup3\n        /* \"#utility.yul\":3357:3369   */\n      add\n        /* \"#utility.yul\":3350:3369   */\n      swap1\n      pop\n        /* \"#utility.yul\":3009:3375   */\n      swap2\n      swap1\n      pop\n      jump\t// out\n        /* \"#utility.yul\":3381:3747   */\n    tag_200:\n        /* \"#utility.yul\":3523:3526   */\n      0x00\n        /* \"#utility.yul\":3544:3611   */\n      tag_202\n        /* \"#utility.yul\":3608:3610   */\n      0x16\n        /* \"#utility.yul\":3603:3606   */\n      dup4\n        /* \"#utility.yul\":3544:3611   */\n      tag_182\n      jump\t// in\n    tag_202:\n        /* \"#utility.yul\":3537:3611   */\n      swap2\n      pop\n        /* \"#utility.yul\":3620:3713   */\n      tag_203\n        /* \"#utility.yul\":3709:3712   */\n      dup3\n        /* \"#utility.yul\":3620:3713   */\n      tag_204\n      jump\t// in\n    tag_203:\n        /* \"#utility.yul\":3738:3740   */\n      0x20\n        /* \"#utility.yul\":3733:3736   */\n      dup3\n        /* \"#utility.yul\":3729:3741   */\n      add\n        /* \"#utility.yul\":3722:3741   */\n      swap1\n      pop\n        /* \"#utility.yul\":3381:3747   */\n      swap2\n      swap1\n      pop\n      jump\t// out\n        /* \"#utility.yul\":3753:4119   */\n    tag_205:\n        /* \"#utility.yul\":3895:3898   */\n      0x00\n        /* \"#utility.yul\":3916:3983   */\n      tag_207\n        /* \"#utility.yul\":3980:3982   */\n      0x1d\n        /* \"#utility.yul\":3975:3978   */\n      dup4\n        /* \"#utility.yul\":3916:3983   */\n      tag_182\n      jump\t// in\n    tag_207:\n        /* \"#utility.yul\":3909:3983   */\n      swap2\n      pop\n        /* \"#utility.yul\":3992:4085   */\n      tag_208\n        /* \"#utility.yul\":4081:4084   */\n      dup3\n        /* \"#utility.yul\":3992:4085   */\n      tag_209\n      jump\t// in\n    tag_208:\n        /* \"#utility.yul\":4110:4112   */\n      0x20\n        /* \"#utility.yul\":4105:4108   */\n      dup3\n        /* \"#utility.yul\":4101:4113   */\n      add\n        /* \"#utility.yul\":4094:4113   */\n      swap1\n      pop\n        /* \"#utility.yul\":3753:4119   */\n      swap2\n      swap1\n      pop\n      jump\t// out\n        /* \"#utility.yul\":4125:4491   */\n    tag_210:\n        /* \"#utility.yul\":4267:4270   */\n      0x00\n        /* \"#utility.yul\":4288:4355   */\n      tag_212\n        /* \"#utility.yul\":4352:4354   */\n      0x20\n        /* \"#utility.yul\":4347:4350   */\n      dup4\n        /* \"#utility.yul\":4288:4355   */\n      tag_182\n      jump\t// in\n    tag_212:\n        /* \"#utility.yul\":4281:4355   */\n      swap2\n      pop\n        /* \"#utility.yul\":4364:4457   */\n      tag_213\n        /* \"#utility.yul\":4453:4456   */\n      dup3\n        /* \"#utility.yul\":4364:4457   */\n      tag_214\n      jump\t// in\n    tag_213:\n        /* \"#utility.yul\":4482:4484   */\n      0x20\n        /* \"#utility.yul\":4477:4480   */\n      dup3\n        /* \"#utility.yul\":4473:4485   */\n      add\n        /* \"#utility.yul\":4466:4485   */\n      swap1\n      pop\n        /* \"#utility.yul\":4125:4491   */\n      swap2\n      swap1\n      pop\n      jump\t// out\n        /* \"#utility.yul\":4497:4863   */\n    tag_215:\n        /* \"#utility.yul\":4639:4642   */\n      0x00\n        /* \"#utility.yul\":4660:4727   */\n      tag_217\n        /* \"#utility.yul\":4724:4726   */\n      0x2a\n        /* \"#utility.yul\":4719:4722   */\n      dup4\n        /* \"#utility.yul\":4660:4727   */\n      tag_182\n      jump\t// in\n    tag_217:\n        /* \"#utility.yul\":4653:4727   */\n      swap2\n      pop\n        /* \"#utility.yul\":4736:4829   */\n      tag_218\n        /* \"#utility.yul\":4825:4828   */\n      dup3\n        /* \"#utility.yul\":4736:4829   */\n      tag_219\n      jump\t// in\n    tag_218:\n        /* \"#utility.yul\":4854:4856   */\n      0x40\n        /* \"#utility.yul\":4849:4852   */\n      dup3\n        /* \"#utility.yul\":4845:4857   */\n      add\n        /* \"#utility.yul\":4838:4857   */\n      swap1\n      pop\n        /* \"#utility.yul\":4497:4863   */\n      swap2\n      swap1\n      pop\n      jump\t// out\n        /* \"#utility.yul\":4869:5235   */\n    tag_220:\n        /* \"#utility.yul\":5011:5014   */\n      0x00\n        /* \"#utility.yul\":5032:5099   */\n      tag_222\n        /* \"#utility.yul\":5096:5098   */\n      0x26\n        /* \"#utility.yul\":5091:5094   */\n      dup4\n        /* \"#utility.yul\":5032:5099   */\n      tag_182\n      jump\t// in\n    tag_222:\n        /* \"#utility.yul\":5025:5099   */\n      swap2\n      pop\n        /* \"#utility.yul\":5108:5201   */\n      tag_223\n        /* \"#utility.yul\":5197:5200   */\n      dup3\n        /* \"#utility.yul\":5108:5201   */\n      tag_224\n      jump\t// in\n    tag_223:\n        /* \"#utility.yul\":5226:5228   */\n      0x40\n        /* \"#utility.yul\":5221:5224   */\n      dup3\n        /* \"#utility.yul\":5217:5229   */\n      add\n        /* \"#utility.yul\":5210:5229   */\n      swap1\n      pop\n        /* \"#utility.yul\":4869:5235   */\n      swap2\n      swap1\n      pop\n      jump\t// out\n        /* \"#utility.yul\":5241:5607   */\n    tag_225:\n        /* \"#utility.yul\":5383:5386   */\n      0x00\n        /* \"#utility.yul\":5404:5471   */\n      tag_227\n        /* \"#utility.yul\":5468:5470   */\n      0x27\n        /* \"#utility.yul\":5463:5466   */\n      dup4\n        /* \"#utility.yul\":5404:5471   */\n      tag_182\n      jump\t// in\n    tag_227:\n        /* \"#utility.yul\":5397:5471   */\n      swap2\n      pop\n        /* \"#utility.yul\":5480:5573   */\n      tag_228\n        /* \"#utility.yul\":5569:5572   */\n      dup3\n        /* \"#utility.yul\":5480:5573   */\n      tag_229\n      jump\t// in\n    tag_228:\n        /* \"#utility.yul\":5598:5600   */\n      0x40\n        /* \"#utility.yul\":5593:5596   */\n      dup3\n        /* \"#utility.yul\":5589:5601   */\n      add\n        /* \"#utility.yul\":5582:5601   */\n      swap1\n      pop\n        /* \"#utility.yul\":5241:5607   */\n      swap2\n      swap1\n      pop\n      jump\t// out\n        /* \"#utility.yul\":5613:5979   */\n    tag_230:\n        /* \"#utility.yul\":5755:5758   */\n      0x00\n        /* \"#utility.yul\":5776:5843   */\n      tag_232\n        /* \"#utility.yul\":5840:5842   */\n      0x24\n        /* \"#utility.yul\":5835:5838   */\n      dup4\n        /* \"#utility.yul\":5776:5843   */\n      tag_182\n      jump\t// in\n    tag_232:\n        /* \"#utility.yul\":5769:5843   */\n      swap2\n      pop\n        /* \"#utility.yul\":5852:5945   */\n      tag_233\n        /* \"#utility.yul\":5941:5944   */\n      dup3\n        /* \"#utility.yul\":5852:5945   */\n      tag_234\n      jump\t// in\n    tag_233:\n        /* \"#utility.yul\":5970:5972   */\n      0x40\n        /* \"#utility.yul\":5965:5968   */\n      dup3\n        /* \"#utility.yul\":5961:5973   */\n      add\n        /* \"#utility.yul\":5954:5973   */\n      swap1\n      pop\n        /* \"#utility.yul\":5613:5979   */\n      swap2\n      swap1\n      pop\n      jump\t// out\n        /* \"#utility.yul\":5985:6103   */\n    tag_235:\n        /* \"#utility.yul\":6072:6096   */\n      tag_237\n        /* \"#utility.yul\":6090:6095   */\n      dup2\n        /* \"#utility.yul\":6072:6096   */\n      tag_238\n      jump\t// in\n    tag_237:\n        /* \"#utility.yul\":6067:6070   */\n      dup3\n        /* \"#utility.yul\":6060:6097   */\n      mstore\n        /* \"#utility.yul\":5985:6103   */\n      pop\n      pop\n      jump\t// out\n        /* \"#utility.yul\":6109:6331   */\n    tag_50:\n        /* \"#utility.yul\":6202:6206   */\n      0x00\n        /* \"#utility.yul\":6240:6242   */\n      0x20\n        /* \"#utility.yul\":6229:6238   */\n      dup3\n        /* \"#utility.yul\":6225:6243   */\n      add\n        /* \"#utility.yul\":6217:6243   */\n      swap1\n      pop\n        /* \"#utility.yul\":6253:6324   */\n      tag_240\n        /* \"#utility.yul\":6321:6322   */\n      0x00\n        /* \"#utility.yul\":6310:6319   */\n      dup4\n        /* \"#utility.yul\":6306:6323   */\n      add\n        /* \"#utility.yul\":6297:6303   */\n      dup5\n        /* \"#utility.yul\":6253:6324   */\n      tag_175\n      jump\t// in\n    tag_240:\n        /* \"#utility.yul\":6109:6331   */\n      swap3\n      swap2\n      pop\n      pop\n      jump\t// out\n        /* \"#utility.yul\":6337:6756   */\n    tag_75:\n        /* \"#utility.yul\":6503:6507   */\n      0x00\n        /* \"#utility.yul\":6541:6543   */\n      0x20\n        /* \"#utility.yul\":6530:6539   */\n      dup3\n        /* \"#utility.yul\":6526:6544   */\n      add\n        /* \"#utility.yul\":6518:6544   */\n      swap1\n      pop\n        /* \"#utility.yul\":6590:6599   */\n      dup2\n        /* \"#utility.yul\":6584:6588   */\n      dup2\n        /* \"#utility.yul\":6580:6600   */\n      sub\n        /* \"#utility.yul\":6576:6577   */\n      0x00\n        /* \"#utility.yul\":6565:6574   */\n      dup4\n        /* \"#utility.yul\":6561:6578   */\n      add\n        /* \"#utility.yul\":6554:6601   */\n      mstore\n        /* \"#utility.yul\":6618:6749   */\n      tag_242\n        /* \"#utility.yul\":6744:6748   */\n      dup2\n        /* \"#utility.yul\":6618:6749   */\n      tag_179\n      jump\t// in\n    tag_242:\n        /* \"#utility.yul\":6610:6749   */\n      swap1\n      pop\n        /* \"#utility.yul\":6337:6756   */\n      swap2\n      swap1\n      pop\n      jump\t// out\n        /* \"#utility.yul\":6762:7181   */\n    tag_133:\n        /* \"#utility.yul\":6928:6932   */\n      0x00\n        /* \"#utility.yul\":6966:6968   */\n      0x20\n        /* \"#utility.yul\":6955:6964   */\n      dup3\n        /* \"#utility.yul\":6951:6969   */\n      add\n        /* \"#utility.yul\":6943:6969   */\n      swap1\n      pop\n        /* \"#utility.yul\":7015:7024   */\n      dup2\n        /* \"#utility.yul\":7009:7013   */\n      dup2\n        /* \"#utility.yul\":7005:7025   */\n      sub\n        /* \"#utility.yul\":7001:7002   */\n      0x00\n        /* \"#utility.yul\":6990:6999   */\n      dup4\n        /* \"#utility.yul\":6986:7003   */\n      add\n        /* \"#utility.yul\":6979:7026   */\n      mstore\n        /* \"#utility.yul\":7043:7174   */\n      tag_244\n        /* \"#utility.yul\":7169:7173   */\n      dup2\n        /* \"#utility.yul\":7043:7174   */\n      tag_185\n      jump\t// in\n    tag_244:\n        /* \"#utility.yul\":7035:7174   */\n      swap1\n      pop\n        /* \"#utility.yul\":6762:7181   */\n      swap2\n      swap1\n      pop\n      jump\t// out\n        /* \"#utility.yul\":7187:7606   */\n    tag_117:\n        /* \"#utility.yul\":7353:7357   */\n      0x00\n        /* \"#utility.yul\":7391:7393   */\n      0x20\n        /* \"#utility.yul\":7380:7389   */\n      dup3\n        /* \"#utility.yul\":7376:7394   */\n      add\n        /* \"#utility.yul\":7368:7394   */\n      swap1\n      pop\n        /* \"#utility.yul\":7440:7449   */\n      dup2\n        /* \"#utility.yul\":7434:7438   */\n      dup2\n        /* \"#utility.yul\":7430:7450   */\n      sub\n        /* \"#utility.yul\":7426:7427   */\n      0x00\n        /* \"#utility.yul\":7415:7424   */\n      dup4\n        /* \"#utility.yul\":7411:7428   */\n      add\n        /* \"#utility.yul\":7404:7451   */\n      mstore\n        /* \"#utility.yul\":7468:7599   */\n      tag_246\n        /* \"#utility.yul\":7594:7598   */\n      dup2\n        /* \"#utility.yul\":7468:7599   */\n      tag_190\n      jump\t// in\n    tag_246:\n        /* \"#utility.yul\":7460:7599   */\n      swap1\n      pop\n        /* \"#utility.yul\":7187:7606   */\n      swap2\n      swap1\n      pop\n      jump\t// out\n        /* \"#utility.yul\":7612:8031   */\n    tag_72:\n        /* \"#utility.yul\":7778:7782   */\n      0x00\n        /* \"#utility.yul\":7816:7818   */\n      0x20\n        /* \"#utility.yul\":7805:7814   */\n      dup3\n        /* \"#utility.yul\":7801:7819   */\n      add\n        /* \"#utility.yul\":7793:7819   */\n      swap1\n      pop\n        /* \"#utility.yul\":7865:7874   */\n      dup2\n        /* \"#utility.yul\":7859:7863   */\n      dup2\n        /* \"#utility.yul\":7855:7875   */\n      sub\n        /* \"#utility.yul\":7851:7852   */\n      0x00\n        /* \"#utility.yul\":7840:7849   */\n      dup4\n        /* \"#utility.yul\":7836:7853   */\n      add\n        /* \"#utility.yul\":7829:7876   */\n      mstore\n        /* \"#utility.yul\":7893:8024   */\n      tag_248\n        /* \"#utility.yul\":8019:8023   */\n      dup2\n        /* \"#utility.yul\":7893:8024   */\n      tag_195\n      jump\t// in\n    tag_248:\n        /* \"#utility.yul\":7885:8024   */\n      swap1\n      pop\n        /* \"#utility.yul\":7612:8031   */\n      swap2\n      swap1\n      pop\n      jump\t// out\n        /* \"#utility.yul\":8037:8456   */\n    tag_90:\n        /* \"#utility.yul\":8203:8207   */\n      0x00\n        /* \"#utility.yul\":8241:8243   */\n      0x20\n        /* \"#utility.yul\":8230:8239   */\n      dup3\n        /* \"#utility.yul\":8226:8244   */\n      add\n        /* \"#utility.yul\":8218:8244   */\n      swap1\n      pop\n        /* \"#utility.yul\":8290:8299   */\n      dup2\n        /* \"#utility.yul\":8284:8288   */\n      dup2\n        /* \"#utility.yul\":8280:8300   */\n      sub\n        /* \"#utility.yul\":8276:8277   */\n      0x00\n        /* \"#utility.yul\":8265:8274   */\n      dup4\n        /* \"#utility.yul\":8261:8278   */\n      add\n        /* \"#utility.yul\":8254:8301   */\n      mstore\n        /* \"#utility.yul\":8318:8449   */\n      tag_250\n        /* \"#utility.yul\":8444:8448   */\n      dup2\n        /* \"#utility.yul\":8318:8449   */\n      tag_200\n      jump\t// in\n    tag_250:\n        /* \"#utility.yul\":8310:8449   */\n      swap1\n      pop\n        /* \"#utility.yul\":8037:8456   */\n      swap2\n      swap1\n      pop\n      jump\t// out\n        /* \"#utility.yul\":8462:8881   */\n    tag_78:\n        /* \"#utility.yul\":8628:8632   */\n      0x00\n        /* \"#utility.yul\":8666:8668   */\n      0x20\n        /* \"#utility.yul\":8655:8664   */\n      dup3\n        /* \"#utility.yul\":8651:8669   */\n      add\n        /* \"#utility.yul\":8643:8669   */\n      swap1\n      pop\n        /* \"#utility.yul\":8715:8724   */\n      dup2\n        /* \"#utility.yul\":8709:8713   */\n      dup2\n        /* \"#utility.yul\":8705:8725   */\n      sub\n        /* \"#utility.yul\":8701:8702   */\n      0x00\n        /* \"#utility.yul\":8690:8699   */\n      dup4\n        /* \"#utility.yul\":8686:8703   */\n      add\n        /* \"#utility.yul\":8679:8726   */\n      mstore\n        /* \"#utility.yul\":8743:8874   */\n      tag_252\n        /* \"#utility.yul\":8869:8873   */\n      dup2\n        /* \"#utility.yul\":8743:8874   */\n      tag_205\n      jump\t// in\n    tag_252:\n        /* \"#utility.yul\":8735:8874   */\n      swap1\n      pop\n        /* \"#utility.yul\":8462:8881   */\n      swap2\n      swap1\n      pop\n      jump\t// out\n        /* \"#utility.yul\":8887:9306   */\n    tag_144:\n        /* \"#utility.yul\":9053:9057   */\n      0x00\n        /* \"#utility.yul\":9091:9093   */\n      0x20\n        /* \"#utility.yul\":9080:9089   */\n      dup3\n        /* \"#utility.yul\":9076:9094   */\n      add\n        /* \"#utility.yul\":9068:9094   */\n      swap1\n      pop\n        /* \"#utility.yul\":9140:9149   */\n      dup2\n        /* \"#utility.yul\":9134:9138   */\n      dup2\n        /* \"#utility.yul\":9130:9150   */\n      sub\n        /* \"#utility.yul\":9126:9127   */\n      0x00\n        /* \"#utility.yul\":9115:9124   */\n      dup4\n        /* \"#utility.yul\":9111:9128   */\n      add\n        /* \"#utility.yul\":9104:9151   */\n      mstore\n        /* \"#utility.yul\":9168:9299   */\n      tag_254\n        /* \"#utility.yul\":9294:9298   */\n      dup2\n        /* \"#utility.yul\":9168:9299   */\n      tag_210\n      jump\t// in\n    tag_254:\n        /* \"#utility.yul\":9160:9299   */\n      swap1\n      pop\n        /* \"#utility.yul\":8887:9306   */\n      swap2\n      swap1\n      pop\n      jump\t// out\n        /* \"#utility.yul\":9312:9731   */\n    tag_104:\n        /* \"#utility.yul\":9478:9482   */\n      0x00\n        /* \"#utility.yul\":9516:9518   */\n      0x20\n        /* \"#utility.yul\":9505:9514   */\n      dup3\n        /* \"#utility.yul\":9501:9519   */\n      add\n        /* \"#utility.yul\":9493:9519   */\n      swap1\n      pop\n        /* \"#utility.yul\":9565:9574   */\n      dup2\n        /* \"#utility.yul\":9559:9563   */\n      dup2\n        /* \"#utility.yul\":9555:9575   */\n      sub\n        /* \"#utility.yul\":9551:9552   */\n      0x00\n        /* \"#utility.yul\":9540:9549   */\n      dup4\n        /* \"#utility.yul\":9536:9553   */\n      add\n        /* \"#utility.yul\":9529:9576   */\n      mstore\n        /* \"#utility.yul\":9593:9724   */\n      tag_256\n        /* \"#utility.yul\":9719:9723   */\n      dup2\n        /* \"#utility.yul\":9593:9724   */\n      tag_215\n      jump\t// in\n    tag_256:\n        /* \"#utility.yul\":9585:9724   */\n      swap1\n      pop\n        /* \"#utility.yul\":9312:9731   */\n      swap2\n      swap1\n      pop\n      jump\t// out\n        /* \"#utility.yul\":9737:10156   */\n    tag_124:\n        /* \"#utility.yul\":9903:9907   */\n      0x00\n        /* \"#utility.yul\":9941:9943   */\n      0x20\n        /* \"#utility.yul\":9930:9939   */\n      dup3\n        /* \"#utility.yul\":9926:9944   */\n      add\n        /* \"#utility.yul\":9918:9944   */\n      swap1\n      pop\n        /* \"#utility.yul\":9990:9999   */\n      dup2\n        /* \"#utility.yul\":9984:9988   */\n      dup2\n        /* \"#utility.yul\":9980:10000   */\n      sub\n        /* \"#utility.yul\":9976:9977   */\n      0x00\n        /* \"#utility.yul\":9965:9974   */\n      dup4\n        /* \"#utility.yul\":9961:9978   */\n      add\n        /* \"#utility.yul\":9954:10001   */\n      mstore\n        /* \"#utility.yul\":10018:10149   */\n      tag_258\n        /* \"#utility.yul\":10144:10148   */\n      dup2\n        /* \"#utility.yul\":10018:10149   */\n      tag_220\n      jump\t// in\n    tag_258:\n        /* \"#utility.yul\":10010:10149   */\n      swap1\n      pop\n        /* \"#utility.yul\":9737:10156   */\n      swap2\n      swap1\n      pop\n      jump\t// out\n        /* \"#utility.yul\":10162:10581   */\n    tag_111:\n        /* \"#utility.yul\":10328:10332   */\n      0x00\n        /* \"#utility.yul\":10366:10368   */\n      0x20\n        /* \"#utility.yul\":10355:10364   */\n      dup3\n        /* \"#utility.yul\":10351:10369   */\n      add\n        /* \"#utility.yul\":10343:10369   */\n      swap1\n      pop\n        /* \"#utility.yul\":10415:10424   */\n      dup2\n        /* \"#utility.yul\":10409:10413   */\n      dup2\n        /* \"#utility.yul\":10405:10425   */\n      sub\n        /* \"#utility.yul\":10401:10402   */\n      0x00\n        /* \"#utility.yul\":10390:10399   */\n      dup4\n        /* \"#utility.yul\":10386:10403   */\n      add\n        /* \"#utility.yul\":10379:10426   */\n      mstore\n        /* \"#utility.yul\":10443:10574   */\n      tag_260\n        /* \"#utility.yul\":10569:10573   */\n      dup2\n        /* \"#utility.yul\":10443:10574   */\n      tag_225\n      jump\t// in\n    tag_260:\n        /* \"#utility.yul\":10435:10574   */\n      swap1\n      pop\n        /* \"#utility.yul\":10162:10581   */\n      swap2\n      swap1\n      pop\n      jump\t// out\n        /* \"#utility.yul\":10587:11006   */\n    tag_107:\n        /* \"#utility.yul\":10753:10757   */\n      0x00\n        /* \"#utility.yul\":10791:10793   */\n      0x20\n        /* \"#utility.yul\":10780:10789   */\n      dup3\n        /* \"#utility.yul\":10776:10794   */\n      add\n        /* \"#utility.yul\":10768:10794   */\n      swap1\n      pop\n        /* \"#utility.yul\":10840:10849   */\n      dup2\n        /* \"#utility.yul\":10834:10838   */\n      dup2\n        /* \"#utility.yul\":10830:10850   */\n      sub\n        /* \"#utility.yul\":10826:10827   */\n      0x00\n        /* \"#utility.yul\":10815:10824   */\n      dup4\n        /* \"#utility.yul\":10811:10828   */\n      add\n        /* \"#utility.yul\":10804:10851   */\n      mstore\n        /* \"#utility.yul\":10868:10999   */\n      tag_262\n        /* \"#utility.yul\":10994:10998   */\n      dup2\n        /* \"#utility.yul\":10868:10999   */\n      tag_230\n      jump\t// in\n    tag_262:\n        /* \"#utility.yul\":10860:10999   */\n      swap1\n      pop\n        /* \"#utility.yul\":10587:11006   */\n      swap2\n      swap1\n      pop\n      jump\t// out\n        /* \"#utility.yul\":11012:11234   */\n    tag_24:\n        /* \"#utility.yul\":11105:11109   */\n      0x00\n        /* \"#utility.yul\":11143:11145   */\n      0x20\n        /* \"#utility.yul\":11132:11141   */\n      dup3\n        /* \"#utility.yul\":11128:11146   */\n      add\n        /* \"#utility.yul\":11120:11146   */\n      swap1\n      pop\n        /* \"#utility.yul\":11156:11227   */\n      tag_264\n        /* \"#utility.yul\":11224:11225   */\n      0x00\n        /* \"#utility.yul\":11213:11222   */\n      dup4\n        /* \"#utility.yul\":11209:11226   */\n      add\n        /* \"#utility.yul\":11200:11206   */\n      dup5\n        /* \"#utility.yul\":11156:11227   */\n      tag_235\n      jump\t// in\n    tag_264:\n        /* \"#utility.yul\":11012:11234   */\n      swap3\n      swap2\n      pop\n      pop\n      jump\t// out\n        /* \"#utility.yul\":11240:11572   */\n    tag_57:\n        /* \"#utility.yul\":11361:11365   */\n      0x00\n        /* \"#utility.yul\":11399:11401   */\n      0x40\n        /* \"#utility.yul\":11388:11397   */\n      dup3\n        /* \"#utility.yul\":11384:11402   */\n      add\n        /* \"#utility.yul\":11376:11402   */\n      swap1\n      pop\n        /* \"#utility.yul\":11412:11483   */\n      tag_266\n        /* \"#utility.yul\":11480:11481   */\n      0x00\n        /* \"#utility.yul\":11469:11478   */\n      dup4\n        /* \"#utility.yul\":11465:11482   */\n      add\n        /* \"#utility.yul\":11456:11462   */\n      dup6\n        /* \"#utility.yul\":11412:11483   */\n      tag_235\n      jump\t// in\n    tag_266:\n        /* \"#utility.yul\":11493:11565   */\n      tag_267\n        /* \"#utility.yul\":11561:11563   */\n      0x20\n        /* \"#utility.yul\":11550:11559   */\n      dup4\n        /* \"#utility.yul\":11546:11564   */\n      add\n        /* \"#utility.yul\":11537:11543   */\n      dup5\n        /* \"#utility.yul\":11493:11565   */\n      tag_235\n      jump\t// in\n    tag_267:\n        /* \"#utility.yul\":11240:11572   */\n      swap4\n      swap3\n      pop\n      pop\n      pop\n      jump\t// out\n        /* \"#utility.yul\":11659:11828   */\n    tag_182:\n        /* \"#utility.yul\":11743:11754   */\n      0x00\n        /* \"#utility.yul\":11777:11783   */\n      dup3\n        /* \"#utility.yul\":11772:11775   */\n      dup3\n        /* \"#utility.yul\":11765:11784   */\n      mstore\n        /* \"#utility.yul\":11817:11821   */\n      0x20\n        /* \"#utility.yul\":11812:11815   */\n      dup3\n        /* \"#utility.yul\":11808:11822   */\n      add\n        /* \"#utility.yul\":11793:11822   */\n      swap1\n      pop\n        /* \"#utility.yul\":11659:11828   */\n      swap3\n      swap2\n      pop\n      pop\n      jump\t// out\n        /* \"#utility.yul\":11834:12139   */\n    tag_80:\n        /* \"#utility.yul\":11874:11877   */\n      0x00\n        /* \"#utility.yul\":11893:11913   */\n      tag_272\n        /* \"#utility.yul\":11911:11912   */\n      dup3\n        /* \"#utility.yul\":11893:11913   */\n      tag_238\n      jump\t// in\n    tag_272:\n        /* \"#utility.yul\":11888:11913   */\n      swap2\n      pop\n        /* \"#utility.yul\":11927:11947   */\n      tag_273\n        /* \"#utility.yul\":11945:11946   */\n      dup4\n        /* \"#utility.yul\":11927:11947   */\n      tag_238\n      jump\t// in\n    tag_273:\n        /* \"#utility.yul\":11922:11947   */\n      swap3\n      pop\n        /* \"#utility.yul\":12081:12082   */\n      dup3\n        /* \"#utility.yul\":12013:12079   */\n      0xffffffffffffffffffffffffffffffffffffffffffffffffffffffffffffffff\n        /* \"#utility.yul\":12009:12083   */\n      sub\n        /* \"#utility.yul\":12006:12007   */\n      dup3\n        /* \"#utility.yul\":12003:12084   */\n      gt\n        /* \"#utility.yul\":12000:12107   */\n      iszero\n      tag_274\n      jumpi\n        /* \"#utility.yul\":12087:12105   */\n      tag_275\n      tag_276\n      jump\t// in\n    tag_275:\n        /* \"#utility.yul\":12000:12107   */\n    tag_274:\n        /* \"#utility.yul\":12131:12132   */\n      dup3\n        /* \"#utility.yul\":12128:12129   */\n      dup3\n        /* \"#utility.yul\":12124:12133   */\n      add\n        /* \"#utility.yul\":12117:12133   */\n      swap1\n      pop\n        /* \"#utility.yul\":11834:12139   */\n      swap3\n      swap2\n      pop\n      pop\n      jump\t// out\n        /* \"#utility.yul\":12145:12330   */\n    tag_84:\n        /* \"#utility.yul\":12185:12186   */\n      0x00\n        /* \"#utility.yul\":12202:12222   */\n      tag_278\n        /* \"#utility.yul\":12220:12221   */\n      dup3\n        /* \"#utility.yul\":12202:12222   */\n      tag_238\n      jump\t// in\n    tag_278:\n        /* \"#utility.yul\":12197:12222   */\n      swap2\n      pop\n        /* \"#utility.yul\":12236:12256   */\n      tag_279\n        /* \"#utility.yul\":12254:12255   */\n      dup4\n        /* \"#utility.yul\":12236:12256   */\n      tag_238\n      jump\t// in\n    tag_279:\n        /* \"#utility.yul\":12231:12256   */\n      swap3\n      pop\n        /* \"#utility.yul\":12275:12276   */\n      dup3\n        /* \"#utility.yul\":12265:12300   */\n      tag_280\n      jumpi\n        /* \"#utility.yul\":12280:12298   */\n      tag_281\n      tag_282\n      jump\t// in\n    tag_281:\n        /* \"#utility.yul\":12265:12300   */\n    tag_280:\n        /* \"#utility.yul\":12322:12323   */\n      dup3\n        /* \"#utility.yul\":12319:12320   */\n      dup3\n        /* \"#utility.yul\":12315:12324   */\n      div\n        /* \"#utility.yul\":12310:12324   */\n      swap1\n      pop\n        /* \"#utility.yul\":12145:12330   */\n      swap3\n      swap2\n      pop\n      pop\n      jump\t// out\n        /* \"#utility.yul\":12336:12684   */\n    tag_82:\n        /* \"#utility.yul\":12376:12383   */\n      0x00\n        /* \"#utility.yul\":12399:12419   */\n      tag_284\n        /* \"#utility.yul\":12417:12418   */\n      dup3\n        /* \"#utility.yul\":12399:12419   */\n      tag_238\n      jump\t// in\n    tag_284:\n        /* \"#utility.yul\":12394:12419   */\n      swap2\n      pop\n        /* \"#utility.yul\":12433:12453   */\n      tag_285\n        /* \"#utility.yul\":12451:12452   */\n      dup4\n        /* \"#utility.yul\":12433:12453   */\n      tag_238\n      jump\t// in\n    tag_285:\n        /* \"#utility.yul\":12428:12453   */\n      swap3\n      pop\n        /* \"#utility.yul\":12621:12622   */\n      dup2\n        /* \"#utility.yul\":12553:12619   */\n      0xffffffffffffffffffffffffffffffffffffffffffffffffffffffffffffffff\n        /* \"#utility.yul\":12549:12623   */\n      div\n        /* \"#utility.yul\":12546:12547   */\n      dup4\n        /* \"#utility.yul\":12543:12624   */\n      gt\n        /* \"#utility.yul\":12538:12539   */\n      dup3\n        /* \"#utility.yul\":12531:12540   */\n      iszero\n        /* \"#utility.yul\":12524:12541   */\n      iszero\n        /* \"#utility.yul\":12520:12625   */\n      and\n        /* \"#utility.yul\":12517:12648   */\n      iszero\n      tag_286\n      jumpi\n        /* \"#utility.yul\":12628:12646   */\n      tag_287\n      tag_276\n      jump\t// in\n    tag_287:\n        /* \"#utility.yul\":12517:12648   */\n    tag_286:\n        /* \"#utility.yul\":12676:12677   */\n      dup3\n        /* \"#utility.yul\":12673:12674   */\n      dup3\n        /* \"#utility.yul\":12669:12678   */\n      mul\n        /* \"#utility.yul\":12658:12678   */\n      swap1\n      pop\n        /* \"#utility.yul\":12336:12684   */\n      swap3\n      swap2\n      pop\n      pop\n      jump\t// out\n        /* \"#utility.yul\":12690:12881   */\n    tag_87:\n        /* \"#utility.yul\":12730:12734   */\n      0x00\n        /* \"#utility.yul\":12750:12770   */\n      tag_289\n        /* \"#utility.yul\":12768:12769   */\n      dup3\n        /* \"#utility.yul\":12750:12770   */\n      tag_238\n      jump\t// in\n    tag_289:\n        /* \"#utility.yul\":12745:12770   */\n      swap2\n      pop\n        /* \"#utility.yul\":12784:12804   */\n      tag_290\n        /* \"#utility.yul\":12802:12803   */\n      dup4\n        /* \"#utility.yul\":12784:12804   */\n      tag_238\n      jump\t// in\n    tag_290:\n        /* \"#utility.yul\":12779:12804   */\n      swap3\n      pop\n        /* \"#utility.yul\":12823:12824   */\n      dup3\n        /* \"#utility.yul\":12820:12821   */\n      dup3\n        /* \"#utility.yul\":12817:12825   */\n      lt\n        /* \"#utility.yul\":12814:12848   */\n      iszero\n      tag_291\n      jumpi\n        /* \"#utility.yul\":12828:12846   */\n      tag_292\n      tag_276\n      jump\t// in\n    tag_292:\n        /* \"#utility.yul\":12814:12848   */\n    tag_291:\n        /* \"#utility.yul\":12873:12874   */\n      dup3\n        /* \"#utility.yul\":12870:12871   */\n      dup3\n        /* \"#utility.yul\":12866:12875   */\n      sub\n        /* \"#utility.yul\":12858:12875   */\n      swap1\n      pop\n        /* \"#utility.yul\":12690:12881   */\n      swap3\n      swap2\n      pop\n      pop\n      jump\t// out\n        /* \"#utility.yul\":12887:12983   */\n    tag_178:\n        /* \"#utility.yul\":12924:12931   */\n      0x00\n        /* \"#utility.yul\":12953:12977   */\n      tag_294\n        /* \"#utility.yul\":12971:12976   */\n      dup3\n        /* \"#utility.yul\":12953:12977   */\n      tag_295\n      jump\t// in\n    tag_294:\n        /* \"#utility.yul\":12942:12977   */\n      swap1\n      pop\n        /* \"#utility.yul\":12887:12983   */\n      swap2\n      swap1\n      pop\n      jump\t// out\n        /* \"#utility.yul\":12989:13093   */\n    tag_296:\n        /* \"#utility.yul\":13034:13041   */\n      0x00\n        /* \"#utility.yul\":13063:13087   */\n      tag_298\n        /* \"#utility.yul\":13081:13086   */\n      dup3\n        /* \"#utility.yul\":13063:13087   */\n      tag_295\n      jump\t// in\n    tag_298:\n        /* \"#utility.yul\":13052:13087   */\n      swap1\n      pop\n        /* \"#utility.yul\":12989:13093   */\n      swap2\n      swap1\n      pop\n      jump\t// out\n        /* \"#utility.yul\":13099:13225   */\n    tag_295:\n        /* \"#utility.yul\":13136:13143   */\n      0x00\n        /* \"#utility.yul\":13176:13218   */\n      0xffffffffffffffffffffffffffffffffffffffff\n        /* \"#utility.yul\":13169:13174   */\n      dup3\n        /* \"#utility.yul\":13165:13219   */\n      and\n        /* \"#utility.yul\":13154:13219   */\n      swap1\n      pop\n        /* \"#utility.yul\":13099:13225   */\n      swap2\n      swap1\n      pop\n      jump\t// out\n        /* \"#utility.yul\":13231:13308   */\n    tag_238:\n        /* \"#utility.yul\":13268:13275   */\n      0x00\n        /* \"#utility.yul\":13297:13302   */\n      dup2\n        /* \"#utility.yul\":13286:13302   */\n      swap1\n      pop\n        /* \"#utility.yul\":13231:13308   */\n      swap2\n      swap1\n      pop\n      jump\t// out\n        /* \"#utility.yul\":13314:13494   */\n    tag_276:\n        /* \"#utility.yul\":13362:13439   */\n      0x4e487b7100000000000000000000000000000000000000000000000000000000\n        /* \"#utility.yul\":13359:13360   */\n      0x00\n        /* \"#utility.yul\":13352:13440   */\n      mstore\n        /* \"#utility.yul\":13459:13463   */\n      0x11\n        /* \"#utility.yul\":13456:13457   */\n      0x04\n        /* \"#utility.yul\":13449:13464   */\n      mstore\n        /* \"#utility.yul\":13483:13487   */\n      0x24\n        /* \"#utility.yul\":13480:13481   */\n      0x00\n        /* \"#utility.yul\":13473:13488   */\n      revert\n        /* \"#utility.yul\":13500:13680   */\n    tag_282:\n        /* \"#utility.yul\":13548:13625   */\n      0x4e487b7100000000000000000000000000000000000000000000000000000000\n        /* \"#utility.yul\":13545:13546   */\n      0x00\n        /* \"#utility.yul\":13538:13626   */\n      mstore\n        /* \"#utility.yul\":13645:13649   */\n      0x12\n        /* \"#utility.yul\":13642:13643   */\n      0x04\n        /* \"#utility.yul\":13635:13650   */\n      mstore\n        /* \"#utility.yul\":13669:13673   */\n      0x24\n        /* \"#utility.yul\":13666:13667   */\n      0x00\n        /* \"#utility.yul\":13659:13674   */\n      revert\n        /* \"#utility.yul\":13809:13926   */\n    tag_163:\n        /* \"#utility.yul\":13918:13919   */\n      0x00\n        /* \"#utility.yul\":13915:13916   */\n      dup1\n        /* \"#utility.yul\":13908:13920   */\n      revert\n        /* \"#utility.yul\":13932:14159   */\n    tag_184:\n        /* \"#utility.yul\":14072:14106   */\n      0x5468657265206973206e6f206d6f6e657920696e207468652077616c6c657420\n        /* \"#utility.yul\":14068:14069   */\n      0x00\n        /* \"#utility.yul\":14060:14066   */\n      dup3\n        /* \"#utility.yul\":14056:14070   */\n      add\n        /* \"#utility.yul\":14049:14107   */\n      mstore\n        /* \"#utility.yul\":14141:14151   */\n      0x746f20636c61696d000000000000000000000000000000000000000000000000\n        /* \"#utility.yul\":14136:14138   */\n      0x20\n        /* \"#utility.yul\":14128:14134   */\n      dup3\n        /* \"#utility.yul\":14124:14139   */\n      add\n        /* \"#utility.yul\":14117:14152   */\n      mstore\n        /* \"#utility.yul\":13932:14159   */\n      pop\n      jump\t// out\n        /* \"#utility.yul\":14165:14390   */\n    tag_189:\n        /* \"#utility.yul\":14305:14339   */\n      0x4f776e61626c653a206e6577206f776e657220697320746865207a65726f2061\n        /* \"#utility.yul\":14301:14302   */\n      0x00\n        /* \"#utility.yul\":14293:14299   */\n      dup3\n        /* \"#utility.yul\":14289:14303   */\n      add\n        /* \"#utility.yul\":14282:14340   */\n      mstore\n        /* \"#utility.yul\":14374:14382   */\n      0x6464726573730000000000000000000000000000000000000000000000000000\n        /* \"#utility.yul\":14369:14371   */\n      0x20\n        /* \"#utility.yul\":14361:14367   */\n      dup3\n        /* \"#utility.yul\":14357:14372   */\n      add\n        /* \"#utility.yul\":14350:14383   */\n      mstore\n        /* \"#utility.yul\":14165:14390   */\n      pop\n      jump\t// out\n        /* \"#utility.yul\":14396:14574   */\n    tag_194:\n        /* \"#utility.yul\":14536:14566   */\n      0x63616e27742072656e6f756e63654f776e657273686970206865726500000000\n        /* \"#utility.yul\":14532:14533   */\n      0x00\n        /* \"#utility.yul\":14524:14530   */\n      dup3\n        /* \"#utility.yul\":14520:14534   */\n      add\n        /* \"#utility.yul\":14513:14567   */\n      mstore\n        /* \"#utility.yul\":14396:14574   */\n      pop\n      jump\t// out\n        /* \"#utility.yul\":14580:14810   */\n    tag_199:\n        /* \"#utility.yul\":14720:14754   */\n      0x546865206f776e65722073686f756c6420757365206f776e6572576974686472\n        /* \"#utility.yul\":14716:14717   */\n      0x00\n        /* \"#utility.yul\":14708:14714   */\n      dup3\n        /* \"#utility.yul\":14704:14718   */\n      add\n        /* \"#utility.yul\":14697:14755   */\n      mstore\n        /* \"#utility.yul\":14789:14802   */\n      0x61772066756e6374696f6e000000000000000000000000000000000000000000\n        /* \"#utility.yul\":14784:14786   */\n      0x20\n        /* \"#utility.yul\":14776:14782   */\n      dup3\n        /* \"#utility.yul\":14772:14787   */\n      add\n        /* \"#utility.yul\":14765:14803   */\n      mstore\n        /* \"#utility.yul\":14580:14810   */\n      pop\n      jump\t// out\n        /* \"#utility.yul\":14816:14988   */\n    tag_204:\n        /* \"#utility.yul\":14956:14980   */\n      0x54686520616d6f756e7420697320746f6f206869676800000000000000000000\n        /* \"#utility.yul\":14952:14953   */\n      0x00\n        /* \"#utility.yul\":14944:14950   */\n      dup3\n        /* \"#utility.yul\":14940:14954   */\n      add\n        /* \"#utility.yul\":14933:14981   */\n      mstore\n        /* \"#utility.yul\":14816:14988   */\n      pop\n      jump\t// out\n        /* \"#utility.yul\":14994:15173   */\n    tag_209:\n        /* \"#utility.yul\":15134:15165   */\n      0x596f7520646f206e6f74206861766520616e7920616c6c6f77616e6365000000\n        /* \"#utility.yul\":15130:15131   */\n      0x00\n        /* \"#utility.yul\":15122:15128   */\n      dup3\n        /* \"#utility.yul\":15118:15132   */\n      add\n        /* \"#utility.yul\":15111:15166   */\n      mstore\n        /* \"#utility.yul\":14994:15173   */\n      pop\n      jump\t// out\n        /* \"#utility.yul\":15179:15361   */\n    tag_214:\n        /* \"#utility.yul\":15319:15353   */\n      0x4f776e61626c653a2063616c6c6572206973206e6f7420746865206f776e6572\n        /* \"#utility.yul\":15315:15316   */\n      0x00\n        /* \"#utility.yul\":15307:15313   */\n      dup3\n        /* \"#utility.yul\":15303:15317   */\n      add\n        /* \"#utility.yul\":15296:15354   */\n      mstore\n        /* \"#utility.yul\":15179:15361   */\n      pop\n      jump\t// out\n        /* \"#utility.yul\":15367:15596   */\n    tag_219:\n        /* \"#utility.yul\":15507:15541   */\n      0x416e20616c6c6f77616e6365206973206e6f7420726571756972656420666f72\n        /* \"#utility.yul\":15503:15504   */\n      0x00\n        /* \"#utility.yul\":15495:15501   */\n      dup3\n        /* \"#utility.yul\":15491:15505   */\n      add\n        /* \"#utility.yul\":15484:15542   */\n      mstore\n        /* \"#utility.yul\":15576:15588   */\n      0x20746865206f776e657200000000000000000000000000000000000000000000\n        /* \"#utility.yul\":15571:15573   */\n      0x20\n        /* \"#utility.yul\":15563:15569   */\n      dup3\n        /* \"#utility.yul\":15559:15574   */\n      add\n        /* \"#utility.yul\":15552:15589   */\n      mstore\n        /* \"#utility.yul\":15367:15596   */\n      pop\n      jump\t// out\n        /* \"#utility.yul\":15602:15827   */\n    tag_224:\n        /* \"#utility.yul\":15742:15776   */\n      0x416d6f756e74206973206c6172676572207468616e20636f6e74726163742062\n        /* \"#utility.yul\":15738:15739   */\n      0x00\n        /* \"#utility.yul\":15730:15736   */\n      dup3\n        /* \"#utility.yul\":15726:15740   */\n      add\n        /* \"#utility.yul\":15719:15777   */\n      mstore\n        /* \"#utility.yul\":15811:15819   */\n      0x616c616e63650000000000000000000000000000000000000000000000000000\n        /* \"#utility.yul\":15806:15808   */\n      0x20\n        /* \"#utility.yul\":15798:15804   */\n      dup3\n        /* \"#utility.yul\":15794:15809   */\n      add\n        /* \"#utility.yul\":15787:15820   */\n      mstore\n        /* \"#utility.yul\":15602:15827   */\n      pop\n      jump\t// out\n        /* \"#utility.yul\":15833:16059   */\n    tag_229:\n        /* \"#utility.yul\":15973:16007   */\n      0x5468697320776f756c64206f7665722d616c6c6f636174652074686520616c6c\n        /* \"#utility.yul\":15969:15970   */\n      0x00\n        /* \"#utility.yul\":15961:15967   */\n      dup3\n        /* \"#utility.yul\":15957:15971   */\n      add\n        /* \"#utility.yul\":15950:16008   */\n      mstore\n        /* \"#utility.yul\":16042:16051   */\n      0x6f77616e63657300000000000000000000000000000000000000000000000000\n        /* \"#utility.yul\":16037:16039   */\n      0x20\n        /* \"#utility.yul\":16029:16035   */\n      dup3\n        /* \"#utility.yul\":16025:16040   */\n      add\n        /* \"#utility.yul\":16018:16052   */\n      mstore\n        /* \"#utility.yul\":15833:16059   */\n      pop\n      jump\t// out\n        /* \"#utility.yul\":16065:16288   */\n    tag_234:\n        /* \"#utility.yul\":16205:16239   */\n      0x546865206164647265737320616c72656164792068617320616e20616c6c6f77\n        /* \"#utility.yul\":16201:16202   */\n      0x00\n        /* \"#utility.yul\":16193:16199   */\n      dup3\n        /* \"#utility.yul\":16189:16203   */\n      add\n        /* \"#utility.yul\":16182:16240   */\n      mstore\n        /* \"#utility.yul\":16274:16280   */\n      0x616e636500000000000000000000000000000000000000000000000000000000\n        /* \"#utility.yul\":16269:16271   */\n      0x20\n        /* \"#utility.yul\":16261:16267   */\n      dup3\n        /* \"#utility.yul\":16257:16272   */\n      add\n        /* \"#utility.yul\":16250:16281   */\n      mstore\n        /* \"#utility.yul\":16065:16288   */\n      pop\n      jump\t// out\n        /* \"#utility.yul\":16294:16416   */\n    tag_151:\n        /* \"#utility.yul\":16367:16391   */\n      tag_318\n        /* \"#utility.yul\":16385:16390   */\n      dup2\n        /* \"#utility.yul\":16367:16391   */\n      tag_178\n      jump\t// in\n    tag_318:\n        /* \"#utility.yul\":16360:16365   */\n      dup2\n        /* \"#utility.yul\":16357:16392   */\n      eq\n        /* \"#utility.yul\":16347:16410   */\n      tag_319\n      jumpi\n        /* \"#utility.yul\":16406:16407   */\n      0x00\n        /* \"#utility.yul\":16403:16404   */\n      dup1\n        /* \"#utility.yul\":16396:16408   */\n      revert\n        /* \"#utility.yul\":16347:16410   */\n    tag_319:\n        /* \"#utility.yul\":16294:16416   */\n      pop\n      jump\t// out\n        /* \"#utility.yul\":16422:16560   */\n    tag_155:\n        /* \"#utility.yul\":16503:16535   */\n      tag_321\n        /* \"#utility.yul\":16529:16534   */\n      dup2\n        /* \"#utility.yul\":16503:16535   */\n      tag_296\n      jump\t// in\n    tag_321:\n        /* \"#utility.yul\":16496:16501   */\n      dup2\n        /* \"#utility.yul\":16493:16536   */\n      eq\n        /* \"#utility.yul\":16483:16554   */\n      tag_322\n      jumpi\n        /* \"#utility.yul\":16550:16551   */\n      0x00\n        /* \"#utility.yul\":16547:16548   */\n      dup1\n        /* \"#utility.yul\":16540:16552   */\n      revert\n        /* \"#utility.yul\":16483:16554   */\n    tag_322:\n        /* \"#utility.yul\":16422:16560   */\n      pop\n      jump\t// out\n        /* \"#utility.yul\":16566:16688   */\n    tag_159:\n        /* \"#utility.yul\":16639:16663   */\n      tag_324\n        /* \"#utility.yul\":16657:16662   */\n      dup2\n        /* \"#utility.yul\":16639:16663   */\n      tag_238\n      jump\t// in\n    tag_324:\n        /* \"#utility.yul\":16632:16637   */\n      dup2\n        /* \"#utility.yul\":16629:16664   */\n      eq\n        /* \"#utility.yul\":16619:16682   */\n      tag_325\n      jumpi\n        /* \"#utility.yul\":16678:16679   */\n      0x00\n        /* \"#utility.yul\":16675:16676   */\n      dup1\n        /* \"#utility.yul\":16668:16680   */\n      revert\n        /* \"#utility.yul\":16619:16682   */\n    tag_325:\n        /* \"#utility.yul\":16566:16688   */\n      pop\n      jump\t// out\n\n    auxdata: 0xa26469706673582212209369abd9e017cbeb90b01823f53f6de083711f5885ab7273f3c130c85133c04564736f6c63430008070033\n}\n",
				"bytecode": {
					"linkReferences": {},
					"object": "608060405234801561001057600080fd5b5061002d61002261003260201b60201c565b61003a60201b60201c565b6100fe565b600033905090565b60008060009054906101000a900473ffffffffffffffffffffffffffffffffffffffff169050816000806101000a81548173ffffffffffffffffffffffffffffffffffffffff021916908373ffffffffffffffffffffffffffffffffffffffff1602179055508173ffffffffffffffffffffffffffffffffffffffff168173ffffffffffffffffffffffffffffffffffffffff167f8be0079c531659141344cd1fd0a4f28419497f9722a3daafe3b4186f6b6457e060405160405180910390a35050565b6114738061010d6000396000f3fe6080604052600436106100a05760003560e01c8063715018a611610064578063715018a6146101665780638b7afe2e1461017d5780638da5cb5b146101a8578063a87430ba146101d3578063d9c88e1414610211578063f2fde38b1461023a576100af565b806305737314146100b457806316a51305146100be5780632d70db2f146100e95780633e7279a31461011257806341c613831461013b576100af565b366100af576100ad610263565b005b600080fd5b6100bc610263565b005b3480156100ca57600080fd5b506100d361026c565b6040516100e09190610f10565b60405180910390f35b3480156100f557600080fd5b50610110600480360381019061010b9190610b76565b610272565b005b34801561011e57600080fd5b5061013960048036038101906101349190610bb6565b610603565b005b34801561014757600080fd5b506101506107bb565b60405161015d9190610f10565b60405180910390f35b34801561017257600080fd5b5061017b6107c1565b005b34801561018957600080fd5b50610192610804565b60405161019f9190610f10565b60405180910390f35b3480156101b457600080fd5b506101bd61080a565b6040516101ca9190610d95565b60405180910390f35b3480156101df57600080fd5b506101fa60048036038101906101f59190610b49565b610833565b604051610208929190610f2b565b60405180910390f35b34801561021d57600080fd5b5061023860048036038101906102339190610b76565b610857565b005b34801561024657600080fd5b50610261600480360381019061025c9190610b49565b6108ff565b005b47600481905550565b60025481565b61027a610983565b156102ba576040517f08c379a00000000000000000000000000000000000000000000000000000000081526004016102b190610e10565b60405180910390fd5b600047116102fd576040517f08c379a00000000000000000000000000000000000000000000000000000000081526004016102f490610db0565b60405180910390fd5b6000600160003373ffffffffffffffffffffffffffffffffffffffff1673ffffffffffffffffffffffffffffffffffffffff1681526020019081526020016000206000015411610382576040517f08c379a000000000000000000000000000000000000000000000000000000000815260040161037990610e50565b60405180910390fd5b60006064600354476103949190610f65565b600160003373ffffffffffffffffffffffffffffffffffffffff1673ffffffffffffffffffffffffffffffffffffffff168152602001908152602001600020600001546103e19190610fec565b6103eb9190610fbb565b90506000600160003373ffffffffffffffffffffffffffffffffffffffff1673ffffffffffffffffffffffffffffffffffffffff1681526020019081526020016000206001015482111561048a57600160003373ffffffffffffffffffffffffffffffffffffffff1673ffffffffffffffffffffffffffffffffffffffff16815260200190815260200160002060010154826104879190611046565b90505b808311156104cd576040517f08c379a00000000000000000000000000000000000000000000000000000000081526004016104c490610e30565b60405180910390fd5b82600160003373ffffffffffffffffffffffffffffffffffffffff1673ffffffffffffffffffffffffffffffffffffffff168152602001908152602001600020600101600082825461051f9190610f65565b9250508190555082600360008282546105389190610f65565b92505081905550824761054b9190611046565b6004819055508373ffffffffffffffffffffffffffffffffffffffff166108fc849081150290604051600060405180830381858888f19350505050158015610597573d6000803e3d6000fd5b503373ffffffffffffffffffffffffffffffffffffffff168473ffffffffffffffffffffffffffffffffffffffff167fc6523614a4ee35b875baef260f78a91708fdf636c7fec1e9a186a7ae590c4e46856040516105f59190610f10565b60405180910390a350505050565b61060b6109c0565b61061361080a565b73ffffffffffffffffffffffffffffffffffffffff168273ffffffffffffffffffffffffffffffffffffffff161415610681576040517f08c379a000000000000000000000000000000000000000000000000000000000815260040161067890610e90565b60405180910390fd5b6000600160008473ffffffffffffffffffffffffffffffffffffffff1673ffffffffffffffffffffffffffffffffffffffff1681526020019081526020016000206000015414610706576040517f08c379a00000000000000000000000000000000000000000000000000000000081526004016106fd90610ef0565b60405180910390fd5b6064816002546107169190610f65565b1115610757576040517f08c379a000000000000000000000000000000000000000000000000000000000815260040161074e90610ed0565b60405180910390fd5b80600160008473ffffffffffffffffffffffffffffffffffffffff1673ffffffffffffffffffffffffffffffffffffffff1681526020019081526020016000206000018190555080600260008282546107b09190610f65565b925050819055505050565b60035481565b6107c96109c0565b6040517f08c379a00000000000000000000000000000000000000000000000000000000081526004016107fb90610df0565b60405180910390fd5b60045481565b60008060009054906101000a900473ffffffffffffffffffffffffffffffffffffffff16905090565b60016020528060005260406000206000915090508060000154908060010154905082565b61085f6109c0565b478111156108a2576040517f08c379a000000000000000000000000000000000000000000000000000000000815260040161089990610eb0565b60405180910390fd5b80476108ae9190611046565b6004819055508173ffffffffffffffffffffffffffffffffffffffff166108fc829081150290604051600060405180830381858888f193505050501580156108fa573d6000803e3d6000fd5b505050565b6109076109c0565b600073ffffffffffffffffffffffffffffffffffffffff168173ffffffffffffffffffffffffffffffffffffffff161415610977576040517f08c379a000000000000000000000000000000000000000000000000000000000815260040161096e90610dd0565b60405180910390fd5b61098081610a3e565b50565b60003373ffffffffffffffffffffffffffffffffffffffff166109a461080a565b73ffffffffffffffffffffffffffffffffffffffff1614905090565b6109c8610b02565b73ffffffffffffffffffffffffffffffffffffffff166109e661080a565b73ffffffffffffffffffffffffffffffffffffffff1614610a3c576040517f08c379a0000000000000000000000000000000000000000000000000000000008152600401610a3390610e70565b60405180910390fd5b565b60008060009054906101000a900473ffffffffffffffffffffffffffffffffffffffff169050816000806101000a81548173ffffffffffffffffffffffffffffffffffffffff021916908373ffffffffffffffffffffffffffffffffffffffff1602179055508173ffffffffffffffffffffffffffffffffffffffff168173ffffffffffffffffffffffffffffffffffffffff167f8be0079c531659141344cd1fd0a4f28419497f9722a3daafe3b4186f6b6457e060405160405180910390a35050565b600033905090565b600081359050610b19816113f8565b92915050565b600081359050610b2e8161140f565b92915050565b600081359050610b4381611426565b92915050565b600060208284031215610b5f57610b5e611126565b5b6000610b6d84828501610b0a565b91505092915050565b60008060408385031215610b8d57610b8c611126565b5b6000610b9b85828601610b1f565b9250506020610bac85828601610b34565b9150509250929050565b60008060408385031215610bcd57610bcc611126565b5b6000610bdb85828601610b0a565b9250506020610bec85828601610b34565b9150509250929050565b610bff8161107a565b82525050565b6000610c12602883610f54565b9150610c1d8261112b565b604082019050919050565b6000610c35602683610f54565b9150610c408261117a565b604082019050919050565b6000610c58601c83610f54565b9150610c63826111c9565b602082019050919050565b6000610c7b602b83610f54565b9150610c86826111f2565b604082019050919050565b6000610c9e601683610f54565b9150610ca982611241565b602082019050919050565b6000610cc1601d83610f54565b9150610ccc8261126a565b602082019050919050565b6000610ce4602083610f54565b9150610cef82611293565b602082019050919050565b6000610d07602a83610f54565b9150610d12826112bc565b604082019050919050565b6000610d2a602683610f54565b9150610d358261130b565b604082019050919050565b6000610d4d602783610f54565b9150610d588261135a565b604082019050919050565b6000610d70602483610f54565b9150610d7b826113a9565b604082019050919050565b610d8f816110be565b82525050565b6000602082019050610daa6000830184610bf6565b92915050565b60006020820190508181036000830152610dc981610c05565b9050919050565b60006020820190508181036000830152610de981610c28565b9050919050565b60006020820190508181036000830152610e0981610c4b565b9050919050565b60006020820190508181036000830152610e2981610c6e565b9050919050565b60006020820190508181036000830152610e4981610c91565b9050919050565b60006020820190508181036000830152610e6981610cb4565b9050919050565b60006020820190508181036000830152610e8981610cd7565b9050919050565b60006020820190508181036000830152610ea981610cfa565b9050919050565b60006020820190508181036000830152610ec981610d1d565b9050919050565b60006020820190508181036000830152610ee981610d40565b9050919050565b60006020820190508181036000830152610f0981610d63565b9050919050565b6000602082019050610f256000830184610d86565b92915050565b6000604082019050610f406000830185610d86565b610f4d6020830184610d86565b9392505050565b600082825260208201905092915050565b6000610f70826110be565b9150610f7b836110be565b9250827fffffffffffffffffffffffffffffffffffffffffffffffffffffffffffffffff03821115610fb057610faf6110c8565b5b828201905092915050565b6000610fc6826110be565b9150610fd1836110be565b925082610fe157610fe06110f7565b5b828204905092915050565b6000610ff7826110be565b9150611002836110be565b9250817fffffffffffffffffffffffffffffffffffffffffffffffffffffffffffffffff048311821515161561103b5761103a6110c8565b5b828202905092915050565b6000611051826110be565b915061105c836110be565b92508282101561106f5761106e6110c8565b5b828203905092915050565b60006110858261109e565b9050919050565b60006110978261109e565b9050919050565b600073ffffffffffffffffffffffffffffffffffffffff82169050919050565b6000819050919050565b7f4e487b7100000000000000000000000000000000000000000000000000000000600052601160045260246000fd5b7f4e487b7100000000000000000000000000000000000000000000000000000000600052601260045260246000fd5b600080fd5b7f5468657265206973206e6f206d6f6e657920696e207468652077616c6c65742060008201527f746f20636c61696d000000000000000000000000000000000000000000000000602082015250565b7f4f776e61626c653a206e6577206f776e657220697320746865207a65726f206160008201527f6464726573730000000000000000000000000000000000000000000000000000602082015250565b7f63616e27742072656e6f756e63654f776e657273686970206865726500000000600082015250565b7f546865206f776e65722073686f756c6420757365206f776e657257697468647260008201527f61772066756e6374696f6e000000000000000000000000000000000000000000602082015250565b7f54686520616d6f756e7420697320746f6f206869676800000000000000000000600082015250565b7f596f7520646f206e6f74206861766520616e7920616c6c6f77616e6365000000600082015250565b7f4f776e61626c653a2063616c6c6572206973206e6f7420746865206f776e6572600082015250565b7f416e20616c6c6f77616e6365206973206e6f7420726571756972656420666f7260008201527f20746865206f776e657200000000000000000000000000000000000000000000602082015250565b7f416d6f756e74206973206c6172676572207468616e20636f6e7472616374206260008201527f616c616e63650000000000000000000000000000000000000000000000000000602082015250565b7f5468697320776f756c64206f7665722d616c6c6f636174652074686520616c6c60008201527f6f77616e63657300000000000000000000000000000000000000000000000000602082015250565b7f546865206164647265737320616c72656164792068617320616e20616c6c6f7760008201527f616e636500000000000000000000000000000000000000000000000000000000602082015250565b6114018161107a565b811461140c57600080fd5b50565b6114188161108c565b811461142357600080fd5b50565b61142f816110be565b811461143a57600080fd5b5056fea26469706673582212209369abd9e017cbeb90b01823f53f6de083711f5885ab7273f3c130c85133c04564736f6c63430008070033",
					"opcodes": "PUSH1 0x80 PUSH1 0x40 MSTORE CALLVALUE DUP1 ISZERO PUSH2 0x10 JUMPI PUSH1 0x0 DUP1 REVERT JUMPDEST POP PUSH2 0x2D PUSH2 0x22 PUSH2 0x32 PUSH1 0x20 SHL PUSH1 0x20 SHR JUMP JUMPDEST PUSH2 0x3A PUSH1 0x20 SHL PUSH1 0x20 SHR JUMP JUMPDEST PUSH2 0xFE JUMP JUMPDEST PUSH1 0x0 CALLER SWAP1 POP SWAP1 JUMP JUMPDEST PUSH1 0x0 DUP1 PUSH1 0x0 SWAP1 SLOAD SWAP1 PUSH2 0x100 EXP SWAP1 DIV PUSH20 0xFFFFFFFFFFFFFFFFFFFFFFFFFFFFFFFFFFFFFFFF AND SWAP1 POP DUP2 PUSH1 0x0 DUP1 PUSH2 0x100 EXP DUP2 SLOAD DUP2 PUSH20 0xFFFFFFFFFFFFFFFFFFFFFFFFFFFFFFFFFFFFFFFF MUL NOT AND SWAP1 DUP4 PUSH20 0xFFFFFFFFFFFFFFFFFFFFFFFFFFFFFFFFFFFFFFFF AND MUL OR SWAP1 SSTORE POP DUP2 PUSH20 0xFFFFFFFFFFFFFFFFFFFFFFFFFFFFFFFFFFFFFFFF AND DUP2 PUSH20 0xFFFFFFFFFFFFFFFFFFFFFFFFFFFFFFFFFFFFFFFF AND PUSH32 0x8BE0079C531659141344CD1FD0A4F28419497F9722A3DAAFE3B4186F6B6457E0 PUSH1 0x40 MLOAD PUSH1 0x40 MLOAD DUP1 SWAP2 SUB SWAP1 LOG3 POP POP JUMP JUMPDEST PUSH2 0x1473 DUP1 PUSH2 0x10D PUSH1 0x0 CODECOPY PUSH1 0x0 RETURN INVALID PUSH1 0x80 PUSH1 0x40 MSTORE PUSH1 0x4 CALLDATASIZE LT PUSH2 0xA0 JUMPI PUSH1 0x0 CALLDATALOAD PUSH1 0xE0 SHR DUP1 PUSH4 0x715018A6 GT PUSH2 0x64 JUMPI DUP1 PUSH4 0x715018A6 EQ PUSH2 0x166 JUMPI DUP1 PUSH4 0x8B7AFE2E EQ PUSH2 0x17D JUMPI DUP1 PUSH4 0x8DA5CB5B EQ PUSH2 0x1A8 JUMPI DUP1 PUSH4 0xA87430BA EQ PUSH2 0x1D3 JUMPI DUP1 PUSH4 0xD9C88E14 EQ PUSH2 0x211 JUMPI DUP1 PUSH4 0xF2FDE38B EQ PUSH2 0x23A JUMPI PUSH2 0xAF JUMP JUMPDEST DUP1 PUSH4 0x5737314 EQ PUSH2 0xB4 JUMPI DUP1 PUSH4 0x16A51305 EQ PUSH2 0xBE JUMPI DUP1 PUSH4 0x2D70DB2F EQ PUSH2 0xE9 JUMPI DUP1 PUSH4 0x3E7279A3 EQ PUSH2 0x112 JUMPI DUP1 PUSH4 0x41C61383 EQ PUSH2 0x13B JUMPI PUSH2 0xAF JUMP JUMPDEST CALLDATASIZE PUSH2 0xAF JUMPI PUSH2 0xAD PUSH2 0x263 JUMP JUMPDEST STOP JUMPDEST PUSH1 0x0 DUP1 REVERT JUMPDEST PUSH2 0xBC PUSH2 0x263 JUMP JUMPDEST STOP JUMPDEST CALLVALUE DUP1 ISZERO PUSH2 0xCA JUMPI PUSH1 0x0 DUP1 REVERT JUMPDEST POP PUSH2 0xD3 PUSH2 0x26C JUMP JUMPDEST PUSH1 0x40 MLOAD PUSH2 0xE0 SWAP2 SWAP1 PUSH2 0xF10 JUMP JUMPDEST PUSH1 0x40 MLOAD DUP1 SWAP2 SUB SWAP1 RETURN JUMPDEST CALLVALUE DUP1 ISZERO PUSH2 0xF5 JUMPI PUSH1 0x0 DUP1 REVERT JUMPDEST POP PUSH2 0x110 PUSH1 0x4 DUP1 CALLDATASIZE SUB DUP2 ADD SWAP1 PUSH2 0x10B SWAP2 SWAP1 PUSH2 0xB76 JUMP JUMPDEST PUSH2 0x272 JUMP JUMPDEST STOP JUMPDEST CALLVALUE DUP1 ISZERO PUSH2 0x11E JUMPI PUSH1 0x0 DUP1 REVERT JUMPDEST POP PUSH2 0x139 PUSH1 0x4 DUP1 CALLDATASIZE SUB DUP2 ADD SWAP1 PUSH2 0x134 SWAP2 SWAP1 PUSH2 0xBB6 JUMP JUMPDEST PUSH2 0x603 JUMP JUMPDEST STOP JUMPDEST CALLVALUE DUP1 ISZERO PUSH2 0x147 JUMPI PUSH1 0x0 DUP1 REVERT JUMPDEST POP PUSH2 0x150 PUSH2 0x7BB JUMP JUMPDEST PUSH1 0x40 MLOAD PUSH2 0x15D SWAP2 SWAP1 PUSH2 0xF10 JUMP JUMPDEST PUSH1 0x40 MLOAD DUP1 SWAP2 SUB SWAP1 RETURN JUMPDEST CALLVALUE DUP1 ISZERO PUSH2 0x172 JUMPI PUSH1 0x0 DUP1 REVERT JUMPDEST POP PUSH2 0x17B PUSH2 0x7C1 JUMP JUMPDEST STOP JUMPDEST CALLVALUE DUP1 ISZERO PUSH2 0x189 JUMPI PUSH1 0x0 DUP1 REVERT JUMPDEST POP PUSH2 0x192 PUSH2 0x804 JUMP JUMPDEST PUSH1 0x40 MLOAD PUSH2 0x19F SWAP2 SWAP1 PUSH2 0xF10 JUMP JUMPDEST PUSH1 0x40 MLOAD DUP1 SWAP2 SUB SWAP1 RETURN JUMPDEST CALLVALUE DUP1 ISZERO PUSH2 0x1B4 JUMPI PUSH1 0x0 DUP1 REVERT JUMPDEST POP PUSH2 0x1BD PUSH2 0x80A JUMP JUMPDEST PUSH1 0x40 MLOAD PUSH2 0x1CA SWAP2 SWAP1 PUSH2 0xD95 JUMP JUMPDEST PUSH1 0x40 MLOAD DUP1 SWAP2 SUB SWAP1 RETURN JUMPDEST CALLVALUE DUP1 ISZERO PUSH2 0x1DF JUMPI PUSH1 0x0 DUP1 REVERT JUMPDEST POP PUSH2 0x1FA PUSH1 0x4 DUP1 CALLDATASIZE SUB DUP2 ADD SWAP1 PUSH2 0x1F5 SWAP2 SWAP1 PUSH2 0xB49 JUMP JUMPDEST PUSH2 0x833 JUMP JUMPDEST PUSH1 0x40 MLOAD PUSH2 0x208 SWAP3 SWAP2 SWAP1 PUSH2 0xF2B JUMP JUMPDEST PUSH1 0x40 MLOAD DUP1 SWAP2 SUB SWAP1 RETURN JUMPDEST CALLVALUE DUP1 ISZERO PUSH2 0x21D JUMPI PUSH1 0x0 DUP1 REVERT JUMPDEST POP PUSH2 0x238 PUSH1 0x4 DUP1 CALLDATASIZE SUB DUP2 ADD SWAP1 PUSH2 0x233 SWAP2 SWAP1 PUSH2 0xB76 JUMP JUMPDEST PUSH2 0x857 JUMP JUMPDEST STOP JUMPDEST CALLVALUE DUP1 ISZERO PUSH2 0x246 JUMPI PUSH1 0x0 DUP1 REVERT JUMPDEST POP PUSH2 0x261 PUSH1 0x4 DUP1 CALLDATASIZE SUB DUP2 ADD SWAP1 PUSH2 0x25C SWAP2 SWAP1 PUSH2 0xB49 JUMP JUMPDEST PUSH2 0x8FF JUMP JUMPDEST STOP JUMPDEST SELFBALANCE PUSH1 0x4 DUP2 SWAP1 SSTORE POP JUMP JUMPDEST PUSH1 0x2 SLOAD DUP2 JUMP JUMPDEST PUSH2 0x27A PUSH2 0x983 JUMP JUMPDEST ISZERO PUSH2 0x2BA JUMPI PUSH1 0x40 MLOAD PUSH32 0x8C379A000000000000000000000000000000000000000000000000000000000 DUP2 MSTORE PUSH1 0x4 ADD PUSH2 0x2B1 SWAP1 PUSH2 0xE10 JUMP JUMPDEST PUSH1 0x40 MLOAD DUP1 SWAP2 SUB SWAP1 REVERT JUMPDEST PUSH1 0x0 SELFBALANCE GT PUSH2 0x2FD JUMPI PUSH1 0x40 MLOAD PUSH32 0x8C379A000000000000000000000000000000000000000000000000000000000 DUP2 MSTORE PUSH1 0x4 ADD PUSH2 0x2F4 SWAP1 PUSH2 0xDB0 JUMP JUMPDEST PUSH1 0x40 MLOAD DUP1 SWAP2 SUB SWAP1 REVERT JUMPDEST PUSH1 0x0 PUSH1 0x1 PUSH1 0x0 CALLER PUSH20 0xFFFFFFFFFFFFFFFFFFFFFFFFFFFFFFFFFFFFFFFF AND PUSH20 0xFFFFFFFFFFFFFFFFFFFFFFFFFFFFFFFFFFFFFFFF AND DUP2 MSTORE PUSH1 0x20 ADD SWAP1 DUP2 MSTORE PUSH1 0x20 ADD PUSH1 0x0 KECCAK256 PUSH1 0x0 ADD SLOAD GT PUSH2 0x382 JUMPI PUSH1 0x40 MLOAD PUSH32 0x8C379A000000000000000000000000000000000000000000000000000000000 DUP2 MSTORE PUSH1 0x4 ADD PUSH2 0x379 SWAP1 PUSH2 0xE50 JUMP JUMPDEST PUSH1 0x40 MLOAD DUP1 SWAP2 SUB SWAP1 REVERT JUMPDEST PUSH1 0x0 PUSH1 0x64 PUSH1 0x3 SLOAD SELFBALANCE PUSH2 0x394 SWAP2 SWAP1 PUSH2 0xF65 JUMP JUMPDEST PUSH1 0x1 PUSH1 0x0 CALLER PUSH20 0xFFFFFFFFFFFFFFFFFFFFFFFFFFFFFFFFFFFFFFFF AND PUSH20 0xFFFFFFFFFFFFFFFFFFFFFFFFFFFFFFFFFFFFFFFF AND DUP2 MSTORE PUSH1 0x20 ADD SWAP1 DUP2 MSTORE PUSH1 0x20 ADD PUSH1 0x0 KECCAK256 PUSH1 0x0 ADD SLOAD PUSH2 0x3E1 SWAP2 SWAP1 PUSH2 0xFEC JUMP JUMPDEST PUSH2 0x3EB SWAP2 SWAP1 PUSH2 0xFBB JUMP JUMPDEST SWAP1 POP PUSH1 0x0 PUSH1 0x1 PUSH1 0x0 CALLER PUSH20 0xFFFFFFFFFFFFFFFFFFFFFFFFFFFFFFFFFFFFFFFF AND PUSH20 0xFFFFFFFFFFFFFFFFFFFFFFFFFFFFFFFFFFFFFFFF AND DUP2 MSTORE PUSH1 0x20 ADD SWAP1 DUP2 MSTORE PUSH1 0x20 ADD PUSH1 0x0 KECCAK256 PUSH1 0x1 ADD SLOAD DUP3 GT ISZERO PUSH2 0x48A JUMPI PUSH1 0x1 PUSH1 0x0 CALLER PUSH20 0xFFFFFFFFFFFFFFFFFFFFFFFFFFFFFFFFFFFFFFFF AND PUSH20 0xFFFFFFFFFFFFFFFFFFFFFFFFFFFFFFFFFFFFFFFF AND DUP2 MSTORE PUSH1 0x20 ADD SWAP1 DUP2 MSTORE PUSH1 0x20 ADD PUSH1 0x0 KECCAK256 PUSH1 0x1 ADD SLOAD DUP3 PUSH2 0x487 SWAP2 SWAP1 PUSH2 0x1046 JUMP JUMPDEST SWAP1 POP JUMPDEST DUP1 DUP4 GT ISZERO PUSH2 0x4CD JUMPI PUSH1 0x40 MLOAD PUSH32 0x8C379A000000000000000000000000000000000000000000000000000000000 DUP2 MSTORE PUSH1 0x4 ADD PUSH2 0x4C4 SWAP1 PUSH2 0xE30 JUMP JUMPDEST PUSH1 0x40 MLOAD DUP1 SWAP2 SUB SWAP1 REVERT JUMPDEST DUP3 PUSH1 0x1 PUSH1 0x0 CALLER PUSH20 0xFFFFFFFFFFFFFFFFFFFFFFFFFFFFFFFFFFFFFFFF AND PUSH20 0xFFFFFFFFFFFFFFFFFFFFFFFFFFFFFFFFFFFFFFFF AND DUP2 MSTORE PUSH1 0x20 ADD SWAP1 DUP2 MSTORE PUSH1 0x20 ADD PUSH1 0x0 KECCAK256 PUSH1 0x1 ADD PUSH1 0x0 DUP3 DUP3 SLOAD PUSH2 0x51F SWAP2 SWAP1 PUSH2 0xF65 JUMP JUMPDEST SWAP3 POP POP DUP2 SWAP1 SSTORE POP DUP3 PUSH1 0x3 PUSH1 0x0 DUP3 DUP3 SLOAD PUSH2 0x538 SWAP2 SWAP1 PUSH2 0xF65 JUMP JUMPDEST SWAP3 POP POP DUP2 SWAP1 SSTORE POP DUP3 SELFBALANCE PUSH2 0x54B SWAP2 SWAP1 PUSH2 0x1046 JUMP JUMPDEST PUSH1 0x4 DUP2 SWAP1 SSTORE POP DUP4 PUSH20 0xFFFFFFFFFFFFFFFFFFFFFFFFFFFFFFFFFFFFFFFF AND PUSH2 0x8FC DUP5 SWAP1 DUP2 ISZERO MUL SWAP1 PUSH1 0x40 MLOAD PUSH1 0x0 PUSH1 0x40 MLOAD DUP1 DUP4 SUB DUP2 DUP6 DUP9 DUP9 CALL SWAP4 POP POP POP POP ISZERO DUP1 ISZERO PUSH2 0x597 JUMPI RETURNDATASIZE PUSH1 0x0 DUP1 RETURNDATACOPY RETURNDATASIZE PUSH1 0x0 REVERT JUMPDEST POP CALLER PUSH20 0xFFFFFFFFFFFFFFFFFFFFFFFFFFFFFFFFFFFFFFFF AND DUP5 PUSH20 0xFFFFFFFFFFFFFFFFFFFFFFFFFFFFFFFFFFFFFFFF AND PUSH32 0xC6523614A4EE35B875BAEF260F78A91708FDF636C7FEC1E9A186A7AE590C4E46 DUP6 PUSH1 0x40 MLOAD PUSH2 0x5F5 SWAP2 SWAP1 PUSH2 0xF10 JUMP JUMPDEST PUSH1 0x40 MLOAD DUP1 SWAP2 SUB SWAP1 LOG3 POP POP POP POP JUMP JUMPDEST PUSH2 0x60B PUSH2 0x9C0 JUMP JUMPDEST PUSH2 0x613 PUSH2 0x80A JUMP JUMPDEST PUSH20 0xFFFFFFFFFFFFFFFFFFFFFFFFFFFFFFFFFFFFFFFF AND DUP3 PUSH20 0xFFFFFFFFFFFFFFFFFFFFFFFFFFFFFFFFFFFFFFFF AND EQ ISZERO PUSH2 0x681 JUMPI PUSH1 0x40 MLOAD PUSH32 0x8C379A000000000000000000000000000000000000000000000000000000000 DUP2 MSTORE PUSH1 0x4 ADD PUSH2 0x678 SWAP1 PUSH2 0xE90 JUMP JUMPDEST PUSH1 0x40 MLOAD DUP1 SWAP2 SUB SWAP1 REVERT JUMPDEST PUSH1 0x0 PUSH1 0x1 PUSH1 0x0 DUP5 PUSH20 0xFFFFFFFFFFFFFFFFFFFFFFFFFFFFFFFFFFFFFFFF AND PUSH20 0xFFFFFFFFFFFFFFFFFFFFFFFFFFFFFFFFFFFFFFFF AND DUP2 MSTORE PUSH1 0x20 ADD SWAP1 DUP2 MSTORE PUSH1 0x20 ADD PUSH1 0x0 KECCAK256 PUSH1 0x0 ADD SLOAD EQ PUSH2 0x706 JUMPI PUSH1 0x40 MLOAD PUSH32 0x8C379A000000000000000000000000000000000000000000000000000000000 DUP2 MSTORE PUSH1 0x4 ADD PUSH2 0x6FD SWAP1 PUSH2 0xEF0 JUMP JUMPDEST PUSH1 0x40 MLOAD DUP1 SWAP2 SUB SWAP1 REVERT JUMPDEST PUSH1 0x64 DUP2 PUSH1 0x2 SLOAD PUSH2 0x716 SWAP2 SWAP1 PUSH2 0xF65 JUMP JUMPDEST GT ISZERO PUSH2 0x757 JUMPI PUSH1 0x40 MLOAD PUSH32 0x8C379A000000000000000000000000000000000000000000000000000000000 DUP2 MSTORE PUSH1 0x4 ADD PUSH2 0x74E SWAP1 PUSH2 0xED0 JUMP JUMPDEST PUSH1 0x40 MLOAD DUP1 SWAP2 SUB SWAP1 REVERT JUMPDEST DUP1 PUSH1 0x1 PUSH1 0x0 DUP5 PUSH20 0xFFFFFFFFFFFFFFFFFFFFFFFFFFFFFFFFFFFFFFFF AND PUSH20 0xFFFFFFFFFFFFFFFFFFFFFFFFFFFFFFFFFFFFFFFF AND DUP2 MSTORE PUSH1 0x20 ADD SWAP1 DUP2 MSTORE PUSH1 0x20 ADD PUSH1 0x0 KECCAK256 PUSH1 0x0 ADD DUP2 SWAP1 SSTORE POP DUP1 PUSH1 0x2 PUSH1 0x0 DUP3 DUP3 SLOAD PUSH2 0x7B0 SWAP2 SWAP1 PUSH2 0xF65 JUMP JUMPDEST SWAP3 POP POP DUP2 SWAP1 SSTORE POP POP POP JUMP JUMPDEST PUSH1 0x3 SLOAD DUP2 JUMP JUMPDEST PUSH2 0x7C9 PUSH2 0x9C0 JUMP JUMPDEST PUSH1 0x40 MLOAD PUSH32 0x8C379A000000000000000000000000000000000000000000000000000000000 DUP2 MSTORE PUSH1 0x4 ADD PUSH2 0x7FB SWAP1 PUSH2 0xDF0 JUMP JUMPDEST PUSH1 0x40 MLOAD DUP1 SWAP2 SUB SWAP1 REVERT JUMPDEST PUSH1 0x4 SLOAD DUP2 JUMP JUMPDEST PUSH1 0x0 DUP1 PUSH1 0x0 SWAP1 SLOAD SWAP1 PUSH2 0x100 EXP SWAP1 DIV PUSH20 0xFFFFFFFFFFFFFFFFFFFFFFFFFFFFFFFFFFFFFFFF AND SWAP1 POP SWAP1 JUMP JUMPDEST PUSH1 0x1 PUSH1 0x20 MSTORE DUP1 PUSH1 0x0 MSTORE PUSH1 0x40 PUSH1 0x0 KECCAK256 PUSH1 0x0 SWAP2 POP SWAP1 POP DUP1 PUSH1 0x0 ADD SLOAD SWAP1 DUP1 PUSH1 0x1 ADD SLOAD SWAP1 POP DUP3 JUMP JUMPDEST PUSH2 0x85F PUSH2 0x9C0 JUMP JUMPDEST SELFBALANCE DUP2 GT ISZERO PUSH2 0x8A2 JUMPI PUSH1 0x40 MLOAD PUSH32 0x8C379A000000000000000000000000000000000000000000000000000000000 DUP2 MSTORE PUSH1 0x4 ADD PUSH2 0x899 SWAP1 PUSH2 0xEB0 JUMP JUMPDEST PUSH1 0x40 MLOAD DUP1 SWAP2 SUB SWAP1 REVERT JUMPDEST DUP1 SELFBALANCE PUSH2 0x8AE SWAP2 SWAP1 PUSH2 0x1046 JUMP JUMPDEST PUSH1 0x4 DUP2 SWAP1 SSTORE POP DUP2 PUSH20 0xFFFFFFFFFFFFFFFFFFFFFFFFFFFFFFFFFFFFFFFF AND PUSH2 0x8FC DUP3 SWAP1 DUP2 ISZERO MUL SWAP1 PUSH1 0x40 MLOAD PUSH1 0x0 PUSH1 0x40 MLOAD DUP1 DUP4 SUB DUP2 DUP6 DUP9 DUP9 CALL SWAP4 POP POP POP POP ISZERO DUP1 ISZERO PUSH2 0x8FA JUMPI RETURNDATASIZE PUSH1 0x0 DUP1 RETURNDATACOPY RETURNDATASIZE PUSH1 0x0 REVERT JUMPDEST POP POP POP JUMP JUMPDEST PUSH2 0x907 PUSH2 0x9C0 JUMP JUMPDEST PUSH1 0x0 PUSH20 0xFFFFFFFFFFFFFFFFFFFFFFFFFFFFFFFFFFFFFFFF AND DUP2 PUSH20 0xFFFFFFFFFFFFFFFFFFFFFFFFFFFFFFFFFFFFFFFF AND EQ ISZERO PUSH2 0x977 JUMPI PUSH1 0x40 MLOAD PUSH32 0x8C379A000000000000000000000000000000000000000000000000000000000 DUP2 MSTORE PUSH1 0x4 ADD PUSH2 0x96E SWAP1 PUSH2 0xDD0 JUMP JUMPDEST PUSH1 0x40 MLOAD DUP1 SWAP2 SUB SWAP1 REVERT JUMPDEST PUSH2 0x980 DUP2 PUSH2 0xA3E JUMP JUMPDEST POP JUMP JUMPDEST PUSH1 0x0 CALLER PUSH20 0xFFFFFFFFFFFFFFFFFFFFFFFFFFFFFFFFFFFFFFFF AND PUSH2 0x9A4 PUSH2 0x80A JUMP JUMPDEST PUSH20 0xFFFFFFFFFFFFFFFFFFFFFFFFFFFFFFFFFFFFFFFF AND EQ SWAP1 POP SWAP1 JUMP JUMPDEST PUSH2 0x9C8 PUSH2 0xB02 JUMP JUMPDEST PUSH20 0xFFFFFFFFFFFFFFFFFFFFFFFFFFFFFFFFFFFFFFFF AND PUSH2 0x9E6 PUSH2 0x80A JUMP JUMPDEST PUSH20 0xFFFFFFFFFFFFFFFFFFFFFFFFFFFFFFFFFFFFFFFF AND EQ PUSH2 0xA3C JUMPI PUSH1 0x40 MLOAD PUSH32 0x8C379A000000000000000000000000000000000000000000000000000000000 DUP2 MSTORE PUSH1 0x4 ADD PUSH2 0xA33 SWAP1 PUSH2 0xE70 JUMP JUMPDEST PUSH1 0x40 MLOAD DUP1 SWAP2 SUB SWAP1 REVERT JUMPDEST JUMP JUMPDEST PUSH1 0x0 DUP1 PUSH1 0x0 SWAP1 SLOAD SWAP1 PUSH2 0x100 EXP SWAP1 DIV PUSH20 0xFFFFFFFFFFFFFFFFFFFFFFFFFFFFFFFFFFFFFFFF AND SWAP1 POP DUP2 PUSH1 0x0 DUP1 PUSH2 0x100 EXP DUP2 SLOAD DUP2 PUSH20 0xFFFFFFFFFFFFFFFFFFFFFFFFFFFFFFFFFFFFFFFF MUL NOT AND SWAP1 DUP4 PUSH20 0xFFFFFFFFFFFFFFFFFFFFFFFFFFFFFFFFFFFFFFFF AND MUL OR SWAP1 SSTORE POP DUP2 PUSH20 0xFFFFFFFFFFFFFFFFFFFFFFFFFFFFFFFFFFFFFFFF AND DUP2 PUSH20 0xFFFFFFFFFFFFFFFFFFFFFFFFFFFFFFFFFFFFFFFF AND PUSH32 0x8BE0079C531659141344CD1FD0A4F28419497F9722A3DAAFE3B4186F6B6457E0 PUSH1 0x40 MLOAD PUSH1 0x40 MLOAD DUP1 SWAP2 SUB SWAP1 LOG3 POP POP JUMP JUMPDEST PUSH1 0x0 CALLER SWAP1 POP SWAP1 JUMP JUMPDEST PUSH1 0x0 DUP2 CALLDATALOAD SWAP1 POP PUSH2 0xB19 DUP2 PUSH2 0x13F8 JUMP JUMPDEST SWAP3 SWAP2 POP POP JUMP JUMPDEST PUSH1 0x0 DUP2 CALLDATALOAD SWAP1 POP PUSH2 0xB2E DUP2 PUSH2 0x140F JUMP JUMPDEST SWAP3 SWAP2 POP POP JUMP JUMPDEST PUSH1 0x0 DUP2 CALLDATALOAD SWAP1 POP PUSH2 0xB43 DUP2 PUSH2 0x1426 JUMP JUMPDEST SWAP3 SWAP2 POP POP JUMP JUMPDEST PUSH1 0x0 PUSH1 0x20 DUP3 DUP5 SUB SLT ISZERO PUSH2 0xB5F JUMPI PUSH2 0xB5E PUSH2 0x1126 JUMP JUMPDEST JUMPDEST PUSH1 0x0 PUSH2 0xB6D DUP5 DUP3 DUP6 ADD PUSH2 0xB0A JUMP JUMPDEST SWAP2 POP POP SWAP3 SWAP2 POP POP JUMP JUMPDEST PUSH1 0x0 DUP1 PUSH1 0x40 DUP4 DUP6 SUB SLT ISZERO PUSH2 0xB8D JUMPI PUSH2 0xB8C PUSH2 0x1126 JUMP JUMPDEST JUMPDEST PUSH1 0x0 PUSH2 0xB9B DUP6 DUP3 DUP7 ADD PUSH2 0xB1F JUMP JUMPDEST SWAP3 POP POP PUSH1 0x20 PUSH2 0xBAC DUP6 DUP3 DUP7 ADD PUSH2 0xB34 JUMP JUMPDEST SWAP2 POP POP SWAP3 POP SWAP3 SWAP1 POP JUMP JUMPDEST PUSH1 0x0 DUP1 PUSH1 0x40 DUP4 DUP6 SUB SLT ISZERO PUSH2 0xBCD JUMPI PUSH2 0xBCC PUSH2 0x1126 JUMP JUMPDEST JUMPDEST PUSH1 0x0 PUSH2 0xBDB DUP6 DUP3 DUP7 ADD PUSH2 0xB0A JUMP JUMPDEST SWAP3 POP POP PUSH1 0x20 PUSH2 0xBEC DUP6 DUP3 DUP7 ADD PUSH2 0xB34 JUMP JUMPDEST SWAP2 POP POP SWAP3 POP SWAP3 SWAP1 POP JUMP JUMPDEST PUSH2 0xBFF DUP2 PUSH2 0x107A JUMP JUMPDEST DUP3 MSTORE POP POP JUMP JUMPDEST PUSH1 0x0 PUSH2 0xC12 PUSH1 0x28 DUP4 PUSH2 0xF54 JUMP JUMPDEST SWAP2 POP PUSH2 0xC1D DUP3 PUSH2 0x112B JUMP JUMPDEST PUSH1 0x40 DUP3 ADD SWAP1 POP SWAP2 SWAP1 POP JUMP JUMPDEST PUSH1 0x0 PUSH2 0xC35 PUSH1 0x26 DUP4 PUSH2 0xF54 JUMP JUMPDEST SWAP2 POP PUSH2 0xC40 DUP3 PUSH2 0x117A JUMP JUMPDEST PUSH1 0x40 DUP3 ADD SWAP1 POP SWAP2 SWAP1 POP JUMP JUMPDEST PUSH1 0x0 PUSH2 0xC58 PUSH1 0x1C DUP4 PUSH2 0xF54 JUMP JUMPDEST SWAP2 POP PUSH2 0xC63 DUP3 PUSH2 0x11C9 JUMP JUMPDEST PUSH1 0x20 DUP3 ADD SWAP1 POP SWAP2 SWAP1 POP JUMP JUMPDEST PUSH1 0x0 PUSH2 0xC7B PUSH1 0x2B DUP4 PUSH2 0xF54 JUMP JUMPDEST SWAP2 POP PUSH2 0xC86 DUP3 PUSH2 0x11F2 JUMP JUMPDEST PUSH1 0x40 DUP3 ADD SWAP1 POP SWAP2 SWAP1 POP JUMP JUMPDEST PUSH1 0x0 PUSH2 0xC9E PUSH1 0x16 DUP4 PUSH2 0xF54 JUMP JUMPDEST SWAP2 POP PUSH2 0xCA9 DUP3 PUSH2 0x1241 JUMP JUMPDEST PUSH1 0x20 DUP3 ADD SWAP1 POP SWAP2 SWAP1 POP JUMP JUMPDEST PUSH1 0x0 PUSH2 0xCC1 PUSH1 0x1D DUP4 PUSH2 0xF54 JUMP JUMPDEST SWAP2 POP PUSH2 0xCCC DUP3 PUSH2 0x126A JUMP JUMPDEST PUSH1 0x20 DUP3 ADD SWAP1 POP SWAP2 SWAP1 POP JUMP JUMPDEST PUSH1 0x0 PUSH2 0xCE4 PUSH1 0x20 DUP4 PUSH2 0xF54 JUMP JUMPDEST SWAP2 POP PUSH2 0xCEF DUP3 PUSH2 0x1293 JUMP JUMPDEST PUSH1 0x20 DUP3 ADD SWAP1 POP SWAP2 SWAP1 POP JUMP JUMPDEST PUSH1 0x0 PUSH2 0xD07 PUSH1 0x2A DUP4 PUSH2 0xF54 JUMP JUMPDEST SWAP2 POP PUSH2 0xD12 DUP3 PUSH2 0x12BC JUMP JUMPDEST PUSH1 0x40 DUP3 ADD SWAP1 POP SWAP2 SWAP1 POP JUMP JUMPDEST PUSH1 0x0 PUSH2 0xD2A PUSH1 0x26 DUP4 PUSH2 0xF54 JUMP JUMPDEST SWAP2 POP PUSH2 0xD35 DUP3 PUSH2 0x130B JUMP JUMPDEST PUSH1 0x40 DUP3 ADD SWAP1 POP SWAP2 SWAP1 POP JUMP JUMPDEST PUSH1 0x0 PUSH2 0xD4D PUSH1 0x27 DUP4 PUSH2 0xF54 JUMP JUMPDEST SWAP2 POP PUSH2 0xD58 DUP3 PUSH2 0x135A JUMP JUMPDEST PUSH1 0x40 DUP3 ADD SWAP1 POP SWAP2 SWAP1 POP JUMP JUMPDEST PUSH1 0x0 PUSH2 0xD70 PUSH1 0x24 DUP4 PUSH2 0xF54 JUMP JUMPDEST SWAP2 POP PUSH2 0xD7B DUP3 PUSH2 0x13A9 JUMP JUMPDEST PUSH1 0x40 DUP3 ADD SWAP1 POP SWAP2 SWAP1 POP JUMP JUMPDEST PUSH2 0xD8F DUP2 PUSH2 0x10BE JUMP JUMPDEST DUP3 MSTORE POP POP JUMP JUMPDEST PUSH1 0x0 PUSH1 0x20 DUP3 ADD SWAP1 POP PUSH2 0xDAA PUSH1 0x0 DUP4 ADD DUP5 PUSH2 0xBF6 JUMP JUMPDEST SWAP3 SWAP2 POP POP JUMP JUMPDEST PUSH1 0x0 PUSH1 0x20 DUP3 ADD SWAP1 POP DUP2 DUP2 SUB PUSH1 0x0 DUP4 ADD MSTORE PUSH2 0xDC9 DUP2 PUSH2 0xC05 JUMP JUMPDEST SWAP1 POP SWAP2 SWAP1 POP JUMP JUMPDEST PUSH1 0x0 PUSH1 0x20 DUP3 ADD SWAP1 POP DUP2 DUP2 SUB PUSH1 0x0 DUP4 ADD MSTORE PUSH2 0xDE9 DUP2 PUSH2 0xC28 JUMP JUMPDEST SWAP1 POP SWAP2 SWAP1 POP JUMP JUMPDEST PUSH1 0x0 PUSH1 0x20 DUP3 ADD SWAP1 POP DUP2 DUP2 SUB PUSH1 0x0 DUP4 ADD MSTORE PUSH2 0xE09 DUP2 PUSH2 0xC4B JUMP JUMPDEST SWAP1 POP SWAP2 SWAP1 POP JUMP JUMPDEST PUSH1 0x0 PUSH1 0x20 DUP3 ADD SWAP1 POP DUP2 DUP2 SUB PUSH1 0x0 DUP4 ADD MSTORE PUSH2 0xE29 DUP2 PUSH2 0xC6E JUMP JUMPDEST SWAP1 POP SWAP2 SWAP1 POP JUMP JUMPDEST PUSH1 0x0 PUSH1 0x20 DUP3 ADD SWAP1 POP DUP2 DUP2 SUB PUSH1 0x0 DUP4 ADD MSTORE PUSH2 0xE49 DUP2 PUSH2 0xC91 JUMP JUMPDEST SWAP1 POP SWAP2 SWAP1 POP JUMP JUMPDEST PUSH1 0x0 PUSH1 0x20 DUP3 ADD SWAP1 POP DUP2 DUP2 SUB PUSH1 0x0 DUP4 ADD MSTORE PUSH2 0xE69 DUP2 PUSH2 0xCB4 JUMP JUMPDEST SWAP1 POP SWAP2 SWAP1 POP JUMP JUMPDEST PUSH1 0x0 PUSH1 0x20 DUP3 ADD SWAP1 POP DUP2 DUP2 SUB PUSH1 0x0 DUP4 ADD MSTORE PUSH2 0xE89 DUP2 PUSH2 0xCD7 JUMP JUMPDEST SWAP1 POP SWAP2 SWAP1 POP JUMP JUMPDEST PUSH1 0x0 PUSH1 0x20 DUP3 ADD SWAP1 POP DUP2 DUP2 SUB PUSH1 0x0 DUP4 ADD MSTORE PUSH2 0xEA9 DUP2 PUSH2 0xCFA JUMP JUMPDEST SWAP1 POP SWAP2 SWAP1 POP JUMP JUMPDEST PUSH1 0x0 PUSH1 0x20 DUP3 ADD SWAP1 POP DUP2 DUP2 SUB PUSH1 0x0 DUP4 ADD MSTORE PUSH2 0xEC9 DUP2 PUSH2 0xD1D JUMP JUMPDEST SWAP1 POP SWAP2 SWAP1 POP JUMP JUMPDEST PUSH1 0x0 PUSH1 0x20 DUP3 ADD SWAP1 POP DUP2 DUP2 SUB PUSH1 0x0 DUP4 ADD MSTORE PUSH2 0xEE9 DUP2 PUSH2 0xD40 JUMP JUMPDEST SWAP1 POP SWAP2 SWAP1 POP JUMP JUMPDEST PUSH1 0x0 PUSH1 0x20 DUP3 ADD SWAP1 POP DUP2 DUP2 SUB PUSH1 0x0 DUP4 ADD MSTORE PUSH2 0xF09 DUP2 PUSH2 0xD63 JUMP JUMPDEST SWAP1 POP SWAP2 SWAP1 POP JUMP JUMPDEST PUSH1 0x0 PUSH1 0x20 DUP3 ADD SWAP1 POP PUSH2 0xF25 PUSH1 0x0 DUP4 ADD DUP5 PUSH2 0xD86 JUMP JUMPDEST SWAP3 SWAP2 POP POP JUMP JUMPDEST PUSH1 0x0 PUSH1 0x40 DUP3 ADD SWAP1 POP PUSH2 0xF40 PUSH1 0x0 DUP4 ADD DUP6 PUSH2 0xD86 JUMP JUMPDEST PUSH2 0xF4D PUSH1 0x20 DUP4 ADD DUP5 PUSH2 0xD86 JUMP JUMPDEST SWAP4 SWAP3 POP POP POP JUMP JUMPDEST PUSH1 0x0 DUP3 DUP3 MSTORE PUSH1 0x20 DUP3 ADD SWAP1 POP SWAP3 SWAP2 POP POP JUMP JUMPDEST PUSH1 0x0 PUSH2 0xF70 DUP3 PUSH2 0x10BE JUMP JUMPDEST SWAP2 POP PUSH2 0xF7B DUP4 PUSH2 0x10BE JUMP JUMPDEST SWAP3 POP DUP3 PUSH32 0xFFFFFFFFFFFFFFFFFFFFFFFFFFFFFFFFFFFFFFFFFFFFFFFFFFFFFFFFFFFFFFFF SUB DUP3 GT ISZERO PUSH2 0xFB0 JUMPI PUSH2 0xFAF PUSH2 0x10C8 JUMP JUMPDEST JUMPDEST DUP3 DUP3 ADD SWAP1 POP SWAP3 SWAP2 POP POP JUMP JUMPDEST PUSH1 0x0 PUSH2 0xFC6 DUP3 PUSH2 0x10BE JUMP JUMPDEST SWAP2 POP PUSH2 0xFD1 DUP4 PUSH2 0x10BE JUMP JUMPDEST SWAP3 POP DUP3 PUSH2 0xFE1 JUMPI PUSH2 0xFE0 PUSH2 0x10F7 JUMP JUMPDEST JUMPDEST DUP3 DUP3 DIV SWAP1 POP SWAP3 SWAP2 POP POP JUMP JUMPDEST PUSH1 0x0 PUSH2 0xFF7 DUP3 PUSH2 0x10BE JUMP JUMPDEST SWAP2 POP PUSH2 0x1002 DUP4 PUSH2 0x10BE JUMP JUMPDEST SWAP3 POP DUP2 PUSH32 0xFFFFFFFFFFFFFFFFFFFFFFFFFFFFFFFFFFFFFFFFFFFFFFFFFFFFFFFFFFFFFFFF DIV DUP4 GT DUP3 ISZERO ISZERO AND ISZERO PUSH2 0x103B JUMPI PUSH2 0x103A PUSH2 0x10C8 JUMP JUMPDEST JUMPDEST DUP3 DUP3 MUL SWAP1 POP SWAP3 SWAP2 POP POP JUMP JUMPDEST PUSH1 0x0 PUSH2 0x1051 DUP3 PUSH2 0x10BE JUMP JUMPDEST SWAP2 POP PUSH2 0x105C DUP4 PUSH2 0x10BE JUMP JUMPDEST SWAP3 POP DUP3 DUP3 LT ISZERO PUSH2 0x106F JUMPI PUSH2 0x106E PUSH2 0x10C8 JUMP JUMPDEST JUMPDEST DUP3 DUP3 SUB SWAP1 POP SWAP3 SWAP2 POP POP JUMP JUMPDEST PUSH1 0x0 PUSH2 0x1085 DUP3 PUSH2 0x109E JUMP JUMPDEST SWAP1 POP SWAP2 SWAP1 POP JUMP JUMPDEST PUSH1 0x0 PUSH2 0x1097 DUP3 PUSH2 0x109E JUMP JUMPDEST SWAP1 POP SWAP2 SWAP1 POP JUMP JUMPDEST PUSH1 0x0 PUSH20 0xFFFFFFFFFFFFFFFFFFFFFFFFFFFFFFFFFFFFFFFF DUP3 AND SWAP1 POP SWAP2 SWAP1 POP JUMP JUMPDEST PUSH1 0x0 DUP2 SWAP1 POP SWAP2 SWAP1 POP JUMP JUMPDEST PUSH32 0x4E487B7100000000000000000000000000000000000000000000000000000000 PUSH1 0x0 MSTORE PUSH1 0x11 PUSH1 0x4 MSTORE PUSH1 0x24 PUSH1 0x0 REVERT JUMPDEST PUSH32 0x4E487B7100000000000000000000000000000000000000000000000000000000 PUSH1 0x0 MSTORE PUSH1 0x12 PUSH1 0x4 MSTORE PUSH1 0x24 PUSH1 0x0 REVERT JUMPDEST PUSH1 0x0 DUP1 REVERT JUMPDEST PUSH32 0x5468657265206973206E6F206D6F6E657920696E207468652077616C6C657420 PUSH1 0x0 DUP3 ADD MSTORE PUSH32 0x746F20636C61696D000000000000000000000000000000000000000000000000 PUSH1 0x20 DUP3 ADD MSTORE POP JUMP JUMPDEST PUSH32 0x4F776E61626C653A206E6577206F776E657220697320746865207A65726F2061 PUSH1 0x0 DUP3 ADD MSTORE PUSH32 0x6464726573730000000000000000000000000000000000000000000000000000 PUSH1 0x20 DUP3 ADD MSTORE POP JUMP JUMPDEST PUSH32 0x63616E27742072656E6F756E63654F776E657273686970206865726500000000 PUSH1 0x0 DUP3 ADD MSTORE POP JUMP JUMPDEST PUSH32 0x546865206F776E65722073686F756C6420757365206F776E6572576974686472 PUSH1 0x0 DUP3 ADD MSTORE PUSH32 0x61772066756E6374696F6E000000000000000000000000000000000000000000 PUSH1 0x20 DUP3 ADD MSTORE POP JUMP JUMPDEST PUSH32 0x54686520616D6F756E7420697320746F6F206869676800000000000000000000 PUSH1 0x0 DUP3 ADD MSTORE POP JUMP JUMPDEST PUSH32 0x596F7520646F206E6F74206861766520616E7920616C6C6F77616E6365000000 PUSH1 0x0 DUP3 ADD MSTORE POP JUMP JUMPDEST PUSH32 0x4F776E61626C653A2063616C6C6572206973206E6F7420746865206F776E6572 PUSH1 0x0 DUP3 ADD MSTORE POP JUMP JUMPDEST PUSH32 0x416E20616C6C6F77616E6365206973206E6F7420726571756972656420666F72 PUSH1 0x0 DUP3 ADD MSTORE PUSH32 0x20746865206F776E657200000000000000000000000000000000000000000000 PUSH1 0x20 DUP3 ADD MSTORE POP JUMP JUMPDEST PUSH32 0x416D6F756E74206973206C6172676572207468616E20636F6E74726163742062 PUSH1 0x0 DUP3 ADD MSTORE PUSH32 0x616C616E63650000000000000000000000000000000000000000000000000000 PUSH1 0x20 DUP3 ADD MSTORE POP JUMP JUMPDEST PUSH32 0x5468697320776F756C64206F7665722D616C6C6F636174652074686520616C6C PUSH1 0x0 DUP3 ADD MSTORE PUSH32 0x6F77616E63657300000000000000000000000000000000000000000000000000 PUSH1 0x20 DUP3 ADD MSTORE POP JUMP JUMPDEST PUSH32 0x546865206164647265737320616C72656164792068617320616E20616C6C6F77 PUSH1 0x0 DUP3 ADD MSTORE PUSH32 0x616E636500000000000000000000000000000000000000000000000000000000 PUSH1 0x20 DUP3 ADD MSTORE POP JUMP JUMPDEST PUSH2 0x1401 DUP2 PUSH2 0x107A JUMP JUMPDEST DUP2 EQ PUSH2 0x140C JUMPI PUSH1 0x0 DUP1 REVERT JUMPDEST POP JUMP JUMPDEST PUSH2 0x1418 DUP2 PUSH2 0x108C JUMP JUMPDEST DUP2 EQ PUSH2 0x1423 JUMPI PUSH1 0x0 DUP1 REVERT JUMPDEST POP JUMP JUMPDEST PUSH2 0x142F DUP2 PUSH2 0x10BE JUMP JUMPDEST DUP2 EQ PUSH2 0x143A JUMPI PUSH1 0x0 DUP1 REVERT JUMPDEST POP JUMP INVALID LOG2 PUSH5 0x6970667358 0x22 SLT KECCAK256 SWAP4 PUSH10 0xABD9E017CBEB90B01823 CREATE2 EXTCODEHASH PUSH14 0xE083711F5885AB7273F3C130C851 CALLER 0xC0 GASLIMIT PUSH5 0x736F6C6343 STOP ADDMOD SMOD STOP CALLER "
				},
				"gasEstimates": {
					"creation": {
						"codeDepositCost": "1047000",
						"executionCost": "infinite",
						"totalCost": "infinite"
					},
					"external": {
						"ClaimMoney(address,uint256)": "infinite",
						"SendMoney()": "22237",
						"SetAllowance(address,uint256)": "infinite",
						"contractBalance()": "2451",
						"owner()": "2566",
						"ownerWithdraw(address,uint256)": "infinite",
						"renounceOwnership()": "2698",
						"totalAllowances()": "2452",
						"totalClaims()": "2518",
						"transferOwnership(address)": "30857",
						"users(address)": "infinite"
					},
					"internal": {
						"isOwner()": "2211"
					}
				},
				"methodIdentifiers": {
					"ClaimMoney(address,uint256)": "2d70db2f",
					"SendMoney()": "05737314",
					"SetAllowance(address,uint256)": "3e7279a3",
					"contractBalance()": "8b7afe2e",
					"owner()": "8da5cb5b",
					"ownerWithdraw(address,uint256)": "d9c88e14",
					"renounceOwnership()": "715018a6",
					"totalAllowances()": "16a51305",
					"totalClaims()": "41c61383",
					"transferOwnership(address)": "f2fde38b",
					"users(address)": "a87430ba"
				}
			},
			"storageLayout": {
				"storage": [
					{
						"astId": 285,
						"contract": "MyProjectSharedWallet.sol:SharedWallet",
						"label": "_owner",
						"offset": 0,
						"slot": "0",
						"type": "t_address"
					},
					{
						"astId": 14,
						"contract": "MyProjectSharedWallet.sol:SharedWallet",
						"label": "users",
						"offset": 0,
						"slot": "1",
						"type": "t_mapping(t_address,t_struct(UserDetails)9_storage)"
					},
					{
						"astId": 16,
						"contract": "MyProjectSharedWallet.sol:SharedWallet",
						"label": "totalAllowances",
						"offset": 0,
						"slot": "2",
						"type": "t_uint256"
					},
					{
						"astId": 18,
						"contract": "MyProjectSharedWallet.sol:SharedWallet",
						"label": "totalClaims",
						"offset": 0,
						"slot": "3",
						"type": "t_uint256"
					},
					{
						"astId": 20,
						"contract": "MyProjectSharedWallet.sol:SharedWallet",
						"label": "contractBalance",
						"offset": 0,
						"slot": "4",
						"type": "t_uint256"
					}
				],
				"types": {
					"t_address": {
						"encoding": "inplace",
						"label": "address",
						"numberOfBytes": "20"
					},
					"t_mapping(t_address,t_struct(UserDetails)9_storage)": {
						"encoding": "mapping",
						"key": "t_address",
						"label": "mapping(address => struct SharedWallet.UserDetails)",
						"numberOfBytes": "32",
						"value": "t_struct(UserDetails)9_storage"
					},
					"t_struct(UserDetails)9_storage": {
						"encoding": "inplace",
						"label": "struct SharedWallet.UserDetails",
						"members": [
							{
								"astId": 6,
								"contract": "MyProjectSharedWallet.sol:SharedWallet",
								"label": "allowance",
								"offset": 0,
								"slot": "0",
								"type": "t_uint256"
							},
							{
								"astId": 8,
								"contract": "MyProjectSharedWallet.sol:SharedWallet",
								"label": "claimsMade",
								"offset": 0,
								"slot": "1",
								"type": "t_uint256"
							}
						],
						"numberOfBytes": "64"
					},
					"t_uint256": {
						"encoding": "inplace",
						"label": "uint256",
						"numberOfBytes": "32"
					}
				}
			},
			"userdoc": {
				"kind": "user",
				"methods": {},
				"version": 1
			}
		}
	}
}