{
	"ItemManager.sol": {
		"Item": {
			"abi": [
				{
					"inputs": [
						{
							"internalType": "contract ItemManager",
							"name": "_parentContract",
							"type": "address"
						},
						{
							"internalType": "uint256",
							"name": "_priceInWei",
							"type": "uint256"
						},
						{
							"internalType": "uint256",
							"name": "_index",
							"type": "uint256"
						}
					],
					"stateMutability": "nonpayable",
					"type": "constructor"
				},
				{
					"inputs": [],
					"name": "index",
					"outputs": [
						{
							"internalType": "uint256",
							"name": "",
							"type": "uint256"
						}
					],
					"stateMutability": "view",
					"type": "function"
				},
				{
					"inputs": [],
					"name": "priceInWei",
					"outputs": [
						{
							"internalType": "uint256",
							"name": "",
							"type": "uint256"
						}
					],
					"stateMutability": "view",
					"type": "function"
				},
				{
					"stateMutability": "payable",
					"type": "receive"
				}
			],
			"devdoc": {
				"kind": "dev",
				"methods": {},
				"version": 1
			},
			"evm": {
				"assembly": "    /* \"ItemManager.sol\":112:613  contract Item{... */\n  mstore(0x40, 0x80)\n    /* \"ItemManager.sol\":216:402  constructor(ItemManager _parentContract, uint _priceInWei, uint _index) public {... */\n  callvalue\n  dup1\n  iszero\n  tag_1\n  jumpi\n  0x00\n  dup1\n  revert\ntag_1:\n  pop\n  mload(0x40)\n  sub(codesize, bytecodeSize)\n  dup1\n  bytecodeSize\n  dup4\n  codecopy\n  dup2\n  dup2\n  add\n  0x40\n  mstore\n  dup2\n  add\n  swap1\n  tag_2\n  swap2\n  swap1\n  tag_3\n  jump\t// in\ntag_2:\n    /* \"ItemManager.sol\":318:329  _priceInWei */\n  dup2\n    /* \"ItemManager.sol\":305:315  priceInWei */\n  0x00\n    /* \"ItemManager.sol\":305:329  priceInWei = _priceInWei */\n  dup2\n  swap1\n  sstore\n  pop\n    /* \"ItemManager.sol\":347:353  _index */\n  dup1\n    /* \"ItemManager.sol\":339:344  index */\n  0x01\n    /* \"ItemManager.sol\":339:353  index = _index */\n  dup2\n  swap1\n  sstore\n  pop\n    /* \"ItemManager.sol\":380:395  _parentContract */\n  dup3\n    /* \"ItemManager.sol\":363:377  parentContract */\n  0x02\n  0x00\n    /* \"ItemManager.sol\":363:395  parentContract = _parentContract */\n  0x0100\n  exp\n  dup2\n  sload\n  dup2\n  0xffffffffffffffffffffffffffffffffffffffff\n  mul\n  not\n  and\n  swap1\n  dup4\n  0xffffffffffffffffffffffffffffffffffffffff\n  and\n  mul\n  or\n  swap1\n  sstore\n  pop\n    /* \"ItemManager.sol\":216:402  constructor(ItemManager _parentContract, uint _priceInWei, uint _index) public {... */\n  pop\n  pop\n  pop\n    /* \"ItemManager.sol\":112:613  contract Item{... */\n  jump(tag_6)\n    /* \"#utility.yul\":88:205   */\ntag_8:\n    /* \"#utility.yul\":197:198   */\n  0x00\n    /* \"#utility.yul\":194:195   */\n  dup1\n    /* \"#utility.yul\":187:199   */\n  revert\n    /* \"#utility.yul\":334:460   */\ntag_10:\n    /* \"#utility.yul\":371:378   */\n  0x00\n    /* \"#utility.yul\":411:453   */\n  0xffffffffffffffffffffffffffffffffffffffff\n    /* \"#utility.yul\":404:409   */\n  dup3\n    /* \"#utility.yul\":400:454   */\n  and\n    /* \"#utility.yul\":389:454   */\n  swap1\n  pop\n    /* \"#utility.yul\":334:460   */\n  swap2\n  swap1\n  pop\n  jump\t// out\n    /* \"#utility.yul\":466:562   */\ntag_11:\n    /* \"#utility.yul\":503:510   */\n  0x00\n    /* \"#utility.yul\":532:556   */\n  tag_24\n    /* \"#utility.yul\":550:555   */\n  dup3\n    /* \"#utility.yul\":532:556   */\n  tag_10\n  jump\t// in\ntag_24:\n    /* \"#utility.yul\":521:556   */\n  swap1\n  pop\n    /* \"#utility.yul\":466:562   */\n  swap2\n  swap1\n  pop\n  jump\t// out\n    /* \"#utility.yul\":568:683   */\ntag_12:\n    /* \"#utility.yul\":624:631   */\n  0x00\n    /* \"#utility.yul\":653:677   */\n  tag_26\n    /* \"#utility.yul\":671:676   */\n  dup3\n    /* \"#utility.yul\":653:677   */\n  tag_11\n  jump\t// in\ntag_26:\n    /* \"#utility.yul\":642:677   */\n  swap1\n  pop\n    /* \"#utility.yul\":568:683   */\n  swap2\n  swap1\n  pop\n  jump\t// out\n    /* \"#utility.yul\":689:849   */\ntag_13:\n    /* \"#utility.yul\":781:824   */\n  tag_28\n    /* \"#utility.yul\":818:823   */\n  dup2\n    /* \"#utility.yul\":781:824   */\n  tag_12\n  jump\t// in\ntag_28:\n    /* \"#utility.yul\":774:779   */\n  dup2\n    /* \"#utility.yul\":771:825   */\n  eq\n    /* \"#utility.yul\":761:843   */\n  tag_29\n  jumpi\n    /* \"#utility.yul\":839:840   */\n  0x00\n    /* \"#utility.yul\":836:837   */\n  dup1\n    /* \"#utility.yul\":829:841   */\n  revert\n    /* \"#utility.yul\":761:843   */\ntag_29:\n    /* \"#utility.yul\":689:849   */\n  pop\n  jump\t// out\n    /* \"#utility.yul\":855:1036   */\ntag_14:\n    /* \"#utility.yul\":931:936   */\n  0x00\n    /* \"#utility.yul\":962:968   */\n  dup2\n    /* \"#utility.yul\":956:969   */\n  mload\n    /* \"#utility.yul\":947:969   */\n  swap1\n  pop\n    /* \"#utility.yul\":978:1030   */\n  tag_31\n    /* \"#utility.yul\":1024:1029   */\n  dup2\n    /* \"#utility.yul\":978:1030   */\n  tag_13\n  jump\t// in\ntag_31:\n    /* \"#utility.yul\":855:1036   */\n  swap3\n  swap2\n  pop\n  pop\n  jump\t// out\n    /* \"#utility.yul\":1042:1119   */\ntag_15:\n    /* \"#utility.yul\":1079:1086   */\n  0x00\n    /* \"#utility.yul\":1108:1113   */\n  dup2\n    /* \"#utility.yul\":1097:1113   */\n  swap1\n  pop\n    /* \"#utility.yul\":1042:1119   */\n  swap2\n  swap1\n  pop\n  jump\t// out\n    /* \"#utility.yul\":1125:1247   */\ntag_16:\n    /* \"#utility.yul\":1198:1222   */\n  tag_34\n    /* \"#utility.yul\":1216:1221   */\n  dup2\n    /* \"#utility.yul\":1198:1222   */\n  tag_15\n  jump\t// in\ntag_34:\n    /* \"#utility.yul\":1191:1196   */\n  dup2\n    /* \"#utility.yul\":1188:1223   */\n  eq\n    /* \"#utility.yul\":1178:1241   */\n  tag_35\n  jumpi\n    /* \"#utility.yul\":1237:1238   */\n  0x00\n    /* \"#utility.yul\":1234:1235   */\n  dup1\n    /* \"#utility.yul\":1227:1239   */\n  revert\n    /* \"#utility.yul\":1178:1241   */\ntag_35:\n    /* \"#utility.yul\":1125:1247   */\n  pop\n  jump\t// out\n    /* \"#utility.yul\":1253:1396   */\ntag_17:\n    /* \"#utility.yul\":1310:1315   */\n  0x00\n    /* \"#utility.yul\":1341:1347   */\n  dup2\n    /* \"#utility.yul\":1335:1348   */\n  mload\n    /* \"#utility.yul\":1326:1348   */\n  swap1\n  pop\n    /* \"#utility.yul\":1357:1390   */\n  tag_37\n    /* \"#utility.yul\":1384:1389   */\n  dup2\n    /* \"#utility.yul\":1357:1390   */\n  tag_16\n  jump\t// in\ntag_37:\n    /* \"#utility.yul\":1253:1396   */\n  swap3\n  swap2\n  pop\n  pop\n  jump\t// out\n    /* \"#utility.yul\":1402:2103   */\ntag_3:\n    /* \"#utility.yul\":1509:1515   */\n  0x00\n    /* \"#utility.yul\":1517:1523   */\n  dup1\n    /* \"#utility.yul\":1525:1531   */\n  0x00\n    /* \"#utility.yul\":1574:1576   */\n  0x60\n    /* \"#utility.yul\":1562:1571   */\n  dup5\n    /* \"#utility.yul\":1553:1560   */\n  dup7\n    /* \"#utility.yul\":1549:1572   */\n  sub\n    /* \"#utility.yul\":1545:1577   */\n  slt\n    /* \"#utility.yul\":1542:1661   */\n  iszero\n  tag_39\n  jumpi\n    /* \"#utility.yul\":1580:1659   */\n  tag_40\n  tag_8\n  jump\t// in\ntag_40:\n    /* \"#utility.yul\":1542:1661   */\ntag_39:\n    /* \"#utility.yul\":1700:1701   */\n  0x00\n    /* \"#utility.yul\":1725:1808   */\n  tag_41\n    /* \"#utility.yul\":1800:1807   */\n  dup7\n    /* \"#utility.yul\":1791:1797   */\n  dup3\n    /* \"#utility.yul\":1780:1789   */\n  dup8\n    /* \"#utility.yul\":1776:1798   */\n  add\n    /* \"#utility.yul\":1725:1808   */\n  tag_14\n  jump\t// in\ntag_41:\n    /* \"#utility.yul\":1715:1808   */\n  swap4\n  pop\n    /* \"#utility.yul\":1671:1818   */\n  pop\n    /* \"#utility.yul\":1857:1859   */\n  0x20\n    /* \"#utility.yul\":1883:1947   */\n  tag_42\n    /* \"#utility.yul\":1939:1946   */\n  dup7\n    /* \"#utility.yul\":1930:1936   */\n  dup3\n    /* \"#utility.yul\":1919:1928   */\n  dup8\n    /* \"#utility.yul\":1915:1937   */\n  add\n    /* \"#utility.yul\":1883:1947   */\n  tag_17\n  jump\t// in\ntag_42:\n    /* \"#utility.yul\":1873:1947   */\n  swap3\n  pop\n    /* \"#utility.yul\":1828:1957   */\n  pop\n    /* \"#utility.yul\":1996:1998   */\n  0x40\n    /* \"#utility.yul\":2022:2086   */\n  tag_43\n    /* \"#utility.yul\":2078:2085   */\n  dup7\n    /* \"#utility.yul\":2069:2075   */\n  dup3\n    /* \"#utility.yul\":2058:2067   */\n  dup8\n    /* \"#utility.yul\":2054:2076   */\n  add\n    /* \"#utility.yul\":2022:2086   */\n  tag_17\n  jump\t// in\ntag_43:\n    /* \"#utility.yul\":2012:2086   */\n  swap2\n  pop\n    /* \"#utility.yul\":1967:2096   */\n  pop\n    /* \"#utility.yul\":1402:2103   */\n  swap3\n  pop\n  swap3\n  pop\n  swap3\n  jump\t// out\n    /* \"ItemManager.sol\":112:613  contract Item{... */\ntag_6:\n  dataSize(sub_0)\n  dup1\n  dataOffset(sub_0)\n  0x00\n  codecopy\n  0x00\n  return\nstop\n\nsub_0: assembly {\n        /* \"ItemManager.sol\":112:613  contract Item{... */\n      mstore(0x40, 0x80)\n      jumpi(tag_1, lt(calldatasize, 0x04))\n      shr(0xe0, calldataload(0x00))\n      dup1\n      0x2986c0e5\n      eq\n      tag_3\n      jumpi\n      dup1\n      0x3c8da588\n      eq\n      tag_4\n      jumpi\n      jump(tag_2)\n    tag_1:\n      jumpi(tag_2, calldatasize)\n        /* \"ItemManager.sol\":439:451  bool success */\n      0x00\n        /* \"ItemManager.sol\":465:479  parentContract */\n      0x02\n      0x00\n      swap1\n      sload\n      swap1\n      0x0100\n      exp\n      swap1\n      div\n      0xffffffffffffffffffffffffffffffffffffffff\n      and\n        /* \"ItemManager.sol\":457:485  address(parentContract).call */\n      0xffffffffffffffffffffffffffffffffffffffff\n      and\n        /* \"ItemManager.sol\":492:501  msg.value */\n      callvalue\n        /* \"ItemManager.sol\":554:559  index */\n      sload(0x01)\n        /* \"ItemManager.sol\":503:560  abi.encodeWithSignature(\"triggerPayment(uint256)\", index) */\n      add(0x24, mload(0x40))\n      tag_7\n      swap2\n      swap1\n      tag_8\n      jump\t// in\n    tag_7:\n      mload(0x40)\n      0x20\n      dup2\n      dup4\n      sub\n      sub\n      dup2\n      mstore\n      swap1\n      0x40\n      mstore\n      and(not(0xffffffffffffffffffffffffffffffffffffffffffffffffffffffff), 0x800fb83f00000000000000000000000000000000000000000000000000000000)\n      0x20\n      dup3\n      add\n      dup1\n      mload\n      0xffffffffffffffffffffffffffffffffffffffffffffffffffffffff\n      dup4\n      dup2\n      dup4\n      and\n      or\n      dup4\n      mstore\n      pop\n      pop\n      pop\n      pop\n        /* \"ItemManager.sol\":457:561  address(parentContract).call{value:msg.value}(abi.encodeWithSignature(\"triggerPayment(uint256)\", index)) */\n      mload(0x40)\n      tag_9\n      swap2\n      swap1\n      tag_10\n      jump\t// in\n    tag_9:\n      0x00\n      mload(0x40)\n      dup1\n      dup4\n      sub\n      dup2\n      dup6\n      dup8\n      gas\n      call\n      swap3\n      pop\n      pop\n      pop\n      returndatasize\n      dup1\n      0x00\n      dup2\n      eq\n      tag_13\n      jumpi\n      mload(0x40)\n      swap2\n      pop\n      and(add(returndatasize, 0x3f), not(0x1f))\n      dup3\n      add\n      0x40\n      mstore\n      returndatasize\n      dup3\n      mstore\n      returndatasize\n      0x00\n      0x20\n      dup5\n      add\n      returndatacopy\n      jump(tag_12)\n    tag_13:\n      0x60\n      swap2\n      pop\n    tag_12:\n      pop\n        /* \"ItemManager.sol\":438:561  (bool success, ) = address(parentContract).call{value:msg.value}(abi.encodeWithSignature(\"triggerPayment(uint256)\", index)) */\n      pop\n      swap1\n      pop\n        /* \"ItemManager.sol\":571:578  success */\n      dup1\n        /* \"ItemManager.sol\":563:604  require(success, \"Delivery did not work\") */\n      tag_14\n      jumpi\n      mload(0x40)\n      0x08c379a000000000000000000000000000000000000000000000000000000000\n      dup2\n      mstore\n      0x04\n      add\n      tag_15\n      swap1\n      tag_16\n      jump\t// in\n    tag_15:\n      mload(0x40)\n      dup1\n      swap2\n      sub\n      swap1\n      revert\n    tag_14:\n        /* \"ItemManager.sol\":435:611  {... */\n      stop\n        /* \"ItemManager.sol\":112:613  contract Item{... */\n    tag_2:\n      0x00\n      dup1\n      revert\n        /* \"ItemManager.sol\":159:176  uint public index */\n    tag_3:\n      callvalue\n      dup1\n      iszero\n      tag_17\n      jumpi\n      0x00\n      dup1\n      revert\n    tag_17:\n      pop\n      tag_18\n      tag_19\n      jump\t// in\n    tag_18:\n      mload(0x40)\n      tag_20\n      swap2\n      swap1\n      tag_8\n      jump\t// in\n    tag_20:\n      mload(0x40)\n      dup1\n      swap2\n      sub\n      swap1\n      return\n        /* \"ItemManager.sol\":131:153  uint public priceInWei */\n    tag_4:\n      callvalue\n      dup1\n      iszero\n      tag_21\n      jumpi\n      0x00\n      dup1\n      revert\n    tag_21:\n      pop\n      tag_22\n      tag_23\n      jump\t// in\n    tag_22:\n      mload(0x40)\n      tag_24\n      swap2\n      swap1\n      tag_8\n      jump\t// in\n    tag_24:\n      mload(0x40)\n      dup1\n      swap2\n      sub\n      swap1\n      return\n        /* \"ItemManager.sol\":159:176  uint public index */\n    tag_19:\n      sload(0x01)\n      dup2\n      jump\t// out\n        /* \"ItemManager.sol\":131:153  uint public priceInWei */\n    tag_23:\n      sload(0x00)\n      dup2\n      jump\t// out\n        /* \"#utility.yul\":7:84   */\n    tag_25:\n        /* \"#utility.yul\":44:51   */\n      0x00\n        /* \"#utility.yul\":73:78   */\n      dup2\n        /* \"#utility.yul\":62:78   */\n      swap1\n      pop\n        /* \"#utility.yul\":7:84   */\n      swap2\n      swap1\n      pop\n      jump\t// out\n        /* \"#utility.yul\":90:208   */\n    tag_26:\n        /* \"#utility.yul\":177:201   */\n      tag_37\n        /* \"#utility.yul\":195:200   */\n      dup2\n        /* \"#utility.yul\":177:201   */\n      tag_25\n      jump\t// in\n    tag_37:\n        /* \"#utility.yul\":172:175   */\n      dup3\n        /* \"#utility.yul\":165:202   */\n      mstore\n        /* \"#utility.yul\":90:208   */\n      pop\n      pop\n      jump\t// out\n        /* \"#utility.yul\":214:436   */\n    tag_8:\n        /* \"#utility.yul\":307:311   */\n      0x00\n        /* \"#utility.yul\":345:347   */\n      0x20\n        /* \"#utility.yul\":334:343   */\n      dup3\n        /* \"#utility.yul\":330:348   */\n      add\n        /* \"#utility.yul\":322:348   */\n      swap1\n      pop\n        /* \"#utility.yul\":358:429   */\n      tag_39\n        /* \"#utility.yul\":426:427   */\n      0x00\n        /* \"#utility.yul\":415:424   */\n      dup4\n        /* \"#utility.yul\":411:428   */\n      add\n        /* \"#utility.yul\":402:408   */\n      dup5\n        /* \"#utility.yul\":358:429   */\n      tag_26\n      jump\t// in\n    tag_39:\n        /* \"#utility.yul\":214:436   */\n      swap3\n      swap2\n      pop\n      pop\n      jump\t// out\n        /* \"#utility.yul\":442:540   */\n    tag_27:\n        /* \"#utility.yul\":493:499   */\n      0x00\n        /* \"#utility.yul\":527:532   */\n      dup2\n        /* \"#utility.yul\":521:533   */\n      mload\n        /* \"#utility.yul\":511:533   */\n      swap1\n      pop\n        /* \"#utility.yul\":442:540   */\n      swap2\n      swap1\n      pop\n      jump\t// out\n        /* \"#utility.yul\":546:693   */\n    tag_28:\n        /* \"#utility.yul\":647:658   */\n      0x00\n        /* \"#utility.yul\":684:687   */\n      dup2\n        /* \"#utility.yul\":669:687   */\n      swap1\n      pop\n        /* \"#utility.yul\":546:693   */\n      swap3\n      swap2\n      pop\n      pop\n      jump\t// out\n        /* \"#utility.yul\":699:1006   */\n    tag_29:\n        /* \"#utility.yul\":767:768   */\n      0x00\n        /* \"#utility.yul\":777:890   */\n    tag_43:\n        /* \"#utility.yul\":791:797   */\n      dup4\n        /* \"#utility.yul\":788:789   */\n      dup2\n        /* \"#utility.yul\":785:798   */\n      lt\n        /* \"#utility.yul\":777:890   */\n      iszero\n      tag_45\n      jumpi\n        /* \"#utility.yul\":876:877   */\n      dup1\n        /* \"#utility.yul\":871:874   */\n      dup3\n        /* \"#utility.yul\":867:878   */\n      add\n        /* \"#utility.yul\":861:879   */\n      mload\n        /* \"#utility.yul\":857:858   */\n      dup2\n        /* \"#utility.yul\":852:855   */\n      dup5\n        /* \"#utility.yul\":848:859   */\n      add\n        /* \"#utility.yul\":841:880   */\n      mstore\n        /* \"#utility.yul\":813:815   */\n      0x20\n        /* \"#utility.yul\":810:811   */\n      dup2\n        /* \"#utility.yul\":806:816   */\n      add\n        /* \"#utility.yul\":801:816   */\n      swap1\n      pop\n        /* \"#utility.yul\":777:890   */\n      jump(tag_43)\n    tag_45:\n        /* \"#utility.yul\":908:914   */\n      dup4\n        /* \"#utility.yul\":905:906   */\n      dup2\n        /* \"#utility.yul\":902:915   */\n      gt\n        /* \"#utility.yul\":899:1000   */\n      iszero\n      tag_46\n      jumpi\n        /* \"#utility.yul\":988:989   */\n      0x00\n        /* \"#utility.yul\":979:985   */\n      dup5\n        /* \"#utility.yul\":974:977   */\n      dup5\n        /* \"#utility.yul\":970:986   */\n      add\n        /* \"#utility.yul\":963:990   */\n      mstore\n        /* \"#utility.yul\":899:1000   */\n    tag_46:\n        /* \"#utility.yul\":748:1006   */\n      pop\n        /* \"#utility.yul\":699:1006   */\n      pop\n      pop\n      pop\n      jump\t// out\n        /* \"#utility.yul\":1012:1385   */\n    tag_30:\n        /* \"#utility.yul\":1116:1119   */\n      0x00\n        /* \"#utility.yul\":1144:1182   */\n      tag_48\n        /* \"#utility.yul\":1176:1181   */\n      dup3\n        /* \"#utility.yul\":1144:1182   */\n      tag_27\n      jump\t// in\n    tag_48:\n        /* \"#utility.yul\":1198:1286   */\n      tag_49\n        /* \"#utility.yul\":1279:1285   */\n      dup2\n        /* \"#utility.yul\":1274:1277   */\n      dup6\n        /* \"#utility.yul\":1198:1286   */\n      tag_28\n      jump\t// in\n    tag_49:\n        /* \"#utility.yul\":1191:1286   */\n      swap4\n      pop\n        /* \"#utility.yul\":1295:1347   */\n      tag_50\n        /* \"#utility.yul\":1340:1346   */\n      dup2\n        /* \"#utility.yul\":1335:1338   */\n      dup6\n        /* \"#utility.yul\":1328:1332   */\n      0x20\n        /* \"#utility.yul\":1321:1326   */\n      dup7\n        /* \"#utility.yul\":1317:1333   */\n      add\n        /* \"#utility.yul\":1295:1347   */\n      tag_29\n      jump\t// in\n    tag_50:\n        /* \"#utility.yul\":1372:1378   */\n      dup1\n        /* \"#utility.yul\":1367:1370   */\n      dup5\n        /* \"#utility.yul\":1363:1379   */\n      add\n        /* \"#utility.yul\":1356:1379   */\n      swap2\n      pop\n        /* \"#utility.yul\":1120:1385   */\n      pop\n        /* \"#utility.yul\":1012:1385   */\n      swap3\n      swap2\n      pop\n      pop\n      jump\t// out\n        /* \"#utility.yul\":1391:1662   */\n    tag_10:\n        /* \"#utility.yul\":1521:1524   */\n      0x00\n        /* \"#utility.yul\":1543:1636   */\n      tag_52\n        /* \"#utility.yul\":1632:1635   */\n      dup3\n        /* \"#utility.yul\":1623:1629   */\n      dup5\n        /* \"#utility.yul\":1543:1636   */\n      tag_30\n      jump\t// in\n    tag_52:\n        /* \"#utility.yul\":1536:1636   */\n      swap2\n      pop\n        /* \"#utility.yul\":1653:1656   */\n      dup2\n        /* \"#utility.yul\":1646:1656   */\n      swap1\n      pop\n        /* \"#utility.yul\":1391:1662   */\n      swap3\n      swap2\n      pop\n      pop\n      jump\t// out\n        /* \"#utility.yul\":1668:1837   */\n    tag_31:\n        /* \"#utility.yul\":1752:1763   */\n      0x00\n        /* \"#utility.yul\":1786:1792   */\n      dup3\n        /* \"#utility.yul\":1781:1784   */\n      dup3\n        /* \"#utility.yul\":1774:1793   */\n      mstore\n        /* \"#utility.yul\":1826:1830   */\n      0x20\n        /* \"#utility.yul\":1821:1824   */\n      dup3\n        /* \"#utility.yul\":1817:1831   */\n      add\n        /* \"#utility.yul\":1802:1831   */\n      swap1\n      pop\n        /* \"#utility.yul\":1668:1837   */\n      swap3\n      swap2\n      pop\n      pop\n      jump\t// out\n        /* \"#utility.yul\":1843:2014   */\n    tag_32:\n        /* \"#utility.yul\":1983:2006   */\n      0x44656c697665727920646964206e6f7420776f726b0000000000000000000000\n        /* \"#utility.yul\":1979:1980   */\n      0x00\n        /* \"#utility.yul\":1971:1977   */\n      dup3\n        /* \"#utility.yul\":1967:1981   */\n      add\n        /* \"#utility.yul\":1960:2007   */\n      mstore\n        /* \"#utility.yul\":1843:2014   */\n      pop\n      jump\t// out\n        /* \"#utility.yul\":2020:2386   */\n    tag_33:\n        /* \"#utility.yul\":2162:2165   */\n      0x00\n        /* \"#utility.yul\":2183:2250   */\n      tag_56\n        /* \"#utility.yul\":2247:2249   */\n      0x15\n        /* \"#utility.yul\":2242:2245   */\n      dup4\n        /* \"#utility.yul\":2183:2250   */\n      tag_31\n      jump\t// in\n    tag_56:\n        /* \"#utility.yul\":2176:2250   */\n      swap2\n      pop\n        /* \"#utility.yul\":2259:2352   */\n      tag_57\n        /* \"#utility.yul\":2348:2351   */\n      dup3\n        /* \"#utility.yul\":2259:2352   */\n      tag_32\n      jump\t// in\n    tag_57:\n        /* \"#utility.yul\":2377:2379   */\n      0x20\n        /* \"#utility.yul\":2372:2375   */\n      dup3\n        /* \"#utility.yul\":2368:2380   */\n      add\n        /* \"#utility.yul\":2361:2380   */\n      swap1\n      pop\n        /* \"#utility.yul\":2020:2386   */\n      swap2\n      swap1\n      pop\n      jump\t// out\n        /* \"#utility.yul\":2392:2811   */\n    tag_16:\n        /* \"#utility.yul\":2558:2562   */\n      0x00\n        /* \"#utility.yul\":2596:2598   */\n      0x20\n        /* \"#utility.yul\":2585:2594   */\n      dup3\n        /* \"#utility.yul\":2581:2599   */\n      add\n        /* \"#utility.yul\":2573:2599   */\n      swap1\n      pop\n        /* \"#utility.yul\":2645:2654   */\n      dup2\n        /* \"#utility.yul\":2639:2643   */\n      dup2\n        /* \"#utility.yul\":2635:2655   */\n      sub\n        /* \"#utility.yul\":2631:2632   */\n      0x00\n        /* \"#utility.yul\":2620:2629   */\n      dup4\n        /* \"#utility.yul\":2616:2633   */\n      add\n        /* \"#utility.yul\":2609:2656   */\n      mstore\n        /* \"#utility.yul\":2673:2804   */\n      tag_59\n        /* \"#utility.yul\":2799:2803   */\n      dup2\n        /* \"#utility.yul\":2673:2804   */\n      tag_33\n      jump\t// in\n    tag_59:\n        /* \"#utility.yul\":2665:2804   */\n      swap1\n      pop\n        /* \"#utility.yul\":2392:2811   */\n      swap2\n      swap1\n      pop\n      jump\t// out\n\n    auxdata: 0xa264697066735822122083778e70291262c0356f4e3a572d8ff0a8b8a78917c55aab354c6cd9ed7cd16d64736f6c634300080d0033\n}\n",
				"bytecode": {
					"linkReferences": {},
					"object": "608060405234801561001057600080fd5b5060405161050838038061050883398181016040528101906100329190610134565b816000819055508060018190555082600260006101000a81548173ffffffffffffffffffffffffffffffffffffffff021916908373ffffffffffffffffffffffffffffffffffffffff160217905550505050610187565b600080fd5b600073ffffffffffffffffffffffffffffffffffffffff82169050919050565b60006100b98261008e565b9050919050565b60006100cb826100ae565b9050919050565b6100db816100c0565b81146100e657600080fd5b50565b6000815190506100f8816100d2565b92915050565b6000819050919050565b610111816100fe565b811461011c57600080fd5b50565b60008151905061012e81610108565b92915050565b60008060006060848603121561014d5761014c610089565b5b600061015b868287016100e9565b935050602061016c8682870161011f565b925050604061017d8682870161011f565b9150509250925092565b610372806101966000396000f3fe60806040526004361061002d5760003560e01c80632986c0e5146101985780633c8da588146101c357610193565b36610193576000600260009054906101000a900473ffffffffffffffffffffffffffffffffffffffff1673ffffffffffffffffffffffffffffffffffffffff16346001546040516024016100819190610213565b6040516020818303038152906040527f800fb83f000000000000000000000000000000000000000000000000000000007bffffffffffffffffffffffffffffffffffffffffffffffffffffffff19166020820180517bffffffffffffffffffffffffffffffffffffffffffffffffffffffff838183161783525050505060405161010b91906102a8565b60006040518083038185875af1925050503d8060008114610148576040519150601f19603f3d011682016040523d82523d6000602084013e61014d565b606091505b5050905080610191576040517f08c379a00000000000000000000000000000000000000000000000000000000081526004016101889061031c565b60405180910390fd5b005b600080fd5b3480156101a457600080fd5b506101ad6101ee565b6040516101ba9190610213565b60405180910390f35b3480156101cf57600080fd5b506101d86101f4565b6040516101e59190610213565b60405180910390f35b60015481565b60005481565b6000819050919050565b61020d816101fa565b82525050565b60006020820190506102286000830184610204565b92915050565b600081519050919050565b600081905092915050565b60005b83811015610262578082015181840152602081019050610247565b83811115610271576000848401525b50505050565b60006102828261022e565b61028c8185610239565b935061029c818560208601610244565b80840191505092915050565b60006102b48284610277565b915081905092915050565b600082825260208201905092915050565b7f44656c697665727920646964206e6f7420776f726b0000000000000000000000600082015250565b60006103066015836102bf565b9150610311826102d0565b602082019050919050565b60006020820190508181036000830152610335816102f9565b905091905056fea264697066735822122083778e70291262c0356f4e3a572d8ff0a8b8a78917c55aab354c6cd9ed7cd16d64736f6c634300080d0033",
					"opcodes": "PUSH1 0x80 PUSH1 0x40 MSTORE CALLVALUE DUP1 ISZERO PUSH2 0x10 JUMPI PUSH1 0x0 DUP1 REVERT JUMPDEST POP PUSH1 0x40 MLOAD PUSH2 0x508 CODESIZE SUB DUP1 PUSH2 0x508 DUP4 CODECOPY DUP2 DUP2 ADD PUSH1 0x40 MSTORE DUP2 ADD SWAP1 PUSH2 0x32 SWAP2 SWAP1 PUSH2 0x134 JUMP JUMPDEST DUP2 PUSH1 0x0 DUP2 SWAP1 SSTORE POP DUP1 PUSH1 0x1 DUP2 SWAP1 SSTORE POP DUP3 PUSH1 0x2 PUSH1 0x0 PUSH2 0x100 EXP DUP2 SLOAD DUP2 PUSH20 0xFFFFFFFFFFFFFFFFFFFFFFFFFFFFFFFFFFFFFFFF MUL NOT AND SWAP1 DUP4 PUSH20 0xFFFFFFFFFFFFFFFFFFFFFFFFFFFFFFFFFFFFFFFF AND MUL OR SWAP1 SSTORE POP POP POP POP PUSH2 0x187 JUMP JUMPDEST PUSH1 0x0 DUP1 REVERT JUMPDEST PUSH1 0x0 PUSH20 0xFFFFFFFFFFFFFFFFFFFFFFFFFFFFFFFFFFFFFFFF DUP3 AND SWAP1 POP SWAP2 SWAP1 POP JUMP JUMPDEST PUSH1 0x0 PUSH2 0xB9 DUP3 PUSH2 0x8E JUMP JUMPDEST SWAP1 POP SWAP2 SWAP1 POP JUMP JUMPDEST PUSH1 0x0 PUSH2 0xCB DUP3 PUSH2 0xAE JUMP JUMPDEST SWAP1 POP SWAP2 SWAP1 POP JUMP JUMPDEST PUSH2 0xDB DUP2 PUSH2 0xC0 JUMP JUMPDEST DUP2 EQ PUSH2 0xE6 JUMPI PUSH1 0x0 DUP1 REVERT JUMPDEST POP JUMP JUMPDEST PUSH1 0x0 DUP2 MLOAD SWAP1 POP PUSH2 0xF8 DUP2 PUSH2 0xD2 JUMP JUMPDEST SWAP3 SWAP2 POP POP JUMP JUMPDEST PUSH1 0x0 DUP2 SWAP1 POP SWAP2 SWAP1 POP JUMP JUMPDEST PUSH2 0x111 DUP2 PUSH2 0xFE JUMP JUMPDEST DUP2 EQ PUSH2 0x11C JUMPI PUSH1 0x0 DUP1 REVERT JUMPDEST POP JUMP JUMPDEST PUSH1 0x0 DUP2 MLOAD SWAP1 POP PUSH2 0x12E DUP2 PUSH2 0x108 JUMP JUMPDEST SWAP3 SWAP2 POP POP JUMP JUMPDEST PUSH1 0x0 DUP1 PUSH1 0x0 PUSH1 0x60 DUP5 DUP7 SUB SLT ISZERO PUSH2 0x14D JUMPI PUSH2 0x14C PUSH2 0x89 JUMP JUMPDEST JUMPDEST PUSH1 0x0 PUSH2 0x15B DUP7 DUP3 DUP8 ADD PUSH2 0xE9 JUMP JUMPDEST SWAP4 POP POP PUSH1 0x20 PUSH2 0x16C DUP7 DUP3 DUP8 ADD PUSH2 0x11F JUMP JUMPDEST SWAP3 POP POP PUSH1 0x40 PUSH2 0x17D DUP7 DUP3 DUP8 ADD PUSH2 0x11F JUMP JUMPDEST SWAP2 POP POP SWAP3 POP SWAP3 POP SWAP3 JUMP JUMPDEST PUSH2 0x372 DUP1 PUSH2 0x196 PUSH1 0x0 CODECOPY PUSH1 0x0 RETURN INVALID PUSH1 0x80 PUSH1 0x40 MSTORE PUSH1 0x4 CALLDATASIZE LT PUSH2 0x2D JUMPI PUSH1 0x0 CALLDATALOAD PUSH1 0xE0 SHR DUP1 PUSH4 0x2986C0E5 EQ PUSH2 0x198 JUMPI DUP1 PUSH4 0x3C8DA588 EQ PUSH2 0x1C3 JUMPI PUSH2 0x193 JUMP JUMPDEST CALLDATASIZE PUSH2 0x193 JUMPI PUSH1 0x0 PUSH1 0x2 PUSH1 0x0 SWAP1 SLOAD SWAP1 PUSH2 0x100 EXP SWAP1 DIV PUSH20 0xFFFFFFFFFFFFFFFFFFFFFFFFFFFFFFFFFFFFFFFF AND PUSH20 0xFFFFFFFFFFFFFFFFFFFFFFFFFFFFFFFFFFFFFFFF AND CALLVALUE PUSH1 0x1 SLOAD PUSH1 0x40 MLOAD PUSH1 0x24 ADD PUSH2 0x81 SWAP2 SWAP1 PUSH2 0x213 JUMP JUMPDEST PUSH1 0x40 MLOAD PUSH1 0x20 DUP2 DUP4 SUB SUB DUP2 MSTORE SWAP1 PUSH1 0x40 MSTORE PUSH32 0x800FB83F00000000000000000000000000000000000000000000000000000000 PUSH28 0xFFFFFFFFFFFFFFFFFFFFFFFFFFFFFFFFFFFFFFFFFFFFFFFFFFFFFFFF NOT AND PUSH1 0x20 DUP3 ADD DUP1 MLOAD PUSH28 0xFFFFFFFFFFFFFFFFFFFFFFFFFFFFFFFFFFFFFFFFFFFFFFFFFFFFFFFF DUP4 DUP2 DUP4 AND OR DUP4 MSTORE POP POP POP POP PUSH1 0x40 MLOAD PUSH2 0x10B SWAP2 SWAP1 PUSH2 0x2A8 JUMP JUMPDEST PUSH1 0x0 PUSH1 0x40 MLOAD DUP1 DUP4 SUB DUP2 DUP6 DUP8 GAS CALL SWAP3 POP POP POP RETURNDATASIZE DUP1 PUSH1 0x0 DUP2 EQ PUSH2 0x148 JUMPI PUSH1 0x40 MLOAD SWAP2 POP PUSH1 0x1F NOT PUSH1 0x3F RETURNDATASIZE ADD AND DUP3 ADD PUSH1 0x40 MSTORE RETURNDATASIZE DUP3 MSTORE RETURNDATASIZE PUSH1 0x0 PUSH1 0x20 DUP5 ADD RETURNDATACOPY PUSH2 0x14D JUMP JUMPDEST PUSH1 0x60 SWAP2 POP JUMPDEST POP POP SWAP1 POP DUP1 PUSH2 0x191 JUMPI PUSH1 0x40 MLOAD PUSH32 0x8C379A000000000000000000000000000000000000000000000000000000000 DUP2 MSTORE PUSH1 0x4 ADD PUSH2 0x188 SWAP1 PUSH2 0x31C JUMP JUMPDEST PUSH1 0x40 MLOAD DUP1 SWAP2 SUB SWAP1 REVERT JUMPDEST STOP JUMPDEST PUSH1 0x0 DUP1 REVERT JUMPDEST CALLVALUE DUP1 ISZERO PUSH2 0x1A4 JUMPI PUSH1 0x0 DUP1 REVERT JUMPDEST POP PUSH2 0x1AD PUSH2 0x1EE JUMP JUMPDEST PUSH1 0x40 MLOAD PUSH2 0x1BA SWAP2 SWAP1 PUSH2 0x213 JUMP JUMPDEST PUSH1 0x40 MLOAD DUP1 SWAP2 SUB SWAP1 RETURN JUMPDEST CALLVALUE DUP1 ISZERO PUSH2 0x1CF JUMPI PUSH1 0x0 DUP1 REVERT JUMPDEST POP PUSH2 0x1D8 PUSH2 0x1F4 JUMP JUMPDEST PUSH1 0x40 MLOAD PUSH2 0x1E5 SWAP2 SWAP1 PUSH2 0x213 JUMP JUMPDEST PUSH1 0x40 MLOAD DUP1 SWAP2 SUB SWAP1 RETURN JUMPDEST PUSH1 0x1 SLOAD DUP2 JUMP JUMPDEST PUSH1 0x0 SLOAD DUP2 JUMP JUMPDEST PUSH1 0x0 DUP2 SWAP1 POP SWAP2 SWAP1 POP JUMP JUMPDEST PUSH2 0x20D DUP2 PUSH2 0x1FA JUMP JUMPDEST DUP3 MSTORE POP POP JUMP JUMPDEST PUSH1 0x0 PUSH1 0x20 DUP3 ADD SWAP1 POP PUSH2 0x228 PUSH1 0x0 DUP4 ADD DUP5 PUSH2 0x204 JUMP JUMPDEST SWAP3 SWAP2 POP POP JUMP JUMPDEST PUSH1 0x0 DUP2 MLOAD SWAP1 POP SWAP2 SWAP1 POP JUMP JUMPDEST PUSH1 0x0 DUP2 SWAP1 POP SWAP3 SWAP2 POP POP JUMP JUMPDEST PUSH1 0x0 JUMPDEST DUP4 DUP2 LT ISZERO PUSH2 0x262 JUMPI DUP1 DUP3 ADD MLOAD DUP2 DUP5 ADD MSTORE PUSH1 0x20 DUP2 ADD SWAP1 POP PUSH2 0x247 JUMP JUMPDEST DUP4 DUP2 GT ISZERO PUSH2 0x271 JUMPI PUSH1 0x0 DUP5 DUP5 ADD MSTORE JUMPDEST POP POP POP POP JUMP JUMPDEST PUSH1 0x0 PUSH2 0x282 DUP3 PUSH2 0x22E JUMP JUMPDEST PUSH2 0x28C DUP2 DUP6 PUSH2 0x239 JUMP JUMPDEST SWAP4 POP PUSH2 0x29C DUP2 DUP6 PUSH1 0x20 DUP7 ADD PUSH2 0x244 JUMP JUMPDEST DUP1 DUP5 ADD SWAP2 POP POP SWAP3 SWAP2 POP POP JUMP JUMPDEST PUSH1 0x0 PUSH2 0x2B4 DUP3 DUP5 PUSH2 0x277 JUMP JUMPDEST SWAP2 POP DUP2 SWAP1 POP SWAP3 SWAP2 POP POP JUMP JUMPDEST PUSH1 0x0 DUP3 DUP3 MSTORE PUSH1 0x20 DUP3 ADD SWAP1 POP SWAP3 SWAP2 POP POP JUMP JUMPDEST PUSH32 0x44656C697665727920646964206E6F7420776F726B0000000000000000000000 PUSH1 0x0 DUP3 ADD MSTORE POP JUMP JUMPDEST PUSH1 0x0 PUSH2 0x306 PUSH1 0x15 DUP4 PUSH2 0x2BF JUMP JUMPDEST SWAP2 POP PUSH2 0x311 DUP3 PUSH2 0x2D0 JUMP JUMPDEST PUSH1 0x20 DUP3 ADD SWAP1 POP SWAP2 SWAP1 POP JUMP JUMPDEST PUSH1 0x0 PUSH1 0x20 DUP3 ADD SWAP1 POP DUP2 DUP2 SUB PUSH1 0x0 DUP4 ADD MSTORE PUSH2 0x335 DUP2 PUSH2 0x2F9 JUMP JUMPDEST SWAP1 POP SWAP2 SWAP1 POP JUMP INVALID LOG2 PUSH5 0x6970667358 0x22 SLT KECCAK256 DUP4 PUSH24 0x8E70291262C0356F4E3A572D8FF0A8B8A78917C55AAB354C PUSH13 0xD9ED7CD16D64736F6C63430008 0xD STOP CALLER "
				},
				"gasEstimates": {
					"creation": {
						"codeDepositCost": "176400",
						"executionCost": "infinite",
						"totalCost": "infinite"
					},
					"external": {
						"index()": "2407",
						"priceInWei()": "2429"
					}
				},
				"methodIdentifiers": {
					"index()": "2986c0e5",
					"priceInWei()": "3c8da588"
				}
			},
			"storageLayout": {
				"storage": [
					{
						"astId": 3,
						"contract": "ItemManager.sol:Item",
						"label": "priceInWei",
						"offset": 0,
						"slot": "0",
						"type": "t_uint256"
					},
					{
						"astId": 5,
						"contract": "ItemManager.sol:Item",
						"label": "index",
						"offset": 0,
						"slot": "1",
						"type": "t_uint256"
					},
					{
						"astId": 8,
						"contract": "ItemManager.sol:Item",
						"label": "parentContract",
						"offset": 0,
						"slot": "2",
						"type": "t_contract(ItemManager)232"
					}
				],
				"types": {
					"t_contract(ItemManager)232": {
						"encoding": "inplace",
						"label": "contract ItemManager",
						"numberOfBytes": "20"
					},
					"t_uint256": {
						"encoding": "inplace",
						"label": "uint256",
						"numberOfBytes": "32"
					}
				}
			},
			"userdoc": {
				"kind": "user",
				"methods": {},
				"version": 1
			}
		}
	}
}