{
	"MyProjectSharedWallet.sol": {
		"SharedWallet": {
			"abi": [
				{
					"inputs": [],
					"stateMutability": "nonpayable",
					"type": "constructor"
				},
				{
					"inputs": [
						{
							"internalType": "address payable",
							"name": "_to",
							"type": "address"
						},
						{
							"internalType": "uint256",
							"name": "_amount",
							"type": "uint256"
						}
					],
					"name": "ClaimMoney",
					"outputs": [],
					"stateMutability": "nonpayable",
					"type": "function"
				},
				{
					"inputs": [],
					"name": "SendMoney",
					"outputs": [],
					"stateMutability": "payable",
					"type": "function"
				},
				{
					"inputs": [
						{
							"internalType": "address",
							"name": "",
							"type": "address"
						}
					],
					"name": "beneficiaries",
					"outputs": [
						{
							"internalType": "uint256",
							"name": "allowance",
							"type": "uint256"
						},
						{
							"internalType": "uint256",
							"name": "claimsMade",
							"type": "uint256"
						}
					],
					"stateMutability": "view",
					"type": "function"
				},
				{
					"inputs": [],
					"name": "contractBalance",
					"outputs": [
						{
							"internalType": "uint256",
							"name": "",
							"type": "uint256"
						}
					],
					"stateMutability": "view",
					"type": "function"
				},
				{
					"inputs": [],
					"name": "owner",
					"outputs": [
						{
							"internalType": "address",
							"name": "",
							"type": "address"
						}
					],
					"stateMutability": "view",
					"type": "function"
				},
				{
					"inputs": [
						{
							"internalType": "address payable",
							"name": "_to",
							"type": "address"
						},
						{
							"internalType": "uint256",
							"name": "_amount",
							"type": "uint256"
						}
					],
					"name": "ownerWithdraw",
					"outputs": [],
					"stateMutability": "nonpayable",
					"type": "function"
				},
				{
					"inputs": [],
					"name": "totalAllowances",
					"outputs": [
						{
							"internalType": "uint256",
							"name": "",
							"type": "uint256"
						}
					],
					"stateMutability": "view",
					"type": "function"
				},
				{
					"inputs": [],
					"name": "totalClaims",
					"outputs": [
						{
							"internalType": "uint256",
							"name": "",
							"type": "uint256"
						}
					],
					"stateMutability": "view",
					"type": "function"
				}
			],
			"devdoc": {
				"kind": "dev",
				"methods": {},
				"version": 1
			},
			"evm": {
				"assembly": "    /* \"MyProjectSharedWallet.sol\":156:2223  contract SharedWallet {... */\n  mstore(0x40, 0x80)\n    /* \"MyProjectSharedWallet.sol\":765:814  constructor() {... */\n  callvalue\n  dup1\n  iszero\n  tag_1\n  jumpi\n  0x00\n  dup1\n  revert\ntag_1:\n  pop\n    /* \"MyProjectSharedWallet.sol\":797:807  msg.sender */\n  caller\n    /* \"MyProjectSharedWallet.sol\":789:794  owner */\n  0x00\n  dup1\n    /* \"MyProjectSharedWallet.sol\":789:807  owner = msg.sender */\n  0x0100\n  exp\n  dup2\n  sload\n  dup2\n  0xffffffffffffffffffffffffffffffffffffffff\n  mul\n  not\n  and\n  swap1\n  dup4\n  0xffffffffffffffffffffffffffffffffffffffff\n  and\n  mul\n  or\n  swap1\n  sstore\n  pop\n    /* \"MyProjectSharedWallet.sol\":156:2223  contract SharedWallet {... */\n  dataSize(sub_0)\n  dup1\n  dataOffset(sub_0)\n  0x00\n  codecopy\n  0x00\n  return\nstop\n\nsub_0: assembly {\n        /* \"MyProjectSharedWallet.sol\":156:2223  contract SharedWallet {... */\n      mstore(0x40, 0x80)\n      jumpi(tag_1, lt(calldatasize, 0x04))\n      shr(0xe0, calldataload(0x00))\n      dup1\n      0x41c61383\n      gt\n      tag_10\n      jumpi\n      dup1\n      0x41c61383\n      eq\n      tag_6\n      jumpi\n      dup1\n      0x8b7afe2e\n      eq\n      tag_7\n      jumpi\n      dup1\n      0x8da5cb5b\n      eq\n      tag_8\n      jumpi\n      dup1\n      0xd9c88e14\n      eq\n      tag_9\n      jumpi\n      jump(tag_1)\n    tag_10:\n      dup1\n      0x01567739\n      eq\n      tag_2\n      jumpi\n      dup1\n      0x05737314\n      eq\n      tag_3\n      jumpi\n      dup1\n      0x16a51305\n      eq\n      tag_4\n      jumpi\n      dup1\n      0x2d70db2f\n      eq\n      tag_5\n      jumpi\n    tag_1:\n      0x00\n      dup1\n      revert\n        /* \"MyProjectSharedWallet.sol\":449:508  mapping(address => BeneficiaryDetails) public beneficiaries */\n    tag_2:\n      callvalue\n      dup1\n      iszero\n      tag_11\n      jumpi\n      0x00\n      dup1\n      revert\n    tag_11:\n      pop\n      tag_12\n      0x04\n      dup1\n      calldatasize\n      sub\n      dup2\n      add\n      swap1\n      tag_13\n      swap2\n      swap1\n      tag_14\n      jump\t// in\n    tag_13:\n      tag_15\n      jump\t// in\n    tag_12:\n      mload(0x40)\n      tag_16\n      swap3\n      swap2\n      swap1\n      tag_17\n      jump\t// in\n    tag_16:\n      mload(0x40)\n      dup1\n      swap2\n      sub\n      swap1\n      return\n        /* \"MyProjectSharedWallet.sol\":1003:1095  function SendMoney() public payable {... */\n    tag_3:\n      tag_18\n      tag_19\n      jump\t// in\n    tag_18:\n      stop\n        /* \"MyProjectSharedWallet.sol\":555:582  uint public totalAllowances */\n    tag_4:\n      callvalue\n      dup1\n      iszero\n      tag_20\n      jumpi\n      0x00\n      dup1\n      revert\n    tag_20:\n      pop\n      tag_21\n      tag_22\n      jump\t// in\n    tag_21:\n      mload(0x40)\n      tag_23\n      swap2\n      swap1\n      tag_24\n      jump\t// in\n    tag_23:\n      mload(0x40)\n      dup1\n      swap2\n      sub\n      swap1\n      return\n        /* \"MyProjectSharedWallet.sol\":1193:1966  function ClaimMoney(address payable _to, uint _amount) public {... */\n    tag_5:\n      callvalue\n      dup1\n      iszero\n      tag_25\n      jumpi\n      0x00\n      dup1\n      revert\n    tag_25:\n      pop\n      tag_26\n      0x04\n      dup1\n      calldatasize\n      sub\n      dup2\n      add\n      swap1\n      tag_27\n      swap2\n      swap1\n      tag_28\n      jump\t// in\n    tag_27:\n      tag_29\n      jump\t// in\n    tag_26:\n      stop\n        /* \"MyProjectSharedWallet.sol\":627:650  uint public totalClaims */\n    tag_6:\n      callvalue\n      dup1\n      iszero\n      tag_30\n      jumpi\n      0x00\n      dup1\n      revert\n    tag_30:\n      pop\n      tag_31\n      tag_32\n      jump\t// in\n    tag_31:\n      mload(0x40)\n      tag_33\n      swap2\n      swap1\n      tag_24\n      jump\t// in\n    tag_33:\n      mload(0x40)\n      dup1\n      swap2\n      sub\n      swap1\n      return\n        /* \"MyProjectSharedWallet.sol\":687:714  uint public contractBalance */\n    tag_7:\n      callvalue\n      dup1\n      iszero\n      tag_34\n      jumpi\n      0x00\n      dup1\n      revert\n    tag_34:\n      pop\n      tag_35\n      tag_36\n      jump\t// in\n    tag_35:\n      mload(0x40)\n      tag_37\n      swap2\n      swap1\n      tag_24\n      jump\t// in\n    tag_37:\n      mload(0x40)\n      dup1\n      swap2\n      sub\n      swap1\n      return\n        /* \"MyProjectSharedWallet.sol\":374:394  address public owner */\n    tag_8:\n      callvalue\n      dup1\n      iszero\n      tag_38\n      jumpi\n      0x00\n      dup1\n      revert\n    tag_38:\n      pop\n      tag_39\n      tag_40\n      jump\t// in\n    tag_39:\n      mload(0x40)\n      tag_41\n      swap2\n      swap1\n      tag_42\n      jump\t// in\n    tag_41:\n      mload(0x40)\n      dup1\n      swap2\n      sub\n      swap1\n      return\n        /* \"MyProjectSharedWallet.sol\":2016:2221  function ownerWithdraw(address payable _to, uint _amount) public onlyOwner {... */\n    tag_9:\n      callvalue\n      dup1\n      iszero\n      tag_43\n      jumpi\n      0x00\n      dup1\n      revert\n    tag_43:\n      pop\n      tag_44\n      0x04\n      dup1\n      calldatasize\n      sub\n      dup2\n      add\n      swap1\n      tag_45\n      swap2\n      swap1\n      tag_28\n      jump\t// in\n    tag_45:\n      tag_46\n      jump\t// in\n    tag_44:\n      stop\n        /* \"MyProjectSharedWallet.sol\":449:508  mapping(address => BeneficiaryDetails) public beneficiaries */\n    tag_15:\n      mstore(0x20, 0x01)\n      dup1\n      0x00\n      mstore\n      keccak256(0x00, 0x40)\n      0x00\n      swap2\n      pop\n      swap1\n      pop\n      dup1\n      0x00\n      add\n      sload\n      swap1\n      dup1\n      0x01\n      add\n      sload\n      swap1\n      pop\n      dup3\n      jump\t// out\n        /* \"MyProjectSharedWallet.sol\":1003:1095  function SendMoney() public payable {... */\n    tag_19:\n        /* \"MyProjectSharedWallet.sol\":1067:1088  address(this).balance */\n      selfbalance\n        /* \"MyProjectSharedWallet.sol\":1049:1064  contractBalance */\n      0x04\n        /* \"MyProjectSharedWallet.sol\":1049:1088  contractBalance = address(this).balance */\n      dup2\n      swap1\n      sstore\n      pop\n        /* \"MyProjectSharedWallet.sol\":1003:1095  function SendMoney() public payable {... */\n      jump\t// out\n        /* \"MyProjectSharedWallet.sol\":555:582  uint public totalAllowances */\n    tag_22:\n      sload(0x02)\n      dup2\n      jump\t// out\n        /* \"MyProjectSharedWallet.sol\":1193:1966  function ClaimMoney(address payable _to, uint _amount) public {... */\n    tag_29:\n        /* \"MyProjectSharedWallet.sol\":1287:1292  owner */\n      0x00\n      dup1\n      sload\n      swap1\n      0x0100\n      exp\n      swap1\n      div\n      0xffffffffffffffffffffffffffffffffffffffff\n      and\n        /* \"MyProjectSharedWallet.sol\":1273:1292  msg.sender != owner */\n      0xffffffffffffffffffffffffffffffffffffffff\n      and\n        /* \"MyProjectSharedWallet.sol\":1273:1283  msg.sender */\n      caller\n        /* \"MyProjectSharedWallet.sol\":1273:1292  msg.sender != owner */\n      0xffffffffffffffffffffffffffffffffffffffff\n      and\n      sub\n        /* \"MyProjectSharedWallet.sol\":1265:1340  require(msg.sender != owner, \"The owner should use ownerWithdraw function\") */\n      tag_49\n      jumpi\n      mload(0x40)\n      0x08c379a000000000000000000000000000000000000000000000000000000000\n      dup2\n      mstore\n      0x04\n      add\n      tag_50\n      swap1\n      tag_51\n      jump\t// in\n    tag_50:\n      mload(0x40)\n      dup1\n      swap2\n      sub\n      swap1\n      revert\n    tag_49:\n        /* \"MyProjectSharedWallet.sol\":1382:1383  0 */\n      0x00\n        /* \"MyProjectSharedWallet.sol\":1358:1379  address(this).balance */\n      selfbalance\n        /* \"MyProjectSharedWallet.sol\":1358:1383  address(this).balance > 0 */\n      gt\n        /* \"MyProjectSharedWallet.sol\":1350:1428  require(address(this).balance > 0, \"There is no money in the wallet to claim\") */\n      tag_52\n      jumpi\n      mload(0x40)\n      0x08c379a000000000000000000000000000000000000000000000000000000000\n      dup2\n      mstore\n      0x04\n      add\n      tag_53\n      swap1\n      tag_54\n      jump\t// in\n    tag_53:\n      mload(0x40)\n      dup1\n      swap2\n      sub\n      swap1\n      revert\n    tag_52:\n        /* \"MyProjectSharedWallet.sol\":1484:1485  0 */\n      0x00\n        /* \"MyProjectSharedWallet.sol\":1446:1459  beneficiaries */\n      0x01\n        /* \"MyProjectSharedWallet.sol\":1446:1471  beneficiaries[msg.sender] */\n      0x00\n        /* \"MyProjectSharedWallet.sol\":1460:1470  msg.sender */\n      caller\n        /* \"MyProjectSharedWallet.sol\":1446:1471  beneficiaries[msg.sender] */\n      0xffffffffffffffffffffffffffffffffffffffff\n      and\n      0xffffffffffffffffffffffffffffffffffffffff\n      and\n      dup2\n      mstore\n      0x20\n      add\n      swap1\n      dup2\n      mstore\n      0x20\n      add\n      0x00\n      keccak256\n        /* \"MyProjectSharedWallet.sol\":1446:1481  beneficiaries[msg.sender].allowance */\n      0x00\n      add\n      sload\n        /* \"MyProjectSharedWallet.sol\":1446:1485  beneficiaries[msg.sender].allowance > 0 */\n      gt\n        /* \"MyProjectSharedWallet.sol\":1438:1518  require(beneficiaries[msg.sender].allowance > 0,\"You do not have any allowance\") */\n      tag_55\n      jumpi\n      mload(0x40)\n      0x08c379a000000000000000000000000000000000000000000000000000000000\n      dup2\n      mstore\n      0x04\n      add\n      tag_56\n      swap1\n      tag_57\n      jump\t// in\n    tag_56:\n      mload(0x40)\n      dup1\n      swap2\n      sub\n      swap1\n      revert\n    tag_55:\n        /* \"MyProjectSharedWallet.sol\":1528:1542  uint allowance */\n      0x00\n        /* \"MyProjectSharedWallet.sol\":1545:1558  beneficiaries */\n      0x01\n        /* \"MyProjectSharedWallet.sol\":1545:1570  beneficiaries[msg.sender] */\n      0x00\n        /* \"MyProjectSharedWallet.sol\":1559:1569  msg.sender */\n      caller\n        /* \"MyProjectSharedWallet.sol\":1545:1570  beneficiaries[msg.sender] */\n      0xffffffffffffffffffffffffffffffffffffffff\n      and\n      0xffffffffffffffffffffffffffffffffffffffff\n      and\n      dup2\n      mstore\n      0x20\n      add\n      swap1\n      dup2\n      mstore\n      0x20\n      add\n      0x00\n      keccak256\n        /* \"MyProjectSharedWallet.sol\":1545:1580  beneficiaries[msg.sender].allowance */\n      0x00\n      add\n      sload\n        /* \"MyProjectSharedWallet.sol\":1528:1580  uint allowance = beneficiaries[msg.sender].allowance */\n      swap1\n      pop\n        /* \"MyProjectSharedWallet.sol\":1590:1613  uint allowanceRemaining */\n      0x00\n        /* \"MyProjectSharedWallet.sol\":1680:1693  beneficiaries */\n      0x01\n        /* \"MyProjectSharedWallet.sol\":1680:1705  beneficiaries[msg.sender] */\n      0x00\n        /* \"MyProjectSharedWallet.sol\":1694:1704  msg.sender */\n      caller\n        /* \"MyProjectSharedWallet.sol\":1680:1705  beneficiaries[msg.sender] */\n      0xffffffffffffffffffffffffffffffffffffffff\n      and\n      0xffffffffffffffffffffffffffffffffffffffff\n      and\n      dup2\n      mstore\n      0x20\n      add\n      swap1\n      dup2\n      mstore\n      0x20\n      add\n      0x00\n      keccak256\n        /* \"MyProjectSharedWallet.sol\":1680:1716  beneficiaries[msg.sender].claimsMade */\n      0x01\n      add\n      sload\n        /* \"MyProjectSharedWallet.sol\":1653:1664  totalClaims */\n      sload(0x03)\n        /* \"MyProjectSharedWallet.sol\":1629:1650  address(this).balance */\n      selfbalance\n        /* \"MyProjectSharedWallet.sol\":1629:1664  address(this).balance + totalClaims */\n      tag_58\n      swap2\n      swap1\n      tag_59\n      jump\t// in\n    tag_58:\n        /* \"MyProjectSharedWallet.sol\":1616:1625  allowance */\n      dup4\n        /* \"MyProjectSharedWallet.sol\":1616:1665  allowance * (address(this).balance + totalClaims) */\n      tag_60\n      swap2\n      swap1\n      tag_61\n      jump\t// in\n    tag_60:\n        /* \"MyProjectSharedWallet.sol\":1616:1716  allowance * (address(this).balance + totalClaims)... */\n      tag_62\n      swap2\n      swap1\n      tag_63\n      jump\t// in\n    tag_62:\n        /* \"MyProjectSharedWallet.sol\":1590:1716  uint allowanceRemaining = allowance * (address(this).balance + totalClaims)... */\n      swap1\n      pop\n        /* \"MyProjectSharedWallet.sol\":1745:1763  allowanceRemaining */\n      dup1\n        /* \"MyProjectSharedWallet.sol\":1734:1741  _amount */\n      dup4\n        /* \"MyProjectSharedWallet.sol\":1734:1763  _amount <= allowanceRemaining */\n      gt\n      iszero\n        /* \"MyProjectSharedWallet.sol\":1726:1790  require(_amount <= allowanceRemaining, \"The amount is too high\") */\n      tag_64\n      jumpi\n      mload(0x40)\n      0x08c379a000000000000000000000000000000000000000000000000000000000\n      dup2\n      mstore\n      0x04\n      add\n      tag_65\n      swap1\n      tag_66\n      jump\t// in\n    tag_65:\n      mload(0x40)\n      dup1\n      swap2\n      sub\n      swap1\n      revert\n    tag_64:\n        /* \"MyProjectSharedWallet.sol\":1840:1847  _amount */\n      dup3\n        /* \"MyProjectSharedWallet.sol\":1800:1813  beneficiaries */\n      0x01\n        /* \"MyProjectSharedWallet.sol\":1800:1825  beneficiaries[msg.sender] */\n      0x00\n        /* \"MyProjectSharedWallet.sol\":1814:1824  msg.sender */\n      caller\n        /* \"MyProjectSharedWallet.sol\":1800:1825  beneficiaries[msg.sender] */\n      0xffffffffffffffffffffffffffffffffffffffff\n      and\n      0xffffffffffffffffffffffffffffffffffffffff\n      and\n      dup2\n      mstore\n      0x20\n      add\n      swap1\n      dup2\n      mstore\n      0x20\n      add\n      0x00\n      keccak256\n        /* \"MyProjectSharedWallet.sol\":1800:1836  beneficiaries[msg.sender].claimsMade */\n      0x01\n      add\n      0x00\n        /* \"MyProjectSharedWallet.sol\":1800:1847  beneficiaries[msg.sender].claimsMade += _amount */\n      dup3\n      dup3\n      sload\n      tag_67\n      swap2\n      swap1\n      tag_59\n      jump\t// in\n    tag_67:\n      swap3\n      pop\n      pop\n      dup2\n      swap1\n      sstore\n      pop\n        /* \"MyProjectSharedWallet.sol\":1872:1879  _amount */\n      dup3\n        /* \"MyProjectSharedWallet.sol\":1857:1868  totalClaims */\n      0x03\n      0x00\n        /* \"MyProjectSharedWallet.sol\":1857:1879  totalClaims += _amount */\n      dup3\n      dup3\n      sload\n      tag_68\n      swap2\n      swap1\n      tag_59\n      jump\t// in\n    tag_68:\n      swap3\n      pop\n      pop\n      dup2\n      swap1\n      sstore\n      pop\n        /* \"MyProjectSharedWallet.sol\":1907:1928  address(this).balance */\n      selfbalance\n        /* \"MyProjectSharedWallet.sol\":1889:1904  contractBalance */\n      0x04\n        /* \"MyProjectSharedWallet.sol\":1889:1928  contractBalance = address(this).balance */\n      dup2\n      swap1\n      sstore\n      pop\n        /* \"MyProjectSharedWallet.sol\":1938:1941  _to */\n      dup4\n        /* \"MyProjectSharedWallet.sol\":1938:1950  _to.transfer */\n      0xffffffffffffffffffffffffffffffffffffffff\n      and\n        /* \"MyProjectSharedWallet.sol\":1938:1959  _to.transfer(_amount) */\n      0x08fc\n        /* \"MyProjectSharedWallet.sol\":1951:1958  _amount */\n      dup5\n        /* \"MyProjectSharedWallet.sol\":1938:1959  _to.transfer(_amount) */\n      swap1\n      dup2\n      iszero\n      mul\n      swap1\n      mload(0x40)\n      0x00\n      mload(0x40)\n      dup1\n      dup4\n      sub\n      dup2\n      dup6\n      dup9\n      dup9\n      call\n      swap4\n      pop\n      pop\n      pop\n      pop\n      iszero\n      dup1\n      iszero\n      tag_70\n      jumpi\n      returndatasize\n      0x00\n      dup1\n      returndatacopy\n      revert(0x00, returndatasize)\n    tag_70:\n      pop\n        /* \"MyProjectSharedWallet.sol\":1255:1966  {... */\n      pop\n      pop\n        /* \"MyProjectSharedWallet.sol\":1193:1966  function ClaimMoney(address payable _to, uint _amount) public {... */\n      pop\n      pop\n      jump\t// out\n        /* \"MyProjectSharedWallet.sol\":627:650  uint public totalClaims */\n    tag_32:\n      sload(0x03)\n      dup2\n      jump\t// out\n        /* \"MyProjectSharedWallet.sol\":687:714  uint public contractBalance */\n    tag_36:\n      sload(0x04)\n      dup2\n      jump\t// out\n        /* \"MyProjectSharedWallet.sol\":374:394  address public owner */\n    tag_40:\n      0x00\n      dup1\n      sload\n      swap1\n      0x0100\n      exp\n      swap1\n      div\n      0xffffffffffffffffffffffffffffffffffffffff\n      and\n      dup2\n      jump\t// out\n        /* \"MyProjectSharedWallet.sol\":2016:2221  function ownerWithdraw(address payable _to, uint _amount) public onlyOwner {... */\n    tag_46:\n        /* \"MyProjectSharedWallet.sol\":873:878  owner */\n      0x00\n      dup1\n      sload\n      swap1\n      0x0100\n      exp\n      swap1\n      div\n      0xffffffffffffffffffffffffffffffffffffffff\n      and\n        /* \"MyProjectSharedWallet.sol\":859:878  msg.sender == owner */\n      0xffffffffffffffffffffffffffffffffffffffff\n      and\n        /* \"MyProjectSharedWallet.sol\":859:869  msg.sender */\n      caller\n        /* \"MyProjectSharedWallet.sol\":859:878  msg.sender == owner */\n      0xffffffffffffffffffffffffffffffffffffffff\n      and\n      eq\n        /* \"MyProjectSharedWallet.sol\":851:932  require(msg.sender == owner, \"You are not allowed - only the owner can do this.\") */\n      tag_72\n      jumpi\n      mload(0x40)\n      0x08c379a000000000000000000000000000000000000000000000000000000000\n      dup2\n      mstore\n      0x04\n      add\n      tag_73\n      swap1\n      tag_74\n      jump\t// in\n    tag_73:\n      mload(0x40)\n      dup1\n      swap2\n      sub\n      swap1\n      revert\n    tag_72:\n        /* \"MyProjectSharedWallet.sol\":2120:2141  address(this).balance */\n      selfbalance\n        /* \"MyProjectSharedWallet.sol\":2109:2116  _amount */\n      dup2\n        /* \"MyProjectSharedWallet.sol\":2109:2141  _amount <= address(this).balance */\n      gt\n      iszero\n        /* \"MyProjectSharedWallet.sol\":2101:2183  require(_amount <= address(this).balance,\"Amount is larger than contract balance\") */\n      tag_76\n      jumpi\n      mload(0x40)\n      0x08c379a000000000000000000000000000000000000000000000000000000000\n      dup2\n      mstore\n      0x04\n      add\n      tag_77\n      swap1\n      tag_78\n      jump\t// in\n    tag_77:\n      mload(0x40)\n      dup1\n      swap2\n      sub\n      swap1\n      revert\n    tag_76:\n        /* \"MyProjectSharedWallet.sol\":2193:2196  _to */\n      dup2\n        /* \"MyProjectSharedWallet.sol\":2193:2205  _to.transfer */\n      0xffffffffffffffffffffffffffffffffffffffff\n      and\n        /* \"MyProjectSharedWallet.sol\":2193:2214  _to.transfer(_amount) */\n      0x08fc\n        /* \"MyProjectSharedWallet.sol\":2206:2213  _amount */\n      dup3\n        /* \"MyProjectSharedWallet.sol\":2193:2214  _to.transfer(_amount) */\n      swap1\n      dup2\n      iszero\n      mul\n      swap1\n      mload(0x40)\n      0x00\n      mload(0x40)\n      dup1\n      dup4\n      sub\n      dup2\n      dup6\n      dup9\n      dup9\n      call\n      swap4\n      pop\n      pop\n      pop\n      pop\n      iszero\n      dup1\n      iszero\n      tag_80\n      jumpi\n      returndatasize\n      0x00\n      dup1\n      returndatacopy\n      revert(0x00, returndatasize)\n    tag_80:\n      pop\n        /* \"MyProjectSharedWallet.sol\":2016:2221  function ownerWithdraw(address payable _to, uint _amount) public onlyOwner {... */\n      pop\n      pop\n      jump\t// out\n        /* \"#utility.yul\":88:205   */\n    tag_82:\n        /* \"#utility.yul\":197:198   */\n      0x00\n        /* \"#utility.yul\":194:195   */\n      dup1\n        /* \"#utility.yul\":187:199   */\n      revert\n        /* \"#utility.yul\":334:460   */\n    tag_84:\n        /* \"#utility.yul\":371:378   */\n      0x00\n        /* \"#utility.yul\":411:453   */\n      0xffffffffffffffffffffffffffffffffffffffff\n        /* \"#utility.yul\":404:409   */\n      dup3\n        /* \"#utility.yul\":400:454   */\n      and\n        /* \"#utility.yul\":389:454   */\n      swap1\n      pop\n        /* \"#utility.yul\":334:460   */\n      swap2\n      swap1\n      pop\n      jump\t// out\n        /* \"#utility.yul\":466:562   */\n    tag_85:\n        /* \"#utility.yul\":503:510   */\n      0x00\n        /* \"#utility.yul\":532:556   */\n      tag_116\n        /* \"#utility.yul\":550:555   */\n      dup3\n        /* \"#utility.yul\":532:556   */\n      tag_84\n      jump\t// in\n    tag_116:\n        /* \"#utility.yul\":521:556   */\n      swap1\n      pop\n        /* \"#utility.yul\":466:562   */\n      swap2\n      swap1\n      pop\n      jump\t// out\n        /* \"#utility.yul\":568:690   */\n    tag_86:\n        /* \"#utility.yul\":641:665   */\n      tag_118\n        /* \"#utility.yul\":659:664   */\n      dup2\n        /* \"#utility.yul\":641:665   */\n      tag_85\n      jump\t// in\n    tag_118:\n        /* \"#utility.yul\":634:639   */\n      dup2\n        /* \"#utility.yul\":631:666   */\n      eq\n        /* \"#utility.yul\":621:684   */\n      tag_119\n      jumpi\n        /* \"#utility.yul\":680:681   */\n      0x00\n        /* \"#utility.yul\":677:678   */\n      dup1\n        /* \"#utility.yul\":670:682   */\n      revert\n        /* \"#utility.yul\":621:684   */\n    tag_119:\n        /* \"#utility.yul\":568:690   */\n      pop\n      jump\t// out\n        /* \"#utility.yul\":696:835   */\n    tag_87:\n        /* \"#utility.yul\":742:747   */\n      0x00\n        /* \"#utility.yul\":780:786   */\n      dup2\n        /* \"#utility.yul\":767:787   */\n      calldataload\n        /* \"#utility.yul\":758:787   */\n      swap1\n      pop\n        /* \"#utility.yul\":796:829   */\n      tag_121\n        /* \"#utility.yul\":823:828   */\n      dup2\n        /* \"#utility.yul\":796:829   */\n      tag_86\n      jump\t// in\n    tag_121:\n        /* \"#utility.yul\":696:835   */\n      swap3\n      swap2\n      pop\n      pop\n      jump\t// out\n        /* \"#utility.yul\":841:1170   */\n    tag_14:\n        /* \"#utility.yul\":900:906   */\n      0x00\n        /* \"#utility.yul\":949:951   */\n      0x20\n        /* \"#utility.yul\":937:946   */\n      dup3\n        /* \"#utility.yul\":928:935   */\n      dup5\n        /* \"#utility.yul\":924:947   */\n      sub\n        /* \"#utility.yul\":920:952   */\n      slt\n        /* \"#utility.yul\":917:1036   */\n      iszero\n      tag_123\n      jumpi\n        /* \"#utility.yul\":955:1034   */\n      tag_124\n      tag_82\n      jump\t// in\n    tag_124:\n        /* \"#utility.yul\":917:1036   */\n    tag_123:\n        /* \"#utility.yul\":1075:1076   */\n      0x00\n        /* \"#utility.yul\":1100:1153   */\n      tag_125\n        /* \"#utility.yul\":1145:1152   */\n      dup5\n        /* \"#utility.yul\":1136:1142   */\n      dup3\n        /* \"#utility.yul\":1125:1134   */\n      dup6\n        /* \"#utility.yul\":1121:1143   */\n      add\n        /* \"#utility.yul\":1100:1153   */\n      tag_87\n      jump\t// in\n    tag_125:\n        /* \"#utility.yul\":1090:1153   */\n      swap2\n      pop\n        /* \"#utility.yul\":1046:1163   */\n      pop\n        /* \"#utility.yul\":841:1170   */\n      swap3\n      swap2\n      pop\n      pop\n      jump\t// out\n        /* \"#utility.yul\":1176:1253   */\n    tag_88:\n        /* \"#utility.yul\":1213:1220   */\n      0x00\n        /* \"#utility.yul\":1242:1247   */\n      dup2\n        /* \"#utility.yul\":1231:1247   */\n      swap1\n      pop\n        /* \"#utility.yul\":1176:1253   */\n      swap2\n      swap1\n      pop\n      jump\t// out\n        /* \"#utility.yul\":1259:1377   */\n    tag_89:\n        /* \"#utility.yul\":1346:1370   */\n      tag_128\n        /* \"#utility.yul\":1364:1369   */\n      dup2\n        /* \"#utility.yul\":1346:1370   */\n      tag_88\n      jump\t// in\n    tag_128:\n        /* \"#utility.yul\":1341:1344   */\n      dup3\n        /* \"#utility.yul\":1334:1371   */\n      mstore\n        /* \"#utility.yul\":1259:1377   */\n      pop\n      pop\n      jump\t// out\n        /* \"#utility.yul\":1383:1715   */\n    tag_17:\n        /* \"#utility.yul\":1504:1508   */\n      0x00\n        /* \"#utility.yul\":1542:1544   */\n      0x40\n        /* \"#utility.yul\":1531:1540   */\n      dup3\n        /* \"#utility.yul\":1527:1545   */\n      add\n        /* \"#utility.yul\":1519:1545   */\n      swap1\n      pop\n        /* \"#utility.yul\":1555:1626   */\n      tag_130\n        /* \"#utility.yul\":1623:1624   */\n      0x00\n        /* \"#utility.yul\":1612:1621   */\n      dup4\n        /* \"#utility.yul\":1608:1625   */\n      add\n        /* \"#utility.yul\":1599:1605   */\n      dup6\n        /* \"#utility.yul\":1555:1626   */\n      tag_89\n      jump\t// in\n    tag_130:\n        /* \"#utility.yul\":1636:1708   */\n      tag_131\n        /* \"#utility.yul\":1704:1706   */\n      0x20\n        /* \"#utility.yul\":1693:1702   */\n      dup4\n        /* \"#utility.yul\":1689:1707   */\n      add\n        /* \"#utility.yul\":1680:1686   */\n      dup5\n        /* \"#utility.yul\":1636:1708   */\n      tag_89\n      jump\t// in\n    tag_131:\n        /* \"#utility.yul\":1383:1715   */\n      swap4\n      swap3\n      pop\n      pop\n      pop\n      jump\t// out\n        /* \"#utility.yul\":1721:1943   */\n    tag_24:\n        /* \"#utility.yul\":1814:1818   */\n      0x00\n        /* \"#utility.yul\":1852:1854   */\n      0x20\n        /* \"#utility.yul\":1841:1850   */\n      dup3\n        /* \"#utility.yul\":1837:1855   */\n      add\n        /* \"#utility.yul\":1829:1855   */\n      swap1\n      pop\n        /* \"#utility.yul\":1865:1936   */\n      tag_133\n        /* \"#utility.yul\":1933:1934   */\n      0x00\n        /* \"#utility.yul\":1922:1931   */\n      dup4\n        /* \"#utility.yul\":1918:1935   */\n      add\n        /* \"#utility.yul\":1909:1915   */\n      dup5\n        /* \"#utility.yul\":1865:1936   */\n      tag_89\n      jump\t// in\n    tag_133:\n        /* \"#utility.yul\":1721:1943   */\n      swap3\n      swap2\n      pop\n      pop\n      jump\t// out\n        /* \"#utility.yul\":1949:2053   */\n    tag_90:\n        /* \"#utility.yul\":1994:2001   */\n      0x00\n        /* \"#utility.yul\":2023:2047   */\n      tag_135\n        /* \"#utility.yul\":2041:2046   */\n      dup3\n        /* \"#utility.yul\":2023:2047   */\n      tag_84\n      jump\t// in\n    tag_135:\n        /* \"#utility.yul\":2012:2047   */\n      swap1\n      pop\n        /* \"#utility.yul\":1949:2053   */\n      swap2\n      swap1\n      pop\n      jump\t// out\n        /* \"#utility.yul\":2059:2197   */\n    tag_91:\n        /* \"#utility.yul\":2140:2172   */\n      tag_137\n        /* \"#utility.yul\":2166:2171   */\n      dup2\n        /* \"#utility.yul\":2140:2172   */\n      tag_90\n      jump\t// in\n    tag_137:\n        /* \"#utility.yul\":2133:2138   */\n      dup2\n        /* \"#utility.yul\":2130:2173   */\n      eq\n        /* \"#utility.yul\":2120:2191   */\n      tag_138\n      jumpi\n        /* \"#utility.yul\":2187:2188   */\n      0x00\n        /* \"#utility.yul\":2184:2185   */\n      dup1\n        /* \"#utility.yul\":2177:2189   */\n      revert\n        /* \"#utility.yul\":2120:2191   */\n    tag_138:\n        /* \"#utility.yul\":2059:2197   */\n      pop\n      jump\t// out\n        /* \"#utility.yul\":2203:2358   */\n    tag_92:\n        /* \"#utility.yul\":2257:2262   */\n      0x00\n        /* \"#utility.yul\":2295:2301   */\n      dup2\n        /* \"#utility.yul\":2282:2302   */\n      calldataload\n        /* \"#utility.yul\":2273:2302   */\n      swap1\n      pop\n        /* \"#utility.yul\":2311:2352   */\n      tag_140\n        /* \"#utility.yul\":2346:2351   */\n      dup2\n        /* \"#utility.yul\":2311:2352   */\n      tag_91\n      jump\t// in\n    tag_140:\n        /* \"#utility.yul\":2203:2358   */\n      swap3\n      swap2\n      pop\n      pop\n      jump\t// out\n        /* \"#utility.yul\":2364:2486   */\n    tag_93:\n        /* \"#utility.yul\":2437:2461   */\n      tag_142\n        /* \"#utility.yul\":2455:2460   */\n      dup2\n        /* \"#utility.yul\":2437:2461   */\n      tag_88\n      jump\t// in\n    tag_142:\n        /* \"#utility.yul\":2430:2435   */\n      dup2\n        /* \"#utility.yul\":2427:2462   */\n      eq\n        /* \"#utility.yul\":2417:2480   */\n      tag_143\n      jumpi\n        /* \"#utility.yul\":2476:2477   */\n      0x00\n        /* \"#utility.yul\":2473:2474   */\n      dup1\n        /* \"#utility.yul\":2466:2478   */\n      revert\n        /* \"#utility.yul\":2417:2480   */\n    tag_143:\n        /* \"#utility.yul\":2364:2486   */\n      pop\n      jump\t// out\n        /* \"#utility.yul\":2492:2631   */\n    tag_94:\n        /* \"#utility.yul\":2538:2543   */\n      0x00\n        /* \"#utility.yul\":2576:2582   */\n      dup2\n        /* \"#utility.yul\":2563:2583   */\n      calldataload\n        /* \"#utility.yul\":2554:2583   */\n      swap1\n      pop\n        /* \"#utility.yul\":2592:2625   */\n      tag_145\n        /* \"#utility.yul\":2619:2624   */\n      dup2\n        /* \"#utility.yul\":2592:2625   */\n      tag_93\n      jump\t// in\n    tag_145:\n        /* \"#utility.yul\":2492:2631   */\n      swap3\n      swap2\n      pop\n      pop\n      jump\t// out\n        /* \"#utility.yul\":2637:3127   */\n    tag_28:\n        /* \"#utility.yul\":2713:2719   */\n      0x00\n        /* \"#utility.yul\":2721:2727   */\n      dup1\n        /* \"#utility.yul\":2770:2772   */\n      0x40\n        /* \"#utility.yul\":2758:2767   */\n      dup4\n        /* \"#utility.yul\":2749:2756   */\n      dup6\n        /* \"#utility.yul\":2745:2768   */\n      sub\n        /* \"#utility.yul\":2741:2773   */\n      slt\n        /* \"#utility.yul\":2738:2857   */\n      iszero\n      tag_147\n      jumpi\n        /* \"#utility.yul\":2776:2855   */\n      tag_148\n      tag_82\n      jump\t// in\n    tag_148:\n        /* \"#utility.yul\":2738:2857   */\n    tag_147:\n        /* \"#utility.yul\":2896:2897   */\n      0x00\n        /* \"#utility.yul\":2921:2982   */\n      tag_149\n        /* \"#utility.yul\":2974:2981   */\n      dup6\n        /* \"#utility.yul\":2965:2971   */\n      dup3\n        /* \"#utility.yul\":2954:2963   */\n      dup7\n        /* \"#utility.yul\":2950:2972   */\n      add\n        /* \"#utility.yul\":2921:2982   */\n      tag_92\n      jump\t// in\n    tag_149:\n        /* \"#utility.yul\":2911:2982   */\n      swap3\n      pop\n        /* \"#utility.yul\":2867:2992   */\n      pop\n        /* \"#utility.yul\":3031:3033   */\n      0x20\n        /* \"#utility.yul\":3057:3110   */\n      tag_150\n        /* \"#utility.yul\":3102:3109   */\n      dup6\n        /* \"#utility.yul\":3093:3099   */\n      dup3\n        /* \"#utility.yul\":3082:3091   */\n      dup7\n        /* \"#utility.yul\":3078:3100   */\n      add\n        /* \"#utility.yul\":3057:3110   */\n      tag_94\n      jump\t// in\n    tag_150:\n        /* \"#utility.yul\":3047:3110   */\n      swap2\n      pop\n        /* \"#utility.yul\":3002:3120   */\n      pop\n        /* \"#utility.yul\":2637:3127   */\n      swap3\n      pop\n      swap3\n      swap1\n      pop\n      jump\t// out\n        /* \"#utility.yul\":3133:3251   */\n    tag_95:\n        /* \"#utility.yul\":3220:3244   */\n      tag_152\n        /* \"#utility.yul\":3238:3243   */\n      dup2\n        /* \"#utility.yul\":3220:3244   */\n      tag_85\n      jump\t// in\n    tag_152:\n        /* \"#utility.yul\":3215:3218   */\n      dup3\n        /* \"#utility.yul\":3208:3245   */\n      mstore\n        /* \"#utility.yul\":3133:3251   */\n      pop\n      pop\n      jump\t// out\n        /* \"#utility.yul\":3257:3479   */\n    tag_42:\n        /* \"#utility.yul\":3350:3354   */\n      0x00\n        /* \"#utility.yul\":3388:3390   */\n      0x20\n        /* \"#utility.yul\":3377:3386   */\n      dup3\n        /* \"#utility.yul\":3373:3391   */\n      add\n        /* \"#utility.yul\":3365:3391   */\n      swap1\n      pop\n        /* \"#utility.yul\":3401:3472   */\n      tag_154\n        /* \"#utility.yul\":3469:3470   */\n      0x00\n        /* \"#utility.yul\":3458:3467   */\n      dup4\n        /* \"#utility.yul\":3454:3471   */\n      add\n        /* \"#utility.yul\":3445:3451   */\n      dup5\n        /* \"#utility.yul\":3401:3472   */\n      tag_95\n      jump\t// in\n    tag_154:\n        /* \"#utility.yul\":3257:3479   */\n      swap3\n      swap2\n      pop\n      pop\n      jump\t// out\n        /* \"#utility.yul\":3485:3654   */\n    tag_96:\n        /* \"#utility.yul\":3569:3580   */\n      0x00\n        /* \"#utility.yul\":3603:3609   */\n      dup3\n        /* \"#utility.yul\":3598:3601   */\n      dup3\n        /* \"#utility.yul\":3591:3610   */\n      mstore\n        /* \"#utility.yul\":3643:3647   */\n      0x20\n        /* \"#utility.yul\":3638:3641   */\n      dup3\n        /* \"#utility.yul\":3634:3648   */\n      add\n        /* \"#utility.yul\":3619:3648   */\n      swap1\n      pop\n        /* \"#utility.yul\":3485:3654   */\n      swap3\n      swap2\n      pop\n      pop\n      jump\t// out\n        /* \"#utility.yul\":3660:3890   */\n    tag_97:\n        /* \"#utility.yul\":3800:3834   */\n      0x546865206f776e65722073686f756c6420757365206f776e6572576974686472\n        /* \"#utility.yul\":3796:3797   */\n      0x00\n        /* \"#utility.yul\":3788:3794   */\n      dup3\n        /* \"#utility.yul\":3784:3798   */\n      add\n        /* \"#utility.yul\":3777:3835   */\n      mstore\n        /* \"#utility.yul\":3869:3882   */\n      0x61772066756e6374696f6e000000000000000000000000000000000000000000\n        /* \"#utility.yul\":3864:3866   */\n      0x20\n        /* \"#utility.yul\":3856:3862   */\n      dup3\n        /* \"#utility.yul\":3852:3867   */\n      add\n        /* \"#utility.yul\":3845:3883   */\n      mstore\n        /* \"#utility.yul\":3660:3890   */\n      pop\n      jump\t// out\n        /* \"#utility.yul\":3896:4262   */\n    tag_98:\n        /* \"#utility.yul\":4038:4041   */\n      0x00\n        /* \"#utility.yul\":4059:4126   */\n      tag_158\n        /* \"#utility.yul\":4123:4125   */\n      0x2b\n        /* \"#utility.yul\":4118:4121   */\n      dup4\n        /* \"#utility.yul\":4059:4126   */\n      tag_96\n      jump\t// in\n    tag_158:\n        /* \"#utility.yul\":4052:4126   */\n      swap2\n      pop\n        /* \"#utility.yul\":4135:4228   */\n      tag_159\n        /* \"#utility.yul\":4224:4227   */\n      dup3\n        /* \"#utility.yul\":4135:4228   */\n      tag_97\n      jump\t// in\n    tag_159:\n        /* \"#utility.yul\":4253:4255   */\n      0x40\n        /* \"#utility.yul\":4248:4251   */\n      dup3\n        /* \"#utility.yul\":4244:4256   */\n      add\n        /* \"#utility.yul\":4237:4256   */\n      swap1\n      pop\n        /* \"#utility.yul\":3896:4262   */\n      swap2\n      swap1\n      pop\n      jump\t// out\n        /* \"#utility.yul\":4268:4687   */\n    tag_51:\n        /* \"#utility.yul\":4434:4438   */\n      0x00\n        /* \"#utility.yul\":4472:4474   */\n      0x20\n        /* \"#utility.yul\":4461:4470   */\n      dup3\n        /* \"#utility.yul\":4457:4475   */\n      add\n        /* \"#utility.yul\":4449:4475   */\n      swap1\n      pop\n        /* \"#utility.yul\":4521:4530   */\n      dup2\n        /* \"#utility.yul\":4515:4519   */\n      dup2\n        /* \"#utility.yul\":4511:4531   */\n      sub\n        /* \"#utility.yul\":4507:4508   */\n      0x00\n        /* \"#utility.yul\":4496:4505   */\n      dup4\n        /* \"#utility.yul\":4492:4509   */\n      add\n        /* \"#utility.yul\":4485:4532   */\n      mstore\n        /* \"#utility.yul\":4549:4680   */\n      tag_161\n        /* \"#utility.yul\":4675:4679   */\n      dup2\n        /* \"#utility.yul\":4549:4680   */\n      tag_98\n      jump\t// in\n    tag_161:\n        /* \"#utility.yul\":4541:4680   */\n      swap1\n      pop\n        /* \"#utility.yul\":4268:4687   */\n      swap2\n      swap1\n      pop\n      jump\t// out\n        /* \"#utility.yul\":4693:4920   */\n    tag_99:\n        /* \"#utility.yul\":4833:4867   */\n      0x5468657265206973206e6f206d6f6e657920696e207468652077616c6c657420\n        /* \"#utility.yul\":4829:4830   */\n      0x00\n        /* \"#utility.yul\":4821:4827   */\n      dup3\n        /* \"#utility.yul\":4817:4831   */\n      add\n        /* \"#utility.yul\":4810:4868   */\n      mstore\n        /* \"#utility.yul\":4902:4912   */\n      0x746f20636c61696d000000000000000000000000000000000000000000000000\n        /* \"#utility.yul\":4897:4899   */\n      0x20\n        /* \"#utility.yul\":4889:4895   */\n      dup3\n        /* \"#utility.yul\":4885:4900   */\n      add\n        /* \"#utility.yul\":4878:4913   */\n      mstore\n        /* \"#utility.yul\":4693:4920   */\n      pop\n      jump\t// out\n        /* \"#utility.yul\":4926:5292   */\n    tag_100:\n        /* \"#utility.yul\":5068:5071   */\n      0x00\n        /* \"#utility.yul\":5089:5156   */\n      tag_164\n        /* \"#utility.yul\":5153:5155   */\n      0x28\n        /* \"#utility.yul\":5148:5151   */\n      dup4\n        /* \"#utility.yul\":5089:5156   */\n      tag_96\n      jump\t// in\n    tag_164:\n        /* \"#utility.yul\":5082:5156   */\n      swap2\n      pop\n        /* \"#utility.yul\":5165:5258   */\n      tag_165\n        /* \"#utility.yul\":5254:5257   */\n      dup3\n        /* \"#utility.yul\":5165:5258   */\n      tag_99\n      jump\t// in\n    tag_165:\n        /* \"#utility.yul\":5283:5285   */\n      0x40\n        /* \"#utility.yul\":5278:5281   */\n      dup3\n        /* \"#utility.yul\":5274:5286   */\n      add\n        /* \"#utility.yul\":5267:5286   */\n      swap1\n      pop\n        /* \"#utility.yul\":4926:5292   */\n      swap2\n      swap1\n      pop\n      jump\t// out\n        /* \"#utility.yul\":5298:5717   */\n    tag_54:\n        /* \"#utility.yul\":5464:5468   */\n      0x00\n        /* \"#utility.yul\":5502:5504   */\n      0x20\n        /* \"#utility.yul\":5491:5500   */\n      dup3\n        /* \"#utility.yul\":5487:5505   */\n      add\n        /* \"#utility.yul\":5479:5505   */\n      swap1\n      pop\n        /* \"#utility.yul\":5551:5560   */\n      dup2\n        /* \"#utility.yul\":5545:5549   */\n      dup2\n        /* \"#utility.yul\":5541:5561   */\n      sub\n        /* \"#utility.yul\":5537:5538   */\n      0x00\n        /* \"#utility.yul\":5526:5535   */\n      dup4\n        /* \"#utility.yul\":5522:5539   */\n      add\n        /* \"#utility.yul\":5515:5562   */\n      mstore\n        /* \"#utility.yul\":5579:5710   */\n      tag_167\n        /* \"#utility.yul\":5705:5709   */\n      dup2\n        /* \"#utility.yul\":5579:5710   */\n      tag_100\n      jump\t// in\n    tag_167:\n        /* \"#utility.yul\":5571:5710   */\n      swap1\n      pop\n        /* \"#utility.yul\":5298:5717   */\n      swap2\n      swap1\n      pop\n      jump\t// out\n        /* \"#utility.yul\":5723:5902   */\n    tag_101:\n        /* \"#utility.yul\":5863:5894   */\n      0x596f7520646f206e6f74206861766520616e7920616c6c6f77616e6365000000\n        /* \"#utility.yul\":5859:5860   */\n      0x00\n        /* \"#utility.yul\":5851:5857   */\n      dup3\n        /* \"#utility.yul\":5847:5861   */\n      add\n        /* \"#utility.yul\":5840:5895   */\n      mstore\n        /* \"#utility.yul\":5723:5902   */\n      pop\n      jump\t// out\n        /* \"#utility.yul\":5908:6274   */\n    tag_102:\n        /* \"#utility.yul\":6050:6053   */\n      0x00\n        /* \"#utility.yul\":6071:6138   */\n      tag_170\n        /* \"#utility.yul\":6135:6137   */\n      0x1d\n        /* \"#utility.yul\":6130:6133   */\n      dup4\n        /* \"#utility.yul\":6071:6138   */\n      tag_96\n      jump\t// in\n    tag_170:\n        /* \"#utility.yul\":6064:6138   */\n      swap2\n      pop\n        /* \"#utility.yul\":6147:6240   */\n      tag_171\n        /* \"#utility.yul\":6236:6239   */\n      dup3\n        /* \"#utility.yul\":6147:6240   */\n      tag_101\n      jump\t// in\n    tag_171:\n        /* \"#utility.yul\":6265:6267   */\n      0x20\n        /* \"#utility.yul\":6260:6263   */\n      dup3\n        /* \"#utility.yul\":6256:6268   */\n      add\n        /* \"#utility.yul\":6249:6268   */\n      swap1\n      pop\n        /* \"#utility.yul\":5908:6274   */\n      swap2\n      swap1\n      pop\n      jump\t// out\n        /* \"#utility.yul\":6280:6699   */\n    tag_57:\n        /* \"#utility.yul\":6446:6450   */\n      0x00\n        /* \"#utility.yul\":6484:6486   */\n      0x20\n        /* \"#utility.yul\":6473:6482   */\n      dup3\n        /* \"#utility.yul\":6469:6487   */\n      add\n        /* \"#utility.yul\":6461:6487   */\n      swap1\n      pop\n        /* \"#utility.yul\":6533:6542   */\n      dup2\n        /* \"#utility.yul\":6527:6531   */\n      dup2\n        /* \"#utility.yul\":6523:6543   */\n      sub\n        /* \"#utility.yul\":6519:6520   */\n      0x00\n        /* \"#utility.yul\":6508:6517   */\n      dup4\n        /* \"#utility.yul\":6504:6521   */\n      add\n        /* \"#utility.yul\":6497:6544   */\n      mstore\n        /* \"#utility.yul\":6561:6692   */\n      tag_173\n        /* \"#utility.yul\":6687:6691   */\n      dup2\n        /* \"#utility.yul\":6561:6692   */\n      tag_102\n      jump\t// in\n    tag_173:\n        /* \"#utility.yul\":6553:6692   */\n      swap1\n      pop\n        /* \"#utility.yul\":6280:6699   */\n      swap2\n      swap1\n      pop\n      jump\t// out\n        /* \"#utility.yul\":6705:6885   */\n    tag_103:\n        /* \"#utility.yul\":6753:6830   */\n      0x4e487b7100000000000000000000000000000000000000000000000000000000\n        /* \"#utility.yul\":6750:6751   */\n      0x00\n        /* \"#utility.yul\":6743:6831   */\n      mstore\n        /* \"#utility.yul\":6850:6854   */\n      0x11\n        /* \"#utility.yul\":6847:6848   */\n      0x04\n        /* \"#utility.yul\":6840:6855   */\n      mstore\n        /* \"#utility.yul\":6874:6878   */\n      0x24\n        /* \"#utility.yul\":6871:6872   */\n      0x00\n        /* \"#utility.yul\":6864:6879   */\n      revert\n        /* \"#utility.yul\":6891:7082   */\n    tag_59:\n        /* \"#utility.yul\":6931:6934   */\n      0x00\n        /* \"#utility.yul\":6950:6970   */\n      tag_176\n        /* \"#utility.yul\":6968:6969   */\n      dup3\n        /* \"#utility.yul\":6950:6970   */\n      tag_88\n      jump\t// in\n    tag_176:\n        /* \"#utility.yul\":6945:6970   */\n      swap2\n      pop\n        /* \"#utility.yul\":6984:7004   */\n      tag_177\n        /* \"#utility.yul\":7002:7003   */\n      dup4\n        /* \"#utility.yul\":6984:7004   */\n      tag_88\n      jump\t// in\n    tag_177:\n        /* \"#utility.yul\":6979:7004   */\n      swap3\n      pop\n        /* \"#utility.yul\":7027:7028   */\n      dup3\n        /* \"#utility.yul\":7024:7025   */\n      dup3\n        /* \"#utility.yul\":7020:7029   */\n      add\n        /* \"#utility.yul\":7013:7029   */\n      swap1\n      pop\n        /* \"#utility.yul\":7048:7051   */\n      dup1\n        /* \"#utility.yul\":7045:7046   */\n      dup3\n        /* \"#utility.yul\":7042:7052   */\n      gt\n        /* \"#utility.yul\":7039:7075   */\n      iszero\n      tag_178\n      jumpi\n        /* \"#utility.yul\":7055:7073   */\n      tag_179\n      tag_103\n      jump\t// in\n    tag_179:\n        /* \"#utility.yul\":7039:7075   */\n    tag_178:\n        /* \"#utility.yul\":6891:7082   */\n      swap3\n      swap2\n      pop\n      pop\n      jump\t// out\n        /* \"#utility.yul\":7088:7436   */\n    tag_61:\n        /* \"#utility.yul\":7128:7135   */\n      0x00\n        /* \"#utility.yul\":7151:7171   */\n      tag_181\n        /* \"#utility.yul\":7169:7170   */\n      dup3\n        /* \"#utility.yul\":7151:7171   */\n      tag_88\n      jump\t// in\n    tag_181:\n        /* \"#utility.yul\":7146:7171   */\n      swap2\n      pop\n        /* \"#utility.yul\":7185:7205   */\n      tag_182\n        /* \"#utility.yul\":7203:7204   */\n      dup4\n        /* \"#utility.yul\":7185:7205   */\n      tag_88\n      jump\t// in\n    tag_182:\n        /* \"#utility.yul\":7180:7205   */\n      swap3\n      pop\n        /* \"#utility.yul\":7373:7374   */\n      dup2\n        /* \"#utility.yul\":7305:7371   */\n      0xffffffffffffffffffffffffffffffffffffffffffffffffffffffffffffffff\n        /* \"#utility.yul\":7301:7375   */\n      div\n        /* \"#utility.yul\":7298:7299   */\n      dup4\n        /* \"#utility.yul\":7295:7376   */\n      gt\n        /* \"#utility.yul\":7290:7291   */\n      dup3\n        /* \"#utility.yul\":7283:7292   */\n      iszero\n        /* \"#utility.yul\":7276:7293   */\n      iszero\n        /* \"#utility.yul\":7272:7377   */\n      and\n        /* \"#utility.yul\":7269:7400   */\n      iszero\n      tag_183\n      jumpi\n        /* \"#utility.yul\":7380:7398   */\n      tag_184\n      tag_103\n      jump\t// in\n    tag_184:\n        /* \"#utility.yul\":7269:7400   */\n    tag_183:\n        /* \"#utility.yul\":7428:7429   */\n      dup3\n        /* \"#utility.yul\":7425:7426   */\n      dup3\n        /* \"#utility.yul\":7421:7430   */\n      mul\n        /* \"#utility.yul\":7410:7430   */\n      swap1\n      pop\n        /* \"#utility.yul\":7088:7436   */\n      swap3\n      swap2\n      pop\n      pop\n      jump\t// out\n        /* \"#utility.yul\":7442:7636   */\n    tag_63:\n        /* \"#utility.yul\":7482:7486   */\n      0x00\n        /* \"#utility.yul\":7502:7522   */\n      tag_186\n        /* \"#utility.yul\":7520:7521   */\n      dup3\n        /* \"#utility.yul\":7502:7522   */\n      tag_88\n      jump\t// in\n    tag_186:\n        /* \"#utility.yul\":7497:7522   */\n      swap2\n      pop\n        /* \"#utility.yul\":7536:7556   */\n      tag_187\n        /* \"#utility.yul\":7554:7555   */\n      dup4\n        /* \"#utility.yul\":7536:7556   */\n      tag_88\n      jump\t// in\n    tag_187:\n        /* \"#utility.yul\":7531:7556   */\n      swap3\n      pop\n        /* \"#utility.yul\":7580:7581   */\n      dup3\n        /* \"#utility.yul\":7577:7578   */\n      dup3\n        /* \"#utility.yul\":7573:7582   */\n      sub\n        /* \"#utility.yul\":7565:7582   */\n      swap1\n      pop\n        /* \"#utility.yul\":7604:7605   */\n      dup2\n        /* \"#utility.yul\":7598:7602   */\n      dup2\n        /* \"#utility.yul\":7595:7606   */\n      gt\n        /* \"#utility.yul\":7592:7629   */\n      iszero\n      tag_188\n      jumpi\n        /* \"#utility.yul\":7609:7627   */\n      tag_189\n      tag_103\n      jump\t// in\n    tag_189:\n        /* \"#utility.yul\":7592:7629   */\n    tag_188:\n        /* \"#utility.yul\":7442:7636   */\n      swap3\n      swap2\n      pop\n      pop\n      jump\t// out\n        /* \"#utility.yul\":7642:7814   */\n    tag_104:\n        /* \"#utility.yul\":7782:7806   */\n      0x54686520616d6f756e7420697320746f6f206869676800000000000000000000\n        /* \"#utility.yul\":7778:7779   */\n      0x00\n        /* \"#utility.yul\":7770:7776   */\n      dup3\n        /* \"#utility.yul\":7766:7780   */\n      add\n        /* \"#utility.yul\":7759:7807   */\n      mstore\n        /* \"#utility.yul\":7642:7814   */\n      pop\n      jump\t// out\n        /* \"#utility.yul\":7820:8186   */\n    tag_105:\n        /* \"#utility.yul\":7962:7965   */\n      0x00\n        /* \"#utility.yul\":7983:8050   */\n      tag_192\n        /* \"#utility.yul\":8047:8049   */\n      0x16\n        /* \"#utility.yul\":8042:8045   */\n      dup4\n        /* \"#utility.yul\":7983:8050   */\n      tag_96\n      jump\t// in\n    tag_192:\n        /* \"#utility.yul\":7976:8050   */\n      swap2\n      pop\n        /* \"#utility.yul\":8059:8152   */\n      tag_193\n        /* \"#utility.yul\":8148:8151   */\n      dup3\n        /* \"#utility.yul\":8059:8152   */\n      tag_104\n      jump\t// in\n    tag_193:\n        /* \"#utility.yul\":8177:8179   */\n      0x20\n        /* \"#utility.yul\":8172:8175   */\n      dup3\n        /* \"#utility.yul\":8168:8180   */\n      add\n        /* \"#utility.yul\":8161:8180   */\n      swap1\n      pop\n        /* \"#utility.yul\":7820:8186   */\n      swap2\n      swap1\n      pop\n      jump\t// out\n        /* \"#utility.yul\":8192:8611   */\n    tag_66:\n        /* \"#utility.yul\":8358:8362   */\n      0x00\n        /* \"#utility.yul\":8396:8398   */\n      0x20\n        /* \"#utility.yul\":8385:8394   */\n      dup3\n        /* \"#utility.yul\":8381:8399   */\n      add\n        /* \"#utility.yul\":8373:8399   */\n      swap1\n      pop\n        /* \"#utility.yul\":8445:8454   */\n      dup2\n        /* \"#utility.yul\":8439:8443   */\n      dup2\n        /* \"#utility.yul\":8435:8455   */\n      sub\n        /* \"#utility.yul\":8431:8432   */\n      0x00\n        /* \"#utility.yul\":8420:8429   */\n      dup4\n        /* \"#utility.yul\":8416:8433   */\n      add\n        /* \"#utility.yul\":8409:8456   */\n      mstore\n        /* \"#utility.yul\":8473:8604   */\n      tag_195\n        /* \"#utility.yul\":8599:8603   */\n      dup2\n        /* \"#utility.yul\":8473:8604   */\n      tag_105\n      jump\t// in\n    tag_195:\n        /* \"#utility.yul\":8465:8604   */\n      swap1\n      pop\n        /* \"#utility.yul\":8192:8611   */\n      swap2\n      swap1\n      pop\n      jump\t// out\n        /* \"#utility.yul\":8617:8853   */\n    tag_106:\n        /* \"#utility.yul\":8757:8791   */\n      0x596f7520617265206e6f7420616c6c6f776564202d206f6e6c7920746865206f\n        /* \"#utility.yul\":8753:8754   */\n      0x00\n        /* \"#utility.yul\":8745:8751   */\n      dup3\n        /* \"#utility.yul\":8741:8755   */\n      add\n        /* \"#utility.yul\":8734:8792   */\n      mstore\n        /* \"#utility.yul\":8826:8845   */\n      0x776e65722063616e20646f20746869732e000000000000000000000000000000\n        /* \"#utility.yul\":8821:8823   */\n      0x20\n        /* \"#utility.yul\":8813:8819   */\n      dup3\n        /* \"#utility.yul\":8809:8824   */\n      add\n        /* \"#utility.yul\":8802:8846   */\n      mstore\n        /* \"#utility.yul\":8617:8853   */\n      pop\n      jump\t// out\n        /* \"#utility.yul\":8859:9225   */\n    tag_107:\n        /* \"#utility.yul\":9001:9004   */\n      0x00\n        /* \"#utility.yul\":9022:9089   */\n      tag_198\n        /* \"#utility.yul\":9086:9088   */\n      0x31\n        /* \"#utility.yul\":9081:9084   */\n      dup4\n        /* \"#utility.yul\":9022:9089   */\n      tag_96\n      jump\t// in\n    tag_198:\n        /* \"#utility.yul\":9015:9089   */\n      swap2\n      pop\n        /* \"#utility.yul\":9098:9191   */\n      tag_199\n        /* \"#utility.yul\":9187:9190   */\n      dup3\n        /* \"#utility.yul\":9098:9191   */\n      tag_106\n      jump\t// in\n    tag_199:\n        /* \"#utility.yul\":9216:9218   */\n      0x40\n        /* \"#utility.yul\":9211:9214   */\n      dup3\n        /* \"#utility.yul\":9207:9219   */\n      add\n        /* \"#utility.yul\":9200:9219   */\n      swap1\n      pop\n        /* \"#utility.yul\":8859:9225   */\n      swap2\n      swap1\n      pop\n      jump\t// out\n        /* \"#utility.yul\":9231:9650   */\n    tag_74:\n        /* \"#utility.yul\":9397:9401   */\n      0x00\n        /* \"#utility.yul\":9435:9437   */\n      0x20\n        /* \"#utility.yul\":9424:9433   */\n      dup3\n        /* \"#utility.yul\":9420:9438   */\n      add\n        /* \"#utility.yul\":9412:9438   */\n      swap1\n      pop\n        /* \"#utility.yul\":9484:9493   */\n      dup2\n        /* \"#utility.yul\":9478:9482   */\n      dup2\n        /* \"#utility.yul\":9474:9494   */\n      sub\n        /* \"#utility.yul\":9470:9471   */\n      0x00\n        /* \"#utility.yul\":9459:9468   */\n      dup4\n        /* \"#utility.yul\":9455:9472   */\n      add\n        /* \"#utility.yul\":9448:9495   */\n      mstore\n        /* \"#utility.yul\":9512:9643   */\n      tag_201\n        /* \"#utility.yul\":9638:9642   */\n      dup2\n        /* \"#utility.yul\":9512:9643   */\n      tag_107\n      jump\t// in\n    tag_201:\n        /* \"#utility.yul\":9504:9643   */\n      swap1\n      pop\n        /* \"#utility.yul\":9231:9650   */\n      swap2\n      swap1\n      pop\n      jump\t// out\n        /* \"#utility.yul\":9656:9881   */\n    tag_108:\n        /* \"#utility.yul\":9796:9830   */\n      0x416d6f756e74206973206c6172676572207468616e20636f6e74726163742062\n        /* \"#utility.yul\":9792:9793   */\n      0x00\n        /* \"#utility.yul\":9784:9790   */\n      dup3\n        /* \"#utility.yul\":9780:9794   */\n      add\n        /* \"#utility.yul\":9773:9831   */\n      mstore\n        /* \"#utility.yul\":9865:9873   */\n      0x616c616e63650000000000000000000000000000000000000000000000000000\n        /* \"#utility.yul\":9860:9862   */\n      0x20\n        /* \"#utility.yul\":9852:9858   */\n      dup3\n        /* \"#utility.yul\":9848:9863   */\n      add\n        /* \"#utility.yul\":9841:9874   */\n      mstore\n        /* \"#utility.yul\":9656:9881   */\n      pop\n      jump\t// out\n        /* \"#utility.yul\":9887:10253   */\n    tag_109:\n        /* \"#utility.yul\":10029:10032   */\n      0x00\n        /* \"#utility.yul\":10050:10117   */\n      tag_204\n        /* \"#utility.yul\":10114:10116   */\n      0x26\n        /* \"#utility.yul\":10109:10112   */\n      dup4\n        /* \"#utility.yul\":10050:10117   */\n      tag_96\n      jump\t// in\n    tag_204:\n        /* \"#utility.yul\":10043:10117   */\n      swap2\n      pop\n        /* \"#utility.yul\":10126:10219   */\n      tag_205\n        /* \"#utility.yul\":10215:10218   */\n      dup3\n        /* \"#utility.yul\":10126:10219   */\n      tag_108\n      jump\t// in\n    tag_205:\n        /* \"#utility.yul\":10244:10246   */\n      0x40\n        /* \"#utility.yul\":10239:10242   */\n      dup3\n        /* \"#utility.yul\":10235:10247   */\n      add\n        /* \"#utility.yul\":10228:10247   */\n      swap1\n      pop\n        /* \"#utility.yul\":9887:10253   */\n      swap2\n      swap1\n      pop\n      jump\t// out\n        /* \"#utility.yul\":10259:10678   */\n    tag_78:\n        /* \"#utility.yul\":10425:10429   */\n      0x00\n        /* \"#utility.yul\":10463:10465   */\n      0x20\n        /* \"#utility.yul\":10452:10461   */\n      dup3\n        /* \"#utility.yul\":10448:10466   */\n      add\n        /* \"#utility.yul\":10440:10466   */\n      swap1\n      pop\n        /* \"#utility.yul\":10512:10521   */\n      dup2\n        /* \"#utility.yul\":10506:10510   */\n      dup2\n        /* \"#utility.yul\":10502:10522   */\n      sub\n        /* \"#utility.yul\":10498:10499   */\n      0x00\n        /* \"#utility.yul\":10487:10496   */\n      dup4\n        /* \"#utility.yul\":10483:10500   */\n      add\n        /* \"#utility.yul\":10476:10523   */\n      mstore\n        /* \"#utility.yul\":10540:10671   */\n      tag_207\n        /* \"#utility.yul\":10666:10670   */\n      dup2\n        /* \"#utility.yul\":10540:10671   */\n      tag_109\n      jump\t// in\n    tag_207:\n        /* \"#utility.yul\":10532:10671   */\n      swap1\n      pop\n        /* \"#utility.yul\":10259:10678   */\n      swap2\n      swap1\n      pop\n      jump\t// out\n\n    auxdata: 0xa264697066735822122074dc2b984adc0a49669f11d69c2eccd64a5020e213d5a23accdef7645c29160d64736f6c63430008100033\n}\n",
				"bytecode": {
					"linkReferences": {},
					"object": "608060405234801561001057600080fd5b50336000806101000a81548173ffffffffffffffffffffffffffffffffffffffff021916908373ffffffffffffffffffffffffffffffffffffffff160217905550610c6e806100606000396000f3fe60806040526004361061007b5760003560e01c806341c613831161004e57806341c613831461011c5780638b7afe2e146101475780638da5cb5b14610172578063d9c88e141461019d5761007b565b8063015677391461008057806305737314146100be57806316a51305146100c85780632d70db2f146100f3575b600080fd5b34801561008c57600080fd5b506100a760048036038101906100a291906106b8565b6101c6565b6040516100b59291906106fe565b60405180910390f35b6100c66101ea565b005b3480156100d457600080fd5b506100dd6101f3565b6040516100ea9190610727565b60405180910390f35b3480156100ff57600080fd5b5061011a600480360381019061011591906107ac565b6101f9565b005b34801561012857600080fd5b50610131610509565b60405161013e9190610727565b60405180910390f35b34801561015357600080fd5b5061015c61050f565b6040516101699190610727565b60405180910390f35b34801561017e57600080fd5b50610187610515565b60405161019491906107fb565b60405180910390f35b3480156101a957600080fd5b506101c460048036038101906101bf91906107ac565b610539565b005b60016020528060005260406000206000915090508060000154908060010154905082565b47600481905550565b60025481565b60008054906101000a900473ffffffffffffffffffffffffffffffffffffffff1673ffffffffffffffffffffffffffffffffffffffff163373ffffffffffffffffffffffffffffffffffffffff1603610287576040517f08c379a000000000000000000000000000000000000000000000000000000000815260040161027e90610899565b60405180910390fd5b600047116102ca576040517f08c379a00000000000000000000000000000000000000000000000000000000081526004016102c19061092b565b60405180910390fd5b6000600160003373ffffffffffffffffffffffffffffffffffffffff1673ffffffffffffffffffffffffffffffffffffffff168152602001908152602001600020600001541161034f576040517f08c379a000000000000000000000000000000000000000000000000000000000815260040161034690610997565b60405180910390fd5b6000600160003373ffffffffffffffffffffffffffffffffffffffff1673ffffffffffffffffffffffffffffffffffffffff1681526020019081526020016000206000015490506000600160003373ffffffffffffffffffffffffffffffffffffffff1673ffffffffffffffffffffffffffffffffffffffff16815260200190815260200160002060010154600354476103e991906109e6565b836103f49190610a1a565b6103fe9190610a74565b905080831115610443576040517f08c379a000000000000000000000000000000000000000000000000000000000815260040161043a90610af4565b60405180910390fd5b82600160003373ffffffffffffffffffffffffffffffffffffffff1673ffffffffffffffffffffffffffffffffffffffff168152602001908152602001600020600101600082825461049591906109e6565b9250508190555082600360008282546104ae91906109e6565b92505081905550476004819055508373ffffffffffffffffffffffffffffffffffffffff166108fc849081150290604051600060405180830381858888f19350505050158015610502573d6000803e3d6000fd5b5050505050565b60035481565b60045481565b60008054906101000a900473ffffffffffffffffffffffffffffffffffffffff1681565b60008054906101000a900473ffffffffffffffffffffffffffffffffffffffff1673ffffffffffffffffffffffffffffffffffffffff163373ffffffffffffffffffffffffffffffffffffffff16146105c7576040517f08c379a00000000000000000000000000000000000000000000000000000000081526004016105be90610b86565b60405180910390fd5b4781111561060a576040517f08c379a000000000000000000000000000000000000000000000000000000000815260040161060190610c18565b60405180910390fd5b8173ffffffffffffffffffffffffffffffffffffffff166108fc829081150290604051600060405180830381858888f19350505050158015610650573d6000803e3d6000fd5b505050565b600080fd5b600073ffffffffffffffffffffffffffffffffffffffff82169050919050565b60006106858261065a565b9050919050565b6106958161067a565b81146106a057600080fd5b50565b6000813590506106b28161068c565b92915050565b6000602082840312156106ce576106cd610655565b5b60006106dc848285016106a3565b91505092915050565b6000819050919050565b6106f8816106e5565b82525050565b600060408201905061071360008301856106ef565b61072060208301846106ef565b9392505050565b600060208201905061073c60008301846106ef565b92915050565b600061074d8261065a565b9050919050565b61075d81610742565b811461076857600080fd5b50565b60008135905061077a81610754565b92915050565b610789816106e5565b811461079457600080fd5b50565b6000813590506107a681610780565b92915050565b600080604083850312156107c3576107c2610655565b5b60006107d18582860161076b565b92505060206107e285828601610797565b9150509250929050565b6107f58161067a565b82525050565b600060208201905061081060008301846107ec565b92915050565b600082825260208201905092915050565b7f546865206f776e65722073686f756c6420757365206f776e657257697468647260008201527f61772066756e6374696f6e000000000000000000000000000000000000000000602082015250565b6000610883602b83610816565b915061088e82610827565b604082019050919050565b600060208201905081810360008301526108b281610876565b9050919050565b7f5468657265206973206e6f206d6f6e657920696e207468652077616c6c65742060008201527f746f20636c61696d000000000000000000000000000000000000000000000000602082015250565b6000610915602883610816565b9150610920826108b9565b604082019050919050565b6000602082019050818103600083015261094481610908565b9050919050565b7f596f7520646f206e6f74206861766520616e7920616c6c6f77616e6365000000600082015250565b6000610981601d83610816565b915061098c8261094b565b602082019050919050565b600060208201905081810360008301526109b081610974565b9050919050565b7f4e487b7100000000000000000000000000000000000000000000000000000000600052601160045260246000fd5b60006109f1826106e5565b91506109fc836106e5565b9250828201905080821115610a1457610a136109b7565b5b92915050565b6000610a25826106e5565b9150610a30836106e5565b9250817fffffffffffffffffffffffffffffffffffffffffffffffffffffffffffffffff0483118215151615610a6957610a686109b7565b5b828202905092915050565b6000610a7f826106e5565b9150610a8a836106e5565b9250828203905081811115610aa257610aa16109b7565b5b92915050565b7f54686520616d6f756e7420697320746f6f206869676800000000000000000000600082015250565b6000610ade601683610816565b9150610ae982610aa8565b602082019050919050565b60006020820190508181036000830152610b0d81610ad1565b9050919050565b7f596f7520617265206e6f7420616c6c6f776564202d206f6e6c7920746865206f60008201527f776e65722063616e20646f20746869732e000000000000000000000000000000602082015250565b6000610b70603183610816565b9150610b7b82610b14565b604082019050919050565b60006020820190508181036000830152610b9f81610b63565b9050919050565b7f416d6f756e74206973206c6172676572207468616e20636f6e7472616374206260008201527f616c616e63650000000000000000000000000000000000000000000000000000602082015250565b6000610c02602683610816565b9150610c0d82610ba6565b604082019050919050565b60006020820190508181036000830152610c3181610bf5565b905091905056fea264697066735822122074dc2b984adc0a49669f11d69c2eccd64a5020e213d5a23accdef7645c29160d64736f6c63430008100033",
					"opcodes": "PUSH1 0x80 PUSH1 0x40 MSTORE CALLVALUE DUP1 ISZERO PUSH2 0x10 JUMPI PUSH1 0x0 DUP1 REVERT JUMPDEST POP CALLER PUSH1 0x0 DUP1 PUSH2 0x100 EXP DUP2 SLOAD DUP2 PUSH20 0xFFFFFFFFFFFFFFFFFFFFFFFFFFFFFFFFFFFFFFFF MUL NOT AND SWAP1 DUP4 PUSH20 0xFFFFFFFFFFFFFFFFFFFFFFFFFFFFFFFFFFFFFFFF AND MUL OR SWAP1 SSTORE POP PUSH2 0xC6E DUP1 PUSH2 0x60 PUSH1 0x0 CODECOPY PUSH1 0x0 RETURN INVALID PUSH1 0x80 PUSH1 0x40 MSTORE PUSH1 0x4 CALLDATASIZE LT PUSH2 0x7B JUMPI PUSH1 0x0 CALLDATALOAD PUSH1 0xE0 SHR DUP1 PUSH4 0x41C61383 GT PUSH2 0x4E JUMPI DUP1 PUSH4 0x41C61383 EQ PUSH2 0x11C JUMPI DUP1 PUSH4 0x8B7AFE2E EQ PUSH2 0x147 JUMPI DUP1 PUSH4 0x8DA5CB5B EQ PUSH2 0x172 JUMPI DUP1 PUSH4 0xD9C88E14 EQ PUSH2 0x19D JUMPI PUSH2 0x7B JUMP JUMPDEST DUP1 PUSH4 0x1567739 EQ PUSH2 0x80 JUMPI DUP1 PUSH4 0x5737314 EQ PUSH2 0xBE JUMPI DUP1 PUSH4 0x16A51305 EQ PUSH2 0xC8 JUMPI DUP1 PUSH4 0x2D70DB2F EQ PUSH2 0xF3 JUMPI JUMPDEST PUSH1 0x0 DUP1 REVERT JUMPDEST CALLVALUE DUP1 ISZERO PUSH2 0x8C JUMPI PUSH1 0x0 DUP1 REVERT JUMPDEST POP PUSH2 0xA7 PUSH1 0x4 DUP1 CALLDATASIZE SUB DUP2 ADD SWAP1 PUSH2 0xA2 SWAP2 SWAP1 PUSH2 0x6B8 JUMP JUMPDEST PUSH2 0x1C6 JUMP JUMPDEST PUSH1 0x40 MLOAD PUSH2 0xB5 SWAP3 SWAP2 SWAP1 PUSH2 0x6FE JUMP JUMPDEST PUSH1 0x40 MLOAD DUP1 SWAP2 SUB SWAP1 RETURN JUMPDEST PUSH2 0xC6 PUSH2 0x1EA JUMP JUMPDEST STOP JUMPDEST CALLVALUE DUP1 ISZERO PUSH2 0xD4 JUMPI PUSH1 0x0 DUP1 REVERT JUMPDEST POP PUSH2 0xDD PUSH2 0x1F3 JUMP JUMPDEST PUSH1 0x40 MLOAD PUSH2 0xEA SWAP2 SWAP1 PUSH2 0x727 JUMP JUMPDEST PUSH1 0x40 MLOAD DUP1 SWAP2 SUB SWAP1 RETURN JUMPDEST CALLVALUE DUP1 ISZERO PUSH2 0xFF JUMPI PUSH1 0x0 DUP1 REVERT JUMPDEST POP PUSH2 0x11A PUSH1 0x4 DUP1 CALLDATASIZE SUB DUP2 ADD SWAP1 PUSH2 0x115 SWAP2 SWAP1 PUSH2 0x7AC JUMP JUMPDEST PUSH2 0x1F9 JUMP JUMPDEST STOP JUMPDEST CALLVALUE DUP1 ISZERO PUSH2 0x128 JUMPI PUSH1 0x0 DUP1 REVERT JUMPDEST POP PUSH2 0x131 PUSH2 0x509 JUMP JUMPDEST PUSH1 0x40 MLOAD PUSH2 0x13E SWAP2 SWAP1 PUSH2 0x727 JUMP JUMPDEST PUSH1 0x40 MLOAD DUP1 SWAP2 SUB SWAP1 RETURN JUMPDEST CALLVALUE DUP1 ISZERO PUSH2 0x153 JUMPI PUSH1 0x0 DUP1 REVERT JUMPDEST POP PUSH2 0x15C PUSH2 0x50F JUMP JUMPDEST PUSH1 0x40 MLOAD PUSH2 0x169 SWAP2 SWAP1 PUSH2 0x727 JUMP JUMPDEST PUSH1 0x40 MLOAD DUP1 SWAP2 SUB SWAP1 RETURN JUMPDEST CALLVALUE DUP1 ISZERO PUSH2 0x17E JUMPI PUSH1 0x0 DUP1 REVERT JUMPDEST POP PUSH2 0x187 PUSH2 0x515 JUMP JUMPDEST PUSH1 0x40 MLOAD PUSH2 0x194 SWAP2 SWAP1 PUSH2 0x7FB JUMP JUMPDEST PUSH1 0x40 MLOAD DUP1 SWAP2 SUB SWAP1 RETURN JUMPDEST CALLVALUE DUP1 ISZERO PUSH2 0x1A9 JUMPI PUSH1 0x0 DUP1 REVERT JUMPDEST POP PUSH2 0x1C4 PUSH1 0x4 DUP1 CALLDATASIZE SUB DUP2 ADD SWAP1 PUSH2 0x1BF SWAP2 SWAP1 PUSH2 0x7AC JUMP JUMPDEST PUSH2 0x539 JUMP JUMPDEST STOP JUMPDEST PUSH1 0x1 PUSH1 0x20 MSTORE DUP1 PUSH1 0x0 MSTORE PUSH1 0x40 PUSH1 0x0 KECCAK256 PUSH1 0x0 SWAP2 POP SWAP1 POP DUP1 PUSH1 0x0 ADD SLOAD SWAP1 DUP1 PUSH1 0x1 ADD SLOAD SWAP1 POP DUP3 JUMP JUMPDEST SELFBALANCE PUSH1 0x4 DUP2 SWAP1 SSTORE POP JUMP JUMPDEST PUSH1 0x2 SLOAD DUP2 JUMP JUMPDEST PUSH1 0x0 DUP1 SLOAD SWAP1 PUSH2 0x100 EXP SWAP1 DIV PUSH20 0xFFFFFFFFFFFFFFFFFFFFFFFFFFFFFFFFFFFFFFFF AND PUSH20 0xFFFFFFFFFFFFFFFFFFFFFFFFFFFFFFFFFFFFFFFF AND CALLER PUSH20 0xFFFFFFFFFFFFFFFFFFFFFFFFFFFFFFFFFFFFFFFF AND SUB PUSH2 0x287 JUMPI PUSH1 0x40 MLOAD PUSH32 0x8C379A000000000000000000000000000000000000000000000000000000000 DUP2 MSTORE PUSH1 0x4 ADD PUSH2 0x27E SWAP1 PUSH2 0x899 JUMP JUMPDEST PUSH1 0x40 MLOAD DUP1 SWAP2 SUB SWAP1 REVERT JUMPDEST PUSH1 0x0 SELFBALANCE GT PUSH2 0x2CA JUMPI PUSH1 0x40 MLOAD PUSH32 0x8C379A000000000000000000000000000000000000000000000000000000000 DUP2 MSTORE PUSH1 0x4 ADD PUSH2 0x2C1 SWAP1 PUSH2 0x92B JUMP JUMPDEST PUSH1 0x40 MLOAD DUP1 SWAP2 SUB SWAP1 REVERT JUMPDEST PUSH1 0x0 PUSH1 0x1 PUSH1 0x0 CALLER PUSH20 0xFFFFFFFFFFFFFFFFFFFFFFFFFFFFFFFFFFFFFFFF AND PUSH20 0xFFFFFFFFFFFFFFFFFFFFFFFFFFFFFFFFFFFFFFFF AND DUP2 MSTORE PUSH1 0x20 ADD SWAP1 DUP2 MSTORE PUSH1 0x20 ADD PUSH1 0x0 KECCAK256 PUSH1 0x0 ADD SLOAD GT PUSH2 0x34F JUMPI PUSH1 0x40 MLOAD PUSH32 0x8C379A000000000000000000000000000000000000000000000000000000000 DUP2 MSTORE PUSH1 0x4 ADD PUSH2 0x346 SWAP1 PUSH2 0x997 JUMP JUMPDEST PUSH1 0x40 MLOAD DUP1 SWAP2 SUB SWAP1 REVERT JUMPDEST PUSH1 0x0 PUSH1 0x1 PUSH1 0x0 CALLER PUSH20 0xFFFFFFFFFFFFFFFFFFFFFFFFFFFFFFFFFFFFFFFF AND PUSH20 0xFFFFFFFFFFFFFFFFFFFFFFFFFFFFFFFFFFFFFFFF AND DUP2 MSTORE PUSH1 0x20 ADD SWAP1 DUP2 MSTORE PUSH1 0x20 ADD PUSH1 0x0 KECCAK256 PUSH1 0x0 ADD SLOAD SWAP1 POP PUSH1 0x0 PUSH1 0x1 PUSH1 0x0 CALLER PUSH20 0xFFFFFFFFFFFFFFFFFFFFFFFFFFFFFFFFFFFFFFFF AND PUSH20 0xFFFFFFFFFFFFFFFFFFFFFFFFFFFFFFFFFFFFFFFF AND DUP2 MSTORE PUSH1 0x20 ADD SWAP1 DUP2 MSTORE PUSH1 0x20 ADD PUSH1 0x0 KECCAK256 PUSH1 0x1 ADD SLOAD PUSH1 0x3 SLOAD SELFBALANCE PUSH2 0x3E9 SWAP2 SWAP1 PUSH2 0x9E6 JUMP JUMPDEST DUP4 PUSH2 0x3F4 SWAP2 SWAP1 PUSH2 0xA1A JUMP JUMPDEST PUSH2 0x3FE SWAP2 SWAP1 PUSH2 0xA74 JUMP JUMPDEST SWAP1 POP DUP1 DUP4 GT ISZERO PUSH2 0x443 JUMPI PUSH1 0x40 MLOAD PUSH32 0x8C379A000000000000000000000000000000000000000000000000000000000 DUP2 MSTORE PUSH1 0x4 ADD PUSH2 0x43A SWAP1 PUSH2 0xAF4 JUMP JUMPDEST PUSH1 0x40 MLOAD DUP1 SWAP2 SUB SWAP1 REVERT JUMPDEST DUP3 PUSH1 0x1 PUSH1 0x0 CALLER PUSH20 0xFFFFFFFFFFFFFFFFFFFFFFFFFFFFFFFFFFFFFFFF AND PUSH20 0xFFFFFFFFFFFFFFFFFFFFFFFFFFFFFFFFFFFFFFFF AND DUP2 MSTORE PUSH1 0x20 ADD SWAP1 DUP2 MSTORE PUSH1 0x20 ADD PUSH1 0x0 KECCAK256 PUSH1 0x1 ADD PUSH1 0x0 DUP3 DUP3 SLOAD PUSH2 0x495 SWAP2 SWAP1 PUSH2 0x9E6 JUMP JUMPDEST SWAP3 POP POP DUP2 SWAP1 SSTORE POP DUP3 PUSH1 0x3 PUSH1 0x0 DUP3 DUP3 SLOAD PUSH2 0x4AE SWAP2 SWAP1 PUSH2 0x9E6 JUMP JUMPDEST SWAP3 POP POP DUP2 SWAP1 SSTORE POP SELFBALANCE PUSH1 0x4 DUP2 SWAP1 SSTORE POP DUP4 PUSH20 0xFFFFFFFFFFFFFFFFFFFFFFFFFFFFFFFFFFFFFFFF AND PUSH2 0x8FC DUP5 SWAP1 DUP2 ISZERO MUL SWAP1 PUSH1 0x40 MLOAD PUSH1 0x0 PUSH1 0x40 MLOAD DUP1 DUP4 SUB DUP2 DUP6 DUP9 DUP9 CALL SWAP4 POP POP POP POP ISZERO DUP1 ISZERO PUSH2 0x502 JUMPI RETURNDATASIZE PUSH1 0x0 DUP1 RETURNDATACOPY RETURNDATASIZE PUSH1 0x0 REVERT JUMPDEST POP POP POP POP POP JUMP JUMPDEST PUSH1 0x3 SLOAD DUP2 JUMP JUMPDEST PUSH1 0x4 SLOAD DUP2 JUMP JUMPDEST PUSH1 0x0 DUP1 SLOAD SWAP1 PUSH2 0x100 EXP SWAP1 DIV PUSH20 0xFFFFFFFFFFFFFFFFFFFFFFFFFFFFFFFFFFFFFFFF AND DUP2 JUMP JUMPDEST PUSH1 0x0 DUP1 SLOAD SWAP1 PUSH2 0x100 EXP SWAP1 DIV PUSH20 0xFFFFFFFFFFFFFFFFFFFFFFFFFFFFFFFFFFFFFFFF AND PUSH20 0xFFFFFFFFFFFFFFFFFFFFFFFFFFFFFFFFFFFFFFFF AND CALLER PUSH20 0xFFFFFFFFFFFFFFFFFFFFFFFFFFFFFFFFFFFFFFFF AND EQ PUSH2 0x5C7 JUMPI PUSH1 0x40 MLOAD PUSH32 0x8C379A000000000000000000000000000000000000000000000000000000000 DUP2 MSTORE PUSH1 0x4 ADD PUSH2 0x5BE SWAP1 PUSH2 0xB86 JUMP JUMPDEST PUSH1 0x40 MLOAD DUP1 SWAP2 SUB SWAP1 REVERT JUMPDEST SELFBALANCE DUP2 GT ISZERO PUSH2 0x60A JUMPI PUSH1 0x40 MLOAD PUSH32 0x8C379A000000000000000000000000000000000000000000000000000000000 DUP2 MSTORE PUSH1 0x4 ADD PUSH2 0x601 SWAP1 PUSH2 0xC18 JUMP JUMPDEST PUSH1 0x40 MLOAD DUP1 SWAP2 SUB SWAP1 REVERT JUMPDEST DUP2 PUSH20 0xFFFFFFFFFFFFFFFFFFFFFFFFFFFFFFFFFFFFFFFF AND PUSH2 0x8FC DUP3 SWAP1 DUP2 ISZERO MUL SWAP1 PUSH1 0x40 MLOAD PUSH1 0x0 PUSH1 0x40 MLOAD DUP1 DUP4 SUB DUP2 DUP6 DUP9 DUP9 CALL SWAP4 POP POP POP POP ISZERO DUP1 ISZERO PUSH2 0x650 JUMPI RETURNDATASIZE PUSH1 0x0 DUP1 RETURNDATACOPY RETURNDATASIZE PUSH1 0x0 REVERT JUMPDEST POP POP POP JUMP JUMPDEST PUSH1 0x0 DUP1 REVERT JUMPDEST PUSH1 0x0 PUSH20 0xFFFFFFFFFFFFFFFFFFFFFFFFFFFFFFFFFFFFFFFF DUP3 AND SWAP1 POP SWAP2 SWAP1 POP JUMP JUMPDEST PUSH1 0x0 PUSH2 0x685 DUP3 PUSH2 0x65A JUMP JUMPDEST SWAP1 POP SWAP2 SWAP1 POP JUMP JUMPDEST PUSH2 0x695 DUP2 PUSH2 0x67A JUMP JUMPDEST DUP2 EQ PUSH2 0x6A0 JUMPI PUSH1 0x0 DUP1 REVERT JUMPDEST POP JUMP JUMPDEST PUSH1 0x0 DUP2 CALLDATALOAD SWAP1 POP PUSH2 0x6B2 DUP2 PUSH2 0x68C JUMP JUMPDEST SWAP3 SWAP2 POP POP JUMP JUMPDEST PUSH1 0x0 PUSH1 0x20 DUP3 DUP5 SUB SLT ISZERO PUSH2 0x6CE JUMPI PUSH2 0x6CD PUSH2 0x655 JUMP JUMPDEST JUMPDEST PUSH1 0x0 PUSH2 0x6DC DUP5 DUP3 DUP6 ADD PUSH2 0x6A3 JUMP JUMPDEST SWAP2 POP POP SWAP3 SWAP2 POP POP JUMP JUMPDEST PUSH1 0x0 DUP2 SWAP1 POP SWAP2 SWAP1 POP JUMP JUMPDEST PUSH2 0x6F8 DUP2 PUSH2 0x6E5 JUMP JUMPDEST DUP3 MSTORE POP POP JUMP JUMPDEST PUSH1 0x0 PUSH1 0x40 DUP3 ADD SWAP1 POP PUSH2 0x713 PUSH1 0x0 DUP4 ADD DUP6 PUSH2 0x6EF JUMP JUMPDEST PUSH2 0x720 PUSH1 0x20 DUP4 ADD DUP5 PUSH2 0x6EF JUMP JUMPDEST SWAP4 SWAP3 POP POP POP JUMP JUMPDEST PUSH1 0x0 PUSH1 0x20 DUP3 ADD SWAP1 POP PUSH2 0x73C PUSH1 0x0 DUP4 ADD DUP5 PUSH2 0x6EF JUMP JUMPDEST SWAP3 SWAP2 POP POP JUMP JUMPDEST PUSH1 0x0 PUSH2 0x74D DUP3 PUSH2 0x65A JUMP JUMPDEST SWAP1 POP SWAP2 SWAP1 POP JUMP JUMPDEST PUSH2 0x75D DUP2 PUSH2 0x742 JUMP JUMPDEST DUP2 EQ PUSH2 0x768 JUMPI PUSH1 0x0 DUP1 REVERT JUMPDEST POP JUMP JUMPDEST PUSH1 0x0 DUP2 CALLDATALOAD SWAP1 POP PUSH2 0x77A DUP2 PUSH2 0x754 JUMP JUMPDEST SWAP3 SWAP2 POP POP JUMP JUMPDEST PUSH2 0x789 DUP2 PUSH2 0x6E5 JUMP JUMPDEST DUP2 EQ PUSH2 0x794 JUMPI PUSH1 0x0 DUP1 REVERT JUMPDEST POP JUMP JUMPDEST PUSH1 0x0 DUP2 CALLDATALOAD SWAP1 POP PUSH2 0x7A6 DUP2 PUSH2 0x780 JUMP JUMPDEST SWAP3 SWAP2 POP POP JUMP JUMPDEST PUSH1 0x0 DUP1 PUSH1 0x40 DUP4 DUP6 SUB SLT ISZERO PUSH2 0x7C3 JUMPI PUSH2 0x7C2 PUSH2 0x655 JUMP JUMPDEST JUMPDEST PUSH1 0x0 PUSH2 0x7D1 DUP6 DUP3 DUP7 ADD PUSH2 0x76B JUMP JUMPDEST SWAP3 POP POP PUSH1 0x20 PUSH2 0x7E2 DUP6 DUP3 DUP7 ADD PUSH2 0x797 JUMP JUMPDEST SWAP2 POP POP SWAP3 POP SWAP3 SWAP1 POP JUMP JUMPDEST PUSH2 0x7F5 DUP2 PUSH2 0x67A JUMP JUMPDEST DUP3 MSTORE POP POP JUMP JUMPDEST PUSH1 0x0 PUSH1 0x20 DUP3 ADD SWAP1 POP PUSH2 0x810 PUSH1 0x0 DUP4 ADD DUP5 PUSH2 0x7EC JUMP JUMPDEST SWAP3 SWAP2 POP POP JUMP JUMPDEST PUSH1 0x0 DUP3 DUP3 MSTORE PUSH1 0x20 DUP3 ADD SWAP1 POP SWAP3 SWAP2 POP POP JUMP JUMPDEST PUSH32 0x546865206F776E65722073686F756C6420757365206F776E6572576974686472 PUSH1 0x0 DUP3 ADD MSTORE PUSH32 0x61772066756E6374696F6E000000000000000000000000000000000000000000 PUSH1 0x20 DUP3 ADD MSTORE POP JUMP JUMPDEST PUSH1 0x0 PUSH2 0x883 PUSH1 0x2B DUP4 PUSH2 0x816 JUMP JUMPDEST SWAP2 POP PUSH2 0x88E DUP3 PUSH2 0x827 JUMP JUMPDEST PUSH1 0x40 DUP3 ADD SWAP1 POP SWAP2 SWAP1 POP JUMP JUMPDEST PUSH1 0x0 PUSH1 0x20 DUP3 ADD SWAP1 POP DUP2 DUP2 SUB PUSH1 0x0 DUP4 ADD MSTORE PUSH2 0x8B2 DUP2 PUSH2 0x876 JUMP JUMPDEST SWAP1 POP SWAP2 SWAP1 POP JUMP JUMPDEST PUSH32 0x5468657265206973206E6F206D6F6E657920696E207468652077616C6C657420 PUSH1 0x0 DUP3 ADD MSTORE PUSH32 0x746F20636C61696D000000000000000000000000000000000000000000000000 PUSH1 0x20 DUP3 ADD MSTORE POP JUMP JUMPDEST PUSH1 0x0 PUSH2 0x915 PUSH1 0x28 DUP4 PUSH2 0x816 JUMP JUMPDEST SWAP2 POP PUSH2 0x920 DUP3 PUSH2 0x8B9 JUMP JUMPDEST PUSH1 0x40 DUP3 ADD SWAP1 POP SWAP2 SWAP1 POP JUMP JUMPDEST PUSH1 0x0 PUSH1 0x20 DUP3 ADD SWAP1 POP DUP2 DUP2 SUB PUSH1 0x0 DUP4 ADD MSTORE PUSH2 0x944 DUP2 PUSH2 0x908 JUMP JUMPDEST SWAP1 POP SWAP2 SWAP1 POP JUMP JUMPDEST PUSH32 0x596F7520646F206E6F74206861766520616E7920616C6C6F77616E6365000000 PUSH1 0x0 DUP3 ADD MSTORE POP JUMP JUMPDEST PUSH1 0x0 PUSH2 0x981 PUSH1 0x1D DUP4 PUSH2 0x816 JUMP JUMPDEST SWAP2 POP PUSH2 0x98C DUP3 PUSH2 0x94B JUMP JUMPDEST PUSH1 0x20 DUP3 ADD SWAP1 POP SWAP2 SWAP1 POP JUMP JUMPDEST PUSH1 0x0 PUSH1 0x20 DUP3 ADD SWAP1 POP DUP2 DUP2 SUB PUSH1 0x0 DUP4 ADD MSTORE PUSH2 0x9B0 DUP2 PUSH2 0x974 JUMP JUMPDEST SWAP1 POP SWAP2 SWAP1 POP JUMP JUMPDEST PUSH32 0x4E487B7100000000000000000000000000000000000000000000000000000000 PUSH1 0x0 MSTORE PUSH1 0x11 PUSH1 0x4 MSTORE PUSH1 0x24 PUSH1 0x0 REVERT JUMPDEST PUSH1 0x0 PUSH2 0x9F1 DUP3 PUSH2 0x6E5 JUMP JUMPDEST SWAP2 POP PUSH2 0x9FC DUP4 PUSH2 0x6E5 JUMP JUMPDEST SWAP3 POP DUP3 DUP3 ADD SWAP1 POP DUP1 DUP3 GT ISZERO PUSH2 0xA14 JUMPI PUSH2 0xA13 PUSH2 0x9B7 JUMP JUMPDEST JUMPDEST SWAP3 SWAP2 POP POP JUMP JUMPDEST PUSH1 0x0 PUSH2 0xA25 DUP3 PUSH2 0x6E5 JUMP JUMPDEST SWAP2 POP PUSH2 0xA30 DUP4 PUSH2 0x6E5 JUMP JUMPDEST SWAP3 POP DUP2 PUSH32 0xFFFFFFFFFFFFFFFFFFFFFFFFFFFFFFFFFFFFFFFFFFFFFFFFFFFFFFFFFFFFFFFF DIV DUP4 GT DUP3 ISZERO ISZERO AND ISZERO PUSH2 0xA69 JUMPI PUSH2 0xA68 PUSH2 0x9B7 JUMP JUMPDEST JUMPDEST DUP3 DUP3 MUL SWAP1 POP SWAP3 SWAP2 POP POP JUMP JUMPDEST PUSH1 0x0 PUSH2 0xA7F DUP3 PUSH2 0x6E5 JUMP JUMPDEST SWAP2 POP PUSH2 0xA8A DUP4 PUSH2 0x6E5 JUMP JUMPDEST SWAP3 POP DUP3 DUP3 SUB SWAP1 POP DUP2 DUP2 GT ISZERO PUSH2 0xAA2 JUMPI PUSH2 0xAA1 PUSH2 0x9B7 JUMP JUMPDEST JUMPDEST SWAP3 SWAP2 POP POP JUMP JUMPDEST PUSH32 0x54686520616D6F756E7420697320746F6F206869676800000000000000000000 PUSH1 0x0 DUP3 ADD MSTORE POP JUMP JUMPDEST PUSH1 0x0 PUSH2 0xADE PUSH1 0x16 DUP4 PUSH2 0x816 JUMP JUMPDEST SWAP2 POP PUSH2 0xAE9 DUP3 PUSH2 0xAA8 JUMP JUMPDEST PUSH1 0x20 DUP3 ADD SWAP1 POP SWAP2 SWAP1 POP JUMP JUMPDEST PUSH1 0x0 PUSH1 0x20 DUP3 ADD SWAP1 POP DUP2 DUP2 SUB PUSH1 0x0 DUP4 ADD MSTORE PUSH2 0xB0D DUP2 PUSH2 0xAD1 JUMP JUMPDEST SWAP1 POP SWAP2 SWAP1 POP JUMP JUMPDEST PUSH32 0x596F7520617265206E6F7420616C6C6F776564202D206F6E6C7920746865206F PUSH1 0x0 DUP3 ADD MSTORE PUSH32 0x776E65722063616E20646F20746869732E000000000000000000000000000000 PUSH1 0x20 DUP3 ADD MSTORE POP JUMP JUMPDEST PUSH1 0x0 PUSH2 0xB70 PUSH1 0x31 DUP4 PUSH2 0x816 JUMP JUMPDEST SWAP2 POP PUSH2 0xB7B DUP3 PUSH2 0xB14 JUMP JUMPDEST PUSH1 0x40 DUP3 ADD SWAP1 POP SWAP2 SWAP1 POP JUMP JUMPDEST PUSH1 0x0 PUSH1 0x20 DUP3 ADD SWAP1 POP DUP2 DUP2 SUB PUSH1 0x0 DUP4 ADD MSTORE PUSH2 0xB9F DUP2 PUSH2 0xB63 JUMP JUMPDEST SWAP1 POP SWAP2 SWAP1 POP JUMP JUMPDEST PUSH32 0x416D6F756E74206973206C6172676572207468616E20636F6E74726163742062 PUSH1 0x0 DUP3 ADD MSTORE PUSH32 0x616C616E63650000000000000000000000000000000000000000000000000000 PUSH1 0x20 DUP3 ADD MSTORE POP JUMP JUMPDEST PUSH1 0x0 PUSH2 0xC02 PUSH1 0x26 DUP4 PUSH2 0x816 JUMP JUMPDEST SWAP2 POP PUSH2 0xC0D DUP3 PUSH2 0xBA6 JUMP JUMPDEST PUSH1 0x40 DUP3 ADD SWAP1 POP SWAP2 SWAP1 POP JUMP JUMPDEST PUSH1 0x0 PUSH1 0x20 DUP3 ADD SWAP1 POP DUP2 DUP2 SUB PUSH1 0x0 DUP4 ADD MSTORE PUSH2 0xC31 DUP2 PUSH2 0xBF5 JUMP JUMPDEST SWAP1 POP SWAP2 SWAP1 POP JUMP INVALID LOG2 PUSH5 0x6970667358 0x22 SLT KECCAK256 PUSH21 0xDC2B984ADC0A49669F11D69C2ECCD64A5020E213D5 LOG2 GASPRICE 0xCC 0xDE 0xF7 PUSH5 0x5C29160D64 PUSH20 0x6F6C634300081000330000000000000000000000 "
				},
				"gasEstimates": {
					"creation": {
						"codeDepositCost": "636400",
						"executionCost": "24936",
						"totalCost": "661336"
					},
					"external": {
						"ClaimMoney(address,uint256)": "infinite",
						"SendMoney()": "22259",
						"beneficiaries(address)": "infinite",
						"contractBalance()": "2451",
						"owner()": "2555",
						"ownerWithdraw(address,uint256)": "infinite",
						"totalAllowances()": "2474",
						"totalClaims()": "2429"
					}
				},
				"methodIdentifiers": {
					"ClaimMoney(address,uint256)": "2d70db2f",
					"SendMoney()": "05737314",
					"beneficiaries(address)": "01567739",
					"contractBalance()": "8b7afe2e",
					"owner()": "8da5cb5b",
					"ownerWithdraw(address,uint256)": "d9c88e14",
					"totalAllowances()": "16a51305",
					"totalClaims()": "41c61383"
				}
			},
			"storageLayout": {
				"storage": [
					{
						"astId": 8,
						"contract": "MyProjectSharedWallet.sol:SharedWallet",
						"label": "owner",
						"offset": 0,
						"slot": "0",
						"type": "t_address"
					},
					{
						"astId": 13,
						"contract": "MyProjectSharedWallet.sol:SharedWallet",
						"label": "beneficiaries",
						"offset": 0,
						"slot": "1",
						"type": "t_mapping(t_address,t_struct(BeneficiaryDetails)6_storage)"
					},
					{
						"astId": 15,
						"contract": "MyProjectSharedWallet.sol:SharedWallet",
						"label": "totalAllowances",
						"offset": 0,
						"slot": "2",
						"type": "t_uint256"
					},
					{
						"astId": 17,
						"contract": "MyProjectSharedWallet.sol:SharedWallet",
						"label": "totalClaims",
						"offset": 0,
						"slot": "3",
						"type": "t_uint256"
					},
					{
						"astId": 19,
						"contract": "MyProjectSharedWallet.sol:SharedWallet",
						"label": "contractBalance",
						"offset": 0,
						"slot": "4",
						"type": "t_uint256"
					}
				],
				"types": {
					"t_address": {
						"encoding": "inplace",
						"label": "address",
						"numberOfBytes": "20"
					},
					"t_mapping(t_address,t_struct(BeneficiaryDetails)6_storage)": {
						"encoding": "mapping",
						"key": "t_address",
						"label": "mapping(address => struct SharedWallet.BeneficiaryDetails)",
						"numberOfBytes": "32",
						"value": "t_struct(BeneficiaryDetails)6_storage"
					},
					"t_struct(BeneficiaryDetails)6_storage": {
						"encoding": "inplace",
						"label": "struct SharedWallet.BeneficiaryDetails",
						"members": [
							{
								"astId": 3,
								"contract": "MyProjectSharedWallet.sol:SharedWallet",
								"label": "allowance",
								"offset": 0,
								"slot": "0",
								"type": "t_uint256"
							},
							{
								"astId": 5,
								"contract": "MyProjectSharedWallet.sol:SharedWallet",
								"label": "claimsMade",
								"offset": 0,
								"slot": "1",
								"type": "t_uint256"
							}
						],
						"numberOfBytes": "64"
					},
					"t_uint256": {
						"encoding": "inplace",
						"label": "uint256",
						"numberOfBytes": "32"
					}
				}
			},
			"userdoc": {
				"kind": "user",
				"methods": {},
				"version": 1
			}
		}
	}
}