{
	"MyProjectSharedWallet.sol": {
		"SharedWallet": {
			"abi": [
				{
					"inputs": [],
					"stateMutability": "nonpayable",
					"type": "constructor"
				},
				{
					"inputs": [
						{
							"internalType": "address",
							"name": "",
							"type": "address"
						}
					],
					"name": "Allowances",
					"outputs": [
						{
							"internalType": "uint256",
							"name": "",
							"type": "uint256"
						}
					],
					"stateMutability": "view",
					"type": "function"
				},
				{
					"inputs": [
						{
							"internalType": "uint256",
							"name": "_amount",
							"type": "uint256"
						}
					],
					"name": "ClaimMoney",
					"outputs": [],
					"stateMutability": "nonpayable",
					"type": "function"
				},
				{
					"inputs": [],
					"name": "SendMoney",
					"outputs": [],
					"stateMutability": "payable",
					"type": "function"
				},
				{
					"inputs": [
						{
							"internalType": "address",
							"name": "_beneficiary",
							"type": "address"
						},
						{
							"internalType": "uint256",
							"name": "_allowancePercentage",
							"type": "uint256"
						}
					],
					"name": "SetAllowance",
					"outputs": [],
					"stateMutability": "nonpayable",
					"type": "function"
				},
				{
					"inputs": [],
					"name": "owner",
					"outputs": [
						{
							"internalType": "address",
							"name": "",
							"type": "address"
						}
					],
					"stateMutability": "view",
					"type": "function"
				},
				{
					"inputs": [],
					"name": "totalAllowances",
					"outputs": [
						{
							"internalType": "uint256",
							"name": "",
							"type": "uint256"
						}
					],
					"stateMutability": "view",
					"type": "function"
				}
			],
			"devdoc": {
				"kind": "dev",
				"methods": {},
				"version": 1
			},
			"evm": {
				"assembly": "    /* \"MyProjectSharedWallet.sol\":156:1406  contract SharedWallet {... */\n  mstore(0x40, 0x80)\n    /* \"MyProjectSharedWallet.sol\":534:583  constructor() {... */\n  callvalue\n  dup1\n  iszero\n  tag_1\n  jumpi\n  0x00\n  dup1\n  revert\ntag_1:\n  pop\n    /* \"MyProjectSharedWallet.sol\":566:576  msg.sender */\n  caller\n    /* \"MyProjectSharedWallet.sol\":558:563  owner */\n  0x00\n  dup1\n    /* \"MyProjectSharedWallet.sol\":558:576  owner = msg.sender */\n  0x0100\n  exp\n  dup2\n  sload\n  dup2\n  0xffffffffffffffffffffffffffffffffffffffff\n  mul\n  not\n  and\n  swap1\n  dup4\n  0xffffffffffffffffffffffffffffffffffffffff\n  and\n  mul\n  or\n  swap1\n  sstore\n  pop\n    /* \"MyProjectSharedWallet.sol\":156:1406  contract SharedWallet {... */\n  dataSize(sub_0)\n  dup1\n  dataOffset(sub_0)\n  0x00\n  codecopy\n  0x00\n  return\nstop\n\nsub_0: assembly {\n        /* \"MyProjectSharedWallet.sol\":156:1406  contract SharedWallet {... */\n      mstore(0x40, 0x80)\n      jumpi(tag_1, lt(calldatasize, 0x04))\n      shr(0xe0, calldataload(0x00))\n      dup1\n      0x05737314\n      eq\n      tag_2\n      jumpi\n      dup1\n      0x16a51305\n      eq\n      tag_3\n      jumpi\n      dup1\n      0x3e7279a3\n      eq\n      tag_4\n      jumpi\n      dup1\n      0x45f3c405\n      eq\n      tag_5\n      jumpi\n      dup1\n      0x8da5cb5b\n      eq\n      tag_6\n      jumpi\n      dup1\n      0x8f8149bd\n      eq\n      tag_7\n      jumpi\n    tag_1:\n      0x00\n      dup1\n      revert\n        /* \"MyProjectSharedWallet.sol\":1298:1341  function SendMoney() public payable {... */\n    tag_2:\n      tag_8\n      tag_9\n      jump\t// in\n    tag_8:\n      stop\n        /* \"MyProjectSharedWallet.sol\":445:472  uint public totalAllowances */\n    tag_3:\n      callvalue\n      dup1\n      iszero\n      tag_10\n      jumpi\n      0x00\n      dup1\n      revert\n    tag_10:\n      pop\n      tag_11\n      tag_12\n      jump\t// in\n    tag_11:\n      mload(0x40)\n      tag_13\n      swap2\n      swap1\n      tag_14\n      jump\t// in\n    tag_13:\n      mload(0x40)\n      dup1\n      swap2\n      sub\n      swap1\n      return\n        /* \"MyProjectSharedWallet.sol\":780:1260  function SetAllowance(address _beneficiary, uint _allowancePercentage) public onlyOwner {... */\n    tag_4:\n      callvalue\n      dup1\n      iszero\n      tag_15\n      jumpi\n      0x00\n      dup1\n      revert\n    tag_15:\n      pop\n      tag_16\n      0x04\n      dup1\n      calldatasize\n      sub\n      dup2\n      add\n      swap1\n      tag_17\n      swap2\n      swap1\n      tag_18\n      jump\t// in\n    tag_17:\n      tag_19\n      jump\t// in\n    tag_16:\n      stop\n        /* \"MyProjectSharedWallet.sol\":1347:1404  function ClaimMoney(uint _amount) public {... */\n    tag_5:\n      callvalue\n      dup1\n      iszero\n      tag_20\n      jumpi\n      0x00\n      dup1\n      revert\n    tag_20:\n      pop\n      tag_21\n      0x04\n      dup1\n      calldatasize\n      sub\n      dup2\n      add\n      swap1\n      tag_22\n      swap2\n      swap1\n      tag_23\n      jump\t// in\n    tag_22:\n      tag_24\n      jump\t// in\n    tag_21:\n      stop\n        /* \"MyProjectSharedWallet.sol\":287:307  address public owner */\n    tag_6:\n      callvalue\n      dup1\n      iszero\n      tag_25\n      jumpi\n      0x00\n      dup1\n      revert\n    tag_25:\n      pop\n      tag_26\n      tag_27\n      jump\t// in\n    tag_26:\n      mload(0x40)\n      tag_28\n      swap2\n      swap1\n      tag_29\n      jump\t// in\n    tag_28:\n      mload(0x40)\n      dup1\n      swap2\n      sub\n      swap1\n      return\n        /* \"MyProjectSharedWallet.sol\":362:404  mapping(address => uint) public Allowances */\n    tag_7:\n      callvalue\n      dup1\n      iszero\n      tag_30\n      jumpi\n      0x00\n      dup1\n      revert\n    tag_30:\n      pop\n      tag_31\n      0x04\n      dup1\n      calldatasize\n      sub\n      dup2\n      add\n      swap1\n      tag_32\n      swap2\n      swap1\n      tag_33\n      jump\t// in\n    tag_32:\n      tag_34\n      jump\t// in\n    tag_31:\n      mload(0x40)\n      tag_35\n      swap2\n      swap1\n      tag_14\n      jump\t// in\n    tag_35:\n      mload(0x40)\n      dup1\n      swap2\n      sub\n      swap1\n      return\n        /* \"MyProjectSharedWallet.sol\":1298:1341  function SendMoney() public payable {... */\n    tag_9:\n      jump\t// out\n        /* \"MyProjectSharedWallet.sol\":445:472  uint public totalAllowances */\n    tag_12:\n      sload(0x02)\n      dup2\n      jump\t// out\n        /* \"MyProjectSharedWallet.sol\":780:1260  function SetAllowance(address _beneficiary, uint _allowancePercentage) public onlyOwner {... */\n    tag_19:\n        /* \"MyProjectSharedWallet.sol\":642:647  owner */\n      0x00\n      dup1\n      sload\n      swap1\n      0x0100\n      exp\n      swap1\n      div\n      0xffffffffffffffffffffffffffffffffffffffff\n      and\n        /* \"MyProjectSharedWallet.sol\":628:647  msg.sender == owner */\n      0xffffffffffffffffffffffffffffffffffffffff\n      and\n        /* \"MyProjectSharedWallet.sol\":628:638  msg.sender */\n      caller\n        /* \"MyProjectSharedWallet.sol\":628:647  msg.sender == owner */\n      0xffffffffffffffffffffffffffffffffffffffff\n      and\n      eq\n        /* \"MyProjectSharedWallet.sol\":620:701  require(msg.sender == owner, \"You are not allowed - only the owner can do this.\") */\n      tag_38\n      jumpi\n      mload(0x40)\n      0x08c379a000000000000000000000000000000000000000000000000000000000\n      dup2\n      mstore\n      0x04\n      add\n      tag_39\n      swap1\n      tag_40\n      jump\t// in\n    tag_39:\n      mload(0x40)\n      dup1\n      swap2\n      sub\n      swap1\n      revert\n    tag_38:\n        /* \"MyProjectSharedWallet.sol\":902:907  owner */\n      0x00\n      dup1\n      sload\n      swap1\n      0x0100\n      exp\n      swap1\n      div\n      0xffffffffffffffffffffffffffffffffffffffff\n      and\n        /* \"MyProjectSharedWallet.sol\":886:907  _beneficiary != owner */\n      0xffffffffffffffffffffffffffffffffffffffff\n      and\n        /* \"MyProjectSharedWallet.sol\":886:898  _beneficiary */\n      dup3\n        /* \"MyProjectSharedWallet.sol\":886:907  _beneficiary != owner */\n      0xffffffffffffffffffffffffffffffffffffffff\n      and\n      sub\n        /* \"MyProjectSharedWallet.sol\":878:954  require(_beneficiary != owner, \"An allowance is not required for the owner\") */\n      tag_42\n      jumpi\n      mload(0x40)\n      0x08c379a000000000000000000000000000000000000000000000000000000000\n      dup2\n      mstore\n      0x04\n      add\n      tag_43\n      swap1\n      tag_44\n      jump\t// in\n    tag_43:\n      mload(0x40)\n      dup1\n      swap2\n      sub\n      swap1\n      revert\n    tag_42:\n        /* \"MyProjectSharedWallet.sol\":1000:1001  0 */\n      0x00\n        /* \"MyProjectSharedWallet.sol\":972:982  Allowances */\n      0x01\n        /* \"MyProjectSharedWallet.sol\":972:996  Allowances[_beneficiary] */\n      0x00\n        /* \"MyProjectSharedWallet.sol\":983:995  _beneficiary */\n      dup5\n        /* \"MyProjectSharedWallet.sol\":972:996  Allowances[_beneficiary] */\n      0xffffffffffffffffffffffffffffffffffffffff\n      and\n      0xffffffffffffffffffffffffffffffffffffffff\n      and\n      dup2\n      mstore\n      0x20\n      add\n      swap1\n      dup2\n      mstore\n      0x20\n      add\n      0x00\n      keccak256\n      sload\n        /* \"MyProjectSharedWallet.sol\":972:1001  Allowances[_beneficiary] == 0 */\n      eq\n        /* \"MyProjectSharedWallet.sol\":964:1042  require(Allowances[_beneficiary] == 0, \"The address already has an allowance\") */\n      tag_45\n      jumpi\n      mload(0x40)\n      0x08c379a000000000000000000000000000000000000000000000000000000000\n      dup2\n      mstore\n      0x04\n      add\n      tag_46\n      swap1\n      tag_47\n      jump\t// in\n    tag_46:\n      mload(0x40)\n      dup1\n      swap2\n      sub\n      swap1\n      revert\n    tag_45:\n        /* \"MyProjectSharedWallet.sol\":1101:1104  100 */\n      0x64\n        /* \"MyProjectSharedWallet.sol\":1078:1098  _allowancePercentage */\n      dup2\n        /* \"MyProjectSharedWallet.sol\":1060:1075  totalAllowances */\n      sload(0x02)\n        /* \"MyProjectSharedWallet.sol\":1060:1098  totalAllowances + _allowancePercentage */\n      tag_48\n      swap2\n      swap1\n      tag_49\n      jump\t// in\n    tag_48:\n        /* \"MyProjectSharedWallet.sol\":1060:1104  totalAllowances + _allowancePercentage < 100 */\n      lt\n        /* \"MyProjectSharedWallet.sol\":1052:1147  require(totalAllowances + _allowancePercentage < 100,\"This would over-allocate the allowances\") */\n      tag_50\n      jumpi\n      mload(0x40)\n      0x08c379a000000000000000000000000000000000000000000000000000000000\n      dup2\n      mstore\n      0x04\n      add\n      tag_51\n      swap1\n      tag_52\n      jump\t// in\n    tag_51:\n      mload(0x40)\n      dup1\n      swap2\n      sub\n      swap1\n      revert\n    tag_50:\n        /* \"MyProjectSharedWallet.sol\":1184:1204  _allowancePercentage */\n      dup1\n        /* \"MyProjectSharedWallet.sol\":1157:1167  Allowances */\n      0x01\n        /* \"MyProjectSharedWallet.sol\":1157:1181  Allowances[_beneficiary] */\n      0x00\n        /* \"MyProjectSharedWallet.sol\":1168:1180  _beneficiary */\n      dup5\n        /* \"MyProjectSharedWallet.sol\":1157:1181  Allowances[_beneficiary] */\n      0xffffffffffffffffffffffffffffffffffffffff\n      and\n      0xffffffffffffffffffffffffffffffffffffffff\n      and\n      dup2\n      mstore\n      0x20\n      add\n      swap1\n      dup2\n      mstore\n      0x20\n      add\n      0x00\n      keccak256\n        /* \"MyProjectSharedWallet.sol\":1157:1204  Allowances[_beneficiary] = _allowancePercentage */\n      dup2\n      swap1\n      sstore\n      pop\n        /* \"MyProjectSharedWallet.sol\":1233:1253  _allowancePercentage */\n      dup1\n        /* \"MyProjectSharedWallet.sol\":1214:1229  totalAllowances */\n      0x02\n      0x00\n        /* \"MyProjectSharedWallet.sol\":1214:1253  totalAllowances += _allowancePercentage */\n      dup3\n      dup3\n      sload\n      tag_53\n      swap2\n      swap1\n      tag_49\n      jump\t// in\n    tag_53:\n      swap3\n      pop\n      pop\n      dup2\n      swap1\n      sstore\n      pop\n        /* \"MyProjectSharedWallet.sol\":780:1260  function SetAllowance(address _beneficiary, uint _allowancePercentage) public onlyOwner {... */\n      pop\n      pop\n      jump\t// out\n        /* \"MyProjectSharedWallet.sol\":1347:1404  function ClaimMoney(uint _amount) public {... */\n    tag_24:\n      pop\n      jump\t// out\n        /* \"MyProjectSharedWallet.sol\":287:307  address public owner */\n    tag_27:\n      0x00\n      dup1\n      sload\n      swap1\n      0x0100\n      exp\n      swap1\n      div\n      0xffffffffffffffffffffffffffffffffffffffff\n      and\n      dup2\n      jump\t// out\n        /* \"MyProjectSharedWallet.sol\":362:404  mapping(address => uint) public Allowances */\n    tag_34:\n      mstore(0x20, 0x01)\n      dup1\n      0x00\n      mstore\n      keccak256(0x00, 0x40)\n      0x00\n      swap2\n      pop\n      swap1\n      pop\n      sload\n      dup2\n      jump\t// out\n        /* \"#utility.yul\":7:84   */\n    tag_55:\n        /* \"#utility.yul\":44:51   */\n      0x00\n        /* \"#utility.yul\":73:78   */\n      dup2\n        /* \"#utility.yul\":62:78   */\n      swap1\n      pop\n        /* \"#utility.yul\":7:84   */\n      swap2\n      swap1\n      pop\n      jump\t// out\n        /* \"#utility.yul\":90:208   */\n    tag_56:\n        /* \"#utility.yul\":177:201   */\n      tag_80\n        /* \"#utility.yul\":195:200   */\n      dup2\n        /* \"#utility.yul\":177:201   */\n      tag_55\n      jump\t// in\n    tag_80:\n        /* \"#utility.yul\":172:175   */\n      dup3\n        /* \"#utility.yul\":165:202   */\n      mstore\n        /* \"#utility.yul\":90:208   */\n      pop\n      pop\n      jump\t// out\n        /* \"#utility.yul\":214:436   */\n    tag_14:\n        /* \"#utility.yul\":307:311   */\n      0x00\n        /* \"#utility.yul\":345:347   */\n      0x20\n        /* \"#utility.yul\":334:343   */\n      dup3\n        /* \"#utility.yul\":330:348   */\n      add\n        /* \"#utility.yul\":322:348   */\n      swap1\n      pop\n        /* \"#utility.yul\":358:429   */\n      tag_82\n        /* \"#utility.yul\":426:427   */\n      0x00\n        /* \"#utility.yul\":415:424   */\n      dup4\n        /* \"#utility.yul\":411:428   */\n      add\n        /* \"#utility.yul\":402:408   */\n      dup5\n        /* \"#utility.yul\":358:429   */\n      tag_56\n      jump\t// in\n    tag_82:\n        /* \"#utility.yul\":214:436   */\n      swap3\n      swap2\n      pop\n      pop\n      jump\t// out\n        /* \"#utility.yul\":523:640   */\n    tag_58:\n        /* \"#utility.yul\":632:633   */\n      0x00\n        /* \"#utility.yul\":629:630   */\n      dup1\n        /* \"#utility.yul\":622:634   */\n      revert\n        /* \"#utility.yul\":769:895   */\n    tag_60:\n        /* \"#utility.yul\":806:813   */\n      0x00\n        /* \"#utility.yul\":846:888   */\n      0xffffffffffffffffffffffffffffffffffffffff\n        /* \"#utility.yul\":839:844   */\n      dup3\n        /* \"#utility.yul\":835:889   */\n      and\n        /* \"#utility.yul\":824:889   */\n      swap1\n      pop\n        /* \"#utility.yul\":769:895   */\n      swap2\n      swap1\n      pop\n      jump\t// out\n        /* \"#utility.yul\":901:997   */\n    tag_61:\n        /* \"#utility.yul\":938:945   */\n      0x00\n        /* \"#utility.yul\":967:991   */\n      tag_88\n        /* \"#utility.yul\":985:990   */\n      dup3\n        /* \"#utility.yul\":967:991   */\n      tag_60\n      jump\t// in\n    tag_88:\n        /* \"#utility.yul\":956:991   */\n      swap1\n      pop\n        /* \"#utility.yul\":901:997   */\n      swap2\n      swap1\n      pop\n      jump\t// out\n        /* \"#utility.yul\":1003:1125   */\n    tag_62:\n        /* \"#utility.yul\":1076:1100   */\n      tag_90\n        /* \"#utility.yul\":1094:1099   */\n      dup2\n        /* \"#utility.yul\":1076:1100   */\n      tag_61\n      jump\t// in\n    tag_90:\n        /* \"#utility.yul\":1069:1074   */\n      dup2\n        /* \"#utility.yul\":1066:1101   */\n      eq\n        /* \"#utility.yul\":1056:1119   */\n      tag_91\n      jumpi\n        /* \"#utility.yul\":1115:1116   */\n      0x00\n        /* \"#utility.yul\":1112:1113   */\n      dup1\n        /* \"#utility.yul\":1105:1117   */\n      revert\n        /* \"#utility.yul\":1056:1119   */\n    tag_91:\n        /* \"#utility.yul\":1003:1125   */\n      pop\n      jump\t// out\n        /* \"#utility.yul\":1131:1270   */\n    tag_63:\n        /* \"#utility.yul\":1177:1182   */\n      0x00\n        /* \"#utility.yul\":1215:1221   */\n      dup2\n        /* \"#utility.yul\":1202:1222   */\n      calldataload\n        /* \"#utility.yul\":1193:1222   */\n      swap1\n      pop\n        /* \"#utility.yul\":1231:1264   */\n      tag_93\n        /* \"#utility.yul\":1258:1263   */\n      dup2\n        /* \"#utility.yul\":1231:1264   */\n      tag_62\n      jump\t// in\n    tag_93:\n        /* \"#utility.yul\":1131:1270   */\n      swap3\n      swap2\n      pop\n      pop\n      jump\t// out\n        /* \"#utility.yul\":1276:1398   */\n    tag_64:\n        /* \"#utility.yul\":1349:1373   */\n      tag_95\n        /* \"#utility.yul\":1367:1372   */\n      dup2\n        /* \"#utility.yul\":1349:1373   */\n      tag_55\n      jump\t// in\n    tag_95:\n        /* \"#utility.yul\":1342:1347   */\n      dup2\n        /* \"#utility.yul\":1339:1374   */\n      eq\n        /* \"#utility.yul\":1329:1392   */\n      tag_96\n      jumpi\n        /* \"#utility.yul\":1388:1389   */\n      0x00\n        /* \"#utility.yul\":1385:1386   */\n      dup1\n        /* \"#utility.yul\":1378:1390   */\n      revert\n        /* \"#utility.yul\":1329:1392   */\n    tag_96:\n        /* \"#utility.yul\":1276:1398   */\n      pop\n      jump\t// out\n        /* \"#utility.yul\":1404:1543   */\n    tag_65:\n        /* \"#utility.yul\":1450:1455   */\n      0x00\n        /* \"#utility.yul\":1488:1494   */\n      dup2\n        /* \"#utility.yul\":1475:1495   */\n      calldataload\n        /* \"#utility.yul\":1466:1495   */\n      swap1\n      pop\n        /* \"#utility.yul\":1504:1537   */\n      tag_98\n        /* \"#utility.yul\":1531:1536   */\n      dup2\n        /* \"#utility.yul\":1504:1537   */\n      tag_64\n      jump\t// in\n    tag_98:\n        /* \"#utility.yul\":1404:1543   */\n      swap3\n      swap2\n      pop\n      pop\n      jump\t// out\n        /* \"#utility.yul\":1549:2023   */\n    tag_18:\n        /* \"#utility.yul\":1617:1623   */\n      0x00\n        /* \"#utility.yul\":1625:1631   */\n      dup1\n        /* \"#utility.yul\":1674:1676   */\n      0x40\n        /* \"#utility.yul\":1662:1671   */\n      dup4\n        /* \"#utility.yul\":1653:1660   */\n      dup6\n        /* \"#utility.yul\":1649:1672   */\n      sub\n        /* \"#utility.yul\":1645:1677   */\n      slt\n        /* \"#utility.yul\":1642:1761   */\n      iszero\n      tag_100\n      jumpi\n        /* \"#utility.yul\":1680:1759   */\n      tag_101\n      tag_58\n      jump\t// in\n    tag_101:\n        /* \"#utility.yul\":1642:1761   */\n    tag_100:\n        /* \"#utility.yul\":1800:1801   */\n      0x00\n        /* \"#utility.yul\":1825:1878   */\n      tag_102\n        /* \"#utility.yul\":1870:1877   */\n      dup6\n        /* \"#utility.yul\":1861:1867   */\n      dup3\n        /* \"#utility.yul\":1850:1859   */\n      dup7\n        /* \"#utility.yul\":1846:1868   */\n      add\n        /* \"#utility.yul\":1825:1878   */\n      tag_63\n      jump\t// in\n    tag_102:\n        /* \"#utility.yul\":1815:1878   */\n      swap3\n      pop\n        /* \"#utility.yul\":1771:1888   */\n      pop\n        /* \"#utility.yul\":1927:1929   */\n      0x20\n        /* \"#utility.yul\":1953:2006   */\n      tag_103\n        /* \"#utility.yul\":1998:2005   */\n      dup6\n        /* \"#utility.yul\":1989:1995   */\n      dup3\n        /* \"#utility.yul\":1978:1987   */\n      dup7\n        /* \"#utility.yul\":1974:1996   */\n      add\n        /* \"#utility.yul\":1953:2006   */\n      tag_65\n      jump\t// in\n    tag_103:\n        /* \"#utility.yul\":1943:2006   */\n      swap2\n      pop\n        /* \"#utility.yul\":1898:2016   */\n      pop\n        /* \"#utility.yul\":1549:2023   */\n      swap3\n      pop\n      swap3\n      swap1\n      pop\n      jump\t// out\n        /* \"#utility.yul\":2029:2358   */\n    tag_23:\n        /* \"#utility.yul\":2088:2094   */\n      0x00\n        /* \"#utility.yul\":2137:2139   */\n      0x20\n        /* \"#utility.yul\":2125:2134   */\n      dup3\n        /* \"#utility.yul\":2116:2123   */\n      dup5\n        /* \"#utility.yul\":2112:2135   */\n      sub\n        /* \"#utility.yul\":2108:2140   */\n      slt\n        /* \"#utility.yul\":2105:2224   */\n      iszero\n      tag_105\n      jumpi\n        /* \"#utility.yul\":2143:2222   */\n      tag_106\n      tag_58\n      jump\t// in\n    tag_106:\n        /* \"#utility.yul\":2105:2224   */\n    tag_105:\n        /* \"#utility.yul\":2263:2264   */\n      0x00\n        /* \"#utility.yul\":2288:2341   */\n      tag_107\n        /* \"#utility.yul\":2333:2340   */\n      dup5\n        /* \"#utility.yul\":2324:2330   */\n      dup3\n        /* \"#utility.yul\":2313:2322   */\n      dup6\n        /* \"#utility.yul\":2309:2331   */\n      add\n        /* \"#utility.yul\":2288:2341   */\n      tag_65\n      jump\t// in\n    tag_107:\n        /* \"#utility.yul\":2278:2341   */\n      swap2\n      pop\n        /* \"#utility.yul\":2234:2351   */\n      pop\n        /* \"#utility.yul\":2029:2358   */\n      swap3\n      swap2\n      pop\n      pop\n      jump\t// out\n        /* \"#utility.yul\":2364:2482   */\n    tag_66:\n        /* \"#utility.yul\":2451:2475   */\n      tag_109\n        /* \"#utility.yul\":2469:2474   */\n      dup2\n        /* \"#utility.yul\":2451:2475   */\n      tag_61\n      jump\t// in\n    tag_109:\n        /* \"#utility.yul\":2446:2449   */\n      dup3\n        /* \"#utility.yul\":2439:2476   */\n      mstore\n        /* \"#utility.yul\":2364:2482   */\n      pop\n      pop\n      jump\t// out\n        /* \"#utility.yul\":2488:2710   */\n    tag_29:\n        /* \"#utility.yul\":2581:2585   */\n      0x00\n        /* \"#utility.yul\":2619:2621   */\n      0x20\n        /* \"#utility.yul\":2608:2617   */\n      dup3\n        /* \"#utility.yul\":2604:2622   */\n      add\n        /* \"#utility.yul\":2596:2622   */\n      swap1\n      pop\n        /* \"#utility.yul\":2632:2703   */\n      tag_111\n        /* \"#utility.yul\":2700:2701   */\n      0x00\n        /* \"#utility.yul\":2689:2698   */\n      dup4\n        /* \"#utility.yul\":2685:2702   */\n      add\n        /* \"#utility.yul\":2676:2682   */\n      dup5\n        /* \"#utility.yul\":2632:2703   */\n      tag_66\n      jump\t// in\n    tag_111:\n        /* \"#utility.yul\":2488:2710   */\n      swap3\n      swap2\n      pop\n      pop\n      jump\t// out\n        /* \"#utility.yul\":2716:3045   */\n    tag_33:\n        /* \"#utility.yul\":2775:2781   */\n      0x00\n        /* \"#utility.yul\":2824:2826   */\n      0x20\n        /* \"#utility.yul\":2812:2821   */\n      dup3\n        /* \"#utility.yul\":2803:2810   */\n      dup5\n        /* \"#utility.yul\":2799:2822   */\n      sub\n        /* \"#utility.yul\":2795:2827   */\n      slt\n        /* \"#utility.yul\":2792:2911   */\n      iszero\n      tag_113\n      jumpi\n        /* \"#utility.yul\":2830:2909   */\n      tag_114\n      tag_58\n      jump\t// in\n    tag_114:\n        /* \"#utility.yul\":2792:2911   */\n    tag_113:\n        /* \"#utility.yul\":2950:2951   */\n      0x00\n        /* \"#utility.yul\":2975:3028   */\n      tag_115\n        /* \"#utility.yul\":3020:3027   */\n      dup5\n        /* \"#utility.yul\":3011:3017   */\n      dup3\n        /* \"#utility.yul\":3000:3009   */\n      dup6\n        /* \"#utility.yul\":2996:3018   */\n      add\n        /* \"#utility.yul\":2975:3028   */\n      tag_63\n      jump\t// in\n    tag_115:\n        /* \"#utility.yul\":2965:3028   */\n      swap2\n      pop\n        /* \"#utility.yul\":2921:3038   */\n      pop\n        /* \"#utility.yul\":2716:3045   */\n      swap3\n      swap2\n      pop\n      pop\n      jump\t// out\n        /* \"#utility.yul\":3051:3220   */\n    tag_67:\n        /* \"#utility.yul\":3135:3146   */\n      0x00\n        /* \"#utility.yul\":3169:3175   */\n      dup3\n        /* \"#utility.yul\":3164:3167   */\n      dup3\n        /* \"#utility.yul\":3157:3176   */\n      mstore\n        /* \"#utility.yul\":3209:3213   */\n      0x20\n        /* \"#utility.yul\":3204:3207   */\n      dup3\n        /* \"#utility.yul\":3200:3214   */\n      add\n        /* \"#utility.yul\":3185:3214   */\n      swap1\n      pop\n        /* \"#utility.yul\":3051:3220   */\n      swap3\n      swap2\n      pop\n      pop\n      jump\t// out\n        /* \"#utility.yul\":3226:3462   */\n    tag_68:\n        /* \"#utility.yul\":3366:3400   */\n      0x596f7520617265206e6f7420616c6c6f776564202d206f6e6c7920746865206f\n        /* \"#utility.yul\":3362:3363   */\n      0x00\n        /* \"#utility.yul\":3354:3360   */\n      dup3\n        /* \"#utility.yul\":3350:3364   */\n      add\n        /* \"#utility.yul\":3343:3401   */\n      mstore\n        /* \"#utility.yul\":3435:3454   */\n      0x776e65722063616e20646f20746869732e000000000000000000000000000000\n        /* \"#utility.yul\":3430:3432   */\n      0x20\n        /* \"#utility.yul\":3422:3428   */\n      dup3\n        /* \"#utility.yul\":3418:3433   */\n      add\n        /* \"#utility.yul\":3411:3455   */\n      mstore\n        /* \"#utility.yul\":3226:3462   */\n      pop\n      jump\t// out\n        /* \"#utility.yul\":3468:3834   */\n    tag_69:\n        /* \"#utility.yul\":3610:3613   */\n      0x00\n        /* \"#utility.yul\":3631:3698   */\n      tag_119\n        /* \"#utility.yul\":3695:3697   */\n      0x31\n        /* \"#utility.yul\":3690:3693   */\n      dup4\n        /* \"#utility.yul\":3631:3698   */\n      tag_67\n      jump\t// in\n    tag_119:\n        /* \"#utility.yul\":3624:3698   */\n      swap2\n      pop\n        /* \"#utility.yul\":3707:3800   */\n      tag_120\n        /* \"#utility.yul\":3796:3799   */\n      dup3\n        /* \"#utility.yul\":3707:3800   */\n      tag_68\n      jump\t// in\n    tag_120:\n        /* \"#utility.yul\":3825:3827   */\n      0x40\n        /* \"#utility.yul\":3820:3823   */\n      dup3\n        /* \"#utility.yul\":3816:3828   */\n      add\n        /* \"#utility.yul\":3809:3828   */\n      swap1\n      pop\n        /* \"#utility.yul\":3468:3834   */\n      swap2\n      swap1\n      pop\n      jump\t// out\n        /* \"#utility.yul\":3840:4259   */\n    tag_40:\n        /* \"#utility.yul\":4006:4010   */\n      0x00\n        /* \"#utility.yul\":4044:4046   */\n      0x20\n        /* \"#utility.yul\":4033:4042   */\n      dup3\n        /* \"#utility.yul\":4029:4047   */\n      add\n        /* \"#utility.yul\":4021:4047   */\n      swap1\n      pop\n        /* \"#utility.yul\":4093:4102   */\n      dup2\n        /* \"#utility.yul\":4087:4091   */\n      dup2\n        /* \"#utility.yul\":4083:4103   */\n      sub\n        /* \"#utility.yul\":4079:4080   */\n      0x00\n        /* \"#utility.yul\":4068:4077   */\n      dup4\n        /* \"#utility.yul\":4064:4081   */\n      add\n        /* \"#utility.yul\":4057:4104   */\n      mstore\n        /* \"#utility.yul\":4121:4252   */\n      tag_122\n        /* \"#utility.yul\":4247:4251   */\n      dup2\n        /* \"#utility.yul\":4121:4252   */\n      tag_69\n      jump\t// in\n    tag_122:\n        /* \"#utility.yul\":4113:4252   */\n      swap1\n      pop\n        /* \"#utility.yul\":3840:4259   */\n      swap2\n      swap1\n      pop\n      jump\t// out\n        /* \"#utility.yul\":4265:4494   */\n    tag_70:\n        /* \"#utility.yul\":4405:4439   */\n      0x416e20616c6c6f77616e6365206973206e6f7420726571756972656420666f72\n        /* \"#utility.yul\":4401:4402   */\n      0x00\n        /* \"#utility.yul\":4393:4399   */\n      dup3\n        /* \"#utility.yul\":4389:4403   */\n      add\n        /* \"#utility.yul\":4382:4440   */\n      mstore\n        /* \"#utility.yul\":4474:4486   */\n      0x20746865206f776e657200000000000000000000000000000000000000000000\n        /* \"#utility.yul\":4469:4471   */\n      0x20\n        /* \"#utility.yul\":4461:4467   */\n      dup3\n        /* \"#utility.yul\":4457:4472   */\n      add\n        /* \"#utility.yul\":4450:4487   */\n      mstore\n        /* \"#utility.yul\":4265:4494   */\n      pop\n      jump\t// out\n        /* \"#utility.yul\":4500:4866   */\n    tag_71:\n        /* \"#utility.yul\":4642:4645   */\n      0x00\n        /* \"#utility.yul\":4663:4730   */\n      tag_125\n        /* \"#utility.yul\":4727:4729   */\n      0x2a\n        /* \"#utility.yul\":4722:4725   */\n      dup4\n        /* \"#utility.yul\":4663:4730   */\n      tag_67\n      jump\t// in\n    tag_125:\n        /* \"#utility.yul\":4656:4730   */\n      swap2\n      pop\n        /* \"#utility.yul\":4739:4832   */\n      tag_126\n        /* \"#utility.yul\":4828:4831   */\n      dup3\n        /* \"#utility.yul\":4739:4832   */\n      tag_70\n      jump\t// in\n    tag_126:\n        /* \"#utility.yul\":4857:4859   */\n      0x40\n        /* \"#utility.yul\":4852:4855   */\n      dup3\n        /* \"#utility.yul\":4848:4860   */\n      add\n        /* \"#utility.yul\":4841:4860   */\n      swap1\n      pop\n        /* \"#utility.yul\":4500:4866   */\n      swap2\n      swap1\n      pop\n      jump\t// out\n        /* \"#utility.yul\":4872:5291   */\n    tag_44:\n        /* \"#utility.yul\":5038:5042   */\n      0x00\n        /* \"#utility.yul\":5076:5078   */\n      0x20\n        /* \"#utility.yul\":5065:5074   */\n      dup3\n        /* \"#utility.yul\":5061:5079   */\n      add\n        /* \"#utility.yul\":5053:5079   */\n      swap1\n      pop\n        /* \"#utility.yul\":5125:5134   */\n      dup2\n        /* \"#utility.yul\":5119:5123   */\n      dup2\n        /* \"#utility.yul\":5115:5135   */\n      sub\n        /* \"#utility.yul\":5111:5112   */\n      0x00\n        /* \"#utility.yul\":5100:5109   */\n      dup4\n        /* \"#utility.yul\":5096:5113   */\n      add\n        /* \"#utility.yul\":5089:5136   */\n      mstore\n        /* \"#utility.yul\":5153:5284   */\n      tag_128\n        /* \"#utility.yul\":5279:5283   */\n      dup2\n        /* \"#utility.yul\":5153:5284   */\n      tag_71\n      jump\t// in\n    tag_128:\n        /* \"#utility.yul\":5145:5284   */\n      swap1\n      pop\n        /* \"#utility.yul\":4872:5291   */\n      swap2\n      swap1\n      pop\n      jump\t// out\n        /* \"#utility.yul\":5297:5520   */\n    tag_72:\n        /* \"#utility.yul\":5437:5471   */\n      0x546865206164647265737320616c72656164792068617320616e20616c6c6f77\n        /* \"#utility.yul\":5433:5434   */\n      0x00\n        /* \"#utility.yul\":5425:5431   */\n      dup3\n        /* \"#utility.yul\":5421:5435   */\n      add\n        /* \"#utility.yul\":5414:5472   */\n      mstore\n        /* \"#utility.yul\":5506:5512   */\n      0x616e636500000000000000000000000000000000000000000000000000000000\n        /* \"#utility.yul\":5501:5503   */\n      0x20\n        /* \"#utility.yul\":5493:5499   */\n      dup3\n        /* \"#utility.yul\":5489:5504   */\n      add\n        /* \"#utility.yul\":5482:5513   */\n      mstore\n        /* \"#utility.yul\":5297:5520   */\n      pop\n      jump\t// out\n        /* \"#utility.yul\":5526:5892   */\n    tag_73:\n        /* \"#utility.yul\":5668:5671   */\n      0x00\n        /* \"#utility.yul\":5689:5756   */\n      tag_131\n        /* \"#utility.yul\":5753:5755   */\n      0x24\n        /* \"#utility.yul\":5748:5751   */\n      dup4\n        /* \"#utility.yul\":5689:5756   */\n      tag_67\n      jump\t// in\n    tag_131:\n        /* \"#utility.yul\":5682:5756   */\n      swap2\n      pop\n        /* \"#utility.yul\":5765:5858   */\n      tag_132\n        /* \"#utility.yul\":5854:5857   */\n      dup3\n        /* \"#utility.yul\":5765:5858   */\n      tag_72\n      jump\t// in\n    tag_132:\n        /* \"#utility.yul\":5883:5885   */\n      0x40\n        /* \"#utility.yul\":5878:5881   */\n      dup3\n        /* \"#utility.yul\":5874:5886   */\n      add\n        /* \"#utility.yul\":5867:5886   */\n      swap1\n      pop\n        /* \"#utility.yul\":5526:5892   */\n      swap2\n      swap1\n      pop\n      jump\t// out\n        /* \"#utility.yul\":5898:6317   */\n    tag_47:\n        /* \"#utility.yul\":6064:6068   */\n      0x00\n        /* \"#utility.yul\":6102:6104   */\n      0x20\n        /* \"#utility.yul\":6091:6100   */\n      dup3\n        /* \"#utility.yul\":6087:6105   */\n      add\n        /* \"#utility.yul\":6079:6105   */\n      swap1\n      pop\n        /* \"#utility.yul\":6151:6160   */\n      dup2\n        /* \"#utility.yul\":6145:6149   */\n      dup2\n        /* \"#utility.yul\":6141:6161   */\n      sub\n        /* \"#utility.yul\":6137:6138   */\n      0x00\n        /* \"#utility.yul\":6126:6135   */\n      dup4\n        /* \"#utility.yul\":6122:6139   */\n      add\n        /* \"#utility.yul\":6115:6162   */\n      mstore\n        /* \"#utility.yul\":6179:6310   */\n      tag_134\n        /* \"#utility.yul\":6305:6309   */\n      dup2\n        /* \"#utility.yul\":6179:6310   */\n      tag_73\n      jump\t// in\n    tag_134:\n        /* \"#utility.yul\":6171:6310   */\n      swap1\n      pop\n        /* \"#utility.yul\":5898:6317   */\n      swap2\n      swap1\n      pop\n      jump\t// out\n        /* \"#utility.yul\":6323:6503   */\n    tag_74:\n        /* \"#utility.yul\":6371:6448   */\n      0x4e487b7100000000000000000000000000000000000000000000000000000000\n        /* \"#utility.yul\":6368:6369   */\n      0x00\n        /* \"#utility.yul\":6361:6449   */\n      mstore\n        /* \"#utility.yul\":6468:6472   */\n      0x11\n        /* \"#utility.yul\":6465:6466   */\n      0x04\n        /* \"#utility.yul\":6458:6473   */\n      mstore\n        /* \"#utility.yul\":6492:6496   */\n      0x24\n        /* \"#utility.yul\":6489:6490   */\n      0x00\n        /* \"#utility.yul\":6482:6497   */\n      revert\n        /* \"#utility.yul\":6509:6700   */\n    tag_49:\n        /* \"#utility.yul\":6549:6552   */\n      0x00\n        /* \"#utility.yul\":6568:6588   */\n      tag_137\n        /* \"#utility.yul\":6586:6587   */\n      dup3\n        /* \"#utility.yul\":6568:6588   */\n      tag_55\n      jump\t// in\n    tag_137:\n        /* \"#utility.yul\":6563:6588   */\n      swap2\n      pop\n        /* \"#utility.yul\":6602:6622   */\n      tag_138\n        /* \"#utility.yul\":6620:6621   */\n      dup4\n        /* \"#utility.yul\":6602:6622   */\n      tag_55\n      jump\t// in\n    tag_138:\n        /* \"#utility.yul\":6597:6622   */\n      swap3\n      pop\n        /* \"#utility.yul\":6645:6646   */\n      dup3\n        /* \"#utility.yul\":6642:6643   */\n      dup3\n        /* \"#utility.yul\":6638:6647   */\n      add\n        /* \"#utility.yul\":6631:6647   */\n      swap1\n      pop\n        /* \"#utility.yul\":6666:6669   */\n      dup1\n        /* \"#utility.yul\":6663:6664   */\n      dup3\n        /* \"#utility.yul\":6660:6670   */\n      gt\n        /* \"#utility.yul\":6657:6693   */\n      iszero\n      tag_139\n      jumpi\n        /* \"#utility.yul\":6673:6691   */\n      tag_140\n      tag_74\n      jump\t// in\n    tag_140:\n        /* \"#utility.yul\":6657:6693   */\n    tag_139:\n        /* \"#utility.yul\":6509:6700   */\n      swap3\n      swap2\n      pop\n      pop\n      jump\t// out\n        /* \"#utility.yul\":6706:6932   */\n    tag_75:\n        /* \"#utility.yul\":6846:6880   */\n      0x5468697320776f756c64206f7665722d616c6c6f636174652074686520616c6c\n        /* \"#utility.yul\":6842:6843   */\n      0x00\n        /* \"#utility.yul\":6834:6840   */\n      dup3\n        /* \"#utility.yul\":6830:6844   */\n      add\n        /* \"#utility.yul\":6823:6881   */\n      mstore\n        /* \"#utility.yul\":6915:6924   */\n      0x6f77616e63657300000000000000000000000000000000000000000000000000\n        /* \"#utility.yul\":6910:6912   */\n      0x20\n        /* \"#utility.yul\":6902:6908   */\n      dup3\n        /* \"#utility.yul\":6898:6913   */\n      add\n        /* \"#utility.yul\":6891:6925   */\n      mstore\n        /* \"#utility.yul\":6706:6932   */\n      pop\n      jump\t// out\n        /* \"#utility.yul\":6938:7304   */\n    tag_76:\n        /* \"#utility.yul\":7080:7083   */\n      0x00\n        /* \"#utility.yul\":7101:7168   */\n      tag_143\n        /* \"#utility.yul\":7165:7167   */\n      0x27\n        /* \"#utility.yul\":7160:7163   */\n      dup4\n        /* \"#utility.yul\":7101:7168   */\n      tag_67\n      jump\t// in\n    tag_143:\n        /* \"#utility.yul\":7094:7168   */\n      swap2\n      pop\n        /* \"#utility.yul\":7177:7270   */\n      tag_144\n        /* \"#utility.yul\":7266:7269   */\n      dup3\n        /* \"#utility.yul\":7177:7270   */\n      tag_75\n      jump\t// in\n    tag_144:\n        /* \"#utility.yul\":7295:7297   */\n      0x40\n        /* \"#utility.yul\":7290:7293   */\n      dup3\n        /* \"#utility.yul\":7286:7298   */\n      add\n        /* \"#utility.yul\":7279:7298   */\n      swap1\n      pop\n        /* \"#utility.yul\":6938:7304   */\n      swap2\n      swap1\n      pop\n      jump\t// out\n        /* \"#utility.yul\":7310:7729   */\n    tag_52:\n        /* \"#utility.yul\":7476:7480   */\n      0x00\n        /* \"#utility.yul\":7514:7516   */\n      0x20\n        /* \"#utility.yul\":7503:7512   */\n      dup3\n        /* \"#utility.yul\":7499:7517   */\n      add\n        /* \"#utility.yul\":7491:7517   */\n      swap1\n      pop\n        /* \"#utility.yul\":7563:7572   */\n      dup2\n        /* \"#utility.yul\":7557:7561   */\n      dup2\n        /* \"#utility.yul\":7553:7573   */\n      sub\n        /* \"#utility.yul\":7549:7550   */\n      0x00\n        /* \"#utility.yul\":7538:7547   */\n      dup4\n        /* \"#utility.yul\":7534:7551   */\n      add\n        /* \"#utility.yul\":7527:7574   */\n      mstore\n        /* \"#utility.yul\":7591:7722   */\n      tag_146\n        /* \"#utility.yul\":7717:7721   */\n      dup2\n        /* \"#utility.yul\":7591:7722   */\n      tag_76\n      jump\t// in\n    tag_146:\n        /* \"#utility.yul\":7583:7722   */\n      swap1\n      pop\n        /* \"#utility.yul\":7310:7729   */\n      swap2\n      swap1\n      pop\n      jump\t// out\n\n    auxdata: 0xa26469706673582212204e28b55e725778fd3df337c6fae63a4c8b0577c73d4f25202ea030e8dfddae5664736f6c63430008100033\n}\n",
				"bytecode": {
					"linkReferences": {},
					"object": "608060405234801561001057600080fd5b50336000806101000a81548173ffffffffffffffffffffffffffffffffffffffff021916908373ffffffffffffffffffffffffffffffffffffffff160217905550610858806100606000396000f3fe6080604052600436106100555760003560e01c8063057373141461005a57806316a51305146100645780633e7279a31461008f57806345f3c405146100b85780638da5cb5b146100e15780638f8149bd1461010c575b600080fd5b610062610149565b005b34801561007057600080fd5b5061007961014b565b60405161008691906103f8565b60405180910390f35b34801561009b57600080fd5b506100b660048036038101906100b191906104a2565b610151565b005b3480156100c457600080fd5b506100df60048036038101906100da91906104e2565b6103a0565b005b3480156100ed57600080fd5b506100f66103a3565b604051610103919061051e565b60405180910390f35b34801561011857600080fd5b50610133600480360381019061012e9190610539565b6103c7565b60405161014091906103f8565b60405180910390f35b565b60025481565b60008054906101000a900473ffffffffffffffffffffffffffffffffffffffff1673ffffffffffffffffffffffffffffffffffffffff163373ffffffffffffffffffffffffffffffffffffffff16146101df576040517f08c379a00000000000000000000000000000000000000000000000000000000081526004016101d6906105e9565b60405180910390fd5b60008054906101000a900473ffffffffffffffffffffffffffffffffffffffff1673ffffffffffffffffffffffffffffffffffffffff168273ffffffffffffffffffffffffffffffffffffffff160361026d576040517f08c379a00000000000000000000000000000000000000000000000000000000081526004016102649061067b565b60405180910390fd5b6000600160008473ffffffffffffffffffffffffffffffffffffffff1673ffffffffffffffffffffffffffffffffffffffff16815260200190815260200160002054146102ef576040517f08c379a00000000000000000000000000000000000000000000000000000000081526004016102e69061070d565b60405180910390fd5b6064816002546102ff919061075c565b1061033f576040517f08c379a000000000000000000000000000000000000000000000000000000000815260040161033690610802565b60405180910390fd5b80600160008473ffffffffffffffffffffffffffffffffffffffff1673ffffffffffffffffffffffffffffffffffffffff168152602001908152602001600020819055508060026000828254610395919061075c565b925050819055505050565b50565b60008054906101000a900473ffffffffffffffffffffffffffffffffffffffff1681565b60016020528060005260406000206000915090505481565b6000819050919050565b6103f2816103df565b82525050565b600060208201905061040d60008301846103e9565b92915050565b600080fd5b600073ffffffffffffffffffffffffffffffffffffffff82169050919050565b600061044382610418565b9050919050565b61045381610438565b811461045e57600080fd5b50565b6000813590506104708161044a565b92915050565b61047f816103df565b811461048a57600080fd5b50565b60008135905061049c81610476565b92915050565b600080604083850312156104b9576104b8610413565b5b60006104c785828601610461565b92505060206104d88582860161048d565b9150509250929050565b6000602082840312156104f8576104f7610413565b5b60006105068482850161048d565b91505092915050565b61051881610438565b82525050565b6000602082019050610533600083018461050f565b92915050565b60006020828403121561054f5761054e610413565b5b600061055d84828501610461565b91505092915050565b600082825260208201905092915050565b7f596f7520617265206e6f7420616c6c6f776564202d206f6e6c7920746865206f60008201527f776e65722063616e20646f20746869732e000000000000000000000000000000602082015250565b60006105d3603183610566565b91506105de82610577565b604082019050919050565b60006020820190508181036000830152610602816105c6565b9050919050565b7f416e20616c6c6f77616e6365206973206e6f7420726571756972656420666f7260008201527f20746865206f776e657200000000000000000000000000000000000000000000602082015250565b6000610665602a83610566565b915061067082610609565b604082019050919050565b6000602082019050818103600083015261069481610658565b9050919050565b7f546865206164647265737320616c72656164792068617320616e20616c6c6f7760008201527f616e636500000000000000000000000000000000000000000000000000000000602082015250565b60006106f7602483610566565b91506107028261069b565b604082019050919050565b60006020820190508181036000830152610726816106ea565b9050919050565b7f4e487b7100000000000000000000000000000000000000000000000000000000600052601160045260246000fd5b6000610767826103df565b9150610772836103df565b925082820190508082111561078a5761078961072d565b5b92915050565b7f5468697320776f756c64206f7665722d616c6c6f636174652074686520616c6c60008201527f6f77616e63657300000000000000000000000000000000000000000000000000602082015250565b60006107ec602783610566565b91506107f782610790565b604082019050919050565b6000602082019050818103600083015261081b816107df565b905091905056fea26469706673582212204e28b55e725778fd3df337c6fae63a4c8b0577c73d4f25202ea030e8dfddae5664736f6c63430008100033",
					"opcodes": "PUSH1 0x80 PUSH1 0x40 MSTORE CALLVALUE DUP1 ISZERO PUSH2 0x10 JUMPI PUSH1 0x0 DUP1 REVERT JUMPDEST POP CALLER PUSH1 0x0 DUP1 PUSH2 0x100 EXP DUP2 SLOAD DUP2 PUSH20 0xFFFFFFFFFFFFFFFFFFFFFFFFFFFFFFFFFFFFFFFF MUL NOT AND SWAP1 DUP4 PUSH20 0xFFFFFFFFFFFFFFFFFFFFFFFFFFFFFFFFFFFFFFFF AND MUL OR SWAP1 SSTORE POP PUSH2 0x858 DUP1 PUSH2 0x60 PUSH1 0x0 CODECOPY PUSH1 0x0 RETURN INVALID PUSH1 0x80 PUSH1 0x40 MSTORE PUSH1 0x4 CALLDATASIZE LT PUSH2 0x55 JUMPI PUSH1 0x0 CALLDATALOAD PUSH1 0xE0 SHR DUP1 PUSH4 0x5737314 EQ PUSH2 0x5A JUMPI DUP1 PUSH4 0x16A51305 EQ PUSH2 0x64 JUMPI DUP1 PUSH4 0x3E7279A3 EQ PUSH2 0x8F JUMPI DUP1 PUSH4 0x45F3C405 EQ PUSH2 0xB8 JUMPI DUP1 PUSH4 0x8DA5CB5B EQ PUSH2 0xE1 JUMPI DUP1 PUSH4 0x8F8149BD EQ PUSH2 0x10C JUMPI JUMPDEST PUSH1 0x0 DUP1 REVERT JUMPDEST PUSH2 0x62 PUSH2 0x149 JUMP JUMPDEST STOP JUMPDEST CALLVALUE DUP1 ISZERO PUSH2 0x70 JUMPI PUSH1 0x0 DUP1 REVERT JUMPDEST POP PUSH2 0x79 PUSH2 0x14B JUMP JUMPDEST PUSH1 0x40 MLOAD PUSH2 0x86 SWAP2 SWAP1 PUSH2 0x3F8 JUMP JUMPDEST PUSH1 0x40 MLOAD DUP1 SWAP2 SUB SWAP1 RETURN JUMPDEST CALLVALUE DUP1 ISZERO PUSH2 0x9B JUMPI PUSH1 0x0 DUP1 REVERT JUMPDEST POP PUSH2 0xB6 PUSH1 0x4 DUP1 CALLDATASIZE SUB DUP2 ADD SWAP1 PUSH2 0xB1 SWAP2 SWAP1 PUSH2 0x4A2 JUMP JUMPDEST PUSH2 0x151 JUMP JUMPDEST STOP JUMPDEST CALLVALUE DUP1 ISZERO PUSH2 0xC4 JUMPI PUSH1 0x0 DUP1 REVERT JUMPDEST POP PUSH2 0xDF PUSH1 0x4 DUP1 CALLDATASIZE SUB DUP2 ADD SWAP1 PUSH2 0xDA SWAP2 SWAP1 PUSH2 0x4E2 JUMP JUMPDEST PUSH2 0x3A0 JUMP JUMPDEST STOP JUMPDEST CALLVALUE DUP1 ISZERO PUSH2 0xED JUMPI PUSH1 0x0 DUP1 REVERT JUMPDEST POP PUSH2 0xF6 PUSH2 0x3A3 JUMP JUMPDEST PUSH1 0x40 MLOAD PUSH2 0x103 SWAP2 SWAP1 PUSH2 0x51E JUMP JUMPDEST PUSH1 0x40 MLOAD DUP1 SWAP2 SUB SWAP1 RETURN JUMPDEST CALLVALUE DUP1 ISZERO PUSH2 0x118 JUMPI PUSH1 0x0 DUP1 REVERT JUMPDEST POP PUSH2 0x133 PUSH1 0x4 DUP1 CALLDATASIZE SUB DUP2 ADD SWAP1 PUSH2 0x12E SWAP2 SWAP1 PUSH2 0x539 JUMP JUMPDEST PUSH2 0x3C7 JUMP JUMPDEST PUSH1 0x40 MLOAD PUSH2 0x140 SWAP2 SWAP1 PUSH2 0x3F8 JUMP JUMPDEST PUSH1 0x40 MLOAD DUP1 SWAP2 SUB SWAP1 RETURN JUMPDEST JUMP JUMPDEST PUSH1 0x2 SLOAD DUP2 JUMP JUMPDEST PUSH1 0x0 DUP1 SLOAD SWAP1 PUSH2 0x100 EXP SWAP1 DIV PUSH20 0xFFFFFFFFFFFFFFFFFFFFFFFFFFFFFFFFFFFFFFFF AND PUSH20 0xFFFFFFFFFFFFFFFFFFFFFFFFFFFFFFFFFFFFFFFF AND CALLER PUSH20 0xFFFFFFFFFFFFFFFFFFFFFFFFFFFFFFFFFFFFFFFF AND EQ PUSH2 0x1DF JUMPI PUSH1 0x40 MLOAD PUSH32 0x8C379A000000000000000000000000000000000000000000000000000000000 DUP2 MSTORE PUSH1 0x4 ADD PUSH2 0x1D6 SWAP1 PUSH2 0x5E9 JUMP JUMPDEST PUSH1 0x40 MLOAD DUP1 SWAP2 SUB SWAP1 REVERT JUMPDEST PUSH1 0x0 DUP1 SLOAD SWAP1 PUSH2 0x100 EXP SWAP1 DIV PUSH20 0xFFFFFFFFFFFFFFFFFFFFFFFFFFFFFFFFFFFFFFFF AND PUSH20 0xFFFFFFFFFFFFFFFFFFFFFFFFFFFFFFFFFFFFFFFF AND DUP3 PUSH20 0xFFFFFFFFFFFFFFFFFFFFFFFFFFFFFFFFFFFFFFFF AND SUB PUSH2 0x26D JUMPI PUSH1 0x40 MLOAD PUSH32 0x8C379A000000000000000000000000000000000000000000000000000000000 DUP2 MSTORE PUSH1 0x4 ADD PUSH2 0x264 SWAP1 PUSH2 0x67B JUMP JUMPDEST PUSH1 0x40 MLOAD DUP1 SWAP2 SUB SWAP1 REVERT JUMPDEST PUSH1 0x0 PUSH1 0x1 PUSH1 0x0 DUP5 PUSH20 0xFFFFFFFFFFFFFFFFFFFFFFFFFFFFFFFFFFFFFFFF AND PUSH20 0xFFFFFFFFFFFFFFFFFFFFFFFFFFFFFFFFFFFFFFFF AND DUP2 MSTORE PUSH1 0x20 ADD SWAP1 DUP2 MSTORE PUSH1 0x20 ADD PUSH1 0x0 KECCAK256 SLOAD EQ PUSH2 0x2EF JUMPI PUSH1 0x40 MLOAD PUSH32 0x8C379A000000000000000000000000000000000000000000000000000000000 DUP2 MSTORE PUSH1 0x4 ADD PUSH2 0x2E6 SWAP1 PUSH2 0x70D JUMP JUMPDEST PUSH1 0x40 MLOAD DUP1 SWAP2 SUB SWAP1 REVERT JUMPDEST PUSH1 0x64 DUP2 PUSH1 0x2 SLOAD PUSH2 0x2FF SWAP2 SWAP1 PUSH2 0x75C JUMP JUMPDEST LT PUSH2 0x33F JUMPI PUSH1 0x40 MLOAD PUSH32 0x8C379A000000000000000000000000000000000000000000000000000000000 DUP2 MSTORE PUSH1 0x4 ADD PUSH2 0x336 SWAP1 PUSH2 0x802 JUMP JUMPDEST PUSH1 0x40 MLOAD DUP1 SWAP2 SUB SWAP1 REVERT JUMPDEST DUP1 PUSH1 0x1 PUSH1 0x0 DUP5 PUSH20 0xFFFFFFFFFFFFFFFFFFFFFFFFFFFFFFFFFFFFFFFF AND PUSH20 0xFFFFFFFFFFFFFFFFFFFFFFFFFFFFFFFFFFFFFFFF AND DUP2 MSTORE PUSH1 0x20 ADD SWAP1 DUP2 MSTORE PUSH1 0x20 ADD PUSH1 0x0 KECCAK256 DUP2 SWAP1 SSTORE POP DUP1 PUSH1 0x2 PUSH1 0x0 DUP3 DUP3 SLOAD PUSH2 0x395 SWAP2 SWAP1 PUSH2 0x75C JUMP JUMPDEST SWAP3 POP POP DUP2 SWAP1 SSTORE POP POP POP JUMP JUMPDEST POP JUMP JUMPDEST PUSH1 0x0 DUP1 SLOAD SWAP1 PUSH2 0x100 EXP SWAP1 DIV PUSH20 0xFFFFFFFFFFFFFFFFFFFFFFFFFFFFFFFFFFFFFFFF AND DUP2 JUMP JUMPDEST PUSH1 0x1 PUSH1 0x20 MSTORE DUP1 PUSH1 0x0 MSTORE PUSH1 0x40 PUSH1 0x0 KECCAK256 PUSH1 0x0 SWAP2 POP SWAP1 POP SLOAD DUP2 JUMP JUMPDEST PUSH1 0x0 DUP2 SWAP1 POP SWAP2 SWAP1 POP JUMP JUMPDEST PUSH2 0x3F2 DUP2 PUSH2 0x3DF JUMP JUMPDEST DUP3 MSTORE POP POP JUMP JUMPDEST PUSH1 0x0 PUSH1 0x20 DUP3 ADD SWAP1 POP PUSH2 0x40D PUSH1 0x0 DUP4 ADD DUP5 PUSH2 0x3E9 JUMP JUMPDEST SWAP3 SWAP2 POP POP JUMP JUMPDEST PUSH1 0x0 DUP1 REVERT JUMPDEST PUSH1 0x0 PUSH20 0xFFFFFFFFFFFFFFFFFFFFFFFFFFFFFFFFFFFFFFFF DUP3 AND SWAP1 POP SWAP2 SWAP1 POP JUMP JUMPDEST PUSH1 0x0 PUSH2 0x443 DUP3 PUSH2 0x418 JUMP JUMPDEST SWAP1 POP SWAP2 SWAP1 POP JUMP JUMPDEST PUSH2 0x453 DUP2 PUSH2 0x438 JUMP JUMPDEST DUP2 EQ PUSH2 0x45E JUMPI PUSH1 0x0 DUP1 REVERT JUMPDEST POP JUMP JUMPDEST PUSH1 0x0 DUP2 CALLDATALOAD SWAP1 POP PUSH2 0x470 DUP2 PUSH2 0x44A JUMP JUMPDEST SWAP3 SWAP2 POP POP JUMP JUMPDEST PUSH2 0x47F DUP2 PUSH2 0x3DF JUMP JUMPDEST DUP2 EQ PUSH2 0x48A JUMPI PUSH1 0x0 DUP1 REVERT JUMPDEST POP JUMP JUMPDEST PUSH1 0x0 DUP2 CALLDATALOAD SWAP1 POP PUSH2 0x49C DUP2 PUSH2 0x476 JUMP JUMPDEST SWAP3 SWAP2 POP POP JUMP JUMPDEST PUSH1 0x0 DUP1 PUSH1 0x40 DUP4 DUP6 SUB SLT ISZERO PUSH2 0x4B9 JUMPI PUSH2 0x4B8 PUSH2 0x413 JUMP JUMPDEST JUMPDEST PUSH1 0x0 PUSH2 0x4C7 DUP6 DUP3 DUP7 ADD PUSH2 0x461 JUMP JUMPDEST SWAP3 POP POP PUSH1 0x20 PUSH2 0x4D8 DUP6 DUP3 DUP7 ADD PUSH2 0x48D JUMP JUMPDEST SWAP2 POP POP SWAP3 POP SWAP3 SWAP1 POP JUMP JUMPDEST PUSH1 0x0 PUSH1 0x20 DUP3 DUP5 SUB SLT ISZERO PUSH2 0x4F8 JUMPI PUSH2 0x4F7 PUSH2 0x413 JUMP JUMPDEST JUMPDEST PUSH1 0x0 PUSH2 0x506 DUP5 DUP3 DUP6 ADD PUSH2 0x48D JUMP JUMPDEST SWAP2 POP POP SWAP3 SWAP2 POP POP JUMP JUMPDEST PUSH2 0x518 DUP2 PUSH2 0x438 JUMP JUMPDEST DUP3 MSTORE POP POP JUMP JUMPDEST PUSH1 0x0 PUSH1 0x20 DUP3 ADD SWAP1 POP PUSH2 0x533 PUSH1 0x0 DUP4 ADD DUP5 PUSH2 0x50F JUMP JUMPDEST SWAP3 SWAP2 POP POP JUMP JUMPDEST PUSH1 0x0 PUSH1 0x20 DUP3 DUP5 SUB SLT ISZERO PUSH2 0x54F JUMPI PUSH2 0x54E PUSH2 0x413 JUMP JUMPDEST JUMPDEST PUSH1 0x0 PUSH2 0x55D DUP5 DUP3 DUP6 ADD PUSH2 0x461 JUMP JUMPDEST SWAP2 POP POP SWAP3 SWAP2 POP POP JUMP JUMPDEST PUSH1 0x0 DUP3 DUP3 MSTORE PUSH1 0x20 DUP3 ADD SWAP1 POP SWAP3 SWAP2 POP POP JUMP JUMPDEST PUSH32 0x596F7520617265206E6F7420616C6C6F776564202D206F6E6C7920746865206F PUSH1 0x0 DUP3 ADD MSTORE PUSH32 0x776E65722063616E20646F20746869732E000000000000000000000000000000 PUSH1 0x20 DUP3 ADD MSTORE POP JUMP JUMPDEST PUSH1 0x0 PUSH2 0x5D3 PUSH1 0x31 DUP4 PUSH2 0x566 JUMP JUMPDEST SWAP2 POP PUSH2 0x5DE DUP3 PUSH2 0x577 JUMP JUMPDEST PUSH1 0x40 DUP3 ADD SWAP1 POP SWAP2 SWAP1 POP JUMP JUMPDEST PUSH1 0x0 PUSH1 0x20 DUP3 ADD SWAP1 POP DUP2 DUP2 SUB PUSH1 0x0 DUP4 ADD MSTORE PUSH2 0x602 DUP2 PUSH2 0x5C6 JUMP JUMPDEST SWAP1 POP SWAP2 SWAP1 POP JUMP JUMPDEST PUSH32 0x416E20616C6C6F77616E6365206973206E6F7420726571756972656420666F72 PUSH1 0x0 DUP3 ADD MSTORE PUSH32 0x20746865206F776E657200000000000000000000000000000000000000000000 PUSH1 0x20 DUP3 ADD MSTORE POP JUMP JUMPDEST PUSH1 0x0 PUSH2 0x665 PUSH1 0x2A DUP4 PUSH2 0x566 JUMP JUMPDEST SWAP2 POP PUSH2 0x670 DUP3 PUSH2 0x609 JUMP JUMPDEST PUSH1 0x40 DUP3 ADD SWAP1 POP SWAP2 SWAP1 POP JUMP JUMPDEST PUSH1 0x0 PUSH1 0x20 DUP3 ADD SWAP1 POP DUP2 DUP2 SUB PUSH1 0x0 DUP4 ADD MSTORE PUSH2 0x694 DUP2 PUSH2 0x658 JUMP JUMPDEST SWAP1 POP SWAP2 SWAP1 POP JUMP JUMPDEST PUSH32 0x546865206164647265737320616C72656164792068617320616E20616C6C6F77 PUSH1 0x0 DUP3 ADD MSTORE PUSH32 0x616E636500000000000000000000000000000000000000000000000000000000 PUSH1 0x20 DUP3 ADD MSTORE POP JUMP JUMPDEST PUSH1 0x0 PUSH2 0x6F7 PUSH1 0x24 DUP4 PUSH2 0x566 JUMP JUMPDEST SWAP2 POP PUSH2 0x702 DUP3 PUSH2 0x69B JUMP JUMPDEST PUSH1 0x40 DUP3 ADD SWAP1 POP SWAP2 SWAP1 POP JUMP JUMPDEST PUSH1 0x0 PUSH1 0x20 DUP3 ADD SWAP1 POP DUP2 DUP2 SUB PUSH1 0x0 DUP4 ADD MSTORE PUSH2 0x726 DUP2 PUSH2 0x6EA JUMP JUMPDEST SWAP1 POP SWAP2 SWAP1 POP JUMP JUMPDEST PUSH32 0x4E487B7100000000000000000000000000000000000000000000000000000000 PUSH1 0x0 MSTORE PUSH1 0x11 PUSH1 0x4 MSTORE PUSH1 0x24 PUSH1 0x0 REVERT JUMPDEST PUSH1 0x0 PUSH2 0x767 DUP3 PUSH2 0x3DF JUMP JUMPDEST SWAP2 POP PUSH2 0x772 DUP4 PUSH2 0x3DF JUMP JUMPDEST SWAP3 POP DUP3 DUP3 ADD SWAP1 POP DUP1 DUP3 GT ISZERO PUSH2 0x78A JUMPI PUSH2 0x789 PUSH2 0x72D JUMP JUMPDEST JUMPDEST SWAP3 SWAP2 POP POP JUMP JUMPDEST PUSH32 0x5468697320776F756C64206F7665722D616C6C6F636174652074686520616C6C PUSH1 0x0 DUP3 ADD MSTORE PUSH32 0x6F77616E63657300000000000000000000000000000000000000000000000000 PUSH1 0x20 DUP3 ADD MSTORE POP JUMP JUMPDEST PUSH1 0x0 PUSH2 0x7EC PUSH1 0x27 DUP4 PUSH2 0x566 JUMP JUMPDEST SWAP2 POP PUSH2 0x7F7 DUP3 PUSH2 0x790 JUMP JUMPDEST PUSH1 0x40 DUP3 ADD SWAP1 POP SWAP2 SWAP1 POP JUMP JUMPDEST PUSH1 0x0 PUSH1 0x20 DUP3 ADD SWAP1 POP DUP2 DUP2 SUB PUSH1 0x0 DUP4 ADD MSTORE PUSH2 0x81B DUP2 PUSH2 0x7DF JUMP JUMPDEST SWAP1 POP SWAP2 SWAP1 POP JUMP INVALID LOG2 PUSH5 0x6970667358 0x22 SLT KECCAK256 0x4E 0x28 0xB5 0x5E PUSH19 0x5778FD3DF337C6FAE63A4C8B0577C73D4F2520 0x2E LOG0 ADDRESS 0xE8 0xDF 0xDD 0xAE JUMP PUSH5 0x736F6C6343 STOP ADDMOD LT STOP CALLER "
				},
				"gasEstimates": {
					"creation": {
						"codeDepositCost": "427200",
						"executionCost": "24727",
						"totalCost": "451927"
					},
					"external": {
						"Allowances(address)": "2902",
						"ClaimMoney(uint256)": "450",
						"SendMoney()": "98",
						"SetAllowance(address,uint256)": "infinite",
						"owner()": "2577",
						"totalAllowances()": "2429"
					}
				},
				"methodIdentifiers": {
					"Allowances(address)": "8f8149bd",
					"ClaimMoney(uint256)": "45f3c405",
					"SendMoney()": "05737314",
					"SetAllowance(address,uint256)": "3e7279a3",
					"owner()": "8da5cb5b",
					"totalAllowances()": "16a51305"
				}
			},
			"storageLayout": {
				"storage": [
					{
						"astId": 3,
						"contract": "MyProjectSharedWallet.sol:SharedWallet",
						"label": "owner",
						"offset": 0,
						"slot": "0",
						"type": "t_address"
					},
					{
						"astId": 7,
						"contract": "MyProjectSharedWallet.sol:SharedWallet",
						"label": "Allowances",
						"offset": 0,
						"slot": "1",
						"type": "t_mapping(t_address,t_uint256)"
					},
					{
						"astId": 9,
						"contract": "MyProjectSharedWallet.sol:SharedWallet",
						"label": "totalAllowances",
						"offset": 0,
						"slot": "2",
						"type": "t_uint256"
					}
				],
				"types": {
					"t_address": {
						"encoding": "inplace",
						"label": "address",
						"numberOfBytes": "20"
					},
					"t_mapping(t_address,t_uint256)": {
						"encoding": "mapping",
						"key": "t_address",
						"label": "mapping(address => uint256)",
						"numberOfBytes": "32",
						"value": "t_uint256"
					},
					"t_uint256": {
						"encoding": "inplace",
						"label": "uint256",
						"numberOfBytes": "32"
					}
				}
			},
			"userdoc": {
				"kind": "user",
				"methods": {},
				"version": 1
			}
		}
	}
}