{
	"MyLibraryExample.sol": {
		"NotUsingForExample": {
			"abi": [
				{
					"constant": false,
					"inputs": [
						{
							"internalType": "uint256",
							"name": "value",
							"type": "uint256"
						}
					],
					"name": "append",
					"outputs": [],
					"payable": false,
					"stateMutability": "nonpayable",
					"type": "function"
				},
				{
					"constant": false,
					"inputs": [
						{
							"internalType": "uint256",
							"name": "_old",
							"type": "uint256"
						},
						{
							"internalType": "uint256",
							"name": "_new",
							"type": "uint256"
						}
					],
					"name": "replace",
					"outputs": [],
					"payable": false,
					"stateMutability": "nonpayable",
					"type": "function"
				}
			],
			"devdoc": {
				"methods": {}
			},
			"evm": {
				"assembly": "    /* \"MyLibraryExample.sol\":452:763  contract NotUsingForExample {... */\n  mstore(0x40, 0x80)\n  callvalue\n    /* \"--CODEGEN--\":8:17   */\n  dup1\n    /* \"--CODEGEN--\":5:7   */\n  iszero\n  tag_1\n  jumpi\n    /* \"--CODEGEN--\":30:31   */\n  0x00\n    /* \"--CODEGEN--\":27:28   */\n  dup1\n    /* \"--CODEGEN--\":20:32   */\n  revert\n    /* \"--CODEGEN--\":5:7   */\ntag_1:\n    /* \"MyLibraryExample.sol\":452:763  contract NotUsingForExample {... */\n  pop\n  dataSize(sub_0)\n  dup1\n  dataOffset(sub_0)\n  0x00\n  codecopy\n  0x00\n  return\nstop\n\nsub_0: assembly {\n        /* \"MyLibraryExample.sol\":452:763  contract NotUsingForExample {... */\n      mstore(0x40, 0x80)\n      callvalue\n        /* \"--CODEGEN--\":8:17   */\n      dup1\n        /* \"--CODEGEN--\":5:7   */\n      iszero\n      tag_1\n      jumpi\n        /* \"--CODEGEN--\":30:31   */\n      0x00\n        /* \"--CODEGEN--\":27:28   */\n      dup1\n        /* \"--CODEGEN--\":20:32   */\n      revert\n        /* \"--CODEGEN--\":5:7   */\n    tag_1:\n        /* \"MyLibraryExample.sol\":452:763  contract NotUsingForExample {... */\n      pop\n      jumpi(tag_2, lt(calldatasize, 0x04))\n      shr(0xe0, calldataload(0x00))\n      dup1\n      0xe33b8707\n      eq\n      tag_3\n      jumpi\n      dup1\n      0xe81cf24c\n      eq\n      tag_4\n      jumpi\n    tag_2:\n      0x00\n      dup1\n      revert\n        /* \"MyLibraryExample.sol\":497:555  function append(uint value) public {... */\n    tag_3:\n      tag_5\n      0x04\n      dup1\n      calldatasize\n      sub\n        /* \"--CODEGEN--\":13:15   */\n      0x20\n        /* \"--CODEGEN--\":8:11   */\n      dup2\n        /* \"--CODEGEN--\":5:16   */\n      lt\n        /* \"--CODEGEN--\":2:4   */\n      iszero\n      tag_6\n      jumpi\n        /* \"--CODEGEN--\":29:30   */\n      0x00\n        /* \"--CODEGEN--\":26:27   */\n      dup1\n        /* \"--CODEGEN--\":19:31   */\n      revert\n        /* \"--CODEGEN--\":2:4   */\n    tag_6:\n        /* \"MyLibraryExample.sol\":497:555  function append(uint value) public {... */\n      dup2\n      add\n      swap1\n      dup1\n      dup1\n      calldataload\n      swap1\n      0x20\n      add\n      swap1\n      swap3\n      swap2\n      swap1\n      pop\n      pop\n      pop\n      tag_7\n      jump\t// in\n    tag_5:\n      stop\n        /* \"MyLibraryExample.sol\":557:761  function replace(uint _old, uint _new) public {... */\n    tag_4:\n      tag_8\n      0x04\n      dup1\n      calldatasize\n      sub\n        /* \"--CODEGEN--\":13:15   */\n      0x40\n        /* \"--CODEGEN--\":8:11   */\n      dup2\n        /* \"--CODEGEN--\":5:16   */\n      lt\n        /* \"--CODEGEN--\":2:4   */\n      iszero\n      tag_9\n      jumpi\n        /* \"--CODEGEN--\":29:30   */\n      0x00\n        /* \"--CODEGEN--\":26:27   */\n      dup1\n        /* \"--CODEGEN--\":19:31   */\n      revert\n        /* \"--CODEGEN--\":2:4   */\n    tag_9:\n        /* \"MyLibraryExample.sol\":557:761  function replace(uint _old, uint _new) public {... */\n      dup2\n      add\n      swap1\n      dup1\n      dup1\n      calldataload\n      swap1\n      0x20\n      add\n      swap1\n      swap3\n      swap2\n      swap1\n      dup1\n      calldataload\n      swap1\n      0x20\n      add\n      swap1\n      swap3\n      swap2\n      swap1\n      pop\n      pop\n      pop\n      tag_10\n      jump\t// in\n    tag_8:\n      stop\n        /* \"MyLibraryExample.sol\":497:555  function append(uint value) public {... */\n    tag_7:\n        /* \"MyLibraryExample.sol\":535:539  data */\n      0x00\n        /* \"MyLibraryExample.sol\":545:550  value */\n      dup2\n        /* \"MyLibraryExample.sol\":535:551  data.push(value) */\n      swap1\n      dup1\n        /* \"--CODEGEN--\":39:40   */\n      0x01\n        /* \"--CODEGEN--\":33:36   */\n      dup2\n        /* \"--CODEGEN--\":27:37   */\n      sload\n        /* \"--CODEGEN--\":23:41   */\n      add\n        /* \"--CODEGEN--\":57:67   */\n      dup1\n        /* \"--CODEGEN--\":52:55   */\n      dup3\n        /* \"--CODEGEN--\":45:68   */\n      sstore\n        /* \"--CODEGEN--\":79:89   */\n      dup1\n        /* \"--CODEGEN--\":72:89   */\n      swap2\n      pop\n        /* \"--CODEGEN--\":0:93   */\n      pop\n        /* \"MyLibraryExample.sol\":535:551  data.push(value) */\n      swap1\n      0x01\n      dup3\n      sub\n      swap1\n      0x00\n      mstore\n      keccak256(0x00, 0x20)\n      add\n      0x00\n      swap1\n      swap2\n      swap3\n      swap1\n      swap2\n      swap1\n      swap2\n      pop\n      sstore\n      pop\n        /* \"MyLibraryExample.sol\":497:555  function append(uint value) public {... */\n      pop\n      jump\t// out\n        /* \"MyLibraryExample.sol\":557:761  function replace(uint _old, uint _new) public {... */\n    tag_10:\n        /* \"MyLibraryExample.sol\":650:660  uint index */\n      0x00\n        /* \"MyLibraryExample.sol\":663:669  Search */\n      linkerSymbol(\"48d702c60cced3755afd4160402453c5daf40b050a26404095b56a0eefa755ff\")\n        /* \"MyLibraryExample.sol\":663:677  Search.indexOf */\n      0x24fef5c8\n        /* \"MyLibraryExample.sol\":678:682  data */\n      0x00\n        /* \"MyLibraryExample.sol\":683:687  _old */\n      dup6\n        /* \"MyLibraryExample.sol\":663:688  Search.indexOf(data,_old) */\n      mload(0x40)\n      dup4\n      0xffffffff\n      and\n      0xe0\n      shl\n      dup2\n      mstore\n      0x04\n      add\n      dup1\n      dup4\n      dup2\n      mstore\n      0x20\n      add\n      dup3\n      dup2\n      mstore\n      0x20\n      add\n      swap3\n      pop\n      pop\n      pop\n      0x20\n      mload(0x40)\n      dup1\n      dup4\n      sub\n      dup2\n      dup7\n      dup1\n      extcodesize\n      iszero\n        /* \"--CODEGEN--\":8:17   */\n      dup1\n        /* \"--CODEGEN--\":5:7   */\n      iszero\n      tag_14\n      jumpi\n        /* \"--CODEGEN--\":30:31   */\n      0x00\n        /* \"--CODEGEN--\":27:28   */\n      dup1\n        /* \"--CODEGEN--\":20:32   */\n      revert\n        /* \"--CODEGEN--\":5:7   */\n    tag_14:\n        /* \"MyLibraryExample.sol\":663:688  Search.indexOf(data,_old) */\n      pop\n      gas\n      delegatecall\n      iszero\n        /* \"--CODEGEN--\":8:17   */\n      dup1\n        /* \"--CODEGEN--\":5:7   */\n      iszero\n      tag_15\n      jumpi\n        /* \"--CODEGEN--\":45:61   */\n      returndatasize\n        /* \"--CODEGEN--\":42:43   */\n      0x00\n        /* \"--CODEGEN--\":39:40   */\n      dup1\n        /* \"--CODEGEN--\":24:62   */\n      returndatacopy\n        /* \"--CODEGEN--\":77:93   */\n      returndatasize\n        /* \"--CODEGEN--\":74:75   */\n      0x00\n        /* \"--CODEGEN--\":67:94   */\n      revert\n        /* \"--CODEGEN--\":5:7   */\n    tag_15:\n        /* \"MyLibraryExample.sol\":663:688  Search.indexOf(data,_old) */\n      pop\n      pop\n      pop\n      pop\n      mload(0x40)\n      returndatasize\n        /* \"--CODEGEN--\":13:15   */\n      0x20\n        /* \"--CODEGEN--\":8:11   */\n      dup2\n        /* \"--CODEGEN--\":5:16   */\n      lt\n        /* \"--CODEGEN--\":2:4   */\n      iszero\n      tag_16\n      jumpi\n        /* \"--CODEGEN--\":29:30   */\n      0x00\n        /* \"--CODEGEN--\":26:27   */\n      dup1\n        /* \"--CODEGEN--\":19:31   */\n      revert\n        /* \"--CODEGEN--\":2:4   */\n    tag_16:\n        /* \"MyLibraryExample.sol\":663:688  Search.indexOf(data,_old) */\n      dup2\n      add\n      swap1\n      dup1\n      dup1\n      mload\n      swap1\n      0x20\n      add\n      swap1\n      swap3\n      swap2\n      swap1\n      pop\n      pop\n      pop\n        /* \"MyLibraryExample.sol\":650:688  uint index = Search.indexOf(data,_old) */\n      swap1\n      pop\n        /* \"MyLibraryExample.sol\":709:711  -1 */\n      0xffffffffffffffffffffffffffffffffffffffffffffffffffffffffffffffff\n        /* \"MyLibraryExample.sol\":695:700  index */\n      dup2\n        /* \"MyLibraryExample.sol\":695:712  index == uint(-1) */\n      eq\n        /* \"MyLibraryExample.sol\":691:757  if (index == uint(-1))... */\n      iszero\n      tag_17\n      jumpi\n        /* \"MyLibraryExample.sol\":715:719  data */\n      0x00\n        /* \"MyLibraryExample.sol\":725:729  _new */\n      dup3\n        /* \"MyLibraryExample.sol\":715:730  data.push(_new) */\n      swap1\n      dup1\n        /* \"--CODEGEN--\":39:40   */\n      0x01\n        /* \"--CODEGEN--\":33:36   */\n      dup2\n        /* \"--CODEGEN--\":27:37   */\n      sload\n        /* \"--CODEGEN--\":23:41   */\n      add\n        /* \"--CODEGEN--\":57:67   */\n      dup1\n        /* \"--CODEGEN--\":52:55   */\n      dup3\n        /* \"--CODEGEN--\":45:68   */\n      sstore\n        /* \"--CODEGEN--\":79:89   */\n      dup1\n        /* \"--CODEGEN--\":72:89   */\n      swap2\n      pop\n        /* \"--CODEGEN--\":0:93   */\n      pop\n        /* \"MyLibraryExample.sol\":715:730  data.push(_new) */\n      swap1\n      0x01\n      dup3\n      sub\n      swap1\n      0x00\n      mstore\n      keccak256(0x00, 0x20)\n      add\n      0x00\n      swap1\n      swap2\n      swap3\n      swap1\n      swap2\n      swap1\n      swap2\n      pop\n      sstore\n      pop\n        /* \"MyLibraryExample.sol\":691:757  if (index == uint(-1))... */\n      jump(tag_19)\n    tag_17:\n        /* \"MyLibraryExample.sol\":753:757  _new */\n      dup2\n        /* \"MyLibraryExample.sol\":739:743  data */\n      0x00\n        /* \"MyLibraryExample.sol\":744:749  index */\n      dup3\n        /* \"MyLibraryExample.sol\":739:750  data[index] */\n      dup2\n      sload\n      dup2\n      lt\n      tag_20\n      jumpi\n      invalid\n    tag_20:\n      swap1\n      0x00\n      mstore\n      keccak256(0x00, 0x20)\n      add\n        /* \"MyLibraryExample.sol\":739:757  data[index] = _new */\n      dup2\n      swap1\n      sstore\n      pop\n        /* \"MyLibraryExample.sol\":691:757  if (index == uint(-1))... */\n    tag_19:\n        /* \"MyLibraryExample.sol\":557:761  function replace(uint _old, uint _new) public {... */\n      pop\n      pop\n      pop\n      jump\t// out\n\n    auxdata: 0xa265627a7a72315820adf363fdd4d27d48a8974a863402ba297db363e473482f53e1faa5990f53e1fb64736f6c63430005110032\n}\n",
				"bytecode": {
					"linkReferences": {
						"MyLibraryExample.sol": {
							"Search": [
								{
									"length": 20,
									"start": 244
								}
							]
						}
					},
					"object": "608060405234801561001057600080fd5b50610217806100206000396000f3fe608060405234801561001057600080fd5b50600436106100365760003560e01c8063e33b87071461003b578063e81cf24c14610069575b600080fd5b6100676004803603602081101561005157600080fd5b81019080803590602001909291905050506100a1565b005b61009f6004803603604081101561007f57600080fd5b8101908080359060200190929190803590602001909291905050506100d0565b005b600081908060018154018082558091505090600182039060005260206000200160009091929091909150555050565b600073__$48d702c60cced3755afd4160402453c5da$__6324fef5c86000856040518363ffffffff1660e01b8152600401808381526020018281526020019250505060206040518083038186803b15801561012a57600080fd5b505af415801561013e573d6000803e3d6000fd5b505050506040513d602081101561015457600080fd5b810190808051906020019092919050505090507fffffffffffffffffffffffffffffffffffffffffffffffffffffffffffffffff8114156101c05760008290806001815401808255809150509060018203906000526020600020016000909192909190915055506101dd565b81600082815481106101ce57fe5b90600052602060002001819055505b50505056fea265627a7a72315820adf363fdd4d27d48a8974a863402ba297db363e473482f53e1faa5990f53e1fb64736f6c63430005110032",
					"opcodes": "PUSH1 0x80 PUSH1 0x40 MSTORE CALLVALUE DUP1 ISZERO PUSH2 0x10 JUMPI PUSH1 0x0 DUP1 REVERT JUMPDEST POP PUSH2 0x217 DUP1 PUSH2 0x20 PUSH1 0x0 CODECOPY PUSH1 0x0 RETURN INVALID PUSH1 0x80 PUSH1 0x40 MSTORE CALLVALUE DUP1 ISZERO PUSH2 0x10 JUMPI PUSH1 0x0 DUP1 REVERT JUMPDEST POP PUSH1 0x4 CALLDATASIZE LT PUSH2 0x36 JUMPI PUSH1 0x0 CALLDATALOAD PUSH1 0xE0 SHR DUP1 PUSH4 0xE33B8707 EQ PUSH2 0x3B JUMPI DUP1 PUSH4 0xE81CF24C EQ PUSH2 0x69 JUMPI JUMPDEST PUSH1 0x0 DUP1 REVERT JUMPDEST PUSH2 0x67 PUSH1 0x4 DUP1 CALLDATASIZE SUB PUSH1 0x20 DUP2 LT ISZERO PUSH2 0x51 JUMPI PUSH1 0x0 DUP1 REVERT JUMPDEST DUP2 ADD SWAP1 DUP1 DUP1 CALLDATALOAD SWAP1 PUSH1 0x20 ADD SWAP1 SWAP3 SWAP2 SWAP1 POP POP POP PUSH2 0xA1 JUMP JUMPDEST STOP JUMPDEST PUSH2 0x9F PUSH1 0x4 DUP1 CALLDATASIZE SUB PUSH1 0x40 DUP2 LT ISZERO PUSH2 0x7F JUMPI PUSH1 0x0 DUP1 REVERT JUMPDEST DUP2 ADD SWAP1 DUP1 DUP1 CALLDATALOAD SWAP1 PUSH1 0x20 ADD SWAP1 SWAP3 SWAP2 SWAP1 DUP1 CALLDATALOAD SWAP1 PUSH1 0x20 ADD SWAP1 SWAP3 SWAP2 SWAP1 POP POP POP PUSH2 0xD0 JUMP JUMPDEST STOP JUMPDEST PUSH1 0x0 DUP2 SWAP1 DUP1 PUSH1 0x1 DUP2 SLOAD ADD DUP1 DUP3 SSTORE DUP1 SWAP2 POP POP SWAP1 PUSH1 0x1 DUP3 SUB SWAP1 PUSH1 0x0 MSTORE PUSH1 0x20 PUSH1 0x0 KECCAK256 ADD PUSH1 0x0 SWAP1 SWAP2 SWAP3 SWAP1 SWAP2 SWAP1 SWAP2 POP SSTORE POP POP JUMP JUMPDEST PUSH1 0x0 PUSH20 0x0 PUSH4 0x24FEF5C8 PUSH1 0x0 DUP6 PUSH1 0x40 MLOAD DUP4 PUSH4 0xFFFFFFFF AND PUSH1 0xE0 SHL DUP2 MSTORE PUSH1 0x4 ADD DUP1 DUP4 DUP2 MSTORE PUSH1 0x20 ADD DUP3 DUP2 MSTORE PUSH1 0x20 ADD SWAP3 POP POP POP PUSH1 0x20 PUSH1 0x40 MLOAD DUP1 DUP4 SUB DUP2 DUP7 DUP1 EXTCODESIZE ISZERO DUP1 ISZERO PUSH2 0x12A JUMPI PUSH1 0x0 DUP1 REVERT JUMPDEST POP GAS DELEGATECALL ISZERO DUP1 ISZERO PUSH2 0x13E JUMPI RETURNDATASIZE PUSH1 0x0 DUP1 RETURNDATACOPY RETURNDATASIZE PUSH1 0x0 REVERT JUMPDEST POP POP POP POP PUSH1 0x40 MLOAD RETURNDATASIZE PUSH1 0x20 DUP2 LT ISZERO PUSH2 0x154 JUMPI PUSH1 0x0 DUP1 REVERT JUMPDEST DUP2 ADD SWAP1 DUP1 DUP1 MLOAD SWAP1 PUSH1 0x20 ADD SWAP1 SWAP3 SWAP2 SWAP1 POP POP POP SWAP1 POP PUSH32 0xFFFFFFFFFFFFFFFFFFFFFFFFFFFFFFFFFFFFFFFFFFFFFFFFFFFFFFFFFFFFFFFF DUP2 EQ ISZERO PUSH2 0x1C0 JUMPI PUSH1 0x0 DUP3 SWAP1 DUP1 PUSH1 0x1 DUP2 SLOAD ADD DUP1 DUP3 SSTORE DUP1 SWAP2 POP POP SWAP1 PUSH1 0x1 DUP3 SUB SWAP1 PUSH1 0x0 MSTORE PUSH1 0x20 PUSH1 0x0 KECCAK256 ADD PUSH1 0x0 SWAP1 SWAP2 SWAP3 SWAP1 SWAP2 SWAP1 SWAP2 POP SSTORE POP PUSH2 0x1DD JUMP JUMPDEST DUP2 PUSH1 0x0 DUP3 DUP2 SLOAD DUP2 LT PUSH2 0x1CE JUMPI INVALID JUMPDEST SWAP1 PUSH1 0x0 MSTORE PUSH1 0x20 PUSH1 0x0 KECCAK256 ADD DUP2 SWAP1 SSTORE POP JUMPDEST POP POP POP JUMP INVALID LOG2 PUSH6 0x627A7A723158 KECCAK256 0xAD RETURN PUSH4 0xFDD4D27D 0x48 0xA8 SWAP8 0x4A DUP7 CALLVALUE MUL 0xBA 0x29 PUSH30 0xB363E473482F53E1FAA5990F53E1FB64736F6C6343000511003200000000 "
				},
				"gasEstimates": {
					"creation": {
						"codeDepositCost": "107000",
						"executionCost": "153",
						"totalCost": "107153"
					},
					"external": {
						"append(uint256)": "41137",
						"replace(uint256,uint256)": "infinite"
					}
				},
				"methodIdentifiers": {
					"append(uint256)": "e33b8707",
					"replace(uint256,uint256)": "e81cf24c"
				}
			},
			"storageLayout": {
				"storage": [
					{
						"astId": 42,
						"contract": "MyLibraryExample.sol:NotUsingForExample",
						"label": "data",
						"offset": 0,
						"slot": "0",
						"type": "t_array(t_uint256)dyn_storage"
					}
				],
				"types": {
					"t_array(t_uint256)dyn_storage": {
						"base": "t_uint256",
						"encoding": "dynamic_array",
						"label": "uint256[]",
						"numberOfBytes": "32"
					},
					"t_uint256": {
						"encoding": "inplace",
						"label": "uint256",
						"numberOfBytes": "32"
					}
				}
			},
			"userdoc": {
				"methods": {}
			}
		}
	}
}