{
	"MyStructExamples2.sol": {
		"MappingsStructExample": {
			"abi": [
				{
					"inputs": [
						{
							"internalType": "address",
							"name": "",
							"type": "address"
						}
					],
					"name": "AddressBalance",
					"outputs": [
						{
							"internalType": "uint256",
							"name": "",
							"type": "uint256"
						}
					],
					"stateMutability": "view",
					"type": "function"
				},
				{
					"inputs": [],
					"name": "getBalance",
					"outputs": [
						{
							"internalType": "uint256",
							"name": "",
							"type": "uint256"
						}
					],
					"stateMutability": "view",
					"type": "function"
				},
				{
					"inputs": [],
					"name": "sendMoney",
					"outputs": [],
					"stateMutability": "payable",
					"type": "function"
				},
				{
					"inputs": [
						{
							"internalType": "address payable",
							"name": "_to",
							"type": "address"
						},
						{
							"internalType": "uint256",
							"name": "_amount",
							"type": "uint256"
						}
					],
					"name": "withdrawMoney",
					"outputs": [],
					"stateMutability": "nonpayable",
					"type": "function"
				}
			],
			"devdoc": {
				"kind": "dev",
				"methods": {},
				"version": 1
			},
			"evm": {
				"assembly": "    /* \"MyStructExamples2.sol\":64:667  contract MappingsStructExample {... */\n  mstore(0x40, 0x80)\n  callvalue\n  dup1\n  iszero\n  tag_1\n  jumpi\n  0x00\n  dup1\n  revert\ntag_1:\n  pop\n  dataSize(sub_0)\n  dup1\n  dataOffset(sub_0)\n  0x00\n  codecopy\n  0x00\n  return\nstop\n\nsub_0: assembly {\n        /* \"MyStructExamples2.sol\":64:667  contract MappingsStructExample {... */\n      mstore(0x40, 0x80)\n      jumpi(tag_1, lt(calldatasize, 0x04))\n      shr(0xe0, calldataload(0x00))\n      dup1\n      0x12065fe0\n      eq\n      tag_2\n      jumpi\n      dup1\n      0x145f48be\n      eq\n      tag_3\n      jumpi\n      dup1\n      0xcbedbf5a\n      eq\n      tag_4\n      jumpi\n      dup1\n      0xf274c897\n      eq\n      tag_5\n      jumpi\n    tag_1:\n      0x00\n      dup1\n      revert\n        /* \"MyStructExamples2.sol\":210:303  function getBalance() public view returns(uint) {... */\n    tag_2:\n      callvalue\n      dup1\n      iszero\n      tag_6\n      jumpi\n      0x00\n      dup1\n      revert\n    tag_6:\n      pop\n      tag_7\n      tag_8\n      jump\t// in\n    tag_7:\n      mload(0x40)\n      tag_9\n      swap2\n      swap1\n      tag_10\n      jump\t// in\n    tag_9:\n      mload(0x40)\n      dup1\n      swap2\n      sub\n      swap1\n      return\n        /* \"MyStructExamples2.sol\":157:203  mapping(address => uint) public AddressBalance */\n    tag_3:\n      callvalue\n      dup1\n      iszero\n      tag_11\n      jumpi\n      0x00\n      dup1\n      revert\n    tag_11:\n      pop\n      tag_12\n      0x04\n      dup1\n      calldatasize\n      sub\n      dup2\n      add\n      swap1\n      tag_13\n      swap2\n      swap1\n      tag_14\n      jump\t// in\n    tag_13:\n      tag_15\n      jump\t// in\n    tag_12:\n      mload(0x40)\n      tag_16\n      swap2\n      swap1\n      tag_10\n      jump\t// in\n    tag_16:\n      mload(0x40)\n      dup1\n      swap2\n      sub\n      swap1\n      return\n        /* \"MyStructExamples2.sol\":309:396  function sendMoney() public payable {... */\n    tag_4:\n      tag_17\n      tag_18\n      jump\t// in\n    tag_17:\n      stop\n        /* \"MyStructExamples2.sol\":402:665  function withdrawMoney(address payable _to, uint _amount) public {... */\n    tag_5:\n      callvalue\n      dup1\n      iszero\n      tag_19\n      jumpi\n      0x00\n      dup1\n      revert\n    tag_19:\n      pop\n      tag_20\n      0x04\n      dup1\n      calldatasize\n      sub\n      dup2\n      add\n      swap1\n      tag_21\n      swap2\n      swap1\n      tag_22\n      jump\t// in\n    tag_21:\n      tag_23\n      jump\t// in\n    tag_20:\n      stop\n        /* \"MyStructExamples2.sol\":210:303  function getBalance() public view returns(uint) {... */\n    tag_8:\n        /* \"MyStructExamples2.sol\":252:256  uint */\n      0x00\n        /* \"MyStructExamples2.sol\":275:296  address(this).balance */\n      selfbalance\n        /* \"MyStructExamples2.sol\":268:296  return address(this).balance */\n      swap1\n      pop\n        /* \"MyStructExamples2.sol\":210:303  function getBalance() public view returns(uint) {... */\n      swap1\n      jump\t// out\n        /* \"MyStructExamples2.sol\":157:203  mapping(address => uint) public AddressBalance */\n    tag_15:\n      mstore(0x20, 0x00)\n      dup1\n      0x00\n      mstore\n      keccak256(0x00, 0x40)\n      0x00\n      swap2\n      pop\n      swap1\n      pop\n      sload\n      dup2\n      jump\t// out\n        /* \"MyStructExamples2.sol\":309:396  function sendMoney() public payable {... */\n    tag_18:\n        /* \"MyStructExamples2.sol\":380:389  msg.value */\n      callvalue\n        /* \"MyStructExamples2.sol\":352:366  AddressBalance */\n      0x00\n        /* \"MyStructExamples2.sol\":352:378  AddressBalance[msg.sender] */\n      dup1\n        /* \"MyStructExamples2.sol\":367:377  msg.sender */\n      caller\n        /* \"MyStructExamples2.sol\":352:378  AddressBalance[msg.sender] */\n      0xffffffffffffffffffffffffffffffffffffffff\n      and\n      0xffffffffffffffffffffffffffffffffffffffff\n      and\n      dup2\n      mstore\n      0x20\n      add\n      swap1\n      dup2\n      mstore\n      0x20\n      add\n      0x00\n      keccak256\n      0x00\n        /* \"MyStructExamples2.sol\":352:389  AddressBalance[msg.sender]+=msg.value */\n      dup3\n      dup3\n      sload\n      tag_26\n      swap2\n      swap1\n      tag_27\n      jump\t// in\n    tag_26:\n      swap3\n      pop\n      pop\n      dup2\n      swap1\n      sstore\n      pop\n        /* \"MyStructExamples2.sol\":309:396  function sendMoney() public payable {... */\n      jump\t// out\n        /* \"MyStructExamples2.sol\":402:665  function withdrawMoney(address payable _to, uint _amount) public {... */\n    tag_23:\n        /* \"MyStructExamples2.sol\":513:520  _amount */\n      dup1\n        /* \"MyStructExamples2.sol\":485:499  AddressBalance */\n      0x00\n        /* \"MyStructExamples2.sol\":485:511  AddressBalance[msg.sender] */\n      dup1\n        /* \"MyStructExamples2.sol\":500:510  msg.sender */\n      caller\n        /* \"MyStructExamples2.sol\":485:511  AddressBalance[msg.sender] */\n      0xffffffffffffffffffffffffffffffffffffffff\n      and\n      0xffffffffffffffffffffffffffffffffffffffff\n      and\n      dup2\n      mstore\n      0x20\n      add\n      swap1\n      dup2\n      mstore\n      0x20\n      add\n      0x00\n      keccak256\n      sload\n        /* \"MyStructExamples2.sol\":485:520  AddressBalance[msg.sender]>=_amount */\n      lt\n      iszero\n        /* \"MyStructExamples2.sol\":477:540  require(AddressBalance[msg.sender]>=_amount,\"Not enough funds\") */\n      tag_29\n      jumpi\n      mload(0x40)\n      0x08c379a000000000000000000000000000000000000000000000000000000000\n      dup2\n      mstore\n      0x04\n      add\n      tag_30\n      swap1\n      tag_31\n      jump\t// in\n    tag_30:\n      mload(0x40)\n      dup1\n      swap2\n      sub\n      swap1\n      revert\n    tag_29:\n        /* \"MyStructExamples2.sol\":550:568  uint BalanceToSend */\n      0x00\n        /* \"MyStructExamples2.sol\":569:576  _amount */\n      dup2\n        /* \"MyStructExamples2.sol\":550:576  uint BalanceToSend=_amount */\n      swap1\n      pop\n        /* \"MyStructExamples2.sol\":614:621  _amount */\n      dup2\n        /* \"MyStructExamples2.sol\":586:600  AddressBalance */\n      0x00\n        /* \"MyStructExamples2.sol\":586:612  AddressBalance[msg.sender] */\n      dup1\n        /* \"MyStructExamples2.sol\":601:611  msg.sender */\n      caller\n        /* \"MyStructExamples2.sol\":586:612  AddressBalance[msg.sender] */\n      0xffffffffffffffffffffffffffffffffffffffff\n      and\n      0xffffffffffffffffffffffffffffffffffffffff\n      and\n      dup2\n      mstore\n      0x20\n      add\n      swap1\n      dup2\n      mstore\n      0x20\n      add\n      0x00\n      keccak256\n      0x00\n        /* \"MyStructExamples2.sol\":586:621  AddressBalance[msg.sender]-=_amount */\n      dup3\n      dup3\n      sload\n      tag_32\n      swap2\n      swap1\n      tag_33\n      jump\t// in\n    tag_32:\n      swap3\n      pop\n      pop\n      dup2\n      swap1\n      sstore\n      pop\n        /* \"MyStructExamples2.sol\":631:634  _to */\n      dup3\n        /* \"MyStructExamples2.sol\":631:643  _to.transfer */\n      0xffffffffffffffffffffffffffffffffffffffff\n      and\n        /* \"MyStructExamples2.sol\":631:658  _to.transfer(BalanceToSend) */\n      0x08fc\n        /* \"MyStructExamples2.sol\":644:657  BalanceToSend */\n      dup3\n        /* \"MyStructExamples2.sol\":631:658  _to.transfer(BalanceToSend) */\n      swap1\n      dup2\n      iszero\n      mul\n      swap1\n      mload(0x40)\n      0x00\n      mload(0x40)\n      dup1\n      dup4\n      sub\n      dup2\n      dup6\n      dup9\n      dup9\n      call\n      swap4\n      pop\n      pop\n      pop\n      pop\n      iszero\n      dup1\n      iszero\n      tag_35\n      jumpi\n      returndatasize\n      0x00\n      dup1\n      returndatacopy\n      revert(0x00, returndatasize)\n    tag_35:\n      pop\n        /* \"MyStructExamples2.sol\":467:665  {... */\n      pop\n        /* \"MyStructExamples2.sol\":402:665  function withdrawMoney(address payable _to, uint _amount) public {... */\n      pop\n      pop\n      jump\t// out\n        /* \"#utility.yul\":7:84   */\n    tag_36:\n        /* \"#utility.yul\":44:51   */\n      0x00\n        /* \"#utility.yul\":73:78   */\n      dup2\n        /* \"#utility.yul\":62:78   */\n      swap1\n      pop\n        /* \"#utility.yul\":7:84   */\n      swap2\n      swap1\n      pop\n      jump\t// out\n        /* \"#utility.yul\":90:208   */\n    tag_37:\n        /* \"#utility.yul\":177:201   */\n      tag_57\n        /* \"#utility.yul\":195:200   */\n      dup2\n        /* \"#utility.yul\":177:201   */\n      tag_36\n      jump\t// in\n    tag_57:\n        /* \"#utility.yul\":172:175   */\n      dup3\n        /* \"#utility.yul\":165:202   */\n      mstore\n        /* \"#utility.yul\":90:208   */\n      pop\n      pop\n      jump\t// out\n        /* \"#utility.yul\":214:436   */\n    tag_10:\n        /* \"#utility.yul\":307:311   */\n      0x00\n        /* \"#utility.yul\":345:347   */\n      0x20\n        /* \"#utility.yul\":334:343   */\n      dup3\n        /* \"#utility.yul\":330:348   */\n      add\n        /* \"#utility.yul\":322:348   */\n      swap1\n      pop\n        /* \"#utility.yul\":358:429   */\n      tag_59\n        /* \"#utility.yul\":426:427   */\n      0x00\n        /* \"#utility.yul\":415:424   */\n      dup4\n        /* \"#utility.yul\":411:428   */\n      add\n        /* \"#utility.yul\":402:408   */\n      dup5\n        /* \"#utility.yul\":358:429   */\n      tag_37\n      jump\t// in\n    tag_59:\n        /* \"#utility.yul\":214:436   */\n      swap3\n      swap2\n      pop\n      pop\n      jump\t// out\n        /* \"#utility.yul\":523:640   */\n    tag_39:\n        /* \"#utility.yul\":632:633   */\n      0x00\n        /* \"#utility.yul\":629:630   */\n      dup1\n        /* \"#utility.yul\":622:634   */\n      revert\n        /* \"#utility.yul\":769:895   */\n    tag_41:\n        /* \"#utility.yul\":806:813   */\n      0x00\n        /* \"#utility.yul\":846:888   */\n      0xffffffffffffffffffffffffffffffffffffffff\n        /* \"#utility.yul\":839:844   */\n      dup3\n        /* \"#utility.yul\":835:889   */\n      and\n        /* \"#utility.yul\":824:889   */\n      swap1\n      pop\n        /* \"#utility.yul\":769:895   */\n      swap2\n      swap1\n      pop\n      jump\t// out\n        /* \"#utility.yul\":901:997   */\n    tag_42:\n        /* \"#utility.yul\":938:945   */\n      0x00\n        /* \"#utility.yul\":967:991   */\n      tag_65\n        /* \"#utility.yul\":985:990   */\n      dup3\n        /* \"#utility.yul\":967:991   */\n      tag_41\n      jump\t// in\n    tag_65:\n        /* \"#utility.yul\":956:991   */\n      swap1\n      pop\n        /* \"#utility.yul\":901:997   */\n      swap2\n      swap1\n      pop\n      jump\t// out\n        /* \"#utility.yul\":1003:1125   */\n    tag_43:\n        /* \"#utility.yul\":1076:1100   */\n      tag_67\n        /* \"#utility.yul\":1094:1099   */\n      dup2\n        /* \"#utility.yul\":1076:1100   */\n      tag_42\n      jump\t// in\n    tag_67:\n        /* \"#utility.yul\":1069:1074   */\n      dup2\n        /* \"#utility.yul\":1066:1101   */\n      eq\n        /* \"#utility.yul\":1056:1119   */\n      tag_68\n      jumpi\n        /* \"#utility.yul\":1115:1116   */\n      0x00\n        /* \"#utility.yul\":1112:1113   */\n      dup1\n        /* \"#utility.yul\":1105:1117   */\n      revert\n        /* \"#utility.yul\":1056:1119   */\n    tag_68:\n        /* \"#utility.yul\":1003:1125   */\n      pop\n      jump\t// out\n        /* \"#utility.yul\":1131:1270   */\n    tag_44:\n        /* \"#utility.yul\":1177:1182   */\n      0x00\n        /* \"#utility.yul\":1215:1221   */\n      dup2\n        /* \"#utility.yul\":1202:1222   */\n      calldataload\n        /* \"#utility.yul\":1193:1222   */\n      swap1\n      pop\n        /* \"#utility.yul\":1231:1264   */\n      tag_70\n        /* \"#utility.yul\":1258:1263   */\n      dup2\n        /* \"#utility.yul\":1231:1264   */\n      tag_43\n      jump\t// in\n    tag_70:\n        /* \"#utility.yul\":1131:1270   */\n      swap3\n      swap2\n      pop\n      pop\n      jump\t// out\n        /* \"#utility.yul\":1276:1605   */\n    tag_14:\n        /* \"#utility.yul\":1335:1341   */\n      0x00\n        /* \"#utility.yul\":1384:1386   */\n      0x20\n        /* \"#utility.yul\":1372:1381   */\n      dup3\n        /* \"#utility.yul\":1363:1370   */\n      dup5\n        /* \"#utility.yul\":1359:1382   */\n      sub\n        /* \"#utility.yul\":1355:1387   */\n      slt\n        /* \"#utility.yul\":1352:1471   */\n      iszero\n      tag_72\n      jumpi\n        /* \"#utility.yul\":1390:1469   */\n      tag_73\n      tag_39\n      jump\t// in\n    tag_73:\n        /* \"#utility.yul\":1352:1471   */\n    tag_72:\n        /* \"#utility.yul\":1510:1511   */\n      0x00\n        /* \"#utility.yul\":1535:1588   */\n      tag_74\n        /* \"#utility.yul\":1580:1587   */\n      dup5\n        /* \"#utility.yul\":1571:1577   */\n      dup3\n        /* \"#utility.yul\":1560:1569   */\n      dup6\n        /* \"#utility.yul\":1556:1578   */\n      add\n        /* \"#utility.yul\":1535:1588   */\n      tag_44\n      jump\t// in\n    tag_74:\n        /* \"#utility.yul\":1525:1588   */\n      swap2\n      pop\n        /* \"#utility.yul\":1481:1598   */\n      pop\n        /* \"#utility.yul\":1276:1605   */\n      swap3\n      swap2\n      pop\n      pop\n      jump\t// out\n        /* \"#utility.yul\":1611:1715   */\n    tag_45:\n        /* \"#utility.yul\":1656:1663   */\n      0x00\n        /* \"#utility.yul\":1685:1709   */\n      tag_76\n        /* \"#utility.yul\":1703:1708   */\n      dup3\n        /* \"#utility.yul\":1685:1709   */\n      tag_41\n      jump\t// in\n    tag_76:\n        /* \"#utility.yul\":1674:1709   */\n      swap1\n      pop\n        /* \"#utility.yul\":1611:1715   */\n      swap2\n      swap1\n      pop\n      jump\t// out\n        /* \"#utility.yul\":1721:1859   */\n    tag_46:\n        /* \"#utility.yul\":1802:1834   */\n      tag_78\n        /* \"#utility.yul\":1828:1833   */\n      dup2\n        /* \"#utility.yul\":1802:1834   */\n      tag_45\n      jump\t// in\n    tag_78:\n        /* \"#utility.yul\":1795:1800   */\n      dup2\n        /* \"#utility.yul\":1792:1835   */\n      eq\n        /* \"#utility.yul\":1782:1853   */\n      tag_79\n      jumpi\n        /* \"#utility.yul\":1849:1850   */\n      0x00\n        /* \"#utility.yul\":1846:1847   */\n      dup1\n        /* \"#utility.yul\":1839:1851   */\n      revert\n        /* \"#utility.yul\":1782:1853   */\n    tag_79:\n        /* \"#utility.yul\":1721:1859   */\n      pop\n      jump\t// out\n        /* \"#utility.yul\":1865:2020   */\n    tag_47:\n        /* \"#utility.yul\":1919:1924   */\n      0x00\n        /* \"#utility.yul\":1957:1963   */\n      dup2\n        /* \"#utility.yul\":1944:1964   */\n      calldataload\n        /* \"#utility.yul\":1935:1964   */\n      swap1\n      pop\n        /* \"#utility.yul\":1973:2014   */\n      tag_81\n        /* \"#utility.yul\":2008:2013   */\n      dup2\n        /* \"#utility.yul\":1973:2014   */\n      tag_46\n      jump\t// in\n    tag_81:\n        /* \"#utility.yul\":1865:2020   */\n      swap3\n      swap2\n      pop\n      pop\n      jump\t// out\n        /* \"#utility.yul\":2026:2148   */\n    tag_48:\n        /* \"#utility.yul\":2099:2123   */\n      tag_83\n        /* \"#utility.yul\":2117:2122   */\n      dup2\n        /* \"#utility.yul\":2099:2123   */\n      tag_36\n      jump\t// in\n    tag_83:\n        /* \"#utility.yul\":2092:2097   */\n      dup2\n        /* \"#utility.yul\":2089:2124   */\n      eq\n        /* \"#utility.yul\":2079:2142   */\n      tag_84\n      jumpi\n        /* \"#utility.yul\":2138:2139   */\n      0x00\n        /* \"#utility.yul\":2135:2136   */\n      dup1\n        /* \"#utility.yul\":2128:2140   */\n      revert\n        /* \"#utility.yul\":2079:2142   */\n    tag_84:\n        /* \"#utility.yul\":2026:2148   */\n      pop\n      jump\t// out\n        /* \"#utility.yul\":2154:2293   */\n    tag_49:\n        /* \"#utility.yul\":2200:2205   */\n      0x00\n        /* \"#utility.yul\":2238:2244   */\n      dup2\n        /* \"#utility.yul\":2225:2245   */\n      calldataload\n        /* \"#utility.yul\":2216:2245   */\n      swap1\n      pop\n        /* \"#utility.yul\":2254:2287   */\n      tag_86\n        /* \"#utility.yul\":2281:2286   */\n      dup2\n        /* \"#utility.yul\":2254:2287   */\n      tag_48\n      jump\t// in\n    tag_86:\n        /* \"#utility.yul\":2154:2293   */\n      swap3\n      swap2\n      pop\n      pop\n      jump\t// out\n        /* \"#utility.yul\":2299:2789   */\n    tag_22:\n        /* \"#utility.yul\":2375:2381   */\n      0x00\n        /* \"#utility.yul\":2383:2389   */\n      dup1\n        /* \"#utility.yul\":2432:2434   */\n      0x40\n        /* \"#utility.yul\":2420:2429   */\n      dup4\n        /* \"#utility.yul\":2411:2418   */\n      dup6\n        /* \"#utility.yul\":2407:2430   */\n      sub\n        /* \"#utility.yul\":2403:2435   */\n      slt\n        /* \"#utility.yul\":2400:2519   */\n      iszero\n      tag_88\n      jumpi\n        /* \"#utility.yul\":2438:2517   */\n      tag_89\n      tag_39\n      jump\t// in\n    tag_89:\n        /* \"#utility.yul\":2400:2519   */\n    tag_88:\n        /* \"#utility.yul\":2558:2559   */\n      0x00\n        /* \"#utility.yul\":2583:2644   */\n      tag_90\n        /* \"#utility.yul\":2636:2643   */\n      dup6\n        /* \"#utility.yul\":2627:2633   */\n      dup3\n        /* \"#utility.yul\":2616:2625   */\n      dup7\n        /* \"#utility.yul\":2612:2634   */\n      add\n        /* \"#utility.yul\":2583:2644   */\n      tag_47\n      jump\t// in\n    tag_90:\n        /* \"#utility.yul\":2573:2644   */\n      swap3\n      pop\n        /* \"#utility.yul\":2529:2654   */\n      pop\n        /* \"#utility.yul\":2693:2695   */\n      0x20\n        /* \"#utility.yul\":2719:2772   */\n      tag_91\n        /* \"#utility.yul\":2764:2771   */\n      dup6\n        /* \"#utility.yul\":2755:2761   */\n      dup3\n        /* \"#utility.yul\":2744:2753   */\n      dup7\n        /* \"#utility.yul\":2740:2762   */\n      add\n        /* \"#utility.yul\":2719:2772   */\n      tag_49\n      jump\t// in\n    tag_91:\n        /* \"#utility.yul\":2709:2772   */\n      swap2\n      pop\n        /* \"#utility.yul\":2664:2782   */\n      pop\n        /* \"#utility.yul\":2299:2789   */\n      swap3\n      pop\n      swap3\n      swap1\n      pop\n      jump\t// out\n        /* \"#utility.yul\":2795:2975   */\n    tag_50:\n        /* \"#utility.yul\":2843:2920   */\n      0x4e487b7100000000000000000000000000000000000000000000000000000000\n        /* \"#utility.yul\":2840:2841   */\n      0x00\n        /* \"#utility.yul\":2833:2921   */\n      mstore\n        /* \"#utility.yul\":2940:2944   */\n      0x11\n        /* \"#utility.yul\":2937:2938   */\n      0x04\n        /* \"#utility.yul\":2930:2945   */\n      mstore\n        /* \"#utility.yul\":2964:2968   */\n      0x24\n        /* \"#utility.yul\":2961:2962   */\n      0x00\n        /* \"#utility.yul\":2954:2969   */\n      revert\n        /* \"#utility.yul\":2981:3172   */\n    tag_27:\n        /* \"#utility.yul\":3021:3024   */\n      0x00\n        /* \"#utility.yul\":3040:3060   */\n      tag_94\n        /* \"#utility.yul\":3058:3059   */\n      dup3\n        /* \"#utility.yul\":3040:3060   */\n      tag_36\n      jump\t// in\n    tag_94:\n        /* \"#utility.yul\":3035:3060   */\n      swap2\n      pop\n        /* \"#utility.yul\":3074:3094   */\n      tag_95\n        /* \"#utility.yul\":3092:3093   */\n      dup4\n        /* \"#utility.yul\":3074:3094   */\n      tag_36\n      jump\t// in\n    tag_95:\n        /* \"#utility.yul\":3069:3094   */\n      swap3\n      pop\n        /* \"#utility.yul\":3117:3118   */\n      dup3\n        /* \"#utility.yul\":3114:3115   */\n      dup3\n        /* \"#utility.yul\":3110:3119   */\n      add\n        /* \"#utility.yul\":3103:3119   */\n      swap1\n      pop\n        /* \"#utility.yul\":3138:3141   */\n      dup1\n        /* \"#utility.yul\":3135:3136   */\n      dup3\n        /* \"#utility.yul\":3132:3142   */\n      gt\n        /* \"#utility.yul\":3129:3165   */\n      iszero\n      tag_96\n      jumpi\n        /* \"#utility.yul\":3145:3163   */\n      tag_97\n      tag_50\n      jump\t// in\n    tag_97:\n        /* \"#utility.yul\":3129:3165   */\n    tag_96:\n        /* \"#utility.yul\":2981:3172   */\n      swap3\n      swap2\n      pop\n      pop\n      jump\t// out\n        /* \"#utility.yul\":3178:3347   */\n    tag_51:\n        /* \"#utility.yul\":3262:3273   */\n      0x00\n        /* \"#utility.yul\":3296:3302   */\n      dup3\n        /* \"#utility.yul\":3291:3294   */\n      dup3\n        /* \"#utility.yul\":3284:3303   */\n      mstore\n        /* \"#utility.yul\":3336:3340   */\n      0x20\n        /* \"#utility.yul\":3331:3334   */\n      dup3\n        /* \"#utility.yul\":3327:3341   */\n      add\n        /* \"#utility.yul\":3312:3341   */\n      swap1\n      pop\n        /* \"#utility.yul\":3178:3347   */\n      swap3\n      swap2\n      pop\n      pop\n      jump\t// out\n        /* \"#utility.yul\":3353:3519   */\n    tag_52:\n        /* \"#utility.yul\":3493:3511   */\n      0x4e6f7420656e6f7567682066756e647300000000000000000000000000000000\n        /* \"#utility.yul\":3489:3490   */\n      0x00\n        /* \"#utility.yul\":3481:3487   */\n      dup3\n        /* \"#utility.yul\":3477:3491   */\n      add\n        /* \"#utility.yul\":3470:3512   */\n      mstore\n        /* \"#utility.yul\":3353:3519   */\n      pop\n      jump\t// out\n        /* \"#utility.yul\":3525:3891   */\n    tag_53:\n        /* \"#utility.yul\":3667:3670   */\n      0x00\n        /* \"#utility.yul\":3688:3755   */\n      tag_101\n        /* \"#utility.yul\":3752:3754   */\n      0x10\n        /* \"#utility.yul\":3747:3750   */\n      dup4\n        /* \"#utility.yul\":3688:3755   */\n      tag_51\n      jump\t// in\n    tag_101:\n        /* \"#utility.yul\":3681:3755   */\n      swap2\n      pop\n        /* \"#utility.yul\":3764:3857   */\n      tag_102\n        /* \"#utility.yul\":3853:3856   */\n      dup3\n        /* \"#utility.yul\":3764:3857   */\n      tag_52\n      jump\t// in\n    tag_102:\n        /* \"#utility.yul\":3882:3884   */\n      0x20\n        /* \"#utility.yul\":3877:3880   */\n      dup3\n        /* \"#utility.yul\":3873:3885   */\n      add\n        /* \"#utility.yul\":3866:3885   */\n      swap1\n      pop\n        /* \"#utility.yul\":3525:3891   */\n      swap2\n      swap1\n      pop\n      jump\t// out\n        /* \"#utility.yul\":3897:4316   */\n    tag_31:\n        /* \"#utility.yul\":4063:4067   */\n      0x00\n        /* \"#utility.yul\":4101:4103   */\n      0x20\n        /* \"#utility.yul\":4090:4099   */\n      dup3\n        /* \"#utility.yul\":4086:4104   */\n      add\n        /* \"#utility.yul\":4078:4104   */\n      swap1\n      pop\n        /* \"#utility.yul\":4150:4159   */\n      dup2\n        /* \"#utility.yul\":4144:4148   */\n      dup2\n        /* \"#utility.yul\":4140:4160   */\n      sub\n        /* \"#utility.yul\":4136:4137   */\n      0x00\n        /* \"#utility.yul\":4125:4134   */\n      dup4\n        /* \"#utility.yul\":4121:4138   */\n      add\n        /* \"#utility.yul\":4114:4161   */\n      mstore\n        /* \"#utility.yul\":4178:4309   */\n      tag_104\n        /* \"#utility.yul\":4304:4308   */\n      dup2\n        /* \"#utility.yul\":4178:4309   */\n      tag_53\n      jump\t// in\n    tag_104:\n        /* \"#utility.yul\":4170:4309   */\n      swap1\n      pop\n        /* \"#utility.yul\":3897:4316   */\n      swap2\n      swap1\n      pop\n      jump\t// out\n        /* \"#utility.yul\":4322:4516   */\n    tag_33:\n        /* \"#utility.yul\":4362:4366   */\n      0x00\n        /* \"#utility.yul\":4382:4402   */\n      tag_106\n        /* \"#utility.yul\":4400:4401   */\n      dup3\n        /* \"#utility.yul\":4382:4402   */\n      tag_36\n      jump\t// in\n    tag_106:\n        /* \"#utility.yul\":4377:4402   */\n      swap2\n      pop\n        /* \"#utility.yul\":4416:4436   */\n      tag_107\n        /* \"#utility.yul\":4434:4435   */\n      dup4\n        /* \"#utility.yul\":4416:4436   */\n      tag_36\n      jump\t// in\n    tag_107:\n        /* \"#utility.yul\":4411:4436   */\n      swap3\n      pop\n        /* \"#utility.yul\":4460:4461   */\n      dup3\n        /* \"#utility.yul\":4457:4458   */\n      dup3\n        /* \"#utility.yul\":4453:4462   */\n      sub\n        /* \"#utility.yul\":4445:4462   */\n      swap1\n      pop\n        /* \"#utility.yul\":4484:4485   */\n      dup2\n        /* \"#utility.yul\":4478:4482   */\n      dup2\n        /* \"#utility.yul\":4475:4486   */\n      gt\n        /* \"#utility.yul\":4472:4509   */\n      iszero\n      tag_108\n      jumpi\n        /* \"#utility.yul\":4489:4507   */\n      tag_109\n      tag_50\n      jump\t// in\n    tag_109:\n        /* \"#utility.yul\":4472:4509   */\n    tag_108:\n        /* \"#utility.yul\":4322:4516   */\n      swap3\n      swap2\n      pop\n      pop\n      jump\t// out\n\n    auxdata: 0xa26469706673582212205492abe9431b8d40e403ddda8eb8214362413f839f62595cb66b4fd65e4eddd964736f6c63430008100033\n}\n",
				"bytecode": {
					"linkReferences": {},
					"object": "608060405234801561001057600080fd5b50610535806100206000396000f3fe60806040526004361061003f5760003560e01c806312065fe014610044578063145f48be1461006f578063cbedbf5a146100ac578063f274c897146100b6575b600080fd5b34801561005057600080fd5b506100596100df565b6040516100669190610296565b60405180910390f35b34801561007b57600080fd5b5061009660048036038101906100919190610314565b6100e7565b6040516100a39190610296565b60405180910390f35b6100b46100ff565b005b3480156100c257600080fd5b506100dd60048036038101906100d891906103ab565b610156565b005b600047905090565b60006020528060005260406000206000915090505481565b346000803373ffffffffffffffffffffffffffffffffffffffff1673ffffffffffffffffffffffffffffffffffffffff168152602001908152602001600020600082825461014d919061041a565b92505081905550565b806000803373ffffffffffffffffffffffffffffffffffffffff1673ffffffffffffffffffffffffffffffffffffffff1681526020019081526020016000205410156101d7576040517f08c379a00000000000000000000000000000000000000000000000000000000081526004016101ce906104ab565b60405180910390fd5b6000819050816000803373ffffffffffffffffffffffffffffffffffffffff1673ffffffffffffffffffffffffffffffffffffffff168152602001908152602001600020600082825461022a91906104cb565b925050819055508273ffffffffffffffffffffffffffffffffffffffff166108fc829081150290604051600060405180830381858888f19350505050158015610277573d6000803e3d6000fd5b50505050565b6000819050919050565b6102908161027d565b82525050565b60006020820190506102ab6000830184610287565b92915050565b600080fd5b600073ffffffffffffffffffffffffffffffffffffffff82169050919050565b60006102e1826102b6565b9050919050565b6102f1816102d6565b81146102fc57600080fd5b50565b60008135905061030e816102e8565b92915050565b60006020828403121561032a576103296102b1565b5b6000610338848285016102ff565b91505092915050565b600061034c826102b6565b9050919050565b61035c81610341565b811461036757600080fd5b50565b60008135905061037981610353565b92915050565b6103888161027d565b811461039357600080fd5b50565b6000813590506103a58161037f565b92915050565b600080604083850312156103c2576103c16102b1565b5b60006103d08582860161036a565b92505060206103e185828601610396565b9150509250929050565b7f4e487b7100000000000000000000000000000000000000000000000000000000600052601160045260246000fd5b60006104258261027d565b91506104308361027d565b9250828201905080821115610448576104476103eb565b5b92915050565b600082825260208201905092915050565b7f4e6f7420656e6f7567682066756e647300000000000000000000000000000000600082015250565b600061049560108361044e565b91506104a08261045f565b602082019050919050565b600060208201905081810360008301526104c481610488565b9050919050565b60006104d68261027d565b91506104e18361027d565b92508282039050818111156104f9576104f86103eb565b5b9291505056fea26469706673582212205492abe9431b8d40e403ddda8eb8214362413f839f62595cb66b4fd65e4eddd964736f6c63430008100033",
					"opcodes": "PUSH1 0x80 PUSH1 0x40 MSTORE CALLVALUE DUP1 ISZERO PUSH2 0x10 JUMPI PUSH1 0x0 DUP1 REVERT JUMPDEST POP PUSH2 0x535 DUP1 PUSH2 0x20 PUSH1 0x0 CODECOPY PUSH1 0x0 RETURN INVALID PUSH1 0x80 PUSH1 0x40 MSTORE PUSH1 0x4 CALLDATASIZE LT PUSH2 0x3F JUMPI PUSH1 0x0 CALLDATALOAD PUSH1 0xE0 SHR DUP1 PUSH4 0x12065FE0 EQ PUSH2 0x44 JUMPI DUP1 PUSH4 0x145F48BE EQ PUSH2 0x6F JUMPI DUP1 PUSH4 0xCBEDBF5A EQ PUSH2 0xAC JUMPI DUP1 PUSH4 0xF274C897 EQ PUSH2 0xB6 JUMPI JUMPDEST PUSH1 0x0 DUP1 REVERT JUMPDEST CALLVALUE DUP1 ISZERO PUSH2 0x50 JUMPI PUSH1 0x0 DUP1 REVERT JUMPDEST POP PUSH2 0x59 PUSH2 0xDF JUMP JUMPDEST PUSH1 0x40 MLOAD PUSH2 0x66 SWAP2 SWAP1 PUSH2 0x296 JUMP JUMPDEST PUSH1 0x40 MLOAD DUP1 SWAP2 SUB SWAP1 RETURN JUMPDEST CALLVALUE DUP1 ISZERO PUSH2 0x7B JUMPI PUSH1 0x0 DUP1 REVERT JUMPDEST POP PUSH2 0x96 PUSH1 0x4 DUP1 CALLDATASIZE SUB DUP2 ADD SWAP1 PUSH2 0x91 SWAP2 SWAP1 PUSH2 0x314 JUMP JUMPDEST PUSH2 0xE7 JUMP JUMPDEST PUSH1 0x40 MLOAD PUSH2 0xA3 SWAP2 SWAP1 PUSH2 0x296 JUMP JUMPDEST PUSH1 0x40 MLOAD DUP1 SWAP2 SUB SWAP1 RETURN JUMPDEST PUSH2 0xB4 PUSH2 0xFF JUMP JUMPDEST STOP JUMPDEST CALLVALUE DUP1 ISZERO PUSH2 0xC2 JUMPI PUSH1 0x0 DUP1 REVERT JUMPDEST POP PUSH2 0xDD PUSH1 0x4 DUP1 CALLDATASIZE SUB DUP2 ADD SWAP1 PUSH2 0xD8 SWAP2 SWAP1 PUSH2 0x3AB JUMP JUMPDEST PUSH2 0x156 JUMP JUMPDEST STOP JUMPDEST PUSH1 0x0 SELFBALANCE SWAP1 POP SWAP1 JUMP JUMPDEST PUSH1 0x0 PUSH1 0x20 MSTORE DUP1 PUSH1 0x0 MSTORE PUSH1 0x40 PUSH1 0x0 KECCAK256 PUSH1 0x0 SWAP2 POP SWAP1 POP SLOAD DUP2 JUMP JUMPDEST CALLVALUE PUSH1 0x0 DUP1 CALLER PUSH20 0xFFFFFFFFFFFFFFFFFFFFFFFFFFFFFFFFFFFFFFFF AND PUSH20 0xFFFFFFFFFFFFFFFFFFFFFFFFFFFFFFFFFFFFFFFF AND DUP2 MSTORE PUSH1 0x20 ADD SWAP1 DUP2 MSTORE PUSH1 0x20 ADD PUSH1 0x0 KECCAK256 PUSH1 0x0 DUP3 DUP3 SLOAD PUSH2 0x14D SWAP2 SWAP1 PUSH2 0x41A JUMP JUMPDEST SWAP3 POP POP DUP2 SWAP1 SSTORE POP JUMP JUMPDEST DUP1 PUSH1 0x0 DUP1 CALLER PUSH20 0xFFFFFFFFFFFFFFFFFFFFFFFFFFFFFFFFFFFFFFFF AND PUSH20 0xFFFFFFFFFFFFFFFFFFFFFFFFFFFFFFFFFFFFFFFF AND DUP2 MSTORE PUSH1 0x20 ADD SWAP1 DUP2 MSTORE PUSH1 0x20 ADD PUSH1 0x0 KECCAK256 SLOAD LT ISZERO PUSH2 0x1D7 JUMPI PUSH1 0x40 MLOAD PUSH32 0x8C379A000000000000000000000000000000000000000000000000000000000 DUP2 MSTORE PUSH1 0x4 ADD PUSH2 0x1CE SWAP1 PUSH2 0x4AB JUMP JUMPDEST PUSH1 0x40 MLOAD DUP1 SWAP2 SUB SWAP1 REVERT JUMPDEST PUSH1 0x0 DUP2 SWAP1 POP DUP2 PUSH1 0x0 DUP1 CALLER PUSH20 0xFFFFFFFFFFFFFFFFFFFFFFFFFFFFFFFFFFFFFFFF AND PUSH20 0xFFFFFFFFFFFFFFFFFFFFFFFFFFFFFFFFFFFFFFFF AND DUP2 MSTORE PUSH1 0x20 ADD SWAP1 DUP2 MSTORE PUSH1 0x20 ADD PUSH1 0x0 KECCAK256 PUSH1 0x0 DUP3 DUP3 SLOAD PUSH2 0x22A SWAP2 SWAP1 PUSH2 0x4CB JUMP JUMPDEST SWAP3 POP POP DUP2 SWAP1 SSTORE POP DUP3 PUSH20 0xFFFFFFFFFFFFFFFFFFFFFFFFFFFFFFFFFFFFFFFF AND PUSH2 0x8FC DUP3 SWAP1 DUP2 ISZERO MUL SWAP1 PUSH1 0x40 MLOAD PUSH1 0x0 PUSH1 0x40 MLOAD DUP1 DUP4 SUB DUP2 DUP6 DUP9 DUP9 CALL SWAP4 POP POP POP POP ISZERO DUP1 ISZERO PUSH2 0x277 JUMPI RETURNDATASIZE PUSH1 0x0 DUP1 RETURNDATACOPY RETURNDATASIZE PUSH1 0x0 REVERT JUMPDEST POP POP POP POP JUMP JUMPDEST PUSH1 0x0 DUP2 SWAP1 POP SWAP2 SWAP1 POP JUMP JUMPDEST PUSH2 0x290 DUP2 PUSH2 0x27D JUMP JUMPDEST DUP3 MSTORE POP POP JUMP JUMPDEST PUSH1 0x0 PUSH1 0x20 DUP3 ADD SWAP1 POP PUSH2 0x2AB PUSH1 0x0 DUP4 ADD DUP5 PUSH2 0x287 JUMP JUMPDEST SWAP3 SWAP2 POP POP JUMP JUMPDEST PUSH1 0x0 DUP1 REVERT JUMPDEST PUSH1 0x0 PUSH20 0xFFFFFFFFFFFFFFFFFFFFFFFFFFFFFFFFFFFFFFFF DUP3 AND SWAP1 POP SWAP2 SWAP1 POP JUMP JUMPDEST PUSH1 0x0 PUSH2 0x2E1 DUP3 PUSH2 0x2B6 JUMP JUMPDEST SWAP1 POP SWAP2 SWAP1 POP JUMP JUMPDEST PUSH2 0x2F1 DUP2 PUSH2 0x2D6 JUMP JUMPDEST DUP2 EQ PUSH2 0x2FC JUMPI PUSH1 0x0 DUP1 REVERT JUMPDEST POP JUMP JUMPDEST PUSH1 0x0 DUP2 CALLDATALOAD SWAP1 POP PUSH2 0x30E DUP2 PUSH2 0x2E8 JUMP JUMPDEST SWAP3 SWAP2 POP POP JUMP JUMPDEST PUSH1 0x0 PUSH1 0x20 DUP3 DUP5 SUB SLT ISZERO PUSH2 0x32A JUMPI PUSH2 0x329 PUSH2 0x2B1 JUMP JUMPDEST JUMPDEST PUSH1 0x0 PUSH2 0x338 DUP5 DUP3 DUP6 ADD PUSH2 0x2FF JUMP JUMPDEST SWAP2 POP POP SWAP3 SWAP2 POP POP JUMP JUMPDEST PUSH1 0x0 PUSH2 0x34C DUP3 PUSH2 0x2B6 JUMP JUMPDEST SWAP1 POP SWAP2 SWAP1 POP JUMP JUMPDEST PUSH2 0x35C DUP2 PUSH2 0x341 JUMP JUMPDEST DUP2 EQ PUSH2 0x367 JUMPI PUSH1 0x0 DUP1 REVERT JUMPDEST POP JUMP JUMPDEST PUSH1 0x0 DUP2 CALLDATALOAD SWAP1 POP PUSH2 0x379 DUP2 PUSH2 0x353 JUMP JUMPDEST SWAP3 SWAP2 POP POP JUMP JUMPDEST PUSH2 0x388 DUP2 PUSH2 0x27D JUMP JUMPDEST DUP2 EQ PUSH2 0x393 JUMPI PUSH1 0x0 DUP1 REVERT JUMPDEST POP JUMP JUMPDEST PUSH1 0x0 DUP2 CALLDATALOAD SWAP1 POP PUSH2 0x3A5 DUP2 PUSH2 0x37F JUMP JUMPDEST SWAP3 SWAP2 POP POP JUMP JUMPDEST PUSH1 0x0 DUP1 PUSH1 0x40 DUP4 DUP6 SUB SLT ISZERO PUSH2 0x3C2 JUMPI PUSH2 0x3C1 PUSH2 0x2B1 JUMP JUMPDEST JUMPDEST PUSH1 0x0 PUSH2 0x3D0 DUP6 DUP3 DUP7 ADD PUSH2 0x36A JUMP JUMPDEST SWAP3 POP POP PUSH1 0x20 PUSH2 0x3E1 DUP6 DUP3 DUP7 ADD PUSH2 0x396 JUMP JUMPDEST SWAP2 POP POP SWAP3 POP SWAP3 SWAP1 POP JUMP JUMPDEST PUSH32 0x4E487B7100000000000000000000000000000000000000000000000000000000 PUSH1 0x0 MSTORE PUSH1 0x11 PUSH1 0x4 MSTORE PUSH1 0x24 PUSH1 0x0 REVERT JUMPDEST PUSH1 0x0 PUSH2 0x425 DUP3 PUSH2 0x27D JUMP JUMPDEST SWAP2 POP PUSH2 0x430 DUP4 PUSH2 0x27D JUMP JUMPDEST SWAP3 POP DUP3 DUP3 ADD SWAP1 POP DUP1 DUP3 GT ISZERO PUSH2 0x448 JUMPI PUSH2 0x447 PUSH2 0x3EB JUMP JUMPDEST JUMPDEST SWAP3 SWAP2 POP POP JUMP JUMPDEST PUSH1 0x0 DUP3 DUP3 MSTORE PUSH1 0x20 DUP3 ADD SWAP1 POP SWAP3 SWAP2 POP POP JUMP JUMPDEST PUSH32 0x4E6F7420656E6F7567682066756E647300000000000000000000000000000000 PUSH1 0x0 DUP3 ADD MSTORE POP JUMP JUMPDEST PUSH1 0x0 PUSH2 0x495 PUSH1 0x10 DUP4 PUSH2 0x44E JUMP JUMPDEST SWAP2 POP PUSH2 0x4A0 DUP3 PUSH2 0x45F JUMP JUMPDEST PUSH1 0x20 DUP3 ADD SWAP1 POP SWAP2 SWAP1 POP JUMP JUMPDEST PUSH1 0x0 PUSH1 0x20 DUP3 ADD SWAP1 POP DUP2 DUP2 SUB PUSH1 0x0 DUP4 ADD MSTORE PUSH2 0x4C4 DUP2 PUSH2 0x488 JUMP JUMPDEST SWAP1 POP SWAP2 SWAP1 POP JUMP JUMPDEST PUSH1 0x0 PUSH2 0x4D6 DUP3 PUSH2 0x27D JUMP JUMPDEST SWAP2 POP PUSH2 0x4E1 DUP4 PUSH2 0x27D JUMP JUMPDEST SWAP3 POP DUP3 DUP3 SUB SWAP1 POP DUP2 DUP2 GT ISZERO PUSH2 0x4F9 JUMPI PUSH2 0x4F8 PUSH2 0x3EB JUMP JUMPDEST JUMPDEST SWAP3 SWAP2 POP POP JUMP INVALID LOG2 PUSH5 0x6970667358 0x22 SLT KECCAK256 SLOAD SWAP3 0xAB 0xE9 NUMBER SHL DUP14 BLOCKHASH 0xE4 SUB 0xDD 0xDA DUP15 0xB8 0x21 NUMBER PUSH3 0x413F83 SWAP16 PUSH3 0x595CB6 PUSH12 0x4FD65E4EDDD964736F6C6343 STOP ADDMOD LT STOP CALLER "
				},
				"gasEstimates": {
					"creation": {
						"codeDepositCost": "266600",
						"executionCost": "306",
						"totalCost": "266906"
					},
					"external": {
						"AddressBalance(address)": "2814",
						"getBalance()": "317",
						"sendMoney()": "infinite",
						"withdrawMoney(address,uint256)": "infinite"
					}
				},
				"methodIdentifiers": {
					"AddressBalance(address)": "145f48be",
					"getBalance()": "12065fe0",
					"sendMoney()": "cbedbf5a",
					"withdrawMoney(address,uint256)": "f274c897"
				}
			},
			"storageLayout": {
				"storage": [
					{
						"astId": 8,
						"contract": "MyStructExamples2.sol:MappingsStructExample",
						"label": "AddressBalance",
						"offset": 0,
						"slot": "0",
						"type": "t_mapping(t_address,t_uint256)"
					}
				],
				"types": {
					"t_address": {
						"encoding": "inplace",
						"label": "address",
						"numberOfBytes": "20"
					},
					"t_mapping(t_address,t_uint256)": {
						"encoding": "mapping",
						"key": "t_address",
						"label": "mapping(address => uint256)",
						"numberOfBytes": "32",
						"value": "t_uint256"
					},
					"t_uint256": {
						"encoding": "inplace",
						"label": "uint256",
						"numberOfBytes": "32"
					}
				}
			},
			"userdoc": {
				"kind": "user",
				"methods": {},
				"version": 1
			}
		}
	}
}