{
	"MyChangeOwner.sol": {
		"MyChangeOwner": {
			"abi": [
				{
					"inputs": [],
					"stateMutability": "nonpayable",
					"type": "constructor"
				},
				{
					"inputs": [
						{
							"internalType": "address",
							"name": "_to",
							"type": "address"
						}
					],
					"name": "ChangeOwnerTo",
					"outputs": [],
					"stateMutability": "nonpayable",
					"type": "function"
				},
				{
					"inputs": [
						{
							"internalType": "address payable",
							"name": "_to",
							"type": "address"
						}
					],
					"name": "destroySmartContract",
					"outputs": [],
					"stateMutability": "nonpayable",
					"type": "function"
				},
				{
					"inputs": [],
					"name": "myContractBalance",
					"outputs": [
						{
							"internalType": "uint256",
							"name": "",
							"type": "uint256"
						}
					],
					"stateMutability": "view",
					"type": "function"
				},
				{
					"inputs": [],
					"name": "owner",
					"outputs": [
						{
							"internalType": "address",
							"name": "",
							"type": "address"
						}
					],
					"stateMutability": "view",
					"type": "function"
				},
				{
					"inputs": [],
					"name": "paused",
					"outputs": [
						{
							"internalType": "bool",
							"name": "",
							"type": "bool"
						}
					],
					"stateMutability": "view",
					"type": "function"
				},
				{
					"inputs": [],
					"name": "sendMoney",
					"outputs": [],
					"stateMutability": "payable",
					"type": "function"
				},
				{
					"inputs": [
						{
							"internalType": "bool",
							"name": "_paused",
							"type": "bool"
						}
					],
					"name": "setPaused",
					"outputs": [],
					"stateMutability": "nonpayable",
					"type": "function"
				},
				{
					"inputs": [
						{
							"internalType": "address payable",
							"name": "_to",
							"type": "address"
						}
					],
					"name": "withdrawAllMoney",
					"outputs": [],
					"stateMutability": "nonpayable",
					"type": "function"
				}
			],
			"devdoc": {
				"kind": "dev",
				"methods": {},
				"version": 1
			},
			"evm": {
				"assembly": "    /* \"MyChangeOwner.sol\":64:1109  contract MyChangeOwner {... */\n  mstore(0x40, 0x80)\n    /* \"MyChangeOwner.sol\":180:229  constructor() {... */\n  callvalue\n  dup1\n  iszero\n  tag_1\n  jumpi\n  0x00\n  dup1\n  revert\ntag_1:\n  pop\n    /* \"MyChangeOwner.sol\":212:222  msg.sender */\n  caller\n    /* \"MyChangeOwner.sol\":204:209  owner */\n  0x00\n  dup1\n    /* \"MyChangeOwner.sol\":204:222  owner = msg.sender */\n  0x0100\n  exp\n  dup2\n  sload\n  dup2\n  0xffffffffffffffffffffffffffffffffffffffff\n  mul\n  not\n  and\n  swap1\n  dup4\n  0xffffffffffffffffffffffffffffffffffffffff\n  and\n  mul\n  or\n  swap1\n  sstore\n  pop\n    /* \"MyChangeOwner.sol\":64:1109  contract MyChangeOwner {... */\n  dataSize(sub_0)\n  dup1\n  dataOffset(sub_0)\n  0x00\n  codecopy\n  0x00\n  return\nstop\n\nsub_0: assembly {\n        /* \"MyChangeOwner.sol\":64:1109  contract MyChangeOwner {... */\n      mstore(0x40, 0x80)\n      jumpi(tag_1, lt(calldatasize, 0x04))\n      shr(0xe0, calldataload(0x00))\n      dup1\n      0x5c975abb\n      gt\n      tag_10\n      jumpi\n      dup1\n      0x5c975abb\n      eq\n      tag_6\n      jumpi\n      dup1\n      0x8da5cb5b\n      eq\n      tag_7\n      jumpi\n      dup1\n      0xbc48fdad\n      eq\n      tag_8\n      jumpi\n      dup1\n      0xcbedbf5a\n      eq\n      tag_9\n      jumpi\n      jump(tag_1)\n    tag_10:\n      dup1\n      0x0adec93c\n      eq\n      tag_2\n      jumpi\n      dup1\n      0x16c38b3c\n      eq\n      tag_3\n      jumpi\n      dup1\n      0x2b6dcd77\n      eq\n      tag_4\n      jumpi\n      dup1\n      0x39df43ff\n      eq\n      tag_5\n      jumpi\n    tag_1:\n      0x00\n      dup1\n      revert\n        /* \"MyChangeOwner.sol\":482:719  function withdrawAllMoney(address payable _to) public {... */\n    tag_2:\n      callvalue\n      dup1\n      iszero\n      tag_11\n      jumpi\n      0x00\n      dup1\n      revert\n    tag_11:\n      pop\n      tag_12\n      0x04\n      dup1\n      calldatasize\n      sub\n      dup2\n      add\n      swap1\n      tag_13\n      swap2\n      swap1\n      tag_14\n      jump\t// in\n    tag_13:\n      tag_15\n      jump\t// in\n    tag_12:\n      stop\n        /* \"MyChangeOwner.sol\":324:476  function setPaused(bool _paused) public {... */\n    tag_3:\n      callvalue\n      dup1\n      iszero\n      tag_16\n      jumpi\n      0x00\n      dup1\n      revert\n    tag_16:\n      pop\n      tag_17\n      0x04\n      dup1\n      calldatasize\n      sub\n      dup2\n      add\n      swap1\n      tag_18\n      swap2\n      swap1\n      tag_19\n      jump\t// in\n    tag_18:\n      tag_20\n      jump\t// in\n    tag_17:\n      stop\n        /* \"MyChangeOwner.sol\":120:149  uint public myContractBalance */\n    tag_4:\n      callvalue\n      dup1\n      iszero\n      tag_21\n      jumpi\n      0x00\n      dup1\n      revert\n    tag_21:\n      pop\n      tag_22\n      tag_23\n      jump\t// in\n    tag_22:\n      mload(0x40)\n      tag_24\n      swap2\n      swap1\n      tag_25\n      jump\t// in\n    tag_24:\n      mload(0x40)\n      dup1\n      swap2\n      sub\n      swap1\n      return\n        /* \"MyChangeOwner.sol\":952:1107  function destroySmartContract(address payable _to) public {... */\n    tag_5:\n      callvalue\n      dup1\n      iszero\n      tag_26\n      jumpi\n      0x00\n      dup1\n      revert\n    tag_26:\n      pop\n      tag_27\n      0x04\n      dup1\n      calldatasize\n      sub\n      dup2\n      add\n      swap1\n      tag_28\n      swap2\n      swap1\n      tag_14\n      jump\t// in\n    tag_28:\n      tag_29\n      jump\t// in\n    tag_27:\n      stop\n        /* \"MyChangeOwner.sol\":155:173  bool public paused */\n    tag_6:\n      callvalue\n      dup1\n      iszero\n      tag_30\n      jumpi\n      0x00\n      dup1\n      revert\n    tag_30:\n      pop\n      tag_31\n      tag_32\n      jump\t// in\n    tag_31:\n      mload(0x40)\n      tag_33\n      swap2\n      swap1\n      tag_34\n      jump\t// in\n    tag_33:\n      mload(0x40)\n      dup1\n      swap2\n      sub\n      swap1\n      return\n        /* \"MyChangeOwner.sol\":94:114  address public owner */\n    tag_7:\n      callvalue\n      dup1\n      iszero\n      tag_35\n      jumpi\n      0x00\n      dup1\n      revert\n    tag_35:\n      pop\n      tag_36\n      tag_37\n      jump\t// in\n    tag_36:\n      mload(0x40)\n      tag_38\n      swap2\n      swap1\n      tag_39\n      jump\t// in\n    tag_38:\n      mload(0x40)\n      dup1\n      swap2\n      sub\n      swap1\n      return\n        /* \"MyChangeOwner.sol\":725:942  function ChangeOwnerTo(address _to) public {... */\n    tag_8:\n      callvalue\n      dup1\n      iszero\n      tag_40\n      jumpi\n      0x00\n      dup1\n      revert\n    tag_40:\n      pop\n      tag_41\n      0x04\n      dup1\n      calldatasize\n      sub\n      dup2\n      add\n      swap1\n      tag_42\n      swap2\n      swap1\n      tag_43\n      jump\t// in\n    tag_42:\n      tag_44\n      jump\t// in\n    tag_41:\n      stop\n        /* \"MyChangeOwner.sol\":235:318  function sendMoney() public payable {... */\n    tag_9:\n      tag_45\n      tag_46\n      jump\t// in\n    tag_45:\n      stop\n        /* \"MyChangeOwner.sol\":482:719  function withdrawAllMoney(address payable _to) public {... */\n    tag_15:\n        /* \"MyChangeOwner.sol\":563:573  msg.sender */\n      caller\n        /* \"MyChangeOwner.sol\":554:573  owner == msg.sender */\n      0xffffffffffffffffffffffffffffffffffffffff\n      and\n        /* \"MyChangeOwner.sol\":554:559  owner */\n      0x00\n      dup1\n      sload\n      swap1\n      0x0100\n      exp\n      swap1\n      div\n      0xffffffffffffffffffffffffffffffffffffffff\n      and\n        /* \"MyChangeOwner.sol\":554:573  owner == msg.sender */\n      0xffffffffffffffffffffffffffffffffffffffff\n      and\n      eq\n        /* \"MyChangeOwner.sol\":546:616  require(owner == msg.sender, \"Only the owner can initiate withdrawal\") */\n      tag_48\n      jumpi\n      mload(0x40)\n      0x08c379a000000000000000000000000000000000000000000000000000000000\n      dup2\n      mstore\n      0x04\n      add\n      tag_49\n      swap1\n      tag_50\n      jump\t// in\n    tag_49:\n      mload(0x40)\n      dup1\n      swap2\n      sub\n      swap1\n      revert\n    tag_48:\n        /* \"MyChangeOwner.sol\":635:641  paused */\n      0x02\n      0x00\n      swap1\n      sload\n      swap1\n      0x0100\n      exp\n      swap1\n      div\n      0xff\n      and\n        /* \"MyChangeOwner.sol\":634:641  !paused */\n      iszero\n        /* \"MyChangeOwner.sol\":626:667  require(!paused,\"The contract is paused\") */\n      tag_51\n      jumpi\n      mload(0x40)\n      0x08c379a000000000000000000000000000000000000000000000000000000000\n      dup2\n      mstore\n      0x04\n      add\n      tag_52\n      swap1\n      tag_53\n      jump\t// in\n    tag_52:\n      mload(0x40)\n      dup1\n      swap2\n      sub\n      swap1\n      revert\n    tag_51:\n        /* \"MyChangeOwner.sol\":677:680  _to */\n      dup1\n        /* \"MyChangeOwner.sol\":677:689  _to.transfer */\n      0xffffffffffffffffffffffffffffffffffffffff\n      and\n        /* \"MyChangeOwner.sol\":677:712  _to.transfer(address(this).balance) */\n      0x08fc\n        /* \"MyChangeOwner.sol\":690:711  address(this).balance */\n      selfbalance\n        /* \"MyChangeOwner.sol\":677:712  _to.transfer(address(this).balance) */\n      swap1\n      dup2\n      iszero\n      mul\n      swap1\n      mload(0x40)\n      0x00\n      mload(0x40)\n      dup1\n      dup4\n      sub\n      dup2\n      dup6\n      dup9\n      dup9\n      call\n      swap4\n      pop\n      pop\n      pop\n      pop\n      iszero\n      dup1\n      iszero\n      tag_55\n      jumpi\n      returndatasize\n      0x00\n      dup1\n      returndatacopy\n      revert(0x00, returndatasize)\n    tag_55:\n      pop\n        /* \"MyChangeOwner.sol\":482:719  function withdrawAllMoney(address payable _to) public {... */\n      pop\n      jump\t// out\n        /* \"MyChangeOwner.sol\":324:476  function setPaused(bool _paused) public {... */\n    tag_20:\n        /* \"MyChangeOwner.sol\":396:401  owner */\n      0x00\n      dup1\n      sload\n      swap1\n      0x0100\n      exp\n      swap1\n      div\n      0xffffffffffffffffffffffffffffffffffffffff\n      and\n        /* \"MyChangeOwner.sol\":382:401  msg.sender == owner */\n      0xffffffffffffffffffffffffffffffffffffffff\n      and\n        /* \"MyChangeOwner.sol\":382:392  msg.sender */\n      caller\n        /* \"MyChangeOwner.sol\":382:401  msg.sender == owner */\n      0xffffffffffffffffffffffffffffffffffffffff\n      and\n      eq\n        /* \"MyChangeOwner.sol\":374:443  require(msg.sender == owner, \"Only the owner can pause the contract\") */\n      tag_57\n      jumpi\n      mload(0x40)\n      0x08c379a000000000000000000000000000000000000000000000000000000000\n      dup2\n      mstore\n      0x04\n      add\n      tag_58\n      swap1\n      tag_59\n      jump\t// in\n    tag_58:\n      mload(0x40)\n      dup1\n      swap2\n      sub\n      swap1\n      revert\n    tag_57:\n        /* \"MyChangeOwner.sol\":462:469  _paused */\n      dup1\n        /* \"MyChangeOwner.sol\":453:459  paused */\n      0x02\n      0x00\n        /* \"MyChangeOwner.sol\":453:469  paused = _paused */\n      0x0100\n      exp\n      dup2\n      sload\n      dup2\n      0xff\n      mul\n      not\n      and\n      swap1\n      dup4\n      iszero\n      iszero\n      mul\n      or\n      swap1\n      sstore\n      pop\n        /* \"MyChangeOwner.sol\":324:476  function setPaused(bool _paused) public {... */\n      pop\n      jump\t// out\n        /* \"MyChangeOwner.sol\":120:149  uint public myContractBalance */\n    tag_23:\n      sload(0x01)\n      dup2\n      jump\t// out\n        /* \"MyChangeOwner.sol\":952:1107  function destroySmartContract(address payable _to) public {... */\n    tag_29:\n        /* \"MyChangeOwner.sol\":1042:1047  owner */\n      0x00\n      dup1\n      sload\n      swap1\n      0x0100\n      exp\n      swap1\n      div\n      0xffffffffffffffffffffffffffffffffffffffff\n      and\n        /* \"MyChangeOwner.sol\":1028:1047  msg.sender == owner */\n      0xffffffffffffffffffffffffffffffffffffffff\n      and\n        /* \"MyChangeOwner.sol\":1028:1038  msg.sender */\n      caller\n        /* \"MyChangeOwner.sol\":1028:1047  msg.sender == owner */\n      0xffffffffffffffffffffffffffffffffffffffff\n      and\n      eq\n        /* \"MyChangeOwner.sol\":1020:1073  require(msg.sender == owner, \"You are not the owner\") */\n      tag_61\n      jumpi\n      mload(0x40)\n      0x08c379a000000000000000000000000000000000000000000000000000000000\n      dup2\n      mstore\n      0x04\n      add\n      tag_62\n      swap1\n      tag_63\n      jump\t// in\n    tag_62:\n      mload(0x40)\n      dup1\n      swap2\n      sub\n      swap1\n      revert\n    tag_61:\n        /* \"MyChangeOwner.sol\":1096:1099  _to */\n      dup1\n        /* \"MyChangeOwner.sol\":1083:1100  selfdestruct(_to) */\n      0xffffffffffffffffffffffffffffffffffffffff\n      and\n      selfdestruct\n        /* \"MyChangeOwner.sol\":155:173  bool public paused */\n    tag_32:\n      0x02\n      0x00\n      swap1\n      sload\n      swap1\n      0x0100\n      exp\n      swap1\n      div\n      0xff\n      and\n      dup2\n      jump\t// out\n        /* \"MyChangeOwner.sol\":94:114  address public owner */\n    tag_37:\n      0x00\n      dup1\n      sload\n      swap1\n      0x0100\n      exp\n      swap1\n      div\n      0xffffffffffffffffffffffffffffffffffffffff\n      and\n      dup2\n      jump\t// out\n        /* \"MyChangeOwner.sol\":725:942  function ChangeOwnerTo(address _to) public {... */\n    tag_44:\n        /* \"MyChangeOwner.sol\":795:805  msg.sender */\n      caller\n        /* \"MyChangeOwner.sol\":786:805  owner == msg.sender */\n      0xffffffffffffffffffffffffffffffffffffffff\n      and\n        /* \"MyChangeOwner.sol\":786:791  owner */\n      0x00\n      dup1\n      sload\n      swap1\n      0x0100\n      exp\n      swap1\n      div\n      0xffffffffffffffffffffffffffffffffffffffff\n      and\n        /* \"MyChangeOwner.sol\":786:805  owner == msg.sender */\n      0xffffffffffffffffffffffffffffffffffffffff\n      and\n      eq\n        /* \"MyChangeOwner.sol\":778:863  require(owner == msg.sender, \"Only the owner can change the contract to a new owner\") */\n      tag_65\n      jumpi\n      mload(0x40)\n      0x08c379a000000000000000000000000000000000000000000000000000000000\n      dup2\n      mstore\n      0x04\n      add\n      tag_66\n      swap1\n      tag_67\n      jump\t// in\n    tag_66:\n      mload(0x40)\n      dup1\n      swap2\n      sub\n      swap1\n      revert\n    tag_65:\n        /* \"MyChangeOwner.sol\":882:888  paused */\n      0x02\n      0x00\n      swap1\n      sload\n      swap1\n      0x0100\n      exp\n      swap1\n      div\n      0xff\n      and\n        /* \"MyChangeOwner.sol\":881:888  !paused */\n      iszero\n        /* \"MyChangeOwner.sol\":873:914  require(!paused,\"The contract is paused\") */\n      tag_68\n      jumpi\n      mload(0x40)\n      0x08c379a000000000000000000000000000000000000000000000000000000000\n      dup2\n      mstore\n      0x04\n      add\n      tag_69\n      swap1\n      tag_53\n      jump\t// in\n    tag_69:\n      mload(0x40)\n      dup1\n      swap2\n      sub\n      swap1\n      revert\n    tag_68:\n        /* \"MyChangeOwner.sol\":932:935  _to */\n      dup1\n        /* \"MyChangeOwner.sol\":924:929  owner */\n      0x00\n      dup1\n        /* \"MyChangeOwner.sol\":924:935  owner = _to */\n      0x0100\n      exp\n      dup2\n      sload\n      dup2\n      0xffffffffffffffffffffffffffffffffffffffff\n      mul\n      not\n      and\n      swap1\n      dup4\n      0xffffffffffffffffffffffffffffffffffffffff\n      and\n      mul\n      or\n      swap1\n      sstore\n      pop\n        /* \"MyChangeOwner.sol\":725:942  function ChangeOwnerTo(address _to) public {... */\n      pop\n      jump\t// out\n        /* \"MyChangeOwner.sol\":235:318  function sendMoney() public payable {... */\n    tag_46:\n        /* \"MyChangeOwner.sol\":302:311  msg.value */\n      callvalue\n        /* \"MyChangeOwner.sol\":281:298  myContractBalance */\n      0x01\n      0x00\n        /* \"MyChangeOwner.sol\":281:311  myContractBalance += msg.value */\n      dup3\n      dup3\n      sload\n      tag_71\n      swap2\n      swap1\n      tag_72\n      jump\t// in\n    tag_71:\n      swap3\n      pop\n      pop\n      dup2\n      swap1\n      sstore\n      pop\n        /* \"MyChangeOwner.sol\":235:318  function sendMoney() public payable {... */\n      jump\t// out\n        /* \"#utility.yul\":88:205   */\n    tag_74:\n        /* \"#utility.yul\":197:198   */\n      0x00\n        /* \"#utility.yul\":194:195   */\n      dup1\n        /* \"#utility.yul\":187:199   */\n      revert\n        /* \"#utility.yul\":334:460   */\n    tag_76:\n        /* \"#utility.yul\":371:378   */\n      0x00\n        /* \"#utility.yul\":411:453   */\n      0xffffffffffffffffffffffffffffffffffffffff\n        /* \"#utility.yul\":404:409   */\n      dup3\n        /* \"#utility.yul\":400:454   */\n      and\n        /* \"#utility.yul\":389:454   */\n      swap1\n      pop\n        /* \"#utility.yul\":334:460   */\n      swap2\n      swap1\n      pop\n      jump\t// out\n        /* \"#utility.yul\":466:570   */\n    tag_77:\n        /* \"#utility.yul\":511:518   */\n      0x00\n        /* \"#utility.yul\":540:564   */\n      tag_108\n        /* \"#utility.yul\":558:563   */\n      dup3\n        /* \"#utility.yul\":540:564   */\n      tag_76\n      jump\t// in\n    tag_108:\n        /* \"#utility.yul\":529:564   */\n      swap1\n      pop\n        /* \"#utility.yul\":466:570   */\n      swap2\n      swap1\n      pop\n      jump\t// out\n        /* \"#utility.yul\":576:714   */\n    tag_78:\n        /* \"#utility.yul\":657:689   */\n      tag_110\n        /* \"#utility.yul\":683:688   */\n      dup2\n        /* \"#utility.yul\":657:689   */\n      tag_77\n      jump\t// in\n    tag_110:\n        /* \"#utility.yul\":650:655   */\n      dup2\n        /* \"#utility.yul\":647:690   */\n      eq\n        /* \"#utility.yul\":637:708   */\n      tag_111\n      jumpi\n        /* \"#utility.yul\":704:705   */\n      0x00\n        /* \"#utility.yul\":701:702   */\n      dup1\n        /* \"#utility.yul\":694:706   */\n      revert\n        /* \"#utility.yul\":637:708   */\n    tag_111:\n        /* \"#utility.yul\":576:714   */\n      pop\n      jump\t// out\n        /* \"#utility.yul\":720:875   */\n    tag_79:\n        /* \"#utility.yul\":774:779   */\n      0x00\n        /* \"#utility.yul\":812:818   */\n      dup2\n        /* \"#utility.yul\":799:819   */\n      calldataload\n        /* \"#utility.yul\":790:819   */\n      swap1\n      pop\n        /* \"#utility.yul\":828:869   */\n      tag_113\n        /* \"#utility.yul\":863:868   */\n      dup2\n        /* \"#utility.yul\":828:869   */\n      tag_78\n      jump\t// in\n    tag_113:\n        /* \"#utility.yul\":720:875   */\n      swap3\n      swap2\n      pop\n      pop\n      jump\t// out\n        /* \"#utility.yul\":881:1226   */\n    tag_14:\n        /* \"#utility.yul\":948:954   */\n      0x00\n        /* \"#utility.yul\":997:999   */\n      0x20\n        /* \"#utility.yul\":985:994   */\n      dup3\n        /* \"#utility.yul\":976:983   */\n      dup5\n        /* \"#utility.yul\":972:995   */\n      sub\n        /* \"#utility.yul\":968:1000   */\n      slt\n        /* \"#utility.yul\":965:1084   */\n      iszero\n      tag_115\n      jumpi\n        /* \"#utility.yul\":1003:1082   */\n      tag_116\n      tag_74\n      jump\t// in\n    tag_116:\n        /* \"#utility.yul\":965:1084   */\n    tag_115:\n        /* \"#utility.yul\":1123:1124   */\n      0x00\n        /* \"#utility.yul\":1148:1209   */\n      tag_117\n        /* \"#utility.yul\":1201:1208   */\n      dup5\n        /* \"#utility.yul\":1192:1198   */\n      dup3\n        /* \"#utility.yul\":1181:1190   */\n      dup6\n        /* \"#utility.yul\":1177:1199   */\n      add\n        /* \"#utility.yul\":1148:1209   */\n      tag_79\n      jump\t// in\n    tag_117:\n        /* \"#utility.yul\":1138:1209   */\n      swap2\n      pop\n        /* \"#utility.yul\":1094:1219   */\n      pop\n        /* \"#utility.yul\":881:1226   */\n      swap3\n      swap2\n      pop\n      pop\n      jump\t// out\n        /* \"#utility.yul\":1232:1322   */\n    tag_80:\n        /* \"#utility.yul\":1266:1273   */\n      0x00\n        /* \"#utility.yul\":1309:1314   */\n      dup2\n        /* \"#utility.yul\":1302:1315   */\n      iszero\n        /* \"#utility.yul\":1295:1316   */\n      iszero\n        /* \"#utility.yul\":1284:1316   */\n      swap1\n      pop\n        /* \"#utility.yul\":1232:1322   */\n      swap2\n      swap1\n      pop\n      jump\t// out\n        /* \"#utility.yul\":1328:1444   */\n    tag_81:\n        /* \"#utility.yul\":1398:1419   */\n      tag_120\n        /* \"#utility.yul\":1413:1418   */\n      dup2\n        /* \"#utility.yul\":1398:1419   */\n      tag_80\n      jump\t// in\n    tag_120:\n        /* \"#utility.yul\":1391:1396   */\n      dup2\n        /* \"#utility.yul\":1388:1420   */\n      eq\n        /* \"#utility.yul\":1378:1438   */\n      tag_121\n      jumpi\n        /* \"#utility.yul\":1434:1435   */\n      0x00\n        /* \"#utility.yul\":1431:1432   */\n      dup1\n        /* \"#utility.yul\":1424:1436   */\n      revert\n        /* \"#utility.yul\":1378:1438   */\n    tag_121:\n        /* \"#utility.yul\":1328:1444   */\n      pop\n      jump\t// out\n        /* \"#utility.yul\":1450:1583   */\n    tag_82:\n        /* \"#utility.yul\":1493:1498   */\n      0x00\n        /* \"#utility.yul\":1531:1537   */\n      dup2\n        /* \"#utility.yul\":1518:1538   */\n      calldataload\n        /* \"#utility.yul\":1509:1538   */\n      swap1\n      pop\n        /* \"#utility.yul\":1547:1577   */\n      tag_123\n        /* \"#utility.yul\":1571:1576   */\n      dup2\n        /* \"#utility.yul\":1547:1577   */\n      tag_81\n      jump\t// in\n    tag_123:\n        /* \"#utility.yul\":1450:1583   */\n      swap3\n      swap2\n      pop\n      pop\n      jump\t// out\n        /* \"#utility.yul\":1589:1912   */\n    tag_19:\n        /* \"#utility.yul\":1645:1651   */\n      0x00\n        /* \"#utility.yul\":1694:1696   */\n      0x20\n        /* \"#utility.yul\":1682:1691   */\n      dup3\n        /* \"#utility.yul\":1673:1680   */\n      dup5\n        /* \"#utility.yul\":1669:1692   */\n      sub\n        /* \"#utility.yul\":1665:1697   */\n      slt\n        /* \"#utility.yul\":1662:1781   */\n      iszero\n      tag_125\n      jumpi\n        /* \"#utility.yul\":1700:1779   */\n      tag_126\n      tag_74\n      jump\t// in\n    tag_126:\n        /* \"#utility.yul\":1662:1781   */\n    tag_125:\n        /* \"#utility.yul\":1820:1821   */\n      0x00\n        /* \"#utility.yul\":1845:1895   */\n      tag_127\n        /* \"#utility.yul\":1887:1894   */\n      dup5\n        /* \"#utility.yul\":1878:1884   */\n      dup3\n        /* \"#utility.yul\":1867:1876   */\n      dup6\n        /* \"#utility.yul\":1863:1885   */\n      add\n        /* \"#utility.yul\":1845:1895   */\n      tag_82\n      jump\t// in\n    tag_127:\n        /* \"#utility.yul\":1835:1895   */\n      swap2\n      pop\n        /* \"#utility.yul\":1791:1905   */\n      pop\n        /* \"#utility.yul\":1589:1912   */\n      swap3\n      swap2\n      pop\n      pop\n      jump\t// out\n        /* \"#utility.yul\":1918:1995   */\n    tag_83:\n        /* \"#utility.yul\":1955:1962   */\n      0x00\n        /* \"#utility.yul\":1984:1989   */\n      dup2\n        /* \"#utility.yul\":1973:1989   */\n      swap1\n      pop\n        /* \"#utility.yul\":1918:1995   */\n      swap2\n      swap1\n      pop\n      jump\t// out\n        /* \"#utility.yul\":2001:2119   */\n    tag_84:\n        /* \"#utility.yul\":2088:2112   */\n      tag_130\n        /* \"#utility.yul\":2106:2111   */\n      dup2\n        /* \"#utility.yul\":2088:2112   */\n      tag_83\n      jump\t// in\n    tag_130:\n        /* \"#utility.yul\":2083:2086   */\n      dup3\n        /* \"#utility.yul\":2076:2113   */\n      mstore\n        /* \"#utility.yul\":2001:2119   */\n      pop\n      pop\n      jump\t// out\n        /* \"#utility.yul\":2125:2347   */\n    tag_25:\n        /* \"#utility.yul\":2218:2222   */\n      0x00\n        /* \"#utility.yul\":2256:2258   */\n      0x20\n        /* \"#utility.yul\":2245:2254   */\n      dup3\n        /* \"#utility.yul\":2241:2259   */\n      add\n        /* \"#utility.yul\":2233:2259   */\n      swap1\n      pop\n        /* \"#utility.yul\":2269:2340   */\n      tag_132\n        /* \"#utility.yul\":2337:2338   */\n      0x00\n        /* \"#utility.yul\":2326:2335   */\n      dup4\n        /* \"#utility.yul\":2322:2339   */\n      add\n        /* \"#utility.yul\":2313:2319   */\n      dup5\n        /* \"#utility.yul\":2269:2340   */\n      tag_84\n      jump\t// in\n    tag_132:\n        /* \"#utility.yul\":2125:2347   */\n      swap3\n      swap2\n      pop\n      pop\n      jump\t// out\n        /* \"#utility.yul\":2353:2462   */\n    tag_85:\n        /* \"#utility.yul\":2434:2455   */\n      tag_134\n        /* \"#utility.yul\":2449:2454   */\n      dup2\n        /* \"#utility.yul\":2434:2455   */\n      tag_80\n      jump\t// in\n    tag_134:\n        /* \"#utility.yul\":2429:2432   */\n      dup3\n        /* \"#utility.yul\":2422:2456   */\n      mstore\n        /* \"#utility.yul\":2353:2462   */\n      pop\n      pop\n      jump\t// out\n        /* \"#utility.yul\":2468:2678   */\n    tag_34:\n        /* \"#utility.yul\":2555:2559   */\n      0x00\n        /* \"#utility.yul\":2593:2595   */\n      0x20\n        /* \"#utility.yul\":2582:2591   */\n      dup3\n        /* \"#utility.yul\":2578:2596   */\n      add\n        /* \"#utility.yul\":2570:2596   */\n      swap1\n      pop\n        /* \"#utility.yul\":2606:2671   */\n      tag_136\n        /* \"#utility.yul\":2668:2669   */\n      0x00\n        /* \"#utility.yul\":2657:2666   */\n      dup4\n        /* \"#utility.yul\":2653:2670   */\n      add\n        /* \"#utility.yul\":2644:2650   */\n      dup5\n        /* \"#utility.yul\":2606:2671   */\n      tag_85\n      jump\t// in\n    tag_136:\n        /* \"#utility.yul\":2468:2678   */\n      swap3\n      swap2\n      pop\n      pop\n      jump\t// out\n        /* \"#utility.yul\":2684:2780   */\n    tag_86:\n        /* \"#utility.yul\":2721:2728   */\n      0x00\n        /* \"#utility.yul\":2750:2774   */\n      tag_138\n        /* \"#utility.yul\":2768:2773   */\n      dup3\n        /* \"#utility.yul\":2750:2774   */\n      tag_76\n      jump\t// in\n    tag_138:\n        /* \"#utility.yul\":2739:2774   */\n      swap1\n      pop\n        /* \"#utility.yul\":2684:2780   */\n      swap2\n      swap1\n      pop\n      jump\t// out\n        /* \"#utility.yul\":2786:2904   */\n    tag_87:\n        /* \"#utility.yul\":2873:2897   */\n      tag_140\n        /* \"#utility.yul\":2891:2896   */\n      dup2\n        /* \"#utility.yul\":2873:2897   */\n      tag_86\n      jump\t// in\n    tag_140:\n        /* \"#utility.yul\":2868:2871   */\n      dup3\n        /* \"#utility.yul\":2861:2898   */\n      mstore\n        /* \"#utility.yul\":2786:2904   */\n      pop\n      pop\n      jump\t// out\n        /* \"#utility.yul\":2910:3132   */\n    tag_39:\n        /* \"#utility.yul\":3003:3007   */\n      0x00\n        /* \"#utility.yul\":3041:3043   */\n      0x20\n        /* \"#utility.yul\":3030:3039   */\n      dup3\n        /* \"#utility.yul\":3026:3044   */\n      add\n        /* \"#utility.yul\":3018:3044   */\n      swap1\n      pop\n        /* \"#utility.yul\":3054:3125   */\n      tag_142\n        /* \"#utility.yul\":3122:3123   */\n      0x00\n        /* \"#utility.yul\":3111:3120   */\n      dup4\n        /* \"#utility.yul\":3107:3124   */\n      add\n        /* \"#utility.yul\":3098:3104   */\n      dup5\n        /* \"#utility.yul\":3054:3125   */\n      tag_87\n      jump\t// in\n    tag_142:\n        /* \"#utility.yul\":2910:3132   */\n      swap3\n      swap2\n      pop\n      pop\n      jump\t// out\n        /* \"#utility.yul\":3138:3260   */\n    tag_88:\n        /* \"#utility.yul\":3211:3235   */\n      tag_144\n        /* \"#utility.yul\":3229:3234   */\n      dup2\n        /* \"#utility.yul\":3211:3235   */\n      tag_86\n      jump\t// in\n    tag_144:\n        /* \"#utility.yul\":3204:3209   */\n      dup2\n        /* \"#utility.yul\":3201:3236   */\n      eq\n        /* \"#utility.yul\":3191:3254   */\n      tag_145\n      jumpi\n        /* \"#utility.yul\":3250:3251   */\n      0x00\n        /* \"#utility.yul\":3247:3248   */\n      dup1\n        /* \"#utility.yul\":3240:3252   */\n      revert\n        /* \"#utility.yul\":3191:3254   */\n    tag_145:\n        /* \"#utility.yul\":3138:3260   */\n      pop\n      jump\t// out\n        /* \"#utility.yul\":3266:3405   */\n    tag_89:\n        /* \"#utility.yul\":3312:3317   */\n      0x00\n        /* \"#utility.yul\":3350:3356   */\n      dup2\n        /* \"#utility.yul\":3337:3357   */\n      calldataload\n        /* \"#utility.yul\":3328:3357   */\n      swap1\n      pop\n        /* \"#utility.yul\":3366:3399   */\n      tag_147\n        /* \"#utility.yul\":3393:3398   */\n      dup2\n        /* \"#utility.yul\":3366:3399   */\n      tag_88\n      jump\t// in\n    tag_147:\n        /* \"#utility.yul\":3266:3405   */\n      swap3\n      swap2\n      pop\n      pop\n      jump\t// out\n        /* \"#utility.yul\":3411:3740   */\n    tag_43:\n        /* \"#utility.yul\":3470:3476   */\n      0x00\n        /* \"#utility.yul\":3519:3521   */\n      0x20\n        /* \"#utility.yul\":3507:3516   */\n      dup3\n        /* \"#utility.yul\":3498:3505   */\n      dup5\n        /* \"#utility.yul\":3494:3517   */\n      sub\n        /* \"#utility.yul\":3490:3522   */\n      slt\n        /* \"#utility.yul\":3487:3606   */\n      iszero\n      tag_149\n      jumpi\n        /* \"#utility.yul\":3525:3604   */\n      tag_150\n      tag_74\n      jump\t// in\n    tag_150:\n        /* \"#utility.yul\":3487:3606   */\n    tag_149:\n        /* \"#utility.yul\":3645:3646   */\n      0x00\n        /* \"#utility.yul\":3670:3723   */\n      tag_151\n        /* \"#utility.yul\":3715:3722   */\n      dup5\n        /* \"#utility.yul\":3706:3712   */\n      dup3\n        /* \"#utility.yul\":3695:3704   */\n      dup6\n        /* \"#utility.yul\":3691:3713   */\n      add\n        /* \"#utility.yul\":3670:3723   */\n      tag_89\n      jump\t// in\n    tag_151:\n        /* \"#utility.yul\":3660:3723   */\n      swap2\n      pop\n        /* \"#utility.yul\":3616:3733   */\n      pop\n        /* \"#utility.yul\":3411:3740   */\n      swap3\n      swap2\n      pop\n      pop\n      jump\t// out\n        /* \"#utility.yul\":3746:3915   */\n    tag_90:\n        /* \"#utility.yul\":3830:3841   */\n      0x00\n        /* \"#utility.yul\":3864:3870   */\n      dup3\n        /* \"#utility.yul\":3859:3862   */\n      dup3\n        /* \"#utility.yul\":3852:3871   */\n      mstore\n        /* \"#utility.yul\":3904:3908   */\n      0x20\n        /* \"#utility.yul\":3899:3902   */\n      dup3\n        /* \"#utility.yul\":3895:3909   */\n      add\n        /* \"#utility.yul\":3880:3909   */\n      swap1\n      pop\n        /* \"#utility.yul\":3746:3915   */\n      swap3\n      swap2\n      pop\n      pop\n      jump\t// out\n        /* \"#utility.yul\":3921:4146   */\n    tag_91:\n        /* \"#utility.yul\":4061:4095   */\n      0x4f6e6c7920746865206f776e65722063616e20696e6974696174652077697468\n        /* \"#utility.yul\":4057:4058   */\n      0x00\n        /* \"#utility.yul\":4049:4055   */\n      dup3\n        /* \"#utility.yul\":4045:4059   */\n      add\n        /* \"#utility.yul\":4038:4096   */\n      mstore\n        /* \"#utility.yul\":4130:4138   */\n      0x64726177616c0000000000000000000000000000000000000000000000000000\n        /* \"#utility.yul\":4125:4127   */\n      0x20\n        /* \"#utility.yul\":4117:4123   */\n      dup3\n        /* \"#utility.yul\":4113:4128   */\n      add\n        /* \"#utility.yul\":4106:4139   */\n      mstore\n        /* \"#utility.yul\":3921:4146   */\n      pop\n      jump\t// out\n        /* \"#utility.yul\":4152:4518   */\n    tag_92:\n        /* \"#utility.yul\":4294:4297   */\n      0x00\n        /* \"#utility.yul\":4315:4382   */\n      tag_155\n        /* \"#utility.yul\":4379:4381   */\n      0x26\n        /* \"#utility.yul\":4374:4377   */\n      dup4\n        /* \"#utility.yul\":4315:4382   */\n      tag_90\n      jump\t// in\n    tag_155:\n        /* \"#utility.yul\":4308:4382   */\n      swap2\n      pop\n        /* \"#utility.yul\":4391:4484   */\n      tag_156\n        /* \"#utility.yul\":4480:4483   */\n      dup3\n        /* \"#utility.yul\":4391:4484   */\n      tag_91\n      jump\t// in\n    tag_156:\n        /* \"#utility.yul\":4509:4511   */\n      0x40\n        /* \"#utility.yul\":4504:4507   */\n      dup3\n        /* \"#utility.yul\":4500:4512   */\n      add\n        /* \"#utility.yul\":4493:4512   */\n      swap1\n      pop\n        /* \"#utility.yul\":4152:4518   */\n      swap2\n      swap1\n      pop\n      jump\t// out\n        /* \"#utility.yul\":4524:4943   */\n    tag_50:\n        /* \"#utility.yul\":4690:4694   */\n      0x00\n        /* \"#utility.yul\":4728:4730   */\n      0x20\n        /* \"#utility.yul\":4717:4726   */\n      dup3\n        /* \"#utility.yul\":4713:4731   */\n      add\n        /* \"#utility.yul\":4705:4731   */\n      swap1\n      pop\n        /* \"#utility.yul\":4777:4786   */\n      dup2\n        /* \"#utility.yul\":4771:4775   */\n      dup2\n        /* \"#utility.yul\":4767:4787   */\n      sub\n        /* \"#utility.yul\":4763:4764   */\n      0x00\n        /* \"#utility.yul\":4752:4761   */\n      dup4\n        /* \"#utility.yul\":4748:4765   */\n      add\n        /* \"#utility.yul\":4741:4788   */\n      mstore\n        /* \"#utility.yul\":4805:4936   */\n      tag_158\n        /* \"#utility.yul\":4931:4935   */\n      dup2\n        /* \"#utility.yul\":4805:4936   */\n      tag_92\n      jump\t// in\n    tag_158:\n        /* \"#utility.yul\":4797:4936   */\n      swap1\n      pop\n        /* \"#utility.yul\":4524:4943   */\n      swap2\n      swap1\n      pop\n      jump\t// out\n        /* \"#utility.yul\":4949:5121   */\n    tag_93:\n        /* \"#utility.yul\":5089:5113   */\n      0x54686520636f6e74726163742069732070617573656400000000000000000000\n        /* \"#utility.yul\":5085:5086   */\n      0x00\n        /* \"#utility.yul\":5077:5083   */\n      dup3\n        /* \"#utility.yul\":5073:5087   */\n      add\n        /* \"#utility.yul\":5066:5114   */\n      mstore\n        /* \"#utility.yul\":4949:5121   */\n      pop\n      jump\t// out\n        /* \"#utility.yul\":5127:5493   */\n    tag_94:\n        /* \"#utility.yul\":5269:5272   */\n      0x00\n        /* \"#utility.yul\":5290:5357   */\n      tag_161\n        /* \"#utility.yul\":5354:5356   */\n      0x16\n        /* \"#utility.yul\":5349:5352   */\n      dup4\n        /* \"#utility.yul\":5290:5357   */\n      tag_90\n      jump\t// in\n    tag_161:\n        /* \"#utility.yul\":5283:5357   */\n      swap2\n      pop\n        /* \"#utility.yul\":5366:5459   */\n      tag_162\n        /* \"#utility.yul\":5455:5458   */\n      dup3\n        /* \"#utility.yul\":5366:5459   */\n      tag_93\n      jump\t// in\n    tag_162:\n        /* \"#utility.yul\":5484:5486   */\n      0x20\n        /* \"#utility.yul\":5479:5482   */\n      dup3\n        /* \"#utility.yul\":5475:5487   */\n      add\n        /* \"#utility.yul\":5468:5487   */\n      swap1\n      pop\n        /* \"#utility.yul\":5127:5493   */\n      swap2\n      swap1\n      pop\n      jump\t// out\n        /* \"#utility.yul\":5499:5918   */\n    tag_53:\n        /* \"#utility.yul\":5665:5669   */\n      0x00\n        /* \"#utility.yul\":5703:5705   */\n      0x20\n        /* \"#utility.yul\":5692:5701   */\n      dup3\n        /* \"#utility.yul\":5688:5706   */\n      add\n        /* \"#utility.yul\":5680:5706   */\n      swap1\n      pop\n        /* \"#utility.yul\":5752:5761   */\n      dup2\n        /* \"#utility.yul\":5746:5750   */\n      dup2\n        /* \"#utility.yul\":5742:5762   */\n      sub\n        /* \"#utility.yul\":5738:5739   */\n      0x00\n        /* \"#utility.yul\":5727:5736   */\n      dup4\n        /* \"#utility.yul\":5723:5740   */\n      add\n        /* \"#utility.yul\":5716:5763   */\n      mstore\n        /* \"#utility.yul\":5780:5911   */\n      tag_164\n        /* \"#utility.yul\":5906:5910   */\n      dup2\n        /* \"#utility.yul\":5780:5911   */\n      tag_94\n      jump\t// in\n    tag_164:\n        /* \"#utility.yul\":5772:5911   */\n      swap1\n      pop\n        /* \"#utility.yul\":5499:5918   */\n      swap2\n      swap1\n      pop\n      jump\t// out\n        /* \"#utility.yul\":5924:6148   */\n    tag_95:\n        /* \"#utility.yul\":6064:6098   */\n      0x4f6e6c7920746865206f776e65722063616e2070617573652074686520636f6e\n        /* \"#utility.yul\":6060:6061   */\n      0x00\n        /* \"#utility.yul\":6052:6058   */\n      dup3\n        /* \"#utility.yul\":6048:6062   */\n      add\n        /* \"#utility.yul\":6041:6099   */\n      mstore\n        /* \"#utility.yul\":6133:6140   */\n      0x7472616374000000000000000000000000000000000000000000000000000000\n        /* \"#utility.yul\":6128:6130   */\n      0x20\n        /* \"#utility.yul\":6120:6126   */\n      dup3\n        /* \"#utility.yul\":6116:6131   */\n      add\n        /* \"#utility.yul\":6109:6141   */\n      mstore\n        /* \"#utility.yul\":5924:6148   */\n      pop\n      jump\t// out\n        /* \"#utility.yul\":6154:6520   */\n    tag_96:\n        /* \"#utility.yul\":6296:6299   */\n      0x00\n        /* \"#utility.yul\":6317:6384   */\n      tag_167\n        /* \"#utility.yul\":6381:6383   */\n      0x25\n        /* \"#utility.yul\":6376:6379   */\n      dup4\n        /* \"#utility.yul\":6317:6384   */\n      tag_90\n      jump\t// in\n    tag_167:\n        /* \"#utility.yul\":6310:6384   */\n      swap2\n      pop\n        /* \"#utility.yul\":6393:6486   */\n      tag_168\n        /* \"#utility.yul\":6482:6485   */\n      dup3\n        /* \"#utility.yul\":6393:6486   */\n      tag_95\n      jump\t// in\n    tag_168:\n        /* \"#utility.yul\":6511:6513   */\n      0x40\n        /* \"#utility.yul\":6506:6509   */\n      dup3\n        /* \"#utility.yul\":6502:6514   */\n      add\n        /* \"#utility.yul\":6495:6514   */\n      swap1\n      pop\n        /* \"#utility.yul\":6154:6520   */\n      swap2\n      swap1\n      pop\n      jump\t// out\n        /* \"#utility.yul\":6526:6945   */\n    tag_59:\n        /* \"#utility.yul\":6692:6696   */\n      0x00\n        /* \"#utility.yul\":6730:6732   */\n      0x20\n        /* \"#utility.yul\":6719:6728   */\n      dup3\n        /* \"#utility.yul\":6715:6733   */\n      add\n        /* \"#utility.yul\":6707:6733   */\n      swap1\n      pop\n        /* \"#utility.yul\":6779:6788   */\n      dup2\n        /* \"#utility.yul\":6773:6777   */\n      dup2\n        /* \"#utility.yul\":6769:6789   */\n      sub\n        /* \"#utility.yul\":6765:6766   */\n      0x00\n        /* \"#utility.yul\":6754:6763   */\n      dup4\n        /* \"#utility.yul\":6750:6767   */\n      add\n        /* \"#utility.yul\":6743:6790   */\n      mstore\n        /* \"#utility.yul\":6807:6938   */\n      tag_170\n        /* \"#utility.yul\":6933:6937   */\n      dup2\n        /* \"#utility.yul\":6807:6938   */\n      tag_96\n      jump\t// in\n    tag_170:\n        /* \"#utility.yul\":6799:6938   */\n      swap1\n      pop\n        /* \"#utility.yul\":6526:6945   */\n      swap2\n      swap1\n      pop\n      jump\t// out\n        /* \"#utility.yul\":6951:7122   */\n    tag_97:\n        /* \"#utility.yul\":7091:7114   */\n      0x596f7520617265206e6f7420746865206f776e65720000000000000000000000\n        /* \"#utility.yul\":7087:7088   */\n      0x00\n        /* \"#utility.yul\":7079:7085   */\n      dup3\n        /* \"#utility.yul\":7075:7089   */\n      add\n        /* \"#utility.yul\":7068:7115   */\n      mstore\n        /* \"#utility.yul\":6951:7122   */\n      pop\n      jump\t// out\n        /* \"#utility.yul\":7128:7494   */\n    tag_98:\n        /* \"#utility.yul\":7270:7273   */\n      0x00\n        /* \"#utility.yul\":7291:7358   */\n      tag_173\n        /* \"#utility.yul\":7355:7357   */\n      0x15\n        /* \"#utility.yul\":7350:7353   */\n      dup4\n        /* \"#utility.yul\":7291:7358   */\n      tag_90\n      jump\t// in\n    tag_173:\n        /* \"#utility.yul\":7284:7358   */\n      swap2\n      pop\n        /* \"#utility.yul\":7367:7460   */\n      tag_174\n        /* \"#utility.yul\":7456:7459   */\n      dup3\n        /* \"#utility.yul\":7367:7460   */\n      tag_97\n      jump\t// in\n    tag_174:\n        /* \"#utility.yul\":7485:7487   */\n      0x20\n        /* \"#utility.yul\":7480:7483   */\n      dup3\n        /* \"#utility.yul\":7476:7488   */\n      add\n        /* \"#utility.yul\":7469:7488   */\n      swap1\n      pop\n        /* \"#utility.yul\":7128:7494   */\n      swap2\n      swap1\n      pop\n      jump\t// out\n        /* \"#utility.yul\":7500:7919   */\n    tag_63:\n        /* \"#utility.yul\":7666:7670   */\n      0x00\n        /* \"#utility.yul\":7704:7706   */\n      0x20\n        /* \"#utility.yul\":7693:7702   */\n      dup3\n        /* \"#utility.yul\":7689:7707   */\n      add\n        /* \"#utility.yul\":7681:7707   */\n      swap1\n      pop\n        /* \"#utility.yul\":7753:7762   */\n      dup2\n        /* \"#utility.yul\":7747:7751   */\n      dup2\n        /* \"#utility.yul\":7743:7763   */\n      sub\n        /* \"#utility.yul\":7739:7740   */\n      0x00\n        /* \"#utility.yul\":7728:7737   */\n      dup4\n        /* \"#utility.yul\":7724:7741   */\n      add\n        /* \"#utility.yul\":7717:7764   */\n      mstore\n        /* \"#utility.yul\":7781:7912   */\n      tag_176\n        /* \"#utility.yul\":7907:7911   */\n      dup2\n        /* \"#utility.yul\":7781:7912   */\n      tag_98\n      jump\t// in\n    tag_176:\n        /* \"#utility.yul\":7773:7912   */\n      swap1\n      pop\n        /* \"#utility.yul\":7500:7919   */\n      swap2\n      swap1\n      pop\n      jump\t// out\n        /* \"#utility.yul\":7925:8165   */\n    tag_99:\n        /* \"#utility.yul\":8065:8099   */\n      0x4f6e6c7920746865206f776e65722063616e206368616e67652074686520636f\n        /* \"#utility.yul\":8061:8062   */\n      0x00\n        /* \"#utility.yul\":8053:8059   */\n      dup3\n        /* \"#utility.yul\":8049:8063   */\n      add\n        /* \"#utility.yul\":8042:8100   */\n      mstore\n        /* \"#utility.yul\":8134:8157   */\n      0x6e747261637420746f2061206e6577206f776e65720000000000000000000000\n        /* \"#utility.yul\":8129:8131   */\n      0x20\n        /* \"#utility.yul\":8121:8127   */\n      dup3\n        /* \"#utility.yul\":8117:8132   */\n      add\n        /* \"#utility.yul\":8110:8158   */\n      mstore\n        /* \"#utility.yul\":7925:8165   */\n      pop\n      jump\t// out\n        /* \"#utility.yul\":8171:8537   */\n    tag_100:\n        /* \"#utility.yul\":8313:8316   */\n      0x00\n        /* \"#utility.yul\":8334:8401   */\n      tag_179\n        /* \"#utility.yul\":8398:8400   */\n      0x35\n        /* \"#utility.yul\":8393:8396   */\n      dup4\n        /* \"#utility.yul\":8334:8401   */\n      tag_90\n      jump\t// in\n    tag_179:\n        /* \"#utility.yul\":8327:8401   */\n      swap2\n      pop\n        /* \"#utility.yul\":8410:8503   */\n      tag_180\n        /* \"#utility.yul\":8499:8502   */\n      dup3\n        /* \"#utility.yul\":8410:8503   */\n      tag_99\n      jump\t// in\n    tag_180:\n        /* \"#utility.yul\":8528:8530   */\n      0x40\n        /* \"#utility.yul\":8523:8526   */\n      dup3\n        /* \"#utility.yul\":8519:8531   */\n      add\n        /* \"#utility.yul\":8512:8531   */\n      swap1\n      pop\n        /* \"#utility.yul\":8171:8537   */\n      swap2\n      swap1\n      pop\n      jump\t// out\n        /* \"#utility.yul\":8543:8962   */\n    tag_67:\n        /* \"#utility.yul\":8709:8713   */\n      0x00\n        /* \"#utility.yul\":8747:8749   */\n      0x20\n        /* \"#utility.yul\":8736:8745   */\n      dup3\n        /* \"#utility.yul\":8732:8750   */\n      add\n        /* \"#utility.yul\":8724:8750   */\n      swap1\n      pop\n        /* \"#utility.yul\":8796:8805   */\n      dup2\n        /* \"#utility.yul\":8790:8794   */\n      dup2\n        /* \"#utility.yul\":8786:8806   */\n      sub\n        /* \"#utility.yul\":8782:8783   */\n      0x00\n        /* \"#utility.yul\":8771:8780   */\n      dup4\n        /* \"#utility.yul\":8767:8784   */\n      add\n        /* \"#utility.yul\":8760:8807   */\n      mstore\n        /* \"#utility.yul\":8824:8955   */\n      tag_182\n        /* \"#utility.yul\":8950:8954   */\n      dup2\n        /* \"#utility.yul\":8824:8955   */\n      tag_100\n      jump\t// in\n    tag_182:\n        /* \"#utility.yul\":8816:8955   */\n      swap1\n      pop\n        /* \"#utility.yul\":8543:8962   */\n      swap2\n      swap1\n      pop\n      jump\t// out\n        /* \"#utility.yul\":8968:9148   */\n    tag_101:\n        /* \"#utility.yul\":9016:9093   */\n      0x4e487b7100000000000000000000000000000000000000000000000000000000\n        /* \"#utility.yul\":9013:9014   */\n      0x00\n        /* \"#utility.yul\":9006:9094   */\n      mstore\n        /* \"#utility.yul\":9113:9117   */\n      0x11\n        /* \"#utility.yul\":9110:9111   */\n      0x04\n        /* \"#utility.yul\":9103:9118   */\n      mstore\n        /* \"#utility.yul\":9137:9141   */\n      0x24\n        /* \"#utility.yul\":9134:9135   */\n      0x00\n        /* \"#utility.yul\":9127:9142   */\n      revert\n        /* \"#utility.yul\":9154:9345   */\n    tag_72:\n        /* \"#utility.yul\":9194:9197   */\n      0x00\n        /* \"#utility.yul\":9213:9233   */\n      tag_185\n        /* \"#utility.yul\":9231:9232   */\n      dup3\n        /* \"#utility.yul\":9213:9233   */\n      tag_83\n      jump\t// in\n    tag_185:\n        /* \"#utility.yul\":9208:9233   */\n      swap2\n      pop\n        /* \"#utility.yul\":9247:9267   */\n      tag_186\n        /* \"#utility.yul\":9265:9266   */\n      dup4\n        /* \"#utility.yul\":9247:9267   */\n      tag_83\n      jump\t// in\n    tag_186:\n        /* \"#utility.yul\":9242:9267   */\n      swap3\n      pop\n        /* \"#utility.yul\":9290:9291   */\n      dup3\n        /* \"#utility.yul\":9287:9288   */\n      dup3\n        /* \"#utility.yul\":9283:9292   */\n      add\n        /* \"#utility.yul\":9276:9292   */\n      swap1\n      pop\n        /* \"#utility.yul\":9311:9314   */\n      dup1\n        /* \"#utility.yul\":9308:9309   */\n      dup3\n        /* \"#utility.yul\":9305:9315   */\n      gt\n        /* \"#utility.yul\":9302:9338   */\n      iszero\n      tag_187\n      jumpi\n        /* \"#utility.yul\":9318:9336   */\n      tag_188\n      tag_101\n      jump\t// in\n    tag_188:\n        /* \"#utility.yul\":9302:9338   */\n    tag_187:\n        /* \"#utility.yul\":9154:9345   */\n      swap3\n      swap2\n      pop\n      pop\n      jump\t// out\n\n    auxdata: 0xa2646970667358221220bed8b3d304c87763ab89f470b2b3cab9a82a88a9373ace265e6045c80b8e85d064736f6c63430008100033\n}\n",
				"bytecode": {
					"linkReferences": {},
					"object": "608060405234801561001057600080fd5b50336000806101000a81548173ffffffffffffffffffffffffffffffffffffffff021916908373ffffffffffffffffffffffffffffffffffffffff160217905550610ac2806100606000396000f3fe60806040526004361061007b5760003560e01c80635c975abb1161004e5780635c975abb146101265780638da5cb5b14610151578063bc48fdad1461017c578063cbedbf5a146101a55761007b565b80630adec93c1461008057806316c38b3c146100a95780632b6dcd77146100d257806339df43ff146100fd575b600080fd5b34801561008c57600080fd5b506100a760048036038101906100a29190610605565b6101af565b005b3480156100b557600080fd5b506100d060048036038101906100cb919061066a565b6102d7565b005b3480156100de57600080fd5b506100e7610382565b6040516100f491906106b0565b60405180910390f35b34801561010957600080fd5b50610124600480360381019061011f9190610605565b610388565b005b34801561013257600080fd5b5061013b61042f565b60405161014891906106da565b60405180910390f35b34801561015d57600080fd5b50610166610442565b6040516101739190610716565b60405180910390f35b34801561018857600080fd5b506101a3600480360381019061019e919061075d565b610466565b005b6101ad610587565b005b3373ffffffffffffffffffffffffffffffffffffffff1660008054906101000a900473ffffffffffffffffffffffffffffffffffffffff1673ffffffffffffffffffffffffffffffffffffffff161461023d576040517f08c379a00000000000000000000000000000000000000000000000000000000081526004016102349061080d565b60405180910390fd5b600260009054906101000a900460ff161561028d576040517f08c379a000000000000000000000000000000000000000000000000000000000815260040161028490610879565b60405180910390fd5b8073ffffffffffffffffffffffffffffffffffffffff166108fc479081150290604051600060405180830381858888f193505050501580156102d3573d6000803e3d6000fd5b5050565b60008054906101000a900473ffffffffffffffffffffffffffffffffffffffff1673ffffffffffffffffffffffffffffffffffffffff163373ffffffffffffffffffffffffffffffffffffffff1614610365576040517f08c379a000000000000000000000000000000000000000000000000000000000815260040161035c9061090b565b60405180910390fd5b80600260006101000a81548160ff02191690831515021790555050565b60015481565b60008054906101000a900473ffffffffffffffffffffffffffffffffffffffff1673ffffffffffffffffffffffffffffffffffffffff163373ffffffffffffffffffffffffffffffffffffffff1614610416576040517f08c379a000000000000000000000000000000000000000000000000000000000815260040161040d90610977565b60405180910390fd5b8073ffffffffffffffffffffffffffffffffffffffff16ff5b600260009054906101000a900460ff1681565b60008054906101000a900473ffffffffffffffffffffffffffffffffffffffff1681565b3373ffffffffffffffffffffffffffffffffffffffff1660008054906101000a900473ffffffffffffffffffffffffffffffffffffffff1673ffffffffffffffffffffffffffffffffffffffff16146104f4576040517f08c379a00000000000000000000000000000000000000000000000000000000081526004016104eb90610a09565b60405180910390fd5b600260009054906101000a900460ff1615610544576040517f08c379a000000000000000000000000000000000000000000000000000000000815260040161053b90610879565b60405180910390fd5b806000806101000a81548173ffffffffffffffffffffffffffffffffffffffff021916908373ffffffffffffffffffffffffffffffffffffffff16021790555050565b34600160008282546105999190610a58565b92505081905550565b600080fd5b600073ffffffffffffffffffffffffffffffffffffffff82169050919050565b60006105d2826105a7565b9050919050565b6105e2816105c7565b81146105ed57600080fd5b50565b6000813590506105ff816105d9565b92915050565b60006020828403121561061b5761061a6105a2565b5b6000610629848285016105f0565b91505092915050565b60008115159050919050565b61064781610632565b811461065257600080fd5b50565b6000813590506106648161063e565b92915050565b6000602082840312156106805761067f6105a2565b5b600061068e84828501610655565b91505092915050565b6000819050919050565b6106aa81610697565b82525050565b60006020820190506106c560008301846106a1565b92915050565b6106d481610632565b82525050565b60006020820190506106ef60008301846106cb565b92915050565b6000610700826105a7565b9050919050565b610710816106f5565b82525050565b600060208201905061072b6000830184610707565b92915050565b61073a816106f5565b811461074557600080fd5b50565b60008135905061075781610731565b92915050565b600060208284031215610773576107726105a2565b5b600061078184828501610748565b91505092915050565b600082825260208201905092915050565b7f4f6e6c7920746865206f776e65722063616e20696e697469617465207769746860008201527f64726177616c0000000000000000000000000000000000000000000000000000602082015250565b60006107f760268361078a565b91506108028261079b565b604082019050919050565b60006020820190508181036000830152610826816107ea565b9050919050565b7f54686520636f6e74726163742069732070617573656400000000000000000000600082015250565b600061086360168361078a565b915061086e8261082d565b602082019050919050565b6000602082019050818103600083015261089281610856565b9050919050565b7f4f6e6c7920746865206f776e65722063616e2070617573652074686520636f6e60008201527f7472616374000000000000000000000000000000000000000000000000000000602082015250565b60006108f560258361078a565b915061090082610899565b604082019050919050565b60006020820190508181036000830152610924816108e8565b9050919050565b7f596f7520617265206e6f7420746865206f776e65720000000000000000000000600082015250565b600061096160158361078a565b915061096c8261092b565b602082019050919050565b6000602082019050818103600083015261099081610954565b9050919050565b7f4f6e6c7920746865206f776e65722063616e206368616e67652074686520636f60008201527f6e747261637420746f2061206e6577206f776e65720000000000000000000000602082015250565b60006109f360358361078a565b91506109fe82610997565b604082019050919050565b60006020820190508181036000830152610a22816109e6565b9050919050565b7f4e487b7100000000000000000000000000000000000000000000000000000000600052601160045260246000fd5b6000610a6382610697565b9150610a6e83610697565b9250828201905080821115610a8657610a85610a29565b5b9291505056fea2646970667358221220bed8b3d304c87763ab89f470b2b3cab9a82a88a9373ace265e6045c80b8e85d064736f6c63430008100033",
					"opcodes": "PUSH1 0x80 PUSH1 0x40 MSTORE CALLVALUE DUP1 ISZERO PUSH2 0x10 JUMPI PUSH1 0x0 DUP1 REVERT JUMPDEST POP CALLER PUSH1 0x0 DUP1 PUSH2 0x100 EXP DUP2 SLOAD DUP2 PUSH20 0xFFFFFFFFFFFFFFFFFFFFFFFFFFFFFFFFFFFFFFFF MUL NOT AND SWAP1 DUP4 PUSH20 0xFFFFFFFFFFFFFFFFFFFFFFFFFFFFFFFFFFFFFFFF AND MUL OR SWAP1 SSTORE POP PUSH2 0xAC2 DUP1 PUSH2 0x60 PUSH1 0x0 CODECOPY PUSH1 0x0 RETURN INVALID PUSH1 0x80 PUSH1 0x40 MSTORE PUSH1 0x4 CALLDATASIZE LT PUSH2 0x7B JUMPI PUSH1 0x0 CALLDATALOAD PUSH1 0xE0 SHR DUP1 PUSH4 0x5C975ABB GT PUSH2 0x4E JUMPI DUP1 PUSH4 0x5C975ABB EQ PUSH2 0x126 JUMPI DUP1 PUSH4 0x8DA5CB5B EQ PUSH2 0x151 JUMPI DUP1 PUSH4 0xBC48FDAD EQ PUSH2 0x17C JUMPI DUP1 PUSH4 0xCBEDBF5A EQ PUSH2 0x1A5 JUMPI PUSH2 0x7B JUMP JUMPDEST DUP1 PUSH4 0xADEC93C EQ PUSH2 0x80 JUMPI DUP1 PUSH4 0x16C38B3C EQ PUSH2 0xA9 JUMPI DUP1 PUSH4 0x2B6DCD77 EQ PUSH2 0xD2 JUMPI DUP1 PUSH4 0x39DF43FF EQ PUSH2 0xFD JUMPI JUMPDEST PUSH1 0x0 DUP1 REVERT JUMPDEST CALLVALUE DUP1 ISZERO PUSH2 0x8C JUMPI PUSH1 0x0 DUP1 REVERT JUMPDEST POP PUSH2 0xA7 PUSH1 0x4 DUP1 CALLDATASIZE SUB DUP2 ADD SWAP1 PUSH2 0xA2 SWAP2 SWAP1 PUSH2 0x605 JUMP JUMPDEST PUSH2 0x1AF JUMP JUMPDEST STOP JUMPDEST CALLVALUE DUP1 ISZERO PUSH2 0xB5 JUMPI PUSH1 0x0 DUP1 REVERT JUMPDEST POP PUSH2 0xD0 PUSH1 0x4 DUP1 CALLDATASIZE SUB DUP2 ADD SWAP1 PUSH2 0xCB SWAP2 SWAP1 PUSH2 0x66A JUMP JUMPDEST PUSH2 0x2D7 JUMP JUMPDEST STOP JUMPDEST CALLVALUE DUP1 ISZERO PUSH2 0xDE JUMPI PUSH1 0x0 DUP1 REVERT JUMPDEST POP PUSH2 0xE7 PUSH2 0x382 JUMP JUMPDEST PUSH1 0x40 MLOAD PUSH2 0xF4 SWAP2 SWAP1 PUSH2 0x6B0 JUMP JUMPDEST PUSH1 0x40 MLOAD DUP1 SWAP2 SUB SWAP1 RETURN JUMPDEST CALLVALUE DUP1 ISZERO PUSH2 0x109 JUMPI PUSH1 0x0 DUP1 REVERT JUMPDEST POP PUSH2 0x124 PUSH1 0x4 DUP1 CALLDATASIZE SUB DUP2 ADD SWAP1 PUSH2 0x11F SWAP2 SWAP1 PUSH2 0x605 JUMP JUMPDEST PUSH2 0x388 JUMP JUMPDEST STOP JUMPDEST CALLVALUE DUP1 ISZERO PUSH2 0x132 JUMPI PUSH1 0x0 DUP1 REVERT JUMPDEST POP PUSH2 0x13B PUSH2 0x42F JUMP JUMPDEST PUSH1 0x40 MLOAD PUSH2 0x148 SWAP2 SWAP1 PUSH2 0x6DA JUMP JUMPDEST PUSH1 0x40 MLOAD DUP1 SWAP2 SUB SWAP1 RETURN JUMPDEST CALLVALUE DUP1 ISZERO PUSH2 0x15D JUMPI PUSH1 0x0 DUP1 REVERT JUMPDEST POP PUSH2 0x166 PUSH2 0x442 JUMP JUMPDEST PUSH1 0x40 MLOAD PUSH2 0x173 SWAP2 SWAP1 PUSH2 0x716 JUMP JUMPDEST PUSH1 0x40 MLOAD DUP1 SWAP2 SUB SWAP1 RETURN JUMPDEST CALLVALUE DUP1 ISZERO PUSH2 0x188 JUMPI PUSH1 0x0 DUP1 REVERT JUMPDEST POP PUSH2 0x1A3 PUSH1 0x4 DUP1 CALLDATASIZE SUB DUP2 ADD SWAP1 PUSH2 0x19E SWAP2 SWAP1 PUSH2 0x75D JUMP JUMPDEST PUSH2 0x466 JUMP JUMPDEST STOP JUMPDEST PUSH2 0x1AD PUSH2 0x587 JUMP JUMPDEST STOP JUMPDEST CALLER PUSH20 0xFFFFFFFFFFFFFFFFFFFFFFFFFFFFFFFFFFFFFFFF AND PUSH1 0x0 DUP1 SLOAD SWAP1 PUSH2 0x100 EXP SWAP1 DIV PUSH20 0xFFFFFFFFFFFFFFFFFFFFFFFFFFFFFFFFFFFFFFFF AND PUSH20 0xFFFFFFFFFFFFFFFFFFFFFFFFFFFFFFFFFFFFFFFF AND EQ PUSH2 0x23D JUMPI PUSH1 0x40 MLOAD PUSH32 0x8C379A000000000000000000000000000000000000000000000000000000000 DUP2 MSTORE PUSH1 0x4 ADD PUSH2 0x234 SWAP1 PUSH2 0x80D JUMP JUMPDEST PUSH1 0x40 MLOAD DUP1 SWAP2 SUB SWAP1 REVERT JUMPDEST PUSH1 0x2 PUSH1 0x0 SWAP1 SLOAD SWAP1 PUSH2 0x100 EXP SWAP1 DIV PUSH1 0xFF AND ISZERO PUSH2 0x28D JUMPI PUSH1 0x40 MLOAD PUSH32 0x8C379A000000000000000000000000000000000000000000000000000000000 DUP2 MSTORE PUSH1 0x4 ADD PUSH2 0x284 SWAP1 PUSH2 0x879 JUMP JUMPDEST PUSH1 0x40 MLOAD DUP1 SWAP2 SUB SWAP1 REVERT JUMPDEST DUP1 PUSH20 0xFFFFFFFFFFFFFFFFFFFFFFFFFFFFFFFFFFFFFFFF AND PUSH2 0x8FC SELFBALANCE SWAP1 DUP2 ISZERO MUL SWAP1 PUSH1 0x40 MLOAD PUSH1 0x0 PUSH1 0x40 MLOAD DUP1 DUP4 SUB DUP2 DUP6 DUP9 DUP9 CALL SWAP4 POP POP POP POP ISZERO DUP1 ISZERO PUSH2 0x2D3 JUMPI RETURNDATASIZE PUSH1 0x0 DUP1 RETURNDATACOPY RETURNDATASIZE PUSH1 0x0 REVERT JUMPDEST POP POP JUMP JUMPDEST PUSH1 0x0 DUP1 SLOAD SWAP1 PUSH2 0x100 EXP SWAP1 DIV PUSH20 0xFFFFFFFFFFFFFFFFFFFFFFFFFFFFFFFFFFFFFFFF AND PUSH20 0xFFFFFFFFFFFFFFFFFFFFFFFFFFFFFFFFFFFFFFFF AND CALLER PUSH20 0xFFFFFFFFFFFFFFFFFFFFFFFFFFFFFFFFFFFFFFFF AND EQ PUSH2 0x365 JUMPI PUSH1 0x40 MLOAD PUSH32 0x8C379A000000000000000000000000000000000000000000000000000000000 DUP2 MSTORE PUSH1 0x4 ADD PUSH2 0x35C SWAP1 PUSH2 0x90B JUMP JUMPDEST PUSH1 0x40 MLOAD DUP1 SWAP2 SUB SWAP1 REVERT JUMPDEST DUP1 PUSH1 0x2 PUSH1 0x0 PUSH2 0x100 EXP DUP2 SLOAD DUP2 PUSH1 0xFF MUL NOT AND SWAP1 DUP4 ISZERO ISZERO MUL OR SWAP1 SSTORE POP POP JUMP JUMPDEST PUSH1 0x1 SLOAD DUP2 JUMP JUMPDEST PUSH1 0x0 DUP1 SLOAD SWAP1 PUSH2 0x100 EXP SWAP1 DIV PUSH20 0xFFFFFFFFFFFFFFFFFFFFFFFFFFFFFFFFFFFFFFFF AND PUSH20 0xFFFFFFFFFFFFFFFFFFFFFFFFFFFFFFFFFFFFFFFF AND CALLER PUSH20 0xFFFFFFFFFFFFFFFFFFFFFFFFFFFFFFFFFFFFFFFF AND EQ PUSH2 0x416 JUMPI PUSH1 0x40 MLOAD PUSH32 0x8C379A000000000000000000000000000000000000000000000000000000000 DUP2 MSTORE PUSH1 0x4 ADD PUSH2 0x40D SWAP1 PUSH2 0x977 JUMP JUMPDEST PUSH1 0x40 MLOAD DUP1 SWAP2 SUB SWAP1 REVERT JUMPDEST DUP1 PUSH20 0xFFFFFFFFFFFFFFFFFFFFFFFFFFFFFFFFFFFFFFFF AND SELFDESTRUCT JUMPDEST PUSH1 0x2 PUSH1 0x0 SWAP1 SLOAD SWAP1 PUSH2 0x100 EXP SWAP1 DIV PUSH1 0xFF AND DUP2 JUMP JUMPDEST PUSH1 0x0 DUP1 SLOAD SWAP1 PUSH2 0x100 EXP SWAP1 DIV PUSH20 0xFFFFFFFFFFFFFFFFFFFFFFFFFFFFFFFFFFFFFFFF AND DUP2 JUMP JUMPDEST CALLER PUSH20 0xFFFFFFFFFFFFFFFFFFFFFFFFFFFFFFFFFFFFFFFF AND PUSH1 0x0 DUP1 SLOAD SWAP1 PUSH2 0x100 EXP SWAP1 DIV PUSH20 0xFFFFFFFFFFFFFFFFFFFFFFFFFFFFFFFFFFFFFFFF AND PUSH20 0xFFFFFFFFFFFFFFFFFFFFFFFFFFFFFFFFFFFFFFFF AND EQ PUSH2 0x4F4 JUMPI PUSH1 0x40 MLOAD PUSH32 0x8C379A000000000000000000000000000000000000000000000000000000000 DUP2 MSTORE PUSH1 0x4 ADD PUSH2 0x4EB SWAP1 PUSH2 0xA09 JUMP JUMPDEST PUSH1 0x40 MLOAD DUP1 SWAP2 SUB SWAP1 REVERT JUMPDEST PUSH1 0x2 PUSH1 0x0 SWAP1 SLOAD SWAP1 PUSH2 0x100 EXP SWAP1 DIV PUSH1 0xFF AND ISZERO PUSH2 0x544 JUMPI PUSH1 0x40 MLOAD PUSH32 0x8C379A000000000000000000000000000000000000000000000000000000000 DUP2 MSTORE PUSH1 0x4 ADD PUSH2 0x53B SWAP1 PUSH2 0x879 JUMP JUMPDEST PUSH1 0x40 MLOAD DUP1 SWAP2 SUB SWAP1 REVERT JUMPDEST DUP1 PUSH1 0x0 DUP1 PUSH2 0x100 EXP DUP2 SLOAD DUP2 PUSH20 0xFFFFFFFFFFFFFFFFFFFFFFFFFFFFFFFFFFFFFFFF MUL NOT AND SWAP1 DUP4 PUSH20 0xFFFFFFFFFFFFFFFFFFFFFFFFFFFFFFFFFFFFFFFF AND MUL OR SWAP1 SSTORE POP POP JUMP JUMPDEST CALLVALUE PUSH1 0x1 PUSH1 0x0 DUP3 DUP3 SLOAD PUSH2 0x599 SWAP2 SWAP1 PUSH2 0xA58 JUMP JUMPDEST SWAP3 POP POP DUP2 SWAP1 SSTORE POP JUMP JUMPDEST PUSH1 0x0 DUP1 REVERT JUMPDEST PUSH1 0x0 PUSH20 0xFFFFFFFFFFFFFFFFFFFFFFFFFFFFFFFFFFFFFFFF DUP3 AND SWAP1 POP SWAP2 SWAP1 POP JUMP JUMPDEST PUSH1 0x0 PUSH2 0x5D2 DUP3 PUSH2 0x5A7 JUMP JUMPDEST SWAP1 POP SWAP2 SWAP1 POP JUMP JUMPDEST PUSH2 0x5E2 DUP2 PUSH2 0x5C7 JUMP JUMPDEST DUP2 EQ PUSH2 0x5ED JUMPI PUSH1 0x0 DUP1 REVERT JUMPDEST POP JUMP JUMPDEST PUSH1 0x0 DUP2 CALLDATALOAD SWAP1 POP PUSH2 0x5FF DUP2 PUSH2 0x5D9 JUMP JUMPDEST SWAP3 SWAP2 POP POP JUMP JUMPDEST PUSH1 0x0 PUSH1 0x20 DUP3 DUP5 SUB SLT ISZERO PUSH2 0x61B JUMPI PUSH2 0x61A PUSH2 0x5A2 JUMP JUMPDEST JUMPDEST PUSH1 0x0 PUSH2 0x629 DUP5 DUP3 DUP6 ADD PUSH2 0x5F0 JUMP JUMPDEST SWAP2 POP POP SWAP3 SWAP2 POP POP JUMP JUMPDEST PUSH1 0x0 DUP2 ISZERO ISZERO SWAP1 POP SWAP2 SWAP1 POP JUMP JUMPDEST PUSH2 0x647 DUP2 PUSH2 0x632 JUMP JUMPDEST DUP2 EQ PUSH2 0x652 JUMPI PUSH1 0x0 DUP1 REVERT JUMPDEST POP JUMP JUMPDEST PUSH1 0x0 DUP2 CALLDATALOAD SWAP1 POP PUSH2 0x664 DUP2 PUSH2 0x63E JUMP JUMPDEST SWAP3 SWAP2 POP POP JUMP JUMPDEST PUSH1 0x0 PUSH1 0x20 DUP3 DUP5 SUB SLT ISZERO PUSH2 0x680 JUMPI PUSH2 0x67F PUSH2 0x5A2 JUMP JUMPDEST JUMPDEST PUSH1 0x0 PUSH2 0x68E DUP5 DUP3 DUP6 ADD PUSH2 0x655 JUMP JUMPDEST SWAP2 POP POP SWAP3 SWAP2 POP POP JUMP JUMPDEST PUSH1 0x0 DUP2 SWAP1 POP SWAP2 SWAP1 POP JUMP JUMPDEST PUSH2 0x6AA DUP2 PUSH2 0x697 JUMP JUMPDEST DUP3 MSTORE POP POP JUMP JUMPDEST PUSH1 0x0 PUSH1 0x20 DUP3 ADD SWAP1 POP PUSH2 0x6C5 PUSH1 0x0 DUP4 ADD DUP5 PUSH2 0x6A1 JUMP JUMPDEST SWAP3 SWAP2 POP POP JUMP JUMPDEST PUSH2 0x6D4 DUP2 PUSH2 0x632 JUMP JUMPDEST DUP3 MSTORE POP POP JUMP JUMPDEST PUSH1 0x0 PUSH1 0x20 DUP3 ADD SWAP1 POP PUSH2 0x6EF PUSH1 0x0 DUP4 ADD DUP5 PUSH2 0x6CB JUMP JUMPDEST SWAP3 SWAP2 POP POP JUMP JUMPDEST PUSH1 0x0 PUSH2 0x700 DUP3 PUSH2 0x5A7 JUMP JUMPDEST SWAP1 POP SWAP2 SWAP1 POP JUMP JUMPDEST PUSH2 0x710 DUP2 PUSH2 0x6F5 JUMP JUMPDEST DUP3 MSTORE POP POP JUMP JUMPDEST PUSH1 0x0 PUSH1 0x20 DUP3 ADD SWAP1 POP PUSH2 0x72B PUSH1 0x0 DUP4 ADD DUP5 PUSH2 0x707 JUMP JUMPDEST SWAP3 SWAP2 POP POP JUMP JUMPDEST PUSH2 0x73A DUP2 PUSH2 0x6F5 JUMP JUMPDEST DUP2 EQ PUSH2 0x745 JUMPI PUSH1 0x0 DUP1 REVERT JUMPDEST POP JUMP JUMPDEST PUSH1 0x0 DUP2 CALLDATALOAD SWAP1 POP PUSH2 0x757 DUP2 PUSH2 0x731 JUMP JUMPDEST SWAP3 SWAP2 POP POP JUMP JUMPDEST PUSH1 0x0 PUSH1 0x20 DUP3 DUP5 SUB SLT ISZERO PUSH2 0x773 JUMPI PUSH2 0x772 PUSH2 0x5A2 JUMP JUMPDEST JUMPDEST PUSH1 0x0 PUSH2 0x781 DUP5 DUP3 DUP6 ADD PUSH2 0x748 JUMP JUMPDEST SWAP2 POP POP SWAP3 SWAP2 POP POP JUMP JUMPDEST PUSH1 0x0 DUP3 DUP3 MSTORE PUSH1 0x20 DUP3 ADD SWAP1 POP SWAP3 SWAP2 POP POP JUMP JUMPDEST PUSH32 0x4F6E6C7920746865206F776E65722063616E20696E6974696174652077697468 PUSH1 0x0 DUP3 ADD MSTORE PUSH32 0x64726177616C0000000000000000000000000000000000000000000000000000 PUSH1 0x20 DUP3 ADD MSTORE POP JUMP JUMPDEST PUSH1 0x0 PUSH2 0x7F7 PUSH1 0x26 DUP4 PUSH2 0x78A JUMP JUMPDEST SWAP2 POP PUSH2 0x802 DUP3 PUSH2 0x79B JUMP JUMPDEST PUSH1 0x40 DUP3 ADD SWAP1 POP SWAP2 SWAP1 POP JUMP JUMPDEST PUSH1 0x0 PUSH1 0x20 DUP3 ADD SWAP1 POP DUP2 DUP2 SUB PUSH1 0x0 DUP4 ADD MSTORE PUSH2 0x826 DUP2 PUSH2 0x7EA JUMP JUMPDEST SWAP1 POP SWAP2 SWAP1 POP JUMP JUMPDEST PUSH32 0x54686520636F6E74726163742069732070617573656400000000000000000000 PUSH1 0x0 DUP3 ADD MSTORE POP JUMP JUMPDEST PUSH1 0x0 PUSH2 0x863 PUSH1 0x16 DUP4 PUSH2 0x78A JUMP JUMPDEST SWAP2 POP PUSH2 0x86E DUP3 PUSH2 0x82D JUMP JUMPDEST PUSH1 0x20 DUP3 ADD SWAP1 POP SWAP2 SWAP1 POP JUMP JUMPDEST PUSH1 0x0 PUSH1 0x20 DUP3 ADD SWAP1 POP DUP2 DUP2 SUB PUSH1 0x0 DUP4 ADD MSTORE PUSH2 0x892 DUP2 PUSH2 0x856 JUMP JUMPDEST SWAP1 POP SWAP2 SWAP1 POP JUMP JUMPDEST PUSH32 0x4F6E6C7920746865206F776E65722063616E2070617573652074686520636F6E PUSH1 0x0 DUP3 ADD MSTORE PUSH32 0x7472616374000000000000000000000000000000000000000000000000000000 PUSH1 0x20 DUP3 ADD MSTORE POP JUMP JUMPDEST PUSH1 0x0 PUSH2 0x8F5 PUSH1 0x25 DUP4 PUSH2 0x78A JUMP JUMPDEST SWAP2 POP PUSH2 0x900 DUP3 PUSH2 0x899 JUMP JUMPDEST PUSH1 0x40 DUP3 ADD SWAP1 POP SWAP2 SWAP1 POP JUMP JUMPDEST PUSH1 0x0 PUSH1 0x20 DUP3 ADD SWAP1 POP DUP2 DUP2 SUB PUSH1 0x0 DUP4 ADD MSTORE PUSH2 0x924 DUP2 PUSH2 0x8E8 JUMP JUMPDEST SWAP1 POP SWAP2 SWAP1 POP JUMP JUMPDEST PUSH32 0x596F7520617265206E6F7420746865206F776E65720000000000000000000000 PUSH1 0x0 DUP3 ADD MSTORE POP JUMP JUMPDEST PUSH1 0x0 PUSH2 0x961 PUSH1 0x15 DUP4 PUSH2 0x78A JUMP JUMPDEST SWAP2 POP PUSH2 0x96C DUP3 PUSH2 0x92B JUMP JUMPDEST PUSH1 0x20 DUP3 ADD SWAP1 POP SWAP2 SWAP1 POP JUMP JUMPDEST PUSH1 0x0 PUSH1 0x20 DUP3 ADD SWAP1 POP DUP2 DUP2 SUB PUSH1 0x0 DUP4 ADD MSTORE PUSH2 0x990 DUP2 PUSH2 0x954 JUMP JUMPDEST SWAP1 POP SWAP2 SWAP1 POP JUMP JUMPDEST PUSH32 0x4F6E6C7920746865206F776E65722063616E206368616E67652074686520636F PUSH1 0x0 DUP3 ADD MSTORE PUSH32 0x6E747261637420746F2061206E6577206F776E65720000000000000000000000 PUSH1 0x20 DUP3 ADD MSTORE POP JUMP JUMPDEST PUSH1 0x0 PUSH2 0x9F3 PUSH1 0x35 DUP4 PUSH2 0x78A JUMP JUMPDEST SWAP2 POP PUSH2 0x9FE DUP3 PUSH2 0x997 JUMP JUMPDEST PUSH1 0x40 DUP3 ADD SWAP1 POP SWAP2 SWAP1 POP JUMP JUMPDEST PUSH1 0x0 PUSH1 0x20 DUP3 ADD SWAP1 POP DUP2 DUP2 SUB PUSH1 0x0 DUP4 ADD MSTORE PUSH2 0xA22 DUP2 PUSH2 0x9E6 JUMP JUMPDEST SWAP1 POP SWAP2 SWAP1 POP JUMP JUMPDEST PUSH32 0x4E487B7100000000000000000000000000000000000000000000000000000000 PUSH1 0x0 MSTORE PUSH1 0x11 PUSH1 0x4 MSTORE PUSH1 0x24 PUSH1 0x0 REVERT JUMPDEST PUSH1 0x0 PUSH2 0xA63 DUP3 PUSH2 0x697 JUMP JUMPDEST SWAP2 POP PUSH2 0xA6E DUP4 PUSH2 0x697 JUMP JUMPDEST SWAP3 POP DUP3 DUP3 ADD SWAP1 POP DUP1 DUP3 GT ISZERO PUSH2 0xA86 JUMPI PUSH2 0xA85 PUSH2 0xA29 JUMP JUMPDEST JUMPDEST SWAP3 SWAP2 POP POP JUMP INVALID LOG2 PUSH5 0x6970667358 0x22 SLT KECCAK256 0xBE 0xD8 0xB3 0xD3 DIV 0xC8 PUSH24 0x63AB89F470B2B3CAB9A82A88A9373ACE265E6045C80B8E85 0xD0 PUSH5 0x736F6C6343 STOP ADDMOD LT STOP CALLER "
				},
				"gasEstimates": {
					"creation": {
						"codeDepositCost": "550800",
						"executionCost": "24853",
						"totalCost": "575653"
					},
					"external": {
						"ChangeOwnerTo(address)": "29089",
						"destroySmartContract(address)": "30287",
						"myContractBalance()": "2474",
						"owner()": "2533",
						"paused()": "2471",
						"sendMoney()": "infinite",
						"setPaused(bool)": "26869",
						"withdrawAllMoney(address)": "infinite"
					}
				},
				"methodIdentifiers": {
					"ChangeOwnerTo(address)": "bc48fdad",
					"destroySmartContract(address)": "39df43ff",
					"myContractBalance()": "2b6dcd77",
					"owner()": "8da5cb5b",
					"paused()": "5c975abb",
					"sendMoney()": "cbedbf5a",
					"setPaused(bool)": "16c38b3c",
					"withdrawAllMoney(address)": "0adec93c"
				}
			},
			"storageLayout": {
				"storage": [
					{
						"astId": 3,
						"contract": "MyChangeOwner.sol:MyChangeOwner",
						"label": "owner",
						"offset": 0,
						"slot": "0",
						"type": "t_address"
					},
					{
						"astId": 5,
						"contract": "MyChangeOwner.sol:MyChangeOwner",
						"label": "myContractBalance",
						"offset": 0,
						"slot": "1",
						"type": "t_uint256"
					},
					{
						"astId": 7,
						"contract": "MyChangeOwner.sol:MyChangeOwner",
						"label": "paused",
						"offset": 0,
						"slot": "2",
						"type": "t_bool"
					}
				],
				"types": {
					"t_address": {
						"encoding": "inplace",
						"label": "address",
						"numberOfBytes": "20"
					},
					"t_bool": {
						"encoding": "inplace",
						"label": "bool",
						"numberOfBytes": "1"
					},
					"t_uint256": {
						"encoding": "inplace",
						"label": "uint256",
						"numberOfBytes": "32"
					}
				}
			},
			"userdoc": {
				"kind": "user",
				"methods": {},
				"version": 1
			}
		}
	}
}