{
	"ItemManager.sol": {
		"ItemManager": {
			"abi": [
				{
					"inputs": [
						{
							"internalType": "string",
							"name": "_identifier",
							"type": "string"
						},
						{
							"internalType": "uint256",
							"name": "_itemPrice",
							"type": "uint256"
						}
					],
					"name": "createItem",
					"outputs": [],
					"stateMutability": "nonpayable",
					"type": "function"
				},
				{
					"inputs": [
						{
							"internalType": "uint256",
							"name": "",
							"type": "uint256"
						}
					],
					"name": "items",
					"outputs": [
						{
							"internalType": "string",
							"name": "_identifier",
							"type": "string"
						},
						{
							"internalType": "uint256",
							"name": "_itemPrice",
							"type": "uint256"
						},
						{
							"internalType": "enum ItemManager.SupplyChainState",
							"name": "_state",
							"type": "uint8"
						}
					],
					"stateMutability": "view",
					"type": "function"
				},
				{
					"inputs": [
						{
							"internalType": "uint256",
							"name": "_itemIndex",
							"type": "uint256"
						}
					],
					"name": "triggerPayment",
					"outputs": [],
					"stateMutability": "payable",
					"type": "function"
				}
			],
			"devdoc": {
				"kind": "dev",
				"methods": {},
				"version": 1
			},
			"evm": {
				"assembly": "    /* \"ItemManager.sol\":112:1134  contract ItemManager {... */\n  mstore(0x40, 0x80)\n  callvalue\n  dup1\n  iszero\n  tag_1\n  jumpi\n  0x00\n  dup1\n  revert\ntag_1:\n  pop\n  dataSize(sub_0)\n  dup1\n  dataOffset(sub_0)\n  0x00\n  codecopy\n  0x00\n  return\nstop\n\nsub_0: assembly {\n        /* \"ItemManager.sol\":112:1134  contract ItemManager {... */\n      mstore(0x40, 0x80)\n      jumpi(tag_1, lt(calldatasize, 0x04))\n      shr(0xe0, calldataload(0x00))\n      dup1\n      0x800fb83f\n      eq\n      tag_2\n      jumpi\n      dup1\n      0x8c551742\n      eq\n      tag_3\n      jumpi\n      dup1\n      0xbfb231d2\n      eq\n      tag_4\n      jumpi\n    tag_1:\n      0x00\n      dup1\n      revert\n        /* \"ItemManager.sol\":774:1109  function triggerPayment(uint _itemIndex) public payable {... */\n    tag_2:\n      tag_5\n      0x04\n      dup1\n      calldatasize\n      sub\n      dup2\n      add\n      swap1\n      tag_6\n      swap2\n      swap1\n      tag_7\n      jump\t// in\n    tag_6:\n      tag_8\n      jump\t// in\n    tag_5:\n      stop\n        /* \"ItemManager.sol\":509:768  function createItem(string memory _identifier, uint _itemPrice) public {... */\n    tag_3:\n      callvalue\n      dup1\n      iszero\n      tag_9\n      jumpi\n      0x00\n      dup1\n      revert\n    tag_9:\n      pop\n      tag_10\n      0x04\n      dup1\n      calldatasize\n      sub\n      dup2\n      add\n      swap1\n      tag_11\n      swap2\n      swap1\n      tag_12\n      jump\t// in\n    tag_11:\n      tag_13\n      jump\t// in\n    tag_10:\n      stop\n        /* \"ItemManager.sol\":340:376  mapping(uint => S_Item) public items */\n    tag_4:\n      callvalue\n      dup1\n      iszero\n      tag_14\n      jumpi\n      0x00\n      dup1\n      revert\n    tag_14:\n      pop\n      tag_15\n      0x04\n      dup1\n      calldatasize\n      sub\n      dup2\n      add\n      swap1\n      tag_16\n      swap2\n      swap1\n      tag_7\n      jump\t// in\n    tag_16:\n      tag_17\n      jump\t// in\n    tag_15:\n      mload(0x40)\n      tag_18\n      swap4\n      swap3\n      swap2\n      swap1\n      tag_19\n      jump\t// in\n    tag_18:\n      mload(0x40)\n      dup1\n      swap2\n      sub\n      swap1\n      return\n        /* \"ItemManager.sol\":774:1109  function triggerPayment(uint _itemIndex) public payable {... */\n    tag_8:\n        /* \"ItemManager.sol\":880:889  msg.value */\n      callvalue\n        /* \"ItemManager.sol\":848:853  items */\n      0x00\n        /* \"ItemManager.sol\":848:865  items[_itemIndex] */\n      dup1\n        /* \"ItemManager.sol\":854:864  _itemIndex */\n      dup4\n        /* \"ItemManager.sol\":848:865  items[_itemIndex] */\n      dup2\n      mstore\n      0x20\n      add\n      swap1\n      dup2\n      mstore\n      0x20\n      add\n      0x00\n      keccak256\n        /* \"ItemManager.sol\":848:876  items[_itemIndex]._itemPrice */\n      0x01\n      add\n      sload\n        /* \"ItemManager.sol\":848:889  items[_itemIndex]._itemPrice == msg.value */\n      eq\n        /* \"ItemManager.sol\":840:922  require(items[_itemIndex]._itemPrice == msg.value, \"Only exact payments accepted\") */\n      tag_21\n      jumpi\n      mload(0x40)\n      0x08c379a000000000000000000000000000000000000000000000000000000000\n      dup2\n      mstore\n      0x04\n      add\n      tag_22\n      swap1\n      tag_23\n      jump\t// in\n    tag_22:\n      mload(0x40)\n      dup1\n      swap2\n      sub\n      swap1\n      revert\n    tag_21:\n        /* \"ItemManager.sol\":968:992  SupplyChainState.Created */\n      0x00\n        /* \"ItemManager.sol\":940:992  items[_itemIndex]._state == SupplyChainState.Created */\n      0x02\n      dup2\n      gt\n      iszero\n      tag_24\n      jumpi\n      tag_25\n      tag_26\n      jump\t// in\n    tag_25:\n    tag_24:\n        /* \"ItemManager.sol\":940:945  items */\n      0x00\n        /* \"ItemManager.sol\":940:957  items[_itemIndex] */\n      dup1\n        /* \"ItemManager.sol\":946:956  _itemIndex */\n      dup4\n        /* \"ItemManager.sol\":940:957  items[_itemIndex] */\n      dup2\n      mstore\n      0x20\n      add\n      swap1\n      dup2\n      mstore\n      0x20\n      add\n      0x00\n      keccak256\n        /* \"ItemManager.sol\":940:964  items[_itemIndex]._state */\n      0x02\n      add\n      0x00\n      swap1\n      sload\n      swap1\n      0x0100\n      exp\n      swap1\n      div\n      0xff\n      and\n        /* \"ItemManager.sol\":940:992  items[_itemIndex]._state == SupplyChainState.Created */\n      0x02\n      dup2\n      gt\n      iszero\n      tag_27\n      jumpi\n      tag_28\n      tag_26\n      jump\t// in\n    tag_28:\n    tag_27:\n      eq\n        /* \"ItemManager.sol\":932:1044  require(items[_itemIndex]._state == SupplyChainState.Created, \"The item is already further in the supply chain\") */\n      tag_29\n      jumpi\n      mload(0x40)\n      0x08c379a000000000000000000000000000000000000000000000000000000000\n      dup2\n      mstore\n      0x04\n      add\n      tag_30\n      swap1\n      tag_31\n      jump\t// in\n    tag_30:\n      mload(0x40)\n      dup1\n      swap2\n      sub\n      swap1\n      revert\n    tag_29:\n        /* \"ItemManager.sol\":1081:1102  SupplyChainState.Paid */\n      0x01\n        /* \"ItemManager.sol\":1054:1059  items */\n      0x00\n        /* \"ItemManager.sol\":1054:1071  items[_itemIndex] */\n      dup1\n        /* \"ItemManager.sol\":1060:1070  _itemIndex */\n      dup4\n        /* \"ItemManager.sol\":1054:1071  items[_itemIndex] */\n      dup2\n      mstore\n      0x20\n      add\n      swap1\n      dup2\n      mstore\n      0x20\n      add\n      0x00\n      keccak256\n        /* \"ItemManager.sol\":1054:1078  items[_itemIndex]._state */\n      0x02\n      add\n      0x00\n        /* \"ItemManager.sol\":1054:1102  items[_itemIndex]._state = SupplyChainState.Paid */\n      0x0100\n      exp\n      dup2\n      sload\n      dup2\n      0xff\n      mul\n      not\n      and\n      swap1\n      dup4\n      0x02\n      dup2\n      gt\n      iszero\n      tag_32\n      jumpi\n      tag_33\n      tag_26\n      jump\t// in\n    tag_33:\n    tag_32:\n      mul\n      or\n      swap1\n      sstore\n      pop\n        /* \"ItemManager.sol\":774:1109  function triggerPayment(uint _itemIndex) public payable {... */\n      pop\n      jump\t// out\n        /* \"ItemManager.sol\":509:768  function createItem(string memory _identifier, uint _itemPrice) public {... */\n    tag_13:\n        /* \"ItemManager.sol\":620:631  _identifier */\n      dup2\n        /* \"ItemManager.sol\":590:595  items */\n      0x00\n        /* \"ItemManager.sol\":590:606  items[itemIndex] */\n      dup1\n        /* \"ItemManager.sol\":596:605  itemIndex */\n      sload(0x01)\n        /* \"ItemManager.sol\":590:606  items[itemIndex] */\n      dup2\n      mstore\n      0x20\n      add\n      swap1\n      dup2\n      mstore\n      0x20\n      add\n      0x00\n      keccak256\n        /* \"ItemManager.sol\":590:618  items[itemIndex]._identifier */\n      0x00\n      add\n        /* \"ItemManager.sol\":590:631  items[itemIndex]._identifier =_identifier */\n      swap1\n      dup1\n      mload\n      swap1\n      0x20\n      add\n      swap1\n      tag_35\n      swap3\n      swap2\n      swap1\n      tag_36\n      jump\t// in\n    tag_35:\n      pop\n        /* \"ItemManager.sol\":670:680  _itemPrice */\n      dup1\n        /* \"ItemManager.sol\":641:646  items */\n      0x00\n        /* \"ItemManager.sol\":641:657  items[itemIndex] */\n      dup1\n        /* \"ItemManager.sol\":647:656  itemIndex */\n      sload(0x01)\n        /* \"ItemManager.sol\":641:657  items[itemIndex] */\n      dup2\n      mstore\n      0x20\n      add\n      swap1\n      dup2\n      mstore\n      0x20\n      add\n      0x00\n      keccak256\n        /* \"ItemManager.sol\":641:668  items[itemIndex]._itemPrice */\n      0x01\n      add\n        /* \"ItemManager.sol\":641:680  items[itemIndex]._itemPrice =_itemPrice */\n      dup2\n      swap1\n      sstore\n      pop\n        /* \"ItemManager.sol\":716:740  SupplyChainState.Created */\n      0x00\n        /* \"ItemManager.sol\":690:695  items */\n      dup1\n        /* \"ItemManager.sol\":690:706  items[itemIndex] */\n      0x00\n        /* \"ItemManager.sol\":696:705  itemIndex */\n      sload(0x01)\n        /* \"ItemManager.sol\":690:706  items[itemIndex] */\n      dup2\n      mstore\n      0x20\n      add\n      swap1\n      dup2\n      mstore\n      0x20\n      add\n      0x00\n      keccak256\n        /* \"ItemManager.sol\":690:713  items[itemIndex]._state */\n      0x02\n      add\n      0x00\n        /* \"ItemManager.sol\":690:740  items[itemIndex]._state = SupplyChainState.Created */\n      0x0100\n      exp\n      dup2\n      sload\n      dup2\n      0xff\n      mul\n      not\n      and\n      swap1\n      dup4\n      0x02\n      dup2\n      gt\n      iszero\n      tag_37\n      jumpi\n      tag_38\n      tag_26\n      jump\t// in\n    tag_38:\n    tag_37:\n      mul\n      or\n      swap1\n      sstore\n      pop\n        /* \"ItemManager.sol\":750:759  itemIndex */\n      0x01\n      0x00\n        /* \"ItemManager.sol\":750:761  itemIndex++ */\n      dup2\n      sload\n      dup1\n      swap3\n      swap2\n      swap1\n      tag_39\n      swap1\n      tag_40\n      jump\t// in\n    tag_39:\n      swap2\n      swap1\n      pop\n      sstore\n      pop\n        /* \"ItemManager.sol\":509:768  function createItem(string memory _identifier, uint _itemPrice) public {... */\n      pop\n      pop\n      jump\t// out\n        /* \"ItemManager.sol\":340:376  mapping(uint => S_Item) public items */\n    tag_17:\n      mstore(0x20, 0x00)\n      dup1\n      0x00\n      mstore\n      keccak256(0x00, 0x40)\n      0x00\n      swap2\n      pop\n      swap1\n      pop\n      dup1\n      0x00\n      add\n      dup1\n      sload\n      tag_41\n      swap1\n      tag_42\n      jump\t// in\n    tag_41:\n      dup1\n      0x1f\n      add\n      0x20\n      dup1\n      swap2\n      div\n      mul\n      0x20\n      add\n      mload(0x40)\n      swap1\n      dup2\n      add\n      0x40\n      mstore\n      dup1\n      swap3\n      swap2\n      swap1\n      dup2\n      dup2\n      mstore\n      0x20\n      add\n      dup3\n      dup1\n      sload\n      tag_43\n      swap1\n      tag_42\n      jump\t// in\n    tag_43:\n      dup1\n      iszero\n      tag_44\n      jumpi\n      dup1\n      0x1f\n      lt\n      tag_45\n      jumpi\n      0x0100\n      dup1\n      dup4\n      sload\n      div\n      mul\n      dup4\n      mstore\n      swap2\n      0x20\n      add\n      swap2\n      jump(tag_44)\n    tag_45:\n      dup3\n      add\n      swap2\n      swap1\n      0x00\n      mstore\n      keccak256(0x00, 0x20)\n      swap1\n    tag_46:\n      dup2\n      sload\n      dup2\n      mstore\n      swap1\n      0x01\n      add\n      swap1\n      0x20\n      add\n      dup1\n      dup4\n      gt\n      tag_46\n      jumpi\n      dup3\n      swap1\n      sub\n      0x1f\n      and\n      dup3\n      add\n      swap2\n    tag_44:\n      pop\n      pop\n      pop\n      pop\n      pop\n      swap1\n      dup1\n      0x01\n      add\n      sload\n      swap1\n      dup1\n      0x02\n      add\n      0x00\n      swap1\n      sload\n      swap1\n      0x0100\n      exp\n      swap1\n      div\n      0xff\n      and\n      swap1\n      pop\n      dup4\n      jump\t// out\n    tag_36:\n      dup3\n      dup1\n      sload\n      tag_47\n      swap1\n      tag_42\n      jump\t// in\n    tag_47:\n      swap1\n      0x00\n      mstore\n      keccak256(0x00, 0x20)\n      swap1\n      0x1f\n      add\n      0x20\n      swap1\n      div\n      dup2\n      add\n      swap3\n      dup3\n      tag_49\n      jumpi\n      0x00\n      dup6\n      sstore\n      jump(tag_48)\n    tag_49:\n      dup3\n      0x1f\n      lt\n      tag_50\n      jumpi\n      dup1\n      mload\n      not(0xff)\n      and\n      dup4\n      dup1\n      add\n      or\n      dup6\n      sstore\n      jump(tag_48)\n    tag_50:\n      dup3\n      dup1\n      add\n      0x01\n      add\n      dup6\n      sstore\n      dup3\n      iszero\n      tag_48\n      jumpi\n      swap2\n      dup3\n      add\n    tag_51:\n      dup3\n      dup2\n      gt\n      iszero\n      tag_52\n      jumpi\n      dup3\n      mload\n      dup3\n      sstore\n      swap2\n      0x20\n      add\n      swap2\n      swap1\n      0x01\n      add\n      swap1\n      jump(tag_51)\n    tag_52:\n    tag_48:\n      pop\n      swap1\n      pop\n      tag_53\n      swap2\n      swap1\n      tag_54\n      jump\t// in\n    tag_53:\n      pop\n      swap1\n      jump\t// out\n    tag_54:\n    tag_55:\n      dup1\n      dup3\n      gt\n      iszero\n      tag_56\n      jumpi\n      0x00\n      dup2\n      0x00\n      swap1\n      sstore\n      pop\n      0x01\n      add\n      jump(tag_55)\n    tag_56:\n      pop\n      swap1\n      jump\t// out\n        /* \"#utility.yul\":7:82   */\n    tag_57:\n        /* \"#utility.yul\":40:46   */\n      0x00\n        /* \"#utility.yul\":73:75   */\n      0x40\n        /* \"#utility.yul\":67:76   */\n      mload\n        /* \"#utility.yul\":57:76   */\n      swap1\n      pop\n        /* \"#utility.yul\":7:82   */\n      swap1\n      jump\t// out\n        /* \"#utility.yul\":88:205   */\n    tag_58:\n        /* \"#utility.yul\":197:198   */\n      0x00\n        /* \"#utility.yul\":194:195   */\n      dup1\n        /* \"#utility.yul\":187:199   */\n      revert\n        /* \"#utility.yul\":211:328   */\n    tag_59:\n        /* \"#utility.yul\":320:321   */\n      0x00\n        /* \"#utility.yul\":317:318   */\n      dup1\n        /* \"#utility.yul\":310:322   */\n      revert\n        /* \"#utility.yul\":334:411   */\n    tag_60:\n        /* \"#utility.yul\":371:378   */\n      0x00\n        /* \"#utility.yul\":400:405   */\n      dup2\n        /* \"#utility.yul\":389:405   */\n      swap1\n      pop\n        /* \"#utility.yul\":334:411   */\n      swap2\n      swap1\n      pop\n      jump\t// out\n        /* \"#utility.yul\":417:539   */\n    tag_61:\n        /* \"#utility.yul\":490:514   */\n      tag_94\n        /* \"#utility.yul\":508:513   */\n      dup2\n        /* \"#utility.yul\":490:514   */\n      tag_60\n      jump\t// in\n    tag_94:\n        /* \"#utility.yul\":483:488   */\n      dup2\n        /* \"#utility.yul\":480:515   */\n      eq\n        /* \"#utility.yul\":470:533   */\n      tag_95\n      jumpi\n        /* \"#utility.yul\":529:530   */\n      0x00\n        /* \"#utility.yul\":526:527   */\n      dup1\n        /* \"#utility.yul\":519:531   */\n      revert\n        /* \"#utility.yul\":470:533   */\n    tag_95:\n        /* \"#utility.yul\":417:539   */\n      pop\n      jump\t// out\n        /* \"#utility.yul\":545:684   */\n    tag_62:\n        /* \"#utility.yul\":591:596   */\n      0x00\n        /* \"#utility.yul\":629:635   */\n      dup2\n        /* \"#utility.yul\":616:636   */\n      calldataload\n        /* \"#utility.yul\":607:636   */\n      swap1\n      pop\n        /* \"#utility.yul\":645:678   */\n      tag_97\n        /* \"#utility.yul\":672:677   */\n      dup2\n        /* \"#utility.yul\":645:678   */\n      tag_61\n      jump\t// in\n    tag_97:\n        /* \"#utility.yul\":545:684   */\n      swap3\n      swap2\n      pop\n      pop\n      jump\t// out\n        /* \"#utility.yul\":690:1019   */\n    tag_7:\n        /* \"#utility.yul\":749:755   */\n      0x00\n        /* \"#utility.yul\":798:800   */\n      0x20\n        /* \"#utility.yul\":786:795   */\n      dup3\n        /* \"#utility.yul\":777:784   */\n      dup5\n        /* \"#utility.yul\":773:796   */\n      sub\n        /* \"#utility.yul\":769:801   */\n      slt\n        /* \"#utility.yul\":766:885   */\n      iszero\n      tag_99\n      jumpi\n        /* \"#utility.yul\":804:883   */\n      tag_100\n      tag_58\n      jump\t// in\n    tag_100:\n        /* \"#utility.yul\":766:885   */\n    tag_99:\n        /* \"#utility.yul\":924:925   */\n      0x00\n        /* \"#utility.yul\":949:1002   */\n      tag_101\n        /* \"#utility.yul\":994:1001   */\n      dup5\n        /* \"#utility.yul\":985:991   */\n      dup3\n        /* \"#utility.yul\":974:983   */\n      dup6\n        /* \"#utility.yul\":970:992   */\n      add\n        /* \"#utility.yul\":949:1002   */\n      tag_62\n      jump\t// in\n    tag_101:\n        /* \"#utility.yul\":939:1002   */\n      swap2\n      pop\n        /* \"#utility.yul\":895:1012   */\n      pop\n        /* \"#utility.yul\":690:1019   */\n      swap3\n      swap2\n      pop\n      pop\n      jump\t// out\n        /* \"#utility.yul\":1025:1142   */\n    tag_63:\n        /* \"#utility.yul\":1134:1135   */\n      0x00\n        /* \"#utility.yul\":1131:1132   */\n      dup1\n        /* \"#utility.yul\":1124:1136   */\n      revert\n        /* \"#utility.yul\":1148:1265   */\n    tag_64:\n        /* \"#utility.yul\":1257:1258   */\n      0x00\n        /* \"#utility.yul\":1254:1255   */\n      dup1\n        /* \"#utility.yul\":1247:1259   */\n      revert\n        /* \"#utility.yul\":1271:1373   */\n    tag_65:\n        /* \"#utility.yul\":1312:1318   */\n      0x00\n        /* \"#utility.yul\":1363:1365   */\n      0x1f\n        /* \"#utility.yul\":1359:1366   */\n      not\n        /* \"#utility.yul\":1354:1356   */\n      0x1f\n        /* \"#utility.yul\":1347:1352   */\n      dup4\n        /* \"#utility.yul\":1343:1357   */\n      add\n        /* \"#utility.yul\":1339:1367   */\n      and\n        /* \"#utility.yul\":1329:1367   */\n      swap1\n      pop\n        /* \"#utility.yul\":1271:1373   */\n      swap2\n      swap1\n      pop\n      jump\t// out\n        /* \"#utility.yul\":1379:1559   */\n    tag_66:\n        /* \"#utility.yul\":1427:1504   */\n      0x4e487b7100000000000000000000000000000000000000000000000000000000\n        /* \"#utility.yul\":1424:1425   */\n      0x00\n        /* \"#utility.yul\":1417:1505   */\n      mstore\n        /* \"#utility.yul\":1524:1528   */\n      0x41\n        /* \"#utility.yul\":1521:1522   */\n      0x04\n        /* \"#utility.yul\":1514:1529   */\n      mstore\n        /* \"#utility.yul\":1548:1552   */\n      0x24\n        /* \"#utility.yul\":1545:1546   */\n      0x00\n        /* \"#utility.yul\":1538:1553   */\n      revert\n        /* \"#utility.yul\":1565:1846   */\n    tag_67:\n        /* \"#utility.yul\":1648:1675   */\n      tag_107\n        /* \"#utility.yul\":1670:1674   */\n      dup3\n        /* \"#utility.yul\":1648:1675   */\n      tag_65\n      jump\t// in\n    tag_107:\n        /* \"#utility.yul\":1640:1646   */\n      dup2\n        /* \"#utility.yul\":1636:1676   */\n      add\n        /* \"#utility.yul\":1778:1784   */\n      dup2\n        /* \"#utility.yul\":1766:1776   */\n      dup2\n        /* \"#utility.yul\":1763:1785   */\n      lt\n        /* \"#utility.yul\":1742:1760   */\n      0xffffffffffffffff\n        /* \"#utility.yul\":1730:1740   */\n      dup3\n        /* \"#utility.yul\":1727:1761   */\n      gt\n        /* \"#utility.yul\":1724:1786   */\n      or\n        /* \"#utility.yul\":1721:1809   */\n      iszero\n      tag_108\n      jumpi\n        /* \"#utility.yul\":1789:1807   */\n      tag_109\n      tag_66\n      jump\t// in\n    tag_109:\n        /* \"#utility.yul\":1721:1809   */\n    tag_108:\n        /* \"#utility.yul\":1829:1839   */\n      dup1\n        /* \"#utility.yul\":1825:1827   */\n      0x40\n        /* \"#utility.yul\":1818:1840   */\n      mstore\n        /* \"#utility.yul\":1608:1846   */\n      pop\n        /* \"#utility.yul\":1565:1846   */\n      pop\n      pop\n      jump\t// out\n        /* \"#utility.yul\":1852:1981   */\n    tag_68:\n        /* \"#utility.yul\":1886:1892   */\n      0x00\n        /* \"#utility.yul\":1913:1933   */\n      tag_111\n      tag_57\n      jump\t// in\n    tag_111:\n        /* \"#utility.yul\":1903:1933   */\n      swap1\n      pop\n        /* \"#utility.yul\":1942:1975   */\n      tag_112\n        /* \"#utility.yul\":1970:1974   */\n      dup3\n        /* \"#utility.yul\":1962:1968   */\n      dup3\n        /* \"#utility.yul\":1942:1975   */\n      tag_67\n      jump\t// in\n    tag_112:\n        /* \"#utility.yul\":1852:1981   */\n      swap2\n      swap1\n      pop\n      jump\t// out\n        /* \"#utility.yul\":1987:2295   */\n    tag_69:\n        /* \"#utility.yul\":2049:2053   */\n      0x00\n        /* \"#utility.yul\":2139:2157   */\n      0xffffffffffffffff\n        /* \"#utility.yul\":2131:2137   */\n      dup3\n        /* \"#utility.yul\":2128:2158   */\n      gt\n        /* \"#utility.yul\":2125:2181   */\n      iszero\n      tag_114\n      jumpi\n        /* \"#utility.yul\":2161:2179   */\n      tag_115\n      tag_66\n      jump\t// in\n    tag_115:\n        /* \"#utility.yul\":2125:2181   */\n    tag_114:\n        /* \"#utility.yul\":2199:2228   */\n      tag_116\n        /* \"#utility.yul\":2221:2227   */\n      dup3\n        /* \"#utility.yul\":2199:2228   */\n      tag_65\n      jump\t// in\n    tag_116:\n        /* \"#utility.yul\":2191:2228   */\n      swap1\n      pop\n        /* \"#utility.yul\":2283:2287   */\n      0x20\n        /* \"#utility.yul\":2277:2281   */\n      dup2\n        /* \"#utility.yul\":2273:2288   */\n      add\n        /* \"#utility.yul\":2265:2288   */\n      swap1\n      pop\n        /* \"#utility.yul\":1987:2295   */\n      swap2\n      swap1\n      pop\n      jump\t// out\n        /* \"#utility.yul\":2301:2455   */\n    tag_70:\n        /* \"#utility.yul\":2385:2391   */\n      dup3\n        /* \"#utility.yul\":2380:2383   */\n      dup2\n        /* \"#utility.yul\":2375:2378   */\n      dup4\n        /* \"#utility.yul\":2362:2392   */\n      calldatacopy\n        /* \"#utility.yul\":2447:2448   */\n      0x00\n        /* \"#utility.yul\":2438:2444   */\n      dup4\n        /* \"#utility.yul\":2433:2436   */\n      dup4\n        /* \"#utility.yul\":2429:2445   */\n      add\n        /* \"#utility.yul\":2422:2449   */\n      mstore\n        /* \"#utility.yul\":2301:2455   */\n      pop\n      pop\n      pop\n      jump\t// out\n        /* \"#utility.yul\":2461:2873   */\n    tag_71:\n        /* \"#utility.yul\":2539:2544   */\n      0x00\n        /* \"#utility.yul\":2564:2630   */\n      tag_119\n        /* \"#utility.yul\":2580:2629   */\n      tag_120\n        /* \"#utility.yul\":2622:2628   */\n      dup5\n        /* \"#utility.yul\":2580:2629   */\n      tag_69\n      jump\t// in\n    tag_120:\n        /* \"#utility.yul\":2564:2630   */\n      tag_68\n      jump\t// in\n    tag_119:\n        /* \"#utility.yul\":2555:2630   */\n      swap1\n      pop\n        /* \"#utility.yul\":2653:2659   */\n      dup3\n        /* \"#utility.yul\":2646:2651   */\n      dup2\n        /* \"#utility.yul\":2639:2660   */\n      mstore\n        /* \"#utility.yul\":2691:2695   */\n      0x20\n        /* \"#utility.yul\":2684:2689   */\n      dup2\n        /* \"#utility.yul\":2680:2696   */\n      add\n        /* \"#utility.yul\":2729:2732   */\n      dup5\n        /* \"#utility.yul\":2720:2726   */\n      dup5\n        /* \"#utility.yul\":2715:2718   */\n      dup5\n        /* \"#utility.yul\":2711:2727   */\n      add\n        /* \"#utility.yul\":2708:2733   */\n      gt\n        /* \"#utility.yul\":2705:2817   */\n      iszero\n      tag_121\n      jumpi\n        /* \"#utility.yul\":2736:2815   */\n      tag_122\n      tag_64\n      jump\t// in\n    tag_122:\n        /* \"#utility.yul\":2705:2817   */\n    tag_121:\n        /* \"#utility.yul\":2826:2867   */\n      tag_123\n        /* \"#utility.yul\":2860:2866   */\n      dup5\n        /* \"#utility.yul\":2855:2858   */\n      dup3\n        /* \"#utility.yul\":2850:2853   */\n      dup6\n        /* \"#utility.yul\":2826:2867   */\n      tag_70\n      jump\t// in\n    tag_123:\n        /* \"#utility.yul\":2545:2873   */\n      pop\n        /* \"#utility.yul\":2461:2873   */\n      swap4\n      swap3\n      pop\n      pop\n      pop\n      jump\t// out\n        /* \"#utility.yul\":2893:3233   */\n    tag_72:\n        /* \"#utility.yul\":2949:2954   */\n      0x00\n        /* \"#utility.yul\":2998:3001   */\n      dup3\n        /* \"#utility.yul\":2991:2995   */\n      0x1f\n        /* \"#utility.yul\":2983:2989   */\n      dup4\n        /* \"#utility.yul\":2979:2996   */\n      add\n        /* \"#utility.yul\":2975:3002   */\n      slt\n        /* \"#utility.yul\":2965:3087   */\n      tag_125\n      jumpi\n        /* \"#utility.yul\":3006:3085   */\n      tag_126\n      tag_63\n      jump\t// in\n    tag_126:\n        /* \"#utility.yul\":2965:3087   */\n    tag_125:\n        /* \"#utility.yul\":3123:3129   */\n      dup2\n        /* \"#utility.yul\":3110:3130   */\n      calldataload\n        /* \"#utility.yul\":3148:3227   */\n      tag_127\n        /* \"#utility.yul\":3223:3226   */\n      dup5\n        /* \"#utility.yul\":3215:3221   */\n      dup3\n        /* \"#utility.yul\":3208:3212   */\n      0x20\n        /* \"#utility.yul\":3200:3206   */\n      dup7\n        /* \"#utility.yul\":3196:3213   */\n      add\n        /* \"#utility.yul\":3148:3227   */\n      tag_71\n      jump\t// in\n    tag_127:\n        /* \"#utility.yul\":3139:3227   */\n      swap2\n      pop\n        /* \"#utility.yul\":2955:3233   */\n      pop\n        /* \"#utility.yul\":2893:3233   */\n      swap3\n      swap2\n      pop\n      pop\n      jump\t// out\n        /* \"#utility.yul\":3239:3893   */\n    tag_12:\n        /* \"#utility.yul\":3317:3323   */\n      0x00\n        /* \"#utility.yul\":3325:3331   */\n      dup1\n        /* \"#utility.yul\":3374:3376   */\n      0x40\n        /* \"#utility.yul\":3362:3371   */\n      dup4\n        /* \"#utility.yul\":3353:3360   */\n      dup6\n        /* \"#utility.yul\":3349:3372   */\n      sub\n        /* \"#utility.yul\":3345:3377   */\n      slt\n        /* \"#utility.yul\":3342:3461   */\n      iszero\n      tag_129\n      jumpi\n        /* \"#utility.yul\":3380:3459   */\n      tag_130\n      tag_58\n      jump\t// in\n    tag_130:\n        /* \"#utility.yul\":3342:3461   */\n    tag_129:\n        /* \"#utility.yul\":3528:3529   */\n      0x00\n        /* \"#utility.yul\":3517:3526   */\n      dup4\n        /* \"#utility.yul\":3513:3530   */\n      add\n        /* \"#utility.yul\":3500:3531   */\n      calldataload\n        /* \"#utility.yul\":3558:3576   */\n      0xffffffffffffffff\n        /* \"#utility.yul\":3550:3556   */\n      dup2\n        /* \"#utility.yul\":3547:3577   */\n      gt\n        /* \"#utility.yul\":3544:3661   */\n      iszero\n      tag_131\n      jumpi\n        /* \"#utility.yul\":3580:3659   */\n      tag_132\n      tag_59\n      jump\t// in\n    tag_132:\n        /* \"#utility.yul\":3544:3661   */\n    tag_131:\n        /* \"#utility.yul\":3685:3748   */\n      tag_133\n        /* \"#utility.yul\":3740:3747   */\n      dup6\n        /* \"#utility.yul\":3731:3737   */\n      dup3\n        /* \"#utility.yul\":3720:3729   */\n      dup7\n        /* \"#utility.yul\":3716:3738   */\n      add\n        /* \"#utility.yul\":3685:3748   */\n      tag_72\n      jump\t// in\n    tag_133:\n        /* \"#utility.yul\":3675:3748   */\n      swap3\n      pop\n        /* \"#utility.yul\":3471:3758   */\n      pop\n        /* \"#utility.yul\":3797:3799   */\n      0x20\n        /* \"#utility.yul\":3823:3876   */\n      tag_134\n        /* \"#utility.yul\":3868:3875   */\n      dup6\n        /* \"#utility.yul\":3859:3865   */\n      dup3\n        /* \"#utility.yul\":3848:3857   */\n      dup7\n        /* \"#utility.yul\":3844:3866   */\n      add\n        /* \"#utility.yul\":3823:3876   */\n      tag_62\n      jump\t// in\n    tag_134:\n        /* \"#utility.yul\":3813:3876   */\n      swap2\n      pop\n        /* \"#utility.yul\":3768:3886   */\n      pop\n        /* \"#utility.yul\":3239:3893   */\n      swap3\n      pop\n      swap3\n      swap1\n      pop\n      jump\t// out\n        /* \"#utility.yul\":3899:3998   */\n    tag_73:\n        /* \"#utility.yul\":3951:3957   */\n      0x00\n        /* \"#utility.yul\":3985:3990   */\n      dup2\n        /* \"#utility.yul\":3979:3991   */\n      mload\n        /* \"#utility.yul\":3969:3991   */\n      swap1\n      pop\n        /* \"#utility.yul\":3899:3998   */\n      swap2\n      swap1\n      pop\n      jump\t// out\n        /* \"#utility.yul\":4004:4173   */\n    tag_74:\n        /* \"#utility.yul\":4088:4099   */\n      0x00\n        /* \"#utility.yul\":4122:4128   */\n      dup3\n        /* \"#utility.yul\":4117:4120   */\n      dup3\n        /* \"#utility.yul\":4110:4129   */\n      mstore\n        /* \"#utility.yul\":4162:4166   */\n      0x20\n        /* \"#utility.yul\":4157:4160   */\n      dup3\n        /* \"#utility.yul\":4153:4167   */\n      add\n        /* \"#utility.yul\":4138:4167   */\n      swap1\n      pop\n        /* \"#utility.yul\":4004:4173   */\n      swap3\n      swap2\n      pop\n      pop\n      jump\t// out\n        /* \"#utility.yul\":4179:4486   */\n    tag_75:\n        /* \"#utility.yul\":4247:4248   */\n      0x00\n        /* \"#utility.yul\":4257:4370   */\n    tag_138:\n        /* \"#utility.yul\":4271:4277   */\n      dup4\n        /* \"#utility.yul\":4268:4269   */\n      dup2\n        /* \"#utility.yul\":4265:4278   */\n      lt\n        /* \"#utility.yul\":4257:4370   */\n      iszero\n      tag_140\n      jumpi\n        /* \"#utility.yul\":4356:4357   */\n      dup1\n        /* \"#utility.yul\":4351:4354   */\n      dup3\n        /* \"#utility.yul\":4347:4358   */\n      add\n        /* \"#utility.yul\":4341:4359   */\n      mload\n        /* \"#utility.yul\":4337:4338   */\n      dup2\n        /* \"#utility.yul\":4332:4335   */\n      dup5\n        /* \"#utility.yul\":4328:4339   */\n      add\n        /* \"#utility.yul\":4321:4360   */\n      mstore\n        /* \"#utility.yul\":4293:4295   */\n      0x20\n        /* \"#utility.yul\":4290:4291   */\n      dup2\n        /* \"#utility.yul\":4286:4296   */\n      add\n        /* \"#utility.yul\":4281:4296   */\n      swap1\n      pop\n        /* \"#utility.yul\":4257:4370   */\n      jump(tag_138)\n    tag_140:\n        /* \"#utility.yul\":4388:4394   */\n      dup4\n        /* \"#utility.yul\":4385:4386   */\n      dup2\n        /* \"#utility.yul\":4382:4395   */\n      gt\n        /* \"#utility.yul\":4379:4480   */\n      iszero\n      tag_141\n      jumpi\n        /* \"#utility.yul\":4468:4469   */\n      0x00\n        /* \"#utility.yul\":4459:4465   */\n      dup5\n        /* \"#utility.yul\":4454:4457   */\n      dup5\n        /* \"#utility.yul\":4450:4466   */\n      add\n        /* \"#utility.yul\":4443:4470   */\n      mstore\n        /* \"#utility.yul\":4379:4480   */\n    tag_141:\n        /* \"#utility.yul\":4228:4486   */\n      pop\n        /* \"#utility.yul\":4179:4486   */\n      pop\n      pop\n      pop\n      jump\t// out\n        /* \"#utility.yul\":4492:4856   */\n    tag_76:\n        /* \"#utility.yul\":4580:4583   */\n      0x00\n        /* \"#utility.yul\":4608:4647   */\n      tag_143\n        /* \"#utility.yul\":4641:4646   */\n      dup3\n        /* \"#utility.yul\":4608:4647   */\n      tag_73\n      jump\t// in\n    tag_143:\n        /* \"#utility.yul\":4663:4734   */\n      tag_144\n        /* \"#utility.yul\":4727:4733   */\n      dup2\n        /* \"#utility.yul\":4722:4725   */\n      dup6\n        /* \"#utility.yul\":4663:4734   */\n      tag_74\n      jump\t// in\n    tag_144:\n        /* \"#utility.yul\":4656:4734   */\n      swap4\n      pop\n        /* \"#utility.yul\":4743:4795   */\n      tag_145\n        /* \"#utility.yul\":4788:4794   */\n      dup2\n        /* \"#utility.yul\":4783:4786   */\n      dup6\n        /* \"#utility.yul\":4776:4780   */\n      0x20\n        /* \"#utility.yul\":4769:4774   */\n      dup7\n        /* \"#utility.yul\":4765:4781   */\n      add\n        /* \"#utility.yul\":4743:4795   */\n      tag_75\n      jump\t// in\n    tag_145:\n        /* \"#utility.yul\":4820:4849   */\n      tag_146\n        /* \"#utility.yul\":4842:4848   */\n      dup2\n        /* \"#utility.yul\":4820:4849   */\n      tag_65\n      jump\t// in\n    tag_146:\n        /* \"#utility.yul\":4815:4818   */\n      dup5\n        /* \"#utility.yul\":4811:4850   */\n      add\n        /* \"#utility.yul\":4804:4850   */\n      swap2\n      pop\n        /* \"#utility.yul\":4584:4856   */\n      pop\n        /* \"#utility.yul\":4492:4856   */\n      swap3\n      swap2\n      pop\n      pop\n      jump\t// out\n        /* \"#utility.yul\":4862:4980   */\n    tag_77:\n        /* \"#utility.yul\":4949:4973   */\n      tag_148\n        /* \"#utility.yul\":4967:4972   */\n      dup2\n        /* \"#utility.yul\":4949:4973   */\n      tag_60\n      jump\t// in\n    tag_148:\n        /* \"#utility.yul\":4944:4947   */\n      dup3\n        /* \"#utility.yul\":4937:4974   */\n      mstore\n        /* \"#utility.yul\":4862:4980   */\n      pop\n      pop\n      jump\t// out\n        /* \"#utility.yul\":4986:5166   */\n    tag_26:\n        /* \"#utility.yul\":5034:5111   */\n      0x4e487b7100000000000000000000000000000000000000000000000000000000\n        /* \"#utility.yul\":5031:5032   */\n      0x00\n        /* \"#utility.yul\":5024:5112   */\n      mstore\n        /* \"#utility.yul\":5131:5135   */\n      0x21\n        /* \"#utility.yul\":5128:5129   */\n      0x04\n        /* \"#utility.yul\":5121:5136   */\n      mstore\n        /* \"#utility.yul\":5155:5159   */\n      0x24\n        /* \"#utility.yul\":5152:5153   */\n      0x00\n        /* \"#utility.yul\":5145:5160   */\n      revert\n        /* \"#utility.yul\":5172:5295   */\n    tag_78:\n        /* \"#utility.yul\":5263:5264   */\n      0x03\n        /* \"#utility.yul\":5256:5261   */\n      dup2\n        /* \"#utility.yul\":5253:5265   */\n      lt\n        /* \"#utility.yul\":5243:5289   */\n      tag_151\n      jumpi\n        /* \"#utility.yul\":5269:5287   */\n      tag_152\n      tag_26\n      jump\t// in\n    tag_152:\n        /* \"#utility.yul\":5243:5289   */\n    tag_151:\n        /* \"#utility.yul\":5172:5295   */\n      pop\n      jump\t// out\n        /* \"#utility.yul\":5301:5448   */\n    tag_79:\n        /* \"#utility.yul\":5356:5363   */\n      0x00\n        /* \"#utility.yul\":5385:5390   */\n      dup2\n        /* \"#utility.yul\":5374:5390   */\n      swap1\n      pop\n        /* \"#utility.yul\":5391:5442   */\n      tag_154\n        /* \"#utility.yul\":5436:5441   */\n      dup3\n        /* \"#utility.yul\":5391:5442   */\n      tag_78\n      jump\t// in\n    tag_154:\n        /* \"#utility.yul\":5301:5448   */\n      swap2\n      swap1\n      pop\n      jump\t// out\n        /* \"#utility.yul\":5454:5601   */\n    tag_80:\n        /* \"#utility.yul\":5520:5529   */\n      0x00\n        /* \"#utility.yul\":5553:5595   */\n      tag_156\n        /* \"#utility.yul\":5589:5594   */\n      dup3\n        /* \"#utility.yul\":5553:5595   */\n      tag_79\n      jump\t// in\n    tag_156:\n        /* \"#utility.yul\":5540:5595   */\n      swap1\n      pop\n        /* \"#utility.yul\":5454:5601   */\n      swap2\n      swap1\n      pop\n      jump\t// out\n        /* \"#utility.yul\":5607:5770   */\n    tag_81:\n        /* \"#utility.yul\":5710:5763   */\n      tag_158\n        /* \"#utility.yul\":5757:5762   */\n      dup2\n        /* \"#utility.yul\":5710:5763   */\n      tag_80\n      jump\t// in\n    tag_158:\n        /* \"#utility.yul\":5705:5708   */\n      dup3\n        /* \"#utility.yul\":5698:5764   */\n      mstore\n        /* \"#utility.yul\":5607:5770   */\n      pop\n      pop\n      jump\t// out\n        /* \"#utility.yul\":5776:6341   */\n    tag_19:\n        /* \"#utility.yul\":5961:5965   */\n      0x00\n        /* \"#utility.yul\":5999:6001   */\n      0x60\n        /* \"#utility.yul\":5988:5997   */\n      dup3\n        /* \"#utility.yul\":5984:6002   */\n      add\n        /* \"#utility.yul\":5976:6002   */\n      swap1\n      pop\n        /* \"#utility.yul\":6048:6057   */\n      dup2\n        /* \"#utility.yul\":6042:6046   */\n      dup2\n        /* \"#utility.yul\":6038:6058   */\n      sub\n        /* \"#utility.yul\":6034:6035   */\n      0x00\n        /* \"#utility.yul\":6023:6032   */\n      dup4\n        /* \"#utility.yul\":6019:6036   */\n      add\n        /* \"#utility.yul\":6012:6059   */\n      mstore\n        /* \"#utility.yul\":6076:6154   */\n      tag_160\n        /* \"#utility.yul\":6149:6153   */\n      dup2\n        /* \"#utility.yul\":6140:6146   */\n      dup7\n        /* \"#utility.yul\":6076:6154   */\n      tag_76\n      jump\t// in\n    tag_160:\n        /* \"#utility.yul\":6068:6154   */\n      swap1\n      pop\n        /* \"#utility.yul\":6164:6236   */\n      tag_161\n        /* \"#utility.yul\":6232:6234   */\n      0x20\n        /* \"#utility.yul\":6221:6230   */\n      dup4\n        /* \"#utility.yul\":6217:6235   */\n      add\n        /* \"#utility.yul\":6208:6214   */\n      dup6\n        /* \"#utility.yul\":6164:6236   */\n      tag_77\n      jump\t// in\n    tag_161:\n        /* \"#utility.yul\":6246:6334   */\n      tag_162\n        /* \"#utility.yul\":6330:6332   */\n      0x40\n        /* \"#utility.yul\":6319:6328   */\n      dup4\n        /* \"#utility.yul\":6315:6333   */\n      add\n        /* \"#utility.yul\":6306:6312   */\n      dup5\n        /* \"#utility.yul\":6246:6334   */\n      tag_81\n      jump\t// in\n    tag_162:\n        /* \"#utility.yul\":5776:6341   */\n      swap5\n      swap4\n      pop\n      pop\n      pop\n      pop\n      jump\t// out\n        /* \"#utility.yul\":6347:6525   */\n    tag_82:\n        /* \"#utility.yul\":6487:6517   */\n      0x4f6e6c79206578616374207061796d656e747320616363657074656400000000\n        /* \"#utility.yul\":6483:6484   */\n      0x00\n        /* \"#utility.yul\":6475:6481   */\n      dup3\n        /* \"#utility.yul\":6471:6485   */\n      add\n        /* \"#utility.yul\":6464:6518   */\n      mstore\n        /* \"#utility.yul\":6347:6525   */\n      pop\n      jump\t// out\n        /* \"#utility.yul\":6531:6897   */\n    tag_83:\n        /* \"#utility.yul\":6673:6676   */\n      0x00\n        /* \"#utility.yul\":6694:6761   */\n      tag_165\n        /* \"#utility.yul\":6758:6760   */\n      0x1c\n        /* \"#utility.yul\":6753:6756   */\n      dup4\n        /* \"#utility.yul\":6694:6761   */\n      tag_74\n      jump\t// in\n    tag_165:\n        /* \"#utility.yul\":6687:6761   */\n      swap2\n      pop\n        /* \"#utility.yul\":6770:6863   */\n      tag_166\n        /* \"#utility.yul\":6859:6862   */\n      dup3\n        /* \"#utility.yul\":6770:6863   */\n      tag_82\n      jump\t// in\n    tag_166:\n        /* \"#utility.yul\":6888:6890   */\n      0x20\n        /* \"#utility.yul\":6883:6886   */\n      dup3\n        /* \"#utility.yul\":6879:6891   */\n      add\n        /* \"#utility.yul\":6872:6891   */\n      swap1\n      pop\n        /* \"#utility.yul\":6531:6897   */\n      swap2\n      swap1\n      pop\n      jump\t// out\n        /* \"#utility.yul\":6903:7322   */\n    tag_23:\n        /* \"#utility.yul\":7069:7073   */\n      0x00\n        /* \"#utility.yul\":7107:7109   */\n      0x20\n        /* \"#utility.yul\":7096:7105   */\n      dup3\n        /* \"#utility.yul\":7092:7110   */\n      add\n        /* \"#utility.yul\":7084:7110   */\n      swap1\n      pop\n        /* \"#utility.yul\":7156:7165   */\n      dup2\n        /* \"#utility.yul\":7150:7154   */\n      dup2\n        /* \"#utility.yul\":7146:7166   */\n      sub\n        /* \"#utility.yul\":7142:7143   */\n      0x00\n        /* \"#utility.yul\":7131:7140   */\n      dup4\n        /* \"#utility.yul\":7127:7144   */\n      add\n        /* \"#utility.yul\":7120:7167   */\n      mstore\n        /* \"#utility.yul\":7184:7315   */\n      tag_168\n        /* \"#utility.yul\":7310:7314   */\n      dup2\n        /* \"#utility.yul\":7184:7315   */\n      tag_83\n      jump\t// in\n    tag_168:\n        /* \"#utility.yul\":7176:7315   */\n      swap1\n      pop\n        /* \"#utility.yul\":6903:7322   */\n      swap2\n      swap1\n      pop\n      jump\t// out\n        /* \"#utility.yul\":7328:7562   */\n    tag_84:\n        /* \"#utility.yul\":7468:7502   */\n      0x546865206974656d20697320616c7265616479206675727468657220696e2074\n        /* \"#utility.yul\":7464:7465   */\n      0x00\n        /* \"#utility.yul\":7456:7462   */\n      dup3\n        /* \"#utility.yul\":7452:7466   */\n      add\n        /* \"#utility.yul\":7445:7503   */\n      mstore\n        /* \"#utility.yul\":7537:7554   */\n      0x686520737570706c7920636861696e0000000000000000000000000000000000\n        /* \"#utility.yul\":7532:7534   */\n      0x20\n        /* \"#utility.yul\":7524:7530   */\n      dup3\n        /* \"#utility.yul\":7520:7535   */\n      add\n        /* \"#utility.yul\":7513:7555   */\n      mstore\n        /* \"#utility.yul\":7328:7562   */\n      pop\n      jump\t// out\n        /* \"#utility.yul\":7568:7934   */\n    tag_85:\n        /* \"#utility.yul\":7710:7713   */\n      0x00\n        /* \"#utility.yul\":7731:7798   */\n      tag_171\n        /* \"#utility.yul\":7795:7797   */\n      0x2f\n        /* \"#utility.yul\":7790:7793   */\n      dup4\n        /* \"#utility.yul\":7731:7798   */\n      tag_74\n      jump\t// in\n    tag_171:\n        /* \"#utility.yul\":7724:7798   */\n      swap2\n      pop\n        /* \"#utility.yul\":7807:7900   */\n      tag_172\n        /* \"#utility.yul\":7896:7899   */\n      dup3\n        /* \"#utility.yul\":7807:7900   */\n      tag_84\n      jump\t// in\n    tag_172:\n        /* \"#utility.yul\":7925:7927   */\n      0x40\n        /* \"#utility.yul\":7920:7923   */\n      dup3\n        /* \"#utility.yul\":7916:7928   */\n      add\n        /* \"#utility.yul\":7909:7928   */\n      swap1\n      pop\n        /* \"#utility.yul\":7568:7934   */\n      swap2\n      swap1\n      pop\n      jump\t// out\n        /* \"#utility.yul\":7940:8359   */\n    tag_31:\n        /* \"#utility.yul\":8106:8110   */\n      0x00\n        /* \"#utility.yul\":8144:8146   */\n      0x20\n        /* \"#utility.yul\":8133:8142   */\n      dup3\n        /* \"#utility.yul\":8129:8147   */\n      add\n        /* \"#utility.yul\":8121:8147   */\n      swap1\n      pop\n        /* \"#utility.yul\":8193:8202   */\n      dup2\n        /* \"#utility.yul\":8187:8191   */\n      dup2\n        /* \"#utility.yul\":8183:8203   */\n      sub\n        /* \"#utility.yul\":8179:8180   */\n      0x00\n        /* \"#utility.yul\":8168:8177   */\n      dup4\n        /* \"#utility.yul\":8164:8181   */\n      add\n        /* \"#utility.yul\":8157:8204   */\n      mstore\n        /* \"#utility.yul\":8221:8352   */\n      tag_174\n        /* \"#utility.yul\":8347:8351   */\n      dup2\n        /* \"#utility.yul\":8221:8352   */\n      tag_85\n      jump\t// in\n    tag_174:\n        /* \"#utility.yul\":8213:8352   */\n      swap1\n      pop\n        /* \"#utility.yul\":7940:8359   */\n      swap2\n      swap1\n      pop\n      jump\t// out\n        /* \"#utility.yul\":8365:8545   */\n    tag_86:\n        /* \"#utility.yul\":8413:8490   */\n      0x4e487b7100000000000000000000000000000000000000000000000000000000\n        /* \"#utility.yul\":8410:8411   */\n      0x00\n        /* \"#utility.yul\":8403:8491   */\n      mstore\n        /* \"#utility.yul\":8510:8514   */\n      0x11\n        /* \"#utility.yul\":8507:8508   */\n      0x04\n        /* \"#utility.yul\":8500:8515   */\n      mstore\n        /* \"#utility.yul\":8534:8538   */\n      0x24\n        /* \"#utility.yul\":8531:8532   */\n      0x00\n        /* \"#utility.yul\":8524:8539   */\n      revert\n        /* \"#utility.yul\":8551:8784   */\n    tag_40:\n        /* \"#utility.yul\":8590:8593   */\n      0x00\n        /* \"#utility.yul\":8613:8637   */\n      tag_177\n        /* \"#utility.yul\":8631:8636   */\n      dup3\n        /* \"#utility.yul\":8613:8637   */\n      tag_60\n      jump\t// in\n    tag_177:\n        /* \"#utility.yul\":8604:8637   */\n      swap2\n      pop\n        /* \"#utility.yul\":8659:8725   */\n      0xffffffffffffffffffffffffffffffffffffffffffffffffffffffffffffffff\n        /* \"#utility.yul\":8652:8657   */\n      dup3\n        /* \"#utility.yul\":8649:8726   */\n      sub\n        /* \"#utility.yul\":8646:8749   */\n      tag_178\n      jumpi\n        /* \"#utility.yul\":8729:8747   */\n      tag_179\n      tag_86\n      jump\t// in\n    tag_179:\n        /* \"#utility.yul\":8646:8749   */\n    tag_178:\n        /* \"#utility.yul\":8776:8777   */\n      0x01\n        /* \"#utility.yul\":8769:8774   */\n      dup3\n        /* \"#utility.yul\":8765:8778   */\n      add\n        /* \"#utility.yul\":8758:8778   */\n      swap1\n      pop\n        /* \"#utility.yul\":8551:8784   */\n      swap2\n      swap1\n      pop\n      jump\t// out\n        /* \"#utility.yul\":8790:8970   */\n    tag_87:\n        /* \"#utility.yul\":8838:8915   */\n      0x4e487b7100000000000000000000000000000000000000000000000000000000\n        /* \"#utility.yul\":8835:8836   */\n      0x00\n        /* \"#utility.yul\":8828:8916   */\n      mstore\n        /* \"#utility.yul\":8935:8939   */\n      0x22\n        /* \"#utility.yul\":8932:8933   */\n      0x04\n        /* \"#utility.yul\":8925:8940   */\n      mstore\n        /* \"#utility.yul\":8959:8963   */\n      0x24\n        /* \"#utility.yul\":8956:8957   */\n      0x00\n        /* \"#utility.yul\":8949:8964   */\n      revert\n        /* \"#utility.yul\":8976:9296   */\n    tag_42:\n        /* \"#utility.yul\":9020:9026   */\n      0x00\n        /* \"#utility.yul\":9057:9058   */\n      0x02\n        /* \"#utility.yul\":9051:9055   */\n      dup3\n        /* \"#utility.yul\":9047:9059   */\n      div\n        /* \"#utility.yul\":9037:9059   */\n      swap1\n      pop\n        /* \"#utility.yul\":9104:9105   */\n      0x01\n        /* \"#utility.yul\":9098:9102   */\n      dup3\n        /* \"#utility.yul\":9094:9106   */\n      and\n        /* \"#utility.yul\":9125:9143   */\n      dup1\n        /* \"#utility.yul\":9115:9196   */\n      tag_182\n      jumpi\n        /* \"#utility.yul\":9181:9185   */\n      0x7f\n        /* \"#utility.yul\":9173:9179   */\n      dup3\n        /* \"#utility.yul\":9169:9186   */\n      and\n        /* \"#utility.yul\":9159:9186   */\n      swap2\n      pop\n        /* \"#utility.yul\":9115:9196   */\n    tag_182:\n        /* \"#utility.yul\":9243:9245   */\n      0x20\n        /* \"#utility.yul\":9235:9241   */\n      dup3\n        /* \"#utility.yul\":9232:9246   */\n      lt\n        /* \"#utility.yul\":9212:9230   */\n      dup2\n        /* \"#utility.yul\":9209:9247   */\n      sub\n        /* \"#utility.yul\":9206:9290   */\n      tag_183\n      jumpi\n        /* \"#utility.yul\":9262:9280   */\n      tag_184\n      tag_87\n      jump\t// in\n    tag_184:\n        /* \"#utility.yul\":9206:9290   */\n    tag_183:\n        /* \"#utility.yul\":9027:9296   */\n      pop\n        /* \"#utility.yul\":8976:9296   */\n      swap2\n      swap1\n      pop\n      jump\t// out\n\n    auxdata: 0xa264697066735822122064bd83cffef24fd674ff52842504b516e8c0993eb42aa62ec185739715f1a14a64736f6c634300080d0033\n}\n",
				"bytecode": {
					"linkReferences": {},
					"object": "608060405234801561001057600080fd5b50610954806100206000396000f3fe6080604052600436106100345760003560e01c8063800fb83f146100395780638c55174214610055578063bfb231d21461007e575b600080fd5b610053600480360381019061004e919061042e565b6100bd565b005b34801561006157600080fd5b5061007c600480360381019061007791906105a1565b6101de565b005b34801561008a57600080fd5b506100a560048036038101906100a0919061042e565b610282565b6040516100b49392919061070b565b60405180910390f35b346000808381526020019081526020016000206001015414610114576040517f08c379a000000000000000000000000000000000000000000000000000000000815260040161010b90610795565b60405180910390fd5b6000600281111561012857610127610694565b5b60008083815260200190815260200160002060020160009054906101000a900460ff16600281111561015d5761015c610694565b5b1461019d576040517f08c379a000000000000000000000000000000000000000000000000000000000815260040161019490610827565b60405180910390fd5b600160008083815260200190815260200160002060020160006101000a81548160ff021916908360028111156101d6576101d5610694565b5b021790555050565b8160008060015481526020019081526020016000206000019080519060200190610209929190610341565b50806000806001548152602001908152602001600020600101819055506000806000600154815260200190815260200160002060020160006101000a81548160ff0219169083600281111561026157610260610694565b5b02179055506001600081548092919061027990610876565b91905055505050565b60006020528060005260406000206000915090508060000180546102a5906108ed565b80601f01602080910402602001604051908101604052809291908181526020018280546102d1906108ed565b801561031e5780601f106102f35761010080835404028352916020019161031e565b820191906000526020600020905b81548152906001019060200180831161030157829003601f168201915b5050505050908060010154908060020160009054906101000a900460ff16905083565b82805461034d906108ed565b90600052602060002090601f01602090048101928261036f57600085556103b6565b82601f1061038857805160ff19168380011785556103b6565b828001600101855582156103b6579182015b828111156103b557825182559160200191906001019061039a565b5b5090506103c391906103c7565b5090565b5b808211156103e05760008160009055506001016103c8565b5090565b6000604051905090565b600080fd5b600080fd5b6000819050919050565b61040b816103f8565b811461041657600080fd5b50565b60008135905061042881610402565b92915050565b600060208284031215610444576104436103ee565b5b600061045284828501610419565b91505092915050565b600080fd5b600080fd5b6000601f19601f8301169050919050565b7f4e487b7100000000000000000000000000000000000000000000000000000000600052604160045260246000fd5b6104ae82610465565b810181811067ffffffffffffffff821117156104cd576104cc610476565b5b80604052505050565b60006104e06103e4565b90506104ec82826104a5565b919050565b600067ffffffffffffffff82111561050c5761050b610476565b5b61051582610465565b9050602081019050919050565b82818337600083830152505050565b600061054461053f846104f1565b6104d6565b9050828152602081018484840111156105605761055f610460565b5b61056b848285610522565b509392505050565b600082601f8301126105885761058761045b565b5b8135610598848260208601610531565b91505092915050565b600080604083850312156105b8576105b76103ee565b5b600083013567ffffffffffffffff8111156105d6576105d56103f3565b5b6105e285828601610573565b92505060206105f385828601610419565b9150509250929050565b600081519050919050565b600082825260208201905092915050565b60005b8381101561063757808201518184015260208101905061061c565b83811115610646576000848401525b50505050565b6000610657826105fd565b6106618185610608565b9350610671818560208601610619565b61067a81610465565b840191505092915050565b61068e816103f8565b82525050565b7f4e487b7100000000000000000000000000000000000000000000000000000000600052602160045260246000fd5b600381106106d4576106d3610694565b5b50565b60008190506106e5826106c3565b919050565b60006106f5826106d7565b9050919050565b610705816106ea565b82525050565b60006060820190508181036000830152610725818661064c565b90506107346020830185610685565b61074160408301846106fc565b949350505050565b7f4f6e6c79206578616374207061796d656e747320616363657074656400000000600082015250565b600061077f601c83610608565b915061078a82610749565b602082019050919050565b600060208201905081810360008301526107ae81610772565b9050919050565b7f546865206974656d20697320616c7265616479206675727468657220696e207460008201527f686520737570706c7920636861696e0000000000000000000000000000000000602082015250565b6000610811602f83610608565b915061081c826107b5565b604082019050919050565b6000602082019050818103600083015261084081610804565b9050919050565b7f4e487b7100000000000000000000000000000000000000000000000000000000600052601160045260246000fd5b6000610881826103f8565b91507fffffffffffffffffffffffffffffffffffffffffffffffffffffffffffffffff82036108b3576108b2610847565b5b600182019050919050565b7f4e487b7100000000000000000000000000000000000000000000000000000000600052602260045260246000fd5b6000600282049050600182168061090557607f821691505b602082108103610918576109176108be565b5b5091905056fea264697066735822122064bd83cffef24fd674ff52842504b516e8c0993eb42aa62ec185739715f1a14a64736f6c634300080d0033",
					"opcodes": "PUSH1 0x80 PUSH1 0x40 MSTORE CALLVALUE DUP1 ISZERO PUSH2 0x10 JUMPI PUSH1 0x0 DUP1 REVERT JUMPDEST POP PUSH2 0x954 DUP1 PUSH2 0x20 PUSH1 0x0 CODECOPY PUSH1 0x0 RETURN INVALID PUSH1 0x80 PUSH1 0x40 MSTORE PUSH1 0x4 CALLDATASIZE LT PUSH2 0x34 JUMPI PUSH1 0x0 CALLDATALOAD PUSH1 0xE0 SHR DUP1 PUSH4 0x800FB83F EQ PUSH2 0x39 JUMPI DUP1 PUSH4 0x8C551742 EQ PUSH2 0x55 JUMPI DUP1 PUSH4 0xBFB231D2 EQ PUSH2 0x7E JUMPI JUMPDEST PUSH1 0x0 DUP1 REVERT JUMPDEST PUSH2 0x53 PUSH1 0x4 DUP1 CALLDATASIZE SUB DUP2 ADD SWAP1 PUSH2 0x4E SWAP2 SWAP1 PUSH2 0x42E JUMP JUMPDEST PUSH2 0xBD JUMP JUMPDEST STOP JUMPDEST CALLVALUE DUP1 ISZERO PUSH2 0x61 JUMPI PUSH1 0x0 DUP1 REVERT JUMPDEST POP PUSH2 0x7C PUSH1 0x4 DUP1 CALLDATASIZE SUB DUP2 ADD SWAP1 PUSH2 0x77 SWAP2 SWAP1 PUSH2 0x5A1 JUMP JUMPDEST PUSH2 0x1DE JUMP JUMPDEST STOP JUMPDEST CALLVALUE DUP1 ISZERO PUSH2 0x8A JUMPI PUSH1 0x0 DUP1 REVERT JUMPDEST POP PUSH2 0xA5 PUSH1 0x4 DUP1 CALLDATASIZE SUB DUP2 ADD SWAP1 PUSH2 0xA0 SWAP2 SWAP1 PUSH2 0x42E JUMP JUMPDEST PUSH2 0x282 JUMP JUMPDEST PUSH1 0x40 MLOAD PUSH2 0xB4 SWAP4 SWAP3 SWAP2 SWAP1 PUSH2 0x70B JUMP JUMPDEST PUSH1 0x40 MLOAD DUP1 SWAP2 SUB SWAP1 RETURN JUMPDEST CALLVALUE PUSH1 0x0 DUP1 DUP4 DUP2 MSTORE PUSH1 0x20 ADD SWAP1 DUP2 MSTORE PUSH1 0x20 ADD PUSH1 0x0 KECCAK256 PUSH1 0x1 ADD SLOAD EQ PUSH2 0x114 JUMPI PUSH1 0x40 MLOAD PUSH32 0x8C379A000000000000000000000000000000000000000000000000000000000 DUP2 MSTORE PUSH1 0x4 ADD PUSH2 0x10B SWAP1 PUSH2 0x795 JUMP JUMPDEST PUSH1 0x40 MLOAD DUP1 SWAP2 SUB SWAP1 REVERT JUMPDEST PUSH1 0x0 PUSH1 0x2 DUP2 GT ISZERO PUSH2 0x128 JUMPI PUSH2 0x127 PUSH2 0x694 JUMP JUMPDEST JUMPDEST PUSH1 0x0 DUP1 DUP4 DUP2 MSTORE PUSH1 0x20 ADD SWAP1 DUP2 MSTORE PUSH1 0x20 ADD PUSH1 0x0 KECCAK256 PUSH1 0x2 ADD PUSH1 0x0 SWAP1 SLOAD SWAP1 PUSH2 0x100 EXP SWAP1 DIV PUSH1 0xFF AND PUSH1 0x2 DUP2 GT ISZERO PUSH2 0x15D JUMPI PUSH2 0x15C PUSH2 0x694 JUMP JUMPDEST JUMPDEST EQ PUSH2 0x19D JUMPI PUSH1 0x40 MLOAD PUSH32 0x8C379A000000000000000000000000000000000000000000000000000000000 DUP2 MSTORE PUSH1 0x4 ADD PUSH2 0x194 SWAP1 PUSH2 0x827 JUMP JUMPDEST PUSH1 0x40 MLOAD DUP1 SWAP2 SUB SWAP1 REVERT JUMPDEST PUSH1 0x1 PUSH1 0x0 DUP1 DUP4 DUP2 MSTORE PUSH1 0x20 ADD SWAP1 DUP2 MSTORE PUSH1 0x20 ADD PUSH1 0x0 KECCAK256 PUSH1 0x2 ADD PUSH1 0x0 PUSH2 0x100 EXP DUP2 SLOAD DUP2 PUSH1 0xFF MUL NOT AND SWAP1 DUP4 PUSH1 0x2 DUP2 GT ISZERO PUSH2 0x1D6 JUMPI PUSH2 0x1D5 PUSH2 0x694 JUMP JUMPDEST JUMPDEST MUL OR SWAP1 SSTORE POP POP JUMP JUMPDEST DUP2 PUSH1 0x0 DUP1 PUSH1 0x1 SLOAD DUP2 MSTORE PUSH1 0x20 ADD SWAP1 DUP2 MSTORE PUSH1 0x20 ADD PUSH1 0x0 KECCAK256 PUSH1 0x0 ADD SWAP1 DUP1 MLOAD SWAP1 PUSH1 0x20 ADD SWAP1 PUSH2 0x209 SWAP3 SWAP2 SWAP1 PUSH2 0x341 JUMP JUMPDEST POP DUP1 PUSH1 0x0 DUP1 PUSH1 0x1 SLOAD DUP2 MSTORE PUSH1 0x20 ADD SWAP1 DUP2 MSTORE PUSH1 0x20 ADD PUSH1 0x0 KECCAK256 PUSH1 0x1 ADD DUP2 SWAP1 SSTORE POP PUSH1 0x0 DUP1 PUSH1 0x0 PUSH1 0x1 SLOAD DUP2 MSTORE PUSH1 0x20 ADD SWAP1 DUP2 MSTORE PUSH1 0x20 ADD PUSH1 0x0 KECCAK256 PUSH1 0x2 ADD PUSH1 0x0 PUSH2 0x100 EXP DUP2 SLOAD DUP2 PUSH1 0xFF MUL NOT AND SWAP1 DUP4 PUSH1 0x2 DUP2 GT ISZERO PUSH2 0x261 JUMPI PUSH2 0x260 PUSH2 0x694 JUMP JUMPDEST JUMPDEST MUL OR SWAP1 SSTORE POP PUSH1 0x1 PUSH1 0x0 DUP2 SLOAD DUP1 SWAP3 SWAP2 SWAP1 PUSH2 0x279 SWAP1 PUSH2 0x876 JUMP JUMPDEST SWAP2 SWAP1 POP SSTORE POP POP POP JUMP JUMPDEST PUSH1 0x0 PUSH1 0x20 MSTORE DUP1 PUSH1 0x0 MSTORE PUSH1 0x40 PUSH1 0x0 KECCAK256 PUSH1 0x0 SWAP2 POP SWAP1 POP DUP1 PUSH1 0x0 ADD DUP1 SLOAD PUSH2 0x2A5 SWAP1 PUSH2 0x8ED JUMP JUMPDEST DUP1 PUSH1 0x1F ADD PUSH1 0x20 DUP1 SWAP2 DIV MUL PUSH1 0x20 ADD PUSH1 0x40 MLOAD SWAP1 DUP2 ADD PUSH1 0x40 MSTORE DUP1 SWAP3 SWAP2 SWAP1 DUP2 DUP2 MSTORE PUSH1 0x20 ADD DUP3 DUP1 SLOAD PUSH2 0x2D1 SWAP1 PUSH2 0x8ED JUMP JUMPDEST DUP1 ISZERO PUSH2 0x31E JUMPI DUP1 PUSH1 0x1F LT PUSH2 0x2F3 JUMPI PUSH2 0x100 DUP1 DUP4 SLOAD DIV MUL DUP4 MSTORE SWAP2 PUSH1 0x20 ADD SWAP2 PUSH2 0x31E JUMP JUMPDEST DUP3 ADD SWAP2 SWAP1 PUSH1 0x0 MSTORE PUSH1 0x20 PUSH1 0x0 KECCAK256 SWAP1 JUMPDEST DUP2 SLOAD DUP2 MSTORE SWAP1 PUSH1 0x1 ADD SWAP1 PUSH1 0x20 ADD DUP1 DUP4 GT PUSH2 0x301 JUMPI DUP3 SWAP1 SUB PUSH1 0x1F AND DUP3 ADD SWAP2 JUMPDEST POP POP POP POP POP SWAP1 DUP1 PUSH1 0x1 ADD SLOAD SWAP1 DUP1 PUSH1 0x2 ADD PUSH1 0x0 SWAP1 SLOAD SWAP1 PUSH2 0x100 EXP SWAP1 DIV PUSH1 0xFF AND SWAP1 POP DUP4 JUMP JUMPDEST DUP3 DUP1 SLOAD PUSH2 0x34D SWAP1 PUSH2 0x8ED JUMP JUMPDEST SWAP1 PUSH1 0x0 MSTORE PUSH1 0x20 PUSH1 0x0 KECCAK256 SWAP1 PUSH1 0x1F ADD PUSH1 0x20 SWAP1 DIV DUP2 ADD SWAP3 DUP3 PUSH2 0x36F JUMPI PUSH1 0x0 DUP6 SSTORE PUSH2 0x3B6 JUMP JUMPDEST DUP3 PUSH1 0x1F LT PUSH2 0x388 JUMPI DUP1 MLOAD PUSH1 0xFF NOT AND DUP4 DUP1 ADD OR DUP6 SSTORE PUSH2 0x3B6 JUMP JUMPDEST DUP3 DUP1 ADD PUSH1 0x1 ADD DUP6 SSTORE DUP3 ISZERO PUSH2 0x3B6 JUMPI SWAP2 DUP3 ADD JUMPDEST DUP3 DUP2 GT ISZERO PUSH2 0x3B5 JUMPI DUP3 MLOAD DUP3 SSTORE SWAP2 PUSH1 0x20 ADD SWAP2 SWAP1 PUSH1 0x1 ADD SWAP1 PUSH2 0x39A JUMP JUMPDEST JUMPDEST POP SWAP1 POP PUSH2 0x3C3 SWAP2 SWAP1 PUSH2 0x3C7 JUMP JUMPDEST POP SWAP1 JUMP JUMPDEST JUMPDEST DUP1 DUP3 GT ISZERO PUSH2 0x3E0 JUMPI PUSH1 0x0 DUP2 PUSH1 0x0 SWAP1 SSTORE POP PUSH1 0x1 ADD PUSH2 0x3C8 JUMP JUMPDEST POP SWAP1 JUMP JUMPDEST PUSH1 0x0 PUSH1 0x40 MLOAD SWAP1 POP SWAP1 JUMP JUMPDEST PUSH1 0x0 DUP1 REVERT JUMPDEST PUSH1 0x0 DUP1 REVERT JUMPDEST PUSH1 0x0 DUP2 SWAP1 POP SWAP2 SWAP1 POP JUMP JUMPDEST PUSH2 0x40B DUP2 PUSH2 0x3F8 JUMP JUMPDEST DUP2 EQ PUSH2 0x416 JUMPI PUSH1 0x0 DUP1 REVERT JUMPDEST POP JUMP JUMPDEST PUSH1 0x0 DUP2 CALLDATALOAD SWAP1 POP PUSH2 0x428 DUP2 PUSH2 0x402 JUMP JUMPDEST SWAP3 SWAP2 POP POP JUMP JUMPDEST PUSH1 0x0 PUSH1 0x20 DUP3 DUP5 SUB SLT ISZERO PUSH2 0x444 JUMPI PUSH2 0x443 PUSH2 0x3EE JUMP JUMPDEST JUMPDEST PUSH1 0x0 PUSH2 0x452 DUP5 DUP3 DUP6 ADD PUSH2 0x419 JUMP JUMPDEST SWAP2 POP POP SWAP3 SWAP2 POP POP JUMP JUMPDEST PUSH1 0x0 DUP1 REVERT JUMPDEST PUSH1 0x0 DUP1 REVERT JUMPDEST PUSH1 0x0 PUSH1 0x1F NOT PUSH1 0x1F DUP4 ADD AND SWAP1 POP SWAP2 SWAP1 POP JUMP JUMPDEST PUSH32 0x4E487B7100000000000000000000000000000000000000000000000000000000 PUSH1 0x0 MSTORE PUSH1 0x41 PUSH1 0x4 MSTORE PUSH1 0x24 PUSH1 0x0 REVERT JUMPDEST PUSH2 0x4AE DUP3 PUSH2 0x465 JUMP JUMPDEST DUP2 ADD DUP2 DUP2 LT PUSH8 0xFFFFFFFFFFFFFFFF DUP3 GT OR ISZERO PUSH2 0x4CD JUMPI PUSH2 0x4CC PUSH2 0x476 JUMP JUMPDEST JUMPDEST DUP1 PUSH1 0x40 MSTORE POP POP POP JUMP JUMPDEST PUSH1 0x0 PUSH2 0x4E0 PUSH2 0x3E4 JUMP JUMPDEST SWAP1 POP PUSH2 0x4EC DUP3 DUP3 PUSH2 0x4A5 JUMP JUMPDEST SWAP2 SWAP1 POP JUMP JUMPDEST PUSH1 0x0 PUSH8 0xFFFFFFFFFFFFFFFF DUP3 GT ISZERO PUSH2 0x50C JUMPI PUSH2 0x50B PUSH2 0x476 JUMP JUMPDEST JUMPDEST PUSH2 0x515 DUP3 PUSH2 0x465 JUMP JUMPDEST SWAP1 POP PUSH1 0x20 DUP2 ADD SWAP1 POP SWAP2 SWAP1 POP JUMP JUMPDEST DUP3 DUP2 DUP4 CALLDATACOPY PUSH1 0x0 DUP4 DUP4 ADD MSTORE POP POP POP JUMP JUMPDEST PUSH1 0x0 PUSH2 0x544 PUSH2 0x53F DUP5 PUSH2 0x4F1 JUMP JUMPDEST PUSH2 0x4D6 JUMP JUMPDEST SWAP1 POP DUP3 DUP2 MSTORE PUSH1 0x20 DUP2 ADD DUP5 DUP5 DUP5 ADD GT ISZERO PUSH2 0x560 JUMPI PUSH2 0x55F PUSH2 0x460 JUMP JUMPDEST JUMPDEST PUSH2 0x56B DUP5 DUP3 DUP6 PUSH2 0x522 JUMP JUMPDEST POP SWAP4 SWAP3 POP POP POP JUMP JUMPDEST PUSH1 0x0 DUP3 PUSH1 0x1F DUP4 ADD SLT PUSH2 0x588 JUMPI PUSH2 0x587 PUSH2 0x45B JUMP JUMPDEST JUMPDEST DUP2 CALLDATALOAD PUSH2 0x598 DUP5 DUP3 PUSH1 0x20 DUP7 ADD PUSH2 0x531 JUMP JUMPDEST SWAP2 POP POP SWAP3 SWAP2 POP POP JUMP JUMPDEST PUSH1 0x0 DUP1 PUSH1 0x40 DUP4 DUP6 SUB SLT ISZERO PUSH2 0x5B8 JUMPI PUSH2 0x5B7 PUSH2 0x3EE JUMP JUMPDEST JUMPDEST PUSH1 0x0 DUP4 ADD CALLDATALOAD PUSH8 0xFFFFFFFFFFFFFFFF DUP2 GT ISZERO PUSH2 0x5D6 JUMPI PUSH2 0x5D5 PUSH2 0x3F3 JUMP JUMPDEST JUMPDEST PUSH2 0x5E2 DUP6 DUP3 DUP7 ADD PUSH2 0x573 JUMP JUMPDEST SWAP3 POP POP PUSH1 0x20 PUSH2 0x5F3 DUP6 DUP3 DUP7 ADD PUSH2 0x419 JUMP JUMPDEST SWAP2 POP POP SWAP3 POP SWAP3 SWAP1 POP JUMP JUMPDEST PUSH1 0x0 DUP2 MLOAD SWAP1 POP SWAP2 SWAP1 POP JUMP JUMPDEST PUSH1 0x0 DUP3 DUP3 MSTORE PUSH1 0x20 DUP3 ADD SWAP1 POP SWAP3 SWAP2 POP POP JUMP JUMPDEST PUSH1 0x0 JUMPDEST DUP4 DUP2 LT ISZERO PUSH2 0x637 JUMPI DUP1 DUP3 ADD MLOAD DUP2 DUP5 ADD MSTORE PUSH1 0x20 DUP2 ADD SWAP1 POP PUSH2 0x61C JUMP JUMPDEST DUP4 DUP2 GT ISZERO PUSH2 0x646 JUMPI PUSH1 0x0 DUP5 DUP5 ADD MSTORE JUMPDEST POP POP POP POP JUMP JUMPDEST PUSH1 0x0 PUSH2 0x657 DUP3 PUSH2 0x5FD JUMP JUMPDEST PUSH2 0x661 DUP2 DUP6 PUSH2 0x608 JUMP JUMPDEST SWAP4 POP PUSH2 0x671 DUP2 DUP6 PUSH1 0x20 DUP7 ADD PUSH2 0x619 JUMP JUMPDEST PUSH2 0x67A DUP2 PUSH2 0x465 JUMP JUMPDEST DUP5 ADD SWAP2 POP POP SWAP3 SWAP2 POP POP JUMP JUMPDEST PUSH2 0x68E DUP2 PUSH2 0x3F8 JUMP JUMPDEST DUP3 MSTORE POP POP JUMP JUMPDEST PUSH32 0x4E487B7100000000000000000000000000000000000000000000000000000000 PUSH1 0x0 MSTORE PUSH1 0x21 PUSH1 0x4 MSTORE PUSH1 0x24 PUSH1 0x0 REVERT JUMPDEST PUSH1 0x3 DUP2 LT PUSH2 0x6D4 JUMPI PUSH2 0x6D3 PUSH2 0x694 JUMP JUMPDEST JUMPDEST POP JUMP JUMPDEST PUSH1 0x0 DUP2 SWAP1 POP PUSH2 0x6E5 DUP3 PUSH2 0x6C3 JUMP JUMPDEST SWAP2 SWAP1 POP JUMP JUMPDEST PUSH1 0x0 PUSH2 0x6F5 DUP3 PUSH2 0x6D7 JUMP JUMPDEST SWAP1 POP SWAP2 SWAP1 POP JUMP JUMPDEST PUSH2 0x705 DUP2 PUSH2 0x6EA JUMP JUMPDEST DUP3 MSTORE POP POP JUMP JUMPDEST PUSH1 0x0 PUSH1 0x60 DUP3 ADD SWAP1 POP DUP2 DUP2 SUB PUSH1 0x0 DUP4 ADD MSTORE PUSH2 0x725 DUP2 DUP7 PUSH2 0x64C JUMP JUMPDEST SWAP1 POP PUSH2 0x734 PUSH1 0x20 DUP4 ADD DUP6 PUSH2 0x685 JUMP JUMPDEST PUSH2 0x741 PUSH1 0x40 DUP4 ADD DUP5 PUSH2 0x6FC JUMP JUMPDEST SWAP5 SWAP4 POP POP POP POP JUMP JUMPDEST PUSH32 0x4F6E6C79206578616374207061796D656E747320616363657074656400000000 PUSH1 0x0 DUP3 ADD MSTORE POP JUMP JUMPDEST PUSH1 0x0 PUSH2 0x77F PUSH1 0x1C DUP4 PUSH2 0x608 JUMP JUMPDEST SWAP2 POP PUSH2 0x78A DUP3 PUSH2 0x749 JUMP JUMPDEST PUSH1 0x20 DUP3 ADD SWAP1 POP SWAP2 SWAP1 POP JUMP JUMPDEST PUSH1 0x0 PUSH1 0x20 DUP3 ADD SWAP1 POP DUP2 DUP2 SUB PUSH1 0x0 DUP4 ADD MSTORE PUSH2 0x7AE DUP2 PUSH2 0x772 JUMP JUMPDEST SWAP1 POP SWAP2 SWAP1 POP JUMP JUMPDEST PUSH32 0x546865206974656D20697320616C7265616479206675727468657220696E2074 PUSH1 0x0 DUP3 ADD MSTORE PUSH32 0x686520737570706C7920636861696E0000000000000000000000000000000000 PUSH1 0x20 DUP3 ADD MSTORE POP JUMP JUMPDEST PUSH1 0x0 PUSH2 0x811 PUSH1 0x2F DUP4 PUSH2 0x608 JUMP JUMPDEST SWAP2 POP PUSH2 0x81C DUP3 PUSH2 0x7B5 JUMP JUMPDEST PUSH1 0x40 DUP3 ADD SWAP1 POP SWAP2 SWAP1 POP JUMP JUMPDEST PUSH1 0x0 PUSH1 0x20 DUP3 ADD SWAP1 POP DUP2 DUP2 SUB PUSH1 0x0 DUP4 ADD MSTORE PUSH2 0x840 DUP2 PUSH2 0x804 JUMP JUMPDEST SWAP1 POP SWAP2 SWAP1 POP JUMP JUMPDEST PUSH32 0x4E487B7100000000000000000000000000000000000000000000000000000000 PUSH1 0x0 MSTORE PUSH1 0x11 PUSH1 0x4 MSTORE PUSH1 0x24 PUSH1 0x0 REVERT JUMPDEST PUSH1 0x0 PUSH2 0x881 DUP3 PUSH2 0x3F8 JUMP JUMPDEST SWAP2 POP PUSH32 0xFFFFFFFFFFFFFFFFFFFFFFFFFFFFFFFFFFFFFFFFFFFFFFFFFFFFFFFFFFFFFFFF DUP3 SUB PUSH2 0x8B3 JUMPI PUSH2 0x8B2 PUSH2 0x847 JUMP JUMPDEST JUMPDEST PUSH1 0x1 DUP3 ADD SWAP1 POP SWAP2 SWAP1 POP JUMP JUMPDEST PUSH32 0x4E487B7100000000000000000000000000000000000000000000000000000000 PUSH1 0x0 MSTORE PUSH1 0x22 PUSH1 0x4 MSTORE PUSH1 0x24 PUSH1 0x0 REVERT JUMPDEST PUSH1 0x0 PUSH1 0x2 DUP3 DIV SWAP1 POP PUSH1 0x1 DUP3 AND DUP1 PUSH2 0x905 JUMPI PUSH1 0x7F DUP3 AND SWAP2 POP JUMPDEST PUSH1 0x20 DUP3 LT DUP2 SUB PUSH2 0x918 JUMPI PUSH2 0x917 PUSH2 0x8BE JUMP JUMPDEST JUMPDEST POP SWAP2 SWAP1 POP JUMP INVALID LOG2 PUSH5 0x6970667358 0x22 SLT KECCAK256 PUSH5 0xBD83CFFEF2 0x4F 0xD6 PUSH21 0xFF52842504B516E8C0993EB42AA62EC185739715F1 LOG1 0x4A PUSH5 0x736F6C6343 STOP ADDMOD 0xD STOP CALLER "
				},
				"gasEstimates": {
					"creation": {
						"codeDepositCost": "477600",
						"executionCost": "511",
						"totalCost": "478111"
					},
					"external": {
						"createItem(string,uint256)": "infinite",
						"items(uint256)": "infinite",
						"triggerPayment(uint256)": "29232"
					}
				},
				"methodIdentifiers": {
					"createItem(string,uint256)": "8c551742",
					"items(uint256)": "bfb231d2",
					"triggerPayment(uint256)": "800fb83f"
				}
			},
			"storageLayout": {
				"storage": [
					{
						"astId": 18,
						"contract": "ItemManager.sol:ItemManager",
						"label": "items",
						"offset": 0,
						"slot": "0",
						"type": "t_mapping(t_uint256,t_struct(S_Item)13_storage)"
					},
					{
						"astId": 20,
						"contract": "ItemManager.sol:ItemManager",
						"label": "itemIndex",
						"offset": 0,
						"slot": "1",
						"type": "t_uint256"
					}
				],
				"types": {
					"t_enum(SupplyChainState)5": {
						"encoding": "inplace",
						"label": "enum ItemManager.SupplyChainState",
						"numberOfBytes": "1"
					},
					"t_mapping(t_uint256,t_struct(S_Item)13_storage)": {
						"encoding": "mapping",
						"key": "t_uint256",
						"label": "mapping(uint256 => struct ItemManager.S_Item)",
						"numberOfBytes": "32",
						"value": "t_struct(S_Item)13_storage"
					},
					"t_string_storage": {
						"encoding": "bytes",
						"label": "string",
						"numberOfBytes": "32"
					},
					"t_struct(S_Item)13_storage": {
						"encoding": "inplace",
						"label": "struct ItemManager.S_Item",
						"members": [
							{
								"astId": 7,
								"contract": "ItemManager.sol:ItemManager",
								"label": "_identifier",
								"offset": 0,
								"slot": "0",
								"type": "t_string_storage"
							},
							{
								"astId": 9,
								"contract": "ItemManager.sol:ItemManager",
								"label": "_itemPrice",
								"offset": 0,
								"slot": "1",
								"type": "t_uint256"
							},
							{
								"astId": 12,
								"contract": "ItemManager.sol:ItemManager",
								"label": "_state",
								"offset": 0,
								"slot": "2",
								"type": "t_enum(SupplyChainState)5"
							}
						],
						"numberOfBytes": "96"
					},
					"t_uint256": {
						"encoding": "inplace",
						"label": "uint256",
						"numberOfBytes": "32"
					}
				}
			},
			"userdoc": {
				"kind": "user",
				"methods": {},
				"version": 1
			}
		}
	}
}