{
	"StartingStopping.sol": {
		"StartStopUpdateExample": {
			"abi": [
				{
					"inputs": [],
					"stateMutability": "nonpayable",
					"type": "constructor"
				},
				{
					"inputs": [
						{
							"internalType": "address payable",
							"name": "_to",
							"type": "address"
						}
					],
					"name": "destroySmartContract",
					"outputs": [],
					"stateMutability": "nonpayable",
					"type": "function"
				},
				{
					"inputs": [],
					"name": "myContractBalance",
					"outputs": [
						{
							"internalType": "uint256",
							"name": "",
							"type": "uint256"
						}
					],
					"stateMutability": "view",
					"type": "function"
				},
				{
					"inputs": [],
					"name": "owner",
					"outputs": [
						{
							"internalType": "address",
							"name": "",
							"type": "address"
						}
					],
					"stateMutability": "view",
					"type": "function"
				},
				{
					"inputs": [],
					"name": "paused",
					"outputs": [
						{
							"internalType": "bool",
							"name": "",
							"type": "bool"
						}
					],
					"stateMutability": "view",
					"type": "function"
				},
				{
					"inputs": [],
					"name": "sendMoney",
					"outputs": [],
					"stateMutability": "payable",
					"type": "function"
				},
				{
					"inputs": [
						{
							"internalType": "bool",
							"name": "_paused",
							"type": "bool"
						}
					],
					"name": "setPaused",
					"outputs": [],
					"stateMutability": "nonpayable",
					"type": "function"
				},
				{
					"inputs": [
						{
							"internalType": "address payable",
							"name": "_to",
							"type": "address"
						}
					],
					"name": "withdrawAllMoney",
					"outputs": [],
					"stateMutability": "nonpayable",
					"type": "function"
				}
			],
			"devdoc": {
				"kind": "dev",
				"methods": {},
				"version": 1
			},
			"evm": {
				"assembly": "    /* \"StartingStopping.sol\":64:861  contract StartStopUpdateExample {... */\n  mstore(0x40, 0x80)\n    /* \"StartingStopping.sol\":189:238  constructor() {... */\n  callvalue\n  dup1\n  iszero\n  tag_1\n  jumpi\n  0x00\n  dup1\n  revert\ntag_1:\n  pop\n    /* \"StartingStopping.sol\":221:231  msg.sender */\n  caller\n    /* \"StartingStopping.sol\":213:218  owner */\n  0x00\n  dup1\n    /* \"StartingStopping.sol\":213:231  owner = msg.sender */\n  0x0100\n  exp\n  dup2\n  sload\n  dup2\n  0xffffffffffffffffffffffffffffffffffffffff\n  mul\n  not\n  and\n  swap1\n  dup4\n  0xffffffffffffffffffffffffffffffffffffffff\n  and\n  mul\n  or\n  swap1\n  sstore\n  pop\n    /* \"StartingStopping.sol\":64:861  contract StartStopUpdateExample {... */\n  dataSize(sub_0)\n  dup1\n  dataOffset(sub_0)\n  0x00\n  codecopy\n  0x00\n  return\nstop\n\nsub_0: assembly {\n        /* \"StartingStopping.sol\":64:861  contract StartStopUpdateExample {... */\n      mstore(0x40, 0x80)\n      jumpi(tag_1, lt(calldatasize, 0x04))\n      shr(0xe0, calldataload(0x00))\n      dup1\n      0x39df43ff\n      gt\n      tag_9\n      jumpi\n      dup1\n      0x39df43ff\n      eq\n      tag_5\n      jumpi\n      dup1\n      0x5c975abb\n      eq\n      tag_6\n      jumpi\n      dup1\n      0x8da5cb5b\n      eq\n      tag_7\n      jumpi\n      dup1\n      0xcbedbf5a\n      eq\n      tag_8\n      jumpi\n      jump(tag_1)\n    tag_9:\n      dup1\n      0x0adec93c\n      eq\n      tag_2\n      jumpi\n      dup1\n      0x16c38b3c\n      eq\n      tag_3\n      jumpi\n      dup1\n      0x2b6dcd77\n      eq\n      tag_4\n      jumpi\n    tag_1:\n      0x00\n      dup1\n      revert\n        /* \"StartingStopping.sol\":475:694  function withdrawAllMoney(address payable _to) public {... */\n    tag_2:\n      callvalue\n      dup1\n      iszero\n      tag_10\n      jumpi\n      0x00\n      dup1\n      revert\n    tag_10:\n      pop\n      tag_11\n      0x04\n      dup1\n      calldatasize\n      sub\n      dup2\n      add\n      swap1\n      tag_12\n      swap2\n      swap1\n      tag_13\n      jump\t// in\n    tag_12:\n      tag_14\n      jump\t// in\n    tag_11:\n      stop\n        /* \"StartingStopping.sol\":333:469  function setPaused(bool _paused) public {... */\n    tag_3:\n      callvalue\n      dup1\n      iszero\n      tag_15\n      jumpi\n      0x00\n      dup1\n      revert\n    tag_15:\n      pop\n      tag_16\n      0x04\n      dup1\n      calldatasize\n      sub\n      dup2\n      add\n      swap1\n      tag_17\n      swap2\n      swap1\n      tag_18\n      jump\t// in\n    tag_17:\n      tag_19\n      jump\t// in\n    tag_16:\n      stop\n        /* \"StartingStopping.sol\":129:158  uint public myContractBalance */\n    tag_4:\n      callvalue\n      dup1\n      iszero\n      tag_20\n      jumpi\n      0x00\n      dup1\n      revert\n    tag_20:\n      pop\n      tag_21\n      tag_22\n      jump\t// in\n    tag_21:\n      mload(0x40)\n      tag_23\n      swap2\n      swap1\n      tag_24\n      jump\t// in\n    tag_23:\n      mload(0x40)\n      dup1\n      swap2\n      sub\n      swap1\n      return\n        /* \"StartingStopping.sol\":704:859  function destroySmartContract(address payable _to) public {... */\n    tag_5:\n      callvalue\n      dup1\n      iszero\n      tag_25\n      jumpi\n      0x00\n      dup1\n      revert\n    tag_25:\n      pop\n      tag_26\n      0x04\n      dup1\n      calldatasize\n      sub\n      dup2\n      add\n      swap1\n      tag_27\n      swap2\n      swap1\n      tag_13\n      jump\t// in\n    tag_27:\n      tag_28\n      jump\t// in\n    tag_26:\n      stop\n        /* \"StartingStopping.sol\":164:182  bool public paused */\n    tag_6:\n      callvalue\n      dup1\n      iszero\n      tag_29\n      jumpi\n      0x00\n      dup1\n      revert\n    tag_29:\n      pop\n      tag_30\n      tag_31\n      jump\t// in\n    tag_30:\n      mload(0x40)\n      tag_32\n      swap2\n      swap1\n      tag_33\n      jump\t// in\n    tag_32:\n      mload(0x40)\n      dup1\n      swap2\n      sub\n      swap1\n      return\n        /* \"StartingStopping.sol\":103:123  address public owner */\n    tag_7:\n      callvalue\n      dup1\n      iszero\n      tag_34\n      jumpi\n      0x00\n      dup1\n      revert\n    tag_34:\n      pop\n      tag_35\n      tag_36\n      jump\t// in\n    tag_35:\n      mload(0x40)\n      tag_37\n      swap2\n      swap1\n      tag_38\n      jump\t// in\n    tag_37:\n      mload(0x40)\n      dup1\n      swap2\n      sub\n      swap1\n      return\n        /* \"StartingStopping.sol\":244:327  function sendMoney() public payable {... */\n    tag_8:\n      tag_39\n      tag_40\n      jump\t// in\n    tag_39:\n      stop\n        /* \"StartingStopping.sol\":475:694  function withdrawAllMoney(address payable _to) public {... */\n    tag_14:\n        /* \"StartingStopping.sol\":556:566  msg.sender */\n      caller\n        /* \"StartingStopping.sol\":547:566  owner == msg.sender */\n      0xffffffffffffffffffffffffffffffffffffffff\n      and\n        /* \"StartingStopping.sol\":547:552  owner */\n      0x00\n      dup1\n      sload\n      swap1\n      0x0100\n      exp\n      swap1\n      div\n      0xffffffffffffffffffffffffffffffffffffffff\n      and\n        /* \"StartingStopping.sol\":547:566  owner == msg.sender */\n      0xffffffffffffffffffffffffffffffffffffffff\n      and\n      eq\n        /* \"StartingStopping.sol\":539:591  require(owner == msg.sender, \"You cannot withdraw.\") */\n      tag_42\n      jumpi\n      mload(0x40)\n      0x08c379a000000000000000000000000000000000000000000000000000000000\n      dup2\n      mstore\n      0x04\n      add\n      tag_43\n      swap1\n      tag_44\n      jump\t// in\n    tag_43:\n      mload(0x40)\n      dup1\n      swap2\n      sub\n      swap1\n      revert\n    tag_42:\n        /* \"StartingStopping.sol\":610:616  paused */\n      0x02\n      0x00\n      swap1\n      sload\n      swap1\n      0x0100\n      exp\n      swap1\n      div\n      0xff\n      and\n        /* \"StartingStopping.sol\":609:616  !paused */\n      iszero\n        /* \"StartingStopping.sol\":601:642  require(!paused,\"The contract is paused\") */\n      tag_45\n      jumpi\n      mload(0x40)\n      0x08c379a000000000000000000000000000000000000000000000000000000000\n      dup2\n      mstore\n      0x04\n      add\n      tag_46\n      swap1\n      tag_47\n      jump\t// in\n    tag_46:\n      mload(0x40)\n      dup1\n      swap2\n      sub\n      swap1\n      revert\n    tag_45:\n        /* \"StartingStopping.sol\":652:655  _to */\n      dup1\n        /* \"StartingStopping.sol\":652:664  _to.transfer */\n      0xffffffffffffffffffffffffffffffffffffffff\n      and\n        /* \"StartingStopping.sol\":652:687  _to.transfer(address(this).balance) */\n      0x08fc\n        /* \"StartingStopping.sol\":665:686  address(this).balance */\n      selfbalance\n        /* \"StartingStopping.sol\":652:687  _to.transfer(address(this).balance) */\n      swap1\n      dup2\n      iszero\n      mul\n      swap1\n      mload(0x40)\n      0x00\n      mload(0x40)\n      dup1\n      dup4\n      sub\n      dup2\n      dup6\n      dup9\n      dup9\n      call\n      swap4\n      pop\n      pop\n      pop\n      pop\n      iszero\n      dup1\n      iszero\n      tag_49\n      jumpi\n      returndatasize\n      0x00\n      dup1\n      returndatacopy\n      revert(0x00, returndatasize)\n    tag_49:\n      pop\n        /* \"StartingStopping.sol\":475:694  function withdrawAllMoney(address payable _to) public {... */\n      pop\n      jump\t// out\n        /* \"StartingStopping.sol\":333:469  function setPaused(bool _paused) public {... */\n    tag_19:\n        /* \"StartingStopping.sol\":405:410  owner */\n      0x00\n      dup1\n      sload\n      swap1\n      0x0100\n      exp\n      swap1\n      div\n      0xffffffffffffffffffffffffffffffffffffffff\n      and\n        /* \"StartingStopping.sol\":391:410  msg.sender == owner */\n      0xffffffffffffffffffffffffffffffffffffffff\n      and\n        /* \"StartingStopping.sol\":391:401  msg.sender */\n      caller\n        /* \"StartingStopping.sol\":391:410  msg.sender == owner */\n      0xffffffffffffffffffffffffffffffffffffffff\n      and\n      eq\n        /* \"StartingStopping.sol\":383:436  require(msg.sender == owner, \"You are not the owner\") */\n      tag_51\n      jumpi\n      mload(0x40)\n      0x08c379a000000000000000000000000000000000000000000000000000000000\n      dup2\n      mstore\n      0x04\n      add\n      tag_52\n      swap1\n      tag_53\n      jump\t// in\n    tag_52:\n      mload(0x40)\n      dup1\n      swap2\n      sub\n      swap1\n      revert\n    tag_51:\n        /* \"StartingStopping.sol\":455:462  _paused */\n      dup1\n        /* \"StartingStopping.sol\":446:452  paused */\n      0x02\n      0x00\n        /* \"StartingStopping.sol\":446:462  paused = _paused */\n      0x0100\n      exp\n      dup2\n      sload\n      dup2\n      0xff\n      mul\n      not\n      and\n      swap1\n      dup4\n      iszero\n      iszero\n      mul\n      or\n      swap1\n      sstore\n      pop\n        /* \"StartingStopping.sol\":333:469  function setPaused(bool _paused) public {... */\n      pop\n      jump\t// out\n        /* \"StartingStopping.sol\":129:158  uint public myContractBalance */\n    tag_22:\n      sload(0x01)\n      dup2\n      jump\t// out\n        /* \"StartingStopping.sol\":704:859  function destroySmartContract(address payable _to) public {... */\n    tag_28:\n        /* \"StartingStopping.sol\":794:799  owner */\n      0x00\n      dup1\n      sload\n      swap1\n      0x0100\n      exp\n      swap1\n      div\n      0xffffffffffffffffffffffffffffffffffffffff\n      and\n        /* \"StartingStopping.sol\":780:799  msg.sender == owner */\n      0xffffffffffffffffffffffffffffffffffffffff\n      and\n        /* \"StartingStopping.sol\":780:790  msg.sender */\n      caller\n        /* \"StartingStopping.sol\":780:799  msg.sender == owner */\n      0xffffffffffffffffffffffffffffffffffffffff\n      and\n      eq\n        /* \"StartingStopping.sol\":772:825  require(msg.sender == owner, \"You are not the owner\") */\n      tag_55\n      jumpi\n      mload(0x40)\n      0x08c379a000000000000000000000000000000000000000000000000000000000\n      dup2\n      mstore\n      0x04\n      add\n      tag_56\n      swap1\n      tag_53\n      jump\t// in\n    tag_56:\n      mload(0x40)\n      dup1\n      swap2\n      sub\n      swap1\n      revert\n    tag_55:\n        /* \"StartingStopping.sol\":848:851  _to */\n      dup1\n        /* \"StartingStopping.sol\":835:852  selfdestruct(_to) */\n      0xffffffffffffffffffffffffffffffffffffffff\n      and\n      selfdestruct\n        /* \"StartingStopping.sol\":164:182  bool public paused */\n    tag_31:\n      0x02\n      0x00\n      swap1\n      sload\n      swap1\n      0x0100\n      exp\n      swap1\n      div\n      0xff\n      and\n      dup2\n      jump\t// out\n        /* \"StartingStopping.sol\":103:123  address public owner */\n    tag_36:\n      0x00\n      dup1\n      sload\n      swap1\n      0x0100\n      exp\n      swap1\n      div\n      0xffffffffffffffffffffffffffffffffffffffff\n      and\n      dup2\n      jump\t// out\n        /* \"StartingStopping.sol\":244:327  function sendMoney() public payable {... */\n    tag_40:\n        /* \"StartingStopping.sol\":311:320  msg.value */\n      callvalue\n        /* \"StartingStopping.sol\":290:307  myContractBalance */\n      0x01\n      0x00\n        /* \"StartingStopping.sol\":290:320  myContractBalance += msg.value */\n      dup3\n      dup3\n      sload\n      tag_58\n      swap2\n      swap1\n      tag_59\n      jump\t// in\n    tag_58:\n      swap3\n      pop\n      pop\n      dup2\n      swap1\n      sstore\n      pop\n        /* \"StartingStopping.sol\":244:327  function sendMoney() public payable {... */\n      jump\t// out\n        /* \"#utility.yul\":88:205   */\n    tag_61:\n        /* \"#utility.yul\":197:198   */\n      0x00\n        /* \"#utility.yul\":194:195   */\n      dup1\n        /* \"#utility.yul\":187:199   */\n      revert\n        /* \"#utility.yul\":334:460   */\n    tag_63:\n        /* \"#utility.yul\":371:378   */\n      0x00\n        /* \"#utility.yul\":411:453   */\n      0xffffffffffffffffffffffffffffffffffffffff\n        /* \"#utility.yul\":404:409   */\n      dup3\n        /* \"#utility.yul\":400:454   */\n      and\n        /* \"#utility.yul\":389:454   */\n      swap1\n      pop\n        /* \"#utility.yul\":334:460   */\n      swap2\n      swap1\n      pop\n      jump\t// out\n        /* \"#utility.yul\":466:570   */\n    tag_64:\n        /* \"#utility.yul\":511:518   */\n      0x00\n        /* \"#utility.yul\":540:564   */\n      tag_89\n        /* \"#utility.yul\":558:563   */\n      dup3\n        /* \"#utility.yul\":540:564   */\n      tag_63\n      jump\t// in\n    tag_89:\n        /* \"#utility.yul\":529:564   */\n      swap1\n      pop\n        /* \"#utility.yul\":466:570   */\n      swap2\n      swap1\n      pop\n      jump\t// out\n        /* \"#utility.yul\":576:714   */\n    tag_65:\n        /* \"#utility.yul\":657:689   */\n      tag_91\n        /* \"#utility.yul\":683:688   */\n      dup2\n        /* \"#utility.yul\":657:689   */\n      tag_64\n      jump\t// in\n    tag_91:\n        /* \"#utility.yul\":650:655   */\n      dup2\n        /* \"#utility.yul\":647:690   */\n      eq\n        /* \"#utility.yul\":637:708   */\n      tag_92\n      jumpi\n        /* \"#utility.yul\":704:705   */\n      0x00\n        /* \"#utility.yul\":701:702   */\n      dup1\n        /* \"#utility.yul\":694:706   */\n      revert\n        /* \"#utility.yul\":637:708   */\n    tag_92:\n        /* \"#utility.yul\":576:714   */\n      pop\n      jump\t// out\n        /* \"#utility.yul\":720:875   */\n    tag_66:\n        /* \"#utility.yul\":774:779   */\n      0x00\n        /* \"#utility.yul\":812:818   */\n      dup2\n        /* \"#utility.yul\":799:819   */\n      calldataload\n        /* \"#utility.yul\":790:819   */\n      swap1\n      pop\n        /* \"#utility.yul\":828:869   */\n      tag_94\n        /* \"#utility.yul\":863:868   */\n      dup2\n        /* \"#utility.yul\":828:869   */\n      tag_65\n      jump\t// in\n    tag_94:\n        /* \"#utility.yul\":720:875   */\n      swap3\n      swap2\n      pop\n      pop\n      jump\t// out\n        /* \"#utility.yul\":881:1226   */\n    tag_13:\n        /* \"#utility.yul\":948:954   */\n      0x00\n        /* \"#utility.yul\":997:999   */\n      0x20\n        /* \"#utility.yul\":985:994   */\n      dup3\n        /* \"#utility.yul\":976:983   */\n      dup5\n        /* \"#utility.yul\":972:995   */\n      sub\n        /* \"#utility.yul\":968:1000   */\n      slt\n        /* \"#utility.yul\":965:1084   */\n      iszero\n      tag_96\n      jumpi\n        /* \"#utility.yul\":1003:1082   */\n      tag_97\n      tag_61\n      jump\t// in\n    tag_97:\n        /* \"#utility.yul\":965:1084   */\n    tag_96:\n        /* \"#utility.yul\":1123:1124   */\n      0x00\n        /* \"#utility.yul\":1148:1209   */\n      tag_98\n        /* \"#utility.yul\":1201:1208   */\n      dup5\n        /* \"#utility.yul\":1192:1198   */\n      dup3\n        /* \"#utility.yul\":1181:1190   */\n      dup6\n        /* \"#utility.yul\":1177:1199   */\n      add\n        /* \"#utility.yul\":1148:1209   */\n      tag_66\n      jump\t// in\n    tag_98:\n        /* \"#utility.yul\":1138:1209   */\n      swap2\n      pop\n        /* \"#utility.yul\":1094:1219   */\n      pop\n        /* \"#utility.yul\":881:1226   */\n      swap3\n      swap2\n      pop\n      pop\n      jump\t// out\n        /* \"#utility.yul\":1232:1322   */\n    tag_67:\n        /* \"#utility.yul\":1266:1273   */\n      0x00\n        /* \"#utility.yul\":1309:1314   */\n      dup2\n        /* \"#utility.yul\":1302:1315   */\n      iszero\n        /* \"#utility.yul\":1295:1316   */\n      iszero\n        /* \"#utility.yul\":1284:1316   */\n      swap1\n      pop\n        /* \"#utility.yul\":1232:1322   */\n      swap2\n      swap1\n      pop\n      jump\t// out\n        /* \"#utility.yul\":1328:1444   */\n    tag_68:\n        /* \"#utility.yul\":1398:1419   */\n      tag_101\n        /* \"#utility.yul\":1413:1418   */\n      dup2\n        /* \"#utility.yul\":1398:1419   */\n      tag_67\n      jump\t// in\n    tag_101:\n        /* \"#utility.yul\":1391:1396   */\n      dup2\n        /* \"#utility.yul\":1388:1420   */\n      eq\n        /* \"#utility.yul\":1378:1438   */\n      tag_102\n      jumpi\n        /* \"#utility.yul\":1434:1435   */\n      0x00\n        /* \"#utility.yul\":1431:1432   */\n      dup1\n        /* \"#utility.yul\":1424:1436   */\n      revert\n        /* \"#utility.yul\":1378:1438   */\n    tag_102:\n        /* \"#utility.yul\":1328:1444   */\n      pop\n      jump\t// out\n        /* \"#utility.yul\":1450:1583   */\n    tag_69:\n        /* \"#utility.yul\":1493:1498   */\n      0x00\n        /* \"#utility.yul\":1531:1537   */\n      dup2\n        /* \"#utility.yul\":1518:1538   */\n      calldataload\n        /* \"#utility.yul\":1509:1538   */\n      swap1\n      pop\n        /* \"#utility.yul\":1547:1577   */\n      tag_104\n        /* \"#utility.yul\":1571:1576   */\n      dup2\n        /* \"#utility.yul\":1547:1577   */\n      tag_68\n      jump\t// in\n    tag_104:\n        /* \"#utility.yul\":1450:1583   */\n      swap3\n      swap2\n      pop\n      pop\n      jump\t// out\n        /* \"#utility.yul\":1589:1912   */\n    tag_18:\n        /* \"#utility.yul\":1645:1651   */\n      0x00\n        /* \"#utility.yul\":1694:1696   */\n      0x20\n        /* \"#utility.yul\":1682:1691   */\n      dup3\n        /* \"#utility.yul\":1673:1680   */\n      dup5\n        /* \"#utility.yul\":1669:1692   */\n      sub\n        /* \"#utility.yul\":1665:1697   */\n      slt\n        /* \"#utility.yul\":1662:1781   */\n      iszero\n      tag_106\n      jumpi\n        /* \"#utility.yul\":1700:1779   */\n      tag_107\n      tag_61\n      jump\t// in\n    tag_107:\n        /* \"#utility.yul\":1662:1781   */\n    tag_106:\n        /* \"#utility.yul\":1820:1821   */\n      0x00\n        /* \"#utility.yul\":1845:1895   */\n      tag_108\n        /* \"#utility.yul\":1887:1894   */\n      dup5\n        /* \"#utility.yul\":1878:1884   */\n      dup3\n        /* \"#utility.yul\":1867:1876   */\n      dup6\n        /* \"#utility.yul\":1863:1885   */\n      add\n        /* \"#utility.yul\":1845:1895   */\n      tag_69\n      jump\t// in\n    tag_108:\n        /* \"#utility.yul\":1835:1895   */\n      swap2\n      pop\n        /* \"#utility.yul\":1791:1905   */\n      pop\n        /* \"#utility.yul\":1589:1912   */\n      swap3\n      swap2\n      pop\n      pop\n      jump\t// out\n        /* \"#utility.yul\":1918:1995   */\n    tag_70:\n        /* \"#utility.yul\":1955:1962   */\n      0x00\n        /* \"#utility.yul\":1984:1989   */\n      dup2\n        /* \"#utility.yul\":1973:1989   */\n      swap1\n      pop\n        /* \"#utility.yul\":1918:1995   */\n      swap2\n      swap1\n      pop\n      jump\t// out\n        /* \"#utility.yul\":2001:2119   */\n    tag_71:\n        /* \"#utility.yul\":2088:2112   */\n      tag_111\n        /* \"#utility.yul\":2106:2111   */\n      dup2\n        /* \"#utility.yul\":2088:2112   */\n      tag_70\n      jump\t// in\n    tag_111:\n        /* \"#utility.yul\":2083:2086   */\n      dup3\n        /* \"#utility.yul\":2076:2113   */\n      mstore\n        /* \"#utility.yul\":2001:2119   */\n      pop\n      pop\n      jump\t// out\n        /* \"#utility.yul\":2125:2347   */\n    tag_24:\n        /* \"#utility.yul\":2218:2222   */\n      0x00\n        /* \"#utility.yul\":2256:2258   */\n      0x20\n        /* \"#utility.yul\":2245:2254   */\n      dup3\n        /* \"#utility.yul\":2241:2259   */\n      add\n        /* \"#utility.yul\":2233:2259   */\n      swap1\n      pop\n        /* \"#utility.yul\":2269:2340   */\n      tag_113\n        /* \"#utility.yul\":2337:2338   */\n      0x00\n        /* \"#utility.yul\":2326:2335   */\n      dup4\n        /* \"#utility.yul\":2322:2339   */\n      add\n        /* \"#utility.yul\":2313:2319   */\n      dup5\n        /* \"#utility.yul\":2269:2340   */\n      tag_71\n      jump\t// in\n    tag_113:\n        /* \"#utility.yul\":2125:2347   */\n      swap3\n      swap2\n      pop\n      pop\n      jump\t// out\n        /* \"#utility.yul\":2353:2462   */\n    tag_72:\n        /* \"#utility.yul\":2434:2455   */\n      tag_115\n        /* \"#utility.yul\":2449:2454   */\n      dup2\n        /* \"#utility.yul\":2434:2455   */\n      tag_67\n      jump\t// in\n    tag_115:\n        /* \"#utility.yul\":2429:2432   */\n      dup3\n        /* \"#utility.yul\":2422:2456   */\n      mstore\n        /* \"#utility.yul\":2353:2462   */\n      pop\n      pop\n      jump\t// out\n        /* \"#utility.yul\":2468:2678   */\n    tag_33:\n        /* \"#utility.yul\":2555:2559   */\n      0x00\n        /* \"#utility.yul\":2593:2595   */\n      0x20\n        /* \"#utility.yul\":2582:2591   */\n      dup3\n        /* \"#utility.yul\":2578:2596   */\n      add\n        /* \"#utility.yul\":2570:2596   */\n      swap1\n      pop\n        /* \"#utility.yul\":2606:2671   */\n      tag_117\n        /* \"#utility.yul\":2668:2669   */\n      0x00\n        /* \"#utility.yul\":2657:2666   */\n      dup4\n        /* \"#utility.yul\":2653:2670   */\n      add\n        /* \"#utility.yul\":2644:2650   */\n      dup5\n        /* \"#utility.yul\":2606:2671   */\n      tag_72\n      jump\t// in\n    tag_117:\n        /* \"#utility.yul\":2468:2678   */\n      swap3\n      swap2\n      pop\n      pop\n      jump\t// out\n        /* \"#utility.yul\":2684:2780   */\n    tag_73:\n        /* \"#utility.yul\":2721:2728   */\n      0x00\n        /* \"#utility.yul\":2750:2774   */\n      tag_119\n        /* \"#utility.yul\":2768:2773   */\n      dup3\n        /* \"#utility.yul\":2750:2774   */\n      tag_63\n      jump\t// in\n    tag_119:\n        /* \"#utility.yul\":2739:2774   */\n      swap1\n      pop\n        /* \"#utility.yul\":2684:2780   */\n      swap2\n      swap1\n      pop\n      jump\t// out\n        /* \"#utility.yul\":2786:2904   */\n    tag_74:\n        /* \"#utility.yul\":2873:2897   */\n      tag_121\n        /* \"#utility.yul\":2891:2896   */\n      dup2\n        /* \"#utility.yul\":2873:2897   */\n      tag_73\n      jump\t// in\n    tag_121:\n        /* \"#utility.yul\":2868:2871   */\n      dup3\n        /* \"#utility.yul\":2861:2898   */\n      mstore\n        /* \"#utility.yul\":2786:2904   */\n      pop\n      pop\n      jump\t// out\n        /* \"#utility.yul\":2910:3132   */\n    tag_38:\n        /* \"#utility.yul\":3003:3007   */\n      0x00\n        /* \"#utility.yul\":3041:3043   */\n      0x20\n        /* \"#utility.yul\":3030:3039   */\n      dup3\n        /* \"#utility.yul\":3026:3044   */\n      add\n        /* \"#utility.yul\":3018:3044   */\n      swap1\n      pop\n        /* \"#utility.yul\":3054:3125   */\n      tag_123\n        /* \"#utility.yul\":3122:3123   */\n      0x00\n        /* \"#utility.yul\":3111:3120   */\n      dup4\n        /* \"#utility.yul\":3107:3124   */\n      add\n        /* \"#utility.yul\":3098:3104   */\n      dup5\n        /* \"#utility.yul\":3054:3125   */\n      tag_74\n      jump\t// in\n    tag_123:\n        /* \"#utility.yul\":2910:3132   */\n      swap3\n      swap2\n      pop\n      pop\n      jump\t// out\n        /* \"#utility.yul\":3138:3307   */\n    tag_75:\n        /* \"#utility.yul\":3222:3233   */\n      0x00\n        /* \"#utility.yul\":3256:3262   */\n      dup3\n        /* \"#utility.yul\":3251:3254   */\n      dup3\n        /* \"#utility.yul\":3244:3263   */\n      mstore\n        /* \"#utility.yul\":3296:3300   */\n      0x20\n        /* \"#utility.yul\":3291:3294   */\n      dup3\n        /* \"#utility.yul\":3287:3301   */\n      add\n        /* \"#utility.yul\":3272:3301   */\n      swap1\n      pop\n        /* \"#utility.yul\":3138:3307   */\n      swap3\n      swap2\n      pop\n      pop\n      jump\t// out\n        /* \"#utility.yul\":3313:3483   */\n    tag_76:\n        /* \"#utility.yul\":3453:3475   */\n      0x596f752063616e6e6f742077697468647261772e000000000000000000000000\n        /* \"#utility.yul\":3449:3450   */\n      0x00\n        /* \"#utility.yul\":3441:3447   */\n      dup3\n        /* \"#utility.yul\":3437:3451   */\n      add\n        /* \"#utility.yul\":3430:3476   */\n      mstore\n        /* \"#utility.yul\":3313:3483   */\n      pop\n      jump\t// out\n        /* \"#utility.yul\":3489:3855   */\n    tag_77:\n        /* \"#utility.yul\":3631:3634   */\n      0x00\n        /* \"#utility.yul\":3652:3719   */\n      tag_127\n        /* \"#utility.yul\":3716:3718   */\n      0x14\n        /* \"#utility.yul\":3711:3714   */\n      dup4\n        /* \"#utility.yul\":3652:3719   */\n      tag_75\n      jump\t// in\n    tag_127:\n        /* \"#utility.yul\":3645:3719   */\n      swap2\n      pop\n        /* \"#utility.yul\":3728:3821   */\n      tag_128\n        /* \"#utility.yul\":3817:3820   */\n      dup3\n        /* \"#utility.yul\":3728:3821   */\n      tag_76\n      jump\t// in\n    tag_128:\n        /* \"#utility.yul\":3846:3848   */\n      0x20\n        /* \"#utility.yul\":3841:3844   */\n      dup3\n        /* \"#utility.yul\":3837:3849   */\n      add\n        /* \"#utility.yul\":3830:3849   */\n      swap1\n      pop\n        /* \"#utility.yul\":3489:3855   */\n      swap2\n      swap1\n      pop\n      jump\t// out\n        /* \"#utility.yul\":3861:4280   */\n    tag_44:\n        /* \"#utility.yul\":4027:4031   */\n      0x00\n        /* \"#utility.yul\":4065:4067   */\n      0x20\n        /* \"#utility.yul\":4054:4063   */\n      dup3\n        /* \"#utility.yul\":4050:4068   */\n      add\n        /* \"#utility.yul\":4042:4068   */\n      swap1\n      pop\n        /* \"#utility.yul\":4114:4123   */\n      dup2\n        /* \"#utility.yul\":4108:4112   */\n      dup2\n        /* \"#utility.yul\":4104:4124   */\n      sub\n        /* \"#utility.yul\":4100:4101   */\n      0x00\n        /* \"#utility.yul\":4089:4098   */\n      dup4\n        /* \"#utility.yul\":4085:4102   */\n      add\n        /* \"#utility.yul\":4078:4125   */\n      mstore\n        /* \"#utility.yul\":4142:4273   */\n      tag_130\n        /* \"#utility.yul\":4268:4272   */\n      dup2\n        /* \"#utility.yul\":4142:4273   */\n      tag_77\n      jump\t// in\n    tag_130:\n        /* \"#utility.yul\":4134:4273   */\n      swap1\n      pop\n        /* \"#utility.yul\":3861:4280   */\n      swap2\n      swap1\n      pop\n      jump\t// out\n        /* \"#utility.yul\":4286:4458   */\n    tag_78:\n        /* \"#utility.yul\":4426:4450   */\n      0x54686520636f6e74726163742069732070617573656400000000000000000000\n        /* \"#utility.yul\":4422:4423   */\n      0x00\n        /* \"#utility.yul\":4414:4420   */\n      dup3\n        /* \"#utility.yul\":4410:4424   */\n      add\n        /* \"#utility.yul\":4403:4451   */\n      mstore\n        /* \"#utility.yul\":4286:4458   */\n      pop\n      jump\t// out\n        /* \"#utility.yul\":4464:4830   */\n    tag_79:\n        /* \"#utility.yul\":4606:4609   */\n      0x00\n        /* \"#utility.yul\":4627:4694   */\n      tag_133\n        /* \"#utility.yul\":4691:4693   */\n      0x16\n        /* \"#utility.yul\":4686:4689   */\n      dup4\n        /* \"#utility.yul\":4627:4694   */\n      tag_75\n      jump\t// in\n    tag_133:\n        /* \"#utility.yul\":4620:4694   */\n      swap2\n      pop\n        /* \"#utility.yul\":4703:4796   */\n      tag_134\n        /* \"#utility.yul\":4792:4795   */\n      dup3\n        /* \"#utility.yul\":4703:4796   */\n      tag_78\n      jump\t// in\n    tag_134:\n        /* \"#utility.yul\":4821:4823   */\n      0x20\n        /* \"#utility.yul\":4816:4819   */\n      dup3\n        /* \"#utility.yul\":4812:4824   */\n      add\n        /* \"#utility.yul\":4805:4824   */\n      swap1\n      pop\n        /* \"#utility.yul\":4464:4830   */\n      swap2\n      swap1\n      pop\n      jump\t// out\n        /* \"#utility.yul\":4836:5255   */\n    tag_47:\n        /* \"#utility.yul\":5002:5006   */\n      0x00\n        /* \"#utility.yul\":5040:5042   */\n      0x20\n        /* \"#utility.yul\":5029:5038   */\n      dup3\n        /* \"#utility.yul\":5025:5043   */\n      add\n        /* \"#utility.yul\":5017:5043   */\n      swap1\n      pop\n        /* \"#utility.yul\":5089:5098   */\n      dup2\n        /* \"#utility.yul\":5083:5087   */\n      dup2\n        /* \"#utility.yul\":5079:5099   */\n      sub\n        /* \"#utility.yul\":5075:5076   */\n      0x00\n        /* \"#utility.yul\":5064:5073   */\n      dup4\n        /* \"#utility.yul\":5060:5077   */\n      add\n        /* \"#utility.yul\":5053:5100   */\n      mstore\n        /* \"#utility.yul\":5117:5248   */\n      tag_136\n        /* \"#utility.yul\":5243:5247   */\n      dup2\n        /* \"#utility.yul\":5117:5248   */\n      tag_79\n      jump\t// in\n    tag_136:\n        /* \"#utility.yul\":5109:5248   */\n      swap1\n      pop\n        /* \"#utility.yul\":4836:5255   */\n      swap2\n      swap1\n      pop\n      jump\t// out\n        /* \"#utility.yul\":5261:5432   */\n    tag_80:\n        /* \"#utility.yul\":5401:5424   */\n      0x596f7520617265206e6f7420746865206f776e65720000000000000000000000\n        /* \"#utility.yul\":5397:5398   */\n      0x00\n        /* \"#utility.yul\":5389:5395   */\n      dup3\n        /* \"#utility.yul\":5385:5399   */\n      add\n        /* \"#utility.yul\":5378:5425   */\n      mstore\n        /* \"#utility.yul\":5261:5432   */\n      pop\n      jump\t// out\n        /* \"#utility.yul\":5438:5804   */\n    tag_81:\n        /* \"#utility.yul\":5580:5583   */\n      0x00\n        /* \"#utility.yul\":5601:5668   */\n      tag_139\n        /* \"#utility.yul\":5665:5667   */\n      0x15\n        /* \"#utility.yul\":5660:5663   */\n      dup4\n        /* \"#utility.yul\":5601:5668   */\n      tag_75\n      jump\t// in\n    tag_139:\n        /* \"#utility.yul\":5594:5668   */\n      swap2\n      pop\n        /* \"#utility.yul\":5677:5770   */\n      tag_140\n        /* \"#utility.yul\":5766:5769   */\n      dup3\n        /* \"#utility.yul\":5677:5770   */\n      tag_80\n      jump\t// in\n    tag_140:\n        /* \"#utility.yul\":5795:5797   */\n      0x20\n        /* \"#utility.yul\":5790:5793   */\n      dup3\n        /* \"#utility.yul\":5786:5798   */\n      add\n        /* \"#utility.yul\":5779:5798   */\n      swap1\n      pop\n        /* \"#utility.yul\":5438:5804   */\n      swap2\n      swap1\n      pop\n      jump\t// out\n        /* \"#utility.yul\":5810:6229   */\n    tag_53:\n        /* \"#utility.yul\":5976:5980   */\n      0x00\n        /* \"#utility.yul\":6014:6016   */\n      0x20\n        /* \"#utility.yul\":6003:6012   */\n      dup3\n        /* \"#utility.yul\":5999:6017   */\n      add\n        /* \"#utility.yul\":5991:6017   */\n      swap1\n      pop\n        /* \"#utility.yul\":6063:6072   */\n      dup2\n        /* \"#utility.yul\":6057:6061   */\n      dup2\n        /* \"#utility.yul\":6053:6073   */\n      sub\n        /* \"#utility.yul\":6049:6050   */\n      0x00\n        /* \"#utility.yul\":6038:6047   */\n      dup4\n        /* \"#utility.yul\":6034:6051   */\n      add\n        /* \"#utility.yul\":6027:6074   */\n      mstore\n        /* \"#utility.yul\":6091:6222   */\n      tag_142\n        /* \"#utility.yul\":6217:6221   */\n      dup2\n        /* \"#utility.yul\":6091:6222   */\n      tag_81\n      jump\t// in\n    tag_142:\n        /* \"#utility.yul\":6083:6222   */\n      swap1\n      pop\n        /* \"#utility.yul\":5810:6229   */\n      swap2\n      swap1\n      pop\n      jump\t// out\n        /* \"#utility.yul\":6235:6415   */\n    tag_82:\n        /* \"#utility.yul\":6283:6360   */\n      0x4e487b7100000000000000000000000000000000000000000000000000000000\n        /* \"#utility.yul\":6280:6281   */\n      0x00\n        /* \"#utility.yul\":6273:6361   */\n      mstore\n        /* \"#utility.yul\":6380:6384   */\n      0x11\n        /* \"#utility.yul\":6377:6378   */\n      0x04\n        /* \"#utility.yul\":6370:6385   */\n      mstore\n        /* \"#utility.yul\":6404:6408   */\n      0x24\n        /* \"#utility.yul\":6401:6402   */\n      0x00\n        /* \"#utility.yul\":6394:6409   */\n      revert\n        /* \"#utility.yul\":6421:6612   */\n    tag_59:\n        /* \"#utility.yul\":6461:6464   */\n      0x00\n        /* \"#utility.yul\":6480:6500   */\n      tag_145\n        /* \"#utility.yul\":6498:6499   */\n      dup3\n        /* \"#utility.yul\":6480:6500   */\n      tag_70\n      jump\t// in\n    tag_145:\n        /* \"#utility.yul\":6475:6500   */\n      swap2\n      pop\n        /* \"#utility.yul\":6514:6534   */\n      tag_146\n        /* \"#utility.yul\":6532:6533   */\n      dup4\n        /* \"#utility.yul\":6514:6534   */\n      tag_70\n      jump\t// in\n    tag_146:\n        /* \"#utility.yul\":6509:6534   */\n      swap3\n      pop\n        /* \"#utility.yul\":6557:6558   */\n      dup3\n        /* \"#utility.yul\":6554:6555   */\n      dup3\n        /* \"#utility.yul\":6550:6559   */\n      add\n        /* \"#utility.yul\":6543:6559   */\n      swap1\n      pop\n        /* \"#utility.yul\":6578:6581   */\n      dup1\n        /* \"#utility.yul\":6575:6576   */\n      dup3\n        /* \"#utility.yul\":6572:6582   */\n      gt\n        /* \"#utility.yul\":6569:6605   */\n      iszero\n      tag_147\n      jumpi\n        /* \"#utility.yul\":6585:6603   */\n      tag_148\n      tag_82\n      jump\t// in\n    tag_148:\n        /* \"#utility.yul\":6569:6605   */\n    tag_147:\n        /* \"#utility.yul\":6421:6612   */\n      swap3\n      swap2\n      pop\n      pop\n      jump\t// out\n\n    auxdata: 0xa2646970667358221220ab23a42532d6c7495fb34c5d5a8c960895e2f25639784fb3022edb4870ff2da064736f6c63430008100033\n}\n",
				"bytecode": {
					"linkReferences": {},
					"object": "608060405234801561001057600080fd5b50336000806101000a81548173ffffffffffffffffffffffffffffffffffffffff021916908373ffffffffffffffffffffffffffffffffffffffff1602179055506107ca806100606000396000f3fe6080604052600436106100705760003560e01c806339df43ff1161004e57806339df43ff146100f25780635c975abb1461011b5780638da5cb5b14610146578063cbedbf5a1461017157610070565b80630adec93c1461007557806316c38b3c1461009e5780632b6dcd77146100c7575b600080fd5b34801561008157600080fd5b5061009c600480360381019061009791906104b0565b61017b565b005b3480156100aa57600080fd5b506100c560048036038101906100c09190610515565b6102a3565b005b3480156100d357600080fd5b506100dc61034e565b6040516100e9919061055b565b60405180910390f35b3480156100fe57600080fd5b50610119600480360381019061011491906104b0565b610354565b005b34801561012757600080fd5b506101306103fb565b60405161013d9190610585565b60405180910390f35b34801561015257600080fd5b5061015b61040e565b60405161016891906105c1565b60405180910390f35b610179610432565b005b3373ffffffffffffffffffffffffffffffffffffffff1660008054906101000a900473ffffffffffffffffffffffffffffffffffffffff1673ffffffffffffffffffffffffffffffffffffffff1614610209576040517f08c379a000000000000000000000000000000000000000000000000000000000815260040161020090610639565b60405180910390fd5b600260009054906101000a900460ff1615610259576040517f08c379a0000000000000000000000000000000000000000000000000000000008152600401610250906106a5565b60405180910390fd5b8073ffffffffffffffffffffffffffffffffffffffff166108fc479081150290604051600060405180830381858888f1935050505015801561029f573d6000803e3d6000fd5b5050565b60008054906101000a900473ffffffffffffffffffffffffffffffffffffffff1673ffffffffffffffffffffffffffffffffffffffff163373ffffffffffffffffffffffffffffffffffffffff1614610331576040517f08c379a000000000000000000000000000000000000000000000000000000000815260040161032890610711565b60405180910390fd5b80600260006101000a81548160ff02191690831515021790555050565b60015481565b60008054906101000a900473ffffffffffffffffffffffffffffffffffffffff1673ffffffffffffffffffffffffffffffffffffffff163373ffffffffffffffffffffffffffffffffffffffff16146103e2576040517f08c379a00000000000000000000000000000000000000000000000000000000081526004016103d990610711565b60405180910390fd5b8073ffffffffffffffffffffffffffffffffffffffff16ff5b600260009054906101000a900460ff1681565b60008054906101000a900473ffffffffffffffffffffffffffffffffffffffff1681565b34600160008282546104449190610760565b92505081905550565b600080fd5b600073ffffffffffffffffffffffffffffffffffffffff82169050919050565b600061047d82610452565b9050919050565b61048d81610472565b811461049857600080fd5b50565b6000813590506104aa81610484565b92915050565b6000602082840312156104c6576104c561044d565b5b60006104d48482850161049b565b91505092915050565b60008115159050919050565b6104f2816104dd565b81146104fd57600080fd5b50565b60008135905061050f816104e9565b92915050565b60006020828403121561052b5761052a61044d565b5b600061053984828501610500565b91505092915050565b6000819050919050565b61055581610542565b82525050565b6000602082019050610570600083018461054c565b92915050565b61057f816104dd565b82525050565b600060208201905061059a6000830184610576565b92915050565b60006105ab82610452565b9050919050565b6105bb816105a0565b82525050565b60006020820190506105d660008301846105b2565b92915050565b600082825260208201905092915050565b7f596f752063616e6e6f742077697468647261772e000000000000000000000000600082015250565b60006106236014836105dc565b915061062e826105ed565b602082019050919050565b6000602082019050818103600083015261065281610616565b9050919050565b7f54686520636f6e74726163742069732070617573656400000000000000000000600082015250565b600061068f6016836105dc565b915061069a82610659565b602082019050919050565b600060208201905081810360008301526106be81610682565b9050919050565b7f596f7520617265206e6f7420746865206f776e65720000000000000000000000600082015250565b60006106fb6015836105dc565b9150610706826106c5565b602082019050919050565b6000602082019050818103600083015261072a816106ee565b9050919050565b7f4e487b7100000000000000000000000000000000000000000000000000000000600052601160045260246000fd5b600061076b82610542565b915061077683610542565b925082820190508082111561078e5761078d610731565b5b9291505056fea2646970667358221220ab23a42532d6c7495fb34c5d5a8c960895e2f25639784fb3022edb4870ff2da064736f6c63430008100033",
					"opcodes": "PUSH1 0x80 PUSH1 0x40 MSTORE CALLVALUE DUP1 ISZERO PUSH2 0x10 JUMPI PUSH1 0x0 DUP1 REVERT JUMPDEST POP CALLER PUSH1 0x0 DUP1 PUSH2 0x100 EXP DUP2 SLOAD DUP2 PUSH20 0xFFFFFFFFFFFFFFFFFFFFFFFFFFFFFFFFFFFFFFFF MUL NOT AND SWAP1 DUP4 PUSH20 0xFFFFFFFFFFFFFFFFFFFFFFFFFFFFFFFFFFFFFFFF AND MUL OR SWAP1 SSTORE POP PUSH2 0x7CA DUP1 PUSH2 0x60 PUSH1 0x0 CODECOPY PUSH1 0x0 RETURN INVALID PUSH1 0x80 PUSH1 0x40 MSTORE PUSH1 0x4 CALLDATASIZE LT PUSH2 0x70 JUMPI PUSH1 0x0 CALLDATALOAD PUSH1 0xE0 SHR DUP1 PUSH4 0x39DF43FF GT PUSH2 0x4E JUMPI DUP1 PUSH4 0x39DF43FF EQ PUSH2 0xF2 JUMPI DUP1 PUSH4 0x5C975ABB EQ PUSH2 0x11B JUMPI DUP1 PUSH4 0x8DA5CB5B EQ PUSH2 0x146 JUMPI DUP1 PUSH4 0xCBEDBF5A EQ PUSH2 0x171 JUMPI PUSH2 0x70 JUMP JUMPDEST DUP1 PUSH4 0xADEC93C EQ PUSH2 0x75 JUMPI DUP1 PUSH4 0x16C38B3C EQ PUSH2 0x9E JUMPI DUP1 PUSH4 0x2B6DCD77 EQ PUSH2 0xC7 JUMPI JUMPDEST PUSH1 0x0 DUP1 REVERT JUMPDEST CALLVALUE DUP1 ISZERO PUSH2 0x81 JUMPI PUSH1 0x0 DUP1 REVERT JUMPDEST POP PUSH2 0x9C PUSH1 0x4 DUP1 CALLDATASIZE SUB DUP2 ADD SWAP1 PUSH2 0x97 SWAP2 SWAP1 PUSH2 0x4B0 JUMP JUMPDEST PUSH2 0x17B JUMP JUMPDEST STOP JUMPDEST CALLVALUE DUP1 ISZERO PUSH2 0xAA JUMPI PUSH1 0x0 DUP1 REVERT JUMPDEST POP PUSH2 0xC5 PUSH1 0x4 DUP1 CALLDATASIZE SUB DUP2 ADD SWAP1 PUSH2 0xC0 SWAP2 SWAP1 PUSH2 0x515 JUMP JUMPDEST PUSH2 0x2A3 JUMP JUMPDEST STOP JUMPDEST CALLVALUE DUP1 ISZERO PUSH2 0xD3 JUMPI PUSH1 0x0 DUP1 REVERT JUMPDEST POP PUSH2 0xDC PUSH2 0x34E JUMP JUMPDEST PUSH1 0x40 MLOAD PUSH2 0xE9 SWAP2 SWAP1 PUSH2 0x55B JUMP JUMPDEST PUSH1 0x40 MLOAD DUP1 SWAP2 SUB SWAP1 RETURN JUMPDEST CALLVALUE DUP1 ISZERO PUSH2 0xFE JUMPI PUSH1 0x0 DUP1 REVERT JUMPDEST POP PUSH2 0x119 PUSH1 0x4 DUP1 CALLDATASIZE SUB DUP2 ADD SWAP1 PUSH2 0x114 SWAP2 SWAP1 PUSH2 0x4B0 JUMP JUMPDEST PUSH2 0x354 JUMP JUMPDEST STOP JUMPDEST CALLVALUE DUP1 ISZERO PUSH2 0x127 JUMPI PUSH1 0x0 DUP1 REVERT JUMPDEST POP PUSH2 0x130 PUSH2 0x3FB JUMP JUMPDEST PUSH1 0x40 MLOAD PUSH2 0x13D SWAP2 SWAP1 PUSH2 0x585 JUMP JUMPDEST PUSH1 0x40 MLOAD DUP1 SWAP2 SUB SWAP1 RETURN JUMPDEST CALLVALUE DUP1 ISZERO PUSH2 0x152 JUMPI PUSH1 0x0 DUP1 REVERT JUMPDEST POP PUSH2 0x15B PUSH2 0x40E JUMP JUMPDEST PUSH1 0x40 MLOAD PUSH2 0x168 SWAP2 SWAP1 PUSH2 0x5C1 JUMP JUMPDEST PUSH1 0x40 MLOAD DUP1 SWAP2 SUB SWAP1 RETURN JUMPDEST PUSH2 0x179 PUSH2 0x432 JUMP JUMPDEST STOP JUMPDEST CALLER PUSH20 0xFFFFFFFFFFFFFFFFFFFFFFFFFFFFFFFFFFFFFFFF AND PUSH1 0x0 DUP1 SLOAD SWAP1 PUSH2 0x100 EXP SWAP1 DIV PUSH20 0xFFFFFFFFFFFFFFFFFFFFFFFFFFFFFFFFFFFFFFFF AND PUSH20 0xFFFFFFFFFFFFFFFFFFFFFFFFFFFFFFFFFFFFFFFF AND EQ PUSH2 0x209 JUMPI PUSH1 0x40 MLOAD PUSH32 0x8C379A000000000000000000000000000000000000000000000000000000000 DUP2 MSTORE PUSH1 0x4 ADD PUSH2 0x200 SWAP1 PUSH2 0x639 JUMP JUMPDEST PUSH1 0x40 MLOAD DUP1 SWAP2 SUB SWAP1 REVERT JUMPDEST PUSH1 0x2 PUSH1 0x0 SWAP1 SLOAD SWAP1 PUSH2 0x100 EXP SWAP1 DIV PUSH1 0xFF AND ISZERO PUSH2 0x259 JUMPI PUSH1 0x40 MLOAD PUSH32 0x8C379A000000000000000000000000000000000000000000000000000000000 DUP2 MSTORE PUSH1 0x4 ADD PUSH2 0x250 SWAP1 PUSH2 0x6A5 JUMP JUMPDEST PUSH1 0x40 MLOAD DUP1 SWAP2 SUB SWAP1 REVERT JUMPDEST DUP1 PUSH20 0xFFFFFFFFFFFFFFFFFFFFFFFFFFFFFFFFFFFFFFFF AND PUSH2 0x8FC SELFBALANCE SWAP1 DUP2 ISZERO MUL SWAP1 PUSH1 0x40 MLOAD PUSH1 0x0 PUSH1 0x40 MLOAD DUP1 DUP4 SUB DUP2 DUP6 DUP9 DUP9 CALL SWAP4 POP POP POP POP ISZERO DUP1 ISZERO PUSH2 0x29F JUMPI RETURNDATASIZE PUSH1 0x0 DUP1 RETURNDATACOPY RETURNDATASIZE PUSH1 0x0 REVERT JUMPDEST POP POP JUMP JUMPDEST PUSH1 0x0 DUP1 SLOAD SWAP1 PUSH2 0x100 EXP SWAP1 DIV PUSH20 0xFFFFFFFFFFFFFFFFFFFFFFFFFFFFFFFFFFFFFFFF AND PUSH20 0xFFFFFFFFFFFFFFFFFFFFFFFFFFFFFFFFFFFFFFFF AND CALLER PUSH20 0xFFFFFFFFFFFFFFFFFFFFFFFFFFFFFFFFFFFFFFFF AND EQ PUSH2 0x331 JUMPI PUSH1 0x40 MLOAD PUSH32 0x8C379A000000000000000000000000000000000000000000000000000000000 DUP2 MSTORE PUSH1 0x4 ADD PUSH2 0x328 SWAP1 PUSH2 0x711 JUMP JUMPDEST PUSH1 0x40 MLOAD DUP1 SWAP2 SUB SWAP1 REVERT JUMPDEST DUP1 PUSH1 0x2 PUSH1 0x0 PUSH2 0x100 EXP DUP2 SLOAD DUP2 PUSH1 0xFF MUL NOT AND SWAP1 DUP4 ISZERO ISZERO MUL OR SWAP1 SSTORE POP POP JUMP JUMPDEST PUSH1 0x1 SLOAD DUP2 JUMP JUMPDEST PUSH1 0x0 DUP1 SLOAD SWAP1 PUSH2 0x100 EXP SWAP1 DIV PUSH20 0xFFFFFFFFFFFFFFFFFFFFFFFFFFFFFFFFFFFFFFFF AND PUSH20 0xFFFFFFFFFFFFFFFFFFFFFFFFFFFFFFFFFFFFFFFF AND CALLER PUSH20 0xFFFFFFFFFFFFFFFFFFFFFFFFFFFFFFFFFFFFFFFF AND EQ PUSH2 0x3E2 JUMPI PUSH1 0x40 MLOAD PUSH32 0x8C379A000000000000000000000000000000000000000000000000000000000 DUP2 MSTORE PUSH1 0x4 ADD PUSH2 0x3D9 SWAP1 PUSH2 0x711 JUMP JUMPDEST PUSH1 0x40 MLOAD DUP1 SWAP2 SUB SWAP1 REVERT JUMPDEST DUP1 PUSH20 0xFFFFFFFFFFFFFFFFFFFFFFFFFFFFFFFFFFFFFFFF AND SELFDESTRUCT JUMPDEST PUSH1 0x2 PUSH1 0x0 SWAP1 SLOAD SWAP1 PUSH2 0x100 EXP SWAP1 DIV PUSH1 0xFF AND DUP2 JUMP JUMPDEST PUSH1 0x0 DUP1 SLOAD SWAP1 PUSH2 0x100 EXP SWAP1 DIV PUSH20 0xFFFFFFFFFFFFFFFFFFFFFFFFFFFFFFFFFFFFFFFF AND DUP2 JUMP JUMPDEST CALLVALUE PUSH1 0x1 PUSH1 0x0 DUP3 DUP3 SLOAD PUSH2 0x444 SWAP2 SWAP1 PUSH2 0x760 JUMP JUMPDEST SWAP3 POP POP DUP2 SWAP1 SSTORE POP JUMP JUMPDEST PUSH1 0x0 DUP1 REVERT JUMPDEST PUSH1 0x0 PUSH20 0xFFFFFFFFFFFFFFFFFFFFFFFFFFFFFFFFFFFFFFFF DUP3 AND SWAP1 POP SWAP2 SWAP1 POP JUMP JUMPDEST PUSH1 0x0 PUSH2 0x47D DUP3 PUSH2 0x452 JUMP JUMPDEST SWAP1 POP SWAP2 SWAP1 POP JUMP JUMPDEST PUSH2 0x48D DUP2 PUSH2 0x472 JUMP JUMPDEST DUP2 EQ PUSH2 0x498 JUMPI PUSH1 0x0 DUP1 REVERT JUMPDEST POP JUMP JUMPDEST PUSH1 0x0 DUP2 CALLDATALOAD SWAP1 POP PUSH2 0x4AA DUP2 PUSH2 0x484 JUMP JUMPDEST SWAP3 SWAP2 POP POP JUMP JUMPDEST PUSH1 0x0 PUSH1 0x20 DUP3 DUP5 SUB SLT ISZERO PUSH2 0x4C6 JUMPI PUSH2 0x4C5 PUSH2 0x44D JUMP JUMPDEST JUMPDEST PUSH1 0x0 PUSH2 0x4D4 DUP5 DUP3 DUP6 ADD PUSH2 0x49B JUMP JUMPDEST SWAP2 POP POP SWAP3 SWAP2 POP POP JUMP JUMPDEST PUSH1 0x0 DUP2 ISZERO ISZERO SWAP1 POP SWAP2 SWAP1 POP JUMP JUMPDEST PUSH2 0x4F2 DUP2 PUSH2 0x4DD JUMP JUMPDEST DUP2 EQ PUSH2 0x4FD JUMPI PUSH1 0x0 DUP1 REVERT JUMPDEST POP JUMP JUMPDEST PUSH1 0x0 DUP2 CALLDATALOAD SWAP1 POP PUSH2 0x50F DUP2 PUSH2 0x4E9 JUMP JUMPDEST SWAP3 SWAP2 POP POP JUMP JUMPDEST PUSH1 0x0 PUSH1 0x20 DUP3 DUP5 SUB SLT ISZERO PUSH2 0x52B JUMPI PUSH2 0x52A PUSH2 0x44D JUMP JUMPDEST JUMPDEST PUSH1 0x0 PUSH2 0x539 DUP5 DUP3 DUP6 ADD PUSH2 0x500 JUMP JUMPDEST SWAP2 POP POP SWAP3 SWAP2 POP POP JUMP JUMPDEST PUSH1 0x0 DUP2 SWAP1 POP SWAP2 SWAP1 POP JUMP JUMPDEST PUSH2 0x555 DUP2 PUSH2 0x542 JUMP JUMPDEST DUP3 MSTORE POP POP JUMP JUMPDEST PUSH1 0x0 PUSH1 0x20 DUP3 ADD SWAP1 POP PUSH2 0x570 PUSH1 0x0 DUP4 ADD DUP5 PUSH2 0x54C JUMP JUMPDEST SWAP3 SWAP2 POP POP JUMP JUMPDEST PUSH2 0x57F DUP2 PUSH2 0x4DD JUMP JUMPDEST DUP3 MSTORE POP POP JUMP JUMPDEST PUSH1 0x0 PUSH1 0x20 DUP3 ADD SWAP1 POP PUSH2 0x59A PUSH1 0x0 DUP4 ADD DUP5 PUSH2 0x576 JUMP JUMPDEST SWAP3 SWAP2 POP POP JUMP JUMPDEST PUSH1 0x0 PUSH2 0x5AB DUP3 PUSH2 0x452 JUMP JUMPDEST SWAP1 POP SWAP2 SWAP1 POP JUMP JUMPDEST PUSH2 0x5BB DUP2 PUSH2 0x5A0 JUMP JUMPDEST DUP3 MSTORE POP POP JUMP JUMPDEST PUSH1 0x0 PUSH1 0x20 DUP3 ADD SWAP1 POP PUSH2 0x5D6 PUSH1 0x0 DUP4 ADD DUP5 PUSH2 0x5B2 JUMP JUMPDEST SWAP3 SWAP2 POP POP JUMP JUMPDEST PUSH1 0x0 DUP3 DUP3 MSTORE PUSH1 0x20 DUP3 ADD SWAP1 POP SWAP3 SWAP2 POP POP JUMP JUMPDEST PUSH32 0x596F752063616E6E6F742077697468647261772E000000000000000000000000 PUSH1 0x0 DUP3 ADD MSTORE POP JUMP JUMPDEST PUSH1 0x0 PUSH2 0x623 PUSH1 0x14 DUP4 PUSH2 0x5DC JUMP JUMPDEST SWAP2 POP PUSH2 0x62E DUP3 PUSH2 0x5ED JUMP JUMPDEST PUSH1 0x20 DUP3 ADD SWAP1 POP SWAP2 SWAP1 POP JUMP JUMPDEST PUSH1 0x0 PUSH1 0x20 DUP3 ADD SWAP1 POP DUP2 DUP2 SUB PUSH1 0x0 DUP4 ADD MSTORE PUSH2 0x652 DUP2 PUSH2 0x616 JUMP JUMPDEST SWAP1 POP SWAP2 SWAP1 POP JUMP JUMPDEST PUSH32 0x54686520636F6E74726163742069732070617573656400000000000000000000 PUSH1 0x0 DUP3 ADD MSTORE POP JUMP JUMPDEST PUSH1 0x0 PUSH2 0x68F PUSH1 0x16 DUP4 PUSH2 0x5DC JUMP JUMPDEST SWAP2 POP PUSH2 0x69A DUP3 PUSH2 0x659 JUMP JUMPDEST PUSH1 0x20 DUP3 ADD SWAP1 POP SWAP2 SWAP1 POP JUMP JUMPDEST PUSH1 0x0 PUSH1 0x20 DUP3 ADD SWAP1 POP DUP2 DUP2 SUB PUSH1 0x0 DUP4 ADD MSTORE PUSH2 0x6BE DUP2 PUSH2 0x682 JUMP JUMPDEST SWAP1 POP SWAP2 SWAP1 POP JUMP JUMPDEST PUSH32 0x596F7520617265206E6F7420746865206F776E65720000000000000000000000 PUSH1 0x0 DUP3 ADD MSTORE POP JUMP JUMPDEST PUSH1 0x0 PUSH2 0x6FB PUSH1 0x15 DUP4 PUSH2 0x5DC JUMP JUMPDEST SWAP2 POP PUSH2 0x706 DUP3 PUSH2 0x6C5 JUMP JUMPDEST PUSH1 0x20 DUP3 ADD SWAP1 POP SWAP2 SWAP1 POP JUMP JUMPDEST PUSH1 0x0 PUSH1 0x20 DUP3 ADD SWAP1 POP DUP2 DUP2 SUB PUSH1 0x0 DUP4 ADD MSTORE PUSH2 0x72A DUP2 PUSH2 0x6EE JUMP JUMPDEST SWAP1 POP SWAP2 SWAP1 POP JUMP JUMPDEST PUSH32 0x4E487B7100000000000000000000000000000000000000000000000000000000 PUSH1 0x0 MSTORE PUSH1 0x11 PUSH1 0x4 MSTORE PUSH1 0x24 PUSH1 0x0 REVERT JUMPDEST PUSH1 0x0 PUSH2 0x76B DUP3 PUSH2 0x542 JUMP JUMPDEST SWAP2 POP PUSH2 0x776 DUP4 PUSH2 0x542 JUMP JUMPDEST SWAP3 POP DUP3 DUP3 ADD SWAP1 POP DUP1 DUP3 GT ISZERO PUSH2 0x78E JUMPI PUSH2 0x78D PUSH2 0x731 JUMP JUMPDEST JUMPDEST SWAP3 SWAP2 POP POP JUMP INVALID LOG2 PUSH5 0x6970667358 0x22 SLT KECCAK256 0xAB 0x23 LOG4 0x25 ORIGIN 0xD6 0xC7 0x49 0x5F 0xB3 0x4C 0x5D GAS DUP13 SWAP7 ADDMOD SWAP6 0xE2 CALLCODE JUMP CODECOPY PUSH25 0x4FB3022EDB4870FF2DA064736F6C6343000810003300000000 "
				},
				"gasEstimates": {
					"creation": {
						"codeDepositCost": "398800",
						"executionCost": "24702",
						"totalCost": "423502"
					},
					"external": {
						"destroySmartContract(address)": "30220",
						"myContractBalance()": "2474",
						"owner()": "2555",
						"paused()": "2493",
						"sendMoney()": "infinite",
						"setPaused(bool)": "26869",
						"withdrawAllMoney(address)": "infinite"
					}
				},
				"methodIdentifiers": {
					"destroySmartContract(address)": "39df43ff",
					"myContractBalance()": "2b6dcd77",
					"owner()": "8da5cb5b",
					"paused()": "5c975abb",
					"sendMoney()": "cbedbf5a",
					"setPaused(bool)": "16c38b3c",
					"withdrawAllMoney(address)": "0adec93c"
				}
			},
			"storageLayout": {
				"storage": [
					{
						"astId": 3,
						"contract": "StartingStopping.sol:StartStopUpdateExample",
						"label": "owner",
						"offset": 0,
						"slot": "0",
						"type": "t_address"
					},
					{
						"astId": 5,
						"contract": "StartingStopping.sol:StartStopUpdateExample",
						"label": "myContractBalance",
						"offset": 0,
						"slot": "1",
						"type": "t_uint256"
					},
					{
						"astId": 7,
						"contract": "StartingStopping.sol:StartStopUpdateExample",
						"label": "paused",
						"offset": 0,
						"slot": "2",
						"type": "t_bool"
					}
				],
				"types": {
					"t_address": {
						"encoding": "inplace",
						"label": "address",
						"numberOfBytes": "20"
					},
					"t_bool": {
						"encoding": "inplace",
						"label": "bool",
						"numberOfBytes": "1"
					},
					"t_uint256": {
						"encoding": "inplace",
						"label": "uint256",
						"numberOfBytes": "32"
					}
				}
			},
			"userdoc": {
				"kind": "user",
				"methods": {},
				"version": 1
			}
		}
	}
}