{
	"MyChangeOwner.sol": {
		"StartStopUpdateExample": {
			"abi": [
				{
					"inputs": [],
					"stateMutability": "nonpayable",
					"type": "constructor"
				},
				{
					"inputs": [
						{
							"internalType": "address",
							"name": "_to",
							"type": "address"
						}
					],
					"name": "ChangeOwnerTo",
					"outputs": [],
					"stateMutability": "nonpayable",
					"type": "function"
				},
				{
					"inputs": [
						{
							"internalType": "address payable",
							"name": "_to",
							"type": "address"
						}
					],
					"name": "destroySmartContract",
					"outputs": [],
					"stateMutability": "nonpayable",
					"type": "function"
				},
				{
					"inputs": [],
					"name": "myContractBalance",
					"outputs": [
						{
							"internalType": "uint256",
							"name": "",
							"type": "uint256"
						}
					],
					"stateMutability": "view",
					"type": "function"
				},
				{
					"inputs": [],
					"name": "owner",
					"outputs": [
						{
							"internalType": "address",
							"name": "",
							"type": "address"
						}
					],
					"stateMutability": "view",
					"type": "function"
				},
				{
					"inputs": [],
					"name": "paused",
					"outputs": [
						{
							"internalType": "bool",
							"name": "",
							"type": "bool"
						}
					],
					"stateMutability": "view",
					"type": "function"
				},
				{
					"inputs": [],
					"name": "sendMoney",
					"outputs": [],
					"stateMutability": "payable",
					"type": "function"
				},
				{
					"inputs": [
						{
							"internalType": "bool",
							"name": "_paused",
							"type": "bool"
						}
					],
					"name": "setPaused",
					"outputs": [],
					"stateMutability": "nonpayable",
					"type": "function"
				},
				{
					"inputs": [
						{
							"internalType": "address payable",
							"name": "_to",
							"type": "address"
						}
					],
					"name": "withdrawAllMoney",
					"outputs": [],
					"stateMutability": "nonpayable",
					"type": "function"
				}
			],
			"devdoc": {
				"kind": "dev",
				"methods": {},
				"version": 1
			},
			"evm": {
				"assembly": "    /* \"MyChangeOwner.sol\":64:1112  contract StartStopUpdateExample {... */\n  mstore(0x40, 0x80)\n    /* \"MyChangeOwner.sol\":189:238  constructor() {... */\n  callvalue\n  dup1\n  iszero\n  tag_1\n  jumpi\n  0x00\n  dup1\n  revert\ntag_1:\n  pop\n    /* \"MyChangeOwner.sol\":221:231  msg.sender */\n  caller\n    /* \"MyChangeOwner.sol\":213:218  owner */\n  0x00\n  dup1\n    /* \"MyChangeOwner.sol\":213:231  owner = msg.sender */\n  0x0100\n  exp\n  dup2\n  sload\n  dup2\n  0xffffffffffffffffffffffffffffffffffffffff\n  mul\n  not\n  and\n  swap1\n  dup4\n  0xffffffffffffffffffffffffffffffffffffffff\n  and\n  mul\n  or\n  swap1\n  sstore\n  pop\n    /* \"MyChangeOwner.sol\":64:1112  contract StartStopUpdateExample {... */\n  dataSize(sub_0)\n  dup1\n  dataOffset(sub_0)\n  0x00\n  codecopy\n  0x00\n  return\nstop\n\nsub_0: assembly {\n        /* \"MyChangeOwner.sol\":64:1112  contract StartStopUpdateExample {... */\n      mstore(0x40, 0x80)\n      jumpi(tag_1, lt(calldatasize, 0x04))\n      shr(0xe0, calldataload(0x00))\n      dup1\n      0x5c975abb\n      gt\n      tag_10\n      jumpi\n      dup1\n      0x5c975abb\n      eq\n      tag_6\n      jumpi\n      dup1\n      0x8da5cb5b\n      eq\n      tag_7\n      jumpi\n      dup1\n      0xbc48fdad\n      eq\n      tag_8\n      jumpi\n      dup1\n      0xcbedbf5a\n      eq\n      tag_9\n      jumpi\n      jump(tag_1)\n    tag_10:\n      dup1\n      0x0adec93c\n      eq\n      tag_2\n      jumpi\n      dup1\n      0x16c38b3c\n      eq\n      tag_3\n      jumpi\n      dup1\n      0x2b6dcd77\n      eq\n      tag_4\n      jumpi\n      dup1\n      0x39df43ff\n      eq\n      tag_5\n      jumpi\n    tag_1:\n      0x00\n      dup1\n      revert\n        /* \"MyChangeOwner.sol\":491:728  function withdrawAllMoney(address payable _to) public {... */\n    tag_2:\n      callvalue\n      dup1\n      iszero\n      tag_11\n      jumpi\n      0x00\n      dup1\n      revert\n    tag_11:\n      pop\n      tag_12\n      0x04\n      dup1\n      calldatasize\n      sub\n      dup2\n      add\n      swap1\n      tag_13\n      swap2\n      swap1\n      tag_14\n      jump\t// in\n    tag_13:\n      tag_15\n      jump\t// in\n    tag_12:\n      stop\n        /* \"MyChangeOwner.sol\":333:485  function setPaused(bool _paused) public {... */\n    tag_3:\n      callvalue\n      dup1\n      iszero\n      tag_16\n      jumpi\n      0x00\n      dup1\n      revert\n    tag_16:\n      pop\n      tag_17\n      0x04\n      dup1\n      calldatasize\n      sub\n      dup2\n      add\n      swap1\n      tag_18\n      swap2\n      swap1\n      tag_19\n      jump\t// in\n    tag_18:\n      tag_20\n      jump\t// in\n    tag_17:\n      stop\n        /* \"MyChangeOwner.sol\":129:158  uint public myContractBalance */\n    tag_4:\n      callvalue\n      dup1\n      iszero\n      tag_21\n      jumpi\n      0x00\n      dup1\n      revert\n    tag_21:\n      pop\n      tag_22\n      tag_23\n      jump\t// in\n    tag_22:\n      mload(0x40)\n      tag_24\n      swap2\n      swap1\n      tag_25\n      jump\t// in\n    tag_24:\n      mload(0x40)\n      dup1\n      swap2\n      sub\n      swap1\n      return\n        /* \"MyChangeOwner.sol\":955:1110  function destroySmartContract(address payable _to) public {... */\n    tag_5:\n      callvalue\n      dup1\n      iszero\n      tag_26\n      jumpi\n      0x00\n      dup1\n      revert\n    tag_26:\n      pop\n      tag_27\n      0x04\n      dup1\n      calldatasize\n      sub\n      dup2\n      add\n      swap1\n      tag_28\n      swap2\n      swap1\n      tag_14\n      jump\t// in\n    tag_28:\n      tag_29\n      jump\t// in\n    tag_27:\n      stop\n        /* \"MyChangeOwner.sol\":164:182  bool public paused */\n    tag_6:\n      callvalue\n      dup1\n      iszero\n      tag_30\n      jumpi\n      0x00\n      dup1\n      revert\n    tag_30:\n      pop\n      tag_31\n      tag_32\n      jump\t// in\n    tag_31:\n      mload(0x40)\n      tag_33\n      swap2\n      swap1\n      tag_34\n      jump\t// in\n    tag_33:\n      mload(0x40)\n      dup1\n      swap2\n      sub\n      swap1\n      return\n        /* \"MyChangeOwner.sol\":103:123  address public owner */\n    tag_7:\n      callvalue\n      dup1\n      iszero\n      tag_35\n      jumpi\n      0x00\n      dup1\n      revert\n    tag_35:\n      pop\n      tag_36\n      tag_37\n      jump\t// in\n    tag_36:\n      mload(0x40)\n      tag_38\n      swap2\n      swap1\n      tag_39\n      jump\t// in\n    tag_38:\n      mload(0x40)\n      dup1\n      swap2\n      sub\n      swap1\n      return\n        /* \"MyChangeOwner.sol\":734:945  function ChangeOwnerTo(address _to) public {... */\n    tag_8:\n      callvalue\n      dup1\n      iszero\n      tag_40\n      jumpi\n      0x00\n      dup1\n      revert\n    tag_40:\n      pop\n      tag_41\n      0x04\n      dup1\n      calldatasize\n      sub\n      dup2\n      add\n      swap1\n      tag_42\n      swap2\n      swap1\n      tag_43\n      jump\t// in\n    tag_42:\n      tag_44\n      jump\t// in\n    tag_41:\n      stop\n        /* \"MyChangeOwner.sol\":244:327  function sendMoney() public payable {... */\n    tag_9:\n      tag_45\n      tag_46\n      jump\t// in\n    tag_45:\n      stop\n        /* \"MyChangeOwner.sol\":491:728  function withdrawAllMoney(address payable _to) public {... */\n    tag_15:\n        /* \"MyChangeOwner.sol\":572:582  msg.sender */\n      caller\n        /* \"MyChangeOwner.sol\":563:582  owner == msg.sender */\n      0xffffffffffffffffffffffffffffffffffffffff\n      and\n        /* \"MyChangeOwner.sol\":563:568  owner */\n      0x00\n      dup1\n      sload\n      swap1\n      0x0100\n      exp\n      swap1\n      div\n      0xffffffffffffffffffffffffffffffffffffffff\n      and\n        /* \"MyChangeOwner.sol\":563:582  owner == msg.sender */\n      0xffffffffffffffffffffffffffffffffffffffff\n      and\n      eq\n        /* \"MyChangeOwner.sol\":555:625  require(owner == msg.sender, \"Only the owner can initiate withdrawal\") */\n      tag_48\n      jumpi\n      mload(0x40)\n      0x08c379a000000000000000000000000000000000000000000000000000000000\n      dup2\n      mstore\n      0x04\n      add\n      tag_49\n      swap1\n      tag_50\n      jump\t// in\n    tag_49:\n      mload(0x40)\n      dup1\n      swap2\n      sub\n      swap1\n      revert\n    tag_48:\n        /* \"MyChangeOwner.sol\":644:650  paused */\n      0x02\n      0x00\n      swap1\n      sload\n      swap1\n      0x0100\n      exp\n      swap1\n      div\n      0xff\n      and\n        /* \"MyChangeOwner.sol\":643:650  !paused */\n      iszero\n        /* \"MyChangeOwner.sol\":635:676  require(!paused,\"The contract is paused\") */\n      tag_51\n      jumpi\n      mload(0x40)\n      0x08c379a000000000000000000000000000000000000000000000000000000000\n      dup2\n      mstore\n      0x04\n      add\n      tag_52\n      swap1\n      tag_53\n      jump\t// in\n    tag_52:\n      mload(0x40)\n      dup1\n      swap2\n      sub\n      swap1\n      revert\n    tag_51:\n        /* \"MyChangeOwner.sol\":686:689  _to */\n      dup1\n        /* \"MyChangeOwner.sol\":686:698  _to.transfer */\n      0xffffffffffffffffffffffffffffffffffffffff\n      and\n        /* \"MyChangeOwner.sol\":686:721  _to.transfer(address(this).balance) */\n      0x08fc\n        /* \"MyChangeOwner.sol\":699:720  address(this).balance */\n      selfbalance\n        /* \"MyChangeOwner.sol\":686:721  _to.transfer(address(this).balance) */\n      swap1\n      dup2\n      iszero\n      mul\n      swap1\n      mload(0x40)\n      0x00\n      mload(0x40)\n      dup1\n      dup4\n      sub\n      dup2\n      dup6\n      dup9\n      dup9\n      call\n      swap4\n      pop\n      pop\n      pop\n      pop\n      iszero\n      dup1\n      iszero\n      tag_55\n      jumpi\n      returndatasize\n      0x00\n      dup1\n      returndatacopy\n      revert(0x00, returndatasize)\n    tag_55:\n      pop\n        /* \"MyChangeOwner.sol\":491:728  function withdrawAllMoney(address payable _to) public {... */\n      pop\n      jump\t// out\n        /* \"MyChangeOwner.sol\":333:485  function setPaused(bool _paused) public {... */\n    tag_20:\n        /* \"MyChangeOwner.sol\":405:410  owner */\n      0x00\n      dup1\n      sload\n      swap1\n      0x0100\n      exp\n      swap1\n      div\n      0xffffffffffffffffffffffffffffffffffffffff\n      and\n        /* \"MyChangeOwner.sol\":391:410  msg.sender == owner */\n      0xffffffffffffffffffffffffffffffffffffffff\n      and\n        /* \"MyChangeOwner.sol\":391:401  msg.sender */\n      caller\n        /* \"MyChangeOwner.sol\":391:410  msg.sender == owner */\n      0xffffffffffffffffffffffffffffffffffffffff\n      and\n      eq\n        /* \"MyChangeOwner.sol\":383:452  require(msg.sender == owner, \"Only the owner can pause the contract\") */\n      tag_57\n      jumpi\n      mload(0x40)\n      0x08c379a000000000000000000000000000000000000000000000000000000000\n      dup2\n      mstore\n      0x04\n      add\n      tag_58\n      swap1\n      tag_59\n      jump\t// in\n    tag_58:\n      mload(0x40)\n      dup1\n      swap2\n      sub\n      swap1\n      revert\n    tag_57:\n        /* \"MyChangeOwner.sol\":471:478  _paused */\n      dup1\n        /* \"MyChangeOwner.sol\":462:468  paused */\n      0x02\n      0x00\n        /* \"MyChangeOwner.sol\":462:478  paused = _paused */\n      0x0100\n      exp\n      dup2\n      sload\n      dup2\n      0xff\n      mul\n      not\n      and\n      swap1\n      dup4\n      iszero\n      iszero\n      mul\n      or\n      swap1\n      sstore\n      pop\n        /* \"MyChangeOwner.sol\":333:485  function setPaused(bool _paused) public {... */\n      pop\n      jump\t// out\n        /* \"MyChangeOwner.sol\":129:158  uint public myContractBalance */\n    tag_23:\n      sload(0x01)\n      dup2\n      jump\t// out\n        /* \"MyChangeOwner.sol\":955:1110  function destroySmartContract(address payable _to) public {... */\n    tag_29:\n        /* \"MyChangeOwner.sol\":1045:1050  owner */\n      0x00\n      dup1\n      sload\n      swap1\n      0x0100\n      exp\n      swap1\n      div\n      0xffffffffffffffffffffffffffffffffffffffff\n      and\n        /* \"MyChangeOwner.sol\":1031:1050  msg.sender == owner */\n      0xffffffffffffffffffffffffffffffffffffffff\n      and\n        /* \"MyChangeOwner.sol\":1031:1041  msg.sender */\n      caller\n        /* \"MyChangeOwner.sol\":1031:1050  msg.sender == owner */\n      0xffffffffffffffffffffffffffffffffffffffff\n      and\n      eq\n        /* \"MyChangeOwner.sol\":1023:1076  require(msg.sender == owner, \"You are not the owner\") */\n      tag_61\n      jumpi\n      mload(0x40)\n      0x08c379a000000000000000000000000000000000000000000000000000000000\n      dup2\n      mstore\n      0x04\n      add\n      tag_62\n      swap1\n      tag_63\n      jump\t// in\n    tag_62:\n      mload(0x40)\n      dup1\n      swap2\n      sub\n      swap1\n      revert\n    tag_61:\n        /* \"MyChangeOwner.sol\":1099:1102  _to */\n      dup1\n        /* \"MyChangeOwner.sol\":1086:1103  selfdestruct(_to) */\n      0xffffffffffffffffffffffffffffffffffffffff\n      and\n      selfdestruct\n        /* \"MyChangeOwner.sol\":164:182  bool public paused */\n    tag_32:\n      0x02\n      0x00\n      swap1\n      sload\n      swap1\n      0x0100\n      exp\n      swap1\n      div\n      0xff\n      and\n      dup2\n      jump\t// out\n        /* \"MyChangeOwner.sol\":103:123  address public owner */\n    tag_37:\n      0x00\n      dup1\n      sload\n      swap1\n      0x0100\n      exp\n      swap1\n      div\n      0xffffffffffffffffffffffffffffffffffffffff\n      and\n      dup2\n      jump\t// out\n        /* \"MyChangeOwner.sol\":734:945  function ChangeOwnerTo(address _to) public {... */\n    tag_44:\n        /* \"MyChangeOwner.sol\":804:814  msg.sender */\n      caller\n        /* \"MyChangeOwner.sol\":795:814  owner == msg.sender */\n      0xffffffffffffffffffffffffffffffffffffffff\n      and\n        /* \"MyChangeOwner.sol\":795:800  owner */\n      0x00\n      dup1\n      sload\n      swap1\n      0x0100\n      exp\n      swap1\n      div\n      0xffffffffffffffffffffffffffffffffffffffff\n      and\n        /* \"MyChangeOwner.sol\":795:814  owner == msg.sender */\n      0xffffffffffffffffffffffffffffffffffffffff\n      and\n      eq\n        /* \"MyChangeOwner.sol\":787:872  require(owner == msg.sender, \"Only the owner can change the contract to a new owner\") */\n      tag_65\n      jumpi\n      mload(0x40)\n      0x08c379a000000000000000000000000000000000000000000000000000000000\n      dup2\n      mstore\n      0x04\n      add\n      tag_66\n      swap1\n      tag_67\n      jump\t// in\n    tag_66:\n      mload(0x40)\n      dup1\n      swap2\n      sub\n      swap1\n      revert\n    tag_65:\n        /* \"MyChangeOwner.sol\":891:897  paused */\n      0x02\n      0x00\n      swap1\n      sload\n      swap1\n      0x0100\n      exp\n      swap1\n      div\n      0xff\n      and\n        /* \"MyChangeOwner.sol\":890:897  !paused */\n      iszero\n        /* \"MyChangeOwner.sol\":882:923  require(!paused,\"The contract is paused\") */\n      tag_68\n      jumpi\n      mload(0x40)\n      0x08c379a000000000000000000000000000000000000000000000000000000000\n      dup2\n      mstore\n      0x04\n      add\n      tag_69\n      swap1\n      tag_53\n      jump\t// in\n    tag_69:\n      mload(0x40)\n      dup1\n      swap2\n      sub\n      swap1\n      revert\n    tag_68:\n        /* \"MyChangeOwner.sol\":933:938  owner */\n      0x00\n      dup1\n      sload\n      swap1\n      0x0100\n      exp\n      swap1\n      pop\n      pop\n        /* \"MyChangeOwner.sol\":734:945  function ChangeOwnerTo(address _to) public {... */\n      pop\n      jump\t// out\n        /* \"MyChangeOwner.sol\":244:327  function sendMoney() public payable {... */\n    tag_46:\n        /* \"MyChangeOwner.sol\":311:320  msg.value */\n      callvalue\n        /* \"MyChangeOwner.sol\":290:307  myContractBalance */\n      0x01\n      0x00\n        /* \"MyChangeOwner.sol\":290:320  myContractBalance += msg.value */\n      dup3\n      dup3\n      sload\n      tag_71\n      swap2\n      swap1\n      tag_72\n      jump\t// in\n    tag_71:\n      swap3\n      pop\n      pop\n      dup2\n      swap1\n      sstore\n      pop\n        /* \"MyChangeOwner.sol\":244:327  function sendMoney() public payable {... */\n      jump\t// out\n        /* \"#utility.yul\":7:146   */\n    tag_74:\n        /* \"#utility.yul\":53:58   */\n      0x00\n        /* \"#utility.yul\":91:97   */\n      dup2\n        /* \"#utility.yul\":78:98   */\n      calldataload\n        /* \"#utility.yul\":69:98   */\n      swap1\n      pop\n        /* \"#utility.yul\":107:140   */\n      tag_76\n        /* \"#utility.yul\":134:139   */\n      dup2\n        /* \"#utility.yul\":107:140   */\n      tag_77\n      jump\t// in\n    tag_76:\n        /* \"#utility.yul\":7:146   */\n      swap3\n      swap2\n      pop\n      pop\n      jump\t// out\n        /* \"#utility.yul\":152:307   */\n    tag_78:\n        /* \"#utility.yul\":206:211   */\n      0x00\n        /* \"#utility.yul\":244:250   */\n      dup2\n        /* \"#utility.yul\":231:251   */\n      calldataload\n        /* \"#utility.yul\":222:251   */\n      swap1\n      pop\n        /* \"#utility.yul\":260:301   */\n      tag_80\n        /* \"#utility.yul\":295:300   */\n      dup2\n        /* \"#utility.yul\":260:301   */\n      tag_81\n      jump\t// in\n    tag_80:\n        /* \"#utility.yul\":152:307   */\n      swap3\n      swap2\n      pop\n      pop\n      jump\t// out\n        /* \"#utility.yul\":313:446   */\n    tag_82:\n        /* \"#utility.yul\":356:361   */\n      0x00\n        /* \"#utility.yul\":394:400   */\n      dup2\n        /* \"#utility.yul\":381:401   */\n      calldataload\n        /* \"#utility.yul\":372:401   */\n      swap1\n      pop\n        /* \"#utility.yul\":410:440   */\n      tag_84\n        /* \"#utility.yul\":434:439   */\n      dup2\n        /* \"#utility.yul\":410:440   */\n      tag_85\n      jump\t// in\n    tag_84:\n        /* \"#utility.yul\":313:446   */\n      swap3\n      swap2\n      pop\n      pop\n      jump\t// out\n        /* \"#utility.yul\":452:781   */\n    tag_43:\n        /* \"#utility.yul\":511:517   */\n      0x00\n        /* \"#utility.yul\":560:562   */\n      0x20\n        /* \"#utility.yul\":548:557   */\n      dup3\n        /* \"#utility.yul\":539:546   */\n      dup5\n        /* \"#utility.yul\":535:558   */\n      sub\n        /* \"#utility.yul\":531:563   */\n      slt\n        /* \"#utility.yul\":528:647   */\n      iszero\n      tag_87\n      jumpi\n        /* \"#utility.yul\":566:645   */\n      tag_88\n      tag_89\n      jump\t// in\n    tag_88:\n        /* \"#utility.yul\":528:647   */\n    tag_87:\n        /* \"#utility.yul\":686:687   */\n      0x00\n        /* \"#utility.yul\":711:764   */\n      tag_90\n        /* \"#utility.yul\":756:763   */\n      dup5\n        /* \"#utility.yul\":747:753   */\n      dup3\n        /* \"#utility.yul\":736:745   */\n      dup6\n        /* \"#utility.yul\":732:754   */\n      add\n        /* \"#utility.yul\":711:764   */\n      tag_74\n      jump\t// in\n    tag_90:\n        /* \"#utility.yul\":701:764   */\n      swap2\n      pop\n        /* \"#utility.yul\":657:774   */\n      pop\n        /* \"#utility.yul\":452:781   */\n      swap3\n      swap2\n      pop\n      pop\n      jump\t// out\n        /* \"#utility.yul\":787:1132   */\n    tag_14:\n        /* \"#utility.yul\":854:860   */\n      0x00\n        /* \"#utility.yul\":903:905   */\n      0x20\n        /* \"#utility.yul\":891:900   */\n      dup3\n        /* \"#utility.yul\":882:889   */\n      dup5\n        /* \"#utility.yul\":878:901   */\n      sub\n        /* \"#utility.yul\":874:906   */\n      slt\n        /* \"#utility.yul\":871:990   */\n      iszero\n      tag_92\n      jumpi\n        /* \"#utility.yul\":909:988   */\n      tag_93\n      tag_89\n      jump\t// in\n    tag_93:\n        /* \"#utility.yul\":871:990   */\n    tag_92:\n        /* \"#utility.yul\":1029:1030   */\n      0x00\n        /* \"#utility.yul\":1054:1115   */\n      tag_94\n        /* \"#utility.yul\":1107:1114   */\n      dup5\n        /* \"#utility.yul\":1098:1104   */\n      dup3\n        /* \"#utility.yul\":1087:1096   */\n      dup6\n        /* \"#utility.yul\":1083:1105   */\n      add\n        /* \"#utility.yul\":1054:1115   */\n      tag_78\n      jump\t// in\n    tag_94:\n        /* \"#utility.yul\":1044:1115   */\n      swap2\n      pop\n        /* \"#utility.yul\":1000:1125   */\n      pop\n        /* \"#utility.yul\":787:1132   */\n      swap3\n      swap2\n      pop\n      pop\n      jump\t// out\n        /* \"#utility.yul\":1138:1461   */\n    tag_19:\n        /* \"#utility.yul\":1194:1200   */\n      0x00\n        /* \"#utility.yul\":1243:1245   */\n      0x20\n        /* \"#utility.yul\":1231:1240   */\n      dup3\n        /* \"#utility.yul\":1222:1229   */\n      dup5\n        /* \"#utility.yul\":1218:1241   */\n      sub\n        /* \"#utility.yul\":1214:1246   */\n      slt\n        /* \"#utility.yul\":1211:1330   */\n      iszero\n      tag_96\n      jumpi\n        /* \"#utility.yul\":1249:1328   */\n      tag_97\n      tag_89\n      jump\t// in\n    tag_97:\n        /* \"#utility.yul\":1211:1330   */\n    tag_96:\n        /* \"#utility.yul\":1369:1370   */\n      0x00\n        /* \"#utility.yul\":1394:1444   */\n      tag_98\n        /* \"#utility.yul\":1436:1443   */\n      dup5\n        /* \"#utility.yul\":1427:1433   */\n      dup3\n        /* \"#utility.yul\":1416:1425   */\n      dup6\n        /* \"#utility.yul\":1412:1434   */\n      add\n        /* \"#utility.yul\":1394:1444   */\n      tag_82\n      jump\t// in\n    tag_98:\n        /* \"#utility.yul\":1384:1444   */\n      swap2\n      pop\n        /* \"#utility.yul\":1340:1454   */\n      pop\n        /* \"#utility.yul\":1138:1461   */\n      swap3\n      swap2\n      pop\n      pop\n      jump\t// out\n        /* \"#utility.yul\":1467:1585   */\n    tag_99:\n        /* \"#utility.yul\":1554:1578   */\n      tag_101\n        /* \"#utility.yul\":1572:1577   */\n      dup2\n        /* \"#utility.yul\":1554:1578   */\n      tag_102\n      jump\t// in\n    tag_101:\n        /* \"#utility.yul\":1549:1552   */\n      dup3\n        /* \"#utility.yul\":1542:1579   */\n      mstore\n        /* \"#utility.yul\":1467:1585   */\n      pop\n      pop\n      jump\t// out\n        /* \"#utility.yul\":1591:1700   */\n    tag_103:\n        /* \"#utility.yul\":1672:1693   */\n      tag_105\n        /* \"#utility.yul\":1687:1692   */\n      dup2\n        /* \"#utility.yul\":1672:1693   */\n      tag_106\n      jump\t// in\n    tag_105:\n        /* \"#utility.yul\":1667:1670   */\n      dup3\n        /* \"#utility.yul\":1660:1694   */\n      mstore\n        /* \"#utility.yul\":1591:1700   */\n      pop\n      pop\n      jump\t// out\n        /* \"#utility.yul\":1706:2072   */\n    tag_107:\n        /* \"#utility.yul\":1848:1851   */\n      0x00\n        /* \"#utility.yul\":1869:1936   */\n      tag_109\n        /* \"#utility.yul\":1933:1935   */\n      0x25\n        /* \"#utility.yul\":1928:1931   */\n      dup4\n        /* \"#utility.yul\":1869:1936   */\n      tag_110\n      jump\t// in\n    tag_109:\n        /* \"#utility.yul\":1862:1936   */\n      swap2\n      pop\n        /* \"#utility.yul\":1945:2038   */\n      tag_111\n        /* \"#utility.yul\":2034:2037   */\n      dup3\n        /* \"#utility.yul\":1945:2038   */\n      tag_112\n      jump\t// in\n    tag_111:\n        /* \"#utility.yul\":2063:2065   */\n      0x40\n        /* \"#utility.yul\":2058:2061   */\n      dup3\n        /* \"#utility.yul\":2054:2066   */\n      add\n        /* \"#utility.yul\":2047:2066   */\n      swap1\n      pop\n        /* \"#utility.yul\":1706:2072   */\n      swap2\n      swap1\n      pop\n      jump\t// out\n        /* \"#utility.yul\":2078:2444   */\n    tag_113:\n        /* \"#utility.yul\":2220:2223   */\n      0x00\n        /* \"#utility.yul\":2241:2308   */\n      tag_115\n        /* \"#utility.yul\":2305:2307   */\n      0x16\n        /* \"#utility.yul\":2300:2303   */\n      dup4\n        /* \"#utility.yul\":2241:2308   */\n      tag_110\n      jump\t// in\n    tag_115:\n        /* \"#utility.yul\":2234:2308   */\n      swap2\n      pop\n        /* \"#utility.yul\":2317:2410   */\n      tag_116\n        /* \"#utility.yul\":2406:2409   */\n      dup3\n        /* \"#utility.yul\":2317:2410   */\n      tag_117\n      jump\t// in\n    tag_116:\n        /* \"#utility.yul\":2435:2437   */\n      0x20\n        /* \"#utility.yul\":2430:2433   */\n      dup3\n        /* \"#utility.yul\":2426:2438   */\n      add\n        /* \"#utility.yul\":2419:2438   */\n      swap1\n      pop\n        /* \"#utility.yul\":2078:2444   */\n      swap2\n      swap1\n      pop\n      jump\t// out\n        /* \"#utility.yul\":2450:2816   */\n    tag_118:\n        /* \"#utility.yul\":2592:2595   */\n      0x00\n        /* \"#utility.yul\":2613:2680   */\n      tag_120\n        /* \"#utility.yul\":2677:2679   */\n      0x15\n        /* \"#utility.yul\":2672:2675   */\n      dup4\n        /* \"#utility.yul\":2613:2680   */\n      tag_110\n      jump\t// in\n    tag_120:\n        /* \"#utility.yul\":2606:2680   */\n      swap2\n      pop\n        /* \"#utility.yul\":2689:2782   */\n      tag_121\n        /* \"#utility.yul\":2778:2781   */\n      dup3\n        /* \"#utility.yul\":2689:2782   */\n      tag_122\n      jump\t// in\n    tag_121:\n        /* \"#utility.yul\":2807:2809   */\n      0x20\n        /* \"#utility.yul\":2802:2805   */\n      dup3\n        /* \"#utility.yul\":2798:2810   */\n      add\n        /* \"#utility.yul\":2791:2810   */\n      swap1\n      pop\n        /* \"#utility.yul\":2450:2816   */\n      swap2\n      swap1\n      pop\n      jump\t// out\n        /* \"#utility.yul\":2822:3188   */\n    tag_123:\n        /* \"#utility.yul\":2964:2967   */\n      0x00\n        /* \"#utility.yul\":2985:3052   */\n      tag_125\n        /* \"#utility.yul\":3049:3051   */\n      0x26\n        /* \"#utility.yul\":3044:3047   */\n      dup4\n        /* \"#utility.yul\":2985:3052   */\n      tag_110\n      jump\t// in\n    tag_125:\n        /* \"#utility.yul\":2978:3052   */\n      swap2\n      pop\n        /* \"#utility.yul\":3061:3154   */\n      tag_126\n        /* \"#utility.yul\":3150:3153   */\n      dup3\n        /* \"#utility.yul\":3061:3154   */\n      tag_127\n      jump\t// in\n    tag_126:\n        /* \"#utility.yul\":3179:3181   */\n      0x40\n        /* \"#utility.yul\":3174:3177   */\n      dup3\n        /* \"#utility.yul\":3170:3182   */\n      add\n        /* \"#utility.yul\":3163:3182   */\n      swap1\n      pop\n        /* \"#utility.yul\":2822:3188   */\n      swap2\n      swap1\n      pop\n      jump\t// out\n        /* \"#utility.yul\":3194:3560   */\n    tag_128:\n        /* \"#utility.yul\":3336:3339   */\n      0x00\n        /* \"#utility.yul\":3357:3424   */\n      tag_130\n        /* \"#utility.yul\":3421:3423   */\n      0x35\n        /* \"#utility.yul\":3416:3419   */\n      dup4\n        /* \"#utility.yul\":3357:3424   */\n      tag_110\n      jump\t// in\n    tag_130:\n        /* \"#utility.yul\":3350:3424   */\n      swap2\n      pop\n        /* \"#utility.yul\":3433:3526   */\n      tag_131\n        /* \"#utility.yul\":3522:3525   */\n      dup3\n        /* \"#utility.yul\":3433:3526   */\n      tag_132\n      jump\t// in\n    tag_131:\n        /* \"#utility.yul\":3551:3553   */\n      0x40\n        /* \"#utility.yul\":3546:3549   */\n      dup3\n        /* \"#utility.yul\":3542:3554   */\n      add\n        /* \"#utility.yul\":3535:3554   */\n      swap1\n      pop\n        /* \"#utility.yul\":3194:3560   */\n      swap2\n      swap1\n      pop\n      jump\t// out\n        /* \"#utility.yul\":3566:3684   */\n    tag_133:\n        /* \"#utility.yul\":3653:3677   */\n      tag_135\n        /* \"#utility.yul\":3671:3676   */\n      dup2\n        /* \"#utility.yul\":3653:3677   */\n      tag_136\n      jump\t// in\n    tag_135:\n        /* \"#utility.yul\":3648:3651   */\n      dup3\n        /* \"#utility.yul\":3641:3678   */\n      mstore\n        /* \"#utility.yul\":3566:3684   */\n      pop\n      pop\n      jump\t// out\n        /* \"#utility.yul\":3690:3912   */\n    tag_39:\n        /* \"#utility.yul\":3783:3787   */\n      0x00\n        /* \"#utility.yul\":3821:3823   */\n      0x20\n        /* \"#utility.yul\":3810:3819   */\n      dup3\n        /* \"#utility.yul\":3806:3824   */\n      add\n        /* \"#utility.yul\":3798:3824   */\n      swap1\n      pop\n        /* \"#utility.yul\":3834:3905   */\n      tag_138\n        /* \"#utility.yul\":3902:3903   */\n      0x00\n        /* \"#utility.yul\":3891:3900   */\n      dup4\n        /* \"#utility.yul\":3887:3904   */\n      add\n        /* \"#utility.yul\":3878:3884   */\n      dup5\n        /* \"#utility.yul\":3834:3905   */\n      tag_99\n      jump\t// in\n    tag_138:\n        /* \"#utility.yul\":3690:3912   */\n      swap3\n      swap2\n      pop\n      pop\n      jump\t// out\n        /* \"#utility.yul\":3918:4128   */\n    tag_34:\n        /* \"#utility.yul\":4005:4009   */\n      0x00\n        /* \"#utility.yul\":4043:4045   */\n      0x20\n        /* \"#utility.yul\":4032:4041   */\n      dup3\n        /* \"#utility.yul\":4028:4046   */\n      add\n        /* \"#utility.yul\":4020:4046   */\n      swap1\n      pop\n        /* \"#utility.yul\":4056:4121   */\n      tag_140\n        /* \"#utility.yul\":4118:4119   */\n      0x00\n        /* \"#utility.yul\":4107:4116   */\n      dup4\n        /* \"#utility.yul\":4103:4120   */\n      add\n        /* \"#utility.yul\":4094:4100   */\n      dup5\n        /* \"#utility.yul\":4056:4121   */\n      tag_103\n      jump\t// in\n    tag_140:\n        /* \"#utility.yul\":3918:4128   */\n      swap3\n      swap2\n      pop\n      pop\n      jump\t// out\n        /* \"#utility.yul\":4134:4553   */\n    tag_59:\n        /* \"#utility.yul\":4300:4304   */\n      0x00\n        /* \"#utility.yul\":4338:4340   */\n      0x20\n        /* \"#utility.yul\":4327:4336   */\n      dup3\n        /* \"#utility.yul\":4323:4341   */\n      add\n        /* \"#utility.yul\":4315:4341   */\n      swap1\n      pop\n        /* \"#utility.yul\":4387:4396   */\n      dup2\n        /* \"#utility.yul\":4381:4385   */\n      dup2\n        /* \"#utility.yul\":4377:4397   */\n      sub\n        /* \"#utility.yul\":4373:4374   */\n      0x00\n        /* \"#utility.yul\":4362:4371   */\n      dup4\n        /* \"#utility.yul\":4358:4375   */\n      add\n        /* \"#utility.yul\":4351:4398   */\n      mstore\n        /* \"#utility.yul\":4415:4546   */\n      tag_142\n        /* \"#utility.yul\":4541:4545   */\n      dup2\n        /* \"#utility.yul\":4415:4546   */\n      tag_107\n      jump\t// in\n    tag_142:\n        /* \"#utility.yul\":4407:4546   */\n      swap1\n      pop\n        /* \"#utility.yul\":4134:4553   */\n      swap2\n      swap1\n      pop\n      jump\t// out\n        /* \"#utility.yul\":4559:4978   */\n    tag_53:\n        /* \"#utility.yul\":4725:4729   */\n      0x00\n        /* \"#utility.yul\":4763:4765   */\n      0x20\n        /* \"#utility.yul\":4752:4761   */\n      dup3\n        /* \"#utility.yul\":4748:4766   */\n      add\n        /* \"#utility.yul\":4740:4766   */\n      swap1\n      pop\n        /* \"#utility.yul\":4812:4821   */\n      dup2\n        /* \"#utility.yul\":4806:4810   */\n      dup2\n        /* \"#utility.yul\":4802:4822   */\n      sub\n        /* \"#utility.yul\":4798:4799   */\n      0x00\n        /* \"#utility.yul\":4787:4796   */\n      dup4\n        /* \"#utility.yul\":4783:4800   */\n      add\n        /* \"#utility.yul\":4776:4823   */\n      mstore\n        /* \"#utility.yul\":4840:4971   */\n      tag_144\n        /* \"#utility.yul\":4966:4970   */\n      dup2\n        /* \"#utility.yul\":4840:4971   */\n      tag_113\n      jump\t// in\n    tag_144:\n        /* \"#utility.yul\":4832:4971   */\n      swap1\n      pop\n        /* \"#utility.yul\":4559:4978   */\n      swap2\n      swap1\n      pop\n      jump\t// out\n        /* \"#utility.yul\":4984:5403   */\n    tag_63:\n        /* \"#utility.yul\":5150:5154   */\n      0x00\n        /* \"#utility.yul\":5188:5190   */\n      0x20\n        /* \"#utility.yul\":5177:5186   */\n      dup3\n        /* \"#utility.yul\":5173:5191   */\n      add\n        /* \"#utility.yul\":5165:5191   */\n      swap1\n      pop\n        /* \"#utility.yul\":5237:5246   */\n      dup2\n        /* \"#utility.yul\":5231:5235   */\n      dup2\n        /* \"#utility.yul\":5227:5247   */\n      sub\n        /* \"#utility.yul\":5223:5224   */\n      0x00\n        /* \"#utility.yul\":5212:5221   */\n      dup4\n        /* \"#utility.yul\":5208:5225   */\n      add\n        /* \"#utility.yul\":5201:5248   */\n      mstore\n        /* \"#utility.yul\":5265:5396   */\n      tag_146\n        /* \"#utility.yul\":5391:5395   */\n      dup2\n        /* \"#utility.yul\":5265:5396   */\n      tag_118\n      jump\t// in\n    tag_146:\n        /* \"#utility.yul\":5257:5396   */\n      swap1\n      pop\n        /* \"#utility.yul\":4984:5403   */\n      swap2\n      swap1\n      pop\n      jump\t// out\n        /* \"#utility.yul\":5409:5828   */\n    tag_50:\n        /* \"#utility.yul\":5575:5579   */\n      0x00\n        /* \"#utility.yul\":5613:5615   */\n      0x20\n        /* \"#utility.yul\":5602:5611   */\n      dup3\n        /* \"#utility.yul\":5598:5616   */\n      add\n        /* \"#utility.yul\":5590:5616   */\n      swap1\n      pop\n        /* \"#utility.yul\":5662:5671   */\n      dup2\n        /* \"#utility.yul\":5656:5660   */\n      dup2\n        /* \"#utility.yul\":5652:5672   */\n      sub\n        /* \"#utility.yul\":5648:5649   */\n      0x00\n        /* \"#utility.yul\":5637:5646   */\n      dup4\n        /* \"#utility.yul\":5633:5650   */\n      add\n        /* \"#utility.yul\":5626:5673   */\n      mstore\n        /* \"#utility.yul\":5690:5821   */\n      tag_148\n        /* \"#utility.yul\":5816:5820   */\n      dup2\n        /* \"#utility.yul\":5690:5821   */\n      tag_123\n      jump\t// in\n    tag_148:\n        /* \"#utility.yul\":5682:5821   */\n      swap1\n      pop\n        /* \"#utility.yul\":5409:5828   */\n      swap2\n      swap1\n      pop\n      jump\t// out\n        /* \"#utility.yul\":5834:6253   */\n    tag_67:\n        /* \"#utility.yul\":6000:6004   */\n      0x00\n        /* \"#utility.yul\":6038:6040   */\n      0x20\n        /* \"#utility.yul\":6027:6036   */\n      dup3\n        /* \"#utility.yul\":6023:6041   */\n      add\n        /* \"#utility.yul\":6015:6041   */\n      swap1\n      pop\n        /* \"#utility.yul\":6087:6096   */\n      dup2\n        /* \"#utility.yul\":6081:6085   */\n      dup2\n        /* \"#utility.yul\":6077:6097   */\n      sub\n        /* \"#utility.yul\":6073:6074   */\n      0x00\n        /* \"#utility.yul\":6062:6071   */\n      dup4\n        /* \"#utility.yul\":6058:6075   */\n      add\n        /* \"#utility.yul\":6051:6098   */\n      mstore\n        /* \"#utility.yul\":6115:6246   */\n      tag_150\n        /* \"#utility.yul\":6241:6245   */\n      dup2\n        /* \"#utility.yul\":6115:6246   */\n      tag_128\n      jump\t// in\n    tag_150:\n        /* \"#utility.yul\":6107:6246   */\n      swap1\n      pop\n        /* \"#utility.yul\":5834:6253   */\n      swap2\n      swap1\n      pop\n      jump\t// out\n        /* \"#utility.yul\":6259:6481   */\n    tag_25:\n        /* \"#utility.yul\":6352:6356   */\n      0x00\n        /* \"#utility.yul\":6390:6392   */\n      0x20\n        /* \"#utility.yul\":6379:6388   */\n      dup3\n        /* \"#utility.yul\":6375:6393   */\n      add\n        /* \"#utility.yul\":6367:6393   */\n      swap1\n      pop\n        /* \"#utility.yul\":6403:6474   */\n      tag_152\n        /* \"#utility.yul\":6471:6472   */\n      0x00\n        /* \"#utility.yul\":6460:6469   */\n      dup4\n        /* \"#utility.yul\":6456:6473   */\n      add\n        /* \"#utility.yul\":6447:6453   */\n      dup5\n        /* \"#utility.yul\":6403:6474   */\n      tag_133\n      jump\t// in\n    tag_152:\n        /* \"#utility.yul\":6259:6481   */\n      swap3\n      swap2\n      pop\n      pop\n      jump\t// out\n        /* \"#utility.yul\":6568:6737   */\n    tag_110:\n        /* \"#utility.yul\":6652:6663   */\n      0x00\n        /* \"#utility.yul\":6686:6692   */\n      dup3\n        /* \"#utility.yul\":6681:6684   */\n      dup3\n        /* \"#utility.yul\":6674:6693   */\n      mstore\n        /* \"#utility.yul\":6726:6730   */\n      0x20\n        /* \"#utility.yul\":6721:6724   */\n      dup3\n        /* \"#utility.yul\":6717:6731   */\n      add\n        /* \"#utility.yul\":6702:6731   */\n      swap1\n      pop\n        /* \"#utility.yul\":6568:6737   */\n      swap3\n      swap2\n      pop\n      pop\n      jump\t// out\n        /* \"#utility.yul\":6743:7048   */\n    tag_72:\n        /* \"#utility.yul\":6783:6786   */\n      0x00\n        /* \"#utility.yul\":6802:6822   */\n      tag_157\n        /* \"#utility.yul\":6820:6821   */\n      dup3\n        /* \"#utility.yul\":6802:6822   */\n      tag_136\n      jump\t// in\n    tag_157:\n        /* \"#utility.yul\":6797:6822   */\n      swap2\n      pop\n        /* \"#utility.yul\":6836:6856   */\n      tag_158\n        /* \"#utility.yul\":6854:6855   */\n      dup4\n        /* \"#utility.yul\":6836:6856   */\n      tag_136\n      jump\t// in\n    tag_158:\n        /* \"#utility.yul\":6831:6856   */\n      swap3\n      pop\n        /* \"#utility.yul\":6990:6991   */\n      dup3\n        /* \"#utility.yul\":6922:6988   */\n      0xffffffffffffffffffffffffffffffffffffffffffffffffffffffffffffffff\n        /* \"#utility.yul\":6918:6992   */\n      sub\n        /* \"#utility.yul\":6915:6916   */\n      dup3\n        /* \"#utility.yul\":6912:6993   */\n      gt\n        /* \"#utility.yul\":6909:7016   */\n      iszero\n      tag_159\n      jumpi\n        /* \"#utility.yul\":6996:7014   */\n      tag_160\n      tag_161\n      jump\t// in\n    tag_160:\n        /* \"#utility.yul\":6909:7016   */\n    tag_159:\n        /* \"#utility.yul\":7040:7041   */\n      dup3\n        /* \"#utility.yul\":7037:7038   */\n      dup3\n        /* \"#utility.yul\":7033:7042   */\n      add\n        /* \"#utility.yul\":7026:7042   */\n      swap1\n      pop\n        /* \"#utility.yul\":6743:7048   */\n      swap3\n      swap2\n      pop\n      pop\n      jump\t// out\n        /* \"#utility.yul\":7054:7150   */\n    tag_102:\n        /* \"#utility.yul\":7091:7098   */\n      0x00\n        /* \"#utility.yul\":7120:7144   */\n      tag_163\n        /* \"#utility.yul\":7138:7143   */\n      dup3\n        /* \"#utility.yul\":7120:7144   */\n      tag_164\n      jump\t// in\n    tag_163:\n        /* \"#utility.yul\":7109:7144   */\n      swap1\n      pop\n        /* \"#utility.yul\":7054:7150   */\n      swap2\n      swap1\n      pop\n      jump\t// out\n        /* \"#utility.yul\":7156:7260   */\n    tag_165:\n        /* \"#utility.yul\":7201:7208   */\n      0x00\n        /* \"#utility.yul\":7230:7254   */\n      tag_167\n        /* \"#utility.yul\":7248:7253   */\n      dup3\n        /* \"#utility.yul\":7230:7254   */\n      tag_164\n      jump\t// in\n    tag_167:\n        /* \"#utility.yul\":7219:7254   */\n      swap1\n      pop\n        /* \"#utility.yul\":7156:7260   */\n      swap2\n      swap1\n      pop\n      jump\t// out\n        /* \"#utility.yul\":7266:7356   */\n    tag_106:\n        /* \"#utility.yul\":7300:7307   */\n      0x00\n        /* \"#utility.yul\":7343:7348   */\n      dup2\n        /* \"#utility.yul\":7336:7349   */\n      iszero\n        /* \"#utility.yul\":7329:7350   */\n      iszero\n        /* \"#utility.yul\":7318:7350   */\n      swap1\n      pop\n        /* \"#utility.yul\":7266:7356   */\n      swap2\n      swap1\n      pop\n      jump\t// out\n        /* \"#utility.yul\":7362:7488   */\n    tag_164:\n        /* \"#utility.yul\":7399:7406   */\n      0x00\n        /* \"#utility.yul\":7439:7481   */\n      0xffffffffffffffffffffffffffffffffffffffff\n        /* \"#utility.yul\":7432:7437   */\n      dup3\n        /* \"#utility.yul\":7428:7482   */\n      and\n        /* \"#utility.yul\":7417:7482   */\n      swap1\n      pop\n        /* \"#utility.yul\":7362:7488   */\n      swap2\n      swap1\n      pop\n      jump\t// out\n        /* \"#utility.yul\":7494:7571   */\n    tag_136:\n        /* \"#utility.yul\":7531:7538   */\n      0x00\n        /* \"#utility.yul\":7560:7565   */\n      dup2\n        /* \"#utility.yul\":7549:7565   */\n      swap1\n      pop\n        /* \"#utility.yul\":7494:7571   */\n      swap2\n      swap1\n      pop\n      jump\t// out\n        /* \"#utility.yul\":7577:7757   */\n    tag_161:\n        /* \"#utility.yul\":7625:7702   */\n      0x4e487b7100000000000000000000000000000000000000000000000000000000\n        /* \"#utility.yul\":7622:7623   */\n      0x00\n        /* \"#utility.yul\":7615:7703   */\n      mstore\n        /* \"#utility.yul\":7722:7726   */\n      0x11\n        /* \"#utility.yul\":7719:7720   */\n      0x04\n        /* \"#utility.yul\":7712:7727   */\n      mstore\n        /* \"#utility.yul\":7746:7750   */\n      0x24\n        /* \"#utility.yul\":7743:7744   */\n      0x00\n        /* \"#utility.yul\":7736:7751   */\n      revert\n        /* \"#utility.yul\":7886:8003   */\n    tag_89:\n        /* \"#utility.yul\":7995:7996   */\n      0x00\n        /* \"#utility.yul\":7992:7993   */\n      dup1\n        /* \"#utility.yul\":7985:7997   */\n      revert\n        /* \"#utility.yul\":8009:8233   */\n    tag_112:\n        /* \"#utility.yul\":8149:8183   */\n      0x4f6e6c7920746865206f776e65722063616e2070617573652074686520636f6e\n        /* \"#utility.yul\":8145:8146   */\n      0x00\n        /* \"#utility.yul\":8137:8143   */\n      dup3\n        /* \"#utility.yul\":8133:8147   */\n      add\n        /* \"#utility.yul\":8126:8184   */\n      mstore\n        /* \"#utility.yul\":8218:8225   */\n      0x7472616374000000000000000000000000000000000000000000000000000000\n        /* \"#utility.yul\":8213:8215   */\n      0x20\n        /* \"#utility.yul\":8205:8211   */\n      dup3\n        /* \"#utility.yul\":8201:8216   */\n      add\n        /* \"#utility.yul\":8194:8226   */\n      mstore\n        /* \"#utility.yul\":8009:8233   */\n      pop\n      jump\t// out\n        /* \"#utility.yul\":8239:8411   */\n    tag_117:\n        /* \"#utility.yul\":8379:8403   */\n      0x54686520636f6e74726163742069732070617573656400000000000000000000\n        /* \"#utility.yul\":8375:8376   */\n      0x00\n        /* \"#utility.yul\":8367:8373   */\n      dup3\n        /* \"#utility.yul\":8363:8377   */\n      add\n        /* \"#utility.yul\":8356:8404   */\n      mstore\n        /* \"#utility.yul\":8239:8411   */\n      pop\n      jump\t// out\n        /* \"#utility.yul\":8417:8588   */\n    tag_122:\n        /* \"#utility.yul\":8557:8580   */\n      0x596f7520617265206e6f7420746865206f776e65720000000000000000000000\n        /* \"#utility.yul\":8553:8554   */\n      0x00\n        /* \"#utility.yul\":8545:8551   */\n      dup3\n        /* \"#utility.yul\":8541:8555   */\n      add\n        /* \"#utility.yul\":8534:8581   */\n      mstore\n        /* \"#utility.yul\":8417:8588   */\n      pop\n      jump\t// out\n        /* \"#utility.yul\":8594:8819   */\n    tag_127:\n        /* \"#utility.yul\":8734:8768   */\n      0x4f6e6c7920746865206f776e65722063616e20696e6974696174652077697468\n        /* \"#utility.yul\":8730:8731   */\n      0x00\n        /* \"#utility.yul\":8722:8728   */\n      dup3\n        /* \"#utility.yul\":8718:8732   */\n      add\n        /* \"#utility.yul\":8711:8769   */\n      mstore\n        /* \"#utility.yul\":8803:8811   */\n      0x64726177616c0000000000000000000000000000000000000000000000000000\n        /* \"#utility.yul\":8798:8800   */\n      0x20\n        /* \"#utility.yul\":8790:8796   */\n      dup3\n        /* \"#utility.yul\":8786:8801   */\n      add\n        /* \"#utility.yul\":8779:8812   */\n      mstore\n        /* \"#utility.yul\":8594:8819   */\n      pop\n      jump\t// out\n        /* \"#utility.yul\":8825:9065   */\n    tag_132:\n        /* \"#utility.yul\":8965:8999   */\n      0x4f6e6c7920746865206f776e65722063616e206368616e67652074686520636f\n        /* \"#utility.yul\":8961:8962   */\n      0x00\n        /* \"#utility.yul\":8953:8959   */\n      dup3\n        /* \"#utility.yul\":8949:8963   */\n      add\n        /* \"#utility.yul\":8942:9000   */\n      mstore\n        /* \"#utility.yul\":9034:9057   */\n      0x6e747261637420746f2061206e6577206f776e65720000000000000000000000\n        /* \"#utility.yul\":9029:9031   */\n      0x20\n        /* \"#utility.yul\":9021:9027   */\n      dup3\n        /* \"#utility.yul\":9017:9032   */\n      add\n        /* \"#utility.yul\":9010:9058   */\n      mstore\n        /* \"#utility.yul\":8825:9065   */\n      pop\n      jump\t// out\n        /* \"#utility.yul\":9071:9193   */\n    tag_77:\n        /* \"#utility.yul\":9144:9168   */\n      tag_181\n        /* \"#utility.yul\":9162:9167   */\n      dup2\n        /* \"#utility.yul\":9144:9168   */\n      tag_102\n      jump\t// in\n    tag_181:\n        /* \"#utility.yul\":9137:9142   */\n      dup2\n        /* \"#utility.yul\":9134:9169   */\n      eq\n        /* \"#utility.yul\":9124:9187   */\n      tag_182\n      jumpi\n        /* \"#utility.yul\":9183:9184   */\n      0x00\n        /* \"#utility.yul\":9180:9181   */\n      dup1\n        /* \"#utility.yul\":9173:9185   */\n      revert\n        /* \"#utility.yul\":9124:9187   */\n    tag_182:\n        /* \"#utility.yul\":9071:9193   */\n      pop\n      jump\t// out\n        /* \"#utility.yul\":9199:9337   */\n    tag_81:\n        /* \"#utility.yul\":9280:9312   */\n      tag_184\n        /* \"#utility.yul\":9306:9311   */\n      dup2\n        /* \"#utility.yul\":9280:9312   */\n      tag_165\n      jump\t// in\n    tag_184:\n        /* \"#utility.yul\":9273:9278   */\n      dup2\n        /* \"#utility.yul\":9270:9313   */\n      eq\n        /* \"#utility.yul\":9260:9331   */\n      tag_185\n      jumpi\n        /* \"#utility.yul\":9327:9328   */\n      0x00\n        /* \"#utility.yul\":9324:9325   */\n      dup1\n        /* \"#utility.yul\":9317:9329   */\n      revert\n        /* \"#utility.yul\":9260:9331   */\n    tag_185:\n        /* \"#utility.yul\":9199:9337   */\n      pop\n      jump\t// out\n        /* \"#utility.yul\":9343:9459   */\n    tag_85:\n        /* \"#utility.yul\":9413:9434   */\n      tag_187\n        /* \"#utility.yul\":9428:9433   */\n      dup2\n        /* \"#utility.yul\":9413:9434   */\n      tag_106\n      jump\t// in\n    tag_187:\n        /* \"#utility.yul\":9406:9411   */\n      dup2\n        /* \"#utility.yul\":9403:9435   */\n      eq\n        /* \"#utility.yul\":9393:9453   */\n      tag_188\n      jumpi\n        /* \"#utility.yul\":9449:9450   */\n      0x00\n        /* \"#utility.yul\":9446:9447   */\n      dup1\n        /* \"#utility.yul\":9439:9451   */\n      revert\n        /* \"#utility.yul\":9393:9453   */\n    tag_188:\n        /* \"#utility.yul\":9343:9459   */\n      pop\n      jump\t// out\n\n    auxdata: 0xa2646970667358221220988259dce1888ab3d5a9515732a51bf4d55d975c6cebc6191d40f6231e35776664736f6c63430008070033\n}\n",
				"bytecode": {
					"linkReferences": {},
					"object": "608060405234801561001057600080fd5b50336000806101000a81548173ffffffffffffffffffffffffffffffffffffffff021916908373ffffffffffffffffffffffffffffffffffffffff160217905550610ab0806100606000396000f3fe60806040526004361061007b5760003560e01c80635c975abb1161004e5780635c975abb146101265780638da5cb5b14610151578063bc48fdad1461017c578063cbedbf5a146101a55761007b565b80630adec93c1461008057806316c38b3c146100a95780632b6dcd77146100d257806339df43ff146100fd575b600080fd5b34801561008c57600080fd5b506100a760048036038101906100a291906105da565b6101af565b005b3480156100b557600080fd5b506100d060048036038101906100cb9190610607565b6102d7565b005b3480156100de57600080fd5b506100e7610382565b6040516100f491906107e6565b60405180910390f35b34801561010957600080fd5b50610124600480360381019061011f91906105da565b610388565b005b34801561013257600080fd5b5061013b61042f565b604051610148919061072b565b60405180910390f35b34801561015d57600080fd5b50610166610442565b6040516101739190610710565b60405180910390f35b34801561018857600080fd5b506101a3600480360381019061019e91906105ad565b610466565b005b6101ad610553565b005b3373ffffffffffffffffffffffffffffffffffffffff1660008054906101000a900473ffffffffffffffffffffffffffffffffffffffff1673ffffffffffffffffffffffffffffffffffffffff161461023d576040517f08c379a0000000000000000000000000000000000000000000000000000000008152600401610234906107a6565b60405180910390fd5b600260009054906101000a900460ff161561028d576040517f08c379a000000000000000000000000000000000000000000000000000000000815260040161028490610766565b60405180910390fd5b8073ffffffffffffffffffffffffffffffffffffffff166108fc479081150290604051600060405180830381858888f193505050501580156102d3573d6000803e3d6000fd5b5050565b60008054906101000a900473ffffffffffffffffffffffffffffffffffffffff1673ffffffffffffffffffffffffffffffffffffffff163373ffffffffffffffffffffffffffffffffffffffff1614610365576040517f08c379a000000000000000000000000000000000000000000000000000000000815260040161035c90610746565b60405180910390fd5b80600260006101000a81548160ff02191690831515021790555050565b60015481565b60008054906101000a900473ffffffffffffffffffffffffffffffffffffffff1673ffffffffffffffffffffffffffffffffffffffff163373ffffffffffffffffffffffffffffffffffffffff1614610416576040517f08c379a000000000000000000000000000000000000000000000000000000000815260040161040d90610786565b60405180910390fd5b8073ffffffffffffffffffffffffffffffffffffffff16ff5b600260009054906101000a900460ff1681565b60008054906101000a900473ffffffffffffffffffffffffffffffffffffffff1681565b3373ffffffffffffffffffffffffffffffffffffffff1660008054906101000a900473ffffffffffffffffffffffffffffffffffffffff1673ffffffffffffffffffffffffffffffffffffffff16146104f4576040517f08c379a00000000000000000000000000000000000000000000000000000000081526004016104eb906107c6565b60405180910390fd5b600260009054906101000a900460ff1615610544576040517f08c379a000000000000000000000000000000000000000000000000000000000815260040161053b90610766565b60405180910390fd5b60008054906101000a90505050565b34600160008282546105659190610812565b92505081905550565b60008135905061057d81610a35565b92915050565b60008135905061059281610a4c565b92915050565b6000813590506105a781610a63565b92915050565b6000602082840312156105c3576105c26108f1565b5b60006105d18482850161056e565b91505092915050565b6000602082840312156105f0576105ef6108f1565b5b60006105fe84828501610583565b91505092915050565b60006020828403121561061d5761061c6108f1565b5b600061062b84828501610598565b91505092915050565b61063d81610868565b82525050565b61064c8161088c565b82525050565b600061065f602583610801565b915061066a826108f6565b604082019050919050565b6000610682601683610801565b915061068d82610945565b602082019050919050565b60006106a5601583610801565b91506106b08261096e565b602082019050919050565b60006106c8602683610801565b91506106d382610997565b604082019050919050565b60006106eb603583610801565b91506106f6826109e6565b604082019050919050565b61070a816108b8565b82525050565b60006020820190506107256000830184610634565b92915050565b60006020820190506107406000830184610643565b92915050565b6000602082019050818103600083015261075f81610652565b9050919050565b6000602082019050818103600083015261077f81610675565b9050919050565b6000602082019050818103600083015261079f81610698565b9050919050565b600060208201905081810360008301526107bf816106bb565b9050919050565b600060208201905081810360008301526107df816106de565b9050919050565b60006020820190506107fb6000830184610701565b92915050565b600082825260208201905092915050565b600061081d826108b8565b9150610828836108b8565b9250827fffffffffffffffffffffffffffffffffffffffffffffffffffffffffffffffff0382111561085d5761085c6108c2565b5b828201905092915050565b600061087382610898565b9050919050565b600061088582610898565b9050919050565b60008115159050919050565b600073ffffffffffffffffffffffffffffffffffffffff82169050919050565b6000819050919050565b7f4e487b7100000000000000000000000000000000000000000000000000000000600052601160045260246000fd5b600080fd5b7f4f6e6c7920746865206f776e65722063616e2070617573652074686520636f6e60008201527f7472616374000000000000000000000000000000000000000000000000000000602082015250565b7f54686520636f6e74726163742069732070617573656400000000000000000000600082015250565b7f596f7520617265206e6f7420746865206f776e65720000000000000000000000600082015250565b7f4f6e6c7920746865206f776e65722063616e20696e697469617465207769746860008201527f64726177616c0000000000000000000000000000000000000000000000000000602082015250565b7f4f6e6c7920746865206f776e65722063616e206368616e67652074686520636f60008201527f6e747261637420746f2061206e6577206f776e65720000000000000000000000602082015250565b610a3e81610868565b8114610a4957600080fd5b50565b610a558161087a565b8114610a6057600080fd5b50565b610a6c8161088c565b8114610a7757600080fd5b5056fea2646970667358221220988259dce1888ab3d5a9515732a51bf4d55d975c6cebc6191d40f6231e35776664736f6c63430008070033",
					"opcodes": "PUSH1 0x80 PUSH1 0x40 MSTORE CALLVALUE DUP1 ISZERO PUSH2 0x10 JUMPI PUSH1 0x0 DUP1 REVERT JUMPDEST POP CALLER PUSH1 0x0 DUP1 PUSH2 0x100 EXP DUP2 SLOAD DUP2 PUSH20 0xFFFFFFFFFFFFFFFFFFFFFFFFFFFFFFFFFFFFFFFF MUL NOT AND SWAP1 DUP4 PUSH20 0xFFFFFFFFFFFFFFFFFFFFFFFFFFFFFFFFFFFFFFFF AND MUL OR SWAP1 SSTORE POP PUSH2 0xAB0 DUP1 PUSH2 0x60 PUSH1 0x0 CODECOPY PUSH1 0x0 RETURN INVALID PUSH1 0x80 PUSH1 0x40 MSTORE PUSH1 0x4 CALLDATASIZE LT PUSH2 0x7B JUMPI PUSH1 0x0 CALLDATALOAD PUSH1 0xE0 SHR DUP1 PUSH4 0x5C975ABB GT PUSH2 0x4E JUMPI DUP1 PUSH4 0x5C975ABB EQ PUSH2 0x126 JUMPI DUP1 PUSH4 0x8DA5CB5B EQ PUSH2 0x151 JUMPI DUP1 PUSH4 0xBC48FDAD EQ PUSH2 0x17C JUMPI DUP1 PUSH4 0xCBEDBF5A EQ PUSH2 0x1A5 JUMPI PUSH2 0x7B JUMP JUMPDEST DUP1 PUSH4 0xADEC93C EQ PUSH2 0x80 JUMPI DUP1 PUSH4 0x16C38B3C EQ PUSH2 0xA9 JUMPI DUP1 PUSH4 0x2B6DCD77 EQ PUSH2 0xD2 JUMPI DUP1 PUSH4 0x39DF43FF EQ PUSH2 0xFD JUMPI JUMPDEST PUSH1 0x0 DUP1 REVERT JUMPDEST CALLVALUE DUP1 ISZERO PUSH2 0x8C JUMPI PUSH1 0x0 DUP1 REVERT JUMPDEST POP PUSH2 0xA7 PUSH1 0x4 DUP1 CALLDATASIZE SUB DUP2 ADD SWAP1 PUSH2 0xA2 SWAP2 SWAP1 PUSH2 0x5DA JUMP JUMPDEST PUSH2 0x1AF JUMP JUMPDEST STOP JUMPDEST CALLVALUE DUP1 ISZERO PUSH2 0xB5 JUMPI PUSH1 0x0 DUP1 REVERT JUMPDEST POP PUSH2 0xD0 PUSH1 0x4 DUP1 CALLDATASIZE SUB DUP2 ADD SWAP1 PUSH2 0xCB SWAP2 SWAP1 PUSH2 0x607 JUMP JUMPDEST PUSH2 0x2D7 JUMP JUMPDEST STOP JUMPDEST CALLVALUE DUP1 ISZERO PUSH2 0xDE JUMPI PUSH1 0x0 DUP1 REVERT JUMPDEST POP PUSH2 0xE7 PUSH2 0x382 JUMP JUMPDEST PUSH1 0x40 MLOAD PUSH2 0xF4 SWAP2 SWAP1 PUSH2 0x7E6 JUMP JUMPDEST PUSH1 0x40 MLOAD DUP1 SWAP2 SUB SWAP1 RETURN JUMPDEST CALLVALUE DUP1 ISZERO PUSH2 0x109 JUMPI PUSH1 0x0 DUP1 REVERT JUMPDEST POP PUSH2 0x124 PUSH1 0x4 DUP1 CALLDATASIZE SUB DUP2 ADD SWAP1 PUSH2 0x11F SWAP2 SWAP1 PUSH2 0x5DA JUMP JUMPDEST PUSH2 0x388 JUMP JUMPDEST STOP JUMPDEST CALLVALUE DUP1 ISZERO PUSH2 0x132 JUMPI PUSH1 0x0 DUP1 REVERT JUMPDEST POP PUSH2 0x13B PUSH2 0x42F JUMP JUMPDEST PUSH1 0x40 MLOAD PUSH2 0x148 SWAP2 SWAP1 PUSH2 0x72B JUMP JUMPDEST PUSH1 0x40 MLOAD DUP1 SWAP2 SUB SWAP1 RETURN JUMPDEST CALLVALUE DUP1 ISZERO PUSH2 0x15D JUMPI PUSH1 0x0 DUP1 REVERT JUMPDEST POP PUSH2 0x166 PUSH2 0x442 JUMP JUMPDEST PUSH1 0x40 MLOAD PUSH2 0x173 SWAP2 SWAP1 PUSH2 0x710 JUMP JUMPDEST PUSH1 0x40 MLOAD DUP1 SWAP2 SUB SWAP1 RETURN JUMPDEST CALLVALUE DUP1 ISZERO PUSH2 0x188 JUMPI PUSH1 0x0 DUP1 REVERT JUMPDEST POP PUSH2 0x1A3 PUSH1 0x4 DUP1 CALLDATASIZE SUB DUP2 ADD SWAP1 PUSH2 0x19E SWAP2 SWAP1 PUSH2 0x5AD JUMP JUMPDEST PUSH2 0x466 JUMP JUMPDEST STOP JUMPDEST PUSH2 0x1AD PUSH2 0x553 JUMP JUMPDEST STOP JUMPDEST CALLER PUSH20 0xFFFFFFFFFFFFFFFFFFFFFFFFFFFFFFFFFFFFFFFF AND PUSH1 0x0 DUP1 SLOAD SWAP1 PUSH2 0x100 EXP SWAP1 DIV PUSH20 0xFFFFFFFFFFFFFFFFFFFFFFFFFFFFFFFFFFFFFFFF AND PUSH20 0xFFFFFFFFFFFFFFFFFFFFFFFFFFFFFFFFFFFFFFFF AND EQ PUSH2 0x23D JUMPI PUSH1 0x40 MLOAD PUSH32 0x8C379A000000000000000000000000000000000000000000000000000000000 DUP2 MSTORE PUSH1 0x4 ADD PUSH2 0x234 SWAP1 PUSH2 0x7A6 JUMP JUMPDEST PUSH1 0x40 MLOAD DUP1 SWAP2 SUB SWAP1 REVERT JUMPDEST PUSH1 0x2 PUSH1 0x0 SWAP1 SLOAD SWAP1 PUSH2 0x100 EXP SWAP1 DIV PUSH1 0xFF AND ISZERO PUSH2 0x28D JUMPI PUSH1 0x40 MLOAD PUSH32 0x8C379A000000000000000000000000000000000000000000000000000000000 DUP2 MSTORE PUSH1 0x4 ADD PUSH2 0x284 SWAP1 PUSH2 0x766 JUMP JUMPDEST PUSH1 0x40 MLOAD DUP1 SWAP2 SUB SWAP1 REVERT JUMPDEST DUP1 PUSH20 0xFFFFFFFFFFFFFFFFFFFFFFFFFFFFFFFFFFFFFFFF AND PUSH2 0x8FC SELFBALANCE SWAP1 DUP2 ISZERO MUL SWAP1 PUSH1 0x40 MLOAD PUSH1 0x0 PUSH1 0x40 MLOAD DUP1 DUP4 SUB DUP2 DUP6 DUP9 DUP9 CALL SWAP4 POP POP POP POP ISZERO DUP1 ISZERO PUSH2 0x2D3 JUMPI RETURNDATASIZE PUSH1 0x0 DUP1 RETURNDATACOPY RETURNDATASIZE PUSH1 0x0 REVERT JUMPDEST POP POP JUMP JUMPDEST PUSH1 0x0 DUP1 SLOAD SWAP1 PUSH2 0x100 EXP SWAP1 DIV PUSH20 0xFFFFFFFFFFFFFFFFFFFFFFFFFFFFFFFFFFFFFFFF AND PUSH20 0xFFFFFFFFFFFFFFFFFFFFFFFFFFFFFFFFFFFFFFFF AND CALLER PUSH20 0xFFFFFFFFFFFFFFFFFFFFFFFFFFFFFFFFFFFFFFFF AND EQ PUSH2 0x365 JUMPI PUSH1 0x40 MLOAD PUSH32 0x8C379A000000000000000000000000000000000000000000000000000000000 DUP2 MSTORE PUSH1 0x4 ADD PUSH2 0x35C SWAP1 PUSH2 0x746 JUMP JUMPDEST PUSH1 0x40 MLOAD DUP1 SWAP2 SUB SWAP1 REVERT JUMPDEST DUP1 PUSH1 0x2 PUSH1 0x0 PUSH2 0x100 EXP DUP2 SLOAD DUP2 PUSH1 0xFF MUL NOT AND SWAP1 DUP4 ISZERO ISZERO MUL OR SWAP1 SSTORE POP POP JUMP JUMPDEST PUSH1 0x1 SLOAD DUP2 JUMP JUMPDEST PUSH1 0x0 DUP1 SLOAD SWAP1 PUSH2 0x100 EXP SWAP1 DIV PUSH20 0xFFFFFFFFFFFFFFFFFFFFFFFFFFFFFFFFFFFFFFFF AND PUSH20 0xFFFFFFFFFFFFFFFFFFFFFFFFFFFFFFFFFFFFFFFF AND CALLER PUSH20 0xFFFFFFFFFFFFFFFFFFFFFFFFFFFFFFFFFFFFFFFF AND EQ PUSH2 0x416 JUMPI PUSH1 0x40 MLOAD PUSH32 0x8C379A000000000000000000000000000000000000000000000000000000000 DUP2 MSTORE PUSH1 0x4 ADD PUSH2 0x40D SWAP1 PUSH2 0x786 JUMP JUMPDEST PUSH1 0x40 MLOAD DUP1 SWAP2 SUB SWAP1 REVERT JUMPDEST DUP1 PUSH20 0xFFFFFFFFFFFFFFFFFFFFFFFFFFFFFFFFFFFFFFFF AND SELFDESTRUCT JUMPDEST PUSH1 0x2 PUSH1 0x0 SWAP1 SLOAD SWAP1 PUSH2 0x100 EXP SWAP1 DIV PUSH1 0xFF AND DUP2 JUMP JUMPDEST PUSH1 0x0 DUP1 SLOAD SWAP1 PUSH2 0x100 EXP SWAP1 DIV PUSH20 0xFFFFFFFFFFFFFFFFFFFFFFFFFFFFFFFFFFFFFFFF AND DUP2 JUMP JUMPDEST CALLER PUSH20 0xFFFFFFFFFFFFFFFFFFFFFFFFFFFFFFFFFFFFFFFF AND PUSH1 0x0 DUP1 SLOAD SWAP1 PUSH2 0x100 EXP SWAP1 DIV PUSH20 0xFFFFFFFFFFFFFFFFFFFFFFFFFFFFFFFFFFFFFFFF AND PUSH20 0xFFFFFFFFFFFFFFFFFFFFFFFFFFFFFFFFFFFFFFFF AND EQ PUSH2 0x4F4 JUMPI PUSH1 0x40 MLOAD PUSH32 0x8C379A000000000000000000000000000000000000000000000000000000000 DUP2 MSTORE PUSH1 0x4 ADD PUSH2 0x4EB SWAP1 PUSH2 0x7C6 JUMP JUMPDEST PUSH1 0x40 MLOAD DUP1 SWAP2 SUB SWAP1 REVERT JUMPDEST PUSH1 0x2 PUSH1 0x0 SWAP1 SLOAD SWAP1 PUSH2 0x100 EXP SWAP1 DIV PUSH1 0xFF AND ISZERO PUSH2 0x544 JUMPI PUSH1 0x40 MLOAD PUSH32 0x8C379A000000000000000000000000000000000000000000000000000000000 DUP2 MSTORE PUSH1 0x4 ADD PUSH2 0x53B SWAP1 PUSH2 0x766 JUMP JUMPDEST PUSH1 0x40 MLOAD DUP1 SWAP2 SUB SWAP1 REVERT JUMPDEST PUSH1 0x0 DUP1 SLOAD SWAP1 PUSH2 0x100 EXP SWAP1 POP POP POP JUMP JUMPDEST CALLVALUE PUSH1 0x1 PUSH1 0x0 DUP3 DUP3 SLOAD PUSH2 0x565 SWAP2 SWAP1 PUSH2 0x812 JUMP JUMPDEST SWAP3 POP POP DUP2 SWAP1 SSTORE POP JUMP JUMPDEST PUSH1 0x0 DUP2 CALLDATALOAD SWAP1 POP PUSH2 0x57D DUP2 PUSH2 0xA35 JUMP JUMPDEST SWAP3 SWAP2 POP POP JUMP JUMPDEST PUSH1 0x0 DUP2 CALLDATALOAD SWAP1 POP PUSH2 0x592 DUP2 PUSH2 0xA4C JUMP JUMPDEST SWAP3 SWAP2 POP POP JUMP JUMPDEST PUSH1 0x0 DUP2 CALLDATALOAD SWAP1 POP PUSH2 0x5A7 DUP2 PUSH2 0xA63 JUMP JUMPDEST SWAP3 SWAP2 POP POP JUMP JUMPDEST PUSH1 0x0 PUSH1 0x20 DUP3 DUP5 SUB SLT ISZERO PUSH2 0x5C3 JUMPI PUSH2 0x5C2 PUSH2 0x8F1 JUMP JUMPDEST JUMPDEST PUSH1 0x0 PUSH2 0x5D1 DUP5 DUP3 DUP6 ADD PUSH2 0x56E JUMP JUMPDEST SWAP2 POP POP SWAP3 SWAP2 POP POP JUMP JUMPDEST PUSH1 0x0 PUSH1 0x20 DUP3 DUP5 SUB SLT ISZERO PUSH2 0x5F0 JUMPI PUSH2 0x5EF PUSH2 0x8F1 JUMP JUMPDEST JUMPDEST PUSH1 0x0 PUSH2 0x5FE DUP5 DUP3 DUP6 ADD PUSH2 0x583 JUMP JUMPDEST SWAP2 POP POP SWAP3 SWAP2 POP POP JUMP JUMPDEST PUSH1 0x0 PUSH1 0x20 DUP3 DUP5 SUB SLT ISZERO PUSH2 0x61D JUMPI PUSH2 0x61C PUSH2 0x8F1 JUMP JUMPDEST JUMPDEST PUSH1 0x0 PUSH2 0x62B DUP5 DUP3 DUP6 ADD PUSH2 0x598 JUMP JUMPDEST SWAP2 POP POP SWAP3 SWAP2 POP POP JUMP JUMPDEST PUSH2 0x63D DUP2 PUSH2 0x868 JUMP JUMPDEST DUP3 MSTORE POP POP JUMP JUMPDEST PUSH2 0x64C DUP2 PUSH2 0x88C JUMP JUMPDEST DUP3 MSTORE POP POP JUMP JUMPDEST PUSH1 0x0 PUSH2 0x65F PUSH1 0x25 DUP4 PUSH2 0x801 JUMP JUMPDEST SWAP2 POP PUSH2 0x66A DUP3 PUSH2 0x8F6 JUMP JUMPDEST PUSH1 0x40 DUP3 ADD SWAP1 POP SWAP2 SWAP1 POP JUMP JUMPDEST PUSH1 0x0 PUSH2 0x682 PUSH1 0x16 DUP4 PUSH2 0x801 JUMP JUMPDEST SWAP2 POP PUSH2 0x68D DUP3 PUSH2 0x945 JUMP JUMPDEST PUSH1 0x20 DUP3 ADD SWAP1 POP SWAP2 SWAP1 POP JUMP JUMPDEST PUSH1 0x0 PUSH2 0x6A5 PUSH1 0x15 DUP4 PUSH2 0x801 JUMP JUMPDEST SWAP2 POP PUSH2 0x6B0 DUP3 PUSH2 0x96E JUMP JUMPDEST PUSH1 0x20 DUP3 ADD SWAP1 POP SWAP2 SWAP1 POP JUMP JUMPDEST PUSH1 0x0 PUSH2 0x6C8 PUSH1 0x26 DUP4 PUSH2 0x801 JUMP JUMPDEST SWAP2 POP PUSH2 0x6D3 DUP3 PUSH2 0x997 JUMP JUMPDEST PUSH1 0x40 DUP3 ADD SWAP1 POP SWAP2 SWAP1 POP JUMP JUMPDEST PUSH1 0x0 PUSH2 0x6EB PUSH1 0x35 DUP4 PUSH2 0x801 JUMP JUMPDEST SWAP2 POP PUSH2 0x6F6 DUP3 PUSH2 0x9E6 JUMP JUMPDEST PUSH1 0x40 DUP3 ADD SWAP1 POP SWAP2 SWAP1 POP JUMP JUMPDEST PUSH2 0x70A DUP2 PUSH2 0x8B8 JUMP JUMPDEST DUP3 MSTORE POP POP JUMP JUMPDEST PUSH1 0x0 PUSH1 0x20 DUP3 ADD SWAP1 POP PUSH2 0x725 PUSH1 0x0 DUP4 ADD DUP5 PUSH2 0x634 JUMP JUMPDEST SWAP3 SWAP2 POP POP JUMP JUMPDEST PUSH1 0x0 PUSH1 0x20 DUP3 ADD SWAP1 POP PUSH2 0x740 PUSH1 0x0 DUP4 ADD DUP5 PUSH2 0x643 JUMP JUMPDEST SWAP3 SWAP2 POP POP JUMP JUMPDEST PUSH1 0x0 PUSH1 0x20 DUP3 ADD SWAP1 POP DUP2 DUP2 SUB PUSH1 0x0 DUP4 ADD MSTORE PUSH2 0x75F DUP2 PUSH2 0x652 JUMP JUMPDEST SWAP1 POP SWAP2 SWAP1 POP JUMP JUMPDEST PUSH1 0x0 PUSH1 0x20 DUP3 ADD SWAP1 POP DUP2 DUP2 SUB PUSH1 0x0 DUP4 ADD MSTORE PUSH2 0x77F DUP2 PUSH2 0x675 JUMP JUMPDEST SWAP1 POP SWAP2 SWAP1 POP JUMP JUMPDEST PUSH1 0x0 PUSH1 0x20 DUP3 ADD SWAP1 POP DUP2 DUP2 SUB PUSH1 0x0 DUP4 ADD MSTORE PUSH2 0x79F DUP2 PUSH2 0x698 JUMP JUMPDEST SWAP1 POP SWAP2 SWAP1 POP JUMP JUMPDEST PUSH1 0x0 PUSH1 0x20 DUP3 ADD SWAP1 POP DUP2 DUP2 SUB PUSH1 0x0 DUP4 ADD MSTORE PUSH2 0x7BF DUP2 PUSH2 0x6BB JUMP JUMPDEST SWAP1 POP SWAP2 SWAP1 POP JUMP JUMPDEST PUSH1 0x0 PUSH1 0x20 DUP3 ADD SWAP1 POP DUP2 DUP2 SUB PUSH1 0x0 DUP4 ADD MSTORE PUSH2 0x7DF DUP2 PUSH2 0x6DE JUMP JUMPDEST SWAP1 POP SWAP2 SWAP1 POP JUMP JUMPDEST PUSH1 0x0 PUSH1 0x20 DUP3 ADD SWAP1 POP PUSH2 0x7FB PUSH1 0x0 DUP4 ADD DUP5 PUSH2 0x701 JUMP JUMPDEST SWAP3 SWAP2 POP POP JUMP JUMPDEST PUSH1 0x0 DUP3 DUP3 MSTORE PUSH1 0x20 DUP3 ADD SWAP1 POP SWAP3 SWAP2 POP POP JUMP JUMPDEST PUSH1 0x0 PUSH2 0x81D DUP3 PUSH2 0x8B8 JUMP JUMPDEST SWAP2 POP PUSH2 0x828 DUP4 PUSH2 0x8B8 JUMP JUMPDEST SWAP3 POP DUP3 PUSH32 0xFFFFFFFFFFFFFFFFFFFFFFFFFFFFFFFFFFFFFFFFFFFFFFFFFFFFFFFFFFFFFFFF SUB DUP3 GT ISZERO PUSH2 0x85D JUMPI PUSH2 0x85C PUSH2 0x8C2 JUMP JUMPDEST JUMPDEST DUP3 DUP3 ADD SWAP1 POP SWAP3 SWAP2 POP POP JUMP JUMPDEST PUSH1 0x0 PUSH2 0x873 DUP3 PUSH2 0x898 JUMP JUMPDEST SWAP1 POP SWAP2 SWAP1 POP JUMP JUMPDEST PUSH1 0x0 PUSH2 0x885 DUP3 PUSH2 0x898 JUMP JUMPDEST SWAP1 POP SWAP2 SWAP1 POP JUMP JUMPDEST PUSH1 0x0 DUP2 ISZERO ISZERO SWAP1 POP SWAP2 SWAP1 POP JUMP JUMPDEST PUSH1 0x0 PUSH20 0xFFFFFFFFFFFFFFFFFFFFFFFFFFFFFFFFFFFFFFFF DUP3 AND SWAP1 POP SWAP2 SWAP1 POP JUMP JUMPDEST PUSH1 0x0 DUP2 SWAP1 POP SWAP2 SWAP1 POP JUMP JUMPDEST PUSH32 0x4E487B7100000000000000000000000000000000000000000000000000000000 PUSH1 0x0 MSTORE PUSH1 0x11 PUSH1 0x4 MSTORE PUSH1 0x24 PUSH1 0x0 REVERT JUMPDEST PUSH1 0x0 DUP1 REVERT JUMPDEST PUSH32 0x4F6E6C7920746865206F776E65722063616E2070617573652074686520636F6E PUSH1 0x0 DUP3 ADD MSTORE PUSH32 0x7472616374000000000000000000000000000000000000000000000000000000 PUSH1 0x20 DUP3 ADD MSTORE POP JUMP JUMPDEST PUSH32 0x54686520636F6E74726163742069732070617573656400000000000000000000 PUSH1 0x0 DUP3 ADD MSTORE POP JUMP JUMPDEST PUSH32 0x596F7520617265206E6F7420746865206F776E65720000000000000000000000 PUSH1 0x0 DUP3 ADD MSTORE POP JUMP JUMPDEST PUSH32 0x4F6E6C7920746865206F776E65722063616E20696E6974696174652077697468 PUSH1 0x0 DUP3 ADD MSTORE PUSH32 0x64726177616C0000000000000000000000000000000000000000000000000000 PUSH1 0x20 DUP3 ADD MSTORE POP JUMP JUMPDEST PUSH32 0x4F6E6C7920746865206F776E65722063616E206368616E67652074686520636F PUSH1 0x0 DUP3 ADD MSTORE PUSH32 0x6E747261637420746F2061206E6577206F776E65720000000000000000000000 PUSH1 0x20 DUP3 ADD MSTORE POP JUMP JUMPDEST PUSH2 0xA3E DUP2 PUSH2 0x868 JUMP JUMPDEST DUP2 EQ PUSH2 0xA49 JUMPI PUSH1 0x0 DUP1 REVERT JUMPDEST POP JUMP JUMPDEST PUSH2 0xA55 DUP2 PUSH2 0x87A JUMP JUMPDEST DUP2 EQ PUSH2 0xA60 JUMPI PUSH1 0x0 DUP1 REVERT JUMPDEST POP JUMP JUMPDEST PUSH2 0xA6C DUP2 PUSH2 0x88C JUMP JUMPDEST DUP2 EQ PUSH2 0xA77 JUMPI PUSH1 0x0 DUP1 REVERT JUMPDEST POP JUMP INVALID LOG2 PUSH5 0x6970667358 0x22 SLT KECCAK256 SWAP9 DUP3 MSIZE 0xDC 0xE1 DUP9 DUP11 0xB3 0xD5 0xA9 MLOAD JUMPI ORIGIN 0xA5 SHL DELEGATECALL 0xD5 0x5D SWAP8 0x5C PUSH13 0xEBC6191D40F6231E3577666473 PUSH16 0x6C634300080700330000000000000000 "
				},
				"gasEstimates": {
					"creation": {
						"codeDepositCost": "547200",
						"executionCost": "24847",
						"totalCost": "572047"
					},
					"external": {
						"ChangeOwnerTo(address)": "6951",
						"destroySmartContract(address)": "30287",
						"myContractBalance()": "2474",
						"owner()": "2533",
						"paused()": "2471",
						"sendMoney()": "infinite",
						"setPaused(bool)": "26869",
						"withdrawAllMoney(address)": "infinite"
					}
				},
				"methodIdentifiers": {
					"ChangeOwnerTo(address)": "bc48fdad",
					"destroySmartContract(address)": "39df43ff",
					"myContractBalance()": "2b6dcd77",
					"owner()": "8da5cb5b",
					"paused()": "5c975abb",
					"sendMoney()": "cbedbf5a",
					"setPaused(bool)": "16c38b3c",
					"withdrawAllMoney(address)": "0adec93c"
				}
			},
			"storageLayout": {
				"storage": [
					{
						"astId": 3,
						"contract": "MyChangeOwner.sol:StartStopUpdateExample",
						"label": "owner",
						"offset": 0,
						"slot": "0",
						"type": "t_address"
					},
					{
						"astId": 5,
						"contract": "MyChangeOwner.sol:StartStopUpdateExample",
						"label": "myContractBalance",
						"offset": 0,
						"slot": "1",
						"type": "t_uint256"
					},
					{
						"astId": 7,
						"contract": "MyChangeOwner.sol:StartStopUpdateExample",
						"label": "paused",
						"offset": 0,
						"slot": "2",
						"type": "t_bool"
					}
				],
				"types": {
					"t_address": {
						"encoding": "inplace",
						"label": "address",
						"numberOfBytes": "20"
					},
					"t_bool": {
						"encoding": "inplace",
						"label": "bool",
						"numberOfBytes": "1"
					},
					"t_uint256": {
						"encoding": "inplace",
						"label": "uint256",
						"numberOfBytes": "32"
					}
				}
			},
			"userdoc": {
				"kind": "user",
				"methods": {},
				"version": 1
			}
		}
	}
}