{
	"CompileVariables.sol": {
		"WorkingWithVariables": {
			"abi": [
				{
					"inputs": [],
					"name": "getBalanceOfAddress",
					"outputs": [
						{
							"internalType": "uint256",
							"name": "",
							"type": "uint256"
						}
					],
					"stateMutability": "view",
					"type": "function"
				},
				{
					"inputs": [],
					"name": "myAddress",
					"outputs": [
						{
							"internalType": "address",
							"name": "",
							"type": "address"
						}
					],
					"stateMutability": "view",
					"type": "function"
				},
				{
					"inputs": [],
					"name": "myString",
					"outputs": [
						{
							"internalType": "string",
							"name": "",
							"type": "string"
						}
					],
					"stateMutability": "view",
					"type": "function"
				},
				{
					"inputs": [],
					"name": "myUint",
					"outputs": [
						{
							"internalType": "uint256",
							"name": "",
							"type": "uint256"
						}
					],
					"stateMutability": "view",
					"type": "function"
				},
				{
					"inputs": [
						{
							"internalType": "address",
							"name": "_address",
							"type": "address"
						}
					],
					"name": "setMyAddress",
					"outputs": [],
					"stateMutability": "nonpayable",
					"type": "function"
				},
				{
					"inputs": [
						{
							"internalType": "uint256",
							"name": "_myUint",
							"type": "uint256"
						}
					],
					"name": "setMyUint",
					"outputs": [],
					"stateMutability": "nonpayable",
					"type": "function"
				}
			],
			"devdoc": {
				"kind": "dev",
				"methods": {},
				"version": 1
			},
			"evm": {
				"assembly": "    /* \"CompileVariables.sol\":25:412  contract WorkingWithVariables {... */\n  mstore(0x40, 0x80)\n  callvalue\n  dup1\n  iszero\n  tag_1\n  jumpi\n  0x00\n  dup1\n  revert\ntag_1:\n  pop\n  dataSize(sub_0)\n  dup1\n  dataOffset(sub_0)\n  0x00\n  codecopy\n  0x00\n  return\nstop\n\nsub_0: assembly {\n        /* \"CompileVariables.sol\":25:412  contract WorkingWithVariables {... */\n      mstore(0x40, 0x80)\n      callvalue\n      dup1\n      iszero\n      tag_1\n      jumpi\n      0x00\n      dup1\n      revert\n    tag_1:\n      pop\n      jumpi(tag_2, lt(calldatasize, 0x04))\n      shr(0xe0, calldataload(0x00))\n      dup1\n      0x06540f7e\n      eq\n      tag_3\n      jumpi\n      dup1\n      0x15502612\n      eq\n      tag_4\n      jumpi\n      dup1\n      0x26b85ee1\n      eq\n      tag_5\n      jumpi\n      dup1\n      0x492bfa18\n      eq\n      tag_6\n      jumpi\n      dup1\n      0xa8a7b895\n      eq\n      tag_7\n      jumpi\n      dup1\n      0xe492fd84\n      eq\n      tag_8\n      jumpi\n    tag_2:\n      0x00\n      dup1\n      revert\n        /* \"CompileVariables.sol\":61:82  uint256 public myUint */\n    tag_3:\n      tag_9\n      tag_10\n      jump\t// in\n    tag_9:\n      mload(0x40)\n      tag_11\n      swap2\n      swap1\n      tag_12\n      jump\t// in\n    tag_11:\n      mload(0x40)\n      dup1\n      swap2\n      sub\n      swap1\n      return\n        /* \"CompileVariables.sol\":283:381  function getBalanceOfAddress() public view returns(uint) {... */\n    tag_4:\n      tag_13\n      tag_14\n      jump\t// in\n    tag_13:\n      mload(0x40)\n      tag_15\n      swap2\n      swap1\n      tag_12\n      jump\t// in\n    tag_15:\n      mload(0x40)\n      dup1\n      swap2\n      sub\n      swap1\n      return\n        /* \"CompileVariables.sol\":165:189  address public myAddress */\n    tag_5:\n      tag_16\n      tag_17\n      jump\t// in\n    tag_16:\n      mload(0x40)\n      tag_18\n      swap2\n      swap1\n      tag_19\n      jump\t// in\n    tag_18:\n      mload(0x40)\n      dup1\n      swap2\n      sub\n      swap1\n      return\n        /* \"CompileVariables.sol\":387:409  string public myString */\n    tag_6:\n      tag_20\n      tag_21\n      jump\t// in\n    tag_20:\n      mload(0x40)\n      tag_22\n      swap2\n      swap1\n      tag_23\n      jump\t// in\n    tag_22:\n      mload(0x40)\n      dup1\n      swap2\n      sub\n      swap1\n      return\n        /* \"CompileVariables.sol\":195:277  function setMyAddress(address _address) public {... */\n    tag_7:\n      tag_24\n      0x04\n      dup1\n      calldatasize\n      sub\n      dup2\n      add\n      swap1\n      tag_25\n      swap2\n      swap1\n      tag_26\n      jump\t// in\n    tag_25:\n      tag_27\n      jump\t// in\n    tag_24:\n      stop\n        /* \"CompileVariables.sol\":88:159  function setMyUint(uint _myUint) public {... */\n    tag_8:\n      tag_28\n      0x04\n      dup1\n      calldatasize\n      sub\n      dup2\n      add\n      swap1\n      tag_29\n      swap2\n      swap1\n      tag_30\n      jump\t// in\n    tag_29:\n      tag_31\n      jump\t// in\n    tag_28:\n      stop\n        /* \"CompileVariables.sol\":61:82  uint256 public myUint */\n    tag_10:\n      sload(0x00)\n      dup2\n      jump\t// out\n        /* \"CompileVariables.sol\":283:381  function getBalanceOfAddress() public view returns(uint) {... */\n    tag_14:\n        /* \"CompileVariables.sol\":334:338  uint */\n      0x00\n        /* \"CompileVariables.sol\":357:366  myAddress */\n      0x01\n      0x00\n      swap1\n      sload\n      swap1\n      0x0100\n      exp\n      swap1\n      div\n      0xffffffffffffffffffffffffffffffffffffffff\n      and\n        /* \"CompileVariables.sol\":357:374  myAddress.balance */\n      0xffffffffffffffffffffffffffffffffffffffff\n      and\n      balance\n        /* \"CompileVariables.sol\":350:374  return myAddress.balance */\n      swap1\n      pop\n        /* \"CompileVariables.sol\":283:381  function getBalanceOfAddress() public view returns(uint) {... */\n      swap1\n      jump\t// out\n        /* \"CompileVariables.sol\":165:189  address public myAddress */\n    tag_17:\n      0x01\n      0x00\n      swap1\n      sload\n      swap1\n      0x0100\n      exp\n      swap1\n      div\n      0xffffffffffffffffffffffffffffffffffffffff\n      and\n      dup2\n      jump\t// out\n        /* \"CompileVariables.sol\":387:409  string public myString */\n    tag_21:\n      0x02\n      dup1\n      sload\n      tag_33\n      swap1\n      tag_34\n      jump\t// in\n    tag_33:\n      dup1\n      0x1f\n      add\n      0x20\n      dup1\n      swap2\n      div\n      mul\n      0x20\n      add\n      mload(0x40)\n      swap1\n      dup2\n      add\n      0x40\n      mstore\n      dup1\n      swap3\n      swap2\n      swap1\n      dup2\n      dup2\n      mstore\n      0x20\n      add\n      dup3\n      dup1\n      sload\n      tag_35\n      swap1\n      tag_34\n      jump\t// in\n    tag_35:\n      dup1\n      iszero\n      tag_36\n      jumpi\n      dup1\n      0x1f\n      lt\n      tag_37\n      jumpi\n      0x0100\n      dup1\n      dup4\n      sload\n      div\n      mul\n      dup4\n      mstore\n      swap2\n      0x20\n      add\n      swap2\n      jump(tag_36)\n    tag_37:\n      dup3\n      add\n      swap2\n      swap1\n      0x00\n      mstore\n      keccak256(0x00, 0x20)\n      swap1\n    tag_38:\n      dup2\n      sload\n      dup2\n      mstore\n      swap1\n      0x01\n      add\n      swap1\n      0x20\n      add\n      dup1\n      dup4\n      gt\n      tag_38\n      jumpi\n      dup3\n      swap1\n      sub\n      0x1f\n      and\n      dup3\n      add\n      swap2\n    tag_36:\n      pop\n      pop\n      pop\n      pop\n      pop\n      dup2\n      jump\t// out\n        /* \"CompileVariables.sol\":195:277  function setMyAddress(address _address) public {... */\n    tag_27:\n        /* \"CompileVariables.sol\":262:270  _address */\n      dup1\n        /* \"CompileVariables.sol\":252:261  myAddress */\n      0x01\n      0x00\n        /* \"CompileVariables.sol\":252:270  myAddress=_address */\n      0x0100\n      exp\n      dup2\n      sload\n      dup2\n      0xffffffffffffffffffffffffffffffffffffffff\n      mul\n      not\n      and\n      swap1\n      dup4\n      0xffffffffffffffffffffffffffffffffffffffff\n      and\n      mul\n      or\n      swap1\n      sstore\n      pop\n        /* \"CompileVariables.sol\":195:277  function setMyAddress(address _address) public {... */\n      pop\n      jump\t// out\n        /* \"CompileVariables.sol\":88:159  function setMyUint(uint _myUint) public {... */\n    tag_31:\n        /* \"CompileVariables.sol\":145:152  _myUint */\n      dup1\n        /* \"CompileVariables.sol\":138:144  myUint */\n      0x00\n        /* \"CompileVariables.sol\":138:152  myUint=_myUint */\n      dup2\n      swap1\n      sstore\n      pop\n        /* \"CompileVariables.sol\":88:159  function setMyUint(uint _myUint) public {... */\n      pop\n      jump\t// out\n        /* \"#utility.yul\":7:146   */\n    tag_42:\n        /* \"#utility.yul\":53:58   */\n      0x00\n        /* \"#utility.yul\":91:97   */\n      dup2\n        /* \"#utility.yul\":78:98   */\n      calldataload\n        /* \"#utility.yul\":69:98   */\n      swap1\n      pop\n        /* \"#utility.yul\":107:140   */\n      tag_44\n        /* \"#utility.yul\":134:139   */\n      dup2\n        /* \"#utility.yul\":107:140   */\n      tag_45\n      jump\t// in\n    tag_44:\n        /* \"#utility.yul\":7:146   */\n      swap3\n      swap2\n      pop\n      pop\n      jump\t// out\n        /* \"#utility.yul\":152:291   */\n    tag_46:\n        /* \"#utility.yul\":198:203   */\n      0x00\n        /* \"#utility.yul\":236:242   */\n      dup2\n        /* \"#utility.yul\":223:243   */\n      calldataload\n        /* \"#utility.yul\":214:243   */\n      swap1\n      pop\n        /* \"#utility.yul\":252:285   */\n      tag_48\n        /* \"#utility.yul\":279:284   */\n      dup2\n        /* \"#utility.yul\":252:285   */\n      tag_49\n      jump\t// in\n    tag_48:\n        /* \"#utility.yul\":152:291   */\n      swap3\n      swap2\n      pop\n      pop\n      jump\t// out\n        /* \"#utility.yul\":297:626   */\n    tag_26:\n        /* \"#utility.yul\":356:362   */\n      0x00\n        /* \"#utility.yul\":405:407   */\n      0x20\n        /* \"#utility.yul\":393:402   */\n      dup3\n        /* \"#utility.yul\":384:391   */\n      dup5\n        /* \"#utility.yul\":380:403   */\n      sub\n        /* \"#utility.yul\":376:408   */\n      slt\n        /* \"#utility.yul\":373:492   */\n      iszero\n      tag_51\n      jumpi\n        /* \"#utility.yul\":411:490   */\n      tag_52\n      tag_53\n      jump\t// in\n    tag_52:\n        /* \"#utility.yul\":373:492   */\n    tag_51:\n        /* \"#utility.yul\":531:532   */\n      0x00\n        /* \"#utility.yul\":556:609   */\n      tag_54\n        /* \"#utility.yul\":601:608   */\n      dup5\n        /* \"#utility.yul\":592:598   */\n      dup3\n        /* \"#utility.yul\":581:590   */\n      dup6\n        /* \"#utility.yul\":577:599   */\n      add\n        /* \"#utility.yul\":556:609   */\n      tag_42\n      jump\t// in\n    tag_54:\n        /* \"#utility.yul\":546:609   */\n      swap2\n      pop\n        /* \"#utility.yul\":502:619   */\n      pop\n        /* \"#utility.yul\":297:626   */\n      swap3\n      swap2\n      pop\n      pop\n      jump\t// out\n        /* \"#utility.yul\":632:961   */\n    tag_30:\n        /* \"#utility.yul\":691:697   */\n      0x00\n        /* \"#utility.yul\":740:742   */\n      0x20\n        /* \"#utility.yul\":728:737   */\n      dup3\n        /* \"#utility.yul\":719:726   */\n      dup5\n        /* \"#utility.yul\":715:738   */\n      sub\n        /* \"#utility.yul\":711:743   */\n      slt\n        /* \"#utility.yul\":708:827   */\n      iszero\n      tag_56\n      jumpi\n        /* \"#utility.yul\":746:825   */\n      tag_57\n      tag_53\n      jump\t// in\n    tag_57:\n        /* \"#utility.yul\":708:827   */\n    tag_56:\n        /* \"#utility.yul\":866:867   */\n      0x00\n        /* \"#utility.yul\":891:944   */\n      tag_58\n        /* \"#utility.yul\":936:943   */\n      dup5\n        /* \"#utility.yul\":927:933   */\n      dup3\n        /* \"#utility.yul\":916:925   */\n      dup6\n        /* \"#utility.yul\":912:934   */\n      add\n        /* \"#utility.yul\":891:944   */\n      tag_46\n      jump\t// in\n    tag_58:\n        /* \"#utility.yul\":881:944   */\n      swap2\n      pop\n        /* \"#utility.yul\":837:954   */\n      pop\n        /* \"#utility.yul\":632:961   */\n      swap3\n      swap2\n      pop\n      pop\n      jump\t// out\n        /* \"#utility.yul\":967:1085   */\n    tag_59:\n        /* \"#utility.yul\":1054:1078   */\n      tag_61\n        /* \"#utility.yul\":1072:1077   */\n      dup2\n        /* \"#utility.yul\":1054:1078   */\n      tag_62\n      jump\t// in\n    tag_61:\n        /* \"#utility.yul\":1049:1052   */\n      dup3\n        /* \"#utility.yul\":1042:1079   */\n      mstore\n        /* \"#utility.yul\":967:1085   */\n      pop\n      pop\n      jump\t// out\n        /* \"#utility.yul\":1091:1455   */\n    tag_63:\n        /* \"#utility.yul\":1179:1182   */\n      0x00\n        /* \"#utility.yul\":1207:1246   */\n      tag_65\n        /* \"#utility.yul\":1240:1245   */\n      dup3\n        /* \"#utility.yul\":1207:1246   */\n      tag_66\n      jump\t// in\n    tag_65:\n        /* \"#utility.yul\":1262:1333   */\n      tag_67\n        /* \"#utility.yul\":1326:1332   */\n      dup2\n        /* \"#utility.yul\":1321:1324   */\n      dup6\n        /* \"#utility.yul\":1262:1333   */\n      tag_68\n      jump\t// in\n    tag_67:\n        /* \"#utility.yul\":1255:1333   */\n      swap4\n      pop\n        /* \"#utility.yul\":1342:1394   */\n      tag_69\n        /* \"#utility.yul\":1387:1393   */\n      dup2\n        /* \"#utility.yul\":1382:1385   */\n      dup6\n        /* \"#utility.yul\":1375:1379   */\n      0x20\n        /* \"#utility.yul\":1368:1373   */\n      dup7\n        /* \"#utility.yul\":1364:1380   */\n      add\n        /* \"#utility.yul\":1342:1394   */\n      tag_70\n      jump\t// in\n    tag_69:\n        /* \"#utility.yul\":1419:1448   */\n      tag_71\n        /* \"#utility.yul\":1441:1447   */\n      dup2\n        /* \"#utility.yul\":1419:1448   */\n      tag_72\n      jump\t// in\n    tag_71:\n        /* \"#utility.yul\":1414:1417   */\n      dup5\n        /* \"#utility.yul\":1410:1449   */\n      add\n        /* \"#utility.yul\":1403:1449   */\n      swap2\n      pop\n        /* \"#utility.yul\":1183:1455   */\n      pop\n        /* \"#utility.yul\":1091:1455   */\n      swap3\n      swap2\n      pop\n      pop\n      jump\t// out\n        /* \"#utility.yul\":1461:1579   */\n    tag_73:\n        /* \"#utility.yul\":1548:1572   */\n      tag_75\n        /* \"#utility.yul\":1566:1571   */\n      dup2\n        /* \"#utility.yul\":1548:1572   */\n      tag_76\n      jump\t// in\n    tag_75:\n        /* \"#utility.yul\":1543:1546   */\n      dup3\n        /* \"#utility.yul\":1536:1573   */\n      mstore\n        /* \"#utility.yul\":1461:1579   */\n      pop\n      pop\n      jump\t// out\n        /* \"#utility.yul\":1585:1807   */\n    tag_19:\n        /* \"#utility.yul\":1678:1682   */\n      0x00\n        /* \"#utility.yul\":1716:1718   */\n      0x20\n        /* \"#utility.yul\":1705:1714   */\n      dup3\n        /* \"#utility.yul\":1701:1719   */\n      add\n        /* \"#utility.yul\":1693:1719   */\n      swap1\n      pop\n        /* \"#utility.yul\":1729:1800   */\n      tag_78\n        /* \"#utility.yul\":1797:1798   */\n      0x00\n        /* \"#utility.yul\":1786:1795   */\n      dup4\n        /* \"#utility.yul\":1782:1799   */\n      add\n        /* \"#utility.yul\":1773:1779   */\n      dup5\n        /* \"#utility.yul\":1729:1800   */\n      tag_59\n      jump\t// in\n    tag_78:\n        /* \"#utility.yul\":1585:1807   */\n      swap3\n      swap2\n      pop\n      pop\n      jump\t// out\n        /* \"#utility.yul\":1813:2126   */\n    tag_23:\n        /* \"#utility.yul\":1926:1930   */\n      0x00\n        /* \"#utility.yul\":1964:1966   */\n      0x20\n        /* \"#utility.yul\":1953:1962   */\n      dup3\n        /* \"#utility.yul\":1949:1967   */\n      add\n        /* \"#utility.yul\":1941:1967   */\n      swap1\n      pop\n        /* \"#utility.yul\":2013:2022   */\n      dup2\n        /* \"#utility.yul\":2007:2011   */\n      dup2\n        /* \"#utility.yul\":2003:2023   */\n      sub\n        /* \"#utility.yul\":1999:2000   */\n      0x00\n        /* \"#utility.yul\":1988:1997   */\n      dup4\n        /* \"#utility.yul\":1984:2001   */\n      add\n        /* \"#utility.yul\":1977:2024   */\n      mstore\n        /* \"#utility.yul\":2041:2119   */\n      tag_80\n        /* \"#utility.yul\":2114:2118   */\n      dup2\n        /* \"#utility.yul\":2105:2111   */\n      dup5\n        /* \"#utility.yul\":2041:2119   */\n      tag_63\n      jump\t// in\n    tag_80:\n        /* \"#utility.yul\":2033:2119   */\n      swap1\n      pop\n        /* \"#utility.yul\":1813:2126   */\n      swap3\n      swap2\n      pop\n      pop\n      jump\t// out\n        /* \"#utility.yul\":2132:2354   */\n    tag_12:\n        /* \"#utility.yul\":2225:2229   */\n      0x00\n        /* \"#utility.yul\":2263:2265   */\n      0x20\n        /* \"#utility.yul\":2252:2261   */\n      dup3\n        /* \"#utility.yul\":2248:2266   */\n      add\n        /* \"#utility.yul\":2240:2266   */\n      swap1\n      pop\n        /* \"#utility.yul\":2276:2347   */\n      tag_82\n        /* \"#utility.yul\":2344:2345   */\n      0x00\n        /* \"#utility.yul\":2333:2342   */\n      dup4\n        /* \"#utility.yul\":2329:2346   */\n      add\n        /* \"#utility.yul\":2320:2326   */\n      dup5\n        /* \"#utility.yul\":2276:2347   */\n      tag_73\n      jump\t// in\n    tag_82:\n        /* \"#utility.yul\":2132:2354   */\n      swap3\n      swap2\n      pop\n      pop\n      jump\t// out\n        /* \"#utility.yul\":2441:2540   */\n    tag_66:\n        /* \"#utility.yul\":2493:2499   */\n      0x00\n        /* \"#utility.yul\":2527:2532   */\n      dup2\n        /* \"#utility.yul\":2521:2533   */\n      mload\n        /* \"#utility.yul\":2511:2533   */\n      swap1\n      pop\n        /* \"#utility.yul\":2441:2540   */\n      swap2\n      swap1\n      pop\n      jump\t// out\n        /* \"#utility.yul\":2546:2715   */\n    tag_68:\n        /* \"#utility.yul\":2630:2641   */\n      0x00\n        /* \"#utility.yul\":2664:2670   */\n      dup3\n        /* \"#utility.yul\":2659:2662   */\n      dup3\n        /* \"#utility.yul\":2652:2671   */\n      mstore\n        /* \"#utility.yul\":2704:2708   */\n      0x20\n        /* \"#utility.yul\":2699:2702   */\n      dup3\n        /* \"#utility.yul\":2695:2709   */\n      add\n        /* \"#utility.yul\":2680:2709   */\n      swap1\n      pop\n        /* \"#utility.yul\":2546:2715   */\n      swap3\n      swap2\n      pop\n      pop\n      jump\t// out\n        /* \"#utility.yul\":2721:2817   */\n    tag_62:\n        /* \"#utility.yul\":2758:2765   */\n      0x00\n        /* \"#utility.yul\":2787:2811   */\n      tag_88\n        /* \"#utility.yul\":2805:2810   */\n      dup3\n        /* \"#utility.yul\":2787:2811   */\n      tag_89\n      jump\t// in\n    tag_88:\n        /* \"#utility.yul\":2776:2811   */\n      swap1\n      pop\n        /* \"#utility.yul\":2721:2817   */\n      swap2\n      swap1\n      pop\n      jump\t// out\n        /* \"#utility.yul\":2823:2949   */\n    tag_89:\n        /* \"#utility.yul\":2860:2867   */\n      0x00\n        /* \"#utility.yul\":2900:2942   */\n      0xffffffffffffffffffffffffffffffffffffffff\n        /* \"#utility.yul\":2893:2898   */\n      dup3\n        /* \"#utility.yul\":2889:2943   */\n      and\n        /* \"#utility.yul\":2878:2943   */\n      swap1\n      pop\n        /* \"#utility.yul\":2823:2949   */\n      swap2\n      swap1\n      pop\n      jump\t// out\n        /* \"#utility.yul\":2955:3032   */\n    tag_76:\n        /* \"#utility.yul\":2992:2999   */\n      0x00\n        /* \"#utility.yul\":3021:3026   */\n      dup2\n        /* \"#utility.yul\":3010:3026   */\n      swap1\n      pop\n        /* \"#utility.yul\":2955:3032   */\n      swap2\n      swap1\n      pop\n      jump\t// out\n        /* \"#utility.yul\":3038:3345   */\n    tag_70:\n        /* \"#utility.yul\":3106:3107   */\n      0x00\n        /* \"#utility.yul\":3116:3229   */\n    tag_93:\n        /* \"#utility.yul\":3130:3136   */\n      dup4\n        /* \"#utility.yul\":3127:3128   */\n      dup2\n        /* \"#utility.yul\":3124:3137   */\n      lt\n        /* \"#utility.yul\":3116:3229   */\n      iszero\n      tag_95\n      jumpi\n        /* \"#utility.yul\":3215:3216   */\n      dup1\n        /* \"#utility.yul\":3210:3213   */\n      dup3\n        /* \"#utility.yul\":3206:3217   */\n      add\n        /* \"#utility.yul\":3200:3218   */\n      mload\n        /* \"#utility.yul\":3196:3197   */\n      dup2\n        /* \"#utility.yul\":3191:3194   */\n      dup5\n        /* \"#utility.yul\":3187:3198   */\n      add\n        /* \"#utility.yul\":3180:3219   */\n      mstore\n        /* \"#utility.yul\":3152:3154   */\n      0x20\n        /* \"#utility.yul\":3149:3150   */\n      dup2\n        /* \"#utility.yul\":3145:3155   */\n      add\n        /* \"#utility.yul\":3140:3155   */\n      swap1\n      pop\n        /* \"#utility.yul\":3116:3229   */\n      jump(tag_93)\n    tag_95:\n        /* \"#utility.yul\":3247:3253   */\n      dup4\n        /* \"#utility.yul\":3244:3245   */\n      dup2\n        /* \"#utility.yul\":3241:3254   */\n      gt\n        /* \"#utility.yul\":3238:3339   */\n      iszero\n      tag_96\n      jumpi\n        /* \"#utility.yul\":3327:3328   */\n      0x00\n        /* \"#utility.yul\":3318:3324   */\n      dup5\n        /* \"#utility.yul\":3313:3316   */\n      dup5\n        /* \"#utility.yul\":3309:3325   */\n      add\n        /* \"#utility.yul\":3302:3329   */\n      mstore\n        /* \"#utility.yul\":3238:3339   */\n    tag_96:\n        /* \"#utility.yul\":3087:3345   */\n      pop\n        /* \"#utility.yul\":3038:3345   */\n      pop\n      pop\n      pop\n      jump\t// out\n        /* \"#utility.yul\":3351:3671   */\n    tag_34:\n        /* \"#utility.yul\":3395:3401   */\n      0x00\n        /* \"#utility.yul\":3432:3433   */\n      0x02\n        /* \"#utility.yul\":3426:3430   */\n      dup3\n        /* \"#utility.yul\":3422:3434   */\n      div\n        /* \"#utility.yul\":3412:3434   */\n      swap1\n      pop\n        /* \"#utility.yul\":3479:3480   */\n      0x01\n        /* \"#utility.yul\":3473:3477   */\n      dup3\n        /* \"#utility.yul\":3469:3481   */\n      and\n        /* \"#utility.yul\":3500:3518   */\n      dup1\n        /* \"#utility.yul\":3490:3571   */\n      tag_98\n      jumpi\n        /* \"#utility.yul\":3556:3560   */\n      0x7f\n        /* \"#utility.yul\":3548:3554   */\n      dup3\n        /* \"#utility.yul\":3544:3561   */\n      and\n        /* \"#utility.yul\":3534:3561   */\n      swap2\n      pop\n        /* \"#utility.yul\":3490:3571   */\n    tag_98:\n        /* \"#utility.yul\":3618:3620   */\n      0x20\n        /* \"#utility.yul\":3610:3616   */\n      dup3\n        /* \"#utility.yul\":3607:3621   */\n      lt\n        /* \"#utility.yul\":3587:3605   */\n      dup2\n        /* \"#utility.yul\":3584:3622   */\n      eq\n        /* \"#utility.yul\":3581:3665   */\n      iszero\n      tag_99\n      jumpi\n        /* \"#utility.yul\":3637:3655   */\n      tag_100\n      tag_101\n      jump\t// in\n    tag_100:\n        /* \"#utility.yul\":3581:3665   */\n    tag_99:\n        /* \"#utility.yul\":3402:3671   */\n      pop\n        /* \"#utility.yul\":3351:3671   */\n      swap2\n      swap1\n      pop\n      jump\t// out\n        /* \"#utility.yul\":3677:3857   */\n    tag_101:\n        /* \"#utility.yul\":3725:3802   */\n      0x4e487b7100000000000000000000000000000000000000000000000000000000\n        /* \"#utility.yul\":3722:3723   */\n      0x00\n        /* \"#utility.yul\":3715:3803   */\n      mstore\n        /* \"#utility.yul\":3822:3826   */\n      0x22\n        /* \"#utility.yul\":3819:3820   */\n      0x04\n        /* \"#utility.yul\":3812:3827   */\n      mstore\n        /* \"#utility.yul\":3846:3850   */\n      0x24\n        /* \"#utility.yul\":3843:3844   */\n      0x00\n        /* \"#utility.yul\":3836:3851   */\n      revert\n        /* \"#utility.yul\":3986:4103   */\n    tag_53:\n        /* \"#utility.yul\":4095:4096   */\n      0x00\n        /* \"#utility.yul\":4092:4093   */\n      dup1\n        /* \"#utility.yul\":4085:4097   */\n      revert\n        /* \"#utility.yul\":4109:4211   */\n    tag_72:\n        /* \"#utility.yul\":4150:4156   */\n      0x00\n        /* \"#utility.yul\":4201:4203   */\n      0x1f\n        /* \"#utility.yul\":4197:4204   */\n      not\n        /* \"#utility.yul\":4192:4194   */\n      0x1f\n        /* \"#utility.yul\":4185:4190   */\n      dup4\n        /* \"#utility.yul\":4181:4195   */\n      add\n        /* \"#utility.yul\":4177:4205   */\n      and\n        /* \"#utility.yul\":4167:4205   */\n      swap1\n      pop\n        /* \"#utility.yul\":4109:4211   */\n      swap2\n      swap1\n      pop\n      jump\t// out\n        /* \"#utility.yul\":4217:4339   */\n    tag_45:\n        /* \"#utility.yul\":4290:4314   */\n      tag_108\n        /* \"#utility.yul\":4308:4313   */\n      dup2\n        /* \"#utility.yul\":4290:4314   */\n      tag_62\n      jump\t// in\n    tag_108:\n        /* \"#utility.yul\":4283:4288   */\n      dup2\n        /* \"#utility.yul\":4280:4315   */\n      eq\n        /* \"#utility.yul\":4270:4333   */\n      tag_109\n      jumpi\n        /* \"#utility.yul\":4329:4330   */\n      0x00\n        /* \"#utility.yul\":4326:4327   */\n      dup1\n        /* \"#utility.yul\":4319:4331   */\n      revert\n        /* \"#utility.yul\":4270:4333   */\n    tag_109:\n        /* \"#utility.yul\":4217:4339   */\n      pop\n      jump\t// out\n        /* \"#utility.yul\":4345:4467   */\n    tag_49:\n        /* \"#utility.yul\":4418:4442   */\n      tag_111\n        /* \"#utility.yul\":4436:4441   */\n      dup2\n        /* \"#utility.yul\":4418:4442   */\n      tag_76\n      jump\t// in\n    tag_111:\n        /* \"#utility.yul\":4411:4416   */\n      dup2\n        /* \"#utility.yul\":4408:4443   */\n      eq\n        /* \"#utility.yul\":4398:4461   */\n      tag_112\n      jumpi\n        /* \"#utility.yul\":4457:4458   */\n      0x00\n        /* \"#utility.yul\":4454:4455   */\n      dup1\n        /* \"#utility.yul\":4447:4459   */\n      revert\n        /* \"#utility.yul\":4398:4461   */\n    tag_112:\n        /* \"#utility.yul\":4345:4467   */\n      pop\n      jump\t// out\n\n    auxdata: 0xa264697066735822122076532d869efba2e86868f10a9bce31ad00eb1e6e049aaf72165db08886781ab364736f6c63430008070033\n}\n",
				"bytecode": {
					"linkReferences": {},
					"object": "608060405234801561001057600080fd5b506104f9806100206000396000f3fe608060405234801561001057600080fd5b50600436106100625760003560e01c806306540f7e14610067578063155026121461008557806326b85ee1146100a3578063492bfa18146100c1578063a8a7b895146100df578063e492fd84146100fb575b600080fd5b61006f610117565b60405161007c9190610378565b60405180910390f35b61008d61011d565b60405161009a9190610378565b60405180910390f35b6100ab61015e565b6040516100b8919061033b565b60405180910390f35b6100c9610184565b6040516100d69190610356565b60405180910390f35b6100f960048036038101906100f4919061028a565b610212565b005b610115600480360381019061011091906102b7565b610256565b005b60005481565b6000600160009054906101000a900473ffffffffffffffffffffffffffffffffffffffff1673ffffffffffffffffffffffffffffffffffffffff1631905090565b600160009054906101000a900473ffffffffffffffffffffffffffffffffffffffff1681565b600280546101919061041e565b80601f01602080910402602001604051908101604052809291908181526020018280546101bd9061041e565b801561020a5780601f106101df5761010080835404028352916020019161020a565b820191906000526020600020905b8154815290600101906020018083116101ed57829003601f168201915b505050505081565b80600160006101000a81548173ffffffffffffffffffffffffffffffffffffffff021916908373ffffffffffffffffffffffffffffffffffffffff16021790555050565b8060008190555050565b60008135905061026f81610495565b92915050565b600081359050610284816104ac565b92915050565b6000602082840312156102a05761029f61047f565b5b60006102ae84828501610260565b91505092915050565b6000602082840312156102cd576102cc61047f565b5b60006102db84828501610275565b91505092915050565b6102ed816103af565b82525050565b60006102fe82610393565b610308818561039e565b93506103188185602086016103eb565b61032181610484565b840191505092915050565b610335816103e1565b82525050565b600060208201905061035060008301846102e4565b92915050565b6000602082019050818103600083015261037081846102f3565b905092915050565b600060208201905061038d600083018461032c565b92915050565b600081519050919050565b600082825260208201905092915050565b60006103ba826103c1565b9050919050565b600073ffffffffffffffffffffffffffffffffffffffff82169050919050565b6000819050919050565b60005b838110156104095780820151818401526020810190506103ee565b83811115610418576000848401525b50505050565b6000600282049050600182168061043657607f821691505b6020821081141561044a57610449610450565b5b50919050565b7f4e487b7100000000000000000000000000000000000000000000000000000000600052602260045260246000fd5b600080fd5b6000601f19601f8301169050919050565b61049e816103af565b81146104a957600080fd5b50565b6104b5816103e1565b81146104c057600080fd5b5056fea264697066735822122076532d869efba2e86868f10a9bce31ad00eb1e6e049aaf72165db08886781ab364736f6c63430008070033",
					"opcodes": "PUSH1 0x80 PUSH1 0x40 MSTORE CALLVALUE DUP1 ISZERO PUSH2 0x10 JUMPI PUSH1 0x0 DUP1 REVERT JUMPDEST POP PUSH2 0x4F9 DUP1 PUSH2 0x20 PUSH1 0x0 CODECOPY PUSH1 0x0 RETURN INVALID PUSH1 0x80 PUSH1 0x40 MSTORE CALLVALUE DUP1 ISZERO PUSH2 0x10 JUMPI PUSH1 0x0 DUP1 REVERT JUMPDEST POP PUSH1 0x4 CALLDATASIZE LT PUSH2 0x62 JUMPI PUSH1 0x0 CALLDATALOAD PUSH1 0xE0 SHR DUP1 PUSH4 0x6540F7E EQ PUSH2 0x67 JUMPI DUP1 PUSH4 0x15502612 EQ PUSH2 0x85 JUMPI DUP1 PUSH4 0x26B85EE1 EQ PUSH2 0xA3 JUMPI DUP1 PUSH4 0x492BFA18 EQ PUSH2 0xC1 JUMPI DUP1 PUSH4 0xA8A7B895 EQ PUSH2 0xDF JUMPI DUP1 PUSH4 0xE492FD84 EQ PUSH2 0xFB JUMPI JUMPDEST PUSH1 0x0 DUP1 REVERT JUMPDEST PUSH2 0x6F PUSH2 0x117 JUMP JUMPDEST PUSH1 0x40 MLOAD PUSH2 0x7C SWAP2 SWAP1 PUSH2 0x378 JUMP JUMPDEST PUSH1 0x40 MLOAD DUP1 SWAP2 SUB SWAP1 RETURN JUMPDEST PUSH2 0x8D PUSH2 0x11D JUMP JUMPDEST PUSH1 0x40 MLOAD PUSH2 0x9A SWAP2 SWAP1 PUSH2 0x378 JUMP JUMPDEST PUSH1 0x40 MLOAD DUP1 SWAP2 SUB SWAP1 RETURN JUMPDEST PUSH2 0xAB PUSH2 0x15E JUMP JUMPDEST PUSH1 0x40 MLOAD PUSH2 0xB8 SWAP2 SWAP1 PUSH2 0x33B JUMP JUMPDEST PUSH1 0x40 MLOAD DUP1 SWAP2 SUB SWAP1 RETURN JUMPDEST PUSH2 0xC9 PUSH2 0x184 JUMP JUMPDEST PUSH1 0x40 MLOAD PUSH2 0xD6 SWAP2 SWAP1 PUSH2 0x356 JUMP JUMPDEST PUSH1 0x40 MLOAD DUP1 SWAP2 SUB SWAP1 RETURN JUMPDEST PUSH2 0xF9 PUSH1 0x4 DUP1 CALLDATASIZE SUB DUP2 ADD SWAP1 PUSH2 0xF4 SWAP2 SWAP1 PUSH2 0x28A JUMP JUMPDEST PUSH2 0x212 JUMP JUMPDEST STOP JUMPDEST PUSH2 0x115 PUSH1 0x4 DUP1 CALLDATASIZE SUB DUP2 ADD SWAP1 PUSH2 0x110 SWAP2 SWAP1 PUSH2 0x2B7 JUMP JUMPDEST PUSH2 0x256 JUMP JUMPDEST STOP JUMPDEST PUSH1 0x0 SLOAD DUP2 JUMP JUMPDEST PUSH1 0x0 PUSH1 0x1 PUSH1 0x0 SWAP1 SLOAD SWAP1 PUSH2 0x100 EXP SWAP1 DIV PUSH20 0xFFFFFFFFFFFFFFFFFFFFFFFFFFFFFFFFFFFFFFFF AND PUSH20 0xFFFFFFFFFFFFFFFFFFFFFFFFFFFFFFFFFFFFFFFF AND BALANCE SWAP1 POP SWAP1 JUMP JUMPDEST PUSH1 0x1 PUSH1 0x0 SWAP1 SLOAD SWAP1 PUSH2 0x100 EXP SWAP1 DIV PUSH20 0xFFFFFFFFFFFFFFFFFFFFFFFFFFFFFFFFFFFFFFFF AND DUP2 JUMP JUMPDEST PUSH1 0x2 DUP1 SLOAD PUSH2 0x191 SWAP1 PUSH2 0x41E JUMP JUMPDEST DUP1 PUSH1 0x1F ADD PUSH1 0x20 DUP1 SWAP2 DIV MUL PUSH1 0x20 ADD PUSH1 0x40 MLOAD SWAP1 DUP2 ADD PUSH1 0x40 MSTORE DUP1 SWAP3 SWAP2 SWAP1 DUP2 DUP2 MSTORE PUSH1 0x20 ADD DUP3 DUP1 SLOAD PUSH2 0x1BD SWAP1 PUSH2 0x41E JUMP JUMPDEST DUP1 ISZERO PUSH2 0x20A JUMPI DUP1 PUSH1 0x1F LT PUSH2 0x1DF JUMPI PUSH2 0x100 DUP1 DUP4 SLOAD DIV MUL DUP4 MSTORE SWAP2 PUSH1 0x20 ADD SWAP2 PUSH2 0x20A JUMP JUMPDEST DUP3 ADD SWAP2 SWAP1 PUSH1 0x0 MSTORE PUSH1 0x20 PUSH1 0x0 KECCAK256 SWAP1 JUMPDEST DUP2 SLOAD DUP2 MSTORE SWAP1 PUSH1 0x1 ADD SWAP1 PUSH1 0x20 ADD DUP1 DUP4 GT PUSH2 0x1ED JUMPI DUP3 SWAP1 SUB PUSH1 0x1F AND DUP3 ADD SWAP2 JUMPDEST POP POP POP POP POP DUP2 JUMP JUMPDEST DUP1 PUSH1 0x1 PUSH1 0x0 PUSH2 0x100 EXP DUP2 SLOAD DUP2 PUSH20 0xFFFFFFFFFFFFFFFFFFFFFFFFFFFFFFFFFFFFFFFF MUL NOT AND SWAP1 DUP4 PUSH20 0xFFFFFFFFFFFFFFFFFFFFFFFFFFFFFFFFFFFFFFFF AND MUL OR SWAP1 SSTORE POP POP JUMP JUMPDEST DUP1 PUSH1 0x0 DUP2 SWAP1 SSTORE POP POP JUMP JUMPDEST PUSH1 0x0 DUP2 CALLDATALOAD SWAP1 POP PUSH2 0x26F DUP2 PUSH2 0x495 JUMP JUMPDEST SWAP3 SWAP2 POP POP JUMP JUMPDEST PUSH1 0x0 DUP2 CALLDATALOAD SWAP1 POP PUSH2 0x284 DUP2 PUSH2 0x4AC JUMP JUMPDEST SWAP3 SWAP2 POP POP JUMP JUMPDEST PUSH1 0x0 PUSH1 0x20 DUP3 DUP5 SUB SLT ISZERO PUSH2 0x2A0 JUMPI PUSH2 0x29F PUSH2 0x47F JUMP JUMPDEST JUMPDEST PUSH1 0x0 PUSH2 0x2AE DUP5 DUP3 DUP6 ADD PUSH2 0x260 JUMP JUMPDEST SWAP2 POP POP SWAP3 SWAP2 POP POP JUMP JUMPDEST PUSH1 0x0 PUSH1 0x20 DUP3 DUP5 SUB SLT ISZERO PUSH2 0x2CD JUMPI PUSH2 0x2CC PUSH2 0x47F JUMP JUMPDEST JUMPDEST PUSH1 0x0 PUSH2 0x2DB DUP5 DUP3 DUP6 ADD PUSH2 0x275 JUMP JUMPDEST SWAP2 POP POP SWAP3 SWAP2 POP POP JUMP JUMPDEST PUSH2 0x2ED DUP2 PUSH2 0x3AF JUMP JUMPDEST DUP3 MSTORE POP POP JUMP JUMPDEST PUSH1 0x0 PUSH2 0x2FE DUP3 PUSH2 0x393 JUMP JUMPDEST PUSH2 0x308 DUP2 DUP6 PUSH2 0x39E JUMP JUMPDEST SWAP4 POP PUSH2 0x318 DUP2 DUP6 PUSH1 0x20 DUP7 ADD PUSH2 0x3EB JUMP JUMPDEST PUSH2 0x321 DUP2 PUSH2 0x484 JUMP JUMPDEST DUP5 ADD SWAP2 POP POP SWAP3 SWAP2 POP POP JUMP JUMPDEST PUSH2 0x335 DUP2 PUSH2 0x3E1 JUMP JUMPDEST DUP3 MSTORE POP POP JUMP JUMPDEST PUSH1 0x0 PUSH1 0x20 DUP3 ADD SWAP1 POP PUSH2 0x350 PUSH1 0x0 DUP4 ADD DUP5 PUSH2 0x2E4 JUMP JUMPDEST SWAP3 SWAP2 POP POP JUMP JUMPDEST PUSH1 0x0 PUSH1 0x20 DUP3 ADD SWAP1 POP DUP2 DUP2 SUB PUSH1 0x0 DUP4 ADD MSTORE PUSH2 0x370 DUP2 DUP5 PUSH2 0x2F3 JUMP JUMPDEST SWAP1 POP SWAP3 SWAP2 POP POP JUMP JUMPDEST PUSH1 0x0 PUSH1 0x20 DUP3 ADD SWAP1 POP PUSH2 0x38D PUSH1 0x0 DUP4 ADD DUP5 PUSH2 0x32C JUMP JUMPDEST SWAP3 SWAP2 POP POP JUMP JUMPDEST PUSH1 0x0 DUP2 MLOAD SWAP1 POP SWAP2 SWAP1 POP JUMP JUMPDEST PUSH1 0x0 DUP3 DUP3 MSTORE PUSH1 0x20 DUP3 ADD SWAP1 POP SWAP3 SWAP2 POP POP JUMP JUMPDEST PUSH1 0x0 PUSH2 0x3BA DUP3 PUSH2 0x3C1 JUMP JUMPDEST SWAP1 POP SWAP2 SWAP1 POP JUMP JUMPDEST PUSH1 0x0 PUSH20 0xFFFFFFFFFFFFFFFFFFFFFFFFFFFFFFFFFFFFFFFF DUP3 AND SWAP1 POP SWAP2 SWAP1 POP JUMP JUMPDEST PUSH1 0x0 DUP2 SWAP1 POP SWAP2 SWAP1 POP JUMP JUMPDEST PUSH1 0x0 JUMPDEST DUP4 DUP2 LT ISZERO PUSH2 0x409 JUMPI DUP1 DUP3 ADD MLOAD DUP2 DUP5 ADD MSTORE PUSH1 0x20 DUP2 ADD SWAP1 POP PUSH2 0x3EE JUMP JUMPDEST DUP4 DUP2 GT ISZERO PUSH2 0x418 JUMPI PUSH1 0x0 DUP5 DUP5 ADD MSTORE JUMPDEST POP POP POP POP JUMP JUMPDEST PUSH1 0x0 PUSH1 0x2 DUP3 DIV SWAP1 POP PUSH1 0x1 DUP3 AND DUP1 PUSH2 0x436 JUMPI PUSH1 0x7F DUP3 AND SWAP2 POP JUMPDEST PUSH1 0x20 DUP3 LT DUP2 EQ ISZERO PUSH2 0x44A JUMPI PUSH2 0x449 PUSH2 0x450 JUMP JUMPDEST JUMPDEST POP SWAP2 SWAP1 POP JUMP JUMPDEST PUSH32 0x4E487B7100000000000000000000000000000000000000000000000000000000 PUSH1 0x0 MSTORE PUSH1 0x22 PUSH1 0x4 MSTORE PUSH1 0x24 PUSH1 0x0 REVERT JUMPDEST PUSH1 0x0 DUP1 REVERT JUMPDEST PUSH1 0x0 PUSH1 0x1F NOT PUSH1 0x1F DUP4 ADD AND SWAP1 POP SWAP2 SWAP1 POP JUMP JUMPDEST PUSH2 0x49E DUP2 PUSH2 0x3AF JUMP JUMPDEST DUP2 EQ PUSH2 0x4A9 JUMPI PUSH1 0x0 DUP1 REVERT JUMPDEST POP JUMP JUMPDEST PUSH2 0x4B5 DUP2 PUSH2 0x3E1 JUMP JUMPDEST DUP2 EQ PUSH2 0x4C0 JUMPI PUSH1 0x0 DUP1 REVERT JUMPDEST POP JUMP INVALID LOG2 PUSH5 0x6970667358 0x22 SLT KECCAK256 PUSH23 0x532D869EFBA2E86868F10A9BCE31AD00EB1E6E049AAF72 AND 0x5D 0xB0 DUP9 DUP7 PUSH25 0x1AB364736F6C63430008070033000000000000000000000000 "
				},
				"gasEstimates": {
					"creation": {
						"codeDepositCost": "254600",
						"executionCost": "294",
						"totalCost": "254894"
					},
					"external": {
						"getBalanceOfAddress()": "5079",
						"myAddress()": "2536",
						"myString()": "infinite",
						"myUint()": "2407",
						"setMyAddress(address)": "24788",
						"setMyUint(uint256)": "22608"
					}
				},
				"methodIdentifiers": {
					"getBalanceOfAddress()": "15502612",
					"myAddress()": "26b85ee1",
					"myString()": "492bfa18",
					"myUint()": "06540f7e",
					"setMyAddress(address)": "a8a7b895",
					"setMyUint(uint256)": "e492fd84"
				}
			},
			"storageLayout": {
				"storage": [
					{
						"astId": 3,
						"contract": "CompileVariables.sol:WorkingWithVariables",
						"label": "myUint",
						"offset": 0,
						"slot": "0",
						"type": "t_uint256"
					},
					{
						"astId": 15,
						"contract": "CompileVariables.sol:WorkingWithVariables",
						"label": "myAddress",
						"offset": 0,
						"slot": "1",
						"type": "t_address"
					},
					{
						"astId": 36,
						"contract": "CompileVariables.sol:WorkingWithVariables",
						"label": "myString",
						"offset": 0,
						"slot": "2",
						"type": "t_string_storage"
					}
				],
				"types": {
					"t_address": {
						"encoding": "inplace",
						"label": "address",
						"numberOfBytes": "20"
					},
					"t_string_storage": {
						"encoding": "bytes",
						"label": "string",
						"numberOfBytes": "32"
					},
					"t_uint256": {
						"encoding": "inplace",
						"label": "uint256",
						"numberOfBytes": "32"
					}
				}
			},
			"userdoc": {
				"kind": "user",
				"methods": {},
				"version": 1
			}
		}
	}
}