{
	"MyStructExamples2.sol": {
		"MappingsStructExample": {
			"abi": [
				{
					"inputs": [],
					"name": "getBalance",
					"outputs": [
						{
							"internalType": "uint256",
							"name": "",
							"type": "uint256"
						}
					],
					"stateMutability": "view",
					"type": "function"
				},
				{
					"inputs": [],
					"name": "sendMoney",
					"outputs": [],
					"stateMutability": "payable",
					"type": "function"
				},
				{
					"inputs": [
						{
							"internalType": "address payable",
							"name": "_to",
							"type": "address"
						},
						{
							"internalType": "uint256",
							"name": "_amount",
							"type": "uint256"
						}
					],
					"name": "withdrawMoney",
					"outputs": [],
					"stateMutability": "nonpayable",
					"type": "function"
				}
			],
			"devdoc": {
				"kind": "dev",
				"methods": {},
				"version": 1
			},
			"evm": {
				"assembly": "    /* \"MyStructExamples2.sol\":64:874  contract MappingsStructExample {... */\n  mstore(0x40, 0x80)\n  callvalue\n  dup1\n  iszero\n  tag_1\n  jumpi\n  0x00\n  dup1\n  revert\ntag_1:\n  pop\n  dataSize(sub_0)\n  dup1\n  dataOffset(sub_0)\n  0x00\n  codecopy\n  0x00\n  return\nstop\n\nsub_0: assembly {\n        /* \"MyStructExamples2.sol\":64:874  contract MappingsStructExample {... */\n      mstore(0x40, 0x80)\n      jumpi(tag_1, lt(calldatasize, 0x04))\n      shr(0xe0, calldataload(0x00))\n      dup1\n      0x12065fe0\n      eq\n      tag_2\n      jumpi\n      dup1\n      0xcbedbf5a\n      eq\n      tag_3\n      jumpi\n      dup1\n      0xf274c897\n      eq\n      tag_4\n      jumpi\n    tag_1:\n      0x00\n      dup1\n      revert\n        /* \"MyStructExamples2.sol\":295:388  function getBalance() public view returns(uint) {... */\n    tag_2:\n      callvalue\n      dup1\n      iszero\n      tag_5\n      jumpi\n      0x00\n      dup1\n      revert\n    tag_5:\n      pop\n      tag_6\n      tag_7\n      jump\t// in\n    tag_6:\n      mload(0x40)\n      tag_8\n      swap2\n      swap1\n      tag_9\n      jump\t// in\n    tag_8:\n      mload(0x40)\n      dup1\n      swap2\n      sub\n      swap1\n      return\n        /* \"MyStructExamples2.sol\":394:599  function sendMoney() public payable {... */\n    tag_3:\n      tag_10\n      tag_11\n      jump\t// in\n    tag_10:\n      stop\n        /* \"MyStructExamples2.sol\":605:872  function withdrawMoney(address payable _to, uint _amount) public {... */\n    tag_4:\n      callvalue\n      dup1\n      iszero\n      tag_12\n      jumpi\n      0x00\n      dup1\n      revert\n    tag_12:\n      pop\n      tag_13\n      0x04\n      dup1\n      calldatasize\n      sub\n      dup2\n      add\n      swap1\n      tag_14\n      swap2\n      swap1\n      tag_15\n      jump\t// in\n    tag_14:\n      tag_16\n      jump\t// in\n    tag_13:\n      stop\n        /* \"MyStructExamples2.sol\":295:388  function getBalance() public view returns(uint) {... */\n    tag_7:\n        /* \"MyStructExamples2.sol\":337:341  uint */\n      0x00\n        /* \"MyStructExamples2.sol\":360:381  address(this).balance */\n      selfbalance\n        /* \"MyStructExamples2.sol\":353:381  return address(this).balance */\n      swap1\n      pop\n        /* \"MyStructExamples2.sol\":295:388  function getBalance() public view returns(uint) {... */\n      swap1\n      jump\t// out\n        /* \"MyStructExamples2.sol\":394:599  function sendMoney() public payable {... */\n    tag_11:\n        /* \"MyStructExamples2.sol\":467:476  msg.value */\n      callvalue\n        /* \"MyStructExamples2.sol\":437:443  Member */\n      0x00\n        /* \"MyStructExamples2.sol\":437:455  Member[msg.sender] */\n      dup1\n        /* \"MyStructExamples2.sol\":444:454  msg.sender */\n      caller\n        /* \"MyStructExamples2.sol\":437:455  Member[msg.sender] */\n      0xffffffffffffffffffffffffffffffffffffffff\n      and\n      0xffffffffffffffffffffffffffffffffffffffff\n      and\n      dup2\n      mstore\n      0x20\n      add\n      swap1\n      dup2\n      mstore\n      0x20\n      add\n      0x00\n      keccak256\n        /* \"MyStructExamples2.sol\":437:463  Member[msg.sender].balance */\n      0x00\n      add\n      0x00\n        /* \"MyStructExamples2.sol\":437:476  Member[msg.sender].balance += msg.value */\n      dup3\n      dup3\n      sload\n      tag_19\n      swap2\n      swap1\n      tag_20\n      jump\t// in\n    tag_19:\n      swap3\n      pop\n      pop\n      dup2\n      swap1\n      sstore\n      pop\n        /* \"MyStructExamples2.sol\":515:516  1 */\n      0x01\n        /* \"MyStructExamples2.sol\":483:489  Member */\n      0x00\n        /* \"MyStructExamples2.sol\":483:501  Member[msg.sender] */\n      dup1\n        /* \"MyStructExamples2.sol\":490:500  msg.sender */\n      caller\n        /* \"MyStructExamples2.sol\":483:501  Member[msg.sender] */\n      0xffffffffffffffffffffffffffffffffffffffff\n      and\n      0xffffffffffffffffffffffffffffffffffffffff\n      and\n      dup2\n      mstore\n      0x20\n      add\n      swap1\n      dup2\n      mstore\n      0x20\n      add\n      0x00\n      keccak256\n        /* \"MyStructExamples2.sol\":483:513  Member[msg.sender].numPayments */\n      0x01\n      add\n      0x00\n        /* \"MyStructExamples2.sol\":483:516  Member[msg.sender].numPayments+=1 */\n      dup3\n      dup3\n      sload\n      tag_21\n      swap2\n      swap1\n      tag_22\n      jump\t// in\n    tag_21:\n      swap3\n      pop\n      pop\n      dup2\n      swap1\n      sstore\n      pop\n        /* \"MyStructExamples2.sol\":583:592  msg.value */\n      callvalue\n        /* \"MyStructExamples2.sol\":523:529  Member */\n      0x00\n        /* \"MyStructExamples2.sol\":523:541  Member[msg.sender] */\n      dup1\n        /* \"MyStructExamples2.sol\":530:540  msg.sender */\n      caller\n        /* \"MyStructExamples2.sol\":523:541  Member[msg.sender] */\n      0xffffffffffffffffffffffffffffffffffffffff\n      and\n      0xffffffffffffffffffffffffffffffffffffffff\n      and\n      dup2\n      mstore\n      0x20\n      add\n      swap1\n      dup2\n      mstore\n      0x20\n      add\n      0x00\n      keccak256\n        /* \"MyStructExamples2.sol\":523:550  Member[msg.sender].payments */\n      0x03\n      add\n        /* \"MyStructExamples2.sol\":523:582  Member[msg.sender].payments[Member[msg.sender].numPayments] */\n      0x00\n        /* \"MyStructExamples2.sol\":551:557  Member */\n      dup1\n        /* \"MyStructExamples2.sol\":551:569  Member[msg.sender] */\n      0x00\n        /* \"MyStructExamples2.sol\":558:568  msg.sender */\n      caller\n        /* \"MyStructExamples2.sol\":551:569  Member[msg.sender] */\n      0xffffffffffffffffffffffffffffffffffffffff\n      and\n      0xffffffffffffffffffffffffffffffffffffffff\n      and\n      dup2\n      mstore\n      0x20\n      add\n      swap1\n      dup2\n      mstore\n      0x20\n      add\n      0x00\n      keccak256\n        /* \"MyStructExamples2.sol\":551:581  Member[msg.sender].numPayments */\n      0x01\n      add\n      sload\n        /* \"MyStructExamples2.sol\":523:582  Member[msg.sender].payments[Member[msg.sender].numPayments] */\n      dup2\n      mstore\n      0x20\n      add\n      swap1\n      dup2\n      mstore\n      0x20\n      add\n      0x00\n      keccak256\n        /* \"MyStructExamples2.sol\":523:592  Member[msg.sender].payments[Member[msg.sender].numPayments]=msg.value */\n      dup2\n      swap1\n      sstore\n      pop\n        /* \"MyStructExamples2.sol\":394:599  function sendMoney() public payable {... */\n      jump\t// out\n        /* \"MyStructExamples2.sol\":605:872  function withdrawMoney(address payable _to, uint _amount) public {... */\n    tag_16:\n        /* \"MyStructExamples2.sol\":718:725  _amount */\n      dup1\n        /* \"MyStructExamples2.sol\":688:694  Member */\n      0x00\n        /* \"MyStructExamples2.sol\":688:706  Member[msg.sender] */\n      dup1\n        /* \"MyStructExamples2.sol\":695:705  msg.sender */\n      caller\n        /* \"MyStructExamples2.sol\":688:706  Member[msg.sender] */\n      0xffffffffffffffffffffffffffffffffffffffff\n      and\n      0xffffffffffffffffffffffffffffffffffffffff\n      and\n      dup2\n      mstore\n      0x20\n      add\n      swap1\n      dup2\n      mstore\n      0x20\n      add\n      0x00\n      keccak256\n        /* \"MyStructExamples2.sol\":688:714  Member[msg.sender].balance */\n      0x00\n      add\n      sload\n        /* \"MyStructExamples2.sol\":688:725  Member[msg.sender].balance >= _amount */\n      lt\n      iszero\n        /* \"MyStructExamples2.sol\":680:745  require(Member[msg.sender].balance >= _amount,\"Not enough funds\") */\n      tag_24\n      jumpi\n      mload(0x40)\n      0x08c379a000000000000000000000000000000000000000000000000000000000\n      dup2\n      mstore\n      0x04\n      add\n      tag_25\n      swap1\n      tag_26\n      jump\t// in\n    tag_25:\n      mload(0x40)\n      dup1\n      swap2\n      sub\n      swap1\n      revert\n    tag_24:\n        /* \"MyStructExamples2.sol\":755:773  uint BalanceToSend */\n      0x00\n        /* \"MyStructExamples2.sol\":774:781  _amount */\n      dup2\n        /* \"MyStructExamples2.sol\":755:781  uint BalanceToSend=_amount */\n      swap1\n      pop\n        /* \"MyStructExamples2.sol\":821:828  _amount */\n      dup2\n        /* \"MyStructExamples2.sol\":791:797  Member */\n      0x00\n        /* \"MyStructExamples2.sol\":791:809  Member[msg.sender] */\n      dup1\n        /* \"MyStructExamples2.sol\":798:808  msg.sender */\n      caller\n        /* \"MyStructExamples2.sol\":791:809  Member[msg.sender] */\n      0xffffffffffffffffffffffffffffffffffffffff\n      and\n      0xffffffffffffffffffffffffffffffffffffffff\n      and\n      dup2\n      mstore\n      0x20\n      add\n      swap1\n      dup2\n      mstore\n      0x20\n      add\n      0x00\n      keccak256\n        /* \"MyStructExamples2.sol\":791:817  Member[msg.sender].balance */\n      0x00\n      add\n      0x00\n        /* \"MyStructExamples2.sol\":791:828  Member[msg.sender].balance -= _amount */\n      dup3\n      dup3\n      sload\n      tag_27\n      swap2\n      swap1\n      tag_28\n      jump\t// in\n    tag_27:\n      swap3\n      pop\n      pop\n      dup2\n      swap1\n      sstore\n      pop\n        /* \"MyStructExamples2.sol\":838:841  _to */\n      dup3\n        /* \"MyStructExamples2.sol\":838:850  _to.transfer */\n      0xffffffffffffffffffffffffffffffffffffffff\n      and\n        /* \"MyStructExamples2.sol\":838:865  _to.transfer(BalanceToSend) */\n      0x08fc\n        /* \"MyStructExamples2.sol\":851:864  BalanceToSend */\n      dup3\n        /* \"MyStructExamples2.sol\":838:865  _to.transfer(BalanceToSend) */\n      swap1\n      dup2\n      iszero\n      mul\n      swap1\n      mload(0x40)\n      0x00\n      mload(0x40)\n      dup1\n      dup4\n      sub\n      dup2\n      dup6\n      dup9\n      dup9\n      call\n      swap4\n      pop\n      pop\n      pop\n      pop\n      iszero\n      dup1\n      iszero\n      tag_30\n      jumpi\n      returndatasize\n      0x00\n      dup1\n      returndatacopy\n      revert(0x00, returndatasize)\n    tag_30:\n      pop\n        /* \"MyStructExamples2.sol\":670:872  {... */\n      pop\n        /* \"MyStructExamples2.sol\":605:872  function withdrawMoney(address payable _to, uint _amount) public {... */\n      pop\n      pop\n      jump\t// out\n        /* \"#utility.yul\":7:84   */\n    tag_31:\n        /* \"#utility.yul\":44:51   */\n      0x00\n        /* \"#utility.yul\":73:78   */\n      dup2\n        /* \"#utility.yul\":62:78   */\n      swap1\n      pop\n        /* \"#utility.yul\":7:84   */\n      swap2\n      swap1\n      pop\n      jump\t// out\n        /* \"#utility.yul\":90:208   */\n    tag_32:\n        /* \"#utility.yul\":177:201   */\n      tag_50\n        /* \"#utility.yul\":195:200   */\n      dup2\n        /* \"#utility.yul\":177:201   */\n      tag_31\n      jump\t// in\n    tag_50:\n        /* \"#utility.yul\":172:175   */\n      dup3\n        /* \"#utility.yul\":165:202   */\n      mstore\n        /* \"#utility.yul\":90:208   */\n      pop\n      pop\n      jump\t// out\n        /* \"#utility.yul\":214:436   */\n    tag_9:\n        /* \"#utility.yul\":307:311   */\n      0x00\n        /* \"#utility.yul\":345:347   */\n      0x20\n        /* \"#utility.yul\":334:343   */\n      dup3\n        /* \"#utility.yul\":330:348   */\n      add\n        /* \"#utility.yul\":322:348   */\n      swap1\n      pop\n        /* \"#utility.yul\":358:429   */\n      tag_52\n        /* \"#utility.yul\":426:427   */\n      0x00\n        /* \"#utility.yul\":415:424   */\n      dup4\n        /* \"#utility.yul\":411:428   */\n      add\n        /* \"#utility.yul\":402:408   */\n      dup5\n        /* \"#utility.yul\":358:429   */\n      tag_32\n      jump\t// in\n    tag_52:\n        /* \"#utility.yul\":214:436   */\n      swap3\n      swap2\n      pop\n      pop\n      jump\t// out\n        /* \"#utility.yul\":523:640   */\n    tag_34:\n        /* \"#utility.yul\":632:633   */\n      0x00\n        /* \"#utility.yul\":629:630   */\n      dup1\n        /* \"#utility.yul\":622:634   */\n      revert\n        /* \"#utility.yul\":769:895   */\n    tag_36:\n        /* \"#utility.yul\":806:813   */\n      0x00\n        /* \"#utility.yul\":846:888   */\n      0xffffffffffffffffffffffffffffffffffffffff\n        /* \"#utility.yul\":839:844   */\n      dup3\n        /* \"#utility.yul\":835:889   */\n      and\n        /* \"#utility.yul\":824:889   */\n      swap1\n      pop\n        /* \"#utility.yul\":769:895   */\n      swap2\n      swap1\n      pop\n      jump\t// out\n        /* \"#utility.yul\":901:1005   */\n    tag_37:\n        /* \"#utility.yul\":946:953   */\n      0x00\n        /* \"#utility.yul\":975:999   */\n      tag_58\n        /* \"#utility.yul\":993:998   */\n      dup3\n        /* \"#utility.yul\":975:999   */\n      tag_36\n      jump\t// in\n    tag_58:\n        /* \"#utility.yul\":964:999   */\n      swap1\n      pop\n        /* \"#utility.yul\":901:1005   */\n      swap2\n      swap1\n      pop\n      jump\t// out\n        /* \"#utility.yul\":1011:1149   */\n    tag_38:\n        /* \"#utility.yul\":1092:1124   */\n      tag_60\n        /* \"#utility.yul\":1118:1123   */\n      dup2\n        /* \"#utility.yul\":1092:1124   */\n      tag_37\n      jump\t// in\n    tag_60:\n        /* \"#utility.yul\":1085:1090   */\n      dup2\n        /* \"#utility.yul\":1082:1125   */\n      eq\n        /* \"#utility.yul\":1072:1143   */\n      tag_61\n      jumpi\n        /* \"#utility.yul\":1139:1140   */\n      0x00\n        /* \"#utility.yul\":1136:1137   */\n      dup1\n        /* \"#utility.yul\":1129:1141   */\n      revert\n        /* \"#utility.yul\":1072:1143   */\n    tag_61:\n        /* \"#utility.yul\":1011:1149   */\n      pop\n      jump\t// out\n        /* \"#utility.yul\":1155:1310   */\n    tag_39:\n        /* \"#utility.yul\":1209:1214   */\n      0x00\n        /* \"#utility.yul\":1247:1253   */\n      dup2\n        /* \"#utility.yul\":1234:1254   */\n      calldataload\n        /* \"#utility.yul\":1225:1254   */\n      swap1\n      pop\n        /* \"#utility.yul\":1263:1304   */\n      tag_63\n        /* \"#utility.yul\":1298:1303   */\n      dup2\n        /* \"#utility.yul\":1263:1304   */\n      tag_38\n      jump\t// in\n    tag_63:\n        /* \"#utility.yul\":1155:1310   */\n      swap3\n      swap2\n      pop\n      pop\n      jump\t// out\n        /* \"#utility.yul\":1316:1438   */\n    tag_40:\n        /* \"#utility.yul\":1389:1413   */\n      tag_65\n        /* \"#utility.yul\":1407:1412   */\n      dup2\n        /* \"#utility.yul\":1389:1413   */\n      tag_31\n      jump\t// in\n    tag_65:\n        /* \"#utility.yul\":1382:1387   */\n      dup2\n        /* \"#utility.yul\":1379:1414   */\n      eq\n        /* \"#utility.yul\":1369:1432   */\n      tag_66\n      jumpi\n        /* \"#utility.yul\":1428:1429   */\n      0x00\n        /* \"#utility.yul\":1425:1426   */\n      dup1\n        /* \"#utility.yul\":1418:1430   */\n      revert\n        /* \"#utility.yul\":1369:1432   */\n    tag_66:\n        /* \"#utility.yul\":1316:1438   */\n      pop\n      jump\t// out\n        /* \"#utility.yul\":1444:1583   */\n    tag_41:\n        /* \"#utility.yul\":1490:1495   */\n      0x00\n        /* \"#utility.yul\":1528:1534   */\n      dup2\n        /* \"#utility.yul\":1515:1535   */\n      calldataload\n        /* \"#utility.yul\":1506:1535   */\n      swap1\n      pop\n        /* \"#utility.yul\":1544:1577   */\n      tag_68\n        /* \"#utility.yul\":1571:1576   */\n      dup2\n        /* \"#utility.yul\":1544:1577   */\n      tag_40\n      jump\t// in\n    tag_68:\n        /* \"#utility.yul\":1444:1583   */\n      swap3\n      swap2\n      pop\n      pop\n      jump\t// out\n        /* \"#utility.yul\":1589:2079   */\n    tag_15:\n        /* \"#utility.yul\":1665:1671   */\n      0x00\n        /* \"#utility.yul\":1673:1679   */\n      dup1\n        /* \"#utility.yul\":1722:1724   */\n      0x40\n        /* \"#utility.yul\":1710:1719   */\n      dup4\n        /* \"#utility.yul\":1701:1708   */\n      dup6\n        /* \"#utility.yul\":1697:1720   */\n      sub\n        /* \"#utility.yul\":1693:1725   */\n      slt\n        /* \"#utility.yul\":1690:1809   */\n      iszero\n      tag_70\n      jumpi\n        /* \"#utility.yul\":1728:1807   */\n      tag_71\n      tag_34\n      jump\t// in\n    tag_71:\n        /* \"#utility.yul\":1690:1809   */\n    tag_70:\n        /* \"#utility.yul\":1848:1849   */\n      0x00\n        /* \"#utility.yul\":1873:1934   */\n      tag_72\n        /* \"#utility.yul\":1926:1933   */\n      dup6\n        /* \"#utility.yul\":1917:1923   */\n      dup3\n        /* \"#utility.yul\":1906:1915   */\n      dup7\n        /* \"#utility.yul\":1902:1924   */\n      add\n        /* \"#utility.yul\":1873:1934   */\n      tag_39\n      jump\t// in\n    tag_72:\n        /* \"#utility.yul\":1863:1934   */\n      swap3\n      pop\n        /* \"#utility.yul\":1819:1944   */\n      pop\n        /* \"#utility.yul\":1983:1985   */\n      0x20\n        /* \"#utility.yul\":2009:2062   */\n      tag_73\n        /* \"#utility.yul\":2054:2061   */\n      dup6\n        /* \"#utility.yul\":2045:2051   */\n      dup3\n        /* \"#utility.yul\":2034:2043   */\n      dup7\n        /* \"#utility.yul\":2030:2052   */\n      add\n        /* \"#utility.yul\":2009:2062   */\n      tag_41\n      jump\t// in\n    tag_73:\n        /* \"#utility.yul\":1999:2062   */\n      swap2\n      pop\n        /* \"#utility.yul\":1954:2072   */\n      pop\n        /* \"#utility.yul\":1589:2079   */\n      swap3\n      pop\n      swap3\n      swap1\n      pop\n      jump\t// out\n        /* \"#utility.yul\":2085:2265   */\n    tag_42:\n        /* \"#utility.yul\":2133:2210   */\n      0x4e487b7100000000000000000000000000000000000000000000000000000000\n        /* \"#utility.yul\":2130:2131   */\n      0x00\n        /* \"#utility.yul\":2123:2211   */\n      mstore\n        /* \"#utility.yul\":2230:2234   */\n      0x11\n        /* \"#utility.yul\":2227:2228   */\n      0x04\n        /* \"#utility.yul\":2220:2235   */\n      mstore\n        /* \"#utility.yul\":2254:2258   */\n      0x24\n        /* \"#utility.yul\":2251:2252   */\n      0x00\n        /* \"#utility.yul\":2244:2259   */\n      revert\n        /* \"#utility.yul\":2271:2462   */\n    tag_20:\n        /* \"#utility.yul\":2311:2314   */\n      0x00\n        /* \"#utility.yul\":2330:2350   */\n      tag_76\n        /* \"#utility.yul\":2348:2349   */\n      dup3\n        /* \"#utility.yul\":2330:2350   */\n      tag_31\n      jump\t// in\n    tag_76:\n        /* \"#utility.yul\":2325:2350   */\n      swap2\n      pop\n        /* \"#utility.yul\":2364:2384   */\n      tag_77\n        /* \"#utility.yul\":2382:2383   */\n      dup4\n        /* \"#utility.yul\":2364:2384   */\n      tag_31\n      jump\t// in\n    tag_77:\n        /* \"#utility.yul\":2359:2384   */\n      swap3\n      pop\n        /* \"#utility.yul\":2407:2408   */\n      dup3\n        /* \"#utility.yul\":2404:2405   */\n      dup3\n        /* \"#utility.yul\":2400:2409   */\n      add\n        /* \"#utility.yul\":2393:2409   */\n      swap1\n      pop\n        /* \"#utility.yul\":2428:2431   */\n      dup1\n        /* \"#utility.yul\":2425:2426   */\n      dup3\n        /* \"#utility.yul\":2422:2432   */\n      gt\n        /* \"#utility.yul\":2419:2455   */\n      iszero\n      tag_78\n      jumpi\n        /* \"#utility.yul\":2435:2453   */\n      tag_79\n      tag_42\n      jump\t// in\n    tag_79:\n        /* \"#utility.yul\":2419:2455   */\n    tag_78:\n        /* \"#utility.yul\":2271:2462   */\n      swap3\n      swap2\n      pop\n      pop\n      jump\t// out\n        /* \"#utility.yul\":2468:2544   */\n    tag_43:\n        /* \"#utility.yul\":2504:2511   */\n      0x00\n        /* \"#utility.yul\":2533:2538   */\n      dup2\n        /* \"#utility.yul\":2522:2538   */\n      swap1\n      pop\n        /* \"#utility.yul\":2468:2544   */\n      swap2\n      swap1\n      pop\n      jump\t// out\n        /* \"#utility.yul\":2550:2925   */\n    tag_22:\n        /* \"#utility.yul\":2589:2592   */\n      0x00\n        /* \"#utility.yul\":2608:2627   */\n      tag_82\n        /* \"#utility.yul\":2625:2626   */\n      dup3\n        /* \"#utility.yul\":2608:2627   */\n      tag_43\n      jump\t// in\n    tag_82:\n        /* \"#utility.yul\":2603:2627   */\n      swap2\n      pop\n        /* \"#utility.yul\":2641:2660   */\n      tag_83\n        /* \"#utility.yul\":2658:2659   */\n      dup4\n        /* \"#utility.yul\":2641:2660   */\n      tag_43\n      jump\t// in\n    tag_83:\n        /* \"#utility.yul\":2636:2660   */\n      swap3\n      pop\n        /* \"#utility.yul\":2683:2684   */\n      dup3\n        /* \"#utility.yul\":2680:2681   */\n      dup3\n        /* \"#utility.yul\":2676:2685   */\n      add\n        /* \"#utility.yul\":2669:2685   */\n      swap1\n      pop\n        /* \"#utility.yul\":2881:2882   */\n      dup3\n        /* \"#utility.yul\":2876:2879   */\n      dup2\n        /* \"#utility.yul\":2872:2883   */\n      slt\n        /* \"#utility.yul\":2865:2884   */\n      iszero\n        /* \"#utility.yul\":2861:2862   */\n      0x00\n        /* \"#utility.yul\":2858:2859   */\n      dup4\n        /* \"#utility.yul\":2854:2863   */\n      slt\n        /* \"#utility.yul\":2850:2885   */\n      and\n        /* \"#utility.yul\":2833:2834   */\n      dup4\n        /* \"#utility.yul\":2828:2831   */\n      dup3\n        /* \"#utility.yul\":2824:2835   */\n      slt\n        /* \"#utility.yul\":2819:2820   */\n      0x00\n        /* \"#utility.yul\":2816:2817   */\n      dup5\n        /* \"#utility.yul\":2812:2821   */\n      slt\n        /* \"#utility.yul\":2805:2822   */\n      iszero\n        /* \"#utility.yul\":2801:2836   */\n      and\n        /* \"#utility.yul\":2785:2895   */\n      or\n        /* \"#utility.yul\":2782:2918   */\n      iszero\n      tag_84\n      jumpi\n        /* \"#utility.yul\":2898:2916   */\n      tag_85\n      tag_42\n      jump\t// in\n    tag_85:\n        /* \"#utility.yul\":2782:2918   */\n    tag_84:\n        /* \"#utility.yul\":2550:2925   */\n      swap3\n      swap2\n      pop\n      pop\n      jump\t// out\n        /* \"#utility.yul\":2931:3100   */\n    tag_44:\n        /* \"#utility.yul\":3015:3026   */\n      0x00\n        /* \"#utility.yul\":3049:3055   */\n      dup3\n        /* \"#utility.yul\":3044:3047   */\n      dup3\n        /* \"#utility.yul\":3037:3056   */\n      mstore\n        /* \"#utility.yul\":3089:3093   */\n      0x20\n        /* \"#utility.yul\":3084:3087   */\n      dup3\n        /* \"#utility.yul\":3080:3094   */\n      add\n        /* \"#utility.yul\":3065:3094   */\n      swap1\n      pop\n        /* \"#utility.yul\":2931:3100   */\n      swap3\n      swap2\n      pop\n      pop\n      jump\t// out\n        /* \"#utility.yul\":3106:3272   */\n    tag_45:\n        /* \"#utility.yul\":3246:3264   */\n      0x4e6f7420656e6f7567682066756e647300000000000000000000000000000000\n        /* \"#utility.yul\":3242:3243   */\n      0x00\n        /* \"#utility.yul\":3234:3240   */\n      dup3\n        /* \"#utility.yul\":3230:3244   */\n      add\n        /* \"#utility.yul\":3223:3265   */\n      mstore\n        /* \"#utility.yul\":3106:3272   */\n      pop\n      jump\t// out\n        /* \"#utility.yul\":3278:3644   */\n    tag_46:\n        /* \"#utility.yul\":3420:3423   */\n      0x00\n        /* \"#utility.yul\":3441:3508   */\n      tag_89\n        /* \"#utility.yul\":3505:3507   */\n      0x10\n        /* \"#utility.yul\":3500:3503   */\n      dup4\n        /* \"#utility.yul\":3441:3508   */\n      tag_44\n      jump\t// in\n    tag_89:\n        /* \"#utility.yul\":3434:3508   */\n      swap2\n      pop\n        /* \"#utility.yul\":3517:3610   */\n      tag_90\n        /* \"#utility.yul\":3606:3609   */\n      dup3\n        /* \"#utility.yul\":3517:3610   */\n      tag_45\n      jump\t// in\n    tag_90:\n        /* \"#utility.yul\":3635:3637   */\n      0x20\n        /* \"#utility.yul\":3630:3633   */\n      dup3\n        /* \"#utility.yul\":3626:3638   */\n      add\n        /* \"#utility.yul\":3619:3638   */\n      swap1\n      pop\n        /* \"#utility.yul\":3278:3644   */\n      swap2\n      swap1\n      pop\n      jump\t// out\n        /* \"#utility.yul\":3650:4069   */\n    tag_26:\n        /* \"#utility.yul\":3816:3820   */\n      0x00\n        /* \"#utility.yul\":3854:3856   */\n      0x20\n        /* \"#utility.yul\":3843:3852   */\n      dup3\n        /* \"#utility.yul\":3839:3857   */\n      add\n        /* \"#utility.yul\":3831:3857   */\n      swap1\n      pop\n        /* \"#utility.yul\":3903:3912   */\n      dup2\n        /* \"#utility.yul\":3897:3901   */\n      dup2\n        /* \"#utility.yul\":3893:3913   */\n      sub\n        /* \"#utility.yul\":3889:3890   */\n      0x00\n        /* \"#utility.yul\":3878:3887   */\n      dup4\n        /* \"#utility.yul\":3874:3891   */\n      add\n        /* \"#utility.yul\":3867:3914   */\n      mstore\n        /* \"#utility.yul\":3931:4062   */\n      tag_92\n        /* \"#utility.yul\":4057:4061   */\n      dup2\n        /* \"#utility.yul\":3931:4062   */\n      tag_46\n      jump\t// in\n    tag_92:\n        /* \"#utility.yul\":3923:4062   */\n      swap1\n      pop\n        /* \"#utility.yul\":3650:4069   */\n      swap2\n      swap1\n      pop\n      jump\t// out\n        /* \"#utility.yul\":4075:4269   */\n    tag_28:\n        /* \"#utility.yul\":4115:4119   */\n      0x00\n        /* \"#utility.yul\":4135:4155   */\n      tag_94\n        /* \"#utility.yul\":4153:4154   */\n      dup3\n        /* \"#utility.yul\":4135:4155   */\n      tag_31\n      jump\t// in\n    tag_94:\n        /* \"#utility.yul\":4130:4155   */\n      swap2\n      pop\n        /* \"#utility.yul\":4169:4189   */\n      tag_95\n        /* \"#utility.yul\":4187:4188   */\n      dup4\n        /* \"#utility.yul\":4169:4189   */\n      tag_31\n      jump\t// in\n    tag_95:\n        /* \"#utility.yul\":4164:4189   */\n      swap3\n      pop\n        /* \"#utility.yul\":4213:4214   */\n      dup3\n        /* \"#utility.yul\":4210:4211   */\n      dup3\n        /* \"#utility.yul\":4206:4215   */\n      sub\n        /* \"#utility.yul\":4198:4215   */\n      swap1\n      pop\n        /* \"#utility.yul\":4237:4238   */\n      dup2\n        /* \"#utility.yul\":4231:4235   */\n      dup2\n        /* \"#utility.yul\":4228:4239   */\n      gt\n        /* \"#utility.yul\":4225:4262   */\n      iszero\n      tag_96\n      jumpi\n        /* \"#utility.yul\":4242:4260   */\n      tag_97\n      tag_42\n      jump\t// in\n    tag_97:\n        /* \"#utility.yul\":4225:4262   */\n    tag_96:\n        /* \"#utility.yul\":4075:4269   */\n      swap3\n      swap2\n      pop\n      pop\n      jump\t// out\n\n    auxdata: 0xa2646970667358221220747ce1e54d6bb3b057234f68ee44cba4675f5ab7b266ba80f8b58c21964099a264736f6c63430008100033\n}\n",
				"bytecode": {
					"linkReferences": {},
					"object": "608060405234801561001057600080fd5b506105b2806100206000396000f3fe6080604052600436106100345760003560e01c806312065fe014610039578063cbedbf5a14610064578063f274c8971461006e575b600080fd5b34801561004557600080fd5b5061004e610097565b60405161005b9190610330565b60405180910390f35b61006c61009f565b005b34801561007a57600080fd5b50610095600480360381019061009091906103da565b6101ea565b005b600047905090565b346000803373ffffffffffffffffffffffffffffffffffffffff1673ffffffffffffffffffffffffffffffffffffffff16815260200190815260200160002060000160008282546100f09190610449565b9250508190555060016000803373ffffffffffffffffffffffffffffffffffffffff1673ffffffffffffffffffffffffffffffffffffffff16815260200190815260200160002060010160008282546101499190610487565b92505081905550346000803373ffffffffffffffffffffffffffffffffffffffff1673ffffffffffffffffffffffffffffffffffffffff16815260200190815260200160002060030160008060003373ffffffffffffffffffffffffffffffffffffffff1673ffffffffffffffffffffffffffffffffffffffff16815260200190815260200160002060010154815260200190815260200160002081905550565b806000803373ffffffffffffffffffffffffffffffffffffffff1673ffffffffffffffffffffffffffffffffffffffff16815260200190815260200160002060000154101561026e576040517f08c379a000000000000000000000000000000000000000000000000000000000815260040161026590610528565b60405180910390fd5b6000819050816000803373ffffffffffffffffffffffffffffffffffffffff1673ffffffffffffffffffffffffffffffffffffffff16815260200190815260200160002060000160008282546102c49190610548565b925050819055508273ffffffffffffffffffffffffffffffffffffffff166108fc829081150290604051600060405180830381858888f19350505050158015610311573d6000803e3d6000fd5b50505050565b6000819050919050565b61032a81610317565b82525050565b60006020820190506103456000830184610321565b92915050565b600080fd5b600073ffffffffffffffffffffffffffffffffffffffff82169050919050565b600061037b82610350565b9050919050565b61038b81610370565b811461039657600080fd5b50565b6000813590506103a881610382565b92915050565b6103b781610317565b81146103c257600080fd5b50565b6000813590506103d4816103ae565b92915050565b600080604083850312156103f1576103f061034b565b5b60006103ff85828601610399565b9250506020610410858286016103c5565b9150509250929050565b7f4e487b7100000000000000000000000000000000000000000000000000000000600052601160045260246000fd5b600061045482610317565b915061045f83610317565b92508282019050808211156104775761047661041a565b5b92915050565b6000819050919050565b60006104928261047d565b915061049d8361047d565b9250828201905082811215600083121683821260008412151617156104c5576104c461041a565b5b92915050565b600082825260208201905092915050565b7f4e6f7420656e6f7567682066756e647300000000000000000000000000000000600082015250565b60006105126010836104cb565b915061051d826104dc565b602082019050919050565b6000602082019050818103600083015261054181610505565b9050919050565b600061055382610317565b915061055e83610317565b92508282039050818111156105765761057561041a565b5b9291505056fea2646970667358221220747ce1e54d6bb3b057234f68ee44cba4675f5ab7b266ba80f8b58c21964099a264736f6c63430008100033",
					"opcodes": "PUSH1 0x80 PUSH1 0x40 MSTORE CALLVALUE DUP1 ISZERO PUSH2 0x10 JUMPI PUSH1 0x0 DUP1 REVERT JUMPDEST POP PUSH2 0x5B2 DUP1 PUSH2 0x20 PUSH1 0x0 CODECOPY PUSH1 0x0 RETURN INVALID PUSH1 0x80 PUSH1 0x40 MSTORE PUSH1 0x4 CALLDATASIZE LT PUSH2 0x34 JUMPI PUSH1 0x0 CALLDATALOAD PUSH1 0xE0 SHR DUP1 PUSH4 0x12065FE0 EQ PUSH2 0x39 JUMPI DUP1 PUSH4 0xCBEDBF5A EQ PUSH2 0x64 JUMPI DUP1 PUSH4 0xF274C897 EQ PUSH2 0x6E JUMPI JUMPDEST PUSH1 0x0 DUP1 REVERT JUMPDEST CALLVALUE DUP1 ISZERO PUSH2 0x45 JUMPI PUSH1 0x0 DUP1 REVERT JUMPDEST POP PUSH2 0x4E PUSH2 0x97 JUMP JUMPDEST PUSH1 0x40 MLOAD PUSH2 0x5B SWAP2 SWAP1 PUSH2 0x330 JUMP JUMPDEST PUSH1 0x40 MLOAD DUP1 SWAP2 SUB SWAP1 RETURN JUMPDEST PUSH2 0x6C PUSH2 0x9F JUMP JUMPDEST STOP JUMPDEST CALLVALUE DUP1 ISZERO PUSH2 0x7A JUMPI PUSH1 0x0 DUP1 REVERT JUMPDEST POP PUSH2 0x95 PUSH1 0x4 DUP1 CALLDATASIZE SUB DUP2 ADD SWAP1 PUSH2 0x90 SWAP2 SWAP1 PUSH2 0x3DA JUMP JUMPDEST PUSH2 0x1EA JUMP JUMPDEST STOP JUMPDEST PUSH1 0x0 SELFBALANCE SWAP1 POP SWAP1 JUMP JUMPDEST CALLVALUE PUSH1 0x0 DUP1 CALLER PUSH20 0xFFFFFFFFFFFFFFFFFFFFFFFFFFFFFFFFFFFFFFFF AND PUSH20 0xFFFFFFFFFFFFFFFFFFFFFFFFFFFFFFFFFFFFFFFF AND DUP2 MSTORE PUSH1 0x20 ADD SWAP1 DUP2 MSTORE PUSH1 0x20 ADD PUSH1 0x0 KECCAK256 PUSH1 0x0 ADD PUSH1 0x0 DUP3 DUP3 SLOAD PUSH2 0xF0 SWAP2 SWAP1 PUSH2 0x449 JUMP JUMPDEST SWAP3 POP POP DUP2 SWAP1 SSTORE POP PUSH1 0x1 PUSH1 0x0 DUP1 CALLER PUSH20 0xFFFFFFFFFFFFFFFFFFFFFFFFFFFFFFFFFFFFFFFF AND PUSH20 0xFFFFFFFFFFFFFFFFFFFFFFFFFFFFFFFFFFFFFFFF AND DUP2 MSTORE PUSH1 0x20 ADD SWAP1 DUP2 MSTORE PUSH1 0x20 ADD PUSH1 0x0 KECCAK256 PUSH1 0x1 ADD PUSH1 0x0 DUP3 DUP3 SLOAD PUSH2 0x149 SWAP2 SWAP1 PUSH2 0x487 JUMP JUMPDEST SWAP3 POP POP DUP2 SWAP1 SSTORE POP CALLVALUE PUSH1 0x0 DUP1 CALLER PUSH20 0xFFFFFFFFFFFFFFFFFFFFFFFFFFFFFFFFFFFFFFFF AND PUSH20 0xFFFFFFFFFFFFFFFFFFFFFFFFFFFFFFFFFFFFFFFF AND DUP2 MSTORE PUSH1 0x20 ADD SWAP1 DUP2 MSTORE PUSH1 0x20 ADD PUSH1 0x0 KECCAK256 PUSH1 0x3 ADD PUSH1 0x0 DUP1 PUSH1 0x0 CALLER PUSH20 0xFFFFFFFFFFFFFFFFFFFFFFFFFFFFFFFFFFFFFFFF AND PUSH20 0xFFFFFFFFFFFFFFFFFFFFFFFFFFFFFFFFFFFFFFFF AND DUP2 MSTORE PUSH1 0x20 ADD SWAP1 DUP2 MSTORE PUSH1 0x20 ADD PUSH1 0x0 KECCAK256 PUSH1 0x1 ADD SLOAD DUP2 MSTORE PUSH1 0x20 ADD SWAP1 DUP2 MSTORE PUSH1 0x20 ADD PUSH1 0x0 KECCAK256 DUP2 SWAP1 SSTORE POP JUMP JUMPDEST DUP1 PUSH1 0x0 DUP1 CALLER PUSH20 0xFFFFFFFFFFFFFFFFFFFFFFFFFFFFFFFFFFFFFFFF AND PUSH20 0xFFFFFFFFFFFFFFFFFFFFFFFFFFFFFFFFFFFFFFFF AND DUP2 MSTORE PUSH1 0x20 ADD SWAP1 DUP2 MSTORE PUSH1 0x20 ADD PUSH1 0x0 KECCAK256 PUSH1 0x0 ADD SLOAD LT ISZERO PUSH2 0x26E JUMPI PUSH1 0x40 MLOAD PUSH32 0x8C379A000000000000000000000000000000000000000000000000000000000 DUP2 MSTORE PUSH1 0x4 ADD PUSH2 0x265 SWAP1 PUSH2 0x528 JUMP JUMPDEST PUSH1 0x40 MLOAD DUP1 SWAP2 SUB SWAP1 REVERT JUMPDEST PUSH1 0x0 DUP2 SWAP1 POP DUP2 PUSH1 0x0 DUP1 CALLER PUSH20 0xFFFFFFFFFFFFFFFFFFFFFFFFFFFFFFFFFFFFFFFF AND PUSH20 0xFFFFFFFFFFFFFFFFFFFFFFFFFFFFFFFFFFFFFFFF AND DUP2 MSTORE PUSH1 0x20 ADD SWAP1 DUP2 MSTORE PUSH1 0x20 ADD PUSH1 0x0 KECCAK256 PUSH1 0x0 ADD PUSH1 0x0 DUP3 DUP3 SLOAD PUSH2 0x2C4 SWAP2 SWAP1 PUSH2 0x548 JUMP JUMPDEST SWAP3 POP POP DUP2 SWAP1 SSTORE POP DUP3 PUSH20 0xFFFFFFFFFFFFFFFFFFFFFFFFFFFFFFFFFFFFFFFF AND PUSH2 0x8FC DUP3 SWAP1 DUP2 ISZERO MUL SWAP1 PUSH1 0x40 MLOAD PUSH1 0x0 PUSH1 0x40 MLOAD DUP1 DUP4 SUB DUP2 DUP6 DUP9 DUP9 CALL SWAP4 POP POP POP POP ISZERO DUP1 ISZERO PUSH2 0x311 JUMPI RETURNDATASIZE PUSH1 0x0 DUP1 RETURNDATACOPY RETURNDATASIZE PUSH1 0x0 REVERT JUMPDEST POP POP POP POP JUMP JUMPDEST PUSH1 0x0 DUP2 SWAP1 POP SWAP2 SWAP1 POP JUMP JUMPDEST PUSH2 0x32A DUP2 PUSH2 0x317 JUMP JUMPDEST DUP3 MSTORE POP POP JUMP JUMPDEST PUSH1 0x0 PUSH1 0x20 DUP3 ADD SWAP1 POP PUSH2 0x345 PUSH1 0x0 DUP4 ADD DUP5 PUSH2 0x321 JUMP JUMPDEST SWAP3 SWAP2 POP POP JUMP JUMPDEST PUSH1 0x0 DUP1 REVERT JUMPDEST PUSH1 0x0 PUSH20 0xFFFFFFFFFFFFFFFFFFFFFFFFFFFFFFFFFFFFFFFF DUP3 AND SWAP1 POP SWAP2 SWAP1 POP JUMP JUMPDEST PUSH1 0x0 PUSH2 0x37B DUP3 PUSH2 0x350 JUMP JUMPDEST SWAP1 POP SWAP2 SWAP1 POP JUMP JUMPDEST PUSH2 0x38B DUP2 PUSH2 0x370 JUMP JUMPDEST DUP2 EQ PUSH2 0x396 JUMPI PUSH1 0x0 DUP1 REVERT JUMPDEST POP JUMP JUMPDEST PUSH1 0x0 DUP2 CALLDATALOAD SWAP1 POP PUSH2 0x3A8 DUP2 PUSH2 0x382 JUMP JUMPDEST SWAP3 SWAP2 POP POP JUMP JUMPDEST PUSH2 0x3B7 DUP2 PUSH2 0x317 JUMP JUMPDEST DUP2 EQ PUSH2 0x3C2 JUMPI PUSH1 0x0 DUP1 REVERT JUMPDEST POP JUMP JUMPDEST PUSH1 0x0 DUP2 CALLDATALOAD SWAP1 POP PUSH2 0x3D4 DUP2 PUSH2 0x3AE JUMP JUMPDEST SWAP3 SWAP2 POP POP JUMP JUMPDEST PUSH1 0x0 DUP1 PUSH1 0x40 DUP4 DUP6 SUB SLT ISZERO PUSH2 0x3F1 JUMPI PUSH2 0x3F0 PUSH2 0x34B JUMP JUMPDEST JUMPDEST PUSH1 0x0 PUSH2 0x3FF DUP6 DUP3 DUP7 ADD PUSH2 0x399 JUMP JUMPDEST SWAP3 POP POP PUSH1 0x20 PUSH2 0x410 DUP6 DUP3 DUP7 ADD PUSH2 0x3C5 JUMP JUMPDEST SWAP2 POP POP SWAP3 POP SWAP3 SWAP1 POP JUMP JUMPDEST PUSH32 0x4E487B7100000000000000000000000000000000000000000000000000000000 PUSH1 0x0 MSTORE PUSH1 0x11 PUSH1 0x4 MSTORE PUSH1 0x24 PUSH1 0x0 REVERT JUMPDEST PUSH1 0x0 PUSH2 0x454 DUP3 PUSH2 0x317 JUMP JUMPDEST SWAP2 POP PUSH2 0x45F DUP4 PUSH2 0x317 JUMP JUMPDEST SWAP3 POP DUP3 DUP3 ADD SWAP1 POP DUP1 DUP3 GT ISZERO PUSH2 0x477 JUMPI PUSH2 0x476 PUSH2 0x41A JUMP JUMPDEST JUMPDEST SWAP3 SWAP2 POP POP JUMP JUMPDEST PUSH1 0x0 DUP2 SWAP1 POP SWAP2 SWAP1 POP JUMP JUMPDEST PUSH1 0x0 PUSH2 0x492 DUP3 PUSH2 0x47D JUMP JUMPDEST SWAP2 POP PUSH2 0x49D DUP4 PUSH2 0x47D JUMP JUMPDEST SWAP3 POP DUP3 DUP3 ADD SWAP1 POP DUP3 DUP2 SLT ISZERO PUSH1 0x0 DUP4 SLT AND DUP4 DUP3 SLT PUSH1 0x0 DUP5 SLT ISZERO AND OR ISZERO PUSH2 0x4C5 JUMPI PUSH2 0x4C4 PUSH2 0x41A JUMP JUMPDEST JUMPDEST SWAP3 SWAP2 POP POP JUMP JUMPDEST PUSH1 0x0 DUP3 DUP3 MSTORE PUSH1 0x20 DUP3 ADD SWAP1 POP SWAP3 SWAP2 POP POP JUMP JUMPDEST PUSH32 0x4E6F7420656E6F7567682066756E647300000000000000000000000000000000 PUSH1 0x0 DUP3 ADD MSTORE POP JUMP JUMPDEST PUSH1 0x0 PUSH2 0x512 PUSH1 0x10 DUP4 PUSH2 0x4CB JUMP JUMPDEST SWAP2 POP PUSH2 0x51D DUP3 PUSH2 0x4DC JUMP JUMPDEST PUSH1 0x20 DUP3 ADD SWAP1 POP SWAP2 SWAP1 POP JUMP JUMPDEST PUSH1 0x0 PUSH1 0x20 DUP3 ADD SWAP1 POP DUP2 DUP2 SUB PUSH1 0x0 DUP4 ADD MSTORE PUSH2 0x541 DUP2 PUSH2 0x505 JUMP JUMPDEST SWAP1 POP SWAP2 SWAP1 POP JUMP JUMPDEST PUSH1 0x0 PUSH2 0x553 DUP3 PUSH2 0x317 JUMP JUMPDEST SWAP2 POP PUSH2 0x55E DUP4 PUSH2 0x317 JUMP JUMPDEST SWAP3 POP DUP3 DUP3 SUB SWAP1 POP DUP2 DUP2 GT ISZERO PUSH2 0x576 JUMPI PUSH2 0x575 PUSH2 0x41A JUMP JUMPDEST JUMPDEST SWAP3 SWAP2 POP POP JUMP INVALID LOG2 PUSH5 0x6970667358 0x22 SLT KECCAK256 PUSH21 0x7CE1E54D6BB3B057234F68EE44CBA4675F5AB7B266 0xBA DUP1 0xF8 0xB5 DUP13 0x21 SWAP7 BLOCKHASH SWAP10 LOG2 PUSH5 0x736F6C6343 STOP ADDMOD LT STOP CALLER "
				},
				"gasEstimates": {
					"creation": {
						"codeDepositCost": "291600",
						"executionCost": "331",
						"totalCost": "291931"
					},
					"external": {
						"getBalance()": "317",
						"sendMoney()": "infinite",
						"withdrawMoney(address,uint256)": "infinite"
					}
				},
				"methodIdentifiers": {
					"getBalance()": "12065fe0",
					"sendMoney()": "cbedbf5a",
					"withdrawMoney(address,uint256)": "f274c897"
				}
			},
			"storageLayout": {
				"storage": [
					{
						"astId": 17,
						"contract": "MyStructExamples2.sol:MappingsStructExample",
						"label": "Member",
						"offset": 0,
						"slot": "0",
						"type": "t_mapping(t_address,t_struct(MemberDetails)12_storage)"
					}
				],
				"types": {
					"t_address": {
						"encoding": "inplace",
						"label": "address",
						"numberOfBytes": "20"
					},
					"t_bool": {
						"encoding": "inplace",
						"label": "bool",
						"numberOfBytes": "1"
					},
					"t_int256": {
						"encoding": "inplace",
						"label": "int256",
						"numberOfBytes": "32"
					},
					"t_mapping(t_address,t_struct(MemberDetails)12_storage)": {
						"encoding": "mapping",
						"key": "t_address",
						"label": "mapping(address => struct MappingsStructExample.MemberDetails)",
						"numberOfBytes": "32",
						"value": "t_struct(MemberDetails)12_storage"
					},
					"t_mapping(t_int256,t_uint256)": {
						"encoding": "mapping",
						"key": "t_int256",
						"label": "mapping(int256 => uint256)",
						"numberOfBytes": "32",
						"value": "t_uint256"
					},
					"t_struct(MemberDetails)12_storage": {
						"encoding": "inplace",
						"label": "struct MappingsStructExample.MemberDetails",
						"members": [
							{
								"astId": 3,
								"contract": "MyStructExamples2.sol:MappingsStructExample",
								"label": "balance",
								"offset": 0,
								"slot": "0",
								"type": "t_uint256"
							},
							{
								"astId": 5,
								"contract": "MyStructExamples2.sol:MappingsStructExample",
								"label": "numPayments",
								"offset": 0,
								"slot": "1",
								"type": "t_int256"
							},
							{
								"astId": 7,
								"contract": "MyStructExamples2.sol:MappingsStructExample",
								"label": "whitelist",
								"offset": 0,
								"slot": "2",
								"type": "t_bool"
							},
							{
								"astId": 11,
								"contract": "MyStructExamples2.sol:MappingsStructExample",
								"label": "payments",
								"offset": 0,
								"slot": "3",
								"type": "t_mapping(t_int256,t_uint256)"
							}
						],
						"numberOfBytes": "128"
					},
					"t_uint256": {
						"encoding": "inplace",
						"label": "uint256",
						"numberOfBytes": "32"
					}
				}
			},
			"userdoc": {
				"kind": "user",
				"methods": {},
				"version": 1
			}
		}
	}
}