{
	"MyProjectSharedWallet.sol": {
		"SharedWallet": {
			"abi": [
				{
					"inputs": [],
					"stateMutability": "nonpayable",
					"type": "constructor"
				},
				{
					"inputs": [
						{
							"internalType": "address payable",
							"name": "_to",
							"type": "address"
						},
						{
							"internalType": "uint256",
							"name": "_amount",
							"type": "uint256"
						}
					],
					"name": "ClaimMoney",
					"outputs": [],
					"stateMutability": "nonpayable",
					"type": "function"
				},
				{
					"inputs": [],
					"name": "SendMoney",
					"outputs": [],
					"stateMutability": "payable",
					"type": "function"
				},
				{
					"inputs": [
						{
							"internalType": "address",
							"name": "_beneficiary",
							"type": "address"
						},
						{
							"internalType": "uint256",
							"name": "_allowancePercentage",
							"type": "uint256"
						}
					],
					"name": "SetAllowance",
					"outputs": [],
					"stateMutability": "nonpayable",
					"type": "function"
				},
				{
					"inputs": [
						{
							"internalType": "address",
							"name": "",
							"type": "address"
						}
					],
					"name": "beneficiaries",
					"outputs": [
						{
							"internalType": "uint256",
							"name": "allowance",
							"type": "uint256"
						},
						{
							"internalType": "uint256",
							"name": "claimsMade",
							"type": "uint256"
						}
					],
					"stateMutability": "view",
					"type": "function"
				},
				{
					"inputs": [],
					"name": "contractBalance",
					"outputs": [
						{
							"internalType": "uint256",
							"name": "",
							"type": "uint256"
						}
					],
					"stateMutability": "view",
					"type": "function"
				},
				{
					"inputs": [],
					"name": "owner",
					"outputs": [
						{
							"internalType": "address",
							"name": "",
							"type": "address"
						}
					],
					"stateMutability": "view",
					"type": "function"
				},
				{
					"inputs": [
						{
							"internalType": "uint256",
							"name": "_amount",
							"type": "uint256"
						}
					],
					"name": "ownerWithdraw",
					"outputs": [],
					"stateMutability": "nonpayable",
					"type": "function"
				},
				{
					"inputs": [],
					"name": "totalAllowances",
					"outputs": [
						{
							"internalType": "uint256",
							"name": "",
							"type": "uint256"
						}
					],
					"stateMutability": "view",
					"type": "function"
				},
				{
					"inputs": [],
					"name": "totalClaims",
					"outputs": [
						{
							"internalType": "uint256",
							"name": "",
							"type": "uint256"
						}
					],
					"stateMutability": "view",
					"type": "function"
				}
			],
			"devdoc": {
				"kind": "dev",
				"methods": {},
				"version": 1
			},
			"evm": {
				"assembly": "    /* \"MyProjectSharedWallet.sol\":156:2495  contract SharedWallet {... */\n  mstore(0x40, 0x80)\n    /* \"MyProjectSharedWallet.sol\":765:814  constructor() {... */\n  callvalue\n  dup1\n  iszero\n  tag_1\n  jumpi\n  0x00\n  dup1\n  revert\ntag_1:\n  pop\n    /* \"MyProjectSharedWallet.sol\":797:807  msg.sender */\n  caller\n    /* \"MyProjectSharedWallet.sol\":789:794  owner */\n  0x00\n  dup1\n    /* \"MyProjectSharedWallet.sol\":789:807  owner = msg.sender */\n  0x0100\n  exp\n  dup2\n  sload\n  dup2\n  0xffffffffffffffffffffffffffffffffffffffff\n  mul\n  not\n  and\n  swap1\n  dup4\n  0xffffffffffffffffffffffffffffffffffffffff\n  and\n  mul\n  or\n  swap1\n  sstore\n  pop\n    /* \"MyProjectSharedWallet.sol\":156:2495  contract SharedWallet {... */\n  dataSize(sub_0)\n  dup1\n  dataOffset(sub_0)\n  0x00\n  codecopy\n  0x00\n  return\nstop\n\nsub_0: assembly {\n        /* \"MyProjectSharedWallet.sol\":156:2495  contract SharedWallet {... */\n      mstore(0x40, 0x80)\n      jumpi(tag_1, lt(calldatasize, 0x04))\n      shr(0xe0, calldataload(0x00))\n      dup1\n      0x33f707d1\n      gt\n      tag_11\n      jumpi\n      dup1\n      0x33f707d1\n      eq\n      tag_6\n      jumpi\n      dup1\n      0x3e7279a3\n      eq\n      tag_7\n      jumpi\n      dup1\n      0x41c61383\n      eq\n      tag_8\n      jumpi\n      dup1\n      0x8b7afe2e\n      eq\n      tag_9\n      jumpi\n      dup1\n      0x8da5cb5b\n      eq\n      tag_10\n      jumpi\n      jump(tag_1)\n    tag_11:\n      dup1\n      0x01567739\n      eq\n      tag_2\n      jumpi\n      dup1\n      0x05737314\n      eq\n      tag_3\n      jumpi\n      dup1\n      0x16a51305\n      eq\n      tag_4\n      jumpi\n      dup1\n      0x2d70db2f\n      eq\n      tag_5\n      jumpi\n    tag_1:\n      0x00\n      dup1\n      revert\n        /* \"MyProjectSharedWallet.sol\":449:508  mapping(address => BeneficiaryDetails) public beneficiaries */\n    tag_2:\n      callvalue\n      dup1\n      iszero\n      tag_12\n      jumpi\n      0x00\n      dup1\n      revert\n    tag_12:\n      pop\n      tag_13\n      0x04\n      dup1\n      calldatasize\n      sub\n      dup2\n      add\n      swap1\n      tag_14\n      swap2\n      swap1\n      tag_15\n      jump\t// in\n    tag_14:\n      tag_16\n      jump\t// in\n    tag_13:\n      mload(0x40)\n      tag_17\n      swap3\n      swap2\n      swap1\n      tag_18\n      jump\t// in\n    tag_17:\n      mload(0x40)\n      dup1\n      swap2\n      sub\n      swap1\n      return\n        /* \"MyProjectSharedWallet.sol\":1555:1647  function SendMoney() public payable {... */\n    tag_3:\n      tag_19\n      tag_20\n      jump\t// in\n    tag_19:\n      stop\n        /* \"MyProjectSharedWallet.sol\":555:582  uint public totalAllowances */\n    tag_4:\n      callvalue\n      dup1\n      iszero\n      tag_21\n      jumpi\n      0x00\n      dup1\n      revert\n    tag_21:\n      pop\n      tag_22\n      tag_23\n      jump\t// in\n    tag_22:\n      mload(0x40)\n      tag_24\n      swap2\n      swap1\n      tag_25\n      jump\t// in\n    tag_24:\n      mload(0x40)\n      dup1\n      swap2\n      sub\n      swap1\n      return\n        /* \"MyProjectSharedWallet.sol\":1653:2425  function ClaimMoney(address payable _to, uint _amount) public {... */\n    tag_5:\n      callvalue\n      dup1\n      iszero\n      tag_26\n      jumpi\n      0x00\n      dup1\n      revert\n    tag_26:\n      pop\n      tag_27\n      0x04\n      dup1\n      calldatasize\n      sub\n      dup2\n      add\n      swap1\n      tag_28\n      swap2\n      swap1\n      tag_29\n      jump\t// in\n    tag_28:\n      tag_30\n      jump\t// in\n    tag_27:\n      stop\n        /* \"MyProjectSharedWallet.sol\":2431:2493  function ownerWithdraw(uint _amount) public onlyOwner {... */\n    tag_6:\n      callvalue\n      dup1\n      iszero\n      tag_31\n      jumpi\n      0x00\n      dup1\n      revert\n    tag_31:\n      pop\n      tag_32\n      0x04\n      dup1\n      calldatasize\n      sub\n      dup2\n      add\n      swap1\n      tag_33\n      swap2\n      swap1\n      tag_34\n      jump\t// in\n    tag_33:\n      tag_35\n      jump\t// in\n    tag_32:\n      stop\n        /* \"MyProjectSharedWallet.sol\":1011:1517  function SetAllowance(address _beneficiary, uint _allowancePercentage) public onlyOwner {... */\n    tag_7:\n      callvalue\n      dup1\n      iszero\n      tag_36\n      jumpi\n      0x00\n      dup1\n      revert\n    tag_36:\n      pop\n      tag_37\n      0x04\n      dup1\n      calldatasize\n      sub\n      dup2\n      add\n      swap1\n      tag_38\n      swap2\n      swap1\n      tag_39\n      jump\t// in\n    tag_38:\n      tag_40\n      jump\t// in\n    tag_37:\n      stop\n        /* \"MyProjectSharedWallet.sol\":627:650  uint public totalClaims */\n    tag_8:\n      callvalue\n      dup1\n      iszero\n      tag_41\n      jumpi\n      0x00\n      dup1\n      revert\n    tag_41:\n      pop\n      tag_42\n      tag_43\n      jump\t// in\n    tag_42:\n      mload(0x40)\n      tag_44\n      swap2\n      swap1\n      tag_25\n      jump\t// in\n    tag_44:\n      mload(0x40)\n      dup1\n      swap2\n      sub\n      swap1\n      return\n        /* \"MyProjectSharedWallet.sol\":687:714  uint public contractBalance */\n    tag_9:\n      callvalue\n      dup1\n      iszero\n      tag_45\n      jumpi\n      0x00\n      dup1\n      revert\n    tag_45:\n      pop\n      tag_46\n      tag_47\n      jump\t// in\n    tag_46:\n      mload(0x40)\n      tag_48\n      swap2\n      swap1\n      tag_25\n      jump\t// in\n    tag_48:\n      mload(0x40)\n      dup1\n      swap2\n      sub\n      swap1\n      return\n        /* \"MyProjectSharedWallet.sol\":374:394  address public owner */\n    tag_10:\n      callvalue\n      dup1\n      iszero\n      tag_49\n      jumpi\n      0x00\n      dup1\n      revert\n    tag_49:\n      pop\n      tag_50\n      tag_51\n      jump\t// in\n    tag_50:\n      mload(0x40)\n      tag_52\n      swap2\n      swap1\n      tag_53\n      jump\t// in\n    tag_52:\n      mload(0x40)\n      dup1\n      swap2\n      sub\n      swap1\n      return\n        /* \"MyProjectSharedWallet.sol\":449:508  mapping(address => BeneficiaryDetails) public beneficiaries */\n    tag_16:\n      mstore(0x20, 0x01)\n      dup1\n      0x00\n      mstore\n      keccak256(0x00, 0x40)\n      0x00\n      swap2\n      pop\n      swap1\n      pop\n      dup1\n      0x00\n      add\n      sload\n      swap1\n      dup1\n      0x01\n      add\n      sload\n      swap1\n      pop\n      dup3\n      jump\t// out\n        /* \"MyProjectSharedWallet.sol\":1555:1647  function SendMoney() public payable {... */\n    tag_20:\n        /* \"MyProjectSharedWallet.sol\":1619:1640  address(this).balance */\n      selfbalance\n        /* \"MyProjectSharedWallet.sol\":1601:1616  contractBalance */\n      0x04\n        /* \"MyProjectSharedWallet.sol\":1601:1640  contractBalance = address(this).balance */\n      dup2\n      swap1\n      sstore\n      pop\n        /* \"MyProjectSharedWallet.sol\":1555:1647  function SendMoney() public payable {... */\n      jump\t// out\n        /* \"MyProjectSharedWallet.sol\":555:582  uint public totalAllowances */\n    tag_23:\n      sload(0x02)\n      dup2\n      jump\t// out\n        /* \"MyProjectSharedWallet.sol\":1653:2425  function ClaimMoney(address payable _to, uint _amount) public {... */\n    tag_30:\n        /* \"MyProjectSharedWallet.sol\":1747:1752  owner */\n      0x00\n      dup1\n      sload\n      swap1\n      0x0100\n      exp\n      swap1\n      div\n      0xffffffffffffffffffffffffffffffffffffffff\n      and\n        /* \"MyProjectSharedWallet.sol\":1733:1752  msg.sender != owner */\n      0xffffffffffffffffffffffffffffffffffffffff\n      and\n        /* \"MyProjectSharedWallet.sol\":1733:1743  msg.sender */\n      caller\n        /* \"MyProjectSharedWallet.sol\":1733:1752  msg.sender != owner */\n      0xffffffffffffffffffffffffffffffffffffffff\n      and\n      sub\n        /* \"MyProjectSharedWallet.sol\":1725:1799  require(msg.sender != owner, \"The owner should use wnerWithdraw function\") */\n      tag_56\n      jumpi\n      mload(0x40)\n      0x08c379a000000000000000000000000000000000000000000000000000000000\n      dup2\n      mstore\n      0x04\n      add\n      tag_57\n      swap1\n      tag_58\n      jump\t// in\n    tag_57:\n      mload(0x40)\n      dup1\n      swap2\n      sub\n      swap1\n      revert\n    tag_56:\n        /* \"MyProjectSharedWallet.sol\":1841:1842  0 */\n      0x00\n        /* \"MyProjectSharedWallet.sol\":1817:1838  address(this).balance */\n      selfbalance\n        /* \"MyProjectSharedWallet.sol\":1817:1842  address(this).balance > 0 */\n      gt\n        /* \"MyProjectSharedWallet.sol\":1809:1887  require(address(this).balance > 0, \"There is no money in the wallet to claim\") */\n      tag_59\n      jumpi\n      mload(0x40)\n      0x08c379a000000000000000000000000000000000000000000000000000000000\n      dup2\n      mstore\n      0x04\n      add\n      tag_60\n      swap1\n      tag_61\n      jump\t// in\n    tag_60:\n      mload(0x40)\n      dup1\n      swap2\n      sub\n      swap1\n      revert\n    tag_59:\n        /* \"MyProjectSharedWallet.sol\":1943:1944  0 */\n      0x00\n        /* \"MyProjectSharedWallet.sol\":1905:1918  beneficiaries */\n      0x01\n        /* \"MyProjectSharedWallet.sol\":1905:1930  beneficiaries[msg.sender] */\n      0x00\n        /* \"MyProjectSharedWallet.sol\":1919:1929  msg.sender */\n      caller\n        /* \"MyProjectSharedWallet.sol\":1905:1930  beneficiaries[msg.sender] */\n      0xffffffffffffffffffffffffffffffffffffffff\n      and\n      0xffffffffffffffffffffffffffffffffffffffff\n      and\n      dup2\n      mstore\n      0x20\n      add\n      swap1\n      dup2\n      mstore\n      0x20\n      add\n      0x00\n      keccak256\n        /* \"MyProjectSharedWallet.sol\":1905:1940  beneficiaries[msg.sender].allowance */\n      0x00\n      add\n      sload\n        /* \"MyProjectSharedWallet.sol\":1905:1944  beneficiaries[msg.sender].allowance > 0 */\n      gt\n        /* \"MyProjectSharedWallet.sol\":1897:1977  require(beneficiaries[msg.sender].allowance > 0,\"You do not have any allowance\") */\n      tag_62\n      jumpi\n      mload(0x40)\n      0x08c379a000000000000000000000000000000000000000000000000000000000\n      dup2\n      mstore\n      0x04\n      add\n      tag_63\n      swap1\n      tag_64\n      jump\t// in\n    tag_63:\n      mload(0x40)\n      dup1\n      swap2\n      sub\n      swap1\n      revert\n    tag_62:\n        /* \"MyProjectSharedWallet.sol\":1987:2001  uint allowance */\n      0x00\n        /* \"MyProjectSharedWallet.sol\":2004:2017  beneficiaries */\n      0x01\n        /* \"MyProjectSharedWallet.sol\":2004:2029  beneficiaries[msg.sender] */\n      0x00\n        /* \"MyProjectSharedWallet.sol\":2018:2028  msg.sender */\n      caller\n        /* \"MyProjectSharedWallet.sol\":2004:2029  beneficiaries[msg.sender] */\n      0xffffffffffffffffffffffffffffffffffffffff\n      and\n      0xffffffffffffffffffffffffffffffffffffffff\n      and\n      dup2\n      mstore\n      0x20\n      add\n      swap1\n      dup2\n      mstore\n      0x20\n      add\n      0x00\n      keccak256\n        /* \"MyProjectSharedWallet.sol\":2004:2039  beneficiaries[msg.sender].allowance */\n      0x00\n      add\n      sload\n        /* \"MyProjectSharedWallet.sol\":1987:2039  uint allowance = beneficiaries[msg.sender].allowance */\n      swap1\n      pop\n        /* \"MyProjectSharedWallet.sol\":2049:2072  uint allowanceRemaining */\n      0x00\n        /* \"MyProjectSharedWallet.sol\":2139:2152  beneficiaries */\n      0x01\n        /* \"MyProjectSharedWallet.sol\":2139:2164  beneficiaries[msg.sender] */\n      0x00\n        /* \"MyProjectSharedWallet.sol\":2153:2163  msg.sender */\n      caller\n        /* \"MyProjectSharedWallet.sol\":2139:2164  beneficiaries[msg.sender] */\n      0xffffffffffffffffffffffffffffffffffffffff\n      and\n      0xffffffffffffffffffffffffffffffffffffffff\n      and\n      dup2\n      mstore\n      0x20\n      add\n      swap1\n      dup2\n      mstore\n      0x20\n      add\n      0x00\n      keccak256\n        /* \"MyProjectSharedWallet.sol\":2139:2175  beneficiaries[msg.sender].claimsMade */\n      0x01\n      add\n      sload\n        /* \"MyProjectSharedWallet.sol\":2112:2123  totalClaims */\n      sload(0x03)\n        /* \"MyProjectSharedWallet.sol\":2088:2109  address(this).balance */\n      selfbalance\n        /* \"MyProjectSharedWallet.sol\":2088:2123  address(this).balance + totalClaims */\n      tag_65\n      swap2\n      swap1\n      tag_66\n      jump\t// in\n    tag_65:\n        /* \"MyProjectSharedWallet.sol\":2075:2084  allowance */\n      dup4\n        /* \"MyProjectSharedWallet.sol\":2075:2124  allowance * (address(this).balance + totalClaims) */\n      tag_67\n      swap2\n      swap1\n      tag_68\n      jump\t// in\n    tag_67:\n        /* \"MyProjectSharedWallet.sol\":2075:2175  allowance * (address(this).balance + totalClaims)... */\n      tag_69\n      swap2\n      swap1\n      tag_70\n      jump\t// in\n    tag_69:\n        /* \"MyProjectSharedWallet.sol\":2049:2175  uint allowanceRemaining = allowance * (address(this).balance + totalClaims)... */\n      swap1\n      pop\n        /* \"MyProjectSharedWallet.sol\":2204:2222  allowanceRemaining */\n      dup1\n        /* \"MyProjectSharedWallet.sol\":2193:2200  _amount */\n      dup4\n        /* \"MyProjectSharedWallet.sol\":2193:2222  _amount <= allowanceRemaining */\n      gt\n      iszero\n        /* \"MyProjectSharedWallet.sol\":2185:2249  require(_amount <= allowanceRemaining, \"The amount is too high\") */\n      tag_71\n      jumpi\n      mload(0x40)\n      0x08c379a000000000000000000000000000000000000000000000000000000000\n      dup2\n      mstore\n      0x04\n      add\n      tag_72\n      swap1\n      tag_73\n      jump\t// in\n    tag_72:\n      mload(0x40)\n      dup1\n      swap2\n      sub\n      swap1\n      revert\n    tag_71:\n        /* \"MyProjectSharedWallet.sol\":2299:2306  _amount */\n      dup3\n        /* \"MyProjectSharedWallet.sol\":2259:2272  beneficiaries */\n      0x01\n        /* \"MyProjectSharedWallet.sol\":2259:2284  beneficiaries[msg.sender] */\n      0x00\n        /* \"MyProjectSharedWallet.sol\":2273:2283  msg.sender */\n      caller\n        /* \"MyProjectSharedWallet.sol\":2259:2284  beneficiaries[msg.sender] */\n      0xffffffffffffffffffffffffffffffffffffffff\n      and\n      0xffffffffffffffffffffffffffffffffffffffff\n      and\n      dup2\n      mstore\n      0x20\n      add\n      swap1\n      dup2\n      mstore\n      0x20\n      add\n      0x00\n      keccak256\n        /* \"MyProjectSharedWallet.sol\":2259:2295  beneficiaries[msg.sender].claimsMade */\n      0x01\n      add\n      0x00\n        /* \"MyProjectSharedWallet.sol\":2259:2306  beneficiaries[msg.sender].claimsMade += _amount */\n      dup3\n      dup3\n      sload\n      tag_74\n      swap2\n      swap1\n      tag_66\n      jump\t// in\n    tag_74:\n      swap3\n      pop\n      pop\n      dup2\n      swap1\n      sstore\n      pop\n        /* \"MyProjectSharedWallet.sol\":2331:2338  _amount */\n      dup3\n        /* \"MyProjectSharedWallet.sol\":2316:2327  totalClaims */\n      0x03\n      0x00\n        /* \"MyProjectSharedWallet.sol\":2316:2338  totalClaims += _amount */\n      dup3\n      dup3\n      sload\n      tag_75\n      swap2\n      swap1\n      tag_66\n      jump\t// in\n    tag_75:\n      swap3\n      pop\n      pop\n      dup2\n      swap1\n      sstore\n      pop\n        /* \"MyProjectSharedWallet.sol\":2366:2387  address(this).balance */\n      selfbalance\n        /* \"MyProjectSharedWallet.sol\":2348:2363  contractBalance */\n      0x04\n        /* \"MyProjectSharedWallet.sol\":2348:2387  contractBalance = address(this).balance */\n      dup2\n      swap1\n      sstore\n      pop\n        /* \"MyProjectSharedWallet.sol\":2397:2400  _to */\n      dup4\n        /* \"MyProjectSharedWallet.sol\":2397:2409  _to.transfer */\n      0xffffffffffffffffffffffffffffffffffffffff\n      and\n        /* \"MyProjectSharedWallet.sol\":2397:2418  _to.transfer(_amount) */\n      0x08fc\n        /* \"MyProjectSharedWallet.sol\":2410:2417  _amount */\n      dup5\n        /* \"MyProjectSharedWallet.sol\":2397:2418  _to.transfer(_amount) */\n      swap1\n      dup2\n      iszero\n      mul\n      swap1\n      mload(0x40)\n      0x00\n      mload(0x40)\n      dup1\n      dup4\n      sub\n      dup2\n      dup6\n      dup9\n      dup9\n      call\n      swap4\n      pop\n      pop\n      pop\n      pop\n      iszero\n      dup1\n      iszero\n      tag_77\n      jumpi\n      returndatasize\n      0x00\n      dup1\n      returndatacopy\n      revert(0x00, returndatasize)\n    tag_77:\n      pop\n        /* \"MyProjectSharedWallet.sol\":1715:2425  {... */\n      pop\n      pop\n        /* \"MyProjectSharedWallet.sol\":1653:2425  function ClaimMoney(address payable _to, uint _amount) public {... */\n      pop\n      pop\n      jump\t// out\n        /* \"MyProjectSharedWallet.sol\":2431:2493  function ownerWithdraw(uint _amount) public onlyOwner {... */\n    tag_35:\n        /* \"MyProjectSharedWallet.sol\":873:878  owner */\n      0x00\n      dup1\n      sload\n      swap1\n      0x0100\n      exp\n      swap1\n      div\n      0xffffffffffffffffffffffffffffffffffffffff\n      and\n        /* \"MyProjectSharedWallet.sol\":859:878  msg.sender == owner */\n      0xffffffffffffffffffffffffffffffffffffffff\n      and\n        /* \"MyProjectSharedWallet.sol\":859:869  msg.sender */\n      caller\n        /* \"MyProjectSharedWallet.sol\":859:878  msg.sender == owner */\n      0xffffffffffffffffffffffffffffffffffffffff\n      and\n      eq\n        /* \"MyProjectSharedWallet.sol\":851:932  require(msg.sender == owner, \"You are not allowed - only the owner can do this.\") */\n      tag_79\n      jumpi\n      mload(0x40)\n      0x08c379a000000000000000000000000000000000000000000000000000000000\n      dup2\n      mstore\n      0x04\n      add\n      tag_80\n      swap1\n      tag_81\n      jump\t// in\n    tag_80:\n      mload(0x40)\n      dup1\n      swap2\n      sub\n      swap1\n      revert\n    tag_79:\n        /* \"MyProjectSharedWallet.sol\":2431:2493  function ownerWithdraw(uint _amount) public onlyOwner {... */\n      pop\n      jump\t// out\n        /* \"MyProjectSharedWallet.sol\":1011:1517  function SetAllowance(address _beneficiary, uint _allowancePercentage) public onlyOwner {... */\n    tag_40:\n        /* \"MyProjectSharedWallet.sol\":873:878  owner */\n      0x00\n      dup1\n      sload\n      swap1\n      0x0100\n      exp\n      swap1\n      div\n      0xffffffffffffffffffffffffffffffffffffffff\n      and\n        /* \"MyProjectSharedWallet.sol\":859:878  msg.sender == owner */\n      0xffffffffffffffffffffffffffffffffffffffff\n      and\n        /* \"MyProjectSharedWallet.sol\":859:869  msg.sender */\n      caller\n        /* \"MyProjectSharedWallet.sol\":859:878  msg.sender == owner */\n      0xffffffffffffffffffffffffffffffffffffffff\n      and\n      eq\n        /* \"MyProjectSharedWallet.sol\":851:932  require(msg.sender == owner, \"You are not allowed - only the owner can do this.\") */\n      tag_84\n      jumpi\n      mload(0x40)\n      0x08c379a000000000000000000000000000000000000000000000000000000000\n      dup2\n      mstore\n      0x04\n      add\n      tag_85\n      swap1\n      tag_81\n      jump\t// in\n    tag_85:\n      mload(0x40)\n      dup1\n      swap2\n      sub\n      swap1\n      revert\n    tag_84:\n        /* \"MyProjectSharedWallet.sol\":1133:1138  owner */\n      0x00\n      dup1\n      sload\n      swap1\n      0x0100\n      exp\n      swap1\n      div\n      0xffffffffffffffffffffffffffffffffffffffff\n      and\n        /* \"MyProjectSharedWallet.sol\":1117:1138  _beneficiary != owner */\n      0xffffffffffffffffffffffffffffffffffffffff\n      and\n        /* \"MyProjectSharedWallet.sol\":1117:1129  _beneficiary */\n      dup3\n        /* \"MyProjectSharedWallet.sol\":1117:1138  _beneficiary != owner */\n      0xffffffffffffffffffffffffffffffffffffffff\n      and\n      sub\n        /* \"MyProjectSharedWallet.sol\":1109:1185  require(_beneficiary != owner, \"An allowance is not required for the owner\") */\n      tag_87\n      jumpi\n      mload(0x40)\n      0x08c379a000000000000000000000000000000000000000000000000000000000\n      dup2\n      mstore\n      0x04\n      add\n      tag_88\n      swap1\n      tag_89\n      jump\t// in\n    tag_88:\n      mload(0x40)\n      dup1\n      swap2\n      sub\n      swap1\n      revert\n    tag_87:\n        /* \"MyProjectSharedWallet.sol\":1244:1245  0 */\n      0x00\n        /* \"MyProjectSharedWallet.sol\":1203:1216  beneficiaries */\n      0x01\n        /* \"MyProjectSharedWallet.sol\":1203:1230  beneficiaries[_beneficiary] */\n      0x00\n        /* \"MyProjectSharedWallet.sol\":1217:1229  _beneficiary */\n      dup5\n        /* \"MyProjectSharedWallet.sol\":1203:1230  beneficiaries[_beneficiary] */\n      0xffffffffffffffffffffffffffffffffffffffff\n      and\n      0xffffffffffffffffffffffffffffffffffffffff\n      and\n      dup2\n      mstore\n      0x20\n      add\n      swap1\n      dup2\n      mstore\n      0x20\n      add\n      0x00\n      keccak256\n        /* \"MyProjectSharedWallet.sol\":1203:1240  beneficiaries[_beneficiary].allowance */\n      0x00\n      add\n      sload\n        /* \"MyProjectSharedWallet.sol\":1203:1245  beneficiaries[_beneficiary].allowance == 0 */\n      eq\n        /* \"MyProjectSharedWallet.sol\":1195:1286  require(beneficiaries[_beneficiary].allowance == 0, \"The address already has an allowance\") */\n      tag_90\n      jumpi\n      mload(0x40)\n      0x08c379a000000000000000000000000000000000000000000000000000000000\n      dup2\n      mstore\n      0x04\n      add\n      tag_91\n      swap1\n      tag_92\n      jump\t// in\n    tag_91:\n      mload(0x40)\n      dup1\n      swap2\n      sub\n      swap1\n      revert\n    tag_90:\n        /* \"MyProjectSharedWallet.sol\":1345:1348  100 */\n      0x64\n        /* \"MyProjectSharedWallet.sol\":1322:1342  _allowancePercentage */\n      dup2\n        /* \"MyProjectSharedWallet.sol\":1304:1319  totalAllowances */\n      sload(0x02)\n        /* \"MyProjectSharedWallet.sol\":1304:1342  totalAllowances + _allowancePercentage */\n      tag_93\n      swap2\n      swap1\n      tag_66\n      jump\t// in\n    tag_93:\n        /* \"MyProjectSharedWallet.sol\":1304:1348  totalAllowances + _allowancePercentage < 100 */\n      lt\n        /* \"MyProjectSharedWallet.sol\":1296:1391  require(totalAllowances + _allowancePercentage < 100,\"This would over-allocate the allowances\") */\n      tag_94\n      jumpi\n      mload(0x40)\n      0x08c379a000000000000000000000000000000000000000000000000000000000\n      dup2\n      mstore\n      0x04\n      add\n      tag_95\n      swap1\n      tag_96\n      jump\t// in\n    tag_95:\n      mload(0x40)\n      dup1\n      swap2\n      sub\n      swap1\n      revert\n    tag_94:\n        /* \"MyProjectSharedWallet.sol\":1441:1461  _allowancePercentage */\n      dup1\n        /* \"MyProjectSharedWallet.sol\":1401:1414  beneficiaries */\n      0x01\n        /* \"MyProjectSharedWallet.sol\":1401:1428  beneficiaries[_beneficiary] */\n      0x00\n        /* \"MyProjectSharedWallet.sol\":1415:1427  _beneficiary */\n      dup5\n        /* \"MyProjectSharedWallet.sol\":1401:1428  beneficiaries[_beneficiary] */\n      0xffffffffffffffffffffffffffffffffffffffff\n      and\n      0xffffffffffffffffffffffffffffffffffffffff\n      and\n      dup2\n      mstore\n      0x20\n      add\n      swap1\n      dup2\n      mstore\n      0x20\n      add\n      0x00\n      keccak256\n        /* \"MyProjectSharedWallet.sol\":1401:1438  beneficiaries[_beneficiary].allowance */\n      0x00\n      add\n        /* \"MyProjectSharedWallet.sol\":1401:1461  beneficiaries[_beneficiary].allowance = _allowancePercentage */\n      dup2\n      swap1\n      sstore\n      pop\n        /* \"MyProjectSharedWallet.sol\":1490:1510  _allowancePercentage */\n      dup1\n        /* \"MyProjectSharedWallet.sol\":1471:1486  totalAllowances */\n      0x02\n      0x00\n        /* \"MyProjectSharedWallet.sol\":1471:1510  totalAllowances += _allowancePercentage */\n      dup3\n      dup3\n      sload\n      tag_97\n      swap2\n      swap1\n      tag_66\n      jump\t// in\n    tag_97:\n      swap3\n      pop\n      pop\n      dup2\n      swap1\n      sstore\n      pop\n        /* \"MyProjectSharedWallet.sol\":1011:1517  function SetAllowance(address _beneficiary, uint _allowancePercentage) public onlyOwner {... */\n      pop\n      pop\n      jump\t// out\n        /* \"MyProjectSharedWallet.sol\":627:650  uint public totalClaims */\n    tag_43:\n      sload(0x03)\n      dup2\n      jump\t// out\n        /* \"MyProjectSharedWallet.sol\":687:714  uint public contractBalance */\n    tag_47:\n      sload(0x04)\n      dup2\n      jump\t// out\n        /* \"MyProjectSharedWallet.sol\":374:394  address public owner */\n    tag_51:\n      0x00\n      dup1\n      sload\n      swap1\n      0x0100\n      exp\n      swap1\n      div\n      0xffffffffffffffffffffffffffffffffffffffff\n      and\n      dup2\n      jump\t// out\n        /* \"#utility.yul\":88:205   */\n    tag_99:\n        /* \"#utility.yul\":197:198   */\n      0x00\n        /* \"#utility.yul\":194:195   */\n      dup1\n        /* \"#utility.yul\":187:199   */\n      revert\n        /* \"#utility.yul\":334:460   */\n    tag_101:\n        /* \"#utility.yul\":371:378   */\n      0x00\n        /* \"#utility.yul\":411:453   */\n      0xffffffffffffffffffffffffffffffffffffffff\n        /* \"#utility.yul\":404:409   */\n      dup3\n        /* \"#utility.yul\":400:454   */\n      and\n        /* \"#utility.yul\":389:454   */\n      swap1\n      pop\n        /* \"#utility.yul\":334:460   */\n      swap2\n      swap1\n      pop\n      jump\t// out\n        /* \"#utility.yul\":466:562   */\n    tag_102:\n        /* \"#utility.yul\":503:510   */\n      0x00\n        /* \"#utility.yul\":532:556   */\n      tag_137\n        /* \"#utility.yul\":550:555   */\n      dup3\n        /* \"#utility.yul\":532:556   */\n      tag_101\n      jump\t// in\n    tag_137:\n        /* \"#utility.yul\":521:556   */\n      swap1\n      pop\n        /* \"#utility.yul\":466:562   */\n      swap2\n      swap1\n      pop\n      jump\t// out\n        /* \"#utility.yul\":568:690   */\n    tag_103:\n        /* \"#utility.yul\":641:665   */\n      tag_139\n        /* \"#utility.yul\":659:664   */\n      dup2\n        /* \"#utility.yul\":641:665   */\n      tag_102\n      jump\t// in\n    tag_139:\n        /* \"#utility.yul\":634:639   */\n      dup2\n        /* \"#utility.yul\":631:666   */\n      eq\n        /* \"#utility.yul\":621:684   */\n      tag_140\n      jumpi\n        /* \"#utility.yul\":680:681   */\n      0x00\n        /* \"#utility.yul\":677:678   */\n      dup1\n        /* \"#utility.yul\":670:682   */\n      revert\n        /* \"#utility.yul\":621:684   */\n    tag_140:\n        /* \"#utility.yul\":568:690   */\n      pop\n      jump\t// out\n        /* \"#utility.yul\":696:835   */\n    tag_104:\n        /* \"#utility.yul\":742:747   */\n      0x00\n        /* \"#utility.yul\":780:786   */\n      dup2\n        /* \"#utility.yul\":767:787   */\n      calldataload\n        /* \"#utility.yul\":758:787   */\n      swap1\n      pop\n        /* \"#utility.yul\":796:829   */\n      tag_142\n        /* \"#utility.yul\":823:828   */\n      dup2\n        /* \"#utility.yul\":796:829   */\n      tag_103\n      jump\t// in\n    tag_142:\n        /* \"#utility.yul\":696:835   */\n      swap3\n      swap2\n      pop\n      pop\n      jump\t// out\n        /* \"#utility.yul\":841:1170   */\n    tag_15:\n        /* \"#utility.yul\":900:906   */\n      0x00\n        /* \"#utility.yul\":949:951   */\n      0x20\n        /* \"#utility.yul\":937:946   */\n      dup3\n        /* \"#utility.yul\":928:935   */\n      dup5\n        /* \"#utility.yul\":924:947   */\n      sub\n        /* \"#utility.yul\":920:952   */\n      slt\n        /* \"#utility.yul\":917:1036   */\n      iszero\n      tag_144\n      jumpi\n        /* \"#utility.yul\":955:1034   */\n      tag_145\n      tag_99\n      jump\t// in\n    tag_145:\n        /* \"#utility.yul\":917:1036   */\n    tag_144:\n        /* \"#utility.yul\":1075:1076   */\n      0x00\n        /* \"#utility.yul\":1100:1153   */\n      tag_146\n        /* \"#utility.yul\":1145:1152   */\n      dup5\n        /* \"#utility.yul\":1136:1142   */\n      dup3\n        /* \"#utility.yul\":1125:1134   */\n      dup6\n        /* \"#utility.yul\":1121:1143   */\n      add\n        /* \"#utility.yul\":1100:1153   */\n      tag_104\n      jump\t// in\n    tag_146:\n        /* \"#utility.yul\":1090:1153   */\n      swap2\n      pop\n        /* \"#utility.yul\":1046:1163   */\n      pop\n        /* \"#utility.yul\":841:1170   */\n      swap3\n      swap2\n      pop\n      pop\n      jump\t// out\n        /* \"#utility.yul\":1176:1253   */\n    tag_105:\n        /* \"#utility.yul\":1213:1220   */\n      0x00\n        /* \"#utility.yul\":1242:1247   */\n      dup2\n        /* \"#utility.yul\":1231:1247   */\n      swap1\n      pop\n        /* \"#utility.yul\":1176:1253   */\n      swap2\n      swap1\n      pop\n      jump\t// out\n        /* \"#utility.yul\":1259:1377   */\n    tag_106:\n        /* \"#utility.yul\":1346:1370   */\n      tag_149\n        /* \"#utility.yul\":1364:1369   */\n      dup2\n        /* \"#utility.yul\":1346:1370   */\n      tag_105\n      jump\t// in\n    tag_149:\n        /* \"#utility.yul\":1341:1344   */\n      dup3\n        /* \"#utility.yul\":1334:1371   */\n      mstore\n        /* \"#utility.yul\":1259:1377   */\n      pop\n      pop\n      jump\t// out\n        /* \"#utility.yul\":1383:1715   */\n    tag_18:\n        /* \"#utility.yul\":1504:1508   */\n      0x00\n        /* \"#utility.yul\":1542:1544   */\n      0x40\n        /* \"#utility.yul\":1531:1540   */\n      dup3\n        /* \"#utility.yul\":1527:1545   */\n      add\n        /* \"#utility.yul\":1519:1545   */\n      swap1\n      pop\n        /* \"#utility.yul\":1555:1626   */\n      tag_151\n        /* \"#utility.yul\":1623:1624   */\n      0x00\n        /* \"#utility.yul\":1612:1621   */\n      dup4\n        /* \"#utility.yul\":1608:1625   */\n      add\n        /* \"#utility.yul\":1599:1605   */\n      dup6\n        /* \"#utility.yul\":1555:1626   */\n      tag_106\n      jump\t// in\n    tag_151:\n        /* \"#utility.yul\":1636:1708   */\n      tag_152\n        /* \"#utility.yul\":1704:1706   */\n      0x20\n        /* \"#utility.yul\":1693:1702   */\n      dup4\n        /* \"#utility.yul\":1689:1707   */\n      add\n        /* \"#utility.yul\":1680:1686   */\n      dup5\n        /* \"#utility.yul\":1636:1708   */\n      tag_106\n      jump\t// in\n    tag_152:\n        /* \"#utility.yul\":1383:1715   */\n      swap4\n      swap3\n      pop\n      pop\n      pop\n      jump\t// out\n        /* \"#utility.yul\":1721:1943   */\n    tag_25:\n        /* \"#utility.yul\":1814:1818   */\n      0x00\n        /* \"#utility.yul\":1852:1854   */\n      0x20\n        /* \"#utility.yul\":1841:1850   */\n      dup3\n        /* \"#utility.yul\":1837:1855   */\n      add\n        /* \"#utility.yul\":1829:1855   */\n      swap1\n      pop\n        /* \"#utility.yul\":1865:1936   */\n      tag_154\n        /* \"#utility.yul\":1933:1934   */\n      0x00\n        /* \"#utility.yul\":1922:1931   */\n      dup4\n        /* \"#utility.yul\":1918:1935   */\n      add\n        /* \"#utility.yul\":1909:1915   */\n      dup5\n        /* \"#utility.yul\":1865:1936   */\n      tag_106\n      jump\t// in\n    tag_154:\n        /* \"#utility.yul\":1721:1943   */\n      swap3\n      swap2\n      pop\n      pop\n      jump\t// out\n        /* \"#utility.yul\":1949:2053   */\n    tag_107:\n        /* \"#utility.yul\":1994:2001   */\n      0x00\n        /* \"#utility.yul\":2023:2047   */\n      tag_156\n        /* \"#utility.yul\":2041:2046   */\n      dup3\n        /* \"#utility.yul\":2023:2047   */\n      tag_101\n      jump\t// in\n    tag_156:\n        /* \"#utility.yul\":2012:2047   */\n      swap1\n      pop\n        /* \"#utility.yul\":1949:2053   */\n      swap2\n      swap1\n      pop\n      jump\t// out\n        /* \"#utility.yul\":2059:2197   */\n    tag_108:\n        /* \"#utility.yul\":2140:2172   */\n      tag_158\n        /* \"#utility.yul\":2166:2171   */\n      dup2\n        /* \"#utility.yul\":2140:2172   */\n      tag_107\n      jump\t// in\n    tag_158:\n        /* \"#utility.yul\":2133:2138   */\n      dup2\n        /* \"#utility.yul\":2130:2173   */\n      eq\n        /* \"#utility.yul\":2120:2191   */\n      tag_159\n      jumpi\n        /* \"#utility.yul\":2187:2188   */\n      0x00\n        /* \"#utility.yul\":2184:2185   */\n      dup1\n        /* \"#utility.yul\":2177:2189   */\n      revert\n        /* \"#utility.yul\":2120:2191   */\n    tag_159:\n        /* \"#utility.yul\":2059:2197   */\n      pop\n      jump\t// out\n        /* \"#utility.yul\":2203:2358   */\n    tag_109:\n        /* \"#utility.yul\":2257:2262   */\n      0x00\n        /* \"#utility.yul\":2295:2301   */\n      dup2\n        /* \"#utility.yul\":2282:2302   */\n      calldataload\n        /* \"#utility.yul\":2273:2302   */\n      swap1\n      pop\n        /* \"#utility.yul\":2311:2352   */\n      tag_161\n        /* \"#utility.yul\":2346:2351   */\n      dup2\n        /* \"#utility.yul\":2311:2352   */\n      tag_108\n      jump\t// in\n    tag_161:\n        /* \"#utility.yul\":2203:2358   */\n      swap3\n      swap2\n      pop\n      pop\n      jump\t// out\n        /* \"#utility.yul\":2364:2486   */\n    tag_110:\n        /* \"#utility.yul\":2437:2461   */\n      tag_163\n        /* \"#utility.yul\":2455:2460   */\n      dup2\n        /* \"#utility.yul\":2437:2461   */\n      tag_105\n      jump\t// in\n    tag_163:\n        /* \"#utility.yul\":2430:2435   */\n      dup2\n        /* \"#utility.yul\":2427:2462   */\n      eq\n        /* \"#utility.yul\":2417:2480   */\n      tag_164\n      jumpi\n        /* \"#utility.yul\":2476:2477   */\n      0x00\n        /* \"#utility.yul\":2473:2474   */\n      dup1\n        /* \"#utility.yul\":2466:2478   */\n      revert\n        /* \"#utility.yul\":2417:2480   */\n    tag_164:\n        /* \"#utility.yul\":2364:2486   */\n      pop\n      jump\t// out\n        /* \"#utility.yul\":2492:2631   */\n    tag_111:\n        /* \"#utility.yul\":2538:2543   */\n      0x00\n        /* \"#utility.yul\":2576:2582   */\n      dup2\n        /* \"#utility.yul\":2563:2583   */\n      calldataload\n        /* \"#utility.yul\":2554:2583   */\n      swap1\n      pop\n        /* \"#utility.yul\":2592:2625   */\n      tag_166\n        /* \"#utility.yul\":2619:2624   */\n      dup2\n        /* \"#utility.yul\":2592:2625   */\n      tag_110\n      jump\t// in\n    tag_166:\n        /* \"#utility.yul\":2492:2631   */\n      swap3\n      swap2\n      pop\n      pop\n      jump\t// out\n        /* \"#utility.yul\":2637:3127   */\n    tag_29:\n        /* \"#utility.yul\":2713:2719   */\n      0x00\n        /* \"#utility.yul\":2721:2727   */\n      dup1\n        /* \"#utility.yul\":2770:2772   */\n      0x40\n        /* \"#utility.yul\":2758:2767   */\n      dup4\n        /* \"#utility.yul\":2749:2756   */\n      dup6\n        /* \"#utility.yul\":2745:2768   */\n      sub\n        /* \"#utility.yul\":2741:2773   */\n      slt\n        /* \"#utility.yul\":2738:2857   */\n      iszero\n      tag_168\n      jumpi\n        /* \"#utility.yul\":2776:2855   */\n      tag_169\n      tag_99\n      jump\t// in\n    tag_169:\n        /* \"#utility.yul\":2738:2857   */\n    tag_168:\n        /* \"#utility.yul\":2896:2897   */\n      0x00\n        /* \"#utility.yul\":2921:2982   */\n      tag_170\n        /* \"#utility.yul\":2974:2981   */\n      dup6\n        /* \"#utility.yul\":2965:2971   */\n      dup3\n        /* \"#utility.yul\":2954:2963   */\n      dup7\n        /* \"#utility.yul\":2950:2972   */\n      add\n        /* \"#utility.yul\":2921:2982   */\n      tag_109\n      jump\t// in\n    tag_170:\n        /* \"#utility.yul\":2911:2982   */\n      swap3\n      pop\n        /* \"#utility.yul\":2867:2992   */\n      pop\n        /* \"#utility.yul\":3031:3033   */\n      0x20\n        /* \"#utility.yul\":3057:3110   */\n      tag_171\n        /* \"#utility.yul\":3102:3109   */\n      dup6\n        /* \"#utility.yul\":3093:3099   */\n      dup3\n        /* \"#utility.yul\":3082:3091   */\n      dup7\n        /* \"#utility.yul\":3078:3100   */\n      add\n        /* \"#utility.yul\":3057:3110   */\n      tag_111\n      jump\t// in\n    tag_171:\n        /* \"#utility.yul\":3047:3110   */\n      swap2\n      pop\n        /* \"#utility.yul\":3002:3120   */\n      pop\n        /* \"#utility.yul\":2637:3127   */\n      swap3\n      pop\n      swap3\n      swap1\n      pop\n      jump\t// out\n        /* \"#utility.yul\":3133:3462   */\n    tag_34:\n        /* \"#utility.yul\":3192:3198   */\n      0x00\n        /* \"#utility.yul\":3241:3243   */\n      0x20\n        /* \"#utility.yul\":3229:3238   */\n      dup3\n        /* \"#utility.yul\":3220:3227   */\n      dup5\n        /* \"#utility.yul\":3216:3239   */\n      sub\n        /* \"#utility.yul\":3212:3244   */\n      slt\n        /* \"#utility.yul\":3209:3328   */\n      iszero\n      tag_173\n      jumpi\n        /* \"#utility.yul\":3247:3326   */\n      tag_174\n      tag_99\n      jump\t// in\n    tag_174:\n        /* \"#utility.yul\":3209:3328   */\n    tag_173:\n        /* \"#utility.yul\":3367:3368   */\n      0x00\n        /* \"#utility.yul\":3392:3445   */\n      tag_175\n        /* \"#utility.yul\":3437:3444   */\n      dup5\n        /* \"#utility.yul\":3428:3434   */\n      dup3\n        /* \"#utility.yul\":3417:3426   */\n      dup6\n        /* \"#utility.yul\":3413:3435   */\n      add\n        /* \"#utility.yul\":3392:3445   */\n      tag_111\n      jump\t// in\n    tag_175:\n        /* \"#utility.yul\":3382:3445   */\n      swap2\n      pop\n        /* \"#utility.yul\":3338:3455   */\n      pop\n        /* \"#utility.yul\":3133:3462   */\n      swap3\n      swap2\n      pop\n      pop\n      jump\t// out\n        /* \"#utility.yul\":3468:3942   */\n    tag_39:\n        /* \"#utility.yul\":3536:3542   */\n      0x00\n        /* \"#utility.yul\":3544:3550   */\n      dup1\n        /* \"#utility.yul\":3593:3595   */\n      0x40\n        /* \"#utility.yul\":3581:3590   */\n      dup4\n        /* \"#utility.yul\":3572:3579   */\n      dup6\n        /* \"#utility.yul\":3568:3591   */\n      sub\n        /* \"#utility.yul\":3564:3596   */\n      slt\n        /* \"#utility.yul\":3561:3680   */\n      iszero\n      tag_177\n      jumpi\n        /* \"#utility.yul\":3599:3678   */\n      tag_178\n      tag_99\n      jump\t// in\n    tag_178:\n        /* \"#utility.yul\":3561:3680   */\n    tag_177:\n        /* \"#utility.yul\":3719:3720   */\n      0x00\n        /* \"#utility.yul\":3744:3797   */\n      tag_179\n        /* \"#utility.yul\":3789:3796   */\n      dup6\n        /* \"#utility.yul\":3780:3786   */\n      dup3\n        /* \"#utility.yul\":3769:3778   */\n      dup7\n        /* \"#utility.yul\":3765:3787   */\n      add\n        /* \"#utility.yul\":3744:3797   */\n      tag_104\n      jump\t// in\n    tag_179:\n        /* \"#utility.yul\":3734:3797   */\n      swap3\n      pop\n        /* \"#utility.yul\":3690:3807   */\n      pop\n        /* \"#utility.yul\":3846:3848   */\n      0x20\n        /* \"#utility.yul\":3872:3925   */\n      tag_180\n        /* \"#utility.yul\":3917:3924   */\n      dup6\n        /* \"#utility.yul\":3908:3914   */\n      dup3\n        /* \"#utility.yul\":3897:3906   */\n      dup7\n        /* \"#utility.yul\":3893:3915   */\n      add\n        /* \"#utility.yul\":3872:3925   */\n      tag_111\n      jump\t// in\n    tag_180:\n        /* \"#utility.yul\":3862:3925   */\n      swap2\n      pop\n        /* \"#utility.yul\":3817:3935   */\n      pop\n        /* \"#utility.yul\":3468:3942   */\n      swap3\n      pop\n      swap3\n      swap1\n      pop\n      jump\t// out\n        /* \"#utility.yul\":3948:4066   */\n    tag_112:\n        /* \"#utility.yul\":4035:4059   */\n      tag_182\n        /* \"#utility.yul\":4053:4058   */\n      dup2\n        /* \"#utility.yul\":4035:4059   */\n      tag_102\n      jump\t// in\n    tag_182:\n        /* \"#utility.yul\":4030:4033   */\n      dup3\n        /* \"#utility.yul\":4023:4060   */\n      mstore\n        /* \"#utility.yul\":3948:4066   */\n      pop\n      pop\n      jump\t// out\n        /* \"#utility.yul\":4072:4294   */\n    tag_53:\n        /* \"#utility.yul\":4165:4169   */\n      0x00\n        /* \"#utility.yul\":4203:4205   */\n      0x20\n        /* \"#utility.yul\":4192:4201   */\n      dup3\n        /* \"#utility.yul\":4188:4206   */\n      add\n        /* \"#utility.yul\":4180:4206   */\n      swap1\n      pop\n        /* \"#utility.yul\":4216:4287   */\n      tag_184\n        /* \"#utility.yul\":4284:4285   */\n      0x00\n        /* \"#utility.yul\":4273:4282   */\n      dup4\n        /* \"#utility.yul\":4269:4286   */\n      add\n        /* \"#utility.yul\":4260:4266   */\n      dup5\n        /* \"#utility.yul\":4216:4287   */\n      tag_112\n      jump\t// in\n    tag_184:\n        /* \"#utility.yul\":4072:4294   */\n      swap3\n      swap2\n      pop\n      pop\n      jump\t// out\n        /* \"#utility.yul\":4300:4469   */\n    tag_113:\n        /* \"#utility.yul\":4384:4395   */\n      0x00\n        /* \"#utility.yul\":4418:4424   */\n      dup3\n        /* \"#utility.yul\":4413:4416   */\n      dup3\n        /* \"#utility.yul\":4406:4425   */\n      mstore\n        /* \"#utility.yul\":4458:4462   */\n      0x20\n        /* \"#utility.yul\":4453:4456   */\n      dup3\n        /* \"#utility.yul\":4449:4463   */\n      add\n        /* \"#utility.yul\":4434:4463   */\n      swap1\n      pop\n        /* \"#utility.yul\":4300:4469   */\n      swap3\n      swap2\n      pop\n      pop\n      jump\t// out\n        /* \"#utility.yul\":4475:4704   */\n    tag_114:\n        /* \"#utility.yul\":4615:4649   */\n      0x546865206f776e65722073686f756c642075736520776e657257697468647261\n        /* \"#utility.yul\":4611:4612   */\n      0x00\n        /* \"#utility.yul\":4603:4609   */\n      dup3\n        /* \"#utility.yul\":4599:4613   */\n      add\n        /* \"#utility.yul\":4592:4650   */\n      mstore\n        /* \"#utility.yul\":4684:4696   */\n      0x772066756e6374696f6e00000000000000000000000000000000000000000000\n        /* \"#utility.yul\":4679:4681   */\n      0x20\n        /* \"#utility.yul\":4671:4677   */\n      dup3\n        /* \"#utility.yul\":4667:4682   */\n      add\n        /* \"#utility.yul\":4660:4697   */\n      mstore\n        /* \"#utility.yul\":4475:4704   */\n      pop\n      jump\t// out\n        /* \"#utility.yul\":4710:5076   */\n    tag_115:\n        /* \"#utility.yul\":4852:4855   */\n      0x00\n        /* \"#utility.yul\":4873:4940   */\n      tag_188\n        /* \"#utility.yul\":4937:4939   */\n      0x2a\n        /* \"#utility.yul\":4932:4935   */\n      dup4\n        /* \"#utility.yul\":4873:4940   */\n      tag_113\n      jump\t// in\n    tag_188:\n        /* \"#utility.yul\":4866:4940   */\n      swap2\n      pop\n        /* \"#utility.yul\":4949:5042   */\n      tag_189\n        /* \"#utility.yul\":5038:5041   */\n      dup3\n        /* \"#utility.yul\":4949:5042   */\n      tag_114\n      jump\t// in\n    tag_189:\n        /* \"#utility.yul\":5067:5069   */\n      0x40\n        /* \"#utility.yul\":5062:5065   */\n      dup3\n        /* \"#utility.yul\":5058:5070   */\n      add\n        /* \"#utility.yul\":5051:5070   */\n      swap1\n      pop\n        /* \"#utility.yul\":4710:5076   */\n      swap2\n      swap1\n      pop\n      jump\t// out\n        /* \"#utility.yul\":5082:5501   */\n    tag_58:\n        /* \"#utility.yul\":5248:5252   */\n      0x00\n        /* \"#utility.yul\":5286:5288   */\n      0x20\n        /* \"#utility.yul\":5275:5284   */\n      dup3\n        /* \"#utility.yul\":5271:5289   */\n      add\n        /* \"#utility.yul\":5263:5289   */\n      swap1\n      pop\n        /* \"#utility.yul\":5335:5344   */\n      dup2\n        /* \"#utility.yul\":5329:5333   */\n      dup2\n        /* \"#utility.yul\":5325:5345   */\n      sub\n        /* \"#utility.yul\":5321:5322   */\n      0x00\n        /* \"#utility.yul\":5310:5319   */\n      dup4\n        /* \"#utility.yul\":5306:5323   */\n      add\n        /* \"#utility.yul\":5299:5346   */\n      mstore\n        /* \"#utility.yul\":5363:5494   */\n      tag_191\n        /* \"#utility.yul\":5489:5493   */\n      dup2\n        /* \"#utility.yul\":5363:5494   */\n      tag_115\n      jump\t// in\n    tag_191:\n        /* \"#utility.yul\":5355:5494   */\n      swap1\n      pop\n        /* \"#utility.yul\":5082:5501   */\n      swap2\n      swap1\n      pop\n      jump\t// out\n        /* \"#utility.yul\":5507:5734   */\n    tag_116:\n        /* \"#utility.yul\":5647:5681   */\n      0x5468657265206973206e6f206d6f6e657920696e207468652077616c6c657420\n        /* \"#utility.yul\":5643:5644   */\n      0x00\n        /* \"#utility.yul\":5635:5641   */\n      dup3\n        /* \"#utility.yul\":5631:5645   */\n      add\n        /* \"#utility.yul\":5624:5682   */\n      mstore\n        /* \"#utility.yul\":5716:5726   */\n      0x746f20636c61696d000000000000000000000000000000000000000000000000\n        /* \"#utility.yul\":5711:5713   */\n      0x20\n        /* \"#utility.yul\":5703:5709   */\n      dup3\n        /* \"#utility.yul\":5699:5714   */\n      add\n        /* \"#utility.yul\":5692:5727   */\n      mstore\n        /* \"#utility.yul\":5507:5734   */\n      pop\n      jump\t// out\n        /* \"#utility.yul\":5740:6106   */\n    tag_117:\n        /* \"#utility.yul\":5882:5885   */\n      0x00\n        /* \"#utility.yul\":5903:5970   */\n      tag_194\n        /* \"#utility.yul\":5967:5969   */\n      0x28\n        /* \"#utility.yul\":5962:5965   */\n      dup4\n        /* \"#utility.yul\":5903:5970   */\n      tag_113\n      jump\t// in\n    tag_194:\n        /* \"#utility.yul\":5896:5970   */\n      swap2\n      pop\n        /* \"#utility.yul\":5979:6072   */\n      tag_195\n        /* \"#utility.yul\":6068:6071   */\n      dup3\n        /* \"#utility.yul\":5979:6072   */\n      tag_116\n      jump\t// in\n    tag_195:\n        /* \"#utility.yul\":6097:6099   */\n      0x40\n        /* \"#utility.yul\":6092:6095   */\n      dup3\n        /* \"#utility.yul\":6088:6100   */\n      add\n        /* \"#utility.yul\":6081:6100   */\n      swap1\n      pop\n        /* \"#utility.yul\":5740:6106   */\n      swap2\n      swap1\n      pop\n      jump\t// out\n        /* \"#utility.yul\":6112:6531   */\n    tag_61:\n        /* \"#utility.yul\":6278:6282   */\n      0x00\n        /* \"#utility.yul\":6316:6318   */\n      0x20\n        /* \"#utility.yul\":6305:6314   */\n      dup3\n        /* \"#utility.yul\":6301:6319   */\n      add\n        /* \"#utility.yul\":6293:6319   */\n      swap1\n      pop\n        /* \"#utility.yul\":6365:6374   */\n      dup2\n        /* \"#utility.yul\":6359:6363   */\n      dup2\n        /* \"#utility.yul\":6355:6375   */\n      sub\n        /* \"#utility.yul\":6351:6352   */\n      0x00\n        /* \"#utility.yul\":6340:6349   */\n      dup4\n        /* \"#utility.yul\":6336:6353   */\n      add\n        /* \"#utility.yul\":6329:6376   */\n      mstore\n        /* \"#utility.yul\":6393:6524   */\n      tag_197\n        /* \"#utility.yul\":6519:6523   */\n      dup2\n        /* \"#utility.yul\":6393:6524   */\n      tag_117\n      jump\t// in\n    tag_197:\n        /* \"#utility.yul\":6385:6524   */\n      swap1\n      pop\n        /* \"#utility.yul\":6112:6531   */\n      swap2\n      swap1\n      pop\n      jump\t// out\n        /* \"#utility.yul\":6537:6716   */\n    tag_118:\n        /* \"#utility.yul\":6677:6708   */\n      0x596f7520646f206e6f74206861766520616e7920616c6c6f77616e6365000000\n        /* \"#utility.yul\":6673:6674   */\n      0x00\n        /* \"#utility.yul\":6665:6671   */\n      dup3\n        /* \"#utility.yul\":6661:6675   */\n      add\n        /* \"#utility.yul\":6654:6709   */\n      mstore\n        /* \"#utility.yul\":6537:6716   */\n      pop\n      jump\t// out\n        /* \"#utility.yul\":6722:7088   */\n    tag_119:\n        /* \"#utility.yul\":6864:6867   */\n      0x00\n        /* \"#utility.yul\":6885:6952   */\n      tag_200\n        /* \"#utility.yul\":6949:6951   */\n      0x1d\n        /* \"#utility.yul\":6944:6947   */\n      dup4\n        /* \"#utility.yul\":6885:6952   */\n      tag_113\n      jump\t// in\n    tag_200:\n        /* \"#utility.yul\":6878:6952   */\n      swap2\n      pop\n        /* \"#utility.yul\":6961:7054   */\n      tag_201\n        /* \"#utility.yul\":7050:7053   */\n      dup3\n        /* \"#utility.yul\":6961:7054   */\n      tag_118\n      jump\t// in\n    tag_201:\n        /* \"#utility.yul\":7079:7081   */\n      0x20\n        /* \"#utility.yul\":7074:7077   */\n      dup3\n        /* \"#utility.yul\":7070:7082   */\n      add\n        /* \"#utility.yul\":7063:7082   */\n      swap1\n      pop\n        /* \"#utility.yul\":6722:7088   */\n      swap2\n      swap1\n      pop\n      jump\t// out\n        /* \"#utility.yul\":7094:7513   */\n    tag_64:\n        /* \"#utility.yul\":7260:7264   */\n      0x00\n        /* \"#utility.yul\":7298:7300   */\n      0x20\n        /* \"#utility.yul\":7287:7296   */\n      dup3\n        /* \"#utility.yul\":7283:7301   */\n      add\n        /* \"#utility.yul\":7275:7301   */\n      swap1\n      pop\n        /* \"#utility.yul\":7347:7356   */\n      dup2\n        /* \"#utility.yul\":7341:7345   */\n      dup2\n        /* \"#utility.yul\":7337:7357   */\n      sub\n        /* \"#utility.yul\":7333:7334   */\n      0x00\n        /* \"#utility.yul\":7322:7331   */\n      dup4\n        /* \"#utility.yul\":7318:7335   */\n      add\n        /* \"#utility.yul\":7311:7358   */\n      mstore\n        /* \"#utility.yul\":7375:7506   */\n      tag_203\n        /* \"#utility.yul\":7501:7505   */\n      dup2\n        /* \"#utility.yul\":7375:7506   */\n      tag_119\n      jump\t// in\n    tag_203:\n        /* \"#utility.yul\":7367:7506   */\n      swap1\n      pop\n        /* \"#utility.yul\":7094:7513   */\n      swap2\n      swap1\n      pop\n      jump\t// out\n        /* \"#utility.yul\":7519:7699   */\n    tag_120:\n        /* \"#utility.yul\":7567:7644   */\n      0x4e487b7100000000000000000000000000000000000000000000000000000000\n        /* \"#utility.yul\":7564:7565   */\n      0x00\n        /* \"#utility.yul\":7557:7645   */\n      mstore\n        /* \"#utility.yul\":7664:7668   */\n      0x11\n        /* \"#utility.yul\":7661:7662   */\n      0x04\n        /* \"#utility.yul\":7654:7669   */\n      mstore\n        /* \"#utility.yul\":7688:7692   */\n      0x24\n        /* \"#utility.yul\":7685:7686   */\n      0x00\n        /* \"#utility.yul\":7678:7693   */\n      revert\n        /* \"#utility.yul\":7705:7896   */\n    tag_66:\n        /* \"#utility.yul\":7745:7748   */\n      0x00\n        /* \"#utility.yul\":7764:7784   */\n      tag_206\n        /* \"#utility.yul\":7782:7783   */\n      dup3\n        /* \"#utility.yul\":7764:7784   */\n      tag_105\n      jump\t// in\n    tag_206:\n        /* \"#utility.yul\":7759:7784   */\n      swap2\n      pop\n        /* \"#utility.yul\":7798:7818   */\n      tag_207\n        /* \"#utility.yul\":7816:7817   */\n      dup4\n        /* \"#utility.yul\":7798:7818   */\n      tag_105\n      jump\t// in\n    tag_207:\n        /* \"#utility.yul\":7793:7818   */\n      swap3\n      pop\n        /* \"#utility.yul\":7841:7842   */\n      dup3\n        /* \"#utility.yul\":7838:7839   */\n      dup3\n        /* \"#utility.yul\":7834:7843   */\n      add\n        /* \"#utility.yul\":7827:7843   */\n      swap1\n      pop\n        /* \"#utility.yul\":7862:7865   */\n      dup1\n        /* \"#utility.yul\":7859:7860   */\n      dup3\n        /* \"#utility.yul\":7856:7866   */\n      gt\n        /* \"#utility.yul\":7853:7889   */\n      iszero\n      tag_208\n      jumpi\n        /* \"#utility.yul\":7869:7887   */\n      tag_209\n      tag_120\n      jump\t// in\n    tag_209:\n        /* \"#utility.yul\":7853:7889   */\n    tag_208:\n        /* \"#utility.yul\":7705:7896   */\n      swap3\n      swap2\n      pop\n      pop\n      jump\t// out\n        /* \"#utility.yul\":7902:8250   */\n    tag_68:\n        /* \"#utility.yul\":7942:7949   */\n      0x00\n        /* \"#utility.yul\":7965:7985   */\n      tag_211\n        /* \"#utility.yul\":7983:7984   */\n      dup3\n        /* \"#utility.yul\":7965:7985   */\n      tag_105\n      jump\t// in\n    tag_211:\n        /* \"#utility.yul\":7960:7985   */\n      swap2\n      pop\n        /* \"#utility.yul\":7999:8019   */\n      tag_212\n        /* \"#utility.yul\":8017:8018   */\n      dup4\n        /* \"#utility.yul\":7999:8019   */\n      tag_105\n      jump\t// in\n    tag_212:\n        /* \"#utility.yul\":7994:8019   */\n      swap3\n      pop\n        /* \"#utility.yul\":8187:8188   */\n      dup2\n        /* \"#utility.yul\":8119:8185   */\n      0xffffffffffffffffffffffffffffffffffffffffffffffffffffffffffffffff\n        /* \"#utility.yul\":8115:8189   */\n      div\n        /* \"#utility.yul\":8112:8113   */\n      dup4\n        /* \"#utility.yul\":8109:8190   */\n      gt\n        /* \"#utility.yul\":8104:8105   */\n      dup3\n        /* \"#utility.yul\":8097:8106   */\n      iszero\n        /* \"#utility.yul\":8090:8107   */\n      iszero\n        /* \"#utility.yul\":8086:8191   */\n      and\n        /* \"#utility.yul\":8083:8214   */\n      iszero\n      tag_213\n      jumpi\n        /* \"#utility.yul\":8194:8212   */\n      tag_214\n      tag_120\n      jump\t// in\n    tag_214:\n        /* \"#utility.yul\":8083:8214   */\n    tag_213:\n        /* \"#utility.yul\":8242:8243   */\n      dup3\n        /* \"#utility.yul\":8239:8240   */\n      dup3\n        /* \"#utility.yul\":8235:8244   */\n      mul\n        /* \"#utility.yul\":8224:8244   */\n      swap1\n      pop\n        /* \"#utility.yul\":7902:8250   */\n      swap3\n      swap2\n      pop\n      pop\n      jump\t// out\n        /* \"#utility.yul\":8256:8450   */\n    tag_70:\n        /* \"#utility.yul\":8296:8300   */\n      0x00\n        /* \"#utility.yul\":8316:8336   */\n      tag_216\n        /* \"#utility.yul\":8334:8335   */\n      dup3\n        /* \"#utility.yul\":8316:8336   */\n      tag_105\n      jump\t// in\n    tag_216:\n        /* \"#utility.yul\":8311:8336   */\n      swap2\n      pop\n        /* \"#utility.yul\":8350:8370   */\n      tag_217\n        /* \"#utility.yul\":8368:8369   */\n      dup4\n        /* \"#utility.yul\":8350:8370   */\n      tag_105\n      jump\t// in\n    tag_217:\n        /* \"#utility.yul\":8345:8370   */\n      swap3\n      pop\n        /* \"#utility.yul\":8394:8395   */\n      dup3\n        /* \"#utility.yul\":8391:8392   */\n      dup3\n        /* \"#utility.yul\":8387:8396   */\n      sub\n        /* \"#utility.yul\":8379:8396   */\n      swap1\n      pop\n        /* \"#utility.yul\":8418:8419   */\n      dup2\n        /* \"#utility.yul\":8412:8416   */\n      dup2\n        /* \"#utility.yul\":8409:8420   */\n      gt\n        /* \"#utility.yul\":8406:8443   */\n      iszero\n      tag_218\n      jumpi\n        /* \"#utility.yul\":8423:8441   */\n      tag_219\n      tag_120\n      jump\t// in\n    tag_219:\n        /* \"#utility.yul\":8406:8443   */\n    tag_218:\n        /* \"#utility.yul\":8256:8450   */\n      swap3\n      swap2\n      pop\n      pop\n      jump\t// out\n        /* \"#utility.yul\":8456:8628   */\n    tag_121:\n        /* \"#utility.yul\":8596:8620   */\n      0x54686520616d6f756e7420697320746f6f206869676800000000000000000000\n        /* \"#utility.yul\":8592:8593   */\n      0x00\n        /* \"#utility.yul\":8584:8590   */\n      dup3\n        /* \"#utility.yul\":8580:8594   */\n      add\n        /* \"#utility.yul\":8573:8621   */\n      mstore\n        /* \"#utility.yul\":8456:8628   */\n      pop\n      jump\t// out\n        /* \"#utility.yul\":8634:9000   */\n    tag_122:\n        /* \"#utility.yul\":8776:8779   */\n      0x00\n        /* \"#utility.yul\":8797:8864   */\n      tag_222\n        /* \"#utility.yul\":8861:8863   */\n      0x16\n        /* \"#utility.yul\":8856:8859   */\n      dup4\n        /* \"#utility.yul\":8797:8864   */\n      tag_113\n      jump\t// in\n    tag_222:\n        /* \"#utility.yul\":8790:8864   */\n      swap2\n      pop\n        /* \"#utility.yul\":8873:8966   */\n      tag_223\n        /* \"#utility.yul\":8962:8965   */\n      dup3\n        /* \"#utility.yul\":8873:8966   */\n      tag_121\n      jump\t// in\n    tag_223:\n        /* \"#utility.yul\":8991:8993   */\n      0x20\n        /* \"#utility.yul\":8986:8989   */\n      dup3\n        /* \"#utility.yul\":8982:8994   */\n      add\n        /* \"#utility.yul\":8975:8994   */\n      swap1\n      pop\n        /* \"#utility.yul\":8634:9000   */\n      swap2\n      swap1\n      pop\n      jump\t// out\n        /* \"#utility.yul\":9006:9425   */\n    tag_73:\n        /* \"#utility.yul\":9172:9176   */\n      0x00\n        /* \"#utility.yul\":9210:9212   */\n      0x20\n        /* \"#utility.yul\":9199:9208   */\n      dup3\n        /* \"#utility.yul\":9195:9213   */\n      add\n        /* \"#utility.yul\":9187:9213   */\n      swap1\n      pop\n        /* \"#utility.yul\":9259:9268   */\n      dup2\n        /* \"#utility.yul\":9253:9257   */\n      dup2\n        /* \"#utility.yul\":9249:9269   */\n      sub\n        /* \"#utility.yul\":9245:9246   */\n      0x00\n        /* \"#utility.yul\":9234:9243   */\n      dup4\n        /* \"#utility.yul\":9230:9247   */\n      add\n        /* \"#utility.yul\":9223:9270   */\n      mstore\n        /* \"#utility.yul\":9287:9418   */\n      tag_225\n        /* \"#utility.yul\":9413:9417   */\n      dup2\n        /* \"#utility.yul\":9287:9418   */\n      tag_122\n      jump\t// in\n    tag_225:\n        /* \"#utility.yul\":9279:9418   */\n      swap1\n      pop\n        /* \"#utility.yul\":9006:9425   */\n      swap2\n      swap1\n      pop\n      jump\t// out\n        /* \"#utility.yul\":9431:9667   */\n    tag_123:\n        /* \"#utility.yul\":9571:9605   */\n      0x596f7520617265206e6f7420616c6c6f776564202d206f6e6c7920746865206f\n        /* \"#utility.yul\":9567:9568   */\n      0x00\n        /* \"#utility.yul\":9559:9565   */\n      dup3\n        /* \"#utility.yul\":9555:9569   */\n      add\n        /* \"#utility.yul\":9548:9606   */\n      mstore\n        /* \"#utility.yul\":9640:9659   */\n      0x776e65722063616e20646f20746869732e000000000000000000000000000000\n        /* \"#utility.yul\":9635:9637   */\n      0x20\n        /* \"#utility.yul\":9627:9633   */\n      dup3\n        /* \"#utility.yul\":9623:9638   */\n      add\n        /* \"#utility.yul\":9616:9660   */\n      mstore\n        /* \"#utility.yul\":9431:9667   */\n      pop\n      jump\t// out\n        /* \"#utility.yul\":9673:10039   */\n    tag_124:\n        /* \"#utility.yul\":9815:9818   */\n      0x00\n        /* \"#utility.yul\":9836:9903   */\n      tag_228\n        /* \"#utility.yul\":9900:9902   */\n      0x31\n        /* \"#utility.yul\":9895:9898   */\n      dup4\n        /* \"#utility.yul\":9836:9903   */\n      tag_113\n      jump\t// in\n    tag_228:\n        /* \"#utility.yul\":9829:9903   */\n      swap2\n      pop\n        /* \"#utility.yul\":9912:10005   */\n      tag_229\n        /* \"#utility.yul\":10001:10004   */\n      dup3\n        /* \"#utility.yul\":9912:10005   */\n      tag_123\n      jump\t// in\n    tag_229:\n        /* \"#utility.yul\":10030:10032   */\n      0x40\n        /* \"#utility.yul\":10025:10028   */\n      dup3\n        /* \"#utility.yul\":10021:10033   */\n      add\n        /* \"#utility.yul\":10014:10033   */\n      swap1\n      pop\n        /* \"#utility.yul\":9673:10039   */\n      swap2\n      swap1\n      pop\n      jump\t// out\n        /* \"#utility.yul\":10045:10464   */\n    tag_81:\n        /* \"#utility.yul\":10211:10215   */\n      0x00\n        /* \"#utility.yul\":10249:10251   */\n      0x20\n        /* \"#utility.yul\":10238:10247   */\n      dup3\n        /* \"#utility.yul\":10234:10252   */\n      add\n        /* \"#utility.yul\":10226:10252   */\n      swap1\n      pop\n        /* \"#utility.yul\":10298:10307   */\n      dup2\n        /* \"#utility.yul\":10292:10296   */\n      dup2\n        /* \"#utility.yul\":10288:10308   */\n      sub\n        /* \"#utility.yul\":10284:10285   */\n      0x00\n        /* \"#utility.yul\":10273:10282   */\n      dup4\n        /* \"#utility.yul\":10269:10286   */\n      add\n        /* \"#utility.yul\":10262:10309   */\n      mstore\n        /* \"#utility.yul\":10326:10457   */\n      tag_231\n        /* \"#utility.yul\":10452:10456   */\n      dup2\n        /* \"#utility.yul\":10326:10457   */\n      tag_124\n      jump\t// in\n    tag_231:\n        /* \"#utility.yul\":10318:10457   */\n      swap1\n      pop\n        /* \"#utility.yul\":10045:10464   */\n      swap2\n      swap1\n      pop\n      jump\t// out\n        /* \"#utility.yul\":10470:10699   */\n    tag_125:\n        /* \"#utility.yul\":10610:10644   */\n      0x416e20616c6c6f77616e6365206973206e6f7420726571756972656420666f72\n        /* \"#utility.yul\":10606:10607   */\n      0x00\n        /* \"#utility.yul\":10598:10604   */\n      dup3\n        /* \"#utility.yul\":10594:10608   */\n      add\n        /* \"#utility.yul\":10587:10645   */\n      mstore\n        /* \"#utility.yul\":10679:10691   */\n      0x20746865206f776e657200000000000000000000000000000000000000000000\n        /* \"#utility.yul\":10674:10676   */\n      0x20\n        /* \"#utility.yul\":10666:10672   */\n      dup3\n        /* \"#utility.yul\":10662:10677   */\n      add\n        /* \"#utility.yul\":10655:10692   */\n      mstore\n        /* \"#utility.yul\":10470:10699   */\n      pop\n      jump\t// out\n        /* \"#utility.yul\":10705:11071   */\n    tag_126:\n        /* \"#utility.yul\":10847:10850   */\n      0x00\n        /* \"#utility.yul\":10868:10935   */\n      tag_234\n        /* \"#utility.yul\":10932:10934   */\n      0x2a\n        /* \"#utility.yul\":10927:10930   */\n      dup4\n        /* \"#utility.yul\":10868:10935   */\n      tag_113\n      jump\t// in\n    tag_234:\n        /* \"#utility.yul\":10861:10935   */\n      swap2\n      pop\n        /* \"#utility.yul\":10944:11037   */\n      tag_235\n        /* \"#utility.yul\":11033:11036   */\n      dup3\n        /* \"#utility.yul\":10944:11037   */\n      tag_125\n      jump\t// in\n    tag_235:\n        /* \"#utility.yul\":11062:11064   */\n      0x40\n        /* \"#utility.yul\":11057:11060   */\n      dup3\n        /* \"#utility.yul\":11053:11065   */\n      add\n        /* \"#utility.yul\":11046:11065   */\n      swap1\n      pop\n        /* \"#utility.yul\":10705:11071   */\n      swap2\n      swap1\n      pop\n      jump\t// out\n        /* \"#utility.yul\":11077:11496   */\n    tag_89:\n        /* \"#utility.yul\":11243:11247   */\n      0x00\n        /* \"#utility.yul\":11281:11283   */\n      0x20\n        /* \"#utility.yul\":11270:11279   */\n      dup3\n        /* \"#utility.yul\":11266:11284   */\n      add\n        /* \"#utility.yul\":11258:11284   */\n      swap1\n      pop\n        /* \"#utility.yul\":11330:11339   */\n      dup2\n        /* \"#utility.yul\":11324:11328   */\n      dup2\n        /* \"#utility.yul\":11320:11340   */\n      sub\n        /* \"#utility.yul\":11316:11317   */\n      0x00\n        /* \"#utility.yul\":11305:11314   */\n      dup4\n        /* \"#utility.yul\":11301:11318   */\n      add\n        /* \"#utility.yul\":11294:11341   */\n      mstore\n        /* \"#utility.yul\":11358:11489   */\n      tag_237\n        /* \"#utility.yul\":11484:11488   */\n      dup2\n        /* \"#utility.yul\":11358:11489   */\n      tag_126\n      jump\t// in\n    tag_237:\n        /* \"#utility.yul\":11350:11489   */\n      swap1\n      pop\n        /* \"#utility.yul\":11077:11496   */\n      swap2\n      swap1\n      pop\n      jump\t// out\n        /* \"#utility.yul\":11502:11725   */\n    tag_127:\n        /* \"#utility.yul\":11642:11676   */\n      0x546865206164647265737320616c72656164792068617320616e20616c6c6f77\n        /* \"#utility.yul\":11638:11639   */\n      0x00\n        /* \"#utility.yul\":11630:11636   */\n      dup3\n        /* \"#utility.yul\":11626:11640   */\n      add\n        /* \"#utility.yul\":11619:11677   */\n      mstore\n        /* \"#utility.yul\":11711:11717   */\n      0x616e636500000000000000000000000000000000000000000000000000000000\n        /* \"#utility.yul\":11706:11708   */\n      0x20\n        /* \"#utility.yul\":11698:11704   */\n      dup3\n        /* \"#utility.yul\":11694:11709   */\n      add\n        /* \"#utility.yul\":11687:11718   */\n      mstore\n        /* \"#utility.yul\":11502:11725   */\n      pop\n      jump\t// out\n        /* \"#utility.yul\":11731:12097   */\n    tag_128:\n        /* \"#utility.yul\":11873:11876   */\n      0x00\n        /* \"#utility.yul\":11894:11961   */\n      tag_240\n        /* \"#utility.yul\":11958:11960   */\n      0x24\n        /* \"#utility.yul\":11953:11956   */\n      dup4\n        /* \"#utility.yul\":11894:11961   */\n      tag_113\n      jump\t// in\n    tag_240:\n        /* \"#utility.yul\":11887:11961   */\n      swap2\n      pop\n        /* \"#utility.yul\":11970:12063   */\n      tag_241\n        /* \"#utility.yul\":12059:12062   */\n      dup3\n        /* \"#utility.yul\":11970:12063   */\n      tag_127\n      jump\t// in\n    tag_241:\n        /* \"#utility.yul\":12088:12090   */\n      0x40\n        /* \"#utility.yul\":12083:12086   */\n      dup3\n        /* \"#utility.yul\":12079:12091   */\n      add\n        /* \"#utility.yul\":12072:12091   */\n      swap1\n      pop\n        /* \"#utility.yul\":11731:12097   */\n      swap2\n      swap1\n      pop\n      jump\t// out\n        /* \"#utility.yul\":12103:12522   */\n    tag_92:\n        /* \"#utility.yul\":12269:12273   */\n      0x00\n        /* \"#utility.yul\":12307:12309   */\n      0x20\n        /* \"#utility.yul\":12296:12305   */\n      dup3\n        /* \"#utility.yul\":12292:12310   */\n      add\n        /* \"#utility.yul\":12284:12310   */\n      swap1\n      pop\n        /* \"#utility.yul\":12356:12365   */\n      dup2\n        /* \"#utility.yul\":12350:12354   */\n      dup2\n        /* \"#utility.yul\":12346:12366   */\n      sub\n        /* \"#utility.yul\":12342:12343   */\n      0x00\n        /* \"#utility.yul\":12331:12340   */\n      dup4\n        /* \"#utility.yul\":12327:12344   */\n      add\n        /* \"#utility.yul\":12320:12367   */\n      mstore\n        /* \"#utility.yul\":12384:12515   */\n      tag_243\n        /* \"#utility.yul\":12510:12514   */\n      dup2\n        /* \"#utility.yul\":12384:12515   */\n      tag_128\n      jump\t// in\n    tag_243:\n        /* \"#utility.yul\":12376:12515   */\n      swap1\n      pop\n        /* \"#utility.yul\":12103:12522   */\n      swap2\n      swap1\n      pop\n      jump\t// out\n        /* \"#utility.yul\":12528:12754   */\n    tag_129:\n        /* \"#utility.yul\":12668:12702   */\n      0x5468697320776f756c64206f7665722d616c6c6f636174652074686520616c6c\n        /* \"#utility.yul\":12664:12665   */\n      0x00\n        /* \"#utility.yul\":12656:12662   */\n      dup3\n        /* \"#utility.yul\":12652:12666   */\n      add\n        /* \"#utility.yul\":12645:12703   */\n      mstore\n        /* \"#utility.yul\":12737:12746   */\n      0x6f77616e63657300000000000000000000000000000000000000000000000000\n        /* \"#utility.yul\":12732:12734   */\n      0x20\n        /* \"#utility.yul\":12724:12730   */\n      dup3\n        /* \"#utility.yul\":12720:12735   */\n      add\n        /* \"#utility.yul\":12713:12747   */\n      mstore\n        /* \"#utility.yul\":12528:12754   */\n      pop\n      jump\t// out\n        /* \"#utility.yul\":12760:13126   */\n    tag_130:\n        /* \"#utility.yul\":12902:12905   */\n      0x00\n        /* \"#utility.yul\":12923:12990   */\n      tag_246\n        /* \"#utility.yul\":12987:12989   */\n      0x27\n        /* \"#utility.yul\":12982:12985   */\n      dup4\n        /* \"#utility.yul\":12923:12990   */\n      tag_113\n      jump\t// in\n    tag_246:\n        /* \"#utility.yul\":12916:12990   */\n      swap2\n      pop\n        /* \"#utility.yul\":12999:13092   */\n      tag_247\n        /* \"#utility.yul\":13088:13091   */\n      dup3\n        /* \"#utility.yul\":12999:13092   */\n      tag_129\n      jump\t// in\n    tag_247:\n        /* \"#utility.yul\":13117:13119   */\n      0x40\n        /* \"#utility.yul\":13112:13115   */\n      dup3\n        /* \"#utility.yul\":13108:13120   */\n      add\n        /* \"#utility.yul\":13101:13120   */\n      swap1\n      pop\n        /* \"#utility.yul\":12760:13126   */\n      swap2\n      swap1\n      pop\n      jump\t// out\n        /* \"#utility.yul\":13132:13551   */\n    tag_96:\n        /* \"#utility.yul\":13298:13302   */\n      0x00\n        /* \"#utility.yul\":13336:13338   */\n      0x20\n        /* \"#utility.yul\":13325:13334   */\n      dup3\n        /* \"#utility.yul\":13321:13339   */\n      add\n        /* \"#utility.yul\":13313:13339   */\n      swap1\n      pop\n        /* \"#utility.yul\":13385:13394   */\n      dup2\n        /* \"#utility.yul\":13379:13383   */\n      dup2\n        /* \"#utility.yul\":13375:13395   */\n      sub\n        /* \"#utility.yul\":13371:13372   */\n      0x00\n        /* \"#utility.yul\":13360:13369   */\n      dup4\n        /* \"#utility.yul\":13356:13373   */\n      add\n        /* \"#utility.yul\":13349:13396   */\n      mstore\n        /* \"#utility.yul\":13413:13544   */\n      tag_249\n        /* \"#utility.yul\":13539:13543   */\n      dup2\n        /* \"#utility.yul\":13413:13544   */\n      tag_130\n      jump\t// in\n    tag_249:\n        /* \"#utility.yul\":13405:13544   */\n      swap1\n      pop\n        /* \"#utility.yul\":13132:13551   */\n      swap2\n      swap1\n      pop\n      jump\t// out\n\n    auxdata: 0xa264697066735822122075f600628de5770be73031ba453f3bac2ada12b18925160f56d25d697fed020c64736f6c63430008100033\n}\n",
				"bytecode": {
					"linkReferences": {},
					"object": "608060405234801561001057600080fd5b50336000806101000a81548173ffffffffffffffffffffffffffffffffffffffff021916908373ffffffffffffffffffffffffffffffffffffffff160217905550610ffd806100606000396000f3fe6080604052600436106100865760003560e01c806333f707d11161005957806333f707d1146101275780633e7279a31461015057806341c61383146101795780638b7afe2e146101a45780638da5cb5b146101cf57610086565b8063015677391461008b57806305737314146100c957806316a51305146100d35780632d70db2f146100fe575b600080fd5b34801561009757600080fd5b506100b260048036038101906100ad91906108b6565b6101fa565b6040516100c09291906108fc565b60405180910390f35b6100d161021e565b005b3480156100df57600080fd5b506100e8610227565b6040516100f59190610925565b60405180910390f35b34801561010a57600080fd5b50610125600480360381019061012091906109aa565b61022d565b005b34801561013357600080fd5b5061014e600480360381019061014991906109ea565b61053d565b005b34801561015c57600080fd5b5061017760048036038101906101729190610a17565b6105ce565b005b34801561018557600080fd5b5061018e610823565b60405161019b9190610925565b60405180910390f35b3480156101b057600080fd5b506101b9610829565b6040516101c69190610925565b60405180910390f35b3480156101db57600080fd5b506101e461082f565b6040516101f19190610a66565b60405180910390f35b60016020528060005260406000206000915090508060000154908060010154905082565b47600481905550565b60025481565b60008054906101000a900473ffffffffffffffffffffffffffffffffffffffff1673ffffffffffffffffffffffffffffffffffffffff163373ffffffffffffffffffffffffffffffffffffffff16036102bb576040517f08c379a00000000000000000000000000000000000000000000000000000000081526004016102b290610b04565b60405180910390fd5b600047116102fe576040517f08c379a00000000000000000000000000000000000000000000000000000000081526004016102f590610b96565b60405180910390fd5b6000600160003373ffffffffffffffffffffffffffffffffffffffff1673ffffffffffffffffffffffffffffffffffffffff1681526020019081526020016000206000015411610383576040517f08c379a000000000000000000000000000000000000000000000000000000000815260040161037a90610c02565b60405180910390fd5b6000600160003373ffffffffffffffffffffffffffffffffffffffff1673ffffffffffffffffffffffffffffffffffffffff1681526020019081526020016000206000015490506000600160003373ffffffffffffffffffffffffffffffffffffffff1673ffffffffffffffffffffffffffffffffffffffff168152602001908152602001600020600101546003544761041d9190610c51565b836104289190610c85565b6104329190610cdf565b905080831115610477576040517f08c379a000000000000000000000000000000000000000000000000000000000815260040161046e90610d5f565b60405180910390fd5b82600160003373ffffffffffffffffffffffffffffffffffffffff1673ffffffffffffffffffffffffffffffffffffffff16815260200190815260200160002060010160008282546104c99190610c51565b9250508190555082600360008282546104e29190610c51565b92505081905550476004819055508373ffffffffffffffffffffffffffffffffffffffff166108fc849081150290604051600060405180830381858888f19350505050158015610536573d6000803e3d6000fd5b5050505050565b60008054906101000a900473ffffffffffffffffffffffffffffffffffffffff1673ffffffffffffffffffffffffffffffffffffffff163373ffffffffffffffffffffffffffffffffffffffff16146105cb576040517f08c379a00000000000000000000000000000000000000000000000000000000081526004016105c290610df1565b60405180910390fd5b50565b60008054906101000a900473ffffffffffffffffffffffffffffffffffffffff1673ffffffffffffffffffffffffffffffffffffffff163373ffffffffffffffffffffffffffffffffffffffff161461065c576040517f08c379a000000000000000000000000000000000000000000000000000000000815260040161065390610df1565b60405180910390fd5b60008054906101000a900473ffffffffffffffffffffffffffffffffffffffff1673ffffffffffffffffffffffffffffffffffffffff168273ffffffffffffffffffffffffffffffffffffffff16036106ea576040517f08c379a00000000000000000000000000000000000000000000000000000000081526004016106e190610e83565b60405180910390fd5b6000600160008473ffffffffffffffffffffffffffffffffffffffff1673ffffffffffffffffffffffffffffffffffffffff168152602001908152602001600020600001541461076f576040517f08c379a000000000000000000000000000000000000000000000000000000000815260040161076690610f15565b60405180910390fd5b60648160025461077f9190610c51565b106107bf576040517f08c379a00000000000000000000000000000000000000000000000000000000081526004016107b690610fa7565b60405180910390fd5b80600160008473ffffffffffffffffffffffffffffffffffffffff1673ffffffffffffffffffffffffffffffffffffffff1681526020019081526020016000206000018190555080600260008282546108189190610c51565b925050819055505050565b60035481565b60045481565b60008054906101000a900473ffffffffffffffffffffffffffffffffffffffff1681565b600080fd5b600073ffffffffffffffffffffffffffffffffffffffff82169050919050565b600061088382610858565b9050919050565b61089381610878565b811461089e57600080fd5b50565b6000813590506108b08161088a565b92915050565b6000602082840312156108cc576108cb610853565b5b60006108da848285016108a1565b91505092915050565b6000819050919050565b6108f6816108e3565b82525050565b600060408201905061091160008301856108ed565b61091e60208301846108ed565b9392505050565b600060208201905061093a60008301846108ed565b92915050565b600061094b82610858565b9050919050565b61095b81610940565b811461096657600080fd5b50565b60008135905061097881610952565b92915050565b610987816108e3565b811461099257600080fd5b50565b6000813590506109a48161097e565b92915050565b600080604083850312156109c1576109c0610853565b5b60006109cf85828601610969565b92505060206109e085828601610995565b9150509250929050565b600060208284031215610a00576109ff610853565b5b6000610a0e84828501610995565b91505092915050565b60008060408385031215610a2e57610a2d610853565b5b6000610a3c858286016108a1565b9250506020610a4d85828601610995565b9150509250929050565b610a6081610878565b82525050565b6000602082019050610a7b6000830184610a57565b92915050565b600082825260208201905092915050565b7f546865206f776e65722073686f756c642075736520776e65725769746864726160008201527f772066756e6374696f6e00000000000000000000000000000000000000000000602082015250565b6000610aee602a83610a81565b9150610af982610a92565b604082019050919050565b60006020820190508181036000830152610b1d81610ae1565b9050919050565b7f5468657265206973206e6f206d6f6e657920696e207468652077616c6c65742060008201527f746f20636c61696d000000000000000000000000000000000000000000000000602082015250565b6000610b80602883610a81565b9150610b8b82610b24565b604082019050919050565b60006020820190508181036000830152610baf81610b73565b9050919050565b7f596f7520646f206e6f74206861766520616e7920616c6c6f77616e6365000000600082015250565b6000610bec601d83610a81565b9150610bf782610bb6565b602082019050919050565b60006020820190508181036000830152610c1b81610bdf565b9050919050565b7f4e487b7100000000000000000000000000000000000000000000000000000000600052601160045260246000fd5b6000610c5c826108e3565b9150610c67836108e3565b9250828201905080821115610c7f57610c7e610c22565b5b92915050565b6000610c90826108e3565b9150610c9b836108e3565b9250817fffffffffffffffffffffffffffffffffffffffffffffffffffffffffffffffff0483118215151615610cd457610cd3610c22565b5b828202905092915050565b6000610cea826108e3565b9150610cf5836108e3565b9250828203905081811115610d0d57610d0c610c22565b5b92915050565b7f54686520616d6f756e7420697320746f6f206869676800000000000000000000600082015250565b6000610d49601683610a81565b9150610d5482610d13565b602082019050919050565b60006020820190508181036000830152610d7881610d3c565b9050919050565b7f596f7520617265206e6f7420616c6c6f776564202d206f6e6c7920746865206f60008201527f776e65722063616e20646f20746869732e000000000000000000000000000000602082015250565b6000610ddb603183610a81565b9150610de682610d7f565b604082019050919050565b60006020820190508181036000830152610e0a81610dce565b9050919050565b7f416e20616c6c6f77616e6365206973206e6f7420726571756972656420666f7260008201527f20746865206f776e657200000000000000000000000000000000000000000000602082015250565b6000610e6d602a83610a81565b9150610e7882610e11565b604082019050919050565b60006020820190508181036000830152610e9c81610e60565b9050919050565b7f546865206164647265737320616c72656164792068617320616e20616c6c6f7760008201527f616e636500000000000000000000000000000000000000000000000000000000602082015250565b6000610eff602483610a81565b9150610f0a82610ea3565b604082019050919050565b60006020820190508181036000830152610f2e81610ef2565b9050919050565b7f5468697320776f756c64206f7665722d616c6c6f636174652074686520616c6c60008201527f6f77616e63657300000000000000000000000000000000000000000000000000602082015250565b6000610f91602783610a81565b9150610f9c82610f35565b604082019050919050565b60006020820190508181036000830152610fc081610f84565b905091905056fea264697066735822122075f600628de5770be73031ba453f3bac2ada12b18925160f56d25d697fed020c64736f6c63430008100033",
					"opcodes": "PUSH1 0x80 PUSH1 0x40 MSTORE CALLVALUE DUP1 ISZERO PUSH2 0x10 JUMPI PUSH1 0x0 DUP1 REVERT JUMPDEST POP CALLER PUSH1 0x0 DUP1 PUSH2 0x100 EXP DUP2 SLOAD DUP2 PUSH20 0xFFFFFFFFFFFFFFFFFFFFFFFFFFFFFFFFFFFFFFFF MUL NOT AND SWAP1 DUP4 PUSH20 0xFFFFFFFFFFFFFFFFFFFFFFFFFFFFFFFFFFFFFFFF AND MUL OR SWAP1 SSTORE POP PUSH2 0xFFD DUP1 PUSH2 0x60 PUSH1 0x0 CODECOPY PUSH1 0x0 RETURN INVALID PUSH1 0x80 PUSH1 0x40 MSTORE PUSH1 0x4 CALLDATASIZE LT PUSH2 0x86 JUMPI PUSH1 0x0 CALLDATALOAD PUSH1 0xE0 SHR DUP1 PUSH4 0x33F707D1 GT PUSH2 0x59 JUMPI DUP1 PUSH4 0x33F707D1 EQ PUSH2 0x127 JUMPI DUP1 PUSH4 0x3E7279A3 EQ PUSH2 0x150 JUMPI DUP1 PUSH4 0x41C61383 EQ PUSH2 0x179 JUMPI DUP1 PUSH4 0x8B7AFE2E EQ PUSH2 0x1A4 JUMPI DUP1 PUSH4 0x8DA5CB5B EQ PUSH2 0x1CF JUMPI PUSH2 0x86 JUMP JUMPDEST DUP1 PUSH4 0x1567739 EQ PUSH2 0x8B JUMPI DUP1 PUSH4 0x5737314 EQ PUSH2 0xC9 JUMPI DUP1 PUSH4 0x16A51305 EQ PUSH2 0xD3 JUMPI DUP1 PUSH4 0x2D70DB2F EQ PUSH2 0xFE JUMPI JUMPDEST PUSH1 0x0 DUP1 REVERT JUMPDEST CALLVALUE DUP1 ISZERO PUSH2 0x97 JUMPI PUSH1 0x0 DUP1 REVERT JUMPDEST POP PUSH2 0xB2 PUSH1 0x4 DUP1 CALLDATASIZE SUB DUP2 ADD SWAP1 PUSH2 0xAD SWAP2 SWAP1 PUSH2 0x8B6 JUMP JUMPDEST PUSH2 0x1FA JUMP JUMPDEST PUSH1 0x40 MLOAD PUSH2 0xC0 SWAP3 SWAP2 SWAP1 PUSH2 0x8FC JUMP JUMPDEST PUSH1 0x40 MLOAD DUP1 SWAP2 SUB SWAP1 RETURN JUMPDEST PUSH2 0xD1 PUSH2 0x21E JUMP JUMPDEST STOP JUMPDEST CALLVALUE DUP1 ISZERO PUSH2 0xDF JUMPI PUSH1 0x0 DUP1 REVERT JUMPDEST POP PUSH2 0xE8 PUSH2 0x227 JUMP JUMPDEST PUSH1 0x40 MLOAD PUSH2 0xF5 SWAP2 SWAP1 PUSH2 0x925 JUMP JUMPDEST PUSH1 0x40 MLOAD DUP1 SWAP2 SUB SWAP1 RETURN JUMPDEST CALLVALUE DUP1 ISZERO PUSH2 0x10A JUMPI PUSH1 0x0 DUP1 REVERT JUMPDEST POP PUSH2 0x125 PUSH1 0x4 DUP1 CALLDATASIZE SUB DUP2 ADD SWAP1 PUSH2 0x120 SWAP2 SWAP1 PUSH2 0x9AA JUMP JUMPDEST PUSH2 0x22D JUMP JUMPDEST STOP JUMPDEST CALLVALUE DUP1 ISZERO PUSH2 0x133 JUMPI PUSH1 0x0 DUP1 REVERT JUMPDEST POP PUSH2 0x14E PUSH1 0x4 DUP1 CALLDATASIZE SUB DUP2 ADD SWAP1 PUSH2 0x149 SWAP2 SWAP1 PUSH2 0x9EA JUMP JUMPDEST PUSH2 0x53D JUMP JUMPDEST STOP JUMPDEST CALLVALUE DUP1 ISZERO PUSH2 0x15C JUMPI PUSH1 0x0 DUP1 REVERT JUMPDEST POP PUSH2 0x177 PUSH1 0x4 DUP1 CALLDATASIZE SUB DUP2 ADD SWAP1 PUSH2 0x172 SWAP2 SWAP1 PUSH2 0xA17 JUMP JUMPDEST PUSH2 0x5CE JUMP JUMPDEST STOP JUMPDEST CALLVALUE DUP1 ISZERO PUSH2 0x185 JUMPI PUSH1 0x0 DUP1 REVERT JUMPDEST POP PUSH2 0x18E PUSH2 0x823 JUMP JUMPDEST PUSH1 0x40 MLOAD PUSH2 0x19B SWAP2 SWAP1 PUSH2 0x925 JUMP JUMPDEST PUSH1 0x40 MLOAD DUP1 SWAP2 SUB SWAP1 RETURN JUMPDEST CALLVALUE DUP1 ISZERO PUSH2 0x1B0 JUMPI PUSH1 0x0 DUP1 REVERT JUMPDEST POP PUSH2 0x1B9 PUSH2 0x829 JUMP JUMPDEST PUSH1 0x40 MLOAD PUSH2 0x1C6 SWAP2 SWAP1 PUSH2 0x925 JUMP JUMPDEST PUSH1 0x40 MLOAD DUP1 SWAP2 SUB SWAP1 RETURN JUMPDEST CALLVALUE DUP1 ISZERO PUSH2 0x1DB JUMPI PUSH1 0x0 DUP1 REVERT JUMPDEST POP PUSH2 0x1E4 PUSH2 0x82F JUMP JUMPDEST PUSH1 0x40 MLOAD PUSH2 0x1F1 SWAP2 SWAP1 PUSH2 0xA66 JUMP JUMPDEST PUSH1 0x40 MLOAD DUP1 SWAP2 SUB SWAP1 RETURN JUMPDEST PUSH1 0x1 PUSH1 0x20 MSTORE DUP1 PUSH1 0x0 MSTORE PUSH1 0x40 PUSH1 0x0 KECCAK256 PUSH1 0x0 SWAP2 POP SWAP1 POP DUP1 PUSH1 0x0 ADD SLOAD SWAP1 DUP1 PUSH1 0x1 ADD SLOAD SWAP1 POP DUP3 JUMP JUMPDEST SELFBALANCE PUSH1 0x4 DUP2 SWAP1 SSTORE POP JUMP JUMPDEST PUSH1 0x2 SLOAD DUP2 JUMP JUMPDEST PUSH1 0x0 DUP1 SLOAD SWAP1 PUSH2 0x100 EXP SWAP1 DIV PUSH20 0xFFFFFFFFFFFFFFFFFFFFFFFFFFFFFFFFFFFFFFFF AND PUSH20 0xFFFFFFFFFFFFFFFFFFFFFFFFFFFFFFFFFFFFFFFF AND CALLER PUSH20 0xFFFFFFFFFFFFFFFFFFFFFFFFFFFFFFFFFFFFFFFF AND SUB PUSH2 0x2BB JUMPI PUSH1 0x40 MLOAD PUSH32 0x8C379A000000000000000000000000000000000000000000000000000000000 DUP2 MSTORE PUSH1 0x4 ADD PUSH2 0x2B2 SWAP1 PUSH2 0xB04 JUMP JUMPDEST PUSH1 0x40 MLOAD DUP1 SWAP2 SUB SWAP1 REVERT JUMPDEST PUSH1 0x0 SELFBALANCE GT PUSH2 0x2FE JUMPI PUSH1 0x40 MLOAD PUSH32 0x8C379A000000000000000000000000000000000000000000000000000000000 DUP2 MSTORE PUSH1 0x4 ADD PUSH2 0x2F5 SWAP1 PUSH2 0xB96 JUMP JUMPDEST PUSH1 0x40 MLOAD DUP1 SWAP2 SUB SWAP1 REVERT JUMPDEST PUSH1 0x0 PUSH1 0x1 PUSH1 0x0 CALLER PUSH20 0xFFFFFFFFFFFFFFFFFFFFFFFFFFFFFFFFFFFFFFFF AND PUSH20 0xFFFFFFFFFFFFFFFFFFFFFFFFFFFFFFFFFFFFFFFF AND DUP2 MSTORE PUSH1 0x20 ADD SWAP1 DUP2 MSTORE PUSH1 0x20 ADD PUSH1 0x0 KECCAK256 PUSH1 0x0 ADD SLOAD GT PUSH2 0x383 JUMPI PUSH1 0x40 MLOAD PUSH32 0x8C379A000000000000000000000000000000000000000000000000000000000 DUP2 MSTORE PUSH1 0x4 ADD PUSH2 0x37A SWAP1 PUSH2 0xC02 JUMP JUMPDEST PUSH1 0x40 MLOAD DUP1 SWAP2 SUB SWAP1 REVERT JUMPDEST PUSH1 0x0 PUSH1 0x1 PUSH1 0x0 CALLER PUSH20 0xFFFFFFFFFFFFFFFFFFFFFFFFFFFFFFFFFFFFFFFF AND PUSH20 0xFFFFFFFFFFFFFFFFFFFFFFFFFFFFFFFFFFFFFFFF AND DUP2 MSTORE PUSH1 0x20 ADD SWAP1 DUP2 MSTORE PUSH1 0x20 ADD PUSH1 0x0 KECCAK256 PUSH1 0x0 ADD SLOAD SWAP1 POP PUSH1 0x0 PUSH1 0x1 PUSH1 0x0 CALLER PUSH20 0xFFFFFFFFFFFFFFFFFFFFFFFFFFFFFFFFFFFFFFFF AND PUSH20 0xFFFFFFFFFFFFFFFFFFFFFFFFFFFFFFFFFFFFFFFF AND DUP2 MSTORE PUSH1 0x20 ADD SWAP1 DUP2 MSTORE PUSH1 0x20 ADD PUSH1 0x0 KECCAK256 PUSH1 0x1 ADD SLOAD PUSH1 0x3 SLOAD SELFBALANCE PUSH2 0x41D SWAP2 SWAP1 PUSH2 0xC51 JUMP JUMPDEST DUP4 PUSH2 0x428 SWAP2 SWAP1 PUSH2 0xC85 JUMP JUMPDEST PUSH2 0x432 SWAP2 SWAP1 PUSH2 0xCDF JUMP JUMPDEST SWAP1 POP DUP1 DUP4 GT ISZERO PUSH2 0x477 JUMPI PUSH1 0x40 MLOAD PUSH32 0x8C379A000000000000000000000000000000000000000000000000000000000 DUP2 MSTORE PUSH1 0x4 ADD PUSH2 0x46E SWAP1 PUSH2 0xD5F JUMP JUMPDEST PUSH1 0x40 MLOAD DUP1 SWAP2 SUB SWAP1 REVERT JUMPDEST DUP3 PUSH1 0x1 PUSH1 0x0 CALLER PUSH20 0xFFFFFFFFFFFFFFFFFFFFFFFFFFFFFFFFFFFFFFFF AND PUSH20 0xFFFFFFFFFFFFFFFFFFFFFFFFFFFFFFFFFFFFFFFF AND DUP2 MSTORE PUSH1 0x20 ADD SWAP1 DUP2 MSTORE PUSH1 0x20 ADD PUSH1 0x0 KECCAK256 PUSH1 0x1 ADD PUSH1 0x0 DUP3 DUP3 SLOAD PUSH2 0x4C9 SWAP2 SWAP1 PUSH2 0xC51 JUMP JUMPDEST SWAP3 POP POP DUP2 SWAP1 SSTORE POP DUP3 PUSH1 0x3 PUSH1 0x0 DUP3 DUP3 SLOAD PUSH2 0x4E2 SWAP2 SWAP1 PUSH2 0xC51 JUMP JUMPDEST SWAP3 POP POP DUP2 SWAP1 SSTORE POP SELFBALANCE PUSH1 0x4 DUP2 SWAP1 SSTORE POP DUP4 PUSH20 0xFFFFFFFFFFFFFFFFFFFFFFFFFFFFFFFFFFFFFFFF AND PUSH2 0x8FC DUP5 SWAP1 DUP2 ISZERO MUL SWAP1 PUSH1 0x40 MLOAD PUSH1 0x0 PUSH1 0x40 MLOAD DUP1 DUP4 SUB DUP2 DUP6 DUP9 DUP9 CALL SWAP4 POP POP POP POP ISZERO DUP1 ISZERO PUSH2 0x536 JUMPI RETURNDATASIZE PUSH1 0x0 DUP1 RETURNDATACOPY RETURNDATASIZE PUSH1 0x0 REVERT JUMPDEST POP POP POP POP POP JUMP JUMPDEST PUSH1 0x0 DUP1 SLOAD SWAP1 PUSH2 0x100 EXP SWAP1 DIV PUSH20 0xFFFFFFFFFFFFFFFFFFFFFFFFFFFFFFFFFFFFFFFF AND PUSH20 0xFFFFFFFFFFFFFFFFFFFFFFFFFFFFFFFFFFFFFFFF AND CALLER PUSH20 0xFFFFFFFFFFFFFFFFFFFFFFFFFFFFFFFFFFFFFFFF AND EQ PUSH2 0x5CB JUMPI PUSH1 0x40 MLOAD PUSH32 0x8C379A000000000000000000000000000000000000000000000000000000000 DUP2 MSTORE PUSH1 0x4 ADD PUSH2 0x5C2 SWAP1 PUSH2 0xDF1 JUMP JUMPDEST PUSH1 0x40 MLOAD DUP1 SWAP2 SUB SWAP1 REVERT JUMPDEST POP JUMP JUMPDEST PUSH1 0x0 DUP1 SLOAD SWAP1 PUSH2 0x100 EXP SWAP1 DIV PUSH20 0xFFFFFFFFFFFFFFFFFFFFFFFFFFFFFFFFFFFFFFFF AND PUSH20 0xFFFFFFFFFFFFFFFFFFFFFFFFFFFFFFFFFFFFFFFF AND CALLER PUSH20 0xFFFFFFFFFFFFFFFFFFFFFFFFFFFFFFFFFFFFFFFF AND EQ PUSH2 0x65C JUMPI PUSH1 0x40 MLOAD PUSH32 0x8C379A000000000000000000000000000000000000000000000000000000000 DUP2 MSTORE PUSH1 0x4 ADD PUSH2 0x653 SWAP1 PUSH2 0xDF1 JUMP JUMPDEST PUSH1 0x40 MLOAD DUP1 SWAP2 SUB SWAP1 REVERT JUMPDEST PUSH1 0x0 DUP1 SLOAD SWAP1 PUSH2 0x100 EXP SWAP1 DIV PUSH20 0xFFFFFFFFFFFFFFFFFFFFFFFFFFFFFFFFFFFFFFFF AND PUSH20 0xFFFFFFFFFFFFFFFFFFFFFFFFFFFFFFFFFFFFFFFF AND DUP3 PUSH20 0xFFFFFFFFFFFFFFFFFFFFFFFFFFFFFFFFFFFFFFFF AND SUB PUSH2 0x6EA JUMPI PUSH1 0x40 MLOAD PUSH32 0x8C379A000000000000000000000000000000000000000000000000000000000 DUP2 MSTORE PUSH1 0x4 ADD PUSH2 0x6E1 SWAP1 PUSH2 0xE83 JUMP JUMPDEST PUSH1 0x40 MLOAD DUP1 SWAP2 SUB SWAP1 REVERT JUMPDEST PUSH1 0x0 PUSH1 0x1 PUSH1 0x0 DUP5 PUSH20 0xFFFFFFFFFFFFFFFFFFFFFFFFFFFFFFFFFFFFFFFF AND PUSH20 0xFFFFFFFFFFFFFFFFFFFFFFFFFFFFFFFFFFFFFFFF AND DUP2 MSTORE PUSH1 0x20 ADD SWAP1 DUP2 MSTORE PUSH1 0x20 ADD PUSH1 0x0 KECCAK256 PUSH1 0x0 ADD SLOAD EQ PUSH2 0x76F JUMPI PUSH1 0x40 MLOAD PUSH32 0x8C379A000000000000000000000000000000000000000000000000000000000 DUP2 MSTORE PUSH1 0x4 ADD PUSH2 0x766 SWAP1 PUSH2 0xF15 JUMP JUMPDEST PUSH1 0x40 MLOAD DUP1 SWAP2 SUB SWAP1 REVERT JUMPDEST PUSH1 0x64 DUP2 PUSH1 0x2 SLOAD PUSH2 0x77F SWAP2 SWAP1 PUSH2 0xC51 JUMP JUMPDEST LT PUSH2 0x7BF JUMPI PUSH1 0x40 MLOAD PUSH32 0x8C379A000000000000000000000000000000000000000000000000000000000 DUP2 MSTORE PUSH1 0x4 ADD PUSH2 0x7B6 SWAP1 PUSH2 0xFA7 JUMP JUMPDEST PUSH1 0x40 MLOAD DUP1 SWAP2 SUB SWAP1 REVERT JUMPDEST DUP1 PUSH1 0x1 PUSH1 0x0 DUP5 PUSH20 0xFFFFFFFFFFFFFFFFFFFFFFFFFFFFFFFFFFFFFFFF AND PUSH20 0xFFFFFFFFFFFFFFFFFFFFFFFFFFFFFFFFFFFFFFFF AND DUP2 MSTORE PUSH1 0x20 ADD SWAP1 DUP2 MSTORE PUSH1 0x20 ADD PUSH1 0x0 KECCAK256 PUSH1 0x0 ADD DUP2 SWAP1 SSTORE POP DUP1 PUSH1 0x2 PUSH1 0x0 DUP3 DUP3 SLOAD PUSH2 0x818 SWAP2 SWAP1 PUSH2 0xC51 JUMP JUMPDEST SWAP3 POP POP DUP2 SWAP1 SSTORE POP POP POP JUMP JUMPDEST PUSH1 0x3 SLOAD DUP2 JUMP JUMPDEST PUSH1 0x4 SLOAD DUP2 JUMP JUMPDEST PUSH1 0x0 DUP1 SLOAD SWAP1 PUSH2 0x100 EXP SWAP1 DIV PUSH20 0xFFFFFFFFFFFFFFFFFFFFFFFFFFFFFFFFFFFFFFFF AND DUP2 JUMP JUMPDEST PUSH1 0x0 DUP1 REVERT JUMPDEST PUSH1 0x0 PUSH20 0xFFFFFFFFFFFFFFFFFFFFFFFFFFFFFFFFFFFFFFFF DUP3 AND SWAP1 POP SWAP2 SWAP1 POP JUMP JUMPDEST PUSH1 0x0 PUSH2 0x883 DUP3 PUSH2 0x858 JUMP JUMPDEST SWAP1 POP SWAP2 SWAP1 POP JUMP JUMPDEST PUSH2 0x893 DUP2 PUSH2 0x878 JUMP JUMPDEST DUP2 EQ PUSH2 0x89E JUMPI PUSH1 0x0 DUP1 REVERT JUMPDEST POP JUMP JUMPDEST PUSH1 0x0 DUP2 CALLDATALOAD SWAP1 POP PUSH2 0x8B0 DUP2 PUSH2 0x88A JUMP JUMPDEST SWAP3 SWAP2 POP POP JUMP JUMPDEST PUSH1 0x0 PUSH1 0x20 DUP3 DUP5 SUB SLT ISZERO PUSH2 0x8CC JUMPI PUSH2 0x8CB PUSH2 0x853 JUMP JUMPDEST JUMPDEST PUSH1 0x0 PUSH2 0x8DA DUP5 DUP3 DUP6 ADD PUSH2 0x8A1 JUMP JUMPDEST SWAP2 POP POP SWAP3 SWAP2 POP POP JUMP JUMPDEST PUSH1 0x0 DUP2 SWAP1 POP SWAP2 SWAP1 POP JUMP JUMPDEST PUSH2 0x8F6 DUP2 PUSH2 0x8E3 JUMP JUMPDEST DUP3 MSTORE POP POP JUMP JUMPDEST PUSH1 0x0 PUSH1 0x40 DUP3 ADD SWAP1 POP PUSH2 0x911 PUSH1 0x0 DUP4 ADD DUP6 PUSH2 0x8ED JUMP JUMPDEST PUSH2 0x91E PUSH1 0x20 DUP4 ADD DUP5 PUSH2 0x8ED JUMP JUMPDEST SWAP4 SWAP3 POP POP POP JUMP JUMPDEST PUSH1 0x0 PUSH1 0x20 DUP3 ADD SWAP1 POP PUSH2 0x93A PUSH1 0x0 DUP4 ADD DUP5 PUSH2 0x8ED JUMP JUMPDEST SWAP3 SWAP2 POP POP JUMP JUMPDEST PUSH1 0x0 PUSH2 0x94B DUP3 PUSH2 0x858 JUMP JUMPDEST SWAP1 POP SWAP2 SWAP1 POP JUMP JUMPDEST PUSH2 0x95B DUP2 PUSH2 0x940 JUMP JUMPDEST DUP2 EQ PUSH2 0x966 JUMPI PUSH1 0x0 DUP1 REVERT JUMPDEST POP JUMP JUMPDEST PUSH1 0x0 DUP2 CALLDATALOAD SWAP1 POP PUSH2 0x978 DUP2 PUSH2 0x952 JUMP JUMPDEST SWAP3 SWAP2 POP POP JUMP JUMPDEST PUSH2 0x987 DUP2 PUSH2 0x8E3 JUMP JUMPDEST DUP2 EQ PUSH2 0x992 JUMPI PUSH1 0x0 DUP1 REVERT JUMPDEST POP JUMP JUMPDEST PUSH1 0x0 DUP2 CALLDATALOAD SWAP1 POP PUSH2 0x9A4 DUP2 PUSH2 0x97E JUMP JUMPDEST SWAP3 SWAP2 POP POP JUMP JUMPDEST PUSH1 0x0 DUP1 PUSH1 0x40 DUP4 DUP6 SUB SLT ISZERO PUSH2 0x9C1 JUMPI PUSH2 0x9C0 PUSH2 0x853 JUMP JUMPDEST JUMPDEST PUSH1 0x0 PUSH2 0x9CF DUP6 DUP3 DUP7 ADD PUSH2 0x969 JUMP JUMPDEST SWAP3 POP POP PUSH1 0x20 PUSH2 0x9E0 DUP6 DUP3 DUP7 ADD PUSH2 0x995 JUMP JUMPDEST SWAP2 POP POP SWAP3 POP SWAP3 SWAP1 POP JUMP JUMPDEST PUSH1 0x0 PUSH1 0x20 DUP3 DUP5 SUB SLT ISZERO PUSH2 0xA00 JUMPI PUSH2 0x9FF PUSH2 0x853 JUMP JUMPDEST JUMPDEST PUSH1 0x0 PUSH2 0xA0E DUP5 DUP3 DUP6 ADD PUSH2 0x995 JUMP JUMPDEST SWAP2 POP POP SWAP3 SWAP2 POP POP JUMP JUMPDEST PUSH1 0x0 DUP1 PUSH1 0x40 DUP4 DUP6 SUB SLT ISZERO PUSH2 0xA2E JUMPI PUSH2 0xA2D PUSH2 0x853 JUMP JUMPDEST JUMPDEST PUSH1 0x0 PUSH2 0xA3C DUP6 DUP3 DUP7 ADD PUSH2 0x8A1 JUMP JUMPDEST SWAP3 POP POP PUSH1 0x20 PUSH2 0xA4D DUP6 DUP3 DUP7 ADD PUSH2 0x995 JUMP JUMPDEST SWAP2 POP POP SWAP3 POP SWAP3 SWAP1 POP JUMP JUMPDEST PUSH2 0xA60 DUP2 PUSH2 0x878 JUMP JUMPDEST DUP3 MSTORE POP POP JUMP JUMPDEST PUSH1 0x0 PUSH1 0x20 DUP3 ADD SWAP1 POP PUSH2 0xA7B PUSH1 0x0 DUP4 ADD DUP5 PUSH2 0xA57 JUMP JUMPDEST SWAP3 SWAP2 POP POP JUMP JUMPDEST PUSH1 0x0 DUP3 DUP3 MSTORE PUSH1 0x20 DUP3 ADD SWAP1 POP SWAP3 SWAP2 POP POP JUMP JUMPDEST PUSH32 0x546865206F776E65722073686F756C642075736520776E657257697468647261 PUSH1 0x0 DUP3 ADD MSTORE PUSH32 0x772066756E6374696F6E00000000000000000000000000000000000000000000 PUSH1 0x20 DUP3 ADD MSTORE POP JUMP JUMPDEST PUSH1 0x0 PUSH2 0xAEE PUSH1 0x2A DUP4 PUSH2 0xA81 JUMP JUMPDEST SWAP2 POP PUSH2 0xAF9 DUP3 PUSH2 0xA92 JUMP JUMPDEST PUSH1 0x40 DUP3 ADD SWAP1 POP SWAP2 SWAP1 POP JUMP JUMPDEST PUSH1 0x0 PUSH1 0x20 DUP3 ADD SWAP1 POP DUP2 DUP2 SUB PUSH1 0x0 DUP4 ADD MSTORE PUSH2 0xB1D DUP2 PUSH2 0xAE1 JUMP JUMPDEST SWAP1 POP SWAP2 SWAP1 POP JUMP JUMPDEST PUSH32 0x5468657265206973206E6F206D6F6E657920696E207468652077616C6C657420 PUSH1 0x0 DUP3 ADD MSTORE PUSH32 0x746F20636C61696D000000000000000000000000000000000000000000000000 PUSH1 0x20 DUP3 ADD MSTORE POP JUMP JUMPDEST PUSH1 0x0 PUSH2 0xB80 PUSH1 0x28 DUP4 PUSH2 0xA81 JUMP JUMPDEST SWAP2 POP PUSH2 0xB8B DUP3 PUSH2 0xB24 JUMP JUMPDEST PUSH1 0x40 DUP3 ADD SWAP1 POP SWAP2 SWAP1 POP JUMP JUMPDEST PUSH1 0x0 PUSH1 0x20 DUP3 ADD SWAP1 POP DUP2 DUP2 SUB PUSH1 0x0 DUP4 ADD MSTORE PUSH2 0xBAF DUP2 PUSH2 0xB73 JUMP JUMPDEST SWAP1 POP SWAP2 SWAP1 POP JUMP JUMPDEST PUSH32 0x596F7520646F206E6F74206861766520616E7920616C6C6F77616E6365000000 PUSH1 0x0 DUP3 ADD MSTORE POP JUMP JUMPDEST PUSH1 0x0 PUSH2 0xBEC PUSH1 0x1D DUP4 PUSH2 0xA81 JUMP JUMPDEST SWAP2 POP PUSH2 0xBF7 DUP3 PUSH2 0xBB6 JUMP JUMPDEST PUSH1 0x20 DUP3 ADD SWAP1 POP SWAP2 SWAP1 POP JUMP JUMPDEST PUSH1 0x0 PUSH1 0x20 DUP3 ADD SWAP1 POP DUP2 DUP2 SUB PUSH1 0x0 DUP4 ADD MSTORE PUSH2 0xC1B DUP2 PUSH2 0xBDF JUMP JUMPDEST SWAP1 POP SWAP2 SWAP1 POP JUMP JUMPDEST PUSH32 0x4E487B7100000000000000000000000000000000000000000000000000000000 PUSH1 0x0 MSTORE PUSH1 0x11 PUSH1 0x4 MSTORE PUSH1 0x24 PUSH1 0x0 REVERT JUMPDEST PUSH1 0x0 PUSH2 0xC5C DUP3 PUSH2 0x8E3 JUMP JUMPDEST SWAP2 POP PUSH2 0xC67 DUP4 PUSH2 0x8E3 JUMP JUMPDEST SWAP3 POP DUP3 DUP3 ADD SWAP1 POP DUP1 DUP3 GT ISZERO PUSH2 0xC7F JUMPI PUSH2 0xC7E PUSH2 0xC22 JUMP JUMPDEST JUMPDEST SWAP3 SWAP2 POP POP JUMP JUMPDEST PUSH1 0x0 PUSH2 0xC90 DUP3 PUSH2 0x8E3 JUMP JUMPDEST SWAP2 POP PUSH2 0xC9B DUP4 PUSH2 0x8E3 JUMP JUMPDEST SWAP3 POP DUP2 PUSH32 0xFFFFFFFFFFFFFFFFFFFFFFFFFFFFFFFFFFFFFFFFFFFFFFFFFFFFFFFFFFFFFFFF DIV DUP4 GT DUP3 ISZERO ISZERO AND ISZERO PUSH2 0xCD4 JUMPI PUSH2 0xCD3 PUSH2 0xC22 JUMP JUMPDEST JUMPDEST DUP3 DUP3 MUL SWAP1 POP SWAP3 SWAP2 POP POP JUMP JUMPDEST PUSH1 0x0 PUSH2 0xCEA DUP3 PUSH2 0x8E3 JUMP JUMPDEST SWAP2 POP PUSH2 0xCF5 DUP4 PUSH2 0x8E3 JUMP JUMPDEST SWAP3 POP DUP3 DUP3 SUB SWAP1 POP DUP2 DUP2 GT ISZERO PUSH2 0xD0D JUMPI PUSH2 0xD0C PUSH2 0xC22 JUMP JUMPDEST JUMPDEST SWAP3 SWAP2 POP POP JUMP JUMPDEST PUSH32 0x54686520616D6F756E7420697320746F6F206869676800000000000000000000 PUSH1 0x0 DUP3 ADD MSTORE POP JUMP JUMPDEST PUSH1 0x0 PUSH2 0xD49 PUSH1 0x16 DUP4 PUSH2 0xA81 JUMP JUMPDEST SWAP2 POP PUSH2 0xD54 DUP3 PUSH2 0xD13 JUMP JUMPDEST PUSH1 0x20 DUP3 ADD SWAP1 POP SWAP2 SWAP1 POP JUMP JUMPDEST PUSH1 0x0 PUSH1 0x20 DUP3 ADD SWAP1 POP DUP2 DUP2 SUB PUSH1 0x0 DUP4 ADD MSTORE PUSH2 0xD78 DUP2 PUSH2 0xD3C JUMP JUMPDEST SWAP1 POP SWAP2 SWAP1 POP JUMP JUMPDEST PUSH32 0x596F7520617265206E6F7420616C6C6F776564202D206F6E6C7920746865206F PUSH1 0x0 DUP3 ADD MSTORE PUSH32 0x776E65722063616E20646F20746869732E000000000000000000000000000000 PUSH1 0x20 DUP3 ADD MSTORE POP JUMP JUMPDEST PUSH1 0x0 PUSH2 0xDDB PUSH1 0x31 DUP4 PUSH2 0xA81 JUMP JUMPDEST SWAP2 POP PUSH2 0xDE6 DUP3 PUSH2 0xD7F JUMP JUMPDEST PUSH1 0x40 DUP3 ADD SWAP1 POP SWAP2 SWAP1 POP JUMP JUMPDEST PUSH1 0x0 PUSH1 0x20 DUP3 ADD SWAP1 POP DUP2 DUP2 SUB PUSH1 0x0 DUP4 ADD MSTORE PUSH2 0xE0A DUP2 PUSH2 0xDCE JUMP JUMPDEST SWAP1 POP SWAP2 SWAP1 POP JUMP JUMPDEST PUSH32 0x416E20616C6C6F77616E6365206973206E6F7420726571756972656420666F72 PUSH1 0x0 DUP3 ADD MSTORE PUSH32 0x20746865206F776E657200000000000000000000000000000000000000000000 PUSH1 0x20 DUP3 ADD MSTORE POP JUMP JUMPDEST PUSH1 0x0 PUSH2 0xE6D PUSH1 0x2A DUP4 PUSH2 0xA81 JUMP JUMPDEST SWAP2 POP PUSH2 0xE78 DUP3 PUSH2 0xE11 JUMP JUMPDEST PUSH1 0x40 DUP3 ADD SWAP1 POP SWAP2 SWAP1 POP JUMP JUMPDEST PUSH1 0x0 PUSH1 0x20 DUP3 ADD SWAP1 POP DUP2 DUP2 SUB PUSH1 0x0 DUP4 ADD MSTORE PUSH2 0xE9C DUP2 PUSH2 0xE60 JUMP JUMPDEST SWAP1 POP SWAP2 SWAP1 POP JUMP JUMPDEST PUSH32 0x546865206164647265737320616C72656164792068617320616E20616C6C6F77 PUSH1 0x0 DUP3 ADD MSTORE PUSH32 0x616E636500000000000000000000000000000000000000000000000000000000 PUSH1 0x20 DUP3 ADD MSTORE POP JUMP JUMPDEST PUSH1 0x0 PUSH2 0xEFF PUSH1 0x24 DUP4 PUSH2 0xA81 JUMP JUMPDEST SWAP2 POP PUSH2 0xF0A DUP3 PUSH2 0xEA3 JUMP JUMPDEST PUSH1 0x40 DUP3 ADD SWAP1 POP SWAP2 SWAP1 POP JUMP JUMPDEST PUSH1 0x0 PUSH1 0x20 DUP3 ADD SWAP1 POP DUP2 DUP2 SUB PUSH1 0x0 DUP4 ADD MSTORE PUSH2 0xF2E DUP2 PUSH2 0xEF2 JUMP JUMPDEST SWAP1 POP SWAP2 SWAP1 POP JUMP JUMPDEST PUSH32 0x5468697320776F756C64206F7665722D616C6C6F636174652074686520616C6C PUSH1 0x0 DUP3 ADD MSTORE PUSH32 0x6F77616E63657300000000000000000000000000000000000000000000000000 PUSH1 0x20 DUP3 ADD MSTORE POP JUMP JUMPDEST PUSH1 0x0 PUSH2 0xF91 PUSH1 0x27 DUP4 PUSH2 0xA81 JUMP JUMPDEST SWAP2 POP PUSH2 0xF9C DUP3 PUSH2 0xF35 JUMP JUMPDEST PUSH1 0x40 DUP3 ADD SWAP1 POP SWAP2 SWAP1 POP JUMP JUMPDEST PUSH1 0x0 PUSH1 0x20 DUP3 ADD SWAP1 POP DUP2 DUP2 SUB PUSH1 0x0 DUP4 ADD MSTORE PUSH2 0xFC0 DUP2 PUSH2 0xF84 JUMP JUMPDEST SWAP1 POP SWAP2 SWAP1 POP JUMP INVALID LOG2 PUSH5 0x6970667358 0x22 SLT KECCAK256 PUSH22 0xF600628DE5770BE73031BA453F3BAC2ADA12B1892516 0xF JUMP 0xD2 0x5D PUSH10 0x7FED020C64736F6C6343 STOP ADDMOD LT STOP CALLER "
				},
				"gasEstimates": {
					"creation": {
						"codeDepositCost": "818600",
						"executionCost": "25117",
						"totalCost": "843717"
					},
					"external": {
						"ClaimMoney(address,uint256)": "infinite",
						"SendMoney()": "22259",
						"SetAllowance(address,uint256)": "infinite",
						"beneficiaries(address)": "infinite",
						"contractBalance()": "2495",
						"owner()": "2599",
						"ownerWithdraw(uint256)": "2878",
						"totalAllowances()": "2474",
						"totalClaims()": "2473"
					}
				},
				"methodIdentifiers": {
					"ClaimMoney(address,uint256)": "2d70db2f",
					"SendMoney()": "05737314",
					"SetAllowance(address,uint256)": "3e7279a3",
					"beneficiaries(address)": "01567739",
					"contractBalance()": "8b7afe2e",
					"owner()": "8da5cb5b",
					"ownerWithdraw(uint256)": "33f707d1",
					"totalAllowances()": "16a51305",
					"totalClaims()": "41c61383"
				}
			},
			"storageLayout": {
				"storage": [
					{
						"astId": 8,
						"contract": "MyProjectSharedWallet.sol:SharedWallet",
						"label": "owner",
						"offset": 0,
						"slot": "0",
						"type": "t_address"
					},
					{
						"astId": 13,
						"contract": "MyProjectSharedWallet.sol:SharedWallet",
						"label": "beneficiaries",
						"offset": 0,
						"slot": "1",
						"type": "t_mapping(t_address,t_struct(BeneficiaryDetails)6_storage)"
					},
					{
						"astId": 15,
						"contract": "MyProjectSharedWallet.sol:SharedWallet",
						"label": "totalAllowances",
						"offset": 0,
						"slot": "2",
						"type": "t_uint256"
					},
					{
						"astId": 17,
						"contract": "MyProjectSharedWallet.sol:SharedWallet",
						"label": "totalClaims",
						"offset": 0,
						"slot": "3",
						"type": "t_uint256"
					},
					{
						"astId": 19,
						"contract": "MyProjectSharedWallet.sol:SharedWallet",
						"label": "contractBalance",
						"offset": 0,
						"slot": "4",
						"type": "t_uint256"
					}
				],
				"types": {
					"t_address": {
						"encoding": "inplace",
						"label": "address",
						"numberOfBytes": "20"
					},
					"t_mapping(t_address,t_struct(BeneficiaryDetails)6_storage)": {
						"encoding": "mapping",
						"key": "t_address",
						"label": "mapping(address => struct SharedWallet.BeneficiaryDetails)",
						"numberOfBytes": "32",
						"value": "t_struct(BeneficiaryDetails)6_storage"
					},
					"t_struct(BeneficiaryDetails)6_storage": {
						"encoding": "inplace",
						"label": "struct SharedWallet.BeneficiaryDetails",
						"members": [
							{
								"astId": 3,
								"contract": "MyProjectSharedWallet.sol:SharedWallet",
								"label": "allowance",
								"offset": 0,
								"slot": "0",
								"type": "t_uint256"
							},
							{
								"astId": 5,
								"contract": "MyProjectSharedWallet.sol:SharedWallet",
								"label": "claimsMade",
								"offset": 0,
								"slot": "1",
								"type": "t_uint256"
							}
						],
						"numberOfBytes": "64"
					},
					"t_uint256": {
						"encoding": "inplace",
						"label": "uint256",
						"numberOfBytes": "32"
					}
				}
			},
			"userdoc": {
				"kind": "user",
				"methods": {},
				"version": 1
			}
		}
	}
}