{
	"MyExceptionExample.sol": {
		"ExceptionExample": {
			"abi": [
				{
					"inputs": [
						{
							"internalType": "address",
							"name": "",
							"type": "address"
						}
					],
					"name": "balanceReceived",
					"outputs": [
						{
							"internalType": "uint64",
							"name": "",
							"type": "uint64"
						}
					],
					"stateMutability": "view",
					"type": "function"
				},
				{
					"inputs": [],
					"name": "getBalance",
					"outputs": [
						{
							"internalType": "uint256",
							"name": "",
							"type": "uint256"
						}
					],
					"stateMutability": "view",
					"type": "function"
				},
				{
					"inputs": [],
					"name": "receiveMoney",
					"outputs": [],
					"stateMutability": "payable",
					"type": "function"
				},
				{
					"inputs": [
						{
							"internalType": "address payable",
							"name": "_to",
							"type": "address"
						},
						{
							"internalType": "uint64",
							"name": "_amount",
							"type": "uint64"
						}
					],
					"name": "withdrawMoney",
					"outputs": [],
					"stateMutability": "nonpayable",
					"type": "function"
				}
			],
			"devdoc": {
				"kind": "dev",
				"methods": {},
				"version": 1
			},
			"evm": {
				"assembly": "    /* \"MyExceptionExample.sol\":57:705  contract ExceptionExample {... */\n  mstore(0x40, 0x80)\n  callvalue\n  dup1\n  iszero\n  tag_1\n  jumpi\n  0x00\n  dup1\n  revert\ntag_1:\n  pop\n  dataSize(sub_0)\n  dup1\n  dataOffset(sub_0)\n  0x00\n  codecopy\n  0x00\n  return\nstop\n\nsub_0: assembly {\n        /* \"MyExceptionExample.sol\":57:705  contract ExceptionExample {... */\n      mstore(0x40, 0x80)\n      jumpi(tag_1, lt(calldatasize, 0x04))\n      shr(0xe0, calldataload(0x00))\n      dup1\n      0x0ad19aeb\n      eq\n      tag_2\n      jumpi\n      dup1\n      0x12065fe0\n      eq\n      tag_3\n      jumpi\n      dup1\n      0x6d26ec18\n      eq\n      tag_4\n      jumpi\n      dup1\n      0xd18a42e1\n      eq\n      tag_5\n      jumpi\n    tag_1:\n      0x00\n      dup1\n      revert\n        /* \"MyExceptionExample.sol\":363:604  function withdrawMoney(address payable _to, uint64 _amount) public {... */\n    tag_2:\n      callvalue\n      dup1\n      iszero\n      tag_6\n      jumpi\n      0x00\n      dup1\n      revert\n    tag_6:\n      pop\n      tag_7\n      0x04\n      dup1\n      calldatasize\n      sub\n      0x40\n      dup2\n      lt\n      iszero\n      tag_8\n      jumpi\n      0x00\n      dup1\n      revert\n    tag_8:\n      dup2\n      add\n      swap1\n      dup1\n      dup1\n      calldataload\n      0xffffffffffffffffffffffffffffffffffffffff\n      and\n      swap1\n      0x20\n      add\n      swap1\n      swap3\n      swap2\n      swap1\n      dup1\n      calldataload\n      0xffffffffffffffff\n      and\n      swap1\n      0x20\n      add\n      swap1\n      swap3\n      swap2\n      swap1\n      pop\n      pop\n      pop\n      tag_9\n      jump\t// in\n    tag_7:\n      stop\n        /* \"MyExceptionExample.sol\":610:703  function getBalance() public view returns(uint) {... */\n    tag_3:\n      callvalue\n      dup1\n      iszero\n      tag_10\n      jumpi\n      0x00\n      dup1\n      revert\n    tag_10:\n      pop\n      tag_11\n      tag_12\n      jump\t// in\n    tag_11:\n      mload(0x40)\n      dup1\n      dup3\n      dup2\n      mstore\n      0x20\n      add\n      swap2\n      pop\n      pop\n      mload(0x40)\n      dup1\n      swap2\n      sub\n      swap1\n      return\n        /* \"MyExceptionExample.sol\":146:357  function receiveMoney() public payable {... */\n    tag_4:\n      tag_13\n      tag_14\n      jump\t// in\n    tag_13:\n      stop\n        /* \"MyExceptionExample.sol\":90:139  mapping(address => uint64) public balanceReceived */\n    tag_5:\n      callvalue\n      dup1\n      iszero\n      tag_15\n      jumpi\n      0x00\n      dup1\n      revert\n    tag_15:\n      pop\n      tag_16\n      0x04\n      dup1\n      calldatasize\n      sub\n      0x20\n      dup2\n      lt\n      iszero\n      tag_17\n      jumpi\n      0x00\n      dup1\n      revert\n    tag_17:\n      dup2\n      add\n      swap1\n      dup1\n      dup1\n      calldataload\n      0xffffffffffffffffffffffffffffffffffffffff\n      and\n      swap1\n      0x20\n      add\n      swap1\n      swap3\n      swap2\n      swap1\n      pop\n      pop\n      pop\n      tag_18\n      jump\t// in\n    tag_16:\n      mload(0x40)\n      dup1\n      dup3\n      0xffffffffffffffff\n      and\n      dup2\n      mstore\n      0x20\n      add\n      swap2\n      pop\n      pop\n      mload(0x40)\n      dup1\n      swap2\n      sub\n      swap1\n      return\n        /* \"MyExceptionExample.sol\":363:604  function withdrawMoney(address payable _to, uint64 _amount) public {... */\n    tag_9:\n        /* \"MyExceptionExample.sol\":459:474  balanceReceived */\n      0x00\n        /* \"MyExceptionExample.sol\":459:486  balanceReceived[msg.sender] */\n      dup1\n        /* \"MyExceptionExample.sol\":475:485  msg.sender */\n      caller\n        /* \"MyExceptionExample.sol\":459:486  balanceReceived[msg.sender] */\n      0xffffffffffffffffffffffffffffffffffffffff\n      and\n      0xffffffffffffffffffffffffffffffffffffffff\n      and\n      dup2\n      mstore\n      0x20\n      add\n      swap1\n      dup2\n      mstore\n      0x20\n      add\n      0x00\n      keccak256\n      0x00\n      swap1\n      sload\n      swap1\n      0x0100\n      exp\n      swap1\n      div\n      0xffffffffffffffff\n      and\n        /* \"MyExceptionExample.sol\":448:486  _amount <= balanceReceived[msg.sender] */\n      0xffffffffffffffff\n      and\n        /* \"MyExceptionExample.sol\":448:455  _amount */\n      dup2\n        /* \"MyExceptionExample.sol\":448:486  _amount <= balanceReceived[msg.sender] */\n      0xffffffffffffffff\n      and\n      gt\n      iszero\n        /* \"MyExceptionExample.sol\":440:517  require(_amount <= balanceReceived[msg.sender], \"Not Enough Funds, aborting\") */\n      tag_20\n      jumpi\n      mload(0x40)\n      0x08c379a000000000000000000000000000000000000000000000000000000000\n      dup2\n      mstore\n      0x04\n      add\n      dup1\n      dup1\n      0x20\n      add\n      dup3\n      dup2\n      sub\n      dup3\n      mstore\n      0x1a\n      dup2\n      mstore\n      0x20\n      add\n      dup1\n      0x4e6f7420456e6f7567682046756e64732c2061626f7274696e67000000000000\n      dup2\n      mstore\n      pop\n      0x20\n      add\n      swap2\n      pop\n      pop\n      mload(0x40)\n      dup1\n      swap2\n      sub\n      swap1\n      revert\n    tag_20:\n        /* \"MyExceptionExample.sol\":559:566  _amount */\n      dup1\n        /* \"MyExceptionExample.sol\":528:543  balanceReceived */\n      0x00\n        /* \"MyExceptionExample.sol\":528:555  balanceReceived[msg.sender] */\n      dup1\n        /* \"MyExceptionExample.sol\":544:554  msg.sender */\n      caller\n        /* \"MyExceptionExample.sol\":528:555  balanceReceived[msg.sender] */\n      0xffffffffffffffffffffffffffffffffffffffff\n      and\n      0xffffffffffffffffffffffffffffffffffffffff\n      and\n      dup2\n      mstore\n      0x20\n      add\n      swap1\n      dup2\n      mstore\n      0x20\n      add\n      0x00\n      keccak256\n      0x00\n        /* \"MyExceptionExample.sol\":528:566  balanceReceived[msg.sender] -= _amount */\n      dup3\n      dup3\n      dup3\n      swap1\n      sload\n      swap1\n      0x0100\n      exp\n      swap1\n      div\n      0xffffffffffffffff\n      and\n      sub\n      swap3\n      pop\n      0x0100\n      exp\n      dup2\n      sload\n      dup2\n      0xffffffffffffffff\n      mul\n      not\n      and\n      swap1\n      dup4\n      0xffffffffffffffff\n      and\n      mul\n      or\n      swap1\n      sstore\n      pop\n        /* \"MyExceptionExample.sol\":576:579  _to */\n      dup2\n        /* \"MyExceptionExample.sol\":576:588  _to.transfer */\n      0xffffffffffffffffffffffffffffffffffffffff\n      and\n        /* \"MyExceptionExample.sol\":576:597  _to.transfer(_amount) */\n      0x08fc\n        /* \"MyExceptionExample.sol\":589:596  _amount */\n      dup3\n        /* \"MyExceptionExample.sol\":576:597  _to.transfer(_amount) */\n      0xffffffffffffffff\n      and\n      swap1\n      dup2\n      iszero\n      mul\n      swap1\n      mload(0x40)\n      0x00\n      mload(0x40)\n      dup1\n      dup4\n      sub\n      dup2\n      dup6\n      dup9\n      dup9\n      call\n      swap4\n      pop\n      pop\n      pop\n      pop\n      iszero\n      dup1\n      iszero\n      tag_22\n      jumpi\n      returndatasize\n      0x00\n      dup1\n      returndatacopy\n      revert(0x00, returndatasize)\n    tag_22:\n      pop\n        /* \"MyExceptionExample.sol\":363:604  function withdrawMoney(address payable _to, uint64 _amount) public {... */\n      pop\n      pop\n      jump\t// out\n        /* \"MyExceptionExample.sol\":610:703  function getBalance() public view returns(uint) {... */\n    tag_12:\n        /* \"MyExceptionExample.sol\":652:656  uint */\n      0x00\n        /* \"MyExceptionExample.sol\":675:696  address(this).balance */\n      selfbalance\n        /* \"MyExceptionExample.sol\":668:696  return address(this).balance */\n      swap1\n      pop\n        /* \"MyExceptionExample.sol\":610:703  function getBalance() public view returns(uint) {... */\n      swap1\n      jump\t// out\n        /* \"MyExceptionExample.sol\":146:357  function receiveMoney() public payable {... */\n    tag_14:\n        /* \"MyExceptionExample.sol\":222:231  msg.value */\n      callvalue\n        /* \"MyExceptionExample.sol\":202:232  msg.value == uint64(msg.value) */\n      0xffffffffffffffff\n      and\n        /* \"MyExceptionExample.sol\":202:211  msg.value */\n      callvalue\n        /* \"MyExceptionExample.sol\":202:232  msg.value == uint64(msg.value) */\n      eq\n        /* \"MyExceptionExample.sol\":195:233  assert(msg.value == uint64(msg.value)) */\n      tag_25\n      jumpi\n      invalid\n    tag_25:\n        /* \"MyExceptionExample.sol\":281:290  msg.value */\n      callvalue\n        /* \"MyExceptionExample.sol\":243:258  balanceReceived */\n      0x00\n        /* \"MyExceptionExample.sol\":243:270  balanceReceived[msg.sender] */\n      dup1\n        /* \"MyExceptionExample.sol\":259:269  msg.sender */\n      caller\n        /* \"MyExceptionExample.sol\":243:270  balanceReceived[msg.sender] */\n      0xffffffffffffffffffffffffffffffffffffffff\n      and\n      0xffffffffffffffffffffffffffffffffffffffff\n      and\n      dup2\n      mstore\n      0x20\n      add\n      swap1\n      dup2\n      mstore\n      0x20\n      add\n      0x00\n      keccak256\n      0x00\n        /* \"MyExceptionExample.sol\":243:291  balanceReceived[msg.sender] += uint64(msg.value) */\n      dup3\n      dup3\n      dup3\n      swap1\n      sload\n      swap1\n      0x0100\n      exp\n      swap1\n      div\n      0xffffffffffffffff\n      and\n      add\n      swap3\n      pop\n      0x0100\n      exp\n      dup2\n      sload\n      dup2\n      0xffffffffffffffff\n      mul\n      not\n      and\n      swap1\n      dup4\n      0xffffffffffffffff\n      and\n      mul\n      or\n      swap1\n      sstore\n      pop\n        /* \"MyExceptionExample.sol\":339:348  msg.value */\n      callvalue\n        /* \"MyExceptionExample.sol\":308:323  balanceReceived */\n      0x00\n        /* \"MyExceptionExample.sol\":308:335  balanceReceived[msg.sender] */\n      dup1\n        /* \"MyExceptionExample.sol\":324:334  msg.sender */\n      caller\n        /* \"MyExceptionExample.sol\":308:335  balanceReceived[msg.sender] */\n      0xffffffffffffffffffffffffffffffffffffffff\n      and\n      0xffffffffffffffffffffffffffffffffffffffff\n      and\n      dup2\n      mstore\n      0x20\n      add\n      swap1\n      dup2\n      mstore\n      0x20\n      add\n      0x00\n      keccak256\n      0x00\n      swap1\n      sload\n      swap1\n      0x0100\n      exp\n      swap1\n      div\n      0xffffffffffffffff\n      and\n        /* \"MyExceptionExample.sol\":308:348  balanceReceived[msg.sender] >= msg.value */\n      0xffffffffffffffff\n      and\n      lt\n      iszero\n        /* \"MyExceptionExample.sol\":301:349  assert(balanceReceived[msg.sender] >= msg.value) */\n      tag_26\n      jumpi\n      invalid\n    tag_26:\n        /* \"MyExceptionExample.sol\":146:357  function receiveMoney() public payable {... */\n      jump\t// out\n        /* \"MyExceptionExample.sol\":90:139  mapping(address => uint64) public balanceReceived */\n    tag_18:\n      mstore(0x20, 0x00)\n      dup1\n      0x00\n      mstore\n      keccak256(0x00, 0x40)\n      0x00\n      swap2\n      pop\n      sload\n      swap1\n      0x0100\n      exp\n      swap1\n      div\n      0xffffffffffffffff\n      and\n      dup2\n      jump\t// out\n\n    auxdata: 0xa264697066735822122006353a629de5f35ef565d787fc9c1c2f79d25c4e666719ee7411afd9b2eed84064736f6c634300060c0033\n}\n",
				"bytecode": {
					"linkReferences": {},
					"object": "608060405234801561001057600080fd5b5061045a806100206000396000f3fe60806040526004361061003f5760003560e01c80630ad19aeb1461004457806312065fe0146100a95780636d26ec18146100d4578063d18a42e1146100de575b600080fd5b34801561005057600080fd5b506100a76004803603604081101561006757600080fd5b81019080803573ffffffffffffffffffffffffffffffffffffffff169060200190929190803567ffffffffffffffff16906020019092919050505061014d565b005b3480156100b557600080fd5b506100be6102fc565b6040518082815260200191505060405180910390f35b6100dc610304565b005b3480156100ea57600080fd5b5061012d6004803603602081101561010157600080fd5b81019080803573ffffffffffffffffffffffffffffffffffffffff1690602001909291905050506103fd565b604051808267ffffffffffffffff16815260200191505060405180910390f35b6000803373ffffffffffffffffffffffffffffffffffffffff1673ffffffffffffffffffffffffffffffffffffffff16815260200190815260200160002060009054906101000a900467ffffffffffffffff1667ffffffffffffffff168167ffffffffffffffff161115610229576040517f08c379a000000000000000000000000000000000000000000000000000000000815260040180806020018281038252601a8152602001807f4e6f7420456e6f7567682046756e64732c2061626f7274696e6700000000000081525060200191505060405180910390fd5b806000803373ffffffffffffffffffffffffffffffffffffffff1673ffffffffffffffffffffffffffffffffffffffff16815260200190815260200160002060008282829054906101000a900467ffffffffffffffff160392506101000a81548167ffffffffffffffff021916908367ffffffffffffffff1602179055508173ffffffffffffffffffffffffffffffffffffffff166108fc8267ffffffffffffffff169081150290604051600060405180830381858888f193505050501580156102f7573d6000803e3d6000fd5b505050565b600047905090565b3467ffffffffffffffff16341461031757fe5b346000803373ffffffffffffffffffffffffffffffffffffffff1673ffffffffffffffffffffffffffffffffffffffff16815260200190815260200160002060008282829054906101000a900467ffffffffffffffff160192506101000a81548167ffffffffffffffff021916908367ffffffffffffffff160217905550346000803373ffffffffffffffffffffffffffffffffffffffff1673ffffffffffffffffffffffffffffffffffffffff16815260200190815260200160002060009054906101000a900467ffffffffffffffff1667ffffffffffffffff1610156103fb57fe5b565b60006020528060005260406000206000915054906101000a900467ffffffffffffffff168156fea264697066735822122006353a629de5f35ef565d787fc9c1c2f79d25c4e666719ee7411afd9b2eed84064736f6c634300060c0033",
					"opcodes": "PUSH1 0x80 PUSH1 0x40 MSTORE CALLVALUE DUP1 ISZERO PUSH2 0x10 JUMPI PUSH1 0x0 DUP1 REVERT JUMPDEST POP PUSH2 0x45A DUP1 PUSH2 0x20 PUSH1 0x0 CODECOPY PUSH1 0x0 RETURN INVALID PUSH1 0x80 PUSH1 0x40 MSTORE PUSH1 0x4 CALLDATASIZE LT PUSH2 0x3F JUMPI PUSH1 0x0 CALLDATALOAD PUSH1 0xE0 SHR DUP1 PUSH4 0xAD19AEB EQ PUSH2 0x44 JUMPI DUP1 PUSH4 0x12065FE0 EQ PUSH2 0xA9 JUMPI DUP1 PUSH4 0x6D26EC18 EQ PUSH2 0xD4 JUMPI DUP1 PUSH4 0xD18A42E1 EQ PUSH2 0xDE JUMPI JUMPDEST PUSH1 0x0 DUP1 REVERT JUMPDEST CALLVALUE DUP1 ISZERO PUSH2 0x50 JUMPI PUSH1 0x0 DUP1 REVERT JUMPDEST POP PUSH2 0xA7 PUSH1 0x4 DUP1 CALLDATASIZE SUB PUSH1 0x40 DUP2 LT ISZERO PUSH2 0x67 JUMPI PUSH1 0x0 DUP1 REVERT JUMPDEST DUP2 ADD SWAP1 DUP1 DUP1 CALLDATALOAD PUSH20 0xFFFFFFFFFFFFFFFFFFFFFFFFFFFFFFFFFFFFFFFF AND SWAP1 PUSH1 0x20 ADD SWAP1 SWAP3 SWAP2 SWAP1 DUP1 CALLDATALOAD PUSH8 0xFFFFFFFFFFFFFFFF AND SWAP1 PUSH1 0x20 ADD SWAP1 SWAP3 SWAP2 SWAP1 POP POP POP PUSH2 0x14D JUMP JUMPDEST STOP JUMPDEST CALLVALUE DUP1 ISZERO PUSH2 0xB5 JUMPI PUSH1 0x0 DUP1 REVERT JUMPDEST POP PUSH2 0xBE PUSH2 0x2FC JUMP JUMPDEST PUSH1 0x40 MLOAD DUP1 DUP3 DUP2 MSTORE PUSH1 0x20 ADD SWAP2 POP POP PUSH1 0x40 MLOAD DUP1 SWAP2 SUB SWAP1 RETURN JUMPDEST PUSH2 0xDC PUSH2 0x304 JUMP JUMPDEST STOP JUMPDEST CALLVALUE DUP1 ISZERO PUSH2 0xEA JUMPI PUSH1 0x0 DUP1 REVERT JUMPDEST POP PUSH2 0x12D PUSH1 0x4 DUP1 CALLDATASIZE SUB PUSH1 0x20 DUP2 LT ISZERO PUSH2 0x101 JUMPI PUSH1 0x0 DUP1 REVERT JUMPDEST DUP2 ADD SWAP1 DUP1 DUP1 CALLDATALOAD PUSH20 0xFFFFFFFFFFFFFFFFFFFFFFFFFFFFFFFFFFFFFFFF AND SWAP1 PUSH1 0x20 ADD SWAP1 SWAP3 SWAP2 SWAP1 POP POP POP PUSH2 0x3FD JUMP JUMPDEST PUSH1 0x40 MLOAD DUP1 DUP3 PUSH8 0xFFFFFFFFFFFFFFFF AND DUP2 MSTORE PUSH1 0x20 ADD SWAP2 POP POP PUSH1 0x40 MLOAD DUP1 SWAP2 SUB SWAP1 RETURN JUMPDEST PUSH1 0x0 DUP1 CALLER PUSH20 0xFFFFFFFFFFFFFFFFFFFFFFFFFFFFFFFFFFFFFFFF AND PUSH20 0xFFFFFFFFFFFFFFFFFFFFFFFFFFFFFFFFFFFFFFFF AND DUP2 MSTORE PUSH1 0x20 ADD SWAP1 DUP2 MSTORE PUSH1 0x20 ADD PUSH1 0x0 KECCAK256 PUSH1 0x0 SWAP1 SLOAD SWAP1 PUSH2 0x100 EXP SWAP1 DIV PUSH8 0xFFFFFFFFFFFFFFFF AND PUSH8 0xFFFFFFFFFFFFFFFF AND DUP2 PUSH8 0xFFFFFFFFFFFFFFFF AND GT ISZERO PUSH2 0x229 JUMPI PUSH1 0x40 MLOAD PUSH32 0x8C379A000000000000000000000000000000000000000000000000000000000 DUP2 MSTORE PUSH1 0x4 ADD DUP1 DUP1 PUSH1 0x20 ADD DUP3 DUP2 SUB DUP3 MSTORE PUSH1 0x1A DUP2 MSTORE PUSH1 0x20 ADD DUP1 PUSH32 0x4E6F7420456E6F7567682046756E64732C2061626F7274696E67000000000000 DUP2 MSTORE POP PUSH1 0x20 ADD SWAP2 POP POP PUSH1 0x40 MLOAD DUP1 SWAP2 SUB SWAP1 REVERT JUMPDEST DUP1 PUSH1 0x0 DUP1 CALLER PUSH20 0xFFFFFFFFFFFFFFFFFFFFFFFFFFFFFFFFFFFFFFFF AND PUSH20 0xFFFFFFFFFFFFFFFFFFFFFFFFFFFFFFFFFFFFFFFF AND DUP2 MSTORE PUSH1 0x20 ADD SWAP1 DUP2 MSTORE PUSH1 0x20 ADD PUSH1 0x0 KECCAK256 PUSH1 0x0 DUP3 DUP3 DUP3 SWAP1 SLOAD SWAP1 PUSH2 0x100 EXP SWAP1 DIV PUSH8 0xFFFFFFFFFFFFFFFF AND SUB SWAP3 POP PUSH2 0x100 EXP DUP2 SLOAD DUP2 PUSH8 0xFFFFFFFFFFFFFFFF MUL NOT AND SWAP1 DUP4 PUSH8 0xFFFFFFFFFFFFFFFF AND MUL OR SWAP1 SSTORE POP DUP2 PUSH20 0xFFFFFFFFFFFFFFFFFFFFFFFFFFFFFFFFFFFFFFFF AND PUSH2 0x8FC DUP3 PUSH8 0xFFFFFFFFFFFFFFFF AND SWAP1 DUP2 ISZERO MUL SWAP1 PUSH1 0x40 MLOAD PUSH1 0x0 PUSH1 0x40 MLOAD DUP1 DUP4 SUB DUP2 DUP6 DUP9 DUP9 CALL SWAP4 POP POP POP POP ISZERO DUP1 ISZERO PUSH2 0x2F7 JUMPI RETURNDATASIZE PUSH1 0x0 DUP1 RETURNDATACOPY RETURNDATASIZE PUSH1 0x0 REVERT JUMPDEST POP POP POP JUMP JUMPDEST PUSH1 0x0 SELFBALANCE SWAP1 POP SWAP1 JUMP JUMPDEST CALLVALUE PUSH8 0xFFFFFFFFFFFFFFFF AND CALLVALUE EQ PUSH2 0x317 JUMPI INVALID JUMPDEST CALLVALUE PUSH1 0x0 DUP1 CALLER PUSH20 0xFFFFFFFFFFFFFFFFFFFFFFFFFFFFFFFFFFFFFFFF AND PUSH20 0xFFFFFFFFFFFFFFFFFFFFFFFFFFFFFFFFFFFFFFFF AND DUP2 MSTORE PUSH1 0x20 ADD SWAP1 DUP2 MSTORE PUSH1 0x20 ADD PUSH1 0x0 KECCAK256 PUSH1 0x0 DUP3 DUP3 DUP3 SWAP1 SLOAD SWAP1 PUSH2 0x100 EXP SWAP1 DIV PUSH8 0xFFFFFFFFFFFFFFFF AND ADD SWAP3 POP PUSH2 0x100 EXP DUP2 SLOAD DUP2 PUSH8 0xFFFFFFFFFFFFFFFF MUL NOT AND SWAP1 DUP4 PUSH8 0xFFFFFFFFFFFFFFFF AND MUL OR SWAP1 SSTORE POP CALLVALUE PUSH1 0x0 DUP1 CALLER PUSH20 0xFFFFFFFFFFFFFFFFFFFFFFFFFFFFFFFFFFFFFFFF AND PUSH20 0xFFFFFFFFFFFFFFFFFFFFFFFFFFFFFFFFFFFFFFFF AND DUP2 MSTORE PUSH1 0x20 ADD SWAP1 DUP2 MSTORE PUSH1 0x20 ADD PUSH1 0x0 KECCAK256 PUSH1 0x0 SWAP1 SLOAD SWAP1 PUSH2 0x100 EXP SWAP1 DIV PUSH8 0xFFFFFFFFFFFFFFFF AND PUSH8 0xFFFFFFFFFFFFFFFF AND LT ISZERO PUSH2 0x3FB JUMPI INVALID JUMPDEST JUMP JUMPDEST PUSH1 0x0 PUSH1 0x20 MSTORE DUP1 PUSH1 0x0 MSTORE PUSH1 0x40 PUSH1 0x0 KECCAK256 PUSH1 0x0 SWAP2 POP SLOAD SWAP1 PUSH2 0x100 EXP SWAP1 DIV PUSH8 0xFFFFFFFFFFFFFFFF AND DUP2 JUMP INVALID LOG2 PUSH5 0x6970667358 0x22 SLT KECCAK256 MOD CALLDATALOAD GASPRICE PUSH3 0x9DE5F3 0x5E CREATE2 PUSH6 0xD787FC9C1C2F PUSH26 0xD25C4E666719EE7411AFD9B2EED84064736F6C634300060C0033 "
				},
				"gasEstimates": {
					"creation": {
						"codeDepositCost": "222800",
						"executionCost": "263",
						"totalCost": "223063"
					},
					"external": {
						"balanceReceived(address)": "1244",
						"getBalance()": "215",
						"receiveMoney()": "22930",
						"withdrawMoney(address,uint64)": "infinite"
					}
				},
				"methodIdentifiers": {
					"balanceReceived(address)": "d18a42e1",
					"getBalance()": "12065fe0",
					"receiveMoney()": "6d26ec18",
					"withdrawMoney(address,uint64)": "0ad19aeb"
				}
			},
			"storageLayout": {
				"storage": [
					{
						"astId": 5,
						"contract": "MyExceptionExample.sol:ExceptionExample",
						"label": "balanceReceived",
						"offset": 0,
						"slot": "0",
						"type": "t_mapping(t_address,t_uint64)"
					}
				],
				"types": {
					"t_address": {
						"encoding": "inplace",
						"label": "address",
						"numberOfBytes": "20"
					},
					"t_mapping(t_address,t_uint64)": {
						"encoding": "mapping",
						"key": "t_address",
						"label": "mapping(address => uint64)",
						"numberOfBytes": "32",
						"value": "t_uint64"
					},
					"t_uint64": {
						"encoding": "inplace",
						"label": "uint64",
						"numberOfBytes": "8"
					}
				}
			},
			"userdoc": {
				"kind": "user",
				"methods": {},
				"version": 1
			}
		}
	}
}