{
	"ItemManager.sol": {
		"ItemManager": {
			"abi": [
				{
					"inputs": [
						{
							"internalType": "string",
							"name": "_identifier",
							"type": "string"
						},
						{
							"internalType": "uint256",
							"name": "_itemPrice",
							"type": "uint256"
						}
					],
					"name": "createItem",
					"outputs": [],
					"stateMutability": "nonpayable",
					"type": "function"
				},
				{
					"inputs": [
						{
							"internalType": "uint256",
							"name": "",
							"type": "uint256"
						}
					],
					"name": "items",
					"outputs": [
						{
							"internalType": "string",
							"name": "_identifier",
							"type": "string"
						},
						{
							"internalType": "uint256",
							"name": "_itemPrice",
							"type": "uint256"
						},
						{
							"internalType": "enum ItemManager.SupplyChainState",
							"name": "_state",
							"type": "uint8"
						}
					],
					"stateMutability": "view",
					"type": "function"
				},
				{
					"inputs": [
						{
							"internalType": "uint256",
							"name": "_itemIndex",
							"type": "uint256"
						}
					],
					"name": "triggerPayment",
					"outputs": [],
					"stateMutability": "payable",
					"type": "function"
				}
			],
			"devdoc": {
				"kind": "dev",
				"methods": {},
				"version": 1
			},
			"evm": {
				"assembly": "    /* \"ItemManager.sol\":112:1106  contract ItemManager {... */\n  mstore(0x40, 0x80)\n  callvalue\n  dup1\n  iszero\n  tag_1\n  jumpi\n  0x00\n  dup1\n  revert\ntag_1:\n  pop\n  dataSize(sub_0)\n  dup1\n  dataOffset(sub_0)\n  0x00\n  codecopy\n  0x00\n  return\nstop\n\nsub_0: assembly {\n        /* \"ItemManager.sol\":112:1106  contract ItemManager {... */\n      mstore(0x40, 0x80)\n      jumpi(tag_1, lt(calldatasize, 0x04))\n      shr(0xe0, calldataload(0x00))\n      dup1\n      0x800fb83f\n      eq\n      tag_2\n      jumpi\n      dup1\n      0x8c551742\n      eq\n      tag_3\n      jumpi\n      dup1\n      0xbfb231d2\n      eq\n      tag_4\n      jumpi\n    tag_1:\n      0x00\n      dup1\n      revert\n        /* \"ItemManager.sol\":774:1081  function triggerPayment(uint _itemIndex) public payable {... */\n    tag_2:\n      tag_5\n      0x04\n      dup1\n      calldatasize\n      sub\n      dup2\n      add\n      swap1\n      tag_6\n      swap2\n      swap1\n      tag_7\n      jump\t// in\n    tag_6:\n      tag_8\n      jump\t// in\n    tag_5:\n      stop\n        /* \"ItemManager.sol\":509:768  function createItem(string memory _identifier, uint _itemPrice) public {... */\n    tag_3:\n      callvalue\n      dup1\n      iszero\n      tag_9\n      jumpi\n      0x00\n      dup1\n      revert\n    tag_9:\n      pop\n      tag_10\n      0x04\n      dup1\n      calldatasize\n      sub\n      dup2\n      add\n      swap1\n      tag_11\n      swap2\n      swap1\n      tag_12\n      jump\t// in\n    tag_11:\n      tag_13\n      jump\t// in\n    tag_10:\n      stop\n        /* \"ItemManager.sol\":340:376  mapping(uint => S_Item) public items */\n    tag_4:\n      callvalue\n      dup1\n      iszero\n      tag_14\n      jumpi\n      0x00\n      dup1\n      revert\n    tag_14:\n      pop\n      tag_15\n      0x04\n      dup1\n      calldatasize\n      sub\n      dup2\n      add\n      swap1\n      tag_16\n      swap2\n      swap1\n      tag_7\n      jump\t// in\n    tag_16:\n      tag_17\n      jump\t// in\n    tag_15:\n      mload(0x40)\n      tag_18\n      swap4\n      swap3\n      swap2\n      swap1\n      tag_19\n      jump\t// in\n    tag_18:\n      mload(0x40)\n      dup1\n      swap2\n      sub\n      swap1\n      return\n        /* \"ItemManager.sol\":774:1081  function triggerPayment(uint _itemIndex) public payable {... */\n    tag_8:\n        /* \"ItemManager.sol\":880:889  msg.value */\n      callvalue\n        /* \"ItemManager.sol\":848:853  items */\n      0x00\n        /* \"ItemManager.sol\":848:865  items[_itemIndex] */\n      dup1\n        /* \"ItemManager.sol\":854:864  _itemIndex */\n      dup4\n        /* \"ItemManager.sol\":848:865  items[_itemIndex] */\n      dup2\n      mstore\n      0x20\n      add\n      swap1\n      dup2\n      mstore\n      0x20\n      add\n      0x00\n      keccak256\n        /* \"ItemManager.sol\":848:876  items[_itemIndex]._itemPrice */\n      0x01\n      add\n      sload\n        /* \"ItemManager.sol\":848:889  items[_itemIndex]._itemPrice == msg.value */\n      eq\n        /* \"ItemManager.sol\":840:894  require(items[_itemIndex]._itemPrice == msg.value, \"\") */\n      tag_21\n      jumpi\n      mload(0x40)\n      0x08c379a000000000000000000000000000000000000000000000000000000000\n      dup2\n      mstore\n      0x04\n      add\n      tag_22\n      swap1\n      tag_23\n      jump\t// in\n    tag_22:\n      mload(0x40)\n      dup1\n      swap2\n      sub\n      swap1\n      revert\n    tag_21:\n        /* \"ItemManager.sol\":940:964  SupplyChainState.Created */\n      0x00\n        /* \"ItemManager.sol\":912:964  items[_itemIndex]._state == SupplyChainState.Created */\n      0x02\n      dup2\n      gt\n      iszero\n      tag_24\n      jumpi\n      tag_25\n      tag_26\n      jump\t// in\n    tag_25:\n    tag_24:\n        /* \"ItemManager.sol\":912:917  items */\n      0x00\n        /* \"ItemManager.sol\":912:929  items[_itemIndex] */\n      dup1\n        /* \"ItemManager.sol\":918:928  _itemIndex */\n      dup4\n        /* \"ItemManager.sol\":912:929  items[_itemIndex] */\n      dup2\n      mstore\n      0x20\n      add\n      swap1\n      dup2\n      mstore\n      0x20\n      add\n      0x00\n      keccak256\n        /* \"ItemManager.sol\":912:936  items[_itemIndex]._state */\n      0x02\n      add\n      0x00\n      swap1\n      sload\n      swap1\n      0x0100\n      exp\n      swap1\n      div\n      0xff\n      and\n        /* \"ItemManager.sol\":912:964  items[_itemIndex]._state == SupplyChainState.Created */\n      0x02\n      dup2\n      gt\n      iszero\n      tag_27\n      jumpi\n      tag_28\n      tag_26\n      jump\t// in\n    tag_28:\n    tag_27:\n      eq\n        /* \"ItemManager.sol\":904:1016  require(items[_itemIndex]._state == SupplyChainState.Created, \"The item is already further in the supply chain\") */\n      tag_29\n      jumpi\n      mload(0x40)\n      0x08c379a000000000000000000000000000000000000000000000000000000000\n      dup2\n      mstore\n      0x04\n      add\n      tag_30\n      swap1\n      tag_31\n      jump\t// in\n    tag_30:\n      mload(0x40)\n      dup1\n      swap2\n      sub\n      swap1\n      revert\n    tag_29:\n        /* \"ItemManager.sol\":1053:1074  SupplyChainState.Paid */\n      0x01\n        /* \"ItemManager.sol\":1026:1031  items */\n      0x00\n        /* \"ItemManager.sol\":1026:1043  items[_itemIndex] */\n      dup1\n        /* \"ItemManager.sol\":1032:1042  _itemIndex */\n      dup4\n        /* \"ItemManager.sol\":1026:1043  items[_itemIndex] */\n      dup2\n      mstore\n      0x20\n      add\n      swap1\n      dup2\n      mstore\n      0x20\n      add\n      0x00\n      keccak256\n        /* \"ItemManager.sol\":1026:1050  items[_itemIndex]._state */\n      0x02\n      add\n      0x00\n        /* \"ItemManager.sol\":1026:1074  items[_itemIndex]._state = SupplyChainState.Paid */\n      0x0100\n      exp\n      dup2\n      sload\n      dup2\n      0xff\n      mul\n      not\n      and\n      swap1\n      dup4\n      0x02\n      dup2\n      gt\n      iszero\n      tag_32\n      jumpi\n      tag_33\n      tag_26\n      jump\t// in\n    tag_33:\n    tag_32:\n      mul\n      or\n      swap1\n      sstore\n      pop\n        /* \"ItemManager.sol\":774:1081  function triggerPayment(uint _itemIndex) public payable {... */\n      pop\n      jump\t// out\n        /* \"ItemManager.sol\":509:768  function createItem(string memory _identifier, uint _itemPrice) public {... */\n    tag_13:\n        /* \"ItemManager.sol\":620:631  _identifier */\n      dup2\n        /* \"ItemManager.sol\":590:595  items */\n      0x00\n        /* \"ItemManager.sol\":590:606  items[itemIndex] */\n      dup1\n        /* \"ItemManager.sol\":596:605  itemIndex */\n      sload(0x01)\n        /* \"ItemManager.sol\":590:606  items[itemIndex] */\n      dup2\n      mstore\n      0x20\n      add\n      swap1\n      dup2\n      mstore\n      0x20\n      add\n      0x00\n      keccak256\n        /* \"ItemManager.sol\":590:618  items[itemIndex]._identifier */\n      0x00\n      add\n        /* \"ItemManager.sol\":590:631  items[itemIndex]._identifier =_identifier */\n      swap1\n      dup1\n      mload\n      swap1\n      0x20\n      add\n      swap1\n      tag_35\n      swap3\n      swap2\n      swap1\n      tag_36\n      jump\t// in\n    tag_35:\n      pop\n        /* \"ItemManager.sol\":670:680  _itemPrice */\n      dup1\n        /* \"ItemManager.sol\":641:646  items */\n      0x00\n        /* \"ItemManager.sol\":641:657  items[itemIndex] */\n      dup1\n        /* \"ItemManager.sol\":647:656  itemIndex */\n      sload(0x01)\n        /* \"ItemManager.sol\":641:657  items[itemIndex] */\n      dup2\n      mstore\n      0x20\n      add\n      swap1\n      dup2\n      mstore\n      0x20\n      add\n      0x00\n      keccak256\n        /* \"ItemManager.sol\":641:668  items[itemIndex]._itemPrice */\n      0x01\n      add\n        /* \"ItemManager.sol\":641:680  items[itemIndex]._itemPrice =_itemPrice */\n      dup2\n      swap1\n      sstore\n      pop\n        /* \"ItemManager.sol\":716:740  SupplyChainState.Created */\n      0x00\n        /* \"ItemManager.sol\":690:695  items */\n      dup1\n        /* \"ItemManager.sol\":690:706  items[itemIndex] */\n      0x00\n        /* \"ItemManager.sol\":696:705  itemIndex */\n      sload(0x01)\n        /* \"ItemManager.sol\":690:706  items[itemIndex] */\n      dup2\n      mstore\n      0x20\n      add\n      swap1\n      dup2\n      mstore\n      0x20\n      add\n      0x00\n      keccak256\n        /* \"ItemManager.sol\":690:713  items[itemIndex]._state */\n      0x02\n      add\n      0x00\n        /* \"ItemManager.sol\":690:740  items[itemIndex]._state = SupplyChainState.Created */\n      0x0100\n      exp\n      dup2\n      sload\n      dup2\n      0xff\n      mul\n      not\n      and\n      swap1\n      dup4\n      0x02\n      dup2\n      gt\n      iszero\n      tag_37\n      jumpi\n      tag_38\n      tag_26\n      jump\t// in\n    tag_38:\n    tag_37:\n      mul\n      or\n      swap1\n      sstore\n      pop\n        /* \"ItemManager.sol\":750:759  itemIndex */\n      0x01\n      0x00\n        /* \"ItemManager.sol\":750:761  itemIndex++ */\n      dup2\n      sload\n      dup1\n      swap3\n      swap2\n      swap1\n      tag_39\n      swap1\n      tag_40\n      jump\t// in\n    tag_39:\n      swap2\n      swap1\n      pop\n      sstore\n      pop\n        /* \"ItemManager.sol\":509:768  function createItem(string memory _identifier, uint _itemPrice) public {... */\n      pop\n      pop\n      jump\t// out\n        /* \"ItemManager.sol\":340:376  mapping(uint => S_Item) public items */\n    tag_17:\n      mstore(0x20, 0x00)\n      dup1\n      0x00\n      mstore\n      keccak256(0x00, 0x40)\n      0x00\n      swap2\n      pop\n      swap1\n      pop\n      dup1\n      0x00\n      add\n      dup1\n      sload\n      tag_41\n      swap1\n      tag_42\n      jump\t// in\n    tag_41:\n      dup1\n      0x1f\n      add\n      0x20\n      dup1\n      swap2\n      div\n      mul\n      0x20\n      add\n      mload(0x40)\n      swap1\n      dup2\n      add\n      0x40\n      mstore\n      dup1\n      swap3\n      swap2\n      swap1\n      dup2\n      dup2\n      mstore\n      0x20\n      add\n      dup3\n      dup1\n      sload\n      tag_43\n      swap1\n      tag_42\n      jump\t// in\n    tag_43:\n      dup1\n      iszero\n      tag_44\n      jumpi\n      dup1\n      0x1f\n      lt\n      tag_45\n      jumpi\n      0x0100\n      dup1\n      dup4\n      sload\n      div\n      mul\n      dup4\n      mstore\n      swap2\n      0x20\n      add\n      swap2\n      jump(tag_44)\n    tag_45:\n      dup3\n      add\n      swap2\n      swap1\n      0x00\n      mstore\n      keccak256(0x00, 0x20)\n      swap1\n    tag_46:\n      dup2\n      sload\n      dup2\n      mstore\n      swap1\n      0x01\n      add\n      swap1\n      0x20\n      add\n      dup1\n      dup4\n      gt\n      tag_46\n      jumpi\n      dup3\n      swap1\n      sub\n      0x1f\n      and\n      dup3\n      add\n      swap2\n    tag_44:\n      pop\n      pop\n      pop\n      pop\n      pop\n      swap1\n      dup1\n      0x01\n      add\n      sload\n      swap1\n      dup1\n      0x02\n      add\n      0x00\n      swap1\n      sload\n      swap1\n      0x0100\n      exp\n      swap1\n      div\n      0xff\n      and\n      swap1\n      pop\n      dup4\n      jump\t// out\n    tag_36:\n      dup3\n      dup1\n      sload\n      tag_47\n      swap1\n      tag_42\n      jump\t// in\n    tag_47:\n      swap1\n      0x00\n      mstore\n      keccak256(0x00, 0x20)\n      swap1\n      0x1f\n      add\n      0x20\n      swap1\n      div\n      dup2\n      add\n      swap3\n      dup3\n      tag_49\n      jumpi\n      0x00\n      dup6\n      sstore\n      jump(tag_48)\n    tag_49:\n      dup3\n      0x1f\n      lt\n      tag_50\n      jumpi\n      dup1\n      mload\n      not(0xff)\n      and\n      dup4\n      dup1\n      add\n      or\n      dup6\n      sstore\n      jump(tag_48)\n    tag_50:\n      dup3\n      dup1\n      add\n      0x01\n      add\n      dup6\n      sstore\n      dup3\n      iszero\n      tag_48\n      jumpi\n      swap2\n      dup3\n      add\n    tag_51:\n      dup3\n      dup2\n      gt\n      iszero\n      tag_52\n      jumpi\n      dup3\n      mload\n      dup3\n      sstore\n      swap2\n      0x20\n      add\n      swap2\n      swap1\n      0x01\n      add\n      swap1\n      jump(tag_51)\n    tag_52:\n    tag_48:\n      pop\n      swap1\n      pop\n      tag_53\n      swap2\n      swap1\n      tag_54\n      jump\t// in\n    tag_53:\n      pop\n      swap1\n      jump\t// out\n    tag_54:\n    tag_55:\n      dup1\n      dup3\n      gt\n      iszero\n      tag_56\n      jumpi\n      0x00\n      dup2\n      0x00\n      swap1\n      sstore\n      pop\n      0x01\n      add\n      jump(tag_55)\n    tag_56:\n      pop\n      swap1\n      jump\t// out\n        /* \"#utility.yul\":7:419   */\n    tag_58:\n        /* \"#utility.yul\":85:90   */\n      0x00\n        /* \"#utility.yul\":110:176   */\n      tag_60\n        /* \"#utility.yul\":126:175   */\n      tag_61\n        /* \"#utility.yul\":168:174   */\n      dup5\n        /* \"#utility.yul\":126:175   */\n      tag_62\n      jump\t// in\n    tag_61:\n        /* \"#utility.yul\":110:176   */\n      tag_63\n      jump\t// in\n    tag_60:\n        /* \"#utility.yul\":101:176   */\n      swap1\n      pop\n        /* \"#utility.yul\":199:205   */\n      dup3\n        /* \"#utility.yul\":192:197   */\n      dup2\n        /* \"#utility.yul\":185:206   */\n      mstore\n        /* \"#utility.yul\":237:241   */\n      0x20\n        /* \"#utility.yul\":230:235   */\n      dup2\n        /* \"#utility.yul\":226:242   */\n      add\n        /* \"#utility.yul\":275:278   */\n      dup5\n        /* \"#utility.yul\":266:272   */\n      dup5\n        /* \"#utility.yul\":261:264   */\n      dup5\n        /* \"#utility.yul\":257:273   */\n      add\n        /* \"#utility.yul\":254:279   */\n      gt\n        /* \"#utility.yul\":251:363   */\n      iszero\n      tag_64\n      jumpi\n        /* \"#utility.yul\":282:361   */\n      tag_65\n      tag_66\n      jump\t// in\n    tag_65:\n        /* \"#utility.yul\":251:363   */\n    tag_64:\n        /* \"#utility.yul\":372:413   */\n      tag_67\n        /* \"#utility.yul\":406:412   */\n      dup5\n        /* \"#utility.yul\":401:404   */\n      dup3\n        /* \"#utility.yul\":396:399   */\n      dup6\n        /* \"#utility.yul\":372:413   */\n      tag_68\n      jump\t// in\n    tag_67:\n        /* \"#utility.yul\":91:419   */\n      pop\n        /* \"#utility.yul\":7:419   */\n      swap4\n      swap3\n      pop\n      pop\n      pop\n      jump\t// out\n        /* \"#utility.yul\":439:779   */\n    tag_69:\n        /* \"#utility.yul\":495:500   */\n      0x00\n        /* \"#utility.yul\":544:547   */\n      dup3\n        /* \"#utility.yul\":537:541   */\n      0x1f\n        /* \"#utility.yul\":529:535   */\n      dup4\n        /* \"#utility.yul\":525:542   */\n      add\n        /* \"#utility.yul\":521:548   */\n      slt\n        /* \"#utility.yul\":511:633   */\n      tag_71\n      jumpi\n        /* \"#utility.yul\":552:631   */\n      tag_72\n      tag_73\n      jump\t// in\n    tag_72:\n        /* \"#utility.yul\":511:633   */\n    tag_71:\n        /* \"#utility.yul\":669:675   */\n      dup2\n        /* \"#utility.yul\":656:676   */\n      calldataload\n        /* \"#utility.yul\":694:773   */\n      tag_74\n        /* \"#utility.yul\":769:772   */\n      dup5\n        /* \"#utility.yul\":761:767   */\n      dup3\n        /* \"#utility.yul\":754:758   */\n      0x20\n        /* \"#utility.yul\":746:752   */\n      dup7\n        /* \"#utility.yul\":742:759   */\n      add\n        /* \"#utility.yul\":694:773   */\n      tag_58\n      jump\t// in\n    tag_74:\n        /* \"#utility.yul\":685:773   */\n      swap2\n      pop\n        /* \"#utility.yul\":501:779   */\n      pop\n        /* \"#utility.yul\":439:779   */\n      swap3\n      swap2\n      pop\n      pop\n      jump\t// out\n        /* \"#utility.yul\":785:924   */\n    tag_75:\n        /* \"#utility.yul\":831:836   */\n      0x00\n        /* \"#utility.yul\":869:875   */\n      dup2\n        /* \"#utility.yul\":856:876   */\n      calldataload\n        /* \"#utility.yul\":847:876   */\n      swap1\n      pop\n        /* \"#utility.yul\":885:918   */\n      tag_77\n        /* \"#utility.yul\":912:917   */\n      dup2\n        /* \"#utility.yul\":885:918   */\n      tag_78\n      jump\t// in\n    tag_77:\n        /* \"#utility.yul\":785:924   */\n      swap3\n      swap2\n      pop\n      pop\n      jump\t// out\n        /* \"#utility.yul\":930:1584   */\n    tag_12:\n        /* \"#utility.yul\":1008:1014   */\n      0x00\n        /* \"#utility.yul\":1016:1022   */\n      dup1\n        /* \"#utility.yul\":1065:1067   */\n      0x40\n        /* \"#utility.yul\":1053:1062   */\n      dup4\n        /* \"#utility.yul\":1044:1051   */\n      dup6\n        /* \"#utility.yul\":1040:1063   */\n      sub\n        /* \"#utility.yul\":1036:1068   */\n      slt\n        /* \"#utility.yul\":1033:1152   */\n      iszero\n      tag_80\n      jumpi\n        /* \"#utility.yul\":1071:1150   */\n      tag_81\n      tag_82\n      jump\t// in\n    tag_81:\n        /* \"#utility.yul\":1033:1152   */\n    tag_80:\n        /* \"#utility.yul\":1219:1220   */\n      0x00\n        /* \"#utility.yul\":1208:1217   */\n      dup4\n        /* \"#utility.yul\":1204:1221   */\n      add\n        /* \"#utility.yul\":1191:1222   */\n      calldataload\n        /* \"#utility.yul\":1249:1267   */\n      0xffffffffffffffff\n        /* \"#utility.yul\":1241:1247   */\n      dup2\n        /* \"#utility.yul\":1238:1268   */\n      gt\n        /* \"#utility.yul\":1235:1352   */\n      iszero\n      tag_83\n      jumpi\n        /* \"#utility.yul\":1271:1350   */\n      tag_84\n      tag_85\n      jump\t// in\n    tag_84:\n        /* \"#utility.yul\":1235:1352   */\n    tag_83:\n        /* \"#utility.yul\":1376:1439   */\n      tag_86\n        /* \"#utility.yul\":1431:1438   */\n      dup6\n        /* \"#utility.yul\":1422:1428   */\n      dup3\n        /* \"#utility.yul\":1411:1420   */\n      dup7\n        /* \"#utility.yul\":1407:1429   */\n      add\n        /* \"#utility.yul\":1376:1439   */\n      tag_69\n      jump\t// in\n    tag_86:\n        /* \"#utility.yul\":1366:1439   */\n      swap3\n      pop\n        /* \"#utility.yul\":1162:1449   */\n      pop\n        /* \"#utility.yul\":1488:1490   */\n      0x20\n        /* \"#utility.yul\":1514:1567   */\n      tag_87\n        /* \"#utility.yul\":1559:1566   */\n      dup6\n        /* \"#utility.yul\":1550:1556   */\n      dup3\n        /* \"#utility.yul\":1539:1548   */\n      dup7\n        /* \"#utility.yul\":1535:1557   */\n      add\n        /* \"#utility.yul\":1514:1567   */\n      tag_75\n      jump\t// in\n    tag_87:\n        /* \"#utility.yul\":1504:1567   */\n      swap2\n      pop\n        /* \"#utility.yul\":1459:1577   */\n      pop\n        /* \"#utility.yul\":930:1584   */\n      swap3\n      pop\n      swap3\n      swap1\n      pop\n      jump\t// out\n        /* \"#utility.yul\":1590:1919   */\n    tag_7:\n        /* \"#utility.yul\":1649:1655   */\n      0x00\n        /* \"#utility.yul\":1698:1700   */\n      0x20\n        /* \"#utility.yul\":1686:1695   */\n      dup3\n        /* \"#utility.yul\":1677:1684   */\n      dup5\n        /* \"#utility.yul\":1673:1696   */\n      sub\n        /* \"#utility.yul\":1669:1701   */\n      slt\n        /* \"#utility.yul\":1666:1785   */\n      iszero\n      tag_89\n      jumpi\n        /* \"#utility.yul\":1704:1783   */\n      tag_90\n      tag_82\n      jump\t// in\n    tag_90:\n        /* \"#utility.yul\":1666:1785   */\n    tag_89:\n        /* \"#utility.yul\":1824:1825   */\n      0x00\n        /* \"#utility.yul\":1849:1902   */\n      tag_91\n        /* \"#utility.yul\":1894:1901   */\n      dup5\n        /* \"#utility.yul\":1885:1891   */\n      dup3\n        /* \"#utility.yul\":1874:1883   */\n      dup6\n        /* \"#utility.yul\":1870:1892   */\n      add\n        /* \"#utility.yul\":1849:1902   */\n      tag_75\n      jump\t// in\n    tag_91:\n        /* \"#utility.yul\":1839:1902   */\n      swap2\n      pop\n        /* \"#utility.yul\":1795:1912   */\n      pop\n        /* \"#utility.yul\":1590:1919   */\n      swap3\n      swap2\n      pop\n      pop\n      jump\t// out\n        /* \"#utility.yul\":1925:2088   */\n    tag_92:\n        /* \"#utility.yul\":2028:2081   */\n      tag_94\n        /* \"#utility.yul\":2075:2080   */\n      dup2\n        /* \"#utility.yul\":2028:2081   */\n      tag_95\n      jump\t// in\n    tag_94:\n        /* \"#utility.yul\":2023:2026   */\n      dup3\n        /* \"#utility.yul\":2016:2082   */\n      mstore\n        /* \"#utility.yul\":1925:2088   */\n      pop\n      pop\n      jump\t// out\n        /* \"#utility.yul\":2094:2458   */\n    tag_96:\n        /* \"#utility.yul\":2182:2185   */\n      0x00\n        /* \"#utility.yul\":2210:2249   */\n      tag_98\n        /* \"#utility.yul\":2243:2248   */\n      dup3\n        /* \"#utility.yul\":2210:2249   */\n      tag_99\n      jump\t// in\n    tag_98:\n        /* \"#utility.yul\":2265:2336   */\n      tag_100\n        /* \"#utility.yul\":2329:2335   */\n      dup2\n        /* \"#utility.yul\":2324:2327   */\n      dup6\n        /* \"#utility.yul\":2265:2336   */\n      tag_101\n      jump\t// in\n    tag_100:\n        /* \"#utility.yul\":2258:2336   */\n      swap4\n      pop\n        /* \"#utility.yul\":2345:2397   */\n      tag_102\n        /* \"#utility.yul\":2390:2396   */\n      dup2\n        /* \"#utility.yul\":2385:2388   */\n      dup6\n        /* \"#utility.yul\":2378:2382   */\n      0x20\n        /* \"#utility.yul\":2371:2376   */\n      dup7\n        /* \"#utility.yul\":2367:2383   */\n      add\n        /* \"#utility.yul\":2345:2397   */\n      tag_103\n      jump\t// in\n    tag_102:\n        /* \"#utility.yul\":2422:2451   */\n      tag_104\n        /* \"#utility.yul\":2444:2450   */\n      dup2\n        /* \"#utility.yul\":2422:2451   */\n      tag_105\n      jump\t// in\n    tag_104:\n        /* \"#utility.yul\":2417:2420   */\n      dup5\n        /* \"#utility.yul\":2413:2452   */\n      add\n        /* \"#utility.yul\":2406:2452   */\n      swap2\n      pop\n        /* \"#utility.yul\":2186:2458   */\n      pop\n        /* \"#utility.yul\":2094:2458   */\n      swap3\n      swap2\n      pop\n      pop\n      jump\t// out\n        /* \"#utility.yul\":2464:2830   */\n    tag_106:\n        /* \"#utility.yul\":2606:2609   */\n      0x00\n        /* \"#utility.yul\":2627:2694   */\n      tag_108\n        /* \"#utility.yul\":2691:2693   */\n      0x2f\n        /* \"#utility.yul\":2686:2689   */\n      dup4\n        /* \"#utility.yul\":2627:2694   */\n      tag_101\n      jump\t// in\n    tag_108:\n        /* \"#utility.yul\":2620:2694   */\n      swap2\n      pop\n        /* \"#utility.yul\":2703:2796   */\n      tag_109\n        /* \"#utility.yul\":2792:2795   */\n      dup3\n        /* \"#utility.yul\":2703:2796   */\n      tag_110\n      jump\t// in\n    tag_109:\n        /* \"#utility.yul\":2821:2823   */\n      0x40\n        /* \"#utility.yul\":2816:2819   */\n      dup3\n        /* \"#utility.yul\":2812:2824   */\n      add\n        /* \"#utility.yul\":2805:2824   */\n      swap1\n      pop\n        /* \"#utility.yul\":2464:2830   */\n      swap2\n      swap1\n      pop\n      jump\t// out\n        /* \"#utility.yul\":2836:3200   */\n    tag_111:\n        /* \"#utility.yul\":2978:2981   */\n      0x00\n        /* \"#utility.yul\":2999:3065   */\n      tag_113\n        /* \"#utility.yul\":3063:3064   */\n      0x00\n        /* \"#utility.yul\":3058:3061   */\n      dup4\n        /* \"#utility.yul\":2999:3065   */\n      tag_101\n      jump\t// in\n    tag_113:\n        /* \"#utility.yul\":2992:3065   */\n      swap2\n      pop\n        /* \"#utility.yul\":3074:3167   */\n      tag_114\n        /* \"#utility.yul\":3163:3166   */\n      dup3\n        /* \"#utility.yul\":3074:3167   */\n      tag_115\n      jump\t// in\n    tag_114:\n        /* \"#utility.yul\":3192:3193   */\n      0x00\n        /* \"#utility.yul\":3187:3190   */\n      dup3\n        /* \"#utility.yul\":3183:3194   */\n      add\n        /* \"#utility.yul\":3176:3194   */\n      swap1\n      pop\n        /* \"#utility.yul\":2836:3200   */\n      swap2\n      swap1\n      pop\n      jump\t// out\n        /* \"#utility.yul\":3206:3324   */\n    tag_116:\n        /* \"#utility.yul\":3293:3317   */\n      tag_118\n        /* \"#utility.yul\":3311:3316   */\n      dup2\n        /* \"#utility.yul\":3293:3317   */\n      tag_119\n      jump\t// in\n    tag_118:\n        /* \"#utility.yul\":3288:3291   */\n      dup3\n        /* \"#utility.yul\":3281:3318   */\n      mstore\n        /* \"#utility.yul\":3206:3324   */\n      pop\n      pop\n      jump\t// out\n        /* \"#utility.yul\":3330:3895   */\n    tag_19:\n        /* \"#utility.yul\":3515:3519   */\n      0x00\n        /* \"#utility.yul\":3553:3555   */\n      0x60\n        /* \"#utility.yul\":3542:3551   */\n      dup3\n        /* \"#utility.yul\":3538:3556   */\n      add\n        /* \"#utility.yul\":3530:3556   */\n      swap1\n      pop\n        /* \"#utility.yul\":3602:3611   */\n      dup2\n        /* \"#utility.yul\":3596:3600   */\n      dup2\n        /* \"#utility.yul\":3592:3612   */\n      sub\n        /* \"#utility.yul\":3588:3589   */\n      0x00\n        /* \"#utility.yul\":3577:3586   */\n      dup4\n        /* \"#utility.yul\":3573:3590   */\n      add\n        /* \"#utility.yul\":3566:3613   */\n      mstore\n        /* \"#utility.yul\":3630:3708   */\n      tag_121\n        /* \"#utility.yul\":3703:3707   */\n      dup2\n        /* \"#utility.yul\":3694:3700   */\n      dup7\n        /* \"#utility.yul\":3630:3708   */\n      tag_96\n      jump\t// in\n    tag_121:\n        /* \"#utility.yul\":3622:3708   */\n      swap1\n      pop\n        /* \"#utility.yul\":3718:3790   */\n      tag_122\n        /* \"#utility.yul\":3786:3788   */\n      0x20\n        /* \"#utility.yul\":3775:3784   */\n      dup4\n        /* \"#utility.yul\":3771:3789   */\n      add\n        /* \"#utility.yul\":3762:3768   */\n      dup6\n        /* \"#utility.yul\":3718:3790   */\n      tag_116\n      jump\t// in\n    tag_122:\n        /* \"#utility.yul\":3800:3888   */\n      tag_123\n        /* \"#utility.yul\":3884:3886   */\n      0x40\n        /* \"#utility.yul\":3873:3882   */\n      dup4\n        /* \"#utility.yul\":3869:3887   */\n      add\n        /* \"#utility.yul\":3860:3866   */\n      dup5\n        /* \"#utility.yul\":3800:3888   */\n      tag_92\n      jump\t// in\n    tag_123:\n        /* \"#utility.yul\":3330:3895   */\n      swap5\n      swap4\n      pop\n      pop\n      pop\n      pop\n      jump\t// out\n        /* \"#utility.yul\":3901:4320   */\n    tag_31:\n        /* \"#utility.yul\":4067:4071   */\n      0x00\n        /* \"#utility.yul\":4105:4107   */\n      0x20\n        /* \"#utility.yul\":4094:4103   */\n      dup3\n        /* \"#utility.yul\":4090:4108   */\n      add\n        /* \"#utility.yul\":4082:4108   */\n      swap1\n      pop\n        /* \"#utility.yul\":4154:4163   */\n      dup2\n        /* \"#utility.yul\":4148:4152   */\n      dup2\n        /* \"#utility.yul\":4144:4164   */\n      sub\n        /* \"#utility.yul\":4140:4141   */\n      0x00\n        /* \"#utility.yul\":4129:4138   */\n      dup4\n        /* \"#utility.yul\":4125:4142   */\n      add\n        /* \"#utility.yul\":4118:4165   */\n      mstore\n        /* \"#utility.yul\":4182:4313   */\n      tag_125\n        /* \"#utility.yul\":4308:4312   */\n      dup2\n        /* \"#utility.yul\":4182:4313   */\n      tag_106\n      jump\t// in\n    tag_125:\n        /* \"#utility.yul\":4174:4313   */\n      swap1\n      pop\n        /* \"#utility.yul\":3901:4320   */\n      swap2\n      swap1\n      pop\n      jump\t// out\n        /* \"#utility.yul\":4326:4745   */\n    tag_23:\n        /* \"#utility.yul\":4492:4496   */\n      0x00\n        /* \"#utility.yul\":4530:4532   */\n      0x20\n        /* \"#utility.yul\":4519:4528   */\n      dup3\n        /* \"#utility.yul\":4515:4533   */\n      add\n        /* \"#utility.yul\":4507:4533   */\n      swap1\n      pop\n        /* \"#utility.yul\":4579:4588   */\n      dup2\n        /* \"#utility.yul\":4573:4577   */\n      dup2\n        /* \"#utility.yul\":4569:4589   */\n      sub\n        /* \"#utility.yul\":4565:4566   */\n      0x00\n        /* \"#utility.yul\":4554:4563   */\n      dup4\n        /* \"#utility.yul\":4550:4567   */\n      add\n        /* \"#utility.yul\":4543:4590   */\n      mstore\n        /* \"#utility.yul\":4607:4738   */\n      tag_127\n        /* \"#utility.yul\":4733:4737   */\n      dup2\n        /* \"#utility.yul\":4607:4738   */\n      tag_111\n      jump\t// in\n    tag_127:\n        /* \"#utility.yul\":4599:4738   */\n      swap1\n      pop\n        /* \"#utility.yul\":4326:4745   */\n      swap2\n      swap1\n      pop\n      jump\t// out\n        /* \"#utility.yul\":4751:4880   */\n    tag_63:\n        /* \"#utility.yul\":4785:4791   */\n      0x00\n        /* \"#utility.yul\":4812:4832   */\n      tag_129\n      tag_130\n      jump\t// in\n    tag_129:\n        /* \"#utility.yul\":4802:4832   */\n      swap1\n      pop\n        /* \"#utility.yul\":4841:4874   */\n      tag_131\n        /* \"#utility.yul\":4869:4873   */\n      dup3\n        /* \"#utility.yul\":4861:4867   */\n      dup3\n        /* \"#utility.yul\":4841:4874   */\n      tag_132\n      jump\t// in\n    tag_131:\n        /* \"#utility.yul\":4751:4880   */\n      swap2\n      swap1\n      pop\n      jump\t// out\n        /* \"#utility.yul\":4886:4961   */\n    tag_130:\n        /* \"#utility.yul\":4919:4925   */\n      0x00\n        /* \"#utility.yul\":4952:4954   */\n      0x40\n        /* \"#utility.yul\":4946:4955   */\n      mload\n        /* \"#utility.yul\":4936:4955   */\n      swap1\n      pop\n        /* \"#utility.yul\":4886:4961   */\n      swap1\n      jump\t// out\n        /* \"#utility.yul\":4967:5275   */\n    tag_62:\n        /* \"#utility.yul\":5029:5033   */\n      0x00\n        /* \"#utility.yul\":5119:5137   */\n      0xffffffffffffffff\n        /* \"#utility.yul\":5111:5117   */\n      dup3\n        /* \"#utility.yul\":5108:5138   */\n      gt\n        /* \"#utility.yul\":5105:5161   */\n      iszero\n      tag_135\n      jumpi\n        /* \"#utility.yul\":5141:5159   */\n      tag_136\n      tag_137\n      jump\t// in\n    tag_136:\n        /* \"#utility.yul\":5105:5161   */\n    tag_135:\n        /* \"#utility.yul\":5179:5208   */\n      tag_138\n        /* \"#utility.yul\":5201:5207   */\n      dup3\n        /* \"#utility.yul\":5179:5208   */\n      tag_105\n      jump\t// in\n    tag_138:\n        /* \"#utility.yul\":5171:5208   */\n      swap1\n      pop\n        /* \"#utility.yul\":5263:5267   */\n      0x20\n        /* \"#utility.yul\":5257:5261   */\n      dup2\n        /* \"#utility.yul\":5253:5268   */\n      add\n        /* \"#utility.yul\":5245:5268   */\n      swap1\n      pop\n        /* \"#utility.yul\":4967:5275   */\n      swap2\n      swap1\n      pop\n      jump\t// out\n        /* \"#utility.yul\":5281:5380   */\n    tag_99:\n        /* \"#utility.yul\":5333:5339   */\n      0x00\n        /* \"#utility.yul\":5367:5372   */\n      dup2\n        /* \"#utility.yul\":5361:5373   */\n      mload\n        /* \"#utility.yul\":5351:5373   */\n      swap1\n      pop\n        /* \"#utility.yul\":5281:5380   */\n      swap2\n      swap1\n      pop\n      jump\t// out\n        /* \"#utility.yul\":5386:5555   */\n    tag_101:\n        /* \"#utility.yul\":5470:5481   */\n      0x00\n        /* \"#utility.yul\":5504:5510   */\n      dup3\n        /* \"#utility.yul\":5499:5502   */\n      dup3\n        /* \"#utility.yul\":5492:5511   */\n      mstore\n        /* \"#utility.yul\":5544:5548   */\n      0x20\n        /* \"#utility.yul\":5539:5542   */\n      dup3\n        /* \"#utility.yul\":5535:5549   */\n      add\n        /* \"#utility.yul\":5520:5549   */\n      swap1\n      pop\n        /* \"#utility.yul\":5386:5555   */\n      swap3\n      swap2\n      pop\n      pop\n      jump\t// out\n        /* \"#utility.yul\":5561:5708   */\n    tag_141:\n        /* \"#utility.yul\":5616:5623   */\n      0x00\n        /* \"#utility.yul\":5645:5650   */\n      dup2\n        /* \"#utility.yul\":5634:5650   */\n      swap1\n      pop\n        /* \"#utility.yul\":5651:5702   */\n      tag_143\n        /* \"#utility.yul\":5696:5701   */\n      dup3\n        /* \"#utility.yul\":5651:5702   */\n      tag_144\n      jump\t// in\n    tag_143:\n        /* \"#utility.yul\":5561:5708   */\n      swap2\n      swap1\n      pop\n      jump\t// out\n        /* \"#utility.yul\":5714:5791   */\n    tag_119:\n        /* \"#utility.yul\":5751:5758   */\n      0x00\n        /* \"#utility.yul\":5780:5785   */\n      dup2\n        /* \"#utility.yul\":5769:5785   */\n      swap1\n      pop\n        /* \"#utility.yul\":5714:5791   */\n      swap2\n      swap1\n      pop\n      jump\t// out\n        /* \"#utility.yul\":5797:5944   */\n    tag_95:\n        /* \"#utility.yul\":5863:5872   */\n      0x00\n        /* \"#utility.yul\":5896:5938   */\n      tag_147\n        /* \"#utility.yul\":5932:5937   */\n      dup3\n        /* \"#utility.yul\":5896:5938   */\n      tag_141\n      jump\t// in\n    tag_147:\n        /* \"#utility.yul\":5883:5938   */\n      swap1\n      pop\n        /* \"#utility.yul\":5797:5944   */\n      swap2\n      swap1\n      pop\n      jump\t// out\n        /* \"#utility.yul\":5950:6104   */\n    tag_68:\n        /* \"#utility.yul\":6034:6040   */\n      dup3\n        /* \"#utility.yul\":6029:6032   */\n      dup2\n        /* \"#utility.yul\":6024:6027   */\n      dup4\n        /* \"#utility.yul\":6011:6041   */\n      calldatacopy\n        /* \"#utility.yul\":6096:6097   */\n      0x00\n        /* \"#utility.yul\":6087:6093   */\n      dup4\n        /* \"#utility.yul\":6082:6085   */\n      dup4\n        /* \"#utility.yul\":6078:6094   */\n      add\n        /* \"#utility.yul\":6071:6098   */\n      mstore\n        /* \"#utility.yul\":5950:6104   */\n      pop\n      pop\n      pop\n      jump\t// out\n        /* \"#utility.yul\":6110:6417   */\n    tag_103:\n        /* \"#utility.yul\":6178:6179   */\n      0x00\n        /* \"#utility.yul\":6188:6301   */\n    tag_150:\n        /* \"#utility.yul\":6202:6208   */\n      dup4\n        /* \"#utility.yul\":6199:6200   */\n      dup2\n        /* \"#utility.yul\":6196:6209   */\n      lt\n        /* \"#utility.yul\":6188:6301   */\n      iszero\n      tag_152\n      jumpi\n        /* \"#utility.yul\":6287:6288   */\n      dup1\n        /* \"#utility.yul\":6282:6285   */\n      dup3\n        /* \"#utility.yul\":6278:6289   */\n      add\n        /* \"#utility.yul\":6272:6290   */\n      mload\n        /* \"#utility.yul\":6268:6269   */\n      dup2\n        /* \"#utility.yul\":6263:6266   */\n      dup5\n        /* \"#utility.yul\":6259:6270   */\n      add\n        /* \"#utility.yul\":6252:6291   */\n      mstore\n        /* \"#utility.yul\":6224:6226   */\n      0x20\n        /* \"#utility.yul\":6221:6222   */\n      dup2\n        /* \"#utility.yul\":6217:6227   */\n      add\n        /* \"#utility.yul\":6212:6227   */\n      swap1\n      pop\n        /* \"#utility.yul\":6188:6301   */\n      jump(tag_150)\n    tag_152:\n        /* \"#utility.yul\":6319:6325   */\n      dup4\n        /* \"#utility.yul\":6316:6317   */\n      dup2\n        /* \"#utility.yul\":6313:6326   */\n      gt\n        /* \"#utility.yul\":6310:6411   */\n      iszero\n      tag_153\n      jumpi\n        /* \"#utility.yul\":6399:6400   */\n      0x00\n        /* \"#utility.yul\":6390:6396   */\n      dup5\n        /* \"#utility.yul\":6385:6388   */\n      dup5\n        /* \"#utility.yul\":6381:6397   */\n      add\n        /* \"#utility.yul\":6374:6401   */\n      mstore\n        /* \"#utility.yul\":6310:6411   */\n    tag_153:\n        /* \"#utility.yul\":6159:6417   */\n      pop\n        /* \"#utility.yul\":6110:6417   */\n      pop\n      pop\n      pop\n      jump\t// out\n        /* \"#utility.yul\":6423:6743   */\n    tag_42:\n        /* \"#utility.yul\":6467:6473   */\n      0x00\n        /* \"#utility.yul\":6504:6505   */\n      0x02\n        /* \"#utility.yul\":6498:6502   */\n      dup3\n        /* \"#utility.yul\":6494:6506   */\n      div\n        /* \"#utility.yul\":6484:6506   */\n      swap1\n      pop\n        /* \"#utility.yul\":6551:6552   */\n      0x01\n        /* \"#utility.yul\":6545:6549   */\n      dup3\n        /* \"#utility.yul\":6541:6553   */\n      and\n        /* \"#utility.yul\":6572:6590   */\n      dup1\n        /* \"#utility.yul\":6562:6643   */\n      tag_155\n      jumpi\n        /* \"#utility.yul\":6628:6632   */\n      0x7f\n        /* \"#utility.yul\":6620:6626   */\n      dup3\n        /* \"#utility.yul\":6616:6633   */\n      and\n        /* \"#utility.yul\":6606:6633   */\n      swap2\n      pop\n        /* \"#utility.yul\":6562:6643   */\n    tag_155:\n        /* \"#utility.yul\":6690:6692   */\n      0x20\n        /* \"#utility.yul\":6682:6688   */\n      dup3\n        /* \"#utility.yul\":6679:6693   */\n      lt\n        /* \"#utility.yul\":6659:6677   */\n      dup2\n        /* \"#utility.yul\":6656:6694   */\n      eq\n        /* \"#utility.yul\":6653:6737   */\n      iszero\n      tag_156\n      jumpi\n        /* \"#utility.yul\":6709:6727   */\n      tag_157\n      tag_158\n      jump\t// in\n    tag_157:\n        /* \"#utility.yul\":6653:6737   */\n    tag_156:\n        /* \"#utility.yul\":6474:6743   */\n      pop\n        /* \"#utility.yul\":6423:6743   */\n      swap2\n      swap1\n      pop\n      jump\t// out\n        /* \"#utility.yul\":6749:7030   */\n    tag_132:\n        /* \"#utility.yul\":6832:6859   */\n      tag_160\n        /* \"#utility.yul\":6854:6858   */\n      dup3\n        /* \"#utility.yul\":6832:6859   */\n      tag_105\n      jump\t// in\n    tag_160:\n        /* \"#utility.yul\":6824:6830   */\n      dup2\n        /* \"#utility.yul\":6820:6860   */\n      add\n        /* \"#utility.yul\":6962:6968   */\n      dup2\n        /* \"#utility.yul\":6950:6960   */\n      dup2\n        /* \"#utility.yul\":6947:6969   */\n      lt\n        /* \"#utility.yul\":6926:6944   */\n      0xffffffffffffffff\n        /* \"#utility.yul\":6914:6924   */\n      dup3\n        /* \"#utility.yul\":6911:6945   */\n      gt\n        /* \"#utility.yul\":6908:6970   */\n      or\n        /* \"#utility.yul\":6905:6993   */\n      iszero\n      tag_161\n      jumpi\n        /* \"#utility.yul\":6973:6991   */\n      tag_162\n      tag_137\n      jump\t// in\n    tag_162:\n        /* \"#utility.yul\":6905:6993   */\n    tag_161:\n        /* \"#utility.yul\":7013:7023   */\n      dup1\n        /* \"#utility.yul\":7009:7011   */\n      0x40\n        /* \"#utility.yul\":7002:7024   */\n      mstore\n        /* \"#utility.yul\":6792:7030   */\n      pop\n        /* \"#utility.yul\":6749:7030   */\n      pop\n      pop\n      jump\t// out\n        /* \"#utility.yul\":7036:7269   */\n    tag_40:\n        /* \"#utility.yul\":7075:7078   */\n      0x00\n        /* \"#utility.yul\":7098:7122   */\n      tag_164\n        /* \"#utility.yul\":7116:7121   */\n      dup3\n        /* \"#utility.yul\":7098:7122   */\n      tag_119\n      jump\t// in\n    tag_164:\n        /* \"#utility.yul\":7089:7122   */\n      swap2\n      pop\n        /* \"#utility.yul\":7144:7210   */\n      0xffffffffffffffffffffffffffffffffffffffffffffffffffffffffffffffff\n        /* \"#utility.yul\":7137:7142   */\n      dup3\n        /* \"#utility.yul\":7134:7211   */\n      eq\n        /* \"#utility.yul\":7131:7234   */\n      iszero\n      tag_165\n      jumpi\n        /* \"#utility.yul\":7214:7232   */\n      tag_166\n      tag_167\n      jump\t// in\n    tag_166:\n        /* \"#utility.yul\":7131:7234   */\n    tag_165:\n        /* \"#utility.yul\":7261:7262   */\n      0x01\n        /* \"#utility.yul\":7254:7259   */\n      dup3\n        /* \"#utility.yul\":7250:7263   */\n      add\n        /* \"#utility.yul\":7243:7263   */\n      swap1\n      pop\n        /* \"#utility.yul\":7036:7269   */\n      swap2\n      swap1\n      pop\n      jump\t// out\n        /* \"#utility.yul\":7275:7455   */\n    tag_167:\n        /* \"#utility.yul\":7323:7400   */\n      0x4e487b7100000000000000000000000000000000000000000000000000000000\n        /* \"#utility.yul\":7320:7321   */\n      0x00\n        /* \"#utility.yul\":7313:7401   */\n      mstore\n        /* \"#utility.yul\":7420:7424   */\n      0x11\n        /* \"#utility.yul\":7417:7418   */\n      0x04\n        /* \"#utility.yul\":7410:7425   */\n      mstore\n        /* \"#utility.yul\":7444:7448   */\n      0x24\n        /* \"#utility.yul\":7441:7442   */\n      0x00\n        /* \"#utility.yul\":7434:7449   */\n      revert\n        /* \"#utility.yul\":7461:7641   */\n    tag_26:\n        /* \"#utility.yul\":7509:7586   */\n      0x4e487b7100000000000000000000000000000000000000000000000000000000\n        /* \"#utility.yul\":7506:7507   */\n      0x00\n        /* \"#utility.yul\":7499:7587   */\n      mstore\n        /* \"#utility.yul\":7606:7610   */\n      0x21\n        /* \"#utility.yul\":7603:7604   */\n      0x04\n        /* \"#utility.yul\":7596:7611   */\n      mstore\n        /* \"#utility.yul\":7630:7634   */\n      0x24\n        /* \"#utility.yul\":7627:7628   */\n      0x00\n        /* \"#utility.yul\":7620:7635   */\n      revert\n        /* \"#utility.yul\":7647:7827   */\n    tag_158:\n        /* \"#utility.yul\":7695:7772   */\n      0x4e487b7100000000000000000000000000000000000000000000000000000000\n        /* \"#utility.yul\":7692:7693   */\n      0x00\n        /* \"#utility.yul\":7685:7773   */\n      mstore\n        /* \"#utility.yul\":7792:7796   */\n      0x22\n        /* \"#utility.yul\":7789:7790   */\n      0x04\n        /* \"#utility.yul\":7782:7797   */\n      mstore\n        /* \"#utility.yul\":7816:7820   */\n      0x24\n        /* \"#utility.yul\":7813:7814   */\n      0x00\n        /* \"#utility.yul\":7806:7821   */\n      revert\n        /* \"#utility.yul\":7833:8013   */\n    tag_137:\n        /* \"#utility.yul\":7881:7958   */\n      0x4e487b7100000000000000000000000000000000000000000000000000000000\n        /* \"#utility.yul\":7878:7879   */\n      0x00\n        /* \"#utility.yul\":7871:7959   */\n      mstore\n        /* \"#utility.yul\":7978:7982   */\n      0x41\n        /* \"#utility.yul\":7975:7976   */\n      0x04\n        /* \"#utility.yul\":7968:7983   */\n      mstore\n        /* \"#utility.yul\":8002:8006   */\n      0x24\n        /* \"#utility.yul\":7999:8000   */\n      0x00\n        /* \"#utility.yul\":7992:8007   */\n      revert\n        /* \"#utility.yul\":8019:8136   */\n    tag_73:\n        /* \"#utility.yul\":8128:8129   */\n      0x00\n        /* \"#utility.yul\":8125:8126   */\n      dup1\n        /* \"#utility.yul\":8118:8130   */\n      revert\n        /* \"#utility.yul\":8142:8259   */\n    tag_66:\n        /* \"#utility.yul\":8251:8252   */\n      0x00\n        /* \"#utility.yul\":8248:8249   */\n      dup1\n        /* \"#utility.yul\":8241:8253   */\n      revert\n        /* \"#utility.yul\":8265:8382   */\n    tag_85:\n        /* \"#utility.yul\":8374:8375   */\n      0x00\n        /* \"#utility.yul\":8371:8372   */\n      dup1\n        /* \"#utility.yul\":8364:8376   */\n      revert\n        /* \"#utility.yul\":8388:8505   */\n    tag_82:\n        /* \"#utility.yul\":8497:8498   */\n      0x00\n        /* \"#utility.yul\":8494:8495   */\n      dup1\n        /* \"#utility.yul\":8487:8499   */\n      revert\n        /* \"#utility.yul\":8511:8613   */\n    tag_105:\n        /* \"#utility.yul\":8552:8558   */\n      0x00\n        /* \"#utility.yul\":8603:8605   */\n      0x1f\n        /* \"#utility.yul\":8599:8606   */\n      not\n        /* \"#utility.yul\":8594:8596   */\n      0x1f\n        /* \"#utility.yul\":8587:8592   */\n      dup4\n        /* \"#utility.yul\":8583:8597   */\n      add\n        /* \"#utility.yul\":8579:8607   */\n      and\n        /* \"#utility.yul\":8569:8607   */\n      swap1\n      pop\n        /* \"#utility.yul\":8511:8613   */\n      swap2\n      swap1\n      pop\n      jump\t// out\n        /* \"#utility.yul\":8619:8853   */\n    tag_110:\n        /* \"#utility.yul\":8759:8793   */\n      0x546865206974656d20697320616c7265616479206675727468657220696e2074\n        /* \"#utility.yul\":8755:8756   */\n      0x00\n        /* \"#utility.yul\":8747:8753   */\n      dup3\n        /* \"#utility.yul\":8743:8757   */\n      add\n        /* \"#utility.yul\":8736:8794   */\n      mstore\n        /* \"#utility.yul\":8828:8845   */\n      0x686520737570706c7920636861696e0000000000000000000000000000000000\n        /* \"#utility.yul\":8823:8825   */\n      0x20\n        /* \"#utility.yul\":8815:8821   */\n      dup3\n        /* \"#utility.yul\":8811:8826   */\n      add\n        /* \"#utility.yul\":8804:8846   */\n      mstore\n        /* \"#utility.yul\":8619:8853   */\n      pop\n      jump\t// out\n        /* \"#utility.yul\":8859:8973   */\n    tag_115:\n      pop\n      jump\t// out\n        /* \"#utility.yul\":8979:9102   */\n    tag_144:\n        /* \"#utility.yul\":9070:9071   */\n      0x03\n        /* \"#utility.yul\":9063:9068   */\n      dup2\n        /* \"#utility.yul\":9060:9072   */\n      lt\n        /* \"#utility.yul\":9050:9096   */\n      tag_180\n      jumpi\n        /* \"#utility.yul\":9076:9094   */\n      tag_181\n      tag_26\n      jump\t// in\n    tag_181:\n        /* \"#utility.yul\":9050:9096   */\n    tag_180:\n        /* \"#utility.yul\":8979:9102   */\n      pop\n      jump\t// out\n        /* \"#utility.yul\":9108:9230   */\n    tag_78:\n        /* \"#utility.yul\":9181:9205   */\n      tag_183\n        /* \"#utility.yul\":9199:9204   */\n      dup2\n        /* \"#utility.yul\":9181:9205   */\n      tag_119\n      jump\t// in\n    tag_183:\n        /* \"#utility.yul\":9174:9179   */\n      dup2\n        /* \"#utility.yul\":9171:9206   */\n      eq\n        /* \"#utility.yul\":9161:9224   */\n      tag_184\n      jumpi\n        /* \"#utility.yul\":9220:9221   */\n      0x00\n        /* \"#utility.yul\":9217:9218   */\n      dup1\n        /* \"#utility.yul\":9210:9222   */\n      revert\n        /* \"#utility.yul\":9161:9224   */\n    tag_184:\n        /* \"#utility.yul\":9108:9230   */\n      pop\n      jump\t// out\n\n    auxdata: 0xa2646970667358221220037075fe31f34ef96db40fdbecddc5ccccfda90721be51a49c4a1838febb208f64736f6c63430008070033\n}\n",
				"bytecode": {
					"linkReferences": {},
					"object": "608060405234801561001057600080fd5b50610930806100206000396000f3fe6080604052600436106100345760003560e01c8063800fb83f146100395780638c55174214610055578063bfb231d21461007e575b600080fd5b610053600480360381019061004e91906104c5565b6100bd565b005b34801561006157600080fd5b5061007c60048036038101906100779190610469565b6101de565b005b34801561008a57600080fd5b506100a560048036038101906100a091906104c5565b610282565b6040516100b49392919061058f565b60405180910390f35b346000808381526020019081526020016000206001015414610114576040517f08c379a000000000000000000000000000000000000000000000000000000000815260040161010b906105ed565b60405180910390fd5b60006002811115610128576101276107cb565b5b60008083815260200190815260200160002060020160009054906101000a900460ff16600281111561015d5761015c6107cb565b5b1461019d576040517f08c379a0000000000000000000000000000000000000000000000000000000008152600401610194906105cd565b60405180910390fd5b600160008083815260200190815260200160002060020160006101000a81548160ff021916908360028111156101d6576101d56107cb565b5b021790555050565b8160008060015481526020019081526020016000206000019080519060200190610209929190610341565b50806000806001548152602001908152602001600020600101819055506000806000600154815260200190815260200160002060020160006101000a81548160ff02191690836002811115610261576102606107cb565b5b02179055506001600081548092919061027990610753565b91905055505050565b60006020528060005260406000206000915090508060000180546102a5906106f0565b80601f01602080910402602001604051908101604052809291908181526020018280546102d1906106f0565b801561031e5780601f106102f35761010080835404028352916020019161031e565b820191906000526020600020905b81548152906001019060200180831161030157829003601f168201915b5050505050908060010154908060020160009054906101000a900460ff16905083565b82805461034d906106f0565b90600052602060002090601f01602090048101928261036f57600085556103b6565b82601f1061038857805160ff19168380011785556103b6565b828001600101855582156103b6579182015b828111156103b557825182559160200191906001019061039a565b5b5090506103c391906103c7565b5090565b5b808211156103e05760008160009055506001016103c8565b5090565b60006103f76103f284610632565b61060d565b9050828152602081018484840111156104135761041261085d565b5b61041e8482856106ae565b509392505050565b600082601f83011261043b5761043a610858565b5b813561044b8482602086016103e4565b91505092915050565b600081359050610463816108e3565b92915050565b600080604083850312156104805761047f610867565b5b600083013567ffffffffffffffff81111561049e5761049d610862565b5b6104aa85828601610426565b92505060206104bb85828601610454565b9150509250929050565b6000602082840312156104db576104da610867565b5b60006104e984828501610454565b91505092915050565b6104fb8161069c565b82525050565b600061050c82610663565b610516818561066e565b93506105268185602086016106bd565b61052f8161086c565b840191505092915050565b6000610547602f8361066e565b91506105528261087d565b604082019050919050565b600061056a60008361066e565b9150610575826108cc565b600082019050919050565b61058981610692565b82525050565b600060608201905081810360008301526105a98186610501565b90506105b86020830185610580565b6105c560408301846104f2565b949350505050565b600060208201905081810360008301526105e68161053a565b9050919050565b600060208201905081810360008301526106068161055d565b9050919050565b6000610617610628565b90506106238282610722565b919050565b6000604051905090565b600067ffffffffffffffff82111561064d5761064c610829565b5b6106568261086c565b9050602081019050919050565b600081519050919050565b600082825260208201905092915050565b600081905061068d826108cf565b919050565b6000819050919050565b60006106a78261067f565b9050919050565b82818337600083830152505050565b60005b838110156106db5780820151818401526020810190506106c0565b838111156106ea576000848401525b50505050565b6000600282049050600182168061070857607f821691505b6020821081141561071c5761071b6107fa565b5b50919050565b61072b8261086c565b810181811067ffffffffffffffff8211171561074a57610749610829565b5b80604052505050565b600061075e82610692565b91507fffffffffffffffffffffffffffffffffffffffffffffffffffffffffffffffff8214156107915761079061079c565b5b600182019050919050565b7f4e487b7100000000000000000000000000000000000000000000000000000000600052601160045260246000fd5b7f4e487b7100000000000000000000000000000000000000000000000000000000600052602160045260246000fd5b7f4e487b7100000000000000000000000000000000000000000000000000000000600052602260045260246000fd5b7f4e487b7100000000000000000000000000000000000000000000000000000000600052604160045260246000fd5b600080fd5b600080fd5b600080fd5b600080fd5b6000601f19601f8301169050919050565b7f546865206974656d20697320616c7265616479206675727468657220696e207460008201527f686520737570706c7920636861696e0000000000000000000000000000000000602082015250565b50565b600381106108e0576108df6107cb565b5b50565b6108ec81610692565b81146108f757600080fd5b5056fea2646970667358221220037075fe31f34ef96db40fdbecddc5ccccfda90721be51a49c4a1838febb208f64736f6c63430008070033",
					"opcodes": "PUSH1 0x80 PUSH1 0x40 MSTORE CALLVALUE DUP1 ISZERO PUSH2 0x10 JUMPI PUSH1 0x0 DUP1 REVERT JUMPDEST POP PUSH2 0x930 DUP1 PUSH2 0x20 PUSH1 0x0 CODECOPY PUSH1 0x0 RETURN INVALID PUSH1 0x80 PUSH1 0x40 MSTORE PUSH1 0x4 CALLDATASIZE LT PUSH2 0x34 JUMPI PUSH1 0x0 CALLDATALOAD PUSH1 0xE0 SHR DUP1 PUSH4 0x800FB83F EQ PUSH2 0x39 JUMPI DUP1 PUSH4 0x8C551742 EQ PUSH2 0x55 JUMPI DUP1 PUSH4 0xBFB231D2 EQ PUSH2 0x7E JUMPI JUMPDEST PUSH1 0x0 DUP1 REVERT JUMPDEST PUSH2 0x53 PUSH1 0x4 DUP1 CALLDATASIZE SUB DUP2 ADD SWAP1 PUSH2 0x4E SWAP2 SWAP1 PUSH2 0x4C5 JUMP JUMPDEST PUSH2 0xBD JUMP JUMPDEST STOP JUMPDEST CALLVALUE DUP1 ISZERO PUSH2 0x61 JUMPI PUSH1 0x0 DUP1 REVERT JUMPDEST POP PUSH2 0x7C PUSH1 0x4 DUP1 CALLDATASIZE SUB DUP2 ADD SWAP1 PUSH2 0x77 SWAP2 SWAP1 PUSH2 0x469 JUMP JUMPDEST PUSH2 0x1DE JUMP JUMPDEST STOP JUMPDEST CALLVALUE DUP1 ISZERO PUSH2 0x8A JUMPI PUSH1 0x0 DUP1 REVERT JUMPDEST POP PUSH2 0xA5 PUSH1 0x4 DUP1 CALLDATASIZE SUB DUP2 ADD SWAP1 PUSH2 0xA0 SWAP2 SWAP1 PUSH2 0x4C5 JUMP JUMPDEST PUSH2 0x282 JUMP JUMPDEST PUSH1 0x40 MLOAD PUSH2 0xB4 SWAP4 SWAP3 SWAP2 SWAP1 PUSH2 0x58F JUMP JUMPDEST PUSH1 0x40 MLOAD DUP1 SWAP2 SUB SWAP1 RETURN JUMPDEST CALLVALUE PUSH1 0x0 DUP1 DUP4 DUP2 MSTORE PUSH1 0x20 ADD SWAP1 DUP2 MSTORE PUSH1 0x20 ADD PUSH1 0x0 KECCAK256 PUSH1 0x1 ADD SLOAD EQ PUSH2 0x114 JUMPI PUSH1 0x40 MLOAD PUSH32 0x8C379A000000000000000000000000000000000000000000000000000000000 DUP2 MSTORE PUSH1 0x4 ADD PUSH2 0x10B SWAP1 PUSH2 0x5ED JUMP JUMPDEST PUSH1 0x40 MLOAD DUP1 SWAP2 SUB SWAP1 REVERT JUMPDEST PUSH1 0x0 PUSH1 0x2 DUP2 GT ISZERO PUSH2 0x128 JUMPI PUSH2 0x127 PUSH2 0x7CB JUMP JUMPDEST JUMPDEST PUSH1 0x0 DUP1 DUP4 DUP2 MSTORE PUSH1 0x20 ADD SWAP1 DUP2 MSTORE PUSH1 0x20 ADD PUSH1 0x0 KECCAK256 PUSH1 0x2 ADD PUSH1 0x0 SWAP1 SLOAD SWAP1 PUSH2 0x100 EXP SWAP1 DIV PUSH1 0xFF AND PUSH1 0x2 DUP2 GT ISZERO PUSH2 0x15D JUMPI PUSH2 0x15C PUSH2 0x7CB JUMP JUMPDEST JUMPDEST EQ PUSH2 0x19D JUMPI PUSH1 0x40 MLOAD PUSH32 0x8C379A000000000000000000000000000000000000000000000000000000000 DUP2 MSTORE PUSH1 0x4 ADD PUSH2 0x194 SWAP1 PUSH2 0x5CD JUMP JUMPDEST PUSH1 0x40 MLOAD DUP1 SWAP2 SUB SWAP1 REVERT JUMPDEST PUSH1 0x1 PUSH1 0x0 DUP1 DUP4 DUP2 MSTORE PUSH1 0x20 ADD SWAP1 DUP2 MSTORE PUSH1 0x20 ADD PUSH1 0x0 KECCAK256 PUSH1 0x2 ADD PUSH1 0x0 PUSH2 0x100 EXP DUP2 SLOAD DUP2 PUSH1 0xFF MUL NOT AND SWAP1 DUP4 PUSH1 0x2 DUP2 GT ISZERO PUSH2 0x1D6 JUMPI PUSH2 0x1D5 PUSH2 0x7CB JUMP JUMPDEST JUMPDEST MUL OR SWAP1 SSTORE POP POP JUMP JUMPDEST DUP2 PUSH1 0x0 DUP1 PUSH1 0x1 SLOAD DUP2 MSTORE PUSH1 0x20 ADD SWAP1 DUP2 MSTORE PUSH1 0x20 ADD PUSH1 0x0 KECCAK256 PUSH1 0x0 ADD SWAP1 DUP1 MLOAD SWAP1 PUSH1 0x20 ADD SWAP1 PUSH2 0x209 SWAP3 SWAP2 SWAP1 PUSH2 0x341 JUMP JUMPDEST POP DUP1 PUSH1 0x0 DUP1 PUSH1 0x1 SLOAD DUP2 MSTORE PUSH1 0x20 ADD SWAP1 DUP2 MSTORE PUSH1 0x20 ADD PUSH1 0x0 KECCAK256 PUSH1 0x1 ADD DUP2 SWAP1 SSTORE POP PUSH1 0x0 DUP1 PUSH1 0x0 PUSH1 0x1 SLOAD DUP2 MSTORE PUSH1 0x20 ADD SWAP1 DUP2 MSTORE PUSH1 0x20 ADD PUSH1 0x0 KECCAK256 PUSH1 0x2 ADD PUSH1 0x0 PUSH2 0x100 EXP DUP2 SLOAD DUP2 PUSH1 0xFF MUL NOT AND SWAP1 DUP4 PUSH1 0x2 DUP2 GT ISZERO PUSH2 0x261 JUMPI PUSH2 0x260 PUSH2 0x7CB JUMP JUMPDEST JUMPDEST MUL OR SWAP1 SSTORE POP PUSH1 0x1 PUSH1 0x0 DUP2 SLOAD DUP1 SWAP3 SWAP2 SWAP1 PUSH2 0x279 SWAP1 PUSH2 0x753 JUMP JUMPDEST SWAP2 SWAP1 POP SSTORE POP POP POP JUMP JUMPDEST PUSH1 0x0 PUSH1 0x20 MSTORE DUP1 PUSH1 0x0 MSTORE PUSH1 0x40 PUSH1 0x0 KECCAK256 PUSH1 0x0 SWAP2 POP SWAP1 POP DUP1 PUSH1 0x0 ADD DUP1 SLOAD PUSH2 0x2A5 SWAP1 PUSH2 0x6F0 JUMP JUMPDEST DUP1 PUSH1 0x1F ADD PUSH1 0x20 DUP1 SWAP2 DIV MUL PUSH1 0x20 ADD PUSH1 0x40 MLOAD SWAP1 DUP2 ADD PUSH1 0x40 MSTORE DUP1 SWAP3 SWAP2 SWAP1 DUP2 DUP2 MSTORE PUSH1 0x20 ADD DUP3 DUP1 SLOAD PUSH2 0x2D1 SWAP1 PUSH2 0x6F0 JUMP JUMPDEST DUP1 ISZERO PUSH2 0x31E JUMPI DUP1 PUSH1 0x1F LT PUSH2 0x2F3 JUMPI PUSH2 0x100 DUP1 DUP4 SLOAD DIV MUL DUP4 MSTORE SWAP2 PUSH1 0x20 ADD SWAP2 PUSH2 0x31E JUMP JUMPDEST DUP3 ADD SWAP2 SWAP1 PUSH1 0x0 MSTORE PUSH1 0x20 PUSH1 0x0 KECCAK256 SWAP1 JUMPDEST DUP2 SLOAD DUP2 MSTORE SWAP1 PUSH1 0x1 ADD SWAP1 PUSH1 0x20 ADD DUP1 DUP4 GT PUSH2 0x301 JUMPI DUP3 SWAP1 SUB PUSH1 0x1F AND DUP3 ADD SWAP2 JUMPDEST POP POP POP POP POP SWAP1 DUP1 PUSH1 0x1 ADD SLOAD SWAP1 DUP1 PUSH1 0x2 ADD PUSH1 0x0 SWAP1 SLOAD SWAP1 PUSH2 0x100 EXP SWAP1 DIV PUSH1 0xFF AND SWAP1 POP DUP4 JUMP JUMPDEST DUP3 DUP1 SLOAD PUSH2 0x34D SWAP1 PUSH2 0x6F0 JUMP JUMPDEST SWAP1 PUSH1 0x0 MSTORE PUSH1 0x20 PUSH1 0x0 KECCAK256 SWAP1 PUSH1 0x1F ADD PUSH1 0x20 SWAP1 DIV DUP2 ADD SWAP3 DUP3 PUSH2 0x36F JUMPI PUSH1 0x0 DUP6 SSTORE PUSH2 0x3B6 JUMP JUMPDEST DUP3 PUSH1 0x1F LT PUSH2 0x388 JUMPI DUP1 MLOAD PUSH1 0xFF NOT AND DUP4 DUP1 ADD OR DUP6 SSTORE PUSH2 0x3B6 JUMP JUMPDEST DUP3 DUP1 ADD PUSH1 0x1 ADD DUP6 SSTORE DUP3 ISZERO PUSH2 0x3B6 JUMPI SWAP2 DUP3 ADD JUMPDEST DUP3 DUP2 GT ISZERO PUSH2 0x3B5 JUMPI DUP3 MLOAD DUP3 SSTORE SWAP2 PUSH1 0x20 ADD SWAP2 SWAP1 PUSH1 0x1 ADD SWAP1 PUSH2 0x39A JUMP JUMPDEST JUMPDEST POP SWAP1 POP PUSH2 0x3C3 SWAP2 SWAP1 PUSH2 0x3C7 JUMP JUMPDEST POP SWAP1 JUMP JUMPDEST JUMPDEST DUP1 DUP3 GT ISZERO PUSH2 0x3E0 JUMPI PUSH1 0x0 DUP2 PUSH1 0x0 SWAP1 SSTORE POP PUSH1 0x1 ADD PUSH2 0x3C8 JUMP JUMPDEST POP SWAP1 JUMP JUMPDEST PUSH1 0x0 PUSH2 0x3F7 PUSH2 0x3F2 DUP5 PUSH2 0x632 JUMP JUMPDEST PUSH2 0x60D JUMP JUMPDEST SWAP1 POP DUP3 DUP2 MSTORE PUSH1 0x20 DUP2 ADD DUP5 DUP5 DUP5 ADD GT ISZERO PUSH2 0x413 JUMPI PUSH2 0x412 PUSH2 0x85D JUMP JUMPDEST JUMPDEST PUSH2 0x41E DUP5 DUP3 DUP6 PUSH2 0x6AE JUMP JUMPDEST POP SWAP4 SWAP3 POP POP POP JUMP JUMPDEST PUSH1 0x0 DUP3 PUSH1 0x1F DUP4 ADD SLT PUSH2 0x43B JUMPI PUSH2 0x43A PUSH2 0x858 JUMP JUMPDEST JUMPDEST DUP2 CALLDATALOAD PUSH2 0x44B DUP5 DUP3 PUSH1 0x20 DUP7 ADD PUSH2 0x3E4 JUMP JUMPDEST SWAP2 POP POP SWAP3 SWAP2 POP POP JUMP JUMPDEST PUSH1 0x0 DUP2 CALLDATALOAD SWAP1 POP PUSH2 0x463 DUP2 PUSH2 0x8E3 JUMP JUMPDEST SWAP3 SWAP2 POP POP JUMP JUMPDEST PUSH1 0x0 DUP1 PUSH1 0x40 DUP4 DUP6 SUB SLT ISZERO PUSH2 0x480 JUMPI PUSH2 0x47F PUSH2 0x867 JUMP JUMPDEST JUMPDEST PUSH1 0x0 DUP4 ADD CALLDATALOAD PUSH8 0xFFFFFFFFFFFFFFFF DUP2 GT ISZERO PUSH2 0x49E JUMPI PUSH2 0x49D PUSH2 0x862 JUMP JUMPDEST JUMPDEST PUSH2 0x4AA DUP6 DUP3 DUP7 ADD PUSH2 0x426 JUMP JUMPDEST SWAP3 POP POP PUSH1 0x20 PUSH2 0x4BB DUP6 DUP3 DUP7 ADD PUSH2 0x454 JUMP JUMPDEST SWAP2 POP POP SWAP3 POP SWAP3 SWAP1 POP JUMP JUMPDEST PUSH1 0x0 PUSH1 0x20 DUP3 DUP5 SUB SLT ISZERO PUSH2 0x4DB JUMPI PUSH2 0x4DA PUSH2 0x867 JUMP JUMPDEST JUMPDEST PUSH1 0x0 PUSH2 0x4E9 DUP5 DUP3 DUP6 ADD PUSH2 0x454 JUMP JUMPDEST SWAP2 POP POP SWAP3 SWAP2 POP POP JUMP JUMPDEST PUSH2 0x4FB DUP2 PUSH2 0x69C JUMP JUMPDEST DUP3 MSTORE POP POP JUMP JUMPDEST PUSH1 0x0 PUSH2 0x50C DUP3 PUSH2 0x663 JUMP JUMPDEST PUSH2 0x516 DUP2 DUP6 PUSH2 0x66E JUMP JUMPDEST SWAP4 POP PUSH2 0x526 DUP2 DUP6 PUSH1 0x20 DUP7 ADD PUSH2 0x6BD JUMP JUMPDEST PUSH2 0x52F DUP2 PUSH2 0x86C JUMP JUMPDEST DUP5 ADD SWAP2 POP POP SWAP3 SWAP2 POP POP JUMP JUMPDEST PUSH1 0x0 PUSH2 0x547 PUSH1 0x2F DUP4 PUSH2 0x66E JUMP JUMPDEST SWAP2 POP PUSH2 0x552 DUP3 PUSH2 0x87D JUMP JUMPDEST PUSH1 0x40 DUP3 ADD SWAP1 POP SWAP2 SWAP1 POP JUMP JUMPDEST PUSH1 0x0 PUSH2 0x56A PUSH1 0x0 DUP4 PUSH2 0x66E JUMP JUMPDEST SWAP2 POP PUSH2 0x575 DUP3 PUSH2 0x8CC JUMP JUMPDEST PUSH1 0x0 DUP3 ADD SWAP1 POP SWAP2 SWAP1 POP JUMP JUMPDEST PUSH2 0x589 DUP2 PUSH2 0x692 JUMP JUMPDEST DUP3 MSTORE POP POP JUMP JUMPDEST PUSH1 0x0 PUSH1 0x60 DUP3 ADD SWAP1 POP DUP2 DUP2 SUB PUSH1 0x0 DUP4 ADD MSTORE PUSH2 0x5A9 DUP2 DUP7 PUSH2 0x501 JUMP JUMPDEST SWAP1 POP PUSH2 0x5B8 PUSH1 0x20 DUP4 ADD DUP6 PUSH2 0x580 JUMP JUMPDEST PUSH2 0x5C5 PUSH1 0x40 DUP4 ADD DUP5 PUSH2 0x4F2 JUMP JUMPDEST SWAP5 SWAP4 POP POP POP POP JUMP JUMPDEST PUSH1 0x0 PUSH1 0x20 DUP3 ADD SWAP1 POP DUP2 DUP2 SUB PUSH1 0x0 DUP4 ADD MSTORE PUSH2 0x5E6 DUP2 PUSH2 0x53A JUMP JUMPDEST SWAP1 POP SWAP2 SWAP1 POP JUMP JUMPDEST PUSH1 0x0 PUSH1 0x20 DUP3 ADD SWAP1 POP DUP2 DUP2 SUB PUSH1 0x0 DUP4 ADD MSTORE PUSH2 0x606 DUP2 PUSH2 0x55D JUMP JUMPDEST SWAP1 POP SWAP2 SWAP1 POP JUMP JUMPDEST PUSH1 0x0 PUSH2 0x617 PUSH2 0x628 JUMP JUMPDEST SWAP1 POP PUSH2 0x623 DUP3 DUP3 PUSH2 0x722 JUMP JUMPDEST SWAP2 SWAP1 POP JUMP JUMPDEST PUSH1 0x0 PUSH1 0x40 MLOAD SWAP1 POP SWAP1 JUMP JUMPDEST PUSH1 0x0 PUSH8 0xFFFFFFFFFFFFFFFF DUP3 GT ISZERO PUSH2 0x64D JUMPI PUSH2 0x64C PUSH2 0x829 JUMP JUMPDEST JUMPDEST PUSH2 0x656 DUP3 PUSH2 0x86C JUMP JUMPDEST SWAP1 POP PUSH1 0x20 DUP2 ADD SWAP1 POP SWAP2 SWAP1 POP JUMP JUMPDEST PUSH1 0x0 DUP2 MLOAD SWAP1 POP SWAP2 SWAP1 POP JUMP JUMPDEST PUSH1 0x0 DUP3 DUP3 MSTORE PUSH1 0x20 DUP3 ADD SWAP1 POP SWAP3 SWAP2 POP POP JUMP JUMPDEST PUSH1 0x0 DUP2 SWAP1 POP PUSH2 0x68D DUP3 PUSH2 0x8CF JUMP JUMPDEST SWAP2 SWAP1 POP JUMP JUMPDEST PUSH1 0x0 DUP2 SWAP1 POP SWAP2 SWAP1 POP JUMP JUMPDEST PUSH1 0x0 PUSH2 0x6A7 DUP3 PUSH2 0x67F JUMP JUMPDEST SWAP1 POP SWAP2 SWAP1 POP JUMP JUMPDEST DUP3 DUP2 DUP4 CALLDATACOPY PUSH1 0x0 DUP4 DUP4 ADD MSTORE POP POP POP JUMP JUMPDEST PUSH1 0x0 JUMPDEST DUP4 DUP2 LT ISZERO PUSH2 0x6DB JUMPI DUP1 DUP3 ADD MLOAD DUP2 DUP5 ADD MSTORE PUSH1 0x20 DUP2 ADD SWAP1 POP PUSH2 0x6C0 JUMP JUMPDEST DUP4 DUP2 GT ISZERO PUSH2 0x6EA JUMPI PUSH1 0x0 DUP5 DUP5 ADD MSTORE JUMPDEST POP POP POP POP JUMP JUMPDEST PUSH1 0x0 PUSH1 0x2 DUP3 DIV SWAP1 POP PUSH1 0x1 DUP3 AND DUP1 PUSH2 0x708 JUMPI PUSH1 0x7F DUP3 AND SWAP2 POP JUMPDEST PUSH1 0x20 DUP3 LT DUP2 EQ ISZERO PUSH2 0x71C JUMPI PUSH2 0x71B PUSH2 0x7FA JUMP JUMPDEST JUMPDEST POP SWAP2 SWAP1 POP JUMP JUMPDEST PUSH2 0x72B DUP3 PUSH2 0x86C JUMP JUMPDEST DUP2 ADD DUP2 DUP2 LT PUSH8 0xFFFFFFFFFFFFFFFF DUP3 GT OR ISZERO PUSH2 0x74A JUMPI PUSH2 0x749 PUSH2 0x829 JUMP JUMPDEST JUMPDEST DUP1 PUSH1 0x40 MSTORE POP POP POP JUMP JUMPDEST PUSH1 0x0 PUSH2 0x75E DUP3 PUSH2 0x692 JUMP JUMPDEST SWAP2 POP PUSH32 0xFFFFFFFFFFFFFFFFFFFFFFFFFFFFFFFFFFFFFFFFFFFFFFFFFFFFFFFFFFFFFFFF DUP3 EQ ISZERO PUSH2 0x791 JUMPI PUSH2 0x790 PUSH2 0x79C JUMP JUMPDEST JUMPDEST PUSH1 0x1 DUP3 ADD SWAP1 POP SWAP2 SWAP1 POP JUMP JUMPDEST PUSH32 0x4E487B7100000000000000000000000000000000000000000000000000000000 PUSH1 0x0 MSTORE PUSH1 0x11 PUSH1 0x4 MSTORE PUSH1 0x24 PUSH1 0x0 REVERT JUMPDEST PUSH32 0x4E487B7100000000000000000000000000000000000000000000000000000000 PUSH1 0x0 MSTORE PUSH1 0x21 PUSH1 0x4 MSTORE PUSH1 0x24 PUSH1 0x0 REVERT JUMPDEST PUSH32 0x4E487B7100000000000000000000000000000000000000000000000000000000 PUSH1 0x0 MSTORE PUSH1 0x22 PUSH1 0x4 MSTORE PUSH1 0x24 PUSH1 0x0 REVERT JUMPDEST PUSH32 0x4E487B7100000000000000000000000000000000000000000000000000000000 PUSH1 0x0 MSTORE PUSH1 0x41 PUSH1 0x4 MSTORE PUSH1 0x24 PUSH1 0x0 REVERT JUMPDEST PUSH1 0x0 DUP1 REVERT JUMPDEST PUSH1 0x0 DUP1 REVERT JUMPDEST PUSH1 0x0 DUP1 REVERT JUMPDEST PUSH1 0x0 DUP1 REVERT JUMPDEST PUSH1 0x0 PUSH1 0x1F NOT PUSH1 0x1F DUP4 ADD AND SWAP1 POP SWAP2 SWAP1 POP JUMP JUMPDEST PUSH32 0x546865206974656D20697320616C7265616479206675727468657220696E2074 PUSH1 0x0 DUP3 ADD MSTORE PUSH32 0x686520737570706C7920636861696E0000000000000000000000000000000000 PUSH1 0x20 DUP3 ADD MSTORE POP JUMP JUMPDEST POP JUMP JUMPDEST PUSH1 0x3 DUP2 LT PUSH2 0x8E0 JUMPI PUSH2 0x8DF PUSH2 0x7CB JUMP JUMPDEST JUMPDEST POP JUMP JUMPDEST PUSH2 0x8EC DUP2 PUSH2 0x692 JUMP JUMPDEST DUP2 EQ PUSH2 0x8F7 JUMPI PUSH1 0x0 DUP1 REVERT JUMPDEST POP JUMP INVALID LOG2 PUSH5 0x6970667358 0x22 SLT KECCAK256 SUB PUSH17 0x75FE31F34EF96DB40FDBECDDC5CCCCFDA9 SMOD 0x21 0xBE MLOAD LOG4 SWAP13 0x4A XOR CODESIZE INVALID 0xBB KECCAK256 DUP16 PUSH5 0x736F6C6343 STOP ADDMOD SMOD STOP CALLER "
				},
				"gasEstimates": {
					"creation": {
						"codeDepositCost": "470400",
						"executionCost": "505",
						"totalCost": "470905"
					},
					"external": {
						"createItem(string,uint256)": "infinite",
						"items(uint256)": "infinite",
						"triggerPayment(uint256)": "29232"
					}
				},
				"methodIdentifiers": {
					"createItem(string,uint256)": "8c551742",
					"items(uint256)": "bfb231d2",
					"triggerPayment(uint256)": "800fb83f"
				}
			},
			"storageLayout": {
				"storage": [
					{
						"astId": 18,
						"contract": "ItemManager.sol:ItemManager",
						"label": "items",
						"offset": 0,
						"slot": "0",
						"type": "t_mapping(t_uint256,t_struct(S_Item)13_storage)"
					},
					{
						"astId": 20,
						"contract": "ItemManager.sol:ItemManager",
						"label": "itemIndex",
						"offset": 0,
						"slot": "1",
						"type": "t_uint256"
					}
				],
				"types": {
					"t_enum(SupplyChainState)5": {
						"encoding": "inplace",
						"label": "enum ItemManager.SupplyChainState",
						"numberOfBytes": "1"
					},
					"t_mapping(t_uint256,t_struct(S_Item)13_storage)": {
						"encoding": "mapping",
						"key": "t_uint256",
						"label": "mapping(uint256 => struct ItemManager.S_Item)",
						"numberOfBytes": "32",
						"value": "t_struct(S_Item)13_storage"
					},
					"t_string_storage": {
						"encoding": "bytes",
						"label": "string",
						"numberOfBytes": "32"
					},
					"t_struct(S_Item)13_storage": {
						"encoding": "inplace",
						"label": "struct ItemManager.S_Item",
						"members": [
							{
								"astId": 7,
								"contract": "ItemManager.sol:ItemManager",
								"label": "_identifier",
								"offset": 0,
								"slot": "0",
								"type": "t_string_storage"
							},
							{
								"astId": 9,
								"contract": "ItemManager.sol:ItemManager",
								"label": "_itemPrice",
								"offset": 0,
								"slot": "1",
								"type": "t_uint256"
							},
							{
								"astId": 12,
								"contract": "ItemManager.sol:ItemManager",
								"label": "_state",
								"offset": 0,
								"slot": "2",
								"type": "t_enum(SupplyChainState)5"
							}
						],
						"numberOfBytes": "96"
					},
					"t_uint256": {
						"encoding": "inplace",
						"label": "uint256",
						"numberOfBytes": "32"
					}
				}
			},
			"userdoc": {
				"kind": "user",
				"methods": {},
				"version": 1
			}
		}
	}
}