{
	"StartingStopping.sol": {
		"StartStopUpdateExample": {
			"abi": [
				{
					"inputs": [],
					"stateMutability": "nonpayable",
					"type": "constructor"
				},
				{
					"inputs": [],
					"name": "myContractBalance",
					"outputs": [
						{
							"internalType": "uint256",
							"name": "",
							"type": "uint256"
						}
					],
					"stateMutability": "view",
					"type": "function"
				},
				{
					"inputs": [],
					"name": "owner",
					"outputs": [
						{
							"internalType": "address",
							"name": "",
							"type": "address"
						}
					],
					"stateMutability": "view",
					"type": "function"
				},
				{
					"inputs": [],
					"name": "paused",
					"outputs": [
						{
							"internalType": "bool",
							"name": "",
							"type": "bool"
						}
					],
					"stateMutability": "view",
					"type": "function"
				},
				{
					"inputs": [],
					"name": "sendMoney",
					"outputs": [],
					"stateMutability": "payable",
					"type": "function"
				},
				{
					"inputs": [
						{
							"internalType": "bool",
							"name": "_paused",
							"type": "bool"
						}
					],
					"name": "setPaused",
					"outputs": [],
					"stateMutability": "nonpayable",
					"type": "function"
				},
				{
					"inputs": [
						{
							"internalType": "address payable",
							"name": "_to",
							"type": "address"
						}
					],
					"name": "withdrawAllMoney",
					"outputs": [],
					"stateMutability": "nonpayable",
					"type": "function"
				}
			],
			"devdoc": {
				"kind": "dev",
				"methods": {},
				"version": 1
			},
			"evm": {
				"assembly": "    /* \"StartingStopping.sol\":64:654  contract StartStopUpdateExample {... */\n  mstore(0x40, 0x80)\n    /* \"StartingStopping.sol\":189:238  constructor() {... */\n  callvalue\n  dup1\n  iszero\n  tag_1\n  jumpi\n  0x00\n  dup1\n  revert\ntag_1:\n  pop\n    /* \"StartingStopping.sol\":221:231  msg.sender */\n  caller\n    /* \"StartingStopping.sol\":213:218  owner */\n  0x00\n  dup1\n    /* \"StartingStopping.sol\":213:231  owner = msg.sender */\n  0x0100\n  exp\n  dup2\n  sload\n  dup2\n  0xffffffffffffffffffffffffffffffffffffffff\n  mul\n  not\n  and\n  swap1\n  dup4\n  0xffffffffffffffffffffffffffffffffffffffff\n  and\n  mul\n  or\n  swap1\n  sstore\n  pop\n    /* \"StartingStopping.sol\":64:654  contract StartStopUpdateExample {... */\n  dataSize(sub_0)\n  dup1\n  dataOffset(sub_0)\n  0x00\n  codecopy\n  0x00\n  return\nstop\n\nsub_0: assembly {\n        /* \"StartingStopping.sol\":64:654  contract StartStopUpdateExample {... */\n      mstore(0x40, 0x80)\n      jumpi(tag_1, lt(calldatasize, 0x04))\n      shr(0xe0, calldataload(0x00))\n      dup1\n      0x0adec93c\n      eq\n      tag_2\n      jumpi\n      dup1\n      0x16c38b3c\n      eq\n      tag_3\n      jumpi\n      dup1\n      0x2b6dcd77\n      eq\n      tag_4\n      jumpi\n      dup1\n      0x5c975abb\n      eq\n      tag_5\n      jumpi\n      dup1\n      0x8da5cb5b\n      eq\n      tag_6\n      jumpi\n      dup1\n      0xcbedbf5a\n      eq\n      tag_7\n      jumpi\n    tag_1:\n      0x00\n      dup1\n      revert\n        /* \"StartingStopping.sol\":475:652  function withdrawAllMoney(address payable _to) public {... */\n    tag_2:\n      callvalue\n      dup1\n      iszero\n      tag_8\n      jumpi\n      0x00\n      dup1\n      revert\n    tag_8:\n      pop\n      tag_9\n      0x04\n      dup1\n      calldatasize\n      sub\n      dup2\n      add\n      swap1\n      tag_10\n      swap2\n      swap1\n      tag_11\n      jump\t// in\n    tag_10:\n      tag_12\n      jump\t// in\n    tag_9:\n      stop\n        /* \"StartingStopping.sol\":333:469  function setPaused(bool _paused) public {... */\n    tag_3:\n      callvalue\n      dup1\n      iszero\n      tag_13\n      jumpi\n      0x00\n      dup1\n      revert\n    tag_13:\n      pop\n      tag_14\n      0x04\n      dup1\n      calldatasize\n      sub\n      dup2\n      add\n      swap1\n      tag_15\n      swap2\n      swap1\n      tag_16\n      jump\t// in\n    tag_15:\n      tag_17\n      jump\t// in\n    tag_14:\n      stop\n        /* \"StartingStopping.sol\":129:158  uint public myContractBalance */\n    tag_4:\n      callvalue\n      dup1\n      iszero\n      tag_18\n      jumpi\n      0x00\n      dup1\n      revert\n    tag_18:\n      pop\n      tag_19\n      tag_20\n      jump\t// in\n    tag_19:\n      mload(0x40)\n      tag_21\n      swap2\n      swap1\n      tag_22\n      jump\t// in\n    tag_21:\n      mload(0x40)\n      dup1\n      swap2\n      sub\n      swap1\n      return\n        /* \"StartingStopping.sol\":164:182  bool public paused */\n    tag_5:\n      callvalue\n      dup1\n      iszero\n      tag_23\n      jumpi\n      0x00\n      dup1\n      revert\n    tag_23:\n      pop\n      tag_24\n      tag_25\n      jump\t// in\n    tag_24:\n      mload(0x40)\n      tag_26\n      swap2\n      swap1\n      tag_27\n      jump\t// in\n    tag_26:\n      mload(0x40)\n      dup1\n      swap2\n      sub\n      swap1\n      return\n        /* \"StartingStopping.sol\":103:123  address public owner */\n    tag_6:\n      callvalue\n      dup1\n      iszero\n      tag_28\n      jumpi\n      0x00\n      dup1\n      revert\n    tag_28:\n      pop\n      tag_29\n      tag_30\n      jump\t// in\n    tag_29:\n      mload(0x40)\n      tag_31\n      swap2\n      swap1\n      tag_32\n      jump\t// in\n    tag_31:\n      mload(0x40)\n      dup1\n      swap2\n      sub\n      swap1\n      return\n        /* \"StartingStopping.sol\":244:327  function sendMoney() public payable {... */\n    tag_7:\n      tag_33\n      tag_34\n      jump\t// in\n    tag_33:\n      stop\n        /* \"StartingStopping.sol\":475:652  function withdrawAllMoney(address payable _to) public {... */\n    tag_12:\n        /* \"StartingStopping.sol\":556:566  msg.sender */\n      caller\n        /* \"StartingStopping.sol\":547:566  owner == msg.sender */\n      0xffffffffffffffffffffffffffffffffffffffff\n      and\n        /* \"StartingStopping.sol\":547:552  owner */\n      0x00\n      dup1\n      sload\n      swap1\n      0x0100\n      exp\n      swap1\n      div\n      0xffffffffffffffffffffffffffffffffffffffff\n      and\n        /* \"StartingStopping.sol\":547:566  owner == msg.sender */\n      0xffffffffffffffffffffffffffffffffffffffff\n      and\n      eq\n        /* \"StartingStopping.sol\":539:591  require(owner == msg.sender, \"You cannot withdraw.\") */\n      tag_36\n      jumpi\n      mload(0x40)\n      0x08c379a000000000000000000000000000000000000000000000000000000000\n      dup2\n      mstore\n      0x04\n      add\n      tag_37\n      swap1\n      tag_38\n      jump\t// in\n    tag_37:\n      mload(0x40)\n      dup1\n      swap2\n      sub\n      swap1\n      revert\n    tag_36:\n        /* \"StartingStopping.sol\":610:613  _to */\n      dup1\n        /* \"StartingStopping.sol\":610:622  _to.transfer */\n      0xffffffffffffffffffffffffffffffffffffffff\n      and\n        /* \"StartingStopping.sol\":610:645  _to.transfer(address(this).balance) */\n      0x08fc\n        /* \"StartingStopping.sol\":623:644  address(this).balance */\n      selfbalance\n        /* \"StartingStopping.sol\":610:645  _to.transfer(address(this).balance) */\n      swap1\n      dup2\n      iszero\n      mul\n      swap1\n      mload(0x40)\n      0x00\n      mload(0x40)\n      dup1\n      dup4\n      sub\n      dup2\n      dup6\n      dup9\n      dup9\n      call\n      swap4\n      pop\n      pop\n      pop\n      pop\n      iszero\n      dup1\n      iszero\n      tag_40\n      jumpi\n      returndatasize\n      0x00\n      dup1\n      returndatacopy\n      revert(0x00, returndatasize)\n    tag_40:\n      pop\n        /* \"StartingStopping.sol\":475:652  function withdrawAllMoney(address payable _to) public {... */\n      pop\n      jump\t// out\n        /* \"StartingStopping.sol\":333:469  function setPaused(bool _paused) public {... */\n    tag_17:\n        /* \"StartingStopping.sol\":405:410  owner */\n      0x00\n      dup1\n      sload\n      swap1\n      0x0100\n      exp\n      swap1\n      div\n      0xffffffffffffffffffffffffffffffffffffffff\n      and\n        /* \"StartingStopping.sol\":391:410  msg.sender == owner */\n      0xffffffffffffffffffffffffffffffffffffffff\n      and\n        /* \"StartingStopping.sol\":391:401  msg.sender */\n      caller\n        /* \"StartingStopping.sol\":391:410  msg.sender == owner */\n      0xffffffffffffffffffffffffffffffffffffffff\n      and\n      eq\n        /* \"StartingStopping.sol\":383:436  require(msg.sender == owner, \"You are not the owner\") */\n      tag_42\n      jumpi\n      mload(0x40)\n      0x08c379a000000000000000000000000000000000000000000000000000000000\n      dup2\n      mstore\n      0x04\n      add\n      tag_43\n      swap1\n      tag_44\n      jump\t// in\n    tag_43:\n      mload(0x40)\n      dup1\n      swap2\n      sub\n      swap1\n      revert\n    tag_42:\n        /* \"StartingStopping.sol\":455:462  _paused */\n      dup1\n        /* \"StartingStopping.sol\":446:452  paused */\n      0x02\n      0x00\n        /* \"StartingStopping.sol\":446:462  paused = _paused */\n      0x0100\n      exp\n      dup2\n      sload\n      dup2\n      0xff\n      mul\n      not\n      and\n      swap1\n      dup4\n      iszero\n      iszero\n      mul\n      or\n      swap1\n      sstore\n      pop\n        /* \"StartingStopping.sol\":333:469  function setPaused(bool _paused) public {... */\n      pop\n      jump\t// out\n        /* \"StartingStopping.sol\":129:158  uint public myContractBalance */\n    tag_20:\n      sload(0x01)\n      dup2\n      jump\t// out\n        /* \"StartingStopping.sol\":164:182  bool public paused */\n    tag_25:\n      0x02\n      0x00\n      swap1\n      sload\n      swap1\n      0x0100\n      exp\n      swap1\n      div\n      0xff\n      and\n      dup2\n      jump\t// out\n        /* \"StartingStopping.sol\":103:123  address public owner */\n    tag_30:\n      0x00\n      dup1\n      sload\n      swap1\n      0x0100\n      exp\n      swap1\n      div\n      0xffffffffffffffffffffffffffffffffffffffff\n      and\n      dup2\n      jump\t// out\n        /* \"StartingStopping.sol\":244:327  function sendMoney() public payable {... */\n    tag_34:\n        /* \"StartingStopping.sol\":311:320  msg.value */\n      callvalue\n        /* \"StartingStopping.sol\":290:307  myContractBalance */\n      0x01\n      0x00\n        /* \"StartingStopping.sol\":290:320  myContractBalance += msg.value */\n      dup3\n      dup3\n      sload\n      tag_46\n      swap2\n      swap1\n      tag_47\n      jump\t// in\n    tag_46:\n      swap3\n      pop\n      pop\n      dup2\n      swap1\n      sstore\n      pop\n        /* \"StartingStopping.sol\":244:327  function sendMoney() public payable {... */\n      jump\t// out\n        /* \"#utility.yul\":7:162   */\n    tag_49:\n        /* \"#utility.yul\":61:66   */\n      0x00\n        /* \"#utility.yul\":99:105   */\n      dup2\n        /* \"#utility.yul\":86:106   */\n      calldataload\n        /* \"#utility.yul\":77:106   */\n      swap1\n      pop\n        /* \"#utility.yul\":115:156   */\n      tag_51\n        /* \"#utility.yul\":150:155   */\n      dup2\n        /* \"#utility.yul\":115:156   */\n      tag_52\n      jump\t// in\n    tag_51:\n        /* \"#utility.yul\":7:162   */\n      swap3\n      swap2\n      pop\n      pop\n      jump\t// out\n        /* \"#utility.yul\":168:301   */\n    tag_53:\n        /* \"#utility.yul\":211:216   */\n      0x00\n        /* \"#utility.yul\":249:255   */\n      dup2\n        /* \"#utility.yul\":236:256   */\n      calldataload\n        /* \"#utility.yul\":227:256   */\n      swap1\n      pop\n        /* \"#utility.yul\":265:295   */\n      tag_55\n        /* \"#utility.yul\":289:294   */\n      dup2\n        /* \"#utility.yul\":265:295   */\n      tag_56\n      jump\t// in\n    tag_55:\n        /* \"#utility.yul\":168:301   */\n      swap3\n      swap2\n      pop\n      pop\n      jump\t// out\n        /* \"#utility.yul\":307:652   */\n    tag_11:\n        /* \"#utility.yul\":374:380   */\n      0x00\n        /* \"#utility.yul\":423:425   */\n      0x20\n        /* \"#utility.yul\":411:420   */\n      dup3\n        /* \"#utility.yul\":402:409   */\n      dup5\n        /* \"#utility.yul\":398:421   */\n      sub\n        /* \"#utility.yul\":394:426   */\n      slt\n        /* \"#utility.yul\":391:510   */\n      iszero\n      tag_58\n      jumpi\n        /* \"#utility.yul\":429:508   */\n      tag_59\n      tag_60\n      jump\t// in\n    tag_59:\n        /* \"#utility.yul\":391:510   */\n    tag_58:\n        /* \"#utility.yul\":549:550   */\n      0x00\n        /* \"#utility.yul\":574:635   */\n      tag_61\n        /* \"#utility.yul\":627:634   */\n      dup5\n        /* \"#utility.yul\":618:624   */\n      dup3\n        /* \"#utility.yul\":607:616   */\n      dup6\n        /* \"#utility.yul\":603:625   */\n      add\n        /* \"#utility.yul\":574:635   */\n      tag_49\n      jump\t// in\n    tag_61:\n        /* \"#utility.yul\":564:635   */\n      swap2\n      pop\n        /* \"#utility.yul\":520:645   */\n      pop\n        /* \"#utility.yul\":307:652   */\n      swap3\n      swap2\n      pop\n      pop\n      jump\t// out\n        /* \"#utility.yul\":658:981   */\n    tag_16:\n        /* \"#utility.yul\":714:720   */\n      0x00\n        /* \"#utility.yul\":763:765   */\n      0x20\n        /* \"#utility.yul\":751:760   */\n      dup3\n        /* \"#utility.yul\":742:749   */\n      dup5\n        /* \"#utility.yul\":738:761   */\n      sub\n        /* \"#utility.yul\":734:766   */\n      slt\n        /* \"#utility.yul\":731:850   */\n      iszero\n      tag_63\n      jumpi\n        /* \"#utility.yul\":769:848   */\n      tag_64\n      tag_60\n      jump\t// in\n    tag_64:\n        /* \"#utility.yul\":731:850   */\n    tag_63:\n        /* \"#utility.yul\":889:890   */\n      0x00\n        /* \"#utility.yul\":914:964   */\n      tag_65\n        /* \"#utility.yul\":956:963   */\n      dup5\n        /* \"#utility.yul\":947:953   */\n      dup3\n        /* \"#utility.yul\":936:945   */\n      dup6\n        /* \"#utility.yul\":932:954   */\n      add\n        /* \"#utility.yul\":914:964   */\n      tag_53\n      jump\t// in\n    tag_65:\n        /* \"#utility.yul\":904:964   */\n      swap2\n      pop\n        /* \"#utility.yul\":860:974   */\n      pop\n        /* \"#utility.yul\":658:981   */\n      swap3\n      swap2\n      pop\n      pop\n      jump\t// out\n        /* \"#utility.yul\":987:1105   */\n    tag_66:\n        /* \"#utility.yul\":1074:1098   */\n      tag_68\n        /* \"#utility.yul\":1092:1097   */\n      dup2\n        /* \"#utility.yul\":1074:1098   */\n      tag_69\n      jump\t// in\n    tag_68:\n        /* \"#utility.yul\":1069:1072   */\n      dup3\n        /* \"#utility.yul\":1062:1099   */\n      mstore\n        /* \"#utility.yul\":987:1105   */\n      pop\n      pop\n      jump\t// out\n        /* \"#utility.yul\":1111:1220   */\n    tag_70:\n        /* \"#utility.yul\":1192:1213   */\n      tag_72\n        /* \"#utility.yul\":1207:1212   */\n      dup2\n        /* \"#utility.yul\":1192:1213   */\n      tag_73\n      jump\t// in\n    tag_72:\n        /* \"#utility.yul\":1187:1190   */\n      dup3\n        /* \"#utility.yul\":1180:1214   */\n      mstore\n        /* \"#utility.yul\":1111:1220   */\n      pop\n      pop\n      jump\t// out\n        /* \"#utility.yul\":1226:1592   */\n    tag_74:\n        /* \"#utility.yul\":1368:1371   */\n      0x00\n        /* \"#utility.yul\":1389:1456   */\n      tag_76\n        /* \"#utility.yul\":1453:1455   */\n      0x15\n        /* \"#utility.yul\":1448:1451   */\n      dup4\n        /* \"#utility.yul\":1389:1456   */\n      tag_77\n      jump\t// in\n    tag_76:\n        /* \"#utility.yul\":1382:1456   */\n      swap2\n      pop\n        /* \"#utility.yul\":1465:1558   */\n      tag_78\n        /* \"#utility.yul\":1554:1557   */\n      dup3\n        /* \"#utility.yul\":1465:1558   */\n      tag_79\n      jump\t// in\n    tag_78:\n        /* \"#utility.yul\":1583:1585   */\n      0x20\n        /* \"#utility.yul\":1578:1581   */\n      dup3\n        /* \"#utility.yul\":1574:1586   */\n      add\n        /* \"#utility.yul\":1567:1586   */\n      swap1\n      pop\n        /* \"#utility.yul\":1226:1592   */\n      swap2\n      swap1\n      pop\n      jump\t// out\n        /* \"#utility.yul\":1598:1964   */\n    tag_80:\n        /* \"#utility.yul\":1740:1743   */\n      0x00\n        /* \"#utility.yul\":1761:1828   */\n      tag_82\n        /* \"#utility.yul\":1825:1827   */\n      0x14\n        /* \"#utility.yul\":1820:1823   */\n      dup4\n        /* \"#utility.yul\":1761:1828   */\n      tag_77\n      jump\t// in\n    tag_82:\n        /* \"#utility.yul\":1754:1828   */\n      swap2\n      pop\n        /* \"#utility.yul\":1837:1930   */\n      tag_83\n        /* \"#utility.yul\":1926:1929   */\n      dup3\n        /* \"#utility.yul\":1837:1930   */\n      tag_84\n      jump\t// in\n    tag_83:\n        /* \"#utility.yul\":1955:1957   */\n      0x20\n        /* \"#utility.yul\":1950:1953   */\n      dup3\n        /* \"#utility.yul\":1946:1958   */\n      add\n        /* \"#utility.yul\":1939:1958   */\n      swap1\n      pop\n        /* \"#utility.yul\":1598:1964   */\n      swap2\n      swap1\n      pop\n      jump\t// out\n        /* \"#utility.yul\":1970:2088   */\n    tag_85:\n        /* \"#utility.yul\":2057:2081   */\n      tag_87\n        /* \"#utility.yul\":2075:2080   */\n      dup2\n        /* \"#utility.yul\":2057:2081   */\n      tag_88\n      jump\t// in\n    tag_87:\n        /* \"#utility.yul\":2052:2055   */\n      dup3\n        /* \"#utility.yul\":2045:2082   */\n      mstore\n        /* \"#utility.yul\":1970:2088   */\n      pop\n      pop\n      jump\t// out\n        /* \"#utility.yul\":2094:2316   */\n    tag_32:\n        /* \"#utility.yul\":2187:2191   */\n      0x00\n        /* \"#utility.yul\":2225:2227   */\n      0x20\n        /* \"#utility.yul\":2214:2223   */\n      dup3\n        /* \"#utility.yul\":2210:2228   */\n      add\n        /* \"#utility.yul\":2202:2228   */\n      swap1\n      pop\n        /* \"#utility.yul\":2238:2309   */\n      tag_90\n        /* \"#utility.yul\":2306:2307   */\n      0x00\n        /* \"#utility.yul\":2295:2304   */\n      dup4\n        /* \"#utility.yul\":2291:2308   */\n      add\n        /* \"#utility.yul\":2282:2288   */\n      dup5\n        /* \"#utility.yul\":2238:2309   */\n      tag_66\n      jump\t// in\n    tag_90:\n        /* \"#utility.yul\":2094:2316   */\n      swap3\n      swap2\n      pop\n      pop\n      jump\t// out\n        /* \"#utility.yul\":2322:2532   */\n    tag_27:\n        /* \"#utility.yul\":2409:2413   */\n      0x00\n        /* \"#utility.yul\":2447:2449   */\n      0x20\n        /* \"#utility.yul\":2436:2445   */\n      dup3\n        /* \"#utility.yul\":2432:2450   */\n      add\n        /* \"#utility.yul\":2424:2450   */\n      swap1\n      pop\n        /* \"#utility.yul\":2460:2525   */\n      tag_92\n        /* \"#utility.yul\":2522:2523   */\n      0x00\n        /* \"#utility.yul\":2511:2520   */\n      dup4\n        /* \"#utility.yul\":2507:2524   */\n      add\n        /* \"#utility.yul\":2498:2504   */\n      dup5\n        /* \"#utility.yul\":2460:2525   */\n      tag_70\n      jump\t// in\n    tag_92:\n        /* \"#utility.yul\":2322:2532   */\n      swap3\n      swap2\n      pop\n      pop\n      jump\t// out\n        /* \"#utility.yul\":2538:2957   */\n    tag_44:\n        /* \"#utility.yul\":2704:2708   */\n      0x00\n        /* \"#utility.yul\":2742:2744   */\n      0x20\n        /* \"#utility.yul\":2731:2740   */\n      dup3\n        /* \"#utility.yul\":2727:2745   */\n      add\n        /* \"#utility.yul\":2719:2745   */\n      swap1\n      pop\n        /* \"#utility.yul\":2791:2800   */\n      dup2\n        /* \"#utility.yul\":2785:2789   */\n      dup2\n        /* \"#utility.yul\":2781:2801   */\n      sub\n        /* \"#utility.yul\":2777:2778   */\n      0x00\n        /* \"#utility.yul\":2766:2775   */\n      dup4\n        /* \"#utility.yul\":2762:2779   */\n      add\n        /* \"#utility.yul\":2755:2802   */\n      mstore\n        /* \"#utility.yul\":2819:2950   */\n      tag_94\n        /* \"#utility.yul\":2945:2949   */\n      dup2\n        /* \"#utility.yul\":2819:2950   */\n      tag_74\n      jump\t// in\n    tag_94:\n        /* \"#utility.yul\":2811:2950   */\n      swap1\n      pop\n        /* \"#utility.yul\":2538:2957   */\n      swap2\n      swap1\n      pop\n      jump\t// out\n        /* \"#utility.yul\":2963:3382   */\n    tag_38:\n        /* \"#utility.yul\":3129:3133   */\n      0x00\n        /* \"#utility.yul\":3167:3169   */\n      0x20\n        /* \"#utility.yul\":3156:3165   */\n      dup3\n        /* \"#utility.yul\":3152:3170   */\n      add\n        /* \"#utility.yul\":3144:3170   */\n      swap1\n      pop\n        /* \"#utility.yul\":3216:3225   */\n      dup2\n        /* \"#utility.yul\":3210:3214   */\n      dup2\n        /* \"#utility.yul\":3206:3226   */\n      sub\n        /* \"#utility.yul\":3202:3203   */\n      0x00\n        /* \"#utility.yul\":3191:3200   */\n      dup4\n        /* \"#utility.yul\":3187:3204   */\n      add\n        /* \"#utility.yul\":3180:3227   */\n      mstore\n        /* \"#utility.yul\":3244:3375   */\n      tag_96\n        /* \"#utility.yul\":3370:3374   */\n      dup2\n        /* \"#utility.yul\":3244:3375   */\n      tag_80\n      jump\t// in\n    tag_96:\n        /* \"#utility.yul\":3236:3375   */\n      swap1\n      pop\n        /* \"#utility.yul\":2963:3382   */\n      swap2\n      swap1\n      pop\n      jump\t// out\n        /* \"#utility.yul\":3388:3610   */\n    tag_22:\n        /* \"#utility.yul\":3481:3485   */\n      0x00\n        /* \"#utility.yul\":3519:3521   */\n      0x20\n        /* \"#utility.yul\":3508:3517   */\n      dup3\n        /* \"#utility.yul\":3504:3522   */\n      add\n        /* \"#utility.yul\":3496:3522   */\n      swap1\n      pop\n        /* \"#utility.yul\":3532:3603   */\n      tag_98\n        /* \"#utility.yul\":3600:3601   */\n      0x00\n        /* \"#utility.yul\":3589:3598   */\n      dup4\n        /* \"#utility.yul\":3585:3602   */\n      add\n        /* \"#utility.yul\":3576:3582   */\n      dup5\n        /* \"#utility.yul\":3532:3603   */\n      tag_85\n      jump\t// in\n    tag_98:\n        /* \"#utility.yul\":3388:3610   */\n      swap3\n      swap2\n      pop\n      pop\n      jump\t// out\n        /* \"#utility.yul\":3697:3866   */\n    tag_77:\n        /* \"#utility.yul\":3781:3792   */\n      0x00\n        /* \"#utility.yul\":3815:3821   */\n      dup3\n        /* \"#utility.yul\":3810:3813   */\n      dup3\n        /* \"#utility.yul\":3803:3822   */\n      mstore\n        /* \"#utility.yul\":3855:3859   */\n      0x20\n        /* \"#utility.yul\":3850:3853   */\n      dup3\n        /* \"#utility.yul\":3846:3860   */\n      add\n        /* \"#utility.yul\":3831:3860   */\n      swap1\n      pop\n        /* \"#utility.yul\":3697:3866   */\n      swap3\n      swap2\n      pop\n      pop\n      jump\t// out\n        /* \"#utility.yul\":3872:4177   */\n    tag_47:\n        /* \"#utility.yul\":3912:3915   */\n      0x00\n        /* \"#utility.yul\":3931:3951   */\n      tag_103\n        /* \"#utility.yul\":3949:3950   */\n      dup3\n        /* \"#utility.yul\":3931:3951   */\n      tag_88\n      jump\t// in\n    tag_103:\n        /* \"#utility.yul\":3926:3951   */\n      swap2\n      pop\n        /* \"#utility.yul\":3965:3985   */\n      tag_104\n        /* \"#utility.yul\":3983:3984   */\n      dup4\n        /* \"#utility.yul\":3965:3985   */\n      tag_88\n      jump\t// in\n    tag_104:\n        /* \"#utility.yul\":3960:3985   */\n      swap3\n      pop\n        /* \"#utility.yul\":4119:4120   */\n      dup3\n        /* \"#utility.yul\":4051:4117   */\n      0xffffffffffffffffffffffffffffffffffffffffffffffffffffffffffffffff\n        /* \"#utility.yul\":4047:4121   */\n      sub\n        /* \"#utility.yul\":4044:4045   */\n      dup3\n        /* \"#utility.yul\":4041:4122   */\n      gt\n        /* \"#utility.yul\":4038:4145   */\n      iszero\n      tag_105\n      jumpi\n        /* \"#utility.yul\":4125:4143   */\n      tag_106\n      tag_107\n      jump\t// in\n    tag_106:\n        /* \"#utility.yul\":4038:4145   */\n    tag_105:\n        /* \"#utility.yul\":4169:4170   */\n      dup3\n        /* \"#utility.yul\":4166:4167   */\n      dup3\n        /* \"#utility.yul\":4162:4171   */\n      add\n        /* \"#utility.yul\":4155:4171   */\n      swap1\n      pop\n        /* \"#utility.yul\":3872:4177   */\n      swap3\n      swap2\n      pop\n      pop\n      jump\t// out\n        /* \"#utility.yul\":4183:4279   */\n    tag_69:\n        /* \"#utility.yul\":4220:4227   */\n      0x00\n        /* \"#utility.yul\":4249:4273   */\n      tag_109\n        /* \"#utility.yul\":4267:4272   */\n      dup3\n        /* \"#utility.yul\":4249:4273   */\n      tag_110\n      jump\t// in\n    tag_109:\n        /* \"#utility.yul\":4238:4273   */\n      swap1\n      pop\n        /* \"#utility.yul\":4183:4279   */\n      swap2\n      swap1\n      pop\n      jump\t// out\n        /* \"#utility.yul\":4285:4389   */\n    tag_111:\n        /* \"#utility.yul\":4330:4337   */\n      0x00\n        /* \"#utility.yul\":4359:4383   */\n      tag_113\n        /* \"#utility.yul\":4377:4382   */\n      dup3\n        /* \"#utility.yul\":4359:4383   */\n      tag_110\n      jump\t// in\n    tag_113:\n        /* \"#utility.yul\":4348:4383   */\n      swap1\n      pop\n        /* \"#utility.yul\":4285:4389   */\n      swap2\n      swap1\n      pop\n      jump\t// out\n        /* \"#utility.yul\":4395:4485   */\n    tag_73:\n        /* \"#utility.yul\":4429:4436   */\n      0x00\n        /* \"#utility.yul\":4472:4477   */\n      dup2\n        /* \"#utility.yul\":4465:4478   */\n      iszero\n        /* \"#utility.yul\":4458:4479   */\n      iszero\n        /* \"#utility.yul\":4447:4479   */\n      swap1\n      pop\n        /* \"#utility.yul\":4395:4485   */\n      swap2\n      swap1\n      pop\n      jump\t// out\n        /* \"#utility.yul\":4491:4617   */\n    tag_110:\n        /* \"#utility.yul\":4528:4535   */\n      0x00\n        /* \"#utility.yul\":4568:4610   */\n      0xffffffffffffffffffffffffffffffffffffffff\n        /* \"#utility.yul\":4561:4566   */\n      dup3\n        /* \"#utility.yul\":4557:4611   */\n      and\n        /* \"#utility.yul\":4546:4611   */\n      swap1\n      pop\n        /* \"#utility.yul\":4491:4617   */\n      swap2\n      swap1\n      pop\n      jump\t// out\n        /* \"#utility.yul\":4623:4700   */\n    tag_88:\n        /* \"#utility.yul\":4660:4667   */\n      0x00\n        /* \"#utility.yul\":4689:4694   */\n      dup2\n        /* \"#utility.yul\":4678:4694   */\n      swap1\n      pop\n        /* \"#utility.yul\":4623:4700   */\n      swap2\n      swap1\n      pop\n      jump\t// out\n        /* \"#utility.yul\":4706:4886   */\n    tag_107:\n        /* \"#utility.yul\":4754:4831   */\n      0x4e487b7100000000000000000000000000000000000000000000000000000000\n        /* \"#utility.yul\":4751:4752   */\n      0x00\n        /* \"#utility.yul\":4744:4832   */\n      mstore\n        /* \"#utility.yul\":4851:4855   */\n      0x11\n        /* \"#utility.yul\":4848:4849   */\n      0x04\n        /* \"#utility.yul\":4841:4856   */\n      mstore\n        /* \"#utility.yul\":4875:4879   */\n      0x24\n        /* \"#utility.yul\":4872:4873   */\n      0x00\n        /* \"#utility.yul\":4865:4880   */\n      revert\n        /* \"#utility.yul\":5015:5132   */\n    tag_60:\n        /* \"#utility.yul\":5124:5125   */\n      0x00\n        /* \"#utility.yul\":5121:5122   */\n      dup1\n        /* \"#utility.yul\":5114:5126   */\n      revert\n        /* \"#utility.yul\":5138:5309   */\n    tag_79:\n        /* \"#utility.yul\":5278:5301   */\n      0x596f7520617265206e6f7420746865206f776e65720000000000000000000000\n        /* \"#utility.yul\":5274:5275   */\n      0x00\n        /* \"#utility.yul\":5266:5272   */\n      dup3\n        /* \"#utility.yul\":5262:5276   */\n      add\n        /* \"#utility.yul\":5255:5302   */\n      mstore\n        /* \"#utility.yul\":5138:5309   */\n      pop\n      jump\t// out\n        /* \"#utility.yul\":5315:5485   */\n    tag_84:\n        /* \"#utility.yul\":5455:5477   */\n      0x596f752063616e6e6f742077697468647261772e000000000000000000000000\n        /* \"#utility.yul\":5451:5452   */\n      0x00\n        /* \"#utility.yul\":5443:5449   */\n      dup3\n        /* \"#utility.yul\":5439:5453   */\n      add\n        /* \"#utility.yul\":5432:5478   */\n      mstore\n        /* \"#utility.yul\":5315:5485   */\n      pop\n      jump\t// out\n        /* \"#utility.yul\":5491:5629   */\n    tag_52:\n        /* \"#utility.yul\":5572:5604   */\n      tag_124\n        /* \"#utility.yul\":5598:5603   */\n      dup2\n        /* \"#utility.yul\":5572:5604   */\n      tag_111\n      jump\t// in\n    tag_124:\n        /* \"#utility.yul\":5565:5570   */\n      dup2\n        /* \"#utility.yul\":5562:5605   */\n      eq\n        /* \"#utility.yul\":5552:5623   */\n      tag_125\n      jumpi\n        /* \"#utility.yul\":5619:5620   */\n      0x00\n        /* \"#utility.yul\":5616:5617   */\n      dup1\n        /* \"#utility.yul\":5609:5621   */\n      revert\n        /* \"#utility.yul\":5552:5623   */\n    tag_125:\n        /* \"#utility.yul\":5491:5629   */\n      pop\n      jump\t// out\n        /* \"#utility.yul\":5635:5751   */\n    tag_56:\n        /* \"#utility.yul\":5705:5726   */\n      tag_127\n        /* \"#utility.yul\":5720:5725   */\n      dup2\n        /* \"#utility.yul\":5705:5726   */\n      tag_73\n      jump\t// in\n    tag_127:\n        /* \"#utility.yul\":5698:5703   */\n      dup2\n        /* \"#utility.yul\":5695:5727   */\n      eq\n        /* \"#utility.yul\":5685:5745   */\n      tag_128\n      jumpi\n        /* \"#utility.yul\":5741:5742   */\n      0x00\n        /* \"#utility.yul\":5738:5739   */\n      dup1\n        /* \"#utility.yul\":5731:5743   */\n      revert\n        /* \"#utility.yul\":5685:5745   */\n    tag_128:\n        /* \"#utility.yul\":5635:5751   */\n      pop\n      jump\t// out\n\n    auxdata: 0xa26469706673582212202ca2ecaaf0fbb8f9cfe6e11319c40e25c4da611f8543f4124b6c64ee4450a68264736f6c63430008070033\n}\n",
				"bytecode": {
					"linkReferences": {},
					"object": "608060405234801561001057600080fd5b50336000806101000a81548173ffffffffffffffffffffffffffffffffffffffff021916908373ffffffffffffffffffffffffffffffffffffffff160217905550610645806100606000396000f3fe6080604052600436106100555760003560e01c80630adec93c1461005a57806316c38b3c146100835780632b6dcd77146100ac5780635c975abb146100d75780638da5cb5b14610102578063cbedbf5a1461012d575b600080fd5b34801561006657600080fd5b50610081600480360381019061007c919061033c565b610137565b005b34801561008f57600080fd5b506100aa60048036038101906100a59190610369565b61020f565b005b3480156100b857600080fd5b506100c16102ba565b6040516100ce919061047f565b60405180910390f35b3480156100e357600080fd5b506100ec6102c0565b6040516100f99190610424565b60405180910390f35b34801561010e57600080fd5b506101176102d3565b6040516101249190610409565b60405180910390f35b6101356102f7565b005b3373ffffffffffffffffffffffffffffffffffffffff1660008054906101000a900473ffffffffffffffffffffffffffffffffffffffff1673ffffffffffffffffffffffffffffffffffffffff16146101c5576040517f08c379a00000000000000000000000000000000000000000000000000000000081526004016101bc9061045f565b60405180910390fd5b8073ffffffffffffffffffffffffffffffffffffffff166108fc479081150290604051600060405180830381858888f1935050505015801561020b573d6000803e3d6000fd5b5050565b60008054906101000a900473ffffffffffffffffffffffffffffffffffffffff1673ffffffffffffffffffffffffffffffffffffffff163373ffffffffffffffffffffffffffffffffffffffff161461029d576040517f08c379a00000000000000000000000000000000000000000000000000000000081526004016102949061043f565b60405180910390fd5b80600260006101000a81548160ff02191690831515021790555050565b60015481565b600260009054906101000a900460ff1681565b60008054906101000a900473ffffffffffffffffffffffffffffffffffffffff1681565b346001600082825461030991906104ab565b92505081905550565b600081359050610321816105e1565b92915050565b600081359050610336816105f8565b92915050565b6000602082840312156103525761035161058a565b5b600061036084828501610312565b91505092915050565b60006020828403121561037f5761037e61058a565b5b600061038d84828501610327565b91505092915050565b61039f81610501565b82525050565b6103ae81610525565b82525050565b60006103c160158361049a565b91506103cc8261058f565b602082019050919050565b60006103e460148361049a565b91506103ef826105b8565b602082019050919050565b61040381610551565b82525050565b600060208201905061041e6000830184610396565b92915050565b600060208201905061043960008301846103a5565b92915050565b60006020820190508181036000830152610458816103b4565b9050919050565b60006020820190508181036000830152610478816103d7565b9050919050565b600060208201905061049460008301846103fa565b92915050565b600082825260208201905092915050565b60006104b682610551565b91506104c183610551565b9250827fffffffffffffffffffffffffffffffffffffffffffffffffffffffffffffffff038211156104f6576104f561055b565b5b828201905092915050565b600061050c82610531565b9050919050565b600061051e82610531565b9050919050565b60008115159050919050565b600073ffffffffffffffffffffffffffffffffffffffff82169050919050565b6000819050919050565b7f4e487b7100000000000000000000000000000000000000000000000000000000600052601160045260246000fd5b600080fd5b7f596f7520617265206e6f7420746865206f776e65720000000000000000000000600082015250565b7f596f752063616e6e6f742077697468647261772e000000000000000000000000600082015250565b6105ea81610513565b81146105f557600080fd5b50565b61060181610525565b811461060c57600080fd5b5056fea26469706673582212202ca2ecaaf0fbb8f9cfe6e11319c40e25c4da611f8543f4124b6c64ee4450a68264736f6c63430008070033",
					"opcodes": "PUSH1 0x80 PUSH1 0x40 MSTORE CALLVALUE DUP1 ISZERO PUSH2 0x10 JUMPI PUSH1 0x0 DUP1 REVERT JUMPDEST POP CALLER PUSH1 0x0 DUP1 PUSH2 0x100 EXP DUP2 SLOAD DUP2 PUSH20 0xFFFFFFFFFFFFFFFFFFFFFFFFFFFFFFFFFFFFFFFF MUL NOT AND SWAP1 DUP4 PUSH20 0xFFFFFFFFFFFFFFFFFFFFFFFFFFFFFFFFFFFFFFFF AND MUL OR SWAP1 SSTORE POP PUSH2 0x645 DUP1 PUSH2 0x60 PUSH1 0x0 CODECOPY PUSH1 0x0 RETURN INVALID PUSH1 0x80 PUSH1 0x40 MSTORE PUSH1 0x4 CALLDATASIZE LT PUSH2 0x55 JUMPI PUSH1 0x0 CALLDATALOAD PUSH1 0xE0 SHR DUP1 PUSH4 0xADEC93C EQ PUSH2 0x5A JUMPI DUP1 PUSH4 0x16C38B3C EQ PUSH2 0x83 JUMPI DUP1 PUSH4 0x2B6DCD77 EQ PUSH2 0xAC JUMPI DUP1 PUSH4 0x5C975ABB EQ PUSH2 0xD7 JUMPI DUP1 PUSH4 0x8DA5CB5B EQ PUSH2 0x102 JUMPI DUP1 PUSH4 0xCBEDBF5A EQ PUSH2 0x12D JUMPI JUMPDEST PUSH1 0x0 DUP1 REVERT JUMPDEST CALLVALUE DUP1 ISZERO PUSH2 0x66 JUMPI PUSH1 0x0 DUP1 REVERT JUMPDEST POP PUSH2 0x81 PUSH1 0x4 DUP1 CALLDATASIZE SUB DUP2 ADD SWAP1 PUSH2 0x7C SWAP2 SWAP1 PUSH2 0x33C JUMP JUMPDEST PUSH2 0x137 JUMP JUMPDEST STOP JUMPDEST CALLVALUE DUP1 ISZERO PUSH2 0x8F JUMPI PUSH1 0x0 DUP1 REVERT JUMPDEST POP PUSH2 0xAA PUSH1 0x4 DUP1 CALLDATASIZE SUB DUP2 ADD SWAP1 PUSH2 0xA5 SWAP2 SWAP1 PUSH2 0x369 JUMP JUMPDEST PUSH2 0x20F JUMP JUMPDEST STOP JUMPDEST CALLVALUE DUP1 ISZERO PUSH2 0xB8 JUMPI PUSH1 0x0 DUP1 REVERT JUMPDEST POP PUSH2 0xC1 PUSH2 0x2BA JUMP JUMPDEST PUSH1 0x40 MLOAD PUSH2 0xCE SWAP2 SWAP1 PUSH2 0x47F JUMP JUMPDEST PUSH1 0x40 MLOAD DUP1 SWAP2 SUB SWAP1 RETURN JUMPDEST CALLVALUE DUP1 ISZERO PUSH2 0xE3 JUMPI PUSH1 0x0 DUP1 REVERT JUMPDEST POP PUSH2 0xEC PUSH2 0x2C0 JUMP JUMPDEST PUSH1 0x40 MLOAD PUSH2 0xF9 SWAP2 SWAP1 PUSH2 0x424 JUMP JUMPDEST PUSH1 0x40 MLOAD DUP1 SWAP2 SUB SWAP1 RETURN JUMPDEST CALLVALUE DUP1 ISZERO PUSH2 0x10E JUMPI PUSH1 0x0 DUP1 REVERT JUMPDEST POP PUSH2 0x117 PUSH2 0x2D3 JUMP JUMPDEST PUSH1 0x40 MLOAD PUSH2 0x124 SWAP2 SWAP1 PUSH2 0x409 JUMP JUMPDEST PUSH1 0x40 MLOAD DUP1 SWAP2 SUB SWAP1 RETURN JUMPDEST PUSH2 0x135 PUSH2 0x2F7 JUMP JUMPDEST STOP JUMPDEST CALLER PUSH20 0xFFFFFFFFFFFFFFFFFFFFFFFFFFFFFFFFFFFFFFFF AND PUSH1 0x0 DUP1 SLOAD SWAP1 PUSH2 0x100 EXP SWAP1 DIV PUSH20 0xFFFFFFFFFFFFFFFFFFFFFFFFFFFFFFFFFFFFFFFF AND PUSH20 0xFFFFFFFFFFFFFFFFFFFFFFFFFFFFFFFFFFFFFFFF AND EQ PUSH2 0x1C5 JUMPI PUSH1 0x40 MLOAD PUSH32 0x8C379A000000000000000000000000000000000000000000000000000000000 DUP2 MSTORE PUSH1 0x4 ADD PUSH2 0x1BC SWAP1 PUSH2 0x45F JUMP JUMPDEST PUSH1 0x40 MLOAD DUP1 SWAP2 SUB SWAP1 REVERT JUMPDEST DUP1 PUSH20 0xFFFFFFFFFFFFFFFFFFFFFFFFFFFFFFFFFFFFFFFF AND PUSH2 0x8FC SELFBALANCE SWAP1 DUP2 ISZERO MUL SWAP1 PUSH1 0x40 MLOAD PUSH1 0x0 PUSH1 0x40 MLOAD DUP1 DUP4 SUB DUP2 DUP6 DUP9 DUP9 CALL SWAP4 POP POP POP POP ISZERO DUP1 ISZERO PUSH2 0x20B JUMPI RETURNDATASIZE PUSH1 0x0 DUP1 RETURNDATACOPY RETURNDATASIZE PUSH1 0x0 REVERT JUMPDEST POP POP JUMP JUMPDEST PUSH1 0x0 DUP1 SLOAD SWAP1 PUSH2 0x100 EXP SWAP1 DIV PUSH20 0xFFFFFFFFFFFFFFFFFFFFFFFFFFFFFFFFFFFFFFFF AND PUSH20 0xFFFFFFFFFFFFFFFFFFFFFFFFFFFFFFFFFFFFFFFF AND CALLER PUSH20 0xFFFFFFFFFFFFFFFFFFFFFFFFFFFFFFFFFFFFFFFF AND EQ PUSH2 0x29D JUMPI PUSH1 0x40 MLOAD PUSH32 0x8C379A000000000000000000000000000000000000000000000000000000000 DUP2 MSTORE PUSH1 0x4 ADD PUSH2 0x294 SWAP1 PUSH2 0x43F JUMP JUMPDEST PUSH1 0x40 MLOAD DUP1 SWAP2 SUB SWAP1 REVERT JUMPDEST DUP1 PUSH1 0x2 PUSH1 0x0 PUSH2 0x100 EXP DUP2 SLOAD DUP2 PUSH1 0xFF MUL NOT AND SWAP1 DUP4 ISZERO ISZERO MUL OR SWAP1 SSTORE POP POP JUMP JUMPDEST PUSH1 0x1 SLOAD DUP2 JUMP JUMPDEST PUSH1 0x2 PUSH1 0x0 SWAP1 SLOAD SWAP1 PUSH2 0x100 EXP SWAP1 DIV PUSH1 0xFF AND DUP2 JUMP JUMPDEST PUSH1 0x0 DUP1 SLOAD SWAP1 PUSH2 0x100 EXP SWAP1 DIV PUSH20 0xFFFFFFFFFFFFFFFFFFFFFFFFFFFFFFFFFFFFFFFF AND DUP2 JUMP JUMPDEST CALLVALUE PUSH1 0x1 PUSH1 0x0 DUP3 DUP3 SLOAD PUSH2 0x309 SWAP2 SWAP1 PUSH2 0x4AB JUMP JUMPDEST SWAP3 POP POP DUP2 SWAP1 SSTORE POP JUMP JUMPDEST PUSH1 0x0 DUP2 CALLDATALOAD SWAP1 POP PUSH2 0x321 DUP2 PUSH2 0x5E1 JUMP JUMPDEST SWAP3 SWAP2 POP POP JUMP JUMPDEST PUSH1 0x0 DUP2 CALLDATALOAD SWAP1 POP PUSH2 0x336 DUP2 PUSH2 0x5F8 JUMP JUMPDEST SWAP3 SWAP2 POP POP JUMP JUMPDEST PUSH1 0x0 PUSH1 0x20 DUP3 DUP5 SUB SLT ISZERO PUSH2 0x352 JUMPI PUSH2 0x351 PUSH2 0x58A JUMP JUMPDEST JUMPDEST PUSH1 0x0 PUSH2 0x360 DUP5 DUP3 DUP6 ADD PUSH2 0x312 JUMP JUMPDEST SWAP2 POP POP SWAP3 SWAP2 POP POP JUMP JUMPDEST PUSH1 0x0 PUSH1 0x20 DUP3 DUP5 SUB SLT ISZERO PUSH2 0x37F JUMPI PUSH2 0x37E PUSH2 0x58A JUMP JUMPDEST JUMPDEST PUSH1 0x0 PUSH2 0x38D DUP5 DUP3 DUP6 ADD PUSH2 0x327 JUMP JUMPDEST SWAP2 POP POP SWAP3 SWAP2 POP POP JUMP JUMPDEST PUSH2 0x39F DUP2 PUSH2 0x501 JUMP JUMPDEST DUP3 MSTORE POP POP JUMP JUMPDEST PUSH2 0x3AE DUP2 PUSH2 0x525 JUMP JUMPDEST DUP3 MSTORE POP POP JUMP JUMPDEST PUSH1 0x0 PUSH2 0x3C1 PUSH1 0x15 DUP4 PUSH2 0x49A JUMP JUMPDEST SWAP2 POP PUSH2 0x3CC DUP3 PUSH2 0x58F JUMP JUMPDEST PUSH1 0x20 DUP3 ADD SWAP1 POP SWAP2 SWAP1 POP JUMP JUMPDEST PUSH1 0x0 PUSH2 0x3E4 PUSH1 0x14 DUP4 PUSH2 0x49A JUMP JUMPDEST SWAP2 POP PUSH2 0x3EF DUP3 PUSH2 0x5B8 JUMP JUMPDEST PUSH1 0x20 DUP3 ADD SWAP1 POP SWAP2 SWAP1 POP JUMP JUMPDEST PUSH2 0x403 DUP2 PUSH2 0x551 JUMP JUMPDEST DUP3 MSTORE POP POP JUMP JUMPDEST PUSH1 0x0 PUSH1 0x20 DUP3 ADD SWAP1 POP PUSH2 0x41E PUSH1 0x0 DUP4 ADD DUP5 PUSH2 0x396 JUMP JUMPDEST SWAP3 SWAP2 POP POP JUMP JUMPDEST PUSH1 0x0 PUSH1 0x20 DUP3 ADD SWAP1 POP PUSH2 0x439 PUSH1 0x0 DUP4 ADD DUP5 PUSH2 0x3A5 JUMP JUMPDEST SWAP3 SWAP2 POP POP JUMP JUMPDEST PUSH1 0x0 PUSH1 0x20 DUP3 ADD SWAP1 POP DUP2 DUP2 SUB PUSH1 0x0 DUP4 ADD MSTORE PUSH2 0x458 DUP2 PUSH2 0x3B4 JUMP JUMPDEST SWAP1 POP SWAP2 SWAP1 POP JUMP JUMPDEST PUSH1 0x0 PUSH1 0x20 DUP3 ADD SWAP1 POP DUP2 DUP2 SUB PUSH1 0x0 DUP4 ADD MSTORE PUSH2 0x478 DUP2 PUSH2 0x3D7 JUMP JUMPDEST SWAP1 POP SWAP2 SWAP1 POP JUMP JUMPDEST PUSH1 0x0 PUSH1 0x20 DUP3 ADD SWAP1 POP PUSH2 0x494 PUSH1 0x0 DUP4 ADD DUP5 PUSH2 0x3FA JUMP JUMPDEST SWAP3 SWAP2 POP POP JUMP JUMPDEST PUSH1 0x0 DUP3 DUP3 MSTORE PUSH1 0x20 DUP3 ADD SWAP1 POP SWAP3 SWAP2 POP POP JUMP JUMPDEST PUSH1 0x0 PUSH2 0x4B6 DUP3 PUSH2 0x551 JUMP JUMPDEST SWAP2 POP PUSH2 0x4C1 DUP4 PUSH2 0x551 JUMP JUMPDEST SWAP3 POP DUP3 PUSH32 0xFFFFFFFFFFFFFFFFFFFFFFFFFFFFFFFFFFFFFFFFFFFFFFFFFFFFFFFFFFFFFFFF SUB DUP3 GT ISZERO PUSH2 0x4F6 JUMPI PUSH2 0x4F5 PUSH2 0x55B JUMP JUMPDEST JUMPDEST DUP3 DUP3 ADD SWAP1 POP SWAP3 SWAP2 POP POP JUMP JUMPDEST PUSH1 0x0 PUSH2 0x50C DUP3 PUSH2 0x531 JUMP JUMPDEST SWAP1 POP SWAP2 SWAP1 POP JUMP JUMPDEST PUSH1 0x0 PUSH2 0x51E DUP3 PUSH2 0x531 JUMP JUMPDEST SWAP1 POP SWAP2 SWAP1 POP JUMP JUMPDEST PUSH1 0x0 DUP2 ISZERO ISZERO SWAP1 POP SWAP2 SWAP1 POP JUMP JUMPDEST PUSH1 0x0 PUSH20 0xFFFFFFFFFFFFFFFFFFFFFFFFFFFFFFFFFFFFFFFF DUP3 AND SWAP1 POP SWAP2 SWAP1 POP JUMP JUMPDEST PUSH1 0x0 DUP2 SWAP1 POP SWAP2 SWAP1 POP JUMP JUMPDEST PUSH32 0x4E487B7100000000000000000000000000000000000000000000000000000000 PUSH1 0x0 MSTORE PUSH1 0x11 PUSH1 0x4 MSTORE PUSH1 0x24 PUSH1 0x0 REVERT JUMPDEST PUSH1 0x0 DUP1 REVERT JUMPDEST PUSH32 0x596F7520617265206E6F7420746865206F776E65720000000000000000000000 PUSH1 0x0 DUP3 ADD MSTORE POP JUMP JUMPDEST PUSH32 0x596F752063616E6E6F742077697468647261772E000000000000000000000000 PUSH1 0x0 DUP3 ADD MSTORE POP JUMP JUMPDEST PUSH2 0x5EA DUP2 PUSH2 0x513 JUMP JUMPDEST DUP2 EQ PUSH2 0x5F5 JUMPI PUSH1 0x0 DUP1 REVERT JUMPDEST POP JUMP JUMPDEST PUSH2 0x601 DUP2 PUSH2 0x525 JUMP JUMPDEST DUP2 EQ PUSH2 0x60C JUMPI PUSH1 0x0 DUP1 REVERT JUMPDEST POP JUMP INVALID LOG2 PUSH5 0x6970667358 0x22 SLT KECCAK256 0x2C LOG2 0xEC 0xAA CREATE 0xFB 0xB8 0xF9 0xCF 0xE6 0xE1 SGT NOT 0xC4 0xE 0x25 0xC4 0xDA PUSH2 0x1F85 NUMBER DELEGATECALL SLT 0x4B PUSH13 0x64EE4450A68264736F6C634300 ADDMOD SMOD STOP CALLER "
				},
				"gasEstimates": {
					"creation": {
						"codeDepositCost": "321000",
						"executionCost": "24628",
						"totalCost": "345628"
					},
					"external": {
						"myContractBalance()": "2451",
						"owner()": "2577",
						"paused()": "2515",
						"sendMoney()": "infinite",
						"setPaused(bool)": "26846",
						"withdrawAllMoney(address)": "infinite"
					}
				},
				"methodIdentifiers": {
					"myContractBalance()": "2b6dcd77",
					"owner()": "8da5cb5b",
					"paused()": "5c975abb",
					"sendMoney()": "cbedbf5a",
					"setPaused(bool)": "16c38b3c",
					"withdrawAllMoney(address)": "0adec93c"
				}
			},
			"storageLayout": {
				"storage": [
					{
						"astId": 3,
						"contract": "StartingStopping.sol:StartStopUpdateExample",
						"label": "owner",
						"offset": 0,
						"slot": "0",
						"type": "t_address"
					},
					{
						"astId": 5,
						"contract": "StartingStopping.sol:StartStopUpdateExample",
						"label": "myContractBalance",
						"offset": 0,
						"slot": "1",
						"type": "t_uint256"
					},
					{
						"astId": 7,
						"contract": "StartingStopping.sol:StartStopUpdateExample",
						"label": "paused",
						"offset": 0,
						"slot": "2",
						"type": "t_bool"
					}
				],
				"types": {
					"t_address": {
						"encoding": "inplace",
						"label": "address",
						"numberOfBytes": "20"
					},
					"t_bool": {
						"encoding": "inplace",
						"label": "bool",
						"numberOfBytes": "1"
					},
					"t_uint256": {
						"encoding": "inplace",
						"label": "uint256",
						"numberOfBytes": "32"
					}
				}
			},
			"userdoc": {
				"kind": "user",
				"methods": {},
				"version": 1
			}
		}
	}
}