{
	"data": {
		"bytecode": {
			"linkReferences": {
				"MyLibraryExample.sol": {
					"Search": [
						{
							"length": 20,
							"start": 245
						}
					]
				}
			},
			"object": "608060405234801561001057600080fd5b50610218806100206000396000f3fe608060405234801561001057600080fd5b50600436106100365760003560e01c8063e33b87071461003b578063e81cf24c14610069575b600080fd5b6100676004803603602081101561005157600080fd5b81019080803590602001909291905050506100a1565b005b61009f6004803603604081101561007f57600080fd5b8101908080359060200190929190803590602001909291905050506100d0565b005b600081908060018154018082558091505090600182039060005260206000200160009091929091909150555050565b60008073__$48d702c60cced3755afd4160402453c5da$__6324fef5c89091856040518363ffffffff1660e01b8152600401808381526020018281526020019250505060206040518083038186803b15801561012b57600080fd5b505af415801561013f573d6000803e3d6000fd5b505050506040513d602081101561015557600080fd5b810190808051906020019092919050505090507fffffffffffffffffffffffffffffffffffffffffffffffffffffffffffffffff8114156101c15760008290806001815401808255809150509060018203906000526020600020016000909192909190915055506101de565b81600082815481106101cf57fe5b90600052602060002001819055505b50505056fea265627a7a723158201a9d23a90eec69c976ca2225ac4252c3a119ba8c520258f656a22589736fcde864736f6c63430005110032",
			"opcodes": "PUSH1 0x80 PUSH1 0x40 MSTORE CALLVALUE DUP1 ISZERO PUSH2 0x10 JUMPI PUSH1 0x0 DUP1 REVERT JUMPDEST POP PUSH2 0x218 DUP1 PUSH2 0x20 PUSH1 0x0 CODECOPY PUSH1 0x0 RETURN INVALID PUSH1 0x80 PUSH1 0x40 MSTORE CALLVALUE DUP1 ISZERO PUSH2 0x10 JUMPI PUSH1 0x0 DUP1 REVERT JUMPDEST POP PUSH1 0x4 CALLDATASIZE LT PUSH2 0x36 JUMPI PUSH1 0x0 CALLDATALOAD PUSH1 0xE0 SHR DUP1 PUSH4 0xE33B8707 EQ PUSH2 0x3B JUMPI DUP1 PUSH4 0xE81CF24C EQ PUSH2 0x69 JUMPI JUMPDEST PUSH1 0x0 DUP1 REVERT JUMPDEST PUSH2 0x67 PUSH1 0x4 DUP1 CALLDATASIZE SUB PUSH1 0x20 DUP2 LT ISZERO PUSH2 0x51 JUMPI PUSH1 0x0 DUP1 REVERT JUMPDEST DUP2 ADD SWAP1 DUP1 DUP1 CALLDATALOAD SWAP1 PUSH1 0x20 ADD SWAP1 SWAP3 SWAP2 SWAP1 POP POP POP PUSH2 0xA1 JUMP JUMPDEST STOP JUMPDEST PUSH2 0x9F PUSH1 0x4 DUP1 CALLDATASIZE SUB PUSH1 0x40 DUP2 LT ISZERO PUSH2 0x7F JUMPI PUSH1 0x0 DUP1 REVERT JUMPDEST DUP2 ADD SWAP1 DUP1 DUP1 CALLDATALOAD SWAP1 PUSH1 0x20 ADD SWAP1 SWAP3 SWAP2 SWAP1 DUP1 CALLDATALOAD SWAP1 PUSH1 0x20 ADD SWAP1 SWAP3 SWAP2 SWAP1 POP POP POP PUSH2 0xD0 JUMP JUMPDEST STOP JUMPDEST PUSH1 0x0 DUP2 SWAP1 DUP1 PUSH1 0x1 DUP2 SLOAD ADD DUP1 DUP3 SSTORE DUP1 SWAP2 POP POP SWAP1 PUSH1 0x1 DUP3 SUB SWAP1 PUSH1 0x0 MSTORE PUSH1 0x20 PUSH1 0x0 KECCAK256 ADD PUSH1 0x0 SWAP1 SWAP2 SWAP3 SWAP1 SWAP2 SWAP1 SWAP2 POP SSTORE POP POP JUMP JUMPDEST PUSH1 0x0 DUP1 PUSH20 0x0 PUSH4 0x24FEF5C8 SWAP1 SWAP2 DUP6 PUSH1 0x40 MLOAD DUP4 PUSH4 0xFFFFFFFF AND PUSH1 0xE0 SHL DUP2 MSTORE PUSH1 0x4 ADD DUP1 DUP4 DUP2 MSTORE PUSH1 0x20 ADD DUP3 DUP2 MSTORE PUSH1 0x20 ADD SWAP3 POP POP POP PUSH1 0x20 PUSH1 0x40 MLOAD DUP1 DUP4 SUB DUP2 DUP7 DUP1 EXTCODESIZE ISZERO DUP1 ISZERO PUSH2 0x12B JUMPI PUSH1 0x0 DUP1 REVERT JUMPDEST POP GAS DELEGATECALL ISZERO DUP1 ISZERO PUSH2 0x13F JUMPI RETURNDATASIZE PUSH1 0x0 DUP1 RETURNDATACOPY RETURNDATASIZE PUSH1 0x0 REVERT JUMPDEST POP POP POP POP PUSH1 0x40 MLOAD RETURNDATASIZE PUSH1 0x20 DUP2 LT ISZERO PUSH2 0x155 JUMPI PUSH1 0x0 DUP1 REVERT JUMPDEST DUP2 ADD SWAP1 DUP1 DUP1 MLOAD SWAP1 PUSH1 0x20 ADD SWAP1 SWAP3 SWAP2 SWAP1 POP POP POP SWAP1 POP PUSH32 0xFFFFFFFFFFFFFFFFFFFFFFFFFFFFFFFFFFFFFFFFFFFFFFFFFFFFFFFFFFFFFFFF DUP2 EQ ISZERO PUSH2 0x1C1 JUMPI PUSH1 0x0 DUP3 SWAP1 DUP1 PUSH1 0x1 DUP2 SLOAD ADD DUP1 DUP3 SSTORE DUP1 SWAP2 POP POP SWAP1 PUSH1 0x1 DUP3 SUB SWAP1 PUSH1 0x0 MSTORE PUSH1 0x20 PUSH1 0x0 KECCAK256 ADD PUSH1 0x0 SWAP1 SWAP2 SWAP3 SWAP1 SWAP2 SWAP1 SWAP2 POP SSTORE POP PUSH2 0x1DE JUMP JUMPDEST DUP2 PUSH1 0x0 DUP3 DUP2 SLOAD DUP2 LT PUSH2 0x1CF JUMPI INVALID JUMPDEST SWAP1 PUSH1 0x0 MSTORE PUSH1 0x20 PUSH1 0x0 KECCAK256 ADD DUP2 SWAP1 SSTORE POP JUMPDEST POP POP POP JUMP INVALID LOG2 PUSH6 0x627A7A723158 KECCAK256 BYTE SWAP14 0x23 0xA9 0xE 0xEC PUSH10 0xC976CA2225AC4252C3A1 NOT 0xBA DUP13 MSTORE MUL PC 0xF6 JUMP LOG2 0x25 DUP10 PUSH20 0x6FCDE864736F6C63430005110032000000000000 "
		},
		"gasEstimates": {
			"creation": {
				"codeDepositCost": "107200",
				"executionCost": "153",
				"totalCost": "107353"
			},
			"external": {
				"append(uint256)": "41137",
				"replace(uint256,uint256)": "infinite"
			}
		},
		"methodIdentifiers": {
			"append(uint256)": "e33b8707",
			"replace(uint256,uint256)": "e81cf24c"
		}
	},
	"abi": [
		{
			"constant": false,
			"inputs": [
				{
					"internalType": "uint256",
					"name": "value",
					"type": "uint256"
				}
			],
			"name": "append",
			"outputs": [],
			"payable": false,
			"stateMutability": "nonpayable",
			"type": "function"
		},
		{
			"constant": false,
			"inputs": [
				{
					"internalType": "uint256",
					"name": "_old",
					"type": "uint256"
				},
				{
					"internalType": "uint256",
					"name": "_new",
					"type": "uint256"
				}
			],
			"name": "replace",
			"outputs": [],
			"payable": false,
			"stateMutability": "nonpayable",
			"type": "function"
		}
	]
}